{
  "address": "0xFdbF3Be079AfbD27aE89378839B48Ad7BD18Bbe4",
  "abi": [
    {
      "inputs": [],
      "stateMutability": "nonpayable",
      "type": "constructor"
    },
    {
      "anonymous": false,
      "inputs": [
        {
          "indexed": true,
          "internalType": "address",
          "name": "previousOwner",
          "type": "address"
        },
        {
          "indexed": true,
          "internalType": "address",
          "name": "newOwner",
          "type": "address"
        }
      ],
      "name": "OwnershipTransferred",
      "type": "event"
    },
    {
      "anonymous": false,
      "inputs": [
        {
          "indexed": false,
          "internalType": "address",
          "name": "account",
          "type": "address"
        }
      ],
      "name": "Paused",
      "type": "event"
    },
    {
      "anonymous": false,
      "inputs": [],
      "name": "SetParameters",
      "type": "event"
    },
    {
      "anonymous": false,
      "inputs": [
        {
          "indexed": false,
          "internalType": "uint256",
          "name": "limit",
          "type": "uint256"
        },
        {
          "indexed": false,
          "internalType": "uint256",
          "name": "renewals",
          "type": "uint256"
        },
        {
          "indexed": false,
          "internalType": "uint256",
          "name": "depth",
          "type": "uint256"
        },
        {
          "indexed": false,
          "internalType": "enum ICaskSubscriptionManager.CheckType",
          "name": "checkType",
          "type": "uint8"
        },
        {
          "indexed": false,
          "internalType": "uint256",
          "name": "queueRemaining",
          "type": "uint256"
        },
        {
          "indexed": false,
          "internalType": "uint32",
          "name": "currentBucket",
          "type": "uint32"
        }
      ],
      "name": "SubscriptionManagerReport",
      "type": "event"
    },
    {
      "anonymous": false,
      "inputs": [
        {
          "indexed": false,
          "internalType": "address",
          "name": "account",
          "type": "address"
        }
      ],
      "name": "Unpaused",
      "type": "event"
    },
    {
      "inputs": [
        {
          "internalType": "bytes",
          "name": "checkData",
          "type": "bytes"
        }
      ],
      "name": "checkUpkeep",
      "outputs": [
        {
          "internalType": "bool",
          "name": "upkeepNeeded",
          "type": "bool"
        },
        {
          "internalType": "bytes",
          "name": "performData",
          "type": "bytes"
        }
      ],
      "stateMutability": "view",
      "type": "function"
    },
    {
      "inputs": [
        {
          "internalType": "address",
          "name": "_vault",
          "type": "address"
        },
        {
          "internalType": "address",
          "name": "_subscriptionPlans",
          "type": "address"
        },
        {
          "internalType": "address",
          "name": "_subscriptions",
          "type": "address"
        }
      ],
      "name": "initialize",
      "outputs": [],
      "stateMutability": "nonpayable",
      "type": "function"
    },
    {
      "inputs": [],
      "name": "owner",
      "outputs": [
        {
          "internalType": "address",
          "name": "",
          "type": "address"
        }
      ],
      "stateMutability": "view",
      "type": "function"
    },
    {
      "inputs": [],
      "name": "pause",
      "outputs": [],
      "stateMutability": "nonpayable",
      "type": "function"
    },
    {
      "inputs": [],
      "name": "paused",
      "outputs": [
        {
          "internalType": "bool",
          "name": "",
          "type": "bool"
        }
      ],
      "stateMutability": "view",
      "type": "function"
    },
    {
      "inputs": [],
      "name": "paymentFeeMin",
      "outputs": [
        {
          "internalType": "uint256",
          "name": "",
          "type": "uint256"
        }
      ],
      "stateMutability": "view",
      "type": "function"
    },
    {
      "inputs": [],
      "name": "paymentFeeRateMax",
      "outputs": [
        {
          "internalType": "uint256",
          "name": "",
          "type": "uint256"
        }
      ],
      "stateMutability": "view",
      "type": "function"
    },
    {
      "inputs": [],
      "name": "paymentFeeRateMin",
      "outputs": [
        {
          "internalType": "uint256",
          "name": "",
          "type": "uint256"
        }
      ],
      "stateMutability": "view",
      "type": "function"
    },
    {
      "inputs": [],
      "name": "paymentMinValue",
      "outputs": [
        {
          "internalType": "uint256",
          "name": "",
          "type": "uint256"
        }
      ],
      "stateMutability": "view",
      "type": "function"
    },
    {
      "inputs": [],
      "name": "paymentRetryDelay",
      "outputs": [
        {
          "internalType": "uint32",
          "name": "",
          "type": "uint32"
        }
      ],
      "stateMutability": "view",
      "type": "function"
    },
    {
      "inputs": [
        {
          "internalType": "bytes",
          "name": "performData",
          "type": "bytes"
        }
      ],
      "name": "performUpkeep",
      "outputs": [],
      "stateMutability": "nonpayable",
      "type": "function"
    },
    {
      "inputs": [],
      "name": "processBucketMaxAge",
      "outputs": [
        {
          "internalType": "uint32",
          "name": "",
          "type": "uint32"
        }
      ],
      "stateMutability": "view",
      "type": "function"
    },
    {
      "inputs": [],
      "name": "processBucketSize",
      "outputs": [
        {
          "internalType": "uint32",
          "name": "",
          "type": "uint32"
        }
      ],
      "stateMutability": "view",
      "type": "function"
    },
    {
      "inputs": [
        {
          "internalType": "address",
          "name": "_consumer",
          "type": "address"
        },
        {
          "internalType": "address",
          "name": "_provider",
          "type": "address"
        },
        {
          "internalType": "uint256",
          "name": "_subscriptionId",
          "type": "uint256"
        },
        {
          "internalType": "uint256",
          "name": "_value",
          "type": "uint256"
        }
      ],
      "name": "processSinglePayment",
      "outputs": [
        {
          "internalType": "bool",
          "name": "",
          "type": "bool"
        }
      ],
      "stateMutability": "nonpayable",
      "type": "function"
    },
    {
      "inputs": [
        {
          "internalType": "enum ICaskSubscriptionManager.CheckType",
          "name": "_checkType",
          "type": "uint8"
        },
        {
          "internalType": "uint32",
          "name": "_bucket",
          "type": "uint32"
        },
        {
          "internalType": "uint256",
          "name": "_idx",
          "type": "uint256"
        }
      ],
      "name": "queueItem",
      "outputs": [
        {
          "internalType": "uint256",
          "name": "",
          "type": "uint256"
        }
      ],
      "stateMutability": "view",
      "type": "function"
    },
    {
      "inputs": [
        {
          "internalType": "enum ICaskSubscriptionManager.CheckType",
          "name": "_checkType",
          "type": "uint8"
        }
      ],
      "name": "queuePosition",
      "outputs": [
        {
          "internalType": "uint32",
          "name": "",
          "type": "uint32"
        }
      ],
      "stateMutability": "view",
      "type": "function"
    },
    {
      "inputs": [
        {
          "internalType": "enum ICaskSubscriptionManager.CheckType",
          "name": "_checkType",
          "type": "uint8"
        },
        {
          "internalType": "uint32",
          "name": "_bucket",
          "type": "uint32"
        }
      ],
      "name": "queueSize",
      "outputs": [
        {
          "internalType": "uint256",
          "name": "",
          "type": "uint256"
        }
      ],
      "stateMutability": "view",
      "type": "function"
    },
    {
      "inputs": [
        {
          "internalType": "uint256",
          "name": "_subscriptionId",
          "type": "uint256"
        }
      ],
      "name": "renewSubscription",
      "outputs": [],
      "stateMutability": "nonpayable",
      "type": "function"
    },
    {
      "inputs": [],
      "name": "renounceOwnership",
      "outputs": [],
      "stateMutability": "nonpayable",
      "type": "function"
    },
    {
      "inputs": [
        {
          "internalType": "uint256",
          "name": "_paymentMinValue",
          "type": "uint256"
        },
        {
          "internalType": "uint256",
          "name": "_paymentFeeMin",
          "type": "uint256"
        },
        {
          "internalType": "uint256",
          "name": "_paymentFeeRateMin",
          "type": "uint256"
        },
        {
          "internalType": "uint256",
          "name": "_paymentFeeRateMax",
          "type": "uint256"
        },
        {
          "internalType": "uint256",
          "name": "_stakeTargetFactor",
          "type": "uint256"
        },
        {
          "internalType": "uint32",
          "name": "_processBucketSize",
          "type": "uint32"
        },
        {
          "internalType": "uint32",
          "name": "_processBucketMaxAge",
          "type": "uint32"
        },
        {
          "internalType": "uint32",
          "name": "_paymentRetryDelay",
          "type": "uint32"
        }
      ],
      "name": "setParameters",
      "outputs": [],
      "stateMutability": "nonpayable",
      "type": "function"
    },
    {
      "inputs": [
        {
          "internalType": "enum ICaskSubscriptionManager.CheckType",
          "name": "_checkType",
          "type": "uint8"
        },
        {
          "internalType": "uint32",
          "name": "_timestamp",
          "type": "uint32"
        }
      ],
      "name": "setProcessingBucket",
      "outputs": [],
      "stateMutability": "nonpayable",
      "type": "function"
    },
    {
      "inputs": [],
      "name": "stakeTargetFactor",
      "outputs": [
        {
          "internalType": "uint256",
          "name": "",
          "type": "uint256"
        }
      ],
      "stateMutability": "view",
      "type": "function"
    },
    {
      "inputs": [],
      "name": "subscriptionPlans",
      "outputs": [
        {
          "internalType": "contract ICaskSubscriptionPlans",
          "name": "",
          "type": "address"
        }
      ],
      "stateMutability": "view",
      "type": "function"
    },
    {
      "inputs": [],
      "name": "subscriptions",
      "outputs": [
        {
          "internalType": "contract ICaskSubscriptions",
          "name": "",
          "type": "address"
        }
      ],
      "stateMutability": "view",
      "type": "function"
    },
    {
      "inputs": [
        {
          "internalType": "address",
          "name": "newOwner",
          "type": "address"
        }
      ],
      "name": "transferOwnership",
      "outputs": [],
      "stateMutability": "nonpayable",
      "type": "function"
    },
    {
      "inputs": [],
      "name": "unpause",
      "outputs": [],
      "stateMutability": "nonpayable",
      "type": "function"
    },
    {
      "inputs": [],
      "name": "vault",
      "outputs": [
        {
          "internalType": "contract ICaskVault",
          "name": "",
          "type": "address"
        }
      ],
      "stateMutability": "view",
      "type": "function"
    }
  ],
  "transactionHash": "0x37f0d3b8b29c3b64acffd67ad4434412191c25d549a5bfb77ab95df59700b7d4",
  "args": [],
  "numDeployments": 2,
  "solcInputHash": "ca4fa8814a8b5d2b4706e2e60b7c0b60",
  "bytecode": "0x60806040523480156200001157600080fd5b50600054610100900460ff166200002f5760005460ff161562000039565b62000039620000de565b620000a15760405162461bcd60e51b815260206004820152602e60248201527f496e697469616c697a61626c653a20636f6e747261637420697320616c72656160448201526d191e481a5b9a5d1a585b1a5e995960921b606482015260840160405180910390fd5b600054610100900460ff16158015620000c4576000805461ffff19166101011790555b8015620000d7576000805461ff00191690555b5062000102565b6000620000f630620000fc60201b620012771760201c565b15905090565b3b151590565b61303680620001126000396000f3fe608060405234801561001057600080fd5b50600436106101a95760003560e01c806393357f58116100f9578063c54c58c411610097578063d71bb37b11610071578063d71bb37b14610358578063eab01b801461036b578063f2fde38b14610383578063fbfa77cf1461039657600080fd5b8063c54c58c41461032c578063c5daa6c01461033f578063c83cbe891461034f57600080fd5b8063aa878f76116100d3578063aa878f76146102ea578063b8e381e5146102fd578063badf4b3e14610310578063c0c53b8b1461031957600080fd5b806393357f58146102b45780639bf4654e146102c4578063a76d67b8146102d757600080fd5b80634585e33b11610166578063715018a611610140578063715018a61461026c5780638456cb59146102745780638da5cb5b1461027c5780638fe17b16146102a157600080fd5b80634585e33b146102215780635c975abb146102345780636e04ff0d1461024b57600080fd5b806308e27a99146101ae57806314fad707146101ca5780631c39033c146101dd578063219e24c5146102055780633d3ce9261461020e5780633f4ba83a14610217575b600080fd5b6101b7609d5481565b6040519081526020015b60405180910390f35b6101b76101d83660046126bf565b6103a9565b6101f06101eb366004612700565b610423565b60405163ffffffff90911681526020016101c1565b6101b7609b5481565b6101b760a15481565b61021f610469565b005b61021f61022f36600461271d565b6104a6565b60655460ff165b60405190151581526020016101c1565b61025e61025936600461271d565b6109f1565b6040516101c19291906127bb565b61021f610bfb565b61021f610c2f565b6033546001600160a01b03165b6040516001600160a01b0390911681526020016101c1565b609754610289906001600160a01b031681565b609e546101f09063ffffffff1681565b61021f6102d23660046127f7565b610c61565b61021f6102e5366004612873565b610e89565b6101b76102f8366004612873565b610f13565b609854610289906001600160a01b031681565b6101b7609c5481565b61021f6103273660046128c1565b610f68565b61023b61033a36600461290c565b61114b565b60a2546101f09063ffffffff1681565b6101b7609a5481565b61021f610366366004612952565b6111b0565b60a2546101f090640100000000900463ffffffff1681565b61021f61039136600461296b565b6111df565b609954610289906001600160a01b031681565b6000609f60008560028111156103c1576103c1612988565b60028111156103d2576103d2612988565b815260200190815260200160002060008463ffffffff1663ffffffff168152602001908152602001600020828154811061040e5761040e61299e565b906000526020600020015490505b9392505050565b600060a0600083600281111561043b5761043b612988565b600281111561044c5761044c612988565b815260208101919091526040016000205463ffffffff1692915050565b6033546001600160a01b0316331461049c5760405162461bcd60e51b8152600401610493906129b4565b60405180910390fd5b6104a461127d565b565b60655460ff16156104c95760405162461bcd60e51b8152600401610493906129e9565b600080806104d984860186612a13565b92509250925060006104e9611310565b90506000806104f9866005612a57565b905060a0600085600281111561051157610511612988565b600281111561052257610522612988565b815260208101919091526040016000205463ffffffff16610592578260a0600086600281111561055457610554612988565b600281111561056557610565612988565b815260200190815260200160002060006101000a81548163ffffffff021916908363ffffffff1602179055505b85821080156105a15750600081115b80156105f057508263ffffffff1660a060008660028111156105c5576105c5612988565b60028111156105d6576105d6612988565b815260208101919091526040016000205463ffffffff1611155b156108e1576000609f600086600281111561060d5761060d612988565b600281111561061e5761061e612988565b8152602001908152602001600020600060a0600088600281111561064457610644612988565b600281111561065557610655612988565b8152602080820192909252604090810160009081205463ffffffff16845291830193909352910190205490508015610800576000609f600087600281111561069f5761069f612988565b60028111156106b0576106b0612988565b8152602001908152602001600020600060a060008960028111156106d6576106d6612988565b60028111156106e7576106e7612988565b8152602080820192909252604090810160009081205463ffffffff168452918301939093529101902061071b600184612a76565b8154811061072b5761072b61299e565b90600052602060002001549050609f600087600281111561074e5761074e612988565b600281111561075f5761075f612988565b8152602001908152602001600020600060a0600089600281111561078557610785612988565b600281111561079657610796612988565b8152602080820192909252604090810160009081205463ffffffff16845291830193909352910190208054806107ce576107ce612a8d565b600190038181906000526020600020016000905590556107ed81611338565b6107f8600185612aa3565b9350506108db565b8363ffffffff1660a0600087600281111561081d5761081d612988565b600281111561082e5761082e612988565b815260208101919091526040016000205463ffffffff1610156108d557609e5463ffffffff1660a0600087600281111561086a5761086a612988565b600281111561087b5761087b612988565b81526020810191909152604001600090812080549091906108a390849063ffffffff16612abb565b92506101000a81548163ffffffff021916908363ffffffff1602179055506001826108ce9190612a76565b91506108db565b506108e1565b50610592565b7f75a64c7d044cacf7f5733a40d9f770446e4a977483bf14d9e58752255a62785386838787609f60008a600281111561091c5761091c612988565b600281111561092d5761092d612988565b8152602001908152602001600020600060a060008c600281111561095357610953612988565b600281111561096457610964612988565b8152602080820192909252604090810160009081205463ffffffff1684529183019390935291018120549060a0908b60028111156109a4576109a4612988565b60028111156109b5576109b5612988565b8152602081019190915260409081016000205490516109df96959493929163ffffffff1690612af7565b60405180910390a15050505050505050565b60006060818080610a0486880188612a13565b9250925092506000610a14611310565b905060009550600060a06000846002811115610a3257610a32612988565b6002811115610a4357610a43612988565b815260208101919091526040016000205463ffffffff16905080610a645750805b8063ffffffff168263ffffffff1610158015610a96575060a25463ffffffff16610a8e8284612b36565b63ffffffff16115b15610aa45760019650610b83565b8163ffffffff168163ffffffff1611610b83576000609f6000856002811115610acf57610acf612988565b6002811115610ae057610ae0612988565b81526020808201929092526040908101600090812063ffffffff86168252909252902054118015610b5b575083609f6000856002811115610b2357610b23612988565b6002811115610b3457610b34612988565b81526020808201929092526040908101600090812063ffffffff8616825290925290205410155b15610b695760019650610b83565b609e54610b7c9063ffffffff1682612abb565b9050610aa4565b84609f6000856002811115610b9a57610b9a612988565b6002811115610bab57610bab612988565b81526020808201929092526040908101600090812063ffffffff861682528352819020549051610bde9392879101612b5b565b604051602081830303815290604052955050505050509250929050565b6033546001600160a01b03163314610c255760405162461bcd60e51b8152600401610493906129b4565b6104a46000611d50565b6033546001600160a01b03163314610c595760405162461bcd60e51b8152600401610493906129b4565b6104a4611da2565b6033546001600160a01b03163314610c8b5760405162461bcd60e51b8152600401610493906129b4565b6127108610610cdc5760405162461bcd60e51b815260206004820152601b60248201527f21494e56414c4944287061796d656e74466565526174654d696e2900000000006044820152606401610493565b6127108510610d2d5760405162461bcd60e51b815260206004820152601b60248201527f21494e56414c4944287061796d656e74466565526174654d61782900000000006044820152606401610493565b60a1889055609a879055609b869055609c859055609d849055609e805463ffffffff191663ffffffff8581169190911790915560a2805484831667ffffffffffffffff199091161764010000000092841692909202919091179055610dbf60a0600060015b6002811115610da357610da3612988565b815260208101919091526040016000205463ffffffff16611dfa565b6001600090815260a060208190527f5e4aa62fc514c001129aba2f8cfdadfdbf7b1cca3faf4a1fee3af14b1315f0dd805463ffffffff191663ffffffff9490941693909317909255610e1391906002610d92565b6002600090815260a06020527e3e94880a29ff53e6a8208a04e96e212c12922b7bda6b10d8c1979e9844e678805463ffffffff191663ffffffff93909316929092179091556040517f3b5fda6f71b960b21be0b432d9b7c87d9c8c996477ea1eba5c19cb77d1e027aa9190a15050505050505050565b6033546001600160a01b03163314610eb35760405162461bcd60e51b8152600401610493906129b4565b610ebc81611dfa565b60a06000846002811115610ed257610ed2612988565b6002811115610ee357610ee3612988565b815260200190815260200160002060006101000a81548163ffffffff021916908363ffffffff1602179055505050565b6000609f6000846002811115610f2b57610f2b612988565b6002811115610f3c57610f3c612988565b81526020808201929092526040908101600090812063ffffffff86168252909252902054905092915050565b600054610100900460ff16610f835760005460ff1615610f87565b303b155b610fea5760405162461bcd60e51b815260206004820152602e60248201527f496e697469616c697a61626c653a20636f6e747261637420697320616c72656160448201526d191e481a5b9a5d1a585b1a5e995960921b6064820152608401610493565b600054610100900460ff1615801561100c576000805461ffff19166101011790555b611014611e2a565b61101c611e61565b609780546001600160a01b038086166001600160a01b031992831617909255609880548584169083161790556099805492871692909116919091179055600060a1819055609a819055609b819055609c819055609d55609e805463ffffffff191661012c17905560a2805465a8c000000e1067ffffffffffffffff199091161790556110a6611310565b600160005260a06020527f5e4aa62fc514c001129aba2f8cfdadfdbf7b1cca3faf4a1fee3af14b1315f0dd805463ffffffff191663ffffffff929092169190911790556110f1611310565b600260005260a06020527e3e94880a29ff53e6a8208a04e96e212c12922b7bda6b10d8c1979e9844e678805463ffffffff191663ffffffff929092169190911790558015611145576000805461ff00191690555b50505050565b6098546000906001600160a01b0316336001600160a01b0316146111995760405162461bcd60e51b815260206004820152600560248201526404282aaa8960db1b6044820152606401610493565b6111a585858585611e98565b90505b949350505050565b60655460ff16156111d35760405162461bcd60e51b8152600401610493906129e9565b6111dc81611338565b50565b6033546001600160a01b031633146112095760405162461bcd60e51b8152600401610493906129b4565b6001600160a01b03811661126e5760405162461bcd60e51b815260206004820152602660248201527f4f776e61626c653a206e6577206f776e657220697320746865207a65726f206160448201526564647265737360d01b6064820152608401610493565b6111dc81611d50565b3b151590565b60655460ff166112c65760405162461bcd60e51b815260206004820152601460248201527314185d5cd8589b194e881b9bdd081c185d5cd95960621b6044820152606401610493565b6065805460ff191690557f5db9ee0a495bf2e6ff9c91a7834c1ba4fdd244a5e8aa4e537bd38aeae4b073aa335b6040516001600160a01b03909116815260200160405180910390a1565b609e5460009042906113289063ffffffff1682612b8c565b6113329082612b36565b91505090565b60985460405163dc311dd360e01b81526004810183905260009182916001600160a01b039091169063dc311dd39060240160006040518083038186803b15801561138157600080fd5b505afa158015611395573d6000803e3d6000fd5b505050506040513d6000823e601f3d908101601f191682016040526113bd9190810190612ca1565b90925090504260038360c0015160068111156113db576113db612988565b14806113fc575060048360c0015160068111156113fa576113fa612988565b145b8061141c575060008360c00151600681111561141a5761141a612988565b145b156114275750505050565b8063ffffffff1683610120015163ffffffff1611156114af5760016000908152609f6020526101208401517fd8ebc4b3e3fc84fb7267bc9651f22e5107e8b4ddef6b7d4ac503c1ca7368470b919061147e90611dfa565b63ffffffff168152602080820192909252604001600090812080546001810182559082529190200193909355505050565b60068360c0015160068111156114c7576114c7612988565b141561153857609854604051633efbd95560e11b81526001600160a01b0390911690637df7b2aa90611500908790600690600401612df7565b600060405180830381600087803b15801561151a57600080fd5b505af115801561152e573d6000803e3d6000fd5b5050505050505050565b600083610160015163ffffffff1611801561156457508063ffffffff1683610160015163ffffffff1611155b806116c95750600260975460a085015160e086015160405163b6ab359f60e01b81526001600160a01b03928316600482015263ffffffff909116602482015291169063b6ab359f9060440160206040518083038186803b1580156115c757600080fd5b505afa1580156115db573d6000803e3d6000fd5b505050506040513d601f19601f820116820180604052508101906115ff9190612e1b565b600281111561161057611610612988565b1480156116c9575060975460a084015160e085015160405163025b687560e01b815263ffffffff8516936001600160a01b03169263025b687592611670926004016001600160a01b0392909216825263ffffffff16602082015260400190565b60206040518083038186803b15801561168857600080fd5b505afa15801561169c573d6000803e3d6000fd5b505050506040513d601f19601f820116820180604052508101906116c09190612e38565b63ffffffff1611155b1561170157609854604051633efbd95560e11b81526001600160a01b0390911690637df7b2aa90611500908790600290600401612df7565b60985460405163321b9a5560e21b8152600481018690526000916001600160a01b03169063c86e69549060240160206040518083038186803b15801561174657600080fd5b505afa15801561175a573d6000803e3d6000fd5b505050506040513d601f19601f8201168201806040525081019061177e9190612e55565b111561186d57609854604051633efbd95560e11b81526001600160a01b0390911690637df7b2aa906117b7908790600190600401612df7565b600060405180830381600087803b1580156117d157600080fd5b505af11580156117e5573d6000803e3d6000fd5b505060985460405163dc311dd360e01b8152600481018890526001600160a01b03909116925063dc311dd3915060240160006040518083038186803b15801561182d57600080fd5b505afa158015611841573d6000803e3d6000fd5b505050506040513d6000823e601f3d908101601f191682016040526118699190810190612ca1565b5092505b600061187c846000015161212a565b80519091508061188e57505050505050565b6040850151156119c35760006118a78660600151612205565b90508060a0015161ffff16600014806118f257508363ffffffff168160a0015161ffff1684604001516118da9190612e6e565b8761010001516118ea9190612abb565b63ffffffff16115b1561195b57611906858760400151836122ed565b156119565760008160e00151611935578151612710906119269085612a57565b6119309190612e9a565b611938565b81515b9050808311611948576000611952565b6119528184612a76565b9250505b6119c1565b609854604051633efbd95560e11b81526001600160a01b0390911690637df7b2aa9061198e908a90600590600401612df7565b600060405180830381600087803b1580156119a857600080fd5b505af11580156119bc573d6000803e3d6000fd5b505050505b505b60a1548110806119d55750609a548111155b15611a4457609854604051633efbd95560e11b81526001600160a01b0390911690637df7b2aa90611a0d908990600290600401612df7565b600060405180830381600087803b158015611a2757600080fd5b505af1158015611a3b573d6000803e3d6000fd5b50505050611d48565b611a54848660a001518884611e98565b15611b93578263ffffffff168260400151866101200151611a759190612abb565b63ffffffff161015611ae85760026000908152609f6020527f95684aba87c7afc0cb0825ce802e59a0c43a91e65441705f8ec2d377a306a58790611ab885611dfa565b63ffffffff1681526020808201929092526040016000908120805460018101825590825291902001869055611b61565b60016000908152609f60205260408301516101208701517fd8ebc4b3e3fc84fb7267bc9651f22e5107e8b4ddef6b7d4ac503c1ca7368470b9291611b3591611b309190612abb565b611dfa565b63ffffffff16815260208082019290925260400160009081208054600181018255908252919020018690555b609854604051633efbd95560e11b81526001600160a01b0390911690637df7b2aa90611a0d9089906004908101612df7565b60c0820151611ba89060ff1662015180612eae565b611bb79062ffffff1684612b36565b63ffffffff1685610120015163ffffffff161015611c0257609854604051633efbd95560e11b81526001600160a01b0390911690637df7b2aa90611a0d908990600290600401612df7565b60058560c001516006811115611c1a57611c1a612988565b14611cce5760026000908152609f60205260a2547f95684aba87c7afc0cb0825ce802e59a0c43a91e65441705f8ec2d377a306a5879190611c6d90611b3090640100000000900463ffffffff1687612abb565b63ffffffff1681526020808201929092526040908101600090812080546001810182559082529290209091018790556098549051633efbd95560e11b81526001600160a01b0390911690637df7b2aa90611a0d908990600390600401612df7565b60026000908152609f60205260a2547f95684aba87c7afc0cb0825ce802e59a0c43a91e65441705f8ec2d377a306a5879190611d1c90611b3090640100000000900463ffffffff1687612abb565b63ffffffff16815260208082019290925260400160009081208054600181018255908252919020018690555b505050505050565b603380546001600160a01b038381166001600160a01b0319831681179093556040519116919082907f8be0079c531659141344cd1fd0a4f28419497f9722a3daafe3b4186f6b6457e090600090a35050565b60655460ff1615611dc55760405162461bcd60e51b8152600401610493906129e9565b6065805460ff191660011790557f62e78cea01bee320cd4e420270b5ea74000d11b0c9f74754ebdbfc544b05a2586112f33390565b609e5460009063ffffffff16611e108184612b8c565b611e1a9084612b36565b611e249190612abb565b92915050565b600054610100900460ff16611e515760405162461bcd60e51b815260040161049390612ed0565b611e596123ca565b6104a46123f1565b600054610100900460ff16611e885760405162461bcd60e51b815260040161049390612ed0565b611e906123ca565b6104a4612421565b60985460405163dc311dd360e01b81526004810184905260009182916001600160a01b039091169063dc311dd39060240160006040518083038186803b158015611ee157600080fd5b505afa158015611ef5573d6000803e3d6000fd5b505050506040513d6000823e601f3d908101601f19168201604052611f1d9190810190612ca1565b50609c54609d54919250901561207557600080611f3d846000015161212a565b9050600082118015611f5957506000816040015163ffffffff16115b15612072576000620151808260400151611f739190612f1b565b611f7f9061016d612f1b565b609d5460985460a08801516040516374c1443960e01b81526001600160a01b0391821660048201526000602482018190526044820181905263ffffffff95909516955085939291909116906374c144399060640160206040518083038186803b158015611feb57600080fd5b505afa158015611fff573d6000803e3d6000fd5b505050506040513d601f19601f820116820180604052508101906120239190612e55565b61202d9190612a57565b6120379190612a57565b90506120438185612e9a565b609c546120509190612a57565b609c5461205d9190612a76565b9450609b5485101561206f57609b5494505b50505b50505b609754604051630782fb5960e31b81526001600160a01b0388811660048301526000921690633c17dac89060240160006040518083038186803b1580156120bb57600080fd5b505afa1580156120cf573d6000803e3d6000fd5b505050506040513d6000823e601f3d908101601f191682016040526120f79190810190612f3e565b805190915087906001600160a01b031615612110575080515b61211d848a838987612454565b9998505050505050505050565b6040805161012081018252600080825260208201819052918101829052606081018290526080810182905260a0810182905260c0810182905260e0810182905261010081019190915250604080516101208101825260a083811c8252608084811c63ffffffff908116602080860191909152606087811c8316868801529587901c8216958501959095529385901c90931692820192909252601083901c61ffff1691810191909152600882901c60ff1660c082015260f89190911b600160f81b8181161460e0830152600160f91b9081161461010082015290565b6040805161010081018252600080825260208201819052918101829052606081018290526080810182905260a0810182905260c0810182905260e0810191909152604080516101008101825260a084811c825263ffffffff608086811c8216602080860191909152606088811c8416868801529588901c8316958501959095529386901c169282019290925261ffff601085901c169181019190915260f083901b9060c0810160ff851660028111156122c0576122c0612988565b60028111156122d1576122d1612988565b8152600160f81b92831690921460209092019190915292915050565b600060018260c00151600281111561230757612307612988565b14156123155750600161041c565b60028260c00151600281111561232d5761232d612988565b14156123c05760975460405163cd1402e760e01b81526001600160a01b038681166004830152602482018690529091169063cd1402e790604401602060405180830381600087803b15801561238157600080fd5b505af1158015612395573d6000803e3d6000fd5b505050506040513d601f19601f820116820180604052508101906123b99190612fde565b905061041c565b5060009392505050565b600054610100900460ff166104a45760405162461bcd60e51b815260040161049390612ed0565b600054610100900460ff166124185760405162461bcd60e51b815260040161049390612ed0565b6104a433611d50565b600054610100900460ff166124485760405162461bcd60e51b815260040161049390612ed0565b6065805460ff19169055565b6000806127106124648486612a57565b61246e9190612e9a565b9050609a5481101561247f5750609a545b6020870151156125d55760006124cb886020015160408051808201909152600080825260208201525060408051808201909152606082901c815260509190911c61ffff16602082015290565b90506000612710826020015161ffff16876124e69190612a57565b6124f09190612e9a565b90506124fc8184612aa3565b861161253b5760405162461bcd60e51b815260206004820152600e60248201526d2156414c55455f544f4f5f4c4f5760901b6044820152606401610493565b60995482516040516379b2125f60e01b81526001600160a01b038b811660048301528a81166024830152604482018a905260648201879052918216608482015260a481018490529116906379b2125f9060c401600060405180830381600087803b1580156125a857600080fd5b505af19250505080156125b9575060015b6125c95760009350505050612697565b60019350505050612697565b8084116126155760405162461bcd60e51b815260206004820152600e60248201526d2156414c55455f544f4f5f4c4f5760901b6044820152606401610493565b60995460405163fcd6a25b60e01b81526001600160a01b038881166004830152878116602483015260448201879052606482018490529091169063fcd6a25b90608401600060405180830381600087803b15801561267257600080fd5b505af1925050508015612683575060015b612691576000915050612697565b60019150505b95945050505050565b600381106111dc57600080fd5b63ffffffff811681146111dc57600080fd5b6000806000606084860312156126d457600080fd5b83356126df816126a0565b925060208401356126ef816126ad565b929592945050506040919091013590565b60006020828403121561271257600080fd5b813561041c816126a0565b6000806020838503121561273057600080fd5b823567ffffffffffffffff8082111561274857600080fd5b818501915085601f83011261275c57600080fd5b81358181111561276b57600080fd5b86602082850101111561277d57600080fd5b60209290920196919550909350505050565b60005b838110156127aa578181015183820152602001612792565b838111156111455750506000910152565b821515815260406020820152600082518060408401526127e281606085016020870161278f565b601f01601f1916919091016060019392505050565b600080600080600080600080610100898b03121561281457600080fd5b883597506020890135965060408901359550606089013594506080890135935060a0890135612842816126ad565b925060c0890135612852816126ad565b915060e0890135612862816126ad565b809150509295985092959890939650565b6000806040838503121561288657600080fd5b8235612891816126a0565b915060208301356128a1816126ad565b809150509250929050565b6001600160a01b03811681146111dc57600080fd5b6000806000606084860312156128d657600080fd5b83356128e1816128ac565b925060208401356128f1816128ac565b91506040840135612901816128ac565b809150509250925092565b6000806000806080858703121561292257600080fd5b843561292d816128ac565b9350602085013561293d816128ac565b93969395505050506040820135916060013590565b60006020828403121561296457600080fd5b5035919050565b60006020828403121561297d57600080fd5b813561041c816128ac565b634e487b7160e01b600052602160045260246000fd5b634e487b7160e01b600052603260045260246000fd5b6020808252818101527f4f776e61626c653a2063616c6c6572206973206e6f7420746865206f776e6572604082015260600190565b60208082526010908201526f14185d5cd8589b194e881c185d5cd95960821b604082015260600190565b600080600060608486031215612a2857600080fd5b83359250602084013591506040840135612901816126a0565b634e487b7160e01b600052601160045260246000fd5b6000816000190483118215151615612a7157612a71612a41565b500290565b600082821015612a8857612a88612a41565b500390565b634e487b7160e01b600052603160045260246000fd5b60008219821115612ab657612ab6612a41565b500190565b600063ffffffff808316818516808303821115612ada57612ada612a41565b01949350505050565b60038110612af357612af3612988565b9052565b868152602081018690526040810185905260c08101612b196060830186612ae3565b83608083015263ffffffff831660a0830152979650505050505050565b600063ffffffff83811690831681811015612b5357612b53612a41565b039392505050565b83815260208101839052606081016111a86040830184612ae3565b634e487b7160e01b600052601260045260246000fd5b600063ffffffff80841680612ba357612ba3612b76565b92169190910692915050565b634e487b7160e01b600052604160045260246000fd5b6040516101c0810167ffffffffffffffff81118282101715612be957612be9612baf565b60405290565b8051612bfa816128ac565b919050565b805160078110612bfa57600080fd5b8051612bfa816126ad565b600082601f830112612c2a57600080fd5b815167ffffffffffffffff80821115612c4557612c45612baf565b604051601f8301601f19908116603f01168101908282118183101715612c6d57612c6d612baf565b81604052838152866020858801011115612c8657600080fd5b612c9784602083016020890161278f565b9695505050505050565b60008060408385031215612cb457600080fd5b825167ffffffffffffffff80821115612ccc57600080fd5b908401906101c08287031215612ce157600080fd5b612ce9612bc5565b8251815260208301516020820152604083015160408201526060830151606082015260808301516080820152612d2160a08401612bef565b60a0820152612d3260c08401612bff565b60c0820152612d4360e08401612c0e565b60e0820152610100612d56818501612c0e565b90820152610120612d68848201612c0e565b90820152610140612d7a848201612c0e565b90820152610160612d8c848201612c0e565b908201526101808381015183811115612da457600080fd5b612db089828701612c19565b8284015250506101a08084015183811115612dca57600080fd5b612dd689828701612c19565b828401525050809450505050612dee60208401612bef565b90509250929050565b8281526040810160078310612e0e57612e0e612988565b8260208301529392505050565b600060208284031215612e2d57600080fd5b815161041c816126a0565b600060208284031215612e4a57600080fd5b815161041c816126ad565b600060208284031215612e6757600080fd5b5051919050565b600063ffffffff80831681851681830481118215151615612e9157612e91612a41565b02949350505050565b600082612ea957612ea9612b76565b500490565b600062ffffff80831681851681830481118215151615612e9157612e91612a41565b6020808252602b908201527f496e697469616c697a61626c653a20636f6e7472616374206973206e6f74206960408201526a6e697469616c697a696e6760a81b606082015260800190565b600063ffffffff80841680612f3257612f32612b76565b92169190910492915050565b600060208284031215612f5057600080fd5b815167ffffffffffffffff80821115612f6857600080fd5b9083019060608286031215612f7c57600080fd5b604051606081018181108382111715612f9757612f97612baf565b6040528251612fa5816128ac565b815260208381015190820152604083015182811115612fc357600080fd5b612fcf87828601612c19565b60408301525095945050505050565b600060208284031215612ff057600080fd5b8151801515811461041c57600080fdfea2646970667358221220b923a77736116fcf377dac8e4813a68e4558b79534b87a901bab18c9b7a4b8b764736f6c63430008090033",
  "devdoc": {
    "kind": "dev",
    "methods": {
      "checkUpkeep(bytes)": {
        "details": "To ensure that it is never called, you may want to add the cannotExecute modifier from KeeperBase to your implementation of this method.",
        "params": {
          "checkData": "specified in the upkeep registration so it is always the same for a registered upkeep. This can easilly be broken down into specific arguments using `abi.decode`, so multiple upkeeps can be registered on the same contract and easily differentiated by the contract."
        },
        "returns": {
          "performData": "bytes that the keeper should call performUpkeep with, if upkeep is needed. If you would like to encode data to decode later, try `abi.encode`.",
          "upkeepNeeded": "boolean to indicate whether the keeper should call performUpkeep or not."
        }
      },
      "constructor": {
        "custom:oz-upgrades-unsafe-allow": "constructor"
      },
      "owner()": {
        "details": "Returns the address of the current owner."
      },
      "paused()": {
        "details": "Returns true if the contract is paused, and false otherwise."
      },
      "performUpkeep(bytes)": {
        "details": "The input to this method should not be trusted, and the caller of the method should not even be restricted to any single registry. Anyone should be able call it, and the input should be validated, there is no guarantee that the data passed in is the performData returned from checkUpkeep. This could happen due to malicious keepers, racing keepers, or simply a state change while the performUpkeep transaction is waiting for confirmation. Always validate the data passed in.",
        "params": {
          "performData": "is the data which was passed back from the checkData simulation. If it is encoded, it can easily be decoded into other types by calling `abi.decode`. This data should not be trusted, and should be validated against the contract's current state."
        }
      },
      "renounceOwnership()": {
        "details": "Leaves the contract without owner. It will not be possible to call `onlyOwner` functions anymore. Can only be called by the current owner. NOTE: Renouncing ownership will leave the contract without an owner, thereby removing any functionality that is only available to the owner."
      },
      "transferOwnership(address)": {
        "details": "Transfers ownership of the contract to a new account (`newOwner`). Can only be called by the current owner."
      }
    },
    "stateVariables": {
      "paymentFeeMin": {
        "details": "minimum total fee to charge, if rate fees do not add up to this amount "
      },
      "paymentFeeRateMin": {
        "details": "min and max percentage to charge on payments, in bps. 50% = 5000. "
      },
      "paymentMinValue": {
        "details": "min value for a payment. "
      },
      "paymentRetryDelay": {
        "details": "number of seconds between failed payment retries. "
      },
      "processBucketMaxAge": {
        "details": "max age a process bucket can grow to before a forced processing occurs. "
      },
      "processBucketSize": {
        "details": "size (in seconds) of buckets to group subscriptions into for processing "
      },
      "processQueue": {
        "details": "map used to track when subscriptions need attention next "
      },
      "stakeTargetFactor": {
        "details": "factor used to reduce payment fee based on qty of staked CASK "
      },
      "subscriptionPlans": {
        "details": "contract to manage subscription plan definitions. "
      },
      "vault": {
        "details": "vault to use for payments. "
      }
    },
    "version": 1
  },
  "userdoc": {
    "kind": "user",
    "methods": {
      "checkUpkeep(bytes)": {
        "notice": "method that is simulated by the keepers to see if any work actually needs to be performed. This method does does not actually need to be executable, and since it is only ever simulated it can consume lots of gas."
      },
      "performUpkeep(bytes)": {
        "notice": "method that is actually executed by the keepers, via the registry. The data returned by the checkUpkeep simulation will be passed into this method to actually be executed."
      }
    },
    "version": 1
  },
  "storageLayout": {
    "storage": [
      {
        "astId": 327,
        "contract": "contracts/subscriptions/CaskSubscriptionManager.sol:CaskSubscriptionManager",
        "label": "_initialized",
        "offset": 0,
        "slot": "0",
        "type": "t_bool"
      },
      {
        "astId": 330,
        "contract": "contracts/subscriptions/CaskSubscriptionManager.sol:CaskSubscriptionManager",
        "label": "_initializing",
        "offset": 1,
        "slot": "0",
        "type": "t_bool"
      },
      {
        "astId": 2551,
        "contract": "contracts/subscriptions/CaskSubscriptionManager.sol:CaskSubscriptionManager",
        "label": "__gap",
        "offset": 0,
        "slot": "1",
        "type": "t_array(t_uint256)50_storage"
      },
      {
        "astId": 205,
        "contract": "contracts/subscriptions/CaskSubscriptionManager.sol:CaskSubscriptionManager",
        "label": "_owner",
        "offset": 0,
        "slot": "51",
        "type": "t_address"
      },
      {
        "astId": 319,
        "contract": "contracts/subscriptions/CaskSubscriptionManager.sol:CaskSubscriptionManager",
        "label": "__gap",
        "offset": 0,
        "slot": "52",
        "type": "t_array(t_uint256)49_storage"
      },
      {
        "astId": 415,
        "contract": "contracts/subscriptions/CaskSubscriptionManager.sol:CaskSubscriptionManager",
        "label": "_paused",
        "offset": 0,
        "slot": "101",
        "type": "t_bool"
      },
      {
        "astId": 506,
        "contract": "contracts/subscriptions/CaskSubscriptionManager.sol:CaskSubscriptionManager",
        "label": "__gap",
        "offset": 0,
        "slot": "102",
        "type": "t_array(t_uint256)49_storage"
      },
      {
        "astId": 21010,
        "contract": "contracts/subscriptions/CaskSubscriptionManager.sol:CaskSubscriptionManager",
        "label": "subscriptionPlans",
        "offset": 0,
        "slot": "151",
        "type": "t_contract(ICaskSubscriptionPlans)17083"
      },
      {
        "astId": 21013,
        "contract": "contracts/subscriptions/CaskSubscriptionManager.sol:CaskSubscriptionManager",
        "label": "subscriptions",
        "offset": 0,
        "slot": "152",
        "type": "t_contract(ICaskSubscriptions)17464"
      },
      {
        "astId": 21017,
        "contract": "contracts/subscriptions/CaskSubscriptionManager.sol:CaskSubscriptionManager",
        "label": "vault",
        "offset": 0,
        "slot": "153",
        "type": "t_contract(ICaskVault)17781"
      },
      {
        "astId": 21020,
        "contract": "contracts/subscriptions/CaskSubscriptionManager.sol:CaskSubscriptionManager",
        "label": "paymentFeeMin",
        "offset": 0,
        "slot": "154",
        "type": "t_uint256"
      },
      {
        "astId": 21023,
        "contract": "contracts/subscriptions/CaskSubscriptionManager.sol:CaskSubscriptionManager",
        "label": "paymentFeeRateMin",
        "offset": 0,
        "slot": "155",
        "type": "t_uint256"
      },
      {
        "astId": 21025,
        "contract": "contracts/subscriptions/CaskSubscriptionManager.sol:CaskSubscriptionManager",
        "label": "paymentFeeRateMax",
        "offset": 0,
        "slot": "156",
        "type": "t_uint256"
      },
      {
        "astId": 21028,
        "contract": "contracts/subscriptions/CaskSubscriptionManager.sol:CaskSubscriptionManager",
        "label": "stakeTargetFactor",
        "offset": 0,
        "slot": "157",
        "type": "t_uint256"
      },
      {
        "astId": 21031,
        "contract": "contracts/subscriptions/CaskSubscriptionManager.sol:CaskSubscriptionManager",
        "label": "processBucketSize",
        "offset": 0,
        "slot": "158",
        "type": "t_uint32"
      },
      {
        "astId": 21040,
        "contract": "contracts/subscriptions/CaskSubscriptionManager.sol:CaskSubscriptionManager",
        "label": "processQueue",
        "offset": 0,
        "slot": "159",
        "type": "t_mapping(t_enum(CheckType)16806,t_mapping(t_uint32,t_array(t_uint256)dyn_storage))"
      },
      {
        "astId": 21045,
        "contract": "contracts/subscriptions/CaskSubscriptionManager.sol:CaskSubscriptionManager",
        "label": "processingBucket",
        "offset": 0,
        "slot": "160",
        "type": "t_mapping(t_enum(CheckType)16806,t_uint32)"
      },
      {
        "astId": 21048,
        "contract": "contracts/subscriptions/CaskSubscriptionManager.sol:CaskSubscriptionManager",
        "label": "paymentMinValue",
        "offset": 0,
        "slot": "161",
        "type": "t_uint256"
      },
      {
        "astId": 21051,
        "contract": "contracts/subscriptions/CaskSubscriptionManager.sol:CaskSubscriptionManager",
        "label": "processBucketMaxAge",
        "offset": 0,
        "slot": "162",
        "type": "t_uint32"
      },
      {
        "astId": 21054,
        "contract": "contracts/subscriptions/CaskSubscriptionManager.sol:CaskSubscriptionManager",
        "label": "paymentRetryDelay",
        "offset": 4,
        "slot": "162",
        "type": "t_uint32"
      }
    ],
    "types": {
      "t_address": {
        "encoding": "inplace",
        "label": "address",
        "numberOfBytes": "20"
      },
      "t_array(t_uint256)49_storage": {
        "base": "t_uint256",
        "encoding": "inplace",
        "label": "uint256[49]",
        "numberOfBytes": "1568"
      },
      "t_array(t_uint256)50_storage": {
        "base": "t_uint256",
        "encoding": "inplace",
        "label": "uint256[50]",
        "numberOfBytes": "1600"
      },
      "t_array(t_uint256)dyn_storage": {
        "base": "t_uint256",
        "encoding": "dynamic_array",
        "label": "uint256[]",
        "numberOfBytes": "32"
      },
      "t_bool": {
        "encoding": "inplace",
        "label": "bool",
        "numberOfBytes": "1"
      },
      "t_contract(ICaskSubscriptionPlans)17083": {
        "encoding": "inplace",
        "label": "contract ICaskSubscriptionPlans",
        "numberOfBytes": "20"
      },
      "t_contract(ICaskSubscriptions)17464": {
        "encoding": "inplace",
        "label": "contract ICaskSubscriptions",
        "numberOfBytes": "20"
      },
      "t_contract(ICaskVault)17781": {
        "encoding": "inplace",
        "label": "contract ICaskVault",
        "numberOfBytes": "20"
      },
      "t_enum(CheckType)16806": {
        "encoding": "inplace",
        "label": "enum ICaskSubscriptionManager.CheckType",
        "numberOfBytes": "1"
      },
      "t_mapping(t_enum(CheckType)16806,t_mapping(t_uint32,t_array(t_uint256)dyn_storage))": {
        "encoding": "mapping",
        "key": "t_enum(CheckType)16806",
        "label": "mapping(enum ICaskSubscriptionManager.CheckType => mapping(uint32 => uint256[]))",
        "numberOfBytes": "32",
        "value": "t_mapping(t_uint32,t_array(t_uint256)dyn_storage)"
      },
      "t_mapping(t_enum(CheckType)16806,t_uint32)": {
        "encoding": "mapping",
        "key": "t_enum(CheckType)16806",
        "label": "mapping(enum ICaskSubscriptionManager.CheckType => uint32)",
        "numberOfBytes": "32",
        "value": "t_uint32"
      },
      "t_mapping(t_uint32,t_array(t_uint256)dyn_storage)": {
        "encoding": "mapping",
        "key": "t_uint32",
        "label": "mapping(uint32 => uint256[])",
        "numberOfBytes": "32",
        "value": "t_array(t_uint256)dyn_storage"
      },
      "t_uint256": {
        "encoding": "inplace",
        "label": "uint256",
        "numberOfBytes": "32"
      },
      "t_uint32": {
        "encoding": "inplace",
        "label": "uint32",
        "numberOfBytes": "4"
      }
    }
  }
}