{
  "address": "0xbdB5Bb45e7b509130fa087B37e3DD3CC2F76BaFe",
  "abi": [
    {
      "inputs": [],
      "stateMutability": "nonpayable",
      "type": "constructor"
    },
    {
      "anonymous": false,
      "inputs": [
        {
          "indexed": true,
          "internalType": "address",
          "name": "newAdmin",
          "type": "address"
        }
      ],
      "name": "AssetAdminChange",
      "type": "event"
    },
    {
      "anonymous": false,
      "inputs": [
        {
          "indexed": false,
          "internalType": "bytes32",
          "name": "prevRoot",
          "type": "bytes32"
        },
        {
          "indexed": false,
          "internalType": "bytes32",
          "name": "newRoot",
          "type": "bytes32"
        }
      ],
      "name": "AssetsMerkleRootChanged",
      "type": "event"
    },
    {
      "anonymous": false,
      "inputs": [
        {
          "indexed": true,
          "internalType": "bytes32",
          "name": "dcaId",
          "type": "bytes32"
        },
        {
          "indexed": true,
          "internalType": "address",
          "name": "user",
          "type": "address"
        }
      ],
      "name": "DCACanceled",
      "type": "event"
    },
    {
      "anonymous": false,
      "inputs": [
        {
          "indexed": true,
          "internalType": "bytes32",
          "name": "dcaId",
          "type": "bytes32"
        },
        {
          "indexed": true,
          "internalType": "address",
          "name": "user",
          "type": "address"
        }
      ],
      "name": "DCACompleted",
      "type": "event"
    },
    {
      "anonymous": false,
      "inputs": [
        {
          "indexed": true,
          "internalType": "bytes32",
          "name": "dcaId",
          "type": "bytes32"
        },
        {
          "indexed": true,
          "internalType": "address",
          "name": "user",
          "type": "address"
        },
        {
          "indexed": true,
          "internalType": "address",
          "name": "to",
          "type": "address"
        },
        {
          "indexed": false,
          "internalType": "address",
          "name": "inputAsset",
          "type": "address"
        },
        {
          "indexed": false,
          "internalType": "address",
          "name": "outputAsset",
          "type": "address"
        },
        {
          "indexed": false,
          "internalType": "uint256",
          "name": "amount",
          "type": "uint256"
        },
        {
          "indexed": false,
          "internalType": "uint256",
          "name": "totalAmount",
          "type": "uint256"
        },
        {
          "indexed": false,
          "internalType": "uint32",
          "name": "period",
          "type": "uint32"
        }
      ],
      "name": "DCACreated",
      "type": "event"
    },
    {
      "anonymous": false,
      "inputs": [
        {
          "indexed": true,
          "internalType": "bytes32",
          "name": "dcaId",
          "type": "bytes32"
        },
        {
          "indexed": true,
          "internalType": "address",
          "name": "user",
          "type": "address"
        }
      ],
      "name": "DCAPaused",
      "type": "event"
    },
    {
      "anonymous": false,
      "inputs": [
        {
          "indexed": true,
          "internalType": "bytes32",
          "name": "dcaId",
          "type": "bytes32"
        },
        {
          "indexed": true,
          "internalType": "address",
          "name": "user",
          "type": "address"
        },
        {
          "indexed": false,
          "internalType": "uint256",
          "name": "amount",
          "type": "uint256"
        },
        {
          "indexed": false,
          "internalType": "uint256",
          "name": "buyQty",
          "type": "uint256"
        },
        {
          "indexed": false,
          "internalType": "uint256",
          "name": "fee",
          "type": "uint256"
        }
      ],
      "name": "DCAProcessed",
      "type": "event"
    },
    {
      "anonymous": false,
      "inputs": [
        {
          "indexed": true,
          "internalType": "bytes32",
          "name": "dcaId",
          "type": "bytes32"
        },
        {
          "indexed": true,
          "internalType": "address",
          "name": "user",
          "type": "address"
        }
      ],
      "name": "DCAResumed",
      "type": "event"
    },
    {
      "anonymous": false,
      "inputs": [
        {
          "indexed": true,
          "internalType": "bytes32",
          "name": "dcaId",
          "type": "bytes32"
        },
        {
          "indexed": true,
          "internalType": "address",
          "name": "user",
          "type": "address"
        },
        {
          "indexed": false,
          "internalType": "enum ICaskDCA.SkipReason",
          "name": "skipReason",
          "type": "uint8"
        }
      ],
      "name": "DCASkipped",
      "type": "event"
    },
    {
      "anonymous": false,
      "inputs": [
        {
          "indexed": true,
          "internalType": "address",
          "name": "previousOwner",
          "type": "address"
        },
        {
          "indexed": true,
          "internalType": "address",
          "name": "newOwner",
          "type": "address"
        }
      ],
      "name": "OwnershipTransferred",
      "type": "event"
    },
    {
      "anonymous": false,
      "inputs": [
        {
          "indexed": false,
          "internalType": "address",
          "name": "account",
          "type": "address"
        }
      ],
      "name": "Paused",
      "type": "event"
    },
    {
      "anonymous": false,
      "inputs": [
        {
          "indexed": false,
          "internalType": "address",
          "name": "account",
          "type": "address"
        }
      ],
      "name": "Unpaused",
      "type": "event"
    },
    {
      "inputs": [],
      "name": "assetsAdmin",
      "outputs": [
        {
          "internalType": "address",
          "name": "",
          "type": "address"
        }
      ],
      "stateMutability": "view",
      "type": "function"
    },
    {
      "inputs": [],
      "name": "assetsMerkleRoot",
      "outputs": [
        {
          "internalType": "bytes32",
          "name": "",
          "type": "bytes32"
        }
      ],
      "stateMutability": "view",
      "type": "function"
    },
    {
      "inputs": [
        {
          "internalType": "bytes32",
          "name": "_dcaId",
          "type": "bytes32"
        }
      ],
      "name": "cancelDCA",
      "outputs": [],
      "stateMutability": "nonpayable",
      "type": "function"
    },
    {
      "inputs": [
        {
          "internalType": "address[]",
          "name": "_assetSpec",
          "type": "address[]"
        },
        {
          "internalType": "bytes32[]",
          "name": "_merkleProof",
          "type": "bytes32[]"
        },
        {
          "internalType": "enum ICaskDCA.SwapProtocol",
          "name": "_swapProtocol",
          "type": "uint8"
        },
        {
          "internalType": "bytes",
          "name": "_swapData",
          "type": "bytes"
        },
        {
          "internalType": "address",
          "name": "_to",
          "type": "address"
        },
        {
          "internalType": "uint256[]",
          "name": "_priceSpec",
          "type": "uint256[]"
        }
      ],
      "name": "createDCA",
      "outputs": [
        {
          "internalType": "bytes32",
          "name": "",
          "type": "bytes32"
        }
      ],
      "stateMutability": "nonpayable",
      "type": "function"
    },
    {
      "inputs": [],
      "name": "dcaManager",
      "outputs": [
        {
          "internalType": "contract ICaskDCAManager",
          "name": "",
          "type": "address"
        }
      ],
      "stateMutability": "view",
      "type": "function"
    },
    {
      "inputs": [
        {
          "internalType": "bytes32",
          "name": "_dcaId",
          "type": "bytes32"
        }
      ],
      "name": "getDCA",
      "outputs": [
        {
          "components": [
            {
              "internalType": "address",
              "name": "user",
              "type": "address"
            },
            {
              "internalType": "address",
              "name": "to",
              "type": "address"
            },
            {
              "internalType": "address",
              "name": "router",
              "type": "address"
            },
            {
              "internalType": "address",
              "name": "priceFeed",
              "type": "address"
            },
            {
              "internalType": "uint256",
              "name": "amount",
              "type": "uint256"
            },
            {
              "internalType": "uint256",
              "name": "totalAmount",
              "type": "uint256"
            },
            {
              "internalType": "uint256",
              "name": "currentAmount",
              "type": "uint256"
            },
            {
              "internalType": "uint256",
              "name": "currentQty",
              "type": "uint256"
            },
            {
              "internalType": "uint256",
              "name": "numBuys",
              "type": "uint256"
            },
            {
              "internalType": "uint256",
              "name": "numSkips",
              "type": "uint256"
            },
            {
              "internalType": "uint256",
              "name": "maxSlippageBps",
              "type": "uint256"
            },
            {
              "internalType": "uint256",
              "name": "maxPrice",
              "type": "uint256"
            },
            {
              "internalType": "uint256",
              "name": "minPrice",
              "type": "uint256"
            },
            {
              "internalType": "uint32",
              "name": "period",
              "type": "uint32"
            },
            {
              "internalType": "uint32",
              "name": "createdAt",
              "type": "uint32"
            },
            {
              "internalType": "uint32",
              "name": "processAt",
              "type": "uint32"
            },
            {
              "internalType": "enum ICaskDCA.DCAStatus",
              "name": "status",
              "type": "uint8"
            },
            {
              "internalType": "address[]",
              "name": "path",
              "type": "address[]"
            }
          ],
          "internalType": "struct ICaskDCA.DCA",
          "name": "",
          "type": "tuple"
        }
      ],
      "stateMutability": "view",
      "type": "function"
    },
    {
      "inputs": [
        {
          "internalType": "bytes32",
          "name": "_dcaId",
          "type": "bytes32"
        }
      ],
      "name": "getSwapInfo",
      "outputs": [
        {
          "components": [
            {
              "internalType": "enum ICaskDCA.SwapProtocol",
              "name": "swapProtocol",
              "type": "uint8"
            },
            {
              "internalType": "bytes",
              "name": "swapData",
              "type": "bytes"
            }
          ],
          "internalType": "struct ICaskDCA.SwapInfo",
          "name": "",
          "type": "tuple"
        }
      ],
      "stateMutability": "view",
      "type": "function"
    },
    {
      "inputs": [
        {
          "internalType": "address",
          "name": "_user",
          "type": "address"
        },
        {
          "internalType": "uint256",
          "name": "_idx",
          "type": "uint256"
        }
      ],
      "name": "getUserDCA",
      "outputs": [
        {
          "internalType": "bytes32",
          "name": "",
          "type": "bytes32"
        }
      ],
      "stateMutability": "view",
      "type": "function"
    },
    {
      "inputs": [
        {
          "internalType": "address",
          "name": "_user",
          "type": "address"
        }
      ],
      "name": "getUserDCACount",
      "outputs": [
        {
          "internalType": "uint256",
          "name": "",
          "type": "uint256"
        }
      ],
      "stateMutability": "view",
      "type": "function"
    },
    {
      "inputs": [
        {
          "internalType": "bytes32",
          "name": "_assetsMerkleRoot",
          "type": "bytes32"
        }
      ],
      "name": "initialize",
      "outputs": [],
      "stateMutability": "nonpayable",
      "type": "function"
    },
    {
      "inputs": [
        {
          "internalType": "address",
          "name": "forwarder",
          "type": "address"
        }
      ],
      "name": "isTrustedForwarder",
      "outputs": [
        {
          "internalType": "bool",
          "name": "",
          "type": "bool"
        }
      ],
      "stateMutability": "view",
      "type": "function"
    },
    {
      "inputs": [
        {
          "internalType": "bytes32",
          "name": "_dcaId",
          "type": "bytes32"
        },
        {
          "internalType": "enum ICaskDCA.ManagerCommand",
          "name": "_command",
          "type": "uint8"
        }
      ],
      "name": "managerCommand",
      "outputs": [],
      "stateMutability": "nonpayable",
      "type": "function"
    },
    {
      "inputs": [
        {
          "internalType": "bytes32",
          "name": "_dcaId",
          "type": "bytes32"
        },
        {
          "internalType": "uint256",
          "name": "_amount",
          "type": "uint256"
        },
        {
          "internalType": "uint256",
          "name": "_buyQty",
          "type": "uint256"
        },
        {
          "internalType": "uint256",
          "name": "_fee",
          "type": "uint256"
        }
      ],
      "name": "managerProcessed",
      "outputs": [],
      "stateMutability": "nonpayable",
      "type": "function"
    },
    {
      "inputs": [
        {
          "internalType": "bytes32",
          "name": "_dcaId",
          "type": "bytes32"
        },
        {
          "internalType": "enum ICaskDCA.SkipReason",
          "name": "_skipReason",
          "type": "uint8"
        }
      ],
      "name": "managerSkipped",
      "outputs": [],
      "stateMutability": "nonpayable",
      "type": "function"
    },
    {
      "inputs": [],
      "name": "minAmount",
      "outputs": [
        {
          "internalType": "uint256",
          "name": "",
          "type": "uint256"
        }
      ],
      "stateMutability": "view",
      "type": "function"
    },
    {
      "inputs": [],
      "name": "minPeriod",
      "outputs": [
        {
          "internalType": "uint32",
          "name": "",
          "type": "uint32"
        }
      ],
      "stateMutability": "view",
      "type": "function"
    },
    {
      "inputs": [],
      "name": "minSlippage",
      "outputs": [
        {
          "internalType": "uint256",
          "name": "",
          "type": "uint256"
        }
      ],
      "stateMutability": "view",
      "type": "function"
    },
    {
      "inputs": [],
      "name": "owner",
      "outputs": [
        {
          "internalType": "address",
          "name": "",
          "type": "address"
        }
      ],
      "stateMutability": "view",
      "type": "function"
    },
    {
      "inputs": [],
      "name": "pause",
      "outputs": [],
      "stateMutability": "nonpayable",
      "type": "function"
    },
    {
      "inputs": [
        {
          "internalType": "bytes32",
          "name": "_dcaId",
          "type": "bytes32"
        }
      ],
      "name": "pauseDCA",
      "outputs": [],
      "stateMutability": "nonpayable",
      "type": "function"
    },
    {
      "inputs": [],
      "name": "paused",
      "outputs": [
        {
          "internalType": "bool",
          "name": "",
          "type": "bool"
        }
      ],
      "stateMutability": "view",
      "type": "function"
    },
    {
      "inputs": [],
      "name": "prevAssetsMerkleRoot",
      "outputs": [
        {
          "internalType": "bytes32",
          "name": "",
          "type": "bytes32"
        }
      ],
      "stateMutability": "view",
      "type": "function"
    },
    {
      "inputs": [],
      "name": "renounceOwnership",
      "outputs": [],
      "stateMutability": "nonpayable",
      "type": "function"
    },
    {
      "inputs": [
        {
          "internalType": "bytes32",
          "name": "_dcaId",
          "type": "bytes32"
        }
      ],
      "name": "resumeDCA",
      "outputs": [],
      "stateMutability": "nonpayable",
      "type": "function"
    },
    {
      "inputs": [
        {
          "internalType": "address",
          "name": "_assetsAdmin",
          "type": "address"
        }
      ],
      "name": "setAssetsAdmin",
      "outputs": [],
      "stateMutability": "nonpayable",
      "type": "function"
    },
    {
      "inputs": [
        {
          "internalType": "bytes32",
          "name": "_assetsMerkleRoot",
          "type": "bytes32"
        }
      ],
      "name": "setAssetsMerkleRoot",
      "outputs": [],
      "stateMutability": "nonpayable",
      "type": "function"
    },
    {
      "inputs": [
        {
          "internalType": "address",
          "name": "_dcaManager",
          "type": "address"
        }
      ],
      "name": "setManager",
      "outputs": [],
      "stateMutability": "nonpayable",
      "type": "function"
    },
    {
      "inputs": [
        {
          "internalType": "uint256",
          "name": "_minAmount",
          "type": "uint256"
        }
      ],
      "name": "setMinAmount",
      "outputs": [],
      "stateMutability": "nonpayable",
      "type": "function"
    },
    {
      "inputs": [
        {
          "internalType": "uint32",
          "name": "_minPeriod",
          "type": "uint32"
        }
      ],
      "name": "setMinPeriod",
      "outputs": [],
      "stateMutability": "nonpayable",
      "type": "function"
    },
    {
      "inputs": [
        {
          "internalType": "uint256",
          "name": "_minSlippage",
          "type": "uint256"
        }
      ],
      "name": "setMinSlippage",
      "outputs": [],
      "stateMutability": "nonpayable",
      "type": "function"
    },
    {
      "inputs": [
        {
          "internalType": "address",
          "name": "_forwarder",
          "type": "address"
        }
      ],
      "name": "setTrustedForwarder",
      "outputs": [],
      "stateMutability": "nonpayable",
      "type": "function"
    },
    {
      "inputs": [
        {
          "internalType": "address",
          "name": "newOwner",
          "type": "address"
        }
      ],
      "name": "transferOwnership",
      "outputs": [],
      "stateMutability": "nonpayable",
      "type": "function"
    },
    {
      "inputs": [],
      "name": "trustedForwarder",
      "outputs": [
        {
          "internalType": "address",
          "name": "",
          "type": "address"
        }
      ],
      "stateMutability": "view",
      "type": "function"
    },
    {
      "inputs": [],
      "name": "unpause",
      "outputs": [],
      "stateMutability": "nonpayable",
      "type": "function"
    },
    {
      "inputs": [],
      "name": "versionRecipient",
      "outputs": [
        {
          "internalType": "string",
          "name": "",
          "type": "string"
        }
      ],
      "stateMutability": "pure",
      "type": "function"
    }
  ],
  "transactionHash": "0xef766f9a5116d682c26879622055a1dcd81f96a7b9392bcdeb1cca3343613c1d",
  "args": [],
  "numDeployments": 1,
  "solcInputHash": "024379f4eb3406737d1bd2549fb94b33",
  "bytecode": "0x60806040523480156200001157600080fd5b50600054610100900460ff166200002f5760005460ff161562000039565b62000039620000de565b620000a15760405162461bcd60e51b815260206004820152602e60248201527f496e697469616c697a61626c653a20636f6e747261637420697320616c72656160448201526d191e481a5b9a5d1a585b1a5e995960921b606482015260840160405180910390fd5b600054610100900460ff16158015620000c4576000805461ffff19166101011790555b8015620000d7576000805461ff00191690555b5062000102565b6000620000f630620000fc60201b62001bb81760201c565b15905090565b3b151590565b612a9580620001126000396000f3fe608060405234801561001057600080fd5b50600436106102115760003560e01c80638da5cb5b11610125578063c0677c47116100ad578063da7422281161007c578063da7422281461048b578063e3e01f9f1461049e578063f2fde38b146104b1578063f7b7159f146104c4578063ffd49c84146104d757600080fd5b8063c0677c4714610453578063c453824f1461045c578063d0ebdbe71461046f578063d26c167f1461048257600080fd5b8063abcfd154116100f4578063abcfd154146103f4578063b4cbc9e414610407578063b4e38a8d1461041a578063bc78e9161461042d578063bd78b2b31461044057600080fd5b80638da5cb5b146103a757806392c65f4b146103b85780639498bd71146103d85780639b2cb5d8146103eb57600080fd5b8063572b6c05116101a8578063715018a611610177578063715018a6146103605780637da0a877146103685780638456cb591461037957806387eb01bf14610381578063897b06371461039457600080fd5b8063572b6c05146102e55780635ba581cd146103175780635c975abb1461032a5780636a82763c1461033557600080fd5b80632d3d0405116101e45780632d3d04051461029a5780633f4ba83a146102ad578063486ff0cd146102b55780634b51dd22146102dc57600080fd5b806316ef2c41146102165780632a74cbb5146102525780632ce17578146102675780632d0fc6b41461027a575b600080fd5b61023f610224366004612237565b6001600160a01b03166000908152609a602052604090205490565b6040519081526020015b60405180910390f35b610265610260366004612259565b6104fc565b005b61026561027536600461228d565b6105f5565b61028d61028836600461228d565b610678565b604051610249919061231d565b61023f6102a83660046123ee565b61075e565b610265610e54565b60408051808201825260058152640322e322e360dc1b6020820152905161024991906124dc565b61023f609b5481565b6103076102f3366004612237565b6097546001600160a01b0391821691161490565b6040519015158152602001610249565b6102656103253660046124ef565b610ea7565b60655460ff16610307565b609854610348906001600160a01b031681565b6040516001600160a01b039091168152602001610249565b610265610fd2565b6097546001600160a01b0316610348565b610265611025565b61026561038f36600461228d565b611076565b6102656103a236600461228d565b611174565b6033546001600160a01b0316610348565b6103cb6103c636600461228d565b6111c2565b604051610249919061256c565b6102656103e636600461228d565b61134c565b61023f609c5481565b61026561040236600461228d565b611464565b6102656104153660046126b8565b611602565b61023f6104283660046126ea565b6117a3565b61026561043b366004612237565b6117e0565b61026561044e36600461228d565b611873565b61023f609e5481565b61026561046a366004612714565b611979565b61026561047d366004612237565b6119de565b61023f60a05481565b610265610499366004612237565b611a49565b6102656104ac36600461228d565b611ab3565b6102656104bf366004612237565b611b01565b60a154610348906001600160a01b031681565b609d546104e79063ffffffff1681565b60405163ffffffff9091168152602001610249565b6098546001600160a01b0316610510611bbe565b6001600160a01b03161461053f5760405162461bcd60e51b81526004016105369061273a565b60405180910390fd5b6000828152609960205260409020600d81015461056c9063ffffffff80821691600160401b90041661276f565b81600d0160086101000a81548163ffffffff021916908363ffffffff16021790555060018160090160008282546105a39190612797565b909155505080546040516001600160a01b039091169084907f39e94fc57f494ff14c5e6240aaa121bb05346a3baf4434132df8f9075d587491906105e89086906127af565b60405180910390a3505050565b60a1546001600160a01b0316610609611bbe565b6001600160a01b03161461062f5760405162461bcd60e51b81526004016105369061273a565b609b805460a08190559082905560408051918252602082018390527f5215e49387517b606aec376216c289f200ca6ce6ff98bbbfd0976914cc2b3cfb910160405180910390a150565b61068061204f565b6000828152609f60205260409081902081518083019092528054829060ff1660028111156106b0576106b06122a6565b60028111156106c1576106c16122a6565b81526020016001820180546106d5906127c9565b80601f0160208091040260200160405190810160405280929190818152602001828054610701906127c9565b801561074e5780601f106107235761010080835404028352916020019161074e565b820191906000526020600020905b81548152906001019060200180831161073157829003601f168201915b5050505050815250509050919050565b600060048a10156107a75760405162461bcd60e51b815260206004820152601360248201527221494e56414c4944286173736574537065632960681b6044820152606401610536565b600682146107ed5760405162461bcd60e51b815260206004820152601360248201527221494e56414c4944287072696365537065632960681b6044820152606401610536565b609d5463ffffffff16838360008161080757610807612804565b90506020020135101561084f5760405162461bcd60e51b815260206004820152601060248201526f21494e56414c494428706572696f642960801b6044820152606401610536565b609c548383600181811061086557610865612804565b9050602002013510156108ad5760405162461bcd60e51b815260206004820152601060248201526f21494e56414c494428616d6f756e742960801b6044820152606401610536565b609e54838360038181106108c3576108c3612804565b9050602002013510156109185760405162461bcd60e51b815260206004820152601860248201527f21494e56414c4944286d6178536c6970706167654270732900000000000000006044820152606401610536565b6109278787878e8e8e8e611bcd565b6109695760405162461bcd60e51b815260206004820152601360248201527221494e56414c4944286173736574537065632960681b6044820152606401610536565b6000610973611bbe565b8888888f8f898943426040516020016109959a99989796959493929190612847565b60408051601f1981840301815291815281516020928301206000818152609990935291209091506109c4611bbe565b81546001600160a01b03199081166001600160a01b039283161783556001830180549091169188169190911790558c8c600081610a0357610a03612804565b9050602002016020810190610a189190612237565b6002820180546001600160a01b0319166001600160a01b03929092169190911790558c8c6001818110610a4d57610a4d612804565b9050602002016020810190610a629190612237565b8160030160006101000a8154816001600160a01b0302191690836001600160a01b031602179055508c8c6002908092610a9d939291906128e1565b610aab91600e84019161206a565b5084846001818110610abf57610abf612804565b602002919091013560048301555084846002818110610ae057610ae0612804565b60200291909101356005830155508484600081610aff57610aff612804565b9050602002013581600d0160006101000a81548163ffffffff021916908363ffffffff16021790555084846004818110610b3b57610b3b612804565b6020029190910135600c8301555084846005818110610b5c57610b5c612804565b6020029190910135600b8301555084846003818110610b7d57610b7d612804565b6020029190910135600a83015550600d810180546bffffffffffffffff0000000019166401000000004263ffffffff1690810263ffffffff60401b191691909117600160401b91909102178082556001919060ff60601b1916600160601b8302179055506000828152609f6020526040902080548a90829060ff19166001836002811115610c0d57610c0d6122a6565b0217905550610c20600182018a8a6120cd565b50609a6000610c2d611bbe565b6001600160a01b0390811682526020808301939093526040918201600090812080546001810182559082529390209092018590556098549051637d0c250f60e11b81526004810186905291169063fa184a1e90602401600060405180830381600087803b158015610c9d57600080fd5b505af1158015610cb1573d6000803e3d6000fd5b5060019250610cbe915050565b600d830154600160601b900460ff166004811115610cde57610cde6122a6565b14610d1c5760405162461bcd60e51b815260206004820152600e60248201526d21554e50524f4345535341424c4560901b6044820152606401610536565b8160080154600114610d615760405162461bcd60e51b815260206004820152600e60248201526d21554e50524f4345535341424c4560901b6044820152606401610536565b60018201548254600e840180546001600160a01b03938416939092169186917f9d1e5b985dd0611bc11e93d5075cdea08f64d1d51dd07489e6f288c20cd6669091600090610db157610db1612804565b600091825260209091200154600e870180546001600160a01b0390921691610ddb9060019061290f565b81548110610deb57610deb612804565b60009182526020918290200154600489015460058a0154600d8b0154604080516001600160a01b039788168152969094169486019490945291840152606083015263ffffffff16608082015260a00160405180910390a450909c9b505050505050505050505050565b610e5c611bbe565b6001600160a01b0316610e776033546001600160a01b031690565b6001600160a01b031614610e9d5760405162461bcd60e51b815260040161053690612926565b610ea5611cf3565b565b6098546001600160a01b0316610ebb611bbe565b6001600160a01b031614610ee15760405162461bcd60e51b81526004016105369061273a565b60008281526099602052604090206003826003811115610f0357610f036122a6565b1415610f5c57600d8101805460ff60601b1916600160611b17905580546040516001600160a01b039091169084907f3d63c73b75a797c741bcfc0ae2644bc392388e97ea718a8731d44f47da2b23a490600090a3505050565b6001826003811115610f7057610f706122a6565b1415610fcd57600d810180546003919060ff60601b1916600160601b835b021790555080546040516001600160a01b039091169084907f5d3baeac0d91b82fe19cca4c28f0768ed59c65d7f64d48d53f166f9ec0f099c090600090a35b505050565b610fda611bbe565b6001600160a01b0316610ff56033546001600160a01b031690565b6001600160a01b03161461101b5760405162461bcd60e51b815260040161053690612926565b610ea56000611d8c565b61102d611bbe565b6001600160a01b03166110486033546001600160a01b031690565b6001600160a01b03161461106e5760405162461bcd60e51b815260040161053690612926565b610ea5611dde565b60008181526099602052604090205481906001600160a01b0316611098611bbe565b6001600160a01b0316146110be5760405162461bcd60e51b81526004016105369061273a565b60008281526099602052604090206001600d820154600160601b900460ff1660048111156110ee576110ee6122a6565b148061111957506002600d820154600160601b900460ff166004811115611117576111176122a6565b145b6111585760405162461bcd60e51b815260206004820152601060248201526f21494e56414c4944287374617475732960801b6044820152606401610536565b600d810180546003919060ff60601b1916600160601b83610f8e565b61117c611bbe565b6001600160a01b03166111976033546001600160a01b031690565b6001600160a01b0316146111bd5760405162461bcd60e51b815260040161053690612926565b609c55565b6111ca612141565b60008281526099602090815260409182902082516102408101845281546001600160a01b03908116825260018301548116938201939093526002820154831693810193909352600381015490911660608301526004808201546080840152600582015460a0840152600682015460c0840152600782015460e084015260088201546101008401526009820154610120840152600a820154610140840152600b820154610160840152600c820154610180840152600d82015463ffffffff8082166101a0860152640100000000820481166101c0860152600160401b8204166101e0850152610200840191600160601b90910460ff16908111156112cf576112cf6122a6565b60048111156112e0576112e06122a6565b8152602001600e820180548060200260200160405190810160405280929190818152602001828054801561074e57602002820191906000526020600020905b81546001600160a01b0316815260019091019060200180831161131f575050505050815250509050919050565b600054610100900460ff166113675760005460ff161561136b565b303b155b6113ce5760405162461bcd60e51b815260206004820152602e60248201527f496e697469616c697a61626c653a20636f6e747261637420697320616c72656160448201526d191e481a5b9a5d1a585b1a5e995960921b6064820152608401610536565b600054610100900460ff161580156113f0576000805461ffff19166101011790555b6113f8611e5a565b611400611e91565b609b82905560a08290556001609c55609d805463ffffffff191662015180179055600a609e5561142e611bbe565b60a180546001600160a01b0319166001600160a01b03929092169190911790558015611460576000805461ff00191690555b5050565b60008181526099602052604090205481906001600160a01b0316611486611bbe565b6001600160a01b0316146114ac5760405162461bcd60e51b81526004016105369061273a565b60008281526099602052604090206002600d820154600160601b900460ff1660048111156114dc576114dc6122a6565b146115175760405162461bcd60e51b815260206004820152600b60248201526a085393d517d4105554d15160aa1b6044820152606401610536565b600d8101805460ff60601b1916600160601b179081905563ffffffff428116600160401b90920416101561156657600d8101805463ffffffff60401b1916600160401b4263ffffffff16021790555b609854604051637d0c250f60e11b8152600481018590526001600160a01b039091169063fa184a1e90602401600060405180830381600087803b1580156115ac57600080fd5b505af11580156115c0573d6000803e3d6000fd5b505082546040516001600160a01b0390911692508591507f0d04c91a4cb25e87e66b2337207d34bd31384c15371c944d543b0d90c866e32c90600090a3505050565b6098546001600160a01b0316611616611bbe565b6001600160a01b03161461163c5760405162461bcd60e51b81526004016105369061273a565b6000848152609960205260409020600d8101546116699063ffffffff80821691600160401b90041661276f565b81600d0160086101000a81548163ffffffff021916908363ffffffff1602179055508381600601600082825461169f9190612797565b92505081905550828160070160008282546116ba9190612797565b9250508190555060018160080160008282546116d69190612797565b9091555050805460408051868152602081018690529081018490526001600160a01b039091169086907f2cd977fbc4930a01c7a1d2d4f59916c67f5e443ee1b3efc3cf295b30b95499289060600160405180910390a36000816005015411801561174857508060050154816006015410155b1561179c57600d8101805460ff60601b1916600160621b17905580546040516001600160a01b039091169086907fe91db046d37f56c01a0949ac11e488007e1e26ea683caaee32d54c4cea5d851b90600090a35b5050505050565b6001600160a01b0382166000908152609a602052604081208054839081106117cd576117cd612804565b9060005260206000200154905092915050565b6117e8611bbe565b6001600160a01b03166118036033546001600160a01b031690565b6001600160a01b0316146118295760405162461bcd60e51b815260040161053690612926565b60a180546001600160a01b0319166001600160a01b0383169081179091556040517f3a99482b294ac192dccc0f45604a8e3a48889930e9e8c089bb0f434bbfd1e55990600090a250565b60008181526099602052604090205481906001600160a01b0316611895611bbe565b6001600160a01b0316146118bb5760405162461bcd60e51b81526004016105369061273a565b60008281526099602052604090206001600d820154600160601b900460ff1660048111156118eb576118eb6122a6565b146119265760405162461bcd60e51b815260206004820152600b60248201526a214e4f545f41435449564560a81b6044820152606401610536565b600d8101805460ff60601b1916600160611b17905580546040516001600160a01b039091169084907f3d63c73b75a797c741bcfc0ae2644bc392388e97ea718a8731d44f47da2b23a490600090a3505050565b611981611bbe565b6001600160a01b031661199c6033546001600160a01b031690565b6001600160a01b0316146119c25760405162461bcd60e51b815260040161053690612926565b609d805463ffffffff191663ffffffff92909216919091179055565b6119e6611bbe565b6001600160a01b0316611a016033546001600160a01b031690565b6001600160a01b031614611a275760405162461bcd60e51b815260040161053690612926565b609880546001600160a01b0319166001600160a01b0392909216919091179055565b611a51611bbe565b6001600160a01b0316611a6c6033546001600160a01b031690565b6001600160a01b031614611a925760405162461bcd60e51b815260040161053690612926565b609780546001600160a01b0319166001600160a01b03831617905550565b50565b611abb611bbe565b6001600160a01b0316611ad66033546001600160a01b031690565b6001600160a01b031614611afc5760405162461bcd60e51b815260040161053690612926565b609e55565b611b09611bbe565b6001600160a01b0316611b246033546001600160a01b031690565b6001600160a01b031614611b4a5760405162461bcd60e51b815260040161053690612926565b6001600160a01b038116611baf5760405162461bcd60e51b815260206004820152602660248201527f4f776e61626c653a206e6577206f776e657220697320746865207a65726f206160448201526564647265737360d01b6064820152608401610536565b611ab081611d8c565b3b151590565b6000611bc8611ec8565b905090565b60008088888888886000818110611be657611be6612804565b9050602002016020810190611bfb9190612237565b89896001818110611c0e57611c0e612804565b9050602002016020810190611c239190612237565b611c308a6002818e6128e1565b604051602001611c46979695949392919061295b565b604051602081830303815290604052805190602001209050611c9f84848080602002602001604051908101604052809392919081815260200183836020028082843760009201919091525050609b549150849050611efc565b80611ce65750611ce68484808060200260200160405190810160405280939291908181526020018383602002808284376000920191909152505060a0549150849050611efc565b9998505050505050505050565b60655460ff16611d3c5760405162461bcd60e51b815260206004820152601460248201527314185d5cd8589b194e881b9bdd081c185d5cd95960621b6044820152606401610536565b6065805460ff191690557f5db9ee0a495bf2e6ff9c91a7834c1ba4fdd244a5e8aa4e537bd38aeae4b073aa611d6f611bbe565b6040516001600160a01b03909116815260200160405180910390a1565b603380546001600160a01b038381166001600160a01b0319831681179093556040519116919082907f8be0079c531659141344cd1fd0a4f28419497f9722a3daafe3b4186f6b6457e090600090a35050565b60655460ff1615611e245760405162461bcd60e51b815260206004820152601060248201526f14185d5cd8589b194e881c185d5cd95960821b6044820152606401610536565b6065805460ff191660011790557f62e78cea01bee320cd4e420270b5ea74000d11b0c9f74754ebdbfc544b05a258611d6f611bbe565b600054610100900460ff16611e815760405162461bcd60e51b8152600401610536906129f9565b611e89611f12565b610ea5611f39565b600054610100900460ff16611eb85760405162461bcd60e51b8152600401610536906129f9565b611ec0611f12565b610ea5611f70565b600060143610801590611ee557506097546001600160a01b031633145b15611ef7575060131936013560601c90565b503390565b600082611f098584611fa3565b14949350505050565b600054610100900460ff16610ea55760405162461bcd60e51b8152600401610536906129f9565b600054610100900460ff16611f605760405162461bcd60e51b8152600401610536906129f9565b610ea5611f6b611bbe565b611d8c565b600054610100900460ff16611f975760405162461bcd60e51b8152600401610536906129f9565b6065805460ff19169055565b600081815b8451811015612047576000858281518110611fc557611fc5612804565b60200260200101519050808311612007576040805160208101859052908101829052606001604051602081830303815290604052805190602001209250612034565b60408051602081018390529081018490526060016040516020818303038152906040528051906020012092505b508061203f81612a44565b915050611fa8565b509392505050565b604080518082019091528060005b8152602001606081525090565b8280548282559060005260206000209081019282156120bd579160200282015b828111156120bd5781546001600160a01b0319166001600160a01b0384351617825560209092019160019091019061208a565b506120c9929150612206565b5090565b8280546120d9906127c9565b90600052602060002090601f0160209004810192826120fb57600085556120bd565b82601f106121145782800160ff198235161785556120bd565b828001600101855582156120bd579182015b828111156120bd578235825591602001919060010190612126565b60405180610240016040528060006001600160a01b0316815260200160006001600160a01b0316815260200160006001600160a01b0316815260200160006001600160a01b03168152602001600081526020016000815260200160008152602001600081526020016000815260200160008152602001600081526020016000815260200160008152602001600063ffffffff168152602001600063ffffffff168152602001600063ffffffff1681526020016000600481111561205d5761205d6122a6565b5b808211156120c95760008155600101612207565b80356001600160a01b038116811461223257600080fd5b919050565b60006020828403121561224957600080fd5b6122528261221b565b9392505050565b6000806040838503121561226c57600080fd5b8235915060208301356006811061228257600080fd5b809150509250929050565b60006020828403121561229f57600080fd5b5035919050565b634e487b7160e01b600052602160045260246000fd5b600381106122cc576122cc6122a6565b9052565b6000815180845260005b818110156122f6576020818501810151868301820152016122da565b81811115612308576000602083870101525b50601f01601f19169290920160200192915050565b6020815261232f6020820183516122bc565b6000602083015160408084015261234960608401826122d0565b949350505050565b60008083601f84011261236357600080fd5b50813567ffffffffffffffff81111561237b57600080fd5b6020830191508360208260051b850101111561239657600080fd5b9250929050565b80356003811061223257600080fd5b60008083601f8401126123be57600080fd5b50813567ffffffffffffffff8111156123d657600080fd5b60208301915083602082850101111561239657600080fd5b60008060008060008060008060008060c08b8d03121561240d57600080fd5b8a3567ffffffffffffffff8082111561242557600080fd5b6124318e838f01612351565b909c509a5060208d013591508082111561244a57600080fd5b6124568e838f01612351565b909a50985088915061246a60408e0161239d565b975060608d013591508082111561248057600080fd5b61248c8e838f016123ac565b90975095508591506124a060808e0161221b565b945060a08d01359150808211156124b657600080fd5b506124c38d828e01612351565b915080935050809150509295989b9194979a5092959850565b60208152600061225260208301846122d0565b6000806040838503121561250257600080fd5b8235915060208301356004811061228257600080fd5b600581106122cc576122cc6122a6565b600081518084526020808501945080840160005b838110156125615781516001600160a01b03168752958201959082019060010161253c565b509495945050505050565b602081526125866020820183516001600160a01b03169052565b600060208301516125a260408401826001600160a01b03169052565b5060408301516001600160a01b03811660608401525060608301516001600160a01b038116608084015250608083015160a08381019190915283015160c08084019190915283015160e08084019190915283015161010080840191909152830151610120808401919091528301516101408084019190915283015161016080840191909152830151610180808401919091528301516101a0808401919091528301516101c06126588185018363ffffffff169052565b84015190506101e06126718482018363ffffffff169052565b840151905061020061268a8482018363ffffffff169052565b840151905061022061269e84820183612518565b840151610240848101529050612349610260840182612528565b600080600080608085870312156126ce57600080fd5b5050823594602084013594506040840135936060013592509050565b600080604083850312156126fd57600080fd5b6127068361221b565b946020939093013593505050565b60006020828403121561272657600080fd5b813563ffffffff8116811461225257600080fd5b60208082526005908201526404282aaa8960db1b604082015260600190565b634e487b7160e01b600052601160045260246000fd5b600063ffffffff80831681851680830382111561278e5761278e612759565b01949350505050565b600082198211156127aa576127aa612759565b500190565b60208101600683106127c3576127c36122a6565b91905290565b600181811c908216806127dd57607f821691505b602082108114156127fe57634e487b7160e01b600052602260045260246000fd5b50919050565b634e487b7160e01b600052603260045260246000fd5b60006001600160fb1b0383111561283057600080fd5b8260051b8083863760009401938452509192915050565b6bffffffffffffffffffffffff198b60601b168152600060038b1061286e5761286e6122a6565b8a60f81b6014830152888a60158401376000828a0160150181815289915b898110156128ba576001600160a01b036128a58461221b565b1682526020928301929091019060010161288c565b506128c681888a61281a565b95865250505050602082015260400198975050505050505050565b600080858511156128f157600080fd5b838611156128fe57600080fd5b5050600583901b0193919092039150565b60008282101561292157612921612759565b500390565b6020808252818101527f4f776e61626c653a2063616c6c6572206973206e6f7420746865206f776e6572604082015260600190565b61296581896122bc565b6000602060a0818401528760a0840152878960c0850137600060c089850181018290526001600160a01b0389811660408701528881166060870152601f8b01601f191686018681038301608088015291820187905287929160e0015b878310156129e857816129d38561221b565b168152928401926001929092019184016129c1565b9d9c50505050505050505050505050565b6020808252602b908201527f496e697469616c697a61626c653a20636f6e7472616374206973206e6f74206960408201526a6e697469616c697a696e6760a81b606082015260800190565b6000600019821415612a5857612a58612759565b506001019056fea2646970667358221220e44394e567ea279007e0b84473747b6079b209825d32e6af0f49d0c0fd1a9de664736f6c63430008090033",
  "devdoc": {
    "kind": "dev",
    "methods": {
      "constructor": {
        "custom:oz-upgrades-unsafe-allow": "constructor"
      },
      "owner()": {
        "details": "Returns the address of the current owner."
      },
      "paused()": {
        "details": "Returns true if the contract is paused, and false otherwise."
      },
      "renounceOwnership()": {
        "details": "Leaves the contract without owner. It will not be possible to call `onlyOwner` functions anymore. Can only be called by the current owner. NOTE: Renouncing ownership will leave the contract without an owner, thereby removing any functionality that is only available to the owner."
      },
      "transferOwnership(address)": {
        "details": "Transfers ownership of the contract to a new account (`newOwner`). Can only be called by the current owner."
      }
    },
    "stateVariables": {
      "assetsAdmin": {
        "details": "address allowed to update asset merkle root. "
      },
      "assetsMerkleRoot": {
        "details": "merkle root of approved assets. "
      },
      "dcaManager": {
        "details": "contract to manage DCA executions. "
      },
      "dcaMap": {
        "details": "map of DCA ID to DCA info. "
      },
      "minAmount": {
        "details": "minimum amount of vault base asset for a DCA. "
      },
      "minPeriod": {
        "details": "minimum period for a DCA. "
      },
      "minSlippage": {
        "details": "minimum slippage allowed for a DCA. "
      },
      "prevAssetsMerkleRoot": {
        "details": "previous merkle root of approved assets. "
      },
      "swapInfoMap": {
        "details": "swap type and optional swap data for a DCA. "
      }
    },
    "version": 1
  },
  "userdoc": {
    "kind": "user",
    "methods": {
      "isTrustedForwarder(address)": {
        "notice": "return if the forwarder is trusted to forward relayed transactions to us. the forwarder is required to verify the sender's signature, and verify the call is not a replay."
      }
    },
    "version": 1
  },
  "storageLayout": {
    "storage": [
      {
        "astId": 327,
        "contract": "contracts/dca/CaskDCA.sol:CaskDCA",
        "label": "_initialized",
        "offset": 0,
        "slot": "0",
        "type": "t_bool"
      },
      {
        "astId": 330,
        "contract": "contracts/dca/CaskDCA.sol:CaskDCA",
        "label": "_initializing",
        "offset": 1,
        "slot": "0",
        "type": "t_bool"
      },
      {
        "astId": 2551,
        "contract": "contracts/dca/CaskDCA.sol:CaskDCA",
        "label": "__gap",
        "offset": 0,
        "slot": "1",
        "type": "t_array(t_uint256)50_storage"
      },
      {
        "astId": 205,
        "contract": "contracts/dca/CaskDCA.sol:CaskDCA",
        "label": "_owner",
        "offset": 0,
        "slot": "51",
        "type": "t_address"
      },
      {
        "astId": 319,
        "contract": "contracts/dca/CaskDCA.sol:CaskDCA",
        "label": "__gap",
        "offset": 0,
        "slot": "52",
        "type": "t_array(t_uint256)49_storage"
      },
      {
        "astId": 415,
        "contract": "contracts/dca/CaskDCA.sol:CaskDCA",
        "label": "_paused",
        "offset": 0,
        "slot": "101",
        "type": "t_bool"
      },
      {
        "astId": 506,
        "contract": "contracts/dca/CaskDCA.sol:CaskDCA",
        "label": "__gap",
        "offset": 0,
        "slot": "102",
        "type": "t_array(t_uint256)49_storage"
      },
      {
        "astId": 72,
        "contract": "contracts/dca/CaskDCA.sol:CaskDCA",
        "label": "_trustedForwarder",
        "offset": 0,
        "slot": "151",
        "type": "t_address"
      },
      {
        "astId": 13145,
        "contract": "contracts/dca/CaskDCA.sol:CaskDCA",
        "label": "dcaManager",
        "offset": 0,
        "slot": "152",
        "type": "t_contract(ICaskDCAManager)16372"
      },
      {
        "astId": 13151,
        "contract": "contracts/dca/CaskDCA.sol:CaskDCA",
        "label": "dcaMap",
        "offset": 0,
        "slot": "153",
        "type": "t_mapping(t_bytes32,t_struct(DCA)16171_storage)"
      },
      {
        "astId": 13156,
        "contract": "contracts/dca/CaskDCA.sol:CaskDCA",
        "label": "userDCAs",
        "offset": 0,
        "slot": "154",
        "type": "t_mapping(t_address,t_array(t_bytes32)dyn_storage)"
      },
      {
        "astId": 13159,
        "contract": "contracts/dca/CaskDCA.sol:CaskDCA",
        "label": "assetsMerkleRoot",
        "offset": 0,
        "slot": "155",
        "type": "t_bytes32"
      },
      {
        "astId": 13162,
        "contract": "contracts/dca/CaskDCA.sol:CaskDCA",
        "label": "minAmount",
        "offset": 0,
        "slot": "156",
        "type": "t_uint256"
      },
      {
        "astId": 13165,
        "contract": "contracts/dca/CaskDCA.sol:CaskDCA",
        "label": "minPeriod",
        "offset": 0,
        "slot": "157",
        "type": "t_uint32"
      },
      {
        "astId": 13168,
        "contract": "contracts/dca/CaskDCA.sol:CaskDCA",
        "label": "minSlippage",
        "offset": 0,
        "slot": "158",
        "type": "t_uint256"
      },
      {
        "astId": 13174,
        "contract": "contracts/dca/CaskDCA.sol:CaskDCA",
        "label": "swapInfoMap",
        "offset": 0,
        "slot": "159",
        "type": "t_mapping(t_bytes32,t_struct(SwapInfo)16177_storage)"
      },
      {
        "astId": 13177,
        "contract": "contracts/dca/CaskDCA.sol:CaskDCA",
        "label": "prevAssetsMerkleRoot",
        "offset": 0,
        "slot": "160",
        "type": "t_bytes32"
      },
      {
        "astId": 13180,
        "contract": "contracts/dca/CaskDCA.sol:CaskDCA",
        "label": "assetsAdmin",
        "offset": 0,
        "slot": "161",
        "type": "t_address"
      }
    ],
    "types": {
      "t_address": {
        "encoding": "inplace",
        "label": "address",
        "numberOfBytes": "20"
      },
      "t_array(t_address)dyn_storage": {
        "base": "t_address",
        "encoding": "dynamic_array",
        "label": "address[]",
        "numberOfBytes": "32"
      },
      "t_array(t_bytes32)dyn_storage": {
        "base": "t_bytes32",
        "encoding": "dynamic_array",
        "label": "bytes32[]",
        "numberOfBytes": "32"
      },
      "t_array(t_uint256)49_storage": {
        "base": "t_uint256",
        "encoding": "inplace",
        "label": "uint256[49]",
        "numberOfBytes": "1568"
      },
      "t_array(t_uint256)50_storage": {
        "base": "t_uint256",
        "encoding": "inplace",
        "label": "uint256[50]",
        "numberOfBytes": "1600"
      },
      "t_bool": {
        "encoding": "inplace",
        "label": "bool",
        "numberOfBytes": "1"
      },
      "t_bytes32": {
        "encoding": "inplace",
        "label": "bytes32",
        "numberOfBytes": "32"
      },
      "t_bytes_storage": {
        "encoding": "bytes",
        "label": "bytes",
        "numberOfBytes": "32"
      },
      "t_contract(ICaskDCAManager)16372": {
        "encoding": "inplace",
        "label": "contract ICaskDCAManager",
        "numberOfBytes": "20"
      },
      "t_enum(DCAStatus)16120": {
        "encoding": "inplace",
        "label": "enum ICaskDCA.DCAStatus",
        "numberOfBytes": "1"
      },
      "t_enum(SwapProtocol)16114": {
        "encoding": "inplace",
        "label": "enum ICaskDCA.SwapProtocol",
        "numberOfBytes": "1"
      },
      "t_mapping(t_address,t_array(t_bytes32)dyn_storage)": {
        "encoding": "mapping",
        "key": "t_address",
        "label": "mapping(address => bytes32[])",
        "numberOfBytes": "32",
        "value": "t_array(t_bytes32)dyn_storage"
      },
      "t_mapping(t_bytes32,t_struct(DCA)16171_storage)": {
        "encoding": "mapping",
        "key": "t_bytes32",
        "label": "mapping(bytes32 => struct ICaskDCA.DCA)",
        "numberOfBytes": "32",
        "value": "t_struct(DCA)16171_storage"
      },
      "t_mapping(t_bytes32,t_struct(SwapInfo)16177_storage)": {
        "encoding": "mapping",
        "key": "t_bytes32",
        "label": "mapping(bytes32 => struct ICaskDCA.SwapInfo)",
        "numberOfBytes": "32",
        "value": "t_struct(SwapInfo)16177_storage"
      },
      "t_struct(DCA)16171_storage": {
        "encoding": "inplace",
        "label": "struct ICaskDCA.DCA",
        "members": [
          {
            "astId": 16134,
            "contract": "contracts/dca/CaskDCA.sol:CaskDCA",
            "label": "user",
            "offset": 0,
            "slot": "0",
            "type": "t_address"
          },
          {
            "astId": 16136,
            "contract": "contracts/dca/CaskDCA.sol:CaskDCA",
            "label": "to",
            "offset": 0,
            "slot": "1",
            "type": "t_address"
          },
          {
            "astId": 16138,
            "contract": "contracts/dca/CaskDCA.sol:CaskDCA",
            "label": "router",
            "offset": 0,
            "slot": "2",
            "type": "t_address"
          },
          {
            "astId": 16140,
            "contract": "contracts/dca/CaskDCA.sol:CaskDCA",
            "label": "priceFeed",
            "offset": 0,
            "slot": "3",
            "type": "t_address"
          },
          {
            "astId": 16142,
            "contract": "contracts/dca/CaskDCA.sol:CaskDCA",
            "label": "amount",
            "offset": 0,
            "slot": "4",
            "type": "t_uint256"
          },
          {
            "astId": 16144,
            "contract": "contracts/dca/CaskDCA.sol:CaskDCA",
            "label": "totalAmount",
            "offset": 0,
            "slot": "5",
            "type": "t_uint256"
          },
          {
            "astId": 16146,
            "contract": "contracts/dca/CaskDCA.sol:CaskDCA",
            "label": "currentAmount",
            "offset": 0,
            "slot": "6",
            "type": "t_uint256"
          },
          {
            "astId": 16148,
            "contract": "contracts/dca/CaskDCA.sol:CaskDCA",
            "label": "currentQty",
            "offset": 0,
            "slot": "7",
            "type": "t_uint256"
          },
          {
            "astId": 16150,
            "contract": "contracts/dca/CaskDCA.sol:CaskDCA",
            "label": "numBuys",
            "offset": 0,
            "slot": "8",
            "type": "t_uint256"
          },
          {
            "astId": 16152,
            "contract": "contracts/dca/CaskDCA.sol:CaskDCA",
            "label": "numSkips",
            "offset": 0,
            "slot": "9",
            "type": "t_uint256"
          },
          {
            "astId": 16154,
            "contract": "contracts/dca/CaskDCA.sol:CaskDCA",
            "label": "maxSlippageBps",
            "offset": 0,
            "slot": "10",
            "type": "t_uint256"
          },
          {
            "astId": 16156,
            "contract": "contracts/dca/CaskDCA.sol:CaskDCA",
            "label": "maxPrice",
            "offset": 0,
            "slot": "11",
            "type": "t_uint256"
          },
          {
            "astId": 16158,
            "contract": "contracts/dca/CaskDCA.sol:CaskDCA",
            "label": "minPrice",
            "offset": 0,
            "slot": "12",
            "type": "t_uint256"
          },
          {
            "astId": 16160,
            "contract": "contracts/dca/CaskDCA.sol:CaskDCA",
            "label": "period",
            "offset": 0,
            "slot": "13",
            "type": "t_uint32"
          },
          {
            "astId": 16162,
            "contract": "contracts/dca/CaskDCA.sol:CaskDCA",
            "label": "createdAt",
            "offset": 4,
            "slot": "13",
            "type": "t_uint32"
          },
          {
            "astId": 16164,
            "contract": "contracts/dca/CaskDCA.sol:CaskDCA",
            "label": "processAt",
            "offset": 8,
            "slot": "13",
            "type": "t_uint32"
          },
          {
            "astId": 16167,
            "contract": "contracts/dca/CaskDCA.sol:CaskDCA",
            "label": "status",
            "offset": 12,
            "slot": "13",
            "type": "t_enum(DCAStatus)16120"
          },
          {
            "astId": 16170,
            "contract": "contracts/dca/CaskDCA.sol:CaskDCA",
            "label": "path",
            "offset": 0,
            "slot": "14",
            "type": "t_array(t_address)dyn_storage"
          }
        ],
        "numberOfBytes": "480"
      },
      "t_struct(SwapInfo)16177_storage": {
        "encoding": "inplace",
        "label": "struct ICaskDCA.SwapInfo",
        "members": [
          {
            "astId": 16174,
            "contract": "contracts/dca/CaskDCA.sol:CaskDCA",
            "label": "swapProtocol",
            "offset": 0,
            "slot": "0",
            "type": "t_enum(SwapProtocol)16114"
          },
          {
            "astId": 16176,
            "contract": "contracts/dca/CaskDCA.sol:CaskDCA",
            "label": "swapData",
            "offset": 0,
            "slot": "1",
            "type": "t_bytes_storage"
          }
        ],
        "numberOfBytes": "64"
      },
      "t_uint256": {
        "encoding": "inplace",
        "label": "uint256",
        "numberOfBytes": "32"
      },
      "t_uint32": {
        "encoding": "inplace",
        "label": "uint32",
        "numberOfBytes": "4"
      }
    }
  }
}