{
  "address": "0x6821189A4fc9EF5cc00892D207BEc99C56A7425f",
  "abi": [
    {
      "inputs": [],
      "stateMutability": "nonpayable",
      "type": "constructor"
    },
    {
      "anonymous": false,
      "inputs": [
        {
          "indexed": true,
          "internalType": "bytes32",
          "name": "assetSpec",
          "type": "bytes32"
        }
      ],
      "name": "BlacklistAssetSpec",
      "type": "event"
    },
    {
      "anonymous": false,
      "inputs": [
        {
          "indexed": true,
          "internalType": "address",
          "name": "previousOwner",
          "type": "address"
        },
        {
          "indexed": true,
          "internalType": "address",
          "name": "newOwner",
          "type": "address"
        }
      ],
      "name": "OwnershipTransferred",
      "type": "event"
    },
    {
      "anonymous": false,
      "inputs": [
        {
          "indexed": false,
          "internalType": "address",
          "name": "account",
          "type": "address"
        }
      ],
      "name": "Paused",
      "type": "event"
    },
    {
      "anonymous": false,
      "inputs": [
        {
          "indexed": false,
          "internalType": "uint256",
          "name": "limit",
          "type": "uint256"
        },
        {
          "indexed": false,
          "internalType": "uint256",
          "name": "jobsProcessed",
          "type": "uint256"
        },
        {
          "indexed": false,
          "internalType": "uint256",
          "name": "depth",
          "type": "uint256"
        },
        {
          "indexed": false,
          "internalType": "uint8",
          "name": "queueId",
          "type": "uint8"
        },
        {
          "indexed": false,
          "internalType": "uint256",
          "name": "queueRemaining",
          "type": "uint256"
        },
        {
          "indexed": false,
          "internalType": "uint32",
          "name": "currentBucket",
          "type": "uint32"
        }
      ],
      "name": "QueueRunReport",
      "type": "event"
    },
    {
      "anonymous": false,
      "inputs": [
        {
          "indexed": false,
          "internalType": "address",
          "name": "feeDistributor",
          "type": "address"
        }
      ],
      "name": "SetFeeDistributor",
      "type": "event"
    },
    {
      "anonymous": false,
      "inputs": [],
      "name": "SetParameters",
      "type": "event"
    },
    {
      "anonymous": false,
      "inputs": [
        {
          "indexed": true,
          "internalType": "bytes32",
          "name": "assetSpec",
          "type": "bytes32"
        }
      ],
      "name": "UnblacklistAssetSpec",
      "type": "event"
    },
    {
      "anonymous": false,
      "inputs": [
        {
          "indexed": false,
          "internalType": "address",
          "name": "account",
          "type": "address"
        }
      ],
      "name": "Unpaused",
      "type": "event"
    },
    {
      "anonymous": false,
      "inputs": [
        {
          "indexed": false,
          "internalType": "uint8",
          "name": "queueId",
          "type": "uint8"
        },
        {
          "indexed": false,
          "internalType": "bytes32",
          "name": "workUnit",
          "type": "bytes32"
        }
      ],
      "name": "WorkUnitProcessed",
      "type": "event"
    },
    {
      "anonymous": false,
      "inputs": [
        {
          "indexed": false,
          "internalType": "uint8",
          "name": "queueId",
          "type": "uint8"
        },
        {
          "indexed": false,
          "internalType": "bytes32",
          "name": "workUnit",
          "type": "bytes32"
        },
        {
          "indexed": false,
          "internalType": "uint32",
          "name": "processAt",
          "type": "uint32"
        }
      ],
      "name": "WorkUnitQueued",
      "type": "event"
    },
    {
      "inputs": [],
      "name": "assetsMerkleRoot",
      "outputs": [
        {
          "internalType": "bytes32",
          "name": "",
          "type": "bytes32"
        }
      ],
      "stateMutability": "view",
      "type": "function"
    },
    {
      "inputs": [
        {
          "internalType": "bytes32",
          "name": "_assetSpec",
          "type": "bytes32"
        }
      ],
      "name": "blacklistAssetspec",
      "outputs": [],
      "stateMutability": "nonpayable",
      "type": "function"
    },
    {
      "inputs": [
        {
          "internalType": "bytes32",
          "name": "",
          "type": "bytes32"
        }
      ],
      "name": "blacklistedAssetspecs",
      "outputs": [
        {
          "internalType": "bool",
          "name": "",
          "type": "bool"
        }
      ],
      "stateMutability": "view",
      "type": "function"
    },
    {
      "inputs": [],
      "name": "caskDCA",
      "outputs": [
        {
          "internalType": "contract ICaskDCA",
          "name": "",
          "type": "address"
        }
      ],
      "stateMutability": "view",
      "type": "function"
    },
    {
      "inputs": [],
      "name": "caskVault",
      "outputs": [
        {
          "internalType": "contract ICaskVault",
          "name": "",
          "type": "address"
        }
      ],
      "stateMutability": "view",
      "type": "function"
    },
    {
      "inputs": [
        {
          "internalType": "bytes",
          "name": "checkData",
          "type": "bytes"
        }
      ],
      "name": "checkUpkeep",
      "outputs": [
        {
          "internalType": "bool",
          "name": "upkeepNeeded",
          "type": "bool"
        },
        {
          "internalType": "bytes",
          "name": "performData",
          "type": "bytes"
        }
      ],
      "stateMutability": "view",
      "type": "function"
    },
    {
      "inputs": [],
      "name": "dcaFeeBps",
      "outputs": [
        {
          "internalType": "uint256",
          "name": "",
          "type": "uint256"
        }
      ],
      "stateMutability": "view",
      "type": "function"
    },
    {
      "inputs": [],
      "name": "dcaFeeMin",
      "outputs": [
        {
          "internalType": "uint256",
          "name": "",
          "type": "uint256"
        }
      ],
      "stateMutability": "view",
      "type": "function"
    },
    {
      "inputs": [],
      "name": "dcaMinValue",
      "outputs": [
        {
          "internalType": "uint256",
          "name": "",
          "type": "uint256"
        }
      ],
      "stateMutability": "view",
      "type": "function"
    },
    {
      "inputs": [],
      "name": "feeDistributor",
      "outputs": [
        {
          "internalType": "address",
          "name": "",
          "type": "address"
        }
      ],
      "stateMutability": "view",
      "type": "function"
    },
    {
      "inputs": [
        {
          "internalType": "address",
          "name": "_caskDCA",
          "type": "address"
        },
        {
          "internalType": "address",
          "name": "_caskVault",
          "type": "address"
        },
        {
          "internalType": "address",
          "name": "_feeDistributor",
          "type": "address"
        }
      ],
      "name": "initialize",
      "outputs": [],
      "stateMutability": "nonpayable",
      "type": "function"
    },
    {
      "inputs": [],
      "name": "maxPriceFeedAge",
      "outputs": [
        {
          "internalType": "uint256",
          "name": "",
          "type": "uint256"
        }
      ],
      "stateMutability": "view",
      "type": "function"
    },
    {
      "inputs": [],
      "name": "maxQueueAge",
      "outputs": [
        {
          "internalType": "uint32",
          "name": "",
          "type": "uint32"
        }
      ],
      "stateMutability": "view",
      "type": "function"
    },
    {
      "inputs": [],
      "name": "maxSkips",
      "outputs": [
        {
          "internalType": "uint256",
          "name": "",
          "type": "uint256"
        }
      ],
      "stateMutability": "view",
      "type": "function"
    },
    {
      "inputs": [],
      "name": "owner",
      "outputs": [
        {
          "internalType": "address",
          "name": "",
          "type": "address"
        }
      ],
      "stateMutability": "view",
      "type": "function"
    },
    {
      "inputs": [],
      "name": "paused",
      "outputs": [
        {
          "internalType": "bool",
          "name": "",
          "type": "bool"
        }
      ],
      "stateMutability": "view",
      "type": "function"
    },
    {
      "inputs": [
        {
          "internalType": "bytes",
          "name": "performData",
          "type": "bytes"
        }
      ],
      "name": "performUpkeep",
      "outputs": [],
      "stateMutability": "nonpayable",
      "type": "function"
    },
    {
      "inputs": [],
      "name": "queueBucketSize",
      "outputs": [
        {
          "internalType": "uint32",
          "name": "",
          "type": "uint32"
        }
      ],
      "stateMutability": "view",
      "type": "function"
    },
    {
      "inputs": [
        {
          "internalType": "uint8",
          "name": "_queueId",
          "type": "uint8"
        },
        {
          "internalType": "uint32",
          "name": "_bucket",
          "type": "uint32"
        },
        {
          "internalType": "uint256",
          "name": "_idx",
          "type": "uint256"
        }
      ],
      "name": "queueItem",
      "outputs": [
        {
          "internalType": "bytes32",
          "name": "",
          "type": "bytes32"
        }
      ],
      "stateMutability": "view",
      "type": "function"
    },
    {
      "inputs": [
        {
          "internalType": "uint8",
          "name": "_queueId",
          "type": "uint8"
        }
      ],
      "name": "queuePosition",
      "outputs": [
        {
          "internalType": "uint32",
          "name": "",
          "type": "uint32"
        }
      ],
      "stateMutability": "view",
      "type": "function"
    },
    {
      "inputs": [
        {
          "internalType": "uint8",
          "name": "_queueId",
          "type": "uint8"
        },
        {
          "internalType": "uint32",
          "name": "_bucket",
          "type": "uint32"
        }
      ],
      "name": "queueSize",
      "outputs": [
        {
          "internalType": "uint256",
          "name": "",
          "type": "uint256"
        }
      ],
      "stateMutability": "view",
      "type": "function"
    },
    {
      "inputs": [
        {
          "internalType": "address",
          "name": "_asset",
          "type": "address"
        },
        {
          "internalType": "address",
          "name": "_dest",
          "type": "address"
        }
      ],
      "name": "recoverFunds",
      "outputs": [],
      "stateMutability": "nonpayable",
      "type": "function"
    },
    {
      "inputs": [
        {
          "internalType": "bytes32",
          "name": "_dcaId",
          "type": "bytes32"
        }
      ],
      "name": "registerDCA",
      "outputs": [],
      "stateMutability": "nonpayable",
      "type": "function"
    },
    {
      "inputs": [],
      "name": "renounceOwnership",
      "outputs": [],
      "stateMutability": "nonpayable",
      "type": "function"
    },
    {
      "inputs": [
        {
          "internalType": "address",
          "name": "_feeDistributor",
          "type": "address"
        }
      ],
      "name": "setFeeDistributor",
      "outputs": [],
      "stateMutability": "nonpayable",
      "type": "function"
    },
    {
      "inputs": [
        {
          "internalType": "uint32",
          "name": "_maxQueueAge",
          "type": "uint32"
        }
      ],
      "name": "setMaxQueueAge",
      "outputs": [],
      "stateMutability": "nonpayable",
      "type": "function"
    },
    {
      "inputs": [
        {
          "internalType": "uint256",
          "name": "_maxSkips",
          "type": "uint256"
        },
        {
          "internalType": "uint256",
          "name": "_dcaFeeBps",
          "type": "uint256"
        },
        {
          "internalType": "uint256",
          "name": "_dcaFeeMin",
          "type": "uint256"
        },
        {
          "internalType": "uint256",
          "name": "_dcaMinValue",
          "type": "uint256"
        },
        {
          "internalType": "uint256",
          "name": "_maxPriceFeedAge",
          "type": "uint256"
        },
        {
          "internalType": "uint32",
          "name": "_queueBucketSize",
          "type": "uint32"
        },
        {
          "internalType": "uint32",
          "name": "_maxQueueAge",
          "type": "uint32"
        }
      ],
      "name": "setParameters",
      "outputs": [],
      "stateMutability": "nonpayable",
      "type": "function"
    },
    {
      "inputs": [
        {
          "internalType": "uint32",
          "name": "_queueBucketSize",
          "type": "uint32"
        }
      ],
      "name": "setQueueBucketSize",
      "outputs": [],
      "stateMutability": "nonpayable",
      "type": "function"
    },
    {
      "inputs": [
        {
          "internalType": "uint8",
          "name": "_queueId",
          "type": "uint8"
        },
        {
          "internalType": "uint32",
          "name": "_timestamp",
          "type": "uint32"
        }
      ],
      "name": "setQueuePosition",
      "outputs": [],
      "stateMutability": "nonpayable",
      "type": "function"
    },
    {
      "inputs": [
        {
          "internalType": "address",
          "name": "newOwner",
          "type": "address"
        }
      ],
      "name": "transferOwnership",
      "outputs": [],
      "stateMutability": "nonpayable",
      "type": "function"
    },
    {
      "inputs": [
        {
          "internalType": "bytes32",
          "name": "_assetSpec",
          "type": "bytes32"
        }
      ],
      "name": "unblacklistAssetspec",
      "outputs": [],
      "stateMutability": "nonpayable",
      "type": "function"
    }
  ],
  "transactionHash": "0x1f3e803b44f0b84e540d234706304046674cd4dcb032552c5249e79f21ce218c",
  "args": [],
  "numDeployments": 1,
  "solcInputHash": "9f96eb065984ed85d198e90d587845a7",
  "bytecode": "0x60806040523480156200001157600080fd5b50600054610100900460ff166200002f5760005460ff161562000039565b62000039620000de565b620000a15760405162461bcd60e51b815260206004820152602e60248201527f496e697469616c697a61626c653a20636f6e747261637420697320616c72656160448201526d191e481a5b9a5d1a585b1a5e995960921b606482015260840160405180910390fd5b600054610100900460ff16158015620000c4576000805461ffff19166101011790555b8015620000d7576000805461ff00191690555b5062000102565b6000620000f630620000fc60201b6200110a1760201c565b15905090565b3b151590565b613eb080620001126000396000f3fe608060405234801561001057600080fd5b50600436106101e55760003560e01c80636e04ff0d1161010f578063ab4de5ed116100a2578063ccfc2e8d11610071578063ccfc2e8d14610422578063cd48a61414610435578063f2fde38b14610448578063fa184a1e1461045b57600080fd5b8063ab4de5ed146103e5578063c0c53b8b146103ee578063c506465314610401578063c6f8806c1461040a57600080fd5b80638da5cb5b116100de5780638da5cb5b1461039b57806390c6da56146103ac578063a47755d1146103bf578063aa878f76146103d257600080fd5b80636e04ff0d1461034f578063715018a614610370578063729d8107146103785780638bddd2e41461038b57600080fd5b80631c39033c1161018757806335e53b941161015657806335e53b94146102f55780634585e33b146103285780634b51dd221461033b5780635c975abb1461034457600080fd5b80631c39033c146102885780631e8506d6146102c657806324ae6a27146102d957806330f01be8146102ec57600080fd5b80630caae41d116101c35780630caae41d146102465780630d43e8ad1461025957806314fad7071461026c5780631ac6c56b1461027f57600080fd5b806308058e7c146101ea5780630816c8471461021a5780630abe19d914610231575b600080fd5b60cc546101fd906001600160a01b031681565b6040516001600160a01b0390911681526020015b60405180910390f35b61022360d45481565b604051908152602001610211565b61024461023f3660046131e0565b61046e565b005b610244610254366004613258565b61055a565b60d5546101fd906001600160a01b031681565b61022361027a366004613291565b6105bc565b61022360d15481565b6102b16102963660046132d2565b60ff16600090815260cb602052604090205463ffffffff1690565b60405163ffffffff9091168152602001610211565b6102446102d43660046132ef565b610606565b6102446102e736600461331d565b610673565b61022360d35481565b6103186103033660046132ef565b60cf6020526000908152604090205460ff1681565b6040519015158152602001610211565b61024461033636600461334b565b6107a1565b61022360ce5481565b60655460ff16610318565b61036261035d36600461334b565b610b41565b604051610211929190613415565b610244610cc0565b610244610386366004613430565b610cf6565b60c9546102b19063ffffffff1681565b6033546001600160a01b03166101fd565b6102446103ba3660046132ef565b610d48565b60cd546101fd906001600160a01b031681565b6102236103e0366004613258565b610db2565b61022360d25481565b6102446103fc36600461344d565b610ddd565b61022360d05481565b60c9546102b190640100000000900463ffffffff1681565b610244610430366004613498565b610efa565b610244610443366004613430565b610f78565b610244610456366004613498565b610fbe565b6102446104693660046132ef565b611059565b6033546001600160a01b031633146104a15760405162461bcd60e51b8152600401610498906134b5565b60405180910390fd5b61271086106104e85760405162461bcd60e51b815260206004820152601360248201527221494e56414c4944286463614665654270732960681b6044820152606401610498565b60d087905560d186905560d285905560d384905560d483905560c9805463ffffffff8381166401000000000267ffffffffffffffff19909216908516171790556040517f3b5fda6f71b960b21be0b432d9b7c87d9c8c996477ea1eba5c19cb77d1e027aa90600090a150505050505050565b6033546001600160a01b031633146105845760405162461bcd60e51b8152600401610498906134b5565b61058d81611110565b60ff92909216600090815260cb60205260409020805463ffffffff191663ffffffff9093169290921790915550565b60ff8316600090815260ca6020908152604080832063ffffffff8616845290915281208054839081106105f1576105f16134ea565b906000526020600020015490505b9392505050565b6033546001600160a01b031633146106305760405162461bcd60e51b8152600401610498906134b5565b600081815260cf6020526040808220805460ff191660011790555182917f24b2f8b1797db190508a9ea995ccc6b8f33928a8ec4fb3a27504f51e1157647b91a250565b6033546001600160a01b0316331461069d5760405162461bcd60e51b8152600401610498906134b5565b6040516370a0823160e01b81523060048201526001600160a01b0383169063a9059cbb90839083906370a082319060240160206040518083038186803b1580156106e657600080fd5b505afa1580156106fa573d6000803e3d6000fd5b505050506040513d601f19601f8201168201806040525081019061071e9190613500565b6040516001600160e01b031960e085901b1681526001600160a01b0390921660048301526024820152604401602060405180830381600087803b15801561076457600080fd5b505af1158015610778573d6000803e3d6000fd5b505050506040513d601f19601f8201168201806040525081019061079c919061352e565b505050565b60655460ff16156107e75760405162461bcd60e51b815260206004820152601060248201526f14185d5cd8589b194e881c185d5cd95960821b6044820152606401610498565b6002609754141561083a5760405162461bcd60e51b815260206004820152601f60248201527f5265656e7472616e637947756172643a207265656e7472616e742063616c6c006044820152606401610498565b60026097556000808061084f84860186613549565b925092509250600061085f61113a565b905060008061086f86600561358d565b60ff8516600090815260cb602052604090205490915063ffffffff166108b55760ff8416600090815260cb60205260409020805463ffffffff191663ffffffff85161790555b85821080156108c45750600081115b80156108eb575060ff8416600090815260cb602052604090205463ffffffff808516911611155b15610aaa5760ff8416600090815260ca6020908152604080832060cb83528184205463ffffffff1684529091529020548015610a1a5760ff8516600090815260ca6020908152604080832060cb83528184205463ffffffff16845290915281206109566001846135ac565b81548110610966576109666134ea565b600091825260208083209091015460ff8916835260ca8252604080842060cb84528185205463ffffffff1685529092529120805491925090806109ab576109ab6135c3565b600190038181906000526020600020016000905590556109cb8682611162565b6040805160ff88168152602081018390527f58c7ae721fd25aaf84e68db9ce9ac6fed4f08438a370a4299d19f8c1425c499e910160405180910390a1610a126001856135d9565b935050610aa4565b60ff8516600090815260cb602052604090205463ffffffff80861691161015610a9e5760c95460ff8616600090815260cb60205260408120805463ffffffff93841693919291610a6c918591166135f1565b92506101000a81548163ffffffff021916908363ffffffff160217905550600182610a9791906135ac565b9150610aa4565b50610aaa565b506108b5565b60ff8416600081815260ca6020908152604080832060cb8084528285205463ffffffff168086529184528285205494869052835281518b81529283018790528282018a90526060830194909452608082019290925260a0810192909252517fd69140f88b9a25350749bb371882f4479133fc8b65602aac60f6c1b3598f08329181900360c00190a150506001609755505050505050565b60006060818080610b5486880188613549565b9250925092506000610b6461113a565b60ff8316600090815260cb602052604081205490975090915063ffffffff1680610b8b5750805b8063ffffffff168263ffffffff1610158015610bc6575060c954640100000000900463ffffffff16610bbd8284613619565b63ffffffff1610155b15610bd45760019650610c64565b8163ffffffff168163ffffffff1611610c645760ff8316600090815260ca6020908152604080832063ffffffff8516845290915290205415801590610c3c575060ff8316600090815260ca6020908152604080832063ffffffff851684529091529020548411155b15610c4a5760019650610c64565b60c954610c5d9063ffffffff16826135f1565b9050610bd4565b60ff8316600081815260ca6020908152604080832063ffffffff86168452825291829020548251918201899052918101919091526060810191909152608001604051602081830303815290604052955050505050509250929050565b6033546001600160a01b03163314610cea5760405162461bcd60e51b8152600401610498906134b5565b610cf46000611801565b565b6033546001600160a01b03163314610d205760405162461bcd60e51b8152600401610498906134b5565b60c9805463ffffffff9092166401000000000267ffffffff0000000019909216919091179055565b6033546001600160a01b03163314610d725760405162461bcd60e51b8152600401610498906134b5565b600081815260cf6020526040808220805460ff191690555182917fba894bc0c7e4bd24c200bbd3877abd49470e2d8d96aeaecae8a02e09809e4aea91a250565b60ff8216600090815260ca6020908152604080832063ffffffff851684529091529020545b92915050565b600054610100900460ff16610df85760005460ff1615610dfc565b303b155b610e5f5760405162461bcd60e51b815260206004820152602e60248201527f496e697469616c697a61626c653a20636f6e747261637420697320616c72656160448201526d191e481a5b9a5d1a585b1a5e995960921b6064820152608401610498565b600054610100900460ff16158015610e81576000805461ffff19166101011790555b60cc80546001600160a01b038087166001600160a01b03199283161790925560cd805486841690831617905560d5805492851692909116919091179055600060d081905560d181905560d281905560d381905560d455610ee2610e10611853565b8015610ef4576000805461ff00191690555b50505050565b6033546001600160a01b03163314610f245760405162461bcd60e51b8152600401610498906134b5565b60d580546001600160a01b0319166001600160a01b0383169081179091556040519081527f9e9a9a4a82acd1b28aab6bf1d43aad70ae6d290549c0d6183e2e91ebcdf574419060200160405180910390a150565b6033546001600160a01b03163314610fa25760405162461bcd60e51b8152600401610498906134b5565b60c9805463ffffffff191663ffffffff92909216919091179055565b6033546001600160a01b03163314610fe85760405162461bcd60e51b8152600401610498906134b5565b6001600160a01b03811661104d5760405162461bcd60e51b815260206004820152602660248201527f4f776e61626c653a206e6577206f776e657220697320746865207a65726f206160448201526564647265737360d01b6064820152608401610498565b61105681611801565b50565b600260975414156110ac5760405162461bcd60e51b815260206004820152601f60248201527f5265656e7472616e637947756172643a207265656e7472616e742063616c6c006044820152606401610498565b600260975560655460ff16156110f75760405162461bcd60e51b815260206004820152601060248201526f14185d5cd8589b194e881c185d5cd95960821b6044820152606401610498565b611102600182611162565b506001609755565b3b151590565b60c95460009063ffffffff166111268184613654565b6111309084613619565b610dd791906135f1565b60c95460009042906111529063ffffffff1682613654565b61115c9082613619565b91505090565b60cc546040516392c65f4b60e01b8152600481018390526000916001600160a01b0316906392c65f4b9060240160006040518083038186803b1580156111a757600080fd5b505afa1580156111bb573d6000803e3d6000fd5b505050506040513d6000823e601f3d908101601f191682016040526111e391908101906137c9565b90506000816040015182606001518361022001516040516020016112099392919061396a565b60408051601f198184030181529181528151602092830120600081815260cf90935291205490915060ff16156112a45760cc54604051635ba581cd60e01b81526001600160a01b0390911690635ba581cd9061126c9086906001906004016139ac565b600060405180830381600087803b15801561128657600080fd5b505af115801561129a573d6000803e3d6000fd5b5050505050505050565b600182610200015160048111156112bd576112bd613996565b146112c85750505050565b60d354826080015110156113095760cc54604051635ba581cd60e01b81526001600160a01b0390911690635ba581cd9061126c9086906001906004016139ac565b6101e0820151429063ffffffff80831691161115611340576113398585611334866101e00151611110565b61189b565b5050505050565b608083015160a08401511580159061136a57508360c001518460a0015161136791906135ac565b81115b15611386578360c001518460a0015161138391906135ac565b90505b600061271060d15483611399919061358d565b6113a391906139d0565b905060d2548110156113b4575060d2545b60008561022001516000815181106113ce576113ce6134ea565b6020026020010151905060008661022001516001886102200151516113f391906135ac565b81518110611403576114036134ea565b602090810291909101015160cd5460405163185c596360e11b81526001600160a01b038581166004830152929350600092909116906330b8b2c69060240160006040518083038186803b15801561145957600080fd5b505afa15801561146d573d6000803e3d6000fd5b505050506040513d6000823e601f3d908101601f191682016040526114959190810190613a62565b90508060a00151611534576114c38a8a6113348b6101a001518c6101e001516114be91906135f1565b611110565b60cc54604051632a74cbb560e01b81526001600160a01b0390911690632a74cbb5906114f6908c90600190600401613b39565b600060405180830381600087803b15801561151057600080fd5b505af1158015611524573d6000803e3d6000fd5b5050505050505050505050505050565b611545898484888c6060015161192b565b6116af576115678a8a6113348b6101a001518c6101e001516114be91906135f1565b60cd54885160d254604051638e3e580d60e01b81526001600160a01b0392831660048201523060248201526044810191909152911690638e3e580d90606401600060405180830381600087803b1580156115c057600080fd5b505af19250505080156115d1575060015b611670573d8080156115ff576040519150601f19603f3d011682016040523d82523d6000602084013e611604565b606091505b5060cc54604051635ba581cd60e01b81526001600160a01b0390911690635ba581cd90611638908d906001906004016139ac565b600060405180830381600087803b15801561165257600080fd5b505af1158015611666573d6000803e3d6000fd5b50505050506116a3565b60cc54604051632a74cbb560e01b81526001600160a01b0390911690632a74cbb5906114f6908c90600390600401613b39565b50505050505050505050565b60006116be8a85858989611c7a565b905080156117855760a089015115806116e957508860a00151868a60c001516116e791906135d9565b105b1561170c5761170c8b8b6113348c6101a001518d6101e001516114be91906135f1565b60cc54604051632d32f27960e21b8152600481018c90526024810188905260448101839052606481018790526001600160a01b039091169063b4cbc9e4906084015b600060405180830381600087803b15801561176857600080fd5b505af115801561177c573d6000803e3d6000fd5b505050506117f4565b600060d05411801561179e575060d05489610120015110155b156117d65760cc54604051635ba581cd60e01b81526001600160a01b0390911690635ba581cd9061174e908d906003906004016139ac565b6117f48b8b6113348c6101a001518d6101e001516114be91906135f1565b5050505050505050505050565b603380546001600160a01b038381166001600160a01b0319831681179093556040519116919082907f8be0079c531659141344cd1fd0a4f28419497f9722a3daafe3b4186f6b6457e090600090a35050565b600054610100900460ff1661187a5760405162461bcd60e51b815260040161049890613b50565b611882612a00565b61188a612a37565b611892612a6e565b61105681612a95565b60ff8316600090815260ca60205260408120906118b783611110565b63ffffffff90811682526020808301939093526040918201600090812080546001810182559082529084902001859055815160ff87168152928301859052831682820152517f67778e52b18dcf574ab071142a886fce91a8ce5e60e176229fdadb8c063caaed9181900360600190a1505050565b60cc546040516392c65f4b60e01b81526004810187905260009182916001600160a01b03909116906392c65f4b9060240160006040518083038186803b15801561197457600080fd5b505afa158015611988573d6000803e3d6000fd5b505050506040513d6000823e601f3d908101601f191682016040526119b091908101906137c9565b60cd5460405163185c596360e11b81526001600160a01b038981166004830152929350600092909116906330b8b2c69060240160006040518083038186803b1580156119fb57600080fd5b505afa158015611a0f573d6000803e3d6000fd5b505050506040513d6000823e601f3d908101601f19168201604052611a379190810190613a62565b90508161018001516000148015611a515750610160820151155b15611a6157600192505050611c71565b600080876001600160a01b031663313ce5676040518163ffffffff1660e01b815260040160206040518083038186803b158015611a9d57600080fd5b505afa158015611ab1573d6000803e3d6000fd5b505050506040513d601f19601f82011682018060405250810190611ad59190613b9b565b90506000611ae482600a613c9c565b60608601519091506001600160a01b031615611b3157611b16848a898760600151600a611b119190613c9c565b612b02565b611b20828061358d565b611b2a91906139d0565b9250611c0f565b600085604001516001600160a01b031663d06ca61f8a8861022001516040518363ffffffff1660e01b8152600401611b6a929190613cab565b60006040518083038186803b158015611b8257600080fd5b505afa158015611b96573d6000803e3d6000fd5b505050506040513d6000823e601f3d908101601f19168201604052611bbe9190810190613cc4565b90508060018251611bcf91906135ac565b81518110611bdf57611bdf6134ea565b602002602001015182611bf78b886060015187612e3a565b611c01919061358d565b611c0b91906139d0565b9350505b6000856101800151118015611c28575084610180015183105b15611c3b57600095505050505050611c71565b6000856101600151118015611c54575084610160015183115b15611c6757600095505050505050611c71565b6001955050505050505b95945050505050565b60cc546040516392c65f4b60e01b81526004810187905260009182916001600160a01b03909116906392c65f4b9060240160006040518083038186803b158015611cc357600080fd5b505afa158015611cd7573d6000803e3d6000fd5b505050506040513d6000823e601f3d908101601f19168201604052611cff91908101906137c9565b60cd5460405163185c596360e11b81526001600160a01b038981166004830152929350600092909116906330b8b2c69060240160006040518083038186803b158015611d4a57600080fd5b505afa158015611d5e573d6000803e3d6000fd5b505050506040513d6000823e601f3d908101601f19168201604052611d869190810190613a62565b6040516370a0823160e01b81523060048201529091506000906001600160a01b038916906370a082319060240160206040518083038186803b158015611dcb57600080fd5b505afa158015611ddf573d6000803e3d6000fd5b505050506040513d601f19601f82011682018060405250810190611e039190613500565b60cd54845160405163fcd6a25b60e01b81526001600160a01b039182166004820152306024820152604481018a905260006064820152929350169063fcd6a25b90608401600060405180830381600087803b158015611e6157600080fd5b505af1925050508015611e72575060015b611f18573d808015611ea0576040519150601f19603f3d011682016040523d82523d6000602084013e611ea5565b606091505b5060cc54604051632a74cbb560e01b81526001600160a01b0390911690632a74cbb590611ed9908d90600290600401613b39565b600060405180830381600087803b158015611ef357600080fd5b505af1158015611f07573d6000803e3d6000fd5b505050506000945050505050611c71565b60cd546000906001600160a01b031663e1ded2de611f36888a6135ac565b6040518263ffffffff1660e01b8152600401611f5491815260200190565b60206040518083038186803b158015611f6c57600080fd5b505afa158015611f80573d6000803e3d6000fd5b505050506040513d601f19601f82011682018060405250810190611fa49190613500565b60cd546040516370a0823160e01b81523060048201529192506001600160a01b0316906370a082319060240160206040518083038186803b158015611fe857600080fd5b505afa158015611ffc573d6000803e3d6000fd5b505050506040513d601f19601f820116820180604052508101906120209190613500565b8111156120a55760cd546040516370a0823160e01b81523060048201526001600160a01b03909116906370a082319060240160206040518083038186803b15801561206a57600080fd5b505afa15801561207e573d6000803e3d6000fd5b505050506040513d601f19601f820116820180604052508101906120a29190613500565b90505b60cd5460405163f3fef3a360e01b81526001600160a01b038b81166004830152602482018490529091169063f3fef3a390604401600060405180830381600087803b1580156120f357600080fd5b505af1158015612107573d6000803e3d6000fd5b50506040516370a0823160e01b8152306004820152600092508491506001600160a01b038c16906370a082319060240160206040518083038186803b15801561214f57600080fd5b505afa158015612163573d6000803e3d6000fd5b505050506040513d601f19601f820116820180604052508101906121879190613500565b61219191906135ac565b9050600081116121d85760405162461bcd60e51b815260206004820152601260248201527121494e56414c494428616d6f756e74496e2960701b6044820152606401610498565b60608501516000906001600160a01b03161561220757612204858b88606001518b8d611b1191906135ac565b90505b60408601516000906001600160a01b031663d06ca61f6122278b8d6135ac565b8961022001516040518363ffffffff1660e01b815260040161224a929190613cab565b60006040518083038186803b15801561226257600080fd5b505afa158015612276573d6000803e3d6000fd5b505050506040513d6000823e601f3d908101601f1916820160405261229e9190810190613cc4565b9050811561250e57612710876101400151836122ba919061358d565b6122c491906139d0565b6122ce90836135ac565b91508181600183516122e091906135ac565b815181106122f0576122f06134ea565b602002602001015110156125095760cd54612318906001600160a01b038e8116911685612eab565b60cd546040516311f9fbc960e21b81526001600160a01b038e8116600483015260248201869052909116906347e7ef2490604401600060405180830381600087803b15801561236657600080fd5b505af115801561237a573d6000803e3d6000fd5b505060cd5489516040516370a0823160e01b81523060048201526001600160a01b03909216935063a9059cbb92509083906370a082319060240160206040518083038186803b1580156123cc57600080fd5b505afa1580156123e0573d6000803e3d6000fd5b505050506040513d601f19601f820116820180604052508101906124049190613500565b6040516001600160e01b031960e085901b1681526001600160a01b0390921660048301526024820152604401602060405180830381600087803b15801561244a57600080fd5b505af115801561245e573d6000803e3d6000fd5b505050506040513d601f19601f82011682018060405250810190612482919061352e565b5060cc60009054906101000a90046001600160a01b03166001600160a01b0316632a74cbb58e60046040518363ffffffff1660e01b81526004016124c7929190613b39565b600060405180830381600087803b1580156124e157600080fd5b505af11580156124f5573d6000803e3d6000fd5b505050506000975050505050505050611c71565b612586565b612710876101400151826001845161252691906135ac565b81518110612536576125366134ea565b6020026020010151612548919061358d565b61255291906139d0565b816001835161256191906135ac565b81518110612571576125716134ea565b602002602001015161258391906135ac565b91505b60408701516125a0906001600160a01b038e169085612eab565b86604001516001600160a01b03166338ed173984848a61022001518b6020015142610e106125ce91906135d9565b6040518663ffffffff1660e01b81526004016125ee959493929190613d4a565b600060405180830381600087803b15801561260857600080fd5b505af192505050801561263d57506040513d6000823e601f3d908101601f1916820160405261263a9190810190613cc4565b60015b61287d573d80801561266b576040519150601f19603f3d011682016040523d82523d6000602084013e612670565b606091505b5060cd5461268b906001600160a01b038f8116911686612eab565b60cd546040516311f9fbc960e21b81526001600160a01b038f8116600483015260248201879052909116906347e7ef2490604401600060405180830381600087803b1580156126d957600080fd5b505af11580156126ed573d6000803e3d6000fd5b505060cd548a516040516370a0823160e01b81523060048201526001600160a01b03909216935063a9059cbb92509083906370a082319060240160206040518083038186803b15801561273f57600080fd5b505afa158015612753573d6000803e3d6000fd5b505050506040513d601f19601f820116820180604052508101906127779190613500565b6040516001600160e01b031960e085901b1681526001600160a01b0390921660048301526024820152604401602060405180830381600087803b1580156127bd57600080fd5b505af11580156127d1573d6000803e3d6000fd5b505050506040513d601f19601f820116820180604052508101906127f5919061352e565b5060cc60009054906101000a90046001600160a01b03166001600160a01b0316632a74cbb58f60056040518363ffffffff1660e01b815260040161283a929190613b39565b600060405180830381600087803b15801561285457600080fd5b505af1158015612868573d6000803e3d6000fd5b50505050600098505050505050505050611c71565b6002815110156128c35760405162461bcd60e51b815260206004820152601160248201527021494e56414c494428616d6f756e74732960781b6044820152606401610498565b60cd5460d5546040516370a0823160e01b81523060048201526001600160a01b039283169263a9059cbb92169083906370a082319060240160206040518083038186803b15801561291357600080fd5b505afa158015612927573d6000803e3d6000fd5b505050506040513d601f19601f8201168201806040525081019061294b9190613500565b6040516001600160e01b031960e085901b1681526001600160a01b0390921660048301526024820152604401602060405180830381600087803b15801561299157600080fd5b505af11580156129a5573d6000803e3d6000fd5b505050506040513d601f19601f820116820180604052508101906129c9919061352e565b5080600182516129d991906135ac565b815181106129e9576129e96134ea565b602002602001015198505050505050505050611c71565b600054610100900460ff16612a275760405162461bcd60e51b815260040161049890613b50565b612a2f612a6e565b610cf4612f8e565b600054610100900460ff16612a5e5760405162461bcd60e51b815260040161049890613b50565b612a66612a6e565b610cf4612fbe565b600054610100900460ff16610cf45760405162461bcd60e51b815260040161049890613b50565b600054610100900460ff16612abc5760405162461bcd60e51b815260040161049890613b50565b60c9805463ffffffff191663ffffffff8316908117909155612adf906014613d86565b60c960046101000a81548163ffffffff021916908363ffffffff16021790555050565b600081612b1157506000612e32565b6000806000866001600160a01b031663313ce5676040518163ffffffff1660e01b815260040160206040518083038186803b158015612b4f57600080fd5b505afa158015612b63573d6000803e3d6000fd5b505050506040513d601f19601f82011682018060405250810190612b879190613b9b565b90506000866001600160a01b031663313ce5676040518163ffffffff1660e01b815260040160206040518083038186803b158015612bc457600080fd5b505afa158015612bd8573d6000803e3d6000fd5b505050506040513d601f19601f82011682018060405250810190612bfc9190613b9b565b905088600001516001600160a01b031663feaf968c6040518163ffffffff1660e01b815260040160a06040518083038186803b158015612c3b57600080fd5b505afa158015612c4f573d6000803e3d6000fd5b505050506040513d601f19601f82011682018060405250810190612c739190613dcc565b5060d4549297509550869250501580612c97575060d454612c9485426135ac565b11155b612cd55760405162461bcd60e51b815260206004820152600f60248201526e0854149250d157d3d5551110551151608a1b6044820152606401610498565b876001600160a01b031663feaf968c6040518163ffffffff1660e01b815260040160a06040518083038186803b158015612d0e57600080fd5b505afa158015612d22573d6000803e3d6000fd5b505050506040513d601f19601f82011682018060405250810190612d469190613dcc565b5060d4549298509650879250501580612d6a575060d454612d6786426135ac565b11155b612da85760405162461bcd60e51b815260206004820152600f60248201526e0854149250d157d3d5551110551151608a1b6044820152606401610498565b8260ff168b6080015160ff1614612e0357612dc4818486612e3a565b612dd3838d6080015187612e3a565b612de28a8e6060015188612e3a565b612dec919061358d565b612df691906139d0565b9650505050505050612e32565b612df68183612e178b8f6060015188612e3a565b612e21919061358d565b612e2b91906139d0565b8486612e3a565b949350505050565b60008160ff168360ff161015612e7357612e548383613e1c565b612e629060ff16600a613e3f565b612e6c908561358d565b90506105ff565b8160ff168360ff161115612ea357612e8b8284613e1c565b612e999060ff16600a613e3f565b612e6c90856139d0565b509192915050565b604051636eb1769f60e11b81523060048201526001600160a01b038381166024830152600091839186169063dd62ed3e9060440160206040518083038186803b158015612ef757600080fd5b505afa158015612f0b573d6000803e3d6000fd5b505050506040513d601f19601f82011682018060405250810190612f2f9190613500565b612f3991906135d9565b604080516001600160a01b038616602482015260448082018490528251808303909101815260649091019091526020810180516001600160e01b031663095ea7b360e01b179052909150610ef4908590612ff1565b600054610100900460ff16612fb55760405162461bcd60e51b815260040161049890613b50565b610cf433611801565b600054610100900460ff16612fe55760405162461bcd60e51b815260040161049890613b50565b6065805460ff19169055565b6000613046826040518060400160405280602081526020017f5361666545524332303a206c6f772d6c6576656c2063616c6c206661696c6564815250856001600160a01b03166130c39092919063ffffffff16565b80519091501561079c5780806020019051810190613064919061352e565b61079c5760405162461bcd60e51b815260206004820152602a60248201527f5361666545524332303a204552433230206f7065726174696f6e20646964206e6044820152691bdd081cdd58d8d9595960b21b6064820152608401610498565b6060612e32848460008585843b61311c5760405162461bcd60e51b815260206004820152601d60248201527f416464726573733a2063616c6c20746f206e6f6e2d636f6e74726163740000006044820152606401610498565b600080866001600160a01b031685876040516131389190613e4b565b60006040518083038185875af1925050503d8060008114613175576040519150601f19603f3d011682016040523d82523d6000602084013e61317a565b606091505b509150915061318a828286613195565b979650505050505050565b606083156131a45750816105ff565b8251156131b45782518084602001fd5b8160405162461bcd60e51b81526004016104989190613e67565b63ffffffff8116811461105657600080fd5b600080600080600080600060e0888a0312156131fb57600080fd5b873596506020880135955060408801359450606088013593506080880135925060a0880135613229816131ce565b915060c0880135613239816131ce565b8091505092959891949750929550565b60ff8116811461105657600080fd5b6000806040838503121561326b57600080fd5b823561327681613249565b91506020830135613286816131ce565b809150509250929050565b6000806000606084860312156132a657600080fd5b83356132b181613249565b925060208401356132c1816131ce565b929592945050506040919091013590565b6000602082840312156132e457600080fd5b81356105ff81613249565b60006020828403121561330157600080fd5b5035919050565b6001600160a01b038116811461105657600080fd5b6000806040838503121561333057600080fd5b823561333b81613308565b9150602083013561328681613308565b6000806020838503121561335e57600080fd5b823567ffffffffffffffff8082111561337657600080fd5b818501915085601f83011261338a57600080fd5b81358181111561339957600080fd5b8660208285010111156133ab57600080fd5b60209290920196919550909350505050565b60005b838110156133d85781810151838201526020016133c0565b83811115610ef45750506000910152565b600081518084526134018160208601602086016133bd565b601f01601f19169290920160200192915050565b8215158152604060208201526000612e3260408301846133e9565b60006020828403121561344257600080fd5b81356105ff816131ce565b60008060006060848603121561346257600080fd5b833561346d81613308565b9250602084013561347d81613308565b9150604084013561348d81613308565b809150509250925092565b6000602082840312156134aa57600080fd5b81356105ff81613308565b6020808252818101527f4f776e61626c653a2063616c6c6572206973206e6f7420746865206f776e6572604082015260600190565b634e487b7160e01b600052603260045260246000fd5b60006020828403121561351257600080fd5b5051919050565b8051801515811461352957600080fd5b919050565b60006020828403121561354057600080fd5b6105ff82613519565b60008060006060848603121561355e57600080fd5b8335925060208401359150604084013561348d81613249565b634e487b7160e01b600052601160045260246000fd5b60008160001904831182151516156135a7576135a7613577565b500290565b6000828210156135be576135be613577565b500390565b634e487b7160e01b600052603160045260246000fd5b600082198211156135ec576135ec613577565b500190565b600063ffffffff80831681851680830382111561361057613610613577565b01949350505050565b600063ffffffff8381169083168181101561363657613636613577565b039392505050565b634e487b7160e01b600052601260045260246000fd5b600063ffffffff8084168061366b5761366b61363e565b92169190910692915050565b634e487b7160e01b600052604160045260246000fd5b604051610240810167ffffffffffffffff811182821017156136b1576136b1613677565b60405290565b604051610100810167ffffffffffffffff811182821017156136b1576136b1613677565b604051601f8201601f1916810167ffffffffffffffff8111828210171561370457613704613677565b604052919050565b805161352981613308565b8051613529816131ce565b80516005811061352957600080fd5b600067ffffffffffffffff82111561374b5761374b613677565b5060051b60200190565b600082601f83011261376657600080fd5b8151602061377b61377683613731565b6136db565b82815260059290921b8401810191818101908684111561379a57600080fd5b8286015b848110156137be5780516137b181613308565b835291830191830161379e565b509695505050505050565b6000602082840312156137db57600080fd5b815167ffffffffffffffff808211156137f357600080fd5b90830190610240828603121561380857600080fd5b61381061368d565b6138198361370c565b81526138276020840161370c565b60208201526138386040840161370c565b60408201526138496060840161370c565b60608201526080838101519082015260a0808401519082015260c0808401519082015260e08084015190820152610100808401519082015261012080840151908201526101408084015190820152610160808401519082015261018080840151908201526101a06138bb818501613717565b908201526101c06138cd848201613717565b908201526101e06138df848201613717565b908201526102006138f1848201613722565b90820152610220838101518381111561390957600080fd5b61391588828701613755565b918301919091525095945050505050565b600081518084526020808501945080840160005b8381101561395f5781516001600160a01b03168752958201959082019060010161393a565b509495945050505050565b6001600160a01b03848116825283166020820152606060408201819052600090611c7190830184613926565b634e487b7160e01b600052602160045260246000fd5b82815260408101600483106139c3576139c3613996565b8260208301529392505050565b6000826139df576139df61363e565b500490565b805161352981613249565b80516002811061352957600080fd5b600082601f830112613a0f57600080fd5b815167ffffffffffffffff811115613a2957613a29613677565b613a3c601f8201601f19166020016136db565b818152846020838601011115613a5157600080fd5b612e328260208301602087016133bd565b600060208284031215613a7457600080fd5b815167ffffffffffffffff80821115613a8c57600080fd5b908301906101008286031215613aa157600080fd5b613aa96136b7565b613ab28361370c565b81526020830151602082015260408301516040820152613ad4606084016139e4565b6060820152613ae5608084016139e4565b6080820152613af660a08401613519565b60a0820152613b0760c084016139ef565b60c082015260e083015182811115613b1e57600080fd5b613b2a878286016139fe565b60e08301525095945050505050565b82815260408101600683106139c3576139c3613996565b6020808252602b908201527f496e697469616c697a61626c653a20636f6e7472616374206973206e6f74206960408201526a6e697469616c697a696e6760a81b606082015260800190565b600060208284031215613bad57600080fd5b81516105ff81613249565b600181815b80851115613bf3578160001904821115613bd957613bd9613577565b80851615613be657918102915b93841c9390800290613bbd565b509250929050565b600082613c0a57506001610dd7565b81613c1757506000610dd7565b8160018114613c2d5760028114613c3757613c53565b6001915050610dd7565b60ff841115613c4857613c48613577565b50506001821b610dd7565b5060208310610133831016604e8410600b8410161715613c76575081810a610dd7565b613c808383613bb8565b8060001904821115613c9457613c94613577565b029392505050565b60006105ff60ff841683613bfb565b828152604060208201526000612e326040830184613926565b60006020808385031215613cd757600080fd5b825167ffffffffffffffff811115613cee57600080fd5b8301601f81018513613cff57600080fd5b8051613d0d61377682613731565b81815260059190911b82018301908381019087831115613d2c57600080fd5b928401925b8284101561318a57835182529284019290840190613d31565b85815284602082015260a060408201526000613d6960a0830186613926565b6001600160a01b0394909416606083015250608001529392505050565b600063ffffffff80831681851681830481118215151615613da957613da9613577565b02949350505050565b805169ffffffffffffffffffff8116811461352957600080fd5b600080600080600060a08688031215613de457600080fd5b613ded86613db2565b9450602086015193506040860151925060608601519150613e1060808701613db2565b90509295509295909350565b600060ff821660ff841680821015613e3657613e36613577565b90039392505050565b60006105ff8383613bfb565b60008251613e5d8184602087016133bd565b9190910192915050565b6020815260006105ff60208301846133e956fea26469706673582212208cc0664d817bd9deeed6afc6abf1d2f91349054d3c43f9b900b2e81d281a84a164736f6c63430008090033",
  "devdoc": {
    "kind": "dev",
    "methods": {
      "checkUpkeep(bytes)": {
        "details": "To ensure that it is never called, you may want to add the cannotExecute modifier from KeeperBase to your implementation of this method.",
        "params": {
          "checkData": "specified in the upkeep registration so it is always the same for a registered upkeep. This can easilly be broken down into specific arguments using `abi.decode`, so multiple upkeeps can be registered on the same contract and easily differentiated by the contract."
        },
        "returns": {
          "performData": "bytes that the keeper should call performUpkeep with, if upkeep is needed. If you would like to encode data to decode later, try `abi.encode`.",
          "upkeepNeeded": "boolean to indicate whether the keeper should call performUpkeep or not."
        }
      },
      "constructor": {
        "custom:oz-upgrades-unsafe-allow": "constructor"
      },
      "owner()": {
        "details": "Returns the address of the current owner."
      },
      "paused()": {
        "details": "Returns true if the contract is paused, and false otherwise."
      },
      "performUpkeep(bytes)": {
        "details": "The input to this method should not be trusted, and the caller of the method should not even be restricted to any single registry. Anyone should be able call it, and the input should be validated, there is no guarantee that the data passed in is the performData returned from checkUpkeep. This could happen due to malicious keepers, racing keepers, or simply a state change while the performUpkeep transaction is waiting for confirmation. Always validate the data passed in.",
        "params": {
          "performData": "is the data which was passed back from the checkData simulation. If it is encoded, it can easily be decoded into other types by calling `abi.decode`. This data should not be trusted, and should be validated against the contract's current state."
        }
      },
      "renounceOwnership()": {
        "details": "Leaves the contract without owner. It will not be possible to call `onlyOwner` functions anymore. Can only be called by the current owner. NOTE: Renouncing ownership will leave the contract without an owner, thereby removing any functionality that is only available to the owner."
      },
      "transferOwnership(address)": {
        "details": "Transfers ownership of the contract to a new account (`newOwner`). Can only be called by the current owner."
      }
    },
    "stateVariables": {
      "assetsMerkleRoot": {
        "details": "merkle root of allowed assets definitions. "
      },
      "blacklistedAssetspecs": {
        "details": "map of assetSpecs that are deemed unsafe and any active DCA to them will be canceled "
      },
      "caskDCA": {
        "details": "Pointer to CaskDCA contract "
      },
      "caskVault": {
        "details": "vault to use for DCA funding. "
      },
      "dcaFeeBps": {
        "details": "DCA transaction fee in basis points. "
      },
      "dcaFeeMin": {
        "details": "Minimum DCA transaction fee. "
      },
      "dcaMinValue": {
        "details": "Smallest allowable DCA amount. "
      },
      "feeDistributor": {
        "details": "Address to receive DCA fees. "
      },
      "maxPriceFeedAge": {
        "details": "revert if price feed age is older than this number of seconds. set to 0 to disable check. "
      },
      "maxSkips": {
        "details": "max number of failed DCA purchases before DCA is permanently canceled. "
      }
    },
    "version": 1
  },
  "userdoc": {
    "kind": "user",
    "methods": {
      "checkUpkeep(bytes)": {
        "notice": "method that is simulated by the keepers to see if any work actually needs to be performed. This method does does not actually need to be executable, and since it is only ever simulated it can consume lots of gas."
      },
      "performUpkeep(bytes)": {
        "notice": "method that is actually executed by the keepers, via the registry. The data returned by the checkUpkeep simulation will be passed into this method to actually be executed."
      }
    },
    "version": 1
  },
  "storageLayout": {
    "storage": [
      {
        "astId": 327,
        "contract": "contracts/dca/CaskDCAManager.sol:CaskDCAManager",
        "label": "_initialized",
        "offset": 0,
        "slot": "0",
        "type": "t_bool"
      },
      {
        "astId": 330,
        "contract": "contracts/dca/CaskDCAManager.sol:CaskDCAManager",
        "label": "_initializing",
        "offset": 1,
        "slot": "0",
        "type": "t_bool"
      },
      {
        "astId": 2551,
        "contract": "contracts/dca/CaskDCAManager.sol:CaskDCAManager",
        "label": "__gap",
        "offset": 0,
        "slot": "1",
        "type": "t_array(t_uint256)50_storage"
      },
      {
        "astId": 205,
        "contract": "contracts/dca/CaskDCAManager.sol:CaskDCAManager",
        "label": "_owner",
        "offset": 0,
        "slot": "51",
        "type": "t_address"
      },
      {
        "astId": 319,
        "contract": "contracts/dca/CaskDCAManager.sol:CaskDCAManager",
        "label": "__gap",
        "offset": 0,
        "slot": "52",
        "type": "t_array(t_uint256)49_storage"
      },
      {
        "astId": 415,
        "contract": "contracts/dca/CaskDCAManager.sol:CaskDCAManager",
        "label": "_paused",
        "offset": 0,
        "slot": "101",
        "type": "t_bool"
      },
      {
        "astId": 506,
        "contract": "contracts/dca/CaskDCAManager.sol:CaskDCAManager",
        "label": "__gap",
        "offset": 0,
        "slot": "102",
        "type": "t_array(t_uint256)49_storage"
      },
      {
        "astId": 521,
        "contract": "contracts/dca/CaskDCAManager.sol:CaskDCAManager",
        "label": "_status",
        "offset": 0,
        "slot": "151",
        "type": "t_uint256"
      },
      {
        "astId": 564,
        "contract": "contracts/dca/CaskDCAManager.sol:CaskDCAManager",
        "label": "__gap",
        "offset": 0,
        "slot": "152",
        "type": "t_array(t_uint256)49_storage"
      },
      {
        "astId": 13862,
        "contract": "contracts/dca/CaskDCAManager.sol:CaskDCAManager",
        "label": "queueBucketSize",
        "offset": 0,
        "slot": "201",
        "type": "t_uint32"
      },
      {
        "astId": 13865,
        "contract": "contracts/dca/CaskDCAManager.sol:CaskDCAManager",
        "label": "maxQueueAge",
        "offset": 4,
        "slot": "201",
        "type": "t_uint32"
      },
      {
        "astId": 13873,
        "contract": "contracts/dca/CaskDCAManager.sol:CaskDCAManager",
        "label": "queue",
        "offset": 0,
        "slot": "202",
        "type": "t_mapping(t_uint8,t_mapping(t_uint32,t_array(t_bytes32)dyn_storage))"
      },
      {
        "astId": 13877,
        "contract": "contracts/dca/CaskDCAManager.sol:CaskDCAManager",
        "label": "queueBucket",
        "offset": 0,
        "slot": "203",
        "type": "t_mapping(t_uint8,t_uint32)"
      },
      {
        "astId": 10998,
        "contract": "contracts/dca/CaskDCAManager.sol:CaskDCAManager",
        "label": "caskDCA",
        "offset": 0,
        "slot": "204",
        "type": "t_contract(ICaskDCA)12536"
      },
      {
        "astId": 11002,
        "contract": "contracts/dca/CaskDCAManager.sol:CaskDCAManager",
        "label": "caskVault",
        "offset": 0,
        "slot": "205",
        "type": "t_contract(ICaskVault)13804"
      },
      {
        "astId": 11005,
        "contract": "contracts/dca/CaskDCAManager.sol:CaskDCAManager",
        "label": "assetsMerkleRoot",
        "offset": 0,
        "slot": "206",
        "type": "t_bytes32"
      },
      {
        "astId": 11010,
        "contract": "contracts/dca/CaskDCAManager.sol:CaskDCAManager",
        "label": "blacklistedAssetspecs",
        "offset": 0,
        "slot": "207",
        "type": "t_mapping(t_bytes32,t_bool)"
      },
      {
        "astId": 11013,
        "contract": "contracts/dca/CaskDCAManager.sol:CaskDCAManager",
        "label": "maxSkips",
        "offset": 0,
        "slot": "208",
        "type": "t_uint256"
      },
      {
        "astId": 11016,
        "contract": "contracts/dca/CaskDCAManager.sol:CaskDCAManager",
        "label": "dcaFeeBps",
        "offset": 0,
        "slot": "209",
        "type": "t_uint256"
      },
      {
        "astId": 11019,
        "contract": "contracts/dca/CaskDCAManager.sol:CaskDCAManager",
        "label": "dcaFeeMin",
        "offset": 0,
        "slot": "210",
        "type": "t_uint256"
      },
      {
        "astId": 11022,
        "contract": "contracts/dca/CaskDCAManager.sol:CaskDCAManager",
        "label": "dcaMinValue",
        "offset": 0,
        "slot": "211",
        "type": "t_uint256"
      },
      {
        "astId": 11025,
        "contract": "contracts/dca/CaskDCAManager.sol:CaskDCAManager",
        "label": "maxPriceFeedAge",
        "offset": 0,
        "slot": "212",
        "type": "t_uint256"
      },
      {
        "astId": 11028,
        "contract": "contracts/dca/CaskDCAManager.sol:CaskDCAManager",
        "label": "feeDistributor",
        "offset": 0,
        "slot": "213",
        "type": "t_address"
      }
    ],
    "types": {
      "t_address": {
        "encoding": "inplace",
        "label": "address",
        "numberOfBytes": "20"
      },
      "t_array(t_bytes32)dyn_storage": {
        "base": "t_bytes32",
        "encoding": "dynamic_array",
        "label": "bytes32[]",
        "numberOfBytes": "32"
      },
      "t_array(t_uint256)49_storage": {
        "base": "t_uint256",
        "encoding": "inplace",
        "label": "uint256[49]",
        "numberOfBytes": "1568"
      },
      "t_array(t_uint256)50_storage": {
        "base": "t_uint256",
        "encoding": "inplace",
        "label": "uint256[50]",
        "numberOfBytes": "1600"
      },
      "t_bool": {
        "encoding": "inplace",
        "label": "bool",
        "numberOfBytes": "1"
      },
      "t_bytes32": {
        "encoding": "inplace",
        "label": "bytes32",
        "numberOfBytes": "32"
      },
      "t_contract(ICaskDCA)12536": {
        "encoding": "inplace",
        "label": "contract ICaskDCA",
        "numberOfBytes": "20"
      },
      "t_contract(ICaskVault)13804": {
        "encoding": "inplace",
        "label": "contract ICaskVault",
        "numberOfBytes": "20"
      },
      "t_mapping(t_bytes32,t_bool)": {
        "encoding": "mapping",
        "key": "t_bytes32",
        "label": "mapping(bytes32 => bool)",
        "numberOfBytes": "32",
        "value": "t_bool"
      },
      "t_mapping(t_uint32,t_array(t_bytes32)dyn_storage)": {
        "encoding": "mapping",
        "key": "t_uint32",
        "label": "mapping(uint32 => bytes32[])",
        "numberOfBytes": "32",
        "value": "t_array(t_bytes32)dyn_storage"
      },
      "t_mapping(t_uint8,t_mapping(t_uint32,t_array(t_bytes32)dyn_storage))": {
        "encoding": "mapping",
        "key": "t_uint8",
        "label": "mapping(uint8 => mapping(uint32 => bytes32[]))",
        "numberOfBytes": "32",
        "value": "t_mapping(t_uint32,t_array(t_bytes32)dyn_storage)"
      },
      "t_mapping(t_uint8,t_uint32)": {
        "encoding": "mapping",
        "key": "t_uint8",
        "label": "mapping(uint8 => uint32)",
        "numberOfBytes": "32",
        "value": "t_uint32"
      },
      "t_uint256": {
        "encoding": "inplace",
        "label": "uint256",
        "numberOfBytes": "32"
      },
      "t_uint32": {
        "encoding": "inplace",
        "label": "uint32",
        "numberOfBytes": "4"
      },
      "t_uint8": {
        "encoding": "inplace",
        "label": "uint8",
        "numberOfBytes": "1"
      }
    }
  }
}