{
  "address": "0x28bc3F4C21504c4686f88238cF424c353e3E628E",
  "abi": [
    {
      "inputs": [],
      "stateMutability": "nonpayable",
      "type": "constructor"
    },
    {
      "anonymous": false,
      "inputs": [
        {
          "indexed": true,
          "internalType": "address",
          "name": "previousOwner",
          "type": "address"
        },
        {
          "indexed": true,
          "internalType": "address",
          "name": "newOwner",
          "type": "address"
        }
      ],
      "name": "OwnershipTransferred",
      "type": "event"
    },
    {
      "anonymous": false,
      "inputs": [
        {
          "indexed": false,
          "internalType": "address",
          "name": "account",
          "type": "address"
        }
      ],
      "name": "Paused",
      "type": "event"
    },
    {
      "anonymous": false,
      "inputs": [
        {
          "indexed": false,
          "internalType": "uint256",
          "name": "limit",
          "type": "uint256"
        },
        {
          "indexed": false,
          "internalType": "uint256",
          "name": "jobsProcessed",
          "type": "uint256"
        },
        {
          "indexed": false,
          "internalType": "uint256",
          "name": "depth",
          "type": "uint256"
        },
        {
          "indexed": false,
          "internalType": "uint8",
          "name": "queueId",
          "type": "uint8"
        },
        {
          "indexed": false,
          "internalType": "uint256",
          "name": "queueRemaining",
          "type": "uint256"
        },
        {
          "indexed": false,
          "internalType": "uint32",
          "name": "currentBucket",
          "type": "uint32"
        }
      ],
      "name": "QueueRunReport",
      "type": "event"
    },
    {
      "anonymous": false,
      "inputs": [
        {
          "indexed": false,
          "internalType": "address",
          "name": "account",
          "type": "address"
        }
      ],
      "name": "Unpaused",
      "type": "event"
    },
    {
      "anonymous": false,
      "inputs": [
        {
          "indexed": false,
          "internalType": "uint8",
          "name": "queueId",
          "type": "uint8"
        },
        {
          "indexed": false,
          "internalType": "bytes32",
          "name": "workUnit",
          "type": "bytes32"
        }
      ],
      "name": "WorkUnitProcessed",
      "type": "event"
    },
    {
      "anonymous": false,
      "inputs": [
        {
          "indexed": false,
          "internalType": "uint8",
          "name": "queueId",
          "type": "uint8"
        },
        {
          "indexed": false,
          "internalType": "bytes32",
          "name": "workUnit",
          "type": "bytes32"
        },
        {
          "indexed": false,
          "internalType": "uint32",
          "name": "processAt",
          "type": "uint32"
        }
      ],
      "name": "WorkUnitQueued",
      "type": "event"
    },
    {
      "inputs": [],
      "name": "caskP2P",
      "outputs": [
        {
          "internalType": "contract ICaskP2P",
          "name": "",
          "type": "address"
        }
      ],
      "stateMutability": "view",
      "type": "function"
    },
    {
      "inputs": [],
      "name": "caskVault",
      "outputs": [
        {
          "internalType": "contract ICaskVault",
          "name": "",
          "type": "address"
        }
      ],
      "stateMutability": "view",
      "type": "function"
    },
    {
      "inputs": [
        {
          "internalType": "bytes",
          "name": "checkData",
          "type": "bytes"
        }
      ],
      "name": "checkUpkeep",
      "outputs": [
        {
          "internalType": "bool",
          "name": "upkeepNeeded",
          "type": "bool"
        },
        {
          "internalType": "bytes",
          "name": "performData",
          "type": "bytes"
        }
      ],
      "stateMutability": "view",
      "type": "function"
    },
    {
      "inputs": [
        {
          "internalType": "address",
          "name": "_caskP2P",
          "type": "address"
        },
        {
          "internalType": "address",
          "name": "_caskVault",
          "type": "address"
        }
      ],
      "name": "initialize",
      "outputs": [],
      "stateMutability": "nonpayable",
      "type": "function"
    },
    {
      "inputs": [],
      "name": "maxQueueAge",
      "outputs": [
        {
          "internalType": "uint32",
          "name": "",
          "type": "uint32"
        }
      ],
      "stateMutability": "view",
      "type": "function"
    },
    {
      "inputs": [],
      "name": "maxSkips",
      "outputs": [
        {
          "internalType": "uint256",
          "name": "",
          "type": "uint256"
        }
      ],
      "stateMutability": "view",
      "type": "function"
    },
    {
      "inputs": [],
      "name": "owner",
      "outputs": [
        {
          "internalType": "address",
          "name": "",
          "type": "address"
        }
      ],
      "stateMutability": "view",
      "type": "function"
    },
    {
      "inputs": [],
      "name": "paused",
      "outputs": [
        {
          "internalType": "bool",
          "name": "",
          "type": "bool"
        }
      ],
      "stateMutability": "view",
      "type": "function"
    },
    {
      "inputs": [],
      "name": "paymentFee",
      "outputs": [
        {
          "internalType": "uint256",
          "name": "",
          "type": "uint256"
        }
      ],
      "stateMutability": "view",
      "type": "function"
    },
    {
      "inputs": [
        {
          "internalType": "bytes",
          "name": "performData",
          "type": "bytes"
        }
      ],
      "name": "performUpkeep",
      "outputs": [],
      "stateMutability": "nonpayable",
      "type": "function"
    },
    {
      "inputs": [],
      "name": "queueBucketSize",
      "outputs": [
        {
          "internalType": "uint32",
          "name": "",
          "type": "uint32"
        }
      ],
      "stateMutability": "view",
      "type": "function"
    },
    {
      "inputs": [
        {
          "internalType": "uint8",
          "name": "_queueId",
          "type": "uint8"
        },
        {
          "internalType": "uint32",
          "name": "_bucket",
          "type": "uint32"
        },
        {
          "internalType": "uint256",
          "name": "_idx",
          "type": "uint256"
        }
      ],
      "name": "queueItem",
      "outputs": [
        {
          "internalType": "bytes32",
          "name": "",
          "type": "bytes32"
        }
      ],
      "stateMutability": "view",
      "type": "function"
    },
    {
      "inputs": [
        {
          "internalType": "uint8",
          "name": "_queueId",
          "type": "uint8"
        }
      ],
      "name": "queuePosition",
      "outputs": [
        {
          "internalType": "uint32",
          "name": "",
          "type": "uint32"
        }
      ],
      "stateMutability": "view",
      "type": "function"
    },
    {
      "inputs": [
        {
          "internalType": "uint8",
          "name": "_queueId",
          "type": "uint8"
        },
        {
          "internalType": "uint32",
          "name": "_bucket",
          "type": "uint32"
        }
      ],
      "name": "queueSize",
      "outputs": [
        {
          "internalType": "uint256",
          "name": "",
          "type": "uint256"
        }
      ],
      "stateMutability": "view",
      "type": "function"
    },
    {
      "inputs": [
        {
          "internalType": "address",
          "name": "_asset",
          "type": "address"
        },
        {
          "internalType": "address",
          "name": "_dest",
          "type": "address"
        }
      ],
      "name": "recoverFunds",
      "outputs": [],
      "stateMutability": "nonpayable",
      "type": "function"
    },
    {
      "inputs": [
        {
          "internalType": "bytes32",
          "name": "_p2pId",
          "type": "bytes32"
        }
      ],
      "name": "registerP2P",
      "outputs": [],
      "stateMutability": "nonpayable",
      "type": "function"
    },
    {
      "inputs": [],
      "name": "renounceOwnership",
      "outputs": [],
      "stateMutability": "nonpayable",
      "type": "function"
    },
    {
      "inputs": [
        {
          "internalType": "uint32",
          "name": "_maxQueueAge",
          "type": "uint32"
        }
      ],
      "name": "setMaxQueueAge",
      "outputs": [],
      "stateMutability": "nonpayable",
      "type": "function"
    },
    {
      "inputs": [
        {
          "internalType": "uint256",
          "name": "_maxSkips",
          "type": "uint256"
        },
        {
          "internalType": "uint256",
          "name": "_paymentFee",
          "type": "uint256"
        },
        {
          "internalType": "uint32",
          "name": "_queueBucketSize",
          "type": "uint32"
        }
      ],
      "name": "setParameters",
      "outputs": [],
      "stateMutability": "nonpayable",
      "type": "function"
    },
    {
      "inputs": [
        {
          "internalType": "uint32",
          "name": "_queueBucketSize",
          "type": "uint32"
        }
      ],
      "name": "setQueueBucketSize",
      "outputs": [],
      "stateMutability": "nonpayable",
      "type": "function"
    },
    {
      "inputs": [
        {
          "internalType": "uint8",
          "name": "_queueId",
          "type": "uint8"
        },
        {
          "internalType": "uint32",
          "name": "_timestamp",
          "type": "uint32"
        }
      ],
      "name": "setQueuePosition",
      "outputs": [],
      "stateMutability": "nonpayable",
      "type": "function"
    },
    {
      "inputs": [
        {
          "internalType": "address",
          "name": "newOwner",
          "type": "address"
        }
      ],
      "name": "transferOwnership",
      "outputs": [],
      "stateMutability": "nonpayable",
      "type": "function"
    }
  ],
  "transactionHash": "0x60a3c8794729f4425d2abb2b396a04d59bf17e12b1b21182149dc5789fd81bf0",
  "args": [],
  "numDeployments": 2,
  "solcInputHash": "0650004187a887ad73e2f543533a876d",
  "bytecode": "0x60806040523480156200001157600080fd5b50600054610100900460ff166200002f5760005460ff161562000039565b62000039620000de565b620000a15760405162461bcd60e51b815260206004820152602e60248201527f496e697469616c697a61626c653a20636f6e747261637420697320616c72656160448201526d191e481a5b9a5d1a585b1a5e995960921b606482015260840160405180910390fd5b600054610100900460ff16158015620000c4576000805461ffff19166101011790555b8015620000d7576000805461ff00191690555b5062000102565b6000620000f630620000fc60201b62000dc21760201c565b15905090565b3b151590565b611a4d80620001126000396000f3fe608060405234801561001057600080fd5b50600436106101425760003560e01c8063729d8107116100b8578063aa878f761161007c578063aa878f76146102c2578063b12ed58a146102d5578063c5064653146102e8578063c6f8806c146102f1578063cd48a61414610309578063f2fde38b1461031c57600080fd5b8063729d81071461025457806374cd40a3146102675780638bddd2e41461027a5780638da5cb5b1461028a578063a47755d1146102af57600080fd5b80634585e33b1161010a5780634585e33b146101e6578063485cc955146101f95780635c975abb1461020c5780636e04ff0d146102225780636ef06a0814610243578063715018a61461024c57600080fd5b80630caae41d1461014757806314fad7071461015c5780631c39033c1461018257806324ae6a27146101c057806335937ff4146101d3575b600080fd5b61015a610155366004611459565b61032f565b005b61016f61016a366004611490565b61039a565b6040519081526020015b60405180910390f35b6101ab6101903660046114cf565b60ff16600090815260cb602052604090205463ffffffff1690565b60405163ffffffff9091168152602001610179565b61015a6101ce366004611506565b6103e3565b61015a6101e1366004611534565b610511565b61015a6101f436600461154d565b6105c2565b61015a610207366004611506565b610962565b60655460ff166040519015158152602001610179565b61023561023036600461154d565b610a61565b6040516101799291906115bf565b61016f60cf5481565b61015a610be0565b61015a61026236600461161e565b610c16565b61015a61027536600461163b565b610c68565b60c9546101ab9063ffffffff1681565b6033546001600160a01b03165b6040516001600160a01b039091168152602001610179565b60cd54610297906001600160a01b031681565b61016f6102d0366004611459565b610cb6565b60cc54610297906001600160a01b031681565b61016f60ce5481565b60c9546101ab90640100000000900463ffffffff1681565b61015a61031736600461161e565b610ce1565b61015a61032a366004611674565b610d27565b6033546001600160a01b031633146103625760405162461bcd60e51b815260040161035990611691565b60405180910390fd5b61036b81610dc8565b60ff92909216600090815260cb60205260409020805463ffffffff191663ffffffff9093169290921790915550565b60ff8316600090815260ca6020908152604080832063ffffffff8616845290915281208054839081106103cf576103cf6116c6565b906000526020600020015490509392505050565b6033546001600160a01b0316331461040d5760405162461bcd60e51b815260040161035990611691565b6040516370a0823160e01b81523060048201526001600160a01b0383169063a9059cbb90839083906370a082319060240160206040518083038186803b15801561045657600080fd5b505afa15801561046a573d6000803e3d6000fd5b505050506040513d601f19601f8201168201806040525081019061048e91906116dc565b6040516001600160e01b031960e085901b1681526001600160a01b0390921660048301526024820152604401602060405180830381600087803b1580156104d457600080fd5b505af11580156104e8573d6000803e3d6000fd5b505050506040513d601f19601f8201168201806040525081019061050c91906116f5565b505050565b600260975414156105645760405162461bcd60e51b815260206004820152601f60248201527f5265656e7472616e637947756172643a207265656e7472616e742063616c6c006044820152606401610359565b600260975560655460ff16156105af5760405162461bcd60e51b815260206004820152601060248201526f14185d5cd8589b194e881c185d5cd95960821b6044820152606401610359565b6105ba600182610df2565b506001609755565b60655460ff16156106085760405162461bcd60e51b815260206004820152601060248201526f14185d5cd8589b194e881c185d5cd95960821b6044820152606401610359565b6002609754141561065b5760405162461bcd60e51b815260206004820152601f60248201527f5265656e7472616e637947756172643a207265656e7472616e742063616c6c006044820152606401610359565b60026097556000808061067084860186611717565b92509250925060006106806110ba565b9050600080610690866005611762565b60ff8516600090815260cb602052604090205490915063ffffffff166106d65760ff8416600090815260cb60205260409020805463ffffffff191663ffffffff85161790555b85821080156106e55750600081115b801561070c575060ff8416600090815260cb602052604090205463ffffffff808516911611155b156108cb5760ff8416600090815260ca6020908152604080832060cb83528184205463ffffffff168452909152902054801561083b5760ff8516600090815260ca6020908152604080832060cb83528184205463ffffffff1684529091528120610777600184611781565b81548110610787576107876116c6565b600091825260208083209091015460ff8916835260ca8252604080842060cb84528185205463ffffffff1685529092529120805491925090806107cc576107cc611798565b600190038181906000526020600020016000905590556107ec8682610df2565b6040805160ff88168152602081018390527f58c7ae721fd25aaf84e68db9ce9ac6fed4f08438a370a4299d19f8c1425c499e910160405180910390a16108336001856117ae565b9350506108c5565b60ff8516600090815260cb602052604090205463ffffffff808616911610156108bf5760c95460ff8616600090815260cb60205260408120805463ffffffff9384169391929161088d918591166117c6565b92506101000a81548163ffffffff021916908363ffffffff1602179055506001826108b89190611781565b91506108c5565b506108cb565b506106d6565b60ff8416600081815260ca6020908152604080832060cb8084528285205463ffffffff168086529184528285205494869052835281518b81529283018790528282018a90526060830194909452608082019290925260a0810192909252517fd69140f88b9a25350749bb371882f4479133fc8b65602aac60f6c1b3598f08329181900360c00190a150506001609755505050505050565b600054610100900460ff1661097d5760005460ff1615610981565b303b155b6109e45760405162461bcd60e51b815260206004820152602e60248201527f496e697469616c697a61626c653a20636f6e747261637420697320616c72656160448201526d191e481a5b9a5d1a585b1a5e995960921b6064820152608401610359565b600054610100900460ff16158015610a06576000805461ffff19166101011790555b60cc80546001600160a01b038086166001600160a01b03199283161790925560cd805492851692909116919091179055600060ce81905560cf55610a4b610e106110e2565b801561050c576000805461ff0019169055505050565b60006060818080610a7486880188611717565b9250925092506000610a846110ba565b60ff8316600090815260cb602052604081205490975090915063ffffffff1680610aab5750805b8063ffffffff168263ffffffff1610158015610ae6575060c954640100000000900463ffffffff16610add82846117ee565b63ffffffff1610155b15610af45760019650610b84565b8163ffffffff168163ffffffff1611610b845760ff8316600090815260ca6020908152604080832063ffffffff8516845290915290205415801590610b5c575060ff8316600090815260ca6020908152604080832063ffffffff851684529091529020548411155b15610b6a5760019650610b84565b60c954610b7d9063ffffffff16826117c6565b9050610af4565b60ff8316600081815260ca6020908152604080832063ffffffff86168452825291829020548251918201899052918101919091526060810191909152608001604051602081830303815290604052955050505050509250929050565b6033546001600160a01b03163314610c0a5760405162461bcd60e51b815260040161035990611691565b610c14600061112a565b565b6033546001600160a01b03163314610c405760405162461bcd60e51b815260040161035990611691565b60c9805463ffffffff9092166401000000000267ffffffff0000000019909216919091179055565b6033546001600160a01b03163314610c925760405162461bcd60e51b815260040161035990611691565b60ce9290925560cf5560c9805463ffffffff191663ffffffff909216919091179055565b60ff8216600090815260ca6020908152604080832063ffffffff851684529091529020545b92915050565b6033546001600160a01b03163314610d0b5760405162461bcd60e51b815260040161035990611691565b60c9805463ffffffff191663ffffffff92909216919091179055565b6033546001600160a01b03163314610d515760405162461bcd60e51b815260040161035990611691565b6001600160a01b038116610db65760405162461bcd60e51b815260206004820152602660248201527f4f776e61626c653a206e6577206f776e657220697320746865207a65726f206160448201526564647265737360d01b6064820152608401610359565b610dbf8161112a565b50565b3b151590565b60c95460009063ffffffff16610dde8184611813565b610de890846117ee565b610cdb91906117c6565b60cc5460405163a0b029a960e01b8152600481018390526000916001600160a01b03169063a0b029a9906024016101606040518083038186803b158015610e3857600080fd5b505afa158015610e4c573d6000803e3d6000fd5b505050506040513d601f19601f82011682018060405250810190610e7091906118a1565b905060018161014001516004811115610e8b57610e8b611958565b14610e9557505050565b610120810151429063ffffffff80831691161115610ecb57610ec58484610ec0856101200151610dc8565b61117c565b50505050565b6040820151606083015115801590610ef5575082608001518360600151610ef29190611781565b81115b15610f115782608001518360600151610f0e9190611781565b90505b610f1b838261120c565b15610fe05760608301511580610f4357508260600151818460800151610f4191906117ae565b105b15610f6a57610f6a8585610ec08660e00151876101200151610f6591906117c6565b610dc8565b60cc5460cf5460405163ded6da0160e01b8152600481018790526024810184905260448101919091526001600160a01b039091169063ded6da01906064015b600060405180830381600087803b158015610fc357600080fd5b505af1158015610fd7573d6000803e3d6000fd5b505050506110b3565b600060ce54118015610ff8575060ce548360c0015110155b156110305760cc54604051635ba581cd60e01b81526001600160a01b0390911690635ba581cd90610fa990879060039060040161196e565b61104d8585610ec08660e00151876101200151610f6591906117c6565b60cc54604051635ba581cd60e01b81526001600160a01b0390911690635ba581cd9061108090879060029060040161196e565b600060405180830381600087803b15801561109a57600080fd5b505af11580156110ae573d6000803e3d6000fd5b505050505b5050505050565b60c95460009042906110d29063ffffffff1682611813565b6110dc90826117ee565b91505090565b600054610100900460ff166111095760405162461bcd60e51b8152600401610359906119a0565b6111116112cc565b611119611303565b61112161133a565b610dbf81611361565b603380546001600160a01b038381166001600160a01b0319831681179093556040519116919082907f8be0079c531659141344cd1fd0a4f28419497f9722a3daafe3b4186f6b6457e090600090a35050565b60ff8316600090815260ca602052604081209061119883610dc8565b63ffffffff90811682526020808301939093526040918201600090812080546001810182559082529084902001859055815160ff87168152928301859052831682820152517f67778e52b18dcf574ab071142a886fce91a8ce5e60e176229fdadb8c063caaed9181900360600190a1505050565b60cd548251602084015160cf5460405163fcd6a25b60e01b81526001600160a01b0393841660048201529183166024830152604482018590526064820152600092919091169063fcd6a25b90608401600060405180830381600087803b15801561127557600080fd5b505af1925050508015611286575060015b6112c4573d8080156112b4576040519150601f19603f3d011682016040523d82523d6000602084013e6112b9565b606091505b506000915050610cdb565b506001610cdb565b600054610100900460ff166112f35760405162461bcd60e51b8152600401610359906119a0565b6112fb61133a565b610c146113ce565b600054610100900460ff1661132a5760405162461bcd60e51b8152600401610359906119a0565b61133261133a565b610c146113fe565b600054610100900460ff16610c145760405162461bcd60e51b8152600401610359906119a0565b600054610100900460ff166113885760405162461bcd60e51b8152600401610359906119a0565b60c9805463ffffffff191663ffffffff83169081179091556113ab9060146119eb565b60c960046101000a81548163ffffffff021916908363ffffffff16021790555050565b600054610100900460ff166113f55760405162461bcd60e51b8152600401610359906119a0565b610c143361112a565b600054610100900460ff166114255760405162461bcd60e51b8152600401610359906119a0565b6065805460ff19169055565b803560ff8116811461144257600080fd5b919050565b63ffffffff81168114610dbf57600080fd5b6000806040838503121561146c57600080fd5b61147583611431565b9150602083013561148581611447565b809150509250929050565b6000806000606084860312156114a557600080fd5b6114ae84611431565b925060208401356114be81611447565b929592945050506040919091013590565b6000602082840312156114e157600080fd5b6114ea82611431565b9392505050565b6001600160a01b0381168114610dbf57600080fd5b6000806040838503121561151957600080fd5b8235611524816114f1565b91506020830135611485816114f1565b60006020828403121561154657600080fd5b5035919050565b6000806020838503121561156057600080fd5b823567ffffffffffffffff8082111561157857600080fd5b818501915085601f83011261158c57600080fd5b81358181111561159b57600080fd5b8660208285010111156115ad57600080fd5b60209290920196919550909350505050565b821515815260006020604081840152835180604085015260005b818110156115f5578581018301518582016060015282016115d9565b81811115611607576000606083870101525b50601f01601f191692909201606001949350505050565b60006020828403121561163057600080fd5b81356114ea81611447565b60008060006060848603121561165057600080fd5b8335925060208401359150604084013561166981611447565b809150509250925092565b60006020828403121561168657600080fd5b81356114ea816114f1565b6020808252818101527f4f776e61626c653a2063616c6c6572206973206e6f7420746865206f776e6572604082015260600190565b634e487b7160e01b600052603260045260246000fd5b6000602082840312156116ee57600080fd5b5051919050565b60006020828403121561170757600080fd5b815180151581146114ea57600080fd5b60008060006060848603121561172c57600080fd5b833592506020840135915061174360408501611431565b90509250925092565b634e487b7160e01b600052601160045260246000fd5b600081600019048311821515161561177c5761177c61174c565b500290565b6000828210156117935761179361174c565b500390565b634e487b7160e01b600052603160045260246000fd5b600082198211156117c1576117c161174c565b500190565b600063ffffffff8083168185168083038211156117e5576117e561174c565b01949350505050565b600063ffffffff8381169083168181101561180b5761180b61174c565b039392505050565b600063ffffffff8084168061183857634e487b7160e01b600052601260045260246000fd5b92169190910692915050565b604051610160810167ffffffffffffffff8111828210171561187657634e487b7160e01b600052604160045260246000fd5b60405290565b8051611442816114f1565b805161144281611447565b80516005811061144257600080fd5b600061016082840312156118b457600080fd5b6118bc611844565b6118c58361187c565b81526118d36020840161187c565b602082015260408301516040820152606083015160608201526080830151608082015260a083015160a082015260c083015160c082015261191660e08401611887565b60e0820152610100611929818501611887565b9082015261012061193b848201611887565b9082015261014061194d848201611892565b908201529392505050565b634e487b7160e01b600052602160045260246000fd5b828152604081016004831061199357634e487b7160e01b600052602160045260246000fd5b8260208301529392505050565b6020808252602b908201527f496e697469616c697a61626c653a20636f6e7472616374206973206e6f74206960408201526a6e697469616c697a696e6760a81b606082015260800190565b600063ffffffff80831681851681830481118215151615611a0e57611a0e61174c565b0294935050505056fea2646970667358221220f37fd3892e5a581f1068258cf8d97a3bf7dab23d4e064e007a7fa92c1a98188f64736f6c63430008090033",
  "devdoc": {
    "kind": "dev",
    "methods": {
      "checkUpkeep(bytes)": {
        "details": "To ensure that it is never called, you may want to add the cannotExecute modifier from KeeperBase to your implementation of this method.",
        "params": {
          "checkData": "specified in the upkeep registration so it is always the same for a registered upkeep. This can easilly be broken down into specific arguments using `abi.decode`, so multiple upkeeps can be registered on the same contract and easily differentiated by the contract."
        },
        "returns": {
          "performData": "bytes that the keeper should call performUpkeep with, if upkeep is needed. If you would like to encode data to decode later, try `abi.encode`.",
          "upkeepNeeded": "boolean to indicate whether the keeper should call performUpkeep or not."
        }
      },
      "constructor": {
        "custom:oz-upgrades-unsafe-allow": "constructor"
      },
      "owner()": {
        "details": "Returns the address of the current owner."
      },
      "paused()": {
        "details": "Returns true if the contract is paused, and false otherwise."
      },
      "performUpkeep(bytes)": {
        "details": "The input to this method should not be trusted, and the caller of the method should not even be restricted to any single registry. Anyone should be able call it, and the input should be validated, there is no guarantee that the data passed in is the performData returned from checkUpkeep. This could happen due to malicious keepers, racing keepers, or simply a state change while the performUpkeep transaction is waiting for confirmation. Always validate the data passed in.",
        "params": {
          "performData": "is the data which was passed back from the checkData simulation. If it is encoded, it can easily be decoded into other types by calling `abi.decode`. This data should not be trusted, and should be validated against the contract's current state."
        }
      },
      "renounceOwnership()": {
        "details": "Leaves the contract without owner. It will not be possible to call `onlyOwner` functions anymore. Can only be called by the current owner. NOTE: Renouncing ownership will leave the contract without an owner, thereby removing any functionality that is only available to the owner."
      },
      "transferOwnership(address)": {
        "details": "Transfers ownership of the contract to a new account (`newOwner`). Can only be called by the current owner."
      }
    },
    "stateVariables": {
      "caskP2P": {
        "details": "Pointer to CaskP2P contract "
      },
      "caskVault": {
        "details": "vault to use for P2P funding. "
      },
      "maxSkips": {
        "details": "max number of failed P2P purchases before P2P is permanently canceled. "
      },
      "paymentFee": {
        "details": "P2P transaction fee. "
      }
    },
    "version": 1
  },
  "userdoc": {
    "kind": "user",
    "methods": {
      "checkUpkeep(bytes)": {
        "notice": "method that is simulated by the keepers to see if any work actually needs to be performed. This method does does not actually need to be executable, and since it is only ever simulated it can consume lots of gas."
      },
      "performUpkeep(bytes)": {
        "notice": "method that is actually executed by the keepers, via the registry. The data returned by the checkUpkeep simulation will be passed into this method to actually be executed."
      }
    },
    "version": 1
  },
  "storageLayout": {
    "storage": [
      {
        "astId": 327,
        "contract": "contracts/p2p/CaskP2PManager.sol:CaskP2PManager",
        "label": "_initialized",
        "offset": 0,
        "slot": "0",
        "type": "t_bool"
      },
      {
        "astId": 330,
        "contract": "contracts/p2p/CaskP2PManager.sol:CaskP2PManager",
        "label": "_initializing",
        "offset": 1,
        "slot": "0",
        "type": "t_bool"
      },
      {
        "astId": 2551,
        "contract": "contracts/p2p/CaskP2PManager.sol:CaskP2PManager",
        "label": "__gap",
        "offset": 0,
        "slot": "1",
        "type": "t_array(t_uint256)50_storage"
      },
      {
        "astId": 205,
        "contract": "contracts/p2p/CaskP2PManager.sol:CaskP2PManager",
        "label": "_owner",
        "offset": 0,
        "slot": "51",
        "type": "t_address"
      },
      {
        "astId": 319,
        "contract": "contracts/p2p/CaskP2PManager.sol:CaskP2PManager",
        "label": "__gap",
        "offset": 0,
        "slot": "52",
        "type": "t_array(t_uint256)49_storage"
      },
      {
        "astId": 415,
        "contract": "contracts/p2p/CaskP2PManager.sol:CaskP2PManager",
        "label": "_paused",
        "offset": 0,
        "slot": "101",
        "type": "t_bool"
      },
      {
        "astId": 506,
        "contract": "contracts/p2p/CaskP2PManager.sol:CaskP2PManager",
        "label": "__gap",
        "offset": 0,
        "slot": "102",
        "type": "t_array(t_uint256)49_storage"
      },
      {
        "astId": 521,
        "contract": "contracts/p2p/CaskP2PManager.sol:CaskP2PManager",
        "label": "_status",
        "offset": 0,
        "slot": "151",
        "type": "t_uint256"
      },
      {
        "astId": 564,
        "contract": "contracts/p2p/CaskP2PManager.sol:CaskP2PManager",
        "label": "__gap",
        "offset": 0,
        "slot": "152",
        "type": "t_array(t_uint256)49_storage"
      },
      {
        "astId": 13863,
        "contract": "contracts/p2p/CaskP2PManager.sol:CaskP2PManager",
        "label": "queueBucketSize",
        "offset": 0,
        "slot": "201",
        "type": "t_uint32"
      },
      {
        "astId": 13866,
        "contract": "contracts/p2p/CaskP2PManager.sol:CaskP2PManager",
        "label": "maxQueueAge",
        "offset": 4,
        "slot": "201",
        "type": "t_uint32"
      },
      {
        "astId": 13874,
        "contract": "contracts/p2p/CaskP2PManager.sol:CaskP2PManager",
        "label": "queue",
        "offset": 0,
        "slot": "202",
        "type": "t_mapping(t_uint8,t_mapping(t_uint32,t_array(t_bytes32)dyn_storage))"
      },
      {
        "astId": 13878,
        "contract": "contracts/p2p/CaskP2PManager.sol:CaskP2PManager",
        "label": "queueBucket",
        "offset": 0,
        "slot": "203",
        "type": "t_mapping(t_uint8,t_uint32)"
      },
      {
        "astId": 15818,
        "contract": "contracts/p2p/CaskP2PManager.sol:CaskP2PManager",
        "label": "caskP2P",
        "offset": 0,
        "slot": "204",
        "type": "t_contract(ICaskP2P)12833"
      },
      {
        "astId": 15822,
        "contract": "contracts/p2p/CaskP2PManager.sol:CaskP2PManager",
        "label": "caskVault",
        "offset": 0,
        "slot": "205",
        "type": "t_contract(ICaskVault)13805"
      },
      {
        "astId": 15825,
        "contract": "contracts/p2p/CaskP2PManager.sol:CaskP2PManager",
        "label": "maxSkips",
        "offset": 0,
        "slot": "206",
        "type": "t_uint256"
      },
      {
        "astId": 15828,
        "contract": "contracts/p2p/CaskP2PManager.sol:CaskP2PManager",
        "label": "paymentFee",
        "offset": 0,
        "slot": "207",
        "type": "t_uint256"
      }
    ],
    "types": {
      "t_address": {
        "encoding": "inplace",
        "label": "address",
        "numberOfBytes": "20"
      },
      "t_array(t_bytes32)dyn_storage": {
        "base": "t_bytes32",
        "encoding": "dynamic_array",
        "label": "bytes32[]",
        "numberOfBytes": "32"
      },
      "t_array(t_uint256)49_storage": {
        "base": "t_uint256",
        "encoding": "inplace",
        "label": "uint256[49]",
        "numberOfBytes": "1568"
      },
      "t_array(t_uint256)50_storage": {
        "base": "t_uint256",
        "encoding": "inplace",
        "label": "uint256[50]",
        "numberOfBytes": "1600"
      },
      "t_bool": {
        "encoding": "inplace",
        "label": "bool",
        "numberOfBytes": "1"
      },
      "t_bytes32": {
        "encoding": "inplace",
        "label": "bytes32",
        "numberOfBytes": "32"
      },
      "t_contract(ICaskP2P)12833": {
        "encoding": "inplace",
        "label": "contract ICaskP2P",
        "numberOfBytes": "20"
      },
      "t_contract(ICaskVault)13805": {
        "encoding": "inplace",
        "label": "contract ICaskVault",
        "numberOfBytes": "20"
      },
      "t_mapping(t_uint32,t_array(t_bytes32)dyn_storage)": {
        "encoding": "mapping",
        "key": "t_uint32",
        "label": "mapping(uint32 => bytes32[])",
        "numberOfBytes": "32",
        "value": "t_array(t_bytes32)dyn_storage"
      },
      "t_mapping(t_uint8,t_mapping(t_uint32,t_array(t_bytes32)dyn_storage))": {
        "encoding": "mapping",
        "key": "t_uint8",
        "label": "mapping(uint8 => mapping(uint32 => bytes32[]))",
        "numberOfBytes": "32",
        "value": "t_mapping(t_uint32,t_array(t_bytes32)dyn_storage)"
      },
      "t_mapping(t_uint8,t_uint32)": {
        "encoding": "mapping",
        "key": "t_uint8",
        "label": "mapping(uint8 => uint32)",
        "numberOfBytes": "32",
        "value": "t_uint32"
      },
      "t_uint256": {
        "encoding": "inplace",
        "label": "uint256",
        "numberOfBytes": "32"
      },
      "t_uint32": {
        "encoding": "inplace",
        "label": "uint32",
        "numberOfBytes": "4"
      },
      "t_uint8": {
        "encoding": "inplace",
        "label": "uint8",
        "numberOfBytes": "1"
      }
    }
  }
}