{
  "address": "0x78B5882b81AF02ebb0803eAFb4A4bf27fe35470e",
  "abi": [
    {
      "inputs": [],
      "stateMutability": "nonpayable",
      "type": "constructor"
    },
    {
      "anonymous": false,
      "inputs": [
        {
          "indexed": true,
          "internalType": "address",
          "name": "protocol",
          "type": "address"
        }
      ],
      "name": "AddProtocol",
      "type": "event"
    },
    {
      "anonymous": false,
      "inputs": [
        {
          "indexed": true,
          "internalType": "address",
          "name": "asset",
          "type": "address"
        }
      ],
      "name": "AllowedAsset",
      "type": "event"
    },
    {
      "anonymous": false,
      "inputs": [
        {
          "indexed": true,
          "internalType": "address",
          "name": "owner",
          "type": "address"
        },
        {
          "indexed": true,
          "internalType": "address",
          "name": "spender",
          "type": "address"
        },
        {
          "indexed": false,
          "internalType": "uint256",
          "name": "value",
          "type": "uint256"
        }
      ],
      "name": "Approval",
      "type": "event"
    },
    {
      "anonymous": false,
      "inputs": [
        {
          "indexed": true,
          "internalType": "address",
          "name": "participant",
          "type": "address"
        },
        {
          "indexed": true,
          "internalType": "address",
          "name": "asset",
          "type": "address"
        },
        {
          "indexed": false,
          "internalType": "uint256",
          "name": "assetAmount",
          "type": "uint256"
        },
        {
          "indexed": false,
          "internalType": "uint256",
          "name": "baseAssetAmount",
          "type": "uint256"
        },
        {
          "indexed": false,
          "internalType": "uint256",
          "name": "shares",
          "type": "uint256"
        }
      ],
      "name": "AssetDeposited",
      "type": "event"
    },
    {
      "anonymous": false,
      "inputs": [
        {
          "indexed": true,
          "internalType": "address",
          "name": "participant",
          "type": "address"
        },
        {
          "indexed": true,
          "internalType": "address",
          "name": "asset",
          "type": "address"
        },
        {
          "indexed": false,
          "internalType": "uint256",
          "name": "assetAmount",
          "type": "uint256"
        },
        {
          "indexed": false,
          "internalType": "uint256",
          "name": "baseAssetAmount",
          "type": "uint256"
        },
        {
          "indexed": false,
          "internalType": "uint256",
          "name": "shares",
          "type": "uint256"
        }
      ],
      "name": "AssetWithdrawn",
      "type": "event"
    },
    {
      "anonymous": false,
      "inputs": [
        {
          "indexed": true,
          "internalType": "address",
          "name": "asset",
          "type": "address"
        }
      ],
      "name": "DisallowedAsset",
      "type": "event"
    },
    {
      "anonymous": false,
      "inputs": [
        {
          "indexed": true,
          "internalType": "address",
          "name": "previousOwner",
          "type": "address"
        },
        {
          "indexed": true,
          "internalType": "address",
          "name": "newOwner",
          "type": "address"
        }
      ],
      "name": "OwnershipTransferred",
      "type": "event"
    },
    {
      "anonymous": false,
      "inputs": [
        {
          "indexed": false,
          "internalType": "address",
          "name": "account",
          "type": "address"
        }
      ],
      "name": "Paused",
      "type": "event"
    },
    {
      "anonymous": false,
      "inputs": [
        {
          "indexed": true,
          "internalType": "address",
          "name": "from",
          "type": "address"
        },
        {
          "indexed": true,
          "internalType": "address",
          "name": "to",
          "type": "address"
        },
        {
          "indexed": false,
          "internalType": "uint256",
          "name": "baseAssetAmount",
          "type": "uint256"
        },
        {
          "indexed": false,
          "internalType": "uint256",
          "name": "shares",
          "type": "uint256"
        },
        {
          "indexed": false,
          "internalType": "uint256",
          "name": "protocolFee",
          "type": "uint256"
        },
        {
          "indexed": false,
          "internalType": "uint256",
          "name": "protocolFeeShares",
          "type": "uint256"
        },
        {
          "indexed": true,
          "internalType": "address",
          "name": "network",
          "type": "address"
        },
        {
          "indexed": false,
          "internalType": "uint256",
          "name": "networkFee",
          "type": "uint256"
        },
        {
          "indexed": false,
          "internalType": "uint256",
          "name": "networkFeeShares",
          "type": "uint256"
        }
      ],
      "name": "Payment",
      "type": "event"
    },
    {
      "anonymous": false,
      "inputs": [
        {
          "indexed": true,
          "internalType": "address",
          "name": "protocol",
          "type": "address"
        }
      ],
      "name": "RemoveProtocol",
      "type": "event"
    },
    {
      "anonymous": false,
      "inputs": [
        {
          "indexed": true,
          "internalType": "address",
          "name": "feeDistributor",
          "type": "address"
        }
      ],
      "name": "SetFeeDistributor",
      "type": "event"
    },
    {
      "anonymous": false,
      "inputs": [
        {
          "indexed": true,
          "internalType": "address",
          "name": "participant",
          "type": "address"
        },
        {
          "indexed": false,
          "internalType": "enum ICaskVault.FundingSource",
          "name": "fundingSource",
          "type": "uint8"
        },
        {
          "indexed": false,
          "internalType": "address",
          "name": "fundingAsset",
          "type": "address"
        }
      ],
      "name": "SetFundingSource",
      "type": "event"
    },
    {
      "anonymous": false,
      "inputs": [
        {
          "indexed": false,
          "internalType": "uint256",
          "name": "maxPriceFeedAge",
          "type": "uint256"
        }
      ],
      "name": "SetMaxPriceFeedAge",
      "type": "event"
    },
    {
      "anonymous": false,
      "inputs": [
        {
          "indexed": false,
          "internalType": "uint256",
          "name": "minDeposit",
          "type": "uint256"
        }
      ],
      "name": "SetMinDeposit",
      "type": "event"
    },
    {
      "anonymous": false,
      "inputs": [
        {
          "indexed": true,
          "internalType": "address",
          "name": "feeDistributor",
          "type": "address"
        }
      ],
      "name": "SetTrustedForwarder",
      "type": "event"
    },
    {
      "anonymous": false,
      "inputs": [
        {
          "indexed": true,
          "internalType": "address",
          "name": "from",
          "type": "address"
        },
        {
          "indexed": true,
          "internalType": "address",
          "name": "to",
          "type": "address"
        },
        {
          "indexed": false,
          "internalType": "uint256",
          "name": "value",
          "type": "uint256"
        }
      ],
      "name": "Transfer",
      "type": "event"
    },
    {
      "anonymous": false,
      "inputs": [
        {
          "indexed": true,
          "internalType": "address",
          "name": "from",
          "type": "address"
        },
        {
          "indexed": true,
          "internalType": "address",
          "name": "to",
          "type": "address"
        },
        {
          "indexed": false,
          "internalType": "uint256",
          "name": "baseAssetAmount",
          "type": "uint256"
        },
        {
          "indexed": false,
          "internalType": "uint256",
          "name": "shares",
          "type": "uint256"
        }
      ],
      "name": "TransferValue",
      "type": "event"
    },
    {
      "anonymous": false,
      "inputs": [
        {
          "indexed": false,
          "internalType": "address",
          "name": "account",
          "type": "address"
        }
      ],
      "name": "Unpaused",
      "type": "event"
    },
    {
      "inputs": [
        {
          "internalType": "address",
          "name": "_protocol",
          "type": "address"
        }
      ],
      "name": "addProtocol",
      "outputs": [],
      "stateMutability": "nonpayable",
      "type": "function"
    },
    {
      "inputs": [
        {
          "internalType": "address",
          "name": "_asset",
          "type": "address"
        },
        {
          "internalType": "address",
          "name": "_priceFeed",
          "type": "address"
        },
        {
          "internalType": "enum ICaskVault.PriceFeedType",
          "name": "_priceFeedType",
          "type": "uint8"
        },
        {
          "internalType": "string",
          "name": "_bandSymbol",
          "type": "string"
        },
        {
          "internalType": "uint256",
          "name": "_depositLimit",
          "type": "uint256"
        },
        {
          "internalType": "uint256",
          "name": "_slippageBps",
          "type": "uint256"
        }
      ],
      "name": "allowAsset",
      "outputs": [],
      "stateMutability": "nonpayable",
      "type": "function"
    },
    {
      "inputs": [
        {
          "internalType": "address",
          "name": "owner",
          "type": "address"
        },
        {
          "internalType": "address",
          "name": "spender",
          "type": "address"
        }
      ],
      "name": "allowance",
      "outputs": [
        {
          "internalType": "uint256",
          "name": "",
          "type": "uint256"
        }
      ],
      "stateMutability": "view",
      "type": "function"
    },
    {
      "inputs": [
        {
          "internalType": "address",
          "name": "spender",
          "type": "address"
        },
        {
          "internalType": "uint256",
          "name": "amount",
          "type": "uint256"
        }
      ],
      "name": "approve",
      "outputs": [
        {
          "internalType": "bool",
          "name": "",
          "type": "bool"
        }
      ],
      "stateMutability": "nonpayable",
      "type": "function"
    },
    {
      "inputs": [
        {
          "internalType": "address",
          "name": "account",
          "type": "address"
        }
      ],
      "name": "balanceOf",
      "outputs": [
        {
          "internalType": "uint256",
          "name": "",
          "type": "uint256"
        }
      ],
      "stateMutability": "view",
      "type": "function"
    },
    {
      "inputs": [],
      "name": "baseAsset",
      "outputs": [
        {
          "internalType": "address",
          "name": "",
          "type": "address"
        }
      ],
      "stateMutability": "view",
      "type": "function"
    },
    {
      "inputs": [
        {
          "internalType": "address",
          "name": "_fromAsset",
          "type": "address"
        },
        {
          "internalType": "address",
          "name": "_toAsset",
          "type": "address"
        },
        {
          "internalType": "uint256",
          "name": "_fromAmount",
          "type": "uint256"
        }
      ],
      "name": "convertPrice",
      "outputs": [
        {
          "internalType": "uint256",
          "name": "",
          "type": "uint256"
        }
      ],
      "stateMutability": "view",
      "type": "function"
    },
    {
      "inputs": [
        {
          "internalType": "address",
          "name": "_address",
          "type": "address"
        }
      ],
      "name": "currentValueOf",
      "outputs": [
        {
          "internalType": "uint256",
          "name": "",
          "type": "uint256"
        }
      ],
      "stateMutability": "view",
      "type": "function"
    },
    {
      "inputs": [],
      "name": "decimals",
      "outputs": [
        {
          "internalType": "uint8",
          "name": "",
          "type": "uint8"
        }
      ],
      "stateMutability": "view",
      "type": "function"
    },
    {
      "inputs": [
        {
          "internalType": "address",
          "name": "spender",
          "type": "address"
        },
        {
          "internalType": "uint256",
          "name": "subtractedValue",
          "type": "uint256"
        }
      ],
      "name": "decreaseAllowance",
      "outputs": [
        {
          "internalType": "bool",
          "name": "",
          "type": "bool"
        }
      ],
      "stateMutability": "nonpayable",
      "type": "function"
    },
    {
      "inputs": [
        {
          "internalType": "address",
          "name": "_asset",
          "type": "address"
        },
        {
          "internalType": "uint256",
          "name": "_assetAmount",
          "type": "uint256"
        }
      ],
      "name": "deposit",
      "outputs": [],
      "stateMutability": "nonpayable",
      "type": "function"
    },
    {
      "inputs": [
        {
          "internalType": "address",
          "name": "_to",
          "type": "address"
        },
        {
          "internalType": "address",
          "name": "_asset",
          "type": "address"
        },
        {
          "internalType": "uint256",
          "name": "_assetAmount",
          "type": "uint256"
        }
      ],
      "name": "depositTo",
      "outputs": [],
      "stateMutability": "nonpayable",
      "type": "function"
    },
    {
      "inputs": [
        {
          "internalType": "address",
          "name": "_asset",
          "type": "address"
        }
      ],
      "name": "disallowAsset",
      "outputs": [],
      "stateMutability": "nonpayable",
      "type": "function"
    },
    {
      "inputs": [],
      "name": "feeDistributor",
      "outputs": [
        {
          "internalType": "address",
          "name": "",
          "type": "address"
        }
      ],
      "stateMutability": "view",
      "type": "function"
    },
    {
      "inputs": [
        {
          "internalType": "address",
          "name": "_address",
          "type": "address"
        }
      ],
      "name": "fundingSource",
      "outputs": [
        {
          "components": [
            {
              "internalType": "enum ICaskVault.FundingSource",
              "name": "fundingSource",
              "type": "uint8"
            },
            {
              "internalType": "address",
              "name": "fundingAsset",
              "type": "address"
            }
          ],
          "internalType": "struct ICaskVault.FundingProfile",
          "name": "",
          "type": "tuple"
        }
      ],
      "stateMutability": "view",
      "type": "function"
    },
    {
      "inputs": [],
      "name": "getAllAssets",
      "outputs": [
        {
          "internalType": "address[]",
          "name": "",
          "type": "address[]"
        }
      ],
      "stateMutability": "view",
      "type": "function"
    },
    {
      "inputs": [
        {
          "internalType": "address",
          "name": "_asset",
          "type": "address"
        }
      ],
      "name": "getAsset",
      "outputs": [
        {
          "components": [
            {
              "internalType": "address",
              "name": "priceFeed",
              "type": "address"
            },
            {
              "internalType": "uint256",
              "name": "slippageBps",
              "type": "uint256"
            },
            {
              "internalType": "uint256",
              "name": "depositLimit",
              "type": "uint256"
            },
            {
              "internalType": "uint8",
              "name": "assetDecimals",
              "type": "uint8"
            },
            {
              "internalType": "uint8",
              "name": "priceFeedDecimals",
              "type": "uint8"
            },
            {
              "internalType": "bool",
              "name": "allowed",
              "type": "bool"
            },
            {
              "internalType": "enum ICaskVault.PriceFeedType",
              "name": "priceFeedType",
              "type": "uint8"
            },
            {
              "internalType": "string",
              "name": "bandSymbol",
              "type": "string"
            }
          ],
          "internalType": "struct ICaskVault.Asset",
          "name": "",
          "type": "tuple"
        }
      ],
      "stateMutability": "view",
      "type": "function"
    },
    {
      "inputs": [],
      "name": "getBaseAsset",
      "outputs": [
        {
          "internalType": "address",
          "name": "",
          "type": "address"
        }
      ],
      "stateMutability": "view",
      "type": "function"
    },
    {
      "inputs": [
        {
          "internalType": "address",
          "name": "spender",
          "type": "address"
        },
        {
          "internalType": "uint256",
          "name": "addedValue",
          "type": "uint256"
        }
      ],
      "name": "increaseAllowance",
      "outputs": [
        {
          "internalType": "bool",
          "name": "",
          "type": "bool"
        }
      ],
      "stateMutability": "nonpayable",
      "type": "function"
    },
    {
      "inputs": [
        {
          "internalType": "address",
          "name": "_baseAsset",
          "type": "address"
        },
        {
          "internalType": "address",
          "name": "_baseAssetPriceFeed",
          "type": "address"
        },
        {
          "internalType": "enum ICaskVault.PriceFeedType",
          "name": "_baseAssetPriceFeedType",
          "type": "uint8"
        },
        {
          "internalType": "string",
          "name": "_baseAssetBandSymbol",
          "type": "string"
        },
        {
          "internalType": "address",
          "name": "_feeDistributor",
          "type": "address"
        }
      ],
      "name": "initialize",
      "outputs": [],
      "stateMutability": "nonpayable",
      "type": "function"
    },
    {
      "inputs": [
        {
          "internalType": "address",
          "name": "forwarder",
          "type": "address"
        }
      ],
      "name": "isTrustedForwarder",
      "outputs": [
        {
          "internalType": "bool",
          "name": "",
          "type": "bool"
        }
      ],
      "stateMutability": "view",
      "type": "function"
    },
    {
      "inputs": [],
      "name": "maxPriceFeedAge",
      "outputs": [
        {
          "internalType": "uint256",
          "name": "",
          "type": "uint256"
        }
      ],
      "stateMutability": "view",
      "type": "function"
    },
    {
      "inputs": [],
      "name": "minDeposit",
      "outputs": [
        {
          "internalType": "uint256",
          "name": "",
          "type": "uint256"
        }
      ],
      "stateMutability": "view",
      "type": "function"
    },
    {
      "inputs": [],
      "name": "name",
      "outputs": [
        {
          "internalType": "string",
          "name": "",
          "type": "string"
        }
      ],
      "stateMutability": "view",
      "type": "function"
    },
    {
      "inputs": [],
      "name": "owner",
      "outputs": [
        {
          "internalType": "address",
          "name": "",
          "type": "address"
        }
      ],
      "stateMutability": "view",
      "type": "function"
    },
    {
      "inputs": [],
      "name": "pause",
      "outputs": [],
      "stateMutability": "nonpayable",
      "type": "function"
    },
    {
      "inputs": [],
      "name": "paused",
      "outputs": [
        {
          "internalType": "bool",
          "name": "",
          "type": "bool"
        }
      ],
      "stateMutability": "view",
      "type": "function"
    },
    {
      "inputs": [],
      "name": "pricePerShare",
      "outputs": [
        {
          "internalType": "uint256",
          "name": "",
          "type": "uint256"
        }
      ],
      "stateMutability": "view",
      "type": "function"
    },
    {
      "inputs": [],
      "name": "protocolCount",
      "outputs": [
        {
          "internalType": "uint256",
          "name": "",
          "type": "uint256"
        }
      ],
      "stateMutability": "view",
      "type": "function"
    },
    {
      "inputs": [
        {
          "internalType": "address",
          "name": "_from",
          "type": "address"
        },
        {
          "internalType": "address",
          "name": "_to",
          "type": "address"
        },
        {
          "internalType": "uint256",
          "name": "_value",
          "type": "uint256"
        },
        {
          "internalType": "uint256",
          "name": "_protocolFee",
          "type": "uint256"
        },
        {
          "internalType": "address",
          "name": "_network",
          "type": "address"
        },
        {
          "internalType": "uint256",
          "name": "_networkFee",
          "type": "uint256"
        }
      ],
      "name": "protocolPayment",
      "outputs": [],
      "stateMutability": "nonpayable",
      "type": "function"
    },
    {
      "inputs": [
        {
          "internalType": "address",
          "name": "_from",
          "type": "address"
        },
        {
          "internalType": "address",
          "name": "_to",
          "type": "address"
        },
        {
          "internalType": "uint256",
          "name": "_value",
          "type": "uint256"
        }
      ],
      "name": "protocolPayment",
      "outputs": [],
      "stateMutability": "nonpayable",
      "type": "function"
    },
    {
      "inputs": [
        {
          "internalType": "address",
          "name": "_from",
          "type": "address"
        },
        {
          "internalType": "address",
          "name": "_to",
          "type": "address"
        },
        {
          "internalType": "uint256",
          "name": "_value",
          "type": "uint256"
        },
        {
          "internalType": "uint256",
          "name": "_protocolFee",
          "type": "uint256"
        }
      ],
      "name": "protocolPayment",
      "outputs": [],
      "stateMutability": "nonpayable",
      "type": "function"
    },
    {
      "inputs": [
        {
          "internalType": "uint256",
          "name": "",
          "type": "uint256"
        }
      ],
      "name": "protocols",
      "outputs": [
        {
          "internalType": "address",
          "name": "",
          "type": "address"
        }
      ],
      "stateMutability": "view",
      "type": "function"
    },
    {
      "inputs": [
        {
          "internalType": "address",
          "name": "_protocol",
          "type": "address"
        }
      ],
      "name": "removeProtocol",
      "outputs": [],
      "stateMutability": "nonpayable",
      "type": "function"
    },
    {
      "inputs": [],
      "name": "renounceOwnership",
      "outputs": [],
      "stateMutability": "nonpayable",
      "type": "function"
    },
    {
      "inputs": [],
      "name": "reserved1",
      "outputs": [
        {
          "internalType": "address",
          "name": "",
          "type": "address"
        }
      ],
      "stateMutability": "view",
      "type": "function"
    },
    {
      "inputs": [
        {
          "internalType": "address",
          "name": "_feeDistributor",
          "type": "address"
        }
      ],
      "name": "setFeeDistributor",
      "outputs": [],
      "stateMutability": "nonpayable",
      "type": "function"
    },
    {
      "inputs": [
        {
          "internalType": "enum ICaskVault.FundingSource",
          "name": "_fundingSource",
          "type": "uint8"
        },
        {
          "internalType": "address",
          "name": "_fundingAsset",
          "type": "address"
        }
      ],
      "name": "setFundingSource",
      "outputs": [],
      "stateMutability": "nonpayable",
      "type": "function"
    },
    {
      "inputs": [
        {
          "internalType": "uint256",
          "name": "_maxPriceFeedAge",
          "type": "uint256"
        }
      ],
      "name": "setMaxPriceFeedAge",
      "outputs": [],
      "stateMutability": "nonpayable",
      "type": "function"
    },
    {
      "inputs": [
        {
          "internalType": "uint256",
          "name": "_minDeposit",
          "type": "uint256"
        }
      ],
      "name": "setMinDeposit",
      "outputs": [],
      "stateMutability": "nonpayable",
      "type": "function"
    },
    {
      "inputs": [
        {
          "internalType": "address",
          "name": "_forwarder",
          "type": "address"
        }
      ],
      "name": "setTrustedForwarder",
      "outputs": [],
      "stateMutability": "nonpayable",
      "type": "function"
    },
    {
      "inputs": [
        {
          "internalType": "uint256",
          "name": "_value",
          "type": "uint256"
        }
      ],
      "name": "sharesForValue",
      "outputs": [
        {
          "internalType": "uint256",
          "name": "",
          "type": "uint256"
        }
      ],
      "stateMutability": "view",
      "type": "function"
    },
    {
      "inputs": [
        {
          "internalType": "address",
          "name": "_asset",
          "type": "address"
        }
      ],
      "name": "supportsAsset",
      "outputs": [
        {
          "internalType": "bool",
          "name": "",
          "type": "bool"
        }
      ],
      "stateMutability": "view",
      "type": "function"
    },
    {
      "inputs": [],
      "name": "symbol",
      "outputs": [
        {
          "internalType": "string",
          "name": "",
          "type": "string"
        }
      ],
      "stateMutability": "view",
      "type": "function"
    },
    {
      "inputs": [
        {
          "internalType": "address",
          "name": "_asset",
          "type": "address"
        }
      ],
      "name": "totalAssetBalance",
      "outputs": [
        {
          "internalType": "uint256",
          "name": "",
          "type": "uint256"
        }
      ],
      "stateMutability": "view",
      "type": "function"
    },
    {
      "inputs": [],
      "name": "totalSupply",
      "outputs": [
        {
          "internalType": "uint256",
          "name": "",
          "type": "uint256"
        }
      ],
      "stateMutability": "view",
      "type": "function"
    },
    {
      "inputs": [],
      "name": "totalValue",
      "outputs": [
        {
          "internalType": "uint256",
          "name": "",
          "type": "uint256"
        }
      ],
      "stateMutability": "view",
      "type": "function"
    },
    {
      "inputs": [
        {
          "internalType": "address",
          "name": "recipient",
          "type": "address"
        },
        {
          "internalType": "uint256",
          "name": "amount",
          "type": "uint256"
        }
      ],
      "name": "transfer",
      "outputs": [
        {
          "internalType": "bool",
          "name": "",
          "type": "bool"
        }
      ],
      "stateMutability": "nonpayable",
      "type": "function"
    },
    {
      "inputs": [
        {
          "internalType": "address",
          "name": "sender",
          "type": "address"
        },
        {
          "internalType": "address",
          "name": "recipient",
          "type": "address"
        },
        {
          "internalType": "uint256",
          "name": "amount",
          "type": "uint256"
        }
      ],
      "name": "transferFrom",
      "outputs": [
        {
          "internalType": "bool",
          "name": "",
          "type": "bool"
        }
      ],
      "stateMutability": "nonpayable",
      "type": "function"
    },
    {
      "inputs": [
        {
          "internalType": "address",
          "name": "newOwner",
          "type": "address"
        }
      ],
      "name": "transferOwnership",
      "outputs": [],
      "stateMutability": "nonpayable",
      "type": "function"
    },
    {
      "inputs": [
        {
          "internalType": "address",
          "name": "_recipient",
          "type": "address"
        },
        {
          "internalType": "uint256",
          "name": "_value",
          "type": "uint256"
        }
      ],
      "name": "transferValue",
      "outputs": [
        {
          "internalType": "bool",
          "name": "",
          "type": "bool"
        }
      ],
      "stateMutability": "nonpayable",
      "type": "function"
    },
    {
      "inputs": [
        {
          "internalType": "address",
          "name": "_sender",
          "type": "address"
        },
        {
          "internalType": "address",
          "name": "_recipient",
          "type": "address"
        },
        {
          "internalType": "uint256",
          "name": "_value",
          "type": "uint256"
        }
      ],
      "name": "transferValueFrom",
      "outputs": [
        {
          "internalType": "bool",
          "name": "",
          "type": "bool"
        }
      ],
      "stateMutability": "nonpayable",
      "type": "function"
    },
    {
      "inputs": [],
      "name": "trustedForwarder",
      "outputs": [
        {
          "internalType": "address",
          "name": "",
          "type": "address"
        }
      ],
      "stateMutability": "view",
      "type": "function"
    },
    {
      "inputs": [],
      "name": "unpause",
      "outputs": [],
      "stateMutability": "nonpayable",
      "type": "function"
    },
    {
      "inputs": [],
      "name": "versionRecipient",
      "outputs": [
        {
          "internalType": "string",
          "name": "",
          "type": "string"
        }
      ],
      "stateMutability": "pure",
      "type": "function"
    },
    {
      "inputs": [
        {
          "internalType": "address",
          "name": "_asset",
          "type": "address"
        },
        {
          "internalType": "uint256",
          "name": "_shares",
          "type": "uint256"
        }
      ],
      "name": "withdraw",
      "outputs": [],
      "stateMutability": "nonpayable",
      "type": "function"
    },
    {
      "inputs": [
        {
          "internalType": "address",
          "name": "_recipient",
          "type": "address"
        },
        {
          "internalType": "address",
          "name": "_asset",
          "type": "address"
        },
        {
          "internalType": "uint256",
          "name": "_shares",
          "type": "uint256"
        }
      ],
      "name": "withdrawTo",
      "outputs": [],
      "stateMutability": "nonpayable",
      "type": "function"
    }
  ],
  "transactionHash": "0xfbbe31488999b44006f0ff9fa676630c2cbc118034aa4667bea2b4a3b95395c2",
  "args": [],
  "numDeployments": 1,
  "solcInputHash": "9f96eb065984ed85d198e90d587845a7",
  "bytecode": "0x60806040523480156200001157600080fd5b50600054610100900460ff166200002f5760005460ff161562000039565b62000039620000de565b620000a15760405162461bcd60e51b815260206004820152602e60248201527f496e697469616c697a61626c653a20636f6e747261637420697320616c72656160448201526d191e481a5b9a5d1a585b1a5e995960921b606482015260840160405180910390fd5b600054610100900460ff16158015620000c4576000805461ffff19166101011790555b8015620000d7576000805461ff00191690555b5062000102565b6000620000f630620000fc60201b620027ca1760201c565b15905090565b3b151590565b61500f80620001126000396000f3fe608060405234801561001057600080fd5b50600436106103835760003560e01c806379b2125f116101de578063c3b35a7e1161010f578063e1ded2de116100ad578063f213159c1161007c578063f213159c146107e2578063f2fde38b146107f5578063f3fef3a314610808578063fcd6a25b1461081b57600080fd5b8063e1ded2de146107a0578063e2eed04f146107b3578063e300eec7146107bc578063ea664488146107cf57600080fd5b8063d4c3eea0116100e9578063d4c3eea014610739578063d73f730b14610741578063da74222814610754578063dd62ed3e1461076757600080fd5b8063c3b35a7e14610700578063ccfc2e8d14610713578063cdf456e11461072657600080fd5b80638fcc9cfb1161017c578063a457c2d711610156578063a457c2d714610691578063a9059cbb146106a4578063aa388af6146106b7578063aaac831f146106ed57600080fd5b80638fcc9cfb1461066e57806395d89b411461068157806399530b061461068957600080fd5b80638c396220116101b85780638c396220146106265780638d3a4af6146106395780638da5cb5b1461064a5780638e3e580d1461065b57600080fd5b806379b2125f146105fa5780637da0a8771461060d5780638456cb591461061e57600080fd5b80633f4ba83a116102b8578063597435cb116102565780635c975abb116102305780635c975abb146105ab57806370a08231146105b6578063715018a6146105df578063771d4c28146105e757600080fd5b8063597435cb146105655780635979d7b8146105785780635a4161ff1461059857600080fd5b8063486ff0cd11610292578063486ff0cd146104fc5780634bb846e11461051d5780635517575d14610530578063572b6c051461054357600080fd5b80633f4ba83a146104d757806341b3d185146104df57806347e7ef24146104e957600080fd5b80631ab1ed9e116103255780632acada4d116102ff5780632acada4d1461047557806330b8b2c61461048a578063313ce567146104aa57806339509351146104c457600080fd5b80631ab1ed9e1461043c5780632298d8491461044f57806323b872dd1461046257600080fd5b8063095ea7b311610361578063095ea7b3146103e15780630d43e8ad146103f457806318160ddd1461041f57806318ff57681461042757600080fd5b806306fdde03146103885780630816c847146103a657806308751b18146103be575b600080fd5b61039061082e565b60405161039d9190614591565b60405180910390f35b6103b06101035481565b60405190815260200161039d565b6103d16103cc3660046145bb565b6108c0565b604051901515815260200161039d565b6103d16103ef3660046145f7565b6109da565b60fe54610407906001600160a01b031681565b6040516001600160a01b03909116815260200161039d565b6036546103b0565b61043a610435366004614621565b6109f8565b005b61043a61044a366004614692565b610b9b565b61043a61045d366004614621565b61109e565b6103d16104703660046145bb565b61119c565b61047d61122e565b60405161039d9190614719565b61049d610498366004614621565b611290565b60405161039d91906147a7565b6104b2611413565b60405160ff909116815260200161039d565b6103d16104d23660046145f7565b611495565b61043a6114e9565b6103b06101025481565b61043a6104f73660046145f7565b61153c565b6040805180820190915260058152640322e322e360dc1b6020820152610390565b6103b061052b3660046145bb565b6115aa565b6103b061053e366004614621565b6115bf565b6103d1610551366004614621565b6033546001600160a01b0391821691161490565b6103b0610573366004614621565b6115ca565b61058b610586366004614621565b6115f1565b60405161039d919061482d565b6103d16105a63660046145f7565b61166f565b60985460ff166103d1565b6103b06105c4366004614621565b6001600160a01b031660009081526034602052604090205490565b61043a611748565b61043a6105f5366004614621565b61179b565b61043a610608366004614859565b61185d565b6033546001600160a01b0316610407565b61043a61194c565b6104076106343660046148b8565b61199d565b60fd546001600160a01b0316610407565b6066546001600160a01b0316610407565b61043a6106693660046145bb565b6119c8565b61043a61067c3660046148b8565b611ab6565b610390611b3c565b6103b0611b4b565b6103d161069f3660046145f7565b611b7b565b6103d16106b23660046145f7565b611c32565b6103d16106c5366004614621565b6001600160a01b0316600090815260ff60208190526040909120600301546201000090041690565b60fc54610407906001600160a01b031681565b61043a61070e3660046145bb565b611c46565b61043a610721366004614621565b611ca6565b60fd54610407906001600160a01b031681565b6103b0611d39565b61043a61074f3660046148d1565b611d43565b61043a610762366004614621565b611e64565b6103b0610775366004614906565b6001600160a01b03918216600090815260356020908152604080832093909416825291909152205490565b6103b06107ae3660046148b8565b611eff565b610101546103b0565b61043a6107ca3660046148b8565b611f0a565b61043a6107dd366004614922565b611f89565b61043a6107f03660046145bb565b612567565b61043a610803366004614621565b6125c5565b61043a6108163660046145f7565b61267f565b61043a6108293660046149a9565b6126dc565b60606037805461083d906149eb565b80601f0160208091040260200160405190810160405280929190818152602001828054610869906149eb565b80156108b65780601f1061088b576101008083540402835291602001916108b6565b820191906000526020600020905b81548152906001019060200180831161089957829003601f168201915b5050505050905090565b6000600260ca5414156108ee5760405162461bcd60e51b81526004016108e590614a20565b60405180910390fd5b600260ca5560985460ff16156109165760405162461bcd60e51b81526004016108e590614a57565b6000610921836127d0565b905061092e85858361280a565b600061093c866107756129da565b90508181101561095e5760405162461bcd60e51b81526004016108e590614a81565b6109728661096a6129da565b8484036129e4565b846001600160a01b0316866001600160a01b03167fc8cf4e5d87b5b4ffb59d20991b0840a27d2227ee272dae54bacf0f4b4184bf7786856040516109c0929190918252602082015260400190565b60405180910390a3600192505050600160ca559392505050565b60006109ee6109e76129da565b84846129e4565b5060015b92915050565b610a006129da565b6001600160a01b0316610a1b6066546001600160a01b031690565b6001600160a01b031614610a415760405162461bcd60e51b81526004016108e590614ac9565b6101015460005b61010154811015610aa657826001600160a01b03166101018281548110610a7157610a71614afe565b6000918252602090912001546001600160a01b03161415610a9457809150610aa6565b80610a9e81614b2a565b915050610a48565b5061010154811015610b63576101018054610ac390600190614b45565b81548110610ad357610ad3614afe565b60009182526020909120015461010180546001600160a01b039092169183908110610b0057610b00614afe565b9060005260206000200160006101000a8154816001600160a01b0302191690836001600160a01b03160217905550610101805480610b4057610b40614b5c565b600082815260209020810160001990810180546001600160a01b03191690550190555b6040516001600160a01b038316907fb0e13246ae39a13158fc894c77b848e06901f1440d7cc8aaad18f0a0e1566b3890600090a25050565b610ba36129da565b6001600160a01b0316610bbe6066546001600160a01b031690565b6001600160a01b031614610be45760405162461bcd60e51b81526004016108e590614ac9565b6000876001600160a01b031663313ce5676040518163ffffffff1660e01b815260040160206040518083038186803b158015610c1f57600080fd5b505afa158015610c33573d6000803e3d6000fd5b505050506040513d601f19601f82011682018060405250810190610c579190614b72565b60ff1611610c995760405162461bcd60e51b815260206004820152600f60248201526e21494e56414c49442861737365742960881b60448201526064016108e5565b6000856001811115610cad57610cad614766565b1415610d71576000866001600160a01b031663313ce5676040518163ffffffff1660e01b815260040160206040518083038186803b158015610cee57600080fd5b505afa158015610d02573d6000803e3d6000fd5b505050506040513d601f19601f82011682018060405250810190610d269190614b72565b60ff1611610d6c5760405162461bcd60e51b815260206004820152601360248201527221494e56414c4944287072696365466565642960681b60448201526064016108e5565b610e17565b6001856001811115610d8557610d85614766565b1415610dcf5782610d6c5760405162461bcd60e51b815260206004820152601460248201527321494e56414c49442862616e6453796d626f6c2960601b60448201526064016108e5565b60405162461bcd60e51b815260206004820152601760248201527f756e6b6e6f776e2070726963652066656564207479706500000000000000000060448201526064016108e5565b6001600160a01b038716600090815260ff602081905260409091206003810154909116610e8b5761010080546001810182556000919091527f45e010b9ae401e2eb71529478da8bd513a9bdc2d095a111e324f5b95c09ed87b0180546001600160a01b0319166001600160a01b038a161790555b6003810180546201000062ff00001982168117835583546001600160a01b0319166001600160a01b038b1617845588929163ffff00001916176301000000836001811115610edb57610edb614766565b0217905550610eee600482018686614430565b50828160020181905550818160010181905550876001600160a01b031663313ce5676040518163ffffffff1660e01b815260040160206040518083038186803b158015610f3a57600080fd5b505afa158015610f4e573d6000803e3d6000fd5b505050506040513d601f19601f82011682018060405250810190610f729190614b72565b60038201805460ff191660ff929092169190911790556000866001811115610f9c57610f9c614766565b141561103457866001600160a01b031663313ce5676040518163ffffffff1660e01b815260040160206040518083038186803b158015610fdb57600080fd5b505afa158015610fef573d6000803e3d6000fd5b505050506040513d601f19601f820116820180604052508101906110139190614b72565b8160030160016101000a81548160ff021916908360ff160217905550611060565b600186600181111561104857611048614766565b14156110605760038101805461ff0019166112001790555b6040516001600160a01b038916907f06a94869c30cb7089f57f8d4a5ff251ac74a8c2bc361e7f91bda209898de8ead90600090a25050505050505050565b6110a66129da565b6001600160a01b03166110c16066546001600160a01b031690565b6001600160a01b0316146110e75760405162461bcd60e51b81526004016108e590614ac9565b6001600160a01b038116600090815260ff60208190526040909120600301546201000090041661114e5760405162461bcd60e51b8152602060048201526012602482015271085054d4d15517d393d517d0531313d5d15160721b60448201526064016108e5565b6001600160a01b038116600081815260ff6020526040808220600301805462ff000019169055517f0a8090b3b8835c60a03ebb0cc69833b4359a1924917dbc2e80bb4516428da0a39190a250565b60006111a984848461280a565b6001600160a01b0384166000908152603560205260408120816111ca6129da565b6001600160a01b03166001600160a01b031681526020019081526020016000205490508281101561120d5760405162461bcd60e51b81526004016108e590614a81565b611221856112196129da565b8584036129e4565b60019150505b9392505050565b60606101008054806020026020016040519081016040528092919081815260200182805480156108b657602002820191906000526020600020905b81546001600160a01b03168152600190910190602001808311611269575050505050905090565b6112d86040805161010081018252600080825260208201819052918101829052606081018290526080810182905260a081018290529060c08201908152602001606081525090565b6001600160a01b03808316600090815260ff602081815260409283902083516101008082018652825490961681526001808301549382019390935260028201549481019490945260038101548084166060860152948504831660808501526201000085048316151560a0850152929360c08501926301000000909104169081111561136557611365614766565b600181111561137657611376614766565b815260200160048201805461138a906149eb565b80601f01602080910402602001604051908101604052809291908181526020018280546113b6906149eb565b80156114035780601f106113d857610100808354040283529160200191611403565b820191906000526020600020905b8154815290600101906020018083116113e657829003601f168201915b5050505050815250509050919050565b60fd546040805163313ce56760e01b815290516000926001600160a01b03169163313ce567916004808301926020929190829003018186803b15801561145857600080fd5b505afa15801561146c573d6000803e3d6000fd5b505050506040513d601f19601f820116820180604052508101906114909190614b72565b905090565b60006109ee6114a26129da565b8484603560006114b06129da565b6001600160a01b03908116825260208083019390935260409182016000908120918b16815292529020546114e49190614b95565b6129e4565b6114f16129da565b6001600160a01b031661150c6066546001600160a01b031690565b6001600160a01b0316146115325760405162461bcd60e51b81526004016108e590614ac9565b61153a612b08565b565b600260ca54141561155f5760405162461bcd60e51b81526004016108e590614a20565b600260ca5560985460ff16156115875760405162461bcd60e51b81526004016108e590614a57565b6115a16115926129da565b61159a6129da565b8484612ba1565b5050600160ca55565b60006115b7848484612e4a565b949350505050565b60006109f282612f7e565b6001600160a01b0381166000908152603460205260408120546109f290612ff8565b612ff8565b60408051808201909152600080825260208201526001600160a01b038216600090815261010460205260409081902081518083019092528054829060ff16600181111561164057611640614766565b600181111561165157611651614766565b8152905461010090046001600160a01b031660209091015292915050565b6000600260ca5414156116945760405162461bcd60e51b81526004016108e590614a20565b600260ca5560985460ff16156116bc5760405162461bcd60e51b81526004016108e590614a57565b60006116c7836127d0565b90506116db6116d46129da565b858361280a565b836001600160a01b03166116ed6129da565b6001600160a01b03167fc8cf4e5d87b5b4ffb59d20991b0840a27d2227ee272dae54bacf0f4b4184bf778584604051611730929190918252602082015260400190565b60405180910390a36001915050600160ca5592915050565b6117506129da565b6001600160a01b031661176b6066546001600160a01b031690565b6001600160a01b0316146117915760405162461bcd60e51b81526004016108e590614ac9565b61153a6000613021565b6117a36129da565b6001600160a01b03166117be6066546001600160a01b031690565b6001600160a01b0316146117e45760405162461bcd60e51b81526004016108e590614ac9565b610101805460018101825560009182527f109ea3cebb188b9c1b9fc5bb3920be60dfdc8699098dff92f3d80daaca7476890180546001600160a01b0319166001600160a01b03841690811790915560405190917f713b660c92a559fe6eecdbf5d129bf8e30d527db74b47b6dc5eeb65c7893f1e591a250565b600260ca5414156118805760405162461bcd60e51b81526004016108e590614a20565b600260ca556000805b610101548110156118ef5761010181815481106118a8576118a8614afe565b6000918252602090912001546001600160a01b03166118c56129da565b6001600160a01b031614156118dd57600191506118ef565b806118e781614b2a565b915050611889565b508061190d5760405162461bcd60e51b81526004016108e590614bad565b60985460ff16156119305760405162461bcd60e51b81526004016108e590614a57565b61193e878787878787613073565b5050600160ca555050505050565b6119546129da565b6001600160a01b031661196f6066546001600160a01b031690565b6001600160a01b0316146119955760405162461bcd60e51b81526004016108e590614ac9565b61153a6133a3565b61010181815481106119ae57600080fd5b6000918252602090912001546001600160a01b0316905081565b600260ca5414156119eb5760405162461bcd60e51b81526004016108e590614a20565b600260ca556000805b61010154811015611a5a576101018181548110611a1357611a13614afe565b6000918252602090912001546001600160a01b0316611a306129da565b6001600160a01b03161415611a485760019150611a5a565b80611a5281614b2a565b9150506119f4565b5080611a785760405162461bcd60e51b81526004016108e590614bad565b60985460ff1615611a9b5760405162461bcd60e51b81526004016108e590614a57565b611aab8484846000806000613073565b5050600160ca555050565b611abe6129da565b6001600160a01b0316611ad96066546001600160a01b031690565b6001600160a01b031614611aff5760405162461bcd60e51b81526004016108e590614ac9565b6101028190556040518181527f8335b9d95c5f85895bf6ed3f9d159211b514ab77f7e20509e553c657cfa39b4e906020015b60405180910390a150565b60606038805461083d906149eb565b60fd546001600160a01b0316600090815260ff60208190526040822060030154611490916115ec9116600a614cb0565b60008060356000611b8a6129da565b6001600160a01b0390811682526020808301939093526040918201600090812091881681529252902054905082811015611c145760405162461bcd60e51b815260206004820152602560248201527f45524332303a2064656372656173656420616c6c6f77616e63652062656c6f77604482015264207a65726f60d81b60648201526084016108e5565b611c28611c1f6129da565b858584036129e4565b5060019392505050565b60006109ee611c3f6129da565b848461280a565b600260ca541415611c695760405162461bcd60e51b81526004016108e590614a20565b600260ca5560985460ff1615611c915760405162461bcd60e51b81526004016108e590614a57565b611c9c8383836133fc565b5050600160ca5550565b611cae6129da565b6001600160a01b0316611cc96066546001600160a01b031690565b6001600160a01b031614611cef5760405162461bcd60e51b81526004016108e590614ac9565b60fe80546001600160a01b0319166001600160a01b0383169081179091556040517f9e9a9a4a82acd1b28aab6bf1d43aad70ae6d290549c0d6183e2e91ebcdf5744190600090a250565b60006114906135aa565b6001600160a01b038116600090815260ff602081905260409091206003015462010000900416611daa5760405162461bcd60e51b8152602060048201526012602482015271085054d4d15517d393d517d0531313d5d15160721b60448201526064016108e5565b60006101046000611db96129da565b6001600160a01b03168152602081019190915260400160002080549091508390829060ff191660018381811115611df257611df2614766565b02179055508054610100600160a81b0319166101006001600160a01b03841602178155611e1d6129da565b6001600160a01b03167f1d97f1da175e9fad2f79856dc3bb2ced51a7a3c6c62c366fa5f909579da4b1608484604051611e57929190614cbf565b60405180910390a2505050565b611e6c6129da565b6001600160a01b0316611e876066546001600160a01b031690565b6001600160a01b031614611ead5760405162461bcd60e51b81526004016108e590614ac9565b603380546001600160a01b0319166001600160a01b0383161790556040516001600160a01b038216907f8c2bee8063bb4464870b7dfa415ebb2fe80bfa73ba20d6fbf0d42791274667ff90600090a250565b60006109f2826127d0565b611f126129da565b6001600160a01b0316611f2d6066546001600160a01b031690565b6001600160a01b031614611f535760405162461bcd60e51b81526004016108e590614ac9565b6101038190556040518181527f1fe1f9ede5e74676189934337b4dd60f437c0f524b40a4c18400f040dd592adb90602001611b31565b600054610100900460ff16611fa45760005460ff1615611fa8565b303b155b61200b5760405162461bcd60e51b815260206004820152602e60248201527f496e697469616c697a61626c653a20636f6e747261637420697320616c72656160448201526d191e481a5b9a5d1a585b1a5e995960921b60648201526084016108e5565b600054610100900460ff1615801561202d576000805461ffff19166101011790555b6120356136ae565b61203d6136e5565b61204561371c565b612094604051806040016040528060118152602001704361736b205661756c7420546f6b656e7360781b8152506040518060400160405280600481526020016309a82a6960e31b81525061374b565b6000876001600160a01b031663313ce5676040518163ffffffff1660e01b815260040160206040518083038186803b1580156120cf57600080fd5b505afa1580156120e3573d6000803e3d6000fd5b505050506040513d601f19601f820116820180604052508101906121079190614b72565b60ff161161214d5760405162461bcd60e51b815260206004820152601360248201527221494e56414c4944286261736541737365742960681b60448201526064016108e5565b600085600181111561216157612161614766565b141561222f576000866001600160a01b031663313ce5676040518163ffffffff1660e01b815260040160206040518083038186803b1580156121a257600080fd5b505afa1580156121b6573d6000803e3d6000fd5b505050506040513d601f19601f820116820180604052508101906121da9190614b72565b60ff161161222a5760405162461bcd60e51b815260206004820152601c60248201527f21494e56414c494428626173654173736574507269636546656564290000000060448201526064016108e5565b612296565b600185600181111561224357612243614766565b1415610dcf578261222a5760405162461bcd60e51b815260206004820152601d60248201527f21494e56414c49442862617365417373657442616e6453796d626f6c2900000060448201526064016108e5565b6001600160a01b0382166122ec5760405162461bcd60e51b815260206004820152601860248201527f21494e56414c4944286665654469737472696275746f7229000000000000000060448201526064016108e5565b6001600160a01b03878116600090815260ff6020526040902080546001600160a01b03191691881691909117815560038101805487919063ff0000001916630100000083600181111561234157612341614766565b0217905550876001600160a01b031663313ce5676040518163ffffffff1660e01b815260040160206040518083038186803b15801561237f57600080fd5b505afa158015612393573d6000803e3d6000fd5b505050506040513d601f19601f820116820180604052508101906123b79190614b72565b60038201805460ff191660ff9290921691909117905560008660018111156123e1576123e1614766565b141561247957866001600160a01b031663313ce5676040518163ffffffff1660e01b815260040160206040518083038186803b15801561242057600080fd5b505afa158015612434573d6000803e3d6000fd5b505050506040513d601f19601f820116820180604052508101906124589190614b72565b8160030160016101000a81548160ff021916908360ff1602179055506124a5565b600186600181111561248d5761248d614766565b1415610dcf5760038101805461ff0019166112001790555b6000196002820155600060018201556124c2600482018686614430565b50600301805462ff0000191662010000179055610100805460018101825560009182527f45e010b9ae401e2eb71529478da8bd513a9bdc2d095a111e324f5b95c09ed87b0180546001600160a01b03808b166001600160a01b0319928316811790935560fd8054831690931790925560fe80549286169290911691909117905561010281905561010355801561255e576000805461ff00191690555b50505050505050565b600260ca54141561258a5760405162461bcd60e51b81526004016108e590614a20565b600260ca5560985460ff16156125b25760405162461bcd60e51b81526004016108e590614a57565b611c9c6125bd6129da565b848484612ba1565b6125cd6129da565b6001600160a01b03166125e86066546001600160a01b031690565b6001600160a01b03161461260e5760405162461bcd60e51b81526004016108e590614ac9565b6001600160a01b0381166126735760405162461bcd60e51b815260206004820152602660248201527f4f776e61626c653a206e6577206f776e657220697320746865207a65726f206160448201526564647265737360d01b60648201526084016108e5565b61267c81613021565b50565b600260ca5414156126a25760405162461bcd60e51b81526004016108e590614a20565b600260ca5560985460ff16156126ca5760405162461bcd60e51b81526004016108e590614a57565b6115a16126d56129da565b83836133fc565b600260ca5414156126ff5760405162461bcd60e51b81526004016108e590614a20565b600260ca556000805b6101015481101561276e57610101818154811061272757612727614afe565b6000918252602090912001546001600160a01b03166127446129da565b6001600160a01b0316141561275c576001915061276e565b8061276681614b2a565b915050612708565b508061278c5760405162461bcd60e51b81526004016108e590614bad565b60985460ff16156127af5760405162461bcd60e51b81526004016108e590614a57565b6127be85858585600080613073565b5050600160ca55505050565b3b151590565b6000806127dc60365490565b1115612801576127ea6135aa565b6036546127f79084614ce4565b6109f29190614d03565b5090565b919050565b6001600160a01b03831661286e5760405162461bcd60e51b815260206004820152602560248201527f45524332303a207472616e736665722066726f6d20746865207a65726f206164604482015264647265737360d81b60648201526084016108e5565b6001600160a01b0382166128d05760405162461bcd60e51b815260206004820152602360248201527f45524332303a207472616e7366657220746f20746865207a65726f206164647260448201526265737360e81b60648201526084016108e5565b6001600160a01b038316600090815260346020526040902054818110156129485760405162461bcd60e51b815260206004820152602660248201527f45524332303a207472616e7366657220616d6f756e7420657863656564732062604482015265616c616e636560d01b60648201526084016108e5565b6001600160a01b0380851660009081526034602052604080822085850390559185168152908120805484929061297f908490614b95565b92505081905550826001600160a01b0316846001600160a01b03167fddf252ad1be2c89b69c2b068fc378daa952ba7f163c4a11628f55a4df523b3ef846040516129cb91815260200190565b60405180910390a35b50505050565b600061149061378d565b6001600160a01b038316612a465760405162461bcd60e51b8152602060048201526024808201527f45524332303a20617070726f76652066726f6d20746865207a65726f206164646044820152637265737360e01b60648201526084016108e5565b6001600160a01b038216612aa75760405162461bcd60e51b815260206004820152602260248201527f45524332303a20617070726f766520746f20746865207a65726f206164647265604482015261737360f01b60648201526084016108e5565b6001600160a01b0383811660008181526035602090815260408083209487168084529482529182902085905590518481527f8c5be1e5ebec7d5bd14f71427d1e84f3dd0314c0f7b2291e5b200ac8c7c3b925910160405180910390a3505050565b60985460ff16612b515760405162461bcd60e51b815260206004820152601460248201527314185d5cd8589b194e881b9bdd081c185d5cd95960621b60448201526064016108e5565b6098805460ff191690557f5db9ee0a495bf2e6ff9c91a7834c1ba4fdd244a5e8aa4e537bd38aeae4b073aa612b846129da565b6040516001600160a01b03909116815260200160405180910390a1565b6001600160a01b038216600090815260ff602081905260409091206003015462010000900416612c095760405162461bcd60e51b8152602060048201526013602482015272214e4f545f414c4c4f5745442861737365742960681b60448201526064016108e5565b60008111612c515760405162461bcd60e51b815260206004820152601560248201527421494e56414c4944286173736574416d6f756e742960581b60448201526064016108e5565b6001600160a01b038216600090815260ff602052604090206002015481612c7784612f7e565b612c819190614b95565b1115612cc75760405162461bcd60e51b8152602060048201526015602482015274214445504f5349545f4c494d49542861737365742960581b60448201526064016108e5565b60fd5481906001600160a01b03848116911614612d3f576001600160a01b038316600090815260ff60205260408120600181015490919061271090612d0c9086614ce4565b612d169190614d03565b60fd54909150612d3a9086906001600160a01b0316612d358488614b45565b612e4a565b925050505b61010254811015612d815760405162461bcd60e51b815260206004820152600c60248201526b0853525397d1115413d4d25560a21b60448201526064016108e5565b806000612d8d60365490565b1115612dd257612d9b6135aa565b6001612da660365490565b612db09085614ce4565b612dba9190614b45565b612dc49190614d03565b612dcf906001614b95565b90505b612de76001600160a01b0385168730866137c1565b612df1858261382c565b60408051848152602081018490529081018290526001600160a01b0380861691908716907fbef68d45f01f5e2c114616dc4840e7a543da6ec57afc5700e4be96056a899b4e9060600160405180910390a3505050505050565b6000826001600160a01b0316846001600160a01b03161415612e9c5760405162461bcd60e51b815260206004820152600b60248201526a0854d0535157d054d4d15560aa1b60448201526064016108e5565b6001600160a01b038416600090815260ff6020819052604082206003015463010000009004166001811115612ed357612ed3614766565b1415612eeb57612ee484848461390b565b9050611227565b60016001600160a01b038516600090815260ff602081905260409091206003015463010000009004166001811115612f2557612f25614766565b1415612f3657612ee4848484613cc1565b60405162461bcd60e51b815260206004820152601860248201527f756e6b6e6f776e2070726963652066656564207479706573000000000000000060448201526064016108e5565b6040516370a0823160e01b81523060048201526000906001600160a01b038316906370a082319060240160206040518083038186803b158015612fc057600080fd5b505afa158015612fd4573d6000803e3d6000fd5b505050506040513d601f19601f820116820180604052508101906109f29190614d25565b600061300360365490565b61300b575090565b603654826130176135aa565b6127f79190614ce4565b606680546001600160a01b038381166001600160a01b0319831681179093556040519116919082907f8be0079c531659141344cd1fd0a4f28419497f9722a3daafe3b4186f6b6457e090600090a35050565b61307d8184614b95565b84116130bc5760405162461bcd60e51b815260206004820152600e60248201526d2156414c55455f544f4f5f4c4f5760901b60448201526064016108e5565b6001600160a01b0386166000908152610104602052604080822081518083019092528054829060ff1660018111156130f6576130f6614766565b600181111561310757613107614766565b8152905461010090046001600160a01b0316602090910152905060018151600181111561313657613136614766565b14156132475760fd54602082015186916001600160a01b03918216911614613231576020808301516001600160a01b0316600090815260ff91829052604090206003810154909162010000909104166131d15760405162461bcd60e51b815260206004820152601a60248201527f214e4f545f414c4c4f5745442866756e64696e6741737365742900000000000060448201526064016108e5565b60fd5460208401516131ed916001600160a01b03169089612e4a565b60018201549092501561322f57600181015461320b90612710614b45565b61321783612710614ce4565b6132219190614d03565b61322c906001614b95565b91505b505b6132418889846020015184612ba1565b506132a9565b60008151600181111561325c5761325c614766565b146132a95760405162461bcd60e51b815260206004820152601760248201527f21494e56414c49442866756e64696e67536f757263652900000000000000000060448201526064016108e5565b60006132b4866127d0565b9050600085156132ca576132c7866127d0565b90505b600080851180156132e357506001600160a01b03861615155b156132f4576132f1856127d0565b90505b6132ff8a8a8561280a565b811561331d5760fe5461331d908a906001600160a01b03168461280a565b801561332e5761332e89878361280a565b6040805189815260208101859052908101889052606081018390526080810186905260a081018290526001600160a01b03808816918b8216918d16907fe231cd9559a5a16d19e2bf003665b108bb05f45a7318361550754822be725a1d9060c00160405180910390a450505050505050505050565b60985460ff16156133c65760405162461bcd60e51b81526004016108e590614a57565b6098805460ff191660011790557f62e78cea01bee320cd4e420270b5ea74000d11b0c9f74754ebdbfc544b05a258612b846129da565b6001600160a01b038216600090815260ff6020819052604090912060030154620100009004166134645760405162461bcd60e51b8152602060048201526013602482015272214e4f545f414c4c4f5745442861737365742960681b60448201526064016108e5565b600081116134ad5760405162461bcd60e51b815260206004820152601660248201527521494e56414c494428736861726573416d6f756e742960501b60448201526064016108e5565b60006134b882612ff8565b90506134cb6134c56129da565b83613f5e565b60fd5481906001600160a01b0385811691161461353e576001600160a01b03808516600090815260ff6020526040902060fd54909161350c91168685612e4a565b915060006127108260010154846135239190614ce4565b61352d9190614d03565b90506135398184614b45565b925050505b6135526001600160a01b03851686836140ac565b60408051828152602081018490529081018490526001600160a01b0380861691908716907fc90b5405a6805d53680586ef15168b1d791e67ceebe68fa62eefdb81478763cc9060600160405180910390a35050505050565b600080805b610100548110156136a85760fd5461010080546001600160a01b0390921691839081106135de576135de614afe565b6000918252602090912001546001600160a01b0316141561361f5760fd5461360e906001600160a01b0316612f7e565b6136189083614b95565b9150613696565b613689610100828154811061363657613636614afe565b60009182526020909120015460fd5461010080546001600160a01b039384169390921691612d3591908690811061366f5761366f614afe565b6000918252602090912001546001600160a01b0316612f7e565b6136939083614b95565b91505b806136a081614b2a565b9150506135af565b50919050565b600054610100900460ff166136d55760405162461bcd60e51b81526004016108e590614d3e565b6136dd6140dc565b61153a614103565b600054610100900460ff1661370c5760405162461bcd60e51b81526004016108e590614d3e565b6137146140dc565b61153a61413a565b600054610100900460ff166137435760405162461bcd60e51b81526004016108e590614d3e565b61153a61416d565b600054610100900460ff166137725760405162461bcd60e51b81526004016108e590614d3e565b61377a6140dc565b613784828261419b565b5050565b505050565b6000601436108015906137aa57506033546001600160a01b031633145b156137bc575060131936013560601c90565b503390565b6040516001600160a01b03808516602483015283166044820152606481018290526129d49085906323b872dd60e01b906084015b60408051601f198184030181529190526020810180516001600160e01b03166001600160e01b0319909316929092179091526141e9565b6001600160a01b0382166138825760405162461bcd60e51b815260206004820152601f60248201527f45524332303a206d696e7420746f20746865207a65726f20616464726573730060448201526064016108e5565b80603660008282546138949190614b95565b90915550506001600160a01b038216600090815260346020526040812080548392906138c1908490614b95565b90915550506040518181526001600160a01b038316906000907fddf252ad1be2c89b69c2b068fc378daa952ba7f163c4a11628f55a4df523b3ef9060200160405180910390a35050565b6001600160a01b03838116600090815260ff602052604081205490911661396a5760405162461bcd60e51b815260206004820152601360248201527221494e56414c49442866726f6d41737365742960681b60448201526064016108e5565b6001600160a01b03838116600090815260ff6020526040902054166139c95760405162461bcd60e51b8152602060048201526015602482015274214e4f545f414c4c4f57454428746f41737365742960581b60448201526064016108e5565b816139d657506000611227565b6001600160a01b03808516600090815260ff6020526040808220548151633fabe5a360e21b815291519293849391169163feaf968c9160048083019260a0929190829003018186803b158015613a2b57600080fd5b505afa158015613a3f573d6000803e3d6000fd5b505050506040513d601f19601f82011682018060405250810190613a639190614da3565b50610103549295509350849250501580613a89575061010354613a868342614b45565b11155b613aa55760405162461bcd60e51b81526004016108e590614df3565b6001600160a01b03808716600090815260ff602052604090819020548151633fabe5a360e21b8152915192169163feaf968c9160048082019260a092909190829003018186803b158015613af857600080fd5b505afa158015613b0c573d6000803e3d6000fd5b505050506040513d601f19601f82011682018060405250810190613b309190614da3565b50610103549296509450859250501580613b56575061010354613b538442614b45565b11155b613b725760405162461bcd60e51b81526004016108e590614df3565b6001600160a01b03808816600090815260ff60208190526040808320600390810154948d16845292209091015461010090819004821692041614613c81576001600160a01b038716600090815260ff6020819052604090912060030154613be39183916101008104821691166142bb565b6001600160a01b03808a16600090815260ff60208190526040808320600390810154948d168452922090910154613c25928692610100909104811691166142bb565b6001600160a01b03808b16600090815260ff60208190526040808320600390810154948e168452922090910154613c62928b9290811691166142bb565b613c6c9190614ce4565b613c769190614d03565b945050505050611227565b6001600160a01b03808916600090815260ff60208190526040808320600390810154948c16845292209091015483928592613c62928b92821691166142bb565b6001600160a01b038316600090815260ff602052604081206004018054829190613cea906149eb565b905011613d395760405162461bcd60e51b815260206004820152601760248201527f2142414e445f53594d424f4c2866726f6d41737365742900000000000000000060448201526064016108e5565b6001600160a01b038316600090815260ff602052604081206004018054613d5f906149eb565b905011613da65760405162461bcd60e51b81526020600482015260156024820152742142414e445f53594d424f4c28746f41737365742960581b60448201526064016108e5565b6001600160a01b03808516600090815260ff602052604080822080548785168452828420925163195556f360e21b8152939416926365555bcc92613df4926004908101929181019101614ebc565b60606040518083038186803b158015613e0c57600080fd5b505afa158015613e20573d6000803e3d6000fd5b505050506040513d601f19601f82011682018060405250810190613e449190614ee1565b90506101035460001480613e695750610103546020820151613e669042614b45565b11155b613e855760405162461bcd60e51b81526004016108e590614df3565b610103541580613ea65750610103546040820151613ea39042614b45565b11155b613ec25760405162461bcd60e51b81526004016108e590614df3565b80516001600160a01b038616600090815260ff6020819052604090912060030154613f5592613efb9290916101008104821691166142bb565b613f059085614ce4565b6001600160a01b038716600090815260ff6020819052604090912060030154613f3091166002614f4b565b6001600160a01b038716600090815260ff6020819052604090912060030154166142bb565b95945050505050565b6001600160a01b038216613fbe5760405162461bcd60e51b815260206004820152602160248201527f45524332303a206275726e2066726f6d20746865207a65726f206164647265736044820152607360f81b60648201526084016108e5565b6001600160a01b038216600090815260346020526040902054818110156140325760405162461bcd60e51b815260206004820152602260248201527f45524332303a206275726e20616d6f756e7420657863656564732062616c616e604482015261636560f01b60648201526084016108e5565b6001600160a01b0383166000908152603460205260408120838303905560368054849290614061908490614b45565b90915550506040518281526000906001600160a01b038516907fddf252ad1be2c89b69c2b068fc378daa952ba7f163c4a11628f55a4df523b3ef9060200160405180910390a3505050565b6040516001600160a01b03831660248201526044810182905261378890849063a9059cbb60e01b906064016137f5565b600054610100900460ff1661153a5760405162461bcd60e51b81526004016108e590614d3e565b600054610100900460ff1661412a5760405162461bcd60e51b81526004016108e590614d3e565b61153a6141356129da565b613021565b600054610100900460ff166141615760405162461bcd60e51b81526004016108e590614d3e565b6098805460ff19169055565b600054610100900460ff166141945760405162461bcd60e51b81526004016108e590614d3e565b600160ca55565b600054610100900460ff166141c25760405162461bcd60e51b81526004016108e590614d3e565b81516141d59060379060208501906144b0565b5080516137889060389060208401906144b0565b600061423e826040518060400160405280602081526020017f5361666545524332303a206c6f772d6c6576656c2063616c6c206661696c6564815250856001600160a01b03166143259092919063ffffffff16565b805190915015613788578080602001905181019061425c9190614f6c565b6137885760405162461bcd60e51b815260206004820152602a60248201527f5361666545524332303a204552433230206f7065726174696f6e20646964206e6044820152691bdd081cdd58d8d9595960b21b60648201526084016108e5565b60008160ff168360ff1610156142ed576142d58383614f8e565b6142e39060ff16600a614fb1565b612ee49085614ce4565b8160ff168360ff16111561431d576143058284614f8e565b6143139060ff16600a614fb1565b612ee49085614d03565b509192915050565b60606115b7848460008585843b61437e5760405162461bcd60e51b815260206004820152601d60248201527f416464726573733a2063616c6c20746f206e6f6e2d636f6e747261637400000060448201526064016108e5565b600080866001600160a01b0316858760405161439a9190614fbd565b60006040518083038185875af1925050503d80600081146143d7576040519150601f19603f3d011682016040523d82523d6000602084013e6143dc565b606091505b50915091506143ec8282866143f7565b979650505050505050565b60608315614406575081611227565b8251156144165782518084602001fd5b8160405162461bcd60e51b81526004016108e59190614591565b82805461443c906149eb565b90600052602060002090601f01602090048101928261445e57600085556144a4565b82601f106144775782800160ff198235161785556144a4565b828001600101855582156144a4579182015b828111156144a4578235825591602001919060010190614489565b50612801929150614524565b8280546144bc906149eb565b90600052602060002090601f0160209004810192826144de57600085556144a4565b82601f106144f757805160ff19168380011785556144a4565b828001600101855582156144a4579182015b828111156144a4578251825591602001919060010190614509565b5b808211156128015760008155600101614525565b60005b8381101561455457818101518382015260200161453c565b838111156129d45750506000910152565b6000815180845261457d816020860160208601614539565b601f01601f19169290920160200192915050565b6020815260006112276020830184614565565b80356001600160a01b038116811461280557600080fd5b6000806000606084860312156145d057600080fd5b6145d9846145a4565b92506145e7602085016145a4565b9150604084013590509250925092565b6000806040838503121561460a57600080fd5b614613836145a4565b946020939093013593505050565b60006020828403121561463357600080fd5b611227826145a4565b6002811061267c57600080fd5b60008083601f84011261465b57600080fd5b50813567ffffffffffffffff81111561467357600080fd5b60208301915083602082850101111561468b57600080fd5b9250929050565b600080600080600080600060c0888a0312156146ad57600080fd5b6146b6886145a4565b96506146c4602089016145a4565b955060408801356146d48161463c565b9450606088013567ffffffffffffffff8111156146f057600080fd5b6146fc8a828b01614649565b989b979a50959895979660808701359660a0013595509350505050565b6020808252825182820181905260009190848201906040850190845b8181101561475a5783516001600160a01b031683529284019291840191600101614735565b50909695505050505050565b634e487b7160e01b600052602160045260246000fd5b6002811061267c57634e487b7160e01b600052602160045260246000fd5b6147a38161477c565b9052565b6020815260018060a01b038251166020820152602082015160408201526040820151606082015260ff6060830151166080820152600060808301516147f160a084018260ff169052565b5060a083015180151560c08401525060c083015161481260e084018261479a565b5060e0830151610100838101526115b7610120840182614565565b8151604082019061483d8161477c565b82526020928301516001600160a01b0316929091019190915290565b60008060008060008060c0878903121561487257600080fd5b61487b876145a4565b9550614889602088016145a4565b945060408701359350606087013592506148a5608088016145a4565b915060a087013590509295509295509295565b6000602082840312156148ca57600080fd5b5035919050565b600080604083850312156148e457600080fd5b82356148ef8161463c565b91506148fd602084016145a4565b90509250929050565b6000806040838503121561491957600080fd5b6148ef836145a4565b60008060008060008060a0878903121561493b57600080fd5b614944876145a4565b9550614952602088016145a4565b945060408701356149628161463c565b9350606087013567ffffffffffffffff81111561497e57600080fd5b61498a89828a01614649565b909450925061499d9050608088016145a4565b90509295509295509295565b600080600080608085870312156149bf57600080fd5b6149c8856145a4565b93506149d6602086016145a4565b93969395505050506040820135916060013590565b600181811c908216806149ff57607f821691505b602082108114156136a857634e487b7160e01b600052602260045260246000fd5b6020808252601f908201527f5265656e7472616e637947756172643a207265656e7472616e742063616c6c00604082015260600190565b60208082526010908201526f14185d5cd8589b194e881c185d5cd95960821b604082015260600190565b60208082526028908201527f45524332303a207472616e7366657220616d6f756e74206578636565647320616040820152676c6c6f77616e636560c01b606082015260800190565b6020808252818101527f4f776e61626c653a2063616c6c6572206973206e6f7420746865206f776e6572604082015260600190565b634e487b7160e01b600052603260045260246000fd5b634e487b7160e01b600052601160045260246000fd5b6000600019821415614b3e57614b3e614b14565b5060010190565b600082821015614b5757614b57614b14565b500390565b634e487b7160e01b600052603160045260246000fd5b600060208284031215614b8457600080fd5b815160ff8116811461122757600080fd5b60008219821115614ba857614ba8614b14565b500190565b60208082526005908201526404282aaa8960db1b604082015260600190565b600181815b80851115614c07578160001904821115614bed57614bed614b14565b80851615614bfa57918102915b93841c9390800290614bd1565b509250929050565b600082614c1e575060016109f2565b81614c2b575060006109f2565b8160018114614c415760028114614c4b57614c67565b60019150506109f2565b60ff841115614c5c57614c5c614b14565b50506001821b6109f2565b5060208310610133831016604e8410600b8410161715614c8a575081810a6109f2565b614c948383614bcc565b8060001904821115614ca857614ca8614b14565b029392505050565b600061122760ff841683614c0f565b60408101614ccc8461477c565b9281526001600160a01b039190911660209091015290565b6000816000190483118215151615614cfe57614cfe614b14565b500290565b600082614d2057634e487b7160e01b600052601260045260246000fd5b500490565b600060208284031215614d3757600080fd5b5051919050565b6020808252602b908201527f496e697469616c697a61626c653a20636f6e7472616374206973206e6f74206960408201526a6e697469616c697a696e6760a81b606082015260800190565b805169ffffffffffffffffffff8116811461280557600080fd5b600080600080600060a08688031215614dbb57600080fd5b614dc486614d89565b9450602086015193506040860151925060608601519150614de760808701614d89565b90509295509295909350565b6020808252600f908201526e0854149250d157d3d5551110551151608a1b604082015260600190565b8054600090600181811c9080831680614e3657607f831692505b6020808410821415614e5857634e487b7160e01b600052602260045260246000fd5b83885260208801828015614e735760018114614e8457614eaf565b60ff19871682528282019750614eaf565b60008981526020902060005b87811015614ea957815484820152908601908401614e90565b83019850505b5050505050505092915050565b604081526000614ecf6040830185614e1c565b8281036020840152613f558185614e1c565b600060608284031215614ef357600080fd5b6040516060810181811067ffffffffffffffff82111715614f2457634e487b7160e01b600052604160045260246000fd5b80604052508251815260208301516020820152604083015160408201528091505092915050565b600060ff821660ff84168160ff0481118215151615614ca857614ca8614b14565b600060208284031215614f7e57600080fd5b8151801515811461122757600080fd5b600060ff821660ff841680821015614fa857614fa8614b14565b90039392505050565b60006112278383614c0f565b60008251614fcf818460208701614539565b919091019291505056fea2646970667358221220076d643a31334f54c8f4c9dd92f932da339066c4510191e22633d00ddebce6b164736f6c63430008090033",
  "devdoc": {
    "kind": "dev",
    "methods": {
      "allowance(address,address)": {
        "details": "See {IERC20-allowance}."
      },
      "approve(address,uint256)": {
        "details": "See {IERC20-approve}. Requirements: - `spender` cannot be the zero address."
      },
      "balanceOf(address)": {
        "details": "See {IERC20-balanceOf}."
      },
      "constructor": {
        "custom:oz-upgrades-unsafe-allow": "constructor"
      },
      "currentValueOf(address)": {
        "details": "Get current vault value of `_address` denominated in `baseAsset`",
        "params": {
          "_address": "Address to check"
        }
      },
      "decreaseAllowance(address,uint256)": {
        "details": "Atomically decreases the allowance granted to `spender` by the caller. This is an alternative to {approve} that can be used as a mitigation for problems described in {IERC20-approve}. Emits an {Approval} event indicating the updated allowance. Requirements: - `spender` cannot be the zero address. - `spender` must have allowance for the caller of at least `subtractedValue`."
      },
      "deposit(address,uint256)": {
        "details": "Deposit `_assetAmount` of `_asset` into the vault and credit the equivalent value of `baseAsset`",
        "params": {
          "_asset": "Address of incoming asset",
          "_assetAmount": "Amount of asset to deposit"
        }
      },
      "depositTo(address,address,uint256)": {
        "details": "Deposit `_assetAmount` of `_asset` into the vault and credit the equivalent value of `baseAsset`",
        "params": {
          "_asset": "Address of incoming asset",
          "_assetAmount": "Amount of asset to deposit",
          "_to": "Recipient of funds"
        }
      },
      "fundingSource(address)": {
        "details": "Retrieve the funding source for an address",
        "params": {
          "_address": "Address for lookup"
        }
      },
      "getAllAssets()": {
        "details": "Get all the assets supported by the vault."
      },
      "getAsset(address)": {
        "details": "Get asset details",
        "params": {
          "_asset": "Asset address"
        },
        "returns": {
          "_0": "Asset Asset details"
        }
      },
      "getBaseAsset()": {
        "details": "Get base asset of vault."
      },
      "increaseAllowance(address,uint256)": {
        "details": "Atomically increases the allowance granted to `spender` by the caller. This is an alternative to {approve} that can be used as a mitigation for problems described in {IERC20-approve}. Emits an {Approval} event indicating the updated allowance. Requirements: - `spender` cannot be the zero address."
      },
      "name()": {
        "details": "Returns the name of the token."
      },
      "owner()": {
        "details": "Returns the address of the current owner."
      },
      "paused()": {
        "details": "Returns true if the contract is paused, and false otherwise."
      },
      "pricePerShare()": {
        "details": "Get current vault value a vault share"
      },
      "protocolPayment(address,address,uint256)": {
        "details": "Pay `_value` of `baseAsset` from `_from` to `_to` initiated by an authorized protocol",
        "params": {
          "_from": "From address",
          "_to": "To address",
          "_value": "Amount of baseAsset value to transfer"
        }
      },
      "protocolPayment(address,address,uint256,uint256)": {
        "details": "Pay `_value` of `baseAsset` from `_from` to `_to` initiated by an authorized protocol",
        "params": {
          "_from": "From address",
          "_protocolFee": "Protocol fee to deduct from `_value`",
          "_to": "To address",
          "_value": "Amount of baseAsset value to transfer"
        }
      },
      "protocolPayment(address,address,uint256,uint256,address,uint256)": {
        "details": "Pay `_value` of `baseAsset` from `_from` to `_to` initiated by an authorized protocol",
        "params": {
          "_from": "From address",
          "_network": "Address of network fee collector",
          "_networkFee": "Network fee to deduct from `_value`",
          "_protocolFee": "Protocol fee to deduct from `_value`",
          "_to": "To address",
          "_value": "Amount of baseAsset value to transfer"
        }
      },
      "renounceOwnership()": {
        "details": "Leaves the contract without owner. It will not be possible to call `onlyOwner` functions anymore. Can only be called by the current owner. NOTE: Renouncing ownership will leave the contract without an owner, thereby removing any functionality that is only available to the owner."
      },
      "setFundingSource(uint8,address)": {
        "details": "Set the funding source and, if using a personal wallet, the asset to use for funding payments",
        "params": {
          "_fundingAsset": "Asset to use for payments (if using personal funding source)",
          "_fundingSource": "Funding source to use"
        }
      },
      "sharesForValue(uint256)": {
        "details": "Get the number of vault shares that represents a given value of the base asset",
        "params": {
          "_value": "Amount of value"
        }
      },
      "supportsAsset(address)": {
        "details": "Check if the vault supports an asset",
        "params": {
          "_asset": "Asset address"
        },
        "returns": {
          "_0": "bool `true` if asset supported, `false` otherwise"
        }
      },
      "symbol()": {
        "details": "Returns the symbol of the token, usually a shorter version of the name."
      },
      "totalAssetBalance(address)": {
        "details": "Get total amount of an asset held in vault and managed by admin",
        "params": {
          "_asset": "Address of asset"
        }
      },
      "totalSupply()": {
        "details": "See {IERC20-totalSupply}."
      },
      "totalValue()": {
        "details": "Get total value in vault and managed by admin - denominated in `baseAsset`"
      },
      "transfer(address,uint256)": {
        "details": "See {IERC20-transfer}. Requirements: - `recipient` cannot be the zero address. - the caller must have a balance of at least `amount`."
      },
      "transferFrom(address,address,uint256)": {
        "details": "See {IERC20-transferFrom}. Emits an {Approval} event indicating the updated allowance. This is not required by the EIP. See the note at the beginning of {ERC20}. Requirements: - `sender` and `recipient` cannot be the zero address. - `sender` must have a balance of at least `amount`. - the caller must have allowance for ``sender``'s tokens of at least `amount`."
      },
      "transferOwnership(address)": {
        "details": "Transfers ownership of the contract to a new account (`newOwner`). Can only be called by the current owner."
      },
      "transferValue(address,uint256)": {
        "details": "Transfer the equivalent vault shares of base asset `value` to `_recipient`",
        "params": {
          "_recipient": "To address",
          "_value": "Amount of baseAsset value to transfer"
        }
      },
      "transferValueFrom(address,address,uint256)": {
        "details": "Transfer the equivalent vault shares of base asset `value` from `_sender` to `_recipient`",
        "params": {
          "_recipient": "To address",
          "_sender": "From address",
          "_value": "Amount of baseAsset value to transfer"
        }
      },
      "withdraw(address,uint256)": {
        "details": "Withdraw an amount of shares from the vault in the form of `_asset`",
        "params": {
          "_asset": "Address of outgoing asset",
          "_shares": "Amount of shares to withdraw"
        }
      },
      "withdrawTo(address,address,uint256)": {
        "details": "Withdraw an amount of shares from the vault in the form of `_asset`",
        "params": {
          "_asset": "Address of outgoing asset",
          "_recipient": "Recipient who will receive the withdrawn assets",
          "_shares": "Amount of shares to withdraw"
        }
      }
    },
    "version": 1
  },
  "userdoc": {
    "kind": "user",
    "methods": {
      "isTrustedForwarder(address)": {
        "notice": "return if the forwarder is trusted to forward relayed transactions to us. the forwarder is required to verify the sender's signature, and verify the call is not a replay."
      }
    },
    "version": 1
  },
  "storageLayout": {
    "storage": [
      {
        "astId": 327,
        "contract": "contracts/vault/CaskVault.sol:CaskVault",
        "label": "_initialized",
        "offset": 0,
        "slot": "0",
        "type": "t_bool"
      },
      {
        "astId": 330,
        "contract": "contracts/vault/CaskVault.sol:CaskVault",
        "label": "_initializing",
        "offset": 1,
        "slot": "0",
        "type": "t_bool"
      },
      {
        "astId": 2551,
        "contract": "contracts/vault/CaskVault.sol:CaskVault",
        "label": "__gap",
        "offset": 0,
        "slot": "1",
        "type": "t_array(t_uint256)50_storage"
      },
      {
        "astId": 72,
        "contract": "contracts/vault/CaskVault.sol:CaskVault",
        "label": "_trustedForwarder",
        "offset": 0,
        "slot": "51",
        "type": "t_address"
      },
      {
        "astId": 584,
        "contract": "contracts/vault/CaskVault.sol:CaskVault",
        "label": "_balances",
        "offset": 0,
        "slot": "52",
        "type": "t_mapping(t_address,t_uint256)"
      },
      {
        "astId": 590,
        "contract": "contracts/vault/CaskVault.sol:CaskVault",
        "label": "_allowances",
        "offset": 0,
        "slot": "53",
        "type": "t_mapping(t_address,t_mapping(t_address,t_uint256))"
      },
      {
        "astId": 592,
        "contract": "contracts/vault/CaskVault.sol:CaskVault",
        "label": "_totalSupply",
        "offset": 0,
        "slot": "54",
        "type": "t_uint256"
      },
      {
        "astId": 594,
        "contract": "contracts/vault/CaskVault.sol:CaskVault",
        "label": "_name",
        "offset": 0,
        "slot": "55",
        "type": "t_string_storage"
      },
      {
        "astId": 596,
        "contract": "contracts/vault/CaskVault.sol:CaskVault",
        "label": "_symbol",
        "offset": 0,
        "slot": "56",
        "type": "t_string_storage"
      },
      {
        "astId": 1137,
        "contract": "contracts/vault/CaskVault.sol:CaskVault",
        "label": "__gap",
        "offset": 0,
        "slot": "57",
        "type": "t_array(t_uint256)45_storage"
      },
      {
        "astId": 205,
        "contract": "contracts/vault/CaskVault.sol:CaskVault",
        "label": "_owner",
        "offset": 0,
        "slot": "102",
        "type": "t_address"
      },
      {
        "astId": 319,
        "contract": "contracts/vault/CaskVault.sol:CaskVault",
        "label": "__gap",
        "offset": 0,
        "slot": "103",
        "type": "t_array(t_uint256)49_storage"
      },
      {
        "astId": 415,
        "contract": "contracts/vault/CaskVault.sol:CaskVault",
        "label": "_paused",
        "offset": 0,
        "slot": "152",
        "type": "t_bool"
      },
      {
        "astId": 506,
        "contract": "contracts/vault/CaskVault.sol:CaskVault",
        "label": "__gap",
        "offset": 0,
        "slot": "153",
        "type": "t_array(t_uint256)49_storage"
      },
      {
        "astId": 521,
        "contract": "contracts/vault/CaskVault.sol:CaskVault",
        "label": "_status",
        "offset": 0,
        "slot": "202",
        "type": "t_uint256"
      },
      {
        "astId": 564,
        "contract": "contracts/vault/CaskVault.sol:CaskVault",
        "label": "__gap",
        "offset": 0,
        "slot": "203",
        "type": "t_array(t_uint256)49_storage"
      },
      {
        "astId": 21544,
        "contract": "contracts/vault/CaskVault.sol:CaskVault",
        "label": "reserved1",
        "offset": 0,
        "slot": "252",
        "type": "t_address"
      },
      {
        "astId": 21546,
        "contract": "contracts/vault/CaskVault.sol:CaskVault",
        "label": "baseAsset",
        "offset": 0,
        "slot": "253",
        "type": "t_address"
      },
      {
        "astId": 21548,
        "contract": "contracts/vault/CaskVault.sol:CaskVault",
        "label": "feeDistributor",
        "offset": 0,
        "slot": "254",
        "type": "t_address"
      },
      {
        "astId": 21553,
        "contract": "contracts/vault/CaskVault.sol:CaskVault",
        "label": "assets",
        "offset": 0,
        "slot": "255",
        "type": "t_mapping(t_address,t_struct(Asset)13503_storage)"
      },
      {
        "astId": 21556,
        "contract": "contracts/vault/CaskVault.sol:CaskVault",
        "label": "allAssets",
        "offset": 0,
        "slot": "256",
        "type": "t_array(t_address)dyn_storage"
      },
      {
        "astId": 21559,
        "contract": "contracts/vault/CaskVault.sol:CaskVault",
        "label": "protocols",
        "offset": 0,
        "slot": "257",
        "type": "t_array(t_address)dyn_storage"
      },
      {
        "astId": 21561,
        "contract": "contracts/vault/CaskVault.sol:CaskVault",
        "label": "minDeposit",
        "offset": 0,
        "slot": "258",
        "type": "t_uint256"
      },
      {
        "astId": 21563,
        "contract": "contracts/vault/CaskVault.sol:CaskVault",
        "label": "maxPriceFeedAge",
        "offset": 0,
        "slot": "259",
        "type": "t_uint256"
      },
      {
        "astId": 21568,
        "contract": "contracts/vault/CaskVault.sol:CaskVault",
        "label": "fundingProfiles",
        "offset": 0,
        "slot": "260",
        "type": "t_mapping(t_address,t_struct(FundingProfile)13515_storage)"
      }
    ],
    "types": {
      "t_address": {
        "encoding": "inplace",
        "label": "address",
        "numberOfBytes": "20"
      },
      "t_array(t_address)dyn_storage": {
        "base": "t_address",
        "encoding": "dynamic_array",
        "label": "address[]",
        "numberOfBytes": "32"
      },
      "t_array(t_uint256)45_storage": {
        "base": "t_uint256",
        "encoding": "inplace",
        "label": "uint256[45]",
        "numberOfBytes": "1440"
      },
      "t_array(t_uint256)49_storage": {
        "base": "t_uint256",
        "encoding": "inplace",
        "label": "uint256[49]",
        "numberOfBytes": "1568"
      },
      "t_array(t_uint256)50_storage": {
        "base": "t_uint256",
        "encoding": "inplace",
        "label": "uint256[50]",
        "numberOfBytes": "1600"
      },
      "t_bool": {
        "encoding": "inplace",
        "label": "bool",
        "numberOfBytes": "1"
      },
      "t_enum(FundingSource)13509": {
        "encoding": "inplace",
        "label": "enum ICaskVault.FundingSource",
        "numberOfBytes": "1"
      },
      "t_enum(PriceFeedType)13506": {
        "encoding": "inplace",
        "label": "enum ICaskVault.PriceFeedType",
        "numberOfBytes": "1"
      },
      "t_mapping(t_address,t_mapping(t_address,t_uint256))": {
        "encoding": "mapping",
        "key": "t_address",
        "label": "mapping(address => mapping(address => uint256))",
        "numberOfBytes": "32",
        "value": "t_mapping(t_address,t_uint256)"
      },
      "t_mapping(t_address,t_struct(Asset)13503_storage)": {
        "encoding": "mapping",
        "key": "t_address",
        "label": "mapping(address => struct ICaskVault.Asset)",
        "numberOfBytes": "32",
        "value": "t_struct(Asset)13503_storage"
      },
      "t_mapping(t_address,t_struct(FundingProfile)13515_storage)": {
        "encoding": "mapping",
        "key": "t_address",
        "label": "mapping(address => struct ICaskVault.FundingProfile)",
        "numberOfBytes": "32",
        "value": "t_struct(FundingProfile)13515_storage"
      },
      "t_mapping(t_address,t_uint256)": {
        "encoding": "mapping",
        "key": "t_address",
        "label": "mapping(address => uint256)",
        "numberOfBytes": "32",
        "value": "t_uint256"
      },
      "t_string_storage": {
        "encoding": "bytes",
        "label": "string",
        "numberOfBytes": "32"
      },
      "t_struct(Asset)13503_storage": {
        "encoding": "inplace",
        "label": "struct ICaskVault.Asset",
        "members": [
          {
            "astId": 13487,
            "contract": "contracts/vault/CaskVault.sol:CaskVault",
            "label": "priceFeed",
            "offset": 0,
            "slot": "0",
            "type": "t_address"
          },
          {
            "astId": 13489,
            "contract": "contracts/vault/CaskVault.sol:CaskVault",
            "label": "slippageBps",
            "offset": 0,
            "slot": "1",
            "type": "t_uint256"
          },
          {
            "astId": 13491,
            "contract": "contracts/vault/CaskVault.sol:CaskVault",
            "label": "depositLimit",
            "offset": 0,
            "slot": "2",
            "type": "t_uint256"
          },
          {
            "astId": 13493,
            "contract": "contracts/vault/CaskVault.sol:CaskVault",
            "label": "assetDecimals",
            "offset": 0,
            "slot": "3",
            "type": "t_uint8"
          },
          {
            "astId": 13495,
            "contract": "contracts/vault/CaskVault.sol:CaskVault",
            "label": "priceFeedDecimals",
            "offset": 1,
            "slot": "3",
            "type": "t_uint8"
          },
          {
            "astId": 13497,
            "contract": "contracts/vault/CaskVault.sol:CaskVault",
            "label": "allowed",
            "offset": 2,
            "slot": "3",
            "type": "t_bool"
          },
          {
            "astId": 13500,
            "contract": "contracts/vault/CaskVault.sol:CaskVault",
            "label": "priceFeedType",
            "offset": 3,
            "slot": "3",
            "type": "t_enum(PriceFeedType)13506"
          },
          {
            "astId": 13502,
            "contract": "contracts/vault/CaskVault.sol:CaskVault",
            "label": "bandSymbol",
            "offset": 0,
            "slot": "4",
            "type": "t_string_storage"
          }
        ],
        "numberOfBytes": "160"
      },
      "t_struct(FundingProfile)13515_storage": {
        "encoding": "inplace",
        "label": "struct ICaskVault.FundingProfile",
        "members": [
          {
            "astId": 13512,
            "contract": "contracts/vault/CaskVault.sol:CaskVault",
            "label": "fundingSource",
            "offset": 0,
            "slot": "0",
            "type": "t_enum(FundingSource)13509"
          },
          {
            "astId": 13514,
            "contract": "contracts/vault/CaskVault.sol:CaskVault",
            "label": "fundingAsset",
            "offset": 1,
            "slot": "0",
            "type": "t_address"
          }
        ],
        "numberOfBytes": "32"
      },
      "t_uint256": {
        "encoding": "inplace",
        "label": "uint256",
        "numberOfBytes": "32"
      },
      "t_uint8": {
        "encoding": "inplace",
        "label": "uint8",
        "numberOfBytes": "1"
      }
    }
  }
}