{
  "address": "0x2A591f416EecEfF7C29436957b53736826D0BCD3",
  "abi": [
    {
      "inputs": [],
      "stateMutability": "nonpayable",
      "type": "constructor"
    },
    {
      "anonymous": false,
      "inputs": [
        {
          "indexed": true,
          "internalType": "address",
          "name": "strategy",
          "type": "address"
        },
        {
          "indexed": true,
          "internalType": "address",
          "name": "asset",
          "type": "address"
        },
        {
          "indexed": false,
          "internalType": "uint256",
          "name": "assetAmount",
          "type": "uint256"
        }
      ],
      "name": "AllocatedToStrategy",
      "type": "event"
    },
    {
      "anonymous": false,
      "inputs": [
        {
          "indexed": true,
          "internalType": "address",
          "name": "asset",
          "type": "address"
        }
      ],
      "name": "AllowedAsset",
      "type": "event"
    },
    {
      "anonymous": false,
      "inputs": [
        {
          "indexed": true,
          "internalType": "address",
          "name": "owner",
          "type": "address"
        },
        {
          "indexed": true,
          "internalType": "address",
          "name": "spender",
          "type": "address"
        },
        {
          "indexed": false,
          "internalType": "uint256",
          "name": "value",
          "type": "uint256"
        }
      ],
      "name": "Approval",
      "type": "event"
    },
    {
      "anonymous": false,
      "inputs": [
        {
          "indexed": true,
          "internalType": "address",
          "name": "participant",
          "type": "address"
        },
        {
          "indexed": true,
          "internalType": "address",
          "name": "asset",
          "type": "address"
        },
        {
          "indexed": false,
          "internalType": "uint256",
          "name": "assetAmount",
          "type": "uint256"
        },
        {
          "indexed": false,
          "internalType": "uint256",
          "name": "baseAssetAmount",
          "type": "uint256"
        },
        {
          "indexed": false,
          "internalType": "uint256",
          "name": "shares",
          "type": "uint256"
        }
      ],
      "name": "AssetDeposited",
      "type": "event"
    },
    {
      "anonymous": false,
      "inputs": [
        {
          "indexed": true,
          "internalType": "address",
          "name": "participant",
          "type": "address"
        },
        {
          "indexed": true,
          "internalType": "address",
          "name": "asset",
          "type": "address"
        },
        {
          "indexed": false,
          "internalType": "uint256",
          "name": "assetAmount",
          "type": "uint256"
        },
        {
          "indexed": false,
          "internalType": "uint256",
          "name": "baseAssetAmount",
          "type": "uint256"
        },
        {
          "indexed": false,
          "internalType": "uint256",
          "name": "shares",
          "type": "uint256"
        }
      ],
      "name": "AssetWithdrawn",
      "type": "event"
    },
    {
      "anonymous": false,
      "inputs": [
        {
          "indexed": true,
          "internalType": "address",
          "name": "previousOwner",
          "type": "address"
        },
        {
          "indexed": true,
          "internalType": "address",
          "name": "newOwner",
          "type": "address"
        }
      ],
      "name": "OwnershipTransferred",
      "type": "event"
    },
    {
      "anonymous": false,
      "inputs": [
        {
          "indexed": false,
          "internalType": "address",
          "name": "account",
          "type": "address"
        }
      ],
      "name": "Paused",
      "type": "event"
    },
    {
      "anonymous": false,
      "inputs": [
        {
          "indexed": true,
          "internalType": "address",
          "name": "from",
          "type": "address"
        },
        {
          "indexed": true,
          "internalType": "address",
          "name": "to",
          "type": "address"
        },
        {
          "indexed": false,
          "internalType": "uint256",
          "name": "baseAssetAmount",
          "type": "uint256"
        },
        {
          "indexed": false,
          "internalType": "uint256",
          "name": "baseAssetFee",
          "type": "uint256"
        },
        {
          "indexed": false,
          "internalType": "uint256",
          "name": "shares",
          "type": "uint256"
        }
      ],
      "name": "Payment",
      "type": "event"
    },
    {
      "anonymous": false,
      "inputs": [
        {
          "indexed": true,
          "internalType": "address",
          "name": "from",
          "type": "address"
        },
        {
          "indexed": true,
          "internalType": "address",
          "name": "to",
          "type": "address"
        },
        {
          "indexed": false,
          "internalType": "uint256",
          "name": "value",
          "type": "uint256"
        }
      ],
      "name": "Transfer",
      "type": "event"
    },
    {
      "anonymous": false,
      "inputs": [
        {
          "indexed": false,
          "internalType": "address",
          "name": "account",
          "type": "address"
        }
      ],
      "name": "Unpaused",
      "type": "event"
    },
    {
      "inputs": [
        {
          "internalType": "address",
          "name": "_protocol",
          "type": "address"
        }
      ],
      "name": "addProtocol",
      "outputs": [],
      "stateMutability": "nonpayable",
      "type": "function"
    },
    {
      "inputs": [
        {
          "internalType": "address",
          "name": "_strategy",
          "type": "address"
        },
        {
          "internalType": "address",
          "name": "_asset",
          "type": "address"
        },
        {
          "internalType": "uint256",
          "name": "_assetAmount",
          "type": "uint256"
        }
      ],
      "name": "allocateToStrategy",
      "outputs": [],
      "stateMutability": "nonpayable",
      "type": "function"
    },
    {
      "inputs": [
        {
          "internalType": "address",
          "name": "_asset",
          "type": "address"
        },
        {
          "internalType": "address",
          "name": "_priceFeed",
          "type": "address"
        },
        {
          "internalType": "uint256",
          "name": "_depositLimit",
          "type": "uint256"
        },
        {
          "internalType": "uint256",
          "name": "_slippageBps",
          "type": "uint256"
        }
      ],
      "name": "allowAsset",
      "outputs": [],
      "stateMutability": "nonpayable",
      "type": "function"
    },
    {
      "inputs": [
        {
          "internalType": "address",
          "name": "owner",
          "type": "address"
        },
        {
          "internalType": "address",
          "name": "spender",
          "type": "address"
        }
      ],
      "name": "allowance",
      "outputs": [
        {
          "internalType": "uint256",
          "name": "",
          "type": "uint256"
        }
      ],
      "stateMutability": "view",
      "type": "function"
    },
    {
      "inputs": [
        {
          "internalType": "address",
          "name": "spender",
          "type": "address"
        },
        {
          "internalType": "uint256",
          "name": "amount",
          "type": "uint256"
        }
      ],
      "name": "approve",
      "outputs": [
        {
          "internalType": "bool",
          "name": "",
          "type": "bool"
        }
      ],
      "stateMutability": "nonpayable",
      "type": "function"
    },
    {
      "inputs": [
        {
          "internalType": "address",
          "name": "account",
          "type": "address"
        }
      ],
      "name": "balanceOf",
      "outputs": [
        {
          "internalType": "uint256",
          "name": "",
          "type": "uint256"
        }
      ],
      "stateMutability": "view",
      "type": "function"
    },
    {
      "inputs": [],
      "name": "baseAsset",
      "outputs": [
        {
          "internalType": "address",
          "name": "",
          "type": "address"
        }
      ],
      "stateMutability": "view",
      "type": "function"
    },
    {
      "inputs": [
        {
          "internalType": "address",
          "name": "_fromAsset",
          "type": "address"
        },
        {
          "internalType": "address",
          "name": "_toAsset",
          "type": "address"
        },
        {
          "internalType": "uint256",
          "name": "_fromAmount",
          "type": "uint256"
        }
      ],
      "name": "convertPrice",
      "outputs": [
        {
          "internalType": "uint256",
          "name": "",
          "type": "uint256"
        }
      ],
      "stateMutability": "view",
      "type": "function"
    },
    {
      "inputs": [
        {
          "internalType": "address",
          "name": "_address",
          "type": "address"
        }
      ],
      "name": "currentValueOf",
      "outputs": [
        {
          "internalType": "uint256",
          "name": "",
          "type": "uint256"
        }
      ],
      "stateMutability": "view",
      "type": "function"
    },
    {
      "inputs": [],
      "name": "decimals",
      "outputs": [
        {
          "internalType": "uint8",
          "name": "",
          "type": "uint8"
        }
      ],
      "stateMutability": "view",
      "type": "function"
    },
    {
      "inputs": [
        {
          "internalType": "address",
          "name": "spender",
          "type": "address"
        },
        {
          "internalType": "uint256",
          "name": "subtractedValue",
          "type": "uint256"
        }
      ],
      "name": "decreaseAllowance",
      "outputs": [
        {
          "internalType": "bool",
          "name": "",
          "type": "bool"
        }
      ],
      "stateMutability": "nonpayable",
      "type": "function"
    },
    {
      "inputs": [
        {
          "internalType": "address",
          "name": "_asset",
          "type": "address"
        },
        {
          "internalType": "uint256",
          "name": "_assetAmount",
          "type": "uint256"
        }
      ],
      "name": "deposit",
      "outputs": [],
      "stateMutability": "nonpayable",
      "type": "function"
    },
    {
      "inputs": [
        {
          "internalType": "address",
          "name": "_to",
          "type": "address"
        },
        {
          "internalType": "address",
          "name": "_asset",
          "type": "address"
        },
        {
          "internalType": "uint256",
          "name": "_assetAmount",
          "type": "uint256"
        }
      ],
      "name": "depositTo",
      "outputs": [],
      "stateMutability": "nonpayable",
      "type": "function"
    },
    {
      "inputs": [],
      "name": "feeDistributor",
      "outputs": [
        {
          "internalType": "address",
          "name": "",
          "type": "address"
        }
      ],
      "stateMutability": "view",
      "type": "function"
    },
    {
      "inputs": [],
      "name": "getAllAssets",
      "outputs": [
        {
          "internalType": "address[]",
          "name": "",
          "type": "address[]"
        }
      ],
      "stateMutability": "view",
      "type": "function"
    },
    {
      "inputs": [
        {
          "internalType": "address",
          "name": "_asset",
          "type": "address"
        }
      ],
      "name": "getAsset",
      "outputs": [
        {
          "components": [
            {
              "internalType": "address",
              "name": "priceFeed",
              "type": "address"
            },
            {
              "internalType": "uint256",
              "name": "slippageBps",
              "type": "uint256"
            },
            {
              "internalType": "uint256",
              "name": "depositLimit",
              "type": "uint256"
            },
            {
              "internalType": "uint8",
              "name": "assetDecimals",
              "type": "uint8"
            },
            {
              "internalType": "uint8",
              "name": "priceFeedDecimals",
              "type": "uint8"
            },
            {
              "internalType": "bool",
              "name": "allowed",
              "type": "bool"
            }
          ],
          "internalType": "struct ICaskVault.Asset",
          "name": "",
          "type": "tuple"
        }
      ],
      "stateMutability": "view",
      "type": "function"
    },
    {
      "inputs": [],
      "name": "getBaseAsset",
      "outputs": [
        {
          "internalType": "address",
          "name": "",
          "type": "address"
        }
      ],
      "stateMutability": "view",
      "type": "function"
    },
    {
      "inputs": [
        {
          "internalType": "address",
          "name": "spender",
          "type": "address"
        },
        {
          "internalType": "uint256",
          "name": "addedValue",
          "type": "uint256"
        }
      ],
      "name": "increaseAllowance",
      "outputs": [
        {
          "internalType": "bool",
          "name": "",
          "type": "bool"
        }
      ],
      "stateMutability": "nonpayable",
      "type": "function"
    },
    {
      "inputs": [
        {
          "internalType": "address",
          "name": "_vaultManager",
          "type": "address"
        },
        {
          "internalType": "address",
          "name": "_baseAsset",
          "type": "address"
        },
        {
          "internalType": "address",
          "name": "_baseAssetPriceFeed",
          "type": "address"
        },
        {
          "internalType": "address",
          "name": "_feeDistributor",
          "type": "address"
        }
      ],
      "name": "initialize",
      "outputs": [],
      "stateMutability": "nonpayable",
      "type": "function"
    },
    {
      "inputs": [
        {
          "internalType": "address",
          "name": "forwarder",
          "type": "address"
        }
      ],
      "name": "isTrustedForwarder",
      "outputs": [
        {
          "internalType": "bool",
          "name": "",
          "type": "bool"
        }
      ],
      "stateMutability": "view",
      "type": "function"
    },
    {
      "inputs": [],
      "name": "name",
      "outputs": [
        {
          "internalType": "string",
          "name": "",
          "type": "string"
        }
      ],
      "stateMutability": "view",
      "type": "function"
    },
    {
      "inputs": [],
      "name": "owner",
      "outputs": [
        {
          "internalType": "address",
          "name": "",
          "type": "address"
        }
      ],
      "stateMutability": "view",
      "type": "function"
    },
    {
      "inputs": [],
      "name": "pause",
      "outputs": [],
      "stateMutability": "nonpayable",
      "type": "function"
    },
    {
      "inputs": [],
      "name": "paused",
      "outputs": [
        {
          "internalType": "bool",
          "name": "",
          "type": "bool"
        }
      ],
      "stateMutability": "view",
      "type": "function"
    },
    {
      "inputs": [],
      "name": "pricePerShare",
      "outputs": [
        {
          "internalType": "uint256",
          "name": "",
          "type": "uint256"
        }
      ],
      "stateMutability": "view",
      "type": "function"
    },
    {
      "inputs": [],
      "name": "protocolCount",
      "outputs": [
        {
          "internalType": "uint256",
          "name": "",
          "type": "uint256"
        }
      ],
      "stateMutability": "view",
      "type": "function"
    },
    {
      "inputs": [
        {
          "internalType": "address",
          "name": "_from",
          "type": "address"
        },
        {
          "internalType": "address",
          "name": "_to",
          "type": "address"
        },
        {
          "internalType": "uint256",
          "name": "_value",
          "type": "uint256"
        },
        {
          "internalType": "uint256",
          "name": "_protocolFee",
          "type": "uint256"
        },
        {
          "internalType": "address",
          "name": "_network",
          "type": "address"
        },
        {
          "internalType": "uint256",
          "name": "_networkFee",
          "type": "uint256"
        }
      ],
      "name": "protocolPayment",
      "outputs": [],
      "stateMutability": "nonpayable",
      "type": "function"
    },
    {
      "inputs": [
        {
          "internalType": "address",
          "name": "_from",
          "type": "address"
        },
        {
          "internalType": "address",
          "name": "_to",
          "type": "address"
        },
        {
          "internalType": "uint256",
          "name": "_value",
          "type": "uint256"
        }
      ],
      "name": "protocolPayment",
      "outputs": [],
      "stateMutability": "nonpayable",
      "type": "function"
    },
    {
      "inputs": [
        {
          "internalType": "address",
          "name": "_from",
          "type": "address"
        },
        {
          "internalType": "address",
          "name": "_to",
          "type": "address"
        },
        {
          "internalType": "uint256",
          "name": "_value",
          "type": "uint256"
        },
        {
          "internalType": "uint256",
          "name": "_protocolFee",
          "type": "uint256"
        }
      ],
      "name": "protocolPayment",
      "outputs": [],
      "stateMutability": "nonpayable",
      "type": "function"
    },
    {
      "inputs": [
        {
          "internalType": "uint256",
          "name": "",
          "type": "uint256"
        }
      ],
      "name": "protocols",
      "outputs": [
        {
          "internalType": "address",
          "name": "",
          "type": "address"
        }
      ],
      "stateMutability": "view",
      "type": "function"
    },
    {
      "inputs": [
        {
          "internalType": "address",
          "name": "_protocol",
          "type": "address"
        }
      ],
      "name": "removeProtocol",
      "outputs": [],
      "stateMutability": "nonpayable",
      "type": "function"
    },
    {
      "inputs": [],
      "name": "renounceOwnership",
      "outputs": [],
      "stateMutability": "nonpayable",
      "type": "function"
    },
    {
      "inputs": [
        {
          "internalType": "address",
          "name": "_feeDistributor",
          "type": "address"
        }
      ],
      "name": "setFeeDistributor",
      "outputs": [],
      "stateMutability": "nonpayable",
      "type": "function"
    },
    {
      "inputs": [
        {
          "internalType": "address",
          "name": "_vaultManager",
          "type": "address"
        }
      ],
      "name": "setManager",
      "outputs": [],
      "stateMutability": "nonpayable",
      "type": "function"
    },
    {
      "inputs": [
        {
          "internalType": "address",
          "name": "_forwarder",
          "type": "address"
        }
      ],
      "name": "setTrustedForwarder",
      "outputs": [],
      "stateMutability": "nonpayable",
      "type": "function"
    },
    {
      "inputs": [
        {
          "internalType": "address",
          "name": "_asset",
          "type": "address"
        }
      ],
      "name": "supportsAsset",
      "outputs": [
        {
          "internalType": "bool",
          "name": "",
          "type": "bool"
        }
      ],
      "stateMutability": "view",
      "type": "function"
    },
    {
      "inputs": [],
      "name": "symbol",
      "outputs": [
        {
          "internalType": "string",
          "name": "",
          "type": "string"
        }
      ],
      "stateMutability": "view",
      "type": "function"
    },
    {
      "inputs": [
        {
          "internalType": "address",
          "name": "_asset",
          "type": "address"
        }
      ],
      "name": "totalAssetBalance",
      "outputs": [
        {
          "internalType": "uint256",
          "name": "",
          "type": "uint256"
        }
      ],
      "stateMutability": "view",
      "type": "function"
    },
    {
      "inputs": [],
      "name": "totalSupply",
      "outputs": [
        {
          "internalType": "uint256",
          "name": "",
          "type": "uint256"
        }
      ],
      "stateMutability": "view",
      "type": "function"
    },
    {
      "inputs": [],
      "name": "totalValue",
      "outputs": [
        {
          "internalType": "uint256",
          "name": "",
          "type": "uint256"
        }
      ],
      "stateMutability": "view",
      "type": "function"
    },
    {
      "inputs": [
        {
          "internalType": "address",
          "name": "recipient",
          "type": "address"
        },
        {
          "internalType": "uint256",
          "name": "amount",
          "type": "uint256"
        }
      ],
      "name": "transfer",
      "outputs": [
        {
          "internalType": "bool",
          "name": "",
          "type": "bool"
        }
      ],
      "stateMutability": "nonpayable",
      "type": "function"
    },
    {
      "inputs": [
        {
          "internalType": "address",
          "name": "sender",
          "type": "address"
        },
        {
          "internalType": "address",
          "name": "recipient",
          "type": "address"
        },
        {
          "internalType": "uint256",
          "name": "amount",
          "type": "uint256"
        }
      ],
      "name": "transferFrom",
      "outputs": [
        {
          "internalType": "bool",
          "name": "",
          "type": "bool"
        }
      ],
      "stateMutability": "nonpayable",
      "type": "function"
    },
    {
      "inputs": [
        {
          "internalType": "address",
          "name": "newOwner",
          "type": "address"
        }
      ],
      "name": "transferOwnership",
      "outputs": [],
      "stateMutability": "nonpayable",
      "type": "function"
    },
    {
      "inputs": [],
      "name": "trustedForwarder",
      "outputs": [
        {
          "internalType": "address",
          "name": "",
          "type": "address"
        }
      ],
      "stateMutability": "view",
      "type": "function"
    },
    {
      "inputs": [],
      "name": "unpause",
      "outputs": [],
      "stateMutability": "nonpayable",
      "type": "function"
    },
    {
      "inputs": [],
      "name": "vaultManager",
      "outputs": [
        {
          "internalType": "address",
          "name": "",
          "type": "address"
        }
      ],
      "stateMutability": "view",
      "type": "function"
    },
    {
      "inputs": [],
      "name": "versionRecipient",
      "outputs": [
        {
          "internalType": "string",
          "name": "",
          "type": "string"
        }
      ],
      "stateMutability": "view",
      "type": "function"
    },
    {
      "inputs": [
        {
          "internalType": "address",
          "name": "_asset",
          "type": "address"
        },
        {
          "internalType": "uint256",
          "name": "_shares",
          "type": "uint256"
        }
      ],
      "name": "withdraw",
      "outputs": [],
      "stateMutability": "nonpayable",
      "type": "function"
    },
    {
      "inputs": [
        {
          "internalType": "address",
          "name": "_recipient",
          "type": "address"
        },
        {
          "internalType": "address",
          "name": "_asset",
          "type": "address"
        },
        {
          "internalType": "uint256",
          "name": "_shares",
          "type": "uint256"
        }
      ],
      "name": "withdrawTo",
      "outputs": [],
      "stateMutability": "nonpayable",
      "type": "function"
    }
  ],
  "transactionHash": "0x92ba1031139b4f5f0f492a5cee789dc1887d03e2c931117c17b11fbddf1c4af3",
  "args": [],
  "numDeployments": 1,
  "solcInputHash": "4d49416dce2f6b5170ba81e669bb2887",
  "bytecode": "0x60c060405260056080819052640322e322e360dc1b60a09081526200002991610102919062000128565b503480156200003757600080fd5b50600054610100900460ff16620000555760005460ff16156200005f565b6200005f62000104565b620000c75760405162461bcd60e51b815260206004820152602e60248201527f496e697469616c697a61626c653a20636f6e747261637420697320616c72656160448201526d191e481a5b9a5d1a585b1a5e995960921b606482015260840160405180910390fd5b600054610100900460ff16158015620000ea576000805461ffff19166101011790555b8015620000fd576000805461ff00191690555b506200020b565b60006200011c306200012260201b62001d861760201c565b15905090565b3b151590565b8280546200013690620001ce565b90600052602060002090601f0160209004810192826200015a5760008555620001a5565b82601f106200017557805160ff1916838001178555620001a5565b82800160010185558215620001a5579182015b82811115620001a557825182559160200191906001019062000188565b50620001b3929150620001b7565b5090565b5b80821115620001b35760008155600101620001b8565b600181811c90821680620001e357607f821691505b602082108114156200020557634e487b7160e01b600052602260045260246000fd5b50919050565b613ac3806200021b6000396000f3fe608060405234801561001057600080fd5b50600436106102bb5760003560e01c80638456cb5911610182578063ccfc2e8d116100e9578063e2eed04f116100a2578063f2fde38b1161007c578063f2fde38b1461074b578063f3fef3a31461075e578063f8c8765e14610771578063fcd6a25b1461078457600080fd5b8063e2eed04f1461071c578063e513032214610725578063f213159c1461073857600080fd5b8063ccfc2e8d1461068f578063cdf456e1146106a2578063d0ebdbe7146106b5578063d4c3eea0146106c8578063da742228146106d0578063dd62ed3e146106e357600080fd5b806395d89b411161013b57806395d89b411461061057806399530b0614610618578063a457c2d714610620578063a9059cbb14610633578063aa388af614610646578063c3b35a7e1461067c57600080fd5b80638456cb59146105ad5780638a4adf24146105b55780638c396220146105c85780638d3a4af6146105db5780638da5cb5b146105ec5780638e3e580d146105fd57600080fd5b806347e7ef24116102265780635c975abb116101df5780635c975abb1461053a57806370a0823114610545578063715018a61461056e578063771d4c281461057657806379b2125f146105895780637da0a8771461059c57600080fd5b806347e7ef24146104c4578063486ff0cd146104d75780634bb846e1146104df5780635517575d146104f2578063572b6c0514610505578063597435cb1461052757600080fd5b806323b872dd1161027857806323b872dd146103665780632acada4d1461037957806330b8b2c61461038e578063313ce5671461049a57806339509351146104a95780633f4ba83a146104bc57600080fd5b806306fdde03146102c0578063095ea7b3146102de5780630d43e8ad1461030157806318160ddd1461032c57806318ff57681461033e5780631e377d3914610353575b600080fd5b6102c8610797565b6040516102d59190613429565b60405180910390f35b6102f16102ec366004613473565b610829565b60405190151581526020016102d5565b60fe54610314906001600160a01b031681565b6040516001600160a01b0390911681526020016102d5565b6036545b6040519081526020016102d5565b61035161034c36600461349d565b610847565b005b6103516103613660046134b8565b6109bf565b6102f16103743660046134fa565b610d6c565b610381610e3f565b6040516102d59190613536565b61043e61039c36600461349d565b6040805160c081018252600080825260208201819052918101829052606081018290526080810182905260a0810191909152506001600160a01b03908116600090815260ff6020818152604092839020835160c08101855281549095168552600181015491850191909152600281015492840192909252600390910154808216606084015261010081048216608084015262010000900416151560a082015290565b6040516102d59190600060c08201905060018060a01b038351168252602083015160208301526040830151604083015260ff606084015116606083015260ff608084015116608083015260a0830151151560a083015292915050565b604051601281526020016102d5565b6102f16104b7366004613473565b610ea1565b610351610ef5565b6103516104d2366004613473565b610f48565b6102c8610f8b565b6103306104ed3660046134fa565b61101a565b61033061050036600461349d565b61102f565b6102f161051336600461349d565b6033546001600160a01b0391821691161490565b61033061053536600461349d565b61103a565b60985460ff166102f1565b61033061055336600461349d565b6001600160a01b031660009081526034602052604090205490565b610351611061565b61035161058436600461349d565b6110b4565b610351610597366004613583565b611150565b6033546001600160a01b0316610314565b61035161121c565b60fc54610314906001600160a01b031681565b6103146105d63660046135e2565b61126d565b60fd546001600160a01b0316610314565b6066546001600160a01b0316610314565b61035161060b3660046134fa565b611298565b6102c8611363565b610330611372565b6102f161062e366004613473565b6113a7565b6102f1610641366004613473565b61145e565b6102f161065436600461349d565b6001600160a01b0316600090815260ff60208190526040909120600301546201000090041690565b61035161068a3660046134fa565b611472565b61035161069d36600461349d565b6114af565b60fd54610314906001600160a01b031681565b6103516106c336600461349d565b61151a565b610330611585565b6103516106de36600461349d565b61158f565b6103306106f13660046135fb565b6001600160a01b03918216600090815260356020908152604080832093909416825291909152205490565b61010154610330565b6103516107333660046134fa565b6115f9565b6103516107463660046134fa565b61172a565b61035161075936600461349d565b61175d565b61035161076c366004613473565b611814565b61035161077f36600461362e565b61184e565b6103516107923660046134b8565b611cbb565b6060603780546107a690613682565b80601f01602080910402602001604051908101604052809291908181526020018280546107d290613682565b801561081f5780601f106107f45761010080835404028352916020019161081f565b820191906000526020600020905b81548152906001019060200180831161080257829003601f168201915b5050505050905090565b600061083d610836611d8c565b8484611d96565b5060015b92915050565b61084f611d8c565b6001600160a01b031661086a6066546001600160a01b031690565b6001600160a01b0316146108995760405162461bcd60e51b8152600401610890906136b7565b60405180910390fd5b6101015460005b610101548110156108fe57826001600160a01b031661010182815481106108c9576108c96136ec565b6000918252602090912001546001600160a01b031614156108ec578091506108fe565b806108f681613718565b9150506108a0565b50610101548110156109bb57610101805461091b90600190613733565b8154811061092b5761092b6136ec565b60009182526020909120015461010180546001600160a01b039092169183908110610958576109586136ec565b9060005260206000200160006101000a8154816001600160a01b0302191690836001600160a01b031602179055506101018054806109985761099861374a565b600082815260209020810160001990810180546001600160a01b03191690550190555b5050565b6109c7611d8c565b6001600160a01b03166109e26066546001600160a01b031690565b6001600160a01b031614610a085760405162461bcd60e51b8152600401610890906136b7565b6000846001600160a01b031663313ce5676040518163ffffffff1660e01b815260040160206040518083038186803b158015610a4357600080fd5b505afa158015610a57573d6000803e3d6000fd5b505050506040513d601f19601f82011682018060405250810190610a7b9190613760565b60ff1611610abd5760405162461bcd60e51b815260206004820152600f60248201526e21494e56414c49442861737365742960881b6044820152606401610890565b6000836001600160a01b031663313ce5676040518163ffffffff1660e01b815260040160206040518083038186803b158015610af857600080fd5b505afa158015610b0c573d6000803e3d6000fd5b505050506040513d601f19601f82011682018060405250810190610b309190613760565b60ff1611610b765760405162461bcd60e51b815260206004820152601360248201527221494e56414c4944287072696365466565642960681b6044820152606401610890565b6001600160a01b03848116600081815260ff602090815260409182902080546001600160a01b0319169488169490941784556002840186905560018401859055815163313ce56760e01b8152915163313ce567926004808201939291829003018186803b158015610be657600080fd5b505afa158015610bfa573d6000803e3d6000fd5b505050506040513d601f19601f82011682018060405250810190610c1e9190613760565b8160030160006101000a81548160ff021916908360ff160217905550836001600160a01b031663313ce5676040518163ffffffff1660e01b815260040160206040518083038186803b158015610c7357600080fd5b505afa158015610c87573d6000803e3d6000fd5b505050506040513d601f19601f82011682018060405250810190610cab9190613760565b60038201805461ff00191661010060ff93841602179081905562010000900416610d315760038101805462ff000019166201000017905561010080546001810182556000919091527f45e010b9ae401e2eb71529478da8bd513a9bdc2d095a111e324f5b95c09ed87b0180546001600160a01b0387166001600160a01b03199091161790555b6040516001600160a01b038616907f06a94869c30cb7089f57f8d4a5ff251ac74a8c2bc361e7f91bda209898de8ead90600090a25050505050565b6000610d79848484611eba565b6001600160a01b038416600090815260356020526040812081610d9a611d8c565b6001600160a01b03166001600160a01b0316815260200190815260200160002054905082811015610e1e5760405162461bcd60e51b815260206004820152602860248201527f45524332303a207472616e7366657220616d6f756e74206578636565647320616044820152676c6c6f77616e636560c01b6064820152608401610890565b610e3285610e2a611d8c565b858403611d96565b60019150505b9392505050565b606061010080548060200260200160405190810160405280929190818152602001828054801561081f57602002820191906000526020600020905b81546001600160a01b03168152600190910190602001808311610e7a575050505050905090565b600061083d610eae611d8c565b848460356000610ebc611d8c565b6001600160a01b03908116825260208083019390935260409182016000908120918b1681529252902054610ef09190613783565b611d96565b610efd611d8c565b6001600160a01b0316610f186066546001600160a01b031690565b6001600160a01b031614610f3e5760405162461bcd60e51b8152600401610890906136b7565b610f46612081565b565b600260ca541415610f6b5760405162461bcd60e51b81526004016108909061379b565b600260ca55610f82610f7b611d8c565b838361211a565b5050600160ca55565b6101028054610f9990613682565b80601f0160208091040260200160405190810160405280929190818152602001828054610fc590613682565b80156110125780601f10610fe757610100808354040283529160200191611012565b820191906000526020600020905b815481529060010190602001808311610ff557829003601f168201915b505050505081565b60006110278484846122a9565b949350505050565b6000610841826126af565b6001600160a01b038116600090815260346020526040812054610841906127ae565b6127ae565b611069611d8c565b6001600160a01b03166110846066546001600160a01b031690565b6001600160a01b0316146110aa5760405162461bcd60e51b8152600401610890906136b7565b610f4660006127e0565b6110bc611d8c565b6001600160a01b03166110d76066546001600160a01b031690565b6001600160a01b0316146110fd5760405162461bcd60e51b8152600401610890906136b7565b61010180546001810182556000919091527f109ea3cebb188b9c1b9fc5bb3920be60dfdc8699098dff92f3d80daaca7476890180546001600160a01b0319166001600160a01b0392909216919091179055565b600260ca5414156111735760405162461bcd60e51b81526004016108909061379b565b600260ca556000805b610101548110156111e257610101818154811061119b5761119b6136ec565b6000918252602090912001546001600160a01b03166111b8611d8c565b6001600160a01b031614156111d057600191506111e2565b806111da81613718565b91505061117c565b50806112005760405162461bcd60e51b8152600401610890906137d2565b61120e878787878787612832565b5050600160ca555050505050565b611224611d8c565b6001600160a01b031661123f6066546001600160a01b031690565b6001600160a01b0316146112655760405162461bcd60e51b8152600401610890906136b7565b610f46612913565b610101818154811061127e57600080fd5b6000918252602090912001546001600160a01b0316905081565b600260ca5414156112bb5760405162461bcd60e51b81526004016108909061379b565b600260ca556000805b6101015481101561132a5761010181815481106112e3576112e36136ec565b6000918252602090912001546001600160a01b0316611300611d8c565b6001600160a01b03161415611318576001915061132a565b8061132281613718565b9150506112c4565b50806113485760405162461bcd60e51b8152600401610890906137d2565b6113588484846000806000612832565b5050600160ca555050565b6060603880546107a690613682565b60fd546001600160a01b0316600090815260ff602081905260408220600301546113a29161105c9116600a6138d5565b905090565b600080603560006113b6611d8c565b6001600160a01b03908116825260208083019390935260409182016000908120918816815292529020549050828110156114405760405162461bcd60e51b815260206004820152602560248201527f45524332303a2064656372656173656420616c6c6f77616e63652062656c6f77604482015264207a65726f60d81b6064820152608401610890565b61145461144b611d8c565b85858403611d96565b5060019392505050565b600061083d61146b611d8c565b8484611eba565b600260ca5414156114955760405162461bcd60e51b81526004016108909061379b565b600260ca556114a583838361298f565b5050600160ca5550565b6114b7611d8c565b6001600160a01b03166114d26066546001600160a01b031690565b6001600160a01b0316146114f85760405162461bcd60e51b8152600401610890906136b7565b60fe80546001600160a01b0319166001600160a01b0392909216919091179055565b611522611d8c565b6001600160a01b031661153d6066546001600160a01b031690565b6001600160a01b0316146115635760405162461bcd60e51b8152600401610890906136b7565b60fc80546001600160a01b0319166001600160a01b0392909216919091179055565b60006113a2612b0d565b611597611d8c565b6001600160a01b03166115b26066546001600160a01b031690565b6001600160a01b0316146115d85760405162461bcd60e51b8152600401610890906136b7565b603380546001600160a01b0319166001600160a01b03831617905550565b50565b6000805b6101015481101561166357610101818154811061161c5761161c6136ec565b6000918252602090912001546001600160a01b0316611639611d8c565b6001600160a01b031614156116515760019150611663565b8061165b81613718565b9150506115fd565b50806116815760405162461bcd60e51b8152600401610890906137d2565b6001600160a01b038316600090815260ff6020819052604090912060030154620100009004166116c35760405162461bcd60e51b8152600401610890906138e4565b6116d76001600160a01b0384168584612c11565b826001600160a01b0316846001600160a01b03167f4d0df46bea966973af88bd9f2ec263268a205e0a196a519fca0aded1b05256488460405161171c91815260200190565b60405180910390a350505050565b600260ca54141561174d5760405162461bcd60e51b81526004016108909061379b565b600260ca556114a583838361211a565b611765611d8c565b6001600160a01b03166117806066546001600160a01b031690565b6001600160a01b0316146117a65760405162461bcd60e51b8152600401610890906136b7565b6001600160a01b03811661180b5760405162461bcd60e51b815260206004820152602660248201527f4f776e61626c653a206e6577206f776e657220697320746865207a65726f206160448201526564647265737360d01b6064820152608401610890565b6115f6816127e0565b600260ca5414156118375760405162461bcd60e51b81526004016108909061379b565b600260ca55610f82611847611d8c565b838361298f565b600054610100900460ff166118695760005460ff161561186d565b303b155b6118d05760405162461bcd60e51b815260206004820152602e60248201527f496e697469616c697a61626c653a20636f6e747261637420697320616c72656160448201526d191e481a5b9a5d1a585b1a5e995960921b6064820152608401610890565b600054610100900460ff161580156118f2576000805461ffff19166101011790555b6118fa612c79565b611902612cb0565b61190a612ce7565b61195a604051806040016040528060118152602001704361736b205661756c742053686172657360781b81525060405180604001604052806005815260200164764341534b60d81b815250612d16565b6000846001600160a01b031663313ce5676040518163ffffffff1660e01b815260040160206040518083038186803b15801561199557600080fd5b505afa1580156119a9573d6000803e3d6000fd5b505050506040513d601f19601f820116820180604052508101906119cd9190613760565b60ff1611611a135760405162461bcd60e51b815260206004820152601360248201527221494e56414c4944286261736541737365742960681b6044820152606401610890565b6000836001600160a01b031663313ce5676040518163ffffffff1660e01b815260040160206040518083038186803b158015611a4e57600080fd5b505afa158015611a62573d6000803e3d6000fd5b505050506040513d601f19601f82011682018060405250810190611a869190613760565b60ff1611611ad65760405162461bcd60e51b815260206004820152601c60248201527f21494e56414c49442862617365417373657450726963654665656429000000006044820152606401610890565b6001600160a01b03848116600081815260ff602090815260409182902080546001600160a01b031916948816949094178455815163313ce56760e01b8152915163313ce567926004808201939291829003018186803b158015611b3857600080fd5b505afa158015611b4c573d6000803e3d6000fd5b505050506040513d601f19601f82011682018060405250810190611b709190613760565b8160030160006101000a81548160ff021916908360ff160217905550836001600160a01b031663313ce5676040518163ffffffff1660e01b815260040160206040518083038186803b158015611bc557600080fd5b505afa158015611bd9573d6000803e3d6000fd5b505050506040513d601f19601f82011682018060405250810190611bfd9190613760565b600382018054600060019485018190556201000062ffff001990921661010060ff95909516850262ff00001916179190911790915581549283018255527f45e010b9ae401e2eb71529478da8bd513a9bdc2d095a111e324f5b95c09ed87b0180546001600160a01b03199081166001600160a01b0387811691821790935560fc8054831689851617905560fd80548316909117905560fe80549091169184169190911790558015611cb4576000805461ff00191690555b5050505050565b600260ca541415611cde5760405162461bcd60e51b81526004016108909061379b565b600260ca556000805b61010154811015611d4d576101018181548110611d0657611d066136ec565b6000918252602090912001546001600160a01b0316611d23611d8c565b6001600160a01b03161415611d3b5760019150611d4d565b80611d4581613718565b915050611ce7565b5080611d6b5760405162461bcd60e51b8152600401610890906137d2565b611d7a85858585600080612832565b5050600160ca55505050565b3b151590565b60006113a2612d4f565b6001600160a01b038316611df85760405162461bcd60e51b8152602060048201526024808201527f45524332303a20617070726f76652066726f6d20746865207a65726f206164646044820152637265737360e01b6064820152608401610890565b6001600160a01b038216611e595760405162461bcd60e51b815260206004820152602260248201527f45524332303a20617070726f766520746f20746865207a65726f206164647265604482015261737360f01b6064820152608401610890565b6001600160a01b0383811660008181526035602090815260408083209487168084529482529182902085905590518481527f8c5be1e5ebec7d5bd14f71427d1e84f3dd0314c0f7b2291e5b200ac8c7c3b925910160405180910390a3505050565b6001600160a01b038316611f1e5760405162461bcd60e51b815260206004820152602560248201527f45524332303a207472616e736665722066726f6d20746865207a65726f206164604482015264647265737360d81b6064820152608401610890565b6001600160a01b038216611f805760405162461bcd60e51b815260206004820152602360248201527f45524332303a207472616e7366657220746f20746865207a65726f206164647260448201526265737360e81b6064820152608401610890565b6001600160a01b03831660009081526034602052604090205481811015611ff85760405162461bcd60e51b815260206004820152602660248201527f45524332303a207472616e7366657220616d6f756e7420657863656564732062604482015265616c616e636560d01b6064820152608401610890565b6001600160a01b0380851660009081526034602052604080822085850390559185168152908120805484929061202f908490613783565b92505081905550826001600160a01b0316846001600160a01b03167fddf252ad1be2c89b69c2b068fc378daa952ba7f163c4a11628f55a4df523b3ef8460405161171c91815260200190565b50505050565b60985460ff166120ca5760405162461bcd60e51b815260206004820152601460248201527314185d5cd8589b194e881b9bdd081c185d5cd95960621b6044820152606401610890565b6098805460ff191690557f5db9ee0a495bf2e6ff9c91a7834c1ba4fdd244a5e8aa4e537bd38aeae4b073aa6120fd611d8c565b6040516001600160a01b03909116815260200160405180910390a1565b6001600160a01b038216600090815260ff60208190526040909120600301546201000090041661215c5760405162461bcd60e51b8152600401610890906138e4565b600081116121a45760405162461bcd60e51b815260206004820152601560248201527421494e56414c4944286173736574416d6f756e742960581b6044820152606401610890565b60fd5481906001600160a01b0384811691161461221c576001600160a01b038316600090815260ff602052604081206001810154909190612710906121e99086613911565b6121f39190613930565b60fd549091506122179086906001600160a01b03166122128488613733565b6122a9565b925050505b600061222782612d83565b9050612246612234611d8c565b6001600160a01b038616903086612dad565b6122508582612de5565b60408051848152602081018490529081018290526001600160a01b0380861691908716907fbef68d45f01f5e2c114616dc4840e7a543da6ec57afc5700e4be96056a899b4e906060015b60405180910390a35050505050565b6000826001600160a01b0316846001600160a01b031614156123025760405162461bcd60e51b815260206004820152601260248201527108525395905312510a199c9bdb505cdcd95d60721b6044820152606401610890565b6001600160a01b038416600090815260ff6020819052604090912060030154620100009004166123745760405162461bcd60e51b815260206004820152601760248201527f214e4f545f414c4c4f5745442866726f6d4173736574290000000000000000006044820152606401610890565b6001600160a01b038316600090815260ff6020819052604090912060030154620100009004166123de5760405162461bcd60e51b8152602060048201526015602482015274214e4f545f414c4c4f57454428746f41737365742960581b6044820152606401610890565b816123eb57506000610e38565b6001600160a01b03808516600090815260ff6020526040808220548151633fabe5a360e21b815291519293169163feaf968c9160048082019260a092909190829003018186803b15801561243e57600080fd5b505afa158015612452573d6000803e3d6000fd5b505050506040513d601f19601f82011682018060405250810190612476919061396c565b5050506001600160a01b03808716600090815260ff602052604090819020548151633fabe5a360e21b815291519395508594509091169163feaf968c9160048082019260a092909190829003018186803b1580156124d357600080fd5b505afa1580156124e7573d6000803e3d6000fd5b505050506040513d601f19601f8201168201806040525081019061250b919061396c565b5050506001600160a01b03808816600090815260ff60208190526040808320600390810154948d168452922090910154929550859350610100928390048116929091041614612624576001600160a01b038616600090815260ff6020819052604090912060030154612587918391610100810482169116612ec4565b6001600160a01b03808916600090815260ff60208190526040808320600390810154948c1684529220909101546125c992869261010090910481169116612ec4565b6001600160a01b03808a16600090815260ff60208190526040808320600390810154948d168452922090910154612606928a929081169116612ec4565b6126109190613911565b61261a9190613930565b9350505050610e38565b6001600160a01b03808816600090815260ff60208190526040808320600390810154948b16845292209091015461261a928492869261266e928b9290811691610100900416612ec4565b6126789190613911565b6126829190613930565b6001600160a01b038816600090815260ff6020819052604090912060030154610100810482169116612ec4565b60fc5460405163368317c160e21b81526001600160a01b038381166004830152600092169063da0c5f049060240160206040518083038186803b1580156126f557600080fd5b505afa158015612709573d6000803e3d6000fd5b505050506040513d601f19601f8201168201806040525081019061272d91906139bc565b6040516370a0823160e01b81523060048201526001600160a01b038416906370a082319060240160206040518083038186803b15801561276c57600080fd5b505afa158015612780573d6000803e3d6000fd5b505050506040513d601f19601f820116820180604052508101906127a491906139bc565b6108419190613783565b60006127b960365490565b6127c1575090565b6036546127cc612b0d565b6127d69084613911565b6108419190613930565b606680546001600160a01b038381166001600160a01b0319831681179093556040519116919082907f8be0079c531659141344cd1fd0a4f28419497f9722a3daafe3b4186f6b6457e090600090a35050565b600061283d85612d83565b9050600084156128535761285085612d83565b90505b6000808411801561286c57506001600160a01b03851615155b1561287d5761287a84612d83565b90505b612888898985611eba565b81156128a65760fe546128a69089906001600160a01b031684611eba565b80156128b7576128b7888683611eba565b60408051888152602081018890529081018490526001600160a01b03808a1691908b16907ffc8dd32b1cfbf2c565436049e9e556251a12304b0c3e624bc5e3b205692cf2dc9060600160405180910390a3505050505050505050565b60985460ff16156129595760405162461bcd60e51b815260206004820152601060248201526f14185d5cd8589b194e881c185d5cd95960821b6044820152606401610890565b6098805460ff191660011790557f62e78cea01bee320cd4e420270b5ea74000d11b0c9f74754ebdbfc544b05a2586120fd611d8c565b6001600160a01b038216600090815260ff6020819052604090912060030154620100009004166129d15760405162461bcd60e51b8152600401610890906138e4565b60008111612a1a5760405162461bcd60e51b815260206004820152601660248201527521494e56414c494428736861726573416d6f756e742960501b6044820152606401610890565b6000612a25826127ae565b9050612a38612a32611d8c565b83612f35565b60fd5481906001600160a01b03858116911614612aab576001600160a01b03808516600090815260ff6020526040902060fd549091612a79911686856122a9565b91506000612710826001015484612a909190613911565b612a9a9190613930565b9050612aa68184613733565b925050505b612abf6001600160a01b0385168683612c11565b60408051828152602081018490529081018490526001600160a01b0380861691908716907fc90b5405a6805d53680586ef15168b1d791e67ceebe68fa62eefdb81478763cc9060600161229a565b600080805b61010054811015612c0b5760fd5461010080546001600160a01b039092169183908110612b4157612b416136ec565b6000918252602090912001546001600160a01b03161415612b825760fd54612b71906001600160a01b03166126af565b612b7b9083613783565b9150612bf9565b612bec6101008281548110612b9957612b996136ec565b60009182526020909120015460fd5461010080546001600160a01b039384169390921691612212919086908110612bd257612bd26136ec565b6000918252602090912001546001600160a01b03166126af565b612bf69083613783565b91505b80612c0381613718565b915050612b12565b50919050565b6040516001600160a01b038316602482015260448101829052612c7490849063a9059cbb60e01b906064015b60408051601f198184030181529190526020810180516001600160e01b03166001600160e01b031990931692909217909152613083565b505050565b600054610100900460ff16612ca05760405162461bcd60e51b8152600401610890906139d5565b612ca8613155565b610f4661317c565b600054610100900460ff16612cd75760405162461bcd60e51b8152600401610890906139d5565b612cdf613155565b610f466131b3565b600054610100900460ff16612d0e5760405162461bcd60e51b8152600401610890906139d5565b610f466131e6565b600054610100900460ff16612d3d5760405162461bcd60e51b8152600401610890906139d5565b612d45613155565b6109bb8282613214565b600060143610801590612d6c57506033546001600160a01b031633145b15612d7e575060131936013560601c90565b503390565b600080612d8e612b0d565b1115612da457612d9c612b0d565b6036546127cc565b5090565b919050565b6040516001600160a01b038085166024830152831660448201526064810182905261207b9085906323b872dd60e01b90608401612c3d565b6001600160a01b038216612e3b5760405162461bcd60e51b815260206004820152601f60248201527f45524332303a206d696e7420746f20746865207a65726f2061646472657373006044820152606401610890565b8060366000828254612e4d9190613783565b90915550506001600160a01b03821660009081526034602052604081208054839290612e7a908490613783565b90915550506040518181526001600160a01b038316906000907fddf252ad1be2c89b69c2b068fc378daa952ba7f163c4a11628f55a4df523b3ef9060200160405180910390a35050565b60008160ff168360ff161015612efd57612ede8383613a20565b612eec9060ff16600a613a43565b612ef69085613911565b9050610e38565b8160ff168360ff161115612f2d57612f158284613a20565b612f239060ff16600a613a43565b612ef69085613930565b509192915050565b6001600160a01b038216612f955760405162461bcd60e51b815260206004820152602160248201527f45524332303a206275726e2066726f6d20746865207a65726f206164647265736044820152607360f81b6064820152608401610890565b6001600160a01b038216600090815260346020526040902054818110156130095760405162461bcd60e51b815260206004820152602260248201527f45524332303a206275726e20616d6f756e7420657863656564732062616c616e604482015261636560f01b6064820152608401610890565b6001600160a01b0383166000908152603460205260408120838303905560368054849290613038908490613733565b90915550506040518281526000906001600160a01b038516907fddf252ad1be2c89b69c2b068fc378daa952ba7f163c4a11628f55a4df523b3ef9060200160405180910390a3505050565b60006130d8826040518060400160405280602081526020017f5361666545524332303a206c6f772d6c6576656c2063616c6c206661696c6564815250856001600160a01b03166132629092919063ffffffff16565b805190915015612c7457808060200190518101906130f69190613a4f565b612c745760405162461bcd60e51b815260206004820152602a60248201527f5361666545524332303a204552433230206f7065726174696f6e20646964206e6044820152691bdd081cdd58d8d9595960b21b6064820152608401610890565b600054610100900460ff16610f465760405162461bcd60e51b8152600401610890906139d5565b600054610100900460ff166131a35760405162461bcd60e51b8152600401610890906139d5565b610f466131ae611d8c565b6127e0565b600054610100900460ff166131da5760405162461bcd60e51b8152600401610890906139d5565b6098805460ff19169055565b600054610100900460ff1661320d5760405162461bcd60e51b8152600401610890906139d5565b600160ca55565b600054610100900460ff1661323b5760405162461bcd60e51b8152600401610890906139d5565b815161324e90603790602085019061336d565b508051612c7490603890602084019061336d565b6060611027848460008585843b6132bb5760405162461bcd60e51b815260206004820152601d60248201527f416464726573733a2063616c6c20746f206e6f6e2d636f6e74726163740000006044820152606401610890565b600080866001600160a01b031685876040516132d79190613a71565b60006040518083038185875af1925050503d8060008114613314576040519150601f19603f3d011682016040523d82523d6000602084013e613319565b606091505b5091509150613329828286613334565b979650505050505050565b60608315613343575081610e38565b8251156133535782518084602001fd5b8160405162461bcd60e51b81526004016108909190613429565b82805461337990613682565b90600052602060002090601f01602090048101928261339b57600085556133e1565b82601f106133b457805160ff19168380011785556133e1565b828001600101855582156133e1579182015b828111156133e15782518255916020019190600101906133c6565b50612da49291505b80821115612da457600081556001016133e9565b60005b83811015613418578181015183820152602001613400565b8381111561207b5750506000910152565b60208152600082518060208401526134488160408501602087016133fd565b601f01601f19169190910160400192915050565b80356001600160a01b0381168114612da857600080fd5b6000806040838503121561348657600080fd5b61348f8361345c565b946020939093013593505050565b6000602082840312156134af57600080fd5b610e388261345c565b600080600080608085870312156134ce57600080fd5b6134d78561345c565b93506134e56020860161345c565b93969395505050506040820135916060013590565b60008060006060848603121561350f57600080fd5b6135188461345c565b92506135266020850161345c565b9150604084013590509250925092565b6020808252825182820181905260009190848201906040850190845b818110156135775783516001600160a01b031683529284019291840191600101613552565b50909695505050505050565b60008060008060008060c0878903121561359c57600080fd5b6135a58761345c565b95506135b36020880161345c565b945060408701359350606087013592506135cf6080880161345c565b915060a087013590509295509295509295565b6000602082840312156135f457600080fd5b5035919050565b6000806040838503121561360e57600080fd5b6136178361345c565b91506136256020840161345c565b90509250929050565b6000806000806080858703121561364457600080fd5b61364d8561345c565b935061365b6020860161345c565b92506136696040860161345c565b91506136776060860161345c565b905092959194509250565b600181811c9082168061369657607f821691505b60208210811415612c0b57634e487b7160e01b600052602260045260246000fd5b6020808252818101527f4f776e61626c653a2063616c6c6572206973206e6f7420746865206f776e6572604082015260600190565b634e487b7160e01b600052603260045260246000fd5b634e487b7160e01b600052601160045260246000fd5b600060001982141561372c5761372c613702565b5060010190565b60008282101561374557613745613702565b500390565b634e487b7160e01b600052603160045260246000fd5b60006020828403121561377257600080fd5b815160ff81168114610e3857600080fd5b6000821982111561379657613796613702565b500190565b6020808252601f908201527f5265656e7472616e637947756172643a207265656e7472616e742063616c6c00604082015260600190565b602080825260059082015264042c2eae8d60db1b604082015260600190565b600181815b8085111561382c57816000190482111561381257613812613702565b8085161561381f57918102915b93841c93908002906137f6565b509250929050565b60008261384357506001610841565b8161385057506000610841565b816001811461386657600281146138705761388c565b6001915050610841565b60ff84111561388157613881613702565b50506001821b610841565b5060208310610133831016604e8410600b84101617156138af575081810a610841565b6138b983836137f1565b80600019048211156138cd576138cd613702565b029392505050565b6000610e3860ff841683613834565b602080825260139082015272214e4f545f414c4c4f5745442861737365742960681b604082015260600190565b600081600019048311821515161561392b5761392b613702565b500290565b60008261394d57634e487b7160e01b600052601260045260246000fd5b500490565b805169ffffffffffffffffffff81168114612da857600080fd5b600080600080600060a0868803121561398457600080fd5b61398d86613952565b94506020860151935060408601519250606086015191506139b060808701613952565b90509295509295909350565b6000602082840312156139ce57600080fd5b5051919050565b6020808252602b908201527f496e697469616c697a61626c653a20636f6e7472616374206973206e6f74206960408201526a6e697469616c697a696e6760a81b606082015260800190565b600060ff821660ff841680821015613a3a57613a3a613702565b90039392505050565b6000610e388383613834565b600060208284031215613a6157600080fd5b81518015158114610e3857600080fd5b60008251613a838184602087016133fd565b919091019291505056fea264697066735822122052c7dafee56a6e36baf8c58e3a92716670d21caeb8273c9d03716ca1bcc5106a64736f6c63430008090033",
  "devdoc": {
    "kind": "dev",
    "methods": {
      "allocateToStrategy(address,address,uint256)": {
        "details": "Send an amount of asset to a strategy",
        "params": {
          "_asset": "Address of asset",
          "_assetAmount": "Amount of asset to send"
        }
      },
      "allowAsset(address,address,uint256,uint256)": {
        "details": "Add an allowed asset to be deposited into the vault",
        "params": {
          "_asset": "Address of new ERC20 asset",
          "_priceFeed": "Address of a chainlink-compatible price oracle for the asset",
          "_slippageBps": "Slippage basis points to use when depositing/withdrawing this asset"
        }
      },
      "allowance(address,address)": {
        "details": "See {IERC20-allowance}."
      },
      "approve(address,uint256)": {
        "details": "See {IERC20-approve}. Requirements: - `spender` cannot be the zero address."
      },
      "balanceOf(address)": {
        "details": "See {IERC20-balanceOf}."
      },
      "constructor": {
        "custom:oz-upgrades-unsafe-allow": "constructor"
      },
      "currentValueOf(address)": {
        "details": "Get current vault value of `_address` denominated in `baseAsset`",
        "params": {
          "_address": "Address to check"
        }
      },
      "decimals()": {
        "details": "Returns the number of decimals used to get its user representation. For example, if `decimals` equals `2`, a balance of `505` tokens should be displayed to a user as `5.05` (`505 / 10 ** 2`). Tokens usually opt for a value of 18, imitating the relationship between Ether and Wei. This is the value {ERC20} uses, unless this function is overridden; NOTE: This information is only used for _display_ purposes: it in no way affects any of the arithmetic of the contract, including {IERC20-balanceOf} and {IERC20-transfer}."
      },
      "decreaseAllowance(address,uint256)": {
        "details": "Atomically decreases the allowance granted to `spender` by the caller. This is an alternative to {approve} that can be used as a mitigation for problems described in {IERC20-approve}. Emits an {Approval} event indicating the updated allowance. Requirements: - `spender` cannot be the zero address. - `spender` must have allowance for the caller of at least `subtractedValue`."
      },
      "deposit(address,uint256)": {
        "details": "Deposit an amount of `_asset` into the vault and credit the equal value of `baseAsset`",
        "params": {
          "_asset": "Address of incoming asset",
          "_assetAmount": "Amount of asset to deposit"
        }
      },
      "depositTo(address,address,uint256)": {
        "details": "Deposit an amount of `_asset` into the vault and credit the equal value of `baseAsset`",
        "params": {
          "_asset": "Address of incoming asset",
          "_assetAmount": "Amount of asset to deposit",
          "_to": "Recipient of funds"
        }
      },
      "getAllAssets()": {
        "details": "Get all the assets supported by the vault."
      },
      "getAsset(address)": {
        "details": "Get asset details",
        "params": {
          "_asset": "Asset address"
        },
        "returns": {
          "_0": "Asset Asset details"
        }
      },
      "getBaseAsset()": {
        "details": "Get base asset of vault."
      },
      "increaseAllowance(address,uint256)": {
        "details": "Atomically increases the allowance granted to `spender` by the caller. This is an alternative to {approve} that can be used as a mitigation for problems described in {IERC20-approve}. Emits an {Approval} event indicating the updated allowance. Requirements: - `spender` cannot be the zero address."
      },
      "name()": {
        "details": "Returns the name of the token."
      },
      "owner()": {
        "details": "Returns the address of the current owner."
      },
      "paused()": {
        "details": "Returns true if the contract is paused, and false otherwise."
      },
      "pricePerShare()": {
        "details": "Get current vault value a vault share"
      },
      "protocolPayment(address,address,uint256)": {
        "details": "Pay `_value` of `baseAsset` from `_from` to `_to` initiated by an authorized protocol",
        "params": {
          "_from": "From address",
          "_to": "To address",
          "_value": "Amount of baseAsset value to transfer"
        }
      },
      "protocolPayment(address,address,uint256,uint256)": {
        "details": "Pay `_value` of `baseAsset` from `_from` to `_to` initiated by an authorized protocol",
        "params": {
          "_from": "From address",
          "_protocolFee": "Protocol fee to deduct from `_value`",
          "_to": "To address",
          "_value": "Amount of baseAsset value to transfer"
        }
      },
      "protocolPayment(address,address,uint256,uint256,address,uint256)": {
        "details": "Pay `_value` of `baseAsset` from `_from` to `_to` initiated by an authorized protocol",
        "params": {
          "_from": "From address",
          "_network": "Address of network fee collector",
          "_networkFee": "Network fee to deduct from `_value`",
          "_protocolFee": "Protocol fee to deduct from `_value`",
          "_to": "To address",
          "_value": "Amount of baseAsset value to transfer"
        }
      },
      "renounceOwnership()": {
        "details": "Leaves the contract without owner. It will not be possible to call `onlyOwner` functions anymore. Can only be called by the current owner. NOTE: Renouncing ownership will leave the contract without an owner, thereby removing any functionality that is only available to the owner."
      },
      "supportsAsset(address)": {
        "details": "Check if the vault supports an asset",
        "params": {
          "_asset": "Asset address"
        },
        "returns": {
          "_0": "bool `true` if asset supported, `false` otherwise"
        }
      },
      "symbol()": {
        "details": "Returns the symbol of the token, usually a shorter version of the name."
      },
      "totalAssetBalance(address)": {
        "details": "Get total amount of an asset held in vault and managed by admin",
        "params": {
          "_asset": "Address of asset"
        }
      },
      "totalSupply()": {
        "details": "See {IERC20-totalSupply}."
      },
      "totalValue()": {
        "details": "Get total value in vault and managed by admin - denominated in `baseAsset`"
      },
      "transfer(address,uint256)": {
        "details": "See {IERC20-transfer}. Requirements: - `recipient` cannot be the zero address. - the caller must have a balance of at least `amount`."
      },
      "transferFrom(address,address,uint256)": {
        "details": "See {IERC20-transferFrom}. Emits an {Approval} event indicating the updated allowance. This is not required by the EIP. See the note at the beginning of {ERC20}. Requirements: - `sender` and `recipient` cannot be the zero address. - `sender` must have a balance of at least `amount`. - the caller must have allowance for ``sender``'s tokens of at least `amount`."
      },
      "transferOwnership(address)": {
        "details": "Transfers ownership of the contract to a new account (`newOwner`). Can only be called by the current owner."
      },
      "withdraw(address,uint256)": {
        "details": "Withdraw an amount of shares from the vault in the form of `_asset`",
        "params": {
          "_asset": "Address of outgoing asset",
          "_shares": "Amount of shares to withdraw"
        }
      },
      "withdrawTo(address,address,uint256)": {
        "details": "Withdraw an amount of shares from the vault in the form of `_asset`",
        "params": {
          "_asset": "Address of outgoing asset",
          "_recipient": "Recipient who will receive the withdrawn assets",
          "_shares": "Amount of shares to withdraw"
        }
      }
    },
    "version": 1
  },
  "userdoc": {
    "kind": "user",
    "methods": {
      "isTrustedForwarder(address)": {
        "notice": "return if the forwarder is trusted to forward relayed transactions to us. the forwarder is required to verify the sender's signature, and verify the call is not a replay."
      }
    },
    "notice": "CaskVault is where: - the approved asset list lives - users deposit/withdraw approved assets which results in a mint/burn of the vault token - a minimum reserve rate is enforced - vault manager can tell the vault to send unallocated assets to strategies - approved protocols can process a payment between parties - one can query the value of all unallocated assets",
    "version": 1
  },
  "storageLayout": {
    "storage": [
      {
        "astId": 918,
        "contract": "contracts/vault/CaskVault.sol:CaskVault",
        "label": "_initialized",
        "offset": 0,
        "slot": "0",
        "type": "t_bool"
      },
      {
        "astId": 921,
        "contract": "contracts/vault/CaskVault.sol:CaskVault",
        "label": "_initializing",
        "offset": 1,
        "slot": "0",
        "type": "t_bool"
      },
      {
        "astId": 3142,
        "contract": "contracts/vault/CaskVault.sol:CaskVault",
        "label": "__gap",
        "offset": 0,
        "slot": "1",
        "type": "t_array(t_uint256)50_storage"
      },
      {
        "astId": 72,
        "contract": "contracts/vault/CaskVault.sol:CaskVault",
        "label": "_trustedForwarder",
        "offset": 0,
        "slot": "51",
        "type": "t_address"
      },
      {
        "astId": 1175,
        "contract": "contracts/vault/CaskVault.sol:CaskVault",
        "label": "_balances",
        "offset": 0,
        "slot": "52",
        "type": "t_mapping(t_address,t_uint256)"
      },
      {
        "astId": 1181,
        "contract": "contracts/vault/CaskVault.sol:CaskVault",
        "label": "_allowances",
        "offset": 0,
        "slot": "53",
        "type": "t_mapping(t_address,t_mapping(t_address,t_uint256))"
      },
      {
        "astId": 1183,
        "contract": "contracts/vault/CaskVault.sol:CaskVault",
        "label": "_totalSupply",
        "offset": 0,
        "slot": "54",
        "type": "t_uint256"
      },
      {
        "astId": 1185,
        "contract": "contracts/vault/CaskVault.sol:CaskVault",
        "label": "_name",
        "offset": 0,
        "slot": "55",
        "type": "t_string_storage"
      },
      {
        "astId": 1187,
        "contract": "contracts/vault/CaskVault.sol:CaskVault",
        "label": "_symbol",
        "offset": 0,
        "slot": "56",
        "type": "t_string_storage"
      },
      {
        "astId": 1728,
        "contract": "contracts/vault/CaskVault.sol:CaskVault",
        "label": "__gap",
        "offset": 0,
        "slot": "57",
        "type": "t_array(t_uint256)45_storage"
      },
      {
        "astId": 796,
        "contract": "contracts/vault/CaskVault.sol:CaskVault",
        "label": "_owner",
        "offset": 0,
        "slot": "102",
        "type": "t_address"
      },
      {
        "astId": 910,
        "contract": "contracts/vault/CaskVault.sol:CaskVault",
        "label": "__gap",
        "offset": 0,
        "slot": "103",
        "type": "t_array(t_uint256)49_storage"
      },
      {
        "astId": 1006,
        "contract": "contracts/vault/CaskVault.sol:CaskVault",
        "label": "_paused",
        "offset": 0,
        "slot": "152",
        "type": "t_bool"
      },
      {
        "astId": 1097,
        "contract": "contracts/vault/CaskVault.sol:CaskVault",
        "label": "__gap",
        "offset": 0,
        "slot": "153",
        "type": "t_array(t_uint256)49_storage"
      },
      {
        "astId": 1112,
        "contract": "contracts/vault/CaskVault.sol:CaskVault",
        "label": "_status",
        "offset": 0,
        "slot": "202",
        "type": "t_uint256"
      },
      {
        "astId": 1155,
        "contract": "contracts/vault/CaskVault.sol:CaskVault",
        "label": "__gap",
        "offset": 0,
        "slot": "203",
        "type": "t_array(t_uint256)49_storage"
      },
      {
        "astId": 14697,
        "contract": "contracts/vault/CaskVault.sol:CaskVault",
        "label": "vaultManager",
        "offset": 0,
        "slot": "252",
        "type": "t_address"
      },
      {
        "astId": 14699,
        "contract": "contracts/vault/CaskVault.sol:CaskVault",
        "label": "baseAsset",
        "offset": 0,
        "slot": "253",
        "type": "t_address"
      },
      {
        "astId": 14701,
        "contract": "contracts/vault/CaskVault.sol:CaskVault",
        "label": "feeDistributor",
        "offset": 0,
        "slot": "254",
        "type": "t_address"
      },
      {
        "astId": 14706,
        "contract": "contracts/vault/CaskVault.sol:CaskVault",
        "label": "assets",
        "offset": 0,
        "slot": "255",
        "type": "t_mapping(t_address,t_struct(Asset)9311_storage)"
      },
      {
        "astId": 14709,
        "contract": "contracts/vault/CaskVault.sol:CaskVault",
        "label": "allAssets",
        "offset": 0,
        "slot": "256",
        "type": "t_array(t_address)dyn_storage"
      },
      {
        "astId": 14712,
        "contract": "contracts/vault/CaskVault.sol:CaskVault",
        "label": "protocols",
        "offset": 0,
        "slot": "257",
        "type": "t_array(t_address)dyn_storage"
      },
      {
        "astId": 14836,
        "contract": "contracts/vault/CaskVault.sol:CaskVault",
        "label": "versionRecipient",
        "offset": 0,
        "slot": "258",
        "type": "t_string_storage"
      }
    ],
    "types": {
      "t_address": {
        "encoding": "inplace",
        "label": "address",
        "numberOfBytes": "20"
      },
      "t_array(t_address)dyn_storage": {
        "base": "t_address",
        "encoding": "dynamic_array",
        "label": "address[]",
        "numberOfBytes": "32"
      },
      "t_array(t_uint256)45_storage": {
        "base": "t_uint256",
        "encoding": "inplace",
        "label": "uint256[45]",
        "numberOfBytes": "1440"
      },
      "t_array(t_uint256)49_storage": {
        "base": "t_uint256",
        "encoding": "inplace",
        "label": "uint256[49]",
        "numberOfBytes": "1568"
      },
      "t_array(t_uint256)50_storage": {
        "base": "t_uint256",
        "encoding": "inplace",
        "label": "uint256[50]",
        "numberOfBytes": "1600"
      },
      "t_bool": {
        "encoding": "inplace",
        "label": "bool",
        "numberOfBytes": "1"
      },
      "t_mapping(t_address,t_mapping(t_address,t_uint256))": {
        "encoding": "mapping",
        "key": "t_address",
        "label": "mapping(address => mapping(address => uint256))",
        "numberOfBytes": "32",
        "value": "t_mapping(t_address,t_uint256)"
      },
      "t_mapping(t_address,t_struct(Asset)9311_storage)": {
        "encoding": "mapping",
        "key": "t_address",
        "label": "mapping(address => struct ICaskVault.Asset)",
        "numberOfBytes": "32",
        "value": "t_struct(Asset)9311_storage"
      },
      "t_mapping(t_address,t_uint256)": {
        "encoding": "mapping",
        "key": "t_address",
        "label": "mapping(address => uint256)",
        "numberOfBytes": "32",
        "value": "t_uint256"
      },
      "t_string_storage": {
        "encoding": "bytes",
        "label": "string",
        "numberOfBytes": "32"
      },
      "t_struct(Asset)9311_storage": {
        "encoding": "inplace",
        "label": "struct ICaskVault.Asset",
        "members": [
          {
            "astId": 9300,
            "contract": "contracts/vault/CaskVault.sol:CaskVault",
            "label": "priceFeed",
            "offset": 0,
            "slot": "0",
            "type": "t_address"
          },
          {
            "astId": 9302,
            "contract": "contracts/vault/CaskVault.sol:CaskVault",
            "label": "slippageBps",
            "offset": 0,
            "slot": "1",
            "type": "t_uint256"
          },
          {
            "astId": 9304,
            "contract": "contracts/vault/CaskVault.sol:CaskVault",
            "label": "depositLimit",
            "offset": 0,
            "slot": "2",
            "type": "t_uint256"
          },
          {
            "astId": 9306,
            "contract": "contracts/vault/CaskVault.sol:CaskVault",
            "label": "assetDecimals",
            "offset": 0,
            "slot": "3",
            "type": "t_uint8"
          },
          {
            "astId": 9308,
            "contract": "contracts/vault/CaskVault.sol:CaskVault",
            "label": "priceFeedDecimals",
            "offset": 1,
            "slot": "3",
            "type": "t_uint8"
          },
          {
            "astId": 9310,
            "contract": "contracts/vault/CaskVault.sol:CaskVault",
            "label": "allowed",
            "offset": 2,
            "slot": "3",
            "type": "t_bool"
          }
        ],
        "numberOfBytes": "128"
      },
      "t_uint256": {
        "encoding": "inplace",
        "label": "uint256",
        "numberOfBytes": "32"
      },
      "t_uint8": {
        "encoding": "inplace",
        "label": "uint8",
        "numberOfBytes": "1"
      }
    }
  }
}