{
  "address": "0x27FDa4a5eF22e479097768Fa0a3D33BbD6165012",
  "abi": [
    {
      "inputs": [],
      "stateMutability": "nonpayable",
      "type": "constructor"
    },
    {
      "anonymous": false,
      "inputs": [
        {
          "indexed": true,
          "internalType": "address",
          "name": "previousOwner",
          "type": "address"
        },
        {
          "indexed": true,
          "internalType": "address",
          "name": "newOwner",
          "type": "address"
        }
      ],
      "name": "OwnershipTransferred",
      "type": "event"
    },
    {
      "anonymous": false,
      "inputs": [
        {
          "indexed": false,
          "internalType": "address",
          "name": "account",
          "type": "address"
        }
      ],
      "name": "Paused",
      "type": "event"
    },
    {
      "anonymous": false,
      "inputs": [
        {
          "indexed": true,
          "internalType": "address",
          "name": "provider",
          "type": "address"
        },
        {
          "indexed": true,
          "internalType": "uint32",
          "name": "planId",
          "type": "uint32"
        }
      ],
      "name": "PlanDisabled",
      "type": "event"
    },
    {
      "anonymous": false,
      "inputs": [
        {
          "indexed": true,
          "internalType": "address",
          "name": "provider",
          "type": "address"
        },
        {
          "indexed": true,
          "internalType": "uint32",
          "name": "planId",
          "type": "uint32"
        },
        {
          "indexed": false,
          "internalType": "uint32",
          "name": "eolAt",
          "type": "uint32"
        }
      ],
      "name": "PlanEOL",
      "type": "event"
    },
    {
      "anonymous": false,
      "inputs": [
        {
          "indexed": true,
          "internalType": "address",
          "name": "provider",
          "type": "address"
        },
        {
          "indexed": true,
          "internalType": "uint32",
          "name": "planId",
          "type": "uint32"
        }
      ],
      "name": "PlanEnabled",
      "type": "event"
    },
    {
      "anonymous": false,
      "inputs": [
        {
          "indexed": false,
          "internalType": "address",
          "name": "account",
          "type": "address"
        }
      ],
      "name": "Unpaused",
      "type": "event"
    },
    {
      "inputs": [
        {
          "internalType": "address",
          "name": "_provider",
          "type": "address"
        },
        {
          "internalType": "uint32",
          "name": "_planId",
          "type": "uint32"
        },
        {
          "internalType": "uint32",
          "name": "_planPeriod",
          "type": "uint32"
        },
        {
          "internalType": "uint32",
          "name": "_subscriptionCreatedAt",
          "type": "uint32"
        },
        {
          "internalType": "bytes32",
          "name": "_discountId",
          "type": "bytes32"
        },
        {
          "internalType": "bytes32",
          "name": "_discountData",
          "type": "bytes32"
        }
      ],
      "name": "consumeDiscount",
      "outputs": [
        {
          "internalType": "bool",
          "name": "",
          "type": "bool"
        }
      ],
      "stateMutability": "nonpayable",
      "type": "function"
    },
    {
      "inputs": [
        {
          "internalType": "uint32",
          "name": "_planId",
          "type": "uint32"
        }
      ],
      "name": "disablePlan",
      "outputs": [],
      "stateMutability": "nonpayable",
      "type": "function"
    },
    {
      "inputs": [
        {
          "internalType": "uint32",
          "name": "_planId",
          "type": "uint32"
        }
      ],
      "name": "enablePlan",
      "outputs": [],
      "stateMutability": "nonpayable",
      "type": "function"
    },
    {
      "inputs": [
        {
          "internalType": "address",
          "name": "_provider",
          "type": "address"
        },
        {
          "internalType": "uint32",
          "name": "_planId",
          "type": "uint32"
        }
      ],
      "name": "getPlanEOL",
      "outputs": [
        {
          "internalType": "uint32",
          "name": "",
          "type": "uint32"
        }
      ],
      "stateMutability": "view",
      "type": "function"
    },
    {
      "inputs": [
        {
          "internalType": "address",
          "name": "_provider",
          "type": "address"
        },
        {
          "internalType": "uint32",
          "name": "_planId",
          "type": "uint32"
        }
      ],
      "name": "getPlanStatus",
      "outputs": [
        {
          "internalType": "enum ICaskSubscriptionPlans.PlanStatus",
          "name": "",
          "type": "uint8"
        }
      ],
      "stateMutability": "view",
      "type": "function"
    },
    {
      "inputs": [
        {
          "internalType": "address",
          "name": "_provider",
          "type": "address"
        }
      ],
      "name": "getProviderProfile",
      "outputs": [
        {
          "components": [
            {
              "internalType": "address",
              "name": "paymentAddress",
              "type": "address"
            },
            {
              "internalType": "string",
              "name": "cid",
              "type": "string"
            }
          ],
          "internalType": "struct ICaskSubscriptionPlans.Provider",
          "name": "",
          "type": "tuple"
        }
      ],
      "stateMutability": "view",
      "type": "function"
    },
    {
      "inputs": [],
      "name": "initialize",
      "outputs": [],
      "stateMutability": "nonpayable",
      "type": "function"
    },
    {
      "inputs": [
        {
          "internalType": "address",
          "name": "forwarder",
          "type": "address"
        }
      ],
      "name": "isTrustedForwarder",
      "outputs": [
        {
          "internalType": "bool",
          "name": "",
          "type": "bool"
        }
      ],
      "stateMutability": "view",
      "type": "function"
    },
    {
      "inputs": [
        {
          "internalType": "uint32",
          "name": "_planId",
          "type": "uint32"
        },
        {
          "internalType": "uint32",
          "name": "_eolAt",
          "type": "uint32"
        }
      ],
      "name": "killPlan",
      "outputs": [],
      "stateMutability": "nonpayable",
      "type": "function"
    },
    {
      "inputs": [],
      "name": "owner",
      "outputs": [
        {
          "internalType": "address",
          "name": "",
          "type": "address"
        }
      ],
      "stateMutability": "view",
      "type": "function"
    },
    {
      "inputs": [],
      "name": "pause",
      "outputs": [],
      "stateMutability": "nonpayable",
      "type": "function"
    },
    {
      "inputs": [],
      "name": "paused",
      "outputs": [
        {
          "internalType": "bool",
          "name": "",
          "type": "bool"
        }
      ],
      "stateMutability": "view",
      "type": "function"
    },
    {
      "inputs": [],
      "name": "renounceOwnership",
      "outputs": [],
      "stateMutability": "nonpayable",
      "type": "function"
    },
    {
      "inputs": [
        {
          "internalType": "address",
          "name": "_subscriptionManager",
          "type": "address"
        }
      ],
      "name": "setManager",
      "outputs": [],
      "stateMutability": "nonpayable",
      "type": "function"
    },
    {
      "inputs": [
        {
          "internalType": "address",
          "name": "_paymentAddress",
          "type": "address"
        },
        {
          "internalType": "string",
          "name": "_cid",
          "type": "string"
        }
      ],
      "name": "setProviderProfile",
      "outputs": [],
      "stateMutability": "nonpayable",
      "type": "function"
    },
    {
      "inputs": [
        {
          "internalType": "address",
          "name": "_forwarder",
          "type": "address"
        }
      ],
      "name": "setTrustedForwarder",
      "outputs": [],
      "stateMutability": "nonpayable",
      "type": "function"
    },
    {
      "inputs": [],
      "name": "subscriptionManager",
      "outputs": [
        {
          "internalType": "address",
          "name": "",
          "type": "address"
        }
      ],
      "stateMutability": "view",
      "type": "function"
    },
    {
      "inputs": [
        {
          "internalType": "address",
          "name": "newOwner",
          "type": "address"
        }
      ],
      "name": "transferOwnership",
      "outputs": [],
      "stateMutability": "nonpayable",
      "type": "function"
    },
    {
      "inputs": [],
      "name": "trustedForwarder",
      "outputs": [
        {
          "internalType": "address",
          "name": "",
          "type": "address"
        }
      ],
      "stateMutability": "view",
      "type": "function"
    },
    {
      "inputs": [],
      "name": "unpause",
      "outputs": [],
      "stateMutability": "nonpayable",
      "type": "function"
    },
    {
      "inputs": [
        {
          "internalType": "address",
          "name": "_provider",
          "type": "address"
        },
        {
          "internalType": "uint32",
          "name": "_planId",
          "type": "uint32"
        },
        {
          "internalType": "bytes32",
          "name": "_discountId",
          "type": "bytes32"
        },
        {
          "internalType": "bytes32",
          "name": "_discountData",
          "type": "bytes32"
        },
        {
          "internalType": "bytes32",
          "name": "_merkleRoot",
          "type": "bytes32"
        },
        {
          "internalType": "bytes32[]",
          "name": "_merkleProof",
          "type": "bytes32[]"
        }
      ],
      "name": "verifyDiscount",
      "outputs": [
        {
          "internalType": "bool",
          "name": "",
          "type": "bool"
        }
      ],
      "stateMutability": "view",
      "type": "function"
    },
    {
      "inputs": [
        {
          "internalType": "bytes32",
          "name": "_planData",
          "type": "bytes32"
        },
        {
          "internalType": "bytes32",
          "name": "_merkleRoot",
          "type": "bytes32"
        },
        {
          "internalType": "bytes32[]",
          "name": "_merkleProof",
          "type": "bytes32[]"
        }
      ],
      "name": "verifyPlan",
      "outputs": [
        {
          "internalType": "bool",
          "name": "",
          "type": "bool"
        }
      ],
      "stateMutability": "pure",
      "type": "function"
    },
    {
      "inputs": [],
      "name": "versionRecipient",
      "outputs": [
        {
          "internalType": "string",
          "name": "",
          "type": "string"
        }
      ],
      "stateMutability": "view",
      "type": "function"
    }
  ],
  "transactionHash": "0xb51c00b66cb6c596c63967e61f4fe23417858a208d2f1a92f6378c1754d6bf07",
  "args": [],
  "numDeployments": 1,
  "solcInputHash": "4d49416dce2f6b5170ba81e669bb2887",
  "bytecode": "0x60c060405260056080819052640322e322e360dc1b60a09081526200002891609c91906200013a565b503480156200003657600080fd5b50600054600160a81b900460ff166200005d57600054600160a01b900460ff161562000067565b6200006762000116565b620000cf5760405162461bcd60e51b815260206004820152602e60248201527f496e697469616c697a61626c653a20636f6e747261637420697320616c72656160448201526d191e481a5b9a5d1a585b1a5e995960921b606482015260840160405180910390fd5b600054600160a81b900460ff16158015620000fa576000805461ffff60a01b191661010160a01b1790555b80156200010f576000805460ff60a81b191690555b506200021d565b60006200012e306200013460201b620010901760201c565b15905090565b3b151590565b8280546200014890620001e0565b90600052602060002090601f0160209004810192826200016c5760008555620001b7565b82601f106200018757805160ff1916838001178555620001b7565b82800160010185558215620001b7579182015b82811115620001b75782518255916020019190600101906200019a565b50620001c5929150620001c9565b5090565b5b80821115620001c55760008155600101620001ca565b600181811c90821680620001f557607f821691505b602082108114156200021757634e487b7160e01b600052602260045260246000fd5b50919050565b611a8d806200022d6000396000f3fe608060405234801561001057600080fd5b506004361061014d5760003560e01c806372212e76116100c3578063b6ab359f1161007c578063b6ab359f146102e7578063bf158fd214610335578063d0ebdbe714610348578063da7422281461035b578063f2fde38b1461036e578063fdfca0d31461038157600080fd5b806372212e761461027b5780637da0a8771461028e5780638129fc1c146102b35780638456cb59146102bb5780638da5cb5b146102c35780639c5c3eb4146102d457600080fd5b8063486ff0cd11610115578063486ff0cd146101fb578063551d937f14610210578063572b6c05146102335780635c975abb14610255578063715018a61461026057806371ce3e661461026857600080fd5b8063025b6875146101525780631bc569b5146101ab578063256c6ba9146101c05780633c17dac8146101d35780633f4ba83a146101f3575b600080fd5b610191610160366004611580565b6001600160a01b03919091166000908152609a6020908152604080832063ffffffff94851684529091529020541690565b60405163ffffffff90911681526020015b60405180910390f35b6101be6101b93660046115b3565b610394565b005b6101be6101ce3660046115b3565b6104c4565b6101e66101e13660046115d5565b6105f0565b6040516101a2919061163d565b6101be6106cc565b61020361071f565b6040516101a29190611672565b61022361021e366004611685565b6107ad565b60405190151581526020016101a2565b6102236102413660046115d5565b6000546001600160a01b0391821691161490565b60655460ff16610223565b6101be610a37565b610223610276366004611737565b610a8a565b61022361028936600461178a565b610af6565b6000546001600160a01b03165b6040516001600160a01b0390911681526020016101a2565b6101be610c8a565b6101be610d66565b6033546001600160a01b031661029b565b6101be6102e236600461180c565b610db7565b6103286102f5366004611580565b6001600160a01b038216600090815260996020908152604080832063ffffffff8516845290915290205460ff1692915050565b6040516101a2919061183e565b60975461029b906001600160a01b031681565b6101be6103563660046115d5565b610eb2565b6101be6103693660046115d5565b610f1d565b6101be61037c3660046115d5565b610f84565b6101be61038f366004611866565b61103b565b6000609960006103a2611096565b6001600160a01b031681526020808201929092526040908101600090812063ffffffff8616825290925290205460ff1660028111156103e3576103e3611828565b146104245760405162461bcd60e51b815260206004820152600c60248201526b085393d517d153905093115160a21b60448201526064015b60405180910390fd5b600160996000610432611096565b6001600160a01b031681526020808201929092526040908101600090812063ffffffff861682529092529020805460ff1916600183600281111561047857610478611828565b02179055508063ffffffff1661048c611096565b6001600160a01b03167f50ec551c598cd517a78f91d12398f4f1d95e0171a4393505d01401f8b6c940a760405160405180910390a350565b6001609960006104d2611096565b6001600160a01b031681526020808201929092526040908101600090812063ffffffff8616825290925290205460ff16600281111561051357610513611828565b146105505760405162461bcd60e51b815260206004820152600d60248201526c085393d517d11254d050931151609a1b604482015260640161041b565b60006099600061055e611096565b6001600160a01b031681526020808201929092526040908101600090812063ffffffff861682529092529020805460ff191660018360028111156105a4576105a4611828565b02179055508063ffffffff166105b8611096565b6001600160a01b03167fb6af1d2951898e17e763c18b77daf0ada2f2753802d37868e67797e87991a29860405160405180910390a350565b604080518082018252600080825260606020808401919091526001600160a01b038581168352609882529184902084518086019095528054909216845260018201805493949391840191610643906118e9565b80601f016020809104026020016040519081016040528092919081815260200182805461066f906118e9565b80156106bc5780601f10610691576101008083540402835291602001916106bc565b820191906000526020600020905b81548152906001019060200180831161069f57829003601f168201915b5050505050815250509050919050565b6106d4611096565b6001600160a01b03166106ef6033546001600160a01b031690565b6001600160a01b0316146107155760405162461bcd60e51b815260040161041b90611924565b61071d6110a5565b565b609c805461072c906118e9565b80601f0160208091040260200160405190810160405280929190818152602001828054610758906118e9565b80156107a55780601f1061077a576101008083540402835291602001916107a5565b820191906000526020600020905b81548152906001019060200180831161078857829003601f168201915b505050505081565b6097546000906001600160a01b03166107c4611096565b6001600160a01b0316146108025760405162461bcd60e51b815260206004820152600560248201526404282aaa8960db1b604482015260640161041b565b600061080d8361113e565b9050806060015163ffffffff1660001480610861575060608101516001600160a01b0389166000908152609b6020908152604080832063ffffffff8c81168552908352818420898552909252909120549116115b6108a25760405162461bcd60e51b815260206004820152601260248201527121444953434f554e545f4d41585f5553455360701b604482015260640161041b565b602081015163ffffffff1615806108c957504263ffffffff16816020015163ffffffff1610155b6109155760405162461bcd60e51b815260206004820152601760248201527f21444953434f554e545f4e4f545f56414c49445f594554000000000000000000604482015260640161041b565b60a081015161ffff16158061095257504263ffffffff168160a0015161ffff1687610940919061196f565b61094a908761199b565b63ffffffff16105b6109945760405162461bcd60e51b815260206004820152601360248201527208511254d0d3d5539517d15612105554d51151606a1b604482015260640161041b565b6001600160a01b0388166000908152609b6020908152604080832063ffffffff8b168452825280832087845290915281208054600192906109d69084906119c3565b9091555050606081015163ffffffff161580610a2b575060608101516001600160a01b0389166000908152609b6020908152604080832063ffffffff8c81168552908352818420898552909252909120549116115b98975050505050505050565b610a3f611096565b6001600160a01b0316610a5a6033546001600160a01b031690565b6001600160a01b031614610a805760405162461bcd60e51b815260040161041b90611924565b61071d60006111ea565b6000610aed8383808060200260200160405190810160405280939291908181526020018383602002808284376000920191909152505060408051602081018b90528993500190505b6040516020818303038152906040528051906020012061123c565b95945050505050565b6000610b4a8383808060200260200160405190810160405280939291908181526020018383602002808284376000920191909152505060408051602081018c90529081018a90528892506060019050610ad2565b15610c7b576000610b5a8661113e565b9050806080015163ffffffff1660001480610b8457508763ffffffff16816080015163ffffffff16145b610bc35760405162461bcd60e51b815260206004820152601060248201526f21494e56414c494428706c616e49642960801b604482015260640161041b565b606081015163ffffffff161580610c18575060608101516001600160a01b038a166000908152609b60209081526040808320608086015163ffffffff90811685529083528184208c8552909252909120549116115b8015610c465750602081015163ffffffff161580610c4657504263ffffffff16816020015163ffffffff1610155b8015610c735750604081015163ffffffff161580610c7357504263ffffffff16816040015163ffffffff16105b915050610c7f565b5060005b979650505050505050565b600054600160a81b900460ff16610cae57600054600160a01b900460ff1615610cb2565b303b155b610d155760405162461bcd60e51b815260206004820152602e60248201527f496e697469616c697a61626c653a20636f6e747261637420697320616c72656160448201526d191e481a5b9a5d1a585b1a5e995960921b606482015260840161041b565b600054600160a81b900460ff16158015610d3f576000805461ffff60a01b191661010160a01b1790555b610d47611252565b610d4f61128b565b8015610d63576000805460ff60a81b191690555b50565b610d6e611096565b6001600160a01b0316610d896033546001600160a01b031690565b6001600160a01b031614610daf5760405162461bcd60e51b815260040161041b90611924565b61071d6112c4565b600260996000610dc5611096565b6001600160a01b031681526020808201929092526040908101600090812063ffffffff871682529092529020805460ff19166001836002811115610e0b57610e0b611828565b021790555080609a6000610e1d611096565b6001600160a01b031681526020808201929092526040908101600090812063ffffffff87811680845291909452919020805463ffffffff191693909216929092179055610e68611096565b60405163ffffffff841681526001600160a01b0391909116907f4594a2f1d5b5d27b7b29f7c73ec2f5f23b7a97269ec277e84619bcfffe9c13dc9060200160405180910390a35050565b610eba611096565b6001600160a01b0316610ed56033546001600160a01b031690565b6001600160a01b031614610efb5760405162461bcd60e51b815260040161041b90611924565b609780546001600160a01b0319166001600160a01b0392909216919091179055565b610f25611096565b6001600160a01b0316610f406033546001600160a01b031690565b6001600160a01b031614610f665760405162461bcd60e51b815260040161041b90611924565b600080546001600160a01b0319166001600160a01b03831617905550565b610f8c611096565b6001600160a01b0316610fa76033546001600160a01b031690565b6001600160a01b031614610fcd5760405162461bcd60e51b815260040161041b90611924565b6001600160a01b0381166110325760405162461bcd60e51b815260206004820152602660248201527f4f776e61626c653a206e6577206f776e657220697320746865207a65726f206160448201526564647265737360d01b606482015260840161041b565b610d63816111ea565b600060986000611049611096565b6001600160a01b039081168252602082019290925260400160002080546001600160a01b03191691861691909117815590506110896001820184846114b7565b5050505050565b3b151590565b60006110a0611340565b905090565b60655460ff166110ee5760405162461bcd60e51b815260206004820152601460248201527314185d5cd8589b194e881b9bdd081c185d5cd95960621b604482015260640161041b565b6065805460ff191690557f5db9ee0a495bf2e6ff9c91a7834c1ba4fdd244a5e8aa4e537bd38aeae4b073aa611121611096565b6040516001600160a01b03909116815260200160405180910390a1565b6040805160e081018252600080825260208201819052918101829052606081018290526080810182905260a0810182905260c0810191909152506040805160e08101825260a083811c825263ffffffff608085811c8216602080860191909152606087811c8416868801529587901c8316958501959095529385901c169282019290925261ffff601084901c1691810191909152600160f01b60f09290921b821690911460c082015290565b603380546001600160a01b038381166001600160a01b0319831681179093556040519116919082907f8be0079c531659141344cd1fd0a4f28419497f9722a3daafe3b4186f6b6457e090600090a35050565b6000826112498584611374565b14949350505050565b600054600160a81b900460ff1661127b5760405162461bcd60e51b815260040161041b906119db565b611283611420565b61071d611449565b600054600160a81b900460ff166112b45760405162461bcd60e51b815260040161041b906119db565b6112bc611420565b61071d611482565b60655460ff161561130a5760405162461bcd60e51b815260206004820152601060248201526f14185d5cd8589b194e881c185d5cd95960821b604482015260640161041b565b6065805460ff191660011790557f62e78cea01bee320cd4e420270b5ea74000d11b0c9f74754ebdbfc544b05a258611121611096565b60006014361080159061135d57506000546001600160a01b031633145b1561136f575060131936013560601c90565b503390565b600081815b845181101561141857600085828151811061139657611396611a26565b602002602001015190508083116113d8576040805160208101859052908101829052606001604051602081830303815290604052805190602001209250611405565b60408051602081018390529081018490526060016040516020818303038152906040528051906020012092505b508061141081611a3c565b915050611379565b509392505050565b600054600160a81b900460ff1661071d5760405162461bcd60e51b815260040161041b906119db565b600054600160a81b900460ff166114725760405162461bcd60e51b815260040161041b906119db565b61071d61147d611096565b6111ea565b600054600160a81b900460ff166114ab5760405162461bcd60e51b815260040161041b906119db565b6065805460ff19169055565b8280546114c3906118e9565b90600052602060002090601f0160209004810192826114e5576000855561152b565b82601f106114fe5782800160ff1982351617855561152b565b8280016001018555821561152b579182015b8281111561152b578235825591602001919060010190611510565b5061153792915061153b565b5090565b5b80821115611537576000815560010161153c565b80356001600160a01b038116811461156757600080fd5b919050565b803563ffffffff8116811461156757600080fd5b6000806040838503121561159357600080fd5b61159c83611550565b91506115aa6020840161156c565b90509250929050565b6000602082840312156115c557600080fd5b6115ce8261156c565b9392505050565b6000602082840312156115e757600080fd5b6115ce82611550565b6000815180845260005b81811015611616576020818501810151868301820152016115fa565b81811115611628576000602083870101525b50601f01601f19169290920160200192915050565b602080825282516001600160a01b03168282015282015160408083015260009061166a60608401826115f0565b949350505050565b6020815260006115ce60208301846115f0565b60008060008060008060c0878903121561169e57600080fd5b6116a787611550565b95506116b56020880161156c565b94506116c36040880161156c565b93506116d16060880161156c565b92506080870135915060a087013590509295509295509295565b60008083601f8401126116fd57600080fd5b50813567ffffffffffffffff81111561171557600080fd5b6020830191508360208260051b850101111561173057600080fd5b9250929050565b6000806000806060858703121561174d57600080fd5b8435935060208501359250604085013567ffffffffffffffff81111561177257600080fd5b61177e878288016116eb565b95989497509550505050565b600080600080600080600060c0888a0312156117a557600080fd5b6117ae88611550565b96506117bc6020890161156c565b955060408801359450606088013593506080880135925060a088013567ffffffffffffffff8111156117ed57600080fd5b6117f98a828b016116eb565b989b979a50959850939692959293505050565b6000806040838503121561181f57600080fd5b61159c8361156c565b634e487b7160e01b600052602160045260246000fd5b602081016003831061186057634e487b7160e01b600052602160045260246000fd5b91905290565b60008060006040848603121561187b57600080fd5b61188484611550565b9250602084013567ffffffffffffffff808211156118a157600080fd5b818601915086601f8301126118b557600080fd5b8135818111156118c457600080fd5b8760208285010111156118d657600080fd5b6020830194508093505050509250925092565b600181811c908216806118fd57607f821691505b6020821081141561191e57634e487b7160e01b600052602260045260246000fd5b50919050565b6020808252818101527f4f776e61626c653a2063616c6c6572206973206e6f7420746865206f776e6572604082015260600190565b634e487b7160e01b600052601160045260246000fd5b600063ffffffff8083168185168183048111821515161561199257611992611959565b02949350505050565b600063ffffffff8083168185168083038211156119ba576119ba611959565b01949350505050565b600082198211156119d6576119d6611959565b500190565b6020808252602b908201527f496e697469616c697a61626c653a20636f6e7472616374206973206e6f74206960408201526a6e697469616c697a696e6760a81b606082015260800190565b634e487b7160e01b600052603260045260246000fd5b6000600019821415611a5057611a50611959565b506001019056fea264697066735822122061269413f62263a7e72d0ad1fef6929d55d5c637b45c6c7cdc6f74a7c39c99e364736f6c63430008090033",
  "devdoc": {
    "kind": "dev",
    "methods": {
      "constructor": {
        "custom:oz-upgrades-unsafe-allow": "constructor"
      },
      "owner()": {
        "details": "Returns the address of the current owner."
      },
      "paused()": {
        "details": "Returns true if the contract is paused, and false otherwise."
      },
      "renounceOwnership()": {
        "details": "Leaves the contract without owner. It will not be possible to call `onlyOwner` functions anymore. Can only be called by the current owner. NOTE: Renouncing ownership will leave the contract without an owner, thereby removing any functionality that is only available to the owner."
      },
      "transferOwnership(address)": {
        "details": "Transfers ownership of the contract to a new account (`newOwner`). Can only be called by the current owner."
      }
    },
    "stateVariables": {
      "discountUses": {
        "details": "Maps for discounts. "
      },
      "planStatus": {
        "details": "Map for current plan status. "
      },
      "providerProfiles": {
        "details": "Map for provider to profile info. "
      },
      "subscriptionManager": {
        "details": "Address of subscription manager. "
      }
    },
    "version": 1
  },
  "userdoc": {
    "kind": "user",
    "methods": {
      "isTrustedForwarder(address)": {
        "notice": "return if the forwarder is trusted to forward relayed transactions to us. the forwarder is required to verify the sender's signature, and verify the call is not a replay."
      }
    },
    "version": 1
  },
  "storageLayout": {
    "storage": [
      {
        "astId": 72,
        "contract": "contracts/protocol/CaskSubscriptionPlans.sol:CaskSubscriptionPlans",
        "label": "_trustedForwarder",
        "offset": 0,
        "slot": "0",
        "type": "t_address"
      },
      {
        "astId": 918,
        "contract": "contracts/protocol/CaskSubscriptionPlans.sol:CaskSubscriptionPlans",
        "label": "_initialized",
        "offset": 20,
        "slot": "0",
        "type": "t_bool"
      },
      {
        "astId": 921,
        "contract": "contracts/protocol/CaskSubscriptionPlans.sol:CaskSubscriptionPlans",
        "label": "_initializing",
        "offset": 21,
        "slot": "0",
        "type": "t_bool"
      },
      {
        "astId": 3142,
        "contract": "contracts/protocol/CaskSubscriptionPlans.sol:CaskSubscriptionPlans",
        "label": "__gap",
        "offset": 0,
        "slot": "1",
        "type": "t_array(t_uint256)50_storage"
      },
      {
        "astId": 796,
        "contract": "contracts/protocol/CaskSubscriptionPlans.sol:CaskSubscriptionPlans",
        "label": "_owner",
        "offset": 0,
        "slot": "51",
        "type": "t_address"
      },
      {
        "astId": 910,
        "contract": "contracts/protocol/CaskSubscriptionPlans.sol:CaskSubscriptionPlans",
        "label": "__gap",
        "offset": 0,
        "slot": "52",
        "type": "t_array(t_uint256)49_storage"
      },
      {
        "astId": 1006,
        "contract": "contracts/protocol/CaskSubscriptionPlans.sol:CaskSubscriptionPlans",
        "label": "_paused",
        "offset": 0,
        "slot": "101",
        "type": "t_bool"
      },
      {
        "astId": 1097,
        "contract": "contracts/protocol/CaskSubscriptionPlans.sol:CaskSubscriptionPlans",
        "label": "__gap",
        "offset": 0,
        "slot": "102",
        "type": "t_array(t_uint256)49_storage"
      },
      {
        "astId": 11268,
        "contract": "contracts/protocol/CaskSubscriptionPlans.sol:CaskSubscriptionPlans",
        "label": "subscriptionManager",
        "offset": 0,
        "slot": "151",
        "type": "t_address"
      },
      {
        "astId": 11274,
        "contract": "contracts/protocol/CaskSubscriptionPlans.sol:CaskSubscriptionPlans",
        "label": "providerProfiles",
        "offset": 0,
        "slot": "152",
        "type": "t_mapping(t_address,t_struct(Provider)8778_storage)"
      },
      {
        "astId": 11282,
        "contract": "contracts/protocol/CaskSubscriptionPlans.sol:CaskSubscriptionPlans",
        "label": "planStatus",
        "offset": 0,
        "slot": "153",
        "type": "t_mapping(t_address,t_mapping(t_uint32,t_enum(PlanStatus)8758))"
      },
      {
        "astId": 11288,
        "contract": "contracts/protocol/CaskSubscriptionPlans.sol:CaskSubscriptionPlans",
        "label": "planEol",
        "offset": 0,
        "slot": "154",
        "type": "t_mapping(t_address,t_mapping(t_uint32,t_uint32))"
      },
      {
        "astId": 11297,
        "contract": "contracts/protocol/CaskSubscriptionPlans.sol:CaskSubscriptionPlans",
        "label": "discountUses",
        "offset": 0,
        "slot": "155",
        "type": "t_mapping(t_address,t_mapping(t_uint32,t_mapping(t_bytes32,t_uint256)))"
      },
      {
        "astId": 11332,
        "contract": "contracts/protocol/CaskSubscriptionPlans.sol:CaskSubscriptionPlans",
        "label": "versionRecipient",
        "offset": 0,
        "slot": "156",
        "type": "t_string_storage"
      }
    ],
    "types": {
      "t_address": {
        "encoding": "inplace",
        "label": "address",
        "numberOfBytes": "20"
      },
      "t_array(t_uint256)49_storage": {
        "base": "t_uint256",
        "encoding": "inplace",
        "label": "uint256[49]",
        "numberOfBytes": "1568"
      },
      "t_array(t_uint256)50_storage": {
        "base": "t_uint256",
        "encoding": "inplace",
        "label": "uint256[50]",
        "numberOfBytes": "1600"
      },
      "t_bool": {
        "encoding": "inplace",
        "label": "bool",
        "numberOfBytes": "1"
      },
      "t_bytes32": {
        "encoding": "inplace",
        "label": "bytes32",
        "numberOfBytes": "32"
      },
      "t_enum(PlanStatus)8758": {
        "encoding": "inplace",
        "label": "enum ICaskSubscriptionPlans.PlanStatus",
        "numberOfBytes": "1"
      },
      "t_mapping(t_address,t_mapping(t_uint32,t_enum(PlanStatus)8758))": {
        "encoding": "mapping",
        "key": "t_address",
        "label": "mapping(address => mapping(uint32 => enum ICaskSubscriptionPlans.PlanStatus))",
        "numberOfBytes": "32",
        "value": "t_mapping(t_uint32,t_enum(PlanStatus)8758)"
      },
      "t_mapping(t_address,t_mapping(t_uint32,t_mapping(t_bytes32,t_uint256)))": {
        "encoding": "mapping",
        "key": "t_address",
        "label": "mapping(address => mapping(uint32 => mapping(bytes32 => uint256)))",
        "numberOfBytes": "32",
        "value": "t_mapping(t_uint32,t_mapping(t_bytes32,t_uint256))"
      },
      "t_mapping(t_address,t_mapping(t_uint32,t_uint32))": {
        "encoding": "mapping",
        "key": "t_address",
        "label": "mapping(address => mapping(uint32 => uint32))",
        "numberOfBytes": "32",
        "value": "t_mapping(t_uint32,t_uint32)"
      },
      "t_mapping(t_address,t_struct(Provider)8778_storage)": {
        "encoding": "mapping",
        "key": "t_address",
        "label": "mapping(address => struct ICaskSubscriptionPlans.Provider)",
        "numberOfBytes": "32",
        "value": "t_struct(Provider)8778_storage"
      },
      "t_mapping(t_bytes32,t_uint256)": {
        "encoding": "mapping",
        "key": "t_bytes32",
        "label": "mapping(bytes32 => uint256)",
        "numberOfBytes": "32",
        "value": "t_uint256"
      },
      "t_mapping(t_uint32,t_enum(PlanStatus)8758)": {
        "encoding": "mapping",
        "key": "t_uint32",
        "label": "mapping(uint32 => enum ICaskSubscriptionPlans.PlanStatus)",
        "numberOfBytes": "32",
        "value": "t_enum(PlanStatus)8758"
      },
      "t_mapping(t_uint32,t_mapping(t_bytes32,t_uint256))": {
        "encoding": "mapping",
        "key": "t_uint32",
        "label": "mapping(uint32 => mapping(bytes32 => uint256))",
        "numberOfBytes": "32",
        "value": "t_mapping(t_bytes32,t_uint256)"
      },
      "t_mapping(t_uint32,t_uint32)": {
        "encoding": "mapping",
        "key": "t_uint32",
        "label": "mapping(uint32 => uint32)",
        "numberOfBytes": "32",
        "value": "t_uint32"
      },
      "t_string_storage": {
        "encoding": "bytes",
        "label": "string",
        "numberOfBytes": "32"
      },
      "t_struct(Provider)8778_storage": {
        "encoding": "inplace",
        "label": "struct ICaskSubscriptionPlans.Provider",
        "members": [
          {
            "astId": 8775,
            "contract": "contracts/protocol/CaskSubscriptionPlans.sol:CaskSubscriptionPlans",
            "label": "paymentAddress",
            "offset": 0,
            "slot": "0",
            "type": "t_address"
          },
          {
            "astId": 8777,
            "contract": "contracts/protocol/CaskSubscriptionPlans.sol:CaskSubscriptionPlans",
            "label": "cid",
            "offset": 0,
            "slot": "1",
            "type": "t_string_storage"
          }
        ],
        "numberOfBytes": "64"
      },
      "t_uint256": {
        "encoding": "inplace",
        "label": "uint256",
        "numberOfBytes": "32"
      },
      "t_uint32": {
        "encoding": "inplace",
        "label": "uint32",
        "numberOfBytes": "4"
      }
    }
  }
}