{
  "address": "0x8b7842D8A9f5F0137081B8be3aE25051D9f37F8A",
  "abi": [
    {
      "inputs": [],
      "stateMutability": "nonpayable",
      "type": "constructor"
    },
    {
      "anonymous": false,
      "inputs": [
        {
          "indexed": true,
          "internalType": "address",
          "name": "strategy",
          "type": "address"
        },
        {
          "indexed": true,
          "internalType": "address",
          "name": "asset",
          "type": "address"
        },
        {
          "indexed": false,
          "internalType": "uint256",
          "name": "assetAmount",
          "type": "uint256"
        }
      ],
      "name": "AllocatedToStrategy",
      "type": "event"
    },
    {
      "anonymous": false,
      "inputs": [
        {
          "indexed": true,
          "internalType": "address",
          "name": "asset",
          "type": "address"
        }
      ],
      "name": "AllowedAsset",
      "type": "event"
    },
    {
      "anonymous": false,
      "inputs": [
        {
          "indexed": true,
          "internalType": "address",
          "name": "owner",
          "type": "address"
        },
        {
          "indexed": true,
          "internalType": "address",
          "name": "spender",
          "type": "address"
        },
        {
          "indexed": false,
          "internalType": "uint256",
          "name": "value",
          "type": "uint256"
        }
      ],
      "name": "Approval",
      "type": "event"
    },
    {
      "anonymous": false,
      "inputs": [
        {
          "indexed": true,
          "internalType": "address",
          "name": "participant",
          "type": "address"
        },
        {
          "indexed": true,
          "internalType": "address",
          "name": "asset",
          "type": "address"
        },
        {
          "indexed": false,
          "internalType": "uint256",
          "name": "assetAmount",
          "type": "uint256"
        },
        {
          "indexed": false,
          "internalType": "uint256",
          "name": "baseAssetAmount",
          "type": "uint256"
        },
        {
          "indexed": false,
          "internalType": "uint256",
          "name": "shares",
          "type": "uint256"
        }
      ],
      "name": "AssetDeposited",
      "type": "event"
    },
    {
      "anonymous": false,
      "inputs": [
        {
          "indexed": true,
          "internalType": "address",
          "name": "participant",
          "type": "address"
        },
        {
          "indexed": true,
          "internalType": "address",
          "name": "asset",
          "type": "address"
        },
        {
          "indexed": false,
          "internalType": "uint256",
          "name": "assetAmount",
          "type": "uint256"
        },
        {
          "indexed": false,
          "internalType": "uint256",
          "name": "baseAssetAmount",
          "type": "uint256"
        },
        {
          "indexed": false,
          "internalType": "uint256",
          "name": "shares",
          "type": "uint256"
        }
      ],
      "name": "AssetWithdrawn",
      "type": "event"
    },
    {
      "anonymous": false,
      "inputs": [
        {
          "indexed": true,
          "internalType": "address",
          "name": "previousOwner",
          "type": "address"
        },
        {
          "indexed": true,
          "internalType": "address",
          "name": "newOwner",
          "type": "address"
        }
      ],
      "name": "OwnershipTransferred",
      "type": "event"
    },
    {
      "anonymous": false,
      "inputs": [
        {
          "indexed": false,
          "internalType": "address",
          "name": "account",
          "type": "address"
        }
      ],
      "name": "Paused",
      "type": "event"
    },
    {
      "anonymous": false,
      "inputs": [
        {
          "indexed": true,
          "internalType": "address",
          "name": "from",
          "type": "address"
        },
        {
          "indexed": true,
          "internalType": "address",
          "name": "to",
          "type": "address"
        },
        {
          "indexed": false,
          "internalType": "uint256",
          "name": "baseAssetAmount",
          "type": "uint256"
        },
        {
          "indexed": false,
          "internalType": "uint256",
          "name": "baseAssetFee",
          "type": "uint256"
        },
        {
          "indexed": false,
          "internalType": "uint256",
          "name": "shares",
          "type": "uint256"
        }
      ],
      "name": "Payment",
      "type": "event"
    },
    {
      "anonymous": false,
      "inputs": [
        {
          "indexed": true,
          "internalType": "address",
          "name": "from",
          "type": "address"
        },
        {
          "indexed": true,
          "internalType": "address",
          "name": "to",
          "type": "address"
        },
        {
          "indexed": false,
          "internalType": "uint256",
          "name": "value",
          "type": "uint256"
        }
      ],
      "name": "Transfer",
      "type": "event"
    },
    {
      "anonymous": false,
      "inputs": [
        {
          "indexed": true,
          "internalType": "address",
          "name": "from",
          "type": "address"
        },
        {
          "indexed": true,
          "internalType": "address",
          "name": "to",
          "type": "address"
        },
        {
          "indexed": false,
          "internalType": "uint256",
          "name": "baseAssetValue",
          "type": "uint256"
        }
      ],
      "name": "TransferValue",
      "type": "event"
    },
    {
      "anonymous": false,
      "inputs": [
        {
          "indexed": false,
          "internalType": "address",
          "name": "account",
          "type": "address"
        }
      ],
      "name": "Unpaused",
      "type": "event"
    },
    {
      "inputs": [
        {
          "internalType": "address",
          "name": "_protocol",
          "type": "address"
        }
      ],
      "name": "addProtocol",
      "outputs": [],
      "stateMutability": "nonpayable",
      "type": "function"
    },
    {
      "inputs": [
        {
          "internalType": "address",
          "name": "_strategy",
          "type": "address"
        },
        {
          "internalType": "address",
          "name": "_asset",
          "type": "address"
        },
        {
          "internalType": "uint256",
          "name": "_assetAmount",
          "type": "uint256"
        }
      ],
      "name": "allocateToStrategy",
      "outputs": [],
      "stateMutability": "nonpayable",
      "type": "function"
    },
    {
      "inputs": [
        {
          "internalType": "address",
          "name": "_asset",
          "type": "address"
        },
        {
          "internalType": "address",
          "name": "_priceFeed",
          "type": "address"
        },
        {
          "internalType": "uint256",
          "name": "_depositLimit",
          "type": "uint256"
        },
        {
          "internalType": "uint256",
          "name": "_slippageBps",
          "type": "uint256"
        }
      ],
      "name": "allowAsset",
      "outputs": [],
      "stateMutability": "nonpayable",
      "type": "function"
    },
    {
      "inputs": [
        {
          "internalType": "address",
          "name": "owner",
          "type": "address"
        },
        {
          "internalType": "address",
          "name": "spender",
          "type": "address"
        }
      ],
      "name": "allowance",
      "outputs": [
        {
          "internalType": "uint256",
          "name": "",
          "type": "uint256"
        }
      ],
      "stateMutability": "view",
      "type": "function"
    },
    {
      "inputs": [
        {
          "internalType": "address",
          "name": "spender",
          "type": "address"
        },
        {
          "internalType": "uint256",
          "name": "amount",
          "type": "uint256"
        }
      ],
      "name": "approve",
      "outputs": [
        {
          "internalType": "bool",
          "name": "",
          "type": "bool"
        }
      ],
      "stateMutability": "nonpayable",
      "type": "function"
    },
    {
      "inputs": [
        {
          "internalType": "address",
          "name": "account",
          "type": "address"
        }
      ],
      "name": "balanceOf",
      "outputs": [
        {
          "internalType": "uint256",
          "name": "",
          "type": "uint256"
        }
      ],
      "stateMutability": "view",
      "type": "function"
    },
    {
      "inputs": [],
      "name": "baseAsset",
      "outputs": [
        {
          "internalType": "address",
          "name": "",
          "type": "address"
        }
      ],
      "stateMutability": "view",
      "type": "function"
    },
    {
      "inputs": [
        {
          "internalType": "address",
          "name": "_fromAsset",
          "type": "address"
        },
        {
          "internalType": "address",
          "name": "_toAsset",
          "type": "address"
        },
        {
          "internalType": "uint256",
          "name": "_fromAmount",
          "type": "uint256"
        }
      ],
      "name": "convertPrice",
      "outputs": [
        {
          "internalType": "uint256",
          "name": "",
          "type": "uint256"
        }
      ],
      "stateMutability": "view",
      "type": "function"
    },
    {
      "inputs": [
        {
          "internalType": "address",
          "name": "_address",
          "type": "address"
        }
      ],
      "name": "currentValueOf",
      "outputs": [
        {
          "internalType": "uint256",
          "name": "",
          "type": "uint256"
        }
      ],
      "stateMutability": "view",
      "type": "function"
    },
    {
      "inputs": [],
      "name": "decimals",
      "outputs": [
        {
          "internalType": "uint8",
          "name": "",
          "type": "uint8"
        }
      ],
      "stateMutability": "view",
      "type": "function"
    },
    {
      "inputs": [
        {
          "internalType": "address",
          "name": "spender",
          "type": "address"
        },
        {
          "internalType": "uint256",
          "name": "subtractedValue",
          "type": "uint256"
        }
      ],
      "name": "decreaseAllowance",
      "outputs": [
        {
          "internalType": "bool",
          "name": "",
          "type": "bool"
        }
      ],
      "stateMutability": "nonpayable",
      "type": "function"
    },
    {
      "inputs": [
        {
          "internalType": "address",
          "name": "_asset",
          "type": "address"
        },
        {
          "internalType": "uint256",
          "name": "_assetAmount",
          "type": "uint256"
        }
      ],
      "name": "deposit",
      "outputs": [],
      "stateMutability": "nonpayable",
      "type": "function"
    },
    {
      "inputs": [
        {
          "internalType": "address",
          "name": "_to",
          "type": "address"
        },
        {
          "internalType": "address",
          "name": "_asset",
          "type": "address"
        },
        {
          "internalType": "uint256",
          "name": "_assetAmount",
          "type": "uint256"
        }
      ],
      "name": "depositTo",
      "outputs": [],
      "stateMutability": "nonpayable",
      "type": "function"
    },
    {
      "inputs": [],
      "name": "feeDistributor",
      "outputs": [
        {
          "internalType": "address",
          "name": "",
          "type": "address"
        }
      ],
      "stateMutability": "view",
      "type": "function"
    },
    {
      "inputs": [],
      "name": "getAllAssets",
      "outputs": [
        {
          "internalType": "address[]",
          "name": "",
          "type": "address[]"
        }
      ],
      "stateMutability": "view",
      "type": "function"
    },
    {
      "inputs": [
        {
          "internalType": "address",
          "name": "_asset",
          "type": "address"
        }
      ],
      "name": "getAsset",
      "outputs": [
        {
          "components": [
            {
              "internalType": "address",
              "name": "priceFeed",
              "type": "address"
            },
            {
              "internalType": "uint256",
              "name": "slippageBps",
              "type": "uint256"
            },
            {
              "internalType": "uint256",
              "name": "depositLimit",
              "type": "uint256"
            },
            {
              "internalType": "uint8",
              "name": "assetDecimals",
              "type": "uint8"
            },
            {
              "internalType": "uint8",
              "name": "priceFeedDecimals",
              "type": "uint8"
            },
            {
              "internalType": "bool",
              "name": "allowed",
              "type": "bool"
            }
          ],
          "internalType": "struct ICaskVault.Asset",
          "name": "",
          "type": "tuple"
        }
      ],
      "stateMutability": "view",
      "type": "function"
    },
    {
      "inputs": [],
      "name": "getBaseAsset",
      "outputs": [
        {
          "internalType": "address",
          "name": "",
          "type": "address"
        }
      ],
      "stateMutability": "view",
      "type": "function"
    },
    {
      "inputs": [
        {
          "internalType": "address",
          "name": "spender",
          "type": "address"
        },
        {
          "internalType": "uint256",
          "name": "addedValue",
          "type": "uint256"
        }
      ],
      "name": "increaseAllowance",
      "outputs": [
        {
          "internalType": "bool",
          "name": "",
          "type": "bool"
        }
      ],
      "stateMutability": "nonpayable",
      "type": "function"
    },
    {
      "inputs": [
        {
          "internalType": "address",
          "name": "_vaultManager",
          "type": "address"
        },
        {
          "internalType": "address",
          "name": "_baseAsset",
          "type": "address"
        },
        {
          "internalType": "address",
          "name": "_baseAssetPriceFeed",
          "type": "address"
        },
        {
          "internalType": "address",
          "name": "_feeDistributor",
          "type": "address"
        }
      ],
      "name": "initialize",
      "outputs": [],
      "stateMutability": "nonpayable",
      "type": "function"
    },
    {
      "inputs": [
        {
          "internalType": "address",
          "name": "forwarder",
          "type": "address"
        }
      ],
      "name": "isTrustedForwarder",
      "outputs": [
        {
          "internalType": "bool",
          "name": "",
          "type": "bool"
        }
      ],
      "stateMutability": "view",
      "type": "function"
    },
    {
      "inputs": [],
      "name": "name",
      "outputs": [
        {
          "internalType": "string",
          "name": "",
          "type": "string"
        }
      ],
      "stateMutability": "view",
      "type": "function"
    },
    {
      "inputs": [],
      "name": "owner",
      "outputs": [
        {
          "internalType": "address",
          "name": "",
          "type": "address"
        }
      ],
      "stateMutability": "view",
      "type": "function"
    },
    {
      "inputs": [],
      "name": "pause",
      "outputs": [],
      "stateMutability": "nonpayable",
      "type": "function"
    },
    {
      "inputs": [],
      "name": "paused",
      "outputs": [
        {
          "internalType": "bool",
          "name": "",
          "type": "bool"
        }
      ],
      "stateMutability": "view",
      "type": "function"
    },
    {
      "inputs": [],
      "name": "pricePerShare",
      "outputs": [
        {
          "internalType": "uint256",
          "name": "",
          "type": "uint256"
        }
      ],
      "stateMutability": "view",
      "type": "function"
    },
    {
      "inputs": [],
      "name": "protocolCount",
      "outputs": [
        {
          "internalType": "uint256",
          "name": "",
          "type": "uint256"
        }
      ],
      "stateMutability": "view",
      "type": "function"
    },
    {
      "inputs": [
        {
          "internalType": "address",
          "name": "_from",
          "type": "address"
        },
        {
          "internalType": "address",
          "name": "_to",
          "type": "address"
        },
        {
          "internalType": "uint256",
          "name": "_value",
          "type": "uint256"
        },
        {
          "internalType": "uint256",
          "name": "_protocolFee",
          "type": "uint256"
        },
        {
          "internalType": "address",
          "name": "_network",
          "type": "address"
        },
        {
          "internalType": "uint256",
          "name": "_networkFee",
          "type": "uint256"
        }
      ],
      "name": "protocolPayment",
      "outputs": [],
      "stateMutability": "nonpayable",
      "type": "function"
    },
    {
      "inputs": [
        {
          "internalType": "address",
          "name": "_from",
          "type": "address"
        },
        {
          "internalType": "address",
          "name": "_to",
          "type": "address"
        },
        {
          "internalType": "uint256",
          "name": "_value",
          "type": "uint256"
        }
      ],
      "name": "protocolPayment",
      "outputs": [],
      "stateMutability": "nonpayable",
      "type": "function"
    },
    {
      "inputs": [
        {
          "internalType": "address",
          "name": "_from",
          "type": "address"
        },
        {
          "internalType": "address",
          "name": "_to",
          "type": "address"
        },
        {
          "internalType": "uint256",
          "name": "_value",
          "type": "uint256"
        },
        {
          "internalType": "uint256",
          "name": "_protocolFee",
          "type": "uint256"
        }
      ],
      "name": "protocolPayment",
      "outputs": [],
      "stateMutability": "nonpayable",
      "type": "function"
    },
    {
      "inputs": [
        {
          "internalType": "uint256",
          "name": "",
          "type": "uint256"
        }
      ],
      "name": "protocols",
      "outputs": [
        {
          "internalType": "address",
          "name": "",
          "type": "address"
        }
      ],
      "stateMutability": "view",
      "type": "function"
    },
    {
      "inputs": [
        {
          "internalType": "address",
          "name": "_protocol",
          "type": "address"
        }
      ],
      "name": "removeProtocol",
      "outputs": [],
      "stateMutability": "nonpayable",
      "type": "function"
    },
    {
      "inputs": [],
      "name": "renounceOwnership",
      "outputs": [],
      "stateMutability": "nonpayable",
      "type": "function"
    },
    {
      "inputs": [
        {
          "internalType": "address",
          "name": "_feeDistributor",
          "type": "address"
        }
      ],
      "name": "setFeeDistributor",
      "outputs": [],
      "stateMutability": "nonpayable",
      "type": "function"
    },
    {
      "inputs": [
        {
          "internalType": "address",
          "name": "_vaultManager",
          "type": "address"
        }
      ],
      "name": "setManager",
      "outputs": [],
      "stateMutability": "nonpayable",
      "type": "function"
    },
    {
      "inputs": [
        {
          "internalType": "address",
          "name": "_forwarder",
          "type": "address"
        }
      ],
      "name": "setTrustedForwarder",
      "outputs": [],
      "stateMutability": "nonpayable",
      "type": "function"
    },
    {
      "inputs": [
        {
          "internalType": "address",
          "name": "_asset",
          "type": "address"
        }
      ],
      "name": "supportsAsset",
      "outputs": [
        {
          "internalType": "bool",
          "name": "",
          "type": "bool"
        }
      ],
      "stateMutability": "view",
      "type": "function"
    },
    {
      "inputs": [],
      "name": "symbol",
      "outputs": [
        {
          "internalType": "string",
          "name": "",
          "type": "string"
        }
      ],
      "stateMutability": "view",
      "type": "function"
    },
    {
      "inputs": [
        {
          "internalType": "address",
          "name": "_asset",
          "type": "address"
        }
      ],
      "name": "totalAssetBalance",
      "outputs": [
        {
          "internalType": "uint256",
          "name": "",
          "type": "uint256"
        }
      ],
      "stateMutability": "view",
      "type": "function"
    },
    {
      "inputs": [],
      "name": "totalSupply",
      "outputs": [
        {
          "internalType": "uint256",
          "name": "",
          "type": "uint256"
        }
      ],
      "stateMutability": "view",
      "type": "function"
    },
    {
      "inputs": [],
      "name": "totalValue",
      "outputs": [
        {
          "internalType": "uint256",
          "name": "",
          "type": "uint256"
        }
      ],
      "stateMutability": "view",
      "type": "function"
    },
    {
      "inputs": [
        {
          "internalType": "address",
          "name": "recipient",
          "type": "address"
        },
        {
          "internalType": "uint256",
          "name": "amount",
          "type": "uint256"
        }
      ],
      "name": "transfer",
      "outputs": [
        {
          "internalType": "bool",
          "name": "",
          "type": "bool"
        }
      ],
      "stateMutability": "nonpayable",
      "type": "function"
    },
    {
      "inputs": [
        {
          "internalType": "address",
          "name": "sender",
          "type": "address"
        },
        {
          "internalType": "address",
          "name": "recipient",
          "type": "address"
        },
        {
          "internalType": "uint256",
          "name": "amount",
          "type": "uint256"
        }
      ],
      "name": "transferFrom",
      "outputs": [
        {
          "internalType": "bool",
          "name": "",
          "type": "bool"
        }
      ],
      "stateMutability": "nonpayable",
      "type": "function"
    },
    {
      "inputs": [
        {
          "internalType": "address",
          "name": "newOwner",
          "type": "address"
        }
      ],
      "name": "transferOwnership",
      "outputs": [],
      "stateMutability": "nonpayable",
      "type": "function"
    },
    {
      "inputs": [
        {
          "internalType": "address",
          "name": "_recipient",
          "type": "address"
        },
        {
          "internalType": "uint256",
          "name": "_value",
          "type": "uint256"
        }
      ],
      "name": "transferValue",
      "outputs": [
        {
          "internalType": "bool",
          "name": "",
          "type": "bool"
        }
      ],
      "stateMutability": "nonpayable",
      "type": "function"
    },
    {
      "inputs": [
        {
          "internalType": "address",
          "name": "_sender",
          "type": "address"
        },
        {
          "internalType": "address",
          "name": "_recipient",
          "type": "address"
        },
        {
          "internalType": "uint256",
          "name": "_value",
          "type": "uint256"
        }
      ],
      "name": "transferValueFrom",
      "outputs": [
        {
          "internalType": "bool",
          "name": "",
          "type": "bool"
        }
      ],
      "stateMutability": "nonpayable",
      "type": "function"
    },
    {
      "inputs": [],
      "name": "trustedForwarder",
      "outputs": [
        {
          "internalType": "address",
          "name": "",
          "type": "address"
        }
      ],
      "stateMutability": "view",
      "type": "function"
    },
    {
      "inputs": [],
      "name": "unpause",
      "outputs": [],
      "stateMutability": "nonpayable",
      "type": "function"
    },
    {
      "inputs": [],
      "name": "vaultManager",
      "outputs": [
        {
          "internalType": "address",
          "name": "",
          "type": "address"
        }
      ],
      "stateMutability": "view",
      "type": "function"
    },
    {
      "inputs": [],
      "name": "versionRecipient",
      "outputs": [
        {
          "internalType": "string",
          "name": "",
          "type": "string"
        }
      ],
      "stateMutability": "pure",
      "type": "function"
    },
    {
      "inputs": [
        {
          "internalType": "address",
          "name": "_asset",
          "type": "address"
        },
        {
          "internalType": "uint256",
          "name": "_shares",
          "type": "uint256"
        }
      ],
      "name": "withdraw",
      "outputs": [],
      "stateMutability": "nonpayable",
      "type": "function"
    },
    {
      "inputs": [
        {
          "internalType": "address",
          "name": "_recipient",
          "type": "address"
        },
        {
          "internalType": "address",
          "name": "_asset",
          "type": "address"
        },
        {
          "internalType": "uint256",
          "name": "_shares",
          "type": "uint256"
        }
      ],
      "name": "withdrawTo",
      "outputs": [],
      "stateMutability": "nonpayable",
      "type": "function"
    }
  ],
  "transactionHash": "0x1d7cfd4512d0763ea8aad945d66617574bcb87ee1dc8c3da0b60820e94d12dc2",
  "args": [],
  "numDeployments": 3,
  "solcInputHash": "05f56828c5621fb54ad086540c38062b",
  "bytecode": "0x60806040523480156200001157600080fd5b50600054610100900460ff166200002f5760005460ff161562000039565b62000039620000de565b620000a15760405162461bcd60e51b815260206004820152602e60248201527f496e697469616c697a61626c653a20636f6e747261637420697320616c72656160448201526d191e481a5b9a5d1a585b1a5e995960921b606482015260840160405180910390fd5b600054610100900460ff16158015620000c4576000805461ffff19166101011790555b8015620000d7576000805461ff00191690555b5062000102565b6000620000f630620000fc60201b62001eb41760201c565b15905090565b3b151590565b613c3580620001126000396000f3fe608060405234801561001057600080fd5b50600436106102f15760003560e01c80637da0a8771161019d578063ccfc2e8d116100e9578063e2eed04f116100a2578063f2fde38b1161007c578063f2fde38b146107c0578063f3fef3a3146107d3578063f8c8765e146107e6578063fcd6a25b146107f957600080fd5b8063e2eed04f14610791578063e51303221461079a578063f213159c146107ad57600080fd5b8063ccfc2e8d14610704578063cdf456e114610717578063d0ebdbe71461072a578063d4c3eea01461073d578063da74222814610745578063dd62ed3e1461075857600080fd5b80638e3e580d11610156578063a457c2d711610130578063a457c2d714610695578063a9059cbb146106a8578063aa388af6146106bb578063c3b35a7e146106f157600080fd5b80638e3e580d1461067257806395d89b411461068557806399530b061461068d57600080fd5b80637da0a877146106115780638456cb59146106225780638a4adf241461062a5780638c3962201461063d5780638d3a4af6146106505780638da5cb5b1461066157600080fd5b80633f4ba83a1161025c578063597435cb1161021557806370a08231116101ef57806370a08231146105ba578063715018a6146105e3578063771d4c28146105eb57806379b2125f146105fe57600080fd5b8063597435cb146105895780635a4161ff1461059c5780635c975abb146105af57600080fd5b80633f4ba83a1461050557806347e7ef241461050d578063486ff0cd146105205780634bb846e1146105415780635517575d14610554578063572b6c051461056757600080fd5b80631e377d39116102ae5780631e377d391461039c57806323b872dd146103af5780632acada4d146103c257806330b8b2c6146103d7578063313ce567146104e357806339509351146104f257600080fd5b806306fdde03146102f657806308751b1814610314578063095ea7b3146103375780630d43e8ad1461034a57806318160ddd1461037557806318ff576814610387575b600080fd5b6102fe61080c565b60405161030b9190613553565b60405180910390f35b61032761032236600461359d565b61089e565b604051901515815260200161030b565b6103276103453660046135d9565b61098c565b60fe5461035d906001600160a01b031681565b6040516001600160a01b03909116815260200161030b565b6036545b60405190815260200161030b565b61039a610395366004613603565b6109aa565b005b61039a6103aa36600461361e565b610b19565b6103276103bd36600461359d565b610ec6565b6103ca610f58565b60405161030b9190613660565b6104876103e5366004613603565b6040805160c081018252600080825260208201819052918101829052606081018290526080810182905260a0810191909152506001600160a01b03908116600090815260ff6020818152604092839020835160c08101855281549095168552600181015491850191909152600281015492840192909252600390910154808216606084015261010081048216608084015262010000900416151560a082015290565b60405161030b9190600060c08201905060018060a01b038351168252602083015160208301526040830151604083015260ff606084015116606083015260ff608084015116608083015260a0830151151560a083015292915050565b6040516012815260200161030b565b6103276105003660046135d9565b610fba565b61039a61100e565b61039a61051b3660046135d9565b611061565b6040805180820190915260058152640322e322e360dc1b60208201526102fe565b61037961054f36600461359d565b6110a4565b610379610562366004613603565b6110b9565b610327610575366004613603565b6033546001600160a01b0391821691161490565b610379610597366004613603565b6110c4565b6103276105aa3660046135d9565b6110eb565b60985460ff16610327565b6103796105c8366004613603565b6001600160a01b031660009081526034602052604090205490565b61039a611190565b61039a6105f9366004613603565b6111e3565b61039a61060c3660046136ad565b61127f565b6033546001600160a01b031661035d565b61039a61134b565b60fc5461035d906001600160a01b031681565b61035d61064b36600461370c565b61139c565b60fd546001600160a01b031661035d565b6066546001600160a01b031661035d565b61039a61068036600461359d565b6113c7565b6102fe611492565b6103796114a1565b6103276106a33660046135d9565b6114d6565b6103276106b63660046135d9565b61158d565b6103276106c9366004613603565b6001600160a01b0316600090815260ff60208190526040909120600301546201000090041690565b61039a6106ff36600461359d565b6115a1565b61039a610712366004613603565b6115de565b60fd5461035d906001600160a01b031681565b61039a610738366004613603565b611649565b6103796116b4565b61039a610753366004613603565b6116be565b610379610766366004613725565b6001600160a01b03918216600090815260356020908152604080832093909416825291909152205490565b61010154610379565b61039a6107a836600461359d565b611728565b61039a6107bb36600461359d565b611859565b61039a6107ce366004613603565b61188c565b61039a6107e13660046135d9565b611943565b61039a6107f4366004613758565b61197d565b61039a61080736600461361e565b611de9565b60606037805461081b906137ac565b80601f0160208091040260200160405190810160405280929190818152602001828054610847906137ac565b80156108945780601f1061086957610100808354040283529160200191610894565b820191906000526020600020905b81548152906001019060200180831161087757829003601f168201915b5050505050905090565b6000600260ca5414156108cc5760405162461bcd60e51b81526004016108c3906137e1565b60405180910390fd5b600260ca5560006108dc83611eba565b90506108e9858583611ef4565b60006108f7866107666120bb565b9050818110156109195760405162461bcd60e51b81526004016108c390613818565b61092d866109256120bb565b8484036120c5565b846001600160a01b0316866001600160a01b03167f2421a6dcbfdf7a7175258b52e6252d9c54cea69dd07d0c4f2ae6f031104750388660405161097291815260200190565b60405180910390a3600192505050600160ca559392505050565b60006109a06109996120bb565b84846120c5565b5060015b92915050565b6109b26120bb565b6001600160a01b03166109cd6066546001600160a01b031690565b6001600160a01b0316146109f35760405162461bcd60e51b81526004016108c390613860565b6101015460005b61010154811015610a5857826001600160a01b03166101018281548110610a2357610a23613895565b6000918252602090912001546001600160a01b03161415610a4657809150610a58565b80610a50816138c1565b9150506109fa565b5061010154811015610b15576101018054610a75906001906138dc565b81548110610a8557610a85613895565b60009182526020909120015461010180546001600160a01b039092169183908110610ab257610ab2613895565b9060005260206000200160006101000a8154816001600160a01b0302191690836001600160a01b03160217905550610101805480610af257610af26138f3565b600082815260209020810160001990810180546001600160a01b03191690550190555b5050565b610b216120bb565b6001600160a01b0316610b3c6066546001600160a01b031690565b6001600160a01b031614610b625760405162461bcd60e51b81526004016108c390613860565b6000846001600160a01b031663313ce5676040518163ffffffff1660e01b815260040160206040518083038186803b158015610b9d57600080fd5b505afa158015610bb1573d6000803e3d6000fd5b505050506040513d601f19601f82011682018060405250810190610bd59190613909565b60ff1611610c175760405162461bcd60e51b815260206004820152600f60248201526e21494e56414c49442861737365742960881b60448201526064016108c3565b6000836001600160a01b031663313ce5676040518163ffffffff1660e01b815260040160206040518083038186803b158015610c5257600080fd5b505afa158015610c66573d6000803e3d6000fd5b505050506040513d601f19601f82011682018060405250810190610c8a9190613909565b60ff1611610cd05760405162461bcd60e51b815260206004820152601360248201527221494e56414c4944287072696365466565642960681b60448201526064016108c3565b6001600160a01b03848116600081815260ff602090815260409182902080546001600160a01b0319169488169490941784556002840186905560018401859055815163313ce56760e01b8152915163313ce567926004808201939291829003018186803b158015610d4057600080fd5b505afa158015610d54573d6000803e3d6000fd5b505050506040513d601f19601f82011682018060405250810190610d789190613909565b8160030160006101000a81548160ff021916908360ff160217905550836001600160a01b031663313ce5676040518163ffffffff1660e01b815260040160206040518083038186803b158015610dcd57600080fd5b505afa158015610de1573d6000803e3d6000fd5b505050506040513d601f19601f82011682018060405250810190610e059190613909565b60038201805461ff00191661010060ff93841602179081905562010000900416610e8b5760038101805462ff000019166201000017905561010080546001810182556000919091527f45e010b9ae401e2eb71529478da8bd513a9bdc2d095a111e324f5b95c09ed87b0180546001600160a01b0387166001600160a01b03199091161790555b6040516001600160a01b038616907f06a94869c30cb7089f57f8d4a5ff251ac74a8c2bc361e7f91bda209898de8ead90600090a25050505050565b6000610ed3848484611ef4565b6001600160a01b038416600090815260356020526040812081610ef46120bb565b6001600160a01b03166001600160a01b0316815260200190815260200160002054905082811015610f375760405162461bcd60e51b81526004016108c390613818565b610f4b85610f436120bb565b8584036120c5565b60019150505b9392505050565b606061010080548060200260200160405190810160405280929190818152602001828054801561089457602002820191906000526020600020905b81546001600160a01b03168152600190910190602001808311610f93575050505050905090565b60006109a0610fc76120bb565b848460356000610fd56120bb565b6001600160a01b03908116825260208083019390935260409182016000908120918b1681529252902054611009919061392c565b6120c5565b6110166120bb565b6001600160a01b03166110316066546001600160a01b031690565b6001600160a01b0316146110575760405162461bcd60e51b81526004016108c390613860565b61105f6121e9565b565b600260ca5414156110845760405162461bcd60e51b81526004016108c3906137e1565b600260ca5561109b6110946120bb565b8383612282565b5050600160ca55565b60006110b1848484612411565b949350505050565b60006109a482612817565b6001600160a01b0381166000908152603460205260408120546109a490612916565b612916565b6000600260ca5414156111105760405162461bcd60e51b81526004016108c3906137e1565b600260ca5561112f6111206120bb565b8461112a85611eba565b611ef4565b826001600160a01b03166111416120bb565b6001600160a01b03167f2421a6dcbfdf7a7175258b52e6252d9c54cea69dd07d0c4f2ae6f031104750388460405161117b91815260200190565b60405180910390a35060018060ca5592915050565b6111986120bb565b6001600160a01b03166111b36066546001600160a01b031690565b6001600160a01b0316146111d95760405162461bcd60e51b81526004016108c390613860565b61105f6000612934565b6111eb6120bb565b6001600160a01b03166112066066546001600160a01b031690565b6001600160a01b03161461122c5760405162461bcd60e51b81526004016108c390613860565b61010180546001810182556000919091527f109ea3cebb188b9c1b9fc5bb3920be60dfdc8699098dff92f3d80daaca7476890180546001600160a01b0319166001600160a01b0392909216919091179055565b600260ca5414156112a25760405162461bcd60e51b81526004016108c3906137e1565b600260ca556000805b610101548110156113115761010181815481106112ca576112ca613895565b6000918252602090912001546001600160a01b03166112e76120bb565b6001600160a01b031614156112ff5760019150611311565b80611309816138c1565b9150506112ab565b508061132f5760405162461bcd60e51b81526004016108c390613944565b61133d878787878787612986565b5050600160ca555050505050565b6113536120bb565b6001600160a01b031661136e6066546001600160a01b031690565b6001600160a01b0316146113945760405162461bcd60e51b81526004016108c390613860565b61105f612a67565b61010181815481106113ad57600080fd5b6000918252602090912001546001600160a01b0316905081565b600260ca5414156113ea5760405162461bcd60e51b81526004016108c3906137e1565b600260ca556000805b6101015481101561145957610101818154811061141257611412613895565b6000918252602090912001546001600160a01b031661142f6120bb565b6001600160a01b031614156114475760019150611459565b80611451816138c1565b9150506113f3565b50806114775760405162461bcd60e51b81526004016108c390613944565b6114878484846000806000612986565b5050600160ca555050565b60606038805461081b906137ac565b60fd546001600160a01b0316600090815260ff602081905260408220600301546114d1916110e69116600a613a47565b905090565b600080603560006114e56120bb565b6001600160a01b039081168252602080830193909352604091820160009081209188168152925290205490508281101561156f5760405162461bcd60e51b815260206004820152602560248201527f45524332303a2064656372656173656420616c6c6f77616e63652062656c6f77604482015264207a65726f60d81b60648201526084016108c3565b61158361157a6120bb565b858584036120c5565b5060019392505050565b60006109a061159a6120bb565b8484611ef4565b600260ca5414156115c45760405162461bcd60e51b81526004016108c3906137e1565b600260ca556115d4838383612ae3565b5050600160ca5550565b6115e66120bb565b6001600160a01b03166116016066546001600160a01b031690565b6001600160a01b0316146116275760405162461bcd60e51b81526004016108c390613860565b60fe80546001600160a01b0319166001600160a01b0392909216919091179055565b6116516120bb565b6001600160a01b031661166c6066546001600160a01b031690565b6001600160a01b0316146116925760405162461bcd60e51b81526004016108c390613860565b60fc80546001600160a01b0319166001600160a01b0392909216919091179055565b60006114d1612c61565b6116c66120bb565b6001600160a01b03166116e16066546001600160a01b031690565b6001600160a01b0316146117075760405162461bcd60e51b81526004016108c390613860565b603380546001600160a01b0319166001600160a01b03831617905550565b50565b6000805b6101015481101561179257610101818154811061174b5761174b613895565b6000918252602090912001546001600160a01b03166117686120bb565b6001600160a01b031614156117805760019150611792565b8061178a816138c1565b91505061172c565b50806117b05760405162461bcd60e51b81526004016108c390613944565b6001600160a01b038316600090815260ff6020819052604090912060030154620100009004166117f25760405162461bcd60e51b81526004016108c390613a56565b6118066001600160a01b0384168584612d65565b826001600160a01b0316846001600160a01b03167f4d0df46bea966973af88bd9f2ec263268a205e0a196a519fca0aded1b05256488460405161184b91815260200190565b60405180910390a350505050565b600260ca54141561187c5760405162461bcd60e51b81526004016108c3906137e1565b600260ca556115d4838383612282565b6118946120bb565b6001600160a01b03166118af6066546001600160a01b031690565b6001600160a01b0316146118d55760405162461bcd60e51b81526004016108c390613860565b6001600160a01b03811661193a5760405162461bcd60e51b815260206004820152602660248201527f4f776e61626c653a206e6577206f776e657220697320746865207a65726f206160448201526564647265737360d01b60648201526084016108c3565b61172581612934565b600260ca5414156119665760405162461bcd60e51b81526004016108c3906137e1565b600260ca5561109b6119766120bb565b8383612ae3565b600054610100900460ff166119985760005460ff161561199c565b303b155b6119ff5760405162461bcd60e51b815260206004820152602e60248201527f496e697469616c697a61626c653a20636f6e747261637420697320616c72656160448201526d191e481a5b9a5d1a585b1a5e995960921b60648201526084016108c3565b600054610100900460ff16158015611a21576000805461ffff19166101011790555b611a29612dcd565b611a31612e04565b611a39612e3b565b611a88604051806040016040528060118152602001704361736b205661756c7420546f6b656e7360781b8152506040518060400160405280600481526020016309a82a6960e31b815250612e6a565b6000846001600160a01b031663313ce5676040518163ffffffff1660e01b815260040160206040518083038186803b158015611ac357600080fd5b505afa158015611ad7573d6000803e3d6000fd5b505050506040513d601f19601f82011682018060405250810190611afb9190613909565b60ff1611611b415760405162461bcd60e51b815260206004820152601360248201527221494e56414c4944286261736541737365742960681b60448201526064016108c3565b6000836001600160a01b031663313ce5676040518163ffffffff1660e01b815260040160206040518083038186803b158015611b7c57600080fd5b505afa158015611b90573d6000803e3d6000fd5b505050506040513d601f19601f82011682018060405250810190611bb49190613909565b60ff1611611c045760405162461bcd60e51b815260206004820152601c60248201527f21494e56414c494428626173654173736574507269636546656564290000000060448201526064016108c3565b6001600160a01b03848116600081815260ff602090815260409182902080546001600160a01b031916948816949094178455815163313ce56760e01b8152915163313ce567926004808201939291829003018186803b158015611c6657600080fd5b505afa158015611c7a573d6000803e3d6000fd5b505050506040513d601f19601f82011682018060405250810190611c9e9190613909565b8160030160006101000a81548160ff021916908360ff160217905550836001600160a01b031663313ce5676040518163ffffffff1660e01b815260040160206040518083038186803b158015611cf357600080fd5b505afa158015611d07573d6000803e3d6000fd5b505050506040513d601f19601f82011682018060405250810190611d2b9190613909565b600382018054600060019485018190556201000062ffff001990921661010060ff95909516850262ff00001916179190911790915581549283018255527f45e010b9ae401e2eb71529478da8bd513a9bdc2d095a111e324f5b95c09ed87b0180546001600160a01b03199081166001600160a01b0387811691821790935560fc8054831689851617905560fd80548316909117905560fe80549091169184169190911790558015611de2576000805461ff00191690555b5050505050565b600260ca541415611e0c5760405162461bcd60e51b81526004016108c3906137e1565b600260ca556000805b61010154811015611e7b576101018181548110611e3457611e34613895565b6000918252602090912001546001600160a01b0316611e516120bb565b6001600160a01b03161415611e695760019150611e7b565b80611e73816138c1565b915050611e15565b5080611e995760405162461bcd60e51b81526004016108c390613944565b611ea885858585600080612986565b5050600160ca55505050565b3b151590565b600080611ec5612c61565b1115611eeb57611ed3612c61565b6036545b611ee19084613a83565b6109a49190613aa2565b5090565b919050565b6001600160a01b038316611f585760405162461bcd60e51b815260206004820152602560248201527f45524332303a207472616e736665722066726f6d20746865207a65726f206164604482015264647265737360d81b60648201526084016108c3565b6001600160a01b038216611fba5760405162461bcd60e51b815260206004820152602360248201527f45524332303a207472616e7366657220746f20746865207a65726f206164647260448201526265737360e81b60648201526084016108c3565b6001600160a01b038316600090815260346020526040902054818110156120325760405162461bcd60e51b815260206004820152602660248201527f45524332303a207472616e7366657220616d6f756e7420657863656564732062604482015265616c616e636560d01b60648201526084016108c3565b6001600160a01b0380851660009081526034602052604080822085850390559185168152908120805484929061206990849061392c565b92505081905550826001600160a01b0316846001600160a01b03167fddf252ad1be2c89b69c2b068fc378daa952ba7f163c4a11628f55a4df523b3ef8460405161184b91815260200190565b50505050565b60006114d1612ea3565b6001600160a01b0383166121275760405162461bcd60e51b8152602060048201526024808201527f45524332303a20617070726f76652066726f6d20746865207a65726f206164646044820152637265737360e01b60648201526084016108c3565b6001600160a01b0382166121885760405162461bcd60e51b815260206004820152602260248201527f45524332303a20617070726f766520746f20746865207a65726f206164647265604482015261737360f01b60648201526084016108c3565b6001600160a01b0383811660008181526035602090815260408083209487168084529482529182902085905590518481527f8c5be1e5ebec7d5bd14f71427d1e84f3dd0314c0f7b2291e5b200ac8c7c3b925910160405180910390a3505050565b60985460ff166122325760405162461bcd60e51b815260206004820152601460248201527314185d5cd8589b194e881b9bdd081c185d5cd95960621b60448201526064016108c3565b6098805460ff191690557f5db9ee0a495bf2e6ff9c91a7834c1ba4fdd244a5e8aa4e537bd38aeae4b073aa6122656120bb565b6040516001600160a01b03909116815260200160405180910390a1565b6001600160a01b038216600090815260ff6020819052604090912060030154620100009004166122c45760405162461bcd60e51b81526004016108c390613a56565b6000811161230c5760405162461bcd60e51b815260206004820152601560248201527421494e56414c4944286173736574416d6f756e742960581b60448201526064016108c3565b60fd5481906001600160a01b03848116911614612384576001600160a01b038316600090815260ff602052604081206001810154909190612710906123519086613a83565b61235b9190613aa2565b60fd5490915061237f9086906001600160a01b031661237a84886138dc565b612411565b925050505b600061238f82611eba565b90506123ae61239c6120bb565b6001600160a01b038616903086612ed7565b6123b88582612f0f565b60408051848152602081018490529081018290526001600160a01b0380861691908716907fbef68d45f01f5e2c114616dc4840e7a543da6ec57afc5700e4be96056a899b4e906060015b60405180910390a35050505050565b6000826001600160a01b0316846001600160a01b0316141561246a5760405162461bcd60e51b815260206004820152601260248201527108525395905312510a199c9bdb505cdcd95d60721b60448201526064016108c3565b6001600160a01b038416600090815260ff6020819052604090912060030154620100009004166124dc5760405162461bcd60e51b815260206004820152601760248201527f214e4f545f414c4c4f5745442866726f6d41737365742900000000000000000060448201526064016108c3565b6001600160a01b038316600090815260ff6020819052604090912060030154620100009004166125465760405162461bcd60e51b8152602060048201526015602482015274214e4f545f414c4c4f57454428746f41737365742960581b60448201526064016108c3565b8161255357506000610f51565b6001600160a01b03808516600090815260ff6020526040808220548151633fabe5a360e21b815291519293169163feaf968c9160048082019260a092909190829003018186803b1580156125a657600080fd5b505afa1580156125ba573d6000803e3d6000fd5b505050506040513d601f19601f820116820180604052508101906125de9190613ade565b5050506001600160a01b03808716600090815260ff602052604090819020548151633fabe5a360e21b815291519395508594509091169163feaf968c9160048082019260a092909190829003018186803b15801561263b57600080fd5b505afa15801561264f573d6000803e3d6000fd5b505050506040513d601f19601f820116820180604052508101906126739190613ade565b5050506001600160a01b03808816600090815260ff60208190526040808320600390810154948d16845292209091015492955085935061010092839004811692909104161461278c576001600160a01b038616600090815260ff60208190526040909120600301546126ef918391610100810482169116612fee565b6001600160a01b03808916600090815260ff60208190526040808320600390810154948c16845292209091015461273192869261010090910481169116612fee565b6001600160a01b03808a16600090815260ff60208190526040808320600390810154948d16845292209091015461276e928a929081169116612fee565b6127789190613a83565b6127829190613aa2565b9350505050610f51565b6001600160a01b03808816600090815260ff60208190526040808320600390810154948b16845292209091015461278292849286926127d6928b9290811691610100900416612fee565b6127e09190613a83565b6127ea9190613aa2565b6001600160a01b038816600090815260ff6020819052604090912060030154610100810482169116612fee565b60fc5460405163368317c160e21b81526001600160a01b038381166004830152600092169063da0c5f049060240160206040518083038186803b15801561285d57600080fd5b505afa158015612871573d6000803e3d6000fd5b505050506040513d601f19601f820116820180604052508101906128959190613b2e565b6040516370a0823160e01b81523060048201526001600160a01b038416906370a082319060240160206040518083038186803b1580156128d457600080fd5b505afa1580156128e8573d6000803e3d6000fd5b505050506040513d601f19601f8201168201806040525081019061290c9190613b2e565b6109a4919061392c565b600061292160365490565b612929575090565b603654611ed7612c61565b606680546001600160a01b038381166001600160a01b0319831681179093556040519116919082907f8be0079c531659141344cd1fd0a4f28419497f9722a3daafe3b4186f6b6457e090600090a35050565b600061299185611eba565b9050600084156129a7576129a485611eba565b90505b600080841180156129c057506001600160a01b03851615155b156129d1576129ce84611eba565b90505b6129dc898985611ef4565b81156129fa5760fe546129fa9089906001600160a01b031684611ef4565b8015612a0b57612a0b888683611ef4565b60408051888152602081018890529081018490526001600160a01b03808a1691908b16907ffc8dd32b1cfbf2c565436049e9e556251a12304b0c3e624bc5e3b205692cf2dc9060600160405180910390a3505050505050505050565b60985460ff1615612aad5760405162461bcd60e51b815260206004820152601060248201526f14185d5cd8589b194e881c185d5cd95960821b60448201526064016108c3565b6098805460ff191660011790557f62e78cea01bee320cd4e420270b5ea74000d11b0c9f74754ebdbfc544b05a2586122656120bb565b6001600160a01b038216600090815260ff602081905260409091206003015462010000900416612b255760405162461bcd60e51b81526004016108c390613a56565b60008111612b6e5760405162461bcd60e51b815260206004820152601660248201527521494e56414c494428736861726573416d6f756e742960501b60448201526064016108c3565b6000612b7982612916565b9050612b8c612b866120bb565b8361305f565b60fd5481906001600160a01b03858116911614612bff576001600160a01b03808516600090815260ff6020526040902060fd549091612bcd91168685612411565b91506000612710826001015484612be49190613a83565b612bee9190613aa2565b9050612bfa81846138dc565b925050505b612c136001600160a01b0385168683612d65565b60408051828152602081018490529081018490526001600160a01b0380861691908716907fc90b5405a6805d53680586ef15168b1d791e67ceebe68fa62eefdb81478763cc90606001612402565b600080805b61010054811015612d5f5760fd5461010080546001600160a01b039092169183908110612c9557612c95613895565b6000918252602090912001546001600160a01b03161415612cd65760fd54612cc5906001600160a01b0316612817565b612ccf908361392c565b9150612d4d565b612d406101008281548110612ced57612ced613895565b60009182526020909120015460fd5461010080546001600160a01b03938416939092169161237a919086908110612d2657612d26613895565b6000918252602090912001546001600160a01b0316612817565b612d4a908361392c565b91505b80612d57816138c1565b915050612c66565b50919050565b6040516001600160a01b038316602482015260448101829052612dc890849063a9059cbb60e01b906064015b60408051601f198184030181529190526020810180516001600160e01b03166001600160e01b0319909316929092179091526131ad565b505050565b600054610100900460ff16612df45760405162461bcd60e51b81526004016108c390613b47565b612dfc61327f565b61105f6132a6565b600054610100900460ff16612e2b5760405162461bcd60e51b81526004016108c390613b47565b612e3361327f565b61105f6132dd565b600054610100900460ff16612e625760405162461bcd60e51b81526004016108c390613b47565b61105f613310565b600054610100900460ff16612e915760405162461bcd60e51b81526004016108c390613b47565b612e9961327f565b610b15828261333e565b600060143610801590612ec057506033546001600160a01b031633145b15612ed2575060131936013560601c90565b503390565b6040516001600160a01b03808516602483015283166044820152606481018290526120b59085906323b872dd60e01b90608401612d91565b6001600160a01b038216612f655760405162461bcd60e51b815260206004820152601f60248201527f45524332303a206d696e7420746f20746865207a65726f20616464726573730060448201526064016108c3565b8060366000828254612f77919061392c565b90915550506001600160a01b03821660009081526034602052604081208054839290612fa490849061392c565b90915550506040518181526001600160a01b038316906000907fddf252ad1be2c89b69c2b068fc378daa952ba7f163c4a11628f55a4df523b3ef9060200160405180910390a35050565b60008160ff168360ff161015613027576130088383613b92565b6130169060ff16600a613bb5565b6130209085613a83565b9050610f51565b8160ff168360ff1611156130575761303f8284613b92565b61304d9060ff16600a613bb5565b6130209085613aa2565b509192915050565b6001600160a01b0382166130bf5760405162461bcd60e51b815260206004820152602160248201527f45524332303a206275726e2066726f6d20746865207a65726f206164647265736044820152607360f81b60648201526084016108c3565b6001600160a01b038216600090815260346020526040902054818110156131335760405162461bcd60e51b815260206004820152602260248201527f45524332303a206275726e20616d6f756e7420657863656564732062616c616e604482015261636560f01b60648201526084016108c3565b6001600160a01b03831660009081526034602052604081208383039055603680548492906131629084906138dc565b90915550506040518281526000906001600160a01b038516907fddf252ad1be2c89b69c2b068fc378daa952ba7f163c4a11628f55a4df523b3ef9060200160405180910390a3505050565b6000613202826040518060400160405280602081526020017f5361666545524332303a206c6f772d6c6576656c2063616c6c206661696c6564815250856001600160a01b031661338c9092919063ffffffff16565b805190915015612dc857808060200190518101906132209190613bc1565b612dc85760405162461bcd60e51b815260206004820152602a60248201527f5361666545524332303a204552433230206f7065726174696f6e20646964206e6044820152691bdd081cdd58d8d9595960b21b60648201526084016108c3565b600054610100900460ff1661105f5760405162461bcd60e51b81526004016108c390613b47565b600054610100900460ff166132cd5760405162461bcd60e51b81526004016108c390613b47565b61105f6132d86120bb565b612934565b600054610100900460ff166133045760405162461bcd60e51b81526004016108c390613b47565b6098805460ff19169055565b600054610100900460ff166133375760405162461bcd60e51b81526004016108c390613b47565b600160ca55565b600054610100900460ff166133655760405162461bcd60e51b81526004016108c390613b47565b8151613378906037906020850190613497565b508051612dc8906038906020840190613497565b60606110b1848460008585843b6133e55760405162461bcd60e51b815260206004820152601d60248201527f416464726573733a2063616c6c20746f206e6f6e2d636f6e747261637400000060448201526064016108c3565b600080866001600160a01b031685876040516134019190613be3565b60006040518083038185875af1925050503d806000811461343e576040519150601f19603f3d011682016040523d82523d6000602084013e613443565b606091505b509150915061345382828661345e565b979650505050505050565b6060831561346d575081610f51565b82511561347d5782518084602001fd5b8160405162461bcd60e51b81526004016108c39190613553565b8280546134a3906137ac565b90600052602060002090601f0160209004810192826134c5576000855561350b565b82601f106134de57805160ff191683800117855561350b565b8280016001018555821561350b579182015b8281111561350b5782518255916020019190600101906134f0565b50611eeb9291505b80821115611eeb5760008155600101613513565b60005b8381101561354257818101518382015260200161352a565b838111156120b55750506000910152565b6020815260008251806020840152613572816040850160208701613527565b601f01601f19169190910160400192915050565b80356001600160a01b0381168114611eef57600080fd5b6000806000606084860312156135b257600080fd5b6135bb84613586565b92506135c960208501613586565b9150604084013590509250925092565b600080604083850312156135ec57600080fd5b6135f583613586565b946020939093013593505050565b60006020828403121561361557600080fd5b610f5182613586565b6000806000806080858703121561363457600080fd5b61363d85613586565b935061364b60208601613586565b93969395505050506040820135916060013590565b6020808252825182820181905260009190848201906040850190845b818110156136a15783516001600160a01b03168352928401929184019160010161367c565b50909695505050505050565b60008060008060008060c087890312156136c657600080fd5b6136cf87613586565b95506136dd60208801613586565b945060408701359350606087013592506136f960808801613586565b915060a087013590509295509295509295565b60006020828403121561371e57600080fd5b5035919050565b6000806040838503121561373857600080fd5b61374183613586565b915061374f60208401613586565b90509250929050565b6000806000806080858703121561376e57600080fd5b61377785613586565b935061378560208601613586565b925061379360408601613586565b91506137a160608601613586565b905092959194509250565b600181811c908216806137c057607f821691505b60208210811415612d5f57634e487b7160e01b600052602260045260246000fd5b6020808252601f908201527f5265656e7472616e637947756172643a207265656e7472616e742063616c6c00604082015260600190565b60208082526028908201527f45524332303a207472616e7366657220616d6f756e74206578636565647320616040820152676c6c6f77616e636560c01b606082015260800190565b6020808252818101527f4f776e61626c653a2063616c6c6572206973206e6f7420746865206f776e6572604082015260600190565b634e487b7160e01b600052603260045260246000fd5b634e487b7160e01b600052601160045260246000fd5b60006000198214156138d5576138d56138ab565b5060010190565b6000828210156138ee576138ee6138ab565b500390565b634e487b7160e01b600052603160045260246000fd5b60006020828403121561391b57600080fd5b815160ff81168114610f5157600080fd5b6000821982111561393f5761393f6138ab565b500190565b60208082526005908201526404282aaa8960db1b604082015260600190565b600181815b8085111561399e578160001904821115613984576139846138ab565b8085161561399157918102915b93841c9390800290613968565b509250929050565b6000826139b5575060016109a4565b816139c2575060006109a4565b81600181146139d857600281146139e2576139fe565b60019150506109a4565b60ff8411156139f3576139f36138ab565b50506001821b6109a4565b5060208310610133831016604e8410600b8410161715613a21575081810a6109a4565b613a2b8383613963565b8060001904821115613a3f57613a3f6138ab565b029392505050565b6000610f5160ff8416836139a6565b602080825260139082015272214e4f545f414c4c4f5745442861737365742960681b604082015260600190565b6000816000190483118215151615613a9d57613a9d6138ab565b500290565b600082613abf57634e487b7160e01b600052601260045260246000fd5b500490565b805169ffffffffffffffffffff81168114611eef57600080fd5b600080600080600060a08688031215613af657600080fd5b613aff86613ac4565b9450602086015193506040860151925060608601519150613b2260808701613ac4565b90509295509295909350565b600060208284031215613b4057600080fd5b5051919050565b6020808252602b908201527f496e697469616c697a61626c653a20636f6e7472616374206973206e6f74206960408201526a6e697469616c697a696e6760a81b606082015260800190565b600060ff821660ff841680821015613bac57613bac6138ab565b90039392505050565b6000610f5183836139a6565b600060208284031215613bd357600080fd5b81518015158114610f5157600080fd5b60008251613bf5818460208701613527565b919091019291505056fea2646970667358221220678060bc363acd2b7bbcde7c51a1441bccacc8305198007d5e5800fc29df836b64736f6c63430008090033",
  "devdoc": {
    "kind": "dev",
    "methods": {
      "allocateToStrategy(address,address,uint256)": {
        "details": "Send an amount of asset to a strategy",
        "params": {
          "_asset": "Address of asset",
          "_assetAmount": "Amount of asset to send"
        }
      },
      "allowAsset(address,address,uint256,uint256)": {
        "details": "Add an allowed asset to be deposited into the vault",
        "params": {
          "_asset": "Address of new ERC20 asset",
          "_priceFeed": "Address of a chainlink-compatible price oracle for the asset",
          "_slippageBps": "Slippage basis points to use when depositing/withdrawing this asset"
        }
      },
      "allowance(address,address)": {
        "details": "See {IERC20-allowance}."
      },
      "approve(address,uint256)": {
        "details": "See {IERC20-approve}. Requirements: - `spender` cannot be the zero address."
      },
      "balanceOf(address)": {
        "details": "See {IERC20-balanceOf}."
      },
      "constructor": {
        "custom:oz-upgrades-unsafe-allow": "constructor"
      },
      "currentValueOf(address)": {
        "details": "Get current vault value of `_address` denominated in `baseAsset`",
        "params": {
          "_address": "Address to check"
        }
      },
      "decimals()": {
        "details": "Returns the number of decimals used to get its user representation. For example, if `decimals` equals `2`, a balance of `505` tokens should be displayed to a user as `5.05` (`505 / 10 ** 2`). Tokens usually opt for a value of 18, imitating the relationship between Ether and Wei. This is the value {ERC20} uses, unless this function is overridden; NOTE: This information is only used for _display_ purposes: it in no way affects any of the arithmetic of the contract, including {IERC20-balanceOf} and {IERC20-transfer}."
      },
      "decreaseAllowance(address,uint256)": {
        "details": "Atomically decreases the allowance granted to `spender` by the caller. This is an alternative to {approve} that can be used as a mitigation for problems described in {IERC20-approve}. Emits an {Approval} event indicating the updated allowance. Requirements: - `spender` cannot be the zero address. - `spender` must have allowance for the caller of at least `subtractedValue`."
      },
      "deposit(address,uint256)": {
        "details": "Deposit an amount of `_asset` into the vault and credit the equal value of `baseAsset`",
        "params": {
          "_asset": "Address of incoming asset",
          "_assetAmount": "Amount of asset to deposit"
        }
      },
      "depositTo(address,address,uint256)": {
        "details": "Deposit an amount of `_asset` into the vault and credit the equal value of `baseAsset`",
        "params": {
          "_asset": "Address of incoming asset",
          "_assetAmount": "Amount of asset to deposit",
          "_to": "Recipient of funds"
        }
      },
      "getAllAssets()": {
        "details": "Get all the assets supported by the vault."
      },
      "getAsset(address)": {
        "details": "Get asset details",
        "params": {
          "_asset": "Asset address"
        },
        "returns": {
          "_0": "Asset Asset details"
        }
      },
      "getBaseAsset()": {
        "details": "Get base asset of vault."
      },
      "increaseAllowance(address,uint256)": {
        "details": "Atomically increases the allowance granted to `spender` by the caller. This is an alternative to {approve} that can be used as a mitigation for problems described in {IERC20-approve}. Emits an {Approval} event indicating the updated allowance. Requirements: - `spender` cannot be the zero address."
      },
      "name()": {
        "details": "Returns the name of the token."
      },
      "owner()": {
        "details": "Returns the address of the current owner."
      },
      "paused()": {
        "details": "Returns true if the contract is paused, and false otherwise."
      },
      "pricePerShare()": {
        "details": "Get current vault value a vault share"
      },
      "protocolPayment(address,address,uint256)": {
        "details": "Pay `_value` of `baseAsset` from `_from` to `_to` initiated by an authorized protocol",
        "params": {
          "_from": "From address",
          "_to": "To address",
          "_value": "Amount of baseAsset value to transfer"
        }
      },
      "protocolPayment(address,address,uint256,uint256)": {
        "details": "Pay `_value` of `baseAsset` from `_from` to `_to` initiated by an authorized protocol",
        "params": {
          "_from": "From address",
          "_protocolFee": "Protocol fee to deduct from `_value`",
          "_to": "To address",
          "_value": "Amount of baseAsset value to transfer"
        }
      },
      "protocolPayment(address,address,uint256,uint256,address,uint256)": {
        "details": "Pay `_value` of `baseAsset` from `_from` to `_to` initiated by an authorized protocol",
        "params": {
          "_from": "From address",
          "_network": "Address of network fee collector",
          "_networkFee": "Network fee to deduct from `_value`",
          "_protocolFee": "Protocol fee to deduct from `_value`",
          "_to": "To address",
          "_value": "Amount of baseAsset value to transfer"
        }
      },
      "renounceOwnership()": {
        "details": "Leaves the contract without owner. It will not be possible to call `onlyOwner` functions anymore. Can only be called by the current owner. NOTE: Renouncing ownership will leave the contract without an owner, thereby removing any functionality that is only available to the owner."
      },
      "supportsAsset(address)": {
        "details": "Check if the vault supports an asset",
        "params": {
          "_asset": "Asset address"
        },
        "returns": {
          "_0": "bool `true` if asset supported, `false` otherwise"
        }
      },
      "symbol()": {
        "details": "Returns the symbol of the token, usually a shorter version of the name."
      },
      "totalAssetBalance(address)": {
        "details": "Get total amount of an asset held in vault and managed by admin",
        "params": {
          "_asset": "Address of asset"
        }
      },
      "totalSupply()": {
        "details": "See {IERC20-totalSupply}."
      },
      "totalValue()": {
        "details": "Get total value in vault and managed by admin - denominated in `baseAsset`"
      },
      "transfer(address,uint256)": {
        "details": "See {IERC20-transfer}. Requirements: - `recipient` cannot be the zero address. - the caller must have a balance of at least `amount`."
      },
      "transferFrom(address,address,uint256)": {
        "details": "See {IERC20-transferFrom}. Emits an {Approval} event indicating the updated allowance. This is not required by the EIP. See the note at the beginning of {ERC20}. Requirements: - `sender` and `recipient` cannot be the zero address. - `sender` must have a balance of at least `amount`. - the caller must have allowance for ``sender``'s tokens of at least `amount`."
      },
      "transferOwnership(address)": {
        "details": "Transfers ownership of the contract to a new account (`newOwner`). Can only be called by the current owner."
      },
      "transferValue(address,uint256)": {
        "details": "Transfer the equivalent vault shares of base asset `value` to `_recipient`",
        "params": {
          "_recipient": "To address",
          "_value": "Amount of baseAsset value to transfer"
        }
      },
      "transferValueFrom(address,address,uint256)": {
        "details": "Transfer the equivalent vault shares of base asset `value` from `_sender` to `_recipient`",
        "params": {
          "_recipient": "To address",
          "_sender": "From address",
          "_value": "Amount of baseAsset value to transfer"
        }
      },
      "withdraw(address,uint256)": {
        "details": "Withdraw an amount of shares from the vault in the form of `_asset`",
        "params": {
          "_asset": "Address of outgoing asset",
          "_shares": "Amount of shares to withdraw"
        }
      },
      "withdrawTo(address,address,uint256)": {
        "details": "Withdraw an amount of shares from the vault in the form of `_asset`",
        "params": {
          "_asset": "Address of outgoing asset",
          "_recipient": "Recipient who will receive the withdrawn assets",
          "_shares": "Amount of shares to withdraw"
        }
      }
    },
    "version": 1
  },
  "userdoc": {
    "kind": "user",
    "methods": {
      "isTrustedForwarder(address)": {
        "notice": "return if the forwarder is trusted to forward relayed transactions to us. the forwarder is required to verify the sender's signature, and verify the call is not a replay."
      }
    },
    "notice": "CaskVault is where: - the approved asset list lives - users deposit/withdraw approved assets which results in a mint/burn of the vault token - a minimum reserve rate is enforced - vault manager can tell the vault to send unallocated assets to strategies - approved protocols can process a payment between parties - one can query the value of all unallocated assets",
    "version": 1
  },
  "storageLayout": {
    "storage": [
      {
        "astId": 327,
        "contract": "contracts/vault/CaskVault.sol:CaskVault",
        "label": "_initialized",
        "offset": 0,
        "slot": "0",
        "type": "t_bool"
      },
      {
        "astId": 330,
        "contract": "contracts/vault/CaskVault.sol:CaskVault",
        "label": "_initializing",
        "offset": 1,
        "slot": "0",
        "type": "t_bool"
      },
      {
        "astId": 2551,
        "contract": "contracts/vault/CaskVault.sol:CaskVault",
        "label": "__gap",
        "offset": 0,
        "slot": "1",
        "type": "t_array(t_uint256)50_storage"
      },
      {
        "astId": 72,
        "contract": "contracts/vault/CaskVault.sol:CaskVault",
        "label": "_trustedForwarder",
        "offset": 0,
        "slot": "51",
        "type": "t_address"
      },
      {
        "astId": 584,
        "contract": "contracts/vault/CaskVault.sol:CaskVault",
        "label": "_balances",
        "offset": 0,
        "slot": "52",
        "type": "t_mapping(t_address,t_uint256)"
      },
      {
        "astId": 590,
        "contract": "contracts/vault/CaskVault.sol:CaskVault",
        "label": "_allowances",
        "offset": 0,
        "slot": "53",
        "type": "t_mapping(t_address,t_mapping(t_address,t_uint256))"
      },
      {
        "astId": 592,
        "contract": "contracts/vault/CaskVault.sol:CaskVault",
        "label": "_totalSupply",
        "offset": 0,
        "slot": "54",
        "type": "t_uint256"
      },
      {
        "astId": 594,
        "contract": "contracts/vault/CaskVault.sol:CaskVault",
        "label": "_name",
        "offset": 0,
        "slot": "55",
        "type": "t_string_storage"
      },
      {
        "astId": 596,
        "contract": "contracts/vault/CaskVault.sol:CaskVault",
        "label": "_symbol",
        "offset": 0,
        "slot": "56",
        "type": "t_string_storage"
      },
      {
        "astId": 1137,
        "contract": "contracts/vault/CaskVault.sol:CaskVault",
        "label": "__gap",
        "offset": 0,
        "slot": "57",
        "type": "t_array(t_uint256)45_storage"
      },
      {
        "astId": 205,
        "contract": "contracts/vault/CaskVault.sol:CaskVault",
        "label": "_owner",
        "offset": 0,
        "slot": "102",
        "type": "t_address"
      },
      {
        "astId": 319,
        "contract": "contracts/vault/CaskVault.sol:CaskVault",
        "label": "__gap",
        "offset": 0,
        "slot": "103",
        "type": "t_array(t_uint256)49_storage"
      },
      {
        "astId": 415,
        "contract": "contracts/vault/CaskVault.sol:CaskVault",
        "label": "_paused",
        "offset": 0,
        "slot": "152",
        "type": "t_bool"
      },
      {
        "astId": 506,
        "contract": "contracts/vault/CaskVault.sol:CaskVault",
        "label": "__gap",
        "offset": 0,
        "slot": "153",
        "type": "t_array(t_uint256)49_storage"
      },
      {
        "astId": 521,
        "contract": "contracts/vault/CaskVault.sol:CaskVault",
        "label": "_status",
        "offset": 0,
        "slot": "202",
        "type": "t_uint256"
      },
      {
        "astId": 564,
        "contract": "contracts/vault/CaskVault.sol:CaskVault",
        "label": "__gap",
        "offset": 0,
        "slot": "203",
        "type": "t_array(t_uint256)49_storage"
      },
      {
        "astId": 13548,
        "contract": "contracts/vault/CaskVault.sol:CaskVault",
        "label": "vaultManager",
        "offset": 0,
        "slot": "252",
        "type": "t_address"
      },
      {
        "astId": 13550,
        "contract": "contracts/vault/CaskVault.sol:CaskVault",
        "label": "baseAsset",
        "offset": 0,
        "slot": "253",
        "type": "t_address"
      },
      {
        "astId": 13552,
        "contract": "contracts/vault/CaskVault.sol:CaskVault",
        "label": "feeDistributor",
        "offset": 0,
        "slot": "254",
        "type": "t_address"
      },
      {
        "astId": 13557,
        "contract": "contracts/vault/CaskVault.sol:CaskVault",
        "label": "assets",
        "offset": 0,
        "slot": "255",
        "type": "t_mapping(t_address,t_struct(Asset)8108_storage)"
      },
      {
        "astId": 13560,
        "contract": "contracts/vault/CaskVault.sol:CaskVault",
        "label": "allAssets",
        "offset": 0,
        "slot": "256",
        "type": "t_array(t_address)dyn_storage"
      },
      {
        "astId": 13563,
        "contract": "contracts/vault/CaskVault.sol:CaskVault",
        "label": "protocols",
        "offset": 0,
        "slot": "257",
        "type": "t_array(t_address)dyn_storage"
      }
    ],
    "types": {
      "t_address": {
        "encoding": "inplace",
        "label": "address",
        "numberOfBytes": "20"
      },
      "t_array(t_address)dyn_storage": {
        "base": "t_address",
        "encoding": "dynamic_array",
        "label": "address[]",
        "numberOfBytes": "32"
      },
      "t_array(t_uint256)45_storage": {
        "base": "t_uint256",
        "encoding": "inplace",
        "label": "uint256[45]",
        "numberOfBytes": "1440"
      },
      "t_array(t_uint256)49_storage": {
        "base": "t_uint256",
        "encoding": "inplace",
        "label": "uint256[49]",
        "numberOfBytes": "1568"
      },
      "t_array(t_uint256)50_storage": {
        "base": "t_uint256",
        "encoding": "inplace",
        "label": "uint256[50]",
        "numberOfBytes": "1600"
      },
      "t_bool": {
        "encoding": "inplace",
        "label": "bool",
        "numberOfBytes": "1"
      },
      "t_mapping(t_address,t_mapping(t_address,t_uint256))": {
        "encoding": "mapping",
        "key": "t_address",
        "label": "mapping(address => mapping(address => uint256))",
        "numberOfBytes": "32",
        "value": "t_mapping(t_address,t_uint256)"
      },
      "t_mapping(t_address,t_struct(Asset)8108_storage)": {
        "encoding": "mapping",
        "key": "t_address",
        "label": "mapping(address => struct ICaskVault.Asset)",
        "numberOfBytes": "32",
        "value": "t_struct(Asset)8108_storage"
      },
      "t_mapping(t_address,t_uint256)": {
        "encoding": "mapping",
        "key": "t_address",
        "label": "mapping(address => uint256)",
        "numberOfBytes": "32",
        "value": "t_uint256"
      },
      "t_string_storage": {
        "encoding": "bytes",
        "label": "string",
        "numberOfBytes": "32"
      },
      "t_struct(Asset)8108_storage": {
        "encoding": "inplace",
        "label": "struct ICaskVault.Asset",
        "members": [
          {
            "astId": 8097,
            "contract": "contracts/vault/CaskVault.sol:CaskVault",
            "label": "priceFeed",
            "offset": 0,
            "slot": "0",
            "type": "t_address"
          },
          {
            "astId": 8099,
            "contract": "contracts/vault/CaskVault.sol:CaskVault",
            "label": "slippageBps",
            "offset": 0,
            "slot": "1",
            "type": "t_uint256"
          },
          {
            "astId": 8101,
            "contract": "contracts/vault/CaskVault.sol:CaskVault",
            "label": "depositLimit",
            "offset": 0,
            "slot": "2",
            "type": "t_uint256"
          },
          {
            "astId": 8103,
            "contract": "contracts/vault/CaskVault.sol:CaskVault",
            "label": "assetDecimals",
            "offset": 0,
            "slot": "3",
            "type": "t_uint8"
          },
          {
            "astId": 8105,
            "contract": "contracts/vault/CaskVault.sol:CaskVault",
            "label": "priceFeedDecimals",
            "offset": 1,
            "slot": "3",
            "type": "t_uint8"
          },
          {
            "astId": 8107,
            "contract": "contracts/vault/CaskVault.sol:CaskVault",
            "label": "allowed",
            "offset": 2,
            "slot": "3",
            "type": "t_bool"
          }
        ],
        "numberOfBytes": "128"
      },
      "t_uint256": {
        "encoding": "inplace",
        "label": "uint256",
        "numberOfBytes": "32"
      },
      "t_uint8": {
        "encoding": "inplace",
        "label": "uint8",
        "numberOfBytes": "1"
      }
    }
  }
}