{
  "address": "0x05bC228A415d8803E28C403aC95f4ED268c9d80f",
  "abi": [
    {
      "inputs": [],
      "stateMutability": "nonpayable",
      "type": "constructor"
    },
    {
      "anonymous": false,
      "inputs": [
        {
          "indexed": true,
          "internalType": "address",
          "name": "owner",
          "type": "address"
        },
        {
          "indexed": true,
          "internalType": "address",
          "name": "approved",
          "type": "address"
        },
        {
          "indexed": true,
          "internalType": "uint256",
          "name": "tokenId",
          "type": "uint256"
        }
      ],
      "name": "Approval",
      "type": "event"
    },
    {
      "anonymous": false,
      "inputs": [
        {
          "indexed": true,
          "internalType": "address",
          "name": "owner",
          "type": "address"
        },
        {
          "indexed": true,
          "internalType": "address",
          "name": "operator",
          "type": "address"
        },
        {
          "indexed": false,
          "internalType": "bool",
          "name": "approved",
          "type": "bool"
        }
      ],
      "name": "ApprovalForAll",
      "type": "event"
    },
    {
      "anonymous": false,
      "inputs": [
        {
          "indexed": true,
          "internalType": "address",
          "name": "previousOwner",
          "type": "address"
        },
        {
          "indexed": true,
          "internalType": "address",
          "name": "newOwner",
          "type": "address"
        }
      ],
      "name": "OwnershipTransferred",
      "type": "event"
    },
    {
      "anonymous": false,
      "inputs": [
        {
          "indexed": false,
          "internalType": "address",
          "name": "account",
          "type": "address"
        }
      ],
      "name": "Paused",
      "type": "event"
    },
    {
      "anonymous": false,
      "inputs": [
        {
          "indexed": true,
          "internalType": "address",
          "name": "consumer",
          "type": "address"
        },
        {
          "indexed": true,
          "internalType": "address",
          "name": "provider",
          "type": "address"
        },
        {
          "indexed": true,
          "internalType": "uint256",
          "name": "subscriptionId",
          "type": "uint256"
        },
        {
          "indexed": false,
          "internalType": "bytes32",
          "name": "ref",
          "type": "bytes32"
        },
        {
          "indexed": false,
          "internalType": "uint32",
          "name": "planId",
          "type": "uint32"
        }
      ],
      "name": "SubscriptionCanceled",
      "type": "event"
    },
    {
      "anonymous": false,
      "inputs": [
        {
          "indexed": true,
          "internalType": "address",
          "name": "consumer",
          "type": "address"
        },
        {
          "indexed": true,
          "internalType": "address",
          "name": "provider",
          "type": "address"
        },
        {
          "indexed": true,
          "internalType": "uint256",
          "name": "subscriptionId",
          "type": "uint256"
        },
        {
          "indexed": false,
          "internalType": "bytes32",
          "name": "ref",
          "type": "bytes32"
        },
        {
          "indexed": false,
          "internalType": "uint32",
          "name": "planId",
          "type": "uint32"
        },
        {
          "indexed": false,
          "internalType": "bytes32",
          "name": "discountId",
          "type": "bytes32"
        }
      ],
      "name": "SubscriptionChangedDiscount",
      "type": "event"
    },
    {
      "anonymous": false,
      "inputs": [
        {
          "indexed": true,
          "internalType": "address",
          "name": "consumer",
          "type": "address"
        },
        {
          "indexed": true,
          "internalType": "address",
          "name": "provider",
          "type": "address"
        },
        {
          "indexed": true,
          "internalType": "uint256",
          "name": "subscriptionId",
          "type": "uint256"
        },
        {
          "indexed": false,
          "internalType": "bytes32",
          "name": "ref",
          "type": "bytes32"
        },
        {
          "indexed": false,
          "internalType": "uint32",
          "name": "prevPlanId",
          "type": "uint32"
        },
        {
          "indexed": false,
          "internalType": "uint32",
          "name": "planId",
          "type": "uint32"
        },
        {
          "indexed": false,
          "internalType": "bytes32",
          "name": "discountId",
          "type": "bytes32"
        }
      ],
      "name": "SubscriptionChangedPlan",
      "type": "event"
    },
    {
      "anonymous": false,
      "inputs": [
        {
          "indexed": true,
          "internalType": "address",
          "name": "consumer",
          "type": "address"
        },
        {
          "indexed": true,
          "internalType": "address",
          "name": "provider",
          "type": "address"
        },
        {
          "indexed": true,
          "internalType": "uint256",
          "name": "subscriptionId",
          "type": "uint256"
        },
        {
          "indexed": false,
          "internalType": "bytes32",
          "name": "ref",
          "type": "bytes32"
        },
        {
          "indexed": false,
          "internalType": "uint32",
          "name": "planId",
          "type": "uint32"
        },
        {
          "indexed": false,
          "internalType": "bytes32",
          "name": "discountId",
          "type": "bytes32"
        }
      ],
      "name": "SubscriptionCreated",
      "type": "event"
    },
    {
      "anonymous": false,
      "inputs": [
        {
          "indexed": true,
          "internalType": "address",
          "name": "consumer",
          "type": "address"
        },
        {
          "indexed": true,
          "internalType": "address",
          "name": "provider",
          "type": "address"
        },
        {
          "indexed": true,
          "internalType": "uint256",
          "name": "subscriptionId",
          "type": "uint256"
        },
        {
          "indexed": false,
          "internalType": "bytes32",
          "name": "ref",
          "type": "bytes32"
        },
        {
          "indexed": false,
          "internalType": "uint32",
          "name": "planId",
          "type": "uint32"
        }
      ],
      "name": "SubscriptionPastDue",
      "type": "event"
    },
    {
      "anonymous": false,
      "inputs": [
        {
          "indexed": true,
          "internalType": "address",
          "name": "consumer",
          "type": "address"
        },
        {
          "indexed": true,
          "internalType": "address",
          "name": "provider",
          "type": "address"
        },
        {
          "indexed": true,
          "internalType": "uint256",
          "name": "subscriptionId",
          "type": "uint256"
        },
        {
          "indexed": false,
          "internalType": "bytes32",
          "name": "ref",
          "type": "bytes32"
        },
        {
          "indexed": false,
          "internalType": "uint32",
          "name": "planId",
          "type": "uint32"
        }
      ],
      "name": "SubscriptionPaused",
      "type": "event"
    },
    {
      "anonymous": false,
      "inputs": [
        {
          "indexed": true,
          "internalType": "address",
          "name": "consumer",
          "type": "address"
        },
        {
          "indexed": true,
          "internalType": "address",
          "name": "provider",
          "type": "address"
        },
        {
          "indexed": true,
          "internalType": "uint256",
          "name": "subscriptionId",
          "type": "uint256"
        },
        {
          "indexed": false,
          "internalType": "bytes32",
          "name": "ref",
          "type": "bytes32"
        },
        {
          "indexed": false,
          "internalType": "uint32",
          "name": "planId",
          "type": "uint32"
        }
      ],
      "name": "SubscriptionPendingCancel",
      "type": "event"
    },
    {
      "anonymous": false,
      "inputs": [
        {
          "indexed": true,
          "internalType": "address",
          "name": "consumer",
          "type": "address"
        },
        {
          "indexed": true,
          "internalType": "address",
          "name": "provider",
          "type": "address"
        },
        {
          "indexed": true,
          "internalType": "uint256",
          "name": "subscriptionId",
          "type": "uint256"
        },
        {
          "indexed": false,
          "internalType": "bytes32",
          "name": "ref",
          "type": "bytes32"
        },
        {
          "indexed": false,
          "internalType": "uint32",
          "name": "prevPlanId",
          "type": "uint32"
        },
        {
          "indexed": false,
          "internalType": "uint32",
          "name": "planId",
          "type": "uint32"
        }
      ],
      "name": "SubscriptionPendingChangePlan",
      "type": "event"
    },
    {
      "anonymous": false,
      "inputs": [
        {
          "indexed": true,
          "internalType": "address",
          "name": "consumer",
          "type": "address"
        },
        {
          "indexed": true,
          "internalType": "address",
          "name": "provider",
          "type": "address"
        },
        {
          "indexed": true,
          "internalType": "uint256",
          "name": "subscriptionId",
          "type": "uint256"
        },
        {
          "indexed": false,
          "internalType": "bytes32",
          "name": "ref",
          "type": "bytes32"
        },
        {
          "indexed": false,
          "internalType": "uint32",
          "name": "planId",
          "type": "uint32"
        }
      ],
      "name": "SubscriptionRenewed",
      "type": "event"
    },
    {
      "anonymous": false,
      "inputs": [
        {
          "indexed": true,
          "internalType": "address",
          "name": "consumer",
          "type": "address"
        },
        {
          "indexed": true,
          "internalType": "address",
          "name": "provider",
          "type": "address"
        },
        {
          "indexed": true,
          "internalType": "uint256",
          "name": "subscriptionId",
          "type": "uint256"
        },
        {
          "indexed": false,
          "internalType": "bytes32",
          "name": "ref",
          "type": "bytes32"
        },
        {
          "indexed": false,
          "internalType": "uint32",
          "name": "planId",
          "type": "uint32"
        }
      ],
      "name": "SubscriptionResumed",
      "type": "event"
    },
    {
      "anonymous": false,
      "inputs": [
        {
          "indexed": true,
          "internalType": "address",
          "name": "consumer",
          "type": "address"
        },
        {
          "indexed": true,
          "internalType": "address",
          "name": "provider",
          "type": "address"
        },
        {
          "indexed": true,
          "internalType": "uint256",
          "name": "subscriptionId",
          "type": "uint256"
        },
        {
          "indexed": false,
          "internalType": "bytes32",
          "name": "ref",
          "type": "bytes32"
        },
        {
          "indexed": false,
          "internalType": "uint32",
          "name": "planId",
          "type": "uint32"
        }
      ],
      "name": "SubscriptionTrialEnded",
      "type": "event"
    },
    {
      "anonymous": false,
      "inputs": [
        {
          "indexed": true,
          "internalType": "address",
          "name": "from",
          "type": "address"
        },
        {
          "indexed": true,
          "internalType": "address",
          "name": "to",
          "type": "address"
        },
        {
          "indexed": true,
          "internalType": "uint256",
          "name": "tokenId",
          "type": "uint256"
        }
      ],
      "name": "Transfer",
      "type": "event"
    },
    {
      "anonymous": false,
      "inputs": [
        {
          "indexed": false,
          "internalType": "address",
          "name": "account",
          "type": "address"
        }
      ],
      "name": "Unpaused",
      "type": "event"
    },
    {
      "inputs": [
        {
          "internalType": "address",
          "name": "to",
          "type": "address"
        },
        {
          "internalType": "uint256",
          "name": "tokenId",
          "type": "uint256"
        }
      ],
      "name": "approve",
      "outputs": [],
      "stateMutability": "nonpayable",
      "type": "function"
    },
    {
      "inputs": [
        {
          "internalType": "address",
          "name": "owner",
          "type": "address"
        }
      ],
      "name": "balanceOf",
      "outputs": [
        {
          "internalType": "uint256",
          "name": "",
          "type": "uint256"
        }
      ],
      "stateMutability": "view",
      "type": "function"
    },
    {
      "inputs": [
        {
          "internalType": "uint256",
          "name": "_subscriptionId",
          "type": "uint256"
        }
      ],
      "name": "cancelSubscription",
      "outputs": [],
      "stateMutability": "nonpayable",
      "type": "function"
    },
    {
      "inputs": [
        {
          "internalType": "uint256",
          "name": "_subscriptionId",
          "type": "uint256"
        },
        {
          "internalType": "uint32",
          "name": "_cancelAt",
          "type": "uint32"
        }
      ],
      "name": "changeSubscriptionCancelAt",
      "outputs": [],
      "stateMutability": "nonpayable",
      "type": "function"
    },
    {
      "inputs": [
        {
          "internalType": "uint256",
          "name": "_subscriptionId",
          "type": "uint256"
        },
        {
          "internalType": "bytes32[]",
          "name": "_discountProof",
          "type": "bytes32[]"
        }
      ],
      "name": "changeSubscriptionDiscount",
      "outputs": [],
      "stateMutability": "nonpayable",
      "type": "function"
    },
    {
      "inputs": [
        {
          "internalType": "uint256",
          "name": "_subscriptionId",
          "type": "uint256"
        },
        {
          "internalType": "bytes32[]",
          "name": "_planProof",
          "type": "bytes32[]"
        },
        {
          "internalType": "bytes32[]",
          "name": "_discountProof",
          "type": "bytes32[]"
        },
        {
          "internalType": "bytes",
          "name": "_providerSignature",
          "type": "bytes"
        },
        {
          "internalType": "string",
          "name": "_cid",
          "type": "string"
        }
      ],
      "name": "changeSubscriptionPlan",
      "outputs": [],
      "stateMutability": "nonpayable",
      "type": "function"
    },
    {
      "inputs": [
        {
          "internalType": "bytes32[]",
          "name": "_planProof",
          "type": "bytes32[]"
        },
        {
          "internalType": "bytes32[]",
          "name": "_discountProof",
          "type": "bytes32[]"
        },
        {
          "internalType": "bytes32",
          "name": "_networkData",
          "type": "bytes32"
        },
        {
          "internalType": "uint32",
          "name": "_cancelAt",
          "type": "uint32"
        },
        {
          "internalType": "bytes",
          "name": "_providerSignature",
          "type": "bytes"
        },
        {
          "internalType": "bytes",
          "name": "_networkSignature",
          "type": "bytes"
        },
        {
          "internalType": "string",
          "name": "_cid",
          "type": "string"
        }
      ],
      "name": "createNetworkSubscription",
      "outputs": [],
      "stateMutability": "nonpayable",
      "type": "function"
    },
    {
      "inputs": [
        {
          "internalType": "bytes32[]",
          "name": "_planProof",
          "type": "bytes32[]"
        },
        {
          "internalType": "bytes32[]",
          "name": "_discountProof",
          "type": "bytes32[]"
        },
        {
          "internalType": "uint32",
          "name": "_cancelAt",
          "type": "uint32"
        },
        {
          "internalType": "bytes",
          "name": "_providerSignature",
          "type": "bytes"
        },
        {
          "internalType": "string",
          "name": "_cid",
          "type": "string"
        }
      ],
      "name": "createSubscription",
      "outputs": [],
      "stateMutability": "nonpayable",
      "type": "function"
    },
    {
      "inputs": [],
      "name": "getAllSubscriptions",
      "outputs": [
        {
          "internalType": "uint256[]",
          "name": "",
          "type": "uint256[]"
        }
      ],
      "stateMutability": "view",
      "type": "function"
    },
    {
      "inputs": [],
      "name": "getAllSubscriptionsCount",
      "outputs": [
        {
          "internalType": "uint256",
          "name": "",
          "type": "uint256"
        }
      ],
      "stateMutability": "view",
      "type": "function"
    },
    {
      "inputs": [
        {
          "internalType": "uint256",
          "name": "tokenId",
          "type": "uint256"
        }
      ],
      "name": "getApproved",
      "outputs": [
        {
          "internalType": "address",
          "name": "",
          "type": "address"
        }
      ],
      "stateMutability": "view",
      "type": "function"
    },
    {
      "inputs": [
        {
          "internalType": "address",
          "name": "_consumer",
          "type": "address"
        }
      ],
      "name": "getConsumerSubscriptionCount",
      "outputs": [
        {
          "internalType": "uint256",
          "name": "",
          "type": "uint256"
        }
      ],
      "stateMutability": "view",
      "type": "function"
    },
    {
      "inputs": [
        {
          "internalType": "address",
          "name": "_consumer",
          "type": "address"
        },
        {
          "internalType": "uint256",
          "name": "_limit",
          "type": "uint256"
        },
        {
          "internalType": "uint256",
          "name": "_offset",
          "type": "uint256"
        }
      ],
      "name": "getConsumerSubscriptions",
      "outputs": [
        {
          "internalType": "uint256[]",
          "name": "",
          "type": "uint256[]"
        }
      ],
      "stateMutability": "view",
      "type": "function"
    },
    {
      "inputs": [
        {
          "internalType": "uint256",
          "name": "_subscriptionId",
          "type": "uint256"
        }
      ],
      "name": "getPendingPlanChange",
      "outputs": [
        {
          "internalType": "bytes32",
          "name": "",
          "type": "bytes32"
        }
      ],
      "stateMutability": "view",
      "type": "function"
    },
    {
      "inputs": [
        {
          "internalType": "address",
          "name": "_provider",
          "type": "address"
        }
      ],
      "name": "getProviderActiveSubscriptionCount",
      "outputs": [
        {
          "internalType": "uint256",
          "name": "",
          "type": "uint256"
        }
      ],
      "stateMutability": "view",
      "type": "function"
    },
    {
      "inputs": [
        {
          "internalType": "address",
          "name": "_provider",
          "type": "address"
        },
        {
          "internalType": "uint32",
          "name": "_planId",
          "type": "uint32"
        }
      ],
      "name": "getProviderPlanActiveSubscriptionCount",
      "outputs": [
        {
          "internalType": "uint256",
          "name": "",
          "type": "uint256"
        }
      ],
      "stateMutability": "view",
      "type": "function"
    },
    {
      "inputs": [
        {
          "internalType": "address",
          "name": "_provider",
          "type": "address"
        }
      ],
      "name": "getProviderSubscriptionCount",
      "outputs": [
        {
          "internalType": "uint256",
          "name": "",
          "type": "uint256"
        }
      ],
      "stateMutability": "view",
      "type": "function"
    },
    {
      "inputs": [
        {
          "internalType": "address",
          "name": "_provider",
          "type": "address"
        },
        {
          "internalType": "uint256",
          "name": "_limit",
          "type": "uint256"
        },
        {
          "internalType": "uint256",
          "name": "_offset",
          "type": "uint256"
        }
      ],
      "name": "getProviderSubscriptions",
      "outputs": [
        {
          "internalType": "uint256[]",
          "name": "",
          "type": "uint256[]"
        }
      ],
      "stateMutability": "view",
      "type": "function"
    },
    {
      "inputs": [
        {
          "internalType": "uint256",
          "name": "_subscriptionId",
          "type": "uint256"
        }
      ],
      "name": "getSubscription",
      "outputs": [
        {
          "components": [
            {
              "internalType": "bytes32",
              "name": "planData",
              "type": "bytes32"
            },
            {
              "internalType": "bytes32",
              "name": "networkData",
              "type": "bytes32"
            },
            {
              "internalType": "bytes32",
              "name": "discountId",
              "type": "bytes32"
            },
            {
              "internalType": "bytes32",
              "name": "discountData",
              "type": "bytes32"
            },
            {
              "internalType": "bytes32",
              "name": "ref",
              "type": "bytes32"
            },
            {
              "internalType": "address",
              "name": "provider",
              "type": "address"
            },
            {
              "internalType": "enum ICaskSubscriptions.SubscriptionStatus",
              "name": "status",
              "type": "uint8"
            },
            {
              "internalType": "uint32",
              "name": "planId",
              "type": "uint32"
            },
            {
              "internalType": "uint32",
              "name": "createdAt",
              "type": "uint32"
            },
            {
              "internalType": "uint32",
              "name": "renewAt",
              "type": "uint32"
            },
            {
              "internalType": "uint32",
              "name": "minTermAt",
              "type": "uint32"
            },
            {
              "internalType": "uint32",
              "name": "cancelAt",
              "type": "uint32"
            },
            {
              "internalType": "string",
              "name": "cid",
              "type": "string"
            }
          ],
          "internalType": "struct ICaskSubscriptions.Subscription",
          "name": "",
          "type": "tuple"
        }
      ],
      "stateMutability": "view",
      "type": "function"
    },
    {
      "inputs": [
        {
          "internalType": "address",
          "name": "_subscriptionPlans",
          "type": "address"
        }
      ],
      "name": "initialize",
      "outputs": [],
      "stateMutability": "nonpayable",
      "type": "function"
    },
    {
      "inputs": [
        {
          "internalType": "address",
          "name": "owner",
          "type": "address"
        },
        {
          "internalType": "address",
          "name": "operator",
          "type": "address"
        }
      ],
      "name": "isApprovedForAll",
      "outputs": [
        {
          "internalType": "bool",
          "name": "",
          "type": "bool"
        }
      ],
      "stateMutability": "view",
      "type": "function"
    },
    {
      "inputs": [
        {
          "internalType": "address",
          "name": "forwarder",
          "type": "address"
        }
      ],
      "name": "isTrustedForwarder",
      "outputs": [
        {
          "internalType": "bool",
          "name": "",
          "type": "bool"
        }
      ],
      "stateMutability": "view",
      "type": "function"
    },
    {
      "inputs": [
        {
          "internalType": "uint256",
          "name": "_subscriptionId",
          "type": "uint256"
        },
        {
          "internalType": "enum ICaskSubscriptions.ManagerCommand",
          "name": "_command",
          "type": "uint8"
        }
      ],
      "name": "managerCommand",
      "outputs": [],
      "stateMutability": "nonpayable",
      "type": "function"
    },
    {
      "inputs": [],
      "name": "name",
      "outputs": [
        {
          "internalType": "string",
          "name": "",
          "type": "string"
        }
      ],
      "stateMutability": "view",
      "type": "function"
    },
    {
      "inputs": [],
      "name": "owner",
      "outputs": [
        {
          "internalType": "address",
          "name": "",
          "type": "address"
        }
      ],
      "stateMutability": "view",
      "type": "function"
    },
    {
      "inputs": [
        {
          "internalType": "uint256",
          "name": "tokenId",
          "type": "uint256"
        }
      ],
      "name": "ownerOf",
      "outputs": [
        {
          "internalType": "address",
          "name": "",
          "type": "address"
        }
      ],
      "stateMutability": "view",
      "type": "function"
    },
    {
      "inputs": [],
      "name": "pause",
      "outputs": [],
      "stateMutability": "nonpayable",
      "type": "function"
    },
    {
      "inputs": [
        {
          "internalType": "uint256",
          "name": "_subscriptionId",
          "type": "uint256"
        }
      ],
      "name": "pauseSubscription",
      "outputs": [],
      "stateMutability": "nonpayable",
      "type": "function"
    },
    {
      "inputs": [],
      "name": "paused",
      "outputs": [
        {
          "internalType": "bool",
          "name": "",
          "type": "bool"
        }
      ],
      "stateMutability": "view",
      "type": "function"
    },
    {
      "inputs": [],
      "name": "renounceOwnership",
      "outputs": [],
      "stateMutability": "nonpayable",
      "type": "function"
    },
    {
      "inputs": [
        {
          "internalType": "uint256",
          "name": "_subscriptionId",
          "type": "uint256"
        }
      ],
      "name": "resumeSubscription",
      "outputs": [],
      "stateMutability": "nonpayable",
      "type": "function"
    },
    {
      "inputs": [
        {
          "internalType": "address",
          "name": "from",
          "type": "address"
        },
        {
          "internalType": "address",
          "name": "to",
          "type": "address"
        },
        {
          "internalType": "uint256",
          "name": "tokenId",
          "type": "uint256"
        }
      ],
      "name": "safeTransferFrom",
      "outputs": [],
      "stateMutability": "nonpayable",
      "type": "function"
    },
    {
      "inputs": [
        {
          "internalType": "address",
          "name": "from",
          "type": "address"
        },
        {
          "internalType": "address",
          "name": "to",
          "type": "address"
        },
        {
          "internalType": "uint256",
          "name": "tokenId",
          "type": "uint256"
        },
        {
          "internalType": "bytes",
          "name": "_data",
          "type": "bytes"
        }
      ],
      "name": "safeTransferFrom",
      "outputs": [],
      "stateMutability": "nonpayable",
      "type": "function"
    },
    {
      "inputs": [
        {
          "internalType": "address",
          "name": "operator",
          "type": "address"
        },
        {
          "internalType": "bool",
          "name": "approved",
          "type": "bool"
        }
      ],
      "name": "setApprovalForAll",
      "outputs": [],
      "stateMutability": "nonpayable",
      "type": "function"
    },
    {
      "inputs": [
        {
          "internalType": "address",
          "name": "_subscriptionManager",
          "type": "address"
        }
      ],
      "name": "setManager",
      "outputs": [],
      "stateMutability": "nonpayable",
      "type": "function"
    },
    {
      "inputs": [
        {
          "internalType": "address",
          "name": "_forwarder",
          "type": "address"
        }
      ],
      "name": "setTrustedForwarder",
      "outputs": [],
      "stateMutability": "nonpayable",
      "type": "function"
    },
    {
      "inputs": [],
      "name": "subscriptionManager",
      "outputs": [
        {
          "internalType": "contract ICaskSubscriptionManager",
          "name": "",
          "type": "address"
        }
      ],
      "stateMutability": "view",
      "type": "function"
    },
    {
      "inputs": [],
      "name": "subscriptionPlans",
      "outputs": [
        {
          "internalType": "contract ICaskSubscriptionPlans",
          "name": "",
          "type": "address"
        }
      ],
      "stateMutability": "view",
      "type": "function"
    },
    {
      "inputs": [
        {
          "internalType": "bytes4",
          "name": "interfaceId",
          "type": "bytes4"
        }
      ],
      "name": "supportsInterface",
      "outputs": [
        {
          "internalType": "bool",
          "name": "",
          "type": "bool"
        }
      ],
      "stateMutability": "view",
      "type": "function"
    },
    {
      "inputs": [],
      "name": "symbol",
      "outputs": [
        {
          "internalType": "string",
          "name": "",
          "type": "string"
        }
      ],
      "stateMutability": "view",
      "type": "function"
    },
    {
      "inputs": [
        {
          "internalType": "uint256",
          "name": "_subscriptionId",
          "type": "uint256"
        }
      ],
      "name": "tokenURI",
      "outputs": [
        {
          "internalType": "string",
          "name": "",
          "type": "string"
        }
      ],
      "stateMutability": "view",
      "type": "function"
    },
    {
      "inputs": [
        {
          "internalType": "address",
          "name": "from",
          "type": "address"
        },
        {
          "internalType": "address",
          "name": "to",
          "type": "address"
        },
        {
          "internalType": "uint256",
          "name": "tokenId",
          "type": "uint256"
        }
      ],
      "name": "transferFrom",
      "outputs": [],
      "stateMutability": "nonpayable",
      "type": "function"
    },
    {
      "inputs": [
        {
          "internalType": "address",
          "name": "newOwner",
          "type": "address"
        }
      ],
      "name": "transferOwnership",
      "outputs": [],
      "stateMutability": "nonpayable",
      "type": "function"
    },
    {
      "inputs": [],
      "name": "trustedForwarder",
      "outputs": [
        {
          "internalType": "address",
          "name": "",
          "type": "address"
        }
      ],
      "stateMutability": "view",
      "type": "function"
    },
    {
      "inputs": [],
      "name": "unpause",
      "outputs": [],
      "stateMutability": "nonpayable",
      "type": "function"
    },
    {
      "inputs": [],
      "name": "versionRecipient",
      "outputs": [
        {
          "internalType": "string",
          "name": "",
          "type": "string"
        }
      ],
      "stateMutability": "view",
      "type": "function"
    }
  ],
  "transactionHash": "0x5ede6e8134708df1b0367be6a56c873b286d011649f4b438454b39300128dc94",
  "args": [],
  "numDeployments": 1,
  "solcInputHash": "4d49416dce2f6b5170ba81e669bb2887",
  "bytecode": "0x60c060405260056080819052640322e322e360dc1b60a09081526200002991610105919062000128565b503480156200003757600080fd5b50600054610100900460ff16620000555760005460ff16156200005f565b6200005f62000104565b620000c75760405162461bcd60e51b815260206004820152602e60248201527f496e697469616c697a61626c653a20636f6e747261637420697320616c72656160448201526d191e481a5b9a5d1a585b1a5e995960921b606482015260840160405180910390fd5b600054610100900460ff16158015620000ea576000805461ffff19166101011790555b8015620000fd576000805461ff00191690555b506200020b565b60006200011c306200012260201b620027aa1760201c565b15905090565b3b151590565b8280546200013690620001ce565b90600052602060002090601f0160209004810192826200015a5760008555620001a5565b82601f106200017557805160ff1916838001178555620001a5565b82800160010185558215620001a5579182015b82811115620001a557825182559160200191906001019062000188565b50620001b3929150620001b7565b5090565b5b80821115620001b35760008155600101620001b8565b600181811c90821680620001e357607f821691505b602082108114156200020557634e487b7160e01b600052602260045260246000fd5b50919050565b6158aa806200021b6000396000f3fe608060405234801561001057600080fd5b506004361061028a5760003560e01c806385e25ad41161015c578063c0159f6f116100ce578063da74222811610087578063da742228146105ec578063dc311dd3146105ff578063e985e9c51461061f578063f268f53e1461065b578063f2fde38b14610685578063f6189f0e1461069857600080fd5b8063c0159f6f14610555578063c4d66de814610568578063c7a687bf1461057b578063c86e6954146105a5578063c87b56dd146105c6578063d0ebdbe7146105d957600080fd5b8063a22cb46511610120578063a22cb465146104e3578063a746df70146104f6578063ab5f8b7c14610509578063b88d4fde1461051c578063ba4bf1b61461052f578063bf158fd21461054257600080fd5b806385e25ad4146104655780638da5cb5b146104785780638fe17b16146104895780639377877d1461049c57806395d89b41146104db57600080fd5b806341f23f0a116102005780636352211e116101b95780636352211e1461040b57806370a082311461041e578063715018a6146104315780637da0a877146104395780637df7b2aa1461044a5780638456cb591461045d57600080fd5b806341f23f0a1461039b57806342842e0e146103ae578063486ff0cd146103c157806356eb00a1146103c9578063572b6c05146103de5780635c975abb1461040057600080fd5b8063095ea7b311610252578063095ea7b31461031e57806313406f6f14610331578063212350831461034457806323b872dd14610357578063291b9a3f1461036a5780633f4ba83a1461039357600080fd5b806301ffc9a71461028f578063023a584e146102b757806306fdde03146102cc578063081812fc146102e157806308e725031461030c575b600080fd5b6102a261029d366004614b6a565b6106ab565b60405190151581526020015b60405180910390f35b6102ca6102c5366004614b87565b6106fd565b005b6102d461097a565b6040516102ae9190614bf8565b6102f46102ef366004614b87565b610a0c565b6040516001600160a01b0390911681526020016102ae565b60fe545b6040519081526020016102ae565b6102ca61032c366004614c27565b610aa1565b6102ca61033f366004614d8f565b610bc9565b6102ca610352366004614b87565b610c2c565b6102ca610365366004614e92565b610e1c565b610310610378366004614ece565b6001600160a01b0316600090815260ff602052604090205490565b6102ca610e54565b6102ca6103a9366004614b87565b610ea7565b6102ca6103bc366004614e92565b6111b1565b6102d46111cc565b6103d161125b565b6040516102ae9190614ee9565b6102a26103ec366004614ece565b6065546001600160a01b0391821691161490565b60ca5460ff166102a2565b6102f4610419366004614b87565b6112b2565b61031061042c366004614ece565b611329565b6102ca6113b0565b6065546001600160a01b03166102f4565b6102ca610458366004614f2d565b611403565b6102ca611995565b6102ca610473366004614f61565b6119e6565b6098546001600160a01b03166102f4565b60fd546102f4906001600160a01b031681565b6103106104aa366004614f8d565b6001600160a01b03821660009081526101046020908152604080832063ffffffff8516845290915290205492915050565b6102d4611ad2565b6102ca6104f1366004614fc5565b611ae1565b6102ca610504366004614ff1565b611af7565b6103d16105173660046150b9565b611b76565b6102ca61052a3660046150ec565b611d00565b6102ca61053d366004615154565b611d3f565b60fc546102f4906001600160a01b031681565b6102ca6105633660046151a0565b611f4a565b6102ca610576366004614ece565b611f7d565b610310610589366004614ece565b6001600160a01b03166000908152610103602052604090205490565b6103106105b3366004614b87565b6000908152610101602052604090205490565b6102d46105d4366004614b87565b6120b5565b6102ca6105e7366004614ece565b6122db565b6102ca6105fa366004614ece565b612346565b61061261060d366004614b87565b6123b0565b6040516102ae9190615267565b6102a261062d366004615361565b6001600160a01b039182166000908152606b6020908152604080832093909416825291909152205460ff1690565b610310610669366004614ece565b6001600160a01b03166000908152610102602052604090205490565b6102ca610693366004614ece565b61259e565b6103d16106a63660046150b9565b612655565b60006001600160e01b031982166380ac58cd60e01b14806106dc57506001600160e01b03198216635b5e139f60e01b145b806106f757506301ffc9a760e01b6001600160e01b03198316145b92915050565b80610707816112b2565b6001600160a01b03166107186127b0565b6001600160a01b0316146107475760405162461bcd60e51b815260040161073e9061538b565b60405180910390fd5b60ca5460ff161561076a5760405162461bcd60e51b815260040161073e906153aa565b60008281526101006020526040902060036005820154600160a01b900460ff16600681111561079b5761079b61522f565b146107d65760405162461bcd60e51b815260206004820152600b60248201526a085393d517d4105554d15160aa1b604482015260640161073e565b60006107e582600001546127bf565b9050806080015163ffffffff16600014806108385750608081015160058301546001600160a01b03166000908152610104602090815260408083208286015163ffffffff90811685529252909120549116115b6108725760405162461bcd60e51b815260206004820152600b60248201526a214d41585f41435449564560a81b604482015260640161073e565b60058201805460ff60a01b198116600160a11b17918290556001600160a01b0316600090815261010460209081526040808320600160a81b90940463ffffffff1683529290529081208054600192906108cc9084906153ea565b9091555050600682015463ffffffff428116911610156108fe5760068201805463ffffffff19164263ffffffff161790555b600582015484906001600160a01b0316610917826112b2565b6004850154600586015460408051928352600160a81b90910463ffffffff1660208301526001600160a01b0392909216917f7ee0fc3eab7021686f891346ebbf5bab192d6f9995fcc66021f4551888dc148191015b60405180910390a450505050565b60606066805461098990615402565b80601f01602080910402602001604051908101604052809291908181526020018280546109b590615402565b8015610a025780601f106109d757610100808354040283529160200191610a02565b820191906000526020600020905b8154815290600101906020018083116109e557829003601f168201915b5050505050905090565b6000818152606860205260408120546001600160a01b0316610a855760405162461bcd60e51b815260206004820152602c60248201527f4552433732313a20617070726f76656420717565727920666f72206e6f6e657860448201526b34b9ba32b73a103a37b5b2b760a11b606482015260840161073e565b506000908152606a60205260409020546001600160a01b031690565b6000610aac826112b2565b9050806001600160a01b0316836001600160a01b03161415610b1a5760405162461bcd60e51b815260206004820152602160248201527f4552433732313a20617070726f76616c20746f2063757272656e74206f776e656044820152603960f91b606482015260840161073e565b806001600160a01b0316610b2c6127b0565b6001600160a01b03161480610b485750610b488161062d6127b0565b610bba5760405162461bcd60e51b815260206004820152603860248201527f4552433732313a20617070726f76652063616c6c6572206973206e6f74206f7760448201527f6e6572206e6f7220617070726f76656420666f7220616c6c0000000000000000606482015260840161073e565b610bc48383612884565b505050565b60ca5460ff1615610bec5760405162461bcd60e51b815260040161073e906153aa565b6000610bfe8b8b8b8b8a8a89896128f2565b9050610c0a8785612faa565b5060009081526101006020526040902060010195909555505050505050505050565b80610c36816112b2565b6001600160a01b0316610c476127b0565b6001600160a01b03161480610c865750600081815261010060205260409020600501546001600160a01b0316610c7b6127b0565b6001600160a01b0316145b610ca25760405162461bcd60e51b815260040161073e9061538b565b60ca5460ff1615610cc55760405162461bcd60e51b815260040161073e906153aa565b600082815261010060205260409020600580820154600160a01b900460ff166006811115610cf557610cf561522f565b14158015610d23575060046005820154600160a01b900460ff166006811115610d2057610d2061522f565b14155b610d3f5760405162461bcd60e51b815260040161073e9061543d565b6006810154600160201b900463ffffffff161580610d735750600681015463ffffffff600160201b90910481164290911610155b610d8f5760405162461bcd60e51b815260040161073e90615467565b600581018054600560a01b60ff60a01b1982161790915583906001600160a01b0316610dba826112b2565b6004840154600585015460408051928352600160a81b90910463ffffffff1660208301526001600160a01b0392909216917f83217e17a62745245734031007583a7faee757904c6d101fc0003df8e0b541d491015b60405180910390a4505050565b610e2d610e276127b0565b826130d0565b610e495760405162461bcd60e51b815260040161073e9061548a565b610bc48383836131c7565b610e5c6127b0565b6001600160a01b0316610e776098546001600160a01b031690565b6001600160a01b031614610e9d5760405162461bcd60e51b815260040161073e906154db565b610ea5613372565b565b80610eb1816112b2565b6001600160a01b0316610ec26127b0565b6001600160a01b03161480610f015750600081815261010060205260409020600501546001600160a01b0316610ef66127b0565b6001600160a01b0316145b610f1d5760405162461bcd60e51b815260040161073e9061538b565b60ca5460ff1615610f405760405162461bcd60e51b815260040161073e906153aa565b60008281526101006020526040902060036005820154600160a01b900460ff166006811115610f7157610f7161522f565b14158015610f9f575060066005820154600160a01b900460ff166006811115610f9c57610f9c61522f565b14155b8015610fcb575060046005820154600160a01b900460ff166006811115610fc857610fc861522f565b14155b8015610ff7575060016005820154600160a01b900460ff166006811115610ff457610ff461522f565b14155b80156110225750600580820154600160a01b900460ff16600681111561101f5761101f61522f565b14155b61103e5760405162461bcd60e51b815260040161073e9061543d565b6006810154600160201b900463ffffffff1615806110725750600681015463ffffffff600160201b90910481164290911610155b61108e5760405162461bcd60e51b815260040161073e90615467565b600061109d82600001546127bf565b90508060c001516110e05760405162461bcd60e51b815260206004820152600d60248201526c214e4f545f5041555341424c4560981b604482015260640161073e565b60058201805460ff60a01b198116600360a01b17918290556001600160a01b0316600090815261010460209081526040808320600160a81b90940463ffffffff16835292905290812080546001929061113a908490615510565b9091555050600582015484906001600160a01b0316611158826112b2565b6004850154600586015460408051928352600160a81b90910463ffffffff1660208301526001600160a01b0392909216917f7afd3b59e582bb56b590409b808e910ae787056cb10b682b9bdefa44c8eb940d910161096c565b610bc483838360405180602001604052806000815250611d00565b61010580546111da90615402565b80601f016020809104026020016040519081016040528092919081815260200182805461120690615402565b80156112535780601f1061122857610100808354040283529160200191611253565b820191906000526020600020905b81548152906001019060200180831161123657829003601f168201915b505050505081565b606060fe805480602002602001604051908101604052809291908181526020018280548015610a0257602002820191906000526020600020905b815481526020019060010190808311611295575050505050905090565b6000818152606860205260408120546001600160a01b0316806106f75760405162461bcd60e51b815260206004820152602960248201527f4552433732313a206f776e657220717565727920666f72206e6f6e657869737460448201526832b73a103a37b5b2b760b91b606482015260840161073e565b60006001600160a01b0382166113945760405162461bcd60e51b815260206004820152602a60248201527f4552433732313a2062616c616e636520717565727920666f7220746865207a65604482015269726f206164647265737360b01b606482015260840161073e565b506001600160a01b031660009081526069602052604090205490565b6113b86127b0565b6001600160a01b03166113d36098546001600160a01b031690565b6001600160a01b0316146113f95760405162461bcd60e51b815260040161073e906154db565b610ea5600061340b565b60fc546001600160a01b03166114176127b0565b6001600160a01b03161461143d5760405162461bcd60e51b815260040161073e9061538b565b60ca5460ff16156114605760405162461bcd60e51b815260040161073e906153aa565b60008281526101006020526040902060018260058111156114835761148361522f565b14156116215760008381526101016020526040902054806114e65760405162461bcd60e51b815260206004820152601960248201527f21494e56414c49442870656e64696e67506c616e446174612900000000000000604482015260640161073e565b60006114f1826127bf565b600584015490915085906001600160a01b031661150d826112b2565b6004860154600587015460208087015160028a01546040805195865263ffffffff600160a81b90950485169386019390935292169083015260608201526001600160a01b0391909116907fe17e61be0a4aac2f0b6fece72cedc2ab9ca554634d5af864a9282095206a0c2b9060800160405180910390a4602081015160058401805463ffffffff909216600160a81b0263ffffffff60a81b1990921691909117905581835560a081015161ffff161561160b578060a0015161ffff1681604001516115d89190615527565b6115e89063ffffffff16426153ea565b8360060160046101000a81548163ffffffff021916908363ffffffff1602179055505b5050506000918252506101016020526040812055565b60028260058111156116355761163561522f565b141561174b57600581018054600160a21b60ff60a01b198216179091556001600160a01b031660009081526101036020526040812080546001929061167b908490615510565b909155505060058101546001600160a01b038116600090815261010460209081526040808320600160a81b90940463ffffffff1683529290529081208054600192906116c8908490615510565b9091555050600581015483906001600160a01b03166116e6826112b2565b6004840154600585015460408051928352600160a81b90910463ffffffff1660208301526001600160a01b0392909216917f58e4414596fd750dbb9dabfe65b97bf5add2061f5902f34e2b82a9c25bd79f98910160405180910390a4610bc48361345d565b600382600581111561175f5761175f61522f565b14156117e957600581018054600360a11b60ff60a01b1982161790915583906001600160a01b0316611790826112b2565b6004840154600585015460408051928352600160a81b90910463ffffffff1660208301526001600160a01b0392909216917f44abb4f4529fdbcacc1ee98eef9318eaf9a12044d6925a2dc2c702959d9352f19101610e0f565b60048260058111156117fd576117fd61522f565b141561196f57600061181282600001546127bf565b905060016005830154600160a01b900460ff1660068111156118365761183661522f565b14156118b257600582015484906001600160a01b0316611855826112b2565b6004850154600586015460408051928352600160a81b90910463ffffffff1660208301526001600160a01b0392909216917ff42e506093cb49dad3d3349cf7a2b390140be665daecb2c820e903afd12b1df7910160405180910390a45b60058201805460ff60a01b1916600160a11b179055604081015160068301546118e1919063ffffffff16615553565b60068301805463ffffffff191663ffffffff92909216919091179055600582015484906001600160a01b0316611916826112b2565b6004850154600586015460408051928352600160a81b90910463ffffffff1660208301526001600160a01b0392909216917fcdd2eee203a384f2c6e81f39021f7e3ebef3a21ccd0d0f6dd117387ab61b6b54910161096c565b60058260058111156119835761198361522f565b1415610bc45760006003820155505050565b61199d6127b0565b6001600160a01b03166119b86098546001600160a01b031690565b6001600160a01b0316146119de5760405162461bcd60e51b815260040161073e906154db565b610ea5613504565b816119f0816112b2565b6001600160a01b0316611a016127b0565b6001600160a01b031614611a275760405162461bcd60e51b815260040161073e9061538b565b60ca5460ff1615611a4a5760405162461bcd60e51b815260040161073e906153aa565b6000838152610100602052604090206006810154600160201b900463ffffffff161580611a8c5750600681015463ffffffff600160201b909104811690841610155b611aa85760405162461bcd60e51b815260040161073e90615467565b600601805463ffffffff909316600160401b0263ffffffff60401b19909316929092179091555050565b60606067805461098990615402565b611af3611aec6127b0565b838361355d565b5050565b87611b01816112b2565b6001600160a01b0316611b126127b0565b6001600160a01b031614611b385760405162461bcd60e51b815260040161073e9061538b565b60ca5460ff1615611b5b5760405162461bcd60e51b815260040161073e906153aa565b611b6b898989898989898961362c565b505050505050505050565b6001600160a01b038316600090815260ff60205260409020546060908390811115611bb657506001600160a01b038416600090815260ff60205260409020545b6001600160a01b038516600090815260ff60205260409020548310611c0a5760005b604051908082528060200260200182016040528015611c01578160200160208202803683370190505b50915050611cf9565b60008167ffffffffffffffff811115611c2557611c25614caa565b604051908082528060200260200182016040528015611c4e578160200160208202803683370190505b50905060005b8281108015611c8357506001600160a01b038716600090815260ff6020526040902054611c8186836153ea565b105b15611cf4576001600160a01b038716600090815260ff60205260409020611caa86836153ea565b81548110611cba57611cba61557b565b9060005260206000200154828281518110611cd757611cd761557b565b602090810291909101015280611cec81615591565b915050611c54565b509150505b9392505050565b611d11611d0b6127b0565b836130d0565b611d2d5760405162461bcd60e51b815260040161073e9061548a565b611d39848484846139d7565b50505050565b82611d49816112b2565b6001600160a01b0316611d5a6127b0565b6001600160a01b03161480611d995750600081815261010060205260409020600501546001600160a01b0316611d8e6127b0565b6001600160a01b0316145b611db55760405162461bcd60e51b815260040161073e9061538b565b60ca5460ff1615611dd85760405162461bcd60e51b815260040161073e906153aa565b600084815261010060205260409020600281015415611e2e5760405162461bcd60e51b81526020600482015260126024820152710851561254d5125391d7d11254d0d3d5539560721b604482015260640161073e565b6000858152610101602052604090205415611e905760008581526101016020526040812054611e5c906127bf565b60058301546020820151919250611e80916001600160a01b03909116908787613a0a565b6003840155600283015550611ec3565b6005810154611eb8906001600160a01b03811690600160a81b900463ffffffff168686613a0a565b600383015560028201555b600581015485906001600160a01b0316611edc826112b2565b60048401546005850154600386015460408051938452600160a81b90920463ffffffff166020840152908201526001600160a01b0391909116907f23be24e2f5bdda1a165ef44cb730243e3f79e09d3c28086b166ab914c79750609060600160405180910390a45050505050565b60ca5460ff1615611f6d5760405162461bcd60e51b815260040161073e906153aa565b611b6b88888888888888886128f2565b600054610100900460ff16611f985760005460ff1615611f9c565b303b155b611fff5760405162461bcd60e51b815260206004820152602e60248201527f496e697469616c697a61626c653a20636f6e747261637420697320616c72656160448201526d191e481a5b9a5d1a585b1a5e995960921b606482015260840161073e565b600054610100900460ff16158015612021576000805461ffff19166101011790555b612029613b87565b612031613bbe565b612085604051806040016040528060128152602001714361736b20537562736372697074696f6e7360701b815250604051806040016040528060088152602001674341534b5355425360c01b815250613bf5565b60fd80546001600160a01b0319166001600160a01b0384161790558015611af3576000805461ff00191690555050565b6000818152606860205260409020546060906001600160a01b03166121345760405162461bcd60e51b815260206004820152602f60248201527f4552433732314d657461646174613a2055524920717565727920666f72206e6f60448201526e3732bc34b9ba32b73a103a37b5b2b760891b606482015260840161073e565b60008281526101006020908152604080832081516101a08101835281548152600182015493810193909352600281015491830191909152600381015460608301526004810154608083015260058101546001600160a01b03811660a084015260c0830190600160a01b900460ff1660068111156121b3576121b361522f565b60068111156121c4576121c461522f565b8152600582015463ffffffff600160a81b820481166020840152600160c81b9091048116604083015260068301548082166060840152600160201b810482166080840152600160401b90041660a082015260078201805460c09092019161222a90615402565b80601f016020809104026020016040519081016040528092919081815260200182805461225690615402565b80156122a35780601f10612278576101008083540402835291602001916122a3565b820191906000526020600020905b81548152906001019060200180831161228657829003601f168201915b50505050508152505090508061018001516040516020016122c491906155ac565b604051602081830303815290604052915050919050565b6122e36127b0565b6001600160a01b03166122fe6098546001600160a01b031690565b6001600160a01b0316146123245760405162461bcd60e51b815260040161073e906154db565b60fc80546001600160a01b0319166001600160a01b0392909216919091179055565b61234e6127b0565b6001600160a01b03166123696098546001600160a01b031690565b6001600160a01b03161461238f5760405162461bcd60e51b815260040161073e906154db565b606580546001600160a01b0319166001600160a01b03831617905550565b50565b604080516101a08101825260008082526020820181905291810182905260608082018390526080820183905260a0820183905260c0820183905260e082018390526101008201839052610120820183905261014082018390526101608201929092526101808101919091526000828152610100602090815260409182902082516101a08101845281548152600182015492810192909252600281015492820192909252600382015460608201526004820154608082015260058201546001600160a01b03811660a083015290919060c0830190600160a01b900460ff16600681111561249e5761249e61522f565b60068111156124af576124af61522f565b8152600582015463ffffffff600160a81b820481166020840152600160c81b9091048116604083015260068301548082166060840152600160201b810482166080840152600160401b90041660a082015260078201805460c09092019161251590615402565b80601f016020809104026020016040519081016040528092919081815260200182805461254190615402565b801561258e5780601f106125635761010080835404028352916020019161258e565b820191906000526020600020905b81548152906001019060200180831161257157829003601f168201915b5050505050815250509050919050565b6125a66127b0565b6001600160a01b03166125c16098546001600160a01b031690565b6001600160a01b0316146125e75760405162461bcd60e51b815260040161073e906154db565b6001600160a01b03811661264c5760405162461bcd60e51b815260206004820152602660248201527f4f776e61626c653a206e6577206f776e657220697320746865207a65726f206160448201526564647265737360d01b606482015260840161073e565b6123ad8161340b565b6001600160a01b03831660009081526101026020526040902054606090839081111561269757506001600160a01b038416600090815261010260205260409020545b6001600160a01b0385166000908152610102602052604090205483106126be576000611bd8565b60008167ffffffffffffffff8111156126d9576126d9614caa565b604051908082528060200260200182016040528015612702578160200160208202803683370190505b50905060005b828110801561273857506001600160a01b0387166000908152610102602052604090205461273686836153ea565b105b15611cf4576001600160a01b03871660009081526101026020526040902061276086836153ea565b815481106127705761277061557b565b906000526020600020015482828151811061278d5761278d61557b565b6020908102919091010152806127a281615591565b915050612708565b3b151590565b60006127ba613c36565b905090565b6040805161010081018252600080825260208201819052918101829052606081018290526080810182905260a0810182905260c0810182905260e081019190915250604080516101008101825260a083811c8252608084811c63ffffffff908116602080860191909152606087811c8316868801529587901c8216958501959095529385901c90931692820192909252601083901c61ffff169181019190915260f09190911b600160f01b8181161460c0830152600160f11b9081161460e082015290565b6000818152606a6020526040902080546001600160a01b0319166001600160a01b03841690811790915581906128b9826112b2565b6001600160a01b03167f8c5be1e5ebec7d5bd14f71427d1e84f3dd0314c0f7b2291e5b200ac8c7c3b92560405160405180910390a45050565b6000600488101561293e5760405162461bcd60e51b815260206004820152601660248201527521494e56414c494428706c616e50726f6f664c656e2960501b604482015260640161073e565b6000600387106129a65761299f8a8a600081811061295e5761295e61557b565b90506020020135868c8c60038181106129795761297961557b565b905060200201358b8b60028181106129935761299361557b565b90506020020135613c6a565b90506129ea565b6129e78a8a60008181106129bc576129bc61557b565b90506020020135868c8c60038181106129d7576129d761557b565b905060200201356000801b613c6a565b90505b6129f48a8a613ce8565b612a105760405162461bcd60e51b815260040161073e906155db565b6000612a348b8b6002818110612a2857612a2861557b565b905060200201356127bf565b90506000612a8e8c8c6000818110612a4e57612a4e61557b565b905060200201358d8d6001818110612a6857612a6861557b565b905060200201358e8e6002818110612a8257612a8261557b565b90506020020135613daf565b9050816080015163ffffffff1660001480612add575060808201516001600160a01b0384166000908152610104602090815260408083208287015163ffffffff90811685529252909120549116115b612b175760405162461bcd60e51b815260206004820152600b60248201526a214d41585f41435449564560a81b604482015260640161073e565b600060fd54602084015160405163b6ab359f60e01b81526001600160a01b03878116600483015263ffffffff909216602482015291169063b6ab359f9060440160206040518083038186803b158015612b6f57600080fd5b505afa158015612b83573d6000803e3d6000fd5b505050506040513d601f19601f82011682018060405250810190612ba79190615608565b6002811115612bb857612bb861522f565b14612bf45760405162461bcd60e51b815260206004820152600c60248201526b085393d517d153905093115160a21b604482015260640161073e565b612c05612bff6127b0565b82613e1a565b6000818152610100602090815260409091206005810180549285015163ffffffff16600160a81b02600164ffffffff0160a01b03199093166001600160a01b03871617929092179091558c8c6001818110612c6257612c6261557b565b60200291909101356004830155508c8c6002818110612c8357612c8361557b565b602002919091013582555060068101805463ffffffff60401b1916600160401b63ffffffff8c1602179055612cbc600782018888614a47565b5060058101805463ffffffff60c81b1916600160c81b4263ffffffff160217905560a083015161ffff1615612d36578260a0015161ffff168360400151612d039190615527565b612d139063ffffffff16426153ea565b8160060160046101000a81548163ffffffff021916908363ffffffff1602179055505b606083015163ffffffff1615612d875760058101805460ff60a01b1916600160a01b1790556060830151612d6a9042615553565b60068201805463ffffffff191663ffffffff929092169190911790555b60058101546020840151612da6916001600160a01b0316908d8d613a0a565b60038301556002820155600681015463ffffffff428116911611612e235760fc5460405163d71bb37b60e01b8152600481018490526001600160a01b039091169063d71bb37b90602401600060405180830381600087803b158015612e0a57600080fd5b505af1158015612e1e573d6000803e3d6000fd5b505050505b600581015482906001600160a01b0316612e3c826112b2565b60048401546005850154600286015460408051938452600160a81b90920463ffffffff166020840152908201526001600160a01b0391909116907f9fb45eab820cdd481e286e8c699e1c01031bb833c58f7cfba3ca8d1db6d98d819060600160405180910390a460ff6000612eaf6127b0565b6001600160a01b0390811682526020808301939093526040918201600090812080546001818101835591835285832001879055918816808252610102855283822080548085018255908352858320018790558152610103909352908220805491929091612f1d9084906153ea565b90915550506001600160a01b0384166000908152610104602090815260408083208683015163ffffffff1684529091528120805460019290612f609084906153ea565b909155505060fe80546001810182556000919091527f54075df80ec1ae6ac9100e1fd0ebf3246c17f5c933137af392011f4c5f61513a01829055509b9a5050505050505050505050565b60008061302d8361302786604051602001612fc791815260200190565b60408051601f1981840301815282825280516020918201207f19457468657265756d205369676e6564204d6573736167653a0a33320000000084830152603c8085019190915282518085039091018152605c909301909152815191012090565b90613e34565b9050600061306d8560408051808201909152600080825260208201525060408051808201909152606082901c815260509190911c61ffff16602082015290565b9050816001600160a01b031681600001516001600160a01b0316146130c85760405162461bcd60e51b815260206004820152601160248201527021494e56414c4944286e6574776f726b2960781b604482015260640161073e565b509392505050565b6000818152606860205260408120546001600160a01b03166131495760405162461bcd60e51b815260206004820152602c60248201527f4552433732313a206f70657261746f7220717565727920666f72206e6f6e657860448201526b34b9ba32b73a103a37b5b2b760a11b606482015260840161073e565b6000613154836112b2565b9050806001600160a01b0316846001600160a01b0316148061318f5750836001600160a01b031661318484610a0c565b6001600160a01b0316145b806131bf57506001600160a01b038082166000908152606b602090815260408083209388168352929052205460ff165b949350505050565b826001600160a01b03166131da826112b2565b6001600160a01b0316146132425760405162461bcd60e51b815260206004820152602960248201527f4552433732313a207472616e73666572206f6620746f6b656e2074686174206960448201526839903737ba1037bbb760b91b606482015260840161073e565b6001600160a01b0382166132a45760405162461bcd60e51b8152602060048201526024808201527f4552433732313a207472616e7366657220746f20746865207a65726f206164646044820152637265737360e01b606482015260840161073e565b6132af838383613e50565b6132ba600082612884565b6001600160a01b03831660009081526069602052604081208054600192906132e3908490615510565b90915550506001600160a01b03821660009081526069602052604081208054600192906133119084906153ea565b909155505060008181526068602052604080822080546001600160a01b0319166001600160a01b0386811691821790925591518493918716917fddf252ad1be2c89b69c2b068fc378daa952ba7f163c4a11628f55a4df523b3ef91a4505050565b60ca5460ff166133bb5760405162461bcd60e51b815260206004820152601460248201527314185d5cd8589b194e881b9bdd081c185d5cd95960621b604482015260640161073e565b60ca805460ff191690557f5db9ee0a495bf2e6ff9c91a7834c1ba4fdd244a5e8aa4e537bd38aeae4b073aa6133ee6127b0565b6040516001600160a01b03909116815260200160405180910390a1565b609880546001600160a01b038381166001600160a01b0319831681179093556040519116919082907f8be0079c531659141344cd1fd0a4f28419497f9722a3daafe3b4186f6b6457e090600090a35050565b6000613468826112b2565b905061347681600084613e50565b613481600083612884565b6001600160a01b03811660009081526069602052604081208054600192906134aa908490615510565b909155505060008281526068602052604080822080546001600160a01b0319169055518391906001600160a01b038416907fddf252ad1be2c89b69c2b068fc378daa952ba7f163c4a11628f55a4df523b3ef908390a45050565b60ca5460ff16156135275760405162461bcd60e51b815260040161073e906153aa565b60ca805460ff191660011790557f62e78cea01bee320cd4e420270b5ea74000d11b0c9f74754ebdbfc544b05a2586133ee6127b0565b816001600160a01b0316836001600160a01b031614156135bf5760405162461bcd60e51b815260206004820152601960248201527f4552433732313a20617070726f766520746f2063616c6c657200000000000000604482015260640161073e565b6001600160a01b038381166000818152606b6020908152604080832094871680845294825291829020805460ff191686151590811790915591519182527f17307eab39ab6107e8899845ad3d59bd9653f200f220920489ca2b5937696c31910160405180910390a3505050565b600486101561364d5760405162461bcd60e51b815260040161073e906155db565b600088815261010060205260409020600681015463ffffffff4281169116116136a85760405162461bcd60e51b815260206004820152600d60248201526c085391515117d491539155d053609a1b604482015260640161073e565b60026005820154600160a01b900460ff1660068111156136ca576136ca61522f565b14806136f5575060016005820154600160a01b900460ff1660068111156136f3576136f361522f565b145b6137115760405162461bcd60e51b815260040161073e9061543d565b60006003861061376d57613766898960008181106137315761373161557b565b90506020020135868b8b600381811061374c5761374c61557b565b905060200201358a8a60028181106129935761299361557b565b90506137a1565b61379e898960008181106137835761378361557b565b90506020020135868b8b60038181106129d7576129d761557b565b90505b6137ab8989613ce8565b6137c75760405162461bcd60e51b815260040161073e906155db565b60006137df8a8a6002818110612a2857612a2861557b565b60058401549091506001600160a01b038381169116146138365760405162461bcd60e51b815260206004820152601260248201527121494e56414c49442870726f76696465722960701b604482015260640161073e565b613844600784018686614a47565b506002830154158015613858575060038710155b801561387a57506000888882816138715761387161557b565b90506020020135115b156138a9576005830154602082015161389e916001600160a01b0316908a8a613a0a565b600385015560028401555b60208101516005840154600160a81b900463ffffffff9081169116146139ca57600060fd54602083015160405163b6ab359f60e01b81526001600160a01b03868116600483015263ffffffff909216602482015291169063b6ab359f9060440160206040518083038186803b15801561392157600080fd5b505afa158015613935573d6000803e3d6000fd5b505050506040513d601f19601f820116820180604052508101906139599190615608565b600281111561396a5761396a61522f565b146139a65760405162461bcd60e51b815260206004820152600c60248201526b085393d517d153905093115160a21b604482015260640161073e565b6139ca8b828c8c60028181106139be576139be61557b565b90506020020135613f51565b5050505050505050505050565b6139e28484846131c7565b6139ee8484848461403e565b611d395760405162461bcd60e51b815260040161073e90615629565b600080600383118015613a335750600084848281613a2a57613a2a61557b565b90506020020135115b15613b7757600084846000818110613a4d57613a4d61557b565b90506020020135604051602001613a6691815260200190565b60408051601f19818403018152919052805160209091012060fd549091506001600160a01b03166372212e7688888489896001818110613aa857613aa861557b565b905060200201358a8a6002818110613ac257613ac261557b565b60200291909101359050613ad98b6003818f61567b565b6040518863ffffffff1660e01b8152600401613afb97969594939291906156df565b60206040518083038186803b158015613b1357600080fd5b505afa158015613b27573d6000803e3d6000fd5b505050506040513d601f19601f82011682018060405250810190613b4b919061572c565b15613b75578085856001818110613b6457613b6461557b565b905060200201359250925050613b7e565b505b5060009050805b94509492505050565b600054610100900460ff16613bae5760405162461bcd60e51b815260040161073e90615749565b613bb661414f565b610ea5614176565b600054610100900460ff16613be55760405162461bcd60e51b815260040161073e90615749565b613bed61414f565b610ea56141ad565b600054610100900460ff16613c1c5760405162461bcd60e51b815260040161073e90615749565b613c2461414f565b613c2c61414f565b611af382826141e0565b600060143610801590613c5357506065546001600160a01b031633145b15613c65575060131936013560601c90565b503390565b600080613c90856130278686604051602001612fc7929190918252602082015260400190565b90506001600160a01b0386811690821614613cdf5760405162461bcd60e51b815260206004820152600f60248201526e21494e56414c49442870726f6f662960881b604482015260640161073e565b95945050505050565b60fd546000906001600160a01b03166371ce3e6684846002818110613d0f57613d0f61557b565b9050602002013585856003818110613d2957613d2961557b565b60200291909101359050613d40866004818a61567b565b6040518563ffffffff1660e01b8152600401613d5f9493929190615794565b60206040518083038186803b158015613d7757600080fd5b505afa158015613d8b573d6000803e3d6000fd5b505050506040513d601f19601f82011682018060405250810190611cf9919061572c565b6000613db96127b0565b60405160609190911b6bffffffffffffffffffffffff191660208201526034810185905260548101839052607481018490524360948201524260b482015260d40160408051601f198184030181529190528051602090910120949350505050565b611af382826040518060200160405280600081525061422e565b6000806000613e438585614261565b915091506130c8816142d1565b6001600160a01b03831615801590613e7057506001600160a01b03821615155b15610bc4576000818152610100602052604081208054909190613e92906127bf565b90508060e00151613eda5760405162461bcd60e51b8152602060048201526012602482015271214e4f545f5452414e534645525241424c4560701b604482015260640161073e565b6006820154600160201b900463ffffffff161580613f0e5750600682015463ffffffff600160201b90910481164290911610155b613f2a5760405162461bcd60e51b815260040161073e90615467565b506006018054600160401b63ffffffff82160263ffffffff60401b19909116179055505050565b6000838152610100602052604081208054909190613f6e906127bf565b905060016005830154600160a01b900460ff166006811115613f9257613f9261522f565b1415613fa957613fa48582868661448c565b614037565b60408101518151613fc09163ffffffff16906157be565b60408501518551613fd79163ffffffff16906157be565b1415613fe857613fa4858585614507565b60408101518151613fff9163ffffffff16906157be565b604085015185516140169163ffffffff16906157be565b111561402857613fa485828686614630565b61403785856020015185614746565b5050505050565b60006001600160a01b0384163b1561414757836001600160a01b031663150b7a026140676127b0565b8786866040518563ffffffff1660e01b815260040161408994939291906157e0565b602060405180830381600087803b1580156140a357600080fd5b505af19250505080156140d3575060408051601f3d908101601f191682019092526140d091810190615813565b60015b61412d573d808015614101576040519150601f19603f3d011682016040523d82523d6000602084013e614106565b606091505b5080516141255760405162461bcd60e51b815260040161073e90615629565b805181602001fd5b6001600160e01b031916630a85bd0160e11b1490506131bf565b5060016131bf565b600054610100900460ff16610ea55760405162461bcd60e51b815260040161073e90615749565b600054610100900460ff1661419d5760405162461bcd60e51b815260040161073e90615749565b610ea56141a86127b0565b61340b565b600054610100900460ff166141d45760405162461bcd60e51b815260040161073e90615749565b60ca805460ff19169055565b600054610100900460ff166142075760405162461bcd60e51b815260040161073e90615749565b815161421a906066906020850190614acb565b508051610bc4906067906020840190614acb565b61423883836147e0565b614245600084848461403e565b610bc45760405162461bcd60e51b815260040161073e90615629565b6000808251604114156142985760208301516040840151606085015160001a61428c8782858561492e565b945094505050506142ca565b8251604014156142c257602083015160408401516142b7868383614a18565b9350935050506142ca565b506000905060025b9250929050565b60008160048111156142e5576142e561522f565b14156142ee5750565b60018160048111156143025761430261522f565b14156143505760405162461bcd60e51b815260206004820152601860248201527f45434453413a20696e76616c6964207369676e61747572650000000000000000604482015260640161073e565b60028160048111156143645761436461522f565b14156143b25760405162461bcd60e51b815260206004820152601f60248201527f45434453413a20696e76616c6964207369676e6174757265206c656e67746800604482015260640161073e565b60038160048111156143c6576143c661522f565b141561441f5760405162461bcd60e51b815260206004820152602260248201527f45434453413a20696e76616c6964207369676e6174757265202773272076616c604482015261756560f01b606482015260840161073e565b60048160048111156144335761443361522f565b14156123ad5760405162461bcd60e51b815260206004820152602260248201527f45434453413a20696e76616c6964207369676e6174757265202776272076616c604482015261756560f01b606482015260840161073e565b6000848152610100602052604090206060808401519085015160068301546144ba919063ffffffff16615830565b6144c49190615553565b60068201805463ffffffff191663ffffffff92831690811790915542909116106145005760068101805463ffffffff19164263ffffffff161790555b6140378584845b600083815261010060205260409020600581015484906001600160a01b031661452f826112b2565b6004840154600585015460208089015160028801546040805195865263ffffffff600160a81b90950485169386019390935292169083015260608201526001600160a01b0391909116907fe17e61be0a4aac2f0b6fece72cedc2ab9ca554634d5af864a9282095206a0c2b9060800160405180910390a460a083015161ffff16156145ff578260a0015161ffff1683604001516145cc9190615527565b6145dc9063ffffffff16426153ea565b8160060160046101000a81548163ffffffff021916908363ffffffff1602179055505b60209092015160058301805463ffffffff909216600160a81b0263ffffffff60a81b19909216919091179055905550565b600084815261010060205260408120600681015490919061465890429063ffffffff16615830565b63ffffffff16856040015163ffffffff16866000015161467891906157be565b6040860151865161468f9163ffffffff16906157be565b6146999190615510565b6146a39190615855565b60fc549091506001600160a01b031663c54c58c46146c0886112b2565b600585015460405160e084901b6001600160e01b03191681526001600160a01b039283166004820152911660248201526044810189905260648101849052608401600060405180830381600087803b15801561471b57600080fd5b505af115801561472f573d6000803e3d6000fd5b5050505061473e868585614507565b505050505050565b600083815261010060209081526040808320610101909252909120829055600581015484906001600160a01b031661477d826112b2565b600484015460058501546040805192835263ffffffff600160a81b90920482166020840152908816908201526001600160a01b0391909116907f3d051466fe86e1bd842d67e98121d69a930caccf48fc2ae2c83119b5a7b71af69060600161096c565b6001600160a01b0382166148365760405162461bcd60e51b815260206004820181905260248201527f4552433732313a206d696e7420746f20746865207a65726f2061646472657373604482015260640161073e565b6000818152606860205260409020546001600160a01b03161561489b5760405162461bcd60e51b815260206004820152601c60248201527f4552433732313a20746f6b656e20616c7265616479206d696e74656400000000604482015260640161073e565b6148a760008383613e50565b6001600160a01b03821660009081526069602052604081208054600192906148d09084906153ea565b909155505060008181526068602052604080822080546001600160a01b0319166001600160a01b03861690811790915590518392907fddf252ad1be2c89b69c2b068fc378daa952ba7f163c4a11628f55a4df523b3ef908290a45050565b6000807f7fffffffffffffffffffffffffffffff5d576e7357a4501ddfe92f46681b20a08311156149655750600090506003613b7e565b8460ff16601b1415801561497d57508460ff16601c14155b1561498e5750600090506004613b7e565b6040805160008082526020820180845289905260ff881692820192909252606081018690526080810185905260019060a0016020604051602081039080840390855afa1580156149e2573d6000803e3d6000fd5b5050604051601f1901519150506001600160a01b038116614a0b57600060019250925050613b7e565b9660009650945050505050565b6000806001600160ff1b03831660ff84901c601b01614a398782888561492e565b935093505050935093915050565b828054614a5390615402565b90600052602060002090601f016020900481019282614a755760008555614abb565b82601f10614a8e5782800160ff19823516178555614abb565b82800160010185558215614abb579182015b82811115614abb578235825591602001919060010190614aa0565b50614ac7929150614b3f565b5090565b828054614ad790615402565b90600052602060002090601f016020900481019282614af95760008555614abb565b82601f10614b1257805160ff1916838001178555614abb565b82800160010185558215614abb579182015b82811115614abb578251825591602001919060010190614b24565b5b80821115614ac75760008155600101614b40565b6001600160e01b0319811681146123ad57600080fd5b600060208284031215614b7c57600080fd5b8135611cf981614b54565b600060208284031215614b9957600080fd5b5035919050565b60005b83811015614bbb578181015183820152602001614ba3565b83811115611d395750506000910152565b60008151808452614be4816020860160208601614ba0565b601f01601f19169290920160200192915050565b602081526000611cf96020830184614bcc565b80356001600160a01b0381168114614c2257600080fd5b919050565b60008060408385031215614c3a57600080fd5b614c4383614c0b565b946020939093013593505050565b60008083601f840112614c6357600080fd5b50813567ffffffffffffffff811115614c7b57600080fd5b6020830191508360208260051b85010111156142ca57600080fd5b803563ffffffff81168114614c2257600080fd5b634e487b7160e01b600052604160045260246000fd5b600082601f830112614cd157600080fd5b813567ffffffffffffffff80821115614cec57614cec614caa565b604051601f8301601f19908116603f01168101908282118183101715614d1457614d14614caa565b81604052838152866020858801011115614d2d57600080fd5b836020870160208301376000602085830101528094505050505092915050565b60008083601f840112614d5f57600080fd5b50813567ffffffffffffffff811115614d7757600080fd5b6020830191508360208285010111156142ca57600080fd5b60008060008060008060008060008060e08b8d031215614dae57600080fd5b8a3567ffffffffffffffff80821115614dc657600080fd5b614dd28e838f01614c51565b909c509a5060208d0135915080821115614deb57600080fd5b614df78e838f01614c51565b909a50985060408d01359750889150614e1260608e01614c96565b965060808d0135915080821115614e2857600080fd5b614e348e838f01614cc0565b955060a08d0135915080821115614e4a57600080fd5b614e568e838f01614cc0565b945060c08d0135915080821115614e6c57600080fd5b50614e798d828e01614d4d565b915080935050809150509295989b9194979a5092959850565b600080600060608486031215614ea757600080fd5b614eb084614c0b565b9250614ebe60208501614c0b565b9150604084013590509250925092565b600060208284031215614ee057600080fd5b611cf982614c0b565b6020808252825182820181905260009190848201906040850190845b81811015614f2157835183529284019291840191600101614f05565b50909695505050505050565b60008060408385031215614f4057600080fd5b82359150602083013560068110614f5657600080fd5b809150509250929050565b60008060408385031215614f7457600080fd5b82359150614f8460208401614c96565b90509250929050565b60008060408385031215614fa057600080fd5b614fa983614c0b565b9150614f8460208401614c96565b80151581146123ad57600080fd5b60008060408385031215614fd857600080fd5b614fe183614c0b565b91506020830135614f5681614fb7565b60008060008060008060008060a0898b03121561500d57600080fd5b88359750602089013567ffffffffffffffff8082111561502c57600080fd5b6150388c838d01614c51565b909950975060408b013591508082111561505157600080fd5b61505d8c838d01614c51565b909750955060608b013591508082111561507657600080fd5b6150828c838d01614cc0565b945060808b013591508082111561509857600080fd5b506150a58b828c01614d4d565b999c989b5096995094979396929594505050565b6000806000606084860312156150ce57600080fd5b6150d784614c0b565b95602085013595506040909401359392505050565b6000806000806080858703121561510257600080fd5b61510b85614c0b565b935061511960208601614c0b565b925060408501359150606085013567ffffffffffffffff81111561513c57600080fd5b61514887828801614cc0565b91505092959194509250565b60008060006040848603121561516957600080fd5b83359250602084013567ffffffffffffffff81111561518757600080fd5b61519386828701614c51565b9497909650939450505050565b60008060008060008060008060a0898b0312156151bc57600080fd5b883567ffffffffffffffff808211156151d457600080fd5b6151e08c838d01614c51565b909a50985060208b01359150808211156151f957600080fd5b6152058c838d01614c51565b909850965086915061521960408c01614c96565b955060608b013591508082111561507657600080fd5b634e487b7160e01b600052602160045260246000fd5b6007811061526357634e487b7160e01b600052602160045260246000fd5b9052565b6020815281516020820152602082015160408201526040820151606082015260608201516080820152608082015160a0820152600060a08301516152b660c08401826001600160a01b03169052565b5060c08301516152c960e0840182615245565b5060e08301516101006152e38185018363ffffffff169052565b84015190506101206152fc8482018363ffffffff169052565b84015190506101406153158482018363ffffffff169052565b840151905061016061532e8482018363ffffffff169052565b84015190506101806153478482018363ffffffff169052565b8401516101a08481015290506131bf6101c0840182614bcc565b6000806040838503121561537457600080fd5b61537d83614c0b565b9150614f8460208401614c0b565b60208082526005908201526404282aaa8960db1b604082015260600190565b60208082526010908201526f14185d5cd8589b194e881c185d5cd95960821b604082015260600190565b634e487b7160e01b600052601160045260246000fd5b600082198211156153fd576153fd6153d4565b500190565b600181811c9082168061541657607f821691505b6020821081141561543757634e487b7160e01b600052602260045260246000fd5b50919050565b60208082526010908201526f21494e56414c4944287374617475732960801b604082015260600190565b602080825260099082015268214d494e5f5445524d60b81b604082015260600190565b60208082526031908201527f4552433732313a207472616e736665722063616c6c6572206973206e6f74206f6040820152701ddb995c881b9bdc88185c1c1c9bdd9959607a1b606082015260800190565b6020808252818101527f4f776e61626c653a2063616c6c6572206973206e6f7420746865206f776e6572604082015260600190565b600082821015615522576155226153d4565b500390565b600063ffffffff8083168185168183048111821515161561554a5761554a6153d4565b02949350505050565b600063ffffffff808316818516808303821115615572576155726153d4565b01949350505050565b634e487b7160e01b600052603260045260246000fd5b60006000198214156155a5576155a56153d4565b5060010190565b66697066733a2f2f60c81b8152600082516155ce816007850160208701614ba0565b9190910160070192915050565b60208082526013908201527221494e56414c494428706c616e50726f6f662960681b604082015260600190565b60006020828403121561561a57600080fd5b815160038110611cf957600080fd5b60208082526032908201527f4552433732313a207472616e7366657220746f206e6f6e20455243373231526560408201527131b2b4bb32b91034b6b83632b6b2b73a32b960711b606082015260800190565b6000808585111561568b57600080fd5b8386111561569857600080fd5b5050600583901b0193919092039150565b81835260006001600160fb1b038311156156c257600080fd5b8260051b8083602087013760009401602001938452509192915050565b60018060a01b038816815263ffffffff8716602082015285604082015284606082015283608082015260c060a0820152600061571f60c0830184866156a9565b9998505050505050505050565b60006020828403121561573e57600080fd5b8151611cf981614fb7565b6020808252602b908201527f496e697469616c697a61626c653a20636f6e7472616374206973206e6f74206960408201526a6e697469616c697a696e6760a81b606082015260800190565b8481528360208201526060604082015260006157b46060830184866156a9565b9695505050505050565b6000826157db57634e487b7160e01b600052601260045260246000fd5b500490565b6001600160a01b03858116825284166020820152604081018390526080606082018190526000906157b490830184614bcc565b60006020828403121561582557600080fd5b8151611cf981614b54565b600063ffffffff8381169083168181101561584d5761584d6153d4565b039392505050565b600081600019048311821515161561586f5761586f6153d4565b50029056fea2646970667358221220d40a1fc74cc34104dc4e3cdec24ba0a5d0b5b671179ef26ba534c024adc52afa64736f6c63430008090033",
  "devdoc": {
    "kind": "dev",
    "methods": {
      "approve(address,uint256)": {
        "details": "See {IERC721-approve}."
      },
      "balanceOf(address)": {
        "details": "See {IERC721-balanceOf}."
      },
      "constructor": {
        "custom:oz-upgrades-unsafe-allow": "constructor"
      },
      "getApproved(uint256)": {
        "details": "See {IERC721-getApproved}."
      },
      "isApprovedForAll(address,address)": {
        "details": "See {IERC721-isApprovedForAll}."
      },
      "name()": {
        "details": "See {IERC721Metadata-name}."
      },
      "owner()": {
        "details": "Returns the address of the current owner."
      },
      "ownerOf(uint256)": {
        "details": "See {IERC721-ownerOf}."
      },
      "paused()": {
        "details": "Returns true if the contract is paused, and false otherwise."
      },
      "renounceOwnership()": {
        "details": "Leaves the contract without owner. It will not be possible to call `onlyOwner` functions anymore. Can only be called by the current owner. NOTE: Renouncing ownership will leave the contract without an owner, thereby removing any functionality that is only available to the owner."
      },
      "safeTransferFrom(address,address,uint256)": {
        "details": "See {IERC721-safeTransferFrom}."
      },
      "safeTransferFrom(address,address,uint256,bytes)": {
        "details": "See {IERC721-safeTransferFrom}."
      },
      "setApprovalForAll(address,bool)": {
        "details": "See {IERC721-setApprovalForAll}."
      },
      "supportsInterface(bytes4)": {
        "details": "See {IERC165-supportsInterface}."
      },
      "symbol()": {
        "details": "See {IERC721Metadata-symbol}."
      },
      "transferFrom(address,address,uint256)": {
        "details": "See {IERC721-transferFrom}."
      },
      "transferOwnership(address)": {
        "details": "Transfers ownership of the contract to a new account (`newOwner`). Can only be called by the current owner."
      }
    },
    "stateVariables": {
      "consumerSubscriptions": {
        "details": "Maps for consumer to list of subscriptions. "
      },
      "providerSubscriptions": {
        "details": "Maps for provider to list of subscriptions and plans. "
      },
      "subscriptionManager": {
        "details": "contract to manage subscription plan definitions. "
      },
      "subscriptionPlans": {
        "details": "contract to manage subscription plan definitions. "
      }
    },
    "version": 1
  },
  "userdoc": {
    "kind": "user",
    "methods": {
      "isTrustedForwarder(address)": {
        "notice": "return if the forwarder is trusted to forward relayed transactions to us. the forwarder is required to verify the sender's signature, and verify the call is not a replay."
      }
    },
    "version": 1
  },
  "storageLayout": {
    "storage": [
      {
        "astId": 918,
        "contract": "contracts/protocol/CaskSubscriptions.sol:CaskSubscriptions",
        "label": "_initialized",
        "offset": 0,
        "slot": "0",
        "type": "t_bool"
      },
      {
        "astId": 921,
        "contract": "contracts/protocol/CaskSubscriptions.sol:CaskSubscriptions",
        "label": "_initializing",
        "offset": 1,
        "slot": "0",
        "type": "t_bool"
      },
      {
        "astId": 3142,
        "contract": "contracts/protocol/CaskSubscriptions.sol:CaskSubscriptions",
        "label": "__gap",
        "offset": 0,
        "slot": "1",
        "type": "t_array(t_uint256)50_storage"
      },
      {
        "astId": 3391,
        "contract": "contracts/protocol/CaskSubscriptions.sol:CaskSubscriptions",
        "label": "__gap",
        "offset": 0,
        "slot": "51",
        "type": "t_array(t_uint256)50_storage"
      },
      {
        "astId": 72,
        "contract": "contracts/protocol/CaskSubscriptions.sol:CaskSubscriptions",
        "label": "_trustedForwarder",
        "offset": 0,
        "slot": "101",
        "type": "t_address"
      },
      {
        "astId": 1861,
        "contract": "contracts/protocol/CaskSubscriptions.sol:CaskSubscriptions",
        "label": "_name",
        "offset": 0,
        "slot": "102",
        "type": "t_string_storage"
      },
      {
        "astId": 1863,
        "contract": "contracts/protocol/CaskSubscriptions.sol:CaskSubscriptions",
        "label": "_symbol",
        "offset": 0,
        "slot": "103",
        "type": "t_string_storage"
      },
      {
        "astId": 1867,
        "contract": "contracts/protocol/CaskSubscriptions.sol:CaskSubscriptions",
        "label": "_owners",
        "offset": 0,
        "slot": "104",
        "type": "t_mapping(t_uint256,t_address)"
      },
      {
        "astId": 1871,
        "contract": "contracts/protocol/CaskSubscriptions.sol:CaskSubscriptions",
        "label": "_balances",
        "offset": 0,
        "slot": "105",
        "type": "t_mapping(t_address,t_uint256)"
      },
      {
        "astId": 1875,
        "contract": "contracts/protocol/CaskSubscriptions.sol:CaskSubscriptions",
        "label": "_tokenApprovals",
        "offset": 0,
        "slot": "106",
        "type": "t_mapping(t_uint256,t_address)"
      },
      {
        "astId": 1881,
        "contract": "contracts/protocol/CaskSubscriptions.sol:CaskSubscriptions",
        "label": "_operatorApprovals",
        "offset": 0,
        "slot": "107",
        "type": "t_mapping(t_address,t_mapping(t_address,t_bool))"
      },
      {
        "astId": 2692,
        "contract": "contracts/protocol/CaskSubscriptions.sol:CaskSubscriptions",
        "label": "__gap",
        "offset": 0,
        "slot": "108",
        "type": "t_array(t_uint256)44_storage"
      },
      {
        "astId": 796,
        "contract": "contracts/protocol/CaskSubscriptions.sol:CaskSubscriptions",
        "label": "_owner",
        "offset": 0,
        "slot": "152",
        "type": "t_address"
      },
      {
        "astId": 910,
        "contract": "contracts/protocol/CaskSubscriptions.sol:CaskSubscriptions",
        "label": "__gap",
        "offset": 0,
        "slot": "153",
        "type": "t_array(t_uint256)49_storage"
      },
      {
        "astId": 1006,
        "contract": "contracts/protocol/CaskSubscriptions.sol:CaskSubscriptions",
        "label": "_paused",
        "offset": 0,
        "slot": "202",
        "type": "t_bool"
      },
      {
        "astId": 1097,
        "contract": "contracts/protocol/CaskSubscriptions.sol:CaskSubscriptions",
        "label": "__gap",
        "offset": 0,
        "slot": "203",
        "type": "t_array(t_uint256)49_storage"
      },
      {
        "astId": 11933,
        "contract": "contracts/protocol/CaskSubscriptions.sol:CaskSubscriptions",
        "label": "subscriptionManager",
        "offset": 0,
        "slot": "252",
        "type": "t_contract(ICaskSubscriptionManager)8752"
      },
      {
        "astId": 11937,
        "contract": "contracts/protocol/CaskSubscriptions.sol:CaskSubscriptions",
        "label": "subscriptionPlans",
        "offset": 0,
        "slot": "253",
        "type": "t_contract(ICaskSubscriptionPlans)8900"
      },
      {
        "astId": 11940,
        "contract": "contracts/protocol/CaskSubscriptions.sol:CaskSubscriptions",
        "label": "allSubscriptions",
        "offset": 0,
        "slot": "254",
        "type": "t_array(t_uint256)dyn_storage"
      },
      {
        "astId": 11946,
        "contract": "contracts/protocol/CaskSubscriptions.sol:CaskSubscriptions",
        "label": "consumerSubscriptions",
        "offset": 0,
        "slot": "255",
        "type": "t_mapping(t_address,t_array(t_uint256)dyn_storage)"
      },
      {
        "astId": 11951,
        "contract": "contracts/protocol/CaskSubscriptions.sol:CaskSubscriptions",
        "label": "subscriptions",
        "offset": 0,
        "slot": "256",
        "type": "t_mapping(t_uint256,t_struct(Subscription)8949_storage)"
      },
      {
        "astId": 11955,
        "contract": "contracts/protocol/CaskSubscriptions.sol:CaskSubscriptions",
        "label": "pendingPlanChanges",
        "offset": 0,
        "slot": "257",
        "type": "t_mapping(t_uint256,t_bytes32)"
      },
      {
        "astId": 11961,
        "contract": "contracts/protocol/CaskSubscriptions.sol:CaskSubscriptions",
        "label": "providerSubscriptions",
        "offset": 0,
        "slot": "258",
        "type": "t_mapping(t_address,t_array(t_uint256)dyn_storage)"
      },
      {
        "astId": 11965,
        "contract": "contracts/protocol/CaskSubscriptions.sol:CaskSubscriptions",
        "label": "providerActiveSubscriptionCount",
        "offset": 0,
        "slot": "259",
        "type": "t_mapping(t_address,t_uint256)"
      },
      {
        "astId": 11971,
        "contract": "contracts/protocol/CaskSubscriptions.sol:CaskSubscriptions",
        "label": "planActiveSubscriptionCount",
        "offset": 0,
        "slot": "260",
        "type": "t_mapping(t_address,t_mapping(t_uint32,t_uint256))"
      },
      {
        "astId": 12062,
        "contract": "contracts/protocol/CaskSubscriptions.sol:CaskSubscriptions",
        "label": "versionRecipient",
        "offset": 0,
        "slot": "261",
        "type": "t_string_storage"
      }
    ],
    "types": {
      "t_address": {
        "encoding": "inplace",
        "label": "address",
        "numberOfBytes": "20"
      },
      "t_array(t_uint256)44_storage": {
        "base": "t_uint256",
        "encoding": "inplace",
        "label": "uint256[44]",
        "numberOfBytes": "1408"
      },
      "t_array(t_uint256)49_storage": {
        "base": "t_uint256",
        "encoding": "inplace",
        "label": "uint256[49]",
        "numberOfBytes": "1568"
      },
      "t_array(t_uint256)50_storage": {
        "base": "t_uint256",
        "encoding": "inplace",
        "label": "uint256[50]",
        "numberOfBytes": "1600"
      },
      "t_array(t_uint256)dyn_storage": {
        "base": "t_uint256",
        "encoding": "dynamic_array",
        "label": "uint256[]",
        "numberOfBytes": "32"
      },
      "t_bool": {
        "encoding": "inplace",
        "label": "bool",
        "numberOfBytes": "1"
      },
      "t_bytes32": {
        "encoding": "inplace",
        "label": "bytes32",
        "numberOfBytes": "32"
      },
      "t_contract(ICaskSubscriptionManager)8752": {
        "encoding": "inplace",
        "label": "contract ICaskSubscriptionManager",
        "numberOfBytes": "20"
      },
      "t_contract(ICaskSubscriptionPlans)8900": {
        "encoding": "inplace",
        "label": "contract ICaskSubscriptionPlans",
        "numberOfBytes": "20"
      },
      "t_enum(SubscriptionStatus)8914": {
        "encoding": "inplace",
        "label": "enum ICaskSubscriptions.SubscriptionStatus",
        "numberOfBytes": "1"
      },
      "t_mapping(t_address,t_array(t_uint256)dyn_storage)": {
        "encoding": "mapping",
        "key": "t_address",
        "label": "mapping(address => uint256[])",
        "numberOfBytes": "32",
        "value": "t_array(t_uint256)dyn_storage"
      },
      "t_mapping(t_address,t_bool)": {
        "encoding": "mapping",
        "key": "t_address",
        "label": "mapping(address => bool)",
        "numberOfBytes": "32",
        "value": "t_bool"
      },
      "t_mapping(t_address,t_mapping(t_address,t_bool))": {
        "encoding": "mapping",
        "key": "t_address",
        "label": "mapping(address => mapping(address => bool))",
        "numberOfBytes": "32",
        "value": "t_mapping(t_address,t_bool)"
      },
      "t_mapping(t_address,t_mapping(t_uint32,t_uint256))": {
        "encoding": "mapping",
        "key": "t_address",
        "label": "mapping(address => mapping(uint32 => uint256))",
        "numberOfBytes": "32",
        "value": "t_mapping(t_uint32,t_uint256)"
      },
      "t_mapping(t_address,t_uint256)": {
        "encoding": "mapping",
        "key": "t_address",
        "label": "mapping(address => uint256)",
        "numberOfBytes": "32",
        "value": "t_uint256"
      },
      "t_mapping(t_uint256,t_address)": {
        "encoding": "mapping",
        "key": "t_uint256",
        "label": "mapping(uint256 => address)",
        "numberOfBytes": "32",
        "value": "t_address"
      },
      "t_mapping(t_uint256,t_bytes32)": {
        "encoding": "mapping",
        "key": "t_uint256",
        "label": "mapping(uint256 => bytes32)",
        "numberOfBytes": "32",
        "value": "t_bytes32"
      },
      "t_mapping(t_uint256,t_struct(Subscription)8949_storage)": {
        "encoding": "mapping",
        "key": "t_uint256",
        "label": "mapping(uint256 => struct ICaskSubscriptions.Subscription)",
        "numberOfBytes": "32",
        "value": "t_struct(Subscription)8949_storage"
      },
      "t_mapping(t_uint32,t_uint256)": {
        "encoding": "mapping",
        "key": "t_uint32",
        "label": "mapping(uint32 => uint256)",
        "numberOfBytes": "32",
        "value": "t_uint256"
      },
      "t_string_storage": {
        "encoding": "bytes",
        "label": "string",
        "numberOfBytes": "32"
      },
      "t_struct(Subscription)8949_storage": {
        "encoding": "inplace",
        "label": "struct ICaskSubscriptions.Subscription",
        "members": [
          {
            "astId": 8923,
            "contract": "contracts/protocol/CaskSubscriptions.sol:CaskSubscriptions",
            "label": "planData",
            "offset": 0,
            "slot": "0",
            "type": "t_bytes32"
          },
          {
            "astId": 8925,
            "contract": "contracts/protocol/CaskSubscriptions.sol:CaskSubscriptions",
            "label": "networkData",
            "offset": 0,
            "slot": "1",
            "type": "t_bytes32"
          },
          {
            "astId": 8927,
            "contract": "contracts/protocol/CaskSubscriptions.sol:CaskSubscriptions",
            "label": "discountId",
            "offset": 0,
            "slot": "2",
            "type": "t_bytes32"
          },
          {
            "astId": 8929,
            "contract": "contracts/protocol/CaskSubscriptions.sol:CaskSubscriptions",
            "label": "discountData",
            "offset": 0,
            "slot": "3",
            "type": "t_bytes32"
          },
          {
            "astId": 8931,
            "contract": "contracts/protocol/CaskSubscriptions.sol:CaskSubscriptions",
            "label": "ref",
            "offset": 0,
            "slot": "4",
            "type": "t_bytes32"
          },
          {
            "astId": 8933,
            "contract": "contracts/protocol/CaskSubscriptions.sol:CaskSubscriptions",
            "label": "provider",
            "offset": 0,
            "slot": "5",
            "type": "t_address"
          },
          {
            "astId": 8936,
            "contract": "contracts/protocol/CaskSubscriptions.sol:CaskSubscriptions",
            "label": "status",
            "offset": 20,
            "slot": "5",
            "type": "t_enum(SubscriptionStatus)8914"
          },
          {
            "astId": 8938,
            "contract": "contracts/protocol/CaskSubscriptions.sol:CaskSubscriptions",
            "label": "planId",
            "offset": 21,
            "slot": "5",
            "type": "t_uint32"
          },
          {
            "astId": 8940,
            "contract": "contracts/protocol/CaskSubscriptions.sol:CaskSubscriptions",
            "label": "createdAt",
            "offset": 25,
            "slot": "5",
            "type": "t_uint32"
          },
          {
            "astId": 8942,
            "contract": "contracts/protocol/CaskSubscriptions.sol:CaskSubscriptions",
            "label": "renewAt",
            "offset": 0,
            "slot": "6",
            "type": "t_uint32"
          },
          {
            "astId": 8944,
            "contract": "contracts/protocol/CaskSubscriptions.sol:CaskSubscriptions",
            "label": "minTermAt",
            "offset": 4,
            "slot": "6",
            "type": "t_uint32"
          },
          {
            "astId": 8946,
            "contract": "contracts/protocol/CaskSubscriptions.sol:CaskSubscriptions",
            "label": "cancelAt",
            "offset": 8,
            "slot": "6",
            "type": "t_uint32"
          },
          {
            "astId": 8948,
            "contract": "contracts/protocol/CaskSubscriptions.sol:CaskSubscriptions",
            "label": "cid",
            "offset": 0,
            "slot": "7",
            "type": "t_string_storage"
          }
        ],
        "numberOfBytes": "256"
      },
      "t_uint256": {
        "encoding": "inplace",
        "label": "uint256",
        "numberOfBytes": "32"
      },
      "t_uint32": {
        "encoding": "inplace",
        "label": "uint32",
        "numberOfBytes": "4"
      }
    }
  }
}