{
  "address": "0x81B1647b5De6eEcCC99d6a677035A6572bFd1e9c",
  "abi": [
    {
      "inputs": [],
      "stateMutability": "nonpayable",
      "type": "constructor"
    },
    {
      "anonymous": false,
      "inputs": [
        {
          "indexed": true,
          "internalType": "address",
          "name": "owner",
          "type": "address"
        },
        {
          "indexed": true,
          "internalType": "address",
          "name": "approved",
          "type": "address"
        },
        {
          "indexed": true,
          "internalType": "uint256",
          "name": "tokenId",
          "type": "uint256"
        }
      ],
      "name": "Approval",
      "type": "event"
    },
    {
      "anonymous": false,
      "inputs": [
        {
          "indexed": true,
          "internalType": "address",
          "name": "owner",
          "type": "address"
        },
        {
          "indexed": true,
          "internalType": "address",
          "name": "operator",
          "type": "address"
        },
        {
          "indexed": false,
          "internalType": "bool",
          "name": "approved",
          "type": "bool"
        }
      ],
      "name": "ApprovalForAll",
      "type": "event"
    },
    {
      "anonymous": false,
      "inputs": [
        {
          "indexed": true,
          "internalType": "address",
          "name": "previousOwner",
          "type": "address"
        },
        {
          "indexed": true,
          "internalType": "address",
          "name": "newOwner",
          "type": "address"
        }
      ],
      "name": "OwnershipTransferred",
      "type": "event"
    },
    {
      "anonymous": false,
      "inputs": [
        {
          "indexed": false,
          "internalType": "address",
          "name": "account",
          "type": "address"
        }
      ],
      "name": "Paused",
      "type": "event"
    },
    {
      "anonymous": false,
      "inputs": [
        {
          "indexed": true,
          "internalType": "address",
          "name": "consumer",
          "type": "address"
        },
        {
          "indexed": true,
          "internalType": "address",
          "name": "provider",
          "type": "address"
        },
        {
          "indexed": true,
          "internalType": "uint256",
          "name": "subscriptionId",
          "type": "uint256"
        },
        {
          "indexed": false,
          "internalType": "bytes32",
          "name": "ref",
          "type": "bytes32"
        },
        {
          "indexed": false,
          "internalType": "uint32",
          "name": "planId",
          "type": "uint32"
        }
      ],
      "name": "SubscriptionCanceled",
      "type": "event"
    },
    {
      "anonymous": false,
      "inputs": [
        {
          "indexed": true,
          "internalType": "address",
          "name": "consumer",
          "type": "address"
        },
        {
          "indexed": true,
          "internalType": "address",
          "name": "provider",
          "type": "address"
        },
        {
          "indexed": true,
          "internalType": "uint256",
          "name": "subscriptionId",
          "type": "uint256"
        },
        {
          "indexed": false,
          "internalType": "bytes32",
          "name": "ref",
          "type": "bytes32"
        },
        {
          "indexed": false,
          "internalType": "uint32",
          "name": "planId",
          "type": "uint32"
        },
        {
          "indexed": false,
          "internalType": "bytes32",
          "name": "discountId",
          "type": "bytes32"
        }
      ],
      "name": "SubscriptionChangedDiscount",
      "type": "event"
    },
    {
      "anonymous": false,
      "inputs": [
        {
          "indexed": true,
          "internalType": "address",
          "name": "consumer",
          "type": "address"
        },
        {
          "indexed": true,
          "internalType": "address",
          "name": "provider",
          "type": "address"
        },
        {
          "indexed": true,
          "internalType": "uint256",
          "name": "subscriptionId",
          "type": "uint256"
        },
        {
          "indexed": false,
          "internalType": "bytes32",
          "name": "ref",
          "type": "bytes32"
        },
        {
          "indexed": false,
          "internalType": "uint32",
          "name": "prevPlanId",
          "type": "uint32"
        },
        {
          "indexed": false,
          "internalType": "uint32",
          "name": "planId",
          "type": "uint32"
        },
        {
          "indexed": false,
          "internalType": "bytes32",
          "name": "discountId",
          "type": "bytes32"
        }
      ],
      "name": "SubscriptionChangedPlan",
      "type": "event"
    },
    {
      "anonymous": false,
      "inputs": [
        {
          "indexed": true,
          "internalType": "address",
          "name": "consumer",
          "type": "address"
        },
        {
          "indexed": true,
          "internalType": "address",
          "name": "provider",
          "type": "address"
        },
        {
          "indexed": true,
          "internalType": "uint256",
          "name": "subscriptionId",
          "type": "uint256"
        },
        {
          "indexed": false,
          "internalType": "bytes32",
          "name": "ref",
          "type": "bytes32"
        },
        {
          "indexed": false,
          "internalType": "uint32",
          "name": "planId",
          "type": "uint32"
        },
        {
          "indexed": false,
          "internalType": "bytes32",
          "name": "discountId",
          "type": "bytes32"
        }
      ],
      "name": "SubscriptionCreated",
      "type": "event"
    },
    {
      "anonymous": false,
      "inputs": [
        {
          "indexed": true,
          "internalType": "address",
          "name": "consumer",
          "type": "address"
        },
        {
          "indexed": true,
          "internalType": "address",
          "name": "provider",
          "type": "address"
        },
        {
          "indexed": true,
          "internalType": "uint256",
          "name": "subscriptionId",
          "type": "uint256"
        },
        {
          "indexed": false,
          "internalType": "bytes32",
          "name": "ref",
          "type": "bytes32"
        },
        {
          "indexed": false,
          "internalType": "uint32",
          "name": "planId",
          "type": "uint32"
        }
      ],
      "name": "SubscriptionPastDue",
      "type": "event"
    },
    {
      "anonymous": false,
      "inputs": [
        {
          "indexed": true,
          "internalType": "address",
          "name": "consumer",
          "type": "address"
        },
        {
          "indexed": true,
          "internalType": "address",
          "name": "provider",
          "type": "address"
        },
        {
          "indexed": true,
          "internalType": "uint256",
          "name": "subscriptionId",
          "type": "uint256"
        },
        {
          "indexed": false,
          "internalType": "bytes32",
          "name": "ref",
          "type": "bytes32"
        },
        {
          "indexed": false,
          "internalType": "uint32",
          "name": "planId",
          "type": "uint32"
        }
      ],
      "name": "SubscriptionPaused",
      "type": "event"
    },
    {
      "anonymous": false,
      "inputs": [
        {
          "indexed": true,
          "internalType": "address",
          "name": "consumer",
          "type": "address"
        },
        {
          "indexed": true,
          "internalType": "address",
          "name": "provider",
          "type": "address"
        },
        {
          "indexed": true,
          "internalType": "uint256",
          "name": "subscriptionId",
          "type": "uint256"
        },
        {
          "indexed": false,
          "internalType": "bytes32",
          "name": "ref",
          "type": "bytes32"
        },
        {
          "indexed": false,
          "internalType": "uint32",
          "name": "planId",
          "type": "uint32"
        }
      ],
      "name": "SubscriptionPendingCancel",
      "type": "event"
    },
    {
      "anonymous": false,
      "inputs": [
        {
          "indexed": true,
          "internalType": "address",
          "name": "consumer",
          "type": "address"
        },
        {
          "indexed": true,
          "internalType": "address",
          "name": "provider",
          "type": "address"
        },
        {
          "indexed": true,
          "internalType": "uint256",
          "name": "subscriptionId",
          "type": "uint256"
        },
        {
          "indexed": false,
          "internalType": "bytes32",
          "name": "ref",
          "type": "bytes32"
        },
        {
          "indexed": false,
          "internalType": "uint32",
          "name": "prevPlanId",
          "type": "uint32"
        },
        {
          "indexed": false,
          "internalType": "uint32",
          "name": "planId",
          "type": "uint32"
        }
      ],
      "name": "SubscriptionPendingChangePlan",
      "type": "event"
    },
    {
      "anonymous": false,
      "inputs": [
        {
          "indexed": true,
          "internalType": "address",
          "name": "consumer",
          "type": "address"
        },
        {
          "indexed": true,
          "internalType": "address",
          "name": "provider",
          "type": "address"
        },
        {
          "indexed": true,
          "internalType": "uint256",
          "name": "subscriptionId",
          "type": "uint256"
        },
        {
          "indexed": false,
          "internalType": "bytes32",
          "name": "ref",
          "type": "bytes32"
        },
        {
          "indexed": false,
          "internalType": "uint32",
          "name": "planId",
          "type": "uint32"
        }
      ],
      "name": "SubscriptionRenewed",
      "type": "event"
    },
    {
      "anonymous": false,
      "inputs": [
        {
          "indexed": true,
          "internalType": "address",
          "name": "consumer",
          "type": "address"
        },
        {
          "indexed": true,
          "internalType": "address",
          "name": "provider",
          "type": "address"
        },
        {
          "indexed": true,
          "internalType": "uint256",
          "name": "subscriptionId",
          "type": "uint256"
        },
        {
          "indexed": false,
          "internalType": "bytes32",
          "name": "ref",
          "type": "bytes32"
        },
        {
          "indexed": false,
          "internalType": "uint32",
          "name": "planId",
          "type": "uint32"
        }
      ],
      "name": "SubscriptionResumed",
      "type": "event"
    },
    {
      "anonymous": false,
      "inputs": [
        {
          "indexed": true,
          "internalType": "address",
          "name": "consumer",
          "type": "address"
        },
        {
          "indexed": true,
          "internalType": "address",
          "name": "provider",
          "type": "address"
        },
        {
          "indexed": true,
          "internalType": "uint256",
          "name": "subscriptionId",
          "type": "uint256"
        },
        {
          "indexed": false,
          "internalType": "bytes32",
          "name": "ref",
          "type": "bytes32"
        },
        {
          "indexed": false,
          "internalType": "uint32",
          "name": "planId",
          "type": "uint32"
        }
      ],
      "name": "SubscriptionTrialEnded",
      "type": "event"
    },
    {
      "anonymous": false,
      "inputs": [
        {
          "indexed": true,
          "internalType": "address",
          "name": "from",
          "type": "address"
        },
        {
          "indexed": true,
          "internalType": "address",
          "name": "to",
          "type": "address"
        },
        {
          "indexed": true,
          "internalType": "uint256",
          "name": "tokenId",
          "type": "uint256"
        }
      ],
      "name": "Transfer",
      "type": "event"
    },
    {
      "anonymous": false,
      "inputs": [
        {
          "indexed": false,
          "internalType": "address",
          "name": "account",
          "type": "address"
        }
      ],
      "name": "Unpaused",
      "type": "event"
    },
    {
      "inputs": [
        {
          "internalType": "address",
          "name": "to",
          "type": "address"
        },
        {
          "internalType": "uint256",
          "name": "tokenId",
          "type": "uint256"
        }
      ],
      "name": "approve",
      "outputs": [],
      "stateMutability": "nonpayable",
      "type": "function"
    },
    {
      "inputs": [
        {
          "internalType": "address",
          "name": "owner",
          "type": "address"
        }
      ],
      "name": "balanceOf",
      "outputs": [
        {
          "internalType": "uint256",
          "name": "",
          "type": "uint256"
        }
      ],
      "stateMutability": "view",
      "type": "function"
    },
    {
      "inputs": [
        {
          "internalType": "uint256",
          "name": "_subscriptionId",
          "type": "uint256"
        }
      ],
      "name": "cancelSubscription",
      "outputs": [],
      "stateMutability": "nonpayable",
      "type": "function"
    },
    {
      "inputs": [
        {
          "internalType": "uint256",
          "name": "_subscriptionId",
          "type": "uint256"
        },
        {
          "internalType": "uint32",
          "name": "_cancelAt",
          "type": "uint32"
        }
      ],
      "name": "changeSubscriptionCancelAt",
      "outputs": [],
      "stateMutability": "nonpayable",
      "type": "function"
    },
    {
      "inputs": [
        {
          "internalType": "uint256",
          "name": "_subscriptionId",
          "type": "uint256"
        },
        {
          "internalType": "bytes32[]",
          "name": "_discountProof",
          "type": "bytes32[]"
        }
      ],
      "name": "changeSubscriptionDiscount",
      "outputs": [],
      "stateMutability": "nonpayable",
      "type": "function"
    },
    {
      "inputs": [
        {
          "internalType": "uint256",
          "name": "_subscriptionId",
          "type": "uint256"
        },
        {
          "internalType": "bytes32[]",
          "name": "_planProof",
          "type": "bytes32[]"
        },
        {
          "internalType": "bytes32[]",
          "name": "_discountProof",
          "type": "bytes32[]"
        },
        {
          "internalType": "bytes",
          "name": "_providerSignature",
          "type": "bytes"
        },
        {
          "internalType": "string",
          "name": "_cid",
          "type": "string"
        }
      ],
      "name": "changeSubscriptionPlan",
      "outputs": [],
      "stateMutability": "nonpayable",
      "type": "function"
    },
    {
      "inputs": [
        {
          "internalType": "bytes32[]",
          "name": "_planProof",
          "type": "bytes32[]"
        },
        {
          "internalType": "bytes32[]",
          "name": "_discountProof",
          "type": "bytes32[]"
        },
        {
          "internalType": "bytes32",
          "name": "_networkData",
          "type": "bytes32"
        },
        {
          "internalType": "uint32",
          "name": "_cancelAt",
          "type": "uint32"
        },
        {
          "internalType": "bytes",
          "name": "_providerSignature",
          "type": "bytes"
        },
        {
          "internalType": "bytes",
          "name": "_networkSignature",
          "type": "bytes"
        },
        {
          "internalType": "string",
          "name": "_cid",
          "type": "string"
        }
      ],
      "name": "createNetworkSubscription",
      "outputs": [],
      "stateMutability": "nonpayable",
      "type": "function"
    },
    {
      "inputs": [
        {
          "internalType": "bytes32[]",
          "name": "_planProof",
          "type": "bytes32[]"
        },
        {
          "internalType": "bytes32[]",
          "name": "_discountProof",
          "type": "bytes32[]"
        },
        {
          "internalType": "uint32",
          "name": "_cancelAt",
          "type": "uint32"
        },
        {
          "internalType": "bytes",
          "name": "_providerSignature",
          "type": "bytes"
        },
        {
          "internalType": "string",
          "name": "_cid",
          "type": "string"
        }
      ],
      "name": "createSubscription",
      "outputs": [],
      "stateMutability": "nonpayable",
      "type": "function"
    },
    {
      "inputs": [],
      "name": "getAllSubscriptions",
      "outputs": [
        {
          "internalType": "uint256[]",
          "name": "",
          "type": "uint256[]"
        }
      ],
      "stateMutability": "view",
      "type": "function"
    },
    {
      "inputs": [],
      "name": "getAllSubscriptionsCount",
      "outputs": [
        {
          "internalType": "uint256",
          "name": "",
          "type": "uint256"
        }
      ],
      "stateMutability": "view",
      "type": "function"
    },
    {
      "inputs": [
        {
          "internalType": "uint256",
          "name": "tokenId",
          "type": "uint256"
        }
      ],
      "name": "getApproved",
      "outputs": [
        {
          "internalType": "address",
          "name": "",
          "type": "address"
        }
      ],
      "stateMutability": "view",
      "type": "function"
    },
    {
      "inputs": [
        {
          "internalType": "address",
          "name": "_consumer",
          "type": "address"
        }
      ],
      "name": "getConsumerSubscriptionCount",
      "outputs": [
        {
          "internalType": "uint256",
          "name": "",
          "type": "uint256"
        }
      ],
      "stateMutability": "view",
      "type": "function"
    },
    {
      "inputs": [
        {
          "internalType": "address",
          "name": "_consumer",
          "type": "address"
        },
        {
          "internalType": "uint256",
          "name": "_limit",
          "type": "uint256"
        },
        {
          "internalType": "uint256",
          "name": "_offset",
          "type": "uint256"
        }
      ],
      "name": "getConsumerSubscriptions",
      "outputs": [
        {
          "internalType": "uint256[]",
          "name": "",
          "type": "uint256[]"
        }
      ],
      "stateMutability": "view",
      "type": "function"
    },
    {
      "inputs": [
        {
          "internalType": "uint256",
          "name": "_subscriptionId",
          "type": "uint256"
        }
      ],
      "name": "getPendingPlanChange",
      "outputs": [
        {
          "internalType": "bytes32",
          "name": "",
          "type": "bytes32"
        }
      ],
      "stateMutability": "view",
      "type": "function"
    },
    {
      "inputs": [
        {
          "internalType": "address",
          "name": "_provider",
          "type": "address"
        }
      ],
      "name": "getProviderActiveSubscriptionCount",
      "outputs": [
        {
          "internalType": "uint256",
          "name": "",
          "type": "uint256"
        }
      ],
      "stateMutability": "view",
      "type": "function"
    },
    {
      "inputs": [
        {
          "internalType": "address",
          "name": "_provider",
          "type": "address"
        },
        {
          "internalType": "uint32",
          "name": "_planId",
          "type": "uint32"
        }
      ],
      "name": "getProviderPlanActiveSubscriptionCount",
      "outputs": [
        {
          "internalType": "uint256",
          "name": "",
          "type": "uint256"
        }
      ],
      "stateMutability": "view",
      "type": "function"
    },
    {
      "inputs": [
        {
          "internalType": "address",
          "name": "_provider",
          "type": "address"
        }
      ],
      "name": "getProviderSubscriptionCount",
      "outputs": [
        {
          "internalType": "uint256",
          "name": "",
          "type": "uint256"
        }
      ],
      "stateMutability": "view",
      "type": "function"
    },
    {
      "inputs": [
        {
          "internalType": "address",
          "name": "_provider",
          "type": "address"
        },
        {
          "internalType": "uint256",
          "name": "_limit",
          "type": "uint256"
        },
        {
          "internalType": "uint256",
          "name": "_offset",
          "type": "uint256"
        }
      ],
      "name": "getProviderSubscriptions",
      "outputs": [
        {
          "internalType": "uint256[]",
          "name": "",
          "type": "uint256[]"
        }
      ],
      "stateMutability": "view",
      "type": "function"
    },
    {
      "inputs": [
        {
          "internalType": "uint256",
          "name": "_subscriptionId",
          "type": "uint256"
        }
      ],
      "name": "getSubscription",
      "outputs": [
        {
          "components": [
            {
              "internalType": "bytes32",
              "name": "planData",
              "type": "bytes32"
            },
            {
              "internalType": "bytes32",
              "name": "networkData",
              "type": "bytes32"
            },
            {
              "internalType": "bytes32",
              "name": "discountId",
              "type": "bytes32"
            },
            {
              "internalType": "bytes32",
              "name": "discountData",
              "type": "bytes32"
            },
            {
              "internalType": "bytes32",
              "name": "ref",
              "type": "bytes32"
            },
            {
              "internalType": "address",
              "name": "provider",
              "type": "address"
            },
            {
              "internalType": "enum ICaskSubscriptions.SubscriptionStatus",
              "name": "status",
              "type": "uint8"
            },
            {
              "internalType": "uint32",
              "name": "planId",
              "type": "uint32"
            },
            {
              "internalType": "uint32",
              "name": "createdAt",
              "type": "uint32"
            },
            {
              "internalType": "uint32",
              "name": "renewAt",
              "type": "uint32"
            },
            {
              "internalType": "uint32",
              "name": "minTermAt",
              "type": "uint32"
            },
            {
              "internalType": "uint32",
              "name": "cancelAt",
              "type": "uint32"
            },
            {
              "internalType": "string",
              "name": "cid",
              "type": "string"
            }
          ],
          "internalType": "struct ICaskSubscriptions.Subscription",
          "name": "",
          "type": "tuple"
        }
      ],
      "stateMutability": "view",
      "type": "function"
    },
    {
      "inputs": [
        {
          "internalType": "address",
          "name": "_subscriptionPlans",
          "type": "address"
        }
      ],
      "name": "initialize",
      "outputs": [],
      "stateMutability": "nonpayable",
      "type": "function"
    },
    {
      "inputs": [
        {
          "internalType": "address",
          "name": "owner",
          "type": "address"
        },
        {
          "internalType": "address",
          "name": "operator",
          "type": "address"
        }
      ],
      "name": "isApprovedForAll",
      "outputs": [
        {
          "internalType": "bool",
          "name": "",
          "type": "bool"
        }
      ],
      "stateMutability": "view",
      "type": "function"
    },
    {
      "inputs": [
        {
          "internalType": "address",
          "name": "forwarder",
          "type": "address"
        }
      ],
      "name": "isTrustedForwarder",
      "outputs": [
        {
          "internalType": "bool",
          "name": "",
          "type": "bool"
        }
      ],
      "stateMutability": "view",
      "type": "function"
    },
    {
      "inputs": [
        {
          "internalType": "uint256",
          "name": "_subscriptionId",
          "type": "uint256"
        },
        {
          "internalType": "enum ICaskSubscriptions.ManagerCommand",
          "name": "_command",
          "type": "uint8"
        }
      ],
      "name": "managerCommand",
      "outputs": [],
      "stateMutability": "nonpayable",
      "type": "function"
    },
    {
      "inputs": [],
      "name": "name",
      "outputs": [
        {
          "internalType": "string",
          "name": "",
          "type": "string"
        }
      ],
      "stateMutability": "view",
      "type": "function"
    },
    {
      "inputs": [],
      "name": "owner",
      "outputs": [
        {
          "internalType": "address",
          "name": "",
          "type": "address"
        }
      ],
      "stateMutability": "view",
      "type": "function"
    },
    {
      "inputs": [
        {
          "internalType": "uint256",
          "name": "tokenId",
          "type": "uint256"
        }
      ],
      "name": "ownerOf",
      "outputs": [
        {
          "internalType": "address",
          "name": "",
          "type": "address"
        }
      ],
      "stateMutability": "view",
      "type": "function"
    },
    {
      "inputs": [],
      "name": "pause",
      "outputs": [],
      "stateMutability": "nonpayable",
      "type": "function"
    },
    {
      "inputs": [
        {
          "internalType": "uint256",
          "name": "_subscriptionId",
          "type": "uint256"
        }
      ],
      "name": "pauseSubscription",
      "outputs": [],
      "stateMutability": "nonpayable",
      "type": "function"
    },
    {
      "inputs": [],
      "name": "paused",
      "outputs": [
        {
          "internalType": "bool",
          "name": "",
          "type": "bool"
        }
      ],
      "stateMutability": "view",
      "type": "function"
    },
    {
      "inputs": [],
      "name": "renounceOwnership",
      "outputs": [],
      "stateMutability": "nonpayable",
      "type": "function"
    },
    {
      "inputs": [
        {
          "internalType": "uint256",
          "name": "_subscriptionId",
          "type": "uint256"
        }
      ],
      "name": "resumeSubscription",
      "outputs": [],
      "stateMutability": "nonpayable",
      "type": "function"
    },
    {
      "inputs": [
        {
          "internalType": "address",
          "name": "from",
          "type": "address"
        },
        {
          "internalType": "address",
          "name": "to",
          "type": "address"
        },
        {
          "internalType": "uint256",
          "name": "tokenId",
          "type": "uint256"
        }
      ],
      "name": "safeTransferFrom",
      "outputs": [],
      "stateMutability": "nonpayable",
      "type": "function"
    },
    {
      "inputs": [
        {
          "internalType": "address",
          "name": "from",
          "type": "address"
        },
        {
          "internalType": "address",
          "name": "to",
          "type": "address"
        },
        {
          "internalType": "uint256",
          "name": "tokenId",
          "type": "uint256"
        },
        {
          "internalType": "bytes",
          "name": "_data",
          "type": "bytes"
        }
      ],
      "name": "safeTransferFrom",
      "outputs": [],
      "stateMutability": "nonpayable",
      "type": "function"
    },
    {
      "inputs": [
        {
          "internalType": "address",
          "name": "operator",
          "type": "address"
        },
        {
          "internalType": "bool",
          "name": "approved",
          "type": "bool"
        }
      ],
      "name": "setApprovalForAll",
      "outputs": [],
      "stateMutability": "nonpayable",
      "type": "function"
    },
    {
      "inputs": [
        {
          "internalType": "address",
          "name": "_subscriptionManager",
          "type": "address"
        }
      ],
      "name": "setManager",
      "outputs": [],
      "stateMutability": "nonpayable",
      "type": "function"
    },
    {
      "inputs": [
        {
          "internalType": "address",
          "name": "_forwarder",
          "type": "address"
        }
      ],
      "name": "setTrustedForwarder",
      "outputs": [],
      "stateMutability": "nonpayable",
      "type": "function"
    },
    {
      "inputs": [],
      "name": "subscriptionManager",
      "outputs": [
        {
          "internalType": "contract ICaskSubscriptionManager",
          "name": "",
          "type": "address"
        }
      ],
      "stateMutability": "view",
      "type": "function"
    },
    {
      "inputs": [],
      "name": "subscriptionPlans",
      "outputs": [
        {
          "internalType": "contract ICaskSubscriptionPlans",
          "name": "",
          "type": "address"
        }
      ],
      "stateMutability": "view",
      "type": "function"
    },
    {
      "inputs": [
        {
          "internalType": "bytes4",
          "name": "interfaceId",
          "type": "bytes4"
        }
      ],
      "name": "supportsInterface",
      "outputs": [
        {
          "internalType": "bool",
          "name": "",
          "type": "bool"
        }
      ],
      "stateMutability": "view",
      "type": "function"
    },
    {
      "inputs": [],
      "name": "symbol",
      "outputs": [
        {
          "internalType": "string",
          "name": "",
          "type": "string"
        }
      ],
      "stateMutability": "view",
      "type": "function"
    },
    {
      "inputs": [
        {
          "internalType": "uint256",
          "name": "_subscriptionId",
          "type": "uint256"
        }
      ],
      "name": "tokenURI",
      "outputs": [
        {
          "internalType": "string",
          "name": "",
          "type": "string"
        }
      ],
      "stateMutability": "view",
      "type": "function"
    },
    {
      "inputs": [
        {
          "internalType": "address",
          "name": "from",
          "type": "address"
        },
        {
          "internalType": "address",
          "name": "to",
          "type": "address"
        },
        {
          "internalType": "uint256",
          "name": "tokenId",
          "type": "uint256"
        }
      ],
      "name": "transferFrom",
      "outputs": [],
      "stateMutability": "nonpayable",
      "type": "function"
    },
    {
      "inputs": [
        {
          "internalType": "address",
          "name": "newOwner",
          "type": "address"
        }
      ],
      "name": "transferOwnership",
      "outputs": [],
      "stateMutability": "nonpayable",
      "type": "function"
    },
    {
      "inputs": [],
      "name": "trustedForwarder",
      "outputs": [
        {
          "internalType": "address",
          "name": "",
          "type": "address"
        }
      ],
      "stateMutability": "view",
      "type": "function"
    },
    {
      "inputs": [],
      "name": "unpause",
      "outputs": [],
      "stateMutability": "nonpayable",
      "type": "function"
    },
    {
      "inputs": [],
      "name": "versionRecipient",
      "outputs": [
        {
          "internalType": "string",
          "name": "",
          "type": "string"
        }
      ],
      "stateMutability": "view",
      "type": "function"
    }
  ],
  "transactionHash": "0xd7be70f294277d65f860798c2a6e454ddfc0b9246828a0329313f9ee89228f86",
  "args": [],
  "numDeployments": 2,
  "solcInputHash": "b8759bb3da8909a0514a07b761c9ec8f",
  "bytecode": "0x60c060405260056080819052640322e322e360dc1b60a09081526200002991610105919062000128565b503480156200003757600080fd5b50600054610100900460ff16620000555760005460ff16156200005f565b6200005f62000104565b620000c75760405162461bcd60e51b815260206004820152602e60248201527f496e697469616c697a61626c653a20636f6e747261637420697320616c72656160448201526d191e481a5b9a5d1a585b1a5e995960921b606482015260840160405180910390fd5b600054610100900460ff16158015620000ea576000805461ffff19166101011790555b8015620000fd576000805461ff00191690555b506200020b565b60006200011c306200012260201b620027aa1760201c565b15905090565b3b151590565b8280546200013690620001ce565b90600052602060002090601f0160209004810192826200015a5760008555620001a5565b82601f106200017557805160ff1916838001178555620001a5565b82800160010185558215620001a5579182015b82811115620001a557825182559160200191906001019062000188565b50620001b3929150620001b7565b5090565b5b80821115620001b35760008155600101620001b8565b600181811c90821680620001e357607f821691505b602082108114156200020557634e487b7160e01b600052602260045260246000fd5b50919050565b6158d8806200021b6000396000f3fe608060405234801561001057600080fd5b506004361061028a5760003560e01c806385e25ad41161015c578063c0159f6f116100ce578063da74222811610087578063da742228146105ec578063dc311dd3146105ff578063e985e9c51461061f578063f268f53e1461065b578063f2fde38b14610685578063f6189f0e1461069857600080fd5b8063c0159f6f14610555578063c4d66de814610568578063c7a687bf1461057b578063c86e6954146105a5578063c87b56dd146105c6578063d0ebdbe7146105d957600080fd5b8063a22cb46511610120578063a22cb465146104e3578063a746df70146104f6578063ab5f8b7c14610509578063b88d4fde1461051c578063ba4bf1b61461052f578063bf158fd21461054257600080fd5b806385e25ad4146104655780638da5cb5b146104785780638fe17b16146104895780639377877d1461049c57806395d89b41146104db57600080fd5b806341f23f0a116102005780636352211e116101b95780636352211e1461040b57806370a082311461041e578063715018a6146104315780637da0a877146104395780637df7b2aa1461044a5780638456cb591461045d57600080fd5b806341f23f0a1461039b57806342842e0e146103ae578063486ff0cd146103c157806356eb00a1146103c9578063572b6c05146103de5780635c975abb1461040057600080fd5b8063095ea7b311610252578063095ea7b31461031e57806313406f6f14610331578063212350831461034457806323b872dd14610357578063291b9a3f1461036a5780633f4ba83a1461039357600080fd5b806301ffc9a71461028f578063023a584e146102b757806306fdde03146102cc578063081812fc146102e157806308e725031461030c575b600080fd5b6102a261029d366004614b98565b6106ab565b60405190151581526020015b60405180910390f35b6102ca6102c5366004614bb5565b6106fd565b005b6102d461097a565b6040516102ae9190614c26565b6102f46102ef366004614bb5565b610a0c565b6040516001600160a01b0390911681526020016102ae565b60fe545b6040519081526020016102ae565b6102ca61032c366004614c55565b610aa1565b6102ca61033f366004614dbd565b610bc9565b6102ca610352366004614bb5565b610c2c565b6102ca610365366004614ec0565b610e1c565b610310610378366004614efc565b6001600160a01b0316600090815260ff602052604090205490565b6102ca610e54565b6102ca6103a9366004614bb5565b610ea7565b6102ca6103bc366004614ec0565b6111b1565b6102d46111cc565b6103d161125b565b6040516102ae9190614f17565b6102a26103ec366004614efc565b6065546001600160a01b0391821691161490565b60ca5460ff166102a2565b6102f4610419366004614bb5565b6112b2565b61031061042c366004614efc565b611329565b6102ca6113b0565b6065546001600160a01b03166102f4565b6102ca610458366004614f5b565b611403565b6102ca611995565b6102ca610473366004614f8f565b6119e6565b6098546001600160a01b03166102f4565b60fd546102f4906001600160a01b031681565b6103106104aa366004614fbb565b6001600160a01b03821660009081526101046020908152604080832063ffffffff8516845290915290205492915050565b6102d4611ad2565b6102ca6104f1366004614ff3565b611ae1565b6102ca61050436600461501f565b611af7565b6103d16105173660046150e7565b611b76565b6102ca61052a36600461511a565b611d00565b6102ca61053d366004615182565b611d3f565b60fc546102f4906001600160a01b031681565b6102ca6105633660046151ce565b611f4a565b6102ca610576366004614efc565b611f7d565b610310610589366004614efc565b6001600160a01b03166000908152610103602052604090205490565b6103106105b3366004614bb5565b6000908152610101602052604090205490565b6102d46105d4366004614bb5565b6120b5565b6102ca6105e7366004614efc565b6122db565b6102ca6105fa366004614efc565b612346565b61061261060d366004614bb5565b6123b0565b6040516102ae9190615295565b6102a261062d36600461538f565b6001600160a01b039182166000908152606b6020908152604080832093909416825291909152205460ff1690565b610310610669366004614efc565b6001600160a01b03166000908152610102602052604090205490565b6102ca610693366004614efc565b61259e565b6103d16106a63660046150e7565b612655565b60006001600160e01b031982166380ac58cd60e01b14806106dc57506001600160e01b03198216635b5e139f60e01b145b806106f757506301ffc9a760e01b6001600160e01b03198316145b92915050565b80610707816112b2565b6001600160a01b03166107186127b0565b6001600160a01b0316146107475760405162461bcd60e51b815260040161073e906153b9565b60405180910390fd5b60ca5460ff161561076a5760405162461bcd60e51b815260040161073e906153d8565b60008281526101006020526040902060036005820154600160a01b900460ff16600681111561079b5761079b61525d565b146107d65760405162461bcd60e51b815260206004820152600b60248201526a085393d517d4105554d15160aa1b604482015260640161073e565b60006107e582600001546127bf565b9050806080015163ffffffff16600014806108385750608081015160058301546001600160a01b03166000908152610104602090815260408083208286015163ffffffff90811685529252909120549116115b6108725760405162461bcd60e51b815260206004820152600b60248201526a214d41585f41435449564560a81b604482015260640161073e565b60058201805460ff60a01b198116600160a11b17918290556001600160a01b0316600090815261010460209081526040808320600160a81b90940463ffffffff1683529290529081208054600192906108cc908490615418565b9091555050600682015463ffffffff428116911610156108fe5760068201805463ffffffff19164263ffffffff161790555b600582015484906001600160a01b0316610917826112b2565b6004850154600586015460408051928352600160a81b90910463ffffffff1660208301526001600160a01b0392909216917f7ee0fc3eab7021686f891346ebbf5bab192d6f9995fcc66021f4551888dc148191015b60405180910390a450505050565b60606066805461098990615430565b80601f01602080910402602001604051908101604052809291908181526020018280546109b590615430565b8015610a025780601f106109d757610100808354040283529160200191610a02565b820191906000526020600020905b8154815290600101906020018083116109e557829003601f168201915b5050505050905090565b6000818152606860205260408120546001600160a01b0316610a855760405162461bcd60e51b815260206004820152602c60248201527f4552433732313a20617070726f76656420717565727920666f72206e6f6e657860448201526b34b9ba32b73a103a37b5b2b760a11b606482015260840161073e565b506000908152606a60205260409020546001600160a01b031690565b6000610aac826112b2565b9050806001600160a01b0316836001600160a01b03161415610b1a5760405162461bcd60e51b815260206004820152602160248201527f4552433732313a20617070726f76616c20746f2063757272656e74206f776e656044820152603960f91b606482015260840161073e565b806001600160a01b0316610b2c6127b0565b6001600160a01b03161480610b485750610b488161062d6127b0565b610bba5760405162461bcd60e51b815260206004820152603860248201527f4552433732313a20617070726f76652063616c6c6572206973206e6f74206f7760448201527f6e6572206e6f7220617070726f76656420666f7220616c6c0000000000000000606482015260840161073e565b610bc48383612884565b505050565b60ca5460ff1615610bec5760405162461bcd60e51b815260040161073e906153d8565b6000610bfe8b8b8b8b8a8a89896128f2565b9050610c0a8785612fd8565b5060009081526101006020526040902060010195909555505050505050505050565b80610c36816112b2565b6001600160a01b0316610c476127b0565b6001600160a01b03161480610c865750600081815261010060205260409020600501546001600160a01b0316610c7b6127b0565b6001600160a01b0316145b610ca25760405162461bcd60e51b815260040161073e906153b9565b60ca5460ff1615610cc55760405162461bcd60e51b815260040161073e906153d8565b600082815261010060205260409020600580820154600160a01b900460ff166006811115610cf557610cf561525d565b14158015610d23575060046005820154600160a01b900460ff166006811115610d2057610d2061525d565b14155b610d3f5760405162461bcd60e51b815260040161073e9061546b565b6006810154600160201b900463ffffffff161580610d735750600681015463ffffffff600160201b90910481164290911610155b610d8f5760405162461bcd60e51b815260040161073e90615495565b600581018054600560a01b60ff60a01b1982161790915583906001600160a01b0316610dba826112b2565b6004840154600585015460408051928352600160a81b90910463ffffffff1660208301526001600160a01b0392909216917f83217e17a62745245734031007583a7faee757904c6d101fc0003df8e0b541d491015b60405180910390a4505050565b610e2d610e276127b0565b826130fe565b610e495760405162461bcd60e51b815260040161073e906154b8565b610bc48383836131f5565b610e5c6127b0565b6001600160a01b0316610e776098546001600160a01b031690565b6001600160a01b031614610e9d5760405162461bcd60e51b815260040161073e90615509565b610ea56133a0565b565b80610eb1816112b2565b6001600160a01b0316610ec26127b0565b6001600160a01b03161480610f015750600081815261010060205260409020600501546001600160a01b0316610ef66127b0565b6001600160a01b0316145b610f1d5760405162461bcd60e51b815260040161073e906153b9565b60ca5460ff1615610f405760405162461bcd60e51b815260040161073e906153d8565b60008281526101006020526040902060036005820154600160a01b900460ff166006811115610f7157610f7161525d565b14158015610f9f575060066005820154600160a01b900460ff166006811115610f9c57610f9c61525d565b14155b8015610fcb575060046005820154600160a01b900460ff166006811115610fc857610fc861525d565b14155b8015610ff7575060016005820154600160a01b900460ff166006811115610ff457610ff461525d565b14155b80156110225750600580820154600160a01b900460ff16600681111561101f5761101f61525d565b14155b61103e5760405162461bcd60e51b815260040161073e9061546b565b6006810154600160201b900463ffffffff1615806110725750600681015463ffffffff600160201b90910481164290911610155b61108e5760405162461bcd60e51b815260040161073e90615495565b600061109d82600001546127bf565b90508060c001516110e05760405162461bcd60e51b815260206004820152600d60248201526c214e4f545f5041555341424c4560981b604482015260640161073e565b60058201805460ff60a01b198116600360a01b17918290556001600160a01b0316600090815261010460209081526040808320600160a81b90940463ffffffff16835292905290812080546001929061113a90849061553e565b9091555050600582015484906001600160a01b0316611158826112b2565b6004850154600586015460408051928352600160a81b90910463ffffffff1660208301526001600160a01b0392909216917f7afd3b59e582bb56b590409b808e910ae787056cb10b682b9bdefa44c8eb940d910161096c565b610bc483838360405180602001604052806000815250611d00565b61010580546111da90615430565b80601f016020809104026020016040519081016040528092919081815260200182805461120690615430565b80156112535780601f1061122857610100808354040283529160200191611253565b820191906000526020600020905b81548152906001019060200180831161123657829003601f168201915b505050505081565b606060fe805480602002602001604051908101604052809291908181526020018280548015610a0257602002820191906000526020600020905b815481526020019060010190808311611295575050505050905090565b6000818152606860205260408120546001600160a01b0316806106f75760405162461bcd60e51b815260206004820152602960248201527f4552433732313a206f776e657220717565727920666f72206e6f6e657869737460448201526832b73a103a37b5b2b760b91b606482015260840161073e565b60006001600160a01b0382166113945760405162461bcd60e51b815260206004820152602a60248201527f4552433732313a2062616c616e636520717565727920666f7220746865207a65604482015269726f206164647265737360b01b606482015260840161073e565b506001600160a01b031660009081526069602052604090205490565b6113b86127b0565b6001600160a01b03166113d36098546001600160a01b031690565b6001600160a01b0316146113f95760405162461bcd60e51b815260040161073e90615509565b610ea56000613439565b60fc546001600160a01b03166114176127b0565b6001600160a01b03161461143d5760405162461bcd60e51b815260040161073e906153b9565b60ca5460ff16156114605760405162461bcd60e51b815260040161073e906153d8565b60008281526101006020526040902060018260058111156114835761148361525d565b14156116215760008381526101016020526040902054806114e65760405162461bcd60e51b815260206004820152601960248201527f21494e56414c49442870656e64696e67506c616e446174612900000000000000604482015260640161073e565b60006114f1826127bf565b600584015490915085906001600160a01b031661150d826112b2565b6004860154600587015460208087015160028a01546040805195865263ffffffff600160a81b90950485169386019390935292169083015260608201526001600160a01b0391909116907fe17e61be0a4aac2f0b6fece72cedc2ab9ca554634d5af864a9282095206a0c2b9060800160405180910390a4602081015160058401805463ffffffff909216600160a81b0263ffffffff60a81b1990921691909117905581835560a081015161ffff161561160b578060a0015161ffff1681604001516115d89190615555565b6115e89063ffffffff1642615418565b8360060160046101000a81548163ffffffff021916908363ffffffff1602179055505b5050506000918252506101016020526040812055565b60028260058111156116355761163561525d565b141561174b57600581018054600160a21b60ff60a01b198216179091556001600160a01b031660009081526101036020526040812080546001929061167b90849061553e565b909155505060058101546001600160a01b038116600090815261010460209081526040808320600160a81b90940463ffffffff1683529290529081208054600192906116c890849061553e565b9091555050600581015483906001600160a01b03166116e6826112b2565b6004840154600585015460408051928352600160a81b90910463ffffffff1660208301526001600160a01b0392909216917f58e4414596fd750dbb9dabfe65b97bf5add2061f5902f34e2b82a9c25bd79f98910160405180910390a4610bc48361348b565b600382600581111561175f5761175f61525d565b14156117e957600581018054600360a11b60ff60a01b1982161790915583906001600160a01b0316611790826112b2565b6004840154600585015460408051928352600160a81b90910463ffffffff1660208301526001600160a01b0392909216917f44abb4f4529fdbcacc1ee98eef9318eaf9a12044d6925a2dc2c702959d9352f19101610e0f565b60048260058111156117fd576117fd61525d565b141561196f57600061181282600001546127bf565b905060016005830154600160a01b900460ff1660068111156118365761183661525d565b14156118b257600582015484906001600160a01b0316611855826112b2565b6004850154600586015460408051928352600160a81b90910463ffffffff1660208301526001600160a01b0392909216917ff42e506093cb49dad3d3349cf7a2b390140be665daecb2c820e903afd12b1df7910160405180910390a45b60058201805460ff60a01b1916600160a11b179055604081015160068301546118e1919063ffffffff16615581565b60068301805463ffffffff191663ffffffff92909216919091179055600582015484906001600160a01b0316611916826112b2565b6004850154600586015460408051928352600160a81b90910463ffffffff1660208301526001600160a01b0392909216917fcdd2eee203a384f2c6e81f39021f7e3ebef3a21ccd0d0f6dd117387ab61b6b54910161096c565b60058260058111156119835761198361525d565b1415610bc45760006003820155505050565b61199d6127b0565b6001600160a01b03166119b86098546001600160a01b031690565b6001600160a01b0316146119de5760405162461bcd60e51b815260040161073e90615509565b610ea5613532565b816119f0816112b2565b6001600160a01b0316611a016127b0565b6001600160a01b031614611a275760405162461bcd60e51b815260040161073e906153b9565b60ca5460ff1615611a4a5760405162461bcd60e51b815260040161073e906153d8565b6000838152610100602052604090206006810154600160201b900463ffffffff161580611a8c5750600681015463ffffffff600160201b909104811690841610155b611aa85760405162461bcd60e51b815260040161073e90615495565b600601805463ffffffff909316600160401b0263ffffffff60401b19909316929092179091555050565b60606067805461098990615430565b611af3611aec6127b0565b838361358b565b5050565b87611b01816112b2565b6001600160a01b0316611b126127b0565b6001600160a01b031614611b385760405162461bcd60e51b815260040161073e906153b9565b60ca5460ff1615611b5b5760405162461bcd60e51b815260040161073e906153d8565b611b6b898989898989898961365a565b505050505050505050565b6001600160a01b038316600090815260ff60205260409020546060908390811115611bb657506001600160a01b038416600090815260ff60205260409020545b6001600160a01b038516600090815260ff60205260409020548310611c0a5760005b604051908082528060200260200182016040528015611c01578160200160208202803683370190505b50915050611cf9565b60008167ffffffffffffffff811115611c2557611c25614cd8565b604051908082528060200260200182016040528015611c4e578160200160208202803683370190505b50905060005b8281108015611c8357506001600160a01b038716600090815260ff6020526040902054611c818683615418565b105b15611cf4576001600160a01b038716600090815260ff60205260409020611caa8683615418565b81548110611cba57611cba6155a9565b9060005260206000200154828281518110611cd757611cd76155a9565b602090810291909101015280611cec816155bf565b915050611c54565b509150505b9392505050565b611d11611d0b6127b0565b836130fe565b611d2d5760405162461bcd60e51b815260040161073e906154b8565b611d3984848484613a05565b50505050565b82611d49816112b2565b6001600160a01b0316611d5a6127b0565b6001600160a01b03161480611d995750600081815261010060205260409020600501546001600160a01b0316611d8e6127b0565b6001600160a01b0316145b611db55760405162461bcd60e51b815260040161073e906153b9565b60ca5460ff1615611dd85760405162461bcd60e51b815260040161073e906153d8565b600084815261010060205260409020600281015415611e2e5760405162461bcd60e51b81526020600482015260126024820152710851561254d5125391d7d11254d0d3d5539560721b604482015260640161073e565b6000858152610101602052604090205415611e905760008581526101016020526040812054611e5c906127bf565b60058301546020820151919250611e80916001600160a01b03909116908787613a38565b6003840155600283015550611ec3565b6005810154611eb8906001600160a01b03811690600160a81b900463ffffffff168686613a38565b600383015560028201555b600581015485906001600160a01b0316611edc826112b2565b60048401546005850154600386015460408051938452600160a81b90920463ffffffff166020840152908201526001600160a01b0391909116907f23be24e2f5bdda1a165ef44cb730243e3f79e09d3c28086b166ab914c79750609060600160405180910390a45050505050565b60ca5460ff1615611f6d5760405162461bcd60e51b815260040161073e906153d8565b611b6b88888888888888886128f2565b600054610100900460ff16611f985760005460ff1615611f9c565b303b155b611fff5760405162461bcd60e51b815260206004820152602e60248201527f496e697469616c697a61626c653a20636f6e747261637420697320616c72656160448201526d191e481a5b9a5d1a585b1a5e995960921b606482015260840161073e565b600054610100900460ff16158015612021576000805461ffff19166101011790555b612029613bb5565b612031613bec565b612085604051806040016040528060128152602001714361736b20537562736372697074696f6e7360701b815250604051806040016040528060088152602001674341534b5355425360c01b815250613c23565b60fd80546001600160a01b0319166001600160a01b0384161790558015611af3576000805461ff00191690555050565b6000818152606860205260409020546060906001600160a01b03166121345760405162461bcd60e51b815260206004820152602f60248201527f4552433732314d657461646174613a2055524920717565727920666f72206e6f60448201526e3732bc34b9ba32b73a103a37b5b2b760891b606482015260840161073e565b60008281526101006020908152604080832081516101a08101835281548152600182015493810193909352600281015491830191909152600381015460608301526004810154608083015260058101546001600160a01b03811660a084015260c0830190600160a01b900460ff1660068111156121b3576121b361525d565b60068111156121c4576121c461525d565b8152600582015463ffffffff600160a81b820481166020840152600160c81b9091048116604083015260068301548082166060840152600160201b810482166080840152600160401b90041660a082015260078201805460c09092019161222a90615430565b80601f016020809104026020016040519081016040528092919081815260200182805461225690615430565b80156122a35780601f10612278576101008083540402835291602001916122a3565b820191906000526020600020905b81548152906001019060200180831161228657829003601f168201915b50505050508152505090508061018001516040516020016122c491906155da565b604051602081830303815290604052915050919050565b6122e36127b0565b6001600160a01b03166122fe6098546001600160a01b031690565b6001600160a01b0316146123245760405162461bcd60e51b815260040161073e90615509565b60fc80546001600160a01b0319166001600160a01b0392909216919091179055565b61234e6127b0565b6001600160a01b03166123696098546001600160a01b031690565b6001600160a01b03161461238f5760405162461bcd60e51b815260040161073e90615509565b606580546001600160a01b0319166001600160a01b03831617905550565b50565b604080516101a08101825260008082526020820181905291810182905260608082018390526080820183905260a0820183905260c0820183905260e082018390526101008201839052610120820183905261014082018390526101608201929092526101808101919091526000828152610100602090815260409182902082516101a08101845281548152600182015492810192909252600281015492820192909252600382015460608201526004820154608082015260058201546001600160a01b03811660a083015290919060c0830190600160a01b900460ff16600681111561249e5761249e61525d565b60068111156124af576124af61525d565b8152600582015463ffffffff600160a81b820481166020840152600160c81b9091048116604083015260068301548082166060840152600160201b810482166080840152600160401b90041660a082015260078201805460c09092019161251590615430565b80601f016020809104026020016040519081016040528092919081815260200182805461254190615430565b801561258e5780601f106125635761010080835404028352916020019161258e565b820191906000526020600020905b81548152906001019060200180831161257157829003601f168201915b5050505050815250509050919050565b6125a66127b0565b6001600160a01b03166125c16098546001600160a01b031690565b6001600160a01b0316146125e75760405162461bcd60e51b815260040161073e90615509565b6001600160a01b03811661264c5760405162461bcd60e51b815260206004820152602660248201527f4f776e61626c653a206e6577206f776e657220697320746865207a65726f206160448201526564647265737360d01b606482015260840161073e565b6123ad81613439565b6001600160a01b03831660009081526101026020526040902054606090839081111561269757506001600160a01b038416600090815261010260205260409020545b6001600160a01b0385166000908152610102602052604090205483106126be576000611bd8565b60008167ffffffffffffffff8111156126d9576126d9614cd8565b604051908082528060200260200182016040528015612702578160200160208202803683370190505b50905060005b828110801561273857506001600160a01b038716600090815261010260205260409020546127368683615418565b105b15611cf4576001600160a01b0387166000908152610102602052604090206127608683615418565b81548110612770576127706155a9565b906000526020600020015482828151811061278d5761278d6155a9565b6020908102919091010152806127a2816155bf565b915050612708565b3b151590565b60006127ba613c64565b905090565b6040805161010081018252600080825260208201819052918101829052606081018290526080810182905260a0810182905260c0810182905260e081019190915250604080516101008101825260a083811c8252608084811c63ffffffff908116602080860191909152606087811c8316868801529587901c8216958501959095529385901c90931692820192909252601083901c61ffff169181019190915260f09190911b600160f01b8181161460c0830152600160f11b9081161460e082015290565b6000818152606a6020526040902080546001600160a01b0319166001600160a01b03841690811790915581906128b9826112b2565b6001600160a01b03167f8c5be1e5ebec7d5bd14f71427d1e84f3dd0314c0f7b2291e5b200ac8c7c3b92560405160405180910390a45050565b6000600488101561293e5760405162461bcd60e51b815260206004820152601660248201527521494e56414c494428706c616e50726f6f664c656e2960501b604482015260640161073e565b6000600387106129a65761299f8a8a600081811061295e5761295e6155a9565b90506020020135868c8c6003818110612979576129796155a9565b905060200201358b8b6002818110612993576129936155a9565b90506020020135613c98565b90506129ea565b6129e78a8a60008181106129bc576129bc6155a9565b90506020020135868c8c60038181106129d7576129d76155a9565b905060200201356000801b613c98565b90505b6129f48a8a613d16565b612a105760405162461bcd60e51b815260040161073e90615609565b6000612a348b8b6002818110612a2857612a286155a9565b905060200201356127bf565b90506000612a8e8c8c6000818110612a4e57612a4e6155a9565b905060200201358d8d6001818110612a6857612a686155a9565b905060200201358e8e6002818110612a8257612a826155a9565b90506020020135613ddd565b9050816080015163ffffffff1660001480612add575060808201516001600160a01b0384166000908152610104602090815260408083208287015163ffffffff90811685529252909120549116115b612b175760405162461bcd60e51b815260206004820152600b60248201526a214d41585f41435449564560a81b604482015260640161073e565b600060fd54602084015160405163b6ab359f60e01b81526001600160a01b03878116600483015263ffffffff909216602482015291169063b6ab359f9060440160206040518083038186803b158015612b6f57600080fd5b505afa158015612b83573d6000803e3d6000fd5b505050506040513d601f19601f82011682018060405250810190612ba79190615636565b6002811115612bb857612bb861525d565b14612bf45760405162461bcd60e51b815260206004820152600c60248201526b085393d517d153905093115160a21b604482015260640161073e565b612c05612bff6127b0565b82613e48565b6000818152610100602090815260409091206005810180549285015163ffffffff16600160a81b02600164ffffffff0160a01b03199093166001600160a01b0387161792909217909155428d8d6001818110612c6357612c636155a9565b60200291909101356004840155508d8d6002818110612c8457612c846155a9565b602002919091013583555060068201805463ffffffff60401b1916600160401b63ffffffff8d1602179055612cbd600783018989614a75565b5060058201805463ffffffff60c81b1916600160c81b63ffffffff84160217905560a084015161ffff1615612d31578360a0015161ffff168460400151612d049190615555565b612d0e9082615581565b8260060160046101000a81548163ffffffff021916908363ffffffff1602179055505b606084015163ffffffff1615612d865760058201805460ff60a01b1916600160a01b1790556060840151612d659082615581565b60068301805463ffffffff191663ffffffff92909216919091179055612db3565b60058201805460ff60a01b1916600160a11b17905560068201805463ffffffff191663ffffffff83161790555b60058201546020850151612dd2916001600160a01b0316908e8e613a38565b60038401556002830155600682015463ffffffff808316911611612e4f5760fc5460405163d71bb37b60e01b8152600481018590526001600160a01b039091169063d71bb37b90602401600060405180830381600087803b158015612e3657600080fd5b505af1158015612e4a573d6000803e3d6000fd5b505050505b600582015483906001600160a01b0316612e68826112b2565b60048501546005860154600287015460408051938452600160a81b90920463ffffffff166020840152908201526001600160a01b0391909116907f9fb45eab820cdd481e286e8c699e1c01031bb833c58f7cfba3ca8d1db6d98d819060600160405180910390a460ff6000612edb6127b0565b6001600160a01b0390811682526020808301939093526040918201600090812080546001818101835591835285832001889055918916808252610102855283822080548085018255908352858320018890558152610103909352908220805491929091612f49908490615418565b90915550506001600160a01b0385166000908152610104602090815260408083208783015163ffffffff1684529091528120805460019290612f8c908490615418565b909155505060fe80546001810182556000919091527f54075df80ec1ae6ac9100e1fd0ebf3246c17f5c933137af392011f4c5f61513a0183905550909c9b505050505050505050505050565b60008061305b8361305586604051602001612ff591815260200190565b60408051601f1981840301815282825280516020918201207f19457468657265756d205369676e6564204d6573736167653a0a33320000000084830152603c8085019190915282518085039091018152605c909301909152815191012090565b90613e62565b9050600061309b8560408051808201909152600080825260208201525060408051808201909152606082901c815260509190911c61ffff16602082015290565b9050816001600160a01b031681600001516001600160a01b0316146130f65760405162461bcd60e51b815260206004820152601160248201527021494e56414c4944286e6574776f726b2960781b604482015260640161073e565b509392505050565b6000818152606860205260408120546001600160a01b03166131775760405162461bcd60e51b815260206004820152602c60248201527f4552433732313a206f70657261746f7220717565727920666f72206e6f6e657860448201526b34b9ba32b73a103a37b5b2b760a11b606482015260840161073e565b6000613182836112b2565b9050806001600160a01b0316846001600160a01b031614806131bd5750836001600160a01b03166131b284610a0c565b6001600160a01b0316145b806131ed57506001600160a01b038082166000908152606b602090815260408083209388168352929052205460ff165b949350505050565b826001600160a01b0316613208826112b2565b6001600160a01b0316146132705760405162461bcd60e51b815260206004820152602960248201527f4552433732313a207472616e73666572206f6620746f6b656e2074686174206960448201526839903737ba1037bbb760b91b606482015260840161073e565b6001600160a01b0382166132d25760405162461bcd60e51b8152602060048201526024808201527f4552433732313a207472616e7366657220746f20746865207a65726f206164646044820152637265737360e01b606482015260840161073e565b6132dd838383613e7e565b6132e8600082612884565b6001600160a01b038316600090815260696020526040812080546001929061331190849061553e565b90915550506001600160a01b038216600090815260696020526040812080546001929061333f908490615418565b909155505060008181526068602052604080822080546001600160a01b0319166001600160a01b0386811691821790925591518493918716917fddf252ad1be2c89b69c2b068fc378daa952ba7f163c4a11628f55a4df523b3ef91a4505050565b60ca5460ff166133e95760405162461bcd60e51b815260206004820152601460248201527314185d5cd8589b194e881b9bdd081c185d5cd95960621b604482015260640161073e565b60ca805460ff191690557f5db9ee0a495bf2e6ff9c91a7834c1ba4fdd244a5e8aa4e537bd38aeae4b073aa61341c6127b0565b6040516001600160a01b03909116815260200160405180910390a1565b609880546001600160a01b038381166001600160a01b0319831681179093556040519116919082907f8be0079c531659141344cd1fd0a4f28419497f9722a3daafe3b4186f6b6457e090600090a35050565b6000613496826112b2565b90506134a481600084613e7e565b6134af600083612884565b6001600160a01b03811660009081526069602052604081208054600192906134d890849061553e565b909155505060008281526068602052604080822080546001600160a01b0319169055518391906001600160a01b038416907fddf252ad1be2c89b69c2b068fc378daa952ba7f163c4a11628f55a4df523b3ef908390a45050565b60ca5460ff16156135555760405162461bcd60e51b815260040161073e906153d8565b60ca805460ff191660011790557f62e78cea01bee320cd4e420270b5ea74000d11b0c9f74754ebdbfc544b05a25861341c6127b0565b816001600160a01b0316836001600160a01b031614156135ed5760405162461bcd60e51b815260206004820152601960248201527f4552433732313a20617070726f766520746f2063616c6c657200000000000000604482015260640161073e565b6001600160a01b038381166000818152606b6020908152604080832094871680845294825291829020805460ff191686151590811790915591519182527f17307eab39ab6107e8899845ad3d59bd9653f200f220920489ca2b5937696c31910160405180910390a3505050565b600486101561367b5760405162461bcd60e51b815260040161073e90615609565b600088815261010060205260409020600681015463ffffffff4281169116116136d65760405162461bcd60e51b815260206004820152600d60248201526c085391515117d491539155d053609a1b604482015260640161073e565b60026005820154600160a01b900460ff1660068111156136f8576136f861525d565b1480613723575060016005820154600160a01b900460ff1660068111156137215761372161525d565b145b61373f5760405162461bcd60e51b815260040161073e9061546b565b60006003861061379b576137948989600081811061375f5761375f6155a9565b90506020020135868b8b600381811061377a5761377a6155a9565b905060200201358a8a6002818110612993576129936155a9565b90506137cf565b6137cc898960008181106137b1576137b16155a9565b90506020020135868b8b60038181106129d7576129d76155a9565b90505b6137d98989613d16565b6137f55760405162461bcd60e51b815260040161073e90615609565b600061380d8a8a6002818110612a2857612a286155a9565b60058401549091506001600160a01b038381169116146138645760405162461bcd60e51b815260206004820152601260248201527121494e56414c49442870726f76696465722960701b604482015260640161073e565b613872600784018686614a75565b506002830154158015613886575060038710155b80156138a8575060008888828161389f5761389f6155a9565b90506020020135115b156138d757600583015460208201516138cc916001600160a01b0316908a8a613a38565b600385015560028401555b60208101516005840154600160a81b900463ffffffff9081169116146139f857600060fd54602083015160405163b6ab359f60e01b81526001600160a01b03868116600483015263ffffffff909216602482015291169063b6ab359f9060440160206040518083038186803b15801561394f57600080fd5b505afa158015613963573d6000803e3d6000fd5b505050506040513d601f19601f820116820180604052508101906139879190615636565b60028111156139985761399861525d565b146139d45760405162461bcd60e51b815260206004820152600c60248201526b085393d517d153905093115160a21b604482015260640161073e565b6139f88b828c8c60028181106139ec576139ec6155a9565b90506020020135613f7f565b5050505050505050505050565b613a108484846131f5565b613a1c8484848461406c565b611d395760405162461bcd60e51b815260040161073e90615657565b600080600383118015613a615750600084848281613a5857613a586155a9565b90506020020135115b15613ba557600084846000818110613a7b57613a7b6155a9565b90506020020135604051602001613a9491815260200190565b60408051601f19818403018152919052805160209091012060fd549091506001600160a01b03166372212e7688888489896001818110613ad657613ad66155a9565b905060200201358a8a6002818110613af057613af06155a9565b60200291909101359050613b078b6003818f6156a9565b6040518863ffffffff1660e01b8152600401613b29979695949392919061570d565b60206040518083038186803b158015613b4157600080fd5b505afa158015613b55573d6000803e3d6000fd5b505050506040513d601f19601f82011682018060405250810190613b79919061575a565b15613ba3578085856001818110613b9257613b926155a9565b905060200201359250925050613bac565b505b5060009050805b94509492505050565b600054610100900460ff16613bdc5760405162461bcd60e51b815260040161073e90615777565b613be461417d565b610ea56141a4565b600054610100900460ff16613c135760405162461bcd60e51b815260040161073e90615777565b613c1b61417d565b610ea56141db565b600054610100900460ff16613c4a5760405162461bcd60e51b815260040161073e90615777565b613c5261417d565b613c5a61417d565b611af3828261420e565b600060143610801590613c8157506065546001600160a01b031633145b15613c93575060131936013560601c90565b503390565b600080613cbe856130558686604051602001612ff5929190918252602082015260400190565b90506001600160a01b0386811690821614613d0d5760405162461bcd60e51b815260206004820152600f60248201526e21494e56414c49442870726f6f662960881b604482015260640161073e565b95945050505050565b60fd546000906001600160a01b03166371ce3e6684846002818110613d3d57613d3d6155a9565b9050602002013585856003818110613d5757613d576155a9565b60200291909101359050613d6e866004818a6156a9565b6040518563ffffffff1660e01b8152600401613d8d94939291906157c2565b60206040518083038186803b158015613da557600080fd5b505afa158015613db9573d6000803e3d6000fd5b505050506040513d601f19601f82011682018060405250810190611cf9919061575a565b6000613de76127b0565b60405160609190911b6bffffffffffffffffffffffff191660208201526034810185905260548101839052607481018490524360948201524260b482015260d40160408051601f198184030181529190528051602090910120949350505050565b611af382826040518060200160405280600081525061425c565b6000806000613e71858561428f565b915091506130f6816142ff565b6001600160a01b03831615801590613e9e57506001600160a01b03821615155b15610bc4576000818152610100602052604081208054909190613ec0906127bf565b90508060e00151613f085760405162461bcd60e51b8152602060048201526012602482015271214e4f545f5452414e534645525241424c4560701b604482015260640161073e565b6006820154600160201b900463ffffffff161580613f3c5750600682015463ffffffff600160201b90910481164290911610155b613f585760405162461bcd60e51b815260040161073e90615495565b506006018054600160401b63ffffffff82160263ffffffff60401b19909116179055505050565b6000838152610100602052604081208054909190613f9c906127bf565b905060016005830154600160a01b900460ff166006811115613fc057613fc061525d565b1415613fd757613fd2858286866144ba565b614065565b60408101518151613fee9163ffffffff16906157ec565b604085015185516140059163ffffffff16906157ec565b141561401657613fd2858585614535565b6040810151815161402d9163ffffffff16906157ec565b604085015185516140449163ffffffff16906157ec565b111561405657613fd28582868661465e565b61406585856020015185614774565b5050505050565b60006001600160a01b0384163b1561417557836001600160a01b031663150b7a026140956127b0565b8786866040518563ffffffff1660e01b81526004016140b7949392919061580e565b602060405180830381600087803b1580156140d157600080fd5b505af1925050508015614101575060408051601f3d908101601f191682019092526140fe91810190615841565b60015b61415b573d80801561412f576040519150601f19603f3d011682016040523d82523d6000602084013e614134565b606091505b5080516141535760405162461bcd60e51b815260040161073e90615657565b805181602001fd5b6001600160e01b031916630a85bd0160e11b1490506131ed565b5060016131ed565b600054610100900460ff16610ea55760405162461bcd60e51b815260040161073e90615777565b600054610100900460ff166141cb5760405162461bcd60e51b815260040161073e90615777565b610ea56141d66127b0565b613439565b600054610100900460ff166142025760405162461bcd60e51b815260040161073e90615777565b60ca805460ff19169055565b600054610100900460ff166142355760405162461bcd60e51b815260040161073e90615777565b8151614248906066906020850190614af9565b508051610bc4906067906020840190614af9565b614266838361480e565b614273600084848461406c565b610bc45760405162461bcd60e51b815260040161073e90615657565b6000808251604114156142c65760208301516040840151606085015160001a6142ba8782858561495c565b945094505050506142f8565b8251604014156142f057602083015160408401516142e5868383614a46565b9350935050506142f8565b506000905060025b9250929050565b60008160048111156143135761431361525d565b141561431c5750565b60018160048111156143305761433061525d565b141561437e5760405162461bcd60e51b815260206004820152601860248201527f45434453413a20696e76616c6964207369676e61747572650000000000000000604482015260640161073e565b60028160048111156143925761439261525d565b14156143e05760405162461bcd60e51b815260206004820152601f60248201527f45434453413a20696e76616c6964207369676e6174757265206c656e67746800604482015260640161073e565b60038160048111156143f4576143f461525d565b141561444d5760405162461bcd60e51b815260206004820152602260248201527f45434453413a20696e76616c6964207369676e6174757265202773272076616c604482015261756560f01b606482015260840161073e565b60048160048111156144615761446161525d565b14156123ad5760405162461bcd60e51b815260206004820152602260248201527f45434453413a20696e76616c6964207369676e6174757265202776272076616c604482015261756560f01b606482015260840161073e565b6000848152610100602052604090206060808401519085015160068301546144e8919063ffffffff1661585e565b6144f29190615581565b60068201805463ffffffff191663ffffffff928316908117909155429091161061452e5760068101805463ffffffff19164263ffffffff161790555b6140658584845b600083815261010060205260409020600581015484906001600160a01b031661455d826112b2565b6004840154600585015460208089015160028801546040805195865263ffffffff600160a81b90950485169386019390935292169083015260608201526001600160a01b0391909116907fe17e61be0a4aac2f0b6fece72cedc2ab9ca554634d5af864a9282095206a0c2b9060800160405180910390a460a083015161ffff161561462d578260a0015161ffff1683604001516145fa9190615555565b61460a9063ffffffff1642615418565b8160060160046101000a81548163ffffffff021916908363ffffffff1602179055505b60209092015160058301805463ffffffff909216600160a81b0263ffffffff60a81b19909216919091179055905550565b600084815261010060205260408120600681015490919061468690429063ffffffff1661585e565b63ffffffff16856040015163ffffffff1686600001516146a691906157ec565b604086015186516146bd9163ffffffff16906157ec565b6146c7919061553e565b6146d19190615883565b60fc549091506001600160a01b031663c54c58c46146ee886112b2565b600585015460405160e084901b6001600160e01b03191681526001600160a01b039283166004820152911660248201526044810189905260648101849052608401600060405180830381600087803b15801561474957600080fd5b505af115801561475d573d6000803e3d6000fd5b5050505061476c868585614535565b505050505050565b600083815261010060209081526040808320610101909252909120829055600581015484906001600160a01b03166147ab826112b2565b600484015460058501546040805192835263ffffffff600160a81b90920482166020840152908816908201526001600160a01b0391909116907f3d051466fe86e1bd842d67e98121d69a930caccf48fc2ae2c83119b5a7b71af69060600161096c565b6001600160a01b0382166148645760405162461bcd60e51b815260206004820181905260248201527f4552433732313a206d696e7420746f20746865207a65726f2061646472657373604482015260640161073e565b6000818152606860205260409020546001600160a01b0316156148c95760405162461bcd60e51b815260206004820152601c60248201527f4552433732313a20746f6b656e20616c7265616479206d696e74656400000000604482015260640161073e565b6148d560008383613e7e565b6001600160a01b03821660009081526069602052604081208054600192906148fe908490615418565b909155505060008181526068602052604080822080546001600160a01b0319166001600160a01b03861690811790915590518392907fddf252ad1be2c89b69c2b068fc378daa952ba7f163c4a11628f55a4df523b3ef908290a45050565b6000807f7fffffffffffffffffffffffffffffff5d576e7357a4501ddfe92f46681b20a08311156149935750600090506003613bac565b8460ff16601b141580156149ab57508460ff16601c14155b156149bc5750600090506004613bac565b6040805160008082526020820180845289905260ff881692820192909252606081018690526080810185905260019060a0016020604051602081039080840390855afa158015614a10573d6000803e3d6000fd5b5050604051601f1901519150506001600160a01b038116614a3957600060019250925050613bac565b9660009650945050505050565b6000806001600160ff1b03831660ff84901c601b01614a678782888561495c565b935093505050935093915050565b828054614a8190615430565b90600052602060002090601f016020900481019282614aa35760008555614ae9565b82601f10614abc5782800160ff19823516178555614ae9565b82800160010185558215614ae9579182015b82811115614ae9578235825591602001919060010190614ace565b50614af5929150614b6d565b5090565b828054614b0590615430565b90600052602060002090601f016020900481019282614b275760008555614ae9565b82601f10614b4057805160ff1916838001178555614ae9565b82800160010185558215614ae9579182015b82811115614ae9578251825591602001919060010190614b52565b5b80821115614af55760008155600101614b6e565b6001600160e01b0319811681146123ad57600080fd5b600060208284031215614baa57600080fd5b8135611cf981614b82565b600060208284031215614bc757600080fd5b5035919050565b60005b83811015614be9578181015183820152602001614bd1565b83811115611d395750506000910152565b60008151808452614c12816020860160208601614bce565b601f01601f19169290920160200192915050565b602081526000611cf96020830184614bfa565b80356001600160a01b0381168114614c5057600080fd5b919050565b60008060408385031215614c6857600080fd5b614c7183614c39565b946020939093013593505050565b60008083601f840112614c9157600080fd5b50813567ffffffffffffffff811115614ca957600080fd5b6020830191508360208260051b85010111156142f857600080fd5b803563ffffffff81168114614c5057600080fd5b634e487b7160e01b600052604160045260246000fd5b600082601f830112614cff57600080fd5b813567ffffffffffffffff80821115614d1a57614d1a614cd8565b604051601f8301601f19908116603f01168101908282118183101715614d4257614d42614cd8565b81604052838152866020858801011115614d5b57600080fd5b836020870160208301376000602085830101528094505050505092915050565b60008083601f840112614d8d57600080fd5b50813567ffffffffffffffff811115614da557600080fd5b6020830191508360208285010111156142f857600080fd5b60008060008060008060008060008060e08b8d031215614ddc57600080fd5b8a3567ffffffffffffffff80821115614df457600080fd5b614e008e838f01614c7f565b909c509a5060208d0135915080821115614e1957600080fd5b614e258e838f01614c7f565b909a50985060408d01359750889150614e4060608e01614cc4565b965060808d0135915080821115614e5657600080fd5b614e628e838f01614cee565b955060a08d0135915080821115614e7857600080fd5b614e848e838f01614cee565b945060c08d0135915080821115614e9a57600080fd5b50614ea78d828e01614d7b565b915080935050809150509295989b9194979a5092959850565b600080600060608486031215614ed557600080fd5b614ede84614c39565b9250614eec60208501614c39565b9150604084013590509250925092565b600060208284031215614f0e57600080fd5b611cf982614c39565b6020808252825182820181905260009190848201906040850190845b81811015614f4f57835183529284019291840191600101614f33565b50909695505050505050565b60008060408385031215614f6e57600080fd5b82359150602083013560068110614f8457600080fd5b809150509250929050565b60008060408385031215614fa257600080fd5b82359150614fb260208401614cc4565b90509250929050565b60008060408385031215614fce57600080fd5b614fd783614c39565b9150614fb260208401614cc4565b80151581146123ad57600080fd5b6000806040838503121561500657600080fd5b61500f83614c39565b91506020830135614f8481614fe5565b60008060008060008060008060a0898b03121561503b57600080fd5b88359750602089013567ffffffffffffffff8082111561505a57600080fd5b6150668c838d01614c7f565b909950975060408b013591508082111561507f57600080fd5b61508b8c838d01614c7f565b909750955060608b01359150808211156150a457600080fd5b6150b08c838d01614cee565b945060808b01359150808211156150c657600080fd5b506150d38b828c01614d7b565b999c989b5096995094979396929594505050565b6000806000606084860312156150fc57600080fd5b61510584614c39565b95602085013595506040909401359392505050565b6000806000806080858703121561513057600080fd5b61513985614c39565b935061514760208601614c39565b925060408501359150606085013567ffffffffffffffff81111561516a57600080fd5b61517687828801614cee565b91505092959194509250565b60008060006040848603121561519757600080fd5b83359250602084013567ffffffffffffffff8111156151b557600080fd5b6151c186828701614c7f565b9497909650939450505050565b60008060008060008060008060a0898b0312156151ea57600080fd5b883567ffffffffffffffff8082111561520257600080fd5b61520e8c838d01614c7f565b909a50985060208b013591508082111561522757600080fd5b6152338c838d01614c7f565b909850965086915061524760408c01614cc4565b955060608b01359150808211156150a457600080fd5b634e487b7160e01b600052602160045260246000fd5b6007811061529157634e487b7160e01b600052602160045260246000fd5b9052565b6020815281516020820152602082015160408201526040820151606082015260608201516080820152608082015160a0820152600060a08301516152e460c08401826001600160a01b03169052565b5060c08301516152f760e0840182615273565b5060e08301516101006153118185018363ffffffff169052565b840151905061012061532a8482018363ffffffff169052565b84015190506101406153438482018363ffffffff169052565b840151905061016061535c8482018363ffffffff169052565b84015190506101806153758482018363ffffffff169052565b8401516101a08481015290506131ed6101c0840182614bfa565b600080604083850312156153a257600080fd5b6153ab83614c39565b9150614fb260208401614c39565b60208082526005908201526404282aaa8960db1b604082015260600190565b60208082526010908201526f14185d5cd8589b194e881c185d5cd95960821b604082015260600190565b634e487b7160e01b600052601160045260246000fd5b6000821982111561542b5761542b615402565b500190565b600181811c9082168061544457607f821691505b6020821081141561546557634e487b7160e01b600052602260045260246000fd5b50919050565b60208082526010908201526f21494e56414c4944287374617475732960801b604082015260600190565b602080825260099082015268214d494e5f5445524d60b81b604082015260600190565b60208082526031908201527f4552433732313a207472616e736665722063616c6c6572206973206e6f74206f6040820152701ddb995c881b9bdc88185c1c1c9bdd9959607a1b606082015260800190565b6020808252818101527f4f776e61626c653a2063616c6c6572206973206e6f7420746865206f776e6572604082015260600190565b60008282101561555057615550615402565b500390565b600063ffffffff8083168185168183048111821515161561557857615578615402565b02949350505050565b600063ffffffff8083168185168083038211156155a0576155a0615402565b01949350505050565b634e487b7160e01b600052603260045260246000fd5b60006000198214156155d3576155d3615402565b5060010190565b66697066733a2f2f60c81b8152600082516155fc816007850160208701614bce565b9190910160070192915050565b60208082526013908201527221494e56414c494428706c616e50726f6f662960681b604082015260600190565b60006020828403121561564857600080fd5b815160038110611cf957600080fd5b60208082526032908201527f4552433732313a207472616e7366657220746f206e6f6e20455243373231526560408201527131b2b4bb32b91034b6b83632b6b2b73a32b960711b606082015260800190565b600080858511156156b957600080fd5b838611156156c657600080fd5b5050600583901b0193919092039150565b81835260006001600160fb1b038311156156f057600080fd5b8260051b8083602087013760009401602001938452509192915050565b60018060a01b038816815263ffffffff8716602082015285604082015284606082015283608082015260c060a0820152600061574d60c0830184866156d7565b9998505050505050505050565b60006020828403121561576c57600080fd5b8151611cf981614fe5565b6020808252602b908201527f496e697469616c697a61626c653a20636f6e7472616374206973206e6f74206960408201526a6e697469616c697a696e6760a81b606082015260800190565b8481528360208201526060604082015260006157e26060830184866156d7565b9695505050505050565b60008261580957634e487b7160e01b600052601260045260246000fd5b500490565b6001600160a01b03858116825284166020820152604081018390526080606082018190526000906157e290830184614bfa565b60006020828403121561585357600080fd5b8151611cf981614b82565b600063ffffffff8381169083168181101561587b5761587b615402565b039392505050565b600081600019048311821515161561589d5761589d615402565b50029056fea264697066735822122064e0984e1fac3659e1c27efecdfad081f510d86956ce056c2f2f5c669988700664736f6c63430008090033",
  "devdoc": {
    "kind": "dev",
    "methods": {
      "approve(address,uint256)": {
        "details": "See {IERC721-approve}."
      },
      "balanceOf(address)": {
        "details": "See {IERC721-balanceOf}."
      },
      "constructor": {
        "custom:oz-upgrades-unsafe-allow": "constructor"
      },
      "getApproved(uint256)": {
        "details": "See {IERC721-getApproved}."
      },
      "isApprovedForAll(address,address)": {
        "details": "See {IERC721-isApprovedForAll}."
      },
      "name()": {
        "details": "See {IERC721Metadata-name}."
      },
      "owner()": {
        "details": "Returns the address of the current owner."
      },
      "ownerOf(uint256)": {
        "details": "See {IERC721-ownerOf}."
      },
      "paused()": {
        "details": "Returns true if the contract is paused, and false otherwise."
      },
      "renounceOwnership()": {
        "details": "Leaves the contract without owner. It will not be possible to call `onlyOwner` functions anymore. Can only be called by the current owner. NOTE: Renouncing ownership will leave the contract without an owner, thereby removing any functionality that is only available to the owner."
      },
      "safeTransferFrom(address,address,uint256)": {
        "details": "See {IERC721-safeTransferFrom}."
      },
      "safeTransferFrom(address,address,uint256,bytes)": {
        "details": "See {IERC721-safeTransferFrom}."
      },
      "setApprovalForAll(address,bool)": {
        "details": "See {IERC721-setApprovalForAll}."
      },
      "supportsInterface(bytes4)": {
        "details": "See {IERC165-supportsInterface}."
      },
      "symbol()": {
        "details": "See {IERC721Metadata-symbol}."
      },
      "transferFrom(address,address,uint256)": {
        "details": "See {IERC721-transferFrom}."
      },
      "transferOwnership(address)": {
        "details": "Transfers ownership of the contract to a new account (`newOwner`). Can only be called by the current owner."
      }
    },
    "stateVariables": {
      "consumerSubscriptions": {
        "details": "Maps for consumer to list of subscriptions. "
      },
      "providerSubscriptions": {
        "details": "Maps for provider to list of subscriptions and plans. "
      },
      "subscriptionManager": {
        "details": "contract to manage subscription plan definitions. "
      },
      "subscriptionPlans": {
        "details": "contract to manage subscription plan definitions. "
      }
    },
    "version": 1
  },
  "userdoc": {
    "kind": "user",
    "methods": {
      "isTrustedForwarder(address)": {
        "notice": "return if the forwarder is trusted to forward relayed transactions to us. the forwarder is required to verify the sender's signature, and verify the call is not a replay."
      }
    },
    "version": 1
  },
  "storageLayout": {
    "storage": [
      {
        "astId": 918,
        "contract": "contracts/protocol/CaskSubscriptions.sol:CaskSubscriptions",
        "label": "_initialized",
        "offset": 0,
        "slot": "0",
        "type": "t_bool"
      },
      {
        "astId": 921,
        "contract": "contracts/protocol/CaskSubscriptions.sol:CaskSubscriptions",
        "label": "_initializing",
        "offset": 1,
        "slot": "0",
        "type": "t_bool"
      },
      {
        "astId": 3142,
        "contract": "contracts/protocol/CaskSubscriptions.sol:CaskSubscriptions",
        "label": "__gap",
        "offset": 0,
        "slot": "1",
        "type": "t_array(t_uint256)50_storage"
      },
      {
        "astId": 3391,
        "contract": "contracts/protocol/CaskSubscriptions.sol:CaskSubscriptions",
        "label": "__gap",
        "offset": 0,
        "slot": "51",
        "type": "t_array(t_uint256)50_storage"
      },
      {
        "astId": 72,
        "contract": "contracts/protocol/CaskSubscriptions.sol:CaskSubscriptions",
        "label": "_trustedForwarder",
        "offset": 0,
        "slot": "101",
        "type": "t_address"
      },
      {
        "astId": 1861,
        "contract": "contracts/protocol/CaskSubscriptions.sol:CaskSubscriptions",
        "label": "_name",
        "offset": 0,
        "slot": "102",
        "type": "t_string_storage"
      },
      {
        "astId": 1863,
        "contract": "contracts/protocol/CaskSubscriptions.sol:CaskSubscriptions",
        "label": "_symbol",
        "offset": 0,
        "slot": "103",
        "type": "t_string_storage"
      },
      {
        "astId": 1867,
        "contract": "contracts/protocol/CaskSubscriptions.sol:CaskSubscriptions",
        "label": "_owners",
        "offset": 0,
        "slot": "104",
        "type": "t_mapping(t_uint256,t_address)"
      },
      {
        "astId": 1871,
        "contract": "contracts/protocol/CaskSubscriptions.sol:CaskSubscriptions",
        "label": "_balances",
        "offset": 0,
        "slot": "105",
        "type": "t_mapping(t_address,t_uint256)"
      },
      {
        "astId": 1875,
        "contract": "contracts/protocol/CaskSubscriptions.sol:CaskSubscriptions",
        "label": "_tokenApprovals",
        "offset": 0,
        "slot": "106",
        "type": "t_mapping(t_uint256,t_address)"
      },
      {
        "astId": 1881,
        "contract": "contracts/protocol/CaskSubscriptions.sol:CaskSubscriptions",
        "label": "_operatorApprovals",
        "offset": 0,
        "slot": "107",
        "type": "t_mapping(t_address,t_mapping(t_address,t_bool))"
      },
      {
        "astId": 2692,
        "contract": "contracts/protocol/CaskSubscriptions.sol:CaskSubscriptions",
        "label": "__gap",
        "offset": 0,
        "slot": "108",
        "type": "t_array(t_uint256)44_storage"
      },
      {
        "astId": 796,
        "contract": "contracts/protocol/CaskSubscriptions.sol:CaskSubscriptions",
        "label": "_owner",
        "offset": 0,
        "slot": "152",
        "type": "t_address"
      },
      {
        "astId": 910,
        "contract": "contracts/protocol/CaskSubscriptions.sol:CaskSubscriptions",
        "label": "__gap",
        "offset": 0,
        "slot": "153",
        "type": "t_array(t_uint256)49_storage"
      },
      {
        "astId": 1006,
        "contract": "contracts/protocol/CaskSubscriptions.sol:CaskSubscriptions",
        "label": "_paused",
        "offset": 0,
        "slot": "202",
        "type": "t_bool"
      },
      {
        "astId": 1097,
        "contract": "contracts/protocol/CaskSubscriptions.sol:CaskSubscriptions",
        "label": "__gap",
        "offset": 0,
        "slot": "203",
        "type": "t_array(t_uint256)49_storage"
      },
      {
        "astId": 11933,
        "contract": "contracts/protocol/CaskSubscriptions.sol:CaskSubscriptions",
        "label": "subscriptionManager",
        "offset": 0,
        "slot": "252",
        "type": "t_contract(ICaskSubscriptionManager)8752"
      },
      {
        "astId": 11937,
        "contract": "contracts/protocol/CaskSubscriptions.sol:CaskSubscriptions",
        "label": "subscriptionPlans",
        "offset": 0,
        "slot": "253",
        "type": "t_contract(ICaskSubscriptionPlans)8900"
      },
      {
        "astId": 11940,
        "contract": "contracts/protocol/CaskSubscriptions.sol:CaskSubscriptions",
        "label": "allSubscriptions",
        "offset": 0,
        "slot": "254",
        "type": "t_array(t_uint256)dyn_storage"
      },
      {
        "astId": 11946,
        "contract": "contracts/protocol/CaskSubscriptions.sol:CaskSubscriptions",
        "label": "consumerSubscriptions",
        "offset": 0,
        "slot": "255",
        "type": "t_mapping(t_address,t_array(t_uint256)dyn_storage)"
      },
      {
        "astId": 11951,
        "contract": "contracts/protocol/CaskSubscriptions.sol:CaskSubscriptions",
        "label": "subscriptions",
        "offset": 0,
        "slot": "256",
        "type": "t_mapping(t_uint256,t_struct(Subscription)8949_storage)"
      },
      {
        "astId": 11955,
        "contract": "contracts/protocol/CaskSubscriptions.sol:CaskSubscriptions",
        "label": "pendingPlanChanges",
        "offset": 0,
        "slot": "257",
        "type": "t_mapping(t_uint256,t_bytes32)"
      },
      {
        "astId": 11961,
        "contract": "contracts/protocol/CaskSubscriptions.sol:CaskSubscriptions",
        "label": "providerSubscriptions",
        "offset": 0,
        "slot": "258",
        "type": "t_mapping(t_address,t_array(t_uint256)dyn_storage)"
      },
      {
        "astId": 11965,
        "contract": "contracts/protocol/CaskSubscriptions.sol:CaskSubscriptions",
        "label": "providerActiveSubscriptionCount",
        "offset": 0,
        "slot": "259",
        "type": "t_mapping(t_address,t_uint256)"
      },
      {
        "astId": 11971,
        "contract": "contracts/protocol/CaskSubscriptions.sol:CaskSubscriptions",
        "label": "planActiveSubscriptionCount",
        "offset": 0,
        "slot": "260",
        "type": "t_mapping(t_address,t_mapping(t_uint32,t_uint256))"
      },
      {
        "astId": 12062,
        "contract": "contracts/protocol/CaskSubscriptions.sol:CaskSubscriptions",
        "label": "versionRecipient",
        "offset": 0,
        "slot": "261",
        "type": "t_string_storage"
      }
    ],
    "types": {
      "t_address": {
        "encoding": "inplace",
        "label": "address",
        "numberOfBytes": "20"
      },
      "t_array(t_uint256)44_storage": {
        "base": "t_uint256",
        "encoding": "inplace",
        "label": "uint256[44]",
        "numberOfBytes": "1408"
      },
      "t_array(t_uint256)49_storage": {
        "base": "t_uint256",
        "encoding": "inplace",
        "label": "uint256[49]",
        "numberOfBytes": "1568"
      },
      "t_array(t_uint256)50_storage": {
        "base": "t_uint256",
        "encoding": "inplace",
        "label": "uint256[50]",
        "numberOfBytes": "1600"
      },
      "t_array(t_uint256)dyn_storage": {
        "base": "t_uint256",
        "encoding": "dynamic_array",
        "label": "uint256[]",
        "numberOfBytes": "32"
      },
      "t_bool": {
        "encoding": "inplace",
        "label": "bool",
        "numberOfBytes": "1"
      },
      "t_bytes32": {
        "encoding": "inplace",
        "label": "bytes32",
        "numberOfBytes": "32"
      },
      "t_contract(ICaskSubscriptionManager)8752": {
        "encoding": "inplace",
        "label": "contract ICaskSubscriptionManager",
        "numberOfBytes": "20"
      },
      "t_contract(ICaskSubscriptionPlans)8900": {
        "encoding": "inplace",
        "label": "contract ICaskSubscriptionPlans",
        "numberOfBytes": "20"
      },
      "t_enum(SubscriptionStatus)8914": {
        "encoding": "inplace",
        "label": "enum ICaskSubscriptions.SubscriptionStatus",
        "numberOfBytes": "1"
      },
      "t_mapping(t_address,t_array(t_uint256)dyn_storage)": {
        "encoding": "mapping",
        "key": "t_address",
        "label": "mapping(address => uint256[])",
        "numberOfBytes": "32",
        "value": "t_array(t_uint256)dyn_storage"
      },
      "t_mapping(t_address,t_bool)": {
        "encoding": "mapping",
        "key": "t_address",
        "label": "mapping(address => bool)",
        "numberOfBytes": "32",
        "value": "t_bool"
      },
      "t_mapping(t_address,t_mapping(t_address,t_bool))": {
        "encoding": "mapping",
        "key": "t_address",
        "label": "mapping(address => mapping(address => bool))",
        "numberOfBytes": "32",
        "value": "t_mapping(t_address,t_bool)"
      },
      "t_mapping(t_address,t_mapping(t_uint32,t_uint256))": {
        "encoding": "mapping",
        "key": "t_address",
        "label": "mapping(address => mapping(uint32 => uint256))",
        "numberOfBytes": "32",
        "value": "t_mapping(t_uint32,t_uint256)"
      },
      "t_mapping(t_address,t_uint256)": {
        "encoding": "mapping",
        "key": "t_address",
        "label": "mapping(address => uint256)",
        "numberOfBytes": "32",
        "value": "t_uint256"
      },
      "t_mapping(t_uint256,t_address)": {
        "encoding": "mapping",
        "key": "t_uint256",
        "label": "mapping(uint256 => address)",
        "numberOfBytes": "32",
        "value": "t_address"
      },
      "t_mapping(t_uint256,t_bytes32)": {
        "encoding": "mapping",
        "key": "t_uint256",
        "label": "mapping(uint256 => bytes32)",
        "numberOfBytes": "32",
        "value": "t_bytes32"
      },
      "t_mapping(t_uint256,t_struct(Subscription)8949_storage)": {
        "encoding": "mapping",
        "key": "t_uint256",
        "label": "mapping(uint256 => struct ICaskSubscriptions.Subscription)",
        "numberOfBytes": "32",
        "value": "t_struct(Subscription)8949_storage"
      },
      "t_mapping(t_uint32,t_uint256)": {
        "encoding": "mapping",
        "key": "t_uint32",
        "label": "mapping(uint32 => uint256)",
        "numberOfBytes": "32",
        "value": "t_uint256"
      },
      "t_string_storage": {
        "encoding": "bytes",
        "label": "string",
        "numberOfBytes": "32"
      },
      "t_struct(Subscription)8949_storage": {
        "encoding": "inplace",
        "label": "struct ICaskSubscriptions.Subscription",
        "members": [
          {
            "astId": 8923,
            "contract": "contracts/protocol/CaskSubscriptions.sol:CaskSubscriptions",
            "label": "planData",
            "offset": 0,
            "slot": "0",
            "type": "t_bytes32"
          },
          {
            "astId": 8925,
            "contract": "contracts/protocol/CaskSubscriptions.sol:CaskSubscriptions",
            "label": "networkData",
            "offset": 0,
            "slot": "1",
            "type": "t_bytes32"
          },
          {
            "astId": 8927,
            "contract": "contracts/protocol/CaskSubscriptions.sol:CaskSubscriptions",
            "label": "discountId",
            "offset": 0,
            "slot": "2",
            "type": "t_bytes32"
          },
          {
            "astId": 8929,
            "contract": "contracts/protocol/CaskSubscriptions.sol:CaskSubscriptions",
            "label": "discountData",
            "offset": 0,
            "slot": "3",
            "type": "t_bytes32"
          },
          {
            "astId": 8931,
            "contract": "contracts/protocol/CaskSubscriptions.sol:CaskSubscriptions",
            "label": "ref",
            "offset": 0,
            "slot": "4",
            "type": "t_bytes32"
          },
          {
            "astId": 8933,
            "contract": "contracts/protocol/CaskSubscriptions.sol:CaskSubscriptions",
            "label": "provider",
            "offset": 0,
            "slot": "5",
            "type": "t_address"
          },
          {
            "astId": 8936,
            "contract": "contracts/protocol/CaskSubscriptions.sol:CaskSubscriptions",
            "label": "status",
            "offset": 20,
            "slot": "5",
            "type": "t_enum(SubscriptionStatus)8914"
          },
          {
            "astId": 8938,
            "contract": "contracts/protocol/CaskSubscriptions.sol:CaskSubscriptions",
            "label": "planId",
            "offset": 21,
            "slot": "5",
            "type": "t_uint32"
          },
          {
            "astId": 8940,
            "contract": "contracts/protocol/CaskSubscriptions.sol:CaskSubscriptions",
            "label": "createdAt",
            "offset": 25,
            "slot": "5",
            "type": "t_uint32"
          },
          {
            "astId": 8942,
            "contract": "contracts/protocol/CaskSubscriptions.sol:CaskSubscriptions",
            "label": "renewAt",
            "offset": 0,
            "slot": "6",
            "type": "t_uint32"
          },
          {
            "astId": 8944,
            "contract": "contracts/protocol/CaskSubscriptions.sol:CaskSubscriptions",
            "label": "minTermAt",
            "offset": 4,
            "slot": "6",
            "type": "t_uint32"
          },
          {
            "astId": 8946,
            "contract": "contracts/protocol/CaskSubscriptions.sol:CaskSubscriptions",
            "label": "cancelAt",
            "offset": 8,
            "slot": "6",
            "type": "t_uint32"
          },
          {
            "astId": 8948,
            "contract": "contracts/protocol/CaskSubscriptions.sol:CaskSubscriptions",
            "label": "cid",
            "offset": 0,
            "slot": "7",
            "type": "t_string_storage"
          }
        ],
        "numberOfBytes": "256"
      },
      "t_uint256": {
        "encoding": "inplace",
        "label": "uint256",
        "numberOfBytes": "32"
      },
      "t_uint32": {
        "encoding": "inplace",
        "label": "uint32",
        "numberOfBytes": "4"
      }
    }
  }
}