{
  "address": "0x9FFD719316D91A4b96631432Ab147B0FF37D2cc3",
  "abi": [
    {
      "inputs": [],
      "stateMutability": "nonpayable",
      "type": "constructor"
    },
    {
      "anonymous": false,
      "inputs": [
        {
          "indexed": true,
          "internalType": "address",
          "name": "previousOwner",
          "type": "address"
        },
        {
          "indexed": true,
          "internalType": "address",
          "name": "newOwner",
          "type": "address"
        }
      ],
      "name": "OwnershipTransferred",
      "type": "event"
    },
    {
      "anonymous": false,
      "inputs": [
        {
          "indexed": false,
          "internalType": "address",
          "name": "account",
          "type": "address"
        }
      ],
      "name": "Paused",
      "type": "event"
    },
    {
      "anonymous": false,
      "inputs": [
        {
          "indexed": false,
          "internalType": "uint256",
          "name": "limit",
          "type": "uint256"
        },
        {
          "indexed": false,
          "internalType": "uint256",
          "name": "jobsProcessed",
          "type": "uint256"
        },
        {
          "indexed": false,
          "internalType": "uint256",
          "name": "depth",
          "type": "uint256"
        },
        {
          "indexed": false,
          "internalType": "uint8",
          "name": "queueId",
          "type": "uint8"
        },
        {
          "indexed": false,
          "internalType": "uint256",
          "name": "queueRemaining",
          "type": "uint256"
        },
        {
          "indexed": false,
          "internalType": "uint32",
          "name": "currentBucket",
          "type": "uint32"
        }
      ],
      "name": "QueueRunReport",
      "type": "event"
    },
    {
      "anonymous": false,
      "inputs": [
        {
          "indexed": false,
          "internalType": "address",
          "name": "registry",
          "type": "address"
        }
      ],
      "name": "RegistryAllowed",
      "type": "event"
    },
    {
      "anonymous": false,
      "inputs": [
        {
          "indexed": false,
          "internalType": "address",
          "name": "registry",
          "type": "address"
        }
      ],
      "name": "RegistryDisallowed",
      "type": "event"
    },
    {
      "anonymous": false,
      "inputs": [],
      "name": "SetChainlinkAddresses",
      "type": "event"
    },
    {
      "anonymous": false,
      "inputs": [
        {
          "indexed": false,
          "internalType": "address",
          "name": "feeDistributor",
          "type": "address"
        }
      ],
      "name": "SetFeeDistributor",
      "type": "event"
    },
    {
      "anonymous": false,
      "inputs": [],
      "name": "SetParameters",
      "type": "event"
    },
    {
      "anonymous": false,
      "inputs": [
        {
          "indexed": false,
          "internalType": "address",
          "name": "account",
          "type": "address"
        }
      ],
      "name": "Unpaused",
      "type": "event"
    },
    {
      "anonymous": false,
      "inputs": [
        {
          "indexed": false,
          "internalType": "uint8",
          "name": "queueId",
          "type": "uint8"
        },
        {
          "indexed": false,
          "internalType": "bytes32",
          "name": "workUnit",
          "type": "bytes32"
        }
      ],
      "name": "WorkUnitProcessed",
      "type": "event"
    },
    {
      "anonymous": false,
      "inputs": [
        {
          "indexed": false,
          "internalType": "uint8",
          "name": "queueId",
          "type": "uint8"
        },
        {
          "indexed": false,
          "internalType": "bytes32",
          "name": "workUnit",
          "type": "bytes32"
        },
        {
          "indexed": false,
          "internalType": "uint32",
          "name": "processAt",
          "type": "uint32"
        }
      ],
      "name": "WorkUnitQueued",
      "type": "event"
    },
    {
      "inputs": [
        {
          "internalType": "address",
          "name": "_registry",
          "type": "address"
        },
        {
          "internalType": "enum ICaskChainlinkTopupManager.ChainlinkRegistryType",
          "name": "_registryType",
          "type": "uint8"
        }
      ],
      "name": "allowRegistry",
      "outputs": [],
      "stateMutability": "nonpayable",
      "type": "function"
    },
    {
      "inputs": [
        {
          "internalType": "address",
          "name": "",
          "type": "address"
        }
      ],
      "name": "allowedRegistries",
      "outputs": [
        {
          "internalType": "enum ICaskChainlinkTopupManager.ChainlinkRegistryType",
          "name": "",
          "type": "uint8"
        }
      ],
      "stateMutability": "view",
      "type": "function"
    },
    {
      "inputs": [],
      "name": "caskChainlinkTopup",
      "outputs": [
        {
          "internalType": "contract ICaskChainlinkTopup",
          "name": "",
          "type": "address"
        }
      ],
      "stateMutability": "view",
      "type": "function"
    },
    {
      "inputs": [],
      "name": "caskVault",
      "outputs": [
        {
          "internalType": "contract ICaskVault",
          "name": "",
          "type": "address"
        }
      ],
      "stateMutability": "view",
      "type": "function"
    },
    {
      "inputs": [
        {
          "internalType": "bytes",
          "name": "checkData",
          "type": "bytes"
        }
      ],
      "name": "checkUpkeep",
      "outputs": [
        {
          "internalType": "bool",
          "name": "upkeepNeeded",
          "type": "bool"
        },
        {
          "internalType": "bytes",
          "name": "performData",
          "type": "bytes"
        }
      ],
      "stateMutability": "view",
      "type": "function"
    },
    {
      "inputs": [
        {
          "internalType": "address",
          "name": "_registry",
          "type": "address"
        }
      ],
      "name": "disallowRegistry",
      "outputs": [],
      "stateMutability": "nonpayable",
      "type": "function"
    },
    {
      "inputs": [],
      "name": "feeDistributor",
      "outputs": [
        {
          "internalType": "address",
          "name": "",
          "type": "address"
        }
      ],
      "stateMutability": "view",
      "type": "function"
    },
    {
      "inputs": [
        {
          "internalType": "address",
          "name": "_caskChainlinkTopup",
          "type": "address"
        },
        {
          "internalType": "address",
          "name": "_caskVault",
          "type": "address"
        },
        {
          "internalType": "address",
          "name": "_feeDistributor",
          "type": "address"
        }
      ],
      "name": "initialize",
      "outputs": [],
      "stateMutability": "nonpayable",
      "type": "function"
    },
    {
      "inputs": [],
      "name": "linkBridgeToken",
      "outputs": [
        {
          "internalType": "contract IERC20Metadata",
          "name": "",
          "type": "address"
        }
      ],
      "stateMutability": "view",
      "type": "function"
    },
    {
      "inputs": [],
      "name": "linkFundingToken",
      "outputs": [
        {
          "internalType": "contract LinkTokenInterface",
          "name": "",
          "type": "address"
        }
      ],
      "stateMutability": "view",
      "type": "function"
    },
    {
      "inputs": [],
      "name": "linkPriceFeed",
      "outputs": [
        {
          "internalType": "contract AggregatorV3Interface",
          "name": "",
          "type": "address"
        }
      ],
      "stateMutability": "view",
      "type": "function"
    },
    {
      "inputs": [],
      "name": "linkSwapData",
      "outputs": [
        {
          "internalType": "bytes",
          "name": "",
          "type": "bytes"
        }
      ],
      "stateMutability": "view",
      "type": "function"
    },
    {
      "inputs": [
        {
          "internalType": "uint256",
          "name": "",
          "type": "uint256"
        }
      ],
      "name": "linkSwapPath",
      "outputs": [
        {
          "internalType": "address",
          "name": "",
          "type": "address"
        }
      ],
      "stateMutability": "view",
      "type": "function"
    },
    {
      "inputs": [],
      "name": "linkSwapProtocol",
      "outputs": [
        {
          "internalType": "enum ICaskChainlinkTopupManager.SwapProtocol",
          "name": "",
          "type": "uint8"
        }
      ],
      "stateMutability": "view",
      "type": "function"
    },
    {
      "inputs": [],
      "name": "linkSwapRouter",
      "outputs": [
        {
          "internalType": "address",
          "name": "",
          "type": "address"
        }
      ],
      "stateMutability": "view",
      "type": "function"
    },
    {
      "inputs": [],
      "name": "maxPriceFeedAge",
      "outputs": [
        {
          "internalType": "uint256",
          "name": "",
          "type": "uint256"
        }
      ],
      "stateMutability": "view",
      "type": "function"
    },
    {
      "inputs": [],
      "name": "maxQueueAge",
      "outputs": [
        {
          "internalType": "uint32",
          "name": "",
          "type": "uint32"
        }
      ],
      "stateMutability": "view",
      "type": "function"
    },
    {
      "inputs": [],
      "name": "maxSkips",
      "outputs": [
        {
          "internalType": "uint256",
          "name": "",
          "type": "uint256"
        }
      ],
      "stateMutability": "view",
      "type": "function"
    },
    {
      "inputs": [],
      "name": "maxSwapSlippageBps",
      "outputs": [
        {
          "internalType": "uint256",
          "name": "",
          "type": "uint256"
        }
      ],
      "stateMutability": "view",
      "type": "function"
    },
    {
      "inputs": [],
      "name": "maxTopupsPerGroupRun",
      "outputs": [
        {
          "internalType": "uint256",
          "name": "",
          "type": "uint256"
        }
      ],
      "stateMutability": "view",
      "type": "function"
    },
    {
      "inputs": [],
      "name": "owner",
      "outputs": [
        {
          "internalType": "address",
          "name": "",
          "type": "address"
        }
      ],
      "stateMutability": "view",
      "type": "function"
    },
    {
      "inputs": [],
      "name": "pause",
      "outputs": [],
      "stateMutability": "nonpayable",
      "type": "function"
    },
    {
      "inputs": [],
      "name": "paused",
      "outputs": [
        {
          "internalType": "bool",
          "name": "",
          "type": "bool"
        }
      ],
      "stateMutability": "view",
      "type": "function"
    },
    {
      "inputs": [],
      "name": "pegswap",
      "outputs": [
        {
          "internalType": "contract IPegSwap",
          "name": "",
          "type": "address"
        }
      ],
      "stateMutability": "view",
      "type": "function"
    },
    {
      "inputs": [
        {
          "internalType": "bytes",
          "name": "performData",
          "type": "bytes"
        }
      ],
      "name": "performUpkeep",
      "outputs": [],
      "stateMutability": "nonpayable",
      "type": "function"
    },
    {
      "inputs": [],
      "name": "queueBucketSize",
      "outputs": [
        {
          "internalType": "uint32",
          "name": "",
          "type": "uint32"
        }
      ],
      "stateMutability": "view",
      "type": "function"
    },
    {
      "inputs": [
        {
          "internalType": "uint8",
          "name": "_queueId",
          "type": "uint8"
        },
        {
          "internalType": "uint32",
          "name": "_bucket",
          "type": "uint32"
        },
        {
          "internalType": "uint256",
          "name": "_idx",
          "type": "uint256"
        }
      ],
      "name": "queueItem",
      "outputs": [
        {
          "internalType": "bytes32",
          "name": "",
          "type": "bytes32"
        }
      ],
      "stateMutability": "view",
      "type": "function"
    },
    {
      "inputs": [
        {
          "internalType": "uint8",
          "name": "_queueId",
          "type": "uint8"
        }
      ],
      "name": "queuePosition",
      "outputs": [
        {
          "internalType": "uint32",
          "name": "",
          "type": "uint32"
        }
      ],
      "stateMutability": "view",
      "type": "function"
    },
    {
      "inputs": [
        {
          "internalType": "uint8",
          "name": "_queueId",
          "type": "uint8"
        },
        {
          "internalType": "uint32",
          "name": "_bucket",
          "type": "uint32"
        }
      ],
      "name": "queueSize",
      "outputs": [
        {
          "internalType": "uint256",
          "name": "",
          "type": "uint256"
        }
      ],
      "stateMutability": "view",
      "type": "function"
    },
    {
      "inputs": [
        {
          "internalType": "address",
          "name": "_asset",
          "type": "address"
        },
        {
          "internalType": "address",
          "name": "_dest",
          "type": "address"
        }
      ],
      "name": "recoverFunds",
      "outputs": [],
      "stateMutability": "nonpayable",
      "type": "function"
    },
    {
      "inputs": [
        {
          "internalType": "bytes32",
          "name": "_chainlinkTopupId",
          "type": "bytes32"
        }
      ],
      "name": "registerChainlinkTopup",
      "outputs": [],
      "stateMutability": "nonpayable",
      "type": "function"
    },
    {
      "inputs": [
        {
          "internalType": "address",
          "name": "_registry",
          "type": "address"
        }
      ],
      "name": "registryAllowed",
      "outputs": [
        {
          "internalType": "bool",
          "name": "",
          "type": "bool"
        }
      ],
      "stateMutability": "view",
      "type": "function"
    },
    {
      "inputs": [],
      "name": "renounceOwnership",
      "outputs": [],
      "stateMutability": "nonpayable",
      "type": "function"
    },
    {
      "inputs": [
        {
          "internalType": "address",
          "name": "_linkBridgeToken",
          "type": "address"
        },
        {
          "internalType": "address",
          "name": "_linkFundingToken",
          "type": "address"
        },
        {
          "internalType": "address",
          "name": "_linkPriceFeed",
          "type": "address"
        },
        {
          "internalType": "address",
          "name": "_linkSwapRouter",
          "type": "address"
        },
        {
          "internalType": "address[]",
          "name": "_linkSwapPath",
          "type": "address[]"
        },
        {
          "internalType": "address",
          "name": "_pegswap",
          "type": "address"
        },
        {
          "internalType": "enum ICaskChainlinkTopupManager.SwapProtocol",
          "name": "_linkSwapProtocol",
          "type": "uint8"
        },
        {
          "internalType": "bytes",
          "name": "_linkSwapData",
          "type": "bytes"
        }
      ],
      "name": "setChainklinkAddresses",
      "outputs": [],
      "stateMutability": "nonpayable",
      "type": "function"
    },
    {
      "inputs": [
        {
          "internalType": "address",
          "name": "_feeDistributor",
          "type": "address"
        }
      ],
      "name": "setFeeDistributor",
      "outputs": [],
      "stateMutability": "nonpayable",
      "type": "function"
    },
    {
      "inputs": [
        {
          "internalType": "uint32",
          "name": "_maxQueueAge",
          "type": "uint32"
        }
      ],
      "name": "setMaxQueueAge",
      "outputs": [],
      "stateMutability": "nonpayable",
      "type": "function"
    },
    {
      "inputs": [
        {
          "internalType": "uint256",
          "name": "_maxSkips",
          "type": "uint256"
        },
        {
          "internalType": "uint256",
          "name": "_topupFeeBps",
          "type": "uint256"
        },
        {
          "internalType": "uint256",
          "name": "_topupFeeMin",
          "type": "uint256"
        },
        {
          "internalType": "uint256",
          "name": "_maxPriceFeedAge",
          "type": "uint256"
        },
        {
          "internalType": "uint256",
          "name": "_maxTopupsPerGroupRun",
          "type": "uint256"
        },
        {
          "internalType": "uint256",
          "name": "_maxSwapSlippageBps",
          "type": "uint256"
        },
        {
          "internalType": "uint32",
          "name": "_queueBucketSize",
          "type": "uint32"
        },
        {
          "internalType": "uint32",
          "name": "_maxQueueAge",
          "type": "uint32"
        }
      ],
      "name": "setParameters",
      "outputs": [],
      "stateMutability": "nonpayable",
      "type": "function"
    },
    {
      "inputs": [
        {
          "internalType": "uint32",
          "name": "_queueBucketSize",
          "type": "uint32"
        }
      ],
      "name": "setQueueBucketSize",
      "outputs": [],
      "stateMutability": "nonpayable",
      "type": "function"
    },
    {
      "inputs": [
        {
          "internalType": "uint8",
          "name": "_queueId",
          "type": "uint8"
        },
        {
          "internalType": "uint32",
          "name": "_timestamp",
          "type": "uint32"
        }
      ],
      "name": "setQueuePosition",
      "outputs": [],
      "stateMutability": "nonpayable",
      "type": "function"
    },
    {
      "inputs": [],
      "name": "topupFeeBps",
      "outputs": [
        {
          "internalType": "uint256",
          "name": "",
          "type": "uint256"
        }
      ],
      "stateMutability": "view",
      "type": "function"
    },
    {
      "inputs": [],
      "name": "topupFeeMin",
      "outputs": [
        {
          "internalType": "uint256",
          "name": "",
          "type": "uint256"
        }
      ],
      "stateMutability": "view",
      "type": "function"
    },
    {
      "inputs": [
        {
          "internalType": "address",
          "name": "newOwner",
          "type": "address"
        }
      ],
      "name": "transferOwnership",
      "outputs": [],
      "stateMutability": "nonpayable",
      "type": "function"
    },
    {
      "inputs": [],
      "name": "unpause",
      "outputs": [],
      "stateMutability": "nonpayable",
      "type": "function"
    }
  ],
  "transactionHash": "0x66f1692fbf8e0e7a3f1e230b49a8204dd0ee24cee8d05dc9e5dcf8a8c02a1f21",
  "args": [],
  "numDeployments": 5,
  "solcInputHash": "0882abc7c4e26d1403a1ff9d0351d7f2",
  "bytecode": "0x60806040523480156200001157600080fd5b50600054610100900460ff166200002f5760005460ff161562000039565b62000039620000de565b620000a15760405162461bcd60e51b815260206004820152602e60248201527f496e697469616c697a61626c653a20636f6e747261637420697320616c72656160448201526d191e481a5b9a5d1a585b1a5e995960921b606482015260840160405180910390fd5b600054610100900460ff16158015620000c4576000805461ffff19166101011790555b8015620000d7576000805461ff00191690555b5062000102565b6000620000f630620000fc60201b620018d51760201c565b15905090565b3b151590565b61580180620001126000396000f3fe608060405234801561001057600080fd5b50600436106102685760003560e01c80638456cb5911610151578063c6f8806c116100c3578063e6cab67111610087578063e6cab67114610570578063f009451e14610583578063f2fde38b14610596578063faec9c22146105a9578063fce02400146105bc578063ff7137fd146105cf57600080fd5b8063c6f8806c1461050c578063ccfc2e8d14610524578063cd48a61414610537578063d5f59fb91461054a578063dfd609bb1461055d57600080fd5b8063aa878f7611610115578063aa878f76146104b8578063b7c3565d146104cb578063b95f1624146104d4578063c0c53b8b146104e7578063c29c0e9c146104fa578063c50646531461050357600080fd5b80638456cb59146104695780638bddd2e4146104715780638da5cb5b146104815780638dc9bc0414610492578063a47755d1146104a557600080fd5b80632f77bb66116101ea5780635c975abb116101ae5780635c975abb146103ee5780635d59efb7146104055780636361d9491461041a5780636e04ff0d1461042d578063715018a61461044e578063729d81071461045657600080fd5b80632f77bb6614610379578063301cce60146103825780633f4ba83a146103a35780634585e33b146103ab5780635bd482fd146103be57600080fd5b80630d43e8ad116102315780630d43e8ad146102ef57806314fad70714610302578063191888f6146103155780631c39033c1461032857806324ae6a271461036657600080fd5b8062912b371461026d57806305f2becf1461029d57806306cd9e18146102b05780630816c847146102c55780630caae41d146102dc575b600080fd5b60d154610280906001600160a01b031681565b6040516001600160a01b0390911681526020015b60405180910390f35b60cd54610280906001600160a01b031681565b6102c36102be3660046144df565b6105d8565b005b6102ce60d95481565b604051908152602001610294565b6102c36102ea36600461451d565b6106d6565b60dc54610280906001600160a01b031681565b6102ce610310366004614556565b610738565b60cf54610280906001600160a01b031681565b610351610336366004614597565b60ff16600090815260cb602052604090205463ffffffff1690565b60405163ffffffff9091168152602001610294565b6102c36103743660046145b4565b610782565b6102ce60da5481565b60d45461039690600160a01b900460ff1681565b60405161029491906145f8565b6102c36108b0565b6102c36103b9366004614653565b6108e4565b6103e16103cc3660046144df565b60cc6020526000908152604090205460ff1681565b6040516102949190614694565b60655460ff165b6040519015158152602001610294565b61040d610cb9565b6040516102949190614700565b6102c3610428366004614713565b610d47565b61044061043b366004614653565b610e36565b604051610294929190614745565b6102c3610fdd565b6102c3610464366004614760565b611011565b6102c3611063565b60c9546103519063ffffffff1681565b6033546001600160a01b0316610280565b6102c36104a0366004614795565b611095565b60ce54610280906001600160a01b031681565b6102ce6104c636600461451d565b61119f565b6102ce60db5481565b6102806104e23660046148a2565b6111ca565b6102c36104f53660046148bb565b6111f4565b6102ce60d75481565b6102ce60d65481565b60c95461035190640100000000900463ffffffff1681565b6102c36105323660046144df565b611409565b6102c3610545366004614760565b6114d2565b6103f56105583660046144df565b611518565b6102c361056b366004614906565b611550565b6102c361057e3660046148a2565b61163b565b60d454610280906001600160a01b031681565b6102c36105a43660046144df565b61183a565b60d354610280906001600160a01b031681565b60d054610280906001600160a01b031681565b6102ce60d85481565b6033546001600160a01b0316331461060b5760405162461bcd60e51b815260040161060290614979565b60405180910390fd5b6001600160a01b038116600090815260cc602052604081205460ff166004811115610638576106386145e2565b141561067e5760405162461bcd60e51b815260206004820152601560248201527408549151d254d5149657d393d517d0531313d5d151605a1b6044820152606401610602565b6001600160a01b038116600081815260cc6020908152604091829020805460ff1916905590519182527f41ff3cbb6d9f3c743a5fd7b126595848bf20fe04ced3af1bcfc8313f20f925c391015b60405180910390a150565b6033546001600160a01b031633146107005760405162461bcd60e51b815260040161060290614979565b610709816118db565b60ff92909216600090815260cb60205260409020805463ffffffff191663ffffffff9093169290921790915550565b60ff8316600090815260ca6020908152604080832063ffffffff86168452909152812080548390811061076d5761076d6149ae565b906000526020600020015490505b9392505050565b6033546001600160a01b031633146107ac5760405162461bcd60e51b815260040161060290614979565b6040516370a0823160e01b81523060048201526001600160a01b0383169063a9059cbb90839083906370a082319060240160206040518083038186803b1580156107f557600080fd5b505afa158015610809573d6000803e3d6000fd5b505050506040513d601f19601f8201168201806040525081019061082d91906149c4565b6040516001600160e01b031960e085901b1681526001600160a01b0390921660048301526024820152604401602060405180830381600087803b15801561087357600080fd5b505af1158015610887573d6000803e3d6000fd5b505050506040513d601f19601f820116820180604052508101906108ab91906149ed565b505050565b6033546001600160a01b031633146108da5760405162461bcd60e51b815260040161060290614979565b6108e2611905565b565b60655460ff16156109075760405162461bcd60e51b815260040161060290614a08565b6002609754141561095a5760405162461bcd60e51b815260206004820152601f60248201527f5265656e7472616e637947756172643a207265656e7472616e742063616c6c006044820152606401610602565b60026097556000808061096f84860186614a32565b925092509250600061097f611998565b905060008061098f866005614a76565b60ff8516600090815260cb602052604090205490915063ffffffff166109d55760ff8416600090815260cb60205260409020805463ffffffff191663ffffffff85161790555b60ff8416600090815260cb602052604090205463ffffffff80851691161115610a2d5760405162461bcd60e51b815260206004820152600a60248201526921544f4f5f4541524c5960b01b6044820152606401610602565b8582108015610a3c5750600081115b8015610a63575060ff8416600090815260cb602052604090205463ffffffff808516911611155b15610c225760ff8416600090815260ca6020908152604080832060cb83528184205463ffffffff1684529091529020548015610b925760ff8516600090815260ca6020908152604080832060cb83528184205463ffffffff1684529091528120610ace600184614a95565b81548110610ade57610ade6149ae565b600091825260208083209091015460ff8916835260ca8252604080842060cb84528185205463ffffffff168552909252912080549192509080610b2357610b23614aac565b60019003818190600052602060002001600090559055610b4386826119c0565b6040805160ff88168152602081018390527f58c7ae721fd25aaf84e68db9ce9ac6fed4f08438a370a4299d19f8c1425c499e910160405180910390a1610b8a600185614ac2565b935050610c1c565b60ff8516600090815260cb602052604090205463ffffffff80861691161015610c165760c95460ff8616600090815260cb60205260408120805463ffffffff93841693919291610be491859116614ada565b92506101000a81548163ffffffff021916908363ffffffff160217905550600182610c0f9190614a95565b9150610c1c565b50610c22565b50610a2d565b60ff8416600081815260ca6020908152604080832060cb8084528285205463ffffffff168086529184528285205494869052835281518b81529283018790528282018a90526060830194909452608082019290925260a0810192909252517fd69140f88b9a25350749bb371882f4479133fc8b65602aac60f6c1b3598f08329181900360c00190a150506001609755505050505050565b60d58054610cc690614b02565b80601f0160208091040260200160405190810160405280929190818152602001828054610cf290614b02565b8015610d3f5780601f10610d1457610100808354040283529160200191610d3f565b820191906000526020600020905b815481529060010190602001808311610d2257829003601f168201915b505050505081565b6033546001600160a01b03163314610d715760405162461bcd60e51b815260040161060290614979565b6001600160a01b038216610dbc5760405162461bcd60e51b815260206004820152601260248201527121494e56414c49442872656769737472792960701b6044820152606401610602565b6001600160a01b038216600090815260cc60205260409020805482919060ff19166001836004811115610df157610df16145e2565b02179055506040516001600160a01b03831681527faa9fd3a8c3d93ebd697846ec56ec5fa196deef170601239a813cae8d80dfcddb9060200160405180910390a15050565b60006060610e4660655460ff1690565b15610e635750506040805160208101909152600080825290610fd6565b60008080610e7386880188614a32565b9250925092506000610e83611998565b60ff8316600090815260cb602052604090205490915063ffffffff1680610ea75750805b8063ffffffff168263ffffffff1610158015610ee2575060c954640100000000900463ffffffff16610ed98284614b3d565b63ffffffff1610155b15610ef05760019650610f80565b8163ffffffff168163ffffffff1611610f805760ff8316600090815260ca6020908152604080832063ffffffff8516845290915290205415801590610f58575060ff8316600090815260ca6020908152604080832063ffffffff851684529091529020548411155b15610f665760019650610f80565b60c954610f799063ffffffff1682614ada565b9050610ef0565b60ff8316600081815260ca6020908152604080832063ffffffff86168452825291829020548251918201899052918101919091526060810191909152608001604051602081830303815290604052955050505050505b9250929050565b6033546001600160a01b031633146110075760405162461bcd60e51b815260040161060290614979565b6108e26000611ae8565b6033546001600160a01b0316331461103b5760405162461bcd60e51b815260040161060290614979565b60c9805463ffffffff9092166401000000000267ffffffff0000000019909216919091179055565b6033546001600160a01b0316331461108d5760405162461bcd60e51b815260040161060290614979565b6108e2611b3a565b6033546001600160a01b031633146110bf5760405162461bcd60e51b815260040161060290614979565b60cf80546001600160a01b03808d166001600160a01b03199283161790925560d080548c841690831617905560d180548b841690831617905560d38054928a169290911691909117905561111560d287876143ce565b5060d480546001600160a01b0386166001600160a01b03198216811783558592916001600160a81b03191617600160a01b836003811115611158576111586145e2565b021790555061116960d58383614431565b506040517f2a77e01e84a8eac1e6bcac9bde4e5227a63842990baacef9e711c666f86ff1c090600090a150505050505050505050565b60ff8216600090815260ca6020908152604080832063ffffffff851684529091529020545b92915050565b60d281815481106111da57600080fd5b6000918252602090912001546001600160a01b0316905081565b600054610100900460ff1661120f5760005460ff1615611213565b303b155b6112765760405162461bcd60e51b815260206004820152602e60248201527f496e697469616c697a61626c653a20636f6e747261637420697320616c72656160448201526d191e481a5b9a5d1a585b1a5e995960921b6064820152608401610602565b600054610100900460ff16158015611298576000805461ffff19166101011790555b6001600160a01b0384166112ee5760405162461bcd60e51b815260206004820152601c60248201527f21494e56414c4944286361736b436861696e6c696e6b546f70757029000000006044820152606401610602565b6001600160a01b03831661133a5760405162461bcd60e51b815260206004820152601360248201527221494e56414c4944286361736b5661756c742960681b6044820152606401610602565b6001600160a01b03821661138b5760405162461bcd60e51b815260206004820152601860248201527721494e56414c4944286665654469737472696275746f722960401b6044820152606401610602565b60cd80546001600160a01b038087166001600160a01b03199283161790925560ce805486841690831617905560dc805492851692909116919091179055600060d681905560d781905560d881905560d955600160da55606460db556113f161a8c0611b92565b8015611403576000805461ff00191690555b50505050565b6033546001600160a01b031633146114335760405162461bcd60e51b815260040161060290614979565b6001600160a01b0381166114845760405162461bcd60e51b815260206004820152601860248201527721494e56414c4944286665654469737472696275746f722960401b6044820152606401610602565b60dc80546001600160a01b0319166001600160a01b0383169081179091556040519081527f9e9a9a4a82acd1b28aab6bf1d43aad70ae6d290549c0d6183e2e91ebcdf57441906020016106cb565b6033546001600160a01b031633146114fc5760405162461bcd60e51b815260040161060290614979565b60c9805463ffffffff191663ffffffff92909216919091179055565b6000806001600160a01b038316600090815260cc602052604090205460ff166004811115611548576115486145e2565b141592915050565b6033546001600160a01b0316331461157a5760405162461bcd60e51b815260040161060290614979565b61271087106115c35760405162461bcd60e51b815260206004820152601560248201527421494e56414c494428746f7075704665654270732960581b6044820152606401610602565b60d688905560d787905560d886905560d985905560da84905560db83905560c9805463ffffffff8381166401000000000267ffffffffffffffff19909216908516171790556040517f3b5fda6f71b960b21be0b432d9b7c87d9c8c996477ea1eba5c19cb77d1e027aa90600090a15050505050505050565b6002609754141561168e5760405162461bcd60e51b815260206004820152601f60248201527f5265656e7472616e637947756172643a207265656e7472616e742063616c6c006044820152606401610602565b600260975560655460ff16156116b65760405162461bcd60e51b815260040161060290614a08565b60cd5460405163c68f5eb360e01b8152600481018390526000916001600160a01b03169063c68f5eb3906024016101c06040518083038186803b1580156116fc57600080fd5b505afa158015611710573d6000803e3d6000fd5b505050506040513d601f19601f820116820180604052508101906117349190614c37565b9050600081602001511161177e5760405162461bcd60e51b815260206004820152601160248201527021494e56414c49442867726f757049642960781b6044820152606401610602565b61178782611bda565b5060cd54602082015160405163552de85160e11b815260048101919091526000916001600160a01b03169063aa5bd0a29060240160006040518083038186803b1580156117d357600080fd5b505afa1580156117e7573d6000803e3d6000fd5b505050506040513d6000823e601f3d908101601f1916820160405261180f9190810190614d32565b80515190915060011415611830576118306001836020015160001b42611e8f565b5050600160975550565b6033546001600160a01b031633146118645760405162461bcd60e51b815260040161060290614979565b6001600160a01b0381166118c95760405162461bcd60e51b815260206004820152602660248201527f4f776e61626c653a206e6577206f776e657220697320746865207a65726f206160448201526564647265737360d01b6064820152608401610602565b6118d281611ae8565b50565b3b151590565b60c95460009063ffffffff166118f18184614e11565b6118fb9084614b3d565b6111c49190614ada565b60655460ff1661194e5760405162461bcd60e51b815260206004820152601460248201527314185d5cd8589b194e881b9bdd081c185d5cd95960621b6044820152606401610602565b6065805460ff191690557f5db9ee0a495bf2e6ff9c91a7834c1ba4fdd244a5e8aa4e537bd38aeae4b073aa335b6040516001600160a01b03909116815260200160405180910390a1565b60c95460009042906119b09063ffffffff1682614e11565b6119ba9082614b3d565b91505090565b60cd5460405163552de85160e11b8152600481018390526000916001600160a01b03169063aa5bd0a29060240160006040518083038186803b158015611a0557600080fd5b505afa158015611a19573d6000803e3d6000fd5b505050506040513d6000823e601f3d908101601f19168201604052611a419190810190614d32565b805151909150611a5057505050565b6000805b82515181108015611a66575060da5482105b15611ab657611a9183600001518281518110611a8457611a846149ae565b6020026020010151611bda565b15611aa457611aa1600183614ac2565b91505b80611aae81614e34565b915050611a54565b5081515181101580611ac9575060da5481105b15611ade57611ad9848442611e8f565b611403565b6114038484611f57565b603380546001600160a01b038381166001600160a01b0319831681179093556040519116919082907f8be0079c531659141344cd1fd0a4f28419497f9722a3daafe3b4186f6b6457e090600090a35050565b60655460ff1615611b5d5760405162461bcd60e51b815260040161060290614a08565b6065805460ff191660011790557f62e78cea01bee320cd4e420270b5ea74000d11b0c9f74754ebdbfc544b05a25861197b3390565b600054610100900460ff16611bb95760405162461bcd60e51b815260040161060290614e4f565b611bc1611fde565b611bc9612015565b611bd161204c565b6118d281612073565b60cd5460405163c68f5eb360e01b81526004810183905260009182916001600160a01b039091169063c68f5eb3906024016101c06040518083038186803b158015611c2457600080fd5b505afa158015611c38573d6000803e3d6000fd5b505050506040513d601f19601f82011682018060405250810190611c5c9190614c37565b905060018161018001516003811115611c7757611c776145e2565b14611c855750600092915050565b4263ffffffff16816101a0015163ffffffff1610611ca65750600092915050565b611caf836120e0565b611d215760cd54604051635ba581cd60e01b81526001600160a01b0390911690635ba581cd90611ce6908690600190600401614eaa565b600060405180830381600087803b158015611d0057600080fd5b505af1158015611d14573d6000803e3d6000fd5b5060009695505050505050565b8060400151611d2f846122dd565b10611d3d5750600092915050565b600061271060d7548360600151611d549190614a76565b611d5e9190614ec7565b905060d854811015611d6f575060d8545b6000611d7b8583612509565b90508015611e015760cd546060840151604051632d32f27960e21b815260048101889052602481019190915260448101839052606481018490526001600160a01b039091169063b4cbc9e490608401600060405180830381600087803b158015611de457600080fd5b505af1158015611df8573d6000803e3d6000fd5b50505050611e84565b600060d654118015611e19575060d6548360e0015110155b15611e845760cd54604051635ba581cd60e01b81526001600160a01b0390911690635ba581cd90611e51908890600290600401614eaa565b600060405180830381600087803b158015611e6b57600080fd5b505af1158015611e7f573d6000803e3d6000fd5b505050505b506001949350505050565b6000611e9a826118db565b60ff8516600090815260cb602052604090205490915063ffffffff9081169082161015611edc575060ff8316600090815260cb602052604090205463ffffffff165b60ff8416600081815260ca6020908152604080832063ffffffff861680855290835281842080546001810182559085529383902090930187905580519384529083018690528201527f67778e52b18dcf574ab071142a886fce91a8ce5e60e176229fdadb8c063caaed9060600160405180910390a150505050565b6000611f61611998565b60ff8416600081815260ca6020908152604080832063ffffffff861680855290835281842080546001810182559085529383902090930187905580519384529083018690528201529091507f67778e52b18dcf574ab071142a886fce91a8ce5e60e176229fdadb8c063caaed9060600160405180910390a1505050565b600054610100900460ff166120055760405162461bcd60e51b815260040161060290614e4f565b61200d61204c565b6108e26130aa565b600054610100900460ff1661203c5760405162461bcd60e51b815260040161060290614e4f565b61204461204c565b6108e26130da565b600054610100900460ff166108e25760405162461bcd60e51b815260040161060290614e4f565b600054610100900460ff1661209a5760405162461bcd60e51b815260040161060290614e4f565b60c9805463ffffffff191663ffffffff83169081179091556120bd906014614edb565b60c960046101000a81548163ffffffff021916908363ffffffff16021790555050565b60cd5460405163c68f5eb360e01b81526004810183905260009182916001600160a01b039091169063c68f5eb3906024016101c06040518083038186803b15801561212a57600080fd5b505afa15801561213e573d6000803e3d6000fd5b505050506040513d601f19601f820116820180604052508101906121629190614c37565b90506001816101600151600381111561217d5761217d6145e2565b141561218c5761077b8361310d565b600281610160015160038111156121a5576121a56145e2565b141561229f576101408101516001600160a01b0316600090815260cc602052604090205460ff1660048160048111156121e0576121e06145e2565b146121ef575060009392505050565b61014082015161012083015160405163523e3b4b60e11b81526001600160401b0390911660048201526001600160a01b0382169063a47c76969060240160006040518083038186803b15801561224457600080fd5b505afa92505050801561227957506040513d6000823e601f3d908101601f191682016040526122769190810190614f35565b60015b61228857506000949350505050565b506001600160a01b03161515979650505050505050565b600381610160015160038111156122b8576122b86145e2565b14156122d45761014001516001600160a01b0316151592915050565b50600092915050565b60cd5460405163c68f5eb360e01b81526004810183905260009182916001600160a01b039091169063c68f5eb3906024016101c06040518083038186803b15801561232757600080fd5b505afa15801561233b573d6000803e3d6000fd5b505050506040513d601f19601f8201168201806040525081019061235f9190614c37565b90506001600160601b0360018261016001516003811115612382576123826145e2565b14156123985761239184613444565b90506124f9565b600282610160015160038111156123b1576123b16145e2565b14156124555761014082015161012083015160405163523e3b4b60e11b81526001600160401b0390911660048201526001600160a01b0382169063a47c76969060240160006040518083038186803b15801561240c57600080fd5b505afa158015612420573d6000803e3d6000fd5b505050506040513d6000823e601f3d908101601f191682016040526124489190810190614f35565b509193506124f992505050565b6003826101600151600381111561246e5761246e6145e2565b14156124f95760d0546101408301516040516370a0823160e01b81526001600160a01b0391821660048201529116906370a082319060240160206040518083038186803b1580156124be57600080fd5b505afa1580156124d2573d6000803e3d6000fd5b505050506040513d601f19601f820116820180604052508101906124f691906149c4565b90505b6001600160601b03169392505050565b60d3546000906001600160a01b03166125565760405162461bcd60e51b815260206004820152600f60248201526e085393d517d0d3d3919251d5549151608a1b6044820152606401610602565b60cd5460405163c68f5eb360e01b8152600481018590526000916001600160a01b03169063c68f5eb3906024016101c06040518083038186803b15801561259c57600080fd5b505afa1580156125b0573d6000803e3d6000fd5b505050506040513d601f19601f820116820180604052508101906125d49190614c37565b9050600060d26000815481106125ec576125ec6149ae565b6000918252602090912001546040516370a0823160e01b81523060048201526001600160a01b03909116906370a082319060240160206040518083038186803b15801561263857600080fd5b505afa15801561264c573d6000803e3d6000fd5b505050506040513d601f19601f8201168201806040525081019061267091906149c4565b60ce548351606085015160405163fcd6a25b60e01b81526001600160a01b039283166004820152306024820152604481019190915260006064820152929350169063fcd6a25b90608401600060405180830381600087803b1580156126d457600080fd5b505af19250505080156126e5575060015b6127a1573d808015612713576040519150601f19603f3d011682016040523d82523d6000602084013e612718565b606091505b5060cd5460c9546001600160a01b0390911690630d4d98a59088906127439063ffffffff1642614ada565b60016040518463ffffffff1660e01b815260040161276393929190615003565b600060405180830381600087803b15801561277d57600080fd5b505af1158015612791573d6000803e3d6000fd5b50505050600093505050506111c4565b60ce5460608301516000916001600160a01b03169063e1ded2de906127c7908890614a95565b6040518263ffffffff1660e01b81526004016127e591815260200190565b60206040518083038186803b1580156127fd57600080fd5b505afa158015612811573d6000803e3d6000fd5b505050506040513d601f19601f8201168201806040525081019061283591906149c4565b60ce546040516370a0823160e01b81523060048201529192506001600160a01b0316906370a082319060240160206040518083038186803b15801561287957600080fd5b505afa15801561288d573d6000803e3d6000fd5b505050506040513d601f19601f820116820180604052508101906128b191906149c4565b8111156129365760ce546040516370a0823160e01b81523060048201526001600160a01b03909116906370a082319060240160206040518083038186803b1580156128fb57600080fd5b505afa15801561290f573d6000803e3d6000fd5b505050506040513d601f19601f8201168201806040525081019061293391906149c4565b90505b60ce5460d280546001600160a01b039092169163f3fef3a3919060009061295f5761295f6149ae565b60009182526020909120015460405160e083901b6001600160e01b03191681526001600160a01b03909116600482015260248101849052604401600060405180830381600087803b1580156129b357600080fd5b505af11580156129c7573d6000803e3d6000fd5b5050505060008260d26000815481106129e2576129e26149ae565b6000918252602090912001546040516370a0823160e01b81523060048201526001600160a01b03909116906370a082319060240160206040518083038186803b158015612a2e57600080fd5b505afa158015612a42573d6000803e3d6000fd5b505050506040513d601f19601f82011682018060405250810190612a6691906149c4565b612a709190614a95565b905060008111612ab75760405162461bcd60e51b815260206004820152601260248201527121494e56414c494428616d6f756e74496e2960701b6044820152606401610602565b60d1546000906001600160a01b031615612be45760ce5460d28054612bba926001600160a01b0316916330b8b2c691600090612af557612af56149ae565b60009182526020909120015460405160e083901b6001600160e01b03191681526001600160a01b03909116600482015260240160c06040518083038186803b158015612b4057600080fd5b505afa158015612b54573d6000803e3d6000fd5b505050506040513d601f19601f82011682018060405250810190612b78919061502d565b60d28054612b8890600190614a95565b81548110612b9857612b986149ae565b60009182526020909120015460d1546001600160a01b03918216911685613703565b905061271060db5482612bcd9190614a76565b612bd79190614ec7565b612be19082614a95565b90505b60d0546040516370a0823160e01b81523060048201526000916001600160a01b0316906370a082319060240160206040518083038186803b158015612c2857600080fd5b505afa158015612c3c573d6000803e3d6000fd5b505050506040513d601f19601f82011682018060405250810190612c6091906149c4565b9050600060d454600160a01b900460ff166003811115612c8257612c826145e2565b1415612c9757612c928383613a1d565b612d27565b600160d454600160a01b900460ff166003811115612cb757612cb76145e2565b1415612cc757612c928383613af7565b600260d454600160a01b900460ff166003811115612ce757612ce76145e2565b1415612cf757612c928383613c5f565b600360d454600160a01b900460ff166003811115612d1757612d176145e2565b1415612d2757612d278383613cf2565b60ce5460dc546040516370a0823160e01b81523060048201526001600160a01b039283169263a9059cbb92169083906370a082319060240160206040518083038186803b158015612d7757600080fd5b505afa158015612d8b573d6000803e3d6000fd5b505050506040513d601f19601f82011682018060405250810190612daf91906149c4565b6040516001600160e01b031960e085901b1681526001600160a01b0390921660048301526024820152604401602060405180830381600087803b158015612df557600080fd5b505af1158015612e09573d6000803e3d6000fd5b505050506040513d601f19601f82011682018060405250810190612e2d91906149ed565b5060d4546001600160a01b0316156130075760cf546040516370a0823160e01b81523060048201526000916001600160a01b0316906370a082319060240160206040518083038186803b158015612e8357600080fd5b505afa158015612e97573d6000803e3d6000fd5b505050506040513d601f19601f82011682018060405250810190612ebb91906149c4565b60d45460cf54919250612edb916001600160a01b03908116911683613e52565b60d45460cf5460d054604051632b7f092360e01b8152600481018590526001600160a01b0392831660248201529082166044820152911690632b7f092390606401600060405180830381600087803b158015612f3657600080fd5b505af1158015612f4a573d6000803e3d6000fd5b505060d0546040516370a0823160e01b81523060048201528493506001600160a01b0390911691506370a082319060240160206040518083038186803b158015612f9357600080fd5b505afa158015612fa7573d6000803e3d6000fd5b505050506040513d601f19601f82011682018060405250810190612fcb91906149c4565b10156130055760405162461bcd60e51b81526020600482015260096024820152680215045475f535741560bc1b6044820152606401610602565b505b60d0546040516370a0823160e01b815230600482015260009183916001600160a01b03909116906370a082319060240160206040518083038186803b15801561304f57600080fd5b505afa158015613063573d6000803e3d6000fd5b505050506040513d601f19601f8201168201806040525081019061308791906149c4565b6130919190614a95565b905061309d8a82613f35565b9998505050505050505050565b600054610100900460ff166130d15760405162461bcd60e51b815260040161060290614e4f565b6108e233611ae8565b600054610100900460ff166131015760405162461bcd60e51b815260040161060290614e4f565b6065805460ff19169055565b60cd5460405163c68f5eb360e01b81526004810183905260009182916001600160a01b039091169063c68f5eb3906024016101c06040518083038186803b15801561315757600080fd5b505afa15801561316b573d6000803e3d6000fd5b505050506040513d601f19601f8201168201806040525081019061318f9190614c37565b6101408101516001600160a01b0316600090815260cc60205260408120549192509060ff1660018160048111156131c8576131c86145e2565b1415613275576101408301516101208401516040516363e1d0cd60e11b815260048101919091526001600160a01b0382169063c7c3a19a9060240160006040518083038186803b15801561321b57600080fd5b505afa92505050801561325057506040513d6000823e601f3d908101601f1916820160405261324d9190810190615128565b60015b6132595761326f565b506001600160401b039081161498505050505050505b5061343c565b6002816004811115613289576132896145e2565b141561333b576101408301516101208401516040516363e1d0cd60e11b815260048101919091526001600160a01b0382169063c7c3a19a9060240160006040518083038186803b1580156132dc57600080fd5b505afa92505050801561331157506040513d6000823e601f3d908101601f1916820160405261330e91908101906151e4565b60015b61331a5761326f565b50506001600160401b031663ffffffff149c9b505050505050505050505050565b600381600481111561334f5761334f6145e2565b14156133fb576101408301516101208401516040516363e1d0cd60e11b815260048101919091526001600160a01b0382169063c7c3a19a9060240160006040518083038186803b1580156133a257600080fd5b505afa9250505080156133d757506040513d6000823e601f3d908101601f191682016040526133d491908101906152b1565b60015b6133e05761326f565b60a001516001600160401b031663ffffffff1492505061343c565b60405162461bcd60e51b815260206004820152601660248201527510a922a3a4a9aa292cafaa2ca822afaaa725a727aba760511b6044820152606401610602565b509392505050565b60cd5460405163c68f5eb360e01b81526004810183905260009182916001600160a01b039091169063c68f5eb3906024016101c06040518083038186803b15801561348e57600080fd5b505afa1580156134a2573d6000803e3d6000fd5b505050506040513d601f19601f820116820180604052508101906134c69190614c37565b6101408101516001600160a01b0316600090815260cc60205260408120549192509060ff1660018160048111156134ff576134ff6145e2565b141561359f576101408301516101208401516040516363e1d0cd60e11b815260048101919091526001600160a01b0382169063c7c3a19a9060240160006040518083038186803b15801561355257600080fd5b505afa158015613566573d6000803e3d6000fd5b505050506040513d6000823e601f3d908101601f1916820160405261358e9190810190615128565b5092985061343c9650505050505050565b60028160048111156135b3576135b36145e2565b1415613654576101408301516101208401516040516363e1d0cd60e11b815260048101919091526001600160a01b0382169063c7c3a19a9060240160006040518083038186803b15801561360657600080fd5b505afa15801561361a573d6000803e3d6000fd5b505050506040513d6000823e601f3d908101601f1916820160405261364291908101906151e4565b5093995061343c975050505050505050565b6003816004811115613668576136686145e2565b14156133fb576101408301516101208401516040516363e1d0cd60e11b815260048101919091526001600160a01b0382169063c7c3a19a9060240160006040518083038186803b1580156136bb57600080fd5b505afa1580156136cf573d6000803e3d6000fd5b505050506040513d6000823e601f3d908101601f191682016040526136f791908101906152b1565b6060015192505061343c565b60008161371257506000613a15565b6000806000866001600160a01b031663313ce5676040518163ffffffff1660e01b815260040160206040518083038186803b15801561375057600080fd5b505afa158015613764573d6000803e3d6000fd5b505050506040513d601f19601f8201168201806040525081019061378891906153cf565b90506000866001600160a01b031663313ce5676040518163ffffffff1660e01b815260040160206040518083038186803b1580156137c557600080fd5b505afa1580156137d9573d6000803e3d6000fd5b505050506040513d601f19601f820116820180604052508101906137fd91906153cf565b905088600001516001600160a01b031663feaf968c6040518163ffffffff1660e01b815260040160a06040518083038186803b15801561383c57600080fd5b505afa158015613850573d6000803e3d6000fd5b505050506040513d601f19601f820116820180604052508101906138749190615406565b5060d9549297509550869250501580613898575060d9546138958542614a95565b11155b6138d65760405162461bcd60e51b815260206004820152600f60248201526e0854149250d157d3d5551110551151608a1b6044820152606401610602565b876001600160a01b031663feaf968c6040518163ffffffff1660e01b815260040160a06040518083038186803b15801561390f57600080fd5b505afa158015613923573d6000803e3d6000fd5b505050506040513d601f19601f820116820180604052508101906139479190615406565b5060d954929850965087925050158061396b575060d9546139688642614a95565b11155b6139a95760405162461bcd60e51b815260206004820152600f60248201526e0854149250d157d3d5551110551151608a1b6044820152606401610602565b8260ff168b6080015160ff1614613a04576139c5818486614180565b6139d4838d6080015187614180565b6139e38a8e6060015188614180565b6139ed9190614a76565b6139f79190614ec7565b9650505050505050613a15565b80826139e38a8e6060015188614180565b949350505050565b60d35460d28054613a5f926001600160a01b0316918591600090613a4357613a436149ae565b6000918252602090912001546001600160a01b03169190613e52565b60d3546001600160a01b03166338ed1739838360d230613a8142610e10614ac2565b6040518663ffffffff1660e01b8152600401613aa195949392919061549f565b600060405180830381600087803b158015613abb57600080fd5b505af1158015613acf573d6000803e3d6000fd5b505050506040513d6000823e601f3d908101601f191682016040526108ab91908101906154db565b60d35460d28054613b1d926001600160a01b0316918591600090613a4357613a436149ae565b60006040518060a0016040528060d58054613b3790614b02565b80601f0160208091040260200160405190810160405280929190818152602001828054613b6390614b02565b8015613bb05780601f10613b8557610100808354040283529160200191613bb0565b820191906000526020600020905b815481529060010190602001808311613b9357829003601f168201915b5050509183525050306020820152604001613bcc42603c614ac2565b815260208101859052604090810184905260d354905163c04b8d5960e01b81529192506001600160a01b03169063c04b8d5990613c0d908490600401615560565b602060405180830381600087803b158015613c2757600080fd5b505af1158015613c3b573d6000803e3d6000fd5b505050506040513d601f19601f8201168201806040525081019061140391906149c4565b60d35460d28054613c85926001600160a01b0316918591600090613a4357613a436149ae565b60d354604051633011f4b360e11b81526001600160a01b0390911690636023e96690613cbc9060d2908690869030906004016155b8565b600060405180830381600087803b158015613cd657600080fd5b505af1158015613cea573d6000803e3d6000fd5b505050505050565b60d35460d28054613d18926001600160a01b0316918591600090613a4357613a436149ae565b60d35460d580546001600160a01b0390921691636d0ff495918591859190613d3f90614b02565b80601f0160208091040260200160405190810160405280929190818152602001828054613d6b90614b02565b8015613db85780601f10613d8d57610100808354040283529160200191613db8565b820191906000526020600020905b815481529060010190602001808311613d9b57829003601f168201915b5050505050806020019051810190613dd091906154db565b60d230613ddf42610e10614ac2565b6040518763ffffffff1660e01b8152600401613e00969594939291906155f0565b602060405180830381600087803b158015613e1a57600080fd5b505af1158015613e2e573d6000803e3d6000fd5b505050506040513d601f19601f820116820180604052508101906108ab91906149c4565b604051636eb1769f60e11b81523060048201526001600160a01b038381166024830152600091839186169063dd62ed3e9060440160206040518083038186803b158015613e9e57600080fd5b505afa158015613eb2573d6000803e3d6000fd5b505050506040513d601f19601f82011682018060405250810190613ed691906149c4565b613ee09190614ac2565b604080516001600160a01b038616602482015260448082018490528251808303909101815260649091019091526020810180516001600160e01b031663095ea7b360e01b1790529091506114039085906141f1565b60cd5460405163c68f5eb360e01b8152600481018490526000916001600160a01b03169063c68f5eb3906024016101c06040518083038186803b158015613f7b57600080fd5b505afa158015613f8f573d6000803e3d6000fd5b505050506040513d601f19601f82011682018060405250810190613fb39190614c37565b905060018161016001516003811115613fce57613fce6145e2565b14156140855760d0546101408201516101208301516040805160208101929092526001600160a01b0390931692634000aea092918691015b6040516020818303038152906040526040518463ffffffff1660e01b81526004016140339392919061566c565b602060405180830381600087803b15801561404d57600080fd5b505af1158015614061573d6000803e3d6000fd5b505050506040513d601f19601f8201168201806040525081019061140391906149ed565b6002816101600151600381111561409e5761409e6145e2565b14156140e25760d054610140820151610120830151604080516001600160401b0390921660208301526001600160a01b0390931692634000aea09291869101614006565b600381610160015160038111156140fb576140fb6145e2565b14156108ab57610120810151156141425760d0546101408201516101208301516040805160208101929092526001600160a01b0390931692634000aea09291869101614006565b60d05461014082015160405163a9059cbb60e01b81526001600160a01b0391821660048201526024810185905291169063a9059cbb90604401614033565b60008160ff168360ff1610156141b95761419a838361569c565b6141a89060ff16600a6157a3565b6141b29085614a76565b905061077b565b8160ff168360ff1611156141e9576141d1828461569c565b6141df9060ff16600a6157a3565b6141b29085614ec7565b509192915050565b6000614246826040518060400160405280602081526020017f5361666545524332303a206c6f772d6c6576656c2063616c6c206661696c6564815250856001600160a01b03166142c39092919063ffffffff16565b8051909150156108ab578080602001905181019061426491906149ed565b6108ab5760405162461bcd60e51b815260206004820152602a60248201527f5361666545524332303a204552433230206f7065726174696f6e20646964206e6044820152691bdd081cdd58d8d9595960b21b6064820152608401610602565b6060613a15848460008585843b61431c5760405162461bcd60e51b815260206004820152601d60248201527f416464726573733a2063616c6c20746f206e6f6e2d636f6e74726163740000006044820152606401610602565b600080866001600160a01b0316858760405161433891906157af565b60006040518083038185875af1925050503d8060008114614375576040519150601f19603f3d011682016040523d82523d6000602084013e61437a565b606091505b509150915061438a828286614395565b979650505050505050565b606083156143a457508161077b565b8251156143b45782518084602001fd5b8160405162461bcd60e51b81526004016106029190614700565b828054828255906000526020600020908101928215614421579160200282015b828111156144215781546001600160a01b0319166001600160a01b038435161782556020909201916001909101906143ee565b5061442d9291506144a5565b5090565b82805461443d90614b02565b90600052602060002090601f01602090048101928261445f5760008555614421565b82601f106144785782800160ff19823516178555614421565b82800160010185558215614421579182015b8281111561442157823582559160200191906001019061448a565b5b8082111561442d57600081556001016144a6565b6001600160a01b03811681146118d257600080fd5b80356144da816144ba565b919050565b6000602082840312156144f157600080fd5b813561077b816144ba565b60ff811681146118d257600080fd5b63ffffffff811681146118d257600080fd5b6000806040838503121561453057600080fd5b823561453b816144fc565b9150602083013561454b8161450b565b809150509250929050565b60008060006060848603121561456b57600080fd5b8335614576816144fc565b925060208401356145868161450b565b929592945050506040919091013590565b6000602082840312156145a957600080fd5b813561077b816144fc565b600080604083850312156145c757600080fd5b82356145d2816144ba565b9150602083013561454b816144ba565b634e487b7160e01b600052602160045260246000fd5b602081016004831061460c5761460c6145e2565b91905290565b60008083601f84011261462457600080fd5b5081356001600160401b0381111561463b57600080fd5b602083019150836020828501011115610fd657600080fd5b6000806020838503121561466657600080fd5b82356001600160401b0381111561467c57600080fd5b61468885828601614612565b90969095509350505050565b602081016005831061460c5761460c6145e2565b60005b838110156146c35781810151838201526020016146ab565b838111156114035750506000910152565b600081518084526146ec8160208601602086016146a8565b601f01601f19169290920160200192915050565b60208152600061077b60208301846146d4565b6000806040838503121561472657600080fd5b8235614731816144ba565b915060208301356005811061454b57600080fd5b8215158152604060208201526000613a1560408301846146d4565b60006020828403121561477257600080fd5b813561077b8161450b565b600481106118d257600080fd5b80356144da8161477d565b6000806000806000806000806000806101008b8d0312156147b557600080fd5b8a356147c0816144ba565b995060208b01356147d0816144ba565b985060408b01356147e0816144ba565b975060608b01356147f0816144ba565b965060808b01356001600160401b038082111561480c57600080fd5b818d0191508d601f83011261482057600080fd5b81358181111561482f57600080fd5b8e60208260051b850101111561484457600080fd5b602083019850965061485860a08e016144cf565b955061486660c08e0161478a565b945060e08d013591508082111561487c57600080fd5b506148898d828e01614612565b915080935050809150509295989b9194979a5092959850565b6000602082840312156148b457600080fd5b5035919050565b6000806000606084860312156148d057600080fd5b83356148db816144ba565b925060208401356148eb816144ba565b915060408401356148fb816144ba565b809150509250925092565b600080600080600080600080610100898b03121561492357600080fd5b883597506020890135965060408901359550606089013594506080890135935060a0890135925060c08901356149588161450b565b915060e08901356149688161450b565b809150509295985092959890939650565b6020808252818101527f4f776e61626c653a2063616c6c6572206973206e6f7420746865206f776e6572604082015260600190565b634e487b7160e01b600052603260045260246000fd5b6000602082840312156149d657600080fd5b5051919050565b805180151581146144da57600080fd5b6000602082840312156149ff57600080fd5b61077b826149dd565b60208082526010908201526f14185d5cd8589b194e881c185d5cd95960821b604082015260600190565b600080600060608486031215614a4757600080fd5b833592506020840135915060408401356148fb816144fc565b634e487b7160e01b600052601160045260246000fd5b6000816000190483118215151615614a9057614a90614a60565b500290565b600082821015614aa757614aa7614a60565b500390565b634e487b7160e01b600052603160045260246000fd5b60008219821115614ad557614ad5614a60565b500190565b600063ffffffff808316818516808303821115614af957614af9614a60565b01949350505050565b600181811c90821680614b1657607f821691505b60208210811415614b3757634e487b7160e01b600052602260045260246000fd5b50919050565b600063ffffffff83811690831681811015614b5a57614b5a614a60565b039392505050565b634e487b7160e01b600052604160045260246000fd5b6040516101c081016001600160401b0381118282101715614b9b57614b9b614b62565b60405290565b604051602081016001600160401b0381118282101715614b9b57614b9b614b62565b60405161014081016001600160401b0381118282101715614b9b57614b9b614b62565b604051601f8201601f191681016001600160401b0381118282101715614c0e57614c0e614b62565b604052919050565b80516144da816144ba565b80516144da8161450b565b80516144da8161477d565b60006101c08284031215614c4a57600080fd5b614c52614b78565b614c5b83614c16565b81526020830151602082015260408301516040820152606083015160608201526080830151608082015260a083015160a082015260c083015160c082015260e083015160e0820152610100614cb1818501614c21565b908201526101208381015190820152610140614cce818501614c16565b90820152610160614ce0848201614c2c565b90820152610180614cf2848201614c2c565b908201526101a0614d04848201614c21565b908201529392505050565b60006001600160401b03821115614d2857614d28614b62565b5060051b60200190565b60006020808385031215614d4557600080fd5b82516001600160401b0380821115614d5c57600080fd5b8185019150828287031215614d7057600080fd5b614d78614ba1565b825182811115614d8757600080fd5b80840193505086601f840112614d9c57600080fd5b82519150614db1614dac83614d0f565b614be6565b82815260059290921b83018401918481019088841115614dd057600080fd5b938501935b83851015614dee57845182529385019390850190614dd5565b8252509695505050505050565b634e487b7160e01b600052601260045260246000fd5b600063ffffffff80841680614e2857614e28614dfb565b92169190910692915050565b6000600019821415614e4857614e48614a60565b5060010190565b6020808252602b908201527f496e697469616c697a61626c653a20636f6e7472616374206973206e6f74206960408201526a6e697469616c697a696e6760a81b606082015260800190565b600381106118d2576118d26145e2565b82815260408101614eba83614e9a565b8260208301529392505050565b600082614ed657614ed6614dfb565b500490565b600063ffffffff80831681851681830481118215151615614efe57614efe614a60565b02949350505050565b80516001600160601b03811681146144da57600080fd5b80516001600160401b03811681146144da57600080fd5b60008060008060808587031215614f4b57600080fd5b614f5485614f07565b93506020614f63818701614f1e565b93506040860151614f73816144ba565b60608701519093506001600160401b03811115614f8f57600080fd5b8601601f81018813614fa057600080fd5b8051614fae614dac82614d0f565b81815260059190911b8201830190838101908a831115614fcd57600080fd5b928401925b82841015614ff4578351614fe5816144ba565b82529284019290840190614fd2565b979a9699509497505050505050565b83815263ffffffff831660208201526060810161501f83614e9a565b826040830152949350505050565b600060c0828403121561503f57600080fd5b60405160c081018181106001600160401b038211171561506157615061614b62565b604052825161506f816144ba565b8082525060208301516020820152604083015160408201526060830151615095816144fc565b606082015260808301516150a8816144fc565b60808201526150b960a084016149dd565b60a08201529392505050565b600082601f8301126150d657600080fd5b81516001600160401b038111156150ef576150ef614b62565b615102601f8201601f1916602001614be6565b81815284602083860101111561511757600080fd5b613a158260208301602087016146a8565b600080600080600080600080610100898b03121561514557600080fd5b8851615150816144ba565b60208a01519098506151618161450b565b60408a01519097506001600160401b0381111561517d57600080fd5b6151898b828c016150c5565b96505061519860608a01614f07565b945060808901516151a8816144ba565b60a08a01519094506151b9816144ba565b92506151c760c08a01614f1e565b91506151d560e08a01614f07565b90509295985092959890939650565b60008060008060008060008060006101208a8c03121561520357600080fd5b895161520e816144ba565b60208b015190995061521f8161450b565b60408b01519098506001600160401b0381111561523b57600080fd5b6152478c828d016150c5565b97505061525660608b01614f07565b955060808a0151615266816144ba565b60a08b0151909550615277816144ba565b935061528560c08b01614f1e565b925061529360e08b01614f07565b91506152a26101008b016149dd565b90509295985092959850929598565b6000602082840312156152c357600080fd5b81516001600160401b03808211156152da57600080fd5b9083019061014082860312156152ef57600080fd5b6152f7614bc3565b61530083614c16565b815261530e60208401614c21565b602082015260408301518281111561532557600080fd5b615331878286016150c5565b60408301525061534360608401614f07565b606082015261535460808401614c16565b608082015261536560a08401614f1e565b60a082015261537660c08401614c21565b60c082015261538760e08401614f07565b60e082015261010061539a8185016149dd565b9082015261012083810151838111156153b257600080fd5b6153be888287016150c5565b918301919091525095945050505050565b6000602082840312156153e157600080fd5b815161077b816144fc565b805169ffffffffffffffffffff811681146144da57600080fd5b600080600080600060a0868803121561541e57600080fd5b615427866153ec565b945060208601519350604086015192506060860151915061544a608087016153ec565b90509295509295909350565b6000815480845260208085019450836000528060002060005b838110156154945781546001600160a01b03168752958201956001918201910161546f565b509495945050505050565b85815284602082015260a0604082015260006154be60a0830186615456565b6001600160a01b0394909416606083015250608001529392505050565b600060208083850312156154ee57600080fd5b82516001600160401b0381111561550457600080fd5b8301601f8101851361551557600080fd5b8051615523614dac82614d0f565b81815260059190911b8201830190838101908783111561554257600080fd5b928401925b8284101561438a57835182529284019290840190615547565b602081526000825160a0602084015261557c60c08401826146d4565b905060018060a01b0360208501511660408401526040840151606084015260608401516080840152608084015160a08401528091505092915050565b6080815260006155cb6080830187615456565b60208301959095525060408101929092526001600160a01b0316606090910152919050565b600060c082018883526020888185015260c0604085015281885180845260e086019150828a01935060005b818110156156375784518352938301939183019160010161561b565b5050848103606086015261564b8189615456565b6001600160a01b039790971660808601525050505060a00152949350505050565b60018060a01b038416815282602082015260606040820152600061569360608301846146d4565b95945050505050565b600060ff821660ff8416808210156156b6576156b6614a60565b90039392505050565b600181815b808511156156fa5781600019048211156156e0576156e0614a60565b808516156156ed57918102915b93841c93908002906156c4565b509250929050565b600082615711575060016111c4565b8161571e575060006111c4565b8160018114615734576002811461573e5761575a565b60019150506111c4565b60ff84111561574f5761574f614a60565b50506001821b6111c4565b5060208310610133831016604e8410600b841016171561577d575081810a6111c4565b61578783836156bf565b806000190482111561579b5761579b614a60565b029392505050565b600061077b8383615702565b600082516157c18184602087016146a8565b919091019291505056fea2646970667358221220ce8c53ebe28aacf1db65f602f7b27a9366db0db1ae6c38a187b44d703134cc1864736f6c63430008090033",
  "devdoc": {
    "kind": "dev",
    "methods": {
      "checkUpkeep(bytes)": {
        "details": "To ensure that it is never called, you may want to add the cannotExecute modifier from KeeperBase to your implementation of this method.",
        "params": {
          "checkData": "specified in the upkeep registration so it is always the same for a registered upkeep. This can easilly be broken down into specific arguments using `abi.decode`, so multiple upkeeps can be registered on the same contract and easily differentiated by the contract."
        },
        "returns": {
          "performData": "bytes that the keeper should call performUpkeep with, if upkeep is needed. If you would like to encode data to decode later, try `abi.encode`.",
          "upkeepNeeded": "boolean to indicate whether the keeper should call performUpkeep or not."
        }
      },
      "constructor": {
        "custom:oz-upgrades-unsafe-allow": "constructor"
      },
      "owner()": {
        "details": "Returns the address of the current owner."
      },
      "paused()": {
        "details": "Returns true if the contract is paused, and false otherwise."
      },
      "performUpkeep(bytes)": {
        "details": "The input to this method should not be trusted, and the caller of the method should not even be restricted to any single registry. Anyone should be able call it, and the input should be validated, there is no guarantee that the data passed in is the performData returned from checkUpkeep. This could happen due to malicious keepers, racing keepers, or simply a state change while the performUpkeep transaction is waiting for confirmation. Always validate the data passed in.",
        "params": {
          "performData": "is the data which was passed back from the checkData simulation. If it is encoded, it can easily be decoded into other types by calling `abi.decode`. This data should not be trusted, and should be validated against the contract's current state."
        }
      },
      "renounceOwnership()": {
        "details": "Leaves the contract without owner. It will not be possible to call `onlyOwner` functions anymore. Can only be called by the current owner. NOTE: Renouncing ownership will leave the contract without an owner, thereby removing any functionality that is only available to the owner."
      },
      "transferOwnership(address)": {
        "details": "Transfers ownership of the contract to a new account (`newOwner`). Can only be called by the current owner."
      }
    },
    "stateVariables": {
      "allowedRegistries": {
        "details": "map of registries address that are allowed "
      },
      "caskChainlinkTopup": {
        "details": "Pointer to CaskChainlinkTopup contract "
      },
      "caskVault": {
        "details": "vault to use for ChainlinkTopup funding. "
      },
      "feeDistributor": {
        "details": "Address to receive DCA fees. "
      },
      "maxPriceFeedAge": {
        "details": "max allowable age for price feed data. "
      },
      "maxSkips": {
        "details": "max number of failed ChainlinkTopup purchases before ChainlinkTopup is permanently canceled. "
      },
      "maxSwapSlippageBps": {
        "details": "max slippage allowed when buying LINK on the DEX for a topup. "
      },
      "maxTopupsPerGroupRun": {
        "details": "max number of topups to do per each run of a group. "
      },
      "topupFeeBps": {
        "details": "ChainlinkTopup transaction fee bps and min. "
      }
    },
    "version": 1
  },
  "userdoc": {
    "kind": "user",
    "methods": {
      "checkUpkeep(bytes)": {
        "notice": "method that is simulated by the keepers to see if any work actually needs to be performed. This method does does not actually need to be executable, and since it is only ever simulated it can consume lots of gas."
      },
      "performUpkeep(bytes)": {
        "notice": "method that is actually executed by the keepers, via the registry. The data returned by the checkUpkeep simulation will be passed into this method to actually be executed."
      }
    },
    "version": 1
  },
  "storageLayout": {
    "storage": [
      {
        "astId": 327,
        "contract": "contracts/chainlink_topup/CaskChainlinkTopupManager.sol:CaskChainlinkTopupManager",
        "label": "_initialized",
        "offset": 0,
        "slot": "0",
        "type": "t_bool"
      },
      {
        "astId": 330,
        "contract": "contracts/chainlink_topup/CaskChainlinkTopupManager.sol:CaskChainlinkTopupManager",
        "label": "_initializing",
        "offset": 1,
        "slot": "0",
        "type": "t_bool"
      },
      {
        "astId": 2551,
        "contract": "contracts/chainlink_topup/CaskChainlinkTopupManager.sol:CaskChainlinkTopupManager",
        "label": "__gap",
        "offset": 0,
        "slot": "1",
        "type": "t_array(t_uint256)50_storage"
      },
      {
        "astId": 205,
        "contract": "contracts/chainlink_topup/CaskChainlinkTopupManager.sol:CaskChainlinkTopupManager",
        "label": "_owner",
        "offset": 0,
        "slot": "51",
        "type": "t_address"
      },
      {
        "astId": 319,
        "contract": "contracts/chainlink_topup/CaskChainlinkTopupManager.sol:CaskChainlinkTopupManager",
        "label": "__gap",
        "offset": 0,
        "slot": "52",
        "type": "t_array(t_uint256)49_storage"
      },
      {
        "astId": 415,
        "contract": "contracts/chainlink_topup/CaskChainlinkTopupManager.sol:CaskChainlinkTopupManager",
        "label": "_paused",
        "offset": 0,
        "slot": "101",
        "type": "t_bool"
      },
      {
        "astId": 506,
        "contract": "contracts/chainlink_topup/CaskChainlinkTopupManager.sol:CaskChainlinkTopupManager",
        "label": "__gap",
        "offset": 0,
        "slot": "102",
        "type": "t_array(t_uint256)49_storage"
      },
      {
        "astId": 521,
        "contract": "contracts/chainlink_topup/CaskChainlinkTopupManager.sol:CaskChainlinkTopupManager",
        "label": "_status",
        "offset": 0,
        "slot": "151",
        "type": "t_uint256"
      },
      {
        "astId": 564,
        "contract": "contracts/chainlink_topup/CaskChainlinkTopupManager.sol:CaskChainlinkTopupManager",
        "label": "__gap",
        "offset": 0,
        "slot": "152",
        "type": "t_array(t_uint256)49_storage"
      },
      {
        "astId": 18542,
        "contract": "contracts/chainlink_topup/CaskChainlinkTopupManager.sol:CaskChainlinkTopupManager",
        "label": "queueBucketSize",
        "offset": 0,
        "slot": "201",
        "type": "t_uint32"
      },
      {
        "astId": 18545,
        "contract": "contracts/chainlink_topup/CaskChainlinkTopupManager.sol:CaskChainlinkTopupManager",
        "label": "maxQueueAge",
        "offset": 4,
        "slot": "201",
        "type": "t_uint32"
      },
      {
        "astId": 18553,
        "contract": "contracts/chainlink_topup/CaskChainlinkTopupManager.sol:CaskChainlinkTopupManager",
        "label": "queue",
        "offset": 0,
        "slot": "202",
        "type": "t_mapping(t_uint8,t_mapping(t_uint32,t_array(t_bytes32)dyn_storage))"
      },
      {
        "astId": 18557,
        "contract": "contracts/chainlink_topup/CaskChainlinkTopupManager.sol:CaskChainlinkTopupManager",
        "label": "queueBucket",
        "offset": 0,
        "slot": "203",
        "type": "t_mapping(t_uint8,t_uint32)"
      },
      {
        "astId": 9665,
        "contract": "contracts/chainlink_topup/CaskChainlinkTopupManager.sol:CaskChainlinkTopupManager",
        "label": "allowedRegistries",
        "offset": 0,
        "slot": "204",
        "type": "t_mapping(t_address,t_enum(ChainlinkRegistryType)11885)"
      },
      {
        "astId": 9669,
        "contract": "contracts/chainlink_topup/CaskChainlinkTopupManager.sol:CaskChainlinkTopupManager",
        "label": "caskChainlinkTopup",
        "offset": 0,
        "slot": "205",
        "type": "t_contract(ICaskChainlinkTopup)11872"
      },
      {
        "astId": 9673,
        "contract": "contracts/chainlink_topup/CaskChainlinkTopupManager.sol:CaskChainlinkTopupManager",
        "label": "caskVault",
        "offset": 0,
        "slot": "206",
        "type": "t_contract(ICaskVault)18286"
      },
      {
        "astId": 9676,
        "contract": "contracts/chainlink_topup/CaskChainlinkTopupManager.sol:CaskChainlinkTopupManager",
        "label": "linkBridgeToken",
        "offset": 0,
        "slot": "207",
        "type": "t_contract(IERC20Metadata)4344"
      },
      {
        "astId": 9679,
        "contract": "contracts/chainlink_topup/CaskChainlinkTopupManager.sol:CaskChainlinkTopupManager",
        "label": "linkFundingToken",
        "offset": 0,
        "slot": "208",
        "type": "t_contract(LinkTokenInterface)18430"
      },
      {
        "astId": 9682,
        "contract": "contracts/chainlink_topup/CaskChainlinkTopupManager.sol:CaskChainlinkTopupManager",
        "label": "linkPriceFeed",
        "offset": 0,
        "slot": "209",
        "type": "t_contract(AggregatorV3Interface)45"
      },
      {
        "astId": 9685,
        "contract": "contracts/chainlink_topup/CaskChainlinkTopupManager.sol:CaskChainlinkTopupManager",
        "label": "linkSwapPath",
        "offset": 0,
        "slot": "210",
        "type": "t_array(t_address)dyn_storage"
      },
      {
        "astId": 9687,
        "contract": "contracts/chainlink_topup/CaskChainlinkTopupManager.sol:CaskChainlinkTopupManager",
        "label": "linkSwapRouter",
        "offset": 0,
        "slot": "211",
        "type": "t_address"
      },
      {
        "astId": 9690,
        "contract": "contracts/chainlink_topup/CaskChainlinkTopupManager.sol:CaskChainlinkTopupManager",
        "label": "pegswap",
        "offset": 0,
        "slot": "212",
        "type": "t_contract(IPegSwap)18335"
      },
      {
        "astId": 9693,
        "contract": "contracts/chainlink_topup/CaskChainlinkTopupManager.sol:CaskChainlinkTopupManager",
        "label": "linkSwapProtocol",
        "offset": 20,
        "slot": "212",
        "type": "t_enum(SwapProtocol)11879"
      },
      {
        "astId": 9695,
        "contract": "contracts/chainlink_topup/CaskChainlinkTopupManager.sol:CaskChainlinkTopupManager",
        "label": "linkSwapData",
        "offset": 0,
        "slot": "213",
        "type": "t_bytes_storage"
      },
      {
        "astId": 9698,
        "contract": "contracts/chainlink_topup/CaskChainlinkTopupManager.sol:CaskChainlinkTopupManager",
        "label": "maxSkips",
        "offset": 0,
        "slot": "214",
        "type": "t_uint256"
      },
      {
        "astId": 9701,
        "contract": "contracts/chainlink_topup/CaskChainlinkTopupManager.sol:CaskChainlinkTopupManager",
        "label": "topupFeeBps",
        "offset": 0,
        "slot": "215",
        "type": "t_uint256"
      },
      {
        "astId": 9703,
        "contract": "contracts/chainlink_topup/CaskChainlinkTopupManager.sol:CaskChainlinkTopupManager",
        "label": "topupFeeMin",
        "offset": 0,
        "slot": "216",
        "type": "t_uint256"
      },
      {
        "astId": 9706,
        "contract": "contracts/chainlink_topup/CaskChainlinkTopupManager.sol:CaskChainlinkTopupManager",
        "label": "maxPriceFeedAge",
        "offset": 0,
        "slot": "217",
        "type": "t_uint256"
      },
      {
        "astId": 9709,
        "contract": "contracts/chainlink_topup/CaskChainlinkTopupManager.sol:CaskChainlinkTopupManager",
        "label": "maxTopupsPerGroupRun",
        "offset": 0,
        "slot": "218",
        "type": "t_uint256"
      },
      {
        "astId": 9712,
        "contract": "contracts/chainlink_topup/CaskChainlinkTopupManager.sol:CaskChainlinkTopupManager",
        "label": "maxSwapSlippageBps",
        "offset": 0,
        "slot": "219",
        "type": "t_uint256"
      },
      {
        "astId": 9715,
        "contract": "contracts/chainlink_topup/CaskChainlinkTopupManager.sol:CaskChainlinkTopupManager",
        "label": "feeDistributor",
        "offset": 0,
        "slot": "220",
        "type": "t_address"
      }
    ],
    "types": {
      "t_address": {
        "encoding": "inplace",
        "label": "address",
        "numberOfBytes": "20"
      },
      "t_array(t_address)dyn_storage": {
        "base": "t_address",
        "encoding": "dynamic_array",
        "label": "address[]",
        "numberOfBytes": "32"
      },
      "t_array(t_bytes32)dyn_storage": {
        "base": "t_bytes32",
        "encoding": "dynamic_array",
        "label": "bytes32[]",
        "numberOfBytes": "32"
      },
      "t_array(t_uint256)49_storage": {
        "base": "t_uint256",
        "encoding": "inplace",
        "label": "uint256[49]",
        "numberOfBytes": "1568"
      },
      "t_array(t_uint256)50_storage": {
        "base": "t_uint256",
        "encoding": "inplace",
        "label": "uint256[50]",
        "numberOfBytes": "1600"
      },
      "t_bool": {
        "encoding": "inplace",
        "label": "bool",
        "numberOfBytes": "1"
      },
      "t_bytes32": {
        "encoding": "inplace",
        "label": "bytes32",
        "numberOfBytes": "32"
      },
      "t_bytes_storage": {
        "encoding": "bytes",
        "label": "bytes",
        "numberOfBytes": "32"
      },
      "t_contract(AggregatorV3Interface)45": {
        "encoding": "inplace",
        "label": "contract AggregatorV3Interface",
        "numberOfBytes": "20"
      },
      "t_contract(ICaskChainlinkTopup)11872": {
        "encoding": "inplace",
        "label": "contract ICaskChainlinkTopup",
        "numberOfBytes": "20"
      },
      "t_contract(ICaskVault)18286": {
        "encoding": "inplace",
        "label": "contract ICaskVault",
        "numberOfBytes": "20"
      },
      "t_contract(IERC20Metadata)4344": {
        "encoding": "inplace",
        "label": "contract IERC20Metadata",
        "numberOfBytes": "20"
      },
      "t_contract(IPegSwap)18335": {
        "encoding": "inplace",
        "label": "contract IPegSwap",
        "numberOfBytes": "20"
      },
      "t_contract(LinkTokenInterface)18430": {
        "encoding": "inplace",
        "label": "contract LinkTokenInterface",
        "numberOfBytes": "20"
      },
      "t_enum(ChainlinkRegistryType)11885": {
        "encoding": "inplace",
        "label": "enum ICaskChainlinkTopupManager.ChainlinkRegistryType",
        "numberOfBytes": "1"
      },
      "t_enum(SwapProtocol)11879": {
        "encoding": "inplace",
        "label": "enum ICaskChainlinkTopupManager.SwapProtocol",
        "numberOfBytes": "1"
      },
      "t_mapping(t_address,t_enum(ChainlinkRegistryType)11885)": {
        "encoding": "mapping",
        "key": "t_address",
        "label": "mapping(address => enum ICaskChainlinkTopupManager.ChainlinkRegistryType)",
        "numberOfBytes": "32",
        "value": "t_enum(ChainlinkRegistryType)11885"
      },
      "t_mapping(t_uint32,t_array(t_bytes32)dyn_storage)": {
        "encoding": "mapping",
        "key": "t_uint32",
        "label": "mapping(uint32 => bytes32[])",
        "numberOfBytes": "32",
        "value": "t_array(t_bytes32)dyn_storage"
      },
      "t_mapping(t_uint8,t_mapping(t_uint32,t_array(t_bytes32)dyn_storage))": {
        "encoding": "mapping",
        "key": "t_uint8",
        "label": "mapping(uint8 => mapping(uint32 => bytes32[]))",
        "numberOfBytes": "32",
        "value": "t_mapping(t_uint32,t_array(t_bytes32)dyn_storage)"
      },
      "t_mapping(t_uint8,t_uint32)": {
        "encoding": "mapping",
        "key": "t_uint8",
        "label": "mapping(uint8 => uint32)",
        "numberOfBytes": "32",
        "value": "t_uint32"
      },
      "t_uint256": {
        "encoding": "inplace",
        "label": "uint256",
        "numberOfBytes": "32"
      },
      "t_uint32": {
        "encoding": "inplace",
        "label": "uint32",
        "numberOfBytes": "4"
      },
      "t_uint8": {
        "encoding": "inplace",
        "label": "uint8",
        "numberOfBytes": "1"
      }
    }
  }
}