{
  "address": "0xDe43635582Ab7080E6f50Ee868CA8691eeEbB624",
  "abi": [
    {
      "inputs": [],
      "stateMutability": "nonpayable",
      "type": "constructor"
    },
    {
      "anonymous": false,
      "inputs": [
        {
          "indexed": true,
          "internalType": "bytes32",
          "name": "assetSpec",
          "type": "bytes32"
        }
      ],
      "name": "BlacklistAssetSpec",
      "type": "event"
    },
    {
      "anonymous": false,
      "inputs": [
        {
          "indexed": true,
          "internalType": "address",
          "name": "previousOwner",
          "type": "address"
        },
        {
          "indexed": true,
          "internalType": "address",
          "name": "newOwner",
          "type": "address"
        }
      ],
      "name": "OwnershipTransferred",
      "type": "event"
    },
    {
      "anonymous": false,
      "inputs": [
        {
          "indexed": false,
          "internalType": "address",
          "name": "account",
          "type": "address"
        }
      ],
      "name": "Paused",
      "type": "event"
    },
    {
      "anonymous": false,
      "inputs": [
        {
          "indexed": false,
          "internalType": "uint256",
          "name": "limit",
          "type": "uint256"
        },
        {
          "indexed": false,
          "internalType": "uint256",
          "name": "jobsProcessed",
          "type": "uint256"
        },
        {
          "indexed": false,
          "internalType": "uint256",
          "name": "depth",
          "type": "uint256"
        },
        {
          "indexed": false,
          "internalType": "uint8",
          "name": "queueId",
          "type": "uint8"
        },
        {
          "indexed": false,
          "internalType": "uint256",
          "name": "queueRemaining",
          "type": "uint256"
        },
        {
          "indexed": false,
          "internalType": "uint32",
          "name": "currentBucket",
          "type": "uint32"
        }
      ],
      "name": "QueueRunReport",
      "type": "event"
    },
    {
      "anonymous": false,
      "inputs": [
        {
          "indexed": false,
          "internalType": "address",
          "name": "feeDistributor",
          "type": "address"
        }
      ],
      "name": "SetFeeDistributor",
      "type": "event"
    },
    {
      "anonymous": false,
      "inputs": [],
      "name": "SetParameters",
      "type": "event"
    },
    {
      "anonymous": false,
      "inputs": [
        {
          "indexed": true,
          "internalType": "bytes32",
          "name": "assetSpec",
          "type": "bytes32"
        }
      ],
      "name": "UnblacklistAssetSpec",
      "type": "event"
    },
    {
      "anonymous": false,
      "inputs": [
        {
          "indexed": false,
          "internalType": "address",
          "name": "account",
          "type": "address"
        }
      ],
      "name": "Unpaused",
      "type": "event"
    },
    {
      "anonymous": false,
      "inputs": [
        {
          "indexed": false,
          "internalType": "uint8",
          "name": "queueId",
          "type": "uint8"
        },
        {
          "indexed": false,
          "internalType": "bytes32",
          "name": "workUnit",
          "type": "bytes32"
        }
      ],
      "name": "WorkUnitProcessed",
      "type": "event"
    },
    {
      "anonymous": false,
      "inputs": [
        {
          "indexed": false,
          "internalType": "uint8",
          "name": "queueId",
          "type": "uint8"
        },
        {
          "indexed": false,
          "internalType": "bytes32",
          "name": "workUnit",
          "type": "bytes32"
        },
        {
          "indexed": false,
          "internalType": "uint32",
          "name": "processAt",
          "type": "uint32"
        }
      ],
      "name": "WorkUnitQueued",
      "type": "event"
    },
    {
      "inputs": [
        {
          "internalType": "bytes32",
          "name": "_assetSpec",
          "type": "bytes32"
        }
      ],
      "name": "blacklistAssetspec",
      "outputs": [],
      "stateMutability": "nonpayable",
      "type": "function"
    },
    {
      "inputs": [
        {
          "internalType": "bytes32",
          "name": "",
          "type": "bytes32"
        }
      ],
      "name": "blacklistedAssetspecs",
      "outputs": [
        {
          "internalType": "bool",
          "name": "",
          "type": "bool"
        }
      ],
      "stateMutability": "view",
      "type": "function"
    },
    {
      "inputs": [],
      "name": "caskDCA",
      "outputs": [
        {
          "internalType": "contract ICaskDCA",
          "name": "",
          "type": "address"
        }
      ],
      "stateMutability": "view",
      "type": "function"
    },
    {
      "inputs": [],
      "name": "caskVault",
      "outputs": [
        {
          "internalType": "contract ICaskVault",
          "name": "",
          "type": "address"
        }
      ],
      "stateMutability": "view",
      "type": "function"
    },
    {
      "inputs": [
        {
          "internalType": "bytes",
          "name": "checkData",
          "type": "bytes"
        }
      ],
      "name": "checkUpkeep",
      "outputs": [
        {
          "internalType": "bool",
          "name": "upkeepNeeded",
          "type": "bool"
        },
        {
          "internalType": "bytes",
          "name": "performData",
          "type": "bytes"
        }
      ],
      "stateMutability": "view",
      "type": "function"
    },
    {
      "inputs": [],
      "name": "dcaFeeBps",
      "outputs": [
        {
          "internalType": "uint256",
          "name": "",
          "type": "uint256"
        }
      ],
      "stateMutability": "view",
      "type": "function"
    },
    {
      "inputs": [],
      "name": "dcaFeeMin",
      "outputs": [
        {
          "internalType": "uint256",
          "name": "",
          "type": "uint256"
        }
      ],
      "stateMutability": "view",
      "type": "function"
    },
    {
      "inputs": [],
      "name": "dcaMinValue",
      "outputs": [
        {
          "internalType": "uint256",
          "name": "",
          "type": "uint256"
        }
      ],
      "stateMutability": "view",
      "type": "function"
    },
    {
      "inputs": [],
      "name": "feeDistributor",
      "outputs": [
        {
          "internalType": "address",
          "name": "",
          "type": "address"
        }
      ],
      "stateMutability": "view",
      "type": "function"
    },
    {
      "inputs": [
        {
          "internalType": "address",
          "name": "_caskDCA",
          "type": "address"
        },
        {
          "internalType": "address",
          "name": "_caskVault",
          "type": "address"
        },
        {
          "internalType": "address",
          "name": "_feeDistributor",
          "type": "address"
        }
      ],
      "name": "initialize",
      "outputs": [],
      "stateMutability": "nonpayable",
      "type": "function"
    },
    {
      "inputs": [],
      "name": "maxPriceFeedAge",
      "outputs": [
        {
          "internalType": "uint256",
          "name": "",
          "type": "uint256"
        }
      ],
      "stateMutability": "view",
      "type": "function"
    },
    {
      "inputs": [],
      "name": "maxQueueAge",
      "outputs": [
        {
          "internalType": "uint32",
          "name": "",
          "type": "uint32"
        }
      ],
      "stateMutability": "view",
      "type": "function"
    },
    {
      "inputs": [],
      "name": "maxSkips",
      "outputs": [
        {
          "internalType": "uint256",
          "name": "",
          "type": "uint256"
        }
      ],
      "stateMutability": "view",
      "type": "function"
    },
    {
      "inputs": [],
      "name": "owner",
      "outputs": [
        {
          "internalType": "address",
          "name": "",
          "type": "address"
        }
      ],
      "stateMutability": "view",
      "type": "function"
    },
    {
      "inputs": [],
      "name": "pause",
      "outputs": [],
      "stateMutability": "nonpayable",
      "type": "function"
    },
    {
      "inputs": [],
      "name": "paused",
      "outputs": [
        {
          "internalType": "bool",
          "name": "",
          "type": "bool"
        }
      ],
      "stateMutability": "view",
      "type": "function"
    },
    {
      "inputs": [
        {
          "internalType": "bytes",
          "name": "performData",
          "type": "bytes"
        }
      ],
      "name": "performUpkeep",
      "outputs": [],
      "stateMutability": "nonpayable",
      "type": "function"
    },
    {
      "inputs": [],
      "name": "queueBucketSize",
      "outputs": [
        {
          "internalType": "uint32",
          "name": "",
          "type": "uint32"
        }
      ],
      "stateMutability": "view",
      "type": "function"
    },
    {
      "inputs": [
        {
          "internalType": "uint8",
          "name": "_queueId",
          "type": "uint8"
        },
        {
          "internalType": "uint32",
          "name": "_bucket",
          "type": "uint32"
        },
        {
          "internalType": "uint256",
          "name": "_idx",
          "type": "uint256"
        }
      ],
      "name": "queueItem",
      "outputs": [
        {
          "internalType": "bytes32",
          "name": "",
          "type": "bytes32"
        }
      ],
      "stateMutability": "view",
      "type": "function"
    },
    {
      "inputs": [
        {
          "internalType": "uint8",
          "name": "_queueId",
          "type": "uint8"
        }
      ],
      "name": "queuePosition",
      "outputs": [
        {
          "internalType": "uint32",
          "name": "",
          "type": "uint32"
        }
      ],
      "stateMutability": "view",
      "type": "function"
    },
    {
      "inputs": [
        {
          "internalType": "uint8",
          "name": "_queueId",
          "type": "uint8"
        },
        {
          "internalType": "uint32",
          "name": "_bucket",
          "type": "uint32"
        }
      ],
      "name": "queueSize",
      "outputs": [
        {
          "internalType": "uint256",
          "name": "",
          "type": "uint256"
        }
      ],
      "stateMutability": "view",
      "type": "function"
    },
    {
      "inputs": [
        {
          "internalType": "address",
          "name": "_asset",
          "type": "address"
        },
        {
          "internalType": "address",
          "name": "_dest",
          "type": "address"
        }
      ],
      "name": "recoverFunds",
      "outputs": [],
      "stateMutability": "nonpayable",
      "type": "function"
    },
    {
      "inputs": [
        {
          "internalType": "bytes32",
          "name": "_dcaId",
          "type": "bytes32"
        }
      ],
      "name": "registerDCA",
      "outputs": [],
      "stateMutability": "nonpayable",
      "type": "function"
    },
    {
      "inputs": [],
      "name": "renounceOwnership",
      "outputs": [],
      "stateMutability": "nonpayable",
      "type": "function"
    },
    {
      "inputs": [],
      "name": "reserved1",
      "outputs": [
        {
          "internalType": "bytes32",
          "name": "",
          "type": "bytes32"
        }
      ],
      "stateMutability": "view",
      "type": "function"
    },
    {
      "inputs": [
        {
          "internalType": "address",
          "name": "_feeDistributor",
          "type": "address"
        }
      ],
      "name": "setFeeDistributor",
      "outputs": [],
      "stateMutability": "nonpayable",
      "type": "function"
    },
    {
      "inputs": [
        {
          "internalType": "uint32",
          "name": "_maxQueueAge",
          "type": "uint32"
        }
      ],
      "name": "setMaxQueueAge",
      "outputs": [],
      "stateMutability": "nonpayable",
      "type": "function"
    },
    {
      "inputs": [
        {
          "internalType": "uint256",
          "name": "_maxSkips",
          "type": "uint256"
        },
        {
          "internalType": "uint256",
          "name": "_dcaFeeBps",
          "type": "uint256"
        },
        {
          "internalType": "uint256",
          "name": "_dcaFeeMin",
          "type": "uint256"
        },
        {
          "internalType": "uint256",
          "name": "_dcaMinValue",
          "type": "uint256"
        },
        {
          "internalType": "uint256",
          "name": "_maxPriceFeedAge",
          "type": "uint256"
        },
        {
          "internalType": "uint32",
          "name": "_queueBucketSize",
          "type": "uint32"
        },
        {
          "internalType": "uint32",
          "name": "_maxQueueAge",
          "type": "uint32"
        }
      ],
      "name": "setParameters",
      "outputs": [],
      "stateMutability": "nonpayable",
      "type": "function"
    },
    {
      "inputs": [
        {
          "internalType": "uint32",
          "name": "_queueBucketSize",
          "type": "uint32"
        }
      ],
      "name": "setQueueBucketSize",
      "outputs": [],
      "stateMutability": "nonpayable",
      "type": "function"
    },
    {
      "inputs": [
        {
          "internalType": "uint8",
          "name": "_queueId",
          "type": "uint8"
        },
        {
          "internalType": "uint32",
          "name": "_timestamp",
          "type": "uint32"
        }
      ],
      "name": "setQueuePosition",
      "outputs": [],
      "stateMutability": "nonpayable",
      "type": "function"
    },
    {
      "inputs": [
        {
          "internalType": "address",
          "name": "newOwner",
          "type": "address"
        }
      ],
      "name": "transferOwnership",
      "outputs": [],
      "stateMutability": "nonpayable",
      "type": "function"
    },
    {
      "inputs": [
        {
          "internalType": "bytes32",
          "name": "_assetSpec",
          "type": "bytes32"
        }
      ],
      "name": "unblacklistAssetspec",
      "outputs": [],
      "stateMutability": "nonpayable",
      "type": "function"
    },
    {
      "inputs": [],
      "name": "unpause",
      "outputs": [],
      "stateMutability": "nonpayable",
      "type": "function"
    }
  ],
  "transactionHash": "0x6f526fcd5ceee5e53f7e772ee4f4176bbf1151dfe5119071acebaea507d03837",
  "args": [],
  "numDeployments": 6,
  "solcInputHash": "0882abc7c4e26d1403a1ff9d0351d7f2",
  "bytecode": "0x60806040523480156200001157600080fd5b50600054610100900460ff166200002f5760005460ff161562000039565b62000039620000de565b620000a15760405162461bcd60e51b815260206004820152602e60248201527f496e697469616c697a61626c653a20636f6e747261637420697320616c72656160448201526d191e481a5b9a5d1a585b1a5e995960921b606482015260840160405180910390fd5b600054610100900460ff16158015620000c4576000805461ffff19166101011790555b8015620000d7576000805461ff00191690555b5062000102565b6000620000f630620000fc60201b620013061760201c565b15905090565b3b151590565b6148f680620001126000396000f3fe608060405234801561001057600080fd5b50600436106101fb5760003560e01c8063715018a61161011a578063aaac831f116100ad578063c6f8806c1161007c578063c6f8806c14610430578063ccfc2e8d14610448578063cd48a6141461045b578063f2fde38b1461046e578063fa184a1e1461048157600080fd5b8063aaac831f14610402578063ab4de5ed1461040b578063c0c53b8b14610414578063c50646531461042757600080fd5b80638da5cb5b116100e95780638da5cb5b146103b857806390c6da56146103c9578063a47755d1146103dc578063aa878f76146103ef57600080fd5b8063715018a614610385578063729d81071461038d5780638456cb59146103a05780638bddd2e4146103a857600080fd5b80631e8506d6116101925780633f4ba83a116101615780633f4ba83a1461033e5780634585e33b146103465780635c975abb146103595780636e04ff0d1461036457600080fd5b80631e8506d6146102dc57806324ae6a27146102ef57806330f01be81461030257806335e53b941461030b57600080fd5b80630d43e8ad116101ce5780630d43e8ad1461026f57806314fad707146102825780631ac6c56b146102955780631c39033c1461029e57600080fd5b806308058e7c146102005780630816c847146102305780630abe19d9146102475780630caae41d1461025c575b600080fd5b60cc54610213906001600160a01b031681565b6040516001600160a01b0390911681526020015b60405180910390f35b61023960d45481565b604051908152602001610227565b61025a610255366004613a78565b610494565b005b61025a61026a366004613af0565b610580565b60d554610213906001600160a01b031681565b610239610290366004613b29565b6105e2565b61023960d15481565b6102c76102ac366004613b6a565b60ff16600090815260cb602052604090205463ffffffff1690565b60405163ffffffff9091168152602001610227565b61025a6102ea366004613b87565b61062c565b61025a6102fd366004613bb5565b610699565b61023960d35481565b61032e610319366004613b87565b60cf6020526000908152604090205460ff1681565b6040519015158152602001610227565b61025a6107c7565b61025a610354366004613be3565b6107fb565b60655460ff1661032e565b610377610372366004613be3565b610bd0565b604051610227929190613cad565b61025a610d77565b61025a61039b366004613cc8565b610dab565b61025a610dfd565b60c9546102c79063ffffffff1681565b6033546001600160a01b0316610213565b61025a6103d7366004613b87565b610e2f565b60cd54610213906001600160a01b031681565b6102396103fd366004613af0565b610e99565b61023960ce5481565b61023960d25481565b61025a610422366004613ce5565b610ec4565b61023960d05481565b60c9546102c790640100000000900463ffffffff1681565b61025a610456366004613d30565b6110c8565b61025a610469366004613cc8565b611197565b61025a61047c366004613d30565b6111dd565b61025a61048f366004613b87565b611278565b6033546001600160a01b031633146104c75760405162461bcd60e51b81526004016104be90613d4d565b60405180910390fd5b612710861061050e5760405162461bcd60e51b815260206004820152601360248201527221494e56414c4944286463614665654270732960681b60448201526064016104be565b60d087905560d186905560d285905560d384905560d483905560c9805463ffffffff8381166401000000000267ffffffffffffffff19909216908516171790556040517f3b5fda6f71b960b21be0b432d9b7c87d9c8c996477ea1eba5c19cb77d1e027aa90600090a150505050505050565b6033546001600160a01b031633146105aa5760405162461bcd60e51b81526004016104be90613d4d565b6105b38161130c565b60ff92909216600090815260cb60205260409020805463ffffffff191663ffffffff9093169290921790915550565b60ff8316600090815260ca6020908152604080832063ffffffff86168452909152812080548390811061061757610617613d82565b906000526020600020015490505b9392505050565b6033546001600160a01b031633146106565760405162461bcd60e51b81526004016104be90613d4d565b600081815260cf6020526040808220805460ff191660011790555182917f24b2f8b1797db190508a9ea995ccc6b8f33928a8ec4fb3a27504f51e1157647b91a250565b6033546001600160a01b031633146106c35760405162461bcd60e51b81526004016104be90613d4d565b6040516370a0823160e01b81523060048201526001600160a01b0383169063a9059cbb90839083906370a082319060240160206040518083038186803b15801561070c57600080fd5b505afa158015610720573d6000803e3d6000fd5b505050506040513d601f19601f820116820180604052508101906107449190613d98565b6040516001600160e01b031960e085901b1681526001600160a01b0390921660048301526024820152604401602060405180830381600087803b15801561078a57600080fd5b505af115801561079e573d6000803e3d6000fd5b505050506040513d601f19601f820116820180604052508101906107c29190613dc6565b505050565b6033546001600160a01b031633146107f15760405162461bcd60e51b81526004016104be90613d4d565b6107f9611336565b565b60655460ff161561081e5760405162461bcd60e51b81526004016104be90613de1565b600260975414156108715760405162461bcd60e51b815260206004820152601f60248201527f5265656e7472616e637947756172643a207265656e7472616e742063616c6c0060448201526064016104be565b60026097556000808061088684860186613e0b565b92509250925060006108966113c9565b90506000806108a6866005613e4f565b60ff8516600090815260cb602052604090205490915063ffffffff166108ec5760ff8416600090815260cb60205260409020805463ffffffff191663ffffffff85161790555b60ff8416600090815260cb602052604090205463ffffffff808516911611156109445760405162461bcd60e51b815260206004820152600a60248201526921544f4f5f4541524c5960b01b60448201526064016104be565b85821080156109535750600081115b801561097a575060ff8416600090815260cb602052604090205463ffffffff808516911611155b15610b395760ff8416600090815260ca6020908152604080832060cb83528184205463ffffffff1684529091529020548015610aa95760ff8516600090815260ca6020908152604080832060cb83528184205463ffffffff16845290915281206109e5600184613e6e565b815481106109f5576109f5613d82565b600091825260208083209091015460ff8916835260ca8252604080842060cb84528185205463ffffffff168552909252912080549192509080610a3a57610a3a613e85565b60019003818190600052602060002001600090559055610a5a86826113f1565b6040805160ff88168152602081018390527f58c7ae721fd25aaf84e68db9ce9ac6fed4f08438a370a4299d19f8c1425c499e910160405180910390a1610aa1600185613e9b565b935050610b33565b60ff8516600090815260cb602052604090205463ffffffff80861691161015610b2d5760c95460ff8616600090815260cb60205260408120805463ffffffff93841693919291610afb91859116613eb3565b92506101000a81548163ffffffff021916908363ffffffff160217905550600182610b269190613e6e565b9150610b33565b50610b39565b50610944565b60ff8416600081815260ca6020908152604080832060cb8084528285205463ffffffff168086529184528285205494869052835281518b81529283018790528282018a90526060830194909452608082019290925260a0810192909252517fd69140f88b9a25350749bb371882f4479133fc8b65602aac60f6c1b3598f08329181900360c00190a150506001609755505050505050565b60006060610be060655460ff1690565b15610bfd5750506040805160208101909152600080825290610d70565b60008080610c0d86880188613e0b565b9250925092506000610c1d6113c9565b60ff8316600090815260cb602052604090205490915063ffffffff1680610c415750805b8063ffffffff168263ffffffff1610158015610c7c575060c954640100000000900463ffffffff16610c738284613edb565b63ffffffff1610155b15610c8a5760019650610d1a565b8163ffffffff168163ffffffff1611610d1a5760ff8316600090815260ca6020908152604080832063ffffffff8516845290915290205415801590610cf2575060ff8316600090815260ca6020908152604080832063ffffffff851684529091529020548411155b15610d005760019650610d1a565b60c954610d139063ffffffff1682613eb3565b9050610c8a565b60ff8316600081815260ca6020908152604080832063ffffffff86168452825291829020548251918201899052918101919091526060810191909152608001604051602081830303815290604052955050505050505b9250929050565b6033546001600160a01b03163314610da15760405162461bcd60e51b81526004016104be90613d4d565b6107f96000611bf7565b6033546001600160a01b03163314610dd55760405162461bcd60e51b81526004016104be90613d4d565b60c9805463ffffffff9092166401000000000267ffffffff0000000019909216919091179055565b6033546001600160a01b03163314610e275760405162461bcd60e51b81526004016104be90613d4d565b6107f9611c49565b6033546001600160a01b03163314610e595760405162461bcd60e51b81526004016104be90613d4d565b600081815260cf6020526040808220805460ff191690555182917fba894bc0c7e4bd24c200bbd3877abd49470e2d8d96aeaecae8a02e09809e4aea91a250565b60ff8216600090815260ca6020908152604080832063ffffffff851684529091529020545b92915050565b600054610100900460ff16610edf5760005460ff1615610ee3565b303b155b610f465760405162461bcd60e51b815260206004820152602e60248201527f496e697469616c697a61626c653a20636f6e747261637420697320616c72656160448201526d191e481a5b9a5d1a585b1a5e995960921b60648201526084016104be565b600054610100900460ff16158015610f68576000805461ffff19166101011790555b6001600160a01b038416610fb25760405162461bcd60e51b815260206004820152601160248201527021494e56414c4944286361736b4443412960781b60448201526064016104be565b6001600160a01b038316610ffe5760405162461bcd60e51b815260206004820152601360248201527221494e56414c4944286361736b5661756c742960681b60448201526064016104be565b6001600160a01b03821661104f5760405162461bcd60e51b815260206004820152601860248201527721494e56414c4944286665654469737472696275746f722960401b60448201526064016104be565b60cc80546001600160a01b038087166001600160a01b03199283161790925560cd805486841690831617905560d5805492851692909116919091179055600060d081905560d181905560d281905560d381905560d4556110b0610e10611ca1565b80156110c2576000805461ff00191690555b50505050565b6033546001600160a01b031633146110f25760405162461bcd60e51b81526004016104be90613d4d565b6001600160a01b0381166111435760405162461bcd60e51b815260206004820152601860248201527721494e56414c4944286665654469737472696275746f722960401b60448201526064016104be565b60d580546001600160a01b0319166001600160a01b0383169081179091556040519081527f9e9a9a4a82acd1b28aab6bf1d43aad70ae6d290549c0d6183e2e91ebcdf574419060200160405180910390a150565b6033546001600160a01b031633146111c15760405162461bcd60e51b81526004016104be90613d4d565b60c9805463ffffffff191663ffffffff92909216919091179055565b6033546001600160a01b031633146112075760405162461bcd60e51b81526004016104be90613d4d565b6001600160a01b03811661126c5760405162461bcd60e51b815260206004820152602660248201527f4f776e61626c653a206e6577206f776e657220697320746865207a65726f206160448201526564647265737360d01b60648201526084016104be565b61127581611bf7565b50565b600260975414156112cb5760405162461bcd60e51b815260206004820152601f60248201527f5265656e7472616e637947756172643a207265656e7472616e742063616c6c0060448201526064016104be565b600260975560655460ff16156112f35760405162461bcd60e51b81526004016104be90613de1565b6112fe6001826113f1565b506001609755565b3b151590565b60c95460009063ffffffff166113228184613f16565b61132c9084613edb565b610ebe9190613eb3565b60655460ff1661137f5760405162461bcd60e51b815260206004820152601460248201527314185d5cd8589b194e881b9bdd081c185d5cd95960621b60448201526064016104be565b6065805460ff191690557f5db9ee0a495bf2e6ff9c91a7834c1ba4fdd244a5e8aa4e537bd38aeae4b073aa335b6040516001600160a01b03909116815260200160405180910390a1565b60c95460009042906113e19063ffffffff1682613f16565b6113eb9082613edb565b91505090565b60cc546040516392c65f4b60e01b8152600481018390526000916001600160a01b0316906392c65f4b9060240160006040518083038186803b15801561143657600080fd5b505afa15801561144a573d6000803e3d6000fd5b505050506040513d6000823e601f3d908101601f19168201604052611472919081019061408a565b60cc54604051630b43f1ad60e21b8152600481018590529192506000916001600160a01b0390911690632d0fc6b49060240160006040518083038186803b1580156114bc57600080fd5b505afa1580156114d0573d6000803e3d6000fd5b505050506040513d6000823e601f3d908101601f191682016040526114f891908101906141e7565b90506000816000015182602001518460400151856060015186610220015160405160200161152a959493929190614325565b60408051601f198184030181529181528151602092830120600081815260cf90935291205490915060ff16156115c65760cc54604051635ba581cd60e01b81526001600160a01b0390911690635ba581cd9061158d90879060019060040161437c565b600060405180830381600087803b1580156115a757600080fd5b505af11580156115bb573d6000803e3d6000fd5b505050505050505050565b600183610200015160048111156115df576115df6142bb565b146115eb575050505050565b6101e0830151429063ffffffff808316911611156116235761161b8686611616876101e0015161130c565b611ce9565b505050505050565b608084015160a08501511580159061164d57508460c001518560a0015161164a9190613e6e565b81115b15611669578460c001518560a001516116669190613e6e565b90505b60d3548110156116e15760cc54604051635ba581cd60e01b81526001600160a01b0390911690635ba581cd906116a690899060019060040161437c565b600060405180830381600087803b1580156116c057600080fd5b505af11580156116d4573d6000803e3d6000fd5b5050505050505050505050565b600061271060d154836116f49190613e4f565b6116fe9190614399565b905060d25481101561170f575060d2545b600086610220015160008151811061172957611729613d82565b60200260200101519050600087610220015160018961022001515161174e9190613e6e565b8151811061175e5761175e613d82565b602090810291909101015160cd5460405163185c596360e11b81526001600160a01b038581166004830152929350600092909116906330b8b2c69060240160c06040518083038186803b1580156117b457600080fd5b505afa1580156117c8573d6000803e3d6000fd5b505050506040513d601f19601f820116820180604052508101906117ec91906143ad565b90508060a001516118695760cc54604051635ba581cd60e01b81526001600160a01b0390911690635ba581cd9061182a908d9060019060040161437c565b600060405180830381600087803b15801561184457600080fd5b505af1158015611858573d6000803e3d6000fd5b505050505050505050505050505050565b610100890151801561188357611880600182613e6e565b90505b60d054811115611892575060d0545b61189e8a8a8486611db1565b611ab4576118c58c8c6116168d6101a001518e6101e001516118c09190613eb3565b61130c565b60cd548a5160d254604051638e3e580d60e01b81526001600160a01b0392831660048201523060248201526044810191909152911690638e3e580d90606401600060405180830381600087803b15801561191e57600080fd5b505af192505050801561192f575060015b6119ce573d80801561195d576040519150601f19603f3d011682016040523d82523d6000602084013e611962565b606091505b5060cc54604051635ba581cd60e01b81526001600160a01b0390911690635ba581cd90611996908f9060019060040161437c565b600060405180830381600087803b1580156119b057600080fd5b505af11580156119c4573d6000803e3d6000fd5b5050505050611aa6565b60cc54604051632a74cbb560e01b81526001600160a01b0390911690632a74cbb590611a01908e90600390600401614446565b600060405180830381600087803b158015611a1b57600080fd5b505af1158015611a2f573d6000803e3d6000fd5b50505050808a61012001511115611aa65760cc54604051635ba581cd60e01b81526001600160a01b0390911690635ba581cd90611a73908e9060039060040161437c565b600060405180830381600087803b158015611a8d57600080fd5b505af1158015611aa1573d6000803e3d6000fd5b505050505b505050505050505050505050565b6000611ac38c8c8c8a8a611f42565b90508015611b8a5760a08b01511580611aee57508a60a00151878c60c00151611aec9190613e9b565b105b15611b1157611b118d8d6116168e6101a001518f6101e001516118c09190613eb3565b60cc54604051632d32f27960e21b8152600481018e90526024810189905260448101839052606481018890526001600160a01b039091169063b4cbc9e4906084015b600060405180830381600087803b158015611b6d57600080fd5b505af1158015611b81573d6000803e3d6000fd5b50505050611be8565b818b61012001511115611bca5760cc54604051635ba581cd60e01b81526001600160a01b0390911690635ba581cd90611b53908f9060039060040161437c565b611be88d8d6116168e6101a001518f6101e001516118c09190613eb3565b50505050505050505050505050565b603380546001600160a01b038381166001600160a01b0319831681179093556040519116919082907f8be0079c531659141344cd1fd0a4f28419497f9722a3daafe3b4186f6b6457e090600090a35050565b60655460ff1615611c6c5760405162461bcd60e51b81526004016104be90613de1565b6065805460ff191660011790557f62e78cea01bee320cd4e420270b5ea74000d11b0c9f74754ebdbfc544b05a2586113ac3390565b600054610100900460ff16611cc85760405162461bcd60e51b81526004016104be9061445d565b611cd06128e7565b611cd861291e565b611ce0612955565b6112758161297c565b6000611cf48261130c565b60ff8516600090815260cb602052604090205490915063ffffffff9081169082161015611d36575060ff8316600090815260cb602052604090205463ffffffff165b60ff8416600081815260ca6020908152604080832063ffffffff861680855290835281842080546001810182559085529383902090930187905580519384529083018690528201527f67778e52b18dcf574ab071142a886fce91a8ce5e60e176229fdadb8c063caaed9060600160405180910390a150505050565b60008461018001516000148015611dcb5750610160850151155b15611dd857506001611f3a565b600080836001600160a01b031663313ce5676040518163ffffffff1660e01b815260040160206040518083038186803b158015611e1457600080fd5b505afa158015611e28573d6000803e3d6000fd5b505050506040513d601f19601f82011682018060405250810190611e4c91906144a8565b90506000611e5b82600a6145a9565b60608901519091506001600160a01b031615611eac57611e9186868a606001518960600151600a611e8c91906145a9565b6129e9565b611e9b8280613e4f565b611ea59190614399565b9250611ede565b611ec788888860600151600a611ec291906145a9565b612d19565b611ed18280613e4f565b611edb9190614399565b92505b6000886101800151118015611ef7575087610180015183105b15611f085760009350505050611f3a565b6000886101600151118015611f21575087610160015183115b15611f325760009350505050611f3a565b600193505050505b949350505050565b600080856102200151600081518110611f5d57611f5d613d82565b60209081029190910101516040516370a0823160e01b81523060048201529091506000906001600160a01b038316906370a082319060240160206040518083038186803b158015611fad57600080fd5b505afa158015611fc1573d6000803e3d6000fd5b505050506040513d601f19601f82011682018060405250810190611fe59190613d98565b60cd54885160405163fcd6a25b60e01b81526001600160a01b0391821660048201523060248201526044810189905260006064820152929350169063fcd6a25b90608401600060405180830381600087803b15801561204357600080fd5b505af1925050508015612054575060015b6120f9573d808015612082576040519150601f19603f3d011682016040523d82523d6000602084013e612087565b606091505b5060cc54604051632a74cbb560e01b81526001600160a01b0390911690632a74cbb5906120bb908c90600290600401614446565b600060405180830381600087803b1580156120d557600080fd5b505af11580156120e9573d6000803e3d6000fd5b50505050600093505050506128de565b60cd546000906001600160a01b031663e1ded2de6121178789613e6e565b6040518263ffffffff1660e01b815260040161213591815260200190565b60206040518083038186803b15801561214d57600080fd5b505afa158015612161573d6000803e3d6000fd5b505050506040513d601f19601f820116820180604052508101906121859190613d98565b60cd546040516370a0823160e01b81523060048201529192506001600160a01b0316906370a082319060240160206040518083038186803b1580156121c957600080fd5b505afa1580156121dd573d6000803e3d6000fd5b505050506040513d601f19601f820116820180604052508101906122019190613d98565b8111156122865760cd546040516370a0823160e01b81523060048201526001600160a01b03909116906370a082319060240160206040518083038186803b15801561224b57600080fd5b505afa15801561225f573d6000803e3d6000fd5b505050506040513d601f19601f820116820180604052508101906122839190613d98565b90505b60cd5460405163f3fef3a360e01b81526001600160a01b038581166004830152602482018490529091169063f3fef3a390604401600060405180830381600087803b1580156122d457600080fd5b505af11580156122e8573d6000803e3d6000fd5b50506040516370a0823160e01b8152306004820152600092508491506001600160a01b038616906370a082319060240160206040518083038186803b15801561233057600080fd5b505afa158015612344573d6000803e3d6000fd5b505050506040513d601f19601f820116820180604052508101906123689190613d98565b6123729190613e6e565b9050600081116123bc5760405162461bcd60e51b815260206004820152601560248201527421494e56414c494428696e707574416d6f756e742960581b60448201526064016104be565b60006123c98a8a84612e5f565b905080156126eb5760006123df8b8b8585612ff9565b905080156124f35760cd5460d5546040516370a0823160e01b81523060048201526001600160a01b039283169263a9059cbb92169083906370a082319060240160206040518083038186803b15801561243757600080fd5b505afa15801561244b573d6000803e3d6000fd5b505050506040513d601f19601f8201168201806040525081019061246f9190613d98565b6040516001600160e01b031960e085901b1681526001600160a01b0390921660048301526024820152604401602060405180830381600087803b1580156124b557600080fd5b505af11580156124c9573d6000803e3d6000fd5b505050506040513d601f19601f820116820180604052508101906124ed9190613dc6565b506126de565b60cd5461250d906001600160a01b0388811691168561309b565b60cd546040516311f9fbc960e21b81526001600160a01b03888116600483015260248201869052909116906347e7ef2490604401600060405180830381600087803b15801561255b57600080fd5b505af115801561256f573d6000803e3d6000fd5b505060cd548d516040516370a0823160e01b81523060048201526001600160a01b03909216935063a9059cbb92509083906370a082319060240160206040518083038186803b1580156125c157600080fd5b505afa1580156125d5573d6000803e3d6000fd5b505050506040513d601f19601f820116820180604052508101906125f99190613d98565b6040516001600160e01b031960e085901b1681526001600160a01b0390921660048301526024820152604401602060405180830381600087803b15801561263f57600080fd5b505af1158015612653573d6000803e3d6000fd5b505050506040513d601f19601f820116820180604052508101906126779190613dc6565b5060cc54604051632a74cbb560e01b81526001600160a01b0390911690632a74cbb5906126ab908f90600590600401614446565b600060405180830381600087803b1580156126c557600080fd5b505af11580156126d9573d6000803e3d6000fd5b505050505b95506128de945050505050565b60cd54612705906001600160a01b0387811691168461309b565b60cd546040516311f9fbc960e21b81526001600160a01b03878116600483015260248201859052909116906347e7ef2490604401600060405180830381600087803b15801561275357600080fd5b505af1158015612767573d6000803e3d6000fd5b505060cd548c516040516370a0823160e01b81523060048201526001600160a01b03909216935063a9059cbb92509083906370a082319060240160206040518083038186803b1580156127b957600080fd5b505afa1580156127cd573d6000803e3d6000fd5b505050506040513d601f19601f820116820180604052508101906127f19190613d98565b6040516001600160e01b031960e085901b1681526001600160a01b0390921660048301526024820152604401602060405180830381600087803b15801561283757600080fd5b505af115801561284b573d6000803e3d6000fd5b505050506040513d601f19601f8201168201806040525081019061286f9190613dc6565b5060cc54604051632a74cbb560e01b81526001600160a01b0390911690632a74cbb5906128a2908e906004908101614446565b600060405180830381600087803b1580156128bc57600080fd5b505af11580156128d0573d6000803e3d6000fd5b505050506000955050505050505b95945050505050565b600054610100900460ff1661290e5760405162461bcd60e51b81526004016104be9061445d565b612916612955565b6107f961317e565b600054610100900460ff166129455760405162461bcd60e51b81526004016104be9061445d565b61294d612955565b6107f96131ae565b600054610100900460ff166107f95760405162461bcd60e51b81526004016104be9061445d565b600054610100900460ff166129a35760405162461bcd60e51b81526004016104be9061445d565b60c9805463ffffffff191663ffffffff83169081179091556129c69060146145b8565b60c960046101000a81548163ffffffff021916908363ffffffff16021790555050565b6000816129f857506000611f3a565b6000806000866001600160a01b031663313ce5676040518163ffffffff1660e01b815260040160206040518083038186803b158015612a3657600080fd5b505afa158015612a4a573d6000803e3d6000fd5b505050506040513d601f19601f82011682018060405250810190612a6e91906144a8565b90506000866001600160a01b031663313ce5676040518163ffffffff1660e01b815260040160206040518083038186803b158015612aab57600080fd5b505afa158015612abf573d6000803e3d6000fd5b505050506040513d601f19601f82011682018060405250810190612ae391906144a8565b905088600001516001600160a01b031663feaf968c6040518163ffffffff1660e01b815260040160a06040518083038186803b158015612b2257600080fd5b505afa158015612b36573d6000803e3d6000fd5b505050506040513d601f19601f82011682018060405250810190612b5a91906145fe565b5060d4549297509550869250501580612b7e575060d454612b7b8542613e6e565b11155b612bbc5760405162461bcd60e51b815260206004820152600f60248201526e0854149250d157d3d5551110551151608a1b60448201526064016104be565b876001600160a01b031663feaf968c6040518163ffffffff1660e01b815260040160a06040518083038186803b158015612bf557600080fd5b505afa158015612c09573d6000803e3d6000fd5b505050506040513d601f19601f82011682018060405250810190612c2d91906145fe565b5060d4549298509650879250501580612c51575060d454612c4e8642613e6e565b11155b612c8f5760405162461bcd60e51b815260206004820152600f60248201526e0854149250d157d3d5551110551151608a1b60448201526064016104be565b8260ff168b6080015160ff1614612cea57612cab8184866131e1565b612cba838d60800151876131e1565b612cc98a8e60600151886131e1565b612cd39190613e4f565b612cdd9190614399565b9650505050505050611f3a565b612cdd8183612cfe8b8f60600151886131e1565b612d089190613e4f565b612d129190614399565b84866131e1565b60008083516003811115612d2f57612d2f6142bb565b1415612d4657612d3f848361324b565b9050610625565b600183516003811115612d5b57612d5b6142bb565b1415612d945760608401516001600160a01b0316612d8b5760405162461bcd60e51b81526004016104be9061464e565b50600019610625565b600283516003811115612da957612da96142bb565b1415612dd95760608401516001600160a01b0316612d8b5760405162461bcd60e51b81526004016104be9061464e565b600383516003811115612dee57612dee6142bb565b1415612e1e5760608401516001600160a01b0316612d8b5760405162461bcd60e51b81526004016104be9061464e565b60405162461bcd60e51b815260206004820152601660248201527521494e56414c4944287377617050726f746f636f6c2960501b60448201526064016104be565b60cd54610220840151805160009283926001600160a01b03909116916330b8b2c691908490612e9057612e90613d82565b60200260200101516040518263ffffffff1660e01b8152600401612ec391906001600160a01b0391909116815260200190565b60c06040518083038186803b158015612edb57600080fd5b505afa158015612eef573d6000803e3d6000fd5b505050506040513d601f19601f82011682018060405250810190612f1391906143ad565b60608601519091506000906001600160a01b031615612f6c576102208601518051612f69918491612f4690600190613e6e565b81518110612f5657612f56613d82565b60200260200101518860600151876129e9565b90505b6000612f79878787612d19565b90508115612fc45761271087610140015183612f959190613e4f565b612f9f9190614399565b612fa99083613e6e565b915081811015612fbf5760009350505050610625565b612fef565b61271087610140015182612fd89190613e4f565b612fe29190614399565b612fec9082613e6e565b91505b5095945050505050565b6000808451600381111561300f5761300f6142bb565b14156130275761302085848461330b565b9050611f3a565b60018451600381111561303c5761303c6142bb565b141561304e5761302085858585613459565b600284516003811115613063576130636142bb565b141561307457613020858484613579565b600384516003811115613089576130896142bb565b1415612e1e576130208585858561377b565b604051636eb1769f60e11b81523060048201526001600160a01b038381166024830152600091839186169063dd62ed3e9060440160206040518083038186803b1580156130e757600080fd5b505afa1580156130fb573d6000803e3d6000fd5b505050506040513d601f19601f8201168201806040525081019061311f9190613d98565b6131299190613e9b565b604080516001600160a01b038616602482015260448082018490528251808303909101815260649091019091526020810180516001600160e01b031663095ea7b360e01b1790529091506110c2908590613889565b600054610100900460ff166131a55760405162461bcd60e51b81526004016104be9061445d565b6107f933611bf7565b600054610100900460ff166131d55760405162461bcd60e51b81526004016104be9061445d565b6065805460ff19169055565b60008160ff168360ff161015613213576131fb838361467b565b6132099060ff16600a61469e565b612d3f9085613e4f565b8160ff168360ff1611156132435761322b828461467b565b6132399060ff16600a61469e565b612d3f9085614399565b509192915050565b60008083604001516001600160a01b031663d06ca61f848661022001516040518363ffffffff1660e01b81526004016132859291906146aa565b60006040518083038186803b15801561329d57600080fd5b505afa1580156132b1573d6000803e3d6000fd5b505050506040513d6000823e601f3d908101601f191682016040526132d991908101906146c3565b905080600182516132ea9190613e6e565b815181106132fa576132fa613d82565b602002602001015191505092915050565b600061334e84604001518486610220015160008151811061332e5761332e613d82565b60200260200101516001600160a01b031661309b9092919063ffffffff16565b600084604001516001600160a01b03166338ed17398585886102200151896020015142610e1061337e9190613e9b565b6040518663ffffffff1660e01b815260040161339e959493929190614749565b600060405180830381600087803b1580156133b857600080fd5b505af19250505080156133ed57506040513d6000823e601f3d908101601f191682016040526133ea91908101906146c3565b60015b613427573d80801561341b576040519150601f19603f3d011682016040523d82523d6000602084013e613420565b606091505b5050611f3a565b80600182516134369190613e6e565b8151811061344657613446613d82565b6020026020010151915050949350505050565b600061347c85604001518487610220015160008151811061332e5761332e613d82565b6000806040518060a001604052808760200151815260200188602001516001600160a01b0316815260200142603c6134b49190613e9b565b815260200186815260200185815250905086604001516001600160a01b031663c04b8d59826040518263ffffffff1660e01b81526004016134f59190614785565b602060405180830381600087803b15801561350f57600080fd5b505af192505050801561353f575060408051601f3d908101601f1916820190925261353c91810190613d98565b60015b612fec573d80801561356d576040519150601f19603f3d011682016040523d82523d6000602084013e613572565b606091505b5050612fef565b600061359c84604001518486610220015160008151811061332e5761332e613d82565b6102208401518051600091906135b490600190613e6e565b815181106135c4576135c4613d82565b60209081029190910101516040516370a0823160e01b81523060048201529091506000906001600160a01b038316906370a082319060240160206040518083038186803b15801561361457600080fd5b505afa158015613628573d6000803e3d6000fd5b505050506040513d601f19601f8201168201806040525081019061364c9190613d98565b905085604001516001600160a01b0316636023e96687610220015187878a602001516040518563ffffffff1660e01b815260040161368d94939291906147dd565b600060405180830381600087803b1580156136a757600080fd5b505af19250505080156136b8575060015b6136ee573d8080156136e6576040519150601f19603f3d011682016040523d82523d6000602084013e6136eb565b606091505b50505b6040516370a0823160e01b815230600482015281906001600160a01b038416906370a082319060240160206040518083038186803b15801561372f57600080fd5b505afa158015613743573d6000803e3d6000fd5b505050506040513d601f19601f820116820180604052508101906137679190613d98565b6137719190613e6e565b9695505050505050565b600061379e85604001518487610220015160008151811061332e5761332e613d82565b600085604001516001600160a01b0316636d0ff495858588602001518060200190518101906137cd91906146c3565b6102208b015160208c01516137e442610e10613e9b565b6040518763ffffffff1660e01b815260040161380596959493929190614815565b602060405180830381600087803b15801561381f57600080fd5b505af192505050801561384f575060408051601f3d908101601f1916820190925261384c91810190613d98565b60015b613771573d80801561387d576040519150601f19603f3d011682016040523d82523d6000602084013e613882565b606091505b50506128de565b60006138de826040518060400160405280602081526020017f5361666545524332303a206c6f772d6c6576656c2063616c6c206661696c6564815250856001600160a01b031661395b9092919063ffffffff16565b8051909150156107c257808060200190518101906138fc9190613dc6565b6107c25760405162461bcd60e51b815260206004820152602a60248201527f5361666545524332303a204552433230206f7065726174696f6e20646964206e6044820152691bdd081cdd58d8d9595960b21b60648201526084016104be565b6060611f3a848460008585843b6139b45760405162461bcd60e51b815260206004820152601d60248201527f416464726573733a2063616c6c20746f206e6f6e2d636f6e747261637400000060448201526064016104be565b600080866001600160a01b031685876040516139d09190614891565b60006040518083038185875af1925050503d8060008114613a0d576040519150601f19603f3d011682016040523d82523d6000602084013e613a12565b606091505b5091509150613a22828286613a2d565b979650505050505050565b60608315613a3c575081610625565b825115613a4c5782518084602001fd5b8160405162461bcd60e51b81526004016104be91906148ad565b63ffffffff8116811461127557600080fd5b600080600080600080600060e0888a031215613a9357600080fd5b873596506020880135955060408801359450606088013593506080880135925060a0880135613ac181613a66565b915060c0880135613ad181613a66565b8091505092959891949750929550565b60ff8116811461127557600080fd5b60008060408385031215613b0357600080fd5b8235613b0e81613ae1565b91506020830135613b1e81613a66565b809150509250929050565b600080600060608486031215613b3e57600080fd5b8335613b4981613ae1565b92506020840135613b5981613a66565b929592945050506040919091013590565b600060208284031215613b7c57600080fd5b813561062581613ae1565b600060208284031215613b9957600080fd5b5035919050565b6001600160a01b038116811461127557600080fd5b60008060408385031215613bc857600080fd5b8235613bd381613ba0565b91506020830135613b1e81613ba0565b60008060208385031215613bf657600080fd5b823567ffffffffffffffff80821115613c0e57600080fd5b818501915085601f830112613c2257600080fd5b813581811115613c3157600080fd5b866020828501011115613c4357600080fd5b60209290920196919550909350505050565b60005b83811015613c70578181015183820152602001613c58565b838111156110c25750506000910152565b60008151808452613c99816020860160208601613c55565b601f01601f19169290920160200192915050565b8215158152604060208201526000611f3a6040830184613c81565b600060208284031215613cda57600080fd5b813561062581613a66565b600080600060608486031215613cfa57600080fd5b8335613d0581613ba0565b92506020840135613d1581613ba0565b91506040840135613d2581613ba0565b809150509250925092565b600060208284031215613d4257600080fd5b813561062581613ba0565b6020808252818101527f4f776e61626c653a2063616c6c6572206973206e6f7420746865206f776e6572604082015260600190565b634e487b7160e01b600052603260045260246000fd5b600060208284031215613daa57600080fd5b5051919050565b80518015158114613dc157600080fd5b919050565b600060208284031215613dd857600080fd5b61062582613db1565b60208082526010908201526f14185d5cd8589b194e881c185d5cd95960821b604082015260600190565b600080600060608486031215613e2057600080fd5b83359250602084013591506040840135613d2581613ae1565b634e487b7160e01b600052601160045260246000fd5b6000816000190483118215151615613e6957613e69613e39565b500290565b600082821015613e8057613e80613e39565b500390565b634e487b7160e01b600052603160045260246000fd5b60008219821115613eae57613eae613e39565b500190565b600063ffffffff808316818516808303821115613ed257613ed2613e39565b01949350505050565b600063ffffffff83811690831681811015613ef857613ef8613e39565b039392505050565b634e487b7160e01b600052601260045260246000fd5b600063ffffffff80841680613f2d57613f2d613f00565b92169190910692915050565b634e487b7160e01b600052604160045260246000fd5b604051610240810167ffffffffffffffff81118282101715613f7357613f73613f39565b60405290565b6040805190810167ffffffffffffffff81118282101715613f7357613f73613f39565b604051601f8201601f1916810167ffffffffffffffff81118282101715613fc557613fc5613f39565b604052919050565b8051613dc181613ba0565b8051613dc181613a66565b805160058110613dc157600080fd5b600067ffffffffffffffff82111561400c5761400c613f39565b5060051b60200190565b600082601f83011261402757600080fd5b8151602061403c61403783613ff2565b613f9c565b82815260059290921b8401810191818101908684111561405b57600080fd5b8286015b8481101561407f57805161407281613ba0565b835291830191830161405f565b509695505050505050565b60006020828403121561409c57600080fd5b815167ffffffffffffffff808211156140b457600080fd5b9083019061024082860312156140c957600080fd5b6140d1613f4f565b6140da83613fcd565b81526140e860208401613fcd565b60208201526140f960408401613fcd565b604082015261410a60608401613fcd565b60608201526080838101519082015260a0808401519082015260c0808401519082015260e08084015190820152610100808401519082015261012080840151908201526101408084015190820152610160808401519082015261018080840151908201526101a061417c818501613fd8565b908201526101c061418e848201613fd8565b908201526101e06141a0848201613fd8565b908201526102006141b2848201613fe3565b9082015261022083810151838111156141ca57600080fd5b6141d688828701614016565b918301919091525095945050505050565b600060208083850312156141fa57600080fd5b825167ffffffffffffffff8082111561421257600080fd5b908401906040828703121561422657600080fd5b61422e613f79565b82516004811061423d57600080fd5b8152828401518281111561425057600080fd5b80840193505086601f84011261426557600080fd5b82518281111561427757614277613f39565b614289601f8201601f19168601613f9c565b9250808352878582860101111561429f57600080fd5b6142ae81868501878701613c55565b5092830152509392505050565b634e487b7160e01b600052602160045260246000fd5b60048110611275576112756142bb565b600081518084526020808501945080840160005b8381101561431a5781516001600160a01b0316875295820195908201906001016142f5565b509495945050505050565b61432e866142d1565b85815260a06020820152600061434760a0830187613c81565b6001600160a01b03868116604085015285166060840152828103608084015261437081856142e1565b98975050505050505050565b8281526040810161438c836142d1565b8260208301529392505050565b6000826143a8576143a8613f00565b500490565b600060c082840312156143bf57600080fd5b60405160c0810181811067ffffffffffffffff821117156143e2576143e2613f39565b60405282516143f081613ba0565b808252506020830151602082015260408301516040820152606083015161441681613ae1565b6060820152608083015161442981613ae1565b608082015261443a60a08401613db1565b60a08201529392505050565b828152604081016006831061438c5761438c6142bb565b6020808252602b908201527f496e697469616c697a61626c653a20636f6e7472616374206973206e6f74206960408201526a6e697469616c697a696e6760a81b606082015260800190565b6000602082840312156144ba57600080fd5b815161062581613ae1565b600181815b808511156145005781600019048211156144e6576144e6613e39565b808516156144f357918102915b93841c93908002906144ca565b509250929050565b60008261451757506001610ebe565b8161452457506000610ebe565b816001811461453a576002811461454457614560565b6001915050610ebe565b60ff84111561455557614555613e39565b50506001821b610ebe565b5060208310610133831016604e8410600b8410161715614583575081810a610ebe565b61458d83836144c5565b80600019048211156145a1576145a1613e39565b029392505050565b600061062560ff841683614508565b600063ffffffff808316818516818304811182151516156145db576145db613e39565b02949350505050565b805169ffffffffffffffffffff81168114613dc157600080fd5b600080600080600060a0868803121561461657600080fd5b61461f866145e4565b9450602086015193506040860151925060608601519150614642608087016145e4565b90509295509295909350565b60208082526013908201527221494e56414c4944287072696365466565642960681b604082015260600190565b600060ff821660ff84168082101561469557614695613e39565b90039392505050565b60006106258383614508565b828152604060208201526000611f3a60408301846142e1565b600060208083850312156146d657600080fd5b825167ffffffffffffffff8111156146ed57600080fd5b8301601f810185136146fe57600080fd5b805161470c61403782613ff2565b81815260059190911b8201830190838101908783111561472b57600080fd5b928401925b82841015613a2257835182529284019290840190614730565b85815284602082015260a06040820152600061476860a08301866142e1565b6001600160a01b0394909416606083015250608001529392505050565b602081526000825160a060208401526147a160c0840182613c81565b905060018060a01b0360208501511660408401526040840151606084015260608401516080840152608084015160a08401528091505092915050565b6080815260006147f060808301876142e1565b60208301959095525060408101929092526001600160a01b0316606090910152919050565b600060c082018883526020888185015260c0604085015281885180845260e086019150828a01935060005b8181101561485c57845183529383019391830191600101614840565b5050848103606086015261487081896142e1565b6001600160a01b039790971660808601525050505060a00152949350505050565b600082516148a3818460208701613c55565b9190910192915050565b6020815260006106256020830184613c8156fea2646970667358221220dc07825010c1f114eabcbda5762afdf1c238884b34ead8246080eb7115534f3b64736f6c63430008090033",
  "devdoc": {
    "kind": "dev",
    "methods": {
      "checkUpkeep(bytes)": {
        "details": "To ensure that it is never called, you may want to add the cannotExecute modifier from KeeperBase to your implementation of this method.",
        "params": {
          "checkData": "specified in the upkeep registration so it is always the same for a registered upkeep. This can easilly be broken down into specific arguments using `abi.decode`, so multiple upkeeps can be registered on the same contract and easily differentiated by the contract."
        },
        "returns": {
          "performData": "bytes that the keeper should call performUpkeep with, if upkeep is needed. If you would like to encode data to decode later, try `abi.encode`.",
          "upkeepNeeded": "boolean to indicate whether the keeper should call performUpkeep or not."
        }
      },
      "constructor": {
        "custom:oz-upgrades-unsafe-allow": "constructor"
      },
      "owner()": {
        "details": "Returns the address of the current owner."
      },
      "paused()": {
        "details": "Returns true if the contract is paused, and false otherwise."
      },
      "performUpkeep(bytes)": {
        "details": "The input to this method should not be trusted, and the caller of the method should not even be restricted to any single registry. Anyone should be able call it, and the input should be validated, there is no guarantee that the data passed in is the performData returned from checkUpkeep. This could happen due to malicious keepers, racing keepers, or simply a state change while the performUpkeep transaction is waiting for confirmation. Always validate the data passed in.",
        "params": {
          "performData": "is the data which was passed back from the checkData simulation. If it is encoded, it can easily be decoded into other types by calling `abi.decode`. This data should not be trusted, and should be validated against the contract's current state."
        }
      },
      "renounceOwnership()": {
        "details": "Leaves the contract without owner. It will not be possible to call `onlyOwner` functions anymore. Can only be called by the current owner. NOTE: Renouncing ownership will leave the contract without an owner, thereby removing any functionality that is only available to the owner."
      },
      "transferOwnership(address)": {
        "details": "Transfers ownership of the contract to a new account (`newOwner`). Can only be called by the current owner."
      }
    },
    "stateVariables": {
      "blacklistedAssetspecs": {
        "details": "map of assetSpecs that are deemed unsafe and any active DCA to them will be canceled "
      },
      "caskDCA": {
        "details": "Pointer to CaskDCA contract "
      },
      "caskVault": {
        "details": "vault to use for DCA funding. "
      },
      "dcaFeeBps": {
        "details": "DCA transaction fee in basis points. "
      },
      "dcaFeeMin": {
        "details": "Minimum DCA transaction fee. "
      },
      "dcaMinValue": {
        "details": "Smallest allowable DCA amount. "
      },
      "feeDistributor": {
        "details": "Address to receive DCA fees. "
      },
      "maxPriceFeedAge": {
        "details": "revert if price feed age is older than this number of seconds. set to 0 to disable check. "
      },
      "maxSkips": {
        "details": "max number of failed DCA purchases before DCA is permanently canceled. "
      },
      "reserved1": {
        "details": "merkle root of allowed assets definitions. "
      }
    },
    "version": 1
  },
  "userdoc": {
    "kind": "user",
    "methods": {
      "checkUpkeep(bytes)": {
        "notice": "method that is simulated by the keepers to see if any work actually needs to be performed. This method does does not actually need to be executable, and since it is only ever simulated it can consume lots of gas."
      },
      "performUpkeep(bytes)": {
        "notice": "method that is actually executed by the keepers, via the registry. The data returned by the checkUpkeep simulation will be passed into this method to actually be executed."
      }
    },
    "version": 1
  },
  "storageLayout": {
    "storage": [
      {
        "astId": 327,
        "contract": "contracts/dca/CaskDCAManager.sol:CaskDCAManager",
        "label": "_initialized",
        "offset": 0,
        "slot": "0",
        "type": "t_bool"
      },
      {
        "astId": 330,
        "contract": "contracts/dca/CaskDCAManager.sol:CaskDCAManager",
        "label": "_initializing",
        "offset": 1,
        "slot": "0",
        "type": "t_bool"
      },
      {
        "astId": 2551,
        "contract": "contracts/dca/CaskDCAManager.sol:CaskDCAManager",
        "label": "__gap",
        "offset": 0,
        "slot": "1",
        "type": "t_array(t_uint256)50_storage"
      },
      {
        "astId": 205,
        "contract": "contracts/dca/CaskDCAManager.sol:CaskDCAManager",
        "label": "_owner",
        "offset": 0,
        "slot": "51",
        "type": "t_address"
      },
      {
        "astId": 319,
        "contract": "contracts/dca/CaskDCAManager.sol:CaskDCAManager",
        "label": "__gap",
        "offset": 0,
        "slot": "52",
        "type": "t_array(t_uint256)49_storage"
      },
      {
        "astId": 415,
        "contract": "contracts/dca/CaskDCAManager.sol:CaskDCAManager",
        "label": "_paused",
        "offset": 0,
        "slot": "101",
        "type": "t_bool"
      },
      {
        "astId": 506,
        "contract": "contracts/dca/CaskDCAManager.sol:CaskDCAManager",
        "label": "__gap",
        "offset": 0,
        "slot": "102",
        "type": "t_array(t_uint256)49_storage"
      },
      {
        "astId": 521,
        "contract": "contracts/dca/CaskDCAManager.sol:CaskDCAManager",
        "label": "_status",
        "offset": 0,
        "slot": "151",
        "type": "t_uint256"
      },
      {
        "astId": 564,
        "contract": "contracts/dca/CaskDCAManager.sol:CaskDCAManager",
        "label": "__gap",
        "offset": 0,
        "slot": "152",
        "type": "t_array(t_uint256)49_storage"
      },
      {
        "astId": 18542,
        "contract": "contracts/dca/CaskDCAManager.sol:CaskDCAManager",
        "label": "queueBucketSize",
        "offset": 0,
        "slot": "201",
        "type": "t_uint32"
      },
      {
        "astId": 18545,
        "contract": "contracts/dca/CaskDCAManager.sol:CaskDCAManager",
        "label": "maxQueueAge",
        "offset": 4,
        "slot": "201",
        "type": "t_uint32"
      },
      {
        "astId": 18553,
        "contract": "contracts/dca/CaskDCAManager.sol:CaskDCAManager",
        "label": "queue",
        "offset": 0,
        "slot": "202",
        "type": "t_mapping(t_uint8,t_mapping(t_uint32,t_array(t_bytes32)dyn_storage))"
      },
      {
        "astId": 18557,
        "contract": "contracts/dca/CaskDCAManager.sol:CaskDCAManager",
        "label": "queueBucket",
        "offset": 0,
        "slot": "203",
        "type": "t_mapping(t_uint8,t_uint32)"
      },
      {
        "astId": 14660,
        "contract": "contracts/dca/CaskDCAManager.sol:CaskDCAManager",
        "label": "caskDCA",
        "offset": 0,
        "slot": "204",
        "type": "t_contract(ICaskDCA)16990"
      },
      {
        "astId": 14664,
        "contract": "contracts/dca/CaskDCAManager.sol:CaskDCAManager",
        "label": "caskVault",
        "offset": 0,
        "slot": "205",
        "type": "t_contract(ICaskVault)18286"
      },
      {
        "astId": 14667,
        "contract": "contracts/dca/CaskDCAManager.sol:CaskDCAManager",
        "label": "reserved1",
        "offset": 0,
        "slot": "206",
        "type": "t_bytes32"
      },
      {
        "astId": 14672,
        "contract": "contracts/dca/CaskDCAManager.sol:CaskDCAManager",
        "label": "blacklistedAssetspecs",
        "offset": 0,
        "slot": "207",
        "type": "t_mapping(t_bytes32,t_bool)"
      },
      {
        "astId": 14675,
        "contract": "contracts/dca/CaskDCAManager.sol:CaskDCAManager",
        "label": "maxSkips",
        "offset": 0,
        "slot": "208",
        "type": "t_uint256"
      },
      {
        "astId": 14678,
        "contract": "contracts/dca/CaskDCAManager.sol:CaskDCAManager",
        "label": "dcaFeeBps",
        "offset": 0,
        "slot": "209",
        "type": "t_uint256"
      },
      {
        "astId": 14681,
        "contract": "contracts/dca/CaskDCAManager.sol:CaskDCAManager",
        "label": "dcaFeeMin",
        "offset": 0,
        "slot": "210",
        "type": "t_uint256"
      },
      {
        "astId": 14684,
        "contract": "contracts/dca/CaskDCAManager.sol:CaskDCAManager",
        "label": "dcaMinValue",
        "offset": 0,
        "slot": "211",
        "type": "t_uint256"
      },
      {
        "astId": 14687,
        "contract": "contracts/dca/CaskDCAManager.sol:CaskDCAManager",
        "label": "maxPriceFeedAge",
        "offset": 0,
        "slot": "212",
        "type": "t_uint256"
      },
      {
        "astId": 14690,
        "contract": "contracts/dca/CaskDCAManager.sol:CaskDCAManager",
        "label": "feeDistributor",
        "offset": 0,
        "slot": "213",
        "type": "t_address"
      }
    ],
    "types": {
      "t_address": {
        "encoding": "inplace",
        "label": "address",
        "numberOfBytes": "20"
      },
      "t_array(t_bytes32)dyn_storage": {
        "base": "t_bytes32",
        "encoding": "dynamic_array",
        "label": "bytes32[]",
        "numberOfBytes": "32"
      },
      "t_array(t_uint256)49_storage": {
        "base": "t_uint256",
        "encoding": "inplace",
        "label": "uint256[49]",
        "numberOfBytes": "1568"
      },
      "t_array(t_uint256)50_storage": {
        "base": "t_uint256",
        "encoding": "inplace",
        "label": "uint256[50]",
        "numberOfBytes": "1600"
      },
      "t_bool": {
        "encoding": "inplace",
        "label": "bool",
        "numberOfBytes": "1"
      },
      "t_bytes32": {
        "encoding": "inplace",
        "label": "bytes32",
        "numberOfBytes": "32"
      },
      "t_contract(ICaskDCA)16990": {
        "encoding": "inplace",
        "label": "contract ICaskDCA",
        "numberOfBytes": "20"
      },
      "t_contract(ICaskVault)18286": {
        "encoding": "inplace",
        "label": "contract ICaskVault",
        "numberOfBytes": "20"
      },
      "t_mapping(t_bytes32,t_bool)": {
        "encoding": "mapping",
        "key": "t_bytes32",
        "label": "mapping(bytes32 => bool)",
        "numberOfBytes": "32",
        "value": "t_bool"
      },
      "t_mapping(t_uint32,t_array(t_bytes32)dyn_storage)": {
        "encoding": "mapping",
        "key": "t_uint32",
        "label": "mapping(uint32 => bytes32[])",
        "numberOfBytes": "32",
        "value": "t_array(t_bytes32)dyn_storage"
      },
      "t_mapping(t_uint8,t_mapping(t_uint32,t_array(t_bytes32)dyn_storage))": {
        "encoding": "mapping",
        "key": "t_uint8",
        "label": "mapping(uint8 => mapping(uint32 => bytes32[]))",
        "numberOfBytes": "32",
        "value": "t_mapping(t_uint32,t_array(t_bytes32)dyn_storage)"
      },
      "t_mapping(t_uint8,t_uint32)": {
        "encoding": "mapping",
        "key": "t_uint8",
        "label": "mapping(uint8 => uint32)",
        "numberOfBytes": "32",
        "value": "t_uint32"
      },
      "t_uint256": {
        "encoding": "inplace",
        "label": "uint256",
        "numberOfBytes": "32"
      },
      "t_uint32": {
        "encoding": "inplace",
        "label": "uint32",
        "numberOfBytes": "4"
      },
      "t_uint8": {
        "encoding": "inplace",
        "label": "uint8",
        "numberOfBytes": "1"
      }
    }
  }
}