{
  "address": "0xe302E77faF6b75E9d2b4CFDA26aF4c219ac31AD8",
  "abi": [
    {
      "inputs": [
        {
          "internalType": "uint256",
          "name": "id",
          "type": "uint256"
        },
        {
          "internalType": "uint96",
          "name": "amount",
          "type": "uint96"
        }
      ],
      "name": "addFunds",
      "outputs": [],
      "stateMutability": "nonpayable",
      "type": "function"
    },
    {
      "inputs": [
        {
          "internalType": "uint256",
          "name": "id",
          "type": "uint256"
        }
      ],
      "name": "cancelUpkeep",
      "outputs": [],
      "stateMutability": "nonpayable",
      "type": "function"
    },
    {
      "inputs": [],
      "name": "getCanceledUpkeepList",
      "outputs": [
        {
          "internalType": "uint256[]",
          "name": "",
          "type": "uint256[]"
        }
      ],
      "stateMutability": "view",
      "type": "function"
    },
    {
      "inputs": [],
      "name": "getConfig",
      "outputs": [
        {
          "internalType": "uint32",
          "name": "paymentPremiumPPB",
          "type": "uint32"
        },
        {
          "internalType": "uint24",
          "name": "checkFrequencyBlocks",
          "type": "uint24"
        },
        {
          "internalType": "uint32",
          "name": "checkGasLimit",
          "type": "uint32"
        },
        {
          "internalType": "uint24",
          "name": "stalenessSeconds",
          "type": "uint24"
        },
        {
          "internalType": "uint16",
          "name": "gasCeilingMultiplier",
          "type": "uint16"
        },
        {
          "internalType": "uint256",
          "name": "fallbackGasPrice",
          "type": "uint256"
        },
        {
          "internalType": "uint256",
          "name": "fallbackLinkPrice",
          "type": "uint256"
        }
      ],
      "stateMutability": "view",
      "type": "function"
    },
    {
      "inputs": [
        {
          "internalType": "address",
          "name": "query",
          "type": "address"
        }
      ],
      "name": "getKeeperInfo",
      "outputs": [
        {
          "internalType": "address",
          "name": "payee",
          "type": "address"
        },
        {
          "internalType": "bool",
          "name": "active",
          "type": "bool"
        },
        {
          "internalType": "uint96",
          "name": "balance",
          "type": "uint96"
        }
      ],
      "stateMutability": "view",
      "type": "function"
    },
    {
      "inputs": [],
      "name": "getKeeperList",
      "outputs": [
        {
          "internalType": "address[]",
          "name": "",
          "type": "address[]"
        }
      ],
      "stateMutability": "view",
      "type": "function"
    },
    {
      "inputs": [
        {
          "internalType": "uint256",
          "name": "id",
          "type": "uint256"
        }
      ],
      "name": "getUpkeep",
      "outputs": [
        {
          "internalType": "address",
          "name": "target",
          "type": "address"
        },
        {
          "internalType": "uint32",
          "name": "executeGas",
          "type": "uint32"
        },
        {
          "internalType": "bytes",
          "name": "checkData",
          "type": "bytes"
        },
        {
          "internalType": "uint96",
          "name": "balance",
          "type": "uint96"
        },
        {
          "internalType": "address",
          "name": "lastKeeper",
          "type": "address"
        },
        {
          "internalType": "address",
          "name": "admin",
          "type": "address"
        },
        {
          "internalType": "uint64",
          "name": "maxValidBlocknumber",
          "type": "uint64"
        },
        {
          "internalType": "uint96",
          "name": "amountSpent",
          "type": "uint96"
        }
      ],
      "stateMutability": "view",
      "type": "function"
    },
    {
      "inputs": [],
      "name": "getUpkeepCount",
      "outputs": [
        {
          "internalType": "uint256",
          "name": "",
          "type": "uint256"
        }
      ],
      "stateMutability": "view",
      "type": "function"
    },
    {
      "inputs": [
        {
          "internalType": "address",
          "name": "_linkToken",
          "type": "address"
        }
      ],
      "name": "initialize",
      "outputs": [],
      "stateMutability": "nonpayable",
      "type": "function"
    },
    {
      "inputs": [],
      "name": "linkToken",
      "outputs": [
        {
          "internalType": "contract LinkTokenInterface",
          "name": "",
          "type": "address"
        }
      ],
      "stateMutability": "view",
      "type": "function"
    },
    {
      "inputs": [
        {
          "internalType": "address",
          "name": "sender",
          "type": "address"
        },
        {
          "internalType": "uint256",
          "name": "amount",
          "type": "uint256"
        },
        {
          "internalType": "bytes",
          "name": "data",
          "type": "bytes"
        }
      ],
      "name": "onTokenTransfer",
      "outputs": [],
      "stateMutability": "nonpayable",
      "type": "function"
    },
    {
      "inputs": [
        {
          "internalType": "uint256",
          "name": "id",
          "type": "uint256"
        },
        {
          "internalType": "bytes",
          "name": "performData",
          "type": "bytes"
        }
      ],
      "name": "performUpkeep",
      "outputs": [
        {
          "internalType": "bool",
          "name": "success",
          "type": "bool"
        }
      ],
      "stateMutability": "nonpayable",
      "type": "function"
    },
    {
      "inputs": [
        {
          "internalType": "address",
          "name": "target",
          "type": "address"
        },
        {
          "internalType": "uint32",
          "name": "gasLimit",
          "type": "uint32"
        },
        {
          "internalType": "address",
          "name": "admin",
          "type": "address"
        },
        {
          "internalType": "bytes",
          "name": "checkData",
          "type": "bytes"
        }
      ],
      "name": "registerUpkeep",
      "outputs": [
        {
          "internalType": "uint256",
          "name": "",
          "type": "uint256"
        }
      ],
      "stateMutability": "nonpayable",
      "type": "function"
    },
    {
      "inputs": [
        {
          "internalType": "uint256",
          "name": "id",
          "type": "uint256"
        },
        {
          "internalType": "uint96",
          "name": "amount",
          "type": "uint96"
        }
      ],
      "name": "spendFunds",
      "outputs": [],
      "stateMutability": "nonpayable",
      "type": "function"
    },
    {
      "inputs": [
        {
          "internalType": "uint256",
          "name": "",
          "type": "uint256"
        }
      ],
      "name": "upkeepAdmins",
      "outputs": [
        {
          "internalType": "address",
          "name": "",
          "type": "address"
        }
      ],
      "stateMutability": "view",
      "type": "function"
    },
    {
      "inputs": [
        {
          "internalType": "uint256",
          "name": "",
          "type": "uint256"
        }
      ],
      "name": "upkeepBalance",
      "outputs": [
        {
          "internalType": "uint96",
          "name": "",
          "type": "uint96"
        }
      ],
      "stateMutability": "view",
      "type": "function"
    },
    {
      "inputs": [],
      "name": "upkeepCount",
      "outputs": [
        {
          "internalType": "uint256",
          "name": "",
          "type": "uint256"
        }
      ],
      "stateMutability": "view",
      "type": "function"
    },
    {
      "inputs": [
        {
          "internalType": "uint256",
          "name": "",
          "type": "uint256"
        }
      ],
      "name": "upkeepPerforms",
      "outputs": [
        {
          "internalType": "uint256",
          "name": "",
          "type": "uint256"
        }
      ],
      "stateMutability": "view",
      "type": "function"
    }
  ],
  "transactionHash": "0x78a978e6e2f7a5b366e2b6fdf43b0ab3d58fb372d2ac8592ddc3887759eebd82",
  "args": [],
  "numDeployments": 1,
  "solcInputHash": "fcb51b29bd54e4f8f52dd99de5e12241",
  "bytecode": "0x608060405234801561001057600080fd5b50610be0806100206000396000f3fe608060405234801561001057600080fd5b50600436106101165760003560e01c80637bbaf1ea116100a2578063c4d66de811610071578063c4d66de814610302578063c7c3a19a14610332578063c8048022146103a3578063da5c6741146103b6578063fecf27c9146103c957600080fd5b80637bbaf1ea1461027e578063948108f7146102a1578063a4c0ed36146102b4578063c3f909d4146102c757600080fd5b80633717a7f6116100e95780633717a7f6146101cb57806357970e93146101e057806360767ec51461020b5780637323f3d01461024c5780637612a4421461025557600080fd5b806315a126ea1461011b5780631e12b8a51461013d57806329da4c52146101845780632cb6864d146101b2575b600080fd5b6040805160008152602081019182905261013491610774565b60405180910390f35b61015661014b3660046107dd565b600060018193909250565b604080516001600160a01b03909416845291151560208401526001600160601b031690820152606001610134565b6101a46101923660046107ff565b60026020526000908152604090205481565b604051908152602001610134565b6040805160008152602081019182905261013491610818565b6101de6101d9366004610850565b6103d1565b005b6004546101f3906001600160a01b031681565b6040516001600160a01b039091168152602001610134565b6102346102193660046107ff565b6001602052600090815260409020546001600160601b031681565b6040516001600160601b039091168152602001610134565b6101a460035481565b6101f36102633660046107ff565b6000602081905290815260409020546001600160a01b031681565b61029161028c3660046108d5565b6104b3565b6040519015158152602001610134565b6101de6102af366004610850565b610515565b6101de6102c2366004610921565b610604565b60408051600080825260208201819052918101829052606081018290526080810182905260a0810182905260c081019190915260e001610134565b6101de6103103660046107dd565b600480546001600160a01b0319166001600160a01b0392909216919091179055565b61038f6103403660046107ff565b60408051602080820183526000808352938452600181528284205490849052918320549293849391926001600160601b03169184916001600160a01b039091169067ffffffffffffffff908390565b60405161013498979695949392919061097b565b6101de6103b13660046107ff565b61069b565b6101a46103c4366004610a4d565b610721565b6003546101a4565b6000828152602081905260409020546001600160a01b031661040e5760405162461bcd60e51b815260040161040590610ace565b60405180910390fd5b6000828152600160205260409020546001600160601b0390811690821611156104645760405162461bcd60e51b81526020600482015260086024820152672162616c616e636560c01b6044820152606401610405565b6000828152600160205260408120805483929061048b9084906001600160601b0316610b06565b92506101000a8154816001600160601b0302191690836001600160601b031602179055505050565b6000838152602081905260408120546001600160a01b03166104e75760405162461bcd60e51b815260040161040590610ace565b6000848152600260205260408120805460019290610506908490610b2e565b90915550600195945050505050565b6000828152602081905260409020546001600160a01b03166105495760405162461bcd60e51b815260040161040590610ace565b600480546040516323b872dd60e01b815233928101929092523060248301526001600160601b03831660448301526001600160a01b0316906323b872dd90606401602060405180830381600087803b1580156105a457600080fd5b505af11580156105b8573d6000803e3d6000fd5b505050506040513d601f19601f820116820180604052508101906105dc9190610b46565b506000828152600160205260408120805483929061048b9084906001600160601b0316610b68565b6000610612828401846107ff565b6000818152602081905260409020549091506001600160a01b03166106495760405162461bcd60e51b815260040161040590610ace565b600081815260016020526040812080548692906106709084906001600160601b0316610b68565b92506101000a8154816001600160601b0302191690836001600160601b031602179055505050505050565b6000818152602081905260409020546001600160a01b03166106cf5760405162461bcd60e51b815260040161040590610ace565b6001600360008282546106e29190610b93565b9091555050600090815260016020908152604080832080546bffffffffffffffffffffffff1916905590829052902080546001600160a01b0319169055565b60006001600360008282546107369190610b2e565b909155505060038054600090815260208190526040902080546001600160a01b0387166001600160a01b031990911617905554905095945050505050565b6020808252825182820181905260009190848201906040850190845b818110156107b55783516001600160a01b031683529284019291840191600101610790565b50909695505050505050565b80356001600160a01b03811681146107d857600080fd5b919050565b6000602082840312156107ef57600080fd5b6107f8826107c1565b9392505050565b60006020828403121561081157600080fd5b5035919050565b6020808252825182820181905260009190848201906040850190845b818110156107b557835183529284019291840191600101610834565b6000806040838503121561086357600080fd5b8235915060208301356001600160601b038116811461088157600080fd5b809150509250929050565b60008083601f84011261089e57600080fd5b50813567ffffffffffffffff8111156108b657600080fd5b6020830191508360208285010111156108ce57600080fd5b9250929050565b6000806000604084860312156108ea57600080fd5b83359250602084013567ffffffffffffffff81111561090857600080fd5b6109148682870161088c565b9497909650939450505050565b6000806000806060858703121561093757600080fd5b610940856107c1565b935060208501359250604085013567ffffffffffffffff81111561096357600080fd5b61096f8782880161088c565b95989497509550505050565b600061010060018060a01b038b168352602063ffffffff8b168185015281604085015289518083860152600092505b808310156109c9578a83018201518584016101200152918101916109aa565b808311156109dc57600061012082870101525b601f01601f19168401610120019250610a0391505060608301886001600160601b03169052565b6001600160a01b03861660808301526001600160a01b03851660a083015267ffffffffffffffff841660c08301526001600160601b03831660e08301529998505050505050505050565b600080600080600060808688031215610a6557600080fd5b610a6e866107c1565b9450602086013563ffffffff81168114610a8757600080fd5b9350610a95604087016107c1565b9250606086013567ffffffffffffffff811115610ab157600080fd5b610abd8882890161088c565b969995985093965092949392505050565b602080825260089082015267085a5b9d985b1a5960c21b604082015260600190565b634e487b7160e01b600052601160045260246000fd5b60006001600160601b0383811690831681811015610b2657610b26610af0565b039392505050565b60008219821115610b4157610b41610af0565b500190565b600060208284031215610b5857600080fd5b815180151581146107f857600080fd5b60006001600160601b03808316818516808303821115610b8a57610b8a610af0565b01949350505050565b600082821015610ba557610ba5610af0565b50039056fea26469706673582212201c0f1d1d5e022228ccd394a7f30d68afdb99bf870ecad9ec32b9648e619f5b3264736f6c63430008090033",
  "devdoc": {
    "kind": "dev",
    "methods": {},
    "version": 1
  },
  "userdoc": {
    "kind": "user",
    "methods": {},
    "version": 1
  },
  "storageLayout": {
    "storage": [
      {
        "astId": 19144,
        "contract": "contracts/mocks/MockAutomationRegistry.sol:MockAutomationRegistry",
        "label": "upkeepAdmins",
        "offset": 0,
        "slot": "0",
        "type": "t_mapping(t_uint256,t_address)"
      },
      {
        "astId": 19148,
        "contract": "contracts/mocks/MockAutomationRegistry.sol:MockAutomationRegistry",
        "label": "upkeepBalance",
        "offset": 0,
        "slot": "1",
        "type": "t_mapping(t_uint256,t_uint96)"
      },
      {
        "astId": 19152,
        "contract": "contracts/mocks/MockAutomationRegistry.sol:MockAutomationRegistry",
        "label": "upkeepPerforms",
        "offset": 0,
        "slot": "2",
        "type": "t_mapping(t_uint256,t_uint256)"
      },
      {
        "astId": 19154,
        "contract": "contracts/mocks/MockAutomationRegistry.sol:MockAutomationRegistry",
        "label": "upkeepCount",
        "offset": 0,
        "slot": "3",
        "type": "t_uint256"
      },
      {
        "astId": 19157,
        "contract": "contracts/mocks/MockAutomationRegistry.sol:MockAutomationRegistry",
        "label": "linkToken",
        "offset": 0,
        "slot": "4",
        "type": "t_contract(LinkTokenInterface)18430"
      }
    ],
    "types": {
      "t_address": {
        "encoding": "inplace",
        "label": "address",
        "numberOfBytes": "20"
      },
      "t_contract(LinkTokenInterface)18430": {
        "encoding": "inplace",
        "label": "contract LinkTokenInterface",
        "numberOfBytes": "20"
      },
      "t_mapping(t_uint256,t_address)": {
        "encoding": "mapping",
        "key": "t_uint256",
        "label": "mapping(uint256 => address)",
        "numberOfBytes": "32",
        "value": "t_address"
      },
      "t_mapping(t_uint256,t_uint256)": {
        "encoding": "mapping",
        "key": "t_uint256",
        "label": "mapping(uint256 => uint256)",
        "numberOfBytes": "32",
        "value": "t_uint256"
      },
      "t_mapping(t_uint256,t_uint96)": {
        "encoding": "mapping",
        "key": "t_uint256",
        "label": "mapping(uint256 => uint96)",
        "numberOfBytes": "32",
        "value": "t_uint96"
      },
      "t_uint256": {
        "encoding": "inplace",
        "label": "uint256",
        "numberOfBytes": "32"
      },
      "t_uint96": {
        "encoding": "inplace",
        "label": "uint96",
        "numberOfBytes": "12"
      }
    }
  }
}