{
  "address": "0xE1Dd1726dA8807c7b1575A11146a9721e18515Cd",
  "abi": [
    {
      "inputs": [
        {
          "internalType": "uint256",
          "name": "amountIn",
          "type": "uint256"
        },
        {
          "internalType": "address[]",
          "name": "path",
          "type": "address[]"
        }
      ],
      "name": "getAmountsOut",
      "outputs": [
        {
          "internalType": "uint256[]",
          "name": "",
          "type": "uint256[]"
        }
      ],
      "stateMutability": "view",
      "type": "function"
    },
    {
      "inputs": [],
      "name": "initialize",
      "outputs": [],
      "stateMutability": "nonpayable",
      "type": "function"
    },
    {
      "inputs": [
        {
          "internalType": "uint256",
          "name": "_outputBps",
          "type": "uint256"
        }
      ],
      "name": "setOutputBps",
      "outputs": [],
      "stateMutability": "nonpayable",
      "type": "function"
    },
    {
      "inputs": [
        {
          "internalType": "uint256",
          "name": "amountIn",
          "type": "uint256"
        },
        {
          "internalType": "uint256",
          "name": "amountOutMin",
          "type": "uint256"
        },
        {
          "internalType": "address[]",
          "name": "path",
          "type": "address[]"
        },
        {
          "internalType": "address",
          "name": "to",
          "type": "address"
        },
        {
          "internalType": "uint256",
          "name": "deadline",
          "type": "uint256"
        }
      ],
      "name": "swapExactTokensForTokens",
      "outputs": [
        {
          "internalType": "uint256[]",
          "name": "",
          "type": "uint256[]"
        }
      ],
      "stateMutability": "nonpayable",
      "type": "function"
    }
  ],
  "transactionHash": "0xfdd5e9d87a3a9ac8f801577ac916193929d85b1e0c27cd5393cac2e4a6d10f01",
  "args": [],
  "numDeployments": 1,
  "solcInputHash": "fcb51b29bd54e4f8f52dd99de5e12241",
  "bytecode": "0x608060405234801561001057600080fd5b5061095c806100206000396000f3fe608060405234801561001057600080fd5b506004361061004c5760003560e01c806338ed1739146100515780635677089e1461007a5780638129fc1c1461008f578063d06ca61f1461009a575b600080fd5b61006461005f36600461056c565b6100ad565b604051610071919061060e565b60405180910390f35b61008d610088366004610652565b600055565b005b61008d612710600055565b6100646100a8366004610681565b6103e2565b60606000858560008181106100c4576100c4610752565b90506020020160208101906100d99190610768565b90506000868660018181106100f0576100f0610752565b90506020020160208101906101059190610768565b905060006101fa8a836001600160a01b031663313ce5676040518163ffffffff1660e01b815260040160206040518083038186803b15801561014657600080fd5b505afa15801561015a573d6000803e3d6000fd5b505050506040513d601f19601f8201168201806040525081019061017e9190610783565b60ff16856001600160a01b031663313ce5676040518163ffffffff1660e01b815260040160206040518083038186803b1580156101ba57600080fd5b505afa1580156101ce573d6000803e3d6000fd5b505050506040513d601f19601f820116820180604052508101906101f29190610783565b60ff166104ef565b90506127106000548261020d91906107bc565b61021791906107db565b90508881101561025e5760405162461bcd60e51b815260206004820152600e60248201526d29b634b83830b3b29032b93937b960911b604482015260640160405180910390fd5b42851161026a57600080fd5b6040516323b872dd60e01b8152336004820152306024820152604481018b90526001600160a01b038416906323b872dd90606401602060405180830381600087803b1580156102b857600080fd5b505af11580156102cc573d6000803e3d6000fd5b505050506040513d601f19601f820116820180604052508101906102f091906107fd565b5060405163a9059cbb60e01b81526001600160a01b0387811660048301526024820183905283169063a9059cbb90604401602060405180830381600087803b15801561033b57600080fd5b505af115801561034f573d6000803e3d6000fd5b505050506040513d601f19601f8201168201806040525081019061037391906107fd565b506040805160028082526060820183526000926020830190803683370190505090508a816000815181106103a9576103a9610752565b60200260200101818152505081816001815181106103c9576103c9610752565b60209081029190910101529a9950505050505050505050565b60606000826000815181106103f9576103f9610752565b6020026020010151905060008360018151811061041857610418610752565b60200260200101519050600061046186836001600160a01b031663313ce5676040518163ffffffff1660e01b815260040160206040518083038186803b15801561014657600080fd5b90506127106000548261047491906107bc565b61047e91906107db565b604080516002808252606082018352929350600092909160208301908036833701905050905086816000815181106104b8576104b8610752565b60200260200101818152505081816001815181106104d8576104d8610752565b602090810291909101015293505050505b92915050565b60008183111561051f57610503828461081f565b61050e90600a61091a565b61051890856107bc565b9050610549565b8183101561054657610531838361081f565b61053c90600a61091a565b61051890856107db565b50825b9392505050565b80356001600160a01b038116811461056757600080fd5b919050565b60008060008060008060a0878903121561058557600080fd5b8635955060208701359450604087013567ffffffffffffffff808211156105ab57600080fd5b818901915089601f8301126105bf57600080fd5b8135818111156105ce57600080fd5b8a60208260051b85010111156105e357600080fd5b6020830196508095505050506105fb60608801610550565b9150608087013590509295509295509295565b6020808252825182820181905260009190848201906040850190845b818110156106465783518352928401929184019160010161062a565b50909695505050505050565b60006020828403121561066457600080fd5b5035919050565b634e487b7160e01b600052604160045260246000fd5b6000806040838503121561069457600080fd5b8235915060208084013567ffffffffffffffff808211156106b457600080fd5b818601915086601f8301126106c857600080fd5b8135818111156106da576106da61066b565b8060051b604051601f19603f830116810181811085821117156106ff576106ff61066b565b60405291825284820192508381018501918983111561071d57600080fd5b938501935b828510156107425761073385610550565b84529385019392850192610722565b8096505050505050509250929050565b634e487b7160e01b600052603260045260246000fd5b60006020828403121561077a57600080fd5b61054982610550565b60006020828403121561079557600080fd5b815160ff8116811461054957600080fd5b634e487b7160e01b600052601160045260246000fd5b60008160001904831182151516156107d6576107d66107a6565b500290565b6000826107f857634e487b7160e01b600052601260045260246000fd5b500490565b60006020828403121561080f57600080fd5b8151801515811461054957600080fd5b600082821015610831576108316107a6565b500390565b600181815b80851115610871578160001904821115610857576108576107a6565b8085161561086457918102915b93841c939080029061083b565b509250929050565b600082610888575060016104e9565b81610895575060006104e9565b81600181146108ab57600281146108b5576108d1565b60019150506104e9565b60ff8411156108c6576108c66107a6565b50506001821b6104e9565b5060208310610133831016604e8410600b84101617156108f4575081810a6104e9565b6108fe8383610836565b8060001904821115610912576109126107a6565b029392505050565b6000610549838361087956fea2646970667358221220b4e710131c996d6a0b6e0ccda11d178d1a6727634e7f2f60803c17405be2846e64736f6c63430008090033",
  "devdoc": {
    "kind": "dev",
    "methods": {},
    "version": 1
  },
  "userdoc": {
    "kind": "user",
    "methods": {},
    "version": 1
  },
  "storageLayout": {
    "storage": [
      {
        "astId": 19892,
        "contract": "contracts/mocks/MockUniswapRouter.sol:MockUniswapRouter",
        "label": "outputBps",
        "offset": 0,
        "slot": "0",
        "type": "t_uint256"
      }
    ],
    "types": {
      "t_uint256": {
        "encoding": "inplace",
        "label": "uint256",
        "numberOfBytes": "32"
      }
    }
  }
}