{
  "address": "0xaaDA2Bf7CEDBFdb503E6593C98c4dE9c16eA8Bfd",
  "abi": [
    {
      "inputs": [],
      "stateMutability": "nonpayable",
      "type": "constructor"
    },
    {
      "anonymous": false,
      "inputs": [
        {
          "indexed": true,
          "internalType": "bytes32",
          "name": "chainlinkTopupId",
          "type": "bytes32"
        },
        {
          "indexed": true,
          "internalType": "address",
          "name": "user",
          "type": "address"
        },
        {
          "indexed": false,
          "internalType": "uint256",
          "name": "targetId",
          "type": "uint256"
        },
        {
          "indexed": false,
          "internalType": "address",
          "name": "registry",
          "type": "address"
        },
        {
          "indexed": false,
          "internalType": "enum ICaskChainlinkTopup.TopupType",
          "name": "topupType",
          "type": "uint8"
        }
      ],
      "name": "ChainlinkTopupCanceled",
      "type": "event"
    },
    {
      "anonymous": false,
      "inputs": [
        {
          "indexed": true,
          "internalType": "bytes32",
          "name": "chainlinkTopupId",
          "type": "bytes32"
        },
        {
          "indexed": true,
          "internalType": "address",
          "name": "user",
          "type": "address"
        },
        {
          "indexed": false,
          "internalType": "uint256",
          "name": "lowBalance",
          "type": "uint256"
        },
        {
          "indexed": false,
          "internalType": "uint256",
          "name": "topupAmount",
          "type": "uint256"
        },
        {
          "indexed": false,
          "internalType": "uint256",
          "name": "targetId",
          "type": "uint256"
        },
        {
          "indexed": false,
          "internalType": "address",
          "name": "registry",
          "type": "address"
        },
        {
          "indexed": false,
          "internalType": "enum ICaskChainlinkTopup.TopupType",
          "name": "topupType",
          "type": "uint8"
        }
      ],
      "name": "ChainlinkTopupCreated",
      "type": "event"
    },
    {
      "anonymous": false,
      "inputs": [
        {
          "indexed": true,
          "internalType": "bytes32",
          "name": "chainlinkTopupId",
          "type": "bytes32"
        },
        {
          "indexed": true,
          "internalType": "address",
          "name": "user",
          "type": "address"
        },
        {
          "indexed": false,
          "internalType": "uint256",
          "name": "targetId",
          "type": "uint256"
        },
        {
          "indexed": false,
          "internalType": "address",
          "name": "registry",
          "type": "address"
        },
        {
          "indexed": false,
          "internalType": "enum ICaskChainlinkTopup.TopupType",
          "name": "topupType",
          "type": "uint8"
        }
      ],
      "name": "ChainlinkTopupPaused",
      "type": "event"
    },
    {
      "anonymous": false,
      "inputs": [
        {
          "indexed": true,
          "internalType": "bytes32",
          "name": "chainlinkTopupId",
          "type": "bytes32"
        },
        {
          "indexed": true,
          "internalType": "address",
          "name": "user",
          "type": "address"
        },
        {
          "indexed": false,
          "internalType": "uint256",
          "name": "targetId",
          "type": "uint256"
        },
        {
          "indexed": false,
          "internalType": "address",
          "name": "registry",
          "type": "address"
        },
        {
          "indexed": false,
          "internalType": "enum ICaskChainlinkTopup.TopupType",
          "name": "topupType",
          "type": "uint8"
        },
        {
          "indexed": false,
          "internalType": "uint256",
          "name": "amount",
          "type": "uint256"
        },
        {
          "indexed": false,
          "internalType": "uint256",
          "name": "buyQty",
          "type": "uint256"
        },
        {
          "indexed": false,
          "internalType": "uint256",
          "name": "fee",
          "type": "uint256"
        }
      ],
      "name": "ChainlinkTopupProcessed",
      "type": "event"
    },
    {
      "anonymous": false,
      "inputs": [
        {
          "indexed": true,
          "internalType": "bytes32",
          "name": "chainlinkTopupId",
          "type": "bytes32"
        },
        {
          "indexed": true,
          "internalType": "address",
          "name": "user",
          "type": "address"
        },
        {
          "indexed": false,
          "internalType": "uint256",
          "name": "targetId",
          "type": "uint256"
        },
        {
          "indexed": false,
          "internalType": "address",
          "name": "registry",
          "type": "address"
        },
        {
          "indexed": false,
          "internalType": "enum ICaskChainlinkTopup.TopupType",
          "name": "topupType",
          "type": "uint8"
        }
      ],
      "name": "ChainlinkTopupResumed",
      "type": "event"
    },
    {
      "anonymous": false,
      "inputs": [
        {
          "indexed": true,
          "internalType": "bytes32",
          "name": "chainlinkTopupId",
          "type": "bytes32"
        },
        {
          "indexed": true,
          "internalType": "address",
          "name": "user",
          "type": "address"
        },
        {
          "indexed": false,
          "internalType": "uint256",
          "name": "targetId",
          "type": "uint256"
        },
        {
          "indexed": false,
          "internalType": "address",
          "name": "registry",
          "type": "address"
        },
        {
          "indexed": false,
          "internalType": "enum ICaskChainlinkTopup.TopupType",
          "name": "topupType",
          "type": "uint8"
        },
        {
          "indexed": false,
          "internalType": "enum ICaskChainlinkTopup.SkipReason",
          "name": "skipReason",
          "type": "uint8"
        }
      ],
      "name": "ChainlinkTopupSkipped",
      "type": "event"
    },
    {
      "anonymous": false,
      "inputs": [
        {
          "indexed": true,
          "internalType": "address",
          "name": "previousOwner",
          "type": "address"
        },
        {
          "indexed": true,
          "internalType": "address",
          "name": "newOwner",
          "type": "address"
        }
      ],
      "name": "OwnershipTransferred",
      "type": "event"
    },
    {
      "anonymous": false,
      "inputs": [
        {
          "indexed": false,
          "internalType": "address",
          "name": "account",
          "type": "address"
        }
      ],
      "name": "Paused",
      "type": "event"
    },
    {
      "anonymous": false,
      "inputs": [
        {
          "indexed": false,
          "internalType": "address",
          "name": "account",
          "type": "address"
        }
      ],
      "name": "Unpaused",
      "type": "event"
    },
    {
      "inputs": [
        {
          "internalType": "uint256",
          "name": "",
          "type": "uint256"
        }
      ],
      "name": "backfillGroups",
      "outputs": [
        {
          "internalType": "uint256",
          "name": "",
          "type": "uint256"
        }
      ],
      "stateMutability": "view",
      "type": "function"
    },
    {
      "inputs": [
        {
          "internalType": "bytes32",
          "name": "_chainlinkTopupId",
          "type": "bytes32"
        }
      ],
      "name": "cancelChainlinkTopup",
      "outputs": [],
      "stateMutability": "nonpayable",
      "type": "function"
    },
    {
      "inputs": [],
      "name": "chainlinkTopupManager",
      "outputs": [
        {
          "internalType": "contract ICaskChainlinkTopupManager",
          "name": "",
          "type": "address"
        }
      ],
      "stateMutability": "view",
      "type": "function"
    },
    {
      "inputs": [
        {
          "internalType": "uint256",
          "name": "_lowBalance",
          "type": "uint256"
        },
        {
          "internalType": "uint256",
          "name": "_topupAmount",
          "type": "uint256"
        },
        {
          "internalType": "uint256",
          "name": "_targetId",
          "type": "uint256"
        },
        {
          "internalType": "address",
          "name": "_registry",
          "type": "address"
        },
        {
          "internalType": "enum ICaskChainlinkTopup.TopupType",
          "name": "_topupType",
          "type": "uint8"
        }
      ],
      "name": "createChainlinkTopup",
      "outputs": [
        {
          "internalType": "bytes32",
          "name": "",
          "type": "bytes32"
        }
      ],
      "stateMutability": "nonpayable",
      "type": "function"
    },
    {
      "inputs": [],
      "name": "currentGroup",
      "outputs": [
        {
          "internalType": "uint256",
          "name": "",
          "type": "uint256"
        }
      ],
      "stateMutability": "view",
      "type": "function"
    },
    {
      "inputs": [
        {
          "internalType": "bytes32",
          "name": "_chainlinkTopupId",
          "type": "bytes32"
        }
      ],
      "name": "getChainlinkTopup",
      "outputs": [
        {
          "components": [
            {
              "internalType": "address",
              "name": "user",
              "type": "address"
            },
            {
              "internalType": "uint256",
              "name": "groupId",
              "type": "uint256"
            },
            {
              "internalType": "uint256",
              "name": "lowBalance",
              "type": "uint256"
            },
            {
              "internalType": "uint256",
              "name": "topupAmount",
              "type": "uint256"
            },
            {
              "internalType": "uint256",
              "name": "currentAmount",
              "type": "uint256"
            },
            {
              "internalType": "uint256",
              "name": "currentBuyQty",
              "type": "uint256"
            },
            {
              "internalType": "uint256",
              "name": "numTopups",
              "type": "uint256"
            },
            {
              "internalType": "uint256",
              "name": "numSkips",
              "type": "uint256"
            },
            {
              "internalType": "uint32",
              "name": "createdAt",
              "type": "uint32"
            },
            {
              "internalType": "uint256",
              "name": "targetId",
              "type": "uint256"
            },
            {
              "internalType": "address",
              "name": "registry",
              "type": "address"
            },
            {
              "internalType": "enum ICaskChainlinkTopup.TopupType",
              "name": "topupType",
              "type": "uint8"
            },
            {
              "internalType": "enum ICaskChainlinkTopup.ChainlinkTopupStatus",
              "name": "status",
              "type": "uint8"
            }
          ],
          "internalType": "struct ICaskChainlinkTopup.ChainlinkTopup",
          "name": "",
          "type": "tuple"
        }
      ],
      "stateMutability": "view",
      "type": "function"
    },
    {
      "inputs": [
        {
          "internalType": "uint256",
          "name": "_chainlinkTopupGroupId",
          "type": "uint256"
        }
      ],
      "name": "getChainlinkTopupGroup",
      "outputs": [
        {
          "components": [
            {
              "internalType": "bytes32[]",
              "name": "chainlinkTopups",
              "type": "bytes32[]"
            }
          ],
          "internalType": "struct ICaskChainlinkTopup.ChainlinkTopupGroup",
          "name": "",
          "type": "tuple"
        }
      ],
      "stateMutability": "view",
      "type": "function"
    },
    {
      "inputs": [
        {
          "internalType": "address",
          "name": "_user",
          "type": "address"
        },
        {
          "internalType": "uint256",
          "name": "_idx",
          "type": "uint256"
        }
      ],
      "name": "getUserChainlinkTopup",
      "outputs": [
        {
          "internalType": "bytes32",
          "name": "",
          "type": "bytes32"
        }
      ],
      "stateMutability": "view",
      "type": "function"
    },
    {
      "inputs": [
        {
          "internalType": "address",
          "name": "_user",
          "type": "address"
        }
      ],
      "name": "getUserChainlinkTopupCount",
      "outputs": [
        {
          "internalType": "uint256",
          "name": "",
          "type": "uint256"
        }
      ],
      "stateMutability": "view",
      "type": "function"
    },
    {
      "inputs": [],
      "name": "groupSize",
      "outputs": [
        {
          "internalType": "uint256",
          "name": "",
          "type": "uint256"
        }
      ],
      "stateMutability": "view",
      "type": "function"
    },
    {
      "inputs": [
        {
          "internalType": "uint256",
          "name": "_groupSize",
          "type": "uint256"
        }
      ],
      "name": "initialize",
      "outputs": [],
      "stateMutability": "nonpayable",
      "type": "function"
    },
    {
      "inputs": [
        {
          "internalType": "address",
          "name": "forwarder",
          "type": "address"
        }
      ],
      "name": "isTrustedForwarder",
      "outputs": [
        {
          "internalType": "bool",
          "name": "",
          "type": "bool"
        }
      ],
      "stateMutability": "view",
      "type": "function"
    },
    {
      "inputs": [
        {
          "internalType": "bytes32",
          "name": "_chainlinkTopupId",
          "type": "bytes32"
        },
        {
          "internalType": "enum ICaskChainlinkTopup.ManagerCommand",
          "name": "_command",
          "type": "uint8"
        }
      ],
      "name": "managerCommand",
      "outputs": [],
      "stateMutability": "nonpayable",
      "type": "function"
    },
    {
      "inputs": [
        {
          "internalType": "bytes32",
          "name": "_chainlinkTopupId",
          "type": "bytes32"
        },
        {
          "internalType": "uint256",
          "name": "_amount",
          "type": "uint256"
        },
        {
          "internalType": "uint256",
          "name": "_buyQty",
          "type": "uint256"
        },
        {
          "internalType": "uint256",
          "name": "_fee",
          "type": "uint256"
        }
      ],
      "name": "managerProcessed",
      "outputs": [],
      "stateMutability": "nonpayable",
      "type": "function"
    },
    {
      "inputs": [
        {
          "internalType": "bytes32",
          "name": "_chainlinkTopupId",
          "type": "bytes32"
        },
        {
          "internalType": "enum ICaskChainlinkTopup.SkipReason",
          "name": "_skipReason",
          "type": "uint8"
        }
      ],
      "name": "managerSkipped",
      "outputs": [],
      "stateMutability": "nonpayable",
      "type": "function"
    },
    {
      "inputs": [],
      "name": "minTopupAmount",
      "outputs": [
        {
          "internalType": "uint256",
          "name": "",
          "type": "uint256"
        }
      ],
      "stateMutability": "view",
      "type": "function"
    },
    {
      "inputs": [],
      "name": "owner",
      "outputs": [
        {
          "internalType": "address",
          "name": "",
          "type": "address"
        }
      ],
      "stateMutability": "view",
      "type": "function"
    },
    {
      "inputs": [],
      "name": "pause",
      "outputs": [],
      "stateMutability": "nonpayable",
      "type": "function"
    },
    {
      "inputs": [
        {
          "internalType": "bytes32",
          "name": "_chainlinkTopupId",
          "type": "bytes32"
        }
      ],
      "name": "pauseChainlinkTopup",
      "outputs": [],
      "stateMutability": "nonpayable",
      "type": "function"
    },
    {
      "inputs": [],
      "name": "paused",
      "outputs": [
        {
          "internalType": "bool",
          "name": "",
          "type": "bool"
        }
      ],
      "stateMutability": "view",
      "type": "function"
    },
    {
      "inputs": [],
      "name": "renounceOwnership",
      "outputs": [],
      "stateMutability": "nonpayable",
      "type": "function"
    },
    {
      "inputs": [
        {
          "internalType": "bytes32",
          "name": "_chainlinkTopupId",
          "type": "bytes32"
        }
      ],
      "name": "resumeChainlinkTopup",
      "outputs": [],
      "stateMutability": "nonpayable",
      "type": "function"
    },
    {
      "inputs": [
        {
          "internalType": "address",
          "name": "_chainlinkTopupManager",
          "type": "address"
        }
      ],
      "name": "setManager",
      "outputs": [],
      "stateMutability": "nonpayable",
      "type": "function"
    },
    {
      "inputs": [
        {
          "internalType": "uint256",
          "name": "_minTopupAmount",
          "type": "uint256"
        }
      ],
      "name": "setMinTopupAmount",
      "outputs": [],
      "stateMutability": "nonpayable",
      "type": "function"
    },
    {
      "inputs": [
        {
          "internalType": "address",
          "name": "_forwarder",
          "type": "address"
        }
      ],
      "name": "setTrustedForwarder",
      "outputs": [],
      "stateMutability": "nonpayable",
      "type": "function"
    },
    {
      "inputs": [
        {
          "internalType": "address",
          "name": "newOwner",
          "type": "address"
        }
      ],
      "name": "transferOwnership",
      "outputs": [],
      "stateMutability": "nonpayable",
      "type": "function"
    },
    {
      "inputs": [],
      "name": "trustedForwarder",
      "outputs": [
        {
          "internalType": "address",
          "name": "",
          "type": "address"
        }
      ],
      "stateMutability": "view",
      "type": "function"
    },
    {
      "inputs": [],
      "name": "unpause",
      "outputs": [],
      "stateMutability": "nonpayable",
      "type": "function"
    },
    {
      "inputs": [],
      "name": "versionRecipient",
      "outputs": [
        {
          "internalType": "string",
          "name": "",
          "type": "string"
        }
      ],
      "stateMutability": "pure",
      "type": "function"
    }
  ],
  "transactionHash": "0xc57840ea443549892087bddbeecc78233eccc782fb75ef689d239eb179a065de",
  "args": [],
  "numDeployments": 4,
  "solcInputHash": "3756ba4b8f2bd0e92b37565a4603a8d8",
  "bytecode": "0x60806040523480156200001157600080fd5b50600054610100900460ff166200002f5760005460ff161562000039565b62000039620000de565b620000a15760405162461bcd60e51b815260206004820152602e60248201527f496e697469616c697a61626c653a20636f6e747261637420697320616c72656160448201526d191e481a5b9a5d1a585b1a5e995960921b606482015260840160405180910390fd5b600054610100900460ff16158015620000c4576000805461ffff19166101011790555b8015620000d7576000805461ff00191690555b5062000102565b6000620000f630620000fc60201b620015361760201c565b15905090565b3b151590565b61207380620001126000396000f3fe608060405234801561001057600080fd5b50600436106101cf5760003560e01c80639d44ac9411610104578063cb3e5eca116100a2578063da74222811610071578063da742228146103f0578063f19d6a4d14610403578063f2fde38b14610416578063fe4b84df1461042957600080fd5b8063cb3e5eca146103a4578063d0ebdbe7146103b7578063d4c359da146103ca578063d89816bb146103dd57600080fd5b8063aa5bd0a2116100de578063aa5bd0a21461033e578063b4cbc9e41461035e578063ba844dc914610371578063c68f5eb31461038457600080fd5b80639d44ac941461030f578063a00b774214610322578063a3d5b5591461032b57600080fd5b806363b635ea11610171578063715018a61161014b578063715018a6146102c95780637da0a877146102d15780638456cb59146102f65780638da5cb5b146102fe57600080fd5b806363b635ea1461028457806367594c6c1461028d5780636f978f6c146102b657600080fd5b8063486ff0cd116101ad578063486ff0cd1461020d578063572b6c05146102345780635ba581cd146102665780635c975abb1461027957600080fd5b80630dff2d0c146101d45780632a74cbb5146101f05780633f4ba83a14610205575b600080fd5b6101dd609e5481565b6040519081526020015b60405180910390f35b6102036101fe366004611b2c565b61043c565b005b61020361050f565b60408051808201825260058152640322e322e360dc1b602082015290516101e79190611b5c565b610256610242366004611bc8565b6097546001600160a01b0391821691161490565b60405190151581526020016101e7565b610203610274366004611b2c565b610562565b60655460ff16610256565b6101dd609f5481565b6101dd61029b366004611bc8565b6001600160a01b03166000908152609a602052604090205490565b6101dd6102c4366004611bea565b6106d1565b61020361070e565b6097546001600160a01b03165b6040516001600160a01b0390911681526020016101e7565b610203610761565b6033546001600160a01b03166102de565b61020361031d366004611c14565b6107b2565b6101dd609c5481565b6101dd610339366004611c14565b6108d8565b61035161034c366004611c14565b6108f9565b6040516101e79190611c2d565b61020361036c366004611c7d565b610972565b61020361037f366004611c14565b610a79565b610397610392366004611c14565b610c03565b6040516101e79190611cf2565b6098546102de906001600160a01b031681565b6102036103c5366004611bc8565b610d21565b6102036103d8366004611c14565b610d8c565b6102036103eb366004611c14565b610ee1565b6102036103fe366004611bc8565b610f2f565b6101dd610411366004611db3565b610f99565b610203610424366004611bc8565b6113ab565b610203610437366004611c14565b611462565b6098546001600160a01b031661045061153c565b6001600160a01b03161461047f5760405162461bcd60e51b815260040161047690611e07565b60405180910390fd5b600082815260996020526040812060078101805491926001926104a3908490611e3c565b909155505080546009820154600a8301546040516001600160a01b039384169387937e374955e503c1cb80274d04743ac516c7954db106b4f57f594b216b75e0ad8593610502939192811691600160a01b90910460ff16908990611e54565b60405180910390a3505050565b61051761153c565b6001600160a01b03166105326033546001600160a01b031690565b6001600160a01b0316146105585760405162461bcd60e51b815260040161047690611e91565b61056061154b565b565b6098546001600160a01b031661057661153c565b6001600160a01b03161461059c5760405162461bcd60e51b815260040161047690611e07565b600082815260996020526040902060028260028111156105be576105be611caf565b141561063b57600a8101805460ff60a81b1916600160a91b1790556105e2836115e4565b80546009820154600a8301546040516001600160a01b039384169387937fde6232c9da3e9160ca0f56ea30d25de77f313c765456b2f059566bae7ddddb4e93610502939192811691600160a01b90910460ff1690611ec6565b600182600281111561064f5761064f611caf565b14156106cc57600a8101805460ff60a81b1916600360a81b179055610673836115e4565b80546009820154600a8301546040516001600160a01b039384169387937f27edcd358ef2b53bc526b57370e2e080ffa9c6e3d6fd210e390b05ac82b4db4193610502939192811691600160a01b90910460ff1690611ec6565b505050565b6001600160a01b0382166000908152609a602052604081208054839081106106fb576106fb611ef3565b9060005260206000200154905092915050565b61071661153c565b6001600160a01b03166107316033546001600160a01b031690565b6001600160a01b0316146107575760405162461bcd60e51b815260040161047690611e91565b6105606000611741565b61076961153c565b6001600160a01b03166107846033546001600160a01b031690565b6001600160a01b0316146107aa5760405162461bcd60e51b815260040161047690611e91565b610560611793565b60008181526099602052604090205481906001600160a01b03166107d461153c565b6001600160a01b0316146107fa5760405162461bcd60e51b815260040161047690611e07565b60008281526099602052604090206001600a820154600160a81b900460ff16600381111561082a5761082a611caf565b146108655760405162461bcd60e51b815260206004820152600b60248201526a214e4f545f41435449564560a81b6044820152606401610476565b61086e836115e4565b600a8101805460ff60a81b198116600160a91b1791829055825460098401546040516001600160a01b039283169488947fde6232c9da3e9160ca0f56ea30d25de77f313c765456b2f059566bae7ddddb4e946105029493911691600160a01b900460ff1690611ec6565b609d81815481106108e857600080fd5b600091825260209091200154905081565b6040805160208082018352606082526000848152609b82528390208351815480840282018601865292810183815293949093919284929184919084018282801561096257602002820191906000526020600020905b81548152602001906001019080831161094e575b5050505050815250509050919050565b6098546001600160a01b031661098661153c565b6001600160a01b0316146109ac5760405162461bcd60e51b815260040161047690611e07565b6000848152609960205260408120600481018054919286926109cf908490611e3c565b92505081905550828160050160008282546109ea9190611e3c565b925050819055506001816006016000828254610a069190611e3c565b909155505080546009820154600a8301546040516001600160a01b039384169389937f18b6d1bde03ff595fa39cebb5f8528d44bcbd97f09a8d99a9ed966e5b8cc1e5293610a6a939192811691600160a01b90910460ff16908b908b908b90611f09565b60405180910390a35050505050565b60008181526099602052604090205481906001600160a01b0316610a9b61153c565b6001600160a01b031614610ac15760405162461bcd60e51b815260040161047690611e07565b60008281526099602052604090206002600a820154600160a81b900460ff166003811115610af157610af1611caf565b14610b2c5760405162461bcd60e51b815260206004820152600b60248201526a085393d517d4105554d15160aa1b6044820152606401610476565b610b358361180f565b600a81018054600160a81b60ff60a81b1990911617905560985460405163e6cab67160e01b8152600481018590526001600160a01b039091169063e6cab67190602401600060405180830381600087803b158015610b9257600080fd5b505af1158015610ba6573d6000803e3d6000fd5b505082546009840154600a8501546040516001600160a01b0393841695508894507ff357ce53e83696815ee1632d0f04267d8feff645a8b4f7c5befc32376b89970793610502939290811691600160a01b90910460ff1690611ec6565b610c0b611a8f565b60008281526099602090815260409182902082516101a08101845281546001600160a01b039081168252600183015493820193909352600280830154948201949094526003820154606082015260048201546080820152600582015460a0820152600682015460c0820152600782015460e0820152600882015463ffffffff166101008201526009820154610120820152600a820154928316610140820152929091610160840191600160a01b90910460ff1690811115610cce57610cce611caf565b6002811115610cdf57610cdf611caf565b8152602001600a820160159054906101000a900460ff166003811115610d0757610d07611caf565b6003811115610d1857610d18611caf565b90525092915050565b610d2961153c565b6001600160a01b0316610d446033546001600160a01b031690565b6001600160a01b031614610d6a5760405162461bcd60e51b815260040161047690611e91565b609880546001600160a01b0319166001600160a01b0392909216919091179055565b60008181526099602052604090205481906001600160a01b0316610dae61153c565b6001600160a01b031614610dd45760405162461bcd60e51b815260040161047690611e07565b60008281526099602052604090206001600a820154600160a81b900460ff166003811115610e0457610e04611caf565b1480610e2f57506002600a820154600160a81b900460ff166003811115610e2d57610e2d611caf565b145b610e6e5760405162461bcd60e51b815260206004820152601060248201526f21494e56414c4944287374617475732960801b6044820152606401610476565b610e77836115e4565b600a8101805460ff60a81b198116600360a81b1791829055825460098401546040516001600160a01b039283169488947f27edcd358ef2b53bc526b57370e2e080ffa9c6e3d6fd210e390b05ac82b4db41946105029493911691600160a01b900460ff1690611ec6565b610ee961153c565b6001600160a01b0316610f046033546001600160a01b031690565b6001600160a01b031614610f2a5760405162461bcd60e51b815260040161047690611e91565b609e55565b610f3761153c565b6001600160a01b0316610f526033546001600160a01b031690565b6001600160a01b031614610f785760405162461bcd60e51b815260040161047690611e91565b609780546001600160a01b0319166001600160a01b03831617905550565b50565b6000609e54851015610fe55760405162461bcd60e51b815260206004820152601560248201527421494e56414c494428746f707570416d6f756e742960581b6044820152606401610476565b6001826002811115610ff957610ff9611caf565b14806110165750600282600281111561101457611014611caf565b145b6110585760405162461bcd60e51b815260206004820152601360248201527221494e56414c494428746f707570547970652960681b6044820152606401610476565b60985460405163d5f59fb960e01b81526001600160a01b0385811660048301529091169063d5f59fb99060240160206040518083038186803b15801561109d57600080fd5b505afa1580156110b1573d6000803e3d6000fd5b505050506040513d601f19601f820116820180604052508101906110d59190611f4b565b6111165760405162461bcd60e51b815260206004820152601260248201527121494e56414c49442872656769737472792960701b6044820152606401610476565b600061112061153c565b6040516bffffffffffffffffffffffff19606092831b81166020830152603482018890529186901b909116605482015243606882015242608882015260a80160408051601f19818403018152918152815160209283012060008181526099909352912090915061118e61153c565b81546001600160a01b03199081166001600160a01b0392831617835560028084018b9055600384018a905560088401805463ffffffff19164263ffffffff1617905560098401899055600a840180549283169389169384178155879390926001600160a81b0319161790600160a01b90849081111561120f5761120f611caf565b0217905550600a8101805460ff60a81b1916600160a81b179055609a600061123561153c565b6001600160a01b03168152602080820192909252604001600090812080546001810182559082529190200182905561126c8261180f565b60985460405163e6cab67160e01b8152600481018490526001600160a01b039091169063e6cab67190602401600060405180830381600087803b1580156112b257600080fd5b505af11580156112c6573d6000803e3d6000fd5b50600192506112d3915050565b600a820154600160a81b900460ff1660038111156112f3576112f3611caf565b146113315760405162461bcd60e51b815260206004820152600e60248201526d21554e50524f4345535341424c4560901b6044820152606401610476565b8054600282015460038301546009840154600a8501546040516001600160a01b039586169588957fe26548496d0e88951d526ea185b82864689467851bf69d0218e2cf1b949850269561139895919490939192811691600160a01b90910460ff1690611f6d565b60405180910390a3509695505050505050565b6113b361153c565b6001600160a01b03166113ce6033546001600160a01b031690565b6001600160a01b0316146113f45760405162461bcd60e51b815260040161047690611e91565b6001600160a01b0381166114595760405162461bcd60e51b815260206004820152602660248201527f4f776e61626c653a206e6577206f776e657220697320746865207a65726f206160448201526564647265737360d01b6064820152608401610476565b610f9681611741565b600054610100900460ff1661147d5760005460ff1615611481565b303b155b6114e45760405162461bcd60e51b815260206004820152602e60248201527f496e697469616c697a61626c653a20636f6e747261637420697320616c72656160448201526d191e481a5b9a5d1a585b1a5e995960921b6064820152608401610476565b600054610100900460ff16158015611506576000805461ffff19166101011790555b61150e61188b565b6115166118c2565b6001609c55609f8290558015611532576000805461ff00191690555b5050565b3b151590565b60006115466118f9565b905090565b60655460ff166115945760405162461bcd60e51b815260206004820152601460248201527314185d5cd8589b194e881b9bdd081c185d5cd95960621b6044820152606401610476565b6065805460ff191690557f5db9ee0a495bf2e6ff9c91a7834c1ba4fdd244a5e8aa4e537bd38aeae4b073aa6115c761153c565b6040516001600160a01b03909116815260200160405180910390a1565b60008181526099602090815260408083206001810154808552609b90935290832054909281905b82811015611661576000848152609b6020526040902080548791908390811061163657611636611ef3565b9060005260206000200154141561164f57809150611661565b8061165981611faa565b91505061160b565b5081811015611708576000838152609b60205260409020611683600184611fc5565b8154811061169357611693611ef3565b9060005260206000200154609b600085815260200190815260200160002060000182815481106116c5576116c5611ef3565b6000918252602080832090910192909255848152609b909152604090208054806116f1576116f1611fdc565b600190038181906000526020600020016000905590555b5050609d80546001810182556000919091527fd26e832454299e9fabb89e0e5fffdc046d4e14431bc1bf607ffb2e8a1ddecf7b01555050565b603380546001600160a01b038381166001600160a01b0319831681179093556040519116919082907f8be0079c531659141344cd1fd0a4f28419497f9722a3daafe3b4186f6b6457e090600090a35050565b60655460ff16156117d95760405162461bcd60e51b815260206004820152601060248201526f14185d5cd8589b194e881c185d5cd95960821b6044820152606401610476565b6065805460ff191660011790557f62e78cea01bee320cd4e420270b5ea74000d11b0c9f74754ebdbfc544b05a2586115c761153c565b600061181961192d565b90506000811161185a5760405162461bcd60e51b815260206004820152600c60248201526b10a3a927aaa82fa2a92927a960a11b6044820152606401610476565b60008281526099602090815260408083206001908101859055938352609b8252822080549384018155825290200155565b600054610100900460ff166118b25760405162461bcd60e51b815260040161047690611ff2565b6118ba6119fe565b610560611a25565b600054610100900460ff166118e95760405162461bcd60e51b815260040161047690611ff2565b6118f16119fe565b610560611a5c565b60006014361080159061191657506097546001600160a01b031633145b15611928575060131936013560601c90565b503390565b609d5460009081901561199357609d805461194a90600190611fc5565b8154811061195a5761195a611ef3565b90600052602060002001549050609d80548061197857611978611fdc565b60019003818190600052602060002001600090559055611998565b50609c545b609c5481141580156119ba5750609f546000828152609b602052604090205410155b156119c45750609c545b609f546000828152609b6020526040902054106119f9576001609c60008282546119ee9190611e3c565b9091555050609c5490505b919050565b600054610100900460ff166105605760405162461bcd60e51b815260040161047690611ff2565b600054610100900460ff16611a4c5760405162461bcd60e51b815260040161047690611ff2565b610560611a5761153c565b611741565b600054610100900460ff16611a835760405162461bcd60e51b815260040161047690611ff2565b6065805460ff19169055565b604051806101a0016040528060006001600160a01b0316815260200160008152602001600081526020016000815260200160008152602001600081526020016000815260200160008152602001600063ffffffff1681526020016000815260200160006001600160a01b0316815260200160006002811115611b1357611b13611caf565b81526020016000905290565b60038110610f9657600080fd5b60008060408385031215611b3f57600080fd5b823591506020830135611b5181611b1f565b809150509250929050565b600060208083528351808285015260005b81811015611b8957858101830151858201604001528201611b6d565b81811115611b9b576000604083870101525b50601f01601f1916929092016040019392505050565b80356001600160a01b03811681146119f957600080fd5b600060208284031215611bda57600080fd5b611be382611bb1565b9392505050565b60008060408385031215611bfd57600080fd5b611c0683611bb1565b946020939093013593505050565b600060208284031215611c2657600080fd5b5035919050565b6020808252825182820182905280516040840181905260009291820190839060608601905b80831015611c725783518252928401926001929092019190840190611c52565b509695505050505050565b60008060008060808587031215611c9357600080fd5b5050823594602084013594506040840135936060013592509050565b634e487b7160e01b600052602160045260246000fd5b60038110610f9657610f96611caf565b611cde81611cc5565b9052565b60048110611cde57611cde611caf565b81516001600160a01b031681526101a081016020830151602083015260408301516040830152606083015160608301526080830151608083015260a083015160a083015260c083015160c083015260e083015160e083015261010080840151611d628285018263ffffffff169052565b50506101208381015190830152610140808401516001600160a01b03169083015261016080840151611d9682850182611cd5565b505061018080840151611dab82850182611ce2565b505092915050565b600080600080600060a08688031215611dcb57600080fd5b853594506020860135935060408601359250611de960608701611bb1565b91506080860135611df981611b1f565b809150509295509295909350565b60208082526005908201526404282aaa8960db1b604082015260600190565b634e487b7160e01b600052601160045260246000fd5b60008219821115611e4f57611e4f611e26565b500190565b8481526001600160a01b038416602082015260808101611e7384611cc5565b836040830152611e8283611cc5565b82606083015295945050505050565b6020808252818101527f4f776e61626c653a2063616c6c6572206973206e6f7420746865206f776e6572604082015260600190565b8381526001600160a01b038316602082015260608101611ee583611cc5565b826040830152949350505050565b634e487b7160e01b600052603260045260246000fd5b8681526001600160a01b038616602082015260c08101611f2886611cc5565b8560408301528460608301528360808301528260a0830152979650505050505050565b600060208284031215611f5d57600080fd5b81518015158114611be357600080fd5b85815260208101859052604081018490526001600160a01b038316606082015260a08101611f9a83611cc5565b8260808301529695505050505050565b6000600019821415611fbe57611fbe611e26565b5060010190565b600082821015611fd757611fd7611e26565b500390565b634e487b7160e01b600052603160045260246000fd5b6020808252602b908201527f496e697469616c697a61626c653a20636f6e7472616374206973206e6f74206960408201526a6e697469616c697a696e6760a81b60608201526080019056fea2646970667358221220782c55d3eff05da577157023a4cefc480375f04cc81eb4a8ff36f9774753d05364736f6c63430008090033",
  "devdoc": {
    "kind": "dev",
    "methods": {
      "constructor": {
        "custom:oz-upgrades-unsafe-allow": "constructor"
      },
      "owner()": {
        "details": "Returns the address of the current owner."
      },
      "paused()": {
        "details": "Returns true if the contract is paused, and false otherwise."
      },
      "renounceOwnership()": {
        "details": "Leaves the contract without owner. It will not be possible to call `onlyOwner` functions anymore. Can only be called by the current owner. NOTE: Renouncing ownership will leave the contract without an owner, thereby removing any functionality that is only available to the owner."
      },
      "transferOwnership(address)": {
        "details": "Transfers ownership of the contract to a new account (`newOwner`). Can only be called by the current owner."
      }
    },
    "stateVariables": {
      "chainlinkTopupManager": {
        "details": "contract to manage ChainlinkTopup executions. "
      },
      "chainlinkTopupMap": {
        "details": "map of ChainlinkTopup ID to ChainlinkTopup info. "
      },
      "minTopupAmount": {
        "details": "minimum amount to allow for a topup. "
      }
    },
    "version": 1
  },
  "userdoc": {
    "kind": "user",
    "methods": {
      "isTrustedForwarder(address)": {
        "notice": "return if the forwarder is trusted to forward relayed transactions to us. the forwarder is required to verify the sender's signature, and verify the call is not a replay."
      }
    },
    "version": 1
  },
  "storageLayout": {
    "storage": [
      {
        "astId": 327,
        "contract": "contracts/chainlink_topup/CaskChainlinkTopup.sol:CaskChainlinkTopup",
        "label": "_initialized",
        "offset": 0,
        "slot": "0",
        "type": "t_bool"
      },
      {
        "astId": 330,
        "contract": "contracts/chainlink_topup/CaskChainlinkTopup.sol:CaskChainlinkTopup",
        "label": "_initializing",
        "offset": 1,
        "slot": "0",
        "type": "t_bool"
      },
      {
        "astId": 2551,
        "contract": "contracts/chainlink_topup/CaskChainlinkTopup.sol:CaskChainlinkTopup",
        "label": "__gap",
        "offset": 0,
        "slot": "1",
        "type": "t_array(t_uint256)50_storage"
      },
      {
        "astId": 205,
        "contract": "contracts/chainlink_topup/CaskChainlinkTopup.sol:CaskChainlinkTopup",
        "label": "_owner",
        "offset": 0,
        "slot": "51",
        "type": "t_address"
      },
      {
        "astId": 319,
        "contract": "contracts/chainlink_topup/CaskChainlinkTopup.sol:CaskChainlinkTopup",
        "label": "__gap",
        "offset": 0,
        "slot": "52",
        "type": "t_array(t_uint256)49_storage"
      },
      {
        "astId": 415,
        "contract": "contracts/chainlink_topup/CaskChainlinkTopup.sol:CaskChainlinkTopup",
        "label": "_paused",
        "offset": 0,
        "slot": "101",
        "type": "t_bool"
      },
      {
        "astId": 506,
        "contract": "contracts/chainlink_topup/CaskChainlinkTopup.sol:CaskChainlinkTopup",
        "label": "__gap",
        "offset": 0,
        "slot": "102",
        "type": "t_array(t_uint256)49_storage"
      },
      {
        "astId": 72,
        "contract": "contracts/chainlink_topup/CaskChainlinkTopup.sol:CaskChainlinkTopup",
        "label": "_trustedForwarder",
        "offset": 0,
        "slot": "151",
        "type": "t_address"
      },
      {
        "astId": 8540,
        "contract": "contracts/chainlink_topup/CaskChainlinkTopup.sol:CaskChainlinkTopup",
        "label": "chainlinkTopupManager",
        "offset": 0,
        "slot": "152",
        "type": "t_contract(ICaskChainlinkTopupManager)11182"
      },
      {
        "astId": 8546,
        "contract": "contracts/chainlink_topup/CaskChainlinkTopup.sol:CaskChainlinkTopup",
        "label": "chainlinkTopupMap",
        "offset": 0,
        "slot": "153",
        "type": "t_mapping(t_bytes32,t_struct(ChainlinkTopup)10966_storage)"
      },
      {
        "astId": 8551,
        "contract": "contracts/chainlink_topup/CaskChainlinkTopup.sol:CaskChainlinkTopup",
        "label": "userChainlinkTopups",
        "offset": 0,
        "slot": "154",
        "type": "t_mapping(t_address,t_array(t_bytes32)dyn_storage)"
      },
      {
        "astId": 8556,
        "contract": "contracts/chainlink_topup/CaskChainlinkTopup.sol:CaskChainlinkTopup",
        "label": "chainlinkTopupGroupMap",
        "offset": 0,
        "slot": "155",
        "type": "t_mapping(t_uint256,t_struct(ChainlinkTopupGroup)10970_storage)"
      },
      {
        "astId": 8558,
        "contract": "contracts/chainlink_topup/CaskChainlinkTopup.sol:CaskChainlinkTopup",
        "label": "currentGroup",
        "offset": 0,
        "slot": "156",
        "type": "t_uint256"
      },
      {
        "astId": 8561,
        "contract": "contracts/chainlink_topup/CaskChainlinkTopup.sol:CaskChainlinkTopup",
        "label": "backfillGroups",
        "offset": 0,
        "slot": "157",
        "type": "t_array(t_uint256)dyn_storage"
      },
      {
        "astId": 8564,
        "contract": "contracts/chainlink_topup/CaskChainlinkTopup.sol:CaskChainlinkTopup",
        "label": "minTopupAmount",
        "offset": 0,
        "slot": "158",
        "type": "t_uint256"
      },
      {
        "astId": 8566,
        "contract": "contracts/chainlink_topup/CaskChainlinkTopup.sol:CaskChainlinkTopup",
        "label": "groupSize",
        "offset": 0,
        "slot": "159",
        "type": "t_uint256"
      }
    ],
    "types": {
      "t_address": {
        "encoding": "inplace",
        "label": "address",
        "numberOfBytes": "20"
      },
      "t_array(t_bytes32)dyn_storage": {
        "base": "t_bytes32",
        "encoding": "dynamic_array",
        "label": "bytes32[]",
        "numberOfBytes": "32"
      },
      "t_array(t_uint256)49_storage": {
        "base": "t_uint256",
        "encoding": "inplace",
        "label": "uint256[49]",
        "numberOfBytes": "1568"
      },
      "t_array(t_uint256)50_storage": {
        "base": "t_uint256",
        "encoding": "inplace",
        "label": "uint256[50]",
        "numberOfBytes": "1600"
      },
      "t_array(t_uint256)dyn_storage": {
        "base": "t_uint256",
        "encoding": "dynamic_array",
        "label": "uint256[]",
        "numberOfBytes": "32"
      },
      "t_bool": {
        "encoding": "inplace",
        "label": "bool",
        "numberOfBytes": "1"
      },
      "t_bytes32": {
        "encoding": "inplace",
        "label": "bytes32",
        "numberOfBytes": "32"
      },
      "t_contract(ICaskChainlinkTopupManager)11182": {
        "encoding": "inplace",
        "label": "contract ICaskChainlinkTopupManager",
        "numberOfBytes": "20"
      },
      "t_enum(ChainlinkTopupStatus)10925": {
        "encoding": "inplace",
        "label": "enum ICaskChainlinkTopup.ChainlinkTopupStatus",
        "numberOfBytes": "1"
      },
      "t_enum(TopupType)10937": {
        "encoding": "inplace",
        "label": "enum ICaskChainlinkTopup.TopupType",
        "numberOfBytes": "1"
      },
      "t_mapping(t_address,t_array(t_bytes32)dyn_storage)": {
        "encoding": "mapping",
        "key": "t_address",
        "label": "mapping(address => bytes32[])",
        "numberOfBytes": "32",
        "value": "t_array(t_bytes32)dyn_storage"
      },
      "t_mapping(t_bytes32,t_struct(ChainlinkTopup)10966_storage)": {
        "encoding": "mapping",
        "key": "t_bytes32",
        "label": "mapping(bytes32 => struct ICaskChainlinkTopup.ChainlinkTopup)",
        "numberOfBytes": "32",
        "value": "t_struct(ChainlinkTopup)10966_storage"
      },
      "t_mapping(t_uint256,t_struct(ChainlinkTopupGroup)10970_storage)": {
        "encoding": "mapping",
        "key": "t_uint256",
        "label": "mapping(uint256 => struct ICaskChainlinkTopup.ChainlinkTopupGroup)",
        "numberOfBytes": "32",
        "value": "t_struct(ChainlinkTopupGroup)10970_storage"
      },
      "t_struct(ChainlinkTopup)10966_storage": {
        "encoding": "inplace",
        "label": "struct ICaskChainlinkTopup.ChainlinkTopup",
        "members": [
          {
            "astId": 10939,
            "contract": "contracts/chainlink_topup/CaskChainlinkTopup.sol:CaskChainlinkTopup",
            "label": "user",
            "offset": 0,
            "slot": "0",
            "type": "t_address"
          },
          {
            "astId": 10941,
            "contract": "contracts/chainlink_topup/CaskChainlinkTopup.sol:CaskChainlinkTopup",
            "label": "groupId",
            "offset": 0,
            "slot": "1",
            "type": "t_uint256"
          },
          {
            "astId": 10943,
            "contract": "contracts/chainlink_topup/CaskChainlinkTopup.sol:CaskChainlinkTopup",
            "label": "lowBalance",
            "offset": 0,
            "slot": "2",
            "type": "t_uint256"
          },
          {
            "astId": 10945,
            "contract": "contracts/chainlink_topup/CaskChainlinkTopup.sol:CaskChainlinkTopup",
            "label": "topupAmount",
            "offset": 0,
            "slot": "3",
            "type": "t_uint256"
          },
          {
            "astId": 10947,
            "contract": "contracts/chainlink_topup/CaskChainlinkTopup.sol:CaskChainlinkTopup",
            "label": "currentAmount",
            "offset": 0,
            "slot": "4",
            "type": "t_uint256"
          },
          {
            "astId": 10949,
            "contract": "contracts/chainlink_topup/CaskChainlinkTopup.sol:CaskChainlinkTopup",
            "label": "currentBuyQty",
            "offset": 0,
            "slot": "5",
            "type": "t_uint256"
          },
          {
            "astId": 10951,
            "contract": "contracts/chainlink_topup/CaskChainlinkTopup.sol:CaskChainlinkTopup",
            "label": "numTopups",
            "offset": 0,
            "slot": "6",
            "type": "t_uint256"
          },
          {
            "astId": 10953,
            "contract": "contracts/chainlink_topup/CaskChainlinkTopup.sol:CaskChainlinkTopup",
            "label": "numSkips",
            "offset": 0,
            "slot": "7",
            "type": "t_uint256"
          },
          {
            "astId": 10955,
            "contract": "contracts/chainlink_topup/CaskChainlinkTopup.sol:CaskChainlinkTopup",
            "label": "createdAt",
            "offset": 0,
            "slot": "8",
            "type": "t_uint32"
          },
          {
            "astId": 10957,
            "contract": "contracts/chainlink_topup/CaskChainlinkTopup.sol:CaskChainlinkTopup",
            "label": "targetId",
            "offset": 0,
            "slot": "9",
            "type": "t_uint256"
          },
          {
            "astId": 10959,
            "contract": "contracts/chainlink_topup/CaskChainlinkTopup.sol:CaskChainlinkTopup",
            "label": "registry",
            "offset": 0,
            "slot": "10",
            "type": "t_address"
          },
          {
            "astId": 10962,
            "contract": "contracts/chainlink_topup/CaskChainlinkTopup.sol:CaskChainlinkTopup",
            "label": "topupType",
            "offset": 20,
            "slot": "10",
            "type": "t_enum(TopupType)10937"
          },
          {
            "astId": 10965,
            "contract": "contracts/chainlink_topup/CaskChainlinkTopup.sol:CaskChainlinkTopup",
            "label": "status",
            "offset": 21,
            "slot": "10",
            "type": "t_enum(ChainlinkTopupStatus)10925"
          }
        ],
        "numberOfBytes": "352"
      },
      "t_struct(ChainlinkTopupGroup)10970_storage": {
        "encoding": "inplace",
        "label": "struct ICaskChainlinkTopup.ChainlinkTopupGroup",
        "members": [
          {
            "astId": 10969,
            "contract": "contracts/chainlink_topup/CaskChainlinkTopup.sol:CaskChainlinkTopup",
            "label": "chainlinkTopups",
            "offset": 0,
            "slot": "0",
            "type": "t_array(t_bytes32)dyn_storage"
          }
        ],
        "numberOfBytes": "32"
      },
      "t_uint256": {
        "encoding": "inplace",
        "label": "uint256",
        "numberOfBytes": "32"
      },
      "t_uint32": {
        "encoding": "inplace",
        "label": "uint32",
        "numberOfBytes": "4"
      }
    }
  }
}