{
  "address": "0x05bf59d48081e2BadCCE61371b981BF957d8f3Ca",
  "abi": [
    {
      "inputs": [],
      "stateMutability": "nonpayable",
      "type": "constructor"
    },
    {
      "anonymous": false,
      "inputs": [
        {
          "indexed": true,
          "internalType": "bytes32",
          "name": "assetSpec",
          "type": "bytes32"
        }
      ],
      "name": "BlacklistAssetSpec",
      "type": "event"
    },
    {
      "anonymous": false,
      "inputs": [
        {
          "indexed": true,
          "internalType": "address",
          "name": "previousOwner",
          "type": "address"
        },
        {
          "indexed": true,
          "internalType": "address",
          "name": "newOwner",
          "type": "address"
        }
      ],
      "name": "OwnershipTransferred",
      "type": "event"
    },
    {
      "anonymous": false,
      "inputs": [
        {
          "indexed": false,
          "internalType": "address",
          "name": "account",
          "type": "address"
        }
      ],
      "name": "Paused",
      "type": "event"
    },
    {
      "anonymous": false,
      "inputs": [
        {
          "indexed": false,
          "internalType": "uint256",
          "name": "limit",
          "type": "uint256"
        },
        {
          "indexed": false,
          "internalType": "uint256",
          "name": "jobsProcessed",
          "type": "uint256"
        },
        {
          "indexed": false,
          "internalType": "uint256",
          "name": "depth",
          "type": "uint256"
        },
        {
          "indexed": false,
          "internalType": "uint8",
          "name": "queueId",
          "type": "uint8"
        },
        {
          "indexed": false,
          "internalType": "uint256",
          "name": "queueRemaining",
          "type": "uint256"
        },
        {
          "indexed": false,
          "internalType": "uint32",
          "name": "currentBucket",
          "type": "uint32"
        }
      ],
      "name": "QueueRunReport",
      "type": "event"
    },
    {
      "anonymous": false,
      "inputs": [
        {
          "indexed": false,
          "internalType": "address",
          "name": "feeDistributor",
          "type": "address"
        }
      ],
      "name": "SetFeeDistributor",
      "type": "event"
    },
    {
      "anonymous": false,
      "inputs": [],
      "name": "SetParameters",
      "type": "event"
    },
    {
      "anonymous": false,
      "inputs": [
        {
          "indexed": true,
          "internalType": "bytes32",
          "name": "assetSpec",
          "type": "bytes32"
        }
      ],
      "name": "UnblacklistAssetSpec",
      "type": "event"
    },
    {
      "anonymous": false,
      "inputs": [
        {
          "indexed": false,
          "internalType": "address",
          "name": "account",
          "type": "address"
        }
      ],
      "name": "Unpaused",
      "type": "event"
    },
    {
      "anonymous": false,
      "inputs": [
        {
          "indexed": false,
          "internalType": "uint8",
          "name": "queueId",
          "type": "uint8"
        },
        {
          "indexed": false,
          "internalType": "bytes32",
          "name": "workUnit",
          "type": "bytes32"
        }
      ],
      "name": "WorkUnitProcessed",
      "type": "event"
    },
    {
      "anonymous": false,
      "inputs": [
        {
          "indexed": false,
          "internalType": "uint8",
          "name": "queueId",
          "type": "uint8"
        },
        {
          "indexed": false,
          "internalType": "bytes32",
          "name": "workUnit",
          "type": "bytes32"
        },
        {
          "indexed": false,
          "internalType": "uint32",
          "name": "processAt",
          "type": "uint32"
        }
      ],
      "name": "WorkUnitQueued",
      "type": "event"
    },
    {
      "inputs": [],
      "name": "assetsMerkleRoot",
      "outputs": [
        {
          "internalType": "bytes32",
          "name": "",
          "type": "bytes32"
        }
      ],
      "stateMutability": "view",
      "type": "function"
    },
    {
      "inputs": [
        {
          "internalType": "bytes32",
          "name": "_assetSpec",
          "type": "bytes32"
        }
      ],
      "name": "blacklistAssetspec",
      "outputs": [],
      "stateMutability": "nonpayable",
      "type": "function"
    },
    {
      "inputs": [
        {
          "internalType": "bytes32",
          "name": "",
          "type": "bytes32"
        }
      ],
      "name": "blacklistedAssetspecs",
      "outputs": [
        {
          "internalType": "bool",
          "name": "",
          "type": "bool"
        }
      ],
      "stateMutability": "view",
      "type": "function"
    },
    {
      "inputs": [],
      "name": "caskDCA",
      "outputs": [
        {
          "internalType": "contract ICaskDCA",
          "name": "",
          "type": "address"
        }
      ],
      "stateMutability": "view",
      "type": "function"
    },
    {
      "inputs": [],
      "name": "caskVault",
      "outputs": [
        {
          "internalType": "contract ICaskVault",
          "name": "",
          "type": "address"
        }
      ],
      "stateMutability": "view",
      "type": "function"
    },
    {
      "inputs": [
        {
          "internalType": "bytes",
          "name": "checkData",
          "type": "bytes"
        }
      ],
      "name": "checkUpkeep",
      "outputs": [
        {
          "internalType": "bool",
          "name": "upkeepNeeded",
          "type": "bool"
        },
        {
          "internalType": "bytes",
          "name": "performData",
          "type": "bytes"
        }
      ],
      "stateMutability": "view",
      "type": "function"
    },
    {
      "inputs": [],
      "name": "dcaFeeBps",
      "outputs": [
        {
          "internalType": "uint256",
          "name": "",
          "type": "uint256"
        }
      ],
      "stateMutability": "view",
      "type": "function"
    },
    {
      "inputs": [],
      "name": "dcaFeeMin",
      "outputs": [
        {
          "internalType": "uint256",
          "name": "",
          "type": "uint256"
        }
      ],
      "stateMutability": "view",
      "type": "function"
    },
    {
      "inputs": [],
      "name": "dcaMinValue",
      "outputs": [
        {
          "internalType": "uint256",
          "name": "",
          "type": "uint256"
        }
      ],
      "stateMutability": "view",
      "type": "function"
    },
    {
      "inputs": [],
      "name": "feeDistributor",
      "outputs": [
        {
          "internalType": "address",
          "name": "",
          "type": "address"
        }
      ],
      "stateMutability": "view",
      "type": "function"
    },
    {
      "inputs": [
        {
          "internalType": "address",
          "name": "_caskDCA",
          "type": "address"
        },
        {
          "internalType": "address",
          "name": "_caskVault",
          "type": "address"
        },
        {
          "internalType": "address",
          "name": "_feeDistributor",
          "type": "address"
        }
      ],
      "name": "initialize",
      "outputs": [],
      "stateMutability": "nonpayable",
      "type": "function"
    },
    {
      "inputs": [],
      "name": "maxPriceFeedAge",
      "outputs": [
        {
          "internalType": "uint256",
          "name": "",
          "type": "uint256"
        }
      ],
      "stateMutability": "view",
      "type": "function"
    },
    {
      "inputs": [],
      "name": "maxQueueAge",
      "outputs": [
        {
          "internalType": "uint32",
          "name": "",
          "type": "uint32"
        }
      ],
      "stateMutability": "view",
      "type": "function"
    },
    {
      "inputs": [],
      "name": "maxSkips",
      "outputs": [
        {
          "internalType": "uint256",
          "name": "",
          "type": "uint256"
        }
      ],
      "stateMutability": "view",
      "type": "function"
    },
    {
      "inputs": [],
      "name": "owner",
      "outputs": [
        {
          "internalType": "address",
          "name": "",
          "type": "address"
        }
      ],
      "stateMutability": "view",
      "type": "function"
    },
    {
      "inputs": [],
      "name": "paused",
      "outputs": [
        {
          "internalType": "bool",
          "name": "",
          "type": "bool"
        }
      ],
      "stateMutability": "view",
      "type": "function"
    },
    {
      "inputs": [
        {
          "internalType": "bytes",
          "name": "performData",
          "type": "bytes"
        }
      ],
      "name": "performUpkeep",
      "outputs": [],
      "stateMutability": "nonpayable",
      "type": "function"
    },
    {
      "inputs": [],
      "name": "queueBucketSize",
      "outputs": [
        {
          "internalType": "uint32",
          "name": "",
          "type": "uint32"
        }
      ],
      "stateMutability": "view",
      "type": "function"
    },
    {
      "inputs": [
        {
          "internalType": "uint8",
          "name": "_queueId",
          "type": "uint8"
        },
        {
          "internalType": "uint32",
          "name": "_bucket",
          "type": "uint32"
        },
        {
          "internalType": "uint256",
          "name": "_idx",
          "type": "uint256"
        }
      ],
      "name": "queueItem",
      "outputs": [
        {
          "internalType": "bytes32",
          "name": "",
          "type": "bytes32"
        }
      ],
      "stateMutability": "view",
      "type": "function"
    },
    {
      "inputs": [
        {
          "internalType": "uint8",
          "name": "_queueId",
          "type": "uint8"
        }
      ],
      "name": "queuePosition",
      "outputs": [
        {
          "internalType": "uint32",
          "name": "",
          "type": "uint32"
        }
      ],
      "stateMutability": "view",
      "type": "function"
    },
    {
      "inputs": [
        {
          "internalType": "uint8",
          "name": "_queueId",
          "type": "uint8"
        },
        {
          "internalType": "uint32",
          "name": "_bucket",
          "type": "uint32"
        }
      ],
      "name": "queueSize",
      "outputs": [
        {
          "internalType": "uint256",
          "name": "",
          "type": "uint256"
        }
      ],
      "stateMutability": "view",
      "type": "function"
    },
    {
      "inputs": [
        {
          "internalType": "address",
          "name": "_asset",
          "type": "address"
        },
        {
          "internalType": "address",
          "name": "_dest",
          "type": "address"
        }
      ],
      "name": "recoverFunds",
      "outputs": [],
      "stateMutability": "nonpayable",
      "type": "function"
    },
    {
      "inputs": [
        {
          "internalType": "bytes32",
          "name": "_dcaId",
          "type": "bytes32"
        }
      ],
      "name": "registerDCA",
      "outputs": [],
      "stateMutability": "nonpayable",
      "type": "function"
    },
    {
      "inputs": [],
      "name": "renounceOwnership",
      "outputs": [],
      "stateMutability": "nonpayable",
      "type": "function"
    },
    {
      "inputs": [
        {
          "internalType": "address",
          "name": "_feeDistributor",
          "type": "address"
        }
      ],
      "name": "setFeeDistributor",
      "outputs": [],
      "stateMutability": "nonpayable",
      "type": "function"
    },
    {
      "inputs": [
        {
          "internalType": "uint32",
          "name": "_maxQueueAge",
          "type": "uint32"
        }
      ],
      "name": "setMaxQueueAge",
      "outputs": [],
      "stateMutability": "nonpayable",
      "type": "function"
    },
    {
      "inputs": [
        {
          "internalType": "uint256",
          "name": "_maxSkips",
          "type": "uint256"
        },
        {
          "internalType": "uint256",
          "name": "_dcaFeeBps",
          "type": "uint256"
        },
        {
          "internalType": "uint256",
          "name": "_dcaFeeMin",
          "type": "uint256"
        },
        {
          "internalType": "uint256",
          "name": "_dcaMinValue",
          "type": "uint256"
        },
        {
          "internalType": "uint256",
          "name": "_maxPriceFeedAge",
          "type": "uint256"
        },
        {
          "internalType": "uint32",
          "name": "_queueBucketSize",
          "type": "uint32"
        },
        {
          "internalType": "uint32",
          "name": "_maxQueueAge",
          "type": "uint32"
        }
      ],
      "name": "setParameters",
      "outputs": [],
      "stateMutability": "nonpayable",
      "type": "function"
    },
    {
      "inputs": [
        {
          "internalType": "uint32",
          "name": "_queueBucketSize",
          "type": "uint32"
        }
      ],
      "name": "setQueueBucketSize",
      "outputs": [],
      "stateMutability": "nonpayable",
      "type": "function"
    },
    {
      "inputs": [
        {
          "internalType": "uint8",
          "name": "_queueId",
          "type": "uint8"
        },
        {
          "internalType": "uint32",
          "name": "_timestamp",
          "type": "uint32"
        }
      ],
      "name": "setQueuePosition",
      "outputs": [],
      "stateMutability": "nonpayable",
      "type": "function"
    },
    {
      "inputs": [
        {
          "internalType": "address",
          "name": "newOwner",
          "type": "address"
        }
      ],
      "name": "transferOwnership",
      "outputs": [],
      "stateMutability": "nonpayable",
      "type": "function"
    },
    {
      "inputs": [
        {
          "internalType": "bytes32",
          "name": "_assetSpec",
          "type": "bytes32"
        }
      ],
      "name": "unblacklistAssetspec",
      "outputs": [],
      "stateMutability": "nonpayable",
      "type": "function"
    }
  ],
  "transactionHash": "0xba667c232ea9ae7bc13ae0133a2e3fae62472341fba9b779cdf4898e32a9951f",
  "args": [],
  "numDeployments": 3,
  "solcInputHash": "637123983103b34c061b41bb6ef2019e",
  "bytecode": "0x60806040523480156200001157600080fd5b50600054610100900460ff166200002f5760005460ff161562000039565b62000039620000de565b620000a15760405162461bcd60e51b815260206004820152602e60248201527f496e697469616c697a61626c653a20636f6e747261637420697320616c72656160448201526d191e481a5b9a5d1a585b1a5e995960921b606482015260840160405180910390fd5b600054610100900460ff16158015620000c4576000805461ffff19166101011790555b8015620000d7576000805461ff00191690555b5062000102565b6000620000f630620000fc60201b6200110a1760201c565b15905090565b3b151590565b61423280620001126000396000f3fe608060405234801561001057600080fd5b50600436106101e55760003560e01c80636e04ff0d1161010f578063ab4de5ed116100a2578063ccfc2e8d11610071578063ccfc2e8d14610422578063cd48a61414610435578063f2fde38b14610448578063fa184a1e1461045b57600080fd5b8063ab4de5ed146103e5578063c0c53b8b146103ee578063c506465314610401578063c6f8806c1461040a57600080fd5b80638da5cb5b116100de5780638da5cb5b1461039b57806390c6da56146103ac578063a47755d1146103bf578063aa878f76146103d257600080fd5b80636e04ff0d1461034f578063715018a614610370578063729d8107146103785780638bddd2e41461038b57600080fd5b80631c39033c1161018757806335e53b941161015657806335e53b94146102f55780634585e33b146103285780634b51dd221461033b5780635c975abb1461034457600080fd5b80631c39033c146102885780631e8506d6146102c657806324ae6a27146102d957806330f01be8146102ec57600080fd5b80630caae41d116101c35780630caae41d146102465780630d43e8ad1461025957806314fad7071461026c5780631ac6c56b1461027f57600080fd5b806308058e7c146101ea5780630816c8471461021a5780630abe19d914610231575b600080fd5b60cc546101fd906001600160a01b031681565b6040516001600160a01b0390911681526020015b60405180910390f35b61022360d45481565b604051908152602001610211565b61024461023f3660046134d5565b61046e565b005b61024461025436600461354d565b61055a565b60d5546101fd906001600160a01b031681565b61022361027a366004613586565b6105bc565b61022360d15481565b6102b16102963660046135c7565b60ff16600090815260cb602052604090205463ffffffff1690565b60405163ffffffff9091168152602001610211565b6102446102d43660046135e4565b610606565b6102446102e7366004613612565b610673565b61022360d35481565b6103186103033660046135e4565b60cf6020526000908152604090205460ff1681565b6040519015158152602001610211565b610244610336366004613640565b6107a1565b61022360ce5481565b60655460ff16610318565b61036261035d366004613640565b610b41565b60405161021192919061370a565b610244610cc0565b610244610386366004613725565b610cf6565b60c9546102b19063ffffffff1681565b6033546001600160a01b03166101fd565b6102446103ba3660046135e4565b610d48565b60cd546101fd906001600160a01b031681565b6102236103e036600461354d565b610db2565b61022360d25481565b6102446103fc366004613742565b610ddd565b61022360d05481565b60c9546102b190640100000000900463ffffffff1681565b61024461043036600461378d565b610efa565b610244610443366004613725565b610f78565b61024461045636600461378d565b610fbe565b6102446104693660046135e4565b611059565b6033546001600160a01b031633146104a15760405162461bcd60e51b8152600401610498906137aa565b60405180910390fd5b61271086106104e85760405162461bcd60e51b815260206004820152601360248201527221494e56414c4944286463614665654270732960681b6044820152606401610498565b60d087905560d186905560d285905560d384905560d483905560c9805463ffffffff8381166401000000000267ffffffffffffffff19909216908516171790556040517f3b5fda6f71b960b21be0b432d9b7c87d9c8c996477ea1eba5c19cb77d1e027aa90600090a150505050505050565b6033546001600160a01b031633146105845760405162461bcd60e51b8152600401610498906137aa565b61058d81611110565b60ff92909216600090815260cb60205260409020805463ffffffff191663ffffffff9093169290921790915550565b60ff8316600090815260ca6020908152604080832063ffffffff8616845290915281208054839081106105f1576105f16137df565b906000526020600020015490505b9392505050565b6033546001600160a01b031633146106305760405162461bcd60e51b8152600401610498906137aa565b600081815260cf6020526040808220805460ff191660011790555182917f24b2f8b1797db190508a9ea995ccc6b8f33928a8ec4fb3a27504f51e1157647b91a250565b6033546001600160a01b0316331461069d5760405162461bcd60e51b8152600401610498906137aa565b6040516370a0823160e01b81523060048201526001600160a01b0383169063a9059cbb90839083906370a082319060240160206040518083038186803b1580156106e657600080fd5b505afa1580156106fa573d6000803e3d6000fd5b505050506040513d601f19601f8201168201806040525081019061071e91906137f5565b6040516001600160e01b031960e085901b1681526001600160a01b0390921660048301526024820152604401602060405180830381600087803b15801561076457600080fd5b505af1158015610778573d6000803e3d6000fd5b505050506040513d601f19601f8201168201806040525081019061079c9190613823565b505050565b60655460ff16156107e75760405162461bcd60e51b815260206004820152601060248201526f14185d5cd8589b194e881c185d5cd95960821b6044820152606401610498565b6002609754141561083a5760405162461bcd60e51b815260206004820152601f60248201527f5265656e7472616e637947756172643a207265656e7472616e742063616c6c006044820152606401610498565b60026097556000808061084f8486018661383e565b925092509250600061085f61113a565b905060008061086f866005613882565b60ff8516600090815260cb602052604090205490915063ffffffff166108b55760ff8416600090815260cb60205260409020805463ffffffff191663ffffffff85161790555b85821080156108c45750600081115b80156108eb575060ff8416600090815260cb602052604090205463ffffffff808516911611155b15610aaa5760ff8416600090815260ca6020908152604080832060cb83528184205463ffffffff1684529091529020548015610a1a5760ff8516600090815260ca6020908152604080832060cb83528184205463ffffffff16845290915281206109566001846138a1565b81548110610966576109666137df565b600091825260208083209091015460ff8916835260ca8252604080842060cb84528185205463ffffffff1685529092529120805491925090806109ab576109ab6138b8565b600190038181906000526020600020016000905590556109cb8682611162565b6040805160ff88168152602081018390527f58c7ae721fd25aaf84e68db9ce9ac6fed4f08438a370a4299d19f8c1425c499e910160405180910390a1610a126001856138ce565b935050610aa4565b60ff8516600090815260cb602052604090205463ffffffff80861691161015610a9e5760c95460ff8616600090815260cb60205260408120805463ffffffff93841693919291610a6c918591166138e6565b92506101000a81548163ffffffff021916908363ffffffff160217905550600182610a9791906138a1565b9150610aa4565b50610aaa565b506108b5565b60ff8416600081815260ca6020908152604080832060cb8084528285205463ffffffff168086529184528285205494869052835281518b81529283018790528282018a90526060830194909452608082019290925260a0810192909252517fd69140f88b9a25350749bb371882f4479133fc8b65602aac60f6c1b3598f08329181900360c00190a150506001609755505050505050565b60006060818080610b548688018861383e565b9250925092506000610b6461113a565b60ff8316600090815260cb602052604081205490975090915063ffffffff1680610b8b5750805b8063ffffffff168263ffffffff1610158015610bc6575060c954640100000000900463ffffffff16610bbd828461390e565b63ffffffff1610155b15610bd45760019650610c64565b8163ffffffff168163ffffffff1611610c645760ff8316600090815260ca6020908152604080832063ffffffff8516845290915290205415801590610c3c575060ff8316600090815260ca6020908152604080832063ffffffff851684529091529020548411155b15610c4a5760019650610c64565b60c954610c5d9063ffffffff16826138e6565b9050610bd4565b60ff8316600081815260ca6020908152604080832063ffffffff86168452825291829020548251918201899052918101919091526060810191909152608001604051602081830303815290604052955050505050509250929050565b6033546001600160a01b03163314610cea5760405162461bcd60e51b8152600401610498906137aa565b610cf46000611804565b565b6033546001600160a01b03163314610d205760405162461bcd60e51b8152600401610498906137aa565b60c9805463ffffffff9092166401000000000267ffffffff0000000019909216919091179055565b6033546001600160a01b03163314610d725760405162461bcd60e51b8152600401610498906137aa565b600081815260cf6020526040808220805460ff191690555182917fba894bc0c7e4bd24c200bbd3877abd49470e2d8d96aeaecae8a02e09809e4aea91a250565b60ff8216600090815260ca6020908152604080832063ffffffff851684529091529020545b92915050565b600054610100900460ff16610df85760005460ff1615610dfc565b303b155b610e5f5760405162461bcd60e51b815260206004820152602e60248201527f496e697469616c697a61626c653a20636f6e747261637420697320616c72656160448201526d191e481a5b9a5d1a585b1a5e995960921b6064820152608401610498565b600054610100900460ff16158015610e81576000805461ffff19166101011790555b60cc80546001600160a01b038087166001600160a01b03199283161790925560cd805486841690831617905560d5805492851692909116919091179055600060d081905560d181905560d281905560d381905560d455610ee2610e10611856565b8015610ef4576000805461ff00191690555b50505050565b6033546001600160a01b03163314610f245760405162461bcd60e51b8152600401610498906137aa565b60d580546001600160a01b0319166001600160a01b0383169081179091556040519081527f9e9a9a4a82acd1b28aab6bf1d43aad70ae6d290549c0d6183e2e91ebcdf574419060200160405180910390a150565b6033546001600160a01b03163314610fa25760405162461bcd60e51b8152600401610498906137aa565b60c9805463ffffffff191663ffffffff92909216919091179055565b6033546001600160a01b03163314610fe85760405162461bcd60e51b8152600401610498906137aa565b6001600160a01b03811661104d5760405162461bcd60e51b815260206004820152602660248201527f4f776e61626c653a206e6577206f776e657220697320746865207a65726f206160448201526564647265737360d01b6064820152608401610498565b61105681611804565b50565b600260975414156110ac5760405162461bcd60e51b815260206004820152601f60248201527f5265656e7472616e637947756172643a207265656e7472616e742063616c6c006044820152606401610498565b600260975560655460ff16156110f75760405162461bcd60e51b815260206004820152601060248201526f14185d5cd8589b194e881c185d5cd95960821b6044820152606401610498565b611102600182611162565b506001609755565b3b151590565b60c95460009063ffffffff166111268184613949565b611130908461390e565b610dd791906138e6565b60c95460009042906111529063ffffffff1682613949565b61115c908261390e565b91505090565b60cc546040516392c65f4b60e01b8152600481018390526000916001600160a01b0316906392c65f4b9060240160006040518083038186803b1580156111a757600080fd5b505afa1580156111bb573d6000803e3d6000fd5b505050506040513d6000823e601f3d908101601f191682016040526111e39190810190613b0d565b9050600081610240015182610260015183604001518460600151856102200151604051602001611217959493929190613cfc565b60408051601f198184030181529181528151602092830120600081815260cf90935291205490915060ff16156112b25760cc54604051635ba581cd60e01b81526001600160a01b0390911690635ba581cd9061127a908690600190600401613d5a565b600060405180830381600087803b15801561129457600080fd5b505af11580156112a8573d6000803e3d6000fd5b5050505050505050565b600182610200015160048111156112cb576112cb613ca2565b146112d65750505050565b60d354826080015110156113175760cc54604051635ba581cd60e01b81526001600160a01b0390911690635ba581cd9061127a908690600190600401613d5a565b6101e0820151429063ffffffff8083169116111561134e576113478585611342866101e00151611110565b61189e565b5050505050565b608083015160a08401511580159061137857508360c001518460a0015161137591906138a1565b81115b15611394578360c001518460a0015161139191906138a1565b90505b600061271060d154836113a79190613882565b6113b19190613d7e565b905060d2548110156113c2575060d2545b60008561022001516000815181106113dc576113dc6137df565b60200260200101519050600086610220015160018861022001515161140191906138a1565b81518110611411576114116137df565b602090810291909101015160cd5460405163185c596360e11b81526001600160a01b038581166004830152929350600092909116906330b8b2c69060240160c06040518083038186803b15801561146757600080fd5b505afa15801561147b573d6000803e3d6000fd5b505050506040513d601f19601f8201168201806040525081019061149f9190613d92565b90508060a0015161153e576114cd8a8a6113428b6101a001518c6101e001516114c891906138e6565b611110565b60cc54604051632a74cbb560e01b81526001600160a01b0390911690632a74cbb590611500908c90600190600401613e2b565b600060405180830381600087803b15801561151a57600080fd5b505af115801561152e573d6000803e3d6000fd5b5050505050505050505050505050565b61154988828461192e565b6116b35761156b8a8a6113428b6101a001518c6101e001516114c891906138e6565b60cd54885160d254604051638e3e580d60e01b81526001600160a01b0392831660048201523060248201526044810191909152911690638e3e580d90606401600060405180830381600087803b1580156115c457600080fd5b505af19250505080156115d5575060015b611674573d808015611603576040519150601f19603f3d011682016040523d82523d6000602084013e611608565b606091505b5060cc54604051635ba581cd60e01b81526001600160a01b0390911690635ba581cd9061163c908d90600190600401613d5a565b600060405180830381600087803b15801561165657600080fd5b505af115801561166a573d6000803e3d6000fd5b50505050506116a7565b60cc54604051632a74cbb560e01b81526001600160a01b0390911690632a74cbb590611500908c90600390600401613e2b565b50505050505050505050565b60006116c18a8a8888611aba565b905080156117885760a089015115806116ec57508860a00151868a60c001516116ea91906138ce565b105b1561170f5761170f8b8b6113428c6101a001518d6101e001516114c891906138e6565b60cc54604051632d32f27960e21b8152600481018c90526024810188905260448101839052606481018790526001600160a01b039091169063b4cbc9e4906084015b600060405180830381600087803b15801561176b57600080fd5b505af115801561177f573d6000803e3d6000fd5b505050506117f7565b600060d0541180156117a1575060d05489610120015110155b156117d95760cc54604051635ba581cd60e01b81526001600160a01b0390911690635ba581cd90611751908d90600390600401613d5a565b6117f78b8b6113428c6101a001518d6101e001516114c891906138e6565b5050505050505050505050565b603380546001600160a01b038381166001600160a01b0319831681179093556040519116919082907f8be0079c531659141344cd1fd0a4f28419497f9722a3daafe3b4186f6b6457e090600090a35050565b600054610100900460ff1661187d5760405162461bcd60e51b815260040161049890613e42565b61188561245c565b61188d612493565b6118956124ca565b611056816124f1565b60ff8316600090815260ca60205260408120906118ba83611110565b63ffffffff90811682526020808301939093526040918201600090812080546001810182559082529084902001859055815160ff87168152928301859052831682820152517f67778e52b18dcf574ab071142a886fce91a8ce5e60e176229fdadb8c063caaed9181900360600190a1505050565b600083610180015160001480156119485750610160840151155b15611955575060016105ff565b600080836001600160a01b031663313ce5676040518163ffffffff1660e01b815260040160206040518083038186803b15801561199157600080fd5b505afa1580156119a5573d6000803e3d6000fd5b505050506040513d601f19601f820116820180604052508101906119c99190613e8d565b905060006119d882600a613f8e565b60608801519091506001600160a01b031615611a2957611a0e868689606001518960600151600a611a099190613f8e565b61255e565b611a188280613882565b611a229190613d7e565b9250611a5a565b611a43878760600151600a611a3e9190613f8e565b61288e565b611a4d8280613882565b611a579190613d7e565b92505b6000876101800151118015611a73575086610180015183105b15611a8457600093505050506105ff565b6000876101600151118015611a9d575086610160015183115b15611aae57600093505050506105ff565b600193505050506105ff565b600080846102200151600081518110611ad557611ad56137df565b60209081029190910101516040516370a0823160e01b81523060048201529091506000906001600160a01b038316906370a082319060240160206040518083038186803b158015611b2557600080fd5b505afa158015611b39573d6000803e3d6000fd5b505050506040513d601f19601f82011682018060405250810190611b5d91906137f5565b60cd54875160405163fcd6a25b60e01b81526001600160a01b0391821660048201523060248201526044810189905260006064820152929350169063fcd6a25b90608401600060405180830381600087803b158015611bbb57600080fd5b505af1925050508015611bcc575060015b611c71573d808015611bfa576040519150601f19603f3d011682016040523d82523d6000602084013e611bff565b606091505b5060cc54604051632a74cbb560e01b81526001600160a01b0390911690632a74cbb590611c33908b90600290600401613e2b565b600060405180830381600087803b158015611c4d57600080fd5b505af1158015611c61573d6000803e3d6000fd5b5050505060009350505050612454565b60cd546000906001600160a01b031663e1ded2de611c8f87896138a1565b6040518263ffffffff1660e01b8152600401611cad91815260200190565b60206040518083038186803b158015611cc557600080fd5b505afa158015611cd9573d6000803e3d6000fd5b505050506040513d601f19601f82011682018060405250810190611cfd91906137f5565b60cd546040516370a0823160e01b81523060048201529192506001600160a01b0316906370a082319060240160206040518083038186803b158015611d4157600080fd5b505afa158015611d55573d6000803e3d6000fd5b505050506040513d601f19601f82011682018060405250810190611d7991906137f5565b811115611dfe5760cd546040516370a0823160e01b81523060048201526001600160a01b03909116906370a082319060240160206040518083038186803b158015611dc357600080fd5b505afa158015611dd7573d6000803e3d6000fd5b505050506040513d601f19601f82011682018060405250810190611dfb91906137f5565b90505b60cd5460405163f3fef3a360e01b81526001600160a01b038581166004830152602482018490529091169063f3fef3a390604401600060405180830381600087803b158015611e4c57600080fd5b505af1158015611e60573d6000803e3d6000fd5b50506040516370a0823160e01b8152306004820152600092508491506001600160a01b038616906370a082319060240160206040518083038186803b158015611ea857600080fd5b505afa158015611ebc573d6000803e3d6000fd5b505050506040513d601f19601f82011682018060405250810190611ee091906137f5565b611eea91906138a1565b905060008111611f345760405162461bcd60e51b815260206004820152601560248201527421494e56414c494428696e707574416d6f756e742960581b6044820152606401610498565b6000611f4089836129e7565b90508015612261576000611f558a8484612b7f565b905080156120695760cd5460d5546040516370a0823160e01b81523060048201526001600160a01b039283169263a9059cbb92169083906370a082319060240160206040518083038186803b158015611fad57600080fd5b505afa158015611fc1573d6000803e3d6000fd5b505050506040513d601f19601f82011682018060405250810190611fe591906137f5565b6040516001600160e01b031960e085901b1681526001600160a01b0390921660048301526024820152604401602060405180830381600087803b15801561202b57600080fd5b505af115801561203f573d6000803e3d6000fd5b505050506040513d601f19601f820116820180604052508101906120639190613823565b50612254565b60cd54612083906001600160a01b03888116911685612c05565b60cd546040516311f9fbc960e21b81526001600160a01b03888116600483015260248201869052909116906347e7ef2490604401600060405180830381600087803b1580156120d157600080fd5b505af11580156120e5573d6000803e3d6000fd5b505060cd548c516040516370a0823160e01b81523060048201526001600160a01b03909216935063a9059cbb92509083906370a082319060240160206040518083038186803b15801561213757600080fd5b505afa15801561214b573d6000803e3d6000fd5b505050506040513d601f19601f8201168201806040525081019061216f91906137f5565b6040516001600160e01b031960e085901b1681526001600160a01b0390921660048301526024820152604401602060405180830381600087803b1580156121b557600080fd5b505af11580156121c9573d6000803e3d6000fd5b505050506040513d601f19601f820116820180604052508101906121ed9190613823565b5060cc54604051632a74cbb560e01b81526001600160a01b0390911690632a74cbb590612221908e90600590600401613e2b565b600060405180830381600087803b15801561223b57600080fd5b505af115801561224f573d6000803e3d6000fd5b505050505b9550612454945050505050565b60cd5461227b906001600160a01b03878116911684612c05565b60cd546040516311f9fbc960e21b81526001600160a01b03878116600483015260248201859052909116906347e7ef2490604401600060405180830381600087803b1580156122c957600080fd5b505af11580156122dd573d6000803e3d6000fd5b505060cd548b516040516370a0823160e01b81523060048201526001600160a01b03909216935063a9059cbb92509083906370a082319060240160206040518083038186803b15801561232f57600080fd5b505afa158015612343573d6000803e3d6000fd5b505050506040513d601f19601f8201168201806040525081019061236791906137f5565b6040516001600160e01b031960e085901b1681526001600160a01b0390921660048301526024820152604401602060405180830381600087803b1580156123ad57600080fd5b505af11580156123c1573d6000803e3d6000fd5b505050506040513d601f19601f820116820180604052508101906123e59190613823565b5060cc54604051632a74cbb560e01b81526001600160a01b0390911690632a74cbb590612418908d906004908101613e2b565b600060405180830381600087803b15801561243257600080fd5b505af1158015612446573d6000803e3d6000fd5b505050506000955050505050505b949350505050565b600054610100900460ff166124835760405162461bcd60e51b815260040161049890613e42565b61248b6124ca565b610cf4612ce8565b600054610100900460ff166124ba5760405162461bcd60e51b815260040161049890613e42565b6124c26124ca565b610cf4612d18565b600054610100900460ff16610cf45760405162461bcd60e51b815260040161049890613e42565b600054610100900460ff166125185760405162461bcd60e51b815260040161049890613e42565b60c9805463ffffffff191663ffffffff831690811790915561253b906014613f9d565b60c960046101000a81548163ffffffff021916908363ffffffff16021790555050565b60008161256d57506000612454565b6000806000866001600160a01b031663313ce5676040518163ffffffff1660e01b815260040160206040518083038186803b1580156125ab57600080fd5b505afa1580156125bf573d6000803e3d6000fd5b505050506040513d601f19601f820116820180604052508101906125e39190613e8d565b90506000866001600160a01b031663313ce5676040518163ffffffff1660e01b815260040160206040518083038186803b15801561262057600080fd5b505afa158015612634573d6000803e3d6000fd5b505050506040513d601f19601f820116820180604052508101906126589190613e8d565b905088600001516001600160a01b031663feaf968c6040518163ffffffff1660e01b815260040160a06040518083038186803b15801561269757600080fd5b505afa1580156126ab573d6000803e3d6000fd5b505050506040513d601f19601f820116820180604052508101906126cf9190613fe3565b5060d45492975095508692505015806126f3575060d4546126f085426138a1565b11155b6127315760405162461bcd60e51b815260206004820152600f60248201526e0854149250d157d3d5551110551151608a1b6044820152606401610498565b876001600160a01b031663feaf968c6040518163ffffffff1660e01b815260040160a06040518083038186803b15801561276a57600080fd5b505afa15801561277e573d6000803e3d6000fd5b505050506040513d601f19601f820116820180604052508101906127a29190613fe3565b5060d45492985096508792505015806127c6575060d4546127c386426138a1565b11155b6128045760405162461bcd60e51b815260206004820152600f60248201526e0854149250d157d3d5551110551151608a1b6044820152606401610498565b8260ff168b6080015160ff161461285f57612820818486612d4b565b61282f838d6080015187612d4b565b61283e8a8e6060015188612d4b565b6128489190613882565b6128529190613d7e565b9650505050505050612454565b61285281836128738b8f6060015188612d4b565b61287d9190613882565b6128879190613d7e565b8486612d4b565b60008083610240015160028111156128a8576128a8613ca2565b14156128bf576128b88383612db5565b9050610dd7565b600183610240015160028111156128d8576128d8613ca2565b14156129375760608301516001600160a01b031661292e5760405162461bcd60e51b815260206004820152601360248201527221494e56414c4944287072696365466565642960681b6044820152606401610498565b50600019610dd7565b6002836102400151600281111561295057612950613ca2565b14156129a65760608301516001600160a01b031661292e5760405162461bcd60e51b815260206004820152601360248201527221494e56414c4944287072696365466565642960681b6044820152606401610498565b60405162461bcd60e51b815260206004820152601660248201527521494e56414c4944287377617050726f746f636f6c2960501b6044820152606401610498565b60cd54610220830151805160009283926001600160a01b03909116916330b8b2c691908490612a1857612a186137df565b60200260200101516040518263ffffffff1660e01b8152600401612a4b91906001600160a01b0391909116815260200190565b60c06040518083038186803b158015612a6357600080fd5b505afa158015612a77573d6000803e3d6000fd5b505050506040513d601f19601f82011682018060405250810190612a9b9190613d92565b60608501519091506000906001600160a01b031615612af4576102208501518051612af1918491612ace906001906138a1565b81518110612ade57612ade6137df565b602002602001015187606001518761255e565b90505b6000612b00868661288e565b90508115612b4b5761271086610140015183612b1c9190613882565b612b269190613d7e565b612b3090836138a1565b915081811015612b465760009350505050610dd7565b612b76565b61271086610140015182612b5f9190613882565b612b699190613d7e565b612b7390826138a1565b91505b50949350505050565b6000808461024001516002811115612b9957612b99613ca2565b1415612bb157612baa848484612e75565b90506105ff565b60018461024001516002811115612bca57612bca613ca2565b1415612bdb57612baa848484612fc3565b60028461024001516002811115612bf457612bf4613ca2565b14156129a657612baa8484846130e4565b604051636eb1769f60e11b81523060048201526001600160a01b038381166024830152600091839186169063dd62ed3e9060440160206040518083038186803b158015612c5157600080fd5b505afa158015612c65573d6000803e3d6000fd5b505050506040513d601f19601f82011682018060405250810190612c8991906137f5565b612c9391906138ce565b604080516001600160a01b038616602482015260448082018490528251808303909101815260649091019091526020810180516001600160e01b031663095ea7b360e01b179052909150610ef49085906132e6565b600054610100900460ff16612d0f5760405162461bcd60e51b815260040161049890613e42565b610cf433611804565b600054610100900460ff16612d3f5760405162461bcd60e51b815260040161049890613e42565b6065805460ff19169055565b60008160ff168360ff161015612d7d57612d658383614033565b612d739060ff16600a614056565b612baa9085613882565b8160ff168360ff161115612dad57612d958284614033565b612da39060ff16600a614056565b612baa9085613d7e565b509192915050565b60008083604001516001600160a01b031663d06ca61f848661022001516040518363ffffffff1660e01b8152600401612def929190614062565b60006040518083038186803b158015612e0757600080fd5b505afa158015612e1b573d6000803e3d6000fd5b505050506040513d6000823e601f3d908101601f19168201604052612e43919081019061407b565b90508060018251612e5491906138a1565b81518110612e6457612e646137df565b602002602001015191505092915050565b6000612eb8846040015184866102200151600081518110612e9857612e986137df565b60200260200101516001600160a01b0316612c059092919063ffffffff16565b600084604001516001600160a01b03166338ed17398585886102200151896020015142610e10612ee891906138ce565b6040518663ffffffff1660e01b8152600401612f08959493929190614101565b600060405180830381600087803b158015612f2257600080fd5b505af1925050508015612f5757506040513d6000823e601f3d908101601f19168201604052612f54919081019061407b565b60015b612f91573d808015612f85576040519150601f19603f3d011682016040523d82523d6000602084013e612f8a565b606091505b5050612454565b8060018251612fa091906138a1565b81518110612fb057612fb06137df565b6020026020010151915050949350505050565b6000612fe6846040015184866102200151600081518110612e9857612e986137df565b6000806040518060a00160405280876102600151815260200187602001516001600160a01b0316815260200142603c61301f91906138ce565b815260200186815260200185815250905085604001516001600160a01b031663c04b8d59826040518263ffffffff1660e01b8152600401613060919061413d565b602060405180830381600087803b15801561307a57600080fd5b505af19250505080156130aa575060408051601f3d908101601f191682019092526130a7918101906137f5565b60015b612b73573d8080156130d8576040519150601f19603f3d011682016040523d82523d6000602084013e6130dd565b606091505b5050612b76565b6000613107846040015184866102200151600081518110612e9857612e986137df565b61022084015180516000919061311f906001906138a1565b8151811061312f5761312f6137df565b60209081029190910101516040516370a0823160e01b81523060048201529091506000906001600160a01b038316906370a082319060240160206040518083038186803b15801561317f57600080fd5b505afa158015613193573d6000803e3d6000fd5b505050506040513d601f19601f820116820180604052508101906131b791906137f5565b905085604001516001600160a01b0316636023e96687610220015187878a602001516040518563ffffffff1660e01b81526004016131f89493929190614195565b600060405180830381600087803b15801561321257600080fd5b505af1925050508015613223575060015b613259573d808015613251576040519150601f19603f3d011682016040523d82523d6000602084013e613256565b606091505b50505b6040516370a0823160e01b815230600482015281906001600160a01b038416906370a082319060240160206040518083038186803b15801561329a57600080fd5b505afa1580156132ae573d6000803e3d6000fd5b505050506040513d601f19601f820116820180604052508101906132d291906137f5565b6132dc91906138a1565b9695505050505050565b600061333b826040518060400160405280602081526020017f5361666545524332303a206c6f772d6c6576656c2063616c6c206661696c6564815250856001600160a01b03166133b89092919063ffffffff16565b80519091501561079c57808060200190518101906133599190613823565b61079c5760405162461bcd60e51b815260206004820152602a60248201527f5361666545524332303a204552433230206f7065726174696f6e20646964206e6044820152691bdd081cdd58d8d9595960b21b6064820152608401610498565b6060612454848460008585843b6134115760405162461bcd60e51b815260206004820152601d60248201527f416464726573733a2063616c6c20746f206e6f6e2d636f6e74726163740000006044820152606401610498565b600080866001600160a01b0316858760405161342d91906141cd565b60006040518083038185875af1925050503d806000811461346a576040519150601f19603f3d011682016040523d82523d6000602084013e61346f565b606091505b509150915061347f82828661348a565b979650505050505050565b606083156134995750816105ff565b8251156134a95782518084602001fd5b8160405162461bcd60e51b815260040161049891906141e9565b63ffffffff8116811461105657600080fd5b600080600080600080600060e0888a0312156134f057600080fd5b873596506020880135955060408801359450606088013593506080880135925060a088013561351e816134c3565b915060c088013561352e816134c3565b8091505092959891949750929550565b60ff8116811461105657600080fd5b6000806040838503121561356057600080fd5b823561356b8161353e565b9150602083013561357b816134c3565b809150509250929050565b60008060006060848603121561359b57600080fd5b83356135a68161353e565b925060208401356135b6816134c3565b929592945050506040919091013590565b6000602082840312156135d957600080fd5b81356105ff8161353e565b6000602082840312156135f657600080fd5b5035919050565b6001600160a01b038116811461105657600080fd5b6000806040838503121561362557600080fd5b8235613630816135fd565b9150602083013561357b816135fd565b6000806020838503121561365357600080fd5b823567ffffffffffffffff8082111561366b57600080fd5b818501915085601f83011261367f57600080fd5b81358181111561368e57600080fd5b8660208285010111156136a057600080fd5b60209290920196919550909350505050565b60005b838110156136cd5781810151838201526020016136b5565b83811115610ef45750506000910152565b600081518084526136f68160208601602086016136b2565b601f01601f19169290920160200192915050565b821515815260406020820152600061245460408301846136de565b60006020828403121561373757600080fd5b81356105ff816134c3565b60008060006060848603121561375757600080fd5b8335613762816135fd565b92506020840135613772816135fd565b91506040840135613782816135fd565b809150509250925092565b60006020828403121561379f57600080fd5b81356105ff816135fd565b6020808252818101527f4f776e61626c653a2063616c6c6572206973206e6f7420746865206f776e6572604082015260600190565b634e487b7160e01b600052603260045260246000fd5b60006020828403121561380757600080fd5b5051919050565b8051801515811461381e57600080fd5b919050565b60006020828403121561383557600080fd5b6105ff8261380e565b60008060006060848603121561385357600080fd5b833592506020840135915060408401356137828161353e565b634e487b7160e01b600052601160045260246000fd5b600081600019048311821515161561389c5761389c61386c565b500290565b6000828210156138b3576138b361386c565b500390565b634e487b7160e01b600052603160045260246000fd5b600082198211156138e1576138e161386c565b500190565b600063ffffffff8083168185168083038211156139055761390561386c565b01949350505050565b600063ffffffff8381169083168181101561392b5761392b61386c565b039392505050565b634e487b7160e01b600052601260045260246000fd5b600063ffffffff8084168061396057613960613933565b92169190910692915050565b634e487b7160e01b600052604160045260246000fd5b604051610280810167ffffffffffffffff811182821017156139a6576139a661396c565b60405290565b604051601f8201601f1916810167ffffffffffffffff811182821017156139d5576139d561396c565b604052919050565b805161381e816135fd565b805161381e816134c3565b80516005811061381e57600080fd5b600067ffffffffffffffff821115613a1c57613a1c61396c565b5060051b60200190565b600082601f830112613a3757600080fd5b81516020613a4c613a4783613a02565b6139ac565b82815260059290921b84018101918181019086841115613a6b57600080fd5b8286015b84811015613a8f578051613a82816135fd565b8352918301918301613a6f565b509695505050505050565b80516003811061381e57600080fd5b600082601f830112613aba57600080fd5b815167ffffffffffffffff811115613ad457613ad461396c565b613ae7601f8201601f19166020016139ac565b818152846020838601011115613afc57600080fd5b6124548260208301602087016136b2565b600060208284031215613b1f57600080fd5b815167ffffffffffffffff80821115613b3757600080fd5b908301906102808286031215613b4c57600080fd5b613b54613982565b613b5d836139dd565b8152613b6b602084016139dd565b6020820152613b7c604084016139dd565b6040820152613b8d606084016139dd565b60608201526080838101519082015260a0808401519082015260c0808401519082015260e08084015190820152610100808401519082015261012080840151908201526101408084015190820152610160808401519082015261018080840151908201526101a0613bff8185016139e8565b908201526101c0613c118482016139e8565b908201526101e0613c238482016139e8565b90820152610200613c358482016139f3565b908201526102208381015183811115613c4d57600080fd5b613c5988828701613a26565b828401525050610240613c6d818501613a9a565b908201526102608381015183811115613c8557600080fd5b613c9188828701613aa9565b918301919091525095945050505050565b634e487b7160e01b600052602160045260246000fd5b600081518084526020808501945080840160005b83811015613cf15781516001600160a01b031687529582019590820190600101613ccc565b509495945050505050565b600060038710613d0e57613d0e613ca2565b86825260a06020830152613d2560a08301876136de565b6001600160a01b038681166040850152851660608401528281036080840152613d4e8185613cb8565b98975050505050505050565b8281526040810160048310613d7157613d71613ca2565b8260208301529392505050565b600082613d8d57613d8d613933565b500490565b600060c08284031215613da457600080fd5b60405160c0810181811067ffffffffffffffff82111715613dc757613dc761396c565b6040528251613dd5816135fd565b8082525060208301516020820152604083015160408201526060830151613dfb8161353e565b60608201526080830151613e0e8161353e565b6080820152613e1f60a0840161380e565b60a08201529392505050565b8281526040810160068310613d7157613d71613ca2565b6020808252602b908201527f496e697469616c697a61626c653a20636f6e7472616374206973206e6f74206960408201526a6e697469616c697a696e6760a81b606082015260800190565b600060208284031215613e9f57600080fd5b81516105ff8161353e565b600181815b80851115613ee5578160001904821115613ecb57613ecb61386c565b80851615613ed857918102915b93841c9390800290613eaf565b509250929050565b600082613efc57506001610dd7565b81613f0957506000610dd7565b8160018114613f1f5760028114613f2957613f45565b6001915050610dd7565b60ff841115613f3a57613f3a61386c565b50506001821b610dd7565b5060208310610133831016604e8410600b8410161715613f68575081810a610dd7565b613f728383613eaa565b8060001904821115613f8657613f8661386c565b029392505050565b60006105ff60ff841683613eed565b600063ffffffff80831681851681830481118215151615613fc057613fc061386c565b02949350505050565b805169ffffffffffffffffffff8116811461381e57600080fd5b600080600080600060a08688031215613ffb57600080fd5b61400486613fc9565b945060208601519350604086015192506060860151915061402760808701613fc9565b90509295509295909350565b600060ff821660ff84168082101561404d5761404d61386c565b90039392505050565b60006105ff8383613eed565b8281526040602082015260006124546040830184613cb8565b6000602080838503121561408e57600080fd5b825167ffffffffffffffff8111156140a557600080fd5b8301601f810185136140b657600080fd5b80516140c4613a4782613a02565b81815260059190911b820183019083810190878311156140e357600080fd5b928401925b8284101561347f578351825292840192908401906140e8565b85815284602082015260a06040820152600061412060a0830186613cb8565b6001600160a01b0394909416606083015250608001529392505050565b602081526000825160a0602084015261415960c08401826136de565b905060018060a01b0360208501511660408401526040840151606084015260608401516080840152608084015160a08401528091505092915050565b6080815260006141a86080830187613cb8565b60208301959095525060408101929092526001600160a01b0316606090910152919050565b600082516141df8184602087016136b2565b9190910192915050565b6020815260006105ff60208301846136de56fea2646970667358221220313e385f952ce3594cddf4099f6d7a2a6455caca16862167a4b643f427b4ce1d64736f6c63430008090033",
  "devdoc": {
    "kind": "dev",
    "methods": {
      "checkUpkeep(bytes)": {
        "details": "To ensure that it is never called, you may want to add the cannotExecute modifier from KeeperBase to your implementation of this method.",
        "params": {
          "checkData": "specified in the upkeep registration so it is always the same for a registered upkeep. This can easilly be broken down into specific arguments using `abi.decode`, so multiple upkeeps can be registered on the same contract and easily differentiated by the contract."
        },
        "returns": {
          "performData": "bytes that the keeper should call performUpkeep with, if upkeep is needed. If you would like to encode data to decode later, try `abi.encode`.",
          "upkeepNeeded": "boolean to indicate whether the keeper should call performUpkeep or not."
        }
      },
      "constructor": {
        "custom:oz-upgrades-unsafe-allow": "constructor"
      },
      "owner()": {
        "details": "Returns the address of the current owner."
      },
      "paused()": {
        "details": "Returns true if the contract is paused, and false otherwise."
      },
      "performUpkeep(bytes)": {
        "details": "The input to this method should not be trusted, and the caller of the method should not even be restricted to any single registry. Anyone should be able call it, and the input should be validated, there is no guarantee that the data passed in is the performData returned from checkUpkeep. This could happen due to malicious keepers, racing keepers, or simply a state change while the performUpkeep transaction is waiting for confirmation. Always validate the data passed in.",
        "params": {
          "performData": "is the data which was passed back from the checkData simulation. If it is encoded, it can easily be decoded into other types by calling `abi.decode`. This data should not be trusted, and should be validated against the contract's current state."
        }
      },
      "renounceOwnership()": {
        "details": "Leaves the contract without owner. It will not be possible to call `onlyOwner` functions anymore. Can only be called by the current owner. NOTE: Renouncing ownership will leave the contract without an owner, thereby removing any functionality that is only available to the owner."
      },
      "transferOwnership(address)": {
        "details": "Transfers ownership of the contract to a new account (`newOwner`). Can only be called by the current owner."
      }
    },
    "stateVariables": {
      "assetsMerkleRoot": {
        "details": "merkle root of allowed assets definitions. "
      },
      "blacklistedAssetspecs": {
        "details": "map of assetSpecs that are deemed unsafe and any active DCA to them will be canceled "
      },
      "caskDCA": {
        "details": "Pointer to CaskDCA contract "
      },
      "caskVault": {
        "details": "vault to use for DCA funding. "
      },
      "dcaFeeBps": {
        "details": "DCA transaction fee in basis points. "
      },
      "dcaFeeMin": {
        "details": "Minimum DCA transaction fee. "
      },
      "dcaMinValue": {
        "details": "Smallest allowable DCA amount. "
      },
      "feeDistributor": {
        "details": "Address to receive DCA fees. "
      },
      "maxPriceFeedAge": {
        "details": "revert if price feed age is older than this number of seconds. set to 0 to disable check. "
      },
      "maxSkips": {
        "details": "max number of failed DCA purchases before DCA is permanently canceled. "
      }
    },
    "version": 1
  },
  "userdoc": {
    "kind": "user",
    "methods": {
      "checkUpkeep(bytes)": {
        "notice": "method that is simulated by the keepers to see if any work actually needs to be performed. This method does does not actually need to be executable, and since it is only ever simulated it can consume lots of gas."
      },
      "performUpkeep(bytes)": {
        "notice": "method that is actually executed by the keepers, via the registry. The data returned by the checkUpkeep simulation will be passed into this method to actually be executed."
      }
    },
    "version": 1
  },
  "storageLayout": {
    "storage": [
      {
        "astId": 327,
        "contract": "contracts/dca/CaskDCAManager.sol:CaskDCAManager",
        "label": "_initialized",
        "offset": 0,
        "slot": "0",
        "type": "t_bool"
      },
      {
        "astId": 330,
        "contract": "contracts/dca/CaskDCAManager.sol:CaskDCAManager",
        "label": "_initializing",
        "offset": 1,
        "slot": "0",
        "type": "t_bool"
      },
      {
        "astId": 2551,
        "contract": "contracts/dca/CaskDCAManager.sol:CaskDCAManager",
        "label": "__gap",
        "offset": 0,
        "slot": "1",
        "type": "t_array(t_uint256)50_storage"
      },
      {
        "astId": 205,
        "contract": "contracts/dca/CaskDCAManager.sol:CaskDCAManager",
        "label": "_owner",
        "offset": 0,
        "slot": "51",
        "type": "t_address"
      },
      {
        "astId": 319,
        "contract": "contracts/dca/CaskDCAManager.sol:CaskDCAManager",
        "label": "__gap",
        "offset": 0,
        "slot": "52",
        "type": "t_array(t_uint256)49_storage"
      },
      {
        "astId": 415,
        "contract": "contracts/dca/CaskDCAManager.sol:CaskDCAManager",
        "label": "_paused",
        "offset": 0,
        "slot": "101",
        "type": "t_bool"
      },
      {
        "astId": 506,
        "contract": "contracts/dca/CaskDCAManager.sol:CaskDCAManager",
        "label": "__gap",
        "offset": 0,
        "slot": "102",
        "type": "t_array(t_uint256)49_storage"
      },
      {
        "astId": 521,
        "contract": "contracts/dca/CaskDCAManager.sol:CaskDCAManager",
        "label": "_status",
        "offset": 0,
        "slot": "151",
        "type": "t_uint256"
      },
      {
        "astId": 564,
        "contract": "contracts/dca/CaskDCAManager.sol:CaskDCAManager",
        "label": "__gap",
        "offset": 0,
        "slot": "152",
        "type": "t_array(t_uint256)49_storage"
      },
      {
        "astId": 14428,
        "contract": "contracts/dca/CaskDCAManager.sol:CaskDCAManager",
        "label": "queueBucketSize",
        "offset": 0,
        "slot": "201",
        "type": "t_uint32"
      },
      {
        "astId": 14431,
        "contract": "contracts/dca/CaskDCAManager.sol:CaskDCAManager",
        "label": "maxQueueAge",
        "offset": 4,
        "slot": "201",
        "type": "t_uint32"
      },
      {
        "astId": 14439,
        "contract": "contracts/dca/CaskDCAManager.sol:CaskDCAManager",
        "label": "queue",
        "offset": 0,
        "slot": "202",
        "type": "t_mapping(t_uint8,t_mapping(t_uint32,t_array(t_bytes32)dyn_storage))"
      },
      {
        "astId": 14443,
        "contract": "contracts/dca/CaskDCAManager.sol:CaskDCAManager",
        "label": "queueBucket",
        "offset": 0,
        "slot": "203",
        "type": "t_mapping(t_uint8,t_uint32)"
      },
      {
        "astId": 11236,
        "contract": "contracts/dca/CaskDCAManager.sol:CaskDCAManager",
        "label": "caskDCA",
        "offset": 0,
        "slot": "204",
        "type": "t_contract(ICaskDCA)13116"
      },
      {
        "astId": 11240,
        "contract": "contracts/dca/CaskDCAManager.sol:CaskDCAManager",
        "label": "caskVault",
        "offset": 0,
        "slot": "205",
        "type": "t_contract(ICaskVault)14405"
      },
      {
        "astId": 11243,
        "contract": "contracts/dca/CaskDCAManager.sol:CaskDCAManager",
        "label": "assetsMerkleRoot",
        "offset": 0,
        "slot": "206",
        "type": "t_bytes32"
      },
      {
        "astId": 11248,
        "contract": "contracts/dca/CaskDCAManager.sol:CaskDCAManager",
        "label": "blacklistedAssetspecs",
        "offset": 0,
        "slot": "207",
        "type": "t_mapping(t_bytes32,t_bool)"
      },
      {
        "astId": 11251,
        "contract": "contracts/dca/CaskDCAManager.sol:CaskDCAManager",
        "label": "maxSkips",
        "offset": 0,
        "slot": "208",
        "type": "t_uint256"
      },
      {
        "astId": 11254,
        "contract": "contracts/dca/CaskDCAManager.sol:CaskDCAManager",
        "label": "dcaFeeBps",
        "offset": 0,
        "slot": "209",
        "type": "t_uint256"
      },
      {
        "astId": 11257,
        "contract": "contracts/dca/CaskDCAManager.sol:CaskDCAManager",
        "label": "dcaFeeMin",
        "offset": 0,
        "slot": "210",
        "type": "t_uint256"
      },
      {
        "astId": 11260,
        "contract": "contracts/dca/CaskDCAManager.sol:CaskDCAManager",
        "label": "dcaMinValue",
        "offset": 0,
        "slot": "211",
        "type": "t_uint256"
      },
      {
        "astId": 11263,
        "contract": "contracts/dca/CaskDCAManager.sol:CaskDCAManager",
        "label": "maxPriceFeedAge",
        "offset": 0,
        "slot": "212",
        "type": "t_uint256"
      },
      {
        "astId": 11266,
        "contract": "contracts/dca/CaskDCAManager.sol:CaskDCAManager",
        "label": "feeDistributor",
        "offset": 0,
        "slot": "213",
        "type": "t_address"
      }
    ],
    "types": {
      "t_address": {
        "encoding": "inplace",
        "label": "address",
        "numberOfBytes": "20"
      },
      "t_array(t_bytes32)dyn_storage": {
        "base": "t_bytes32",
        "encoding": "dynamic_array",
        "label": "bytes32[]",
        "numberOfBytes": "32"
      },
      "t_array(t_uint256)49_storage": {
        "base": "t_uint256",
        "encoding": "inplace",
        "label": "uint256[49]",
        "numberOfBytes": "1568"
      },
      "t_array(t_uint256)50_storage": {
        "base": "t_uint256",
        "encoding": "inplace",
        "label": "uint256[50]",
        "numberOfBytes": "1600"
      },
      "t_bool": {
        "encoding": "inplace",
        "label": "bool",
        "numberOfBytes": "1"
      },
      "t_bytes32": {
        "encoding": "inplace",
        "label": "bytes32",
        "numberOfBytes": "32"
      },
      "t_contract(ICaskDCA)13116": {
        "encoding": "inplace",
        "label": "contract ICaskDCA",
        "numberOfBytes": "20"
      },
      "t_contract(ICaskVault)14405": {
        "encoding": "inplace",
        "label": "contract ICaskVault",
        "numberOfBytes": "20"
      },
      "t_mapping(t_bytes32,t_bool)": {
        "encoding": "mapping",
        "key": "t_bytes32",
        "label": "mapping(bytes32 => bool)",
        "numberOfBytes": "32",
        "value": "t_bool"
      },
      "t_mapping(t_uint32,t_array(t_bytes32)dyn_storage)": {
        "encoding": "mapping",
        "key": "t_uint32",
        "label": "mapping(uint32 => bytes32[])",
        "numberOfBytes": "32",
        "value": "t_array(t_bytes32)dyn_storage"
      },
      "t_mapping(t_uint8,t_mapping(t_uint32,t_array(t_bytes32)dyn_storage))": {
        "encoding": "mapping",
        "key": "t_uint8",
        "label": "mapping(uint8 => mapping(uint32 => bytes32[]))",
        "numberOfBytes": "32",
        "value": "t_mapping(t_uint32,t_array(t_bytes32)dyn_storage)"
      },
      "t_mapping(t_uint8,t_uint32)": {
        "encoding": "mapping",
        "key": "t_uint8",
        "label": "mapping(uint8 => uint32)",
        "numberOfBytes": "32",
        "value": "t_uint32"
      },
      "t_uint256": {
        "encoding": "inplace",
        "label": "uint256",
        "numberOfBytes": "32"
      },
      "t_uint32": {
        "encoding": "inplace",
        "label": "uint32",
        "numberOfBytes": "4"
      },
      "t_uint8": {
        "encoding": "inplace",
        "label": "uint8",
        "numberOfBytes": "1"
      }
    }
  }
}