{
  "address": "0xC00E342Fe9f35F73bcF57C466C1e1108816de966",
  "abi": [
    {
      "inputs": [],
      "stateMutability": "nonpayable",
      "type": "constructor"
    },
    {
      "anonymous": false,
      "inputs": [
        {
          "indexed": true,
          "internalType": "address",
          "name": "previousOwner",
          "type": "address"
        },
        {
          "indexed": true,
          "internalType": "address",
          "name": "newOwner",
          "type": "address"
        }
      ],
      "name": "OwnershipTransferred",
      "type": "event"
    },
    {
      "anonymous": false,
      "inputs": [
        {
          "indexed": false,
          "internalType": "address",
          "name": "account",
          "type": "address"
        }
      ],
      "name": "Paused",
      "type": "event"
    },
    {
      "anonymous": false,
      "inputs": [
        {
          "indexed": false,
          "internalType": "uint256",
          "name": "limit",
          "type": "uint256"
        },
        {
          "indexed": false,
          "internalType": "uint256",
          "name": "renewals",
          "type": "uint256"
        },
        {
          "indexed": false,
          "internalType": "uint256",
          "name": "depth",
          "type": "uint256"
        },
        {
          "indexed": false,
          "internalType": "enum ICaskSubscriptionManager.CheckType",
          "name": "checkType",
          "type": "uint8"
        },
        {
          "indexed": false,
          "internalType": "uint256",
          "name": "queueRemaining",
          "type": "uint256"
        },
        {
          "indexed": false,
          "internalType": "uint32",
          "name": "currentBucket",
          "type": "uint32"
        }
      ],
      "name": "SubscriptionManagerReport",
      "type": "event"
    },
    {
      "anonymous": false,
      "inputs": [
        {
          "indexed": false,
          "internalType": "address",
          "name": "account",
          "type": "address"
        }
      ],
      "name": "Unpaused",
      "type": "event"
    },
    {
      "inputs": [
        {
          "internalType": "bytes",
          "name": "checkData",
          "type": "bytes"
        }
      ],
      "name": "checkUpkeep",
      "outputs": [
        {
          "internalType": "bool",
          "name": "upkeepNeeded",
          "type": "bool"
        },
        {
          "internalType": "bytes",
          "name": "performData",
          "type": "bytes"
        }
      ],
      "stateMutability": "view",
      "type": "function"
    },
    {
      "inputs": [
        {
          "internalType": "address",
          "name": "_vault",
          "type": "address"
        },
        {
          "internalType": "address",
          "name": "_subscriptionPlans",
          "type": "address"
        },
        {
          "internalType": "address",
          "name": "_subscriptions",
          "type": "address"
        }
      ],
      "name": "initialize",
      "outputs": [],
      "stateMutability": "nonpayable",
      "type": "function"
    },
    {
      "inputs": [],
      "name": "owner",
      "outputs": [
        {
          "internalType": "address",
          "name": "",
          "type": "address"
        }
      ],
      "stateMutability": "view",
      "type": "function"
    },
    {
      "inputs": [],
      "name": "pause",
      "outputs": [],
      "stateMutability": "nonpayable",
      "type": "function"
    },
    {
      "inputs": [],
      "name": "paused",
      "outputs": [
        {
          "internalType": "bool",
          "name": "",
          "type": "bool"
        }
      ],
      "stateMutability": "view",
      "type": "function"
    },
    {
      "inputs": [],
      "name": "paymentFeeMin",
      "outputs": [
        {
          "internalType": "uint256",
          "name": "",
          "type": "uint256"
        }
      ],
      "stateMutability": "view",
      "type": "function"
    },
    {
      "inputs": [],
      "name": "paymentFeeRateMax",
      "outputs": [
        {
          "internalType": "uint256",
          "name": "",
          "type": "uint256"
        }
      ],
      "stateMutability": "view",
      "type": "function"
    },
    {
      "inputs": [],
      "name": "paymentFeeRateMin",
      "outputs": [
        {
          "internalType": "uint256",
          "name": "",
          "type": "uint256"
        }
      ],
      "stateMutability": "view",
      "type": "function"
    },
    {
      "inputs": [
        {
          "internalType": "bytes",
          "name": "performData",
          "type": "bytes"
        }
      ],
      "name": "performUpkeep",
      "outputs": [],
      "stateMutability": "nonpayable",
      "type": "function"
    },
    {
      "inputs": [],
      "name": "processBucketSize",
      "outputs": [
        {
          "internalType": "uint32",
          "name": "",
          "type": "uint32"
        }
      ],
      "stateMutability": "view",
      "type": "function"
    },
    {
      "inputs": [
        {
          "internalType": "address",
          "name": "_consumer",
          "type": "address"
        },
        {
          "internalType": "address",
          "name": "_provider",
          "type": "address"
        },
        {
          "internalType": "uint256",
          "name": "_subscriptionId",
          "type": "uint256"
        },
        {
          "internalType": "uint256",
          "name": "_value",
          "type": "uint256"
        }
      ],
      "name": "processSinglePayment",
      "outputs": [],
      "stateMutability": "nonpayable",
      "type": "function"
    },
    {
      "inputs": [
        {
          "internalType": "enum ICaskSubscriptionManager.CheckType",
          "name": "_checkType",
          "type": "uint8"
        },
        {
          "internalType": "uint32",
          "name": "_bucket",
          "type": "uint32"
        },
        {
          "internalType": "uint256",
          "name": "_idx",
          "type": "uint256"
        }
      ],
      "name": "queueItem",
      "outputs": [
        {
          "internalType": "uint256",
          "name": "",
          "type": "uint256"
        }
      ],
      "stateMutability": "view",
      "type": "function"
    },
    {
      "inputs": [
        {
          "internalType": "enum ICaskSubscriptionManager.CheckType",
          "name": "_checkType",
          "type": "uint8"
        }
      ],
      "name": "queuePosition",
      "outputs": [
        {
          "internalType": "uint32",
          "name": "",
          "type": "uint32"
        }
      ],
      "stateMutability": "view",
      "type": "function"
    },
    {
      "inputs": [
        {
          "internalType": "enum ICaskSubscriptionManager.CheckType",
          "name": "_checkType",
          "type": "uint8"
        },
        {
          "internalType": "uint32",
          "name": "_bucket",
          "type": "uint32"
        }
      ],
      "name": "queueSize",
      "outputs": [
        {
          "internalType": "uint256",
          "name": "",
          "type": "uint256"
        }
      ],
      "stateMutability": "view",
      "type": "function"
    },
    {
      "inputs": [
        {
          "internalType": "uint256",
          "name": "_subscriptionId",
          "type": "uint256"
        }
      ],
      "name": "renewSubscription",
      "outputs": [],
      "stateMutability": "nonpayable",
      "type": "function"
    },
    {
      "inputs": [],
      "name": "renounceOwnership",
      "outputs": [],
      "stateMutability": "nonpayable",
      "type": "function"
    },
    {
      "inputs": [
        {
          "internalType": "uint256",
          "name": "_paymentFeeMin",
          "type": "uint256"
        },
        {
          "internalType": "uint256",
          "name": "_paymentFeeRateMin",
          "type": "uint256"
        },
        {
          "internalType": "uint256",
          "name": "_paymentFeeRateMax",
          "type": "uint256"
        },
        {
          "internalType": "uint256",
          "name": "_stakeTargetFactor",
          "type": "uint256"
        },
        {
          "internalType": "uint32",
          "name": "_processBucketSize",
          "type": "uint32"
        }
      ],
      "name": "setParameters",
      "outputs": [],
      "stateMutability": "nonpayable",
      "type": "function"
    },
    {
      "inputs": [
        {
          "internalType": "enum ICaskSubscriptionManager.CheckType",
          "name": "_checkType",
          "type": "uint8"
        },
        {
          "internalType": "uint32",
          "name": "_timestamp",
          "type": "uint32"
        }
      ],
      "name": "setProcessingBucket",
      "outputs": [],
      "stateMutability": "nonpayable",
      "type": "function"
    },
    {
      "inputs": [],
      "name": "stakeTargetFactor",
      "outputs": [
        {
          "internalType": "uint256",
          "name": "",
          "type": "uint256"
        }
      ],
      "stateMutability": "view",
      "type": "function"
    },
    {
      "inputs": [],
      "name": "subscriptionPlans",
      "outputs": [
        {
          "internalType": "contract ICaskSubscriptionPlans",
          "name": "",
          "type": "address"
        }
      ],
      "stateMutability": "view",
      "type": "function"
    },
    {
      "inputs": [],
      "name": "subscriptions",
      "outputs": [
        {
          "internalType": "contract ICaskSubscriptions",
          "name": "",
          "type": "address"
        }
      ],
      "stateMutability": "view",
      "type": "function"
    },
    {
      "inputs": [
        {
          "internalType": "address",
          "name": "newOwner",
          "type": "address"
        }
      ],
      "name": "transferOwnership",
      "outputs": [],
      "stateMutability": "nonpayable",
      "type": "function"
    },
    {
      "inputs": [],
      "name": "unpause",
      "outputs": [],
      "stateMutability": "nonpayable",
      "type": "function"
    },
    {
      "inputs": [],
      "name": "vault",
      "outputs": [
        {
          "internalType": "contract ICaskVault",
          "name": "",
          "type": "address"
        }
      ],
      "stateMutability": "view",
      "type": "function"
    }
  ],
  "transactionHash": "0x49452e1928374ec9d8f29add842ecf4b6e927a105aa2e9fa3b0cb80157ee2694",
  "args": [],
  "numDeployments": 2,
  "solcInputHash": "c276bc92099fcbb92367a1ba0ee8e6a6",
  "bytecode": "0x60806040523480156200001157600080fd5b50600054610100900460ff166200002f5760005460ff161562000039565b62000039620000de565b620000a15760405162461bcd60e51b815260206004820152602e60248201527f496e697469616c697a61626c653a20636f6e747261637420697320616c72656160448201526d191e481a5b9a5d1a585b1a5e995960921b606482015260840160405180910390fd5b600054610100900460ff16158015620000c4576000805461ffff19166101011790555b8015620000d7576000805461ff00191690555b5062000102565b6000620000f630620000fc60201b620010be1760201c565b15905090565b3b151590565b612d2980620001126000396000f3fe608060405234801561001057600080fd5b50600436106101585760003560e01c80638fe17b16116100c3578063c0c53b8b1161007c578063c0c53b8b146102be578063c54c58c4146102d1578063c83cbe89146102e4578063d71bb37b146102ed578063f2fde38b14610300578063fbfa77cf1461031357600080fd5b80638fe17b161461025957806393357f581461026c578063a76d67b81461027c578063aa878f761461028f578063b8e381e5146102a2578063badf4b3e146102b557600080fd5b80635c975abb116101155780635c975abb146101da5780636e04ff0d146101f05780637040cbb114610211578063715018a6146102245780638456cb591461022c5780638da5cb5b1461023457600080fd5b806308e27a991461015d57806314fad707146101795780631c39033c1461018c578063219e24c5146101b45780633f4ba83a146101bd5780634585e33b146101c7575b600080fd5b610166609d5481565b6040519081526020015b60405180910390f35b6101666101873660046123f4565b610326565b61019f61019a366004612435565b61039f565b60405163ffffffff9091168152602001610170565b610166609b5481565b6101c56103e5565b005b6101c56101d5366004612459565b610422565b60655460ff166040519015158152602001610170565b6102036101fe366004612459565b61096d565b6040516101709291906124f7565b6101c561021f366004612533565b610b71565b6101c5610c98565b6101c5610ccc565b6033546001600160a01b03165b6040516001600160a01b039091168152602001610170565b609754610241906001600160a01b031681565b609e5461019f9063ffffffff1681565b6101c561028a366004612580565b610cfe565b61016661029d366004612580565b610d88565b609854610241906001600160a01b031681565b610166609c5481565b6101c56102cc3660046125ce565b610ddd565b6101c56102df366004612619565b610fa0565b610166609a5481565b6101c56102fb36600461265f565b610ff7565b6101c561030e366004612678565b611026565b609954610241906001600160a01b031681565b6000609f600085600281111561033e5761033e612695565b600281111561034f5761034f612695565b815260200190815260200160002060008463ffffffff1663ffffffff168152602001908152602001600020828154811061038b5761038b6126ab565b906000526020600020015490509392505050565b600060a060008360028111156103b7576103b7612695565b60028111156103c8576103c8612695565b815260208101919091526040016000205463ffffffff1692915050565b6033546001600160a01b031633146104185760405162461bcd60e51b815260040161040f906126c1565b60405180910390fd5b6104206110c4565b565b60655460ff16156104455760405162461bcd60e51b815260040161040f906126f6565b6000808061045584860186612720565b9250925092506000610465611157565b9050600080610475866005612764565b905060a0600085600281111561048d5761048d612695565b600281111561049e5761049e612695565b815260208101919091526040016000205463ffffffff1661050e578260a060008660028111156104d0576104d0612695565b60028111156104e1576104e1612695565b815260200190815260200160002060006101000a81548163ffffffff021916908363ffffffff1602179055505b858210801561051d5750600081115b801561056c57508263ffffffff1660a0600086600281111561054157610541612695565b600281111561055257610552612695565b815260208101919091526040016000205463ffffffff1611155b1561085d576000609f600086600281111561058957610589612695565b600281111561059a5761059a612695565b8152602001908152602001600020600060a060008860028111156105c0576105c0612695565b60028111156105d1576105d1612695565b8152602080820192909252604090810160009081205463ffffffff1684529183019390935291019020549050801561077c576000609f600087600281111561061b5761061b612695565b600281111561062c5761062c612695565b8152602001908152602001600020600060a0600089600281111561065257610652612695565b600281111561066357610663612695565b8152602080820192909252604090810160009081205463ffffffff1684529183019390935291019020610697600184612783565b815481106106a7576106a76126ab565b90600052602060002001549050609f60008760028111156106ca576106ca612695565b60028111156106db576106db612695565b8152602001908152602001600020600060a0600089600281111561070157610701612695565b600281111561071257610712612695565b8152602080820192909252604090810160009081205463ffffffff168452918301939093529101902080548061074a5761074a61279a565b600190038181906000526020600020016000905590556107698161117f565b6107746001856127b0565b935050610857565b8363ffffffff1660a0600087600281111561079957610799612695565b60028111156107aa576107aa612695565b815260208101919091526040016000205463ffffffff16101561085157609e5463ffffffff1660a060008760028111156107e6576107e6612695565b60028111156107f7576107f7612695565b815260208101919091526040016000908120805490919061081f90849063ffffffff166127c8565b92506101000a81548163ffffffff021916908363ffffffff16021790555060018261084a9190612783565b9150610857565b5061085d565b5061050e565b7f75a64c7d044cacf7f5733a40d9f770446e4a977483bf14d9e58752255a62785386838787609f60008a600281111561089857610898612695565b60028111156108a9576108a9612695565b8152602001908152602001600020600060a060008c60028111156108cf576108cf612695565b60028111156108e0576108e0612695565b8152602080820192909252604090810160009081205463ffffffff1684529183019390935291018120549060a0908b600281111561092057610920612695565b600281111561093157610931612695565b81526020810191909152604090810160002054905161095b96959493929163ffffffff1690612804565b60405180910390a15050505050505050565b6000606081808061098086880188612720565b9250925092506000610990611157565b905060009550600060a060008460028111156109ae576109ae612695565b60028111156109bf576109bf612695565b815260208101919091526040016000205463ffffffff169050806109e05750805b8063ffffffff168263ffffffff1610158015610a0c5750610e10610a048284612843565b63ffffffff16115b15610a1a5760019650610af9565b8163ffffffff168163ffffffff1611610af9576000609f6000856002811115610a4557610a45612695565b6002811115610a5657610a56612695565b81526020808201929092526040908101600090812063ffffffff86168252909252902054118015610ad1575083609f6000856002811115610a9957610a99612695565b6002811115610aaa57610aaa612695565b81526020808201929092526040908101600090812063ffffffff8616825290925290205410155b15610adf5760019650610af9565b609e54610af29063ffffffff16826127c8565b9050610a1a565b84609f6000856002811115610b1057610b10612695565b6002811115610b2157610b21612695565b81526020808201929092526040908101600090812063ffffffff861682528352819020549051610b549392879101612868565b604051602081830303815290604052955050505050509250929050565b6033546001600160a01b03163314610b9b5760405162461bcd60e51b815260040161040f906126c1565b609a859055609b849055609c839055609d829055609e805463ffffffff191663ffffffff8316179055610bfb60a0600060015b6002811115610bdf57610bdf612695565b815260208101919091526040016000205463ffffffff16611c81565b6001600090815260a060208190527f5e4aa62fc514c001129aba2f8cfdadfdbf7b1cca3faf4a1fee3af14b1315f0dd805463ffffffff191663ffffffff9490941693909317909255610c4f91906002610bce565b600260005260a06020527e3e94880a29ff53e6a8208a04e96e212c12922b7bda6b10d8c1979e9844e678805463ffffffff191663ffffffff929092169190911790555050505050565b6033546001600160a01b03163314610cc25760405162461bcd60e51b815260040161040f906126c1565b6104206000611cb1565b6033546001600160a01b03163314610cf65760405162461bcd60e51b815260040161040f906126c1565b610420611d03565b6033546001600160a01b03163314610d285760405162461bcd60e51b815260040161040f906126c1565b610d3181611c81565b60a06000846002811115610d4757610d47612695565b6002811115610d5857610d58612695565b815260200190815260200160002060006101000a81548163ffffffff021916908363ffffffff1602179055505050565b6000609f6000846002811115610da057610da0612695565b6002811115610db157610db1612695565b81526020808201929092526040908101600090812063ffffffff86168252909252902054905092915050565b600054610100900460ff16610df85760005460ff1615610dfc565b303b155b610e5f5760405162461bcd60e51b815260206004820152602e60248201527f496e697469616c697a61626c653a20636f6e747261637420697320616c72656160448201526d191e481a5b9a5d1a585b1a5e995960921b606482015260840161040f565b600054610100900460ff16158015610e81576000805461ffff19166101011790555b610e89611d5b565b610e91611d92565b609780546001600160a01b038086166001600160a01b0319928316179092556098805485841690831617905560998054928716929091169190911790556000609a819055609b819055609c819055609d55609e805463ffffffff191661012c179055610efb611157565b600160005260a06020527f5e4aa62fc514c001129aba2f8cfdadfdbf7b1cca3faf4a1fee3af14b1315f0dd805463ffffffff191663ffffffff92909216919091179055610f46611157565b600260005260a06020527e3e94880a29ff53e6a8208a04e96e212c12922b7bda6b10d8c1979e9844e678805463ffffffff191663ffffffff929092169190911790558015610f9a576000805461ff00191690555b50505050565b6098546001600160a01b0316336001600160a01b031614610feb5760405162461bcd60e51b815260206004820152600560248201526404282aaa8960db1b604482015260640161040f565b610f9a84848484611dc9565b60655460ff161561101a5760405162461bcd60e51b815260040161040f906126f6565b6110238161117f565b50565b6033546001600160a01b031633146110505760405162461bcd60e51b815260040161040f906126c1565b6001600160a01b0381166110b55760405162461bcd60e51b815260206004820152602660248201527f4f776e61626c653a206e6577206f776e657220697320746865207a65726f206160448201526564647265737360d01b606482015260840161040f565b61102381611cb1565b3b151590565b60655460ff1661110d5760405162461bcd60e51b815260206004820152601460248201527314185d5cd8589b194e881b9bdd081c185d5cd95960621b604482015260640161040f565b6065805460ff191690557f5db9ee0a495bf2e6ff9c91a7834c1ba4fdd244a5e8aa4e537bd38aeae4b073aa335b6040516001600160a01b03909116815260200160405180910390a1565b609e54600090429061116f9063ffffffff16826128a1565b6111799082612843565b91505090565b60985460405163dc311dd360e01b81526004810183905260009182916001600160a01b039091169063dc311dd39060240160006040518083038186803b1580156111c857600080fd5b505afa1580156111dc573d6000803e3d6000fd5b505050506040513d6000823e601f3d908101601f1916820160405261120491908101906129b6565b90925090504260038360c00151600581111561122257611222612695565b141561122e5750505050565b8063ffffffff1683610120015163ffffffff1611156112b65760016000908152609f6020526101208401517fd8ebc4b3e3fc84fb7267bc9651f22e5107e8b4ddef6b7d4ac503c1ca7368470b919061128590611c81565b63ffffffff168152602080820192909252604001600090812080546001810182559082529190200193909355505050565b600083610160015163ffffffff161180156112e257508063ffffffff1683610160015163ffffffff1611155b806114475750600260975460a085015160e086015160405163b6ab359f60e01b81526001600160a01b03928316600482015263ffffffff909116602482015291169063b6ab359f9060440160206040518083038186803b15801561134557600080fd5b505afa158015611359573d6000803e3d6000fd5b505050506040513d601f19601f8201168201806040525081019061137d9190612b0c565b600281111561138e5761138e612695565b148015611447575060975460a084015160e085015160405163025b687560e01b815263ffffffff8516936001600160a01b03169263025b6875926113ee926004016001600160a01b0392909216825263ffffffff16602082015260400190565b60206040518083038186803b15801561140657600080fd5b505afa15801561141a573d6000803e3d6000fd5b505050506040513d601f19601f8201168201806040525081019061143e9190612b29565b63ffffffff1611155b156114b757609854604051633efbd95560e11b81526001600160a01b0390911690637df7b2aa9061147f908790600290600401612b46565b600060405180830381600087803b15801561149957600080fd5b505af11580156114ad573d6000803e3d6000fd5b5050505050505050565b60985460405163321b9a5560e21b8152600481018690526000916001600160a01b03169063c86e69549060240160206040518083038186803b1580156114fc57600080fd5b505afa158015611510573d6000803e3d6000fd5b505050506040513d601f19601f820116820180604052508101906115349190612b6a565b111561162357609854604051633efbd95560e11b81526001600160a01b0390911690637df7b2aa9061156d908790600190600401612b46565b600060405180830381600087803b15801561158757600080fd5b505af115801561159b573d6000803e3d6000fd5b505060985460405163dc311dd360e01b8152600481018890526001600160a01b03909116925063dc311dd3915060240160006040518083038186803b1580156115e357600080fd5b505afa1580156115f7573d6000803e3d6000fd5b505050506040513d6000823e601f3d908101601f1916820160405261161f91908101906129b6565b5092505b600061163284600001516120e7565b8051604086015191925090156117f15760006116f886606001516040805160e081018252600080825260208201819052918101829052606081018290526080810182905260a0810182905260c0810191909152506040805160e08101825260a083811c825263ffffffff608085811c8216602080860191909152606087811c8416868801529587901c8316958501959095529385901c169282019290925261ffff601084901c1691810191909152600160f01b60f09290921b821690911460c082015290565b90508060a0015161ffff166000148061174357508363ffffffff168160a0015161ffff16846040015161172b9190612b83565b87610100015161173b91906127c8565b63ffffffff16105b15611789578060c001511561176557805161175e9083612783565b91506117ef565b8051612710906117759084612764565b61177f9190612baf565b61175e9083612783565b609854604051633efbd95560e11b81526001600160a01b0390911690637df7b2aa906117bc908a90600590600401612b46565b600060405180830381600087803b1580156117d657600080fd5b505af11580156117ea573d6000803e3d6000fd5b505050505b505b60008111801561187b575060995460405163597435cb60e01b81526001600160a01b0386811660048301528392169063597435cb9060240160206040518083038186803b15801561184157600080fd5b505afa158015611855573d6000803e3d6000fd5b505050506040513d601f19601f820116820180604052508101906118799190612b6a565b105b15611a535760c08201516118959060ff1662015180612bc3565b6118a49062ffffff1684612843565b63ffffffff1685610120015163ffffffff16101561192657609854604051633efbd95560e11b81526001600160a01b0390911690637df7b2aa906118ef908990600290600401612b46565b600060405180830381600087803b15801561190957600080fd5b505af115801561191d573d6000803e3d6000fd5b50505050611c79565b60058560c00151600581111561193e5761193e612695565b146119e65760026000908152609f6020527f95684aba87c7afc0cb0825ce802e59a0c43a91e65441705f8ec2d377a306a58790611985611980866138406127c8565b611c81565b63ffffffff1681526020808201929092526040908101600090812080546001810182559082529290209091018790556098549051633efbd95560e11b81526001600160a01b0390911690637df7b2aa906118ef908990600390600401612b46565b60026000908152609f6020527f95684aba87c7afc0cb0825ce802e59a0c43a91e65441705f8ec2d377a306a58790611a23611980866138406127c8565b63ffffffff1681526020808201929092526040016000908120805460018101825590825291902001869055611c79565b8015611b9e57611a69848660a001518884611dc9565b8263ffffffff168260400151866101200151611a8591906127c8565b63ffffffff161015611af85760026000908152609f6020527f95684aba87c7afc0cb0825ce802e59a0c43a91e65441705f8ec2d377a306a58790611ac885611c81565b63ffffffff1681526020808201929092526040016000908120805460018101825590825291902001869055611b6c565b60016000908152609f60205260408301516101208701517fd8ebc4b3e3fc84fb7267bc9651f22e5107e8b4ddef6b7d4ac503c1ca7368470b9291611b409161198091906127c8565b63ffffffff16815260208082019290925260400160009081208054600181018255908252919020018690555b609854604051633efbd95560e11b81526001600160a01b0390911690637df7b2aa906118ef9089906004908101612b46565b60016000908152609f60205260408301516101208701517fd8ebc4b3e3fc84fb7267bc9651f22e5107e8b4ddef6b7d4ac503c1ca7368470b9291611be69161198091906127c8565b63ffffffff1681526020808201929092526040908101600090812080546001810182559082529290209091018790556098549051633efbd95560e11b81526001600160a01b0390911690637df7b2aa90611c469089906004908101612b46565b600060405180830381600087803b158015611c6057600080fd5b505af1158015611c74573d6000803e3d6000fd5b505050505b505050505050565b609e5460009063ffffffff16611c9781846128a1565b611ca19084612843565b611cab91906127c8565b92915050565b603380546001600160a01b038381166001600160a01b0319831681179093556040519116919082907f8be0079c531659141344cd1fd0a4f28419497f9722a3daafe3b4186f6b6457e090600090a35050565b60655460ff1615611d265760405162461bcd60e51b815260040161040f906126f6565b6065805460ff191660011790557f62e78cea01bee320cd4e420270b5ea74000d11b0c9f74754ebdbfc544b05a25861113a3390565b600054610100900460ff16611d825760405162461bcd60e51b815260040161040f90612be5565b611d8a6121c2565b6104206121e9565b600054610100900460ff16611db95760405162461bcd60e51b815260040161040f90612be5565b611dc16121c2565b610420612219565b60995460405163597435cb60e01b81526001600160a01b0386811660048301528392169063597435cb9060240160206040518083038186803b158015611e0e57600080fd5b505afa158015611e22573d6000803e3d6000fd5b505050506040513d601f19601f82011682018060405250810190611e469190612b6a565b1015611e7f5760405162461bcd60e51b81526020600482015260086024820152672142414c414e434560c01b604482015260640161040f565b60985460405163dc311dd360e01b8152600481018490526000916001600160a01b03169063dc311dd39060240160006040518083038186803b158015611ec457600080fd5b505afa158015611ed8573d6000803e3d6000fd5b505050506040513d6000823e601f3d908101601f19168201604052611f0091908101906129b6565b50609c54609d54919250901561203f57600080611f2084600001516120e7565b9050811561203c576000620151808260400151611f3d9190612c30565b611f499061016d612c30565b609d5460985460a08801516040516374c1443960e01b81526001600160a01b0391821660048201526000602482018190526044820181905263ffffffff95909516955085939291909116906374c144399060640160206040518083038186803b158015611fb557600080fd5b505afa158015611fc9573d6000803e3d6000fd5b505050506040513d601f19601f82011682018060405250810190611fed9190612b6a565b611ff79190612764565b6120019190612764565b905061200d8185612baf565b609c5461201a9190612764565b609c546120279190612783565b9450609b5485101561203957609b5494505b50505b50505b609754604051630782fb5960e31b81526001600160a01b0387811660048301526000921690633c17dac89060240160006040518083038186803b15801561208557600080fd5b505afa158015612099573d6000803e3d6000fd5b505050506040513d6000823e601f3d908101601f191682016040526120c19190810190612c53565b805190915086906001600160a01b0316156120da575080515b6114ad848983888761224c565b6040805161012081018252600080825260208201819052918101829052606081018290526080810182905260a0810182905260c0810182905260e0810182905261010081019190915250604080516101208101825260a083811c8252608084811c63ffffffff908116602080860191909152606087811c8316868801529587901c8216958501959095529385901c90931692820192909252601083901c61ffff1691810191909152600882901c60ff1660c082015260f89190911b600160f81b8181161460e0830152600160f91b9081161461010082015290565b600054610100900460ff166104205760405162461bcd60e51b815260040161040f90612be5565b600054610100900460ff166122105760405162461bcd60e51b815260040161040f90612be5565b61042033611cb1565b600054610100900460ff166122405760405162461bcd60e51b815260040161040f90612be5565b6065805460ff19169055565b600061271061225b8385612764565b6122659190612baf565b9050609a548110156122765750609a545b60208601511561238d5760006122c2876020015160408051808201909152600080825260208201525060408051808201909152606082901c815260509190911c61ffff16602082015290565b609954815160208301519293506001600160a01b03909116916379b2125f91899189918991889190612710906122fc9061ffff1685612764565b6123069190612baf565b60405160e088901b6001600160e01b03191681526001600160a01b039687166004820152948616602486015260448501939093526064840191909152909216608482015260a481019190915260c401600060405180830381600087803b15801561236f57600080fd5b505af1158015612383573d6000803e3d6000fd5b5050505050611c79565b60995460405163fcd6a25b60e01b81526001600160a01b038781166004830152868116602483015260448201869052606482018490529091169063fcd6a25b90608401611c46565b6003811061102357600080fd5b63ffffffff8116811461102357600080fd5b60008060006060848603121561240957600080fd5b8335612414816123d5565b92506020840135612424816123e2565b929592945050506040919091013590565b60006020828403121561244757600080fd5b8135612452816123d5565b9392505050565b6000806020838503121561246c57600080fd5b823567ffffffffffffffff8082111561248457600080fd5b818501915085601f83011261249857600080fd5b8135818111156124a757600080fd5b8660208285010111156124b957600080fd5b60209290920196919550909350505050565b60005b838110156124e65781810151838201526020016124ce565b83811115610f9a5750506000910152565b8215158152604060208201526000825180604084015261251e8160608501602087016124cb565b601f01601f1916919091016060019392505050565b600080600080600060a0868803121561254b57600080fd5b853594506020860135935060408601359250606086013591506080860135612572816123e2565b809150509295509295909350565b6000806040838503121561259357600080fd5b823561259e816123d5565b915060208301356125ae816123e2565b809150509250929050565b6001600160a01b038116811461102357600080fd5b6000806000606084860312156125e357600080fd5b83356125ee816125b9565b925060208401356125fe816125b9565b9150604084013561260e816125b9565b809150509250925092565b6000806000806080858703121561262f57600080fd5b843561263a816125b9565b9350602085013561264a816125b9565b93969395505050506040820135916060013590565b60006020828403121561267157600080fd5b5035919050565b60006020828403121561268a57600080fd5b8135612452816125b9565b634e487b7160e01b600052602160045260246000fd5b634e487b7160e01b600052603260045260246000fd5b6020808252818101527f4f776e61626c653a2063616c6c6572206973206e6f7420746865206f776e6572604082015260600190565b60208082526010908201526f14185d5cd8589b194e881c185d5cd95960821b604082015260600190565b60008060006060848603121561273557600080fd5b8335925060208401359150604084013561260e816123d5565b634e487b7160e01b600052601160045260246000fd5b600081600019048311821515161561277e5761277e61274e565b500290565b6000828210156127955761279561274e565b500390565b634e487b7160e01b600052603160045260246000fd5b600082198211156127c3576127c361274e565b500190565b600063ffffffff8083168185168083038211156127e7576127e761274e565b01949350505050565b6003811061280057612800612695565b9052565b868152602081018690526040810185905260c0810161282660608301866127f0565b83608083015263ffffffff831660a0830152979650505050505050565b600063ffffffff838116908316818110156128605761286061274e565b039392505050565b838152602081018390526060810161288360408301846127f0565b949350505050565b634e487b7160e01b600052601260045260246000fd5b600063ffffffff808416806128b8576128b861288b565b92169190910692915050565b634e487b7160e01b600052604160045260246000fd5b6040516101c0810167ffffffffffffffff811182821017156128fe576128fe6128c4565b60405290565b805161290f816125b9565b919050565b80516006811061290f57600080fd5b805161290f816123e2565b600082601f83011261293f57600080fd5b815167ffffffffffffffff8082111561295a5761295a6128c4565b604051601f8301601f19908116603f01168101908282118183101715612982576129826128c4565b8160405283815286602085880101111561299b57600080fd5b6129ac8460208301602089016124cb565b9695505050505050565b600080604083850312156129c957600080fd5b825167ffffffffffffffff808211156129e157600080fd5b908401906101c082870312156129f657600080fd5b6129fe6128da565b8251815260208301516020820152604083015160408201526060830151606082015260808301516080820152612a3660a08401612904565b60a0820152612a4760c08401612914565b60c0820152612a5860e08401612923565b60e0820152610100612a6b818501612923565b90820152610120612a7d848201612923565b90820152610140612a8f848201612923565b90820152610160612aa1848201612923565b908201526101808381015183811115612ab957600080fd5b612ac58982870161292e565b8284015250506101a08084015183811115612adf57600080fd5b612aeb8982870161292e565b828401525050809450505050612b0360208401612904565b90509250929050565b600060208284031215612b1e57600080fd5b8151612452816123d5565b600060208284031215612b3b57600080fd5b8151612452816123e2565b8281526040810160068310612b5d57612b5d612695565b8260208301529392505050565b600060208284031215612b7c57600080fd5b5051919050565b600063ffffffff80831681851681830481118215151615612ba657612ba661274e565b02949350505050565b600082612bbe57612bbe61288b565b500490565b600062ffffff80831681851681830481118215151615612ba657612ba661274e565b6020808252602b908201527f496e697469616c697a61626c653a20636f6e7472616374206973206e6f74206960408201526a6e697469616c697a696e6760a81b606082015260800190565b600063ffffffff80841680612c4757612c4761288b565b92169190910492915050565b600060208284031215612c6557600080fd5b815167ffffffffffffffff80821115612c7d57600080fd5b9083019060608286031215612c9157600080fd5b604051606081018181108382111715612cac57612cac6128c4565b6040528251612cba816125b9565b815260208381015190820152604083015182811115612cd857600080fd5b612ce48782860161292e565b6040830152509594505050505056fea2646970667358221220fec0bc7a9f85b690eabd094d9e2fb704ed880514fcec701c315eb06142640fbd64736f6c63430008090033",
  "devdoc": {
    "kind": "dev",
    "methods": {
      "checkUpkeep(bytes)": {
        "details": "To ensure that it is never called, you may want to add the cannotExecute modifier from KeeperBase to your implementation of this method.",
        "params": {
          "checkData": "specified in the upkeep registration so it is always the same for a registered upkeep. This can easilly be broken down into specific arguments using `abi.decode`, so multiple upkeeps can be registered on the same contract and easily differentiated by the contract."
        },
        "returns": {
          "performData": "bytes that the keeper should call performUpkeep with, if upkeep is needed. If you would like to encode data to decode later, try `abi.encode`.",
          "upkeepNeeded": "boolean to indicate whether the keeper should call performUpkeep or not."
        }
      },
      "constructor": {
        "custom:oz-upgrades-unsafe-allow": "constructor"
      },
      "owner()": {
        "details": "Returns the address of the current owner."
      },
      "paused()": {
        "details": "Returns true if the contract is paused, and false otherwise."
      },
      "performUpkeep(bytes)": {
        "details": "The input to this method should not be trusted, and the caller of the method should not even be restricted to any single registry. Anyone should be able call it, and the input should be validated, there is no guarantee that the data passed in is the performData returned from checkUpkeep. This could happen due to malicious keepers, racing keepers, or simply a state change while the performUpkeep transaction is waiting for confirmation. Always validate the data passed in.",
        "params": {
          "performData": "is the data which was passed back from the checkData simulation. If it is encoded, it can easily be decoded into other types by calling `abi.decode`. This data should not be trusted, and should be validated against the contract's current state."
        }
      },
      "renounceOwnership()": {
        "details": "Leaves the contract without owner. It will not be possible to call `onlyOwner` functions anymore. Can only be called by the current owner. NOTE: Renouncing ownership will leave the contract without an owner, thereby removing any functionality that is only available to the owner."
      },
      "transferOwnership(address)": {
        "details": "Transfers ownership of the contract to a new account (`newOwner`). Can only be called by the current owner."
      }
    },
    "stateVariables": {
      "paymentFeeMin": {
        "details": "minimum total fee to charge, if rate fees do not add up to this amount "
      },
      "paymentFeeRateMin": {
        "details": "min and max percentage to charge on payments, in bps. 50% = 5000. "
      },
      "processBucketSize": {
        "details": "size (in seconds) of buckets to group subscriptions into for processing "
      },
      "processQueue": {
        "details": "map used to track when subscriptions need attention next "
      },
      "stakeTargetFactor": {
        "details": "factor used to reduce payment fee based on qty of staked CASK "
      },
      "subscriptionPlans": {
        "details": "contract to manage subscription plan definitions. "
      },
      "vault": {
        "details": "vault to use for payments. "
      }
    },
    "version": 1
  },
  "userdoc": {
    "kind": "user",
    "methods": {
      "checkUpkeep(bytes)": {
        "notice": "method that is simulated by the keepers to see if any work actually needs to be performed. This method does does not actually need to be executable, and since it is only ever simulated it can consume lots of gas."
      },
      "performUpkeep(bytes)": {
        "notice": "method that is actually executed by the keepers, via the registry. The data returned by the checkUpkeep simulation will be passed into this method to actually be executed."
      }
    },
    "version": 1
  },
  "storageLayout": {
    "storage": [
      {
        "astId": 327,
        "contract": "contracts/protocol/CaskSubscriptionManager.sol:CaskSubscriptionManager",
        "label": "_initialized",
        "offset": 0,
        "slot": "0",
        "type": "t_bool"
      },
      {
        "astId": 330,
        "contract": "contracts/protocol/CaskSubscriptionManager.sol:CaskSubscriptionManager",
        "label": "_initializing",
        "offset": 1,
        "slot": "0",
        "type": "t_bool"
      },
      {
        "astId": 2551,
        "contract": "contracts/protocol/CaskSubscriptionManager.sol:CaskSubscriptionManager",
        "label": "__gap",
        "offset": 0,
        "slot": "1",
        "type": "t_array(t_uint256)50_storage"
      },
      {
        "astId": 205,
        "contract": "contracts/protocol/CaskSubscriptionManager.sol:CaskSubscriptionManager",
        "label": "_owner",
        "offset": 0,
        "slot": "51",
        "type": "t_address"
      },
      {
        "astId": 319,
        "contract": "contracts/protocol/CaskSubscriptionManager.sol:CaskSubscriptionManager",
        "label": "__gap",
        "offset": 0,
        "slot": "52",
        "type": "t_array(t_uint256)49_storage"
      },
      {
        "astId": 415,
        "contract": "contracts/protocol/CaskSubscriptionManager.sol:CaskSubscriptionManager",
        "label": "_paused",
        "offset": 0,
        "slot": "101",
        "type": "t_bool"
      },
      {
        "astId": 506,
        "contract": "contracts/protocol/CaskSubscriptionManager.sol:CaskSubscriptionManager",
        "label": "__gap",
        "offset": 0,
        "slot": "102",
        "type": "t_array(t_uint256)49_storage"
      },
      {
        "astId": 8687,
        "contract": "contracts/protocol/CaskSubscriptionManager.sol:CaskSubscriptionManager",
        "label": "subscriptionPlans",
        "offset": 0,
        "slot": "151",
        "type": "t_contract(ICaskSubscriptionPlans)7485"
      },
      {
        "astId": 8690,
        "contract": "contracts/protocol/CaskSubscriptionManager.sol:CaskSubscriptionManager",
        "label": "subscriptions",
        "offset": 0,
        "slot": "152",
        "type": "t_contract(ICaskSubscriptions)7846"
      },
      {
        "astId": 8694,
        "contract": "contracts/protocol/CaskSubscriptionManager.sol:CaskSubscriptionManager",
        "label": "vault",
        "offset": 0,
        "slot": "153",
        "type": "t_contract(ICaskVault)8115"
      },
      {
        "astId": 8697,
        "contract": "contracts/protocol/CaskSubscriptionManager.sol:CaskSubscriptionManager",
        "label": "paymentFeeMin",
        "offset": 0,
        "slot": "154",
        "type": "t_uint256"
      },
      {
        "astId": 8700,
        "contract": "contracts/protocol/CaskSubscriptionManager.sol:CaskSubscriptionManager",
        "label": "paymentFeeRateMin",
        "offset": 0,
        "slot": "155",
        "type": "t_uint256"
      },
      {
        "astId": 8702,
        "contract": "contracts/protocol/CaskSubscriptionManager.sol:CaskSubscriptionManager",
        "label": "paymentFeeRateMax",
        "offset": 0,
        "slot": "156",
        "type": "t_uint256"
      },
      {
        "astId": 8705,
        "contract": "contracts/protocol/CaskSubscriptionManager.sol:CaskSubscriptionManager",
        "label": "stakeTargetFactor",
        "offset": 0,
        "slot": "157",
        "type": "t_uint256"
      },
      {
        "astId": 8708,
        "contract": "contracts/protocol/CaskSubscriptionManager.sol:CaskSubscriptionManager",
        "label": "processBucketSize",
        "offset": 0,
        "slot": "158",
        "type": "t_uint32"
      },
      {
        "astId": 8717,
        "contract": "contracts/protocol/CaskSubscriptionManager.sol:CaskSubscriptionManager",
        "label": "processQueue",
        "offset": 0,
        "slot": "159",
        "type": "t_mapping(t_enum(CheckType)7247,t_mapping(t_uint32,t_array(t_uint256)dyn_storage))"
      },
      {
        "astId": 8722,
        "contract": "contracts/protocol/CaskSubscriptionManager.sol:CaskSubscriptionManager",
        "label": "processingBucket",
        "offset": 0,
        "slot": "160",
        "type": "t_mapping(t_enum(CheckType)7247,t_uint32)"
      }
    ],
    "types": {
      "t_address": {
        "encoding": "inplace",
        "label": "address",
        "numberOfBytes": "20"
      },
      "t_array(t_uint256)49_storage": {
        "base": "t_uint256",
        "encoding": "inplace",
        "label": "uint256[49]",
        "numberOfBytes": "1568"
      },
      "t_array(t_uint256)50_storage": {
        "base": "t_uint256",
        "encoding": "inplace",
        "label": "uint256[50]",
        "numberOfBytes": "1600"
      },
      "t_array(t_uint256)dyn_storage": {
        "base": "t_uint256",
        "encoding": "dynamic_array",
        "label": "uint256[]",
        "numberOfBytes": "32"
      },
      "t_bool": {
        "encoding": "inplace",
        "label": "bool",
        "numberOfBytes": "1"
      },
      "t_contract(ICaskSubscriptionPlans)7485": {
        "encoding": "inplace",
        "label": "contract ICaskSubscriptionPlans",
        "numberOfBytes": "20"
      },
      "t_contract(ICaskSubscriptions)7846": {
        "encoding": "inplace",
        "label": "contract ICaskSubscriptions",
        "numberOfBytes": "20"
      },
      "t_contract(ICaskVault)8115": {
        "encoding": "inplace",
        "label": "contract ICaskVault",
        "numberOfBytes": "20"
      },
      "t_enum(CheckType)7247": {
        "encoding": "inplace",
        "label": "enum ICaskSubscriptionManager.CheckType",
        "numberOfBytes": "1"
      },
      "t_mapping(t_enum(CheckType)7247,t_mapping(t_uint32,t_array(t_uint256)dyn_storage))": {
        "encoding": "mapping",
        "key": "t_enum(CheckType)7247",
        "label": "mapping(enum ICaskSubscriptionManager.CheckType => mapping(uint32 => uint256[]))",
        "numberOfBytes": "32",
        "value": "t_mapping(t_uint32,t_array(t_uint256)dyn_storage)"
      },
      "t_mapping(t_enum(CheckType)7247,t_uint32)": {
        "encoding": "mapping",
        "key": "t_enum(CheckType)7247",
        "label": "mapping(enum ICaskSubscriptionManager.CheckType => uint32)",
        "numberOfBytes": "32",
        "value": "t_uint32"
      },
      "t_mapping(t_uint32,t_array(t_uint256)dyn_storage)": {
        "encoding": "mapping",
        "key": "t_uint32",
        "label": "mapping(uint32 => uint256[])",
        "numberOfBytes": "32",
        "value": "t_array(t_uint256)dyn_storage"
      },
      "t_uint256": {
        "encoding": "inplace",
        "label": "uint256",
        "numberOfBytes": "32"
      },
      "t_uint32": {
        "encoding": "inplace",
        "label": "uint32",
        "numberOfBytes": "4"
      }
    }
  }
}