{
  "address": "0x74347B370D687EA103c7eA92F9A1A51049Af893c",
  "abi": [
    {
      "inputs": [
        {
          "internalType": "address",
          "name": "_caskDCA",
          "type": "address"
        },
        {
          "internalType": "uint256",
          "name": "_tokenId",
          "type": "uint256"
        }
      ],
      "name": "tokenURI",
      "outputs": [
        {
          "internalType": "string",
          "name": "",
          "type": "string"
        }
      ],
      "stateMutability": "view",
      "type": "function"
    }
  ],
  "transactionHash": "0x4f696f6e897f6cc7f87d183349b9c081c66d2c7792e3a10da1cfa79d9262cc15",
  "args": [],
  "numDeployments": 1,
  "solcInputHash": "057449c4554e88272ef0286309e25efa",
  "bytecode": "0x608060405234801561001057600080fd5b50615d8380620000216000396000f3fe608060405234801561001057600080fd5b506004361061002b5760003560e01c8063e9dc637514610030575b600080fd5b61004361003e366004612bf2565b610059565b6040516100509190612c4e565b60405180910390f35b6040516392c65f4b60e01b8152600481018290526060906000906001600160a01b038516906392c65f4b9060240160006040518083038186803b15801561009f57600080fd5b505afa1580156100b3573d6000803e3d6000fd5b505050506040513d6000823e601f3d908101601f191682016040526100db9190810190612dae565b80519091506001600160a01b031661012b5760405162461bcd60e51b815260206004820152600e60248201526d10a4a72b20a624a22faa27a5a2a760911b60448201526064015b60405180910390fd5b600061013784836101c6565b905060006101458584610339565b9050600061015b6101568786610696565b61070a565b905060006101698786610872565b9050610199848483856040516020016101859493929190612f34565b60405160208183030381529060405261070a565b6040516020016101a99190613027565b604051602081830303815290604052955050505050505b92915050565b60606101dc826101a0015163ffffffff16610c51565b8261022001516000815181106101f4576101f461306c565b60200260200101516001600160a01b03166395d89b416040518163ffffffff1660e01b815260040160006040518083038186803b15801561023457600080fd5b505afa158015610248573d6000803e3d6000fd5b505050506040513d6000823e601f3d908101601f191682016040526102709190810190613082565b61022084015180516102849060019061312c565b815181106102945761029461306c565b60200260200101516001600160a01b03166395d89b416040518163ffffffff1660e01b815260040160006040518083038186803b1580156102d457600080fd5b505afa1580156102e8573d6000803e3d6000fd5b505050506040513d6000823e601f3d908101601f191682016040526103109190810190613082565b60405160200161032293929190613143565b604051602081830303815290604052905092915050565b606060008261022001516000815181106103555761035561306c565b60200260200101516001600160a01b03166395d89b416040518163ffffffff1660e01b815260040160006040518083038186803b15801561039557600080fd5b505afa1580156103a9573d6000803e3d6000fd5b505050506040513d6000823e601f3d908101601f191682016040526103d19190810190613082565b61022084015180516103e59060019061312c565b815181106103f5576103f561306c565b60200260200101516001600160a01b03166395d89b416040518163ffffffff1660e01b815260040160006040518083038186803b15801561043557600080fd5b505afa158015610449573d6000803e3d6000fd5b505050506040513d6000823e601f3d908101601f191682016040526104719190810190613082565b8461022001516000815181106104895761048961306c565b60200260200101516001600160a01b03166395d89b416040518163ffffffff1660e01b815260040160006040518083038186803b1580156104c957600080fd5b505afa1580156104dd573d6000803e3d6000fd5b505050506040513d6000823e601f3d908101601f191682016040526105059190810190613082565b604051602001610517939291906131c7565b6040516020818303038152906040529050600061055d8461022001516000815181106105455761054561306c565b60200260200101516001600160a01b03166014610e1c565b61022085015180516105719060019061312c565b815181106105815761058161306c565b60200260200101516001600160a01b03166395d89b416040518163ffffffff1660e01b815260040160006040518083038186803b1580156105c157600080fd5b505afa1580156105d5573d6000803e3d6000fd5b505050506040513d6000823e601f3d908101601f191682016040526105fd9190810190613082565b610220860151805161062691906106169060019061312c565b815181106105455761054561306c565b61063a876101a0015163ffffffff16610c51565b610645896020610e1c565b60405160200161065995949392919061328d565b6040516020818303038152906040529050818160405160200161067d929190613369565b6040516020818303038152906040529250505092915050565b60606106a28383610fbf565b6106ac84846112ac565b6106b68585611572565b6106c086866116fb565b6106ca8787611851565b6106d48888611ae9565b6106de8989611e3c565b6106e88a8a612140565b6106f28b8b61248f565b60405160200161032299989796959493929190613398565b606081516000141561072a57505060408051602081019091526000815290565b6000604051806060016040528060408152602001615cee604091399050600060038451600261075991906135b1565b61076391906135df565b61076e9060046135f3565b9050600061077d8260206135b1565b67ffffffffffffffff81111561079557610795612c81565b6040519080825280601f01601f1916602001820160405280156107bf576020820181803683370190505b509050818152600183018586518101602084015b8183101561082d5760039283018051603f601282901c811687015160f890811b8552600c83901c8216880151811b6001860152600683901c8216880151811b60028601529116860151901b938201939093526004016107d3565b600389510660018114610847576002811461085857610864565b613d3d60f01b600119830152610864565b603d60f81b6000198301525b509398975050505050505050565b6060600082610220015160008151811061088e5761088e61306c565b60200260200101516001600160a01b031663313ce5676040518163ffffffff1660e01b815260040160206040518083038186803b1580156108ce57600080fd5b505afa1580156108e2573d6000803e3d6000fd5b505050506040513d601f19601f820116820180604052508101906109069190613612565b905060008361022001516000815181106109225761092261306c565b60200260200101516001600160a01b03166395d89b416040518163ffffffff1660e01b815260040160006040518083038186803b15801561096257600080fd5b505afa158015610976573d6000803e3d6000fd5b505050506040513d6000823e601f3d908101601f1916820160405261099e9190810190613082565b61022085015180519192506000916109b89060019061312c565b815181106109c8576109c861306c565b60200260200101516001600160a01b031663313ce5676040518163ffffffff1660e01b815260040160206040518083038186803b158015610a0857600080fd5b505afa158015610a1c573d6000803e3d6000fd5b505050506040513d601f19601f82011682018060405250810190610a409190613612565b6102208601518051919250600091610a5a9060019061312c565b81518110610a6a57610a6a61306c565b60200260200101516001600160a01b03166395d89b416040518163ffffffff1660e01b815260040160006040518083038186803b158015610aaa57600080fd5b505afa158015610abe573d6000803e3d6000fd5b505050506040513d6000823e601f3d908101601f19168201604052610ae69190810190613082565b90506000610af488886124a0565b610b08886101a0015163ffffffff16610c51565b610b168960c00151886125d3565b60008a60a0015111610b4157604051806040016040528060018152602001600360fc1b815250610b4f565b610b4f8a60a00151896125d3565b604051602001610b629493929190613635565b60405160208183030381529060405290506000610b838860e00151856125d3565b610b918961010001516125ef565b86610bad8b61022001516000815181106105455761054561306c565b604051602001610bc094939291906137b7565b60405160208183030381529060405290506000610be18960800151886125d3565b6102208a015180518691610bfb916106169060019061312c565b604051602001610c0d93929190613931565b6040516020818303038152906040529050828282604051602001610c3393929190613a64565b60405160208183030381529060405297505050505050505092915050565b606081610e101415610c7f575050604080518082019091526006815265486f75726c7960d01b602082015290565b81620151801415610cab5750506040805180820190915260058152644461696c7960d81b602082015290565b8162093a801415610cd85750506040805180820190915260068152655765656b6c7960d01b602082015290565b81622819a01415610d065750506040805180820190915260078152664d6f6e74686c7960c81b602082015290565b81622820a81415610d345750506040805180820190915260078152664d6f6e74686c7960c81b602082015290565b8162a066801415610d64575050604080518082019091526009815268517561727465726c7960b81b602082015290565b8162a082a01415610d94575050604080518082019091526009815268517561727465726c7960b81b602082015290565b816301e133801415610dc4575050604080518082019091526008815267416e6e75616c6c7960c01b602082015290565b816301e187e01415610df4575050604080518082019091526008815267416e6e75616c6c7960c01b602082015290565b505060408051808201909152600c81526b506572696f646963616c6c7960a01b602082015290565b60606000610e2b8360026135f3565b610e369060026135b1565b67ffffffffffffffff811115610e4e57610e4e612c81565b6040519080825280601f01601f191660200182016040528015610e78576020820181803683370190505b509050600360fc1b81600081518110610e9357610e9361306c565b60200101906001600160f81b031916908160001a905350600f60fb1b81600181518110610ec257610ec261306c565b60200101906001600160f81b031916908160001a9053506000610ee68460026135f3565b610ef19060016135b1565b90505b6001811115610f69576f181899199a1a9b1b9c1cb0b131b232b360811b85600f1660108110610f2557610f2561306c565b1a60f81b828281518110610f3b57610f3b61306c565b60200101906001600160f81b031916908160001a90535060049490941c93610f6281613aa7565b9050610ef4565b508315610fb85760405162461bcd60e51b815260206004820181905260248201527f537472696e67733a20686578206c656e67746820696e73756666696369656e746044820152606401610122565b9392505050565b6060604051602001610322907f3c646566733e3c6c696e6561724772616469656e742069643d226c696e65617281527f2d6772616469656e74222078313d22313435222079313d223530332e3336222060208201527f78323d22313435222079323d22322e373422206772616469656e745472616e7360408201527f666f726d3d227472616e736c6174652830203530332e333629207363616c652860608201527f31202d312922206772616469656e74556e6974733d227573657253706163654f60808201527f6e557365223e3c73746f70206f66667365743d222e3137222073746f702d636f60a08201527f6c6f723d2223323731623366222f3e3c73746f70206f66667365743d222e323560c08201527f222073746f702d636f6c6f723d2223323731623366222f3e3c73746f70206f6660e08201527f667365743d222e3331222073746f702d636f6c6f723d2223323731623366222f6101008201527f3e3c73746f70206f66667365743d222e3538222073746f702d636f6c6f723d226101208201527f23363434343939222f3e3c73746f70206f66667365743d222e3733222073746f6101408201527f702d636f6c6f723d2223383235386334222f3e3c73746f70206f66667365743d6101608201527f222e3736222073746f702d636f6c6f723d2223383235386334222f3e3c73746f6101808201527f70206f66667365743d222e3832222073746f702d636f6c6f723d2223363534346101a08201527f3939222f3e3c73746f70206f66667365743d222e3839222073746f702d636f6c6101c08201527f6f723d2223343332653638222f3e3c73746f70206f66667365743d222e3934226101e08201527f2073746f702d636f6c6f723d2223326532303461222f3e3c73746f70206f66666102008201527f7365743d222e3937222073746f702d636f6c6f723d2223323731623366222f3e6102208201527f3c2f6c696e6561724772616469656e743e3c2f646566733e00000000000000006102408201526102580190565b6060604051602001610322907f3c7061746820643d226d3239302c3436362e333763302c31382e38342d31372e81527f322c33342e32352d33382e32322c33342e32354833382e3232632d32312e303260208201527f2c302d33382e32322d31352e34312d33382e32322d33342e32355633342e323560408201527f43302c31352e34312c31372e322c302c33382e32322c30683231332e3535633260608201527f312e30322c302c33382e32322c31352e34312c33382e32322c33342e3235763460808201527f33322e313168305a22207374796c653d2266696c6c3a75726c28236c696e656160a08201527f722d6772616469656e74293b222f3e3c706174682069643d226672616d652d7060c08201527f6174682220643d226d3235352e32372c3438342e33324833332e3835632d313060e08201527f2e34322c302d31382e392d382e342d31382e392d31382e37335633332e3639636101008201527f302d31302e33332c382e34382d31382e37332c31382e392d31382e37336832326101208201527f312e34326331302e34322c302c31382e392c382e342c31382e392c31382e37336101408201527f763433312e3963302c31302e33332d382e34382c31382e37332d31382e392c316101608201527f382e37335a4d33332e38352c31352e37632d31302e30312c302d31382e31352c6101808201527f382e30372d31382e31352c31372e3938763433312e3963302c392e39322c382e6101a08201527f31342c31372e39382c31382e31352c31372e3938683232312e34326331302e306101c08201527f312c302c31382e31352d382e30372c31382e31352d31372e39385633332e36396101e08201527f63302d392e39322d382e31342d31372e39382d31382e31352d31372e393848336102008201527f332e38355a22207374796c653d2266696c6c3a236666663b222f3e000000000061022082015261023b0190565b6060600082610220015160008151811061158e5761158e61306c565b60200260200101516001600160a01b03166395d89b416040518163ffffffff1660e01b815260040160006040518083038186803b1580156115ce57600080fd5b505afa1580156115e2573d6000803e3d6000fd5b505050506040513d6000823e601f3d908101601f1916820160405261160a9190810190613082565b61022084015180519192506000916116249060019061312c565b815181106116345761163461306c565b60200260200101516001600160a01b03166395d89b416040518163ffffffff1660e01b815260040160006040518083038186803b15801561167457600080fd5b505afa158015611688573d6000803e3d6000fd5b505050506040513d6000823e601f3d908101601f191682016040526116b09190810190613082565b9050816116ce8561022001516000815181106105455761054561306c565b610220860151805184916116e8916106169060019061312c565b60405160200161067d9493929190613abe565b6060604051602001610322907f3c7265637420783d2239352e3136222077696474683d223130342e323122206881527f65696768743d2233342e333522207374796c653d2266696c6c3a23323731623360208201527f663b222f3e3c74657874207472616e73666f726d3d227472616e736c6174652860408201527f3134352032312e343229207363616c65282e393320312922207374796c653d2260608201527f66696c6c3a236666663b20666f6e742d66616d696c793a56657264616e612d4260808201527f6f6c642c2056657264616e613b20666f6e742d73697a653a31352e3870783b2060a08201527f666f6e742d7765696768743a3730303b223e3c747370616e20783d223022207960c08201527f3d22302220746578742d616e63686f723d226d6964646c65223e4443413c2f7460e08201526b39b830b71f1e17ba32bc3a1f60a11b61010082015261010c0190565b6060600082610220015160008151811061186d5761186d61306c565b60200260200101516001600160a01b031663313ce5676040518163ffffffff1660e01b815260040160206040518083038186803b1580156118ad57600080fd5b505afa1580156118c1573d6000803e3d6000fd5b505050506040513d601f19601f820116820180604052508101906118e59190613612565b905060008361022001516000815181106119015761190161306c565b60200260200101516001600160a01b03166395d89b416040518163ffffffff1660e01b815260040160006040518083038186803b15801561194157600080fd5b505afa158015611955573d6000803e3d6000fd5b505050506040513d6000823e601f3d908101601f1916820160405261197d9190810190613082565b90508361022001516000815181106119975761199761306c565b60200260200101516001600160a01b03166395d89b416040518163ffffffff1660e01b815260040160006040518083038186803b1580156119d757600080fd5b505afa1580156119eb573d6000803e3d6000fd5b505050506040513d6000823e601f3d908101601f19168201604052611a139190810190613082565b6102208501518051611a279060019061312c565b81518110611a3757611a3761306c565b60200260200101516001600160a01b03166395d89b416040518163ffffffff1660e01b815260040160006040518083038186803b158015611a7757600080fd5b505afa158015611a8b573d6000803e3d6000fd5b505050506040513d6000823e601f3d908101601f19168201604052611ab39190810190613082565b611ac2866080015185856126f5565b611ad6876101a0015163ffffffff16610c51565b60405160200161067d9493929190613e21565b606060018261020001516004811115611b0457611b04614380565b1415611c9457604051602001611c7e907f3c70617468207374796c653d2266696c6c3a233334423230362220643d224d3181527f37352e312c3138322e32682d3634632d342e392c302d392d342d392d3976306360208201527f302d342e392c342d392c392d3968363463342e392c302c392c342c392c39763060408201527f433138342e312c3137382e312c3138302c3138322e322c3137352e312c31383260608201527f2e327a222f3e3c673e3c74657874207472616e73666f726d3d226d617472697860808201527f2831203020302031203132342e32353238203137372e3431343329222073747960a08201527f6c653d2266696c6c3a236666663b20666f6e742d66616d696c793a566572646160c08201527f6e612d426f6c642c2056657264616e613b20666f6e742d73697a653a3132707860e08201527f3b20666f6e742d7765696768743a3730303b223e4163746976653c2f74657874610100820152641f1e17b39f60d91b6101208201526101250190565b60405160208183030381529060405290506101c0565b60028261020001516004811115611cad57611cad614380565b1415611e2757604051602001611c7e907f3c70617468207374796c653d2266696c6c3a236436396532662220643d224d3181527f37352e312c3138322e32682d3634632d342e392c302d392d342d392d3976306360208201527f302d342e392c342d392c392d3968363463342e392c302c392c342c392c39763060408201527f433138342e312c3137382e312c3138302c3138322e322c3137352e312c31383260608201527f2e327a222f3e3c673e3c74657874207472616e73666f726d3d226d617472697860808201527f2831203020302031203132342e32353238203137372e3431343329222073747960a08201527f6c653d2266696c6c3a236666663b20666f6e742d66616d696c793a566572646160c08201527f6e612d426f6c642c2056657264616e613b20666f6e742d73697a653a3132707860e08201527f3b20666f6e742d7765696768743a3730303b223e5061757365643c2f74657874610100820152641f1e17b39f60d91b6101208201526101250190565b506040805160208101909152600081526101c0565b60606000826102200151600081518110611e5857611e5861306c565b60200260200101516001600160a01b031663313ce5676040518163ffffffff1660e01b815260040160206040518083038186803b158015611e9857600080fd5b505afa158015611eac573d6000803e3d6000fd5b505050506040513d601f19601f82011682018060405250810190611ed09190613612565b90506000836102200151600081518110611eec57611eec61306c565b60200260200101516001600160a01b03166395d89b416040518163ffffffff1660e01b815260040160006040518083038186803b158015611f2c57600080fd5b505afa158015611f40573d6000803e3d6000fd5b505050506040513d6000823e601f3d908101601f19168201604052611f689190810190613082565b6102208501518051919250600091611f829060019061312c565b81518110611f9257611f9261306c565b60200260200101516001600160a01b031663313ce5676040518163ffffffff1660e01b815260040160206040518083038186803b158015611fd257600080fd5b505afa158015611fe6573d6000803e3d6000fd5b505050506040513d601f19601f8201168201806040525081019061200a9190613612565b61022086015180519192506000916120249060019061312c565b815181106120345761203461306c565b60200260200101516001600160a01b03166395d89b416040518163ffffffff1660e01b815260040160006040518083038186803b15801561207457600080fd5b505afa158015612088573d6000803e3d6000fd5b505050506040513d6000823e601f3d908101601f191682016040526120b09190810190613082565b90506120c08661010001516125ef565b6120cf8760e0015184846126f5565b60e0880151612113906120e386600a61447a565b8a61024001518b60c001516120f8919061312c565b61210291906135f3565b61210c91906135df565b87876126f5565b60405160200161212593929190614489565b60405160208183030381529060405294505050505092915050565b6060600082610220015160008151811061215c5761215c61306c565b60200260200101516001600160a01b031663313ce5676040518163ffffffff1660e01b815260040160206040518083038186803b15801561219c57600080fd5b505afa1580156121b0573d6000803e3d6000fd5b505050506040513d601f19601f820116820180604052508101906121d49190613612565b905060008361022001516000815181106121f0576121f061306c565b60200260200101516001600160a01b03166395d89b416040518163ffffffff1660e01b815260040160006040518083038186803b15801561223057600080fd5b505afa158015612244573d6000803e3d6000fd5b505050506040513d6000823e601f3d908101601f1916820160405261226c9190810190613082565b61022085015180519192506000916122869060019061312c565b815181106122965761229661306c565b60200260200101516001600160a01b031663313ce5676040518163ffffffff1660e01b815260040160206040518083038186803b1580156122d657600080fd5b505afa1580156122ea573d6000803e3d6000fd5b505050506040513d601f19601f8201168201806040525081019061230e9190613612565b61022086015180519192506000916123289060019061312c565b815181106123385761233861306c565b60200260200101516001600160a01b03166395d89b416040518163ffffffff1660e01b815260040160006040518083038186803b15801561237857600080fd5b505afa15801561238c573d6000803e3d6000fd5b505050506040513d6000823e601f3d908101601f191682016040526123b49190810190613082565b905060008660a00151116123e357604051806040016040528060038152602001624e2f4160e81b815250612401565b6124018660c001518760a001516123fa919061312c565b85856126f5565b60008761018001511161242f57604051806040016040528060038152602001624e2f4160e81b81525061243f565b61243f87610180015184846126f5565b60008861016001511161246d57604051806040016040528060038152602001624e2f4160e81b81525061247d565b61247d88610160015185856126f5565b604051602001612125939291906149bd565b606060405160200161032290614eb8565b6060600182610200015160048111156124bb576124bb614380565b14156124e4575060408051808201909152600681526541637469766560d01b60208201526101c0565b600282610200015160048111156124fd576124fd614380565b1415612526575060408051808201909152600681526514185d5cd95960d21b60208201526101c0565b6003826102000151600481111561253f5761253f614380565b141561256a575060408051808201909152600881526710d85b98d95b195960c21b60208201526101c0565b6004826102000151600481111561258357612583614380565b14156125ae5750604080518082019091526008815267436f6d706c65746560c01b60208201526101c0565b506040805180820190915260078152662ab735b737bbb760c91b602082015292915050565b60606125df838361272b565b6040516020016103229190615bc1565b6060816126135750506040805180820190915260018152600360fc1b602082015290565b8160005b811561263d578061262781615bdd565b91506126369050600a836135df565b9150612617565b60008167ffffffffffffffff81111561265857612658612c81565b6040519080825280601f01601f191660200182016040528015612682576020820181803683370190505b5090505b84156126ed5761269760018361312c565b91506126a4600a86615bf8565b6126af9060306135b1565b60f81b8183815181106126c4576126c461306c565b60200101906001600160f81b031916908160001a9053506126e6600a866135df565b9450612686565b949350505050565b6060612701848461272b565b82604051602001612713929190615c0c565b60405160208183030381529060405290509392505050565b60608261275557506040805180820190915260068152650302e303030360d41b60208201526101c0565b600061276283600a61447a565b841090508360005b8115612790578061277a81615c48565b91506127899050600a836135df565b915061276a565b61279b600182615c68565b90506000806127aa8884612926565b9150915080156127c257826127be81615c48565b9350505b6040805160e081018252600080825260208201819052918101829052606081018290526080810182905260a0810182905260c0810191909152851561287c5760058460ff16101561281d57612818886002615c8b565b612832565b6128278489615c68565b612832906006615c8b565b60ff1660208201526002608082015261284b8489615c68565b612856906001615c8b565b60ff1660a0820152602081015161286f90600190615c68565b60ff166040820152612905565b612887886004615c8b565b60ff168460ff16106128d95761289d8885615c68565b6128a8906001615c8b565b60ff1660208201819052600560808301526128c590600190615c68565b60ff1660a082015260046040820152612905565b60066020820152600560408201526128f18885615c68565b6128fc906001615c8b565b60ff1660608201525b82815285151560c0820152612919816129b3565b9998505050505050505050565b600080600060058460ff16111561295a57612942600585615c68565b61294d90600a61447a565b61295790866135df565b94505b60006004612969600a88615bf8565b119050612977600a876135df565b9550801561298d5761298a8660016135b1565b95505b85620186a014156129aa576129a3600a876135df565b9550600191505b50939492505050565b60606000826020015160ff1667ffffffffffffffff8111156129d7576129d7612c81565b6040519080825280601f01601f191660200182016040528015612a01576020820181803683370190505b5090508260c0015115612a6d57600360fc1b81600081518110612a2657612a2661306c565b60200101906001600160f81b031916908160001a905350601760f91b81600181518110612a5557612a5561306c565b60200101906001600160f81b031916908160001a9053505b608083015160ff165b60a0840151612a86906001615c8b565b60ff16811015612ad057603060f81b828281518110612aa757612aa761306c565b60200101906001600160f81b031916908160001a90535080612ac881615bdd565b915050612a76565b505b8251156101c0576000836060015160ff16118015612afd5750826060015160ff16836040015160ff16145b15612b4e57601760f91b81846040018051809190612b1a90615cb0565b60ff1660ff1681525060ff1681518110612b3657612b3661306c565b60200101906001600160f81b031916908160001a9053505b8251600090612b5f90600a90615bf8565b612b6a9060306135b1565b90508060f81b82856040015160ff1681518110612b8957612b8961306c565b60200101906001600160f81b031916908160001a905350600a84600001818151612bb391906135df565b905250835115612bd45760408401805190612bcd82615cb0565b60ff169052505b50612ad2565b6001600160a01b0381168114612bef57600080fd5b50565b60008060408385031215612c0557600080fd5b8235612c1081612bda565b946020939093013593505050565b60005b83811015612c39578181015183820152602001612c21565b83811115612c48576000848401525b50505050565b6020815260008251806020840152612c6d816040850160208701612c1e565b601f01601f19169190910160400192915050565b634e487b7160e01b600052604160045260246000fd5b604051610260810167ffffffffffffffff81118282101715612cbb57612cbb612c81565b60405290565b604051601f8201601f1916810167ffffffffffffffff81118282101715612cea57612cea612c81565b604052919050565b8051612cfd81612bda565b919050565b805163ffffffff81168114612cfd57600080fd5b805160058110612cfd57600080fd5b600082601f830112612d3657600080fd5b8151602067ffffffffffffffff821115612d5257612d52612c81565b8160051b612d61828201612cc1565b9283528481018201928281019087851115612d7b57600080fd5b83870192505b84831015612da3578251612d9481612bda565b82529183019190830190612d81565b979650505050505050565b600060208284031215612dc057600080fd5b815167ffffffffffffffff80821115612dd857600080fd5b908301906102608286031215612ded57600080fd5b612df5612c97565b612dfe83612cf2565b8152612e0c60208401612cf2565b6020820152612e1d60408401612cf2565b6040820152612e2e60608401612cf2565b60608201526080838101519082015260a0808401519082015260c0808401519082015260e08084015190820152610100808401519082015261012080840151908201526101408084015190820152610160808401519082015261018080840151908201526101a0612ea0818501612d02565b908201526101c0612eb2848201612d02565b908201526101e0612ec4848201612d02565b90820152610200612ed6848201612d16565b908201526102208381015183811115612eee57600080fd5b612efa88828701612d25565b91830191909152506102409283015192810192909252509392505050565b60008151612f2a818560208601612c1e565b9290920192915050565b683d913730b6b2911d1160b91b81528451600090612f59816009850160208a01612c1e565b71111610113232b9b1b934b83a34b7b7111d1160711b6009918401918201528551612f8b81601b840160208a01612c1e565b7001116101130ba3a3934b13aba32b9911d1607d1b601b92909101918201528451612fbd81602c840160208901612c1e565b7f2c2022696d616765223a2022646174613a696d6167652f7376672b786d6c3b62602c929091019182015265185cd94d8d0b60d21b604c820152835161300a816052840160208801612c1e565b61227d60f01b605292909101918201526054019695505050505050565b7f646174613a6170706c69636174696f6e2f6a736f6e3b6261736536342c00000081526000825161305f81601d850160208701612c1e565b91909101601d0192915050565b634e487b7160e01b600052603260045260246000fd5b60006020828403121561309457600080fd5b815167ffffffffffffffff808211156130ac57600080fd5b818401915084601f8301126130c057600080fd5b8151818111156130d2576130d2612c81565b6130e5601f8201601f1916602001612cc1565b91508082528560208285010111156130fc57600080fd5b61310d816020840160208601612c1e565b50949350505050565b634e487b7160e01b600052601160045260246000fd5b60008282101561313e5761313e613116565b500390565b73021b0b9b590283937ba37b1b7b6102221a09016960651b815260008451613172816014850160208901612c1e565b6201016960ed1b6014918401918201528451613195816017840160208901612c1e565b630103a37960e51b6017929091019182015283516131ba81601b840160208801612c1e565b01601b0195945050505050565b7f54686973204e465420726570726573656e747320612044434120706f7369746981527f6f6e20696e204361736b2050726f746f636f6c2c20776865726520000000000060208201526000845161322581603b850160208901612c1e565b740103bb4b6361031329039bbb0b83832b2103337b91605d1b603b91840191820152845161325a816050840160208901612c1e565b64172e372e3760d91b605092909101918201528351613280816055840160208801612c1e565b0160550195945050505050565b60006901020b2323932b9b99d160b51b80835287516132b381600a860160208c01612c1e565b612e3760f11b600a9185019182015287516132d581600c840160208c01612c1e565b01600c8101919091528551906132f2826016830160208a01612c1e565b8181019150507002e3729bbb0b81034b73a32b93b30b61d1607d1b60168201528451613325816027840160208901612c1e565b6b02e372a37b5b2b71024a21d160a51b602792909101918201528351613352816033840160208801612c1e565b612919603382840101612e3760f11b815260020190565b6000835161337b818460208801612c1e565b83519083019061338f818360208801612c1e565b01949350505050565b7f3c7376672069643d224c617965725f312220786d6c6e733d22687474703a2f2f81527f7777772e77332e6f72672f323030302f7376672220786d6c6e733a786c696e6b60208201527f3d22687474703a2f2f7777772e77332e6f72672f313939392f786c696e6b222060408201527f76696577426f783d2230203020323930203530302e3632223e00000000000000606082015260008a51613442816079850160208f01612c1e565b8a5190830190613459816079840160208f01612c1e565b8a5191019061346f816079840160208e01612c1e565b8951910190613485816079840160208d01612c1e565b885191019061349b816079840160208c01612c1e565b6135a061358e61358861352861352261351c6134bc6079888a01018f612f18565b7f3c7265637420783d2232372220793d223230302e3736222077696474683d223281527f33332e313322206865696768743d222e373522207374796c653d2266696c6c3a60208201526711b333331d91179f60c11b604082015260480190565b8c612f18565b8a612f18565b7f3c7265637420783d2232372220793d223431352e3435222077696474683d223281527f33332e313322206865696768743d222e373522207374796c653d2266696c6c3a60208201526711b333331d91179f60c11b604082015260480190565b87612f18565b651e17b9bb339f60d11b815260060190565b9d9c50505050505050505050505050565b600082198211156135c4576135c4613116565b500190565b634e487b7160e01b600052601260045260246000fd5b6000826135ee576135ee6135c9565b500490565b600081600019048311821515161561360d5761360d613116565b500290565b60006020828403121561362457600080fd5b815160ff81168114610fb857600080fd5b7f5b7b2274726169745f74797065223a2022537461747573222c202276616c7565815263111d101160e11b60208201526000855161367a816024850160208a01612c1e565b62089f4b60ea1b60249184019182018190527f7b2274726169745f74797065223a2022506572696f64222c202276616c7565226027830152621d101160e91b604783015286516136d181604a850160208b01612c1e565b604a9201918201527f7b2274726169745f74797065223a202243757272656e7420416d6f756e74222c604d8201527f2022646973706c61795f74797065223a20226e756d626572222c202276616c75606d82015263032911d160e51b608d820152612da36137496137b161375782609186018a612f18565b611f4b60f21b815260020190565b7f7b2274726169745f74797065223a2022546f74616c20416d6f756e74222c202281527f646973706c61795f74797065223a20226e756d626572222c202276616c75652260208201526101d160f51b604082015260420190565b86612f18565b7f7b2274726169745f74797065223a20224163717569726564222c20226469737081527f6c61795f74797065223a20226e756d626572222c202276616c7565223a20000060208201526000855161381581603e850160208a01612c1e565b8083019050611f4b60f21b80603e8301527f7b2274726169745f74797065223a20225377617073222c2022646973706c617960408301527f5f74797065223a20226e756d626572222c202276616c7565223a2000000000006060830152865161388581607b850160208b01612c1e565b607b9201918201527f7b2274726169745f74797065223a202246726f6d20546f6b656e2053796d626f607d8201526d36111610113b30b63ab2911d101160911b609d820152612da36138e16137b16138f08260ab86018a612f18565b62089f4b60ea1b815260030190565b7f7b2274726169745f74797065223a202246726f6d20546f6b656e20416464726581526e39b9911610113b30b63ab2911d101160891b6020820152602f0190565b7f7b2274726169745f74797065223a2022416d6f756e74222c2022646973706c6181527f795f74797065223a20226e756d626572222c202276616c7565223a200000000060208201526000845161398f81603c850160208901612c1e565b611f4b60f21b603c918401918201527f7b2274726169745f74797065223a2022546f20546f6b656e2053796d626f6c22603e8201526b1610113b30b63ab2911d101160a11b605e82015284516139ec81606a840160208901612c1e565b62089f4b60ea1b606a92909101918201527f7b2274726169745f74797065223a2022546f20546f6b656e2041646472657373606d8201526c111610113b30b63ab2911d101160991b608d8201528351613a4c81609a840160208801612c1e565b612da3609a8284010162227d5d60e81b815260030190565b60008451613a76818460208901612c1e565b845190830190613a8a818360208901612c1e565b8451910190613a9d818360208801612c1e565b0195945050505050565b600081613ab657613ab6613116565b506000190190565b7f3c7465787420746578742d72656e646572696e673d226f7074696d697a65537081527f65656422207374796c653d2266696c6c3a236666663b20666f6e742d66616d6960208201527f6c793a56657264616e613b20666f6e742d73697a653a382e3870783b20666f6e60408201527f742d7765696768743a3230303b223e3c74657874506174682073746172744f6660608201527f667365743d2238252220786c696e6b3a687265663d22236672616d652d70617460808201527f682220636c6173733d227374343620737433382073743437223e46726f6d200060a082015260008551613bb48160bf850160208a01612c1e565b6201016960ed1b60bf918401918201528551613bd78160c2840160208a01612c1e565b7f3c616e696d6174652061646469746976653d2273756d2220617474726962757460c292909101918201527f654e616d653d2273746172744f6666736574222066726f6d3d2230252220746f60e28201527f3d22352522206475723d223330732220726570656174436f756e743d22696e646101028201527f6566696e69746522202f3e3c2f74657874506174683e3c2f746578743e3c74656101228201527f787420746578742d72656e646572696e673d226f7074696d697a6553706565646101428201527f22207374796c653d2266696c6c3a236666663b20666f6e742d66616d696c793a6101628201527f56657264616e613b20666f6e742d73697a653a382e3870783b20666f6e742d776101828201527f65696768743a3230303b223e3c74657874506174682073746172744f666673656101a28201527f743d223333252220786c696e6b3a687265663d22236672616d652d70617468226101c28201527f20636c6173733d227374343620737433382073743437223e546f2000000000006101e2820152612da3613d866137b1613d776101fd850189612f18565b6201016960ed1b815260030190565b7f3c616e696d6174652061646469746976653d2273756d2220617474726962757481527f654e616d653d2273746172744f6666736574222066726f6d3d2230252220746f60208201527f3d22352522206475723d223330732220726570656174436f756e743d22696e6460408201527f6566696e69746522202f3e3c2f74657874506174683e3c2f746578743e0000006060820152607d0190565b7f3c74657874207472616e73666f726d3d227472616e736c61746528313435203881527f302e362922207374796c653d2266696c6c3a236666663b20666f6e742d66616d60208201527f696c793a56657264616e612d426f6c642c2056657264616e613b20666f6e742d60408201527f73697a653a32392e343770783b20666f6e742d7765696768743a3730303b206960608201527f736f6c6174696f6e3a69736f6c6174653b223e3c747370616e20783d2230222060808201527f793d22302220746578742d616e63686f723d226d6964646c65223e000000000060a082015260008551613f178160bb850160208a01612c1e565b7f3c2f747370616e3e3c2f746578743e3c7061746820643d226d3135312e30372c60bb918401918201527f39392e3334632d2e36342d2e36342d312e36352d2e36362d322e32362d2e303660db8201527f6c2d332e37352c332e3735762d392e383563302d2e37342d2e37342d312e333460fb8201527f2d312e36342d312e33342d2e392c302d312e36342e36312d312e36342c312e3361011b8201527f3476392e3835732d332e36322d332e36322d332e36322d332e3632632d2e353961013b8201527f2d2e362d312e362d2e35362d322e32342e30382d2e36342e36342d2e36372c3161015b8201527f2e36342d2e30382c322e32346c352e34312c352e34312e33362e33362c312e3861017b8201527f2c312e382c322e33312d322e333168306c352e33392d352e3339632e36312d2e61019b8201527f36312e35382d312e36322d2e30362d322e32365a22207374796c653d2266696c6101bb8201527f6c3a236666663b222f3e3c74657874207472616e73666f726d3d227472616e736101db8201527f6c61746528313435203134312e33372922207374796c653d2266696c6c3a23666101fb8201527f66663b20666f6e742d66616d696c793a56657264616e612d426f6c642c20566561021b8201527f7264616e613b20666f6e742d73697a653a32392e343770783b20666f6e742d7761023b8201527f65696768743a3730303b223e3c747370616e20783d22302220793d223022207461025b8201527332bc3a16b0b731b437b91e9136b4b2323632911f60611b61027b820152612da36143656137b161427061426a61417561028f87018c612f18565b7f3c2f747370616e3e3c2f746578743e3c74657874207472616e73666f726d3d2281527f7472616e736c61746528313435203233302e3129207363616c65282e3933203160208201527f2922207374796c653d2266696c6c3a236666663b20666f6e742d66616d696c7960408201527f3a56657264616e612d426f6c642c2056657264616e613b20666f6e742d73697a60608201527f653a31382e323670783b20666f6e742d7765696768743a3730303b223e3c747360808201527f70616e20783d22302220793d22302220746578742d616e63686f723d226d696460a082015264323632911f60d91b60c082015260c50190565b89612f18565b7f3c2f747370616e3e3c2f746578743e3c74657874207472616e73666f726d3d2281527f7472616e736c61746528313435203235322e3129207363616c65282e3933203160208201527f2922207374796c653d2266696c6c3a236666663b20666f6e742d66616d696c7960408201527f3a56657264616e612d426f6c642c2056657264616e613b20666f6e742d73697a60608201527f653a31362e323670783b20666f6e742d7765696768743a3730303b223e3c747360808201527f70616e20783d22302220793d22302220746578742d616e63686f723d226d696460a082015264323632911f60d91b60c082015260c50190565b6e1e17ba39b830b71f1e17ba32bc3a1f60891b8152600f0190565b634e487b7160e01b600052602160045260246000fd5b600181815b808511156143d15781600019048211156143b7576143b7613116565b808516156143c457918102915b93841c939080029061439b565b509250929050565b6000826143e8575060016101c0565b816143f5575060006101c0565b816001811461440b576002811461441557614431565b60019150506101c0565b60ff84111561442657614426613116565b50506001821b6101c0565b5060208310610133831016604e8410600b8410161715614454575081810a6101c0565b61445e8383614396565b806000190482111561447257614472613116565b029392505050565b6000610fb860ff8416836143d9565b7f3c67207374796c653d2269736f6c6174696f6e3a69736f6c6174653b223e3c7481527f657874207472616e73666f726d3d227472616e736c6174652834322e3439203260208201527f37342e38372922207374796c653d2266696c6c3a236666663b20666f6e742d6660408201527f616d696c793a56657264616e612c2056657264616e613b20666f6e742d73697a60608201527f653a313070783b2069736f6c6174696f6e3a69736f6c6174653b223e3c74737060808201527f616e20783d22302220793d2230223e546f74616c2053776170733c2f7473706160a08201527f6e3e3c2f746578743e3c74657874207472616e73666f726d3d227472616e736c60c08201527f6174652834322e3538203239312e36342922207374796c653d2266696c6c3a2360e08201527f6666663b20666f6e742d66616d696c793a56657264616e612d426f6c642c20566101008201527f657264616e613b20666f6e742d73697a653a313170783b20666f6e742d7765696101208201527f6768743a3730303b223e3c747370616e20783d22302220793d2231223e00000061014082015260006149b461499561498f6147ee6147e861464a61015d88018b612f18565b600080516020615cce8339815191528152600080516020615d2e83398151915260208201527f3d227472616e736c617465283137372e3634203237342e38372922207374796c60408201527f653d2266696c6c3a236666663b20666f6e742d66616d696c793a56657264616e60608201527f612c2056657264616e613b20666f6e742d73697a653a313070783b2069736f6c60808201527f6174696f6e3a69736f6c6174653b223e3c747370616e20783d22302220793d2260a08201527f30223e41637175697265643c2f747370616e3e3c2f746578743e3c746578742060c08201527f7472616e73666f726d3d227472616e736c617465283137362e3435203239312e60e08201527f36342922207374796c653d2266696c6c3a236666663b20666f6e742d66616d696101008201527f6c793a56657264616e612d426f6c642c2056657264616e613b20666f6e742d736101208201527f697a653a313170783b20666f6e742d7765696768743a3730303b223e3c7473706101408201526e30b7103c1e911811103c9e9118911f60891b61016082015261016f0190565b88612f18565b600080516020615cce8339815191528152600080516020615d2e83398151915260208201527f3d227472616e736c6174652834312e3035203332362e31362922207374796c6560408201527f3d2266696c6c3a236666663b20666f6e742d66616d696c793a56657264616e6160608201527f2c2056657264616e613b20666f6e742d73697a653a313070783b2069736f6c6160808201527f74696f6e3a69736f6c6174653b223e3c747370616e20783d22302220793d223060a08201527f223e417665726167652050726963653c2f747370616e3e3c2f746578743e3c7460c08201527f657874207472616e73666f726d3d227472616e736c6174652833392e3139203360e08201527f34322e35332922207374796c653d2266696c6c3a236666663b20666f6e742d666101008201527f616d696c793a56657264616e612d426f6c642c2056657264616e613b20666f6e6101208201527f742d73697a653a313170783b20666f6e742d7765696768743a3730303b223e3c610140820152713a39b830b7103c1e911811103c9e9118911f60711b6101608201526101720190565b85612f18565b721e17ba39b830b71f1e17ba32bc3a1f1e17b39f60691b815260130190565b95945050505050565b7f3c67207374796c653d2269736f6c6174696f6e3a69736f6c6174653b223e3c7481527f657874207472616e73666f726d3d227472616e736c617465283137352e31392060208201527f3332362e31362922207374796c653d2266696c6c3a236666663b20666f6e742d60408201527f66616d696c793a56657264616e612c2056657264616e613b20666f6e742d736960608201527f7a653a313070783b2069736f6c6174696f6e3a69736f6c6174653b223e3c747360808201527f70616e20783d22302220793d2230223e52656d61696e696e673c2f747370616e60a08201527f3e3c2f746578743e3c74657874207472616e73666f726d3d227472616e736c6160c08201527f7465283137362e3036203334322e35332922207374796c653d2266696c6c3a2360e08201527f6666663b20666f6e742d66616d696c793a56657264616e612d426f6c642c20566101008201527f657264616e613b20666f6e742d73697a653a313170783b20666f6e742d7765696101208201527f6768743a3730303b223e3c747370616e20783d22302220793d2231223e00000061014082015260006149b461499561498f614d1a6147e8614b7e61015d88018b612f18565b600080516020615cce8339815191528152600080516020615d2e83398151915260208201527f3d227472616e736c6174652833392e3435203337342e332922207374796c653d60408201527f2266696c6c3a236666663b20666f6e742d66616d696c793a56657264616e612c60608201527f2056657264616e613b20666f6e742d73697a653a313070783b2069736f6c617460808201527f696f6e3a69736f6c6174653b223e3c747370616e20783d22302220793d22302260a08201527f3e4d696e2050726963653c2f747370616e3e3c2f746578743e3c74657874207460c08201527f72616e73666f726d3d227472616e736c6174652833392e3539203339302e363760e08201527f2922207374796c653d2266696c6c3a236666663b20666f6e742d66616d696c796101008201527f3a56657264616e612d426f6c642c2056657264616e613b20666f6e742d73697a6101208201527f653a313170783b20666f6e742d7765696768743a3730303b223e3c747370616e6101408201526c103c1e911811103c9e9118911f60991b61016082015261016d0190565b600080516020615cce8339815191528152600080516020615d2e83398151915260208201527f3d227472616e736c617465283137352e3139203337342e332922207374796c6560408201527f3d2266696c6c3a236666663b20666f6e742d66616d696c793a56657264616e6160608201527f2c2056657264616e613b20666f6e742d73697a653a313070783b2069736f6c6160808201527f74696f6e3a69736f6c6174653b223e3c747370616e20783d22302220793d223060a08201527f223e4d61782050726963653c2f747370616e3e3c2f746578743e3c746578742060c08201527f7472616e73666f726d3d227472616e736c617465283137362e3036203339302e60e08201527f36372922207374796c653d2266696c6c3a236666663b20666f6e742d66616d696101008201527f6c793a56657264616e612d426f6c642c2056657264616e613b20666f6e742d736101208201527f697a653a313170783b20666f6e742d7765696768743a3730303b223e3c7473706101408201526e30b7103c1e911811103c9e9118911f60891b61016082015261016f0190565b7f3c673e3c673e3c7061746820643d226d3133362e33352c3435382e3434632d3281527f2e36312c302d342e37352d2e38392d362e35342d322e36312d312e37322d312e60208201527f37322d322e36312d332e39322d322e36312d362e3438732e38392d342e37352c60408201527f322e36312d362e34382c332e39322d322e36312c362e35342d322e363163312e60608201527f36362c302c332e32312e34322c342e35382c312e31392c312e33372e38332c3260808201527f2e34342c312e392c332e30392c332e32376c2d332e32312c312e3834632d2e3460a08201527f322d2e38332d312e30312d312e34392d312e37382d312e3936732d312e37322d60c08201527f2e37312d322e37332d2e3731632d312e35352c302d322e37392e35332d332e3860e08201527f2c312e35352d312e30312c312e30312d312e35352c322e33322d312e35352c336101008201527f2e3836732e35332c322e38352c312e35352c332e38362c322e33322c312e35356101208201527f2c332e382c312e353563312e30312c302c312e392d2e32342c322e37332d2e376101408201527f3173312e34332d312e31332c312e38342d312e39366c332e32312c312e3834636101608201527f2d2e37312c312e33372d312e37382c322e352d332e31352c332e32372d312e336101808201527f372e38392d322e39312c312e33312d342e35382c312e33315a22207374796c656101a08201527f3d2266696c6c3a236666663b222f3e3c7061746820643d226d3135392e32392c6101c08201527f3434302e373368332e37347631372e3239682d332e3734762d322e35632d312e6101e08201527f34332c312e39362d332e34352c322e39312d362e30362c322e39312d322e33386102008201527f2c302d342e342d2e38392d362e30362d322e36312d312e36362d312e37382d326102208201527f2e352d332e39322d322e352d362e3432732e38332d342e36392c322e352d362e6102408201527f343863312e36362d312e37322c332e36382d322e36312c362e30362d322e36316102608201527f2c322e36312c302c342e36342e39352c362e30362c322e3931762d322e355a6d6102808201527f2d392e33392c31322e3663312e30312c312e30372c322e33322c312e35352c336102a08201527f2e39322c312e353573322e38352d2e35332c332e39322d312e353563312e30316102c08201527f2d312e30372c312e35352d322e33382c312e35352d332e3938732d2e35332d326102e08201527f2e39312d312e35352d332e39382d322e33322d312e35352d332e39322d312e356103008201527f352d322e38352e35332d332e39322c312e3535632d312e30312c312e30372d316103208201527f2e35352c322e33382d312e35352c332e3938732e35332c322e39312c312e35356103408201527f2c332e39385a22207374796c653d2266696c6c3a236666663b222f3e3c7061746103608201527f6820643d226d3136392e36392c3434352e343863302c2e35392e332c312e30316103808201527f2e39352c312e333773312e34332e35392c322e33322e3839632e38392e32342c6103a08201527f312e38342e35332c322e37332e383373312e37322e38392c322e33322c312e366103c08201527f36632e36352e37372e39352c312e37322e39352c322e39312c302c312e36362d6103e08201527f2e36352c322e39372d312e392c332e39322d312e33312e39352d322e39312c316104008201527f2e34332d342e38312c312e34332d312e37322c302d332e31352d2e33362d342e6104208201527f342d312e30372d312e32352d2e37312d322e30382d312e37322d322e36372d326104408201527f2e39376c332e32312d312e3834632e35392c312e36362c312e392c322e352c336104608201527f2e38362c322e3573322e39312d2e36352c322e39312d312e393663302d2e35336104808201527f2d2e332d312e30312d2e39352d312e3337732d312e34332d2e36352d322e33326104a08201527f2d2e38392d312e38342d2e35332d322e37332d2e3833632d2e39352d2e332d316104c08201527f2e37322d2e38332d322e33322d312e362d2e36352d2e37372d2e39352d312e376104e08201527f322d2e39352d322e38352c302d312e362e35392d322e38352c312e38342d332e6105008201527f38362c312e31392d2e39352c322e37332d312e34332c342e35322d312e34332c6105208201527f312e34332c302c322e36372e332c332e382e393573312e39362c312e34392c326105408201527f2e35362c322e36316c2d332e31352c312e3738632d2e35392d312e33312d312e6105608201527f36362d312e39362d332e32372d312e39362d2e37312c302d312e33312e31382d6105808201527f312e37382e34382d2e34382e32342d2e37312e37312d2e37312c312e33315a226105a08201527f207374796c653d2266696c6c3a236666663b222f3e3c7061746820643d226d316105c08201527f39362e33382c3435372e3936682d342e34366c2d372e30372d372e393676372e6105e08201527f3936682d332e3734762d32342e313368332e37347631342e35366c362e37322d6106008201527f372e363168342e35386c2d372e36312c382e34342c372e38342c382e37345a226106208201527f207374796c653d2266696c6c3a236666663b222f3e3c2f673e000000000000006106408201527f3c673e3c7061746820643d226d39372e34392c3433332e343263312e36362e336106598201527f362c332e33392e35332c352e30352e37312c322e352e31382c352e30352e31386106798201527f2c372e35352e30362c322e30322d2e31322c342e312d2e332c362e31322d2e376106998201527f372e38392c312e30372c312e35352c322e33322c322e31342c332e35372d2e376106b98201527f312e32342d312e34332e34382d322e31342e35392d322e30382e34322d342e316106d98201527f362e35392d362e32342e37312d312e34332e30362d322e38352e31322d342e326106f98201527f382e30362d312e39362d2e30362d332e38362d2e31382d352e38322d2e34322d6107198201527f312e34392d2e31382d332e30332d2e34382d342e34362d2e39352e34382d312e6107398201527f32352c312e31392d322e34342c322e30382d332e353768305a22207374796c656107598201527f3d2266696c6c3a236666663b222f3e3c7061746820643d226d39342e35372c346107798201527f33392e3036632e34382e30362e38392e332c312e33372e33362c322e30382e346107998201527f382c342e32382e37312c362e34382e38332c332e36332e32342c372e33312e316107b98201527f382c31302e39392d2e31382c312e392d2e31382c332e38362d2e34382c352e376107d98201527f312d312e30372e34322c312e33312e37312c322e36312e38392c332e39382d346107f98201527f2e39332c312e33312d31302e31362c312e35352d31352e32312c312e34332d336108198201527f2e382d2e31322d372e34392d2e34382d31312e31372d312e34392e31322d2e396108398201527f352e332d312e38342e35332d322e37332e31322d2e332e32342d2e37312e34326108598201527f2d312e313368305a22207374796c653d2266696c6c3a236666663b222f3e3c706108798201527f61746820643d226d3130392e34392c3435302e373763332e35372e31322c372e6108998201527f30372e35332c31302e35322c312e34332d2e31382c312e33372d2e34382c322e6108b98201527f36372d2e38392c332e39382d312e30312d2e332d312e39362d2e35332d332e306108d98201527f332d2e37312d322e352d2e34322d342e39392d2e35332d372e34392d2e36352d6108f98201527f322e38352d2e30362d352e36352c302d382e352e332d312e392e31382d332e376109198201527f342e34382d352e35332c312e30372d2e34322d312e33312d2e37312d322e36316109398201527f2d2e38392d332e39382c322e37332d2e37312c352e35392d312e31332c382e336109598201527f382d312e33312c322e34342d2e31382c342e39332d2e31382c372e34332d2e316109798201527f3268305a22207374796c653d2266696c6c3a236666663b222f3e3c70617468206109998201527f643d226d3131322e30352c3435372e313363322e30382e31382c342e32382e346109b98201527f382c362e332c312e31392d2e35392c312e33312d312e32352c322e352d322e316109d98201527f342c332e35372d322e35362d2e36352d352e32392d2e37372d372e392d2e38336109f98201527f2d332e35372d2e30362d372e33312c302d31302e37362e38332d2e38392d312e610a198201527f30372d312e35352d322e33322d322e31342d332e35372c322e31342d2e37372c610a398201527f342e35322d312e30312c362e37382d312e31392c332e32372d2e332c362e3534610a598201527f2d2e332c392e38372c3068305a22207374796c653d2266696c6c3a236666663b610a798201526a11179f1e17b39f1e17b39f60a91b610a998201526000610aa482016101c0565b60008251615bd3818460208701612c1e565b9190910192915050565b6000600019821415615bf157615bf1613116565b5060010190565b600082615c0757615c076135c9565b500690565b60008351615c1e818460208801612c1e565b600160fd1b9083019081528351615c3c816001840160208801612c1e565b01600101949350505050565b600060ff821660ff811415615c5f57615c5f613116565b60010192915050565b600060ff821660ff841680821015615c8257615c82613116565b90039392505050565b600060ff821660ff84168060ff03821115615ca857615ca8613116565b019392505050565b600060ff821680615cc357615cc3613116565b600019019291505056fe3c2f747370616e3e3c2f746578743e3c2f673e3c67207374796c653d2269736f4142434445464748494a4b4c4d4e4f505152535455565758595a6162636465666768696a6b6c6d6e6f707172737475767778797a303132333435363738392b2f6c6174696f6e3a69736f6c6174653b223e3c74657874207472616e73666f726da26469706673582212209e88f4ba33118de228c1b2b9cca7740a1c609ce041172119bb02f3495b51e16964736f6c63430008090033",
  "devdoc": {
    "kind": "dev",
    "methods": {},
    "version": 1
  },
  "userdoc": {
    "kind": "user",
    "methods": {},
    "version": 1
  },
  "storageLayout": {
    "storage": [],
    "types": null
  }
}