{
  "address": "0x9Ed6df33638ED66E6e0F78147C22d0027Cc7E864",
  "abi": [
    {
      "inputs": [
        {
          "internalType": "address",
          "name": "_baseAsset",
          "type": "address"
        },
        {
          "internalType": "address",
          "name": "_ensReverseRecords",
          "type": "address"
        }
      ],
      "stateMutability": "nonpayable",
      "type": "constructor"
    },
    {
      "inputs": [],
      "name": "baseAsset",
      "outputs": [
        {
          "internalType": "contract IERC20Metadata",
          "name": "",
          "type": "address"
        }
      ],
      "stateMutability": "view",
      "type": "function"
    },
    {
      "inputs": [],
      "name": "ensReverseRecords",
      "outputs": [
        {
          "internalType": "contract IReverseRecords",
          "name": "",
          "type": "address"
        }
      ],
      "stateMutability": "view",
      "type": "function"
    },
    {
      "inputs": [
        {
          "internalType": "address",
          "name": "_caskP2P",
          "type": "address"
        },
        {
          "internalType": "uint256",
          "name": "_tokenId",
          "type": "uint256"
        }
      ],
      "name": "tokenURI",
      "outputs": [
        {
          "internalType": "string",
          "name": "",
          "type": "string"
        }
      ],
      "stateMutability": "view",
      "type": "function"
    }
  ],
  "transactionHash": "0xca932934c055305a77cd90c2560a3234333a4467c7fa8e511f13b16871cfc095",
  "args": [
    "0x73F95e25EbEb2Cf013632eF4D8fa1DB6C0785B4B",
    "0x0000000000000000000000000000000000000000"
  ],
  "numDeployments": 2,
  "solcInputHash": "5b738659ed4a2de1a437949986a4a015",
  "bytecode": "0x60806040523480156200001157600080fd5b5060405162004e3038038062004e3083398101604081905262000034916200015c565b600080546001600160a01b0319166001600160a01b03841690811782556040805163313ce56760e01b8152905163313ce56791600480820192602092909190829003018186803b1580156200008857600080fd5b505afa1580156200009d573d6000803e3d6000fd5b505050506040513d601f19601f82011682018060405250810190620000c3919062000194565b60ff1611620001185760405162461bcd60e51b815260206004820152601360248201527f21494e56414c49445f424153455f415353455400000000000000000000000000604482015260640160405180910390fd5b600180546001600160a01b0319166001600160a01b039290921691909117905550620001c0565b80516001600160a01b03811681146200015757600080fd5b919050565b600080604083850312156200017057600080fd5b6200017b836200013f565b91506200018b602084016200013f565b90509250929050565b600060208284031215620001a757600080fd5b815160ff81168114620001b957600080fd5b9392505050565b614c6080620001d06000396000f3fe608060405234801561001057600080fd5b50600436106100415760003560e01c8063192ae16f14610046578063cdf456e114610076578063e9dc637514610089575b600080fd5b600154610059906001600160a01b031681565b6040516001600160a01b0390911681526020015b60405180910390f35b600054610059906001600160a01b031681565b61009c6100973660046123da565b6100a9565b60405161006d9190612436565b60405163a0b029a960e01b8152600481018290526060906000906001600160a01b0385169063a0b029a9906024016101806040518083038186803b1580156100f057600080fd5b505afa158015610104573d6000803e3d6000fd5b505050506040513d601f19601f82011682018060405250810190610128919061250d565b80519091506001600160a01b03166101785760405162461bcd60e51b815260206004820152600e60248201526d10a4a72b20a624a22faa27a5a2a760911b60448201526064015b60405180910390fd5b60006101848483610213565b90506000610192858461024f565b905060006101a86101a38786610441565b6104aa565b905060006101b68786610612565b90506101e6848483856040516020016101d294939291906125ed565b6040516020818303038152906040526104aa565b6040516020016101f691906126e0565b604051602081830303815290604052955050505050505b92915050565b60606102288260e0015163ffffffff16610808565b6040516020016102389190612725565b604051602081830303815290604052905092915050565b600080546040805163313ce56760e01b81529051606093926001600160a01b03169163313ce567916004808301926020929190829003018186803b15801561029657600080fd5b505afa1580156102aa573d6000803e3d6000fd5b505050506040513d601f19601f820116820180604052508101906102ce9190612761565b905060008060009054906101000a90046001600160a01b03166001600160a01b03166395d89b416040518163ffffffff1660e01b815260040160006040518083038186803b15801561031f57600080fd5b505afa158015610333573d6000803e3d6000fd5b505050506040513d6000823e601f3d908101601f1916820160405261035b91908101906127e8565b9050600061036c85600001516109d3565b61037b86604001518585610a0d565b61038887602001516109d3565b60405160200161039a9392919061281d565b604051602081830303815290604052905060006103c586600001516001600160a01b03166014610a43565b6103dd87602001516001600160a01b03166014610a43565b6103f08860e0015163ffffffff16610808565b604051602001610402939291906128eb565b6040516020818303038152906040529050818160405160200161042692919061298b565b60405160208183030381529060405294505050505092915050565b606061044d8383610be6565b6104578484610ed3565b6104618585611199565b61046b86866111dc565b6104758787611332565b61047f88886114a8565b61048989896117fb565b6104938a8a611972565b6040516020016102389897969594939291906129ba565b60608151600014156104ca57505060408051602081019091526000815290565b6000604051806060016040528060408152602001614beb60409139905060006003845160026104f99190612bdc565b6105039190612c0a565b61050e906004612c1e565b9050600061051d826020612bdc565b67ffffffffffffffff81111561053557610535612469565b6040519080825280601f01601f19166020018201604052801561055f576020820181803683370190505b509050818152600183018586518101602084015b818310156105cd5760039283018051603f601282901c811687015160f890811b8552600c83901c8216880151811b6001860152600683901c8216880151811b60028601529116860151901b93820193909352600401610573565b6003895106600181146105e757600281146105f857610604565b613d3d60f01b600119830152610604565b603d60f81b6000198301525b509398975050505050505050565b600080546040805163313ce56760e01b81529051606093926001600160a01b03169163313ce567916004808301926020929190829003018186803b15801561065957600080fd5b505afa15801561066d573d6000803e3d6000fd5b505050506040513d601f19601f820116820180604052508101906106919190612761565b905060008060009054906101000a90046001600160a01b03166001600160a01b03166395d89b416040518163ffffffff1660e01b815260040160006040518083038186803b1580156106e257600080fd5b505afa1580156106f6573d6000803e3d6000fd5b505050506040513d6000823e601f3d908101601f1916820160405261071e91908101906127e8565b9050600061072c8686611983565b61073f8660e0015163ffffffff16610808565b61074d876080015186611ab6565b600088606001511161077857604051806040016040528060018152602001600360fc1b815250610786565b610786886060015187611ab6565b6040516020016107999493929190612c3d565b604051602081830303815290604052905060006107b98660a00151611ad2565b86516107cf906001600160a01b03166014610a43565b6107e788602001516001600160a01b03166014610a43565b6107f5896040015188611ab6565b6040516020016104029493929190612dca565b606081610e101415610836575050604080518082019091526006815265486f75726c7960d01b602082015290565b816201518014156108625750506040805180820190915260058152644461696c7960d81b602082015290565b8162093a80141561088f5750506040805180820190915260068152655765656b6c7960d01b602082015290565b81622819a014156108bd5750506040805180820190915260078152664d6f6e74686c7960c81b602082015290565b81622820a814156108eb5750506040805180820190915260078152664d6f6e74686c7960c81b602082015290565b8162a06680141561091b575050604080518082019091526009815268517561727465726c7960b81b602082015290565b8162a082a0141561094b575050604080518082019091526009815268517561727465726c7960b81b602082015290565b816301e13380141561097b575050604080518082019091526008815267416e6e75616c6c7960c01b602082015290565b816301e187e014156109ab575050604080518082019091526008815267416e6e75616c6c7960c01b602082015290565b505060408051808201909152600c81526b506572696f646963616c6c7960a01b602082015290565b6001546060906001600160a01b031615610a045760006109f283611bd8565b805190915015610a025792915050565b505b61020d82611cce565b6060610a198484611f13565b82604051602001610a2b929190612f51565b60405160208183030381529060405290509392505050565b60606000610a52836002612c1e565b610a5d906002612bdc565b67ffffffffffffffff811115610a7557610a75612469565b6040519080825280601f01601f191660200182016040528015610a9f576020820181803683370190505b509050600360fc1b81600081518110610aba57610aba612f8d565b60200101906001600160f81b031916908160001a905350600f60fb1b81600181518110610ae957610ae9612f8d565b60200101906001600160f81b031916908160001a9053506000610b0d846002612c1e565b610b18906001612bdc565b90505b6001811115610b90576f181899199a1a9b1b9c1cb0b131b232b360811b85600f1660108110610b4c57610b4c612f8d565b1a60f81b828281518110610b6257610b62612f8d565b60200101906001600160f81b031916908160001a90535060049490941c93610b8981612fa3565b9050610b1b565b508315610bdf5760405162461bcd60e51b815260206004820181905260248201527f537472696e67733a20686578206c656e67746820696e73756666696369656e74604482015260640161016f565b9392505050565b6060604051602001610238907f3c646566733e3c6c696e6561724772616469656e742069643d226c696e65617281527f2d6772616469656e74222078313d22313435222079313d223530332e3336222060208201527f78323d22313435222079323d22322e373422206772616469656e745472616e7360408201527f666f726d3d227472616e736c6174652830203530332e333629207363616c652860608201527f31202d312922206772616469656e74556e6974733d227573657253706163654f60808201527f6e557365223e3c73746f70206f66667365743d222e3137222073746f702d636f60a08201527f6c6f723d2223323731623366222f3e3c73746f70206f66667365743d222e323560c08201527f222073746f702d636f6c6f723d2223323731623366222f3e3c73746f70206f6660e08201527f667365743d222e3331222073746f702d636f6c6f723d2223323731623366222f6101008201527f3e3c73746f70206f66667365743d222e3538222073746f702d636f6c6f723d226101208201527f23363434343939222f3e3c73746f70206f66667365743d222e3733222073746f6101408201527f702d636f6c6f723d2223383235386334222f3e3c73746f70206f66667365743d6101608201527f222e3736222073746f702d636f6c6f723d2223383235386334222f3e3c73746f6101808201527f70206f66667365743d222e3832222073746f702d636f6c6f723d2223363534346101a08201527f3939222f3e3c73746f70206f66667365743d222e3839222073746f702d636f6c6101c08201527f6f723d2223343332653638222f3e3c73746f70206f66667365743d222e3934226101e08201527f2073746f702d636f6c6f723d2223326532303461222f3e3c73746f70206f66666102008201527f7365743d222e3937222073746f702d636f6c6f723d2223323731623366222f3e6102208201527f3c2f6c696e6561724772616469656e743e3c2f646566733e00000000000000006102408201526102580190565b6060604051602001610238907f3c7061746820643d226d3239302c3436362e333763302c31382e38342d31372e81527f322c33342e32352d33382e32322c33342e32354833382e3232632d32312e303260208201527f2c302d33382e32322d31352e34312d33382e32322d33342e32355633342e323560408201527f43302c31352e34312c31372e322c302c33382e32322c30683231332e3535633260608201527f312e30322c302c33382e32322c31352e34312c33382e32322c33342e3235763460808201527f33322e313168305a22207374796c653d2266696c6c3a75726c28236c696e656160a08201527f722d6772616469656e74293b222f3e3c706174682069643d226672616d652d7060c08201527f6174682220643d226d3235352e32372c3438342e33324833332e3835632d313060e08201527f2e34322c302d31382e392d382e342d31382e392d31382e37335633332e3639636101008201527f302d31302e33332c382e34382d31382e37332c31382e392d31382e37336832326101208201527f312e34326331302e34322c302c31382e392c382e342c31382e392c31382e37336101408201527f763433312e3963302c31302e33332d382e34382c31382e37332d31382e392c316101608201527f382e37335a4d33332e38352c31352e37632d31302e30312c302d31382e31352c6101808201527f382e30372d31382e31352c31372e3938763433312e3963302c392e39322c382e6101a08201527f31342c31372e39382c31382e31352c31372e3938683232312e34326331302e306101c08201527f312c302c31382e31352d382e30372c31382e31352d31372e39385633332e36396101e08201527f63302d392e39322d382e31342d31372e39382d31382e31352d31372e393848336102008201527f332e38355a22207374796c653d2266696c6c3a236666663b222f3e000000000061022082015261023b0190565b60606111b382600001516001600160a01b03166014610a43565b6111cb83602001516001600160a01b03166014610a43565b604051602001610238929190612fba565b6060604051602001610238907f3c7265637420783d2239352e3136222077696474683d223130342e323122206881527f65696768743d2233342e333522207374796c653d2266696c6c3a23323731623360208201527f663b222f3e3c74657874207472616e73666f726d3d227472616e736c6174652860408201527f3134352032312e343229207363616c65282e393320312922207374796c653d2260608201527f66696c6c3a236666663b20666f6e742d66616d696c793a56657264616e612d4260808201527f6f6c642c2056657264616e613b20666f6e742d73697a653a31352e3870783b2060a08201527f666f6e742d7765696768743a3730303b223e3c747370616e20783d223022207960c08201527f3d22302220746578742d616e63686f723d226d6964646c65223e5032503c2f7460e08201526b39b830b71f1e17ba32bc3a1f60a11b61010082015261010c0190565b600080546040805163313ce56760e01b81529051606093926001600160a01b03169163313ce567916004808301926020929190829003018186803b15801561137957600080fd5b505afa15801561138d573d6000803e3d6000fd5b505050506040513d601f19601f820116820180604052508101906113b19190612761565b905060008060009054906101000a90046001600160a01b03166001600160a01b03166395d89b416040518163ffffffff1660e01b815260040160006040518083038186803b15801561140257600080fd5b505afa158015611416573d6000803e3d6000fd5b505050506040513d6000823e601f3d908101601f1916820160405261143e91908101906127e8565b905061144d84600001516109d3565b61145a85602001516109d3565b61146986604001518585610a0d565b61147c8760e0015163ffffffff16610808565b60405160200161148f94939291906132ec565b6040516020818303038152906040529250505092915050565b6060600182610140015160048111156114c3576114c361384b565b14156116535760405160200161163d907f3c70617468207374796c653d2266696c6c3a233334423230362220643d224d3181527f37352e312c3138322e32682d3634632d342e392c302d392d342d392d3976306360208201527f302d342e392c342d392c392d3968363463342e392c302c392c342c392c39763060408201527f433138342e312c3137382e312c3138302c3138322e322c3137352e312c31383260608201527f2e327a222f3e3c673e3c74657874207472616e73666f726d3d226d617472697860808201527f2831203020302031203132342e32353238203137372e3431343329222073747960a08201527f6c653d2266696c6c3a236666663b20666f6e742d66616d696c793a566572646160c08201527f6e612d426f6c642c2056657264616e613b20666f6e742d73697a653a3132707860e08201527f3b20666f6e742d7765696768743a3730303b223e4163746976653c2f74657874610100820152641f1e17b39f60d91b6101208201526101250190565b604051602081830303815290604052905061020d565b6002826101400151600481111561166c5761166c61384b565b14156117e65760405160200161163d907f3c70617468207374796c653d2266696c6c3a236436396532662220643d224d3181527f37352e312c3138322e32682d3634632d342e392c302d392d342d392d3976306360208201527f302d342e392c342d392c392d3968363463342e392c302c392c342c392c39763060408201527f433138342e312c3137382e312c3138302c3138322e322c3137352e312c31383260608201527f2e327a222f3e3c673e3c74657874207472616e73666f726d3d226d617472697860808201527f2831203020302031203132342e32353238203137372e3431343329222073747960a08201527f6c653d2266696c6c3a236666663b20666f6e742d66616d696c793a566572646160c08201527f6e612d426f6c642c2056657264616e613b20666f6e742d73697a653a3132707860e08201527f3b20666f6e742d7765696768743a3730303b223e5061757365643c2f74657874610100820152641f1e17b39f60d91b6101208201526101250190565b5060408051602081019091526000815261020d565b600080546040805163313ce56760e01b81529051606093926001600160a01b03169163313ce567916004808301926020929190829003018186803b15801561184257600080fd5b505afa158015611856573d6000803e3d6000fd5b505050506040513d601f19601f8201168201806040525081019061187a9190612761565b905060008060009054906101000a90046001600160a01b03166001600160a01b03166395d89b416040518163ffffffff1660e01b815260040160006040518083038186803b1580156118cb57600080fd5b505afa1580156118df573d6000803e3d6000fd5b505050506040513d6000823e601f3d908101601f1916820160405261190791908101906127e8565b90506119168460a00151611ad2565b600085606001511161194357604051806040016040528060038152602001624e2f4160e81b815250611961565b6119618560800151866060015161195a9190613861565b8484610a0d565b60405160200161148f929190613878565b606060405160200161023890613c1b565b60606001826101400151600481111561199e5761199e61384b565b14156119c7575060408051808201909152600681526541637469766560d01b602082015261020d565b600282610140015160048111156119e0576119e061384b565b1415611a09575060408051808201909152600681526514185d5cd95960d21b602082015261020d565b60038261014001516004811115611a2257611a2261384b565b1415611a4d575060408051808201909152600881526710d85b98d95b195960c21b602082015261020d565b60048261014001516004811115611a6657611a6661384b565b1415611a915750604080518082019091526008815267436f6d706c65746560c01b602082015261020d565b506040805180820190915260078152662ab735b737bbb760c91b602082015292915050565b6060611ac28383611f13565b6040516020016102389190614924565b606081611af65750506040805180820190915260018152600360fc1b602082015290565b8160005b8115611b205780611b0a81614940565b9150611b199050600a83612c0a565b9150611afa565b60008167ffffffffffffffff811115611b3b57611b3b612469565b6040519080825280601f01601f191660200182016040528015611b65576020820181803683370190505b5090505b8415611bd057611b7a600183613861565b9150611b87600a8661495b565b611b92906030612bdc565b60f81b818381518110611ba757611ba7612f8d565b60200101906001600160f81b031916908160001a905350611bc9600a86612c0a565b9450611b69565b949350505050565b60408051600180825281830190925260609160009190602080830190803683370190505090508281600081518110611c1257611c12612f8d565b6001600160a01b0392831660209182029290920101526001546040516332fe2d9b60e21b8152600092919091169063cbf8b66c90611c5490859060040161496f565b60006040518083038186803b158015611c6c57600080fd5b505afa158015611c80573d6000803e3d6000fd5b505050506040513d6000823e601f3d908101601f19168201604052611ca891908101906149bc565b905080600081518110611cbd57611cbd612f8d565b602002602001015192505050919050565b60408051600e8082528183019092526060916f181899199a1a9b1b9c1cb0b131b232b360811b91600091602082018180368337019050509050600360fc1b81600081518110611d1f57611d1f612f8d565b60200101906001600160f81b031916908160001a905350600f60fb1b81600181518110611d4e57611d4e612f8d565b60200101906001600160f81b031916908160001a905350601760f91b81600681518110611d7d57611d7d612f8d565b60200101906001600160f81b031916908160001a905350601760f91b81600781518110611dac57611dac612f8d565b60200101906001600160f81b031916908160001a905350601760f91b81600881518110611ddb57611ddb612f8d565b60200101906001600160f81b031916908160001a905350601760f91b81600981518110611e0a57611e0a612f8d565b60200101906001600160f81b031916908160001a90535061ffff609085901c1660055b6001811115611e91578382600f1660108110611e4b57611e4b612f8d565b1a60f81b838281518110611e6157611e61612f8d565b60200101906001600160f81b031916908160001a90535060049190911c9080611e8981612fa3565b915050611e2d565b5061ffff851660055b6001811115611f08578482600f1660108110611eb857611eb8612f8d565b1a60f81b84611ec8836008612bdc565b81518110611ed857611ed8612f8d565b60200101906001600160f81b031916908160001a90535060049190911c9080611f0081612fa3565b915050611e9a565b509195945050505050565b606082611f3d57506040805180820190915260068152650302e303030360d41b602082015261020d565b6000611f4a83600a614b56565b841090508360005b8115611f785780611f6281614b65565b9150611f719050600a83612c0a565b9150611f52565b611f83600182614b85565b9050600080611f92888461210e565b915091508015611faa5782611fa681614b65565b9350505b6040805160e081018252600080825260208201819052918101829052606081018290526080810182905260a0810182905260c081019190915285156120645760058460ff16101561200557612000886002614ba8565b61201a565b61200f8489614b85565b61201a906006614ba8565b60ff166020820152600260808201526120338489614b85565b61203e906001614ba8565b60ff1660a0820152602081015161205790600190614b85565b60ff1660408201526120ed565b61206f886004614ba8565b60ff168460ff16106120c1576120858885614b85565b612090906001614ba8565b60ff1660208201819052600560808301526120ad90600190614b85565b60ff1660a0820152600460408201526120ed565b60066020820152600560408201526120d98885614b85565b6120e4906001614ba8565b60ff1660608201525b82815285151560c08201526121018161219b565b9998505050505050505050565b600080600060058460ff1611156121425761212a600585614b85565b61213590600a614b56565b61213f9086612c0a565b94505b60006004612151600a8861495b565b11905061215f600a87612c0a565b9550801561217557612172866001612bdc565b95505b85620186a014156121925761218b600a87612c0a565b9550600191505b50939492505050565b60606000826020015160ff1667ffffffffffffffff8111156121bf576121bf612469565b6040519080825280601f01601f1916602001820160405280156121e9576020820181803683370190505b5090508260c001511561225557600360fc1b8160008151811061220e5761220e612f8d565b60200101906001600160f81b031916908160001a905350601760f91b8160018151811061223d5761223d612f8d565b60200101906001600160f81b031916908160001a9053505b608083015160ff165b60a084015161226e906001614ba8565b60ff168110156122b857603060f81b82828151811061228f5761228f612f8d565b60200101906001600160f81b031916908160001a905350806122b081614940565b91505061225e565b505b82511561020d576000836060015160ff161180156122e55750826060015160ff16836040015160ff16145b1561233657601760f91b8184604001805180919061230290614bcd565b60ff1660ff1681525060ff168151811061231e5761231e612f8d565b60200101906001600160f81b031916908160001a9053505b825160009061234790600a9061495b565b612352906030612bdc565b90508060f81b82856040015160ff168151811061237157612371612f8d565b60200101906001600160f81b031916908160001a905350600a8460000181815161239b9190612c0a565b9052508351156123bc57604084018051906123b582614bcd565b60ff169052505b506122ba565b6001600160a01b03811681146123d757600080fd5b50565b600080604083850312156123ed57600080fd5b82356123f8816123c2565b946020939093013593505050565b60005b83811015612421578181015183820152602001612409565b83811115612430576000848401525b50505050565b6020815260008251806020840152612455816040850160208701612406565b601f01601f19169190910160400192915050565b634e487b7160e01b600052604160045260246000fd5b604051610180810167ffffffffffffffff811182821017156124a3576124a3612469565b60405290565b604051601f8201601f1916810167ffffffffffffffff811182821017156124d2576124d2612469565b604052919050565b80516124e5816123c2565b919050565b805163ffffffff811681146124e557600080fd5b8051600581106124e557600080fd5b6000610180828403121561252057600080fd5b61252861247f565b612531836124da565b815261253f602084016124da565b602082015260408301516040820152606083015160608201526080830151608082015260a083015160a082015260c083015160c082015261258260e084016124ea565b60e08201526101006125958185016124ea565b908201526101206125a78482016124ea565b908201526101406125b98482016124fe565b90820152610160928301519281019290925250919050565b600081516125e3818560208601612406565b9290920192915050565b683d913730b6b2911d1160b91b81528451600090612612816009850160208a01612406565b71111610113232b9b1b934b83a34b7b7111d1160711b600991840191820152855161264481601b840160208a01612406565b7001116101130ba3a3934b13aba32b9911d1607d1b601b9290910191820152845161267681602c840160208901612406565b7f2c2022696d616765223a2022646174613a696d6167652f7376672b786d6c3b62602c929091019182015265185cd94d8d0b60d21b604c82015283516126c3816052840160208801612406565b61227d60f01b605292909101918201526054019695505050505050565b7f646174613a6170706c69636174696f6e2f6a736f6e3b6261736536342c00000081526000825161271881601d850160208701612406565b91909101601d0192915050565b73021b0b9b590283937ba37b1b7b6102819281016960651b815260008251612754816014850160208701612406565b9190910160140192915050565b60006020828403121561277357600080fd5b815160ff81168114610bdf57600080fd5b600082601f83011261279557600080fd5b815167ffffffffffffffff8111156127af576127af612469565b6127c2601f8201601f19166020016124a9565b8181528460208386010111156127d757600080fd5b611bd0826020830160208701612406565b6000602082840312156127fa57600080fd5b815167ffffffffffffffff81111561281157600080fd5b611bd084828501612784565b7f54686973204e465420726570726573656e747320612050325020706f7369746981527f6f6e20696e204361736b2050726f746f636f6c2c20776865726520000000000060208201526000845161287b81603b850160208901612406565b6b01034b99039b2b73234b733960a51b603b9184019182015284516128a7816047840160208901612406565b630103a37960e51b6047929091019182015283516128cc81604b840160208801612406565b64172e372e3760d91b604b929091019182015260500195945050505050565b6d0233937b69020b2323932b9b99d160951b81526000845161291481600e850160208901612406565b6d02e372a379020b2323932b9b99d160951b600e91840191820152845161294281601c840160208901612406565b6b02e3724b73a32b93b30b61d160a51b601c9290910191820152835161296f816028840160208801612406565b612e3760f11b60289290910191820152602a0195945050505050565b6000835161299d818460208801612406565b8351908301906129b1818360208801612406565b01949350505050565b7f3c7376672069643d224c617965725f312220786d6c6e733d22687474703a2f2f81527f7777772e77332e6f72672f323030302f7376672220786d6c6e733a786c696e6b60208201527f3d22687474703a2f2f7777772e77332e6f72672f313939392f786c696e6b222060408201527f76696577426f783d2230203020323930203530302e3632223e000000000000006060820152600060798a51612a658183860160208f01612406565b8a5190840190612a7b8184840160208f01612406565b8a51910190612a908184840160208e01612406565b8951910190612aa58184840160208d01612406565b8851910190612aba8184840160208c01612406565b612bb5612ba3612b9d612b3d612b37612ad788878901018e6125d1565b7f3c7265637420783d2232372220793d223230302e3736222077696474683d223281527f33332e313322206865696768743d222e373522207374796c653d2266696c6c3a60208201526711b333331d91179f60c11b604082015260480190565b8b6125d1565b7f3c7265637420783d2232372220793d223431352e3435222077696474683d223281527f33332e313322206865696768743d222e373522207374796c653d2266696c6c3a60208201526711b333331d91179f60c11b604082015260480190565b886125d1565b651e17b9bb339f60d11b815260060190565b9d9c50505050505050505050505050565b634e487b7160e01b600052601160045260246000fd5b60008219821115612bef57612bef612bc6565b500190565b634e487b7160e01b600052601260045260246000fd5b600082612c1957612c19612bf4565b500490565b6000816000190483118215151615612c3857612c38612bc6565b500290565b7f5b7b2274726169745f74797065223a2022537461747573222c202276616c7565815263111d101160e11b602082015260008551612c82816024850160208a01612406565b62089f4b60ea1b60249184019182018190527f7b2274726169745f74797065223a2022506572696f64222c202276616c7565226027830152621d101160e91b60478301528651612cd981604a850160208b01612406565b604a9201918201527f7b2274726169745f74797065223a202243757272656e7420416d6f756e74222c604d8201527f2022646973706c61795f74797065223a20226e756d626572222c202276616c75606d82015263032911d160e51b608d820152612dbf612d51612db9612d5f82609186018a6125d1565b611f4b60f21b815260020190565b7f7b2274726169745f74797065223a2022546f74616c20416d6f756e74222c202281527f646973706c61795f74797065223a20226e756d626572222c202276616c75652260208201526101d160f51b604082015260420190565b866125d1565b979650505050505050565b7f7b2274726169745f74797065223a20225061796d656e7473222c20226469737081527f6c61795f74797065223a20226e756d626572222c202276616c7565223a200000602082015260008551612e2881603e850160208a01612406565b611f4b60f21b603e918401918201527f7b2274726169745f74797065223a202246726f6d2041646472657373222c20226040820152683b30b63ab2911d101160b91b60608201528551612e82816069840160208a01612406565b7f227d2c7b2274726169745f74797065223a2022546f2041646472657373222c206069929091019182015269113b30b63ab2911d101160b11b60898201528451612ed3816093840160208901612406565b612f45612f37612f316093848601017f227d2c7b2274726169745f74797065223a2022416d6f756e74222c202264697381527f706c61795f74797065223a20226e756d626572222c202276616c7565223a20006020820152603f0190565b876125d1565b617d5d60f01b815260020190565b98975050505050505050565b60008351612f63818460208801612406565b600160fd1b9083019081528351612f81816001840160208801612406565b01600101949350505050565b634e487b7160e01b600052603260045260246000fd5b600081612fb257612fb2612bc6565b506000190190565b7f3c7465787420746578742d72656e646572696e673d226f7074696d697a65537081527f65656422207374796c653d2266696c6c3a236666663b20666f6e742d66616d6960208201527f6c793a56657264616e613b20666f6e742d73697a653a382e3870783b20666f6e60408201527f742d7765696768743a3230303b223e3c74657874506174682073746172744f6660608201527f667365743d2238252220786c696e6b3a687265663d22236672616d652d70617460808201527f682220636c6173733d227374343620737433382073743437223e46726f6d200060a0820152600083516130b08160bf850160208801612406565b7f3c616e696d6174652061646469746976653d2273756d2220617474726962757460bf918401918201527f654e616d653d2273746172744f6666736574222066726f6d3d2230252220746f60df8201527f3d22352522206475723d223330732220726570656174436f756e743d22696e6460ff8201527f6566696e69746522202f3e3c2f74657874506174683e3c2f746578743e3c746561011f8201527f787420746578742d72656e646572696e673d226f7074696d697a65537065656461013f8201527f22207374796c653d2266696c6c3a236666663b20666f6e742d66616d696c793a61015f8201527f56657264616e613b20666f6e742d73697a653a382e3870783b20666f6e742d7761017f8201527f65696768743a3230303b223e3c74657874506174682073746172744f6666736561019f8201527f743d223333252220786c696e6b3a687265663d22236672616d652d70617468226101bf8201527f20636c6173733d227374343620737433382073743437223e546f2000000000006101df8201526132e36132486101fa8301866125d1565b7f3c616e696d6174652061646469746976653d2273756d2220617474726962757481527f654e616d653d2273746172744f6666736574222066726f6d3d2230252220746f60208201527f3d22352522206475723d223330732220726570656174436f756e743d22696e6460408201527f6566696e69746522202f3e3c2f74657874506174683e3c2f746578743e0000006060820152607d0190565b95945050505050565b7f3c74657874207472616e73666f726d3d227472616e736c61746528313435203881527f302e362922207374796c653d2266696c6c3a236666663b20666f6e742d66616d60208201527f696c793a56657264616e612d426f6c642c2056657264616e613b20666f6e742d60408201527f73697a653a32322e343770783b20666f6e742d7765696768743a3730303b206960608201527f736f6c6174696f6e3a69736f6c6174653b223e3c747370616e20783d2230222060808201527f793d22302220746578742d616e63686f723d226d6964646c65223e000000000060a0820152600085516133e28160bb850160208a01612406565b7f3c2f747370616e3e3c2f746578743e3c7061746820643d226d3135312e30372c60bb918401918201527f39392e3334632d2e36342d2e36342d312e36352d2e36362d322e32362d2e303660db8201527f6c2d332e37352c332e3735762d392e383563302d2e37342d2e37342d312e333460fb8201527f2d312e36342d312e33342d2e392c302d312e36342e36312d312e36342c312e3361011b8201527f3476392e3835732d332e36322d332e36322d332e36322d332e3632632d2e353961013b8201527f2d2e362d312e362d2e35362d322e32342e30382d2e36342e36342d2e36372c3161015b8201527f2e36342d2e30382c322e32346c352e34312c352e34312e33362e33362c312e3861017b8201527f2c312e382c322e33312d322e333168306c352e33392d352e3339632e36312d2e61019b8201527f36312e35382d312e36322d2e30362d322e32365a22207374796c653d2266696c6101bb8201527f6c3a236666663b222f3e3c74657874207472616e73666f726d3d227472616e736101db8201527f6c61746528313435203134312e33372922207374796c653d2266696c6c3a23666101fb8201527f66663b20666f6e742d66616d696c793a56657264616e612d426f6c642c20566561021b8201527f7264616e613b20666f6e742d73697a653a32322e343770783b20666f6e742d7761023b8201527f65696768743a3730303b223e3c747370616e20783d22302220793d223022207461025b8201527332bc3a16b0b731b437b91e9136b4b2323632911f60611b61027b820152612dbf613830612db961373b61373561364061028f87018c6125d1565b7f3c2f747370616e3e3c2f746578743e3c74657874207472616e73666f726d3d2281527f7472616e736c61746528313435203233302e3129207363616c65282e3933203160208201527f2922207374796c653d2266696c6c3a236666663b20666f6e742d66616d696c7960408201527f3a56657264616e612d426f6c642c2056657264616e613b20666f6e742d73697a60608201527f653a31382e323670783b20666f6e742d7765696768743a3730303b223e3c747360808201527f70616e20783d22302220793d22302220746578742d616e63686f723d226d696460a082015264323632911f60d91b60c082015260c50190565b896125d1565b7f3c2f747370616e3e3c2f746578743e3c74657874207472616e73666f726d3d2281527f7472616e736c61746528313435203235322e3129207363616c65282e3933203160208201527f2922207374796c653d2266696c6c3a236666663b20666f6e742d66616d696c7960408201527f3a56657264616e612d426f6c642c2056657264616e613b20666f6e742d73697a60608201527f653a31362e323670783b20666f6e742d7765696768743a3730303b223e3c747360808201527f70616e20783d22302220793d22302220746578742d616e63686f723d226d696460a082015264323632911f60d91b60c082015260c50190565b6e1e17ba39b830b71f1e17ba32bc3a1f60891b8152600f0190565b634e487b7160e01b600052602160045260246000fd5b60008282101561387357613873612bc6565b500390565b7f3c67207374796c653d2269736f6c6174696f6e3a69736f6c6174653b223e3c7481527f657874207472616e73666f726d3d227472616e736c6174652834322e3439203360208201527f30302e31362922207374796c653d2266696c6c3a236666663b20666f6e742d6660408201527f616d696c793a56657264616e612c2056657264616e613b20666f6e742d73697a60608201527f653a313070783b2069736f6c6174696f6e3a69736f6c6174653b223e3c74737060808201527f616e20783d22302220793d2230223e546f74616c205061796d656e74733c2f7460a08201527f7370616e3e3c2f746578743e3c74657874207472616e73666f726d3d2274726160c08201527f6e736c6174652834322e3538203331362e35332922207374796c653d2266696c60e08201527f6c3a236666663b20666f6e742d66616d696c793a56657264616e612d426f6c646101008201527f2c2056657264616e613b20666f6e742d73697a653a313170783b20666f6e742d6101208201527f7765696768743a3730303b223e3c747370616e20783d22302220793d2231223e6101408201526000611bd0613bfc613bf6613a336101608601886125d1565b7f3c2f747370616e3e3c2f746578743e3c2f673e3c67207374796c653d2269736f81527f6c6174696f6e3a69736f6c6174653b223e3c74657874207472616e73666f726d60208201527f3d227472616e736c617465283137372e3634203330302e31362922207374796c60408201527f653d2266696c6c3a236666663b20666f6e742d66616d696c793a56657264616e60608201527f612c2056657264616e613b20666f6e742d73697a653a313070783b2069736f6c60808201527f6174696f6e3a69736f6c6174653b223e3c747370616e20783d22302220793d2260a08201527f30223e52656d61696e696e673c2f747370616e3e3c2f746578743e3c7465787460c08201527f207472616e73666f726d3d227472616e736c617465283137362e34352033313660e08201527f2e35332922207374796c653d2266696c6c3a236666663b20666f6e742d66616d6101008201527f696c793a56657264616e612d426f6c642c2056657264616e613b20666f6e742d6101208201527f73697a653a313170783b20666f6e742d7765696768743a3730303b223e3c74736101408201526f3830b7103c1e911811103c9e9118911f60811b6101608201526101700190565b856125d1565b721e17ba39b830b71f1e17ba32bc3a1f1e17b39f60691b815260130190565b7f3c673e3c673e3c7061746820643d226d3133362e33352c3435382e3434632d3281527f2e36312c302d342e37352d2e38392d362e35342d322e36312d312e37322d312e60208201527f37322d322e36312d332e39322d322e36312d362e3438732e38392d342e37352c60408201527f322e36312d362e34382c332e39322d322e36312c362e35342d322e363163312e60608201527f36362c302c332e32312e34322c342e35382c312e31392c312e33372e38332c3260808201527f2e34342c312e392c332e30392c332e32376c2d332e32312c312e3834632d2e3460a08201527f322d2e38332d312e30312d312e34392d312e37382d312e3936732d312e37322d60c08201527f2e37312d322e37332d2e3731632d312e35352c302d322e37392e35332d332e3860e08201527f2c312e35352d312e30312c312e30312d312e35352c322e33322d312e35352c336101008201527f2e3836732e35332c322e38352c312e35352c332e38362c322e33322c312e35356101208201527f2c332e382c312e353563312e30312c302c312e392d2e32342c322e37332d2e376101408201527f3173312e34332d312e31332c312e38342d312e39366c332e32312c312e3834636101608201527f2d2e37312c312e33372d312e37382c322e352d332e31352c332e32372d312e336101808201527f372e38392d322e39312c312e33312d342e35382c312e33315a22207374796c656101a08201527f3d2266696c6c3a236666663b222f3e3c7061746820643d226d3135392e32392c6101c08201527f3434302e373368332e37347631372e3239682d332e3734762d322e35632d312e6101e08201527f34332c312e39362d332e34352c322e39312d362e30362c322e39312d322e33386102008201527f2c302d342e342d2e38392d362e30362d322e36312d312e36362d312e37382d326102208201527f2e352d332e39322d322e352d362e3432732e38332d342e36392c322e352d362e6102408201527f343863312e36362d312e37322c332e36382d322e36312c362e30362d322e36316102608201527f2c322e36312c302c342e36342e39352c362e30362c322e3931762d322e355a6d6102808201527f2d392e33392c31322e3663312e30312c312e30372c322e33322c312e35352c336102a08201527f2e39322c312e353573322e38352d2e35332c332e39322d312e353563312e30316102c08201527f2d312e30372c312e35352d322e33382c312e35352d332e3938732d2e35332d326102e08201527f2e39312d312e35352d332e39382d322e33322d312e35352d332e39322d312e356103008201527f352d322e38352e35332d332e39322c312e3535632d312e30312c312e30372d316103208201527f2e35352c322e33382d312e35352c332e3938732e35332c322e39312c312e35356103408201527f2c332e39385a22207374796c653d2266696c6c3a236666663b222f3e3c7061746103608201527f6820643d226d3136392e36392c3434352e343863302c2e35392e332c312e30316103808201527f2e39352c312e333773312e34332e35392c322e33322e3839632e38392e32342c6103a08201527f312e38342e35332c322e37332e383373312e37322e38392c322e33322c312e366103c08201527f36632e36352e37372e39352c312e37322e39352c322e39312c302c312e36362d6103e08201527f2e36352c322e39372d312e392c332e39322d312e33312e39352d322e39312c316104008201527f2e34332d342e38312c312e34332d312e37322c302d332e31352d2e33362d342e6104208201527f342d312e30372d312e32352d2e37312d322e30382d312e37322d322e36372d326104408201527f2e39376c332e32312d312e3834632e35392c312e36362c312e392c322e352c336104608201527f2e38362c322e3573322e39312d2e36352c322e39312d312e393663302d2e35336104808201527f2d2e332d312e30312d2e39352d312e3337732d312e34332d2e36352d322e33326104a08201527f2d2e38392d312e38342d2e35332d322e37332d2e3833632d2e39352d2e332d316104c08201527f2e37322d2e38332d322e33322d312e362d2e36352d2e37372d2e39352d312e376104e08201527f322d2e39352d322e38352c302d312e362e35392d322e38352c312e38342d332e6105008201527f38362c312e31392d2e39352c322e37332d312e34332c342e35322d312e34332c6105208201527f312e34332c302c322e36372e332c332e382e393573312e39362c312e34392c326105408201527f2e35362c322e36316c2d332e31352c312e3738632d2e35392d312e33312d312e6105608201527f36362d312e39362d332e32372d312e39362d2e37312c302d312e33312e31382d6105808201527f312e37382e34382d2e34382e32342d2e37312e37312d2e37312c312e33315a226105a08201527f207374796c653d2266696c6c3a236666663b222f3e3c7061746820643d226d316105c08201527f39362e33382c3435372e3936682d342e34366c2d372e30372d372e393676372e6105e08201527f3936682d332e3734762d32342e313368332e37347631342e35366c362e37322d6106008201527f372e363168342e35386c2d372e36312c382e34342c372e38342c382e37345a226106208201527f207374796c653d2266696c6c3a236666663b222f3e3c2f673e000000000000006106408201527f3c673e3c7061746820643d226d39372e34392c3433332e343263312e36362e336106598201527f362c332e33392e35332c352e30352e37312c322e352e31382c352e30352e31386106798201527f2c372e35352e30362c322e30322d2e31322c342e312d2e332c362e31322d2e376106998201527f372e38392c312e30372c312e35352c322e33322c322e31342c332e35372d2e376106b98201527f312e32342d312e34332e34382d322e31342e35392d322e30382e34322d342e316106d98201527f362e35392d362e32342e37312d312e34332e30362d322e38352e31322d342e326106f98201527f382e30362d312e39362d2e30362d332e38362d2e31382d352e38322d2e34322d6107198201527f312e34392d2e31382d332e30332d2e34382d342e34362d2e39352e34382d312e6107398201527f32352c312e31392d322e34342c322e30382d332e353768305a22207374796c656107598201527f3d2266696c6c3a236666663b222f3e3c7061746820643d226d39342e35372c346107798201527f33392e3036632e34382e30362e38392e332c312e33372e33362c322e30382e346107998201527f382c342e32382e37312c362e34382e38332c332e36332e32342c372e33312e316107b98201527f382c31302e39392d2e31382c312e392d2e31382c332e38362d2e34382c352e376107d98201527f312d312e30372e34322c312e33312e37312c322e36312e38392c332e39382d346107f98201527f2e39332c312e33312d31302e31362c312e35352d31352e32312c312e34332d336108198201527f2e382d2e31322d372e34392d2e34382d31312e31372d312e34392e31322d2e396108398201527f352e332d312e38342e35332d322e37332e31322d2e332e32342d2e37312e34326108598201527f2d312e313368305a22207374796c653d2266696c6c3a236666663b222f3e3c706108798201527f61746820643d226d3130392e34392c3435302e373763332e35372e31322c372e6108998201527f30372e35332c31302e35322c312e34332d2e31382c312e33372d2e34382c322e6108b98201527f36372d2e38392c332e39382d312e30312d2e332d312e39362d2e35332d332e306108d98201527f332d2e37312d322e352d2e34322d342e39392d2e35332d372e34392d2e36352d6108f98201527f322e38352d2e30362d352e36352c302d382e352e332d312e392e31382d332e376109198201527f342e34382d352e35332c312e30372d2e34322d312e33312d2e37312d322e36316109398201527f2d2e38392d332e39382c322e37332d2e37312c352e35392d312e31332c382e336109598201527f382d312e33312c322e34342d2e31382c342e39332d2e31382c372e34332d2e316109798201527f3268305a22207374796c653d2266696c6c3a236666663b222f3e3c70617468206109998201527f643d226d3131322e30352c3435372e313363322e30382e31382c342e32382e346109b98201527f382c362e332c312e31392d2e35392c312e33312d312e32352c322e352d322e316109d98201527f342c332e35372d322e35362d2e36352d352e32392d2e37372d372e392d2e38336109f98201527f2d332e35372d2e30362d372e33312c302d31302e37362e38332d2e38392d312e610a198201527f30372d312e35352d322e33322d322e31342d332e35372c322e31342d2e37372c610a398201527f342e35322d312e30312c362e37382d312e31392c332e32372d2e332c362e3534610a598201527f2d2e332c392e38372c3068305a22207374796c653d2266696c6c3a236666663b610a798201526a11179f1e17b39f1e17b39f60a91b610a998201526000610aa4820161020d565b60008251614936818460208701612406565b9190910192915050565b600060001982141561495457614954612bc6565b5060010190565b60008261496a5761496a612bf4565b500690565b6020808252825182820181905260009190848201906040850190845b818110156149b05783516001600160a01b03168352928401929184019160010161498b565b50909695505050505050565b600060208083850312156149cf57600080fd5b825167ffffffffffffffff808211156149e757600080fd5b818501915085601f8301126149fb57600080fd5b815181811115614a0d57614a0d612469565b8060051b614a1c8582016124a9565b9182528381018501918581019089841115614a3657600080fd5b86860192505b8383101561210157825185811115614a545760008081fd5b614a628b89838a0101612784565b8352509186019190860190614a3c565b600181815b80851115614aad578160001904821115614a9357614a93612bc6565b80851615614aa057918102915b93841c9390800290614a77565b509250929050565b600082614ac45750600161020d565b81614ad15750600061020d565b8160018114614ae75760028114614af157614b0d565b600191505061020d565b60ff841115614b0257614b02612bc6565b50506001821b61020d565b5060208310610133831016604e8410600b8410161715614b30575081810a61020d565b614b3a8383614a72565b8060001904821115614b4e57614b4e612bc6565b029392505050565b6000610bdf60ff841683614ab5565b600060ff821660ff811415614b7c57614b7c612bc6565b60010192915050565b600060ff821660ff841680821015614b9f57614b9f612bc6565b90039392505050565b600060ff821660ff84168060ff03821115614bc557614bc5612bc6565b019392505050565b600060ff821680614be057614be0612bc6565b600019019291505056fe4142434445464748494a4b4c4d4e4f505152535455565758595a6162636465666768696a6b6c6d6e6f707172737475767778797a303132333435363738392b2fa264697066735822122036b2d7d0194700c5a360f59997fa9cfd90a14a0e483c482264e627b9aa5268a164736f6c63430008090033",
  "devdoc": {
    "kind": "dev",
    "methods": {},
    "version": 1
  },
  "userdoc": {
    "kind": "user",
    "methods": {},
    "version": 1
  },
  "storageLayout": {
    "storage": [
      {
        "astId": 23659,
        "contract": "contracts/p2p/P2PNFTRenderer.sol:P2PNFTRenderer",
        "label": "baseAsset",
        "offset": 0,
        "slot": "0",
        "type": "t_contract(IERC20Metadata)4344"
      },
      {
        "astId": 23662,
        "contract": "contracts/p2p/P2PNFTRenderer.sol:P2PNFTRenderer",
        "label": "ensReverseRecords",
        "offset": 0,
        "slot": "1",
        "type": "t_contract(IReverseRecords)23654"
      }
    ],
    "types": {
      "t_contract(IERC20Metadata)4344": {
        "encoding": "inplace",
        "label": "contract IERC20Metadata",
        "numberOfBytes": "20"
      },
      "t_contract(IReverseRecords)23654": {
        "encoding": "inplace",
        "label": "contract IReverseRecords",
        "numberOfBytes": "20"
      }
    }
  }
}