{
  "address": "0x5C476cC271d6BddDCb191fB6899bB5a0563aAA82",
  "abi": [
    {
      "inputs": [
        {
          "internalType": "bytes",
          "name": "checkData",
          "type": "bytes"
        }
      ],
      "name": "checkUpkeep",
      "outputs": [
        {
          "internalType": "bool",
          "name": "upkeepNeeded",
          "type": "bool"
        },
        {
          "internalType": "bytes",
          "name": "performData",
          "type": "bytes"
        }
      ],
      "stateMutability": "nonpayable",
      "type": "function"
    },
    {
      "inputs": [
        {
          "internalType": "bytes",
          "name": "performData",
          "type": "bytes"
        }
      ],
      "name": "performUpkeep",
      "outputs": [],
      "stateMutability": "nonpayable",
      "type": "function"
    }
  ],
  "transactionHash": "0x4b1703f6cf27eec4d5df5e354f522973dc6946dc1255888c2fb26ee1a5f8a3d0",
  "args": [],
  "numDeployments": 1,
  "solcInputHash": "de9958bb955aad0847ec69754b603da4",
  "bytecode": "0x608060405234801561001057600080fd5b50610285806100206000396000f3fe608060405234801561001057600080fd5b50600436106100365760003560e01c80634585e33b1461003b5780636e04ff0d14610050575b600080fd5b61004e610049366004610115565b61007a565b005b61006361005e366004610115565b6100cc565b604051610071929190610187565b60405180910390f35b6000610088828401846101e6565b905060005b818110156100c657426000806100a38484610215565b8152602081019190915260400160002055806100be81610234565b91505061008d565b50505050565b600060606001915083838080601f016020809104026020016040519081016040528093929190818152602001838380828437600092019190915250949792965091945050505050565b6000806020838503121561012857600080fd5b823567ffffffffffffffff8082111561014057600080fd5b818501915085601f83011261015457600080fd5b81358181111561016357600080fd5b86602082850101111561017557600080fd5b60209290920196919550909350505050565b821515815260006020604081840152835180604085015260005b818110156101bd578581018301518582016060015282016101a1565b818111156101cf576000606083870101525b50601f01601f191692909201606001949350505050565b6000602082840312156101f857600080fd5b5035919050565b634e487b7160e01b600052601160045260246000fd5b600081600019048311821515161561022f5761022f6101ff565b500290565b6000600019821415610248576102486101ff565b506001019056fea26469706673582212200b33c6a007a7750741e469dccef40630ad64655305e2dadcd728003050992d8364736f6c63430008090033",
  "devdoc": {
    "kind": "dev",
    "methods": {
      "checkUpkeep(bytes)": {
        "details": "To ensure that it is never called, you may want to add the cannotExecute modifier from KeeperBase to your implementation of this method.",
        "params": {
          "checkData": "specified in the upkeep registration so it is always the same for a registered upkeep. This can easilly be broken down into specific arguments using `abi.decode`, so multiple upkeeps can be registered on the same contract and easily differentiated by the contract."
        },
        "returns": {
          "performData": "bytes that the keeper should call performUpkeep with, if upkeep is needed. If you would like to encode data to decode later, try `abi.encode`.",
          "upkeepNeeded": "boolean to indicate whether the keeper should call performUpkeep or not."
        }
      },
      "performUpkeep(bytes)": {
        "details": "The input to this method should not be trusted, and the caller of the method should not even be restricted to any single registry. Anyone should be able call it, and the input should be validated, there is no guarantee that the data passed in is the performData returned from checkUpkeep. This could happen due to malicious keepers, racing keepers, or simply a state change while the performUpkeep transaction is waiting for confirmation. Always validate the data passed in.",
        "params": {
          "performData": "is the data which was passed back from the checkData simulation. If it is encoded, it can easily be decoded into other types by calling `abi.decode`. This data should not be trusted, and should be validated against the contract's current state."
        }
      }
    },
    "version": 1
  },
  "userdoc": {
    "kind": "user",
    "methods": {
      "checkUpkeep(bytes)": {
        "notice": "method that is simulated by the keepers to see if any work actually needs to be performed. This method does does not actually need to be executable, and since it is only ever simulated it can consume lots of gas."
      },
      "performUpkeep(bytes)": {
        "notice": "method that is actually executed by the keepers, via the registry. The data returned by the checkUpkeep simulation will be passed into this method to actually be executed."
      }
    },
    "version": 1
  },
  "storageLayout": {
    "storage": [
      {
        "astId": 18821,
        "contract": "contracts/mocks/WastefulUpkeep.sol:WastefulUpkeep",
        "label": "data",
        "offset": 0,
        "slot": "0",
        "type": "t_mapping(t_uint256,t_uint256)"
      }
    ],
    "types": {
      "t_mapping(t_uint256,t_uint256)": {
        "encoding": "mapping",
        "key": "t_uint256",
        "label": "mapping(uint256 => uint256)",
        "numberOfBytes": "32",
        "value": "t_uint256"
      },
      "t_uint256": {
        "encoding": "inplace",
        "label": "uint256",
        "numberOfBytes": "32"
      }
    }
  }
}