{
  "address": "0x7cDbD68304fa8F1204FaeeA51653924d256B6C65",
  "abi": [
    {
      "inputs": [],
      "stateMutability": "nonpayable",
      "type": "constructor"
    },
    {
      "anonymous": false,
      "inputs": [
        {
          "indexed": true,
          "internalType": "bytes32",
          "name": "dcaId",
          "type": "bytes32"
        },
        {
          "indexed": true,
          "internalType": "address",
          "name": "user",
          "type": "address"
        }
      ],
      "name": "DCACanceled",
      "type": "event"
    },
    {
      "anonymous": false,
      "inputs": [
        {
          "indexed": true,
          "internalType": "bytes32",
          "name": "dcaId",
          "type": "bytes32"
        },
        {
          "indexed": true,
          "internalType": "address",
          "name": "user",
          "type": "address"
        }
      ],
      "name": "DCACompleted",
      "type": "event"
    },
    {
      "anonymous": false,
      "inputs": [
        {
          "indexed": true,
          "internalType": "bytes32",
          "name": "dcaId",
          "type": "bytes32"
        },
        {
          "indexed": true,
          "internalType": "address",
          "name": "user",
          "type": "address"
        },
        {
          "indexed": true,
          "internalType": "address",
          "name": "to",
          "type": "address"
        },
        {
          "indexed": false,
          "internalType": "address",
          "name": "inputAsset",
          "type": "address"
        },
        {
          "indexed": false,
          "internalType": "address",
          "name": "outputAsset",
          "type": "address"
        },
        {
          "indexed": false,
          "internalType": "uint256",
          "name": "amount",
          "type": "uint256"
        },
        {
          "indexed": false,
          "internalType": "uint256",
          "name": "totalAmount",
          "type": "uint256"
        },
        {
          "indexed": false,
          "internalType": "uint32",
          "name": "period",
          "type": "uint32"
        }
      ],
      "name": "DCACreated",
      "type": "event"
    },
    {
      "anonymous": false,
      "inputs": [
        {
          "indexed": true,
          "internalType": "bytes32",
          "name": "dcaId",
          "type": "bytes32"
        },
        {
          "indexed": true,
          "internalType": "address",
          "name": "user",
          "type": "address"
        }
      ],
      "name": "DCAPaused",
      "type": "event"
    },
    {
      "anonymous": false,
      "inputs": [
        {
          "indexed": true,
          "internalType": "bytes32",
          "name": "dcaId",
          "type": "bytes32"
        },
        {
          "indexed": true,
          "internalType": "address",
          "name": "user",
          "type": "address"
        },
        {
          "indexed": false,
          "internalType": "uint256",
          "name": "amount",
          "type": "uint256"
        },
        {
          "indexed": false,
          "internalType": "uint256",
          "name": "buyQty",
          "type": "uint256"
        },
        {
          "indexed": false,
          "internalType": "uint256",
          "name": "fee",
          "type": "uint256"
        }
      ],
      "name": "DCAProcessed",
      "type": "event"
    },
    {
      "anonymous": false,
      "inputs": [
        {
          "indexed": true,
          "internalType": "bytes32",
          "name": "dcaId",
          "type": "bytes32"
        },
        {
          "indexed": true,
          "internalType": "address",
          "name": "user",
          "type": "address"
        }
      ],
      "name": "DCAResumed",
      "type": "event"
    },
    {
      "anonymous": false,
      "inputs": [
        {
          "indexed": true,
          "internalType": "bytes32",
          "name": "dcaId",
          "type": "bytes32"
        },
        {
          "indexed": true,
          "internalType": "address",
          "name": "user",
          "type": "address"
        },
        {
          "indexed": false,
          "internalType": "enum ICaskDCA.SkipReason",
          "name": "skipReason",
          "type": "uint8"
        }
      ],
      "name": "DCASkipped",
      "type": "event"
    },
    {
      "anonymous": false,
      "inputs": [
        {
          "indexed": true,
          "internalType": "address",
          "name": "previousOwner",
          "type": "address"
        },
        {
          "indexed": true,
          "internalType": "address",
          "name": "newOwner",
          "type": "address"
        }
      ],
      "name": "OwnershipTransferred",
      "type": "event"
    },
    {
      "anonymous": false,
      "inputs": [
        {
          "indexed": false,
          "internalType": "address",
          "name": "account",
          "type": "address"
        }
      ],
      "name": "Paused",
      "type": "event"
    },
    {
      "anonymous": false,
      "inputs": [
        {
          "indexed": false,
          "internalType": "address",
          "name": "account",
          "type": "address"
        }
      ],
      "name": "Unpaused",
      "type": "event"
    },
    {
      "inputs": [],
      "name": "assetsMerkleRoot",
      "outputs": [
        {
          "internalType": "bytes32",
          "name": "",
          "type": "bytes32"
        }
      ],
      "stateMutability": "view",
      "type": "function"
    },
    {
      "inputs": [
        {
          "internalType": "bytes32",
          "name": "_dcaId",
          "type": "bytes32"
        }
      ],
      "name": "cancelDCA",
      "outputs": [],
      "stateMutability": "nonpayable",
      "type": "function"
    },
    {
      "inputs": [
        {
          "internalType": "address[]",
          "name": "_assetSpec",
          "type": "address[]"
        },
        {
          "internalType": "bytes32[]",
          "name": "_merkleProof",
          "type": "bytes32[]"
        },
        {
          "internalType": "address",
          "name": "_to",
          "type": "address"
        },
        {
          "internalType": "uint256",
          "name": "_amount",
          "type": "uint256"
        },
        {
          "internalType": "uint256",
          "name": "_totalAmount",
          "type": "uint256"
        },
        {
          "internalType": "uint32",
          "name": "_period",
          "type": "uint32"
        },
        {
          "internalType": "uint256",
          "name": "_slippageBps",
          "type": "uint256"
        },
        {
          "internalType": "uint256",
          "name": "_minPrice",
          "type": "uint256"
        },
        {
          "internalType": "uint256",
          "name": "_maxPrice",
          "type": "uint256"
        }
      ],
      "name": "createDCA",
      "outputs": [
        {
          "internalType": "bytes32",
          "name": "",
          "type": "bytes32"
        }
      ],
      "stateMutability": "nonpayable",
      "type": "function"
    },
    {
      "inputs": [],
      "name": "dcaManager",
      "outputs": [
        {
          "internalType": "contract ICaskDCAManager",
          "name": "",
          "type": "address"
        }
      ],
      "stateMutability": "view",
      "type": "function"
    },
    {
      "inputs": [
        {
          "internalType": "bytes32",
          "name": "_dcaId",
          "type": "bytes32"
        }
      ],
      "name": "getDCA",
      "outputs": [
        {
          "components": [
            {
              "internalType": "address",
              "name": "user",
              "type": "address"
            },
            {
              "internalType": "address",
              "name": "to",
              "type": "address"
            },
            {
              "internalType": "address",
              "name": "router",
              "type": "address"
            },
            {
              "internalType": "address",
              "name": "priceFeed",
              "type": "address"
            },
            {
              "internalType": "uint256",
              "name": "amount",
              "type": "uint256"
            },
            {
              "internalType": "uint256",
              "name": "totalAmount",
              "type": "uint256"
            },
            {
              "internalType": "uint256",
              "name": "currentAmount",
              "type": "uint256"
            },
            {
              "internalType": "uint256",
              "name": "currentQty",
              "type": "uint256"
            },
            {
              "internalType": "uint256",
              "name": "numBuys",
              "type": "uint256"
            },
            {
              "internalType": "uint256",
              "name": "numSkips",
              "type": "uint256"
            },
            {
              "internalType": "uint256",
              "name": "slippageBps",
              "type": "uint256"
            },
            {
              "internalType": "uint256",
              "name": "maxPrice",
              "type": "uint256"
            },
            {
              "internalType": "uint256",
              "name": "minPrice",
              "type": "uint256"
            },
            {
              "internalType": "uint32",
              "name": "period",
              "type": "uint32"
            },
            {
              "internalType": "uint32",
              "name": "createdAt",
              "type": "uint32"
            },
            {
              "internalType": "uint32",
              "name": "processAt",
              "type": "uint32"
            },
            {
              "internalType": "enum ICaskDCA.DCAStatus",
              "name": "status",
              "type": "uint8"
            },
            {
              "internalType": "address[]",
              "name": "path",
              "type": "address[]"
            }
          ],
          "internalType": "struct ICaskDCA.DCA",
          "name": "",
          "type": "tuple"
        }
      ],
      "stateMutability": "view",
      "type": "function"
    },
    {
      "inputs": [
        {
          "internalType": "address",
          "name": "_user",
          "type": "address"
        },
        {
          "internalType": "uint256",
          "name": "_idx",
          "type": "uint256"
        }
      ],
      "name": "getUserDCA",
      "outputs": [
        {
          "internalType": "bytes32",
          "name": "",
          "type": "bytes32"
        }
      ],
      "stateMutability": "view",
      "type": "function"
    },
    {
      "inputs": [
        {
          "internalType": "address",
          "name": "_user",
          "type": "address"
        }
      ],
      "name": "getUserDCACount",
      "outputs": [
        {
          "internalType": "uint256",
          "name": "",
          "type": "uint256"
        }
      ],
      "stateMutability": "view",
      "type": "function"
    },
    {
      "inputs": [
        {
          "internalType": "bytes32",
          "name": "_assetsMerkleRoot",
          "type": "bytes32"
        }
      ],
      "name": "initialize",
      "outputs": [],
      "stateMutability": "nonpayable",
      "type": "function"
    },
    {
      "inputs": [
        {
          "internalType": "address",
          "name": "forwarder",
          "type": "address"
        }
      ],
      "name": "isTrustedForwarder",
      "outputs": [
        {
          "internalType": "bool",
          "name": "",
          "type": "bool"
        }
      ],
      "stateMutability": "view",
      "type": "function"
    },
    {
      "inputs": [
        {
          "internalType": "bytes32",
          "name": "_dcaId",
          "type": "bytes32"
        },
        {
          "internalType": "enum ICaskDCA.ManagerCommand",
          "name": "_command",
          "type": "uint8"
        }
      ],
      "name": "managerCommand",
      "outputs": [],
      "stateMutability": "nonpayable",
      "type": "function"
    },
    {
      "inputs": [
        {
          "internalType": "bytes32",
          "name": "_dcaId",
          "type": "bytes32"
        },
        {
          "internalType": "uint256",
          "name": "_amount",
          "type": "uint256"
        },
        {
          "internalType": "uint256",
          "name": "_buyQty",
          "type": "uint256"
        },
        {
          "internalType": "uint256",
          "name": "_fee",
          "type": "uint256"
        }
      ],
      "name": "managerProcessed",
      "outputs": [],
      "stateMutability": "nonpayable",
      "type": "function"
    },
    {
      "inputs": [
        {
          "internalType": "bytes32",
          "name": "_dcaId",
          "type": "bytes32"
        },
        {
          "internalType": "enum ICaskDCA.SkipReason",
          "name": "_skipReason",
          "type": "uint8"
        }
      ],
      "name": "managerSkipped",
      "outputs": [],
      "stateMutability": "nonpayable",
      "type": "function"
    },
    {
      "inputs": [],
      "name": "minAmount",
      "outputs": [
        {
          "internalType": "uint256",
          "name": "",
          "type": "uint256"
        }
      ],
      "stateMutability": "view",
      "type": "function"
    },
    {
      "inputs": [],
      "name": "minPeriod",
      "outputs": [
        {
          "internalType": "uint32",
          "name": "",
          "type": "uint32"
        }
      ],
      "stateMutability": "view",
      "type": "function"
    },
    {
      "inputs": [],
      "name": "minSlippage",
      "outputs": [
        {
          "internalType": "uint256",
          "name": "",
          "type": "uint256"
        }
      ],
      "stateMutability": "view",
      "type": "function"
    },
    {
      "inputs": [],
      "name": "owner",
      "outputs": [
        {
          "internalType": "address",
          "name": "",
          "type": "address"
        }
      ],
      "stateMutability": "view",
      "type": "function"
    },
    {
      "inputs": [],
      "name": "pause",
      "outputs": [],
      "stateMutability": "nonpayable",
      "type": "function"
    },
    {
      "inputs": [
        {
          "internalType": "bytes32",
          "name": "_dcaId",
          "type": "bytes32"
        }
      ],
      "name": "pauseDCA",
      "outputs": [],
      "stateMutability": "nonpayable",
      "type": "function"
    },
    {
      "inputs": [],
      "name": "paused",
      "outputs": [
        {
          "internalType": "bool",
          "name": "",
          "type": "bool"
        }
      ],
      "stateMutability": "view",
      "type": "function"
    },
    {
      "inputs": [],
      "name": "renounceOwnership",
      "outputs": [],
      "stateMutability": "nonpayable",
      "type": "function"
    },
    {
      "inputs": [
        {
          "internalType": "bytes32",
          "name": "_dcaId",
          "type": "bytes32"
        }
      ],
      "name": "resumeDCA",
      "outputs": [],
      "stateMutability": "nonpayable",
      "type": "function"
    },
    {
      "inputs": [
        {
          "internalType": "bytes32",
          "name": "_assetsMerkleRoot",
          "type": "bytes32"
        }
      ],
      "name": "setAssetsMerkleRoot",
      "outputs": [],
      "stateMutability": "nonpayable",
      "type": "function"
    },
    {
      "inputs": [
        {
          "internalType": "address",
          "name": "_dcaManager",
          "type": "address"
        }
      ],
      "name": "setManager",
      "outputs": [],
      "stateMutability": "nonpayable",
      "type": "function"
    },
    {
      "inputs": [
        {
          "internalType": "uint256",
          "name": "_minAmount",
          "type": "uint256"
        }
      ],
      "name": "setMinAmount",
      "outputs": [],
      "stateMutability": "nonpayable",
      "type": "function"
    },
    {
      "inputs": [
        {
          "internalType": "uint32",
          "name": "_minPeriod",
          "type": "uint32"
        }
      ],
      "name": "setMinPeriod",
      "outputs": [],
      "stateMutability": "nonpayable",
      "type": "function"
    },
    {
      "inputs": [
        {
          "internalType": "uint256",
          "name": "_minSlippage",
          "type": "uint256"
        }
      ],
      "name": "setMinSlippage",
      "outputs": [],
      "stateMutability": "nonpayable",
      "type": "function"
    },
    {
      "inputs": [
        {
          "internalType": "address",
          "name": "_forwarder",
          "type": "address"
        }
      ],
      "name": "setTrustedForwarder",
      "outputs": [],
      "stateMutability": "nonpayable",
      "type": "function"
    },
    {
      "inputs": [
        {
          "internalType": "address",
          "name": "newOwner",
          "type": "address"
        }
      ],
      "name": "transferOwnership",
      "outputs": [],
      "stateMutability": "nonpayable",
      "type": "function"
    },
    {
      "inputs": [],
      "name": "trustedForwarder",
      "outputs": [
        {
          "internalType": "address",
          "name": "",
          "type": "address"
        }
      ],
      "stateMutability": "view",
      "type": "function"
    },
    {
      "inputs": [],
      "name": "unpause",
      "outputs": [],
      "stateMutability": "nonpayable",
      "type": "function"
    },
    {
      "inputs": [],
      "name": "versionRecipient",
      "outputs": [
        {
          "internalType": "string",
          "name": "",
          "type": "string"
        }
      ],
      "stateMutability": "pure",
      "type": "function"
    }
  ],
  "transactionHash": "0x1b30202ca2577332a92260c49ebc6d0ee4e86c4f7605d679edfe28a280664f03",
  "args": [],
  "numDeployments": 2,
  "solcInputHash": "cf865a655a3db25d0c2b85e41902f541",
  "bytecode": "0x60806040523480156200001157600080fd5b50600054610100900460ff166200002f5760005460ff161562000039565b62000039620000de565b620000a15760405162461bcd60e51b815260206004820152602e60248201527f496e697469616c697a61626c653a20636f6e747261637420697320616c72656160448201526d191e481a5b9a5d1a585b1a5e995960921b606482015260840160405180910390fd5b600054610100900460ff16158015620000c4576000805461ffff19166101011790555b8015620000d7576000805461ff00191690555b5062000102565b6000620000f630620000fc60201b620017c71760201c565b15905090565b3b151590565b61245180620001126000396000f3fe608060405234801561001057600080fd5b50600436106101e55760003560e01c80638da5cb5b1161010f578063c0677c47116100a2578063e3e01f9f11610071578063e3e01f9f14610423578063f2fde38b14610436578063f5f4bdb914610449578063ffd49c841461045c57600080fd5b8063c0677c47146103e1578063c453824f146103ea578063d0ebdbe7146103fd578063da7422281461041057600080fd5b8063abcfd154116100de578063abcfd15414610395578063b4cbc9e4146103a8578063b4e38a8d146103bb578063bd78b2b3146103ce57600080fd5b80638da5cb5b1461034857806392c65f4b146103595780639498bd71146103795780639b2cb5d81461038c57600080fd5b80635ba581cd116101875780637da0a877116101565780637da0a877146103095780638456cb591461031a57806387eb01bf14610322578063897b06371461033557600080fd5b80635ba581cd146102b85780635c975abb146102cb5780636a82763c146102d6578063715018a61461030157600080fd5b80633f4ba83a116101c35780633f4ba83a1461024e578063486ff0cd146102565780634b51dd221461027d578063572b6c051461028657600080fd5b806316ef2c41146101ea5780632a74cbb5146102265780632ce175781461023b575b600080fd5b6102136101f8366004611d6b565b6001600160a01b03166000908152609a602052604090205490565b6040519081526020015b60405180910390f35b610239610234366004611d8d565b610481565b005b610239610249366004611dc1565b61057a565b6102396105c8565b60408051808201825260058152640322e322e360dc1b6020820152905161021d9190611dda565b610213609b5481565b6102a8610294366004611d6b565b6097546001600160a01b0391821691161490565b604051901515815260200161021d565b6102396102c6366004611e2f565b61061b565b60655460ff166102a8565b6098546102e9906001600160a01b031681565b6040516001600160a01b03909116815260200161021d565b610239610746565b6097546001600160a01b03166102e9565b610239610799565b610239610330366004611dc1565b6107ea565b610239610343366004611dc1565b6108e8565b6033546001600160a01b03166102e9565b61036c610367366004611dc1565b610936565b60405161021d9190611ec6565b610239610387366004611dc1565b610ac1565b610213609c5481565b6102396103a3366004611dc1565b610bac565b6102396103b636600461201a565b610d4f565b6102136103c936600461204c565b610ef0565b6102396103dc366004611dc1565b610f2d565b610213609e5481565b6102396103f836600461208a565b611033565b61023961040b366004611d6b565b611098565b61023961041e366004611d6b565b611103565b610239610431366004611dc1565b61116d565b610239610444366004611d6b565b6111bb565b6102136104573660046120f1565b611272565b609d5461046c9063ffffffff1681565b60405163ffffffff909116815260200161021d565b6098546001600160a01b03166104956117cd565b6001600160a01b0316146104c45760405162461bcd60e51b81526004016104bb906121b3565b60405180910390fd5b6000828152609960205260409020600d8101546104f19063ffffffff80821691600160401b9004166121e8565b81600d0160086101000a81548163ffffffff021916908363ffffffff16021790555060018160090160008282546105289190612210565b909155505080546040516001600160a01b039091169084907f39e94fc57f494ff14c5e6240aaa121bb05346a3baf4434132df8f9075d5874919061056d908690612228565b60405180910390a3505050565b6105826117cd565b6001600160a01b031661059d6033546001600160a01b031690565b6001600160a01b0316146105c35760405162461bcd60e51b81526004016104bb90612242565b609b55565b6105d06117cd565b6001600160a01b03166105eb6033546001600160a01b031690565b6001600160a01b0316146106115760405162461bcd60e51b81526004016104bb90612242565b6106196117dc565b565b6098546001600160a01b031661062f6117cd565b6001600160a01b0316146106555760405162461bcd60e51b81526004016104bb906121b3565b6000828152609960205260409020600382600381111561067757610677611e58565b14156106d057600d8101805460ff60601b1916600160611b17905580546040516001600160a01b039091169084907f3d63c73b75a797c741bcfc0ae2644bc392388e97ea718a8731d44f47da2b23a490600090a3505050565b60018260038111156106e4576106e4611e58565b141561074157600d810180546003919060ff60601b1916600160601b835b021790555080546040516001600160a01b039091169084907f5d3baeac0d91b82fe19cca4c28f0768ed59c65d7f64d48d53f166f9ec0f099c090600090a35b505050565b61074e6117cd565b6001600160a01b03166107696033546001600160a01b031690565b6001600160a01b03161461078f5760405162461bcd60e51b81526004016104bb90612242565b6106196000611875565b6107a16117cd565b6001600160a01b03166107bc6033546001600160a01b031690565b6001600160a01b0316146107e25760405162461bcd60e51b81526004016104bb90612242565b6106196118c7565b60008181526099602052604090205481906001600160a01b031661080c6117cd565b6001600160a01b0316146108325760405162461bcd60e51b81526004016104bb906121b3565b60008281526099602052604090206001600d820154600160601b900460ff16600481111561086257610862611e58565b148061088d57506002600d820154600160601b900460ff16600481111561088b5761088b611e58565b145b6108cc5760405162461bcd60e51b815260206004820152601060248201526f21494e56414c4944287374617475732960801b60448201526064016104bb565b600d810180546003919060ff60601b1916600160601b83610702565b6108f06117cd565b6001600160a01b031661090b6033546001600160a01b031690565b6001600160a01b0316146109315760405162461bcd60e51b81526004016104bb90612242565b609c55565b61093e611c05565b60008281526099602090815260409182902082516102408101845281546001600160a01b03908116825260018301548116938201939093526002820154831693810193909352600381015490911660608301526004808201546080840152600582015460a0840152600682015460c0840152600782015460e084015260088201546101008401526009820154610120840152600a820154610140840152600b820154610160840152600c820154610180840152600d82015463ffffffff8082166101a0860152640100000000820481166101c0860152600160401b8204166101e0850152610200840191600160601b90910460ff1690811115610a4357610a43611e58565b6004811115610a5457610a54611e58565b8152602001600e8201805480602002602001604051908101604052809291908181526020018280548015610ab157602002820191906000526020600020905b81546001600160a01b03168152600190910190602001808311610a93575b5050505050815250509050919050565b600054610100900460ff16610adc5760005460ff1615610ae0565b303b155b610b435760405162461bcd60e51b815260206004820152602e60248201527f496e697469616c697a61626c653a20636f6e747261637420697320616c72656160448201526d191e481a5b9a5d1a585b1a5e995960921b60648201526084016104bb565b600054610100900460ff16158015610b65576000805461ffff19166101011790555b610b6d611943565b610b7561197a565b609b8290556001609c55609d805463ffffffff191662015180179055600a609e558015610ba8576000805461ff00191690555b5050565b60008181526099602052604090205481906001600160a01b0316610bce6117cd565b6001600160a01b031614610bf45760405162461bcd60e51b81526004016104bb906121b3565b60008281526099602052604090206002600d820154600160601b900460ff166004811115610c2457610c24611e58565b14610c5f5760405162461bcd60e51b815260206004820152600b60248201526a085393d517d4105554d15160aa1b60448201526064016104bb565b600d8101805460ff60601b1916600160601b179081905563ffffffff428116600160401b909204161015610cb357600d810180546bffffffff00000000000000001916600160401b4263ffffffff16021790555b609854604051637d0c250f60e11b8152600481018590526001600160a01b039091169063fa184a1e90602401600060405180830381600087803b158015610cf957600080fd5b505af1158015610d0d573d6000803e3d6000fd5b505082546040516001600160a01b0390911692508591507f0d04c91a4cb25e87e66b2337207d34bd31384c15371c944d543b0d90c866e32c90600090a3505050565b6098546001600160a01b0316610d636117cd565b6001600160a01b031614610d895760405162461bcd60e51b81526004016104bb906121b3565b6000848152609960205260409020600d810154610db69063ffffffff80821691600160401b9004166121e8565b81600d0160086101000a81548163ffffffff021916908363ffffffff16021790555083816006016000828254610dec9190612210565b9250508190555082816007016000828254610e079190612210565b925050819055506001816008016000828254610e239190612210565b9091555050805460408051868152602081018690529081018490526001600160a01b039091169086907f2cd977fbc4930a01c7a1d2d4f59916c67f5e443ee1b3efc3cf295b30b95499289060600160405180910390a360008160050154118015610e9557508060050154816006015410155b15610ee957600d8101805460ff60601b1916600160621b17905580546040516001600160a01b039091169086907fe91db046d37f56c01a0949ac11e488007e1e26ea683caaee32d54c4cea5d851b90600090a35b5050505050565b6001600160a01b0382166000908152609a60205260408120805483908110610f1a57610f1a612277565b9060005260206000200154905092915050565b60008181526099602052604090205481906001600160a01b0316610f4f6117cd565b6001600160a01b031614610f755760405162461bcd60e51b81526004016104bb906121b3565b60008281526099602052604090206001600d820154600160601b900460ff166004811115610fa557610fa5611e58565b14610fe05760405162461bcd60e51b815260206004820152600b60248201526a214e4f545f41435449564560a81b60448201526064016104bb565b600d8101805460ff60601b1916600160611b17905580546040516001600160a01b039091169084907f3d63c73b75a797c741bcfc0ae2644bc392388e97ea718a8731d44f47da2b23a490600090a3505050565b61103b6117cd565b6001600160a01b03166110566033546001600160a01b031690565b6001600160a01b03161461107c5760405162461bcd60e51b81526004016104bb90612242565b609d805463ffffffff191663ffffffff92909216919091179055565b6110a06117cd565b6001600160a01b03166110bb6033546001600160a01b031690565b6001600160a01b0316146110e15760405162461bcd60e51b81526004016104bb90612242565b609880546001600160a01b0319166001600160a01b0392909216919091179055565b61110b6117cd565b6001600160a01b03166111266033546001600160a01b031690565b6001600160a01b03161461114c5760405162461bcd60e51b81526004016104bb90612242565b609780546001600160a01b0319166001600160a01b03831617905550565b50565b6111756117cd565b6001600160a01b03166111906033546001600160a01b031690565b6001600160a01b0316146111b65760405162461bcd60e51b81526004016104bb90612242565b609e55565b6111c36117cd565b6001600160a01b03166111de6033546001600160a01b031690565b6001600160a01b0316146112045760405162461bcd60e51b81526004016104bb90612242565b6001600160a01b0381166112695760405162461bcd60e51b815260206004820152602660248201527f4f776e61626c653a206e6577206f776e657220697320746865207a65726f206160448201526564647265737360d01b60648201526084016104bb565b61116a81611875565b6000609c548710156112b95760405162461bcd60e51b815260206004820152601060248201526f21494e56414c494428616d6f756e742960801b60448201526064016104bb565b609d5463ffffffff90811690861610156113085760405162461bcd60e51b815260206004820152601060248201526f21494e56414c494428706572696f642960801b60448201526064016104bb565b609e548410156113525760405162461bcd60e51b815260206004820152601560248201527421494e56414c494428736c6970706167654270732960581b60448201526064016104bb565b60048b10156113995760405162461bcd60e51b815260206004820152601360248201527221494e56414c4944286173736574537065632960681b60448201526064016104bb565b6113a58c8c8c8c6119b1565b6113e75760405162461bcd60e51b815260206004820152601360248201527221494e56414c4944286173736574537065632960681b60448201526064016104bb565b60006113f16117cd565b8d8d8a89434260405160200161140d979695949392919061228d565b60408051601f198184030181529181528151602092830120600081815260999093529120909150429061143e6117cd565b81546001600160a01b03199081166001600160a01b03928316178355600183018054909116918d169190911790558e8e60008161147d5761147d612277565b90506020020160208101906114929190611d6b565b6002820180546001600160a01b0319166001600160a01b03929092169190911790558e8e60018181106114c7576114c7612277565b90506020020160208101906114dc9190611d6b565b8160030160006101000a8154816001600160a01b0302191690836001600160a01b031602179055508e8e60029080926115179392919061230b565b61152591600e840191611cd7565b50600481018a905560058101899055600d81018054600c8301889055600b8301879055600a830189905563ffffffff8a811667ffffffffffffffff1990921691909117640100000000918516918202176cffffffffff00000000000000001916600160401b9190910260ff60601b191617600160601b179055609a60006115aa6117cd565b6001600160a01b0390811682526020808301939093526040918201600090812080546001810182559082529390209092018590556098549051637d0c250f60e11b81526004810186905291169063fa184a1e90602401600060405180830381600087803b15801561161a57600080fd5b505af115801561162e573d6000803e3d6000fd5b506001925061163b915050565b600d820154600160601b900460ff16600481111561165b5761165b611e58565b146116995760405162461bcd60e51b815260206004820152600e60248201526d21554e50524f4345535341424c4560901b60448201526064016104bb565b80600801546001146116de5760405162461bcd60e51b815260206004820152600e60248201526d21554e50524f4345535341424c4560901b60448201526064016104bb565b60018101548154600e830180546001600160a01b03938416939092169186917f9d1e5b985dd0611bc11e93d5075cdea08f64d1d51dd07489e6f288c20cd666909160009061172e5761172e612277565b600091825260209091200154600e860180546001600160a01b039092169161175890600190612339565b8154811061176857611768612277565b60009182526020918290200154604080516001600160a01b039485168152939091169183019190915281018f9052606081018e905263ffffffff8d16608082015260a00160405180910390a450909d9c50505050505050505050505050565b3b151590565b60006117d7611a7e565b905090565b60655460ff166118255760405162461bcd60e51b815260206004820152601460248201527314185d5cd8589b194e881b9bdd081c185d5cd95960621b60448201526064016104bb565b6065805460ff191690557f5db9ee0a495bf2e6ff9c91a7834c1ba4fdd244a5e8aa4e537bd38aeae4b073aa6118586117cd565b6040516001600160a01b03909116815260200160405180910390a1565b603380546001600160a01b038381166001600160a01b0319831681179093556040519116919082907f8be0079c531659141344cd1fd0a4f28419497f9722a3daafe3b4186f6b6457e090600090a35050565b60655460ff161561190d5760405162461bcd60e51b815260206004820152601060248201526f14185d5cd8589b194e881c185d5cd95960821b60448201526064016104bb565b6065805460ff191660011790557f62e78cea01bee320cd4e420270b5ea74000d11b0c9f74754ebdbfc544b05a2586118586117cd565b600054610100900460ff1661196a5760405162461bcd60e51b81526004016104bb90612350565b611972611ab2565b610619611ad9565b600054610100900460ff166119a15760405162461bcd60e51b81526004016104bb90612350565b6119a9611ab2565b610619611b10565b6000611a758383808060200260200160405190810160405280939291908181526020018383602002808284376000920182905250609b5493508a9250899150816119fd576119fd612277565b9050602002016020810190611a129190611d6b565b88886001818110611a2557611a25612277565b9050602002016020810190611a3a9190611d6b565b611a47896002818d61230b565b604051602001611a5a949392919061239b565b60405160208183030381529060405280519060200120611b43565b95945050505050565b600060143610801590611a9b57506097546001600160a01b031633145b15611aad575060131936013560601c90565b503390565b600054610100900460ff166106195760405162461bcd60e51b81526004016104bb90612350565b600054610100900460ff16611b005760405162461bcd60e51b81526004016104bb90612350565b610619611b0b6117cd565b611875565b600054610100900460ff16611b375760405162461bcd60e51b81526004016104bb90612350565b6065805460ff19169055565b600082611b508584611b59565b14949350505050565b600081815b8451811015611bfd576000858281518110611b7b57611b7b612277565b60200260200101519050808311611bbd576040805160208101859052908101829052606001604051602081830303815290604052805190602001209250611bea565b60408051602081018390529081018490526060016040516020818303038152906040528051906020012092505b5080611bf581612400565b915050611b5e565b509392505050565b60405180610240016040528060006001600160a01b0316815260200160006001600160a01b0316815260200160006001600160a01b0316815260200160006001600160a01b03168152602001600081526020016000815260200160008152602001600081526020016000815260200160008152602001600081526020016000815260200160008152602001600063ffffffff168152602001600063ffffffff168152602001600063ffffffff16815260200160006004811115611cca57611cca611e58565b8152602001606081525090565b828054828255906000526020600020908101928215611d2a579160200282015b82811115611d2a5781546001600160a01b0319166001600160a01b03843516178255602090920191600190910190611cf7565b50611d36929150611d3a565b5090565b5b80821115611d365760008155600101611d3b565b80356001600160a01b0381168114611d6657600080fd5b919050565b600060208284031215611d7d57600080fd5b611d8682611d4f565b9392505050565b60008060408385031215611da057600080fd5b82359150602083013560068110611db657600080fd5b809150509250929050565b600060208284031215611dd357600080fd5b5035919050565b600060208083528351808285015260005b81811015611e0757858101830151858201604001528201611deb565b81811115611e19576000604083870101525b50601f01601f1916929092016040019392505050565b60008060408385031215611e4257600080fd5b82359150602083013560048110611db657600080fd5b634e487b7160e01b600052602160045260246000fd5b60058110611e7e57611e7e611e58565b9052565b600081518084526020808501945080840160005b83811015611ebb5781516001600160a01b031687529582019590820190600101611e96565b509495945050505050565b60208152611ee06020820183516001600160a01b03169052565b60006020830151611efc60408401826001600160a01b03169052565b5060408301516001600160a01b03811660608401525060608301516001600160a01b038116608084015250608083015160a08381019190915283015160c08084019190915283015160e08084019190915283015161010080840191909152830151610120808401919091528301516101408084019190915283015161016080840191909152830151610180808401919091528301516101a0808401919091528301516101c0611fb28185018363ffffffff169052565b84015190506101e0611fcb8482018363ffffffff169052565b8401519050610200611fe48482018363ffffffff169052565b8401519050610220611ff884820183611e6e565b840151610240848101529050612012610260840182611e82565b949350505050565b6000806000806080858703121561203057600080fd5b5050823594602084013594506040840135936060013592509050565b6000806040838503121561205f57600080fd5b61206883611d4f565b946020939093013593505050565b803563ffffffff81168114611d6657600080fd5b60006020828403121561209c57600080fd5b611d8682612076565b60008083601f8401126120b757600080fd5b50813567ffffffffffffffff8111156120cf57600080fd5b6020830191508360208260051b85010111156120ea57600080fd5b9250929050565b60008060008060008060008060008060006101208c8e03121561211357600080fd5b67ffffffffffffffff808d35111561212a57600080fd5b6121378e8e358f016120a5565b909c509a5060208d013581101561214d57600080fd5b5061215e8d60208e01358e016120a5565b909950975061216f60408d01611d4f565b965060608c0135955060808c0135945061218b60a08d01612076565b935060c08c0135925060e08c013591506101008c013590509295989b509295989b9093969950565b60208082526005908201526404282aaa8960db1b604082015260600190565b634e487b7160e01b600052601160045260246000fd5b600063ffffffff808316818516808303821115612207576122076121d2565b01949350505050565b60008219821115612223576122236121d2565b500190565b602081016006831061223c5761223c611e58565b91905290565b6020808252818101527f4f776e61626c653a2063616c6c6572206973206e6f7420746865206f776e6572604082015260600190565b634e487b7160e01b600052603260045260246000fd5b6bffffffffffffffffffffffff198860601b1681526000601482018860005b898110156122db576001600160a01b036122c583611d4f565b16835260209283019291909101906001016122ac565b5050958652505060e09290921b6001600160e01b0319166020840152602483015260448201526064019392505050565b6000808585111561231b57600080fd5b8386111561232857600080fd5b5050600583901b0193919092039150565b60008282101561234b5761234b6121d2565b500390565b6020808252602b908201527f496e697469616c697a61626c653a20636f6e7472616374206973206e6f74206960408201526a6e697469616c697a696e6760a81b606082015260800190565b6001600160a01b0385811682528481166020808401919091526060604084018190528301849052600091859160808501845b878110156123f257836123df86611d4f565b16825293820193908201906001016123cd565b509998505050505050505050565b6000600019821415612414576124146121d2565b506001019056fea26469706673582212206986c8c3994fe29e05b850bf7fb37fde0ea93d1857feb3f3942d1ae2a424920264736f6c63430008090033",
  "devdoc": {
    "kind": "dev",
    "methods": {
      "constructor": {
        "custom:oz-upgrades-unsafe-allow": "constructor"
      },
      "owner()": {
        "details": "Returns the address of the current owner."
      },
      "paused()": {
        "details": "Returns true if the contract is paused, and false otherwise."
      },
      "renounceOwnership()": {
        "details": "Leaves the contract without owner. It will not be possible to call `onlyOwner` functions anymore. Can only be called by the current owner. NOTE: Renouncing ownership will leave the contract without an owner, thereby removing any functionality that is only available to the owner."
      },
      "transferOwnership(address)": {
        "details": "Transfers ownership of the contract to a new account (`newOwner`). Can only be called by the current owner."
      }
    },
    "stateVariables": {
      "assetsMerkleRoot": {
        "details": "merkle root of approved assets. "
      },
      "dcaManager": {
        "details": "contract to manage DCA executions. "
      },
      "dcaMap": {
        "details": "map of DCA ID to DCA info. "
      },
      "minAmount": {
        "details": "minimum amount of vault base asset for a DCA. "
      },
      "minPeriod": {
        "details": "minimum period for a DCA. "
      },
      "minSlippage": {
        "details": "minimum slippage allowed for a DCA. "
      }
    },
    "version": 1
  },
  "userdoc": {
    "kind": "user",
    "methods": {
      "isTrustedForwarder(address)": {
        "notice": "return if the forwarder is trusted to forward relayed transactions to us. the forwarder is required to verify the sender's signature, and verify the call is not a replay."
      }
    },
    "version": 1
  },
  "storageLayout": {
    "storage": [
      {
        "astId": 327,
        "contract": "contracts/dca/CaskDCA.sol:CaskDCA",
        "label": "_initialized",
        "offset": 0,
        "slot": "0",
        "type": "t_bool"
      },
      {
        "astId": 330,
        "contract": "contracts/dca/CaskDCA.sol:CaskDCA",
        "label": "_initializing",
        "offset": 1,
        "slot": "0",
        "type": "t_bool"
      },
      {
        "astId": 2551,
        "contract": "contracts/dca/CaskDCA.sol:CaskDCA",
        "label": "__gap",
        "offset": 0,
        "slot": "1",
        "type": "t_array(t_uint256)50_storage"
      },
      {
        "astId": 205,
        "contract": "contracts/dca/CaskDCA.sol:CaskDCA",
        "label": "_owner",
        "offset": 0,
        "slot": "51",
        "type": "t_address"
      },
      {
        "astId": 319,
        "contract": "contracts/dca/CaskDCA.sol:CaskDCA",
        "label": "__gap",
        "offset": 0,
        "slot": "52",
        "type": "t_array(t_uint256)49_storage"
      },
      {
        "astId": 415,
        "contract": "contracts/dca/CaskDCA.sol:CaskDCA",
        "label": "_paused",
        "offset": 0,
        "slot": "101",
        "type": "t_bool"
      },
      {
        "astId": 506,
        "contract": "contracts/dca/CaskDCA.sol:CaskDCA",
        "label": "__gap",
        "offset": 0,
        "slot": "102",
        "type": "t_array(t_uint256)49_storage"
      },
      {
        "astId": 72,
        "contract": "contracts/dca/CaskDCA.sol:CaskDCA",
        "label": "_trustedForwarder",
        "offset": 0,
        "slot": "151",
        "type": "t_address"
      },
      {
        "astId": 10092,
        "contract": "contracts/dca/CaskDCA.sol:CaskDCA",
        "label": "dcaManager",
        "offset": 0,
        "slot": "152",
        "type": "t_contract(ICaskDCAManager)12632"
      },
      {
        "astId": 10098,
        "contract": "contracts/dca/CaskDCA.sol:CaskDCA",
        "label": "dcaMap",
        "offset": 0,
        "slot": "153",
        "type": "t_mapping(t_bytes32,t_struct(DCA)12451_storage)"
      },
      {
        "astId": 10103,
        "contract": "contracts/dca/CaskDCA.sol:CaskDCA",
        "label": "userDCAs",
        "offset": 0,
        "slot": "154",
        "type": "t_mapping(t_address,t_array(t_bytes32)dyn_storage)"
      },
      {
        "astId": 10106,
        "contract": "contracts/dca/CaskDCA.sol:CaskDCA",
        "label": "assetsMerkleRoot",
        "offset": 0,
        "slot": "155",
        "type": "t_bytes32"
      },
      {
        "astId": 10109,
        "contract": "contracts/dca/CaskDCA.sol:CaskDCA",
        "label": "minAmount",
        "offset": 0,
        "slot": "156",
        "type": "t_uint256"
      },
      {
        "astId": 10112,
        "contract": "contracts/dca/CaskDCA.sol:CaskDCA",
        "label": "minPeriod",
        "offset": 0,
        "slot": "157",
        "type": "t_uint32"
      },
      {
        "astId": 10115,
        "contract": "contracts/dca/CaskDCA.sol:CaskDCA",
        "label": "minSlippage",
        "offset": 0,
        "slot": "158",
        "type": "t_uint256"
      }
    ],
    "types": {
      "t_address": {
        "encoding": "inplace",
        "label": "address",
        "numberOfBytes": "20"
      },
      "t_array(t_address)dyn_storage": {
        "base": "t_address",
        "encoding": "dynamic_array",
        "label": "address[]",
        "numberOfBytes": "32"
      },
      "t_array(t_bytes32)dyn_storage": {
        "base": "t_bytes32",
        "encoding": "dynamic_array",
        "label": "bytes32[]",
        "numberOfBytes": "32"
      },
      "t_array(t_uint256)49_storage": {
        "base": "t_uint256",
        "encoding": "inplace",
        "label": "uint256[49]",
        "numberOfBytes": "1568"
      },
      "t_array(t_uint256)50_storage": {
        "base": "t_uint256",
        "encoding": "inplace",
        "label": "uint256[50]",
        "numberOfBytes": "1600"
      },
      "t_bool": {
        "encoding": "inplace",
        "label": "bool",
        "numberOfBytes": "1"
      },
      "t_bytes32": {
        "encoding": "inplace",
        "label": "bytes32",
        "numberOfBytes": "32"
      },
      "t_contract(ICaskDCAManager)12632": {
        "encoding": "inplace",
        "label": "contract ICaskDCAManager",
        "numberOfBytes": "20"
      },
      "t_enum(DCAStatus)12400": {
        "encoding": "inplace",
        "label": "enum ICaskDCA.DCAStatus",
        "numberOfBytes": "1"
      },
      "t_mapping(t_address,t_array(t_bytes32)dyn_storage)": {
        "encoding": "mapping",
        "key": "t_address",
        "label": "mapping(address => bytes32[])",
        "numberOfBytes": "32",
        "value": "t_array(t_bytes32)dyn_storage"
      },
      "t_mapping(t_bytes32,t_struct(DCA)12451_storage)": {
        "encoding": "mapping",
        "key": "t_bytes32",
        "label": "mapping(bytes32 => struct ICaskDCA.DCA)",
        "numberOfBytes": "32",
        "value": "t_struct(DCA)12451_storage"
      },
      "t_struct(DCA)12451_storage": {
        "encoding": "inplace",
        "label": "struct ICaskDCA.DCA",
        "members": [
          {
            "astId": 12414,
            "contract": "contracts/dca/CaskDCA.sol:CaskDCA",
            "label": "user",
            "offset": 0,
            "slot": "0",
            "type": "t_address"
          },
          {
            "astId": 12416,
            "contract": "contracts/dca/CaskDCA.sol:CaskDCA",
            "label": "to",
            "offset": 0,
            "slot": "1",
            "type": "t_address"
          },
          {
            "astId": 12418,
            "contract": "contracts/dca/CaskDCA.sol:CaskDCA",
            "label": "router",
            "offset": 0,
            "slot": "2",
            "type": "t_address"
          },
          {
            "astId": 12420,
            "contract": "contracts/dca/CaskDCA.sol:CaskDCA",
            "label": "priceFeed",
            "offset": 0,
            "slot": "3",
            "type": "t_address"
          },
          {
            "astId": 12422,
            "contract": "contracts/dca/CaskDCA.sol:CaskDCA",
            "label": "amount",
            "offset": 0,
            "slot": "4",
            "type": "t_uint256"
          },
          {
            "astId": 12424,
            "contract": "contracts/dca/CaskDCA.sol:CaskDCA",
            "label": "totalAmount",
            "offset": 0,
            "slot": "5",
            "type": "t_uint256"
          },
          {
            "astId": 12426,
            "contract": "contracts/dca/CaskDCA.sol:CaskDCA",
            "label": "currentAmount",
            "offset": 0,
            "slot": "6",
            "type": "t_uint256"
          },
          {
            "astId": 12428,
            "contract": "contracts/dca/CaskDCA.sol:CaskDCA",
            "label": "currentQty",
            "offset": 0,
            "slot": "7",
            "type": "t_uint256"
          },
          {
            "astId": 12430,
            "contract": "contracts/dca/CaskDCA.sol:CaskDCA",
            "label": "numBuys",
            "offset": 0,
            "slot": "8",
            "type": "t_uint256"
          },
          {
            "astId": 12432,
            "contract": "contracts/dca/CaskDCA.sol:CaskDCA",
            "label": "numSkips",
            "offset": 0,
            "slot": "9",
            "type": "t_uint256"
          },
          {
            "astId": 12434,
            "contract": "contracts/dca/CaskDCA.sol:CaskDCA",
            "label": "slippageBps",
            "offset": 0,
            "slot": "10",
            "type": "t_uint256"
          },
          {
            "astId": 12436,
            "contract": "contracts/dca/CaskDCA.sol:CaskDCA",
            "label": "maxPrice",
            "offset": 0,
            "slot": "11",
            "type": "t_uint256"
          },
          {
            "astId": 12438,
            "contract": "contracts/dca/CaskDCA.sol:CaskDCA",
            "label": "minPrice",
            "offset": 0,
            "slot": "12",
            "type": "t_uint256"
          },
          {
            "astId": 12440,
            "contract": "contracts/dca/CaskDCA.sol:CaskDCA",
            "label": "period",
            "offset": 0,
            "slot": "13",
            "type": "t_uint32"
          },
          {
            "astId": 12442,
            "contract": "contracts/dca/CaskDCA.sol:CaskDCA",
            "label": "createdAt",
            "offset": 4,
            "slot": "13",
            "type": "t_uint32"
          },
          {
            "astId": 12444,
            "contract": "contracts/dca/CaskDCA.sol:CaskDCA",
            "label": "processAt",
            "offset": 8,
            "slot": "13",
            "type": "t_uint32"
          },
          {
            "astId": 12447,
            "contract": "contracts/dca/CaskDCA.sol:CaskDCA",
            "label": "status",
            "offset": 12,
            "slot": "13",
            "type": "t_enum(DCAStatus)12400"
          },
          {
            "astId": 12450,
            "contract": "contracts/dca/CaskDCA.sol:CaskDCA",
            "label": "path",
            "offset": 0,
            "slot": "14",
            "type": "t_array(t_address)dyn_storage"
          }
        ],
        "numberOfBytes": "480"
      },
      "t_uint256": {
        "encoding": "inplace",
        "label": "uint256",
        "numberOfBytes": "32"
      },
      "t_uint32": {
        "encoding": "inplace",
        "label": "uint32",
        "numberOfBytes": "4"
      }
    }
  }
}