{
  "address": "0xFF19f3Af9326DAea0e1a85727C7e36ac9Fec9B56",
  "abi": [
    {
      "inputs": [],
      "stateMutability": "nonpayable",
      "type": "constructor"
    },
    {
      "anonymous": false,
      "inputs": [
        {
          "indexed": true,
          "internalType": "address",
          "name": "previousOwner",
          "type": "address"
        },
        {
          "indexed": true,
          "internalType": "address",
          "name": "newOwner",
          "type": "address"
        }
      ],
      "name": "OwnershipTransferred",
      "type": "event"
    },
    {
      "anonymous": false,
      "inputs": [
        {
          "indexed": false,
          "internalType": "address",
          "name": "account",
          "type": "address"
        }
      ],
      "name": "Paused",
      "type": "event"
    },
    {
      "anonymous": false,
      "inputs": [
        {
          "indexed": false,
          "internalType": "uint256",
          "name": "limit",
          "type": "uint256"
        },
        {
          "indexed": false,
          "internalType": "uint256",
          "name": "jobsProcessed",
          "type": "uint256"
        },
        {
          "indexed": false,
          "internalType": "uint256",
          "name": "depth",
          "type": "uint256"
        },
        {
          "indexed": false,
          "internalType": "uint8",
          "name": "queueId",
          "type": "uint8"
        },
        {
          "indexed": false,
          "internalType": "uint256",
          "name": "queueRemaining",
          "type": "uint256"
        },
        {
          "indexed": false,
          "internalType": "uint32",
          "name": "currentBucket",
          "type": "uint32"
        }
      ],
      "name": "QueueRunReport",
      "type": "event"
    },
    {
      "anonymous": false,
      "inputs": [
        {
          "indexed": false,
          "internalType": "address",
          "name": "account",
          "type": "address"
        }
      ],
      "name": "Unpaused",
      "type": "event"
    },
    {
      "anonymous": false,
      "inputs": [
        {
          "indexed": false,
          "internalType": "uint8",
          "name": "queueId",
          "type": "uint8"
        },
        {
          "indexed": false,
          "internalType": "bytes32",
          "name": "workUnit",
          "type": "bytes32"
        }
      ],
      "name": "WorkUnitProcessed",
      "type": "event"
    },
    {
      "anonymous": false,
      "inputs": [
        {
          "indexed": false,
          "internalType": "uint8",
          "name": "queueId",
          "type": "uint8"
        },
        {
          "indexed": false,
          "internalType": "bytes32",
          "name": "workUnit",
          "type": "bytes32"
        },
        {
          "indexed": false,
          "internalType": "uint32",
          "name": "processAt",
          "type": "uint32"
        }
      ],
      "name": "WorkUnitQueued",
      "type": "event"
    },
    {
      "inputs": [],
      "name": "caskP2P",
      "outputs": [
        {
          "internalType": "contract ICaskP2P",
          "name": "",
          "type": "address"
        }
      ],
      "stateMutability": "view",
      "type": "function"
    },
    {
      "inputs": [],
      "name": "caskVault",
      "outputs": [
        {
          "internalType": "contract ICaskVault",
          "name": "",
          "type": "address"
        }
      ],
      "stateMutability": "view",
      "type": "function"
    },
    {
      "inputs": [
        {
          "internalType": "bytes",
          "name": "checkData",
          "type": "bytes"
        }
      ],
      "name": "checkUpkeep",
      "outputs": [
        {
          "internalType": "bool",
          "name": "upkeepNeeded",
          "type": "bool"
        },
        {
          "internalType": "bytes",
          "name": "performData",
          "type": "bytes"
        }
      ],
      "stateMutability": "view",
      "type": "function"
    },
    {
      "inputs": [
        {
          "internalType": "address",
          "name": "_caskP2P",
          "type": "address"
        },
        {
          "internalType": "address",
          "name": "_caskVault",
          "type": "address"
        }
      ],
      "name": "initialize",
      "outputs": [],
      "stateMutability": "nonpayable",
      "type": "function"
    },
    {
      "inputs": [],
      "name": "maxQueueAge",
      "outputs": [
        {
          "internalType": "uint32",
          "name": "",
          "type": "uint32"
        }
      ],
      "stateMutability": "view",
      "type": "function"
    },
    {
      "inputs": [],
      "name": "maxSkips",
      "outputs": [
        {
          "internalType": "uint256",
          "name": "",
          "type": "uint256"
        }
      ],
      "stateMutability": "view",
      "type": "function"
    },
    {
      "inputs": [],
      "name": "owner",
      "outputs": [
        {
          "internalType": "address",
          "name": "",
          "type": "address"
        }
      ],
      "stateMutability": "view",
      "type": "function"
    },
    {
      "inputs": [],
      "name": "paused",
      "outputs": [
        {
          "internalType": "bool",
          "name": "",
          "type": "bool"
        }
      ],
      "stateMutability": "view",
      "type": "function"
    },
    {
      "inputs": [],
      "name": "paymentFee",
      "outputs": [
        {
          "internalType": "uint256",
          "name": "",
          "type": "uint256"
        }
      ],
      "stateMutability": "view",
      "type": "function"
    },
    {
      "inputs": [
        {
          "internalType": "bytes",
          "name": "performData",
          "type": "bytes"
        }
      ],
      "name": "performUpkeep",
      "outputs": [],
      "stateMutability": "nonpayable",
      "type": "function"
    },
    {
      "inputs": [],
      "name": "queueBucketSize",
      "outputs": [
        {
          "internalType": "uint32",
          "name": "",
          "type": "uint32"
        }
      ],
      "stateMutability": "view",
      "type": "function"
    },
    {
      "inputs": [
        {
          "internalType": "uint8",
          "name": "_queueId",
          "type": "uint8"
        },
        {
          "internalType": "uint32",
          "name": "_bucket",
          "type": "uint32"
        },
        {
          "internalType": "uint256",
          "name": "_idx",
          "type": "uint256"
        }
      ],
      "name": "queueItem",
      "outputs": [
        {
          "internalType": "bytes32",
          "name": "",
          "type": "bytes32"
        }
      ],
      "stateMutability": "view",
      "type": "function"
    },
    {
      "inputs": [
        {
          "internalType": "uint8",
          "name": "_queueId",
          "type": "uint8"
        }
      ],
      "name": "queuePosition",
      "outputs": [
        {
          "internalType": "uint32",
          "name": "",
          "type": "uint32"
        }
      ],
      "stateMutability": "view",
      "type": "function"
    },
    {
      "inputs": [
        {
          "internalType": "uint8",
          "name": "_queueId",
          "type": "uint8"
        },
        {
          "internalType": "uint32",
          "name": "_bucket",
          "type": "uint32"
        }
      ],
      "name": "queueSize",
      "outputs": [
        {
          "internalType": "uint256",
          "name": "",
          "type": "uint256"
        }
      ],
      "stateMutability": "view",
      "type": "function"
    },
    {
      "inputs": [
        {
          "internalType": "bytes32",
          "name": "_p2pId",
          "type": "bytes32"
        }
      ],
      "name": "registerP2P",
      "outputs": [],
      "stateMutability": "nonpayable",
      "type": "function"
    },
    {
      "inputs": [],
      "name": "renounceOwnership",
      "outputs": [],
      "stateMutability": "nonpayable",
      "type": "function"
    },
    {
      "inputs": [
        {
          "internalType": "uint32",
          "name": "_maxQueueAge",
          "type": "uint32"
        }
      ],
      "name": "setMaxQueueAge",
      "outputs": [],
      "stateMutability": "nonpayable",
      "type": "function"
    },
    {
      "inputs": [
        {
          "internalType": "uint256",
          "name": "_maxSkips",
          "type": "uint256"
        },
        {
          "internalType": "uint256",
          "name": "_paymentFee",
          "type": "uint256"
        },
        {
          "internalType": "uint32",
          "name": "_queueBucketSize",
          "type": "uint32"
        }
      ],
      "name": "setParameters",
      "outputs": [],
      "stateMutability": "nonpayable",
      "type": "function"
    },
    {
      "inputs": [
        {
          "internalType": "uint32",
          "name": "_queueBucketSize",
          "type": "uint32"
        }
      ],
      "name": "setQueueBucketSize",
      "outputs": [],
      "stateMutability": "nonpayable",
      "type": "function"
    },
    {
      "inputs": [
        {
          "internalType": "uint8",
          "name": "_queueId",
          "type": "uint8"
        },
        {
          "internalType": "uint32",
          "name": "_timestamp",
          "type": "uint32"
        }
      ],
      "name": "setQueuePosition",
      "outputs": [],
      "stateMutability": "nonpayable",
      "type": "function"
    },
    {
      "inputs": [
        {
          "internalType": "address",
          "name": "newOwner",
          "type": "address"
        }
      ],
      "name": "transferOwnership",
      "outputs": [],
      "stateMutability": "nonpayable",
      "type": "function"
    }
  ],
  "transactionHash": "0x0426400e63737f60d583ef7ab35de8e7065727d938280419568b52daff5486fa",
  "args": [],
  "numDeployments": 1,
  "solcInputHash": "873f50d7fe8c2b1591fd7e8c0948cdfc",
  "bytecode": "0x60806040523480156200001157600080fd5b50600054610100900460ff166200002f5760005460ff161562000039565b62000039620000de565b620000a15760405162461bcd60e51b815260206004820152602e60248201527f496e697469616c697a61626c653a20636f6e747261637420697320616c72656160448201526d191e481a5b9a5d1a585b1a5e995960921b606482015260840160405180910390fd5b600054610100900460ff16158015620000c4576000805461ffff19166101011790555b8015620000d7576000805461ff00191690555b5062000102565b6000620000f630620000fc60201b62000c191760201c565b15905090565b3b151590565b61186980620001126000396000f3fe608060405234801561001057600080fd5b50600436106101375760003560e01c8063729d8107116100b8578063aa878f761161007c578063aa878f76146102a4578063b12ed58a146102b7578063c5064653146102ca578063c6f8806c146102d3578063cd48a614146102eb578063f2fde38b146102fe57600080fd5b8063729d81071461023657806374cd40a3146102495780638bddd2e41461025c5780638da5cb5b1461026c578063a47755d11461029157600080fd5b8063485cc955116100ff578063485cc955146101db5780635c975abb146101ee5780636e04ff0d146102045780636ef06a0814610225578063715018a61461022e57600080fd5b80630caae41d1461013c57806314fad707146101515780631c39033c1461017757806335937ff4146101b55780634585e33b146101c8575b600080fd5b61014f61014a3660046112b0565b610311565b005b61016461015f3660046112e7565b61037c565b6040519081526020015b60405180910390f35b6101a0610185366004611326565b60ff16600090815260cb602052604090205463ffffffff1690565b60405163ffffffff909116815260200161016e565b61014f6101c3366004611348565b6103c5565b61014f6101d6366004611361565b610475565b61014f6101e93660046113e8565b6107b8565b60975460ff16604051901515815260200161016e565b610217610212366004611361565b6108b8565b60405161016e929190611416565b61016460cf5481565b61014f610a37565b61014f610244366004611475565b610a6d565b61014f610257366004611492565b610abf565b60c9546101a09063ffffffff1681565b6065546001600160a01b03165b6040516001600160a01b03909116815260200161016e565b60cd54610279906001600160a01b031681565b6101646102b23660046112b0565b610b0d565b60cc54610279906001600160a01b031681565b61016460ce5481565b60c9546101a090640100000000900463ffffffff1681565b61014f6102f9366004611475565b610b38565b61014f61030c3660046114cb565b610b7e565b6065546001600160a01b031633146103445760405162461bcd60e51b815260040161033b906114e8565b60405180910390fd5b61034d81610c1f565b60ff92909216600090815260cb60205260409020805463ffffffff191663ffffffff9093169290921790915550565b60ff8316600090815260ca6020908152604080832063ffffffff8616845290915281208054839081106103b1576103b161151d565b906000526020600020015490509392505050565b600260015414156104185760405162461bcd60e51b815260206004820152601f60248201527f5265656e7472616e637947756172643a207265656e7472616e742063616c6c00604482015260640161033b565b600260015560975460ff16156104635760405162461bcd60e51b815260206004820152601060248201526f14185d5cd8589b194e881c185d5cd95960821b604482015260640161033b565b61046e600182610c49565b5060018055565b60975460ff16156104bb5760405162461bcd60e51b815260206004820152601060248201526f14185d5cd8589b194e881c185d5cd95960821b604482015260640161033b565b600080806104cb84860186611533565b92509250925060006104db610f11565b90506000806104eb86600561157e565b60ff8516600090815260cb602052604090205490915063ffffffff166105315760ff8416600090815260cb60205260409020805463ffffffff191663ffffffff85161790555b85821080156105405750600081115b8015610567575060ff8416600090815260cb602052604090205463ffffffff808516911611155b156107265760ff8416600090815260ca6020908152604080832060cb83528184205463ffffffff16845290915290205480156106965760ff8516600090815260ca6020908152604080832060cb83528184205463ffffffff16845290915281206105d260018461159d565b815481106105e2576105e261151d565b600091825260208083209091015460ff8916835260ca8252604080842060cb84528185205463ffffffff168552909252912080549192509080610627576106276115b4565b600190038181906000526020600020016000905590556106478682610c49565b6040805160ff88168152602081018390527f58c7ae721fd25aaf84e68db9ce9ac6fed4f08438a370a4299d19f8c1425c499e910160405180910390a161068e6001856115ca565b935050610720565b60ff8516600090815260cb602052604090205463ffffffff8086169116101561071a5760c95460ff8616600090815260cb60205260408120805463ffffffff938416939192916106e8918591166115e2565b92506101000a81548163ffffffff021916908363ffffffff160217905550600182610713919061159d565b9150610720565b50610726565b50610531565b60ff8416600081815260ca6020908152604080832060cb8084528285205463ffffffff168086529184528285205494869052835281518b81529283018790528282018a90526060830194909452608082019290925260a0810192909252517fd69140f88b9a25350749bb371882f4479133fc8b65602aac60f6c1b3598f08329181900360c00190a15050505050505050565b600054610100900460ff166107d35760005460ff16156107d7565b303b155b61083a5760405162461bcd60e51b815260206004820152602e60248201527f496e697469616c697a61626c653a20636f6e747261637420697320616c72656160448201526d191e481a5b9a5d1a585b1a5e995960921b606482015260840161033b565b600054610100900460ff1615801561085c576000805461ffff19166101011790555b60cc80546001600160a01b038086166001600160a01b03199283161790925560cd805492851692909116919091179055600060ce81905560cf556108a1610e10610f39565b80156108b3576000805461ff00191690555b505050565b600060608180806108cb86880188611533565b92509250925060006108db610f11565b60ff8316600090815260cb602052604081205490975090915063ffffffff16806109025750805b8063ffffffff168263ffffffff161015801561093d575060c954640100000000900463ffffffff16610934828461160a565b63ffffffff1610155b1561094b57600196506109db565b8163ffffffff168163ffffffff16116109db5760ff8316600090815260ca6020908152604080832063ffffffff85168452909152902054158015906109b3575060ff8316600090815260ca6020908152604080832063ffffffff851684529091529020548411155b156109c157600196506109db565b60c9546109d49063ffffffff16826115e2565b905061094b565b60ff8316600081815260ca6020908152604080832063ffffffff86168452825291829020548251918201899052918101919091526060810191909152608001604051602081830303815290604052955050505050509250929050565b6065546001600160a01b03163314610a615760405162461bcd60e51b815260040161033b906114e8565b610a6b6000610f81565b565b6065546001600160a01b03163314610a975760405162461bcd60e51b815260040161033b906114e8565b60c9805463ffffffff9092166401000000000267ffffffff0000000019909216919091179055565b6065546001600160a01b03163314610ae95760405162461bcd60e51b815260040161033b906114e8565b60ce9290925560cf5560c9805463ffffffff191663ffffffff909216919091179055565b60ff8216600090815260ca6020908152604080832063ffffffff851684529091529020545b92915050565b6065546001600160a01b03163314610b625760405162461bcd60e51b815260040161033b906114e8565b60c9805463ffffffff191663ffffffff92909216919091179055565b6065546001600160a01b03163314610ba85760405162461bcd60e51b815260040161033b906114e8565b6001600160a01b038116610c0d5760405162461bcd60e51b815260206004820152602660248201527f4f776e61626c653a206e6577206f776e657220697320746865207a65726f206160448201526564647265737360d01b606482015260840161033b565b610c1681610f81565b50565b3b151590565b60c95460009063ffffffff16610c35818461162f565b610c3f908461160a565b610b3291906115e2565b60cc5460405163a0b029a960e01b8152600481018390526000916001600160a01b03169063a0b029a9906024016101606040518083038186803b158015610c8f57600080fd5b505afa158015610ca3573d6000803e3d6000fd5b505050506040513d601f19601f82011682018060405250810190610cc791906116bd565b905060018161014001516004811115610ce257610ce2611774565b14610cec57505050565b610120810151429063ffffffff80831691161115610d2257610d1c8484610d17856101200151610c1f565b610fd3565b50505050565b6040820151606083015115801590610d4c575082608001518360600151610d49919061159d565b81115b15610d685782608001518360600151610d65919061159d565b90505b610d728382611063565b15610e375760608301511580610d9a57508260600151818460800151610d9891906115ca565b105b15610dc157610dc18585610d178660e00151876101200151610dbc91906115e2565b610c1f565b60cc5460cf5460405163ded6da0160e01b8152600481018790526024810184905260448101919091526001600160a01b039091169063ded6da01906064015b600060405180830381600087803b158015610e1a57600080fd5b505af1158015610e2e573d6000803e3d6000fd5b50505050610f0a565b600060ce54118015610e4f575060ce548360c0015110155b15610e875760cc54604051635ba581cd60e01b81526001600160a01b0390911690635ba581cd90610e0090879060039060040161178a565b610ea48585610d178660e00151876101200151610dbc91906115e2565b60cc54604051635ba581cd60e01b81526001600160a01b0390911690635ba581cd90610ed790879060029060040161178a565b600060405180830381600087803b158015610ef157600080fd5b505af1158015610f05573d6000803e3d6000fd5b505050505b5050505050565b60c9546000904290610f299063ffffffff168261162f565b610f33908261160a565b91505090565b600054610100900460ff16610f605760405162461bcd60e51b815260040161033b906117bc565b610f68611123565b610f7061115a565b610f78611191565b610c16816111b8565b606580546001600160a01b038381166001600160a01b0319831681179093556040519116919082907f8be0079c531659141344cd1fd0a4f28419497f9722a3daafe3b4186f6b6457e090600090a35050565b60ff8316600090815260ca6020526040812090610fef83610c1f565b63ffffffff90811682526020808301939093526040918201600090812080546001810182559082529084902001859055815160ff87168152928301859052831682820152517f67778e52b18dcf574ab071142a886fce91a8ce5e60e176229fdadb8c063caaed9181900360600190a1505050565b60cd548251602084015160cf5460405163fcd6a25b60e01b81526001600160a01b0393841660048201529183166024830152604482018590526064820152600092919091169063fcd6a25b90608401600060405180830381600087803b1580156110cc57600080fd5b505af19250505080156110dd575060015b61111b573d80801561110b576040519150601f19603f3d011682016040523d82523d6000602084013e611110565b606091505b506000915050610b32565b506001610b32565b600054610100900460ff1661114a5760405162461bcd60e51b815260040161033b906117bc565b611152611191565b610a6b611225565b600054610100900460ff166111815760405162461bcd60e51b815260040161033b906117bc565b611189611191565b610a6b611255565b600054610100900460ff16610a6b5760405162461bcd60e51b815260040161033b906117bc565b600054610100900460ff166111df5760405162461bcd60e51b815260040161033b906117bc565b60c9805463ffffffff191663ffffffff8316908117909155611202906014611807565b60c960046101000a81548163ffffffff021916908363ffffffff16021790555050565b600054610100900460ff1661124c5760405162461bcd60e51b815260040161033b906117bc565b610a6b33610f81565b600054610100900460ff1661127c5760405162461bcd60e51b815260040161033b906117bc565b6097805460ff19169055565b803560ff8116811461129957600080fd5b919050565b63ffffffff81168114610c1657600080fd5b600080604083850312156112c357600080fd5b6112cc83611288565b915060208301356112dc8161129e565b809150509250929050565b6000806000606084860312156112fc57600080fd5b61130584611288565b925060208401356113158161129e565b929592945050506040919091013590565b60006020828403121561133857600080fd5b61134182611288565b9392505050565b60006020828403121561135a57600080fd5b5035919050565b6000806020838503121561137457600080fd5b823567ffffffffffffffff8082111561138c57600080fd5b818501915085601f8301126113a057600080fd5b8135818111156113af57600080fd5b8660208285010111156113c157600080fd5b60209290920196919550909350505050565b6001600160a01b0381168114610c1657600080fd5b600080604083850312156113fb57600080fd5b8235611406816113d3565b915060208301356112dc816113d3565b821515815260006020604081840152835180604085015260005b8181101561144c57858101830151858201606001528201611430565b8181111561145e576000606083870101525b50601f01601f191692909201606001949350505050565b60006020828403121561148757600080fd5b81356113418161129e565b6000806000606084860312156114a757600080fd5b833592506020840135915060408401356114c08161129e565b809150509250925092565b6000602082840312156114dd57600080fd5b8135611341816113d3565b6020808252818101527f4f776e61626c653a2063616c6c6572206973206e6f7420746865206f776e6572604082015260600190565b634e487b7160e01b600052603260045260246000fd5b60008060006060848603121561154857600080fd5b833592506020840135915061155f60408501611288565b90509250925092565b634e487b7160e01b600052601160045260246000fd5b600081600019048311821515161561159857611598611568565b500290565b6000828210156115af576115af611568565b500390565b634e487b7160e01b600052603160045260246000fd5b600082198211156115dd576115dd611568565b500190565b600063ffffffff80831681851680830382111561160157611601611568565b01949350505050565b600063ffffffff8381169083168181101561162757611627611568565b039392505050565b600063ffffffff8084168061165457634e487b7160e01b600052601260045260246000fd5b92169190910692915050565b604051610160810167ffffffffffffffff8111828210171561169257634e487b7160e01b600052604160045260246000fd5b60405290565b8051611299816113d3565b80516112998161129e565b80516005811061129957600080fd5b600061016082840312156116d057600080fd5b6116d8611660565b6116e183611698565b81526116ef60208401611698565b602082015260408301516040820152606083015160608201526080830151608082015260a083015160a082015260c083015160c082015261173260e084016116a3565b60e08201526101006117458185016116a3565b908201526101206117578482016116a3565b908201526101406117698482016116ae565b908201529392505050565b634e487b7160e01b600052602160045260246000fd5b82815260408101600483106117af57634e487b7160e01b600052602160045260246000fd5b8260208301529392505050565b6020808252602b908201527f496e697469616c697a61626c653a20636f6e7472616374206973206e6f74206960408201526a6e697469616c697a696e6760a81b606082015260800190565b600063ffffffff8083168185168183048111821515161561182a5761182a611568565b0294935050505056fea2646970667358221220a9b972d689bed38d97872ae53ea11efdfd0f89f60a7341cec9a49b2cf27ff49e64736f6c63430008090033",
  "devdoc": {
    "kind": "dev",
    "methods": {
      "checkUpkeep(bytes)": {
        "details": "To ensure that it is never called, you may want to add the cannotExecute modifier from KeeperBase to your implementation of this method.",
        "params": {
          "checkData": "specified in the upkeep registration so it is always the same for a registered upkeep. This can easilly be broken down into specific arguments using `abi.decode`, so multiple upkeeps can be registered on the same contract and easily differentiated by the contract."
        },
        "returns": {
          "performData": "bytes that the keeper should call performUpkeep with, if upkeep is needed. If you would like to encode data to decode later, try `abi.encode`.",
          "upkeepNeeded": "boolean to indicate whether the keeper should call performUpkeep or not."
        }
      },
      "constructor": {
        "custom:oz-upgrades-unsafe-allow": "constructor"
      },
      "owner()": {
        "details": "Returns the address of the current owner."
      },
      "paused()": {
        "details": "Returns true if the contract is paused, and false otherwise."
      },
      "performUpkeep(bytes)": {
        "details": "The input to this method should not be trusted, and the caller of the method should not even be restricted to any single registry. Anyone should be able call it, and the input should be validated, there is no guarantee that the data passed in is the performData returned from checkUpkeep. This could happen due to malicious keepers, racing keepers, or simply a state change while the performUpkeep transaction is waiting for confirmation. Always validate the data passed in.",
        "params": {
          "performData": "is the data which was passed back from the checkData simulation. If it is encoded, it can easily be decoded into other types by calling `abi.decode`. This data should not be trusted, and should be validated against the contract's current state."
        }
      },
      "renounceOwnership()": {
        "details": "Leaves the contract without owner. It will not be possible to call `onlyOwner` functions anymore. Can only be called by the current owner. NOTE: Renouncing ownership will leave the contract without an owner, thereby removing any functionality that is only available to the owner."
      },
      "transferOwnership(address)": {
        "details": "Transfers ownership of the contract to a new account (`newOwner`). Can only be called by the current owner."
      }
    },
    "stateVariables": {
      "caskP2P": {
        "details": "Pointer to CaskP2P contract "
      },
      "caskVault": {
        "details": "vault to use for P2P funding. "
      },
      "maxSkips": {
        "details": "max number of failed P2P purchases before P2P is permanently canceled. "
      },
      "paymentFee": {
        "details": "P2P transaction fee. "
      }
    },
    "version": 1
  },
  "userdoc": {
    "kind": "user",
    "methods": {
      "checkUpkeep(bytes)": {
        "notice": "method that is simulated by the keepers to see if any work actually needs to be performed. This method does does not actually need to be executable, and since it is only ever simulated it can consume lots of gas."
      },
      "performUpkeep(bytes)": {
        "notice": "method that is actually executed by the keepers, via the registry. The data returned by the checkUpkeep simulation will be passed into this method to actually be executed."
      }
    },
    "version": 1
  },
  "storageLayout": {
    "storage": [
      {
        "astId": 327,
        "contract": "contracts/p2p/CaskP2PManager.sol:CaskP2PManager",
        "label": "_initialized",
        "offset": 0,
        "slot": "0",
        "type": "t_bool"
      },
      {
        "astId": 330,
        "contract": "contracts/p2p/CaskP2PManager.sol:CaskP2PManager",
        "label": "_initializing",
        "offset": 1,
        "slot": "0",
        "type": "t_bool"
      },
      {
        "astId": 521,
        "contract": "contracts/p2p/CaskP2PManager.sol:CaskP2PManager",
        "label": "_status",
        "offset": 0,
        "slot": "1",
        "type": "t_uint256"
      },
      {
        "astId": 564,
        "contract": "contracts/p2p/CaskP2PManager.sol:CaskP2PManager",
        "label": "__gap",
        "offset": 0,
        "slot": "2",
        "type": "t_array(t_uint256)49_storage"
      },
      {
        "astId": 2551,
        "contract": "contracts/p2p/CaskP2PManager.sol:CaskP2PManager",
        "label": "__gap",
        "offset": 0,
        "slot": "51",
        "type": "t_array(t_uint256)50_storage"
      },
      {
        "astId": 205,
        "contract": "contracts/p2p/CaskP2PManager.sol:CaskP2PManager",
        "label": "_owner",
        "offset": 0,
        "slot": "101",
        "type": "t_address"
      },
      {
        "astId": 319,
        "contract": "contracts/p2p/CaskP2PManager.sol:CaskP2PManager",
        "label": "__gap",
        "offset": 0,
        "slot": "102",
        "type": "t_array(t_uint256)49_storage"
      },
      {
        "astId": 415,
        "contract": "contracts/p2p/CaskP2PManager.sol:CaskP2PManager",
        "label": "_paused",
        "offset": 0,
        "slot": "151",
        "type": "t_bool"
      },
      {
        "astId": 506,
        "contract": "contracts/p2p/CaskP2PManager.sol:CaskP2PManager",
        "label": "__gap",
        "offset": 0,
        "slot": "152",
        "type": "t_array(t_uint256)49_storage"
      },
      {
        "astId": 13591,
        "contract": "contracts/p2p/CaskP2PManager.sol:CaskP2PManager",
        "label": "queueBucketSize",
        "offset": 0,
        "slot": "201",
        "type": "t_uint32"
      },
      {
        "astId": 13594,
        "contract": "contracts/p2p/CaskP2PManager.sol:CaskP2PManager",
        "label": "maxQueueAge",
        "offset": 4,
        "slot": "201",
        "type": "t_uint32"
      },
      {
        "astId": 13602,
        "contract": "contracts/p2p/CaskP2PManager.sol:CaskP2PManager",
        "label": "queue",
        "offset": 0,
        "slot": "202",
        "type": "t_mapping(t_uint8,t_mapping(t_uint32,t_array(t_bytes32)dyn_storage))"
      },
      {
        "astId": 13606,
        "contract": "contracts/p2p/CaskP2PManager.sol:CaskP2PManager",
        "label": "queueBucket",
        "offset": 0,
        "slot": "203",
        "type": "t_mapping(t_uint8,t_uint32)"
      },
      {
        "astId": 15431,
        "contract": "contracts/p2p/CaskP2PManager.sol:CaskP2PManager",
        "label": "caskP2P",
        "offset": 0,
        "slot": "204",
        "type": "t_contract(ICaskP2P)12608"
      },
      {
        "astId": 15435,
        "contract": "contracts/p2p/CaskP2PManager.sol:CaskP2PManager",
        "label": "caskVault",
        "offset": 0,
        "slot": "205",
        "type": "t_contract(ICaskVault)13571"
      },
      {
        "astId": 15438,
        "contract": "contracts/p2p/CaskP2PManager.sol:CaskP2PManager",
        "label": "maxSkips",
        "offset": 0,
        "slot": "206",
        "type": "t_uint256"
      },
      {
        "astId": 15441,
        "contract": "contracts/p2p/CaskP2PManager.sol:CaskP2PManager",
        "label": "paymentFee",
        "offset": 0,
        "slot": "207",
        "type": "t_uint256"
      }
    ],
    "types": {
      "t_address": {
        "encoding": "inplace",
        "label": "address",
        "numberOfBytes": "20"
      },
      "t_array(t_bytes32)dyn_storage": {
        "base": "t_bytes32",
        "encoding": "dynamic_array",
        "label": "bytes32[]",
        "numberOfBytes": "32"
      },
      "t_array(t_uint256)49_storage": {
        "base": "t_uint256",
        "encoding": "inplace",
        "label": "uint256[49]",
        "numberOfBytes": "1568"
      },
      "t_array(t_uint256)50_storage": {
        "base": "t_uint256",
        "encoding": "inplace",
        "label": "uint256[50]",
        "numberOfBytes": "1600"
      },
      "t_bool": {
        "encoding": "inplace",
        "label": "bool",
        "numberOfBytes": "1"
      },
      "t_bytes32": {
        "encoding": "inplace",
        "label": "bytes32",
        "numberOfBytes": "32"
      },
      "t_contract(ICaskP2P)12608": {
        "encoding": "inplace",
        "label": "contract ICaskP2P",
        "numberOfBytes": "20"
      },
      "t_contract(ICaskVault)13571": {
        "encoding": "inplace",
        "label": "contract ICaskVault",
        "numberOfBytes": "20"
      },
      "t_mapping(t_uint32,t_array(t_bytes32)dyn_storage)": {
        "encoding": "mapping",
        "key": "t_uint32",
        "label": "mapping(uint32 => bytes32[])",
        "numberOfBytes": "32",
        "value": "t_array(t_bytes32)dyn_storage"
      },
      "t_mapping(t_uint8,t_mapping(t_uint32,t_array(t_bytes32)dyn_storage))": {
        "encoding": "mapping",
        "key": "t_uint8",
        "label": "mapping(uint8 => mapping(uint32 => bytes32[]))",
        "numberOfBytes": "32",
        "value": "t_mapping(t_uint32,t_array(t_bytes32)dyn_storage)"
      },
      "t_mapping(t_uint8,t_uint32)": {
        "encoding": "mapping",
        "key": "t_uint8",
        "label": "mapping(uint8 => uint32)",
        "numberOfBytes": "32",
        "value": "t_uint32"
      },
      "t_uint256": {
        "encoding": "inplace",
        "label": "uint256",
        "numberOfBytes": "32"
      },
      "t_uint32": {
        "encoding": "inplace",
        "label": "uint32",
        "numberOfBytes": "4"
      },
      "t_uint8": {
        "encoding": "inplace",
        "label": "uint8",
        "numberOfBytes": "1"
      }
    }
  }
}