{
  "address": "0xB8407928933eb3f4731912fC92b20F67146F9736",
  "abi": [
    {
      "inputs": [
        {
          "internalType": "uint256",
          "name": "amount",
          "type": "uint256"
        },
        {
          "internalType": "address",
          "name": "source",
          "type": "address"
        },
        {
          "internalType": "address",
          "name": "target",
          "type": "address"
        }
      ],
      "name": "swap",
      "outputs": [],
      "stateMutability": "nonpayable",
      "type": "function"
    }
  ],
  "transactionHash": "0xd47032ff572a5503910528373c71cb2b17b92ebc2ebb5fbe776d91c7eb5ac00c",
  "args": [],
  "numDeployments": 1,
  "solcInputHash": "7cefdf1870fe8121007619f1bae7798a",
  "bytecode": "0x608060405234801561001057600080fd5b50610209806100206000396000f3fe608060405234801561001057600080fd5b506004361061002b5760003560e01c80632b7f092314610030575b600080fd5b61004361003e36600461016e565b610045565b005b6040516323b872dd60e01b8152336004820152306024820152604481018490526001600160a01b038316906323b872dd90606401602060405180830381600087803b15801561009357600080fd5b505af11580156100a7573d6000803e3d6000fd5b505050506040513d601f19601f820116820180604052508101906100cb91906101aa565b5060405163a9059cbb60e01b8152336004820152602481018490526001600160a01b0382169063a9059cbb90604401602060405180830381600087803b15801561011457600080fd5b505af1158015610128573d6000803e3d6000fd5b505050506040513d601f19601f8201168201806040525081019061014c91906101aa565b50505050565b80356001600160a01b038116811461016957600080fd5b919050565b60008060006060848603121561018357600080fd5b8335925061019360208501610152565b91506101a160408501610152565b90509250925092565b6000602082840312156101bc57600080fd5b815180151581146101cc57600080fd5b939250505056fea26469706673582212201378c3df05ad15ccf357733df078408ce7f38fb61c1bc4b04f6a02731a8a42aa64736f6c63430008090033",
  "devdoc": {
    "kind": "dev",
    "methods": {},
    "version": 1
  },
  "userdoc": {
    "kind": "user",
    "methods": {},
    "version": 1
  },
  "storageLayout": {
    "storage": [],
    "types": null
  }
}