{
  "address": "0x5Ba28dEF5bB5A9A2A895Ff814DbC79D76c77472E",
  "abi": [
    {
      "inputs": [],
      "stateMutability": "nonpayable",
      "type": "constructor"
    },
    {
      "anonymous": false,
      "inputs": [
        {
          "indexed": true,
          "internalType": "address",
          "name": "protocol",
          "type": "address"
        }
      ],
      "name": "AddProtocol",
      "type": "event"
    },
    {
      "anonymous": false,
      "inputs": [
        {
          "indexed": true,
          "internalType": "address",
          "name": "asset",
          "type": "address"
        }
      ],
      "name": "AllowedAsset",
      "type": "event"
    },
    {
      "anonymous": false,
      "inputs": [
        {
          "indexed": true,
          "internalType": "address",
          "name": "owner",
          "type": "address"
        },
        {
          "indexed": true,
          "internalType": "address",
          "name": "spender",
          "type": "address"
        },
        {
          "indexed": false,
          "internalType": "uint256",
          "name": "value",
          "type": "uint256"
        }
      ],
      "name": "Approval",
      "type": "event"
    },
    {
      "anonymous": false,
      "inputs": [
        {
          "indexed": true,
          "internalType": "address",
          "name": "participant",
          "type": "address"
        },
        {
          "indexed": true,
          "internalType": "address",
          "name": "asset",
          "type": "address"
        },
        {
          "indexed": false,
          "internalType": "uint256",
          "name": "assetAmount",
          "type": "uint256"
        },
        {
          "indexed": false,
          "internalType": "uint256",
          "name": "baseAssetAmount",
          "type": "uint256"
        },
        {
          "indexed": false,
          "internalType": "uint256",
          "name": "shares",
          "type": "uint256"
        }
      ],
      "name": "AssetDeposited",
      "type": "event"
    },
    {
      "anonymous": false,
      "inputs": [
        {
          "indexed": true,
          "internalType": "address",
          "name": "participant",
          "type": "address"
        },
        {
          "indexed": true,
          "internalType": "address",
          "name": "asset",
          "type": "address"
        },
        {
          "indexed": false,
          "internalType": "uint256",
          "name": "assetAmount",
          "type": "uint256"
        },
        {
          "indexed": false,
          "internalType": "uint256",
          "name": "baseAssetAmount",
          "type": "uint256"
        },
        {
          "indexed": false,
          "internalType": "uint256",
          "name": "shares",
          "type": "uint256"
        }
      ],
      "name": "AssetWithdrawn",
      "type": "event"
    },
    {
      "anonymous": false,
      "inputs": [
        {
          "indexed": true,
          "internalType": "address",
          "name": "asset",
          "type": "address"
        }
      ],
      "name": "DisallowedAsset",
      "type": "event"
    },
    {
      "anonymous": false,
      "inputs": [
        {
          "indexed": false,
          "internalType": "uint8",
          "name": "version",
          "type": "uint8"
        }
      ],
      "name": "Initialized",
      "type": "event"
    },
    {
      "anonymous": false,
      "inputs": [
        {
          "indexed": true,
          "internalType": "address",
          "name": "previousOwner",
          "type": "address"
        },
        {
          "indexed": true,
          "internalType": "address",
          "name": "newOwner",
          "type": "address"
        }
      ],
      "name": "OwnershipTransferred",
      "type": "event"
    },
    {
      "anonymous": false,
      "inputs": [
        {
          "indexed": false,
          "internalType": "address",
          "name": "account",
          "type": "address"
        }
      ],
      "name": "Paused",
      "type": "event"
    },
    {
      "anonymous": false,
      "inputs": [
        {
          "indexed": true,
          "internalType": "address",
          "name": "from",
          "type": "address"
        },
        {
          "indexed": true,
          "internalType": "address",
          "name": "to",
          "type": "address"
        },
        {
          "indexed": false,
          "internalType": "uint256",
          "name": "baseAssetAmount",
          "type": "uint256"
        },
        {
          "indexed": false,
          "internalType": "uint256",
          "name": "shares",
          "type": "uint256"
        },
        {
          "indexed": false,
          "internalType": "uint256",
          "name": "protocolFee",
          "type": "uint256"
        },
        {
          "indexed": false,
          "internalType": "uint256",
          "name": "protocolFeeShares",
          "type": "uint256"
        },
        {
          "indexed": true,
          "internalType": "address",
          "name": "network",
          "type": "address"
        },
        {
          "indexed": false,
          "internalType": "uint256",
          "name": "networkFee",
          "type": "uint256"
        },
        {
          "indexed": false,
          "internalType": "uint256",
          "name": "networkFeeShares",
          "type": "uint256"
        }
      ],
      "name": "Payment",
      "type": "event"
    },
    {
      "anonymous": false,
      "inputs": [
        {
          "indexed": true,
          "internalType": "address",
          "name": "protocol",
          "type": "address"
        }
      ],
      "name": "RemoveProtocol",
      "type": "event"
    },
    {
      "anonymous": false,
      "inputs": [
        {
          "indexed": true,
          "internalType": "address",
          "name": "feeDistributor",
          "type": "address"
        }
      ],
      "name": "SetFeeDistributor",
      "type": "event"
    },
    {
      "anonymous": false,
      "inputs": [
        {
          "indexed": true,
          "internalType": "address",
          "name": "participant",
          "type": "address"
        },
        {
          "indexed": false,
          "internalType": "enum ICaskVault.FundingSource",
          "name": "fundingSource",
          "type": "uint8"
        },
        {
          "indexed": false,
          "internalType": "address",
          "name": "fundingAsset",
          "type": "address"
        }
      ],
      "name": "SetFundingSource",
      "type": "event"
    },
    {
      "anonymous": false,
      "inputs": [
        {
          "indexed": false,
          "internalType": "uint256",
          "name": "maxPriceFeedAge",
          "type": "uint256"
        }
      ],
      "name": "SetMaxPriceFeedAge",
      "type": "event"
    },
    {
      "anonymous": false,
      "inputs": [
        {
          "indexed": false,
          "internalType": "uint256",
          "name": "minDeposit",
          "type": "uint256"
        }
      ],
      "name": "SetMinDeposit",
      "type": "event"
    },
    {
      "anonymous": false,
      "inputs": [
        {
          "indexed": true,
          "internalType": "address",
          "name": "feeDistributor",
          "type": "address"
        }
      ],
      "name": "SetTrustedForwarder",
      "type": "event"
    },
    {
      "anonymous": false,
      "inputs": [
        {
          "indexed": true,
          "internalType": "address",
          "name": "from",
          "type": "address"
        },
        {
          "indexed": true,
          "internalType": "address",
          "name": "to",
          "type": "address"
        },
        {
          "indexed": false,
          "internalType": "uint256",
          "name": "value",
          "type": "uint256"
        }
      ],
      "name": "Transfer",
      "type": "event"
    },
    {
      "anonymous": false,
      "inputs": [
        {
          "indexed": true,
          "internalType": "address",
          "name": "from",
          "type": "address"
        },
        {
          "indexed": true,
          "internalType": "address",
          "name": "to",
          "type": "address"
        },
        {
          "indexed": false,
          "internalType": "uint256",
          "name": "baseAssetAmount",
          "type": "uint256"
        },
        {
          "indexed": false,
          "internalType": "uint256",
          "name": "shares",
          "type": "uint256"
        }
      ],
      "name": "TransferValue",
      "type": "event"
    },
    {
      "anonymous": false,
      "inputs": [
        {
          "indexed": false,
          "internalType": "address",
          "name": "account",
          "type": "address"
        }
      ],
      "name": "Unpaused",
      "type": "event"
    },
    {
      "inputs": [
        {
          "internalType": "address",
          "name": "_protocol",
          "type": "address"
        }
      ],
      "name": "addProtocol",
      "outputs": [],
      "stateMutability": "nonpayable",
      "type": "function"
    },
    {
      "inputs": [
        {
          "internalType": "address",
          "name": "_asset",
          "type": "address"
        },
        {
          "internalType": "address",
          "name": "_priceFeed",
          "type": "address"
        },
        {
          "internalType": "uint256",
          "name": "_depositLimit",
          "type": "uint256"
        },
        {
          "internalType": "uint256",
          "name": "_slippageBps",
          "type": "uint256"
        }
      ],
      "name": "allowAsset",
      "outputs": [],
      "stateMutability": "nonpayable",
      "type": "function"
    },
    {
      "inputs": [
        {
          "internalType": "address",
          "name": "owner",
          "type": "address"
        },
        {
          "internalType": "address",
          "name": "spender",
          "type": "address"
        }
      ],
      "name": "allowance",
      "outputs": [
        {
          "internalType": "uint256",
          "name": "",
          "type": "uint256"
        }
      ],
      "stateMutability": "view",
      "type": "function"
    },
    {
      "inputs": [
        {
          "internalType": "address",
          "name": "spender",
          "type": "address"
        },
        {
          "internalType": "uint256",
          "name": "amount",
          "type": "uint256"
        }
      ],
      "name": "approve",
      "outputs": [
        {
          "internalType": "bool",
          "name": "",
          "type": "bool"
        }
      ],
      "stateMutability": "nonpayable",
      "type": "function"
    },
    {
      "inputs": [
        {
          "internalType": "address",
          "name": "account",
          "type": "address"
        }
      ],
      "name": "balanceOf",
      "outputs": [
        {
          "internalType": "uint256",
          "name": "",
          "type": "uint256"
        }
      ],
      "stateMutability": "view",
      "type": "function"
    },
    {
      "inputs": [],
      "name": "baseAsset",
      "outputs": [
        {
          "internalType": "address",
          "name": "",
          "type": "address"
        }
      ],
      "stateMutability": "view",
      "type": "function"
    },
    {
      "inputs": [
        {
          "internalType": "address",
          "name": "_fromAsset",
          "type": "address"
        },
        {
          "internalType": "address",
          "name": "_toAsset",
          "type": "address"
        },
        {
          "internalType": "uint256",
          "name": "_fromAmount",
          "type": "uint256"
        }
      ],
      "name": "convertPrice",
      "outputs": [
        {
          "internalType": "uint256",
          "name": "",
          "type": "uint256"
        }
      ],
      "stateMutability": "view",
      "type": "function"
    },
    {
      "inputs": [
        {
          "internalType": "address",
          "name": "_address",
          "type": "address"
        }
      ],
      "name": "currentValueOf",
      "outputs": [
        {
          "internalType": "uint256",
          "name": "",
          "type": "uint256"
        }
      ],
      "stateMutability": "view",
      "type": "function"
    },
    {
      "inputs": [],
      "name": "decimals",
      "outputs": [
        {
          "internalType": "uint8",
          "name": "",
          "type": "uint8"
        }
      ],
      "stateMutability": "view",
      "type": "function"
    },
    {
      "inputs": [
        {
          "internalType": "address",
          "name": "spender",
          "type": "address"
        },
        {
          "internalType": "uint256",
          "name": "subtractedValue",
          "type": "uint256"
        }
      ],
      "name": "decreaseAllowance",
      "outputs": [
        {
          "internalType": "bool",
          "name": "",
          "type": "bool"
        }
      ],
      "stateMutability": "nonpayable",
      "type": "function"
    },
    {
      "inputs": [
        {
          "internalType": "address",
          "name": "_asset",
          "type": "address"
        },
        {
          "internalType": "uint256",
          "name": "_assetAmount",
          "type": "uint256"
        }
      ],
      "name": "deposit",
      "outputs": [],
      "stateMutability": "nonpayable",
      "type": "function"
    },
    {
      "inputs": [
        {
          "internalType": "address",
          "name": "_to",
          "type": "address"
        },
        {
          "internalType": "address",
          "name": "_asset",
          "type": "address"
        },
        {
          "internalType": "uint256",
          "name": "_assetAmount",
          "type": "uint256"
        }
      ],
      "name": "depositTo",
      "outputs": [],
      "stateMutability": "nonpayable",
      "type": "function"
    },
    {
      "inputs": [
        {
          "internalType": "address",
          "name": "_asset",
          "type": "address"
        }
      ],
      "name": "disallowAsset",
      "outputs": [],
      "stateMutability": "nonpayable",
      "type": "function"
    },
    {
      "inputs": [],
      "name": "feeDistributor",
      "outputs": [
        {
          "internalType": "address",
          "name": "",
          "type": "address"
        }
      ],
      "stateMutability": "view",
      "type": "function"
    },
    {
      "inputs": [
        {
          "internalType": "address",
          "name": "_address",
          "type": "address"
        }
      ],
      "name": "fundingSource",
      "outputs": [
        {
          "components": [
            {
              "internalType": "enum ICaskVault.FundingSource",
              "name": "fundingSource",
              "type": "uint8"
            },
            {
              "internalType": "address",
              "name": "fundingAsset",
              "type": "address"
            }
          ],
          "internalType": "struct ICaskVault.FundingProfile",
          "name": "",
          "type": "tuple"
        }
      ],
      "stateMutability": "view",
      "type": "function"
    },
    {
      "inputs": [],
      "name": "getAllAssets",
      "outputs": [
        {
          "internalType": "address[]",
          "name": "",
          "type": "address[]"
        }
      ],
      "stateMutability": "view",
      "type": "function"
    },
    {
      "inputs": [
        {
          "internalType": "address",
          "name": "_asset",
          "type": "address"
        }
      ],
      "name": "getAsset",
      "outputs": [
        {
          "components": [
            {
              "internalType": "address",
              "name": "priceFeed",
              "type": "address"
            },
            {
              "internalType": "uint256",
              "name": "slippageBps",
              "type": "uint256"
            },
            {
              "internalType": "uint256",
              "name": "depositLimit",
              "type": "uint256"
            },
            {
              "internalType": "uint8",
              "name": "assetDecimals",
              "type": "uint8"
            },
            {
              "internalType": "uint8",
              "name": "priceFeedDecimals",
              "type": "uint8"
            },
            {
              "internalType": "bool",
              "name": "allowed",
              "type": "bool"
            }
          ],
          "internalType": "struct ICaskVault.Asset",
          "name": "",
          "type": "tuple"
        }
      ],
      "stateMutability": "view",
      "type": "function"
    },
    {
      "inputs": [],
      "name": "getBaseAsset",
      "outputs": [
        {
          "internalType": "address",
          "name": "",
          "type": "address"
        }
      ],
      "stateMutability": "view",
      "type": "function"
    },
    {
      "inputs": [
        {
          "internalType": "address",
          "name": "spender",
          "type": "address"
        },
        {
          "internalType": "uint256",
          "name": "addedValue",
          "type": "uint256"
        }
      ],
      "name": "increaseAllowance",
      "outputs": [
        {
          "internalType": "bool",
          "name": "",
          "type": "bool"
        }
      ],
      "stateMutability": "nonpayable",
      "type": "function"
    },
    {
      "inputs": [
        {
          "internalType": "address",
          "name": "_baseAsset",
          "type": "address"
        },
        {
          "internalType": "address",
          "name": "_baseAssetPriceFeed",
          "type": "address"
        },
        {
          "internalType": "address",
          "name": "_feeDistributor",
          "type": "address"
        }
      ],
      "name": "initialize",
      "outputs": [],
      "stateMutability": "nonpayable",
      "type": "function"
    },
    {
      "inputs": [
        {
          "internalType": "address",
          "name": "forwarder",
          "type": "address"
        }
      ],
      "name": "isTrustedForwarder",
      "outputs": [
        {
          "internalType": "bool",
          "name": "",
          "type": "bool"
        }
      ],
      "stateMutability": "view",
      "type": "function"
    },
    {
      "inputs": [],
      "name": "maxPriceFeedAge",
      "outputs": [
        {
          "internalType": "uint256",
          "name": "",
          "type": "uint256"
        }
      ],
      "stateMutability": "view",
      "type": "function"
    },
    {
      "inputs": [],
      "name": "minDeposit",
      "outputs": [
        {
          "internalType": "uint256",
          "name": "",
          "type": "uint256"
        }
      ],
      "stateMutability": "view",
      "type": "function"
    },
    {
      "inputs": [],
      "name": "name",
      "outputs": [
        {
          "internalType": "string",
          "name": "",
          "type": "string"
        }
      ],
      "stateMutability": "view",
      "type": "function"
    },
    {
      "inputs": [],
      "name": "owner",
      "outputs": [
        {
          "internalType": "address",
          "name": "",
          "type": "address"
        }
      ],
      "stateMutability": "view",
      "type": "function"
    },
    {
      "inputs": [],
      "name": "pause",
      "outputs": [],
      "stateMutability": "nonpayable",
      "type": "function"
    },
    {
      "inputs": [],
      "name": "paused",
      "outputs": [
        {
          "internalType": "bool",
          "name": "",
          "type": "bool"
        }
      ],
      "stateMutability": "view",
      "type": "function"
    },
    {
      "inputs": [],
      "name": "pricePerShare",
      "outputs": [
        {
          "internalType": "uint256",
          "name": "",
          "type": "uint256"
        }
      ],
      "stateMutability": "view",
      "type": "function"
    },
    {
      "inputs": [],
      "name": "protocolCount",
      "outputs": [
        {
          "internalType": "uint256",
          "name": "",
          "type": "uint256"
        }
      ],
      "stateMutability": "view",
      "type": "function"
    },
    {
      "inputs": [
        {
          "internalType": "address",
          "name": "_from",
          "type": "address"
        },
        {
          "internalType": "address",
          "name": "_to",
          "type": "address"
        },
        {
          "internalType": "uint256",
          "name": "_value",
          "type": "uint256"
        },
        {
          "internalType": "uint256",
          "name": "_protocolFee",
          "type": "uint256"
        },
        {
          "internalType": "address",
          "name": "_network",
          "type": "address"
        },
        {
          "internalType": "uint256",
          "name": "_networkFee",
          "type": "uint256"
        }
      ],
      "name": "protocolPayment",
      "outputs": [],
      "stateMutability": "nonpayable",
      "type": "function"
    },
    {
      "inputs": [
        {
          "internalType": "address",
          "name": "_from",
          "type": "address"
        },
        {
          "internalType": "address",
          "name": "_to",
          "type": "address"
        },
        {
          "internalType": "uint256",
          "name": "_value",
          "type": "uint256"
        }
      ],
      "name": "protocolPayment",
      "outputs": [],
      "stateMutability": "nonpayable",
      "type": "function"
    },
    {
      "inputs": [
        {
          "internalType": "address",
          "name": "_from",
          "type": "address"
        },
        {
          "internalType": "address",
          "name": "_to",
          "type": "address"
        },
        {
          "internalType": "uint256",
          "name": "_value",
          "type": "uint256"
        },
        {
          "internalType": "uint256",
          "name": "_protocolFee",
          "type": "uint256"
        }
      ],
      "name": "protocolPayment",
      "outputs": [],
      "stateMutability": "nonpayable",
      "type": "function"
    },
    {
      "inputs": [
        {
          "internalType": "uint256",
          "name": "",
          "type": "uint256"
        }
      ],
      "name": "protocols",
      "outputs": [
        {
          "internalType": "address",
          "name": "",
          "type": "address"
        }
      ],
      "stateMutability": "view",
      "type": "function"
    },
    {
      "inputs": [
        {
          "internalType": "address",
          "name": "_protocol",
          "type": "address"
        }
      ],
      "name": "removeProtocol",
      "outputs": [],
      "stateMutability": "nonpayable",
      "type": "function"
    },
    {
      "inputs": [],
      "name": "renounceOwnership",
      "outputs": [],
      "stateMutability": "nonpayable",
      "type": "function"
    },
    {
      "inputs": [],
      "name": "reserved1",
      "outputs": [
        {
          "internalType": "address",
          "name": "",
          "type": "address"
        }
      ],
      "stateMutability": "view",
      "type": "function"
    },
    {
      "inputs": [
        {
          "internalType": "address",
          "name": "_feeDistributor",
          "type": "address"
        }
      ],
      "name": "setFeeDistributor",
      "outputs": [],
      "stateMutability": "nonpayable",
      "type": "function"
    },
    {
      "inputs": [
        {
          "internalType": "enum ICaskVault.FundingSource",
          "name": "_fundingSource",
          "type": "uint8"
        },
        {
          "internalType": "address",
          "name": "_fundingAsset",
          "type": "address"
        }
      ],
      "name": "setFundingSource",
      "outputs": [],
      "stateMutability": "nonpayable",
      "type": "function"
    },
    {
      "inputs": [
        {
          "internalType": "uint256",
          "name": "_maxPriceFeedAge",
          "type": "uint256"
        }
      ],
      "name": "setMaxPriceFeedAge",
      "outputs": [],
      "stateMutability": "nonpayable",
      "type": "function"
    },
    {
      "inputs": [
        {
          "internalType": "uint256",
          "name": "_minDeposit",
          "type": "uint256"
        }
      ],
      "name": "setMinDeposit",
      "outputs": [],
      "stateMutability": "nonpayable",
      "type": "function"
    },
    {
      "inputs": [
        {
          "internalType": "address",
          "name": "_forwarder",
          "type": "address"
        }
      ],
      "name": "setTrustedForwarder",
      "outputs": [],
      "stateMutability": "nonpayable",
      "type": "function"
    },
    {
      "inputs": [
        {
          "internalType": "uint256",
          "name": "_value",
          "type": "uint256"
        }
      ],
      "name": "sharesForValue",
      "outputs": [
        {
          "internalType": "uint256",
          "name": "",
          "type": "uint256"
        }
      ],
      "stateMutability": "view",
      "type": "function"
    },
    {
      "inputs": [
        {
          "internalType": "address",
          "name": "_asset",
          "type": "address"
        }
      ],
      "name": "supportsAsset",
      "outputs": [
        {
          "internalType": "bool",
          "name": "",
          "type": "bool"
        }
      ],
      "stateMutability": "view",
      "type": "function"
    },
    {
      "inputs": [],
      "name": "symbol",
      "outputs": [
        {
          "internalType": "string",
          "name": "",
          "type": "string"
        }
      ],
      "stateMutability": "view",
      "type": "function"
    },
    {
      "inputs": [
        {
          "internalType": "address",
          "name": "_asset",
          "type": "address"
        }
      ],
      "name": "totalAssetBalance",
      "outputs": [
        {
          "internalType": "uint256",
          "name": "",
          "type": "uint256"
        }
      ],
      "stateMutability": "view",
      "type": "function"
    },
    {
      "inputs": [],
      "name": "totalSupply",
      "outputs": [
        {
          "internalType": "uint256",
          "name": "",
          "type": "uint256"
        }
      ],
      "stateMutability": "view",
      "type": "function"
    },
    {
      "inputs": [],
      "name": "totalValue",
      "outputs": [
        {
          "internalType": "uint256",
          "name": "",
          "type": "uint256"
        }
      ],
      "stateMutability": "view",
      "type": "function"
    },
    {
      "inputs": [
        {
          "internalType": "address",
          "name": "to",
          "type": "address"
        },
        {
          "internalType": "uint256",
          "name": "amount",
          "type": "uint256"
        }
      ],
      "name": "transfer",
      "outputs": [
        {
          "internalType": "bool",
          "name": "",
          "type": "bool"
        }
      ],
      "stateMutability": "nonpayable",
      "type": "function"
    },
    {
      "inputs": [
        {
          "internalType": "address",
          "name": "from",
          "type": "address"
        },
        {
          "internalType": "address",
          "name": "to",
          "type": "address"
        },
        {
          "internalType": "uint256",
          "name": "amount",
          "type": "uint256"
        }
      ],
      "name": "transferFrom",
      "outputs": [
        {
          "internalType": "bool",
          "name": "",
          "type": "bool"
        }
      ],
      "stateMutability": "nonpayable",
      "type": "function"
    },
    {
      "inputs": [
        {
          "internalType": "address",
          "name": "newOwner",
          "type": "address"
        }
      ],
      "name": "transferOwnership",
      "outputs": [],
      "stateMutability": "nonpayable",
      "type": "function"
    },
    {
      "inputs": [
        {
          "internalType": "address",
          "name": "_recipient",
          "type": "address"
        },
        {
          "internalType": "uint256",
          "name": "_value",
          "type": "uint256"
        }
      ],
      "name": "transferValue",
      "outputs": [
        {
          "internalType": "bool",
          "name": "",
          "type": "bool"
        }
      ],
      "stateMutability": "nonpayable",
      "type": "function"
    },
    {
      "inputs": [
        {
          "internalType": "address",
          "name": "_sender",
          "type": "address"
        },
        {
          "internalType": "address",
          "name": "_recipient",
          "type": "address"
        },
        {
          "internalType": "uint256",
          "name": "_value",
          "type": "uint256"
        }
      ],
      "name": "transferValueFrom",
      "outputs": [
        {
          "internalType": "bool",
          "name": "",
          "type": "bool"
        }
      ],
      "stateMutability": "nonpayable",
      "type": "function"
    },
    {
      "inputs": [],
      "name": "trustedForwarder",
      "outputs": [
        {
          "internalType": "address",
          "name": "",
          "type": "address"
        }
      ],
      "stateMutability": "view",
      "type": "function"
    },
    {
      "inputs": [],
      "name": "unpause",
      "outputs": [],
      "stateMutability": "nonpayable",
      "type": "function"
    },
    {
      "inputs": [],
      "name": "versionRecipient",
      "outputs": [
        {
          "internalType": "string",
          "name": "",
          "type": "string"
        }
      ],
      "stateMutability": "pure",
      "type": "function"
    },
    {
      "inputs": [
        {
          "internalType": "address",
          "name": "_asset",
          "type": "address"
        },
        {
          "internalType": "uint256",
          "name": "_shares",
          "type": "uint256"
        }
      ],
      "name": "withdraw",
      "outputs": [],
      "stateMutability": "nonpayable",
      "type": "function"
    },
    {
      "inputs": [
        {
          "internalType": "address",
          "name": "_recipient",
          "type": "address"
        },
        {
          "internalType": "address",
          "name": "_asset",
          "type": "address"
        },
        {
          "internalType": "uint256",
          "name": "_shares",
          "type": "uint256"
        }
      ],
      "name": "withdrawTo",
      "outputs": [],
      "stateMutability": "nonpayable",
      "type": "function"
    }
  ],
  "transactionHash": "0x465621832af2798141b7f97119ebee22c841d5e33c5f2eacb6dd889d30194b3e",
  "args": [],
  "numDeployments": 7,
  "solcInputHash": "2e3b175bb4a00449bf1006859628dc59",
  "bytecode": "0x60806040523480156200001157600080fd5b50600054610100900460ff1615808015620000335750600054600160ff909116105b8062000063575062000050306200013d60201b62001f5b1760201c565b15801562000063575060005460ff166001145b620000cb5760405162461bcd60e51b815260206004820152602e60248201527f496e697469616c697a61626c653a20636f6e747261637420697320616c72656160448201526d191e481a5b9a5d1a585b1a5e995960921b606482015260840160405180910390fd5b6000805460ff191660011790558015620000ef576000805461ff0019166101001790555b801562000136576000805461ff0019169055604051600181527f7f26b83ff96e1f2b6a682f133852f6798a09c465da95921460cefb38474024989060200160405180910390a15b506200014c565b6001600160a01b03163b151590565b6140c8806200015c6000396000f3fe608060405234801561001057600080fd5b50600436106103835760003560e01c806379b2125f116101de578063c0c53b8b1161010f578063dd62ed3e116100ad578063f213159c1161007c578063f213159c146108a8578063f2fde38b146108bb578063f3fef3a3146108ce578063fcd6a25b146108e157600080fd5b8063dd62ed3e14610866578063e1ded2de14610879578063e2eed04f1461088c578063e300eec71461089557600080fd5b8063cdf456e1116100e9578063cdf456e114610825578063d4c3eea014610838578063d73f730b14610840578063da7422281461085357600080fd5b8063c0c53b8b146107ec578063c3b35a7e146107ff578063ccfc2e8d1461081257600080fd5b80638fcc9cfb1161017c578063a457c2d711610156578063a457c2d71461077d578063a9059cbb14610790578063aa388af6146107a3578063aaac831f146107d957600080fd5b80638fcc9cfb1461075a57806395d89b411461076d57806399530b061461077557600080fd5b80638c396220116101b85780638c396220146107125780638d3a4af6146107255780638da5cb5b146107365780638e3e580d1461074757600080fd5b806379b2125f146106e65780637da0a877146106f95780638456cb591461070a57600080fd5b80633f4ba83a116102b8578063597435cb116102565780635c975abb116102305780635c975abb1461069757806370a08231146106a2578063715018a6146106cb578063771d4c28146106d357600080fd5b8063597435cb146106515780635979d7b8146106645780635a4161ff1461068457600080fd5b8063486ff0cd11610292578063486ff0cd146105e85780634bb846e1146106095780635517575d1461061c578063572b6c051461062f57600080fd5b80633f4ba83a146105c357806341b3d185146105cb57806347e7ef24146105d557600080fd5b80631e377d39116103255780632acada4d116102ff5780632acada4d1461047557806330b8b2c61461048a578063313ce5671461059657806339509351146105b057600080fd5b80631e377d391461043c5780632298d8491461044f57806323b872dd1461046257600080fd5b8063095ea7b311610361578063095ea7b3146103e15780630d43e8ad146103f457806318160ddd1461041f57806318ff57681461042757600080fd5b806306fdde03146103885780630816c847146103a657806308751b18146103be575b600080fd5b6103906108f4565b60405161039d9190613a2e565b60405180910390f35b6103b06101035481565b60405190815260200161039d565b6103d16103cc366004613a78565b610986565b604051901515815260200161039d565b6103d16103ef366004613ab4565b610aa7565b60fe54610407906001600160a01b031681565b6040516001600160a01b03909116815260200161039d565b6036546103b0565b61043a610435366004613ade565b610acb565b005b61043a61044a366004613af9565b610c2d565b61043a61045d366004613ade565b610fae565b6103d1610470366004613a78565b61106b565b61047d611099565b60405161039d9190613b3b565b61053a610498366004613ade565b6040805160c081018252600080825260208201819052918101829052606081018290526080810182905260a0810191909152506001600160a01b03908116600090815260ff6020818152604092839020835160c08101855281549095168552600181015491850191909152600281015492840192909252600390910154808216606084015261010081048216608084015262010000900416151560a082015290565b60405161039d9190600060c08201905060018060a01b038351168252602083015160208301526040830151604083015260ff606084015116606083015260ff608084015116608083015260a0830151151560a083015292915050565b61059e6110fb565b60405160ff909116815260200161039d565b6103d16105be366004613ab4565b61117d565b61043a6111a9565b6103b06101025481565b61043a6105e3366004613ab4565b6111bb565b6040805180820190915260058152640322e322e360dc1b6020820152610390565b6103b0610617366004613a78565b6111f3565b6103b061062a366004613ade565b611208565b6103d161063d366004613ade565b6033546001600160a01b0391821691161490565b6103b061065f366004613ade565b611213565b610677610672366004613ade565b61123a565b60405161039d9190613bc0565b6103d1610692366004613ab4565b6112b8565b60985460ff166103d1565b6103b06106b0366004613ade565b6001600160a01b031660009081526034602052604090205490565b61043a611355565b61043a6106e1366004613ade565b611367565b61043a6106f4366004613bea565b6113e8565b6033546001600160a01b0316610407565b61043a6114a1565b610407610720366004613c49565b6114b1565b60fd546001600160a01b0316610407565b6066546001600160a01b0316610407565b61043a610755366004613a78565b6114dc565b61043a610768366004613c49565b611594565b6103906115d9565b6103b06115e8565b6103d161078b366004613ab4565b611618565b6103d161079e366004613ab4565b61169e565b6103d16107b1366004613ade565b6001600160a01b0316600090815260ff60208190526040909120600301546201000090041690565b60fc54610407906001600160a01b031681565b61043a6107fa366004613c62565b6116b6565b61043a61080d366004613a78565b611b7b565b61043a610820366004613ade565b611ba0565b60fd54610407906001600160a01b031681565b6103b0611bf2565b61043a61084e366004613ca5565b611bfc565b61043a610861366004613ade565b611d1d565b6103b0610874366004613cde565b611d77565b6103b0610887366004613c49565b611da2565b610101546103b0565b61043a6108a3366004613c49565b611dad565b61043a6108b6366004613a78565b611deb565b61043a6108c9366004613ade565b611e0e565b61043a6108dc366004613ab4565b611e87565b61043a6108ef366004613af9565b611ea9565b60606037805461090390613cfa565b80601f016020809104026020016040519081016040528092919081815260200182805461092f90613cfa565b801561097c5780601f106109515761010080835404028352916020019161097c565b820191906000526020600020905b81548152906001019060200180831161095f57829003601f168201915b5050505050905090565b6000610990611f6a565b610998611fc4565b60006109a38361200a565b90506109b0858583612044565b60006109be866108746121ef565b905081811015610a265760405162461bcd60e51b815260206004820152602860248201527f45524332303a207472616e7366657220616d6f756e74206578636565647320616044820152676c6c6f77616e636560c01b60648201526084015b60405180910390fd5b610a3a86610a326121ef565b8484036121f9565b846001600160a01b0316866001600160a01b03167fc8cf4e5d87b5b4ffb59d20991b0840a27d2227ee272dae54bacf0f4b4184bf778685604051610a88929190918252602082015260400190565b60405180910390a3600192505050610aa0600160ca55565b9392505050565b600080610ab26121ef565b9050610abf8185856121f9565b60019150505b92915050565b610ad3612324565b6101015460005b61010154811015610b3857826001600160a01b03166101018281548110610b0357610b03613d2f565b6000918252602090912001546001600160a01b03161415610b2657809150610b38565b80610b3081613d5b565b915050610ada565b5061010154811015610bf5576101018054610b5590600190613d76565b81548110610b6557610b65613d2f565b60009182526020909120015461010180546001600160a01b039092169183908110610b9257610b92613d2f565b9060005260206000200160006101000a8154816001600160a01b0302191690836001600160a01b03160217905550610101805480610bd257610bd2613d8d565b600082815260209020810160001990810180546001600160a01b03191690550190555b6040516001600160a01b038316907fb0e13246ae39a13158fc894c77b848e06901f1440d7cc8aaad18f0a0e1566b3890600090a25050565b610c35612324565b6000846001600160a01b031663313ce5676040518163ffffffff1660e01b815260040160206040518083038186803b158015610c7057600080fd5b505afa158015610c84573d6000803e3d6000fd5b505050506040513d601f19601f82011682018060405250810190610ca89190613da3565b60ff1611610cea5760405162461bcd60e51b815260206004820152600f60248201526e21494e56414c49442861737365742960881b6044820152606401610a1d565b6000836001600160a01b031663313ce5676040518163ffffffff1660e01b815260040160206040518083038186803b158015610d2557600080fd5b505afa158015610d39573d6000803e3d6000fd5b505050506040513d601f19601f82011682018060405250810190610d5d9190613da3565b60ff1611610da35760405162461bcd60e51b815260206004820152601360248201527221494e56414c4944287072696365466565642960681b6044820152606401610a1d565b6001600160a01b038416600090815260ff602081905260409091206003810154909116610e175761010080546001810182556000919091527f45e010b9ae401e2eb71529478da8bd513a9bdc2d095a111e324f5b95c09ed87b0180546001600160a01b0319166001600160a01b0387161790555b60038101805462ff000019166201000017905580546001600160a01b038086166001600160a01b031990921691909117825560028201849055600182018390556040805163313ce56760e01b815290519187169163313ce56791600480820192602092909190829003018186803b158015610e9157600080fd5b505afa158015610ea5573d6000803e3d6000fd5b505050506040513d601f19601f82011682018060405250810190610ec99190613da3565b8160030160006101000a81548160ff021916908360ff160217905550836001600160a01b031663313ce5676040518163ffffffff1660e01b815260040160206040518083038186803b158015610f1e57600080fd5b505afa158015610f32573d6000803e3d6000fd5b505050506040513d601f19601f82011682018060405250810190610f569190613da3565b60038201805460ff929092166101000261ff00199092169190911790556040516001600160a01b038616907f06a94869c30cb7089f57f8d4a5ff251ac74a8c2bc361e7f91bda209898de8ead90600090a25050505050565b610fb6612324565b6001600160a01b038116600090815260ff60208190526040909120600301546201000090041661101d5760405162461bcd60e51b8152602060048201526012602482015271085054d4d15517d393d517d0531313d5d15160721b6044820152606401610a1d565b6001600160a01b038116600081815260ff6020526040808220600301805462ff000019169055517f0a8090b3b8835c60a03ebb0cc69833b4359a1924917dbc2e80bb4516428da0a39190a250565b6000806110766121ef565b905061108385828561239d565b61108e858585612044565b506001949350505050565b606061010080548060200260200160405190810160405280929190818152602001828054801561097c57602002820191906000526020600020905b81546001600160a01b031681526001909101906020018083116110d4575050505050905090565b60fd546040805163313ce56760e01b815290516000926001600160a01b03169163313ce567916004808301926020929190829003018186803b15801561114057600080fd5b505afa158015611154573d6000803e3d6000fd5b505050506040513d601f19601f820116820180604052508101906111789190613da3565b905090565b6000806111886121ef565b9050610abf81858561119a8589611d77565b6111a49190613dc6565b6121f9565b6111b1612324565b6111b9612411565b565b6111c3611f6a565b6111cb611fc4565b6111e56111d66121ef565b6111de6121ef565b8484612469565b6111ef600160ca55565b5050565b6000611200848484612712565b949350505050565b6000610ac582612b5c565b6001600160a01b038116600090815260346020526040812054610ac590612bd6565b612bd6565b60408051808201909152600080825260208201526001600160a01b038216600090815261010460205260409081902081518083019092528054829060ff16600181111561128957611289613b88565b600181111561129a5761129a613b88565b8152905461010090046001600160a01b031660209091015292915050565b60006112c2611f6a565b6112ca611fc4565b60006112d58361200a565b90506112e96112e26121ef565b8583612044565b836001600160a01b03166112fb6121ef565b6001600160a01b03167fc8cf4e5d87b5b4ffb59d20991b0840a27d2227ee272dae54bacf0f4b4184bf77858460405161133e929190918252602082015260400190565b60405180910390a36001915050610ac5600160ca55565b61135d612324565b6111b96000612bff565b61136f612324565b610101805460018101825560009182527f109ea3cebb188b9c1b9fc5bb3920be60dfdc8699098dff92f3d80daaca7476890180546001600160a01b0319166001600160a01b03841690811790915560405190917f713b660c92a559fe6eecdbf5d129bf8e30d527db74b47b6dc5eeb65c7893f1e591a250565b6113f0611f6a565b6000805b6101015481101561145a57610101818154811061141357611413613d2f565b6000918252602090912001546001600160a01b03166114306121ef565b6001600160a01b03161415611448576001915061145a565b8061145281613d5b565b9150506113f4565b50806114785760405162461bcd60e51b8152600401610a1d90613dde565b611480611fc4565b61148e878787878787612c51565b50611499600160ca55565b505050505050565b6114a9612324565b6111b9612f81565b61010181815481106114c257600080fd5b6000918252602090912001546001600160a01b0316905081565b6114e4611f6a565b6000805b6101015481101561154e57610101818154811061150757611507613d2f565b6000918252602090912001546001600160a01b03166115246121ef565b6001600160a01b0316141561153c576001915061154e565b8061154681613d5b565b9150506114e8565b508061156c5760405162461bcd60e51b8152600401610a1d90613dde565b611574611fc4565b6115848484846000806000612c51565b5061158f600160ca55565b505050565b61159c612324565b6101028190556040518181527f8335b9d95c5f85895bf6ed3f9d159211b514ab77f7e20509e553c657cfa39b4e906020015b60405180910390a150565b60606038805461090390613cfa565b60fd546001600160a01b0316600090815260ff60208190526040822060030154611178916112359116600a613ee1565b6000806116236121ef565b905060006116318286611d77565b9050838110156116915760405162461bcd60e51b815260206004820152602560248201527f45524332303a2064656372656173656420616c6c6f77616e63652062656c6f77604482015264207a65726f60d81b6064820152608401610a1d565b61108e82868684036121f9565b6000806116a96121ef565b9050610abf818585612044565b600054610100900460ff16158080156116d65750600054600160ff909116105b806116f05750303b1580156116f0575060005460ff166001145b6117535760405162461bcd60e51b815260206004820152602e60248201527f496e697469616c697a61626c653a20636f6e747261637420697320616c72656160448201526d191e481a5b9a5d1a585b1a5e995960921b6064820152608401610a1d565b6000805460ff191660011790558015611776576000805461ff0019166101001790555b61177e612fbf565b611786612fee565b61178e61301d565b6117dd604051806040016040528060118152602001704361736b205661756c7420546f6b656e7360781b8152506040518060400160405280600481526020016309a82a6960e31b81525061304c565b6000846001600160a01b031663313ce5676040518163ffffffff1660e01b815260040160206040518083038186803b15801561181857600080fd5b505afa15801561182c573d6000803e3d6000fd5b505050506040513d601f19601f820116820180604052508101906118509190613da3565b60ff16116118965760405162461bcd60e51b815260206004820152601360248201527221494e56414c4944286261736541737365742960681b6044820152606401610a1d565b6000836001600160a01b031663313ce5676040518163ffffffff1660e01b815260040160206040518083038186803b1580156118d157600080fd5b505afa1580156118e5573d6000803e3d6000fd5b505050506040513d601f19601f820116820180604052508101906119099190613da3565b60ff16116119595760405162461bcd60e51b815260206004820152601c60248201527f21494e56414c49442862617365417373657450726963654665656429000000006044820152606401610a1d565b6001600160a01b03848116600081815260ff602090815260409182902080546001600160a01b031916948816949094178455815163313ce56760e01b8152915163313ce567926004808201939291829003018186803b1580156119bb57600080fd5b505afa1580156119cf573d6000803e3d6000fd5b505050506040513d601f19601f820116820180604052508101906119f39190613da3565b8160030160006101000a81548160ff021916908360ff160217905550836001600160a01b031663313ce5676040518163ffffffff1660e01b815260040160206040518083038186803b158015611a4857600080fd5b505afa158015611a5c573d6000803e3d6000fd5b505050506040513d601f19601f82011682018060405250810190611a809190613da3565b6003820180546000196002850155600060019485018190556201000062ffff001990921661010060ff95909516850262ff000019161791909117909155815492830182559081527f45e010b9ae401e2eb71529478da8bd513a9bdc2d095a111e324f5b95c09ed87b90910180546001600160a01b03199081166001600160a01b0388811691821790935560fd80548316909117905560fe8054909116918516919091179055610102819055610103558015611b75576000805461ff0019169055604051600181527f7f26b83ff96e1f2b6a682f133852f6798a09c465da95921460cefb38474024989060200160405180910390a15b50505050565b611b83611f6a565b611b8b611fc4565b611b9683838361307d565b61158f600160ca55565b611ba8612324565b60fe80546001600160a01b0319166001600160a01b0383169081179091556040517f9e9a9a4a82acd1b28aab6bf1d43aad70ae6d290549c0d6183e2e91ebcdf5744190600090a250565b600061117861322b565b6001600160a01b038116600090815260ff602081905260409091206003015462010000900416611c635760405162461bcd60e51b8152602060048201526012602482015271085054d4d15517d393d517d0531313d5d15160721b6044820152606401610a1d565b60006101046000611c726121ef565b6001600160a01b03168152602081019190915260400160002080549091508390829060ff191660018381811115611cab57611cab613b88565b02179055508054610100600160a81b0319166101006001600160a01b03841602178155611cd66121ef565b6001600160a01b03167f1d97f1da175e9fad2f79856dc3bb2ced51a7a3c6c62c366fa5f909579da4b1608484604051611d10929190613ef0565b60405180910390a2505050565b611d25612324565b603380546001600160a01b0319166001600160a01b0383161790556040516001600160a01b038216907f8c2bee8063bb4464870b7dfa415ebb2fe80bfa73ba20d6fbf0d42791274667ff90600090a250565b6001600160a01b03918216600090815260356020908152604080832093909416825291909152205490565b6000610ac58261200a565b611db5612324565b6101038190556040518181527f1fe1f9ede5e74676189934337b4dd60f437c0f524b40a4c18400f040dd592adb906020016115ce565b611df3611f6a565b611dfb611fc4565b611b96611e066121ef565b848484612469565b611e16612324565b6001600160a01b038116611e7b5760405162461bcd60e51b815260206004820152602660248201527f4f776e61626c653a206e6577206f776e657220697320746865207a65726f206160448201526564647265737360d01b6064820152608401610a1d565b611e8481612bff565b50565b611e8f611f6a565b611e97611fc4565b6111e5611ea26121ef565b838361307d565b611eb1611f6a565b6000805b61010154811015611f1b576101018181548110611ed457611ed4613d2f565b6000918252602090912001546001600160a01b0316611ef16121ef565b6001600160a01b03161415611f095760019150611f1b565b80611f1381613d5b565b915050611eb5565b5080611f395760405162461bcd60e51b8152600401610a1d90613dde565b611f41611fc4565b611f5085858585600080612c51565b50611b75600160ca55565b6001600160a01b03163b151590565b600260ca541415611fbd5760405162461bcd60e51b815260206004820152601f60248201527f5265656e7472616e637947756172643a207265656e7472616e742063616c6c006044820152606401610a1d565b600260ca55565b60985460ff16156111b95760405162461bcd60e51b815260206004820152601060248201526f14185d5cd8589b194e881c185d5cd95960821b6044820152606401610a1d565b60008061201660365490565b111561203b5761202461322b565b6036546120319084613f16565b610ac59190613f35565b5090565b919050565b6001600160a01b0383166120a85760405162461bcd60e51b815260206004820152602560248201527f45524332303a207472616e736665722066726f6d20746865207a65726f206164604482015264647265737360d81b6064820152608401610a1d565b6001600160a01b03821661210a5760405162461bcd60e51b815260206004820152602360248201527f45524332303a207472616e7366657220746f20746865207a65726f206164647260448201526265737360e81b6064820152608401610a1d565b6001600160a01b038316600090815260346020526040902054818110156121825760405162461bcd60e51b815260206004820152602660248201527f45524332303a207472616e7366657220616d6f756e7420657863656564732062604482015265616c616e636560d01b6064820152608401610a1d565b6001600160a01b0380851660008181526034602052604080822086860390559286168082529083902080548601905591517fddf252ad1be2c89b69c2b068fc378daa952ba7f163c4a11628f55a4df523b3ef906121e29086815260200190565b60405180910390a3611b75565b600061117861332f565b6001600160a01b03831661225b5760405162461bcd60e51b8152602060048201526024808201527f45524332303a20617070726f76652066726f6d20746865207a65726f206164646044820152637265737360e01b6064820152608401610a1d565b6001600160a01b0382166122bc5760405162461bcd60e51b815260206004820152602260248201527f45524332303a20617070726f766520746f20746865207a65726f206164647265604482015261737360f01b6064820152608401610a1d565b6001600160a01b0383811660008181526035602090815260408083209487168084529482529182902085905590518481527f8c5be1e5ebec7d5bd14f71427d1e84f3dd0314c0f7b2291e5b200ac8c7c3b925910160405180910390a3505050565b600160ca55565b61232c6121ef565b6001600160a01b03166123476066546001600160a01b031690565b6001600160a01b0316146111b95760405162461bcd60e51b815260206004820181905260248201527f4f776e61626c653a2063616c6c6572206973206e6f7420746865206f776e65726044820152606401610a1d565b60006123a98484611d77565b90506000198114611b7557818110156124045760405162461bcd60e51b815260206004820152601d60248201527f45524332303a20696e73756666696369656e7420616c6c6f77616e63650000006044820152606401610a1d565b611b7584848484036121f9565b612419613363565b6098805460ff191690557f5db9ee0a495bf2e6ff9c91a7834c1ba4fdd244a5e8aa4e537bd38aeae4b073aa61244c6121ef565b6040516001600160a01b03909116815260200160405180910390a1565b6001600160a01b038216600090815260ff6020819052604090912060030154620100009004166124d15760405162461bcd60e51b8152602060048201526013602482015272214e4f545f414c4c4f5745442861737365742960681b6044820152606401610a1d565b600081116125195760405162461bcd60e51b815260206004820152601560248201527421494e56414c4944286173736574416d6f756e742960581b6044820152606401610a1d565b6001600160a01b038216600090815260ff60205260409020600201548161253f84612b5c565b6125499190613dc6565b111561258f5760405162461bcd60e51b8152602060048201526015602482015274214445504f5349545f4c494d49542861737365742960581b6044820152606401610a1d565b60fd5481906001600160a01b03848116911614612607576001600160a01b038316600090815260ff602052604081206001810154909190612710906125d49086613f16565b6125de9190613f35565b60fd549091506126029086906001600160a01b03166125fd8488613d76565b612712565b925050505b610102548110156126495760405162461bcd60e51b815260206004820152600c60248201526b0853525397d1115413d4d25560a21b6044820152606401610a1d565b80600061265560365490565b111561269a5761266361322b565b600161266e60365490565b6126789085613f16565b6126829190613d76565b61268c9190613f35565b612697906001613dc6565b90505b6126af6001600160a01b0385168730866133ac565b6126b98582613417565b60408051848152602081018490529081018290526001600160a01b0380861691908716907fbef68d45f01f5e2c114616dc4840e7a543da6ec57afc5700e4be96056a899b4e9060600160405180910390a3505050505050565b6000826001600160a01b0316846001600160a01b031614156127645760405162461bcd60e51b815260206004820152600b60248201526a0854d0535157d054d4d15560aa1b6044820152606401610a1d565b6001600160a01b03848116600090815260ff6020526040902054166127c15760405162461bcd60e51b815260206004820152601360248201527221494e56414c49442866726f6d41737365742960681b6044820152606401610a1d565b6001600160a01b03838116600090815260ff6020526040902054166128205760405162461bcd60e51b8152602060048201526015602482015274214e4f545f414c4c4f57454428746f41737365742960581b6044820152606401610a1d565b8161282d57506000610aa0565b6001600160a01b03808516600090815260ff6020526040808220548151633fabe5a360e21b815291519293849391169163feaf968c9160048083019260a0929190829003018186803b15801561288257600080fd5b505afa158015612896573d6000803e3d6000fd5b505050506040513d601f19601f820116820180604052508101906128ba9190613f71565b506101035492955093508492505015806128e05750610103546128dd8342613d76565b11155b61291e5760405162461bcd60e51b815260206004820152600f60248201526e0854149250d157d3d5551110551151608a1b6044820152606401610a1d565b6001600160a01b03808716600090815260ff602052604090819020548151633fabe5a360e21b8152915192169163feaf968c9160048082019260a092909190829003018186803b15801561297157600080fd5b505afa158015612985573d6000803e3d6000fd5b505050506040513d601f19601f820116820180604052508101906129a99190613f71565b506101035492965094508592505015806129cf5750610103546129cc8442613d76565b11155b612a0d5760405162461bcd60e51b815260206004820152600f60248201526e0854149250d157d3d5551110551151608a1b6044820152606401610a1d565b6001600160a01b03808816600090815260ff60208190526040808320600390810154948d16845292209091015461010090819004821692041614612b1c576001600160a01b038716600090815260ff6020819052604090912060030154612a7e9183916101008104821691166134d8565b6001600160a01b03808a16600090815260ff60208190526040808320600390810154948d168452922090910154612ac0928692610100909104811691166134d8565b6001600160a01b03808b16600090815260ff60208190526040808320600390810154948e168452922090910154612afd928b9290811691166134d8565b612b079190613f16565b612b119190613f35565b945050505050610aa0565b6001600160a01b03808916600090815260ff60208190526040808320600390810154948c16845292209091015483928592612afd928b92821691166134d8565b6040516370a0823160e01b81523060048201526000906001600160a01b038316906370a082319060240160206040518083038186803b158015612b9e57600080fd5b505afa158015612bb2573d6000803e3d6000fd5b505050506040513d601f19601f82011682018060405250810190610ac59190613fc1565b6000612be160365490565b612be9575090565b60365482612bf561322b565b6120319190613f16565b606680546001600160a01b038381166001600160a01b0319831681179093556040519116919082907f8be0079c531659141344cd1fd0a4f28419497f9722a3daafe3b4186f6b6457e090600090a35050565b612c5b8184613dc6565b8411612c9a5760405162461bcd60e51b815260206004820152600e60248201526d2156414c55455f544f4f5f4c4f5760901b6044820152606401610a1d565b6001600160a01b0386166000908152610104602052604080822081518083019092528054829060ff166001811115612cd457612cd4613b88565b6001811115612ce557612ce5613b88565b8152905461010090046001600160a01b03166020909101529050600181516001811115612d1457612d14613b88565b1415612e255760fd54602082015186916001600160a01b03918216911614612e0f576020808301516001600160a01b0316600090815260ff9182905260409020600381015490916201000090910416612daf5760405162461bcd60e51b815260206004820152601a60248201527f214e4f545f414c4c4f5745442866756e64696e674173736574290000000000006044820152606401610a1d565b60fd546020840151612dcb916001600160a01b03169089612712565b600182015490925015612e0d576001810154612de990612710613d76565b612df583612710613f16565b612dff9190613f35565b612e0a906001613dc6565b91505b505b612e1f8889846020015184612469565b50612e87565b600081516001811115612e3a57612e3a613b88565b14612e875760405162461bcd60e51b815260206004820152601760248201527f21494e56414c49442866756e64696e67536f75726365290000000000000000006044820152606401610a1d565b6000612e928661200a565b905060008515612ea857612ea58661200a565b90505b60008085118015612ec157506001600160a01b03861615155b15612ed257612ecf8561200a565b90505b612edd8a8a85612044565b8115612efb5760fe54612efb908a906001600160a01b031684612044565b8015612f0c57612f0c898783612044565b6040805189815260208101859052908101889052606081018390526080810186905260a081018290526001600160a01b03808816918b8216918d16907fe231cd9559a5a16d19e2bf003665b108bb05f45a7318361550754822be725a1d9060c00160405180910390a450505050505050505050565b612f89611fc4565b6098805460ff191660011790557f62e78cea01bee320cd4e420270b5ea74000d11b0c9f74754ebdbfc544b05a25861244c6121ef565b600054610100900460ff16612fe65760405162461bcd60e51b8152600401610a1d90613fda565b6111b9613549565b600054610100900460ff166130155760405162461bcd60e51b8152600401610a1d90613fda565b6111b9613580565b600054610100900460ff166130445760405162461bcd60e51b8152600401610a1d90613fda565b6111b96135b3565b600054610100900460ff166130735760405162461bcd60e51b8152600401610a1d90613fda565b6111ef82826135da565b6001600160a01b038216600090815260ff6020819052604090912060030154620100009004166130e55760405162461bcd60e51b8152602060048201526013602482015272214e4f545f414c4c4f5745442861737365742960681b6044820152606401610a1d565b6000811161312e5760405162461bcd60e51b815260206004820152601660248201527521494e56414c494428736861726573416d6f756e742960501b6044820152606401610a1d565b600061313982612bd6565b905061314c6131466121ef565b83613628565b60fd5481906001600160a01b038581169116146131bf576001600160a01b03808516600090815260ff6020526040902060fd54909161318d91168685612712565b915060006127108260010154846131a49190613f16565b6131ae9190613f35565b90506131ba8184613d76565b925050505b6131d36001600160a01b038516868361375c565b60408051828152602081018490529081018490526001600160a01b0380861691908716907fc90b5405a6805d53680586ef15168b1d791e67ceebe68fa62eefdb81478763cc9060600160405180910390a35050505050565b600080805b610100548110156133295760fd5461010080546001600160a01b03909216918390811061325f5761325f613d2f565b6000918252602090912001546001600160a01b031614156132a05760fd5461328f906001600160a01b0316612b5c565b6132999083613dc6565b9150613317565b61330a61010082815481106132b7576132b7613d2f565b60009182526020909120015460fd5461010080546001600160a01b0393841693909216916125fd9190869081106132f0576132f0613d2f565b6000918252602090912001546001600160a01b0316612b5c565b6133149083613dc6565b91505b8061332181613d5b565b915050613230565b50919050565b60006014361080159061334c57506033546001600160a01b031633145b1561335e575060131936013560601c90565b503390565b60985460ff166111b95760405162461bcd60e51b815260206004820152601460248201527314185d5cd8589b194e881b9bdd081c185d5cd95960621b6044820152606401610a1d565b6040516001600160a01b0380851660248301528316604482015260648101829052611b759085906323b872dd60e01b906084015b60408051601f198184030181529190526020810180516001600160e01b03166001600160e01b03199093169290921790915261378c565b6001600160a01b03821661346d5760405162461bcd60e51b815260206004820152601f60248201527f45524332303a206d696e7420746f20746865207a65726f2061646472657373006044820152606401610a1d565b806036600082825461347f9190613dc6565b90915550506001600160a01b0382166000818152603460209081526040808320805486019055518481527fddf252ad1be2c89b69c2b068fc378daa952ba7f163c4a11628f55a4df523b3ef910160405180910390a35050565b60008160ff168360ff161015613511576134f28383614025565b6135009060ff16600a614048565b61350a9085613f16565b9050610aa0565b8160ff168360ff161115613541576135298284614025565b6135379060ff16600a614048565b61350a9085613f35565b509192915050565b600054610100900460ff166135705760405162461bcd60e51b8152600401610a1d90613fda565b6111b961357b6121ef565b612bff565b600054610100900460ff166135a75760405162461bcd60e51b8152600401610a1d90613fda565b6098805460ff19169055565b600054610100900460ff1661231d5760405162461bcd60e51b8152600401610a1d90613fda565b600054610100900460ff166136015760405162461bcd60e51b8152600401610a1d90613fda565b8151613614906037906020850190613972565b50805161158f906038906020840190613972565b6001600160a01b0382166136885760405162461bcd60e51b815260206004820152602160248201527f45524332303a206275726e2066726f6d20746865207a65726f206164647265736044820152607360f81b6064820152608401610a1d565b6001600160a01b038216600090815260346020526040902054818110156136fc5760405162461bcd60e51b815260206004820152602260248201527f45524332303a206275726e20616d6f756e7420657863656564732062616c616e604482015261636560f01b6064820152608401610a1d565b6001600160a01b03831660008181526034602090815260408083208686039055603680548790039055518581529192917fddf252ad1be2c89b69c2b068fc378daa952ba7f163c4a11628f55a4df523b3ef910160405180910390a3505050565b6040516001600160a01b03831660248201526044810182905261158f90849063a9059cbb60e01b906064016133e0565b60006137e1826040518060400160405280602081526020017f5361666545524332303a206c6f772d6c6576656c2063616c6c206661696c6564815250856001600160a01b031661385e9092919063ffffffff16565b80519091501561158f57808060200190518101906137ff9190614054565b61158f5760405162461bcd60e51b815260206004820152602a60248201527f5361666545524332303a204552433230206f7065726174696f6e20646964206e6044820152691bdd081cdd58d8d9595960b21b6064820152608401610a1d565b60606112008484600085856001600160a01b0385163b6138c05760405162461bcd60e51b815260206004820152601d60248201527f416464726573733a2063616c6c20746f206e6f6e2d636f6e74726163740000006044820152606401610a1d565b600080866001600160a01b031685876040516138dc9190614076565b60006040518083038185875af1925050503d8060008114613919576040519150601f19603f3d011682016040523d82523d6000602084013e61391e565b606091505b509150915061392e828286613939565b979650505050505050565b60608315613948575081610aa0565b8251156139585782518084602001fd5b8160405162461bcd60e51b8152600401610a1d9190613a2e565b82805461397e90613cfa565b90600052602060002090601f0160209004810192826139a057600085556139e6565b82601f106139b957805160ff19168380011785556139e6565b828001600101855582156139e6579182015b828111156139e65782518255916020019190600101906139cb565b5061203b9291505b8082111561203b57600081556001016139ee565b60005b83811015613a1d578181015183820152602001613a05565b83811115611b755750506000910152565b6020815260008251806020840152613a4d816040850160208701613a02565b601f01601f19169190910160400192915050565b80356001600160a01b038116811461203f57600080fd5b600080600060608486031215613a8d57600080fd5b613a9684613a61565b9250613aa460208501613a61565b9150604084013590509250925092565b60008060408385031215613ac757600080fd5b613ad083613a61565b946020939093013593505050565b600060208284031215613af057600080fd5b610aa082613a61565b60008060008060808587031215613b0f57600080fd5b613b1885613a61565b9350613b2660208601613a61565b93969395505050506040820135916060013590565b6020808252825182820181905260009190848201906040850190845b81811015613b7c5783516001600160a01b031683529284019291840191600101613b57565b50909695505050505050565b634e487b7160e01b600052602160045260246000fd5b60028110613bbc57634e487b7160e01b600052602160045260246000fd5b9052565b6000604082019050613bd3828451613b9e565b6020928301516001600160a01b0316919092015290565b60008060008060008060c08789031215613c0357600080fd5b613c0c87613a61565b9550613c1a60208801613a61565b94506040870135935060608701359250613c3660808801613a61565b915060a087013590509295509295509295565b600060208284031215613c5b57600080fd5b5035919050565b600080600060608486031215613c7757600080fd5b613c8084613a61565b9250613c8e60208501613a61565b9150613c9c60408501613a61565b90509250925092565b60008060408385031215613cb857600080fd5b823560028110613cc757600080fd5b9150613cd560208401613a61565b90509250929050565b60008060408385031215613cf157600080fd5b613cc783613a61565b600181811c90821680613d0e57607f821691505b6020821081141561332957634e487b7160e01b600052602260045260246000fd5b634e487b7160e01b600052603260045260246000fd5b634e487b7160e01b600052601160045260246000fd5b6000600019821415613d6f57613d6f613d45565b5060010190565b600082821015613d8857613d88613d45565b500390565b634e487b7160e01b600052603160045260246000fd5b600060208284031215613db557600080fd5b815160ff81168114610aa057600080fd5b60008219821115613dd957613dd9613d45565b500190565b60208082526005908201526404282aaa8960db1b604082015260600190565b600181815b80851115613e38578160001904821115613e1e57613e1e613d45565b80851615613e2b57918102915b93841c9390800290613e02565b509250929050565b600082613e4f57506001610ac5565b81613e5c57506000610ac5565b8160018114613e725760028114613e7c57613e98565b6001915050610ac5565b60ff841115613e8d57613e8d613d45565b50506001821b610ac5565b5060208310610133831016604e8410600b8410161715613ebb575081810a610ac5565b613ec58383613dfd565b8060001904821115613ed957613ed9613d45565b029392505050565b6000610aa060ff841683613e40565b60408101613efe8285613b9e565b6001600160a01b039290921660209190910152919050565b6000816000190483118215151615613f3057613f30613d45565b500290565b600082613f5257634e487b7160e01b600052601260045260246000fd5b500490565b805169ffffffffffffffffffff8116811461203f57600080fd5b600080600080600060a08688031215613f8957600080fd5b613f9286613f57565b9450602086015193506040860151925060608601519150613fb560808701613f57565b90509295509295909350565b600060208284031215613fd357600080fd5b5051919050565b6020808252602b908201527f496e697469616c697a61626c653a20636f6e7472616374206973206e6f74206960408201526a6e697469616c697a696e6760a81b606082015260800190565b600060ff821660ff84168082101561403f5761403f613d45565b90039392505050565b6000610aa08383613e40565b60006020828403121561406657600080fd5b81518015158114610aa057600080fd5b60008251614088818460208701613a02565b919091019291505056fea2646970667358221220d5e3c5154fd09cac4f8444baab1a4ccedcdab8ff69d17f0778eeb41745cbe37a64736f6c63430008090033",
  "devdoc": {
    "kind": "dev",
    "methods": {
      "allowance(address,address)": {
        "details": "See {IERC20-allowance}."
      },
      "approve(address,uint256)": {
        "details": "See {IERC20-approve}. NOTE: If `amount` is the maximum `uint256`, the allowance is not updated on `transferFrom`. This is semantically equivalent to an infinite approval. Requirements: - `spender` cannot be the zero address."
      },
      "balanceOf(address)": {
        "details": "See {IERC20-balanceOf}."
      },
      "constructor": {
        "custom:oz-upgrades-unsafe-allow": "constructor"
      },
      "currentValueOf(address)": {
        "details": "Get current vault value of `_address` denominated in `baseAsset`",
        "params": {
          "_address": "Address to check"
        }
      },
      "decreaseAllowance(address,uint256)": {
        "details": "Atomically decreases the allowance granted to `spender` by the caller. This is an alternative to {approve} that can be used as a mitigation for problems described in {IERC20-approve}. Emits an {Approval} event indicating the updated allowance. Requirements: - `spender` cannot be the zero address. - `spender` must have allowance for the caller of at least `subtractedValue`."
      },
      "deposit(address,uint256)": {
        "details": "Deposit `_assetAmount` of `_asset` into the vault and credit the equivalent value of `baseAsset`",
        "params": {
          "_asset": "Address of incoming asset",
          "_assetAmount": "Amount of asset to deposit"
        }
      },
      "depositTo(address,address,uint256)": {
        "details": "Deposit `_assetAmount` of `_asset` into the vault and credit the equivalent value of `baseAsset`",
        "params": {
          "_asset": "Address of incoming asset",
          "_assetAmount": "Amount of asset to deposit",
          "_to": "Recipient of funds"
        }
      },
      "fundingSource(address)": {
        "details": "Retrieve the funding source for an address",
        "params": {
          "_address": "Address for lookup"
        }
      },
      "getAllAssets()": {
        "details": "Get all the assets supported by the vault."
      },
      "getAsset(address)": {
        "details": "Get asset details",
        "params": {
          "_asset": "Asset address"
        },
        "returns": {
          "_0": "Asset Asset details"
        }
      },
      "getBaseAsset()": {
        "details": "Get base asset of vault."
      },
      "increaseAllowance(address,uint256)": {
        "details": "Atomically increases the allowance granted to `spender` by the caller. This is an alternative to {approve} that can be used as a mitigation for problems described in {IERC20-approve}. Emits an {Approval} event indicating the updated allowance. Requirements: - `spender` cannot be the zero address."
      },
      "name()": {
        "details": "Returns the name of the token."
      },
      "owner()": {
        "details": "Returns the address of the current owner."
      },
      "paused()": {
        "details": "Returns true if the contract is paused, and false otherwise."
      },
      "pricePerShare()": {
        "details": "Get current vault value a vault share"
      },
      "protocolPayment(address,address,uint256)": {
        "details": "Pay `_value` of `baseAsset` from `_from` to `_to` initiated by an authorized protocol",
        "params": {
          "_from": "From address",
          "_to": "To address",
          "_value": "Amount of baseAsset value to transfer"
        }
      },
      "protocolPayment(address,address,uint256,uint256)": {
        "details": "Pay `_value` of `baseAsset` from `_from` to `_to` initiated by an authorized protocol",
        "params": {
          "_from": "From address",
          "_protocolFee": "Protocol fee to deduct from `_value`",
          "_to": "To address",
          "_value": "Amount of baseAsset value to transfer"
        }
      },
      "protocolPayment(address,address,uint256,uint256,address,uint256)": {
        "details": "Pay `_value` of `baseAsset` from `_from` to `_to` initiated by an authorized protocol",
        "params": {
          "_from": "From address",
          "_network": "Address of network fee collector",
          "_networkFee": "Network fee to deduct from `_value`",
          "_protocolFee": "Protocol fee to deduct from `_value`",
          "_to": "To address",
          "_value": "Amount of baseAsset value to transfer"
        }
      },
      "renounceOwnership()": {
        "details": "Leaves the contract without owner. It will not be possible to call `onlyOwner` functions anymore. Can only be called by the current owner. NOTE: Renouncing ownership will leave the contract without an owner, thereby removing any functionality that is only available to the owner."
      },
      "setFundingSource(uint8,address)": {
        "details": "Set the funding source and, if using a personal wallet, the asset to use for funding payments",
        "params": {
          "_fundingAsset": "Asset to use for payments (if using personal funding source)",
          "_fundingSource": "Funding source to use"
        }
      },
      "sharesForValue(uint256)": {
        "details": "Get the number of vault shares that represents a given value of the base asset",
        "params": {
          "_value": "Amount of value"
        }
      },
      "supportsAsset(address)": {
        "details": "Check if the vault supports an asset",
        "params": {
          "_asset": "Asset address"
        },
        "returns": {
          "_0": "bool `true` if asset supported, `false` otherwise"
        }
      },
      "symbol()": {
        "details": "Returns the symbol of the token, usually a shorter version of the name."
      },
      "totalAssetBalance(address)": {
        "details": "Get total amount of an asset held in vault and managed by admin",
        "params": {
          "_asset": "Address of asset"
        }
      },
      "totalSupply()": {
        "details": "See {IERC20-totalSupply}."
      },
      "totalValue()": {
        "details": "Get total value in vault and managed by admin - denominated in `baseAsset`"
      },
      "transfer(address,uint256)": {
        "details": "See {IERC20-transfer}. Requirements: - `to` cannot be the zero address. - the caller must have a balance of at least `amount`."
      },
      "transferFrom(address,address,uint256)": {
        "details": "See {IERC20-transferFrom}. Emits an {Approval} event indicating the updated allowance. This is not required by the EIP. See the note at the beginning of {ERC20}. NOTE: Does not update the allowance if the current allowance is the maximum `uint256`. Requirements: - `from` and `to` cannot be the zero address. - `from` must have a balance of at least `amount`. - the caller must have allowance for ``from``'s tokens of at least `amount`."
      },
      "transferOwnership(address)": {
        "details": "Transfers ownership of the contract to a new account (`newOwner`). Can only be called by the current owner."
      },
      "transferValue(address,uint256)": {
        "details": "Transfer the equivalent vault shares of base asset `value` to `_recipient`",
        "params": {
          "_recipient": "To address",
          "_value": "Amount of baseAsset value to transfer"
        }
      },
      "transferValueFrom(address,address,uint256)": {
        "details": "Transfer the equivalent vault shares of base asset `value` from `_sender` to `_recipient`",
        "params": {
          "_recipient": "To address",
          "_sender": "From address",
          "_value": "Amount of baseAsset value to transfer"
        }
      },
      "withdraw(address,uint256)": {
        "details": "Withdraw an amount of shares from the vault in the form of `_asset`",
        "params": {
          "_asset": "Address of outgoing asset",
          "_shares": "Amount of shares to withdraw"
        }
      },
      "withdrawTo(address,address,uint256)": {
        "details": "Withdraw an amount of shares from the vault in the form of `_asset`",
        "params": {
          "_asset": "Address of outgoing asset",
          "_recipient": "Recipient who will receive the withdrawn assets",
          "_shares": "Amount of shares to withdraw"
        }
      }
    },
    "version": 1
  },
  "userdoc": {
    "kind": "user",
    "methods": {
      "isTrustedForwarder(address)": {
        "notice": "return if the forwarder is trusted to forward relayed transactions to us. the forwarder is required to verify the sender's signature, and verify the call is not a replay."
      }
    },
    "version": 1
  },
  "storageLayout": {
    "storage": [
      {
        "astId": 333,
        "contract": "contracts/vault/CaskVault.sol:CaskVault",
        "label": "_initialized",
        "offset": 0,
        "slot": "0",
        "type": "t_uint8"
      },
      {
        "astId": 336,
        "contract": "contracts/vault/CaskVault.sol:CaskVault",
        "label": "_initializing",
        "offset": 1,
        "slot": "0",
        "type": "t_bool"
      },
      {
        "astId": 2877,
        "contract": "contracts/vault/CaskVault.sol:CaskVault",
        "label": "__gap",
        "offset": 0,
        "slot": "1",
        "type": "t_array(t_uint256)50_storage"
      },
      {
        "astId": 72,
        "contract": "contracts/vault/CaskVault.sol:CaskVault",
        "label": "_trustedForwarder",
        "offset": 0,
        "slot": "51",
        "type": "t_address"
      },
      {
        "astId": 714,
        "contract": "contracts/vault/CaskVault.sol:CaskVault",
        "label": "_balances",
        "offset": 0,
        "slot": "52",
        "type": "t_mapping(t_address,t_uint256)"
      },
      {
        "astId": 720,
        "contract": "contracts/vault/CaskVault.sol:CaskVault",
        "label": "_allowances",
        "offset": 0,
        "slot": "53",
        "type": "t_mapping(t_address,t_mapping(t_address,t_uint256))"
      },
      {
        "astId": 722,
        "contract": "contracts/vault/CaskVault.sol:CaskVault",
        "label": "_totalSupply",
        "offset": 0,
        "slot": "54",
        "type": "t_uint256"
      },
      {
        "astId": 724,
        "contract": "contracts/vault/CaskVault.sol:CaskVault",
        "label": "_name",
        "offset": 0,
        "slot": "55",
        "type": "t_string_storage"
      },
      {
        "astId": 726,
        "contract": "contracts/vault/CaskVault.sol:CaskVault",
        "label": "_symbol",
        "offset": 0,
        "slot": "56",
        "type": "t_string_storage"
      },
      {
        "astId": 1306,
        "contract": "contracts/vault/CaskVault.sol:CaskVault",
        "label": "__gap",
        "offset": 0,
        "slot": "57",
        "type": "t_array(t_uint256)45_storage"
      },
      {
        "astId": 205,
        "contract": "contracts/vault/CaskVault.sol:CaskVault",
        "label": "_owner",
        "offset": 0,
        "slot": "102",
        "type": "t_address"
      },
      {
        "astId": 325,
        "contract": "contracts/vault/CaskVault.sol:CaskVault",
        "label": "__gap",
        "offset": 0,
        "slot": "103",
        "type": "t_array(t_uint256)49_storage"
      },
      {
        "astId": 516,
        "contract": "contracts/vault/CaskVault.sol:CaskVault",
        "label": "_paused",
        "offset": 0,
        "slot": "152",
        "type": "t_bool"
      },
      {
        "astId": 621,
        "contract": "contracts/vault/CaskVault.sol:CaskVault",
        "label": "__gap",
        "offset": 0,
        "slot": "153",
        "type": "t_array(t_uint256)49_storage"
      },
      {
        "astId": 636,
        "contract": "contracts/vault/CaskVault.sol:CaskVault",
        "label": "_status",
        "offset": 0,
        "slot": "202",
        "type": "t_uint256"
      },
      {
        "astId": 694,
        "contract": "contracts/vault/CaskVault.sol:CaskVault",
        "label": "__gap",
        "offset": 0,
        "slot": "203",
        "type": "t_array(t_uint256)49_storage"
      },
      {
        "astId": 27296,
        "contract": "contracts/vault/CaskVault.sol:CaskVault",
        "label": "reserved1",
        "offset": 0,
        "slot": "252",
        "type": "t_address"
      },
      {
        "astId": 27298,
        "contract": "contracts/vault/CaskVault.sol:CaskVault",
        "label": "baseAsset",
        "offset": 0,
        "slot": "253",
        "type": "t_address"
      },
      {
        "astId": 27300,
        "contract": "contracts/vault/CaskVault.sol:CaskVault",
        "label": "feeDistributor",
        "offset": 0,
        "slot": "254",
        "type": "t_address"
      },
      {
        "astId": 27305,
        "contract": "contracts/vault/CaskVault.sol:CaskVault",
        "label": "assets",
        "offset": 0,
        "slot": "255",
        "type": "t_mapping(t_address,t_struct(Asset)18597_storage)"
      },
      {
        "astId": 27308,
        "contract": "contracts/vault/CaskVault.sol:CaskVault",
        "label": "allAssets",
        "offset": 0,
        "slot": "256",
        "type": "t_array(t_address)dyn_storage"
      },
      {
        "astId": 27311,
        "contract": "contracts/vault/CaskVault.sol:CaskVault",
        "label": "protocols",
        "offset": 0,
        "slot": "257",
        "type": "t_array(t_address)dyn_storage"
      },
      {
        "astId": 27313,
        "contract": "contracts/vault/CaskVault.sol:CaskVault",
        "label": "minDeposit",
        "offset": 0,
        "slot": "258",
        "type": "t_uint256"
      },
      {
        "astId": 27315,
        "contract": "contracts/vault/CaskVault.sol:CaskVault",
        "label": "maxPriceFeedAge",
        "offset": 0,
        "slot": "259",
        "type": "t_uint256"
      },
      {
        "astId": 27320,
        "contract": "contracts/vault/CaskVault.sol:CaskVault",
        "label": "fundingProfiles",
        "offset": 0,
        "slot": "260",
        "type": "t_mapping(t_address,t_struct(FundingProfile)18606_storage)"
      }
    ],
    "types": {
      "t_address": {
        "encoding": "inplace",
        "label": "address",
        "numberOfBytes": "20"
      },
      "t_array(t_address)dyn_storage": {
        "base": "t_address",
        "encoding": "dynamic_array",
        "label": "address[]",
        "numberOfBytes": "32"
      },
      "t_array(t_uint256)45_storage": {
        "base": "t_uint256",
        "encoding": "inplace",
        "label": "uint256[45]",
        "numberOfBytes": "1440"
      },
      "t_array(t_uint256)49_storage": {
        "base": "t_uint256",
        "encoding": "inplace",
        "label": "uint256[49]",
        "numberOfBytes": "1568"
      },
      "t_array(t_uint256)50_storage": {
        "base": "t_uint256",
        "encoding": "inplace",
        "label": "uint256[50]",
        "numberOfBytes": "1600"
      },
      "t_bool": {
        "encoding": "inplace",
        "label": "bool",
        "numberOfBytes": "1"
      },
      "t_enum(FundingSource)18600": {
        "encoding": "inplace",
        "label": "enum ICaskVault.FundingSource",
        "numberOfBytes": "1"
      },
      "t_mapping(t_address,t_mapping(t_address,t_uint256))": {
        "encoding": "mapping",
        "key": "t_address",
        "label": "mapping(address => mapping(address => uint256))",
        "numberOfBytes": "32",
        "value": "t_mapping(t_address,t_uint256)"
      },
      "t_mapping(t_address,t_struct(Asset)18597_storage)": {
        "encoding": "mapping",
        "key": "t_address",
        "label": "mapping(address => struct ICaskVault.Asset)",
        "numberOfBytes": "32",
        "value": "t_struct(Asset)18597_storage"
      },
      "t_mapping(t_address,t_struct(FundingProfile)18606_storage)": {
        "encoding": "mapping",
        "key": "t_address",
        "label": "mapping(address => struct ICaskVault.FundingProfile)",
        "numberOfBytes": "32",
        "value": "t_struct(FundingProfile)18606_storage"
      },
      "t_mapping(t_address,t_uint256)": {
        "encoding": "mapping",
        "key": "t_address",
        "label": "mapping(address => uint256)",
        "numberOfBytes": "32",
        "value": "t_uint256"
      },
      "t_string_storage": {
        "encoding": "bytes",
        "label": "string",
        "numberOfBytes": "32"
      },
      "t_struct(Asset)18597_storage": {
        "encoding": "inplace",
        "label": "struct ICaskVault.Asset",
        "members": [
          {
            "astId": 18586,
            "contract": "contracts/vault/CaskVault.sol:CaskVault",
            "label": "priceFeed",
            "offset": 0,
            "slot": "0",
            "type": "t_address"
          },
          {
            "astId": 18588,
            "contract": "contracts/vault/CaskVault.sol:CaskVault",
            "label": "slippageBps",
            "offset": 0,
            "slot": "1",
            "type": "t_uint256"
          },
          {
            "astId": 18590,
            "contract": "contracts/vault/CaskVault.sol:CaskVault",
            "label": "depositLimit",
            "offset": 0,
            "slot": "2",
            "type": "t_uint256"
          },
          {
            "astId": 18592,
            "contract": "contracts/vault/CaskVault.sol:CaskVault",
            "label": "assetDecimals",
            "offset": 0,
            "slot": "3",
            "type": "t_uint8"
          },
          {
            "astId": 18594,
            "contract": "contracts/vault/CaskVault.sol:CaskVault",
            "label": "priceFeedDecimals",
            "offset": 1,
            "slot": "3",
            "type": "t_uint8"
          },
          {
            "astId": 18596,
            "contract": "contracts/vault/CaskVault.sol:CaskVault",
            "label": "allowed",
            "offset": 2,
            "slot": "3",
            "type": "t_bool"
          }
        ],
        "numberOfBytes": "128"
      },
      "t_struct(FundingProfile)18606_storage": {
        "encoding": "inplace",
        "label": "struct ICaskVault.FundingProfile",
        "members": [
          {
            "astId": 18603,
            "contract": "contracts/vault/CaskVault.sol:CaskVault",
            "label": "fundingSource",
            "offset": 0,
            "slot": "0",
            "type": "t_enum(FundingSource)18600"
          },
          {
            "astId": 18605,
            "contract": "contracts/vault/CaskVault.sol:CaskVault",
            "label": "fundingAsset",
            "offset": 1,
            "slot": "0",
            "type": "t_address"
          }
        ],
        "numberOfBytes": "32"
      },
      "t_uint256": {
        "encoding": "inplace",
        "label": "uint256",
        "numberOfBytes": "32"
      },
      "t_uint8": {
        "encoding": "inplace",
        "label": "uint8",
        "numberOfBytes": "1"
      }
    }
  }
}