{
  "address": "0xc65d61D5Cd588610f63faBa9332505122436C209",
  "abi": [
    {
      "inputs": [],
      "stateMutability": "nonpayable",
      "type": "constructor"
    },
    {
      "anonymous": false,
      "inputs": [
        {
          "indexed": false,
          "internalType": "uint8",
          "name": "version",
          "type": "uint8"
        }
      ],
      "name": "Initialized",
      "type": "event"
    },
    {
      "anonymous": false,
      "inputs": [
        {
          "indexed": true,
          "internalType": "address",
          "name": "previousOwner",
          "type": "address"
        },
        {
          "indexed": true,
          "internalType": "address",
          "name": "newOwner",
          "type": "address"
        }
      ],
      "name": "OwnershipTransferred",
      "type": "event"
    },
    {
      "anonymous": false,
      "inputs": [
        {
          "indexed": false,
          "internalType": "address",
          "name": "account",
          "type": "address"
        }
      ],
      "name": "Paused",
      "type": "event"
    },
    {
      "anonymous": false,
      "inputs": [
        {
          "indexed": false,
          "internalType": "uint256",
          "name": "limit",
          "type": "uint256"
        },
        {
          "indexed": false,
          "internalType": "uint256",
          "name": "jobsProcessed",
          "type": "uint256"
        },
        {
          "indexed": false,
          "internalType": "uint256",
          "name": "depth",
          "type": "uint256"
        },
        {
          "indexed": false,
          "internalType": "uint8",
          "name": "queueId",
          "type": "uint8"
        },
        {
          "indexed": false,
          "internalType": "uint256",
          "name": "queueRemaining",
          "type": "uint256"
        },
        {
          "indexed": false,
          "internalType": "uint32",
          "name": "currentBucket",
          "type": "uint32"
        }
      ],
      "name": "QueueRunReport",
      "type": "event"
    },
    {
      "anonymous": false,
      "inputs": [
        {
          "indexed": false,
          "internalType": "address",
          "name": "registry",
          "type": "address"
        }
      ],
      "name": "RegistryAllowed",
      "type": "event"
    },
    {
      "anonymous": false,
      "inputs": [
        {
          "indexed": false,
          "internalType": "address",
          "name": "registry",
          "type": "address"
        }
      ],
      "name": "RegistryDisallowed",
      "type": "event"
    },
    {
      "anonymous": false,
      "inputs": [
        {
          "indexed": false,
          "internalType": "address",
          "name": "feeDistributor",
          "type": "address"
        }
      ],
      "name": "SetFeeDistributor",
      "type": "event"
    },
    {
      "anonymous": false,
      "inputs": [
        {
          "indexed": false,
          "internalType": "address",
          "name": "account",
          "type": "address"
        }
      ],
      "name": "Unpaused",
      "type": "event"
    },
    {
      "anonymous": false,
      "inputs": [
        {
          "indexed": false,
          "internalType": "uint8",
          "name": "queueId",
          "type": "uint8"
        },
        {
          "indexed": false,
          "internalType": "bytes32",
          "name": "workUnit",
          "type": "bytes32"
        }
      ],
      "name": "WorkUnitProcessed",
      "type": "event"
    },
    {
      "anonymous": false,
      "inputs": [
        {
          "indexed": false,
          "internalType": "uint8",
          "name": "queueId",
          "type": "uint8"
        },
        {
          "indexed": false,
          "internalType": "bytes32",
          "name": "workUnit",
          "type": "bytes32"
        },
        {
          "indexed": false,
          "internalType": "uint32",
          "name": "processAt",
          "type": "uint32"
        }
      ],
      "name": "WorkUnitQueued",
      "type": "event"
    },
    {
      "inputs": [
        {
          "internalType": "address",
          "name": "_registry",
          "type": "address"
        }
      ],
      "name": "allowRegistry",
      "outputs": [],
      "stateMutability": "nonpayable",
      "type": "function"
    },
    {
      "inputs": [
        {
          "internalType": "address",
          "name": "",
          "type": "address"
        }
      ],
      "name": "allowedRegistries",
      "outputs": [
        {
          "internalType": "bool",
          "name": "",
          "type": "bool"
        }
      ],
      "stateMutability": "view",
      "type": "function"
    },
    {
      "inputs": [],
      "name": "caskChainlinkTopup",
      "outputs": [
        {
          "internalType": "contract ICaskChainlinkTopup",
          "name": "",
          "type": "address"
        }
      ],
      "stateMutability": "view",
      "type": "function"
    },
    {
      "inputs": [],
      "name": "caskVault",
      "outputs": [
        {
          "internalType": "contract ICaskVault",
          "name": "",
          "type": "address"
        }
      ],
      "stateMutability": "view",
      "type": "function"
    },
    {
      "inputs": [
        {
          "internalType": "bytes",
          "name": "checkData",
          "type": "bytes"
        }
      ],
      "name": "checkUpkeep",
      "outputs": [
        {
          "internalType": "bool",
          "name": "upkeepNeeded",
          "type": "bool"
        },
        {
          "internalType": "bytes",
          "name": "performData",
          "type": "bytes"
        }
      ],
      "stateMutability": "view",
      "type": "function"
    },
    {
      "inputs": [
        {
          "internalType": "address",
          "name": "_registry",
          "type": "address"
        }
      ],
      "name": "disallowRegistry",
      "outputs": [],
      "stateMutability": "nonpayable",
      "type": "function"
    },
    {
      "inputs": [],
      "name": "feeDistributor",
      "outputs": [
        {
          "internalType": "address",
          "name": "",
          "type": "address"
        }
      ],
      "stateMutability": "view",
      "type": "function"
    },
    {
      "inputs": [
        {
          "internalType": "address",
          "name": "_caskChainlinkTopup",
          "type": "address"
        },
        {
          "internalType": "address",
          "name": "_caskVault",
          "type": "address"
        },
        {
          "internalType": "address",
          "name": "_linkBridgeToken",
          "type": "address"
        },
        {
          "internalType": "address",
          "name": "_linkFundingToken",
          "type": "address"
        },
        {
          "internalType": "address",
          "name": "_linkPriceFeed",
          "type": "address"
        },
        {
          "internalType": "address",
          "name": "_linkSwapRouter",
          "type": "address"
        },
        {
          "internalType": "address[]",
          "name": "_linkSwapPath",
          "type": "address[]"
        },
        {
          "internalType": "address",
          "name": "_pegswap",
          "type": "address"
        },
        {
          "internalType": "address",
          "name": "_feeDistributor",
          "type": "address"
        }
      ],
      "name": "initialize",
      "outputs": [],
      "stateMutability": "nonpayable",
      "type": "function"
    },
    {
      "inputs": [],
      "name": "linkBridgeToken",
      "outputs": [
        {
          "internalType": "contract IERC20Metadata",
          "name": "",
          "type": "address"
        }
      ],
      "stateMutability": "view",
      "type": "function"
    },
    {
      "inputs": [],
      "name": "linkFundingToken",
      "outputs": [
        {
          "internalType": "contract LinkTokenInterface",
          "name": "",
          "type": "address"
        }
      ],
      "stateMutability": "view",
      "type": "function"
    },
    {
      "inputs": [],
      "name": "linkPriceFeed",
      "outputs": [
        {
          "internalType": "contract AggregatorV3Interface",
          "name": "",
          "type": "address"
        }
      ],
      "stateMutability": "view",
      "type": "function"
    },
    {
      "inputs": [
        {
          "internalType": "uint256",
          "name": "",
          "type": "uint256"
        }
      ],
      "name": "linkSwapPath",
      "outputs": [
        {
          "internalType": "address",
          "name": "",
          "type": "address"
        }
      ],
      "stateMutability": "view",
      "type": "function"
    },
    {
      "inputs": [],
      "name": "linkSwapRouter",
      "outputs": [
        {
          "internalType": "contract IUniswapV2Router02",
          "name": "",
          "type": "address"
        }
      ],
      "stateMutability": "view",
      "type": "function"
    },
    {
      "inputs": [],
      "name": "maxPriceFeedAge",
      "outputs": [
        {
          "internalType": "uint256",
          "name": "",
          "type": "uint256"
        }
      ],
      "stateMutability": "view",
      "type": "function"
    },
    {
      "inputs": [],
      "name": "maxQueueAge",
      "outputs": [
        {
          "internalType": "uint32",
          "name": "",
          "type": "uint32"
        }
      ],
      "stateMutability": "view",
      "type": "function"
    },
    {
      "inputs": [],
      "name": "maxSkips",
      "outputs": [
        {
          "internalType": "uint256",
          "name": "",
          "type": "uint256"
        }
      ],
      "stateMutability": "view",
      "type": "function"
    },
    {
      "inputs": [],
      "name": "maxSwapSlippageBps",
      "outputs": [
        {
          "internalType": "uint256",
          "name": "",
          "type": "uint256"
        }
      ],
      "stateMutability": "view",
      "type": "function"
    },
    {
      "inputs": [],
      "name": "maxTopupsPerGroupRun",
      "outputs": [
        {
          "internalType": "uint256",
          "name": "",
          "type": "uint256"
        }
      ],
      "stateMutability": "view",
      "type": "function"
    },
    {
      "inputs": [],
      "name": "owner",
      "outputs": [
        {
          "internalType": "address",
          "name": "",
          "type": "address"
        }
      ],
      "stateMutability": "view",
      "type": "function"
    },
    {
      "inputs": [],
      "name": "paused",
      "outputs": [
        {
          "internalType": "bool",
          "name": "",
          "type": "bool"
        }
      ],
      "stateMutability": "view",
      "type": "function"
    },
    {
      "inputs": [],
      "name": "pegswap",
      "outputs": [
        {
          "internalType": "contract IPegSwap",
          "name": "",
          "type": "address"
        }
      ],
      "stateMutability": "view",
      "type": "function"
    },
    {
      "inputs": [
        {
          "internalType": "bytes",
          "name": "performData",
          "type": "bytes"
        }
      ],
      "name": "performUpkeep",
      "outputs": [],
      "stateMutability": "nonpayable",
      "type": "function"
    },
    {
      "inputs": [],
      "name": "queueBucketSize",
      "outputs": [
        {
          "internalType": "uint32",
          "name": "",
          "type": "uint32"
        }
      ],
      "stateMutability": "view",
      "type": "function"
    },
    {
      "inputs": [
        {
          "internalType": "uint8",
          "name": "_queueId",
          "type": "uint8"
        },
        {
          "internalType": "uint32",
          "name": "_bucket",
          "type": "uint32"
        },
        {
          "internalType": "uint256",
          "name": "_idx",
          "type": "uint256"
        }
      ],
      "name": "queueItem",
      "outputs": [
        {
          "internalType": "bytes32",
          "name": "",
          "type": "bytes32"
        }
      ],
      "stateMutability": "view",
      "type": "function"
    },
    {
      "inputs": [
        {
          "internalType": "uint8",
          "name": "_queueId",
          "type": "uint8"
        }
      ],
      "name": "queuePosition",
      "outputs": [
        {
          "internalType": "uint32",
          "name": "",
          "type": "uint32"
        }
      ],
      "stateMutability": "view",
      "type": "function"
    },
    {
      "inputs": [
        {
          "internalType": "uint8",
          "name": "_queueId",
          "type": "uint8"
        },
        {
          "internalType": "uint32",
          "name": "_bucket",
          "type": "uint32"
        }
      ],
      "name": "queueSize",
      "outputs": [
        {
          "internalType": "uint256",
          "name": "",
          "type": "uint256"
        }
      ],
      "stateMutability": "view",
      "type": "function"
    },
    {
      "inputs": [
        {
          "internalType": "address",
          "name": "_asset",
          "type": "address"
        },
        {
          "internalType": "address",
          "name": "_dest",
          "type": "address"
        }
      ],
      "name": "recoverFunds",
      "outputs": [],
      "stateMutability": "nonpayable",
      "type": "function"
    },
    {
      "inputs": [
        {
          "internalType": "bytes32",
          "name": "_chainlinkTopupId",
          "type": "bytes32"
        }
      ],
      "name": "registerChainlinkTopup",
      "outputs": [],
      "stateMutability": "nonpayable",
      "type": "function"
    },
    {
      "inputs": [
        {
          "internalType": "address",
          "name": "_registry",
          "type": "address"
        }
      ],
      "name": "registryAllowed",
      "outputs": [
        {
          "internalType": "bool",
          "name": "",
          "type": "bool"
        }
      ],
      "stateMutability": "view",
      "type": "function"
    },
    {
      "inputs": [],
      "name": "renounceOwnership",
      "outputs": [],
      "stateMutability": "nonpayable",
      "type": "function"
    },
    {
      "inputs": [
        {
          "internalType": "address",
          "name": "_linkBridgeToken",
          "type": "address"
        },
        {
          "internalType": "address",
          "name": "_linkFundingToken",
          "type": "address"
        },
        {
          "internalType": "address",
          "name": "_linkPriceFeed",
          "type": "address"
        },
        {
          "internalType": "address",
          "name": "_linkSwapRouter",
          "type": "address"
        },
        {
          "internalType": "address[]",
          "name": "_linkSwapPath",
          "type": "address[]"
        },
        {
          "internalType": "address",
          "name": "_pegswap",
          "type": "address"
        }
      ],
      "name": "setChainklinkAddresses",
      "outputs": [],
      "stateMutability": "nonpayable",
      "type": "function"
    },
    {
      "inputs": [
        {
          "internalType": "address",
          "name": "_feeDistributor",
          "type": "address"
        }
      ],
      "name": "setFeeDistributor",
      "outputs": [],
      "stateMutability": "nonpayable",
      "type": "function"
    },
    {
      "inputs": [
        {
          "internalType": "uint32",
          "name": "_maxQueueAge",
          "type": "uint32"
        }
      ],
      "name": "setMaxQueueAge",
      "outputs": [],
      "stateMutability": "nonpayable",
      "type": "function"
    },
    {
      "inputs": [
        {
          "internalType": "uint256",
          "name": "_maxSkips",
          "type": "uint256"
        },
        {
          "internalType": "uint256",
          "name": "_topupFeeBps",
          "type": "uint256"
        },
        {
          "internalType": "uint256",
          "name": "_topupFeeMin",
          "type": "uint256"
        },
        {
          "internalType": "uint256",
          "name": "_maxPriceFeedAge",
          "type": "uint256"
        },
        {
          "internalType": "uint256",
          "name": "_maxTopupsPerGroupRun",
          "type": "uint256"
        },
        {
          "internalType": "uint256",
          "name": "_maxSwapSlippageBps",
          "type": "uint256"
        },
        {
          "internalType": "uint32",
          "name": "_queueBucketSize",
          "type": "uint32"
        },
        {
          "internalType": "uint32",
          "name": "_maxQueueAge",
          "type": "uint32"
        }
      ],
      "name": "setParameters",
      "outputs": [],
      "stateMutability": "nonpayable",
      "type": "function"
    },
    {
      "inputs": [
        {
          "internalType": "uint32",
          "name": "_queueBucketSize",
          "type": "uint32"
        }
      ],
      "name": "setQueueBucketSize",
      "outputs": [],
      "stateMutability": "nonpayable",
      "type": "function"
    },
    {
      "inputs": [
        {
          "internalType": "uint8",
          "name": "_queueId",
          "type": "uint8"
        },
        {
          "internalType": "uint32",
          "name": "_timestamp",
          "type": "uint32"
        }
      ],
      "name": "setQueuePosition",
      "outputs": [],
      "stateMutability": "nonpayable",
      "type": "function"
    },
    {
      "inputs": [],
      "name": "topupFeeBps",
      "outputs": [
        {
          "internalType": "uint256",
          "name": "",
          "type": "uint256"
        }
      ],
      "stateMutability": "view",
      "type": "function"
    },
    {
      "inputs": [],
      "name": "topupFeeMin",
      "outputs": [
        {
          "internalType": "uint256",
          "name": "",
          "type": "uint256"
        }
      ],
      "stateMutability": "view",
      "type": "function"
    },
    {
      "inputs": [
        {
          "internalType": "address",
          "name": "newOwner",
          "type": "address"
        }
      ],
      "name": "transferOwnership",
      "outputs": [],
      "stateMutability": "nonpayable",
      "type": "function"
    }
  ],
  "transactionHash": "0x531ad9795ac6372eec92f9ffc3dbc0fcc17f649693f272b580c47f9fb598272a",
  "args": [],
  "numDeployments": 12,
  "solcInputHash": "2e3b175bb4a00449bf1006859628dc59",
  "bytecode": "0x60806040523480156200001157600080fd5b50600054610100900460ff1615808015620000335750600054600160ff909116105b8062000063575062000050306200013d60201b620012921760201c565b15801562000063575060005460ff166001145b620000cb5760405162461bcd60e51b815260206004820152602e60248201527f496e697469616c697a61626c653a20636f6e747261637420697320616c72656160448201526d191e481a5b9a5d1a585b1a5e995960921b606482015260840160405180910390fd5b6000805460ff191660011790558015620000ef576000805461ff0019166101001790555b801562000136576000805461ff0019169055604051600181527f7f26b83ff96e1f2b6a682f133852f6798a09c465da95921460cefb38474024989060200160405180910390a15b506200014c565b6001600160a01b03163b151590565b61462a806200015c6000396000f3fe608060405234801561001057600080fd5b506004361061023c5760003560e01c80638bddd2e41161013b578063cd48a614116100b8578063f0f4feb81161007c578063f0f4feb814610521578063f2fde38b14610534578063faec9c2214610547578063fce024001461055a578063ff7137fd1461056d57600080fd5b8063cd48a614146104a9578063d5f59fb9146104bc578063dfd609bb146104e8578063e6cab671146104fb578063f009451e1461050e57600080fd5b8063b95f1624116100ff578063b95f162414610459578063c29c0e9c1461046c578063c506465314610475578063c6f8806c1461047e578063ccfc2e8d1461049657600080fd5b80638bddd2e4146104095780638da5cb5b14610419578063a47755d11461042a578063aa878f761461043d578063b7c3565d1461045057600080fd5b806324ae6a27116101c95780635c975abb1161018d5780635c975abb146103af5780636e04ff0d146103ba578063715018a6146103db578063729d8107146103e357806384b4609f146103f657600080fd5b806324ae6a271461033a5780632f77bb661461034d5780634585e33b146103565780635098c41e146103695780635bd482fd1461037c57600080fd5b80630caae41d116102105780630caae41d146102b05780630d43e8ad146102c357806314fad707146102d6578063191888f6146102e95780631c39033c146102fc57600080fd5b8062912b371461024157806305f2becf1461027157806306cd9e18146102845780630816c84714610299575b600080fd5b60d154610254906001600160a01b031681565b6040516001600160a01b0390911681526020015b60405180910390f35b60cd54610254906001600160a01b031681565b6102976102923660046136c8565b610576565b005b6102a260d85481565b604051908152602001610268565b6102976102be366004613706565b6105d6565b60db54610254906001600160a01b031681565b6102a26102e436600461373f565b610616565b60cf54610254906001600160a01b031681565b61032561030a366004613780565b60ff16600090815260cb602052604090205463ffffffff1690565b60405163ffffffff9091168152602001610268565b61029761034836600461379d565b610660565b6102a260d95481565b6102976103643660046137cb565b61076c565b610297610377366004613887565b610ae0565b61039f61038a3660046136c8565b60cc6020526000908152604090205460ff1681565b6040519015158152602001610268565b60655460ff1661039f565b6103cd6103c83660046137cb565b610b67565b604051610268929190613980565b610297610ce6565b6102976103f136600461399b565b610cfa565b6102976104043660046136c8565b610d2a565b60c9546103259063ffffffff1681565b6033546001600160a01b0316610254565b60ce54610254906001600160a01b031681565b6102a261044b366004613706565b610d86565b6102a260da5481565b6102546104673660046139b8565b610db1565b6102a260d65481565b6102a260d55481565b60c95461032590640100000000900463ffffffff1681565b6102976104a43660046136c8565b610ddb565b6102976104b736600461399b565b610e31565b61039f6104ca3660046136c8565b6001600160a01b0316600090815260cc602052604090205460ff1690565b6102976104f63660046139d1565b610e55565b6102976105093660046139b8565b610ea8565b60d454610254906001600160a01b031681565b61029761052f366004613a44565b611041565b6102976105423660046136c8565b61121c565b60d354610254906001600160a01b031681565b60d054610254906001600160a01b031681565b6102a260d75481565b61057e6112a1565b6001600160a01b038116600081815260cc6020908152604091829020805460ff1916905590519182527f41ff3cbb6d9f3c743a5fd7b126595848bf20fe04ced3af1bcfc8313f20f925c391015b60405180910390a150565b6105de6112a1565b6105e7816112fb565b60ff92909216600090815260cb60205260409020805463ffffffff191663ffffffff9093169290921790915550565b60ff8316600090815260ca6020908152604080832063ffffffff86168452909152812080548390811061064b5761064b613b1e565b906000526020600020015490505b9392505050565b6106686112a1565b6040516370a0823160e01b81523060048201526001600160a01b0383169063a9059cbb90839083906370a082319060240160206040518083038186803b1580156106b157600080fd5b505afa1580156106c5573d6000803e3d6000fd5b505050506040513d601f19601f820116820180604052508101906106e99190613b34565b6040516001600160e01b031960e085901b1681526001600160a01b0390921660048301526024820152604401602060405180830381600087803b15801561072f57600080fd5b505af1158015610743573d6000803e3d6000fd5b505050506040513d601f19601f820116820180604052508101906107679190613b62565b505050565b610774611325565b61077c61136b565b6000808061078c84860186613b7d565b925092509250600061079c6113c5565b90506000806107ac866005613bcc565b60ff8516600090815260cb602052604090205490915063ffffffff166107f25760ff8416600090815260cb60205260409020805463ffffffff191663ffffffff85161790555b60ff8416600090815260cb602052604090205463ffffffff8085169116111561084f5760405162461bcd60e51b815260206004820152600a60248201526921544f4f5f4541524c5960b01b60448201526064015b60405180910390fd5b858210801561085e5750600081115b8015610885575060ff8416600090815260cb602052604090205463ffffffff808516911611155b15610a445760ff8416600090815260ca6020908152604080832060cb83528184205463ffffffff16845290915290205480156109b45760ff8516600090815260ca6020908152604080832060cb83528184205463ffffffff16845290915281206108f0600184613beb565b8154811061090057610900613b1e565b600091825260208083209091015460ff8916835260ca8252604080842060cb84528185205463ffffffff16855290925291208054919250908061094557610945613c02565b6001900381819060005260206000200160009055905561096586826113ed565b6040805160ff88168152602081018390527f58c7ae721fd25aaf84e68db9ce9ac6fed4f08438a370a4299d19f8c1425c499e910160405180910390a16109ac600185613c18565b935050610a3e565b60ff8516600090815260cb602052604090205463ffffffff80861691161015610a385760c95460ff8616600090815260cb60205260408120805463ffffffff93841693919291610a0691859116613c30565b92506101000a81548163ffffffff021916908363ffffffff160217905550600182610a319190613beb565b9150610a3e565b50610a44565b5061084f565b60ff8416600081815260ca6020908152604080832060cb8084528285205463ffffffff168086529184528285205494869052835281518b81529283018790528282018a90526060830194909452608082019290925260a0810192909252517fd69140f88b9a25350749bb371882f4479133fc8b65602aac60f6c1b3598f08329181900360c00190a1505050505050610adc6001609755565b5050565b610ae86112a1565b60cf80546001600160a01b03808a166001600160a01b03199283161790925560d0805489841690831617905560d1805488841690831617905560d3805492871692909116919091179055610b3e60d2848461363b565b5060d480546001600160a01b0319166001600160a01b0392909216919091179055505050505050565b60006060818080610b7a86880188613b7d565b9250925092506000610b8a6113c5565b60ff8316600090815260cb602052604081205490975090915063ffffffff1680610bb15750805b8063ffffffff168263ffffffff1610158015610bec575060c954640100000000900463ffffffff16610be38284613c58565b63ffffffff1610155b15610bfa5760019650610c8a565b8163ffffffff168163ffffffff1611610c8a5760ff8316600090815260ca6020908152604080832063ffffffff8516845290915290205415801590610c62575060ff8316600090815260ca6020908152604080832063ffffffff851684529091529020548411155b15610c705760019650610c8a565b60c954610c839063ffffffff1682613c30565b9050610bfa565b60ff8316600081815260ca6020908152604080832063ffffffff86168452825291829020548251918201899052918101919091526060810191909152608001604051602081830303815290604052955050505050509250929050565b610cee6112a1565b610cf8600061151b565b565b610d026112a1565b60c9805463ffffffff9092166401000000000267ffffffff0000000019909216919091179055565b610d326112a1565b6001600160a01b038116600081815260cc6020908152604091829020805460ff1916600117905590519182527faa9fd3a8c3d93ebd697846ec56ec5fa196deef170601239a813cae8d80dfcddb91016105cb565b60ff8216600090815260ca6020908152604080832063ffffffff851684529091529020545b92915050565b60d28181548110610dc157600080fd5b6000918252602090912001546001600160a01b0316905081565b610de36112a1565b60db80546001600160a01b0319166001600160a01b0383169081179091556040519081527f9e9a9a4a82acd1b28aab6bf1d43aad70ae6d290549c0d6183e2e91ebcdf57441906020016105cb565b610e396112a1565b60c9805463ffffffff191663ffffffff92909216919091179055565b610e5d6112a1565b60d59790975560d69590955560d79390935560d89190915560d95560da5560c9805463ffffffff9384166401000000000267ffffffffffffffff199091169390921692909217179055565b610eb061136b565b610eb8611325565b60cd5460405163c68f5eb360e01b8152600481018390526000916001600160a01b03169063c68f5eb3906024016101c06040518083038186803b158015610efe57600080fd5b505afa158015610f12573d6000803e3d6000fd5b505050506040513d601f19601f82011682018060405250810190610f369190613d33565b90506000816020015111610f805760405162461bcd60e51b815260206004820152601160248201527021494e56414c49442867726f757049642960781b6044820152606401610846565b610f898261156d565b5060cd54602082015160405163552de85160e11b815260048101919091526000916001600160a01b03169063aa5bd0a29060240160006040518083038186803b158015610fd557600080fd5b505afa158015610fe9573d6000803e3d6000fd5b505050506040513d6000823e601f3d908101601f191682016040526110119190810190613e2e565b80515190915060011415611032576110326001836020015160001b4261186f565b505061103e6001609755565b50565b600054610100900460ff16158080156110615750600054600160ff909116105b8061107b5750303b15801561107b575060005460ff166001145b6110de5760405162461bcd60e51b815260206004820152602e60248201527f496e697469616c697a61626c653a20636f6e747261637420697320616c72656160448201526d191e481a5b9a5d1a585b1a5e995960921b6064820152608401610846565b6000805460ff191660011790558015611101576000805461ff0019166101001790555b60cd80546001600160a01b03199081166001600160a01b038e81169190911790925560ce805482168d841617905560cf805482168c841617905560d0805482168b841617905560d1805482168a841617905560d3805490911691881691909117905561116f60d2868661363b565b5060d480546001600160a01b038086166001600160a01b03199283161790925560db805492851692909116919091179055600060d581905560d681905560d781905560d855600160d955606460da556111c961a8c0611937565b801561120f576000805461ff0019169055604051600181527f7f26b83ff96e1f2b6a682f133852f6798a09c465da95921460cefb38474024989060200160405180910390a15b5050505050505050505050565b6112246112a1565b6001600160a01b0381166112895760405162461bcd60e51b815260206004820152602660248201527f4f776e61626c653a206e6577206f776e657220697320746865207a65726f206160448201526564647265737360d01b6064820152608401610846565b61103e8161151b565b6001600160a01b03163b151590565b6033546001600160a01b03163314610cf85760405162461bcd60e51b815260206004820181905260248201527f4f776e61626c653a2063616c6c6572206973206e6f7420746865206f776e65726044820152606401610846565b60c95460009063ffffffff166113118184613f0d565b61131b9084613c58565b610dab9190613c30565b60655460ff1615610cf85760405162461bcd60e51b815260206004820152601060248201526f14185d5cd8589b194e881c185d5cd95960821b6044820152606401610846565b600260975414156113be5760405162461bcd60e51b815260206004820152601f60248201527f5265656e7472616e637947756172643a207265656e7472616e742063616c6c006044820152606401610846565b6002609755565b60c95460009042906113dd9063ffffffff1682613f0d565b6113e79082613c58565b91505090565b60cd5460405163552de85160e11b8152600481018390526000916001600160a01b03169063aa5bd0a29060240160006040518083038186803b15801561143257600080fd5b505afa158015611446573d6000803e3d6000fd5b505050506040513d6000823e601f3d908101601f1916820160405261146e9190810190613e2e565b80515190915061147d57505050565b6000805b82515181108015611493575060d95482105b156114e3576114be836000015182815181106114b1576114b1613b1e565b602002602001015161156d565b156114d1576114ce600183613c18565b91505b806114db81613f30565b915050611481565b50815151811015806114f6575060d95481105b1561150b5761150684844261186f565b611515565b611515848461197f565b50505050565b603380546001600160a01b038381166001600160a01b0319831681179093556040519116919082907f8be0079c531659141344cd1fd0a4f28419497f9722a3daafe3b4186f6b6457e090600090a35050565b60cd5460405163c68f5eb360e01b81526004810183905260009182916001600160a01b039091169063c68f5eb3906024016101c06040518083038186803b1580156115b757600080fd5b505afa1580156115cb573d6000803e3d6000fd5b505050506040513d601f19601f820116820180604052508101906115ef9190613d33565b90506001816101800151600381111561160a5761160a613f4b565b146116185750600092915050565b4263ffffffff16816101a0015163ffffffff16106116395750600092915050565b61164283611a06565b158061168e57506003816101600151600381111561166257611662613f4b565b1415801561168e57506101408101516001600160a01b0316600090815260cc602052604090205460ff16155b156117015760cd54604051635ba581cd60e01b81526001600160a01b0390911690635ba581cd906116c6908690600190600401613f7f565b600060405180830381600087803b1580156116e057600080fd5b505af11580156116f4573d6000803e3d6000fd5b5060009695505050505050565b806040015161170f84611c5e565b1061171d5750600092915050565b600061271060d65483606001516117349190613bcc565b61173e9190613f9c565b905060d75481101561174f575060d7545b600061175b8583611f13565b905080156117e15760cd546060840151604051632d32f27960e21b815260048101889052602481019190915260448101839052606481018490526001600160a01b039091169063b4cbc9e490608401600060405180830381600087803b1580156117c457600080fd5b505af11580156117d8573d6000803e3d6000fd5b50505050611864565b600060d5541180156117f9575060d5548360e0015110155b156118645760cd54604051635ba581cd60e01b81526001600160a01b0390911690635ba581cd90611831908890600290600401613f7f565b600060405180830381600087803b15801561184b57600080fd5b505af115801561185f573d6000803e3d6000fd5b505050505b506001949350505050565b600061187a826112fb565b60ff8516600090815260cb602052604090205490915063ffffffff90811690821610156118bc575060ff8316600090815260cb602052604090205463ffffffff165b60ff8416600081815260ca6020908152604080832063ffffffff861680855290835281842080546001810182559085529383902090930187905580519384529083018690528201527f67778e52b18dcf574ab071142a886fce91a8ce5e60e176229fdadb8c063caaed9060600160405180910390a150505050565b600054610100900460ff1661195e5760405162461bcd60e51b815260040161084690613fb0565b611966612c47565b61196e612c76565b611976612ca5565b61103e81612ccc565b60006119896113c5565b60ff8416600081815260ca6020908152604080832063ffffffff861680855290835281842080546001810182559085529383902090930187905580519384529083018690528201529091507f67778e52b18dcf574ab071142a886fce91a8ce5e60e176229fdadb8c063caaed9060600160405180910390a1505050565b60cd5460405163c68f5eb360e01b81526004810183905260009182916001600160a01b039091169063c68f5eb3906024016101c06040518083038186803b158015611a5057600080fd5b505afa158015611a64573d6000803e3d6000fd5b505050506040513d601f19601f82011682018060405250810190611a889190613d33565b905060018161016001516003811115611aa357611aa3613f4b565b1415611b53576101408101516101208201516040516363e1d0cd60e11b815260048101919091526001600160a01b0382169063c7c3a19a9060240160006040518083038186803b158015611af657600080fd5b505afa925050508015611b2b57506040513d6000823e601f3d908101601f19168201604052611b289190810190614029565b60015b611b39575060009392505050565b6001600160401b03908116149a9950505050505050505050565b60028161016001516003811115611b6c57611b6c613f4b565b1415611c205761014081015161012082015160405163523e3b4b60e11b81526001600160401b0390911660048201526001600160a01b0382169063a47c76969060240160006040518083038186803b158015611bc757600080fd5b505afa925050508015611bfc57506040513d6000823e601f3d908101601f19168201604052611bf99190810190614127565b60015b611c0a575060009392505050565b506001600160a01b031615159695505050505050565b60038161016001516003811115611c3957611c39613f4b565b1415611c555761014001516001600160a01b0316151592915050565b50600092915050565b60cd5460405163c68f5eb360e01b81526004810183905260009182916001600160a01b039091169063c68f5eb3906024016101c06040518083038186803b158015611ca857600080fd5b505afa158015611cbc573d6000803e3d6000fd5b505050506040513d601f19601f82011682018060405250810190611ce09190613d33565b90506001600160601b0360018261016001516003811115611d0357611d03613f4b565b1415611da2576101408201516101208301516040516363e1d0cd60e11b815260048101919091526001600160a01b0382169063c7c3a19a9060240160006040518083038186803b158015611d5657600080fd5b505afa158015611d6a573d6000803e3d6000fd5b505050506040513d6000823e601f3d908101601f19168201604052611d929190810190614029565b50919650611f0395505050505050565b60028261016001516003811115611dbb57611dbb613f4b565b1415611e5f5761014082015161012083015160405163523e3b4b60e11b81526001600160401b0390911660048201526001600160a01b0382169063a47c76969060240160006040518083038186803b158015611e1657600080fd5b505afa158015611e2a573d6000803e3d6000fd5b505050506040513d6000823e601f3d908101601f19168201604052611e529190810190614127565b50919350611f0392505050565b60038261016001516003811115611e7857611e78613f4b565b1415611f035760d0546101408301516040516370a0823160e01b81526001600160a01b0391821660048201529116906370a082319060240160206040518083038186803b158015611ec857600080fd5b505afa158015611edc573d6000803e3d6000fd5b505050506040513d601f19601f82011682018060405250810190611f009190613b34565b90505b6001600160601b03169392505050565b60cd5460405163c68f5eb360e01b81526004810184905260009182916001600160a01b039091169063c68f5eb3906024016101c06040518083038186803b158015611f5d57600080fd5b505afa158015611f71573d6000803e3d6000fd5b505050506040513d601f19601f82011682018060405250810190611f959190613d33565b9050600060ce60009054906101000a90046001600160a01b03166001600160a01b0316638d3a4af66040518163ffffffff1660e01b815260040160206040518083038186803b158015611fe757600080fd5b505afa158015611ffb573d6000803e3d6000fd5b505050506040513d601f19601f8201168201806040525081019061201f91906141f5565b6040516370a0823160e01b81523060048201526001600160a01b0391909116906370a082319060240160206040518083038186803b15801561206057600080fd5b505afa158015612074573d6000803e3d6000fd5b505050506040513d601f19601f820116820180604052508101906120989190613b34565b60ce548351606085015160405163fcd6a25b60e01b81526001600160a01b039283166004820152306024820152604481019190915260006064820152929350169063fcd6a25b90608401600060405180830381600087803b1580156120fc57600080fd5b505af192505050801561210d575060015b6121c9573d80801561213b576040519150601f19603f3d011682016040523d82523d6000602084013e612140565b606091505b5060cd5460c9546001600160a01b0390911690630d4d98a590889061216b9063ffffffff1642613c30565b60016040518463ffffffff1660e01b815260040161218b93929190614212565b600060405180830381600087803b1580156121a557600080fd5b505af11580156121b9573d6000803e3d6000fd5b5050505060009350505050610dab565b60ce5460608301516000916001600160a01b03169063e1ded2de906121ef908890613beb565b6040518263ffffffff1660e01b815260040161220d91815260200190565b60206040518083038186803b15801561222557600080fd5b505afa158015612239573d6000803e3d6000fd5b505050506040513d601f19601f8201168201806040525081019061225d9190613b34565b60ce546040516370a0823160e01b81523060048201529192506001600160a01b0316906370a082319060240160206040518083038186803b1580156122a157600080fd5b505afa1580156122b5573d6000803e3d6000fd5b505050506040513d601f19601f820116820180604052508101906122d99190613b34565b81111561235e5760ce546040516370a0823160e01b81523060048201526001600160a01b03909116906370a082319060240160206040518083038186803b15801561232357600080fd5b505afa158015612337573d6000803e3d6000fd5b505050506040513d601f19601f8201168201806040525081019061235b9190613b34565b90505b60ce546040805163469d257b60e11b815290516001600160a01b039092169163f3fef3a3918391638d3a4af691600480820192602092909190829003018186803b1580156123ab57600080fd5b505afa1580156123bf573d6000803e3d6000fd5b505050506040513d601f19601f820116820180604052508101906123e391906141f5565b6040516001600160e01b031960e084901b1681526001600160a01b03909116600482015260248101849052604401600060405180830381600087803b15801561242b57600080fd5b505af115801561243f573d6000803e3d6000fd5b5050505060008260ce60009054906101000a90046001600160a01b03166001600160a01b0316638d3a4af66040518163ffffffff1660e01b815260040160206040518083038186803b15801561249457600080fd5b505afa1580156124a8573d6000803e3d6000fd5b505050506040513d601f19601f820116820180604052508101906124cc91906141f5565b6040516370a0823160e01b81523060048201526001600160a01b0391909116906370a082319060240160206040518083038186803b15801561250d57600080fd5b505afa158015612521573d6000803e3d6000fd5b505050506040513d601f19601f820116820180604052508101906125459190613b34565b61254f9190613beb565b9050600081116125965760405162461bcd60e51b815260206004820152601260248201527121494e56414c494428616d6f756e74496e2960701b6044820152606401610846565b60d35460ce546040805163469d257b60e11b8152905161262f936001600160a01b03908116938693911691638d3a4af691600480820192602092909190829003018186803b1580156125e757600080fd5b505afa1580156125fb573d6000803e3d6000fd5b505050506040513d601f19601f8201168201806040525081019061261f91906141f5565b6001600160a01b03169190612d39565b60d1546000906001600160a01b0316156127ac5760ce546040805163469d257b60e11b81529051612782926001600160a01b0316916330b8b2c6918391638d3a4af6916004808301926020929190829003018186803b15801561269157600080fd5b505afa1580156126a5573d6000803e3d6000fd5b505050506040513d601f19601f820116820180604052508101906126c991906141f5565b6040516001600160e01b031960e084901b1681526001600160a01b03909116600482015260240160c06040518083038186803b15801561270857600080fd5b505afa15801561271c573d6000803e3d6000fd5b505050506040513d601f19601f82011682018060405250810190612740919061423c565b60d2805461275090600190613beb565b8154811061276057612760613b1e565b60009182526020909120015460d1546001600160a01b03918216911685612e1c565b905061271060da54826127959190613bcc565b61279f9190613f9c565b6127a99082613beb565b90505b60d0546040516370a0823160e01b81523060048201526000916001600160a01b0316906370a082319060240160206040518083038186803b1580156127f057600080fd5b505afa158015612804573d6000803e3d6000fd5b505050506040513d601f19601f820116820180604052508101906128289190613b34565b60d3549091506001600160a01b03166338ed1739848460d23061284d42610e10613c18565b6040518663ffffffff1660e01b815260040161286d9594939291906142d4565b600060405180830381600087803b15801561288757600080fd5b505af115801561289b573d6000803e3d6000fd5b505050506040513d6000823e601f3d908101601f191682016040526128c3919081019061434a565b5060ce5460db546040516370a0823160e01b81523060048201526001600160a01b039283169263a9059cbb92169083906370a082319060240160206040518083038186803b15801561291457600080fd5b505afa158015612928573d6000803e3d6000fd5b505050506040513d601f19601f8201168201806040525081019061294c9190613b34565b6040516001600160e01b031960e085901b1681526001600160a01b0390921660048301526024820152604401602060405180830381600087803b15801561299257600080fd5b505af11580156129a6573d6000803e3d6000fd5b505050506040513d601f19601f820116820180604052508101906129ca9190613b62565b5060d4546001600160a01b031615612ba45760cf546040516370a0823160e01b81523060048201526000916001600160a01b0316906370a082319060240160206040518083038186803b158015612a2057600080fd5b505afa158015612a34573d6000803e3d6000fd5b505050506040513d601f19601f82011682018060405250810190612a589190613b34565b60d45460cf54919250612a78916001600160a01b03908116911683612d39565b60d45460cf5460d054604051632b7f092360e01b8152600481018590526001600160a01b0392831660248201529082166044820152911690632b7f092390606401600060405180830381600087803b158015612ad357600080fd5b505af1158015612ae7573d6000803e3d6000fd5b505060d0546040516370a0823160e01b81523060048201528493506001600160a01b0390911691506370a082319060240160206040518083038186803b158015612b3057600080fd5b505afa158015612b44573d6000803e3d6000fd5b505050506040513d601f19601f82011682018060405250810190612b689190613b34565b1015612ba25760405162461bcd60e51b81526020600482015260096024820152680215045475f535741560bc1b6044820152606401610846565b505b60d0546040516370a0823160e01b815230600482015260009183916001600160a01b03909116906370a082319060240160206040518083038186803b158015612bec57600080fd5b505afa158015612c00573d6000803e3d6000fd5b505050506040513d601f19601f82011682018060405250810190612c249190613b34565b612c2e9190613beb565b9050612c3a8a82613136565b9998505050505050505050565b600054610100900460ff16612c6e5760405162461bcd60e51b815260040161084690613fb0565b610cf8613381565b600054610100900460ff16612c9d5760405162461bcd60e51b815260040161084690613fb0565b610cf86133b1565b600054610100900460ff16610cf85760405162461bcd60e51b815260040161084690613fb0565b600054610100900460ff16612cf35760405162461bcd60e51b815260040161084690613fb0565b60c9805463ffffffff191663ffffffff8316908117909155612d169060146143cf565b60c960046101000a81548163ffffffff021916908363ffffffff16021790555050565b604051636eb1769f60e11b81523060048201526001600160a01b038381166024830152600091839186169063dd62ed3e9060440160206040518083038186803b158015612d8557600080fd5b505afa158015612d99573d6000803e3d6000fd5b505050506040513d601f19601f82011682018060405250810190612dbd9190613b34565b612dc79190613c18565b604080516001600160a01b038616602482015260448082018490528251808303909101815260649091019091526020810180516001600160e01b031663095ea7b360e01b1790529091506115159085906133e4565b600081612e2b5750600061312e565b6000806000866001600160a01b031663313ce5676040518163ffffffff1660e01b815260040160206040518083038186803b158015612e6957600080fd5b505afa158015612e7d573d6000803e3d6000fd5b505050506040513d601f19601f82011682018060405250810190612ea191906143fb565b90506000866001600160a01b031663313ce5676040518163ffffffff1660e01b815260040160206040518083038186803b158015612ede57600080fd5b505afa158015612ef2573d6000803e3d6000fd5b505050506040513d601f19601f82011682018060405250810190612f1691906143fb565b905088600001516001600160a01b031663feaf968c6040518163ffffffff1660e01b815260040160a06040518083038186803b158015612f5557600080fd5b505afa158015612f69573d6000803e3d6000fd5b505050506040513d601f19601f82011682018060405250810190612f8d9190614432565b5060d8549297509550869250501580612fb1575060d854612fae8542613beb565b11155b612fef5760405162461bcd60e51b815260206004820152600f60248201526e0854149250d157d3d5551110551151608a1b6044820152606401610846565b876001600160a01b031663feaf968c6040518163ffffffff1660e01b815260040160a06040518083038186803b15801561302857600080fd5b505afa15801561303c573d6000803e3d6000fd5b505050506040513d601f19601f820116820180604052508101906130609190614432565b5060d8549298509650879250501580613084575060d8546130818642613beb565b11155b6130c25760405162461bcd60e51b815260206004820152600f60248201526e0854149250d157d3d5551110551151608a1b6044820152606401610846565b8260ff168b6080015160ff161461311d576130de8184866134b6565b6130ed838d60800151876134b6565b6130fc8a8e60600151886134b6565b6131069190613bcc565b6131109190613f9c565b965050505050505061312e565b80826130fc8a8e60600151886134b6565b949350505050565b60cd5460405163c68f5eb360e01b8152600481018490526000916001600160a01b03169063c68f5eb3906024016101c06040518083038186803b15801561317c57600080fd5b505afa158015613190573d6000803e3d6000fd5b505050506040513d601f19601f820116820180604052508101906131b49190613d33565b9050600181610160015160038111156131cf576131cf613f4b565b14156132865760d0546101408201516101208301516040805160208101929092526001600160a01b0390931692634000aea092918691015b6040516020818303038152906040526040518463ffffffff1660e01b815260040161323493929190614482565b602060405180830381600087803b15801561324e57600080fd5b505af1158015613262573d6000803e3d6000fd5b505050506040513d601f19601f820116820180604052508101906115159190613b62565b6002816101600151600381111561329f5761329f613f4b565b14156132e35760d054610140820151610120830151604080516001600160401b0390921660208301526001600160a01b0390931692634000aea09291869101613207565b600381610160015160038111156132fc576132fc613f4b565b141561076757610120810151156133435760d0546101408201516101208301516040805160208101929092526001600160a01b0390931692634000aea09291869101613207565b60d05461014082015160405163a9059cbb60e01b81526001600160a01b0391821660048201526024810185905291169063a9059cbb90604401613234565b600054610100900460ff166133a85760405162461bcd60e51b815260040161084690613fb0565b610cf83361151b565b600054610100900460ff166133d85760405162461bcd60e51b815260040161084690613fb0565b6065805460ff19169055565b6000613439826040518060400160405280602081526020017f5361666545524332303a206c6f772d6c6576656c2063616c6c206661696c6564815250856001600160a01b03166135279092919063ffffffff16565b80519091501561076757808060200190518101906134579190613b62565b6107675760405162461bcd60e51b815260206004820152602a60248201527f5361666545524332303a204552433230206f7065726174696f6e20646964206e6044820152691bdd081cdd58d8d9595960b21b6064820152608401610846565b60008160ff168360ff1610156134ef576134d083836144b2565b6134de9060ff16600a6145b9565b6134e89085613bcc565b9050610659565b8160ff168360ff16111561351f5761350782846144b2565b6135159060ff16600a6145b9565b6134e89085613f9c565b509192915050565b606061312e8484600085856001600160a01b0385163b6135895760405162461bcd60e51b815260206004820152601d60248201527f416464726573733a2063616c6c20746f206e6f6e2d636f6e74726163740000006044820152606401610846565b600080866001600160a01b031685876040516135a591906145c5565b60006040518083038185875af1925050503d80600081146135e2576040519150601f19603f3d011682016040523d82523d6000602084013e6135e7565b606091505b50915091506135f7828286613602565b979650505050505050565b60608315613611575081610659565b8251156136215782518084602001fd5b8160405162461bcd60e51b815260040161084691906145e1565b82805482825590600052602060002090810192821561368e579160200282015b8281111561368e5781546001600160a01b0319166001600160a01b0384351617825560209092019160019091019061365b565b5061369a92915061369e565b5090565b5b8082111561369a576000815560010161369f565b6001600160a01b038116811461103e57600080fd5b6000602082840312156136da57600080fd5b8135610659816136b3565b60ff8116811461103e57600080fd5b63ffffffff8116811461103e57600080fd5b6000806040838503121561371957600080fd5b8235613724816136e5565b91506020830135613734816136f4565b809150509250929050565b60008060006060848603121561375457600080fd5b833561375f816136e5565b9250602084013561376f816136f4565b929592945050506040919091013590565b60006020828403121561379257600080fd5b8135610659816136e5565b600080604083850312156137b057600080fd5b82356137bb816136b3565b91506020830135613734816136b3565b600080602083850312156137de57600080fd5b82356001600160401b03808211156137f557600080fd5b818501915085601f83011261380957600080fd5b81358181111561381857600080fd5b86602082850101111561382a57600080fd5b60209290920196919550909350505050565b60008083601f84011261384e57600080fd5b5081356001600160401b0381111561386557600080fd5b6020830191508360208260051b850101111561388057600080fd5b9250929050565b600080600080600080600060c0888a0312156138a257600080fd5b87356138ad816136b3565b965060208801356138bd816136b3565b955060408801356138cd816136b3565b945060608801356138dd816136b3565b935060808801356001600160401b038111156138f857600080fd5b6139048a828b0161383c565b90945092505060a0880135613918816136b3565b8091505092959891949750929550565b60005b8381101561394357818101518382015260200161392b565b838111156115155750506000910152565b6000815180845261396c816020860160208601613928565b601f01601f19169290920160200192915050565b821515815260406020820152600061312e6040830184613954565b6000602082840312156139ad57600080fd5b8135610659816136f4565b6000602082840312156139ca57600080fd5b5035919050565b600080600080600080600080610100898b0312156139ee57600080fd5b883597506020890135965060408901359550606089013594506080890135935060a0890135925060c0890135613a23816136f4565b915060e0890135613a33816136f4565b809150509295985092959890939650565b6000806000806000806000806000806101208b8d031215613a6457600080fd5b8a35613a6f816136b3565b995060208b0135613a7f816136b3565b985060408b0135613a8f816136b3565b975060608b0135613a9f816136b3565b965060808b0135613aaf816136b3565b955060a08b0135613abf816136b3565b945060c08b01356001600160401b03811115613ada57600080fd5b613ae68d828e0161383c565b90955093505060e08b0135613afa816136b3565b91506101008b0135613b0b816136b3565b809150509295989b9194979a5092959850565b634e487b7160e01b600052603260045260246000fd5b600060208284031215613b4657600080fd5b5051919050565b80518015158114613b5d57600080fd5b919050565b600060208284031215613b7457600080fd5b61065982613b4d565b600080600060608486031215613b9257600080fd5b83359250602084013591506040840135613bab816136e5565b809150509250925092565b634e487b7160e01b600052601160045260246000fd5b6000816000190483118215151615613be657613be6613bb6565b500290565b600082821015613bfd57613bfd613bb6565b500390565b634e487b7160e01b600052603160045260246000fd5b60008219821115613c2b57613c2b613bb6565b500190565b600063ffffffff808316818516808303821115613c4f57613c4f613bb6565b01949350505050565b600063ffffffff83811690831681811015613c7557613c75613bb6565b039392505050565b634e487b7160e01b600052604160045260246000fd5b6040516101c081016001600160401b0381118282101715613cb657613cb6613c7d565b60405290565b604051602081016001600160401b0381118282101715613cb657613cb6613c7d565b604051601f8201601f191681016001600160401b0381118282101715613d0657613d06613c7d565b604052919050565b8051613b5d816136b3565b8051613b5d816136f4565b805160048110613b5d57600080fd5b60006101c08284031215613d4657600080fd5b613d4e613c93565b613d5783613d0e565b81526020830151602082015260408301516040820152606083015160608201526080830151608082015260a083015160a082015260c083015160c082015260e083015160e0820152610100613dad818501613d19565b908201526101208381015190820152610140613dca818501613d0e565b90820152610160613ddc848201613d24565b90820152610180613dee848201613d24565b908201526101a0613e00848201613d19565b908201529392505050565b60006001600160401b03821115613e2457613e24613c7d565b5060051b60200190565b60006020808385031215613e4157600080fd5b82516001600160401b0380821115613e5857600080fd5b8185019150828287031215613e6c57600080fd5b613e74613cbc565b825182811115613e8357600080fd5b80840193505086601f840112613e9857600080fd5b82519150613ead613ea883613e0b565b613cde565b82815260059290921b83018401918481019088841115613ecc57600080fd5b938501935b83851015613eea57845182529385019390850190613ed1565b8252509695505050505050565b634e487b7160e01b600052601260045260246000fd5b600063ffffffff80841680613f2457613f24613ef7565b92169190910692915050565b6000600019821415613f4457613f44613bb6565b5060010190565b634e487b7160e01b600052602160045260246000fd5b6003811061103e57634e487b7160e01b600052602160045260246000fd5b82815260408101613f8f83613f61565b8260208301529392505050565b600082613fab57613fab613ef7565b500490565b6020808252602b908201527f496e697469616c697a61626c653a20636f6e7472616374206973206e6f74206960408201526a6e697469616c697a696e6760a81b606082015260800190565b80516001600160601b0381168114613b5d57600080fd5b80516001600160401b0381168114613b5d57600080fd5b600080600080600080600060e0888a03121561404457600080fd5b875161404f816136b3565b6020890151909750614060816136f4565b60408901519096506001600160401b038082111561407d57600080fd5b818a0191508a601f83011261409157600080fd5b8151818111156140a3576140a3613c7d565b6140b6601f8201601f1916602001613cde565b91508082528b60208285010111156140cd57600080fd5b6140de816020840160208601613928565b5095506140ef905060608901613ffb565b93506140fd60808901613d0e565b925061410b60a08901613d0e565b915061411960c08901614012565b905092959891949750929550565b6000806000806080858703121561413d57600080fd5b61414685613ffb565b93506020614155818701614012565b93506040860151614165816136b3565b60608701519093506001600160401b0381111561418157600080fd5b8601601f8101881361419257600080fd5b80516141a0613ea882613e0b565b81815260059190911b8201830190838101908a8311156141bf57600080fd5b928401925b828410156141e65783516141d7816136b3565b825292840192908401906141c4565b979a9699509497505050505050565b60006020828403121561420757600080fd5b8151610659816136b3565b83815263ffffffff831660208201526060810161422e83613f61565b826040830152949350505050565b600060c0828403121561424e57600080fd5b60405160c081018181106001600160401b038211171561427057614270613c7d565b604052825161427e816136b3565b80825250602083015160208201526040830151604082015260608301516142a4816136e5565b606082015260808301516142b7816136e5565b60808201526142c860a08401613b4d565b60a08201529392505050565b600060a082018783526020878185015260a0604085015281875480845260c0860191508860005282600020935060005b818110156143295784546001600160a01b031683526001948501949284019201614304565b50506001600160a01b03969096166060850152505050608001529392505050565b6000602080838503121561435d57600080fd5b82516001600160401b0381111561437357600080fd5b8301601f8101851361438457600080fd5b8051614392613ea882613e0b565b81815260059190911b820183019083810190878311156143b157600080fd5b928401925b828410156135f7578351825292840192908401906143b6565b600063ffffffff808316818516818304811182151516156143f2576143f2613bb6565b02949350505050565b60006020828403121561440d57600080fd5b8151610659816136e5565b805169ffffffffffffffffffff81168114613b5d57600080fd5b600080600080600060a0868803121561444a57600080fd5b61445386614418565b945060208601519350604086015192506060860151915061447660808701614418565b90509295509295909350565b60018060a01b03841681528260208201526060604082015260006144a96060830184613954565b95945050505050565b600060ff821660ff8416808210156144cc576144cc613bb6565b90039392505050565b600181815b808511156145105781600019048211156144f6576144f6613bb6565b8085161561450357918102915b93841c93908002906144da565b509250929050565b60008261452757506001610dab565b8161453457506000610dab565b816001811461454a576002811461455457614570565b6001915050610dab565b60ff84111561456557614565613bb6565b50506001821b610dab565b5060208310610133831016604e8410600b8410161715614593575081810a610dab565b61459d83836144d5565b80600019048211156145b1576145b1613bb6565b029392505050565b60006106598383614518565b600082516145d7818460208701613928565b9190910192915050565b602081526000610659602083018461395456fea264697066735822122014302414fd3f10368aeeafe50aecd43cdcf93110ce06110240693651f6c96b2264736f6c63430008090033",
  "devdoc": {
    "kind": "dev",
    "methods": {
      "checkUpkeep(bytes)": {
        "details": "To ensure that it is never called, you may want to add the cannotExecute modifier from KeeperBase to your implementation of this method.",
        "params": {
          "checkData": "specified in the upkeep registration so it is always the same for a registered upkeep. This can easilly be broken down into specific arguments using `abi.decode`, so multiple upkeeps can be registered on the same contract and easily differentiated by the contract."
        },
        "returns": {
          "performData": "bytes that the keeper should call performUpkeep with, if upkeep is needed. If you would like to encode data to decode later, try `abi.encode`.",
          "upkeepNeeded": "boolean to indicate whether the keeper should call performUpkeep or not."
        }
      },
      "constructor": {
        "custom:oz-upgrades-unsafe-allow": "constructor"
      },
      "owner()": {
        "details": "Returns the address of the current owner."
      },
      "paused()": {
        "details": "Returns true if the contract is paused, and false otherwise."
      },
      "performUpkeep(bytes)": {
        "details": "The input to this method should not be trusted, and the caller of the method should not even be restricted to any single registry. Anyone should be able call it, and the input should be validated, there is no guarantee that the data passed in is the performData returned from checkUpkeep. This could happen due to malicious keepers, racing keepers, or simply a state change while the performUpkeep transaction is waiting for confirmation. Always validate the data passed in.",
        "params": {
          "performData": "is the data which was passed back from the checkData simulation. If it is encoded, it can easily be decoded into other types by calling `abi.decode`. This data should not be trusted, and should be validated against the contract's current state."
        }
      },
      "renounceOwnership()": {
        "details": "Leaves the contract without owner. It will not be possible to call `onlyOwner` functions anymore. Can only be called by the current owner. NOTE: Renouncing ownership will leave the contract without an owner, thereby removing any functionality that is only available to the owner."
      },
      "transferOwnership(address)": {
        "details": "Transfers ownership of the contract to a new account (`newOwner`). Can only be called by the current owner."
      }
    },
    "stateVariables": {
      "allowedRegistries": {
        "details": "map of registries address that are allowed "
      },
      "caskChainlinkTopup": {
        "details": "Pointer to CaskChainlinkTopup contract "
      },
      "caskVault": {
        "details": "vault to use for ChainlinkTopup funding. "
      },
      "feeDistributor": {
        "details": "Address to receive DCA fees. "
      },
      "maxPriceFeedAge": {
        "details": "max allowable age for price feed data. "
      },
      "maxSkips": {
        "details": "max number of failed ChainlinkTopup purchases before ChainlinkTopup is permanently canceled. "
      },
      "maxSwapSlippageBps": {
        "details": "max slippage allowed when buying LINK on the DEX for a topup. "
      },
      "maxTopupsPerGroupRun": {
        "details": "max number of topups to do per each run of a group. "
      },
      "topupFeeBps": {
        "details": "ChainlinkTopup transaction fee bps and min. "
      }
    },
    "version": 1
  },
  "userdoc": {
    "kind": "user",
    "methods": {
      "checkUpkeep(bytes)": {
        "notice": "method that is simulated by the keepers to see if any work actually needs to be performed. This method does does not actually need to be executable, and since it is only ever simulated it can consume lots of gas."
      },
      "performUpkeep(bytes)": {
        "notice": "method that is actually executed by the keepers, via the registry. The data returned by the checkUpkeep simulation will be passed into this method to actually be executed."
      }
    },
    "version": 1
  },
  "storageLayout": {
    "storage": [
      {
        "astId": 333,
        "contract": "contracts/chainlink_topup/CaskChainlinkTopupManager.sol:CaskChainlinkTopupManager",
        "label": "_initialized",
        "offset": 0,
        "slot": "0",
        "type": "t_uint8"
      },
      {
        "astId": 336,
        "contract": "contracts/chainlink_topup/CaskChainlinkTopupManager.sol:CaskChainlinkTopupManager",
        "label": "_initializing",
        "offset": 1,
        "slot": "0",
        "type": "t_bool"
      },
      {
        "astId": 2877,
        "contract": "contracts/chainlink_topup/CaskChainlinkTopupManager.sol:CaskChainlinkTopupManager",
        "label": "__gap",
        "offset": 0,
        "slot": "1",
        "type": "t_array(t_uint256)50_storage"
      },
      {
        "astId": 205,
        "contract": "contracts/chainlink_topup/CaskChainlinkTopupManager.sol:CaskChainlinkTopupManager",
        "label": "_owner",
        "offset": 0,
        "slot": "51",
        "type": "t_address"
      },
      {
        "astId": 325,
        "contract": "contracts/chainlink_topup/CaskChainlinkTopupManager.sol:CaskChainlinkTopupManager",
        "label": "__gap",
        "offset": 0,
        "slot": "52",
        "type": "t_array(t_uint256)49_storage"
      },
      {
        "astId": 516,
        "contract": "contracts/chainlink_topup/CaskChainlinkTopupManager.sol:CaskChainlinkTopupManager",
        "label": "_paused",
        "offset": 0,
        "slot": "101",
        "type": "t_bool"
      },
      {
        "astId": 621,
        "contract": "contracts/chainlink_topup/CaskChainlinkTopupManager.sol:CaskChainlinkTopupManager",
        "label": "__gap",
        "offset": 0,
        "slot": "102",
        "type": "t_array(t_uint256)49_storage"
      },
      {
        "astId": 636,
        "contract": "contracts/chainlink_topup/CaskChainlinkTopupManager.sol:CaskChainlinkTopupManager",
        "label": "_status",
        "offset": 0,
        "slot": "151",
        "type": "t_uint256"
      },
      {
        "astId": 694,
        "contract": "contracts/chainlink_topup/CaskChainlinkTopupManager.sol:CaskChainlinkTopupManager",
        "label": "__gap",
        "offset": 0,
        "slot": "152",
        "type": "t_array(t_uint256)49_storage"
      },
      {
        "astId": 18918,
        "contract": "contracts/chainlink_topup/CaskChainlinkTopupManager.sol:CaskChainlinkTopupManager",
        "label": "queueBucketSize",
        "offset": 0,
        "slot": "201",
        "type": "t_uint32"
      },
      {
        "astId": 18921,
        "contract": "contracts/chainlink_topup/CaskChainlinkTopupManager.sol:CaskChainlinkTopupManager",
        "label": "maxQueueAge",
        "offset": 4,
        "slot": "201",
        "type": "t_uint32"
      },
      {
        "astId": 18929,
        "contract": "contracts/chainlink_topup/CaskChainlinkTopupManager.sol:CaskChainlinkTopupManager",
        "label": "queue",
        "offset": 0,
        "slot": "202",
        "type": "t_mapping(t_uint8,t_mapping(t_uint32,t_array(t_bytes32)dyn_storage))"
      },
      {
        "astId": 18933,
        "contract": "contracts/chainlink_topup/CaskChainlinkTopupManager.sol:CaskChainlinkTopupManager",
        "label": "queueBucket",
        "offset": 0,
        "slot": "203",
        "type": "t_mapping(t_uint8,t_uint32)"
      },
      {
        "astId": 11331,
        "contract": "contracts/chainlink_topup/CaskChainlinkTopupManager.sol:CaskChainlinkTopupManager",
        "label": "allowedRegistries",
        "offset": 0,
        "slot": "204",
        "type": "t_mapping(t_address,t_bool)"
      },
      {
        "astId": 11335,
        "contract": "contracts/chainlink_topup/CaskChainlinkTopupManager.sol:CaskChainlinkTopupManager",
        "label": "caskChainlinkTopup",
        "offset": 0,
        "slot": "205",
        "type": "t_contract(ICaskChainlinkTopup)13079"
      },
      {
        "astId": 11339,
        "contract": "contracts/chainlink_topup/CaskChainlinkTopupManager.sol:CaskChainlinkTopupManager",
        "label": "caskVault",
        "offset": 0,
        "slot": "206",
        "type": "t_contract(ICaskVault)18895"
      },
      {
        "astId": 11342,
        "contract": "contracts/chainlink_topup/CaskChainlinkTopupManager.sol:CaskChainlinkTopupManager",
        "label": "linkBridgeToken",
        "offset": 0,
        "slot": "207",
        "type": "t_contract(IERC20Metadata)5548"
      },
      {
        "astId": 11345,
        "contract": "contracts/chainlink_topup/CaskChainlinkTopupManager.sol:CaskChainlinkTopupManager",
        "label": "linkFundingToken",
        "offset": 0,
        "slot": "208",
        "type": "t_contract(LinkTokenInterface)13216"
      },
      {
        "astId": 11348,
        "contract": "contracts/chainlink_topup/CaskChainlinkTopupManager.sol:CaskChainlinkTopupManager",
        "label": "linkPriceFeed",
        "offset": 0,
        "slot": "209",
        "type": "t_contract(AggregatorV3Interface)45"
      },
      {
        "astId": 11351,
        "contract": "contracts/chainlink_topup/CaskChainlinkTopupManager.sol:CaskChainlinkTopupManager",
        "label": "linkSwapPath",
        "offset": 0,
        "slot": "210",
        "type": "t_array(t_address)dyn_storage"
      },
      {
        "astId": 11354,
        "contract": "contracts/chainlink_topup/CaskChainlinkTopupManager.sol:CaskChainlinkTopupManager",
        "label": "linkSwapRouter",
        "offset": 0,
        "slot": "211",
        "type": "t_contract(IUniswapV2Router02)10191"
      },
      {
        "astId": 11357,
        "contract": "contracts/chainlink_topup/CaskChainlinkTopupManager.sol:CaskChainlinkTopupManager",
        "label": "pegswap",
        "offset": 0,
        "slot": "212",
        "type": "t_contract(IPegSwap)13121"
      },
      {
        "astId": 11360,
        "contract": "contracts/chainlink_topup/CaskChainlinkTopupManager.sol:CaskChainlinkTopupManager",
        "label": "maxSkips",
        "offset": 0,
        "slot": "213",
        "type": "t_uint256"
      },
      {
        "astId": 11363,
        "contract": "contracts/chainlink_topup/CaskChainlinkTopupManager.sol:CaskChainlinkTopupManager",
        "label": "topupFeeBps",
        "offset": 0,
        "slot": "214",
        "type": "t_uint256"
      },
      {
        "astId": 11365,
        "contract": "contracts/chainlink_topup/CaskChainlinkTopupManager.sol:CaskChainlinkTopupManager",
        "label": "topupFeeMin",
        "offset": 0,
        "slot": "215",
        "type": "t_uint256"
      },
      {
        "astId": 11368,
        "contract": "contracts/chainlink_topup/CaskChainlinkTopupManager.sol:CaskChainlinkTopupManager",
        "label": "maxPriceFeedAge",
        "offset": 0,
        "slot": "216",
        "type": "t_uint256"
      },
      {
        "astId": 11371,
        "contract": "contracts/chainlink_topup/CaskChainlinkTopupManager.sol:CaskChainlinkTopupManager",
        "label": "maxTopupsPerGroupRun",
        "offset": 0,
        "slot": "217",
        "type": "t_uint256"
      },
      {
        "astId": 11374,
        "contract": "contracts/chainlink_topup/CaskChainlinkTopupManager.sol:CaskChainlinkTopupManager",
        "label": "maxSwapSlippageBps",
        "offset": 0,
        "slot": "218",
        "type": "t_uint256"
      },
      {
        "astId": 11377,
        "contract": "contracts/chainlink_topup/CaskChainlinkTopupManager.sol:CaskChainlinkTopupManager",
        "label": "feeDistributor",
        "offset": 0,
        "slot": "219",
        "type": "t_address"
      }
    ],
    "types": {
      "t_address": {
        "encoding": "inplace",
        "label": "address",
        "numberOfBytes": "20"
      },
      "t_array(t_address)dyn_storage": {
        "base": "t_address",
        "encoding": "dynamic_array",
        "label": "address[]",
        "numberOfBytes": "32"
      },
      "t_array(t_bytes32)dyn_storage": {
        "base": "t_bytes32",
        "encoding": "dynamic_array",
        "label": "bytes32[]",
        "numberOfBytes": "32"
      },
      "t_array(t_uint256)49_storage": {
        "base": "t_uint256",
        "encoding": "inplace",
        "label": "uint256[49]",
        "numberOfBytes": "1568"
      },
      "t_array(t_uint256)50_storage": {
        "base": "t_uint256",
        "encoding": "inplace",
        "label": "uint256[50]",
        "numberOfBytes": "1600"
      },
      "t_bool": {
        "encoding": "inplace",
        "label": "bool",
        "numberOfBytes": "1"
      },
      "t_bytes32": {
        "encoding": "inplace",
        "label": "bytes32",
        "numberOfBytes": "32"
      },
      "t_contract(AggregatorV3Interface)45": {
        "encoding": "inplace",
        "label": "contract AggregatorV3Interface",
        "numberOfBytes": "20"
      },
      "t_contract(ICaskChainlinkTopup)13079": {
        "encoding": "inplace",
        "label": "contract ICaskChainlinkTopup",
        "numberOfBytes": "20"
      },
      "t_contract(ICaskVault)18895": {
        "encoding": "inplace",
        "label": "contract ICaskVault",
        "numberOfBytes": "20"
      },
      "t_contract(IERC20Metadata)5548": {
        "encoding": "inplace",
        "label": "contract IERC20Metadata",
        "numberOfBytes": "20"
      },
      "t_contract(IPegSwap)13121": {
        "encoding": "inplace",
        "label": "contract IPegSwap",
        "numberOfBytes": "20"
      },
      "t_contract(IUniswapV2Router02)10191": {
        "encoding": "inplace",
        "label": "contract IUniswapV2Router02",
        "numberOfBytes": "20"
      },
      "t_contract(LinkTokenInterface)13216": {
        "encoding": "inplace",
        "label": "contract LinkTokenInterface",
        "numberOfBytes": "20"
      },
      "t_mapping(t_address,t_bool)": {
        "encoding": "mapping",
        "key": "t_address",
        "label": "mapping(address => bool)",
        "numberOfBytes": "32",
        "value": "t_bool"
      },
      "t_mapping(t_uint32,t_array(t_bytes32)dyn_storage)": {
        "encoding": "mapping",
        "key": "t_uint32",
        "label": "mapping(uint32 => bytes32[])",
        "numberOfBytes": "32",
        "value": "t_array(t_bytes32)dyn_storage"
      },
      "t_mapping(t_uint8,t_mapping(t_uint32,t_array(t_bytes32)dyn_storage))": {
        "encoding": "mapping",
        "key": "t_uint8",
        "label": "mapping(uint8 => mapping(uint32 => bytes32[]))",
        "numberOfBytes": "32",
        "value": "t_mapping(t_uint32,t_array(t_bytes32)dyn_storage)"
      },
      "t_mapping(t_uint8,t_uint32)": {
        "encoding": "mapping",
        "key": "t_uint8",
        "label": "mapping(uint8 => uint32)",
        "numberOfBytes": "32",
        "value": "t_uint32"
      },
      "t_uint256": {
        "encoding": "inplace",
        "label": "uint256",
        "numberOfBytes": "32"
      },
      "t_uint32": {
        "encoding": "inplace",
        "label": "uint32",
        "numberOfBytes": "4"
      },
      "t_uint8": {
        "encoding": "inplace",
        "label": "uint8",
        "numberOfBytes": "1"
      }
    }
  }
}