{
  "address": "0xa7EA9b45a529B28c01704602398638b17456F4eD",
  "abi": [
    {
      "inputs": [],
      "stateMutability": "nonpayable",
      "type": "constructor"
    },
    {
      "anonymous": false,
      "inputs": [
        {
          "indexed": true,
          "internalType": "address",
          "name": "owner",
          "type": "address"
        },
        {
          "indexed": true,
          "internalType": "address",
          "name": "approved",
          "type": "address"
        },
        {
          "indexed": true,
          "internalType": "uint256",
          "name": "tokenId",
          "type": "uint256"
        }
      ],
      "name": "Approval",
      "type": "event"
    },
    {
      "anonymous": false,
      "inputs": [
        {
          "indexed": true,
          "internalType": "address",
          "name": "owner",
          "type": "address"
        },
        {
          "indexed": true,
          "internalType": "address",
          "name": "operator",
          "type": "address"
        },
        {
          "indexed": false,
          "internalType": "bool",
          "name": "approved",
          "type": "bool"
        }
      ],
      "name": "ApprovalForAll",
      "type": "event"
    },
    {
      "anonymous": false,
      "inputs": [
        {
          "indexed": true,
          "internalType": "address",
          "name": "previousOwner",
          "type": "address"
        },
        {
          "indexed": true,
          "internalType": "address",
          "name": "newOwner",
          "type": "address"
        }
      ],
      "name": "OwnershipTransferred",
      "type": "event"
    },
    {
      "anonymous": false,
      "inputs": [
        {
          "indexed": false,
          "internalType": "address",
          "name": "account",
          "type": "address"
        }
      ],
      "name": "Paused",
      "type": "event"
    },
    {
      "anonymous": false,
      "inputs": [
        {
          "indexed": true,
          "internalType": "address",
          "name": "consumer",
          "type": "address"
        },
        {
          "indexed": true,
          "internalType": "address",
          "name": "provider",
          "type": "address"
        },
        {
          "indexed": true,
          "internalType": "uint256",
          "name": "subscriptionId",
          "type": "uint256"
        },
        {
          "indexed": false,
          "internalType": "bytes32",
          "name": "ref",
          "type": "bytes32"
        },
        {
          "indexed": false,
          "internalType": "uint32",
          "name": "planId",
          "type": "uint32"
        }
      ],
      "name": "SubscriptionCanceled",
      "type": "event"
    },
    {
      "anonymous": false,
      "inputs": [
        {
          "indexed": true,
          "internalType": "address",
          "name": "consumer",
          "type": "address"
        },
        {
          "indexed": true,
          "internalType": "address",
          "name": "provider",
          "type": "address"
        },
        {
          "indexed": true,
          "internalType": "uint256",
          "name": "subscriptionId",
          "type": "uint256"
        },
        {
          "indexed": false,
          "internalType": "bytes32",
          "name": "ref",
          "type": "bytes32"
        },
        {
          "indexed": false,
          "internalType": "uint32",
          "name": "planId",
          "type": "uint32"
        },
        {
          "indexed": false,
          "internalType": "bytes32",
          "name": "discountId",
          "type": "bytes32"
        }
      ],
      "name": "SubscriptionChangedDiscount",
      "type": "event"
    },
    {
      "anonymous": false,
      "inputs": [
        {
          "indexed": true,
          "internalType": "address",
          "name": "consumer",
          "type": "address"
        },
        {
          "indexed": true,
          "internalType": "address",
          "name": "provider",
          "type": "address"
        },
        {
          "indexed": true,
          "internalType": "uint256",
          "name": "subscriptionId",
          "type": "uint256"
        },
        {
          "indexed": false,
          "internalType": "bytes32",
          "name": "ref",
          "type": "bytes32"
        },
        {
          "indexed": false,
          "internalType": "uint32",
          "name": "prevPlanId",
          "type": "uint32"
        },
        {
          "indexed": false,
          "internalType": "uint32",
          "name": "planId",
          "type": "uint32"
        },
        {
          "indexed": false,
          "internalType": "bytes32",
          "name": "discountId",
          "type": "bytes32"
        }
      ],
      "name": "SubscriptionChangedPlan",
      "type": "event"
    },
    {
      "anonymous": false,
      "inputs": [
        {
          "indexed": true,
          "internalType": "address",
          "name": "consumer",
          "type": "address"
        },
        {
          "indexed": true,
          "internalType": "address",
          "name": "provider",
          "type": "address"
        },
        {
          "indexed": true,
          "internalType": "uint256",
          "name": "subscriptionId",
          "type": "uint256"
        },
        {
          "indexed": false,
          "internalType": "bytes32",
          "name": "ref",
          "type": "bytes32"
        },
        {
          "indexed": false,
          "internalType": "uint32",
          "name": "planId",
          "type": "uint32"
        },
        {
          "indexed": false,
          "internalType": "bytes32",
          "name": "discountId",
          "type": "bytes32"
        }
      ],
      "name": "SubscriptionCreated",
      "type": "event"
    },
    {
      "anonymous": false,
      "inputs": [
        {
          "indexed": true,
          "internalType": "address",
          "name": "consumer",
          "type": "address"
        },
        {
          "indexed": true,
          "internalType": "address",
          "name": "provider",
          "type": "address"
        },
        {
          "indexed": true,
          "internalType": "uint256",
          "name": "subscriptionId",
          "type": "uint256"
        },
        {
          "indexed": false,
          "internalType": "bytes32",
          "name": "ref",
          "type": "bytes32"
        },
        {
          "indexed": false,
          "internalType": "uint32",
          "name": "planId",
          "type": "uint32"
        }
      ],
      "name": "SubscriptionPastDue",
      "type": "event"
    },
    {
      "anonymous": false,
      "inputs": [
        {
          "indexed": true,
          "internalType": "address",
          "name": "consumer",
          "type": "address"
        },
        {
          "indexed": true,
          "internalType": "address",
          "name": "provider",
          "type": "address"
        },
        {
          "indexed": true,
          "internalType": "uint256",
          "name": "subscriptionId",
          "type": "uint256"
        },
        {
          "indexed": false,
          "internalType": "bytes32",
          "name": "ref",
          "type": "bytes32"
        },
        {
          "indexed": false,
          "internalType": "uint32",
          "name": "planId",
          "type": "uint32"
        }
      ],
      "name": "SubscriptionPaused",
      "type": "event"
    },
    {
      "anonymous": false,
      "inputs": [
        {
          "indexed": true,
          "internalType": "address",
          "name": "consumer",
          "type": "address"
        },
        {
          "indexed": true,
          "internalType": "address",
          "name": "provider",
          "type": "address"
        },
        {
          "indexed": true,
          "internalType": "uint256",
          "name": "subscriptionId",
          "type": "uint256"
        },
        {
          "indexed": false,
          "internalType": "bytes32",
          "name": "ref",
          "type": "bytes32"
        },
        {
          "indexed": false,
          "internalType": "uint32",
          "name": "planId",
          "type": "uint32"
        },
        {
          "indexed": false,
          "internalType": "uint32",
          "name": "cancelAt",
          "type": "uint32"
        }
      ],
      "name": "SubscriptionPendingCancel",
      "type": "event"
    },
    {
      "anonymous": false,
      "inputs": [
        {
          "indexed": true,
          "internalType": "address",
          "name": "consumer",
          "type": "address"
        },
        {
          "indexed": true,
          "internalType": "address",
          "name": "provider",
          "type": "address"
        },
        {
          "indexed": true,
          "internalType": "uint256",
          "name": "subscriptionId",
          "type": "uint256"
        },
        {
          "indexed": false,
          "internalType": "bytes32",
          "name": "ref",
          "type": "bytes32"
        },
        {
          "indexed": false,
          "internalType": "uint32",
          "name": "prevPlanId",
          "type": "uint32"
        },
        {
          "indexed": false,
          "internalType": "uint32",
          "name": "planId",
          "type": "uint32"
        }
      ],
      "name": "SubscriptionPendingChangePlan",
      "type": "event"
    },
    {
      "anonymous": false,
      "inputs": [
        {
          "indexed": true,
          "internalType": "address",
          "name": "consumer",
          "type": "address"
        },
        {
          "indexed": true,
          "internalType": "address",
          "name": "provider",
          "type": "address"
        },
        {
          "indexed": true,
          "internalType": "uint256",
          "name": "subscriptionId",
          "type": "uint256"
        },
        {
          "indexed": false,
          "internalType": "bytes32",
          "name": "ref",
          "type": "bytes32"
        },
        {
          "indexed": false,
          "internalType": "uint32",
          "name": "planId",
          "type": "uint32"
        }
      ],
      "name": "SubscriptionRenewed",
      "type": "event"
    },
    {
      "anonymous": false,
      "inputs": [
        {
          "indexed": true,
          "internalType": "address",
          "name": "consumer",
          "type": "address"
        },
        {
          "indexed": true,
          "internalType": "address",
          "name": "provider",
          "type": "address"
        },
        {
          "indexed": true,
          "internalType": "uint256",
          "name": "subscriptionId",
          "type": "uint256"
        },
        {
          "indexed": false,
          "internalType": "bytes32",
          "name": "ref",
          "type": "bytes32"
        },
        {
          "indexed": false,
          "internalType": "uint32",
          "name": "planId",
          "type": "uint32"
        }
      ],
      "name": "SubscriptionResumed",
      "type": "event"
    },
    {
      "anonymous": false,
      "inputs": [
        {
          "indexed": true,
          "internalType": "address",
          "name": "consumer",
          "type": "address"
        },
        {
          "indexed": true,
          "internalType": "address",
          "name": "provider",
          "type": "address"
        },
        {
          "indexed": true,
          "internalType": "uint256",
          "name": "subscriptionId",
          "type": "uint256"
        },
        {
          "indexed": false,
          "internalType": "bytes32",
          "name": "ref",
          "type": "bytes32"
        },
        {
          "indexed": false,
          "internalType": "uint32",
          "name": "planId",
          "type": "uint32"
        }
      ],
      "name": "SubscriptionTrialEnded",
      "type": "event"
    },
    {
      "anonymous": false,
      "inputs": [
        {
          "indexed": true,
          "internalType": "address",
          "name": "from",
          "type": "address"
        },
        {
          "indexed": true,
          "internalType": "address",
          "name": "to",
          "type": "address"
        },
        {
          "indexed": true,
          "internalType": "uint256",
          "name": "tokenId",
          "type": "uint256"
        }
      ],
      "name": "Transfer",
      "type": "event"
    },
    {
      "anonymous": false,
      "inputs": [
        {
          "indexed": false,
          "internalType": "address",
          "name": "account",
          "type": "address"
        }
      ],
      "name": "Unpaused",
      "type": "event"
    },
    {
      "inputs": [
        {
          "internalType": "address",
          "name": "to",
          "type": "address"
        },
        {
          "internalType": "uint256",
          "name": "tokenId",
          "type": "uint256"
        }
      ],
      "name": "approve",
      "outputs": [],
      "stateMutability": "nonpayable",
      "type": "function"
    },
    {
      "inputs": [
        {
          "internalType": "address",
          "name": "owner",
          "type": "address"
        }
      ],
      "name": "balanceOf",
      "outputs": [
        {
          "internalType": "uint256",
          "name": "",
          "type": "uint256"
        }
      ],
      "stateMutability": "view",
      "type": "function"
    },
    {
      "inputs": [
        {
          "internalType": "uint256",
          "name": "_subscriptionId",
          "type": "uint256"
        },
        {
          "internalType": "uint32",
          "name": "_cancelAt",
          "type": "uint32"
        }
      ],
      "name": "cancelSubscription",
      "outputs": [],
      "stateMutability": "nonpayable",
      "type": "function"
    },
    {
      "inputs": [
        {
          "internalType": "uint256",
          "name": "_subscriptionId",
          "type": "uint256"
        },
        {
          "internalType": "bytes32[]",
          "name": "_discountProof",
          "type": "bytes32[]"
        }
      ],
      "name": "changeSubscriptionDiscount",
      "outputs": [],
      "stateMutability": "nonpayable",
      "type": "function"
    },
    {
      "inputs": [
        {
          "internalType": "uint256",
          "name": "_subscriptionId",
          "type": "uint256"
        },
        {
          "internalType": "uint256",
          "name": "_nonce",
          "type": "uint256"
        },
        {
          "internalType": "bytes32[]",
          "name": "_planProof",
          "type": "bytes32[]"
        },
        {
          "internalType": "bytes32[]",
          "name": "_discountProof",
          "type": "bytes32[]"
        },
        {
          "internalType": "bytes",
          "name": "_providerSignature",
          "type": "bytes"
        },
        {
          "internalType": "string",
          "name": "_cid",
          "type": "string"
        }
      ],
      "name": "changeSubscriptionPlan",
      "outputs": [],
      "stateMutability": "nonpayable",
      "type": "function"
    },
    {
      "inputs": [
        {
          "internalType": "uint256",
          "name": "_nonce",
          "type": "uint256"
        },
        {
          "internalType": "bytes32[]",
          "name": "_planProof",
          "type": "bytes32[]"
        },
        {
          "internalType": "bytes32[]",
          "name": "_discountProof",
          "type": "bytes32[]"
        },
        {
          "internalType": "bytes32",
          "name": "_networkData",
          "type": "bytes32"
        },
        {
          "internalType": "uint32",
          "name": "_cancelAt",
          "type": "uint32"
        },
        {
          "internalType": "bytes",
          "name": "_providerSignature",
          "type": "bytes"
        },
        {
          "internalType": "bytes",
          "name": "_networkSignature",
          "type": "bytes"
        },
        {
          "internalType": "string",
          "name": "_cid",
          "type": "string"
        }
      ],
      "name": "createNetworkSubscription",
      "outputs": [],
      "stateMutability": "nonpayable",
      "type": "function"
    },
    {
      "inputs": [
        {
          "internalType": "uint256",
          "name": "_nonce",
          "type": "uint256"
        },
        {
          "internalType": "bytes32[]",
          "name": "_planProof",
          "type": "bytes32[]"
        },
        {
          "internalType": "bytes32[]",
          "name": "_discountProof",
          "type": "bytes32[]"
        },
        {
          "internalType": "uint32",
          "name": "_cancelAt",
          "type": "uint32"
        },
        {
          "internalType": "bytes",
          "name": "_providerSignature",
          "type": "bytes"
        },
        {
          "internalType": "string",
          "name": "_cid",
          "type": "string"
        }
      ],
      "name": "createSubscription",
      "outputs": [],
      "stateMutability": "nonpayable",
      "type": "function"
    },
    {
      "inputs": [],
      "name": "getActiveSubscriptions",
      "outputs": [
        {
          "internalType": "uint256[]",
          "name": "",
          "type": "uint256[]"
        }
      ],
      "stateMutability": "view",
      "type": "function"
    },
    {
      "inputs": [],
      "name": "getActiveSubscriptionsCount",
      "outputs": [
        {
          "internalType": "uint256",
          "name": "",
          "type": "uint256"
        }
      ],
      "stateMutability": "view",
      "type": "function"
    },
    {
      "inputs": [
        {
          "internalType": "uint256",
          "name": "tokenId",
          "type": "uint256"
        }
      ],
      "name": "getApproved",
      "outputs": [
        {
          "internalType": "address",
          "name": "",
          "type": "address"
        }
      ],
      "stateMutability": "view",
      "type": "function"
    },
    {
      "inputs": [
        {
          "internalType": "address",
          "name": "_consumer",
          "type": "address"
        }
      ],
      "name": "getConsumerSubscriptionCount",
      "outputs": [
        {
          "internalType": "uint256",
          "name": "",
          "type": "uint256"
        }
      ],
      "stateMutability": "view",
      "type": "function"
    },
    {
      "inputs": [
        {
          "internalType": "address",
          "name": "_consumer",
          "type": "address"
        },
        {
          "internalType": "uint256",
          "name": "_limit",
          "type": "uint256"
        },
        {
          "internalType": "uint256",
          "name": "_offset",
          "type": "uint256"
        }
      ],
      "name": "getConsumerSubscriptions",
      "outputs": [
        {
          "internalType": "uint256[]",
          "name": "",
          "type": "uint256[]"
        }
      ],
      "stateMutability": "view",
      "type": "function"
    },
    {
      "inputs": [
        {
          "internalType": "uint256",
          "name": "_subscriptionId",
          "type": "uint256"
        }
      ],
      "name": "getPendingPlanChange",
      "outputs": [
        {
          "internalType": "bytes32",
          "name": "",
          "type": "bytes32"
        }
      ],
      "stateMutability": "view",
      "type": "function"
    },
    {
      "inputs": [
        {
          "internalType": "address",
          "name": "_provider",
          "type": "address"
        }
      ],
      "name": "getProviderActiveSubscriptionCount",
      "outputs": [
        {
          "internalType": "uint256",
          "name": "",
          "type": "uint256"
        }
      ],
      "stateMutability": "view",
      "type": "function"
    },
    {
      "inputs": [
        {
          "internalType": "address",
          "name": "_provider",
          "type": "address"
        },
        {
          "internalType": "uint32",
          "name": "_planId",
          "type": "uint32"
        }
      ],
      "name": "getProviderPlanActiveSubscriptionCount",
      "outputs": [
        {
          "internalType": "uint256",
          "name": "",
          "type": "uint256"
        }
      ],
      "stateMutability": "view",
      "type": "function"
    },
    {
      "inputs": [
        {
          "internalType": "address",
          "name": "_provider",
          "type": "address"
        }
      ],
      "name": "getProviderSubscriptionCount",
      "outputs": [
        {
          "internalType": "uint256",
          "name": "",
          "type": "uint256"
        }
      ],
      "stateMutability": "view",
      "type": "function"
    },
    {
      "inputs": [
        {
          "internalType": "address",
          "name": "_provider",
          "type": "address"
        },
        {
          "internalType": "uint256",
          "name": "_limit",
          "type": "uint256"
        },
        {
          "internalType": "uint256",
          "name": "_offset",
          "type": "uint256"
        }
      ],
      "name": "getProviderSubscriptions",
      "outputs": [
        {
          "internalType": "uint256[]",
          "name": "",
          "type": "uint256[]"
        }
      ],
      "stateMutability": "view",
      "type": "function"
    },
    {
      "inputs": [
        {
          "internalType": "uint256",
          "name": "_subscriptionId",
          "type": "uint256"
        }
      ],
      "name": "getSubscription",
      "outputs": [
        {
          "components": [
            {
              "internalType": "bytes32",
              "name": "planData",
              "type": "bytes32"
            },
            {
              "internalType": "bytes32",
              "name": "networkData",
              "type": "bytes32"
            },
            {
              "internalType": "bytes32",
              "name": "discountId",
              "type": "bytes32"
            },
            {
              "internalType": "bytes32",
              "name": "discountData",
              "type": "bytes32"
            },
            {
              "internalType": "bytes32",
              "name": "ref",
              "type": "bytes32"
            },
            {
              "internalType": "address",
              "name": "provider",
              "type": "address"
            },
            {
              "internalType": "enum ICaskSubscriptions.SubscriptionStatus",
              "name": "status",
              "type": "uint8"
            },
            {
              "internalType": "uint32",
              "name": "planId",
              "type": "uint32"
            },
            {
              "internalType": "uint32",
              "name": "createdAt",
              "type": "uint32"
            },
            {
              "internalType": "uint32",
              "name": "renewAt",
              "type": "uint32"
            },
            {
              "internalType": "uint32",
              "name": "minTermAt",
              "type": "uint32"
            },
            {
              "internalType": "uint32",
              "name": "cancelAt",
              "type": "uint32"
            },
            {
              "internalType": "string",
              "name": "cid",
              "type": "string"
            }
          ],
          "internalType": "struct ICaskSubscriptions.Subscription",
          "name": "subscription",
          "type": "tuple"
        },
        {
          "internalType": "address",
          "name": "currentOwner",
          "type": "address"
        }
      ],
      "stateMutability": "view",
      "type": "function"
    },
    {
      "inputs": [
        {
          "internalType": "address",
          "name": "_subscriptionPlans",
          "type": "address"
        }
      ],
      "name": "initialize",
      "outputs": [],
      "stateMutability": "nonpayable",
      "type": "function"
    },
    {
      "inputs": [
        {
          "internalType": "address",
          "name": "owner",
          "type": "address"
        },
        {
          "internalType": "address",
          "name": "operator",
          "type": "address"
        }
      ],
      "name": "isApprovedForAll",
      "outputs": [
        {
          "internalType": "bool",
          "name": "",
          "type": "bool"
        }
      ],
      "stateMutability": "view",
      "type": "function"
    },
    {
      "inputs": [
        {
          "internalType": "address",
          "name": "forwarder",
          "type": "address"
        }
      ],
      "name": "isTrustedForwarder",
      "outputs": [
        {
          "internalType": "bool",
          "name": "",
          "type": "bool"
        }
      ],
      "stateMutability": "view",
      "type": "function"
    },
    {
      "inputs": [
        {
          "internalType": "uint256",
          "name": "_subscriptionId",
          "type": "uint256"
        },
        {
          "internalType": "enum ICaskSubscriptions.ManagerCommand",
          "name": "_command",
          "type": "uint8"
        }
      ],
      "name": "managerCommand",
      "outputs": [],
      "stateMutability": "nonpayable",
      "type": "function"
    },
    {
      "inputs": [],
      "name": "name",
      "outputs": [
        {
          "internalType": "string",
          "name": "",
          "type": "string"
        }
      ],
      "stateMutability": "view",
      "type": "function"
    },
    {
      "inputs": [],
      "name": "owner",
      "outputs": [
        {
          "internalType": "address",
          "name": "",
          "type": "address"
        }
      ],
      "stateMutability": "view",
      "type": "function"
    },
    {
      "inputs": [
        {
          "internalType": "uint256",
          "name": "tokenId",
          "type": "uint256"
        }
      ],
      "name": "ownerOf",
      "outputs": [
        {
          "internalType": "address",
          "name": "",
          "type": "address"
        }
      ],
      "stateMutability": "view",
      "type": "function"
    },
    {
      "inputs": [],
      "name": "pause",
      "outputs": [],
      "stateMutability": "nonpayable",
      "type": "function"
    },
    {
      "inputs": [
        {
          "internalType": "uint256",
          "name": "_subscriptionId",
          "type": "uint256"
        }
      ],
      "name": "pauseSubscription",
      "outputs": [],
      "stateMutability": "nonpayable",
      "type": "function"
    },
    {
      "inputs": [],
      "name": "paused",
      "outputs": [
        {
          "internalType": "bool",
          "name": "",
          "type": "bool"
        }
      ],
      "stateMutability": "view",
      "type": "function"
    },
    {
      "inputs": [],
      "name": "renounceOwnership",
      "outputs": [],
      "stateMutability": "nonpayable",
      "type": "function"
    },
    {
      "inputs": [
        {
          "internalType": "uint256",
          "name": "_subscriptionId",
          "type": "uint256"
        }
      ],
      "name": "resumeSubscription",
      "outputs": [],
      "stateMutability": "nonpayable",
      "type": "function"
    },
    {
      "inputs": [
        {
          "internalType": "address",
          "name": "from",
          "type": "address"
        },
        {
          "internalType": "address",
          "name": "to",
          "type": "address"
        },
        {
          "internalType": "uint256",
          "name": "tokenId",
          "type": "uint256"
        }
      ],
      "name": "safeTransferFrom",
      "outputs": [],
      "stateMutability": "nonpayable",
      "type": "function"
    },
    {
      "inputs": [
        {
          "internalType": "address",
          "name": "from",
          "type": "address"
        },
        {
          "internalType": "address",
          "name": "to",
          "type": "address"
        },
        {
          "internalType": "uint256",
          "name": "tokenId",
          "type": "uint256"
        },
        {
          "internalType": "bytes",
          "name": "_data",
          "type": "bytes"
        }
      ],
      "name": "safeTransferFrom",
      "outputs": [],
      "stateMutability": "nonpayable",
      "type": "function"
    },
    {
      "inputs": [
        {
          "internalType": "address",
          "name": "operator",
          "type": "address"
        },
        {
          "internalType": "bool",
          "name": "approved",
          "type": "bool"
        }
      ],
      "name": "setApprovalForAll",
      "outputs": [],
      "stateMutability": "nonpayable",
      "type": "function"
    },
    {
      "inputs": [
        {
          "internalType": "address",
          "name": "_subscriptionManager",
          "type": "address"
        }
      ],
      "name": "setManager",
      "outputs": [],
      "stateMutability": "nonpayable",
      "type": "function"
    },
    {
      "inputs": [
        {
          "internalType": "address",
          "name": "_forwarder",
          "type": "address"
        }
      ],
      "name": "setTrustedForwarder",
      "outputs": [],
      "stateMutability": "nonpayable",
      "type": "function"
    },
    {
      "inputs": [],
      "name": "subscriptionManager",
      "outputs": [
        {
          "internalType": "contract ICaskSubscriptionManager",
          "name": "",
          "type": "address"
        }
      ],
      "stateMutability": "view",
      "type": "function"
    },
    {
      "inputs": [],
      "name": "subscriptionPlans",
      "outputs": [
        {
          "internalType": "contract ICaskSubscriptionPlans",
          "name": "",
          "type": "address"
        }
      ],
      "stateMutability": "view",
      "type": "function"
    },
    {
      "inputs": [
        {
          "internalType": "bytes4",
          "name": "interfaceId",
          "type": "bytes4"
        }
      ],
      "name": "supportsInterface",
      "outputs": [
        {
          "internalType": "bool",
          "name": "",
          "type": "bool"
        }
      ],
      "stateMutability": "view",
      "type": "function"
    },
    {
      "inputs": [],
      "name": "symbol",
      "outputs": [
        {
          "internalType": "string",
          "name": "",
          "type": "string"
        }
      ],
      "stateMutability": "view",
      "type": "function"
    },
    {
      "inputs": [
        {
          "internalType": "uint256",
          "name": "_subscriptionId",
          "type": "uint256"
        }
      ],
      "name": "tokenURI",
      "outputs": [
        {
          "internalType": "string",
          "name": "",
          "type": "string"
        }
      ],
      "stateMutability": "view",
      "type": "function"
    },
    {
      "inputs": [
        {
          "internalType": "address",
          "name": "from",
          "type": "address"
        },
        {
          "internalType": "address",
          "name": "to",
          "type": "address"
        },
        {
          "internalType": "uint256",
          "name": "tokenId",
          "type": "uint256"
        }
      ],
      "name": "transferFrom",
      "outputs": [],
      "stateMutability": "nonpayable",
      "type": "function"
    },
    {
      "inputs": [
        {
          "internalType": "address",
          "name": "newOwner",
          "type": "address"
        }
      ],
      "name": "transferOwnership",
      "outputs": [],
      "stateMutability": "nonpayable",
      "type": "function"
    },
    {
      "inputs": [],
      "name": "trustedForwarder",
      "outputs": [
        {
          "internalType": "address",
          "name": "",
          "type": "address"
        }
      ],
      "stateMutability": "view",
      "type": "function"
    },
    {
      "inputs": [],
      "name": "unpause",
      "outputs": [],
      "stateMutability": "nonpayable",
      "type": "function"
    },
    {
      "inputs": [],
      "name": "versionRecipient",
      "outputs": [
        {
          "internalType": "string",
          "name": "",
          "type": "string"
        }
      ],
      "stateMutability": "pure",
      "type": "function"
    }
  ],
  "transactionHash": "0xa8774680d2dda6b97574106dcb341fd8800241513e39a212fa50f356240dfdf4",
  "args": [],
  "numDeployments": 2,
  "solcInputHash": "11d859a571ba40fb214270bb94f9202d",
  "bytecode": "0x60806040523480156200001157600080fd5b50600054610100900460ff166200002f5760005460ff161562000039565b62000039620000de565b620000a15760405162461bcd60e51b815260206004820152602e60248201527f496e697469616c697a61626c653a20636f6e747261637420697320616c72656160448201526d191e481a5b9a5d1a585b1a5e995960921b606482015260840160405180910390fd5b600054610100900460ff16158015620000c4576000805461ffff19166101011790555b8015620000d7576000805461ff00191690555b5062000102565b6000620000f630620000fc60201b620027e41760201c565b15905090565b3b151590565b615be780620001126000396000f3fe608060405234801561001057600080fd5b506004361061027f5760003560e01c80638da5cb5b1161015c578063bf158fd2116100ce578063da74222811610087578063da742228146105eb578063dc311dd3146105fe578063e985e9c51461061f578063f268f53e1461065b578063f2fde38b14610685578063f6189f0e1461069857600080fd5b8063bf158fd214610554578063c4d66de814610567578063c7a687bf1461057a578063c86e6954146105a4578063c87b56dd146105c5578063d0ebdbe7146105d857600080fd5b806398c0bce01161012057806398c0bce0146104ed578063a22cb465146104f5578063ab5f8b7c14610508578063ac58e37b1461051b578063b88d4fde1461052e578063ba4bf1b61461054157600080fd5b80638da5cb5b1461046f5780638fe17b1614610480578063925fa591146104935780639377877d146104a657806395d89b41146104e557600080fd5b80634d5106ae116101f557806370a08231116101b957806370a0823114610415578063715018a6146104285780637da0a877146104305780637df7b2aa14610441578063825527ff146104545780638456cb591461046757600080fd5b80634d5106ae146103ad578063572b6c05146103c05780635bdc4269146103e25780635c975abb146103f75780636352211e1461040257600080fd5b806323b872dd1161024757806323b872dd14610314578063291b9a3f146103275780633f4ba83a1461035e57806341f23f0a1461036657806342842e0e14610379578063486ff0cd1461038c57600080fd5b806301ffc9a714610284578063023a584e146102ac57806306fdde03146102c1578063081812fc146102d6578063095ea7b314610301575b600080fd5b610297610292366004614d3d565b6106ab565b60405190151581526020015b60405180910390f35b6102bf6102ba366004614d5a565b6106fd565b005b6102c961097a565b6040516102a39190614dcb565b6102e96102e4366004614d5a565b610a0c565b6040516001600160a01b0390911681526020016102a3565b6102bf61030f366004614df3565b610aa1565b6102bf610322366004614e1f565b610bc9565b610350610335366004614e60565b6001600160a01b0316600090815260ff602052604090205490565b6040519081526020016102a3565b6102bf610c01565b6102bf610374366004614d5a565b610c54565b6102bf610387366004614e1f565b610f32565b6040805180820190915260058152640322e322e360dc1b60208201526102c9565b6102bf6103bb366004615006565b610f4d565b6102976103ce366004614e60565b6065546001600160a01b0391821691161490565b6103ea610f8d565b6040516102a391906150e3565b60ca5460ff16610297565b6102e9610410366004614d5a565b610fe4565b610350610423366004614e60565b61105b565b6102bf6110e2565b6065546001600160a01b03166102e9565b6102bf61044f366004615127565b611135565b6102bf61046236600461515b565b6117af565b6102bf611814565b6098546001600160a01b03166102e9565b60fd546102e9906001600160a01b031681565b6102bf6104a136600461526a565b611865565b6103506104b4366004615296565b6001600160a01b03821660009081526101046020908152604080832063ffffffff8516845290915290205492915050565b6102c9611b58565b60fe54610350565b6102bf6105033660046152d0565b611b67565b6103ea6105163660046152fe565b611b7d565b6102bf610529366004615333565b611d06565b6102bf61053c3660046153c0565b611d7b565b6102bf61054f36600461542b565b611dba565b60fc546102e9906001600160a01b031681565b6102bf610575366004614e60565b611f81565b610350610588366004614e60565b6001600160a01b03166000908152610103602052604090205490565b6103506105b2366004614d5a565b6000908152610101602052604090205490565b6102c96105d3366004614d5a565b6120b9565b6102bf6105e6366004614e60565b6122e0565b6102bf6105f9366004614e60565b61234b565b61061161060c366004614d5a565b6123b5565b6040516102a39291906154ae565b61029761062d3660046155ca565b6001600160a01b039182166000908152606b6020908152604080832093909416825291909152205460ff1690565b610350610669366004614e60565b6001600160a01b03166000908152610102602052604090205490565b6102bf610693366004614e60565b6125d9565b6103ea6106a63660046152fe565b612690565b60006001600160e01b031982166380ac58cd60e01b14806106dc57506001600160e01b03198216635b5e139f60e01b145b806106f757506301ffc9a760e01b6001600160e01b03198316145b92915050565b8061070781610fe4565b6001600160a01b03166107186127ea565b6001600160a01b0316146107475760405162461bcd60e51b815260040161073e906155f8565b60405180910390fd5b60ca5460ff161561076a5760405162461bcd60e51b815260040161073e90615617565b6000828152610100602052604090206003600582810154600160a01b900460ff169081111561079b5761079b615476565b146107d65760405162461bcd60e51b815260206004820152600b60248201526a085393d517d4105554d15160aa1b604482015260640161073e565b60006107e582600001546127f9565b9050806080015163ffffffff16600014806108385750608081015160058301546001600160a01b03166000908152610104602090815260408083208286015163ffffffff90811685529252909120549116115b6108725760405162461bcd60e51b815260206004820152600b60248201526a214d41585f41435449564560a81b604482015260640161073e565b60058201805460ff60a01b198116600160a11b17918290556001600160a01b0316600090815261010460209081526040808320600160a81b90940463ffffffff1683529290529081208054600192906108cc908490615657565b9091555050600682015463ffffffff428116911610156108fe5760068201805463ffffffff19164263ffffffff161790555b600582015484906001600160a01b031661091782610fe4565b6004850154600586015460408051928352600160a81b90910463ffffffff1660208301526001600160a01b0392909216917f7ee0fc3eab7021686f891346ebbf5bab192d6f9995fcc66021f4551888dc148191015b60405180910390a450505050565b6060606680546109899061566f565b80601f01602080910402602001604051908101604052809291908181526020018280546109b59061566f565b8015610a025780601f106109d757610100808354040283529160200191610a02565b820191906000526020600020905b8154815290600101906020018083116109e557829003601f168201915b5050505050905090565b6000818152606860205260408120546001600160a01b0316610a855760405162461bcd60e51b815260206004820152602c60248201527f4552433732313a20617070726f76656420717565727920666f72206e6f6e657860448201526b34b9ba32b73a103a37b5b2b760a11b606482015260840161073e565b506000908152606a60205260409020546001600160a01b031690565b6000610aac82610fe4565b9050806001600160a01b0316836001600160a01b03161415610b1a5760405162461bcd60e51b815260206004820152602160248201527f4552433732313a20617070726f76616c20746f2063757272656e74206f776e656044820152603960f91b606482015260840161073e565b806001600160a01b0316610b2c6127ea565b6001600160a01b03161480610b485750610b488161062d6127ea565b610bba5760405162461bcd60e51b815260206004820152603860248201527f4552433732313a20617070726f76652063616c6c6572206973206e6f74206f7760448201527f6e6572206e6f7220617070726f76656420666f7220616c6c0000000000000000606482015260840161073e565b610bc483836128d4565b505050565b610bda610bd46127ea565b82612942565b610bf65760405162461bcd60e51b815260040161073e906156aa565b610bc4838383612a39565b610c096127ea565b6001600160a01b0316610c246098546001600160a01b031690565b6001600160a01b031614610c4a5760405162461bcd60e51b815260040161073e906156fb565b610c52612be4565b565b80610c5e81610fe4565b6001600160a01b0316610c6f6127ea565b6001600160a01b03161480610cae5750600081815261010060205260409020600501546001600160a01b0316610ca36127ea565b6001600160a01b0316145b610cca5760405162461bcd60e51b815260040161073e906155f8565b60ca5460ff1615610ced5760405162461bcd60e51b815260040161073e90615617565b6000828152610100602052604090206003600582810154600160a01b900460ff1690811115610d1e57610d1e615476565b14158015610d4b575060058082810154600160a01b900460ff1690811115610d4857610d48615476565b14155b8015610d7757506004600582810154600160a01b900460ff1690811115610d7457610d74615476565b14155b8015610da357506001600582810154600160a01b900460ff1690811115610da057610da0615476565b14155b610dbf5760405162461bcd60e51b815260040161073e90615730565b6006810154600160201b900463ffffffff161580610df35750600681015463ffffffff600160201b90910481164290911610155b610e0f5760405162461bcd60e51b815260040161073e9061575a565b6000610e1e82600001546127f9565b90508060e00151610e615760405162461bcd60e51b815260206004820152600d60248201526c214e4f545f5041555341424c4560981b604482015260640161073e565b60058201805460ff60a01b198116600360a01b17918290556001600160a01b0316600090815261010460209081526040808320600160a81b90940463ffffffff168352929052908120805460019290610ebb90849061577d565b9091555050600582015484906001600160a01b0316610ed982610fe4565b6004850154600586015460408051928352600160a81b90910463ffffffff1660208301526001600160a01b0392909216917f7afd3b59e582bb56b590409b808e910ae787056cb10b682b9bdefa44c8eb940d910161096c565b610bc483838360405180602001604052806000815250611d7b565b60ca5460ff1615610f705760405162461bcd60e51b815260040161073e90615617565b610f81898989898989898989612c7d565b50505050505050505050565b606060fe805480602002602001604051908101604052809291908181526020018280548015610a0257602002820191906000526020600020905b815481526020019060010190808311610fc7575050505050905090565b6000818152606860205260408120546001600160a01b0316806106f75760405162461bcd60e51b815260206004820152602960248201527f4552433732313a206f776e657220717565727920666f72206e6f6e657869737460448201526832b73a103a37b5b2b760b91b606482015260840161073e565b60006001600160a01b0382166110c65760405162461bcd60e51b815260206004820152602a60248201527f4552433732313a2062616c616e636520717565727920666f7220746865207a65604482015269726f206164647265737360b01b606482015260840161073e565b506001600160a01b031660009081526069602052604090205490565b6110ea6127ea565b6001600160a01b03166111056098546001600160a01b031690565b6001600160a01b03161461112b5760405162461bcd60e51b815260040161073e906156fb565b610c5260006133e1565b60fc546001600160a01b03166111496127ea565b6001600160a01b03161461116f5760405162461bcd60e51b815260040161073e906155f8565b60ca5460ff16156111925760405162461bcd60e51b815260040161073e90615617565b60008281526101006020526040902060018260058111156111b5576111b5615476565b14156113535760008381526101016020526040902054806112185760405162461bcd60e51b815260206004820152601960248201527f21494e56414c49442870656e64696e67506c616e446174612900000000000000604482015260640161073e565b6000611223826127f9565b600584015490915085906001600160a01b031661123f82610fe4565b6004860154600587015460208087015160028a01546040805195865263ffffffff600160a81b90950485169386019390935292169083015260608201526001600160a01b0391909116907fe17e61be0a4aac2f0b6fece72cedc2ab9ca554634d5af864a9282095206a0c2b9060800160405180910390a4602081015160058401805463ffffffff909216600160a81b0263ffffffff60a81b1990921691909117905581835560a081015161ffff161561133d578060a0015161ffff16816040015161130a9190615794565b61131a9063ffffffff1642615657565b8360060160046101000a81548163ffffffff021916908363ffffffff1602179055505b5050506000918252506101016020526040812055565b600282600581111561136757611367615476565b141561155d57600581018054600160a21b60ff60a01b198216179091556001600160a01b03166000908152610103602052604081208054600192906113ad90849061577d565b909155505060058101546001600160a01b038116600090815261010460209081526040808320600160a81b90940463ffffffff1683529290529081208054600192906113fa90849061577d565b9091555050600581015483906001600160a01b031661141882610fe4565b6004840154600585015460408051928352600160a81b90910463ffffffff1660208301526001600160a01b0392909216917f58e4414596fd750dbb9dabfe65b97bf5add2061f5902f34e2b82a9c25bd79f98910160405180910390a460fe80546114849060019061577d565b81548110611494576114946157c0565b906000526020600020015460fe610105600086815260200190815260200160002054815481106114c6576114c66157c0565b600091825260208083209091019290925584815261010591829052604081205460fe805491939291849081106114fe576114fe6157c0565b906000526020600020015481526020019081526020016000208190555060fe80548061152c5761152c6157d6565b60008281526020808220830160001990810183905590920190925584825261010590526040812055610bc483613433565b600382600581111561157157611571615476565b141561160357600581018054600560a01b60ff60a01b1982161790915583906001600160a01b03166115a282610fe4565b6004840154600585015460408051928352600160a81b90910463ffffffff1660208301526001600160a01b0392909216917f44abb4f4529fdbcacc1ee98eef9318eaf9a12044d6925a2dc2c702959d9352f1910160405180910390a4505050565b600482600581111561161757611617615476565b141561178957600061162c82600001546127f9565b90506001600583810154600160a01b900460ff169081111561165057611650615476565b14156116cc57600582015484906001600160a01b031661166f82610fe4565b6004850154600586015460408051928352600160a81b90910463ffffffff1660208301526001600160a01b0392909216917ff42e506093cb49dad3d3349cf7a2b390140be665daecb2c820e903afd12b1df7910160405180910390a45b60058201805460ff60a01b1916600160a11b179055604081015160068301546116fb919063ffffffff166157ec565b60068301805463ffffffff191663ffffffff92909216919091179055600582015484906001600160a01b031661173082610fe4565b6004850154600586015460408051928352600160a81b90910463ffffffff1660208301526001600160a01b0392909216917fcdd2eee203a384f2c6e81f39021f7e3ebef3a21ccd0d0f6dd117387ab61b6b54910161096c565b600582600581111561179d5761179d615476565b1415610bc45760006003820155505050565b60ca5460ff16156117d25760405162461bcd60e51b815260040161073e90615617565b60006117e58c8c8c8c8c8b8b8a8a612c7d565b90506117f187856134da565b506000908152610100602052604090206001019590955550505050505050505050565b61181c6127ea565b6001600160a01b03166118376098546001600160a01b031690565b6001600160a01b03161461185d5760405162461bcd60e51b815260040161073e906156fb565b610c52613600565b8161186f81610fe4565b6001600160a01b03166118806127ea565b6001600160a01b031614806118bf5750600081815261010060205260409020600501546001600160a01b03166118b46127ea565b6001600160a01b0316145b6118db5760405162461bcd60e51b815260040161073e906155f8565b60ca5460ff16156118fe5760405162461bcd60e51b815260040161073e90615617565b6000838152610100602052604090206004600582810154600160a01b900460ff169081111561192f5761192f615476565b141561194d5760405162461bcd60e51b815260040161073e90615730565b4263ffffffff84166119be5761196285610fe4565b6001600160a01b03166119736127ea565b6001600160a01b0316146119995760405162461bcd60e51b815260040161073e906155f8565b60068201805463ffffffff60401b1916600160401b63ffffffff871602179055611ad4565b8063ffffffff168463ffffffff1611611a64576006820154600160201b900463ffffffff161580611a045750600682015463ffffffff600160201b909104811690821610155b611a205760405162461bcd60e51b815260040161073e9061575a565b60058201805460ff60a01b1916600160a21b179055600682018054600160401b63ffffffff84169081026bffffffff00000000ffffffff1990921617179055611ad4565b6006820154600160201b900463ffffffff161580611a975750600682015463ffffffff600160201b909104811690851610155b611ab35760405162461bcd60e51b815260040161073e9061575a565b60068201805463ffffffff60401b1916600160401b63ffffffff8716021790555b600582015485906001600160a01b0316611aed82610fe4565b6004850154600586015460408051928352600160a81b90910463ffffffff9081166020840152891682820152516001600160a01b0392909216917fc54424be96a88104b924830a25713de0140a7b7048d7a26370e735b421b057869181900360600190a45050505050565b6060606780546109899061566f565b611b79611b726127ea565b8383613659565b5050565b6001600160a01b038316600090815260ff60205260409020546060908390811115611bbd57506001600160a01b038416600090815260ff60205260409020545b6001600160a01b038516600090815260ff60205260409020548310611c115760005b604051908082528060200260200182016040528015611c08578160200160208202803683370190505b50915050611cff565b6000816001600160401b03811115611c2b57611c2b614eda565b604051908082528060200260200182016040528015611c54578160200160208202803683370190505b50905060005b8281108015611c8957506001600160a01b038716600090815260ff6020526040902054611c878683615657565b105b15611cfa576001600160a01b038716600090815260ff60205260409020611cb08683615657565b81548110611cc057611cc06157c0565b9060005260206000200154828281518110611cdd57611cdd6157c0565b602090810291909101015280611cf281615814565b915050611c5a565b509150505b9392505050565b88611d1081610fe4565b6001600160a01b0316611d216127ea565b6001600160a01b031614611d475760405162461bcd60e51b815260040161073e906155f8565b60ca5460ff1615611d6a5760405162461bcd60e51b815260040161073e90615617565b610f818a8a8a8a8a8a8a8a8a613728565b611d8c611d866127ea565b83612942565b611da85760405162461bcd60e51b815260040161073e906156aa565b611db484848484613ad4565b50505050565b60ca5460ff1615611ddd5760405162461bcd60e51b815260040161073e90615617565b600083815261010060205260409020600281015415611e335760405162461bcd60e51b81526020600482015260126024820152710851561254d5125391d7d11254d0d3d5539560721b604482015260640161073e565b60058101546001600160a01b0316611e496127ea565b6001600160a01b031614611e6f5760405162461bcd60e51b815260040161073e906155f8565b6000848152610101602052604090205415611ed15760008481526101016020526040812054611e9d906127f9565b60058301546020820151919250611ec1916001600160a01b03909116908686613b07565b6003840155600283015550611f04565b6005810154611ef9906001600160a01b03811690600160a81b900463ffffffff168585613b07565b600383015560028201555b600581015484906001600160a01b0316611f1d82610fe4565b60048401546005850154600386015460408051938452600160a81b90920463ffffffff166020840152908201526001600160a01b0391909116907f23be24e2f5bdda1a165ef44cb730243e3f79e09d3c28086b166ab914c79750609060600161096c565b600054610100900460ff16611f9c5760005460ff1615611fa0565b303b155b6120035760405162461bcd60e51b815260206004820152602e60248201527f496e697469616c697a61626c653a20636f6e747261637420697320616c72656160448201526d191e481a5b9a5d1a585b1a5e995960921b606482015260840161073e565b600054610100900460ff16158015612025576000805461ffff19166101011790555b61202d613c86565b612035613cbd565b612089604051806040016040528060128152602001714361736b20537562736372697074696f6e7360701b815250604051806040016040528060088152602001674341534b5355425360c01b815250613cf4565b60fd80546001600160a01b0319166001600160a01b0384161790558015611b79576000805461ff00191690555050565b6000818152606860205260409020546060906001600160a01b03166121385760405162461bcd60e51b815260206004820152602f60248201527f4552433732314d657461646174613a2055524920717565727920666f72206e6f60448201526e3732bc34b9ba32b73a103a37b5b2b760891b606482015260840161073e565b60008281526101006020908152604080832081516101a0810183528154815260018201549381019390935260028101549183019190915260038101546060830152600481015460808301526005808201546001600160a01b03811660a085015260c0840191600160a01b90910460ff16908111156121b8576121b8615476565b60058111156121c9576121c9615476565b8152600582015463ffffffff600160a81b820481166020840152600160c81b9091048116604083015260068301548082166060840152600160201b810482166080840152600160401b90041660a082015260078201805460c09092019161222f9061566f565b80601f016020809104026020016040519081016040528092919081815260200182805461225b9061566f565b80156122a85780601f1061227d576101008083540402835291602001916122a8565b820191906000526020600020905b81548152906001019060200180831161228b57829003601f168201915b50505050508152505090508061018001516040516020016122c9919061582f565b604051602081830303815290604052915050919050565b6122e86127ea565b6001600160a01b03166123036098546001600160a01b031690565b6001600160a01b0316146123295760405162461bcd60e51b815260040161073e906156fb565b60fc80546001600160a01b0319166001600160a01b0392909216919091179055565b6123536127ea565b6001600160a01b031661236e6098546001600160a01b031690565b6001600160a01b0316146123945760405162461bcd60e51b815260040161073e906156fb565b606580546001600160a01b0319166001600160a01b03831617905550565b50565b604080516101a08101825260008082526020820181905291810182905260608082018390526080820183905260a0820183905260c0820183905260e0820183905261010082018390526101208201839052610140820183905261016082019290925261018081019190915260008281526101006020908152604080832081516101a0810183528154815260018201549381019390935260028101549183019190915260038101546060830152600481015460808301526005808201546001600160a01b03811660a085015260c0840191600160a01b90910460ff16908111156124a0576124a0615476565b60058111156124b1576124b1615476565b8152600582015463ffffffff600160a81b820481166020840152600160c81b9091048116604083015260068301548082166060840152600160201b810482166080840152600160401b90041660a082015260078201805460c0909201916125179061566f565b80601f01602080910402602001604051908101604052809291908181526020018280546125439061566f565b80156125905780601f1061256557610100808354040283529160200191612590565b820191906000526020600020905b81548152906001019060200180831161257357829003601f168201915b50505050508152505091506125bc836000908152606860205260409020546001600160a01b0316151590565b156125d1576125ca83610fe4565b9050915091565b506000915091565b6125e16127ea565b6001600160a01b03166125fc6098546001600160a01b031690565b6001600160a01b0316146126225760405162461bcd60e51b815260040161073e906156fb565b6001600160a01b0381166126875760405162461bcd60e51b815260206004820152602660248201527f4f776e61626c653a206e6577206f776e657220697320746865207a65726f206160448201526564647265737360d01b606482015260840161073e565b6123b2816133e1565b6001600160a01b0383166000908152610102602052604090205460609083908111156126d257506001600160a01b038416600090815261010260205260409020545b6001600160a01b0385166000908152610102602052604090205483106126f9576000611bdf565b6000816001600160401b0381111561271357612713614eda565b60405190808252806020026020018201604052801561273c578160200160208202803683370190505b50905060005b828110801561277257506001600160a01b038716600090815261010260205260409020546127708683615657565b105b15611cfa576001600160a01b03871660009081526101026020526040902061279a8683615657565b815481106127aa576127aa6157c0565b90600052602060002001548282815181106127c7576127c76157c0565b6020908102919091010152806127dc81615814565b915050612742565b3b151590565b60006127f4613d35565b905090565b6040805161012081018252600080825260208201819052918101829052606081018290526080810182905260a0810182905260c0810182905260e0810182905261010081019190915250604080516101208101825260a083811c8252608084811c63ffffffff908116602080860191909152606087811c8316868801529587901c8216958501959095529385901c90931692820192909252601083901c61ffff1691810191909152600882901c60ff1660c082015260f89190911b600160f81b8181161460e0830152600160f91b9081161461010082015290565b6000818152606a6020526040902080546001600160a01b0319166001600160a01b038416908117909155819061290982610fe4565b6001600160a01b03167f8c5be1e5ebec7d5bd14f71427d1e84f3dd0314c0f7b2291e5b200ac8c7c3b92560405160405180910390a45050565b6000818152606860205260408120546001600160a01b03166129bb5760405162461bcd60e51b815260206004820152602c60248201527f4552433732313a206f70657261746f7220717565727920666f72206e6f6e657860448201526b34b9ba32b73a103a37b5b2b760a11b606482015260840161073e565b60006129c683610fe4565b9050806001600160a01b0316846001600160a01b03161480612a015750836001600160a01b03166129f684610a0c565b6001600160a01b0316145b80612a3157506001600160a01b038082166000908152606b602090815260408083209388168352929052205460ff165b949350505050565b826001600160a01b0316612a4c82610fe4565b6001600160a01b031614612ab45760405162461bcd60e51b815260206004820152602960248201527f4552433732313a207472616e73666572206f6620746f6b656e2074686174206960448201526839903737ba1037bbb760b91b606482015260840161073e565b6001600160a01b038216612b165760405162461bcd60e51b8152602060048201526024808201527f4552433732313a207472616e7366657220746f20746865207a65726f206164646044820152637265737360e01b606482015260840161073e565b612b21838383613d69565b612b2c6000826128d4565b6001600160a01b0383166000908152606960205260408120805460019290612b5590849061577d565b90915550506001600160a01b0382166000908152606960205260408120805460019290612b83908490615657565b909155505060008181526068602052604080822080546001600160a01b0319166001600160a01b0386811691821790925591518493918716917fddf252ad1be2c89b69c2b068fc378daa952ba7f163c4a11628f55a4df523b3ef91a4505050565b60ca5460ff16612c2d5760405162461bcd60e51b815260206004820152601460248201527314185d5cd8589b194e881b9bdd081c185d5cd95960621b604482015260640161073e565b60ca805460ff191690557f5db9ee0a495bf2e6ff9c91a7834c1ba4fdd244a5e8aa4e537bd38aeae4b073aa612c606127ea565b6040516001600160a01b03909116815260200160405180910390a1565b60006004881015612cc95760405162461bcd60e51b815260206004820152601660248201527521494e56414c494428706c616e50726f6f664c656e2960501b604482015260640161073e565b600060038710612d3257612d2b8a8a6000818110612ce957612ce96157c0565b905060200201358c8c8c6003818110612d0457612d046157c0565b905060200201358b8b6002818110612d1e57612d1e6157c0565b9050602002013589613e6b565b9050612d77565b612d748a8a6000818110612d4857612d486157c0565b905060200201358c8c8c6003818110612d6357612d636157c0565b905060200201356000801b89613e6b565b90505b612d818a8a613fb9565b612d9d5760405162461bcd60e51b815260040161073e9061585e565b6000612dc18b8b6002818110612db557612db56157c0565b905060200201356127f9565b90506000612e1b8c8c6000818110612ddb57612ddb6157c0565b905060200201358d8d6001818110612df557612df56157c0565b905060200201358e8e6002818110612e0f57612e0f6157c0565b90506020020135614080565b9050816080015163ffffffff1660001480612e6a575060808201516001600160a01b0384166000908152610104602090815260408083208287015163ffffffff90811685529252909120549116115b612ea45760405162461bcd60e51b815260206004820152600b60248201526a214d41585f41435449564560a81b604482015260640161073e565b600060fd54602084015160405163b6ab359f60e01b81526001600160a01b03878116600483015263ffffffff909216602482015291169063b6ab359f9060440160206040518083038186803b158015612efc57600080fd5b505afa158015612f10573d6000803e3d6000fd5b505050506040513d601f19601f82011682018060405250810190612f34919061588b565b6002811115612f4557612f45615476565b14612f815760405162461bcd60e51b815260206004820152600c60248201526b085393d517d153905093115160a21b604482015260640161073e565b612f92612f8c6127ea565b826140eb565b6000818152610100602090815260409091206005810180549285015163ffffffff16600160a81b02600164ffffffff0160a01b03199093166001600160a01b0387161792909217909155428d8d6001818110612ff057612ff06157c0565b60200291909101356004840155508d8d6002818110613011576130116157c0565b602002919091013583555060068201805463ffffffff60401b1916600160401b63ffffffff8d160217905561304a600783018989614c1a565b5060058201805463ffffffff60c81b1916600160c81b63ffffffff84160217905560a084015161ffff16156130be578360a0015161ffff1684604001516130919190615794565b61309b90826157ec565b8260060160046101000a81548163ffffffff021916908363ffffffff1602179055505b606084015163ffffffff16156131135760058201805460ff60a01b1916600160a01b17905560608401516130f290826157ec565b60068301805463ffffffff191663ffffffff92909216919091179055613140565b60058201805460ff60a01b1916600160a11b17905560068201805463ffffffff191663ffffffff83161790555b6005820154602085015161315f916001600160a01b0316908e8e613b07565b60038401556002830155600682015463ffffffff8083169116116132475760fc5460405163d71bb37b60e01b8152600481018590526001600160a01b039091169063d71bb37b90602401600060405180830381600087803b1580156131c357600080fd5b505af11580156131d7573d6000803e3d6000fd5b50600292506131e4915050565b600583810154600160a01b900460ff169081111561320457613204615476565b146132475760405162461bcd60e51b815260206004820152601360248201527221494e53554646494349454e545f46554e445360681b604482015260640161073e565b600582015483906001600160a01b031661326082610fe4565b60048501546005860154600287015460408051938452600160a81b90920463ffffffff166020840152908201526001600160a01b0391909116907f9fb45eab820cdd481e286e8c699e1c01031bb833c58f7cfba3ca8d1db6d98d819060600160405180910390a460ff60006132d36127ea565b6001600160a01b0390811682526020808301939093526040918201600090812080546001818101835591835285832001889055918916808252610102855283822080548085018255908352858320018890558152610103909352908220805491929091613341908490615657565b90915550506001600160a01b0385166000908152610104602090815260408083208783015163ffffffff1684529091528120805460019290613384908490615657565b909155505060fe8054600085815261010560205260408120829055600182018355919091527f54075df80ec1ae6ac9100e1fd0ebf3246c17f5c933137af392011f4c5f61513a0183905550909d9c50505050505050505050505050565b609880546001600160a01b038381166001600160a01b0319831681179093556040519116919082907f8be0079c531659141344cd1fd0a4f28419497f9722a3daafe3b4186f6b6457e090600090a35050565b600061343e82610fe4565b905061344c81600084613d69565b6134576000836128d4565b6001600160a01b038116600090815260696020526040812080546001929061348090849061577d565b909155505060008281526068602052604080822080546001600160a01b0319169055518391906001600160a01b038416907fddf252ad1be2c89b69c2b068fc378daa952ba7f163c4a11628f55a4df523b3ef908390a45050565b60008061355d83613557866040516020016134f791815260200190565b60408051601f1981840301815282825280516020918201207f19457468657265756d205369676e6564204d6573736167653a0a33320000000084830152603c8085019190915282518085039091018152605c909301909152815191012090565b90614105565b9050600061359d8560408051808201909152600080825260208201525060408051808201909152606082901c815260509190911c61ffff16602082015290565b9050816001600160a01b031681600001516001600160a01b0316146135f85760405162461bcd60e51b815260206004820152601160248201527021494e56414c4944286e6574776f726b2960781b604482015260640161073e565b509392505050565b60ca5460ff16156136235760405162461bcd60e51b815260040161073e90615617565b60ca805460ff191660011790557f62e78cea01bee320cd4e420270b5ea74000d11b0c9f74754ebdbfc544b05a258612c606127ea565b816001600160a01b0316836001600160a01b031614156136bb5760405162461bcd60e51b815260206004820152601960248201527f4552433732313a20617070726f766520746f2063616c6c657200000000000000604482015260640161073e565b6001600160a01b038381166000818152606b6020908152604080832094871680845294825291829020805460ff191686151590811790915591519182527f17307eab39ab6107e8899845ad3d59bd9653f200f220920489ca2b5937696c31910160405180910390a3505050565b60048610156137495760405162461bcd60e51b815260040161073e9061585e565b600089815261010060205260409020600681015463ffffffff4281169116116137a45760405162461bcd60e51b815260206004820152600d60248201526c085391515117d491539155d053609a1b604482015260640161073e565b6002600582810154600160a01b900460ff16908111156137c6576137c6615476565b14806137f157506001600582810154600160a01b900460ff16908111156137ef576137ef615476565b145b61380d5760405162461bcd60e51b815260040161073e90615730565b600060038610613869576138628989600081811061382d5761382d6157c0565b905060200201358b8b8b6003818110613848576138486157c0565b905060200201358a8a6002818110612d1e57612d1e6157c0565b905061389d565b61389a8989600081811061387f5761387f6157c0565b905060200201358b8b8b6003818110612d6357612d636157c0565b90505b6138a78989613fb9565b6138c35760405162461bcd60e51b815260040161073e9061585e565b60006138db8a8a6002818110612db557612db56157c0565b60058401549091506001600160a01b038381169116146139325760405162461bcd60e51b815260206004820152601260248201527121494e56414c49442870726f76696465722960701b604482015260640161073e565b613940600784018686614c1a565b506002830154158015613954575060038710155b8015613976575060008888828161396d5761396d6157c0565b90506020020135115b156139a5576005830154602082015161399a916001600160a01b0316908a8a613b07565b600385015560028401555b60208101516005840154600160a81b900463ffffffff908116911614613ac657600060fd54602083015160405163b6ab359f60e01b81526001600160a01b03868116600483015263ffffffff909216602482015291169063b6ab359f9060440160206040518083038186803b158015613a1d57600080fd5b505afa158015613a31573d6000803e3d6000fd5b505050506040513d601f19601f82011682018060405250810190613a55919061588b565b6002811115613a6657613a66615476565b14613aa25760405162461bcd60e51b815260206004820152600c60248201526b085393d517d153905093115160a21b604482015260640161073e565b613ac68c828c8c6002818110613aba57613aba6157c0565b90506020020135614121565b505050505050505050505050565b613adf848484612a39565b613aeb8484848461420e565b611db45760405162461bcd60e51b815260040161073e906158ac565b600080600383118015613b305750600084848281613b2757613b276157c0565b90506020020135115b15613c7657600084846000818110613b4a57613b4a6157c0565b90506020020135604051602001613b6391815260200190565b60408051601f19818403018152919052805160209091012060fd549091506001600160a01b0316634cfa66ff88888489896001818110613ba557613ba56157c0565b905060200201358a8a6002818110613bbf57613bbf6157c0565b60200291909101359050613bd68b6003818f6158fe565b6040518863ffffffff1660e01b8152600401613bf89796959493929190615962565b602060405180830381600087803b158015613c1257600080fd5b505af1158015613c26573d6000803e3d6000fd5b505050506040513d601f19601f82011682018060405250810190613c4a91906159af565b15613c74578085856001818110613c6357613c636157c0565b905060200201359250925050613c7d565b505b5060009050805b94509492505050565b600054610100900460ff16613cad5760405162461bcd60e51b815260040161073e906159cc565b613cb5614322565b610c52614349565b600054610100900460ff16613ce45760405162461bcd60e51b815260040161073e906159cc565b613cec614322565b610c52614380565b600054610100900460ff16613d1b5760405162461bcd60e51b815260040161073e906159cc565b613d23614322565b613d2b614322565b611b7982826143b3565b600060143610801590613d5257506065546001600160a01b031633145b15613d64575060131936013560601c90565b503390565b6001600160a01b03831615801590613d8957506001600160a01b03821615155b15610bc4576000818152610100602052604081208054909190613dab906127f9565b9050806101000151613df45760405162461bcd60e51b8152602060048201526012602482015271214e4f545f5452414e534645525241424c4560701b604482015260640161073e565b6006820154600160201b900463ffffffff161580613e285750600682015463ffffffff600160201b90910481164290911610155b613e445760405162461bcd60e51b815260040161073e9061575a565b506006018054600160401b63ffffffff82160263ffffffff60401b19909116179055505050565b600080613e9b836135578888886040516020016134f7939291909283526020830191909152604082015260600190565b90506001600160a01b0387811690821614613eea5760405162461bcd60e51b815260206004820152600f60248201526e21494e56414c49442870726f6f662960881b604482015260640161073e565b60fd54604051630782fb5960e31b81526001600160a01b03838116600483015290911690633c17dac89060240160006040518083038186803b158015613f2f57600080fd5b505afa158015613f43573d6000803e3d6000fd5b505050506040513d6000823e601f3d908101601f19168201604052613f6b9190810190615a17565b602001518614613faf5760405162461bcd60e51b815260206004820152600f60248201526e2150524f56494445525f4e4f4e434560881b604482015260640161073e565b9695505050505050565b60fd546000906001600160a01b03166371ce3e6684846002818110613fe057613fe06157c0565b9050602002013585856003818110613ffa57613ffa6157c0565b60200291909101359050614011866004818a6158fe565b6040518563ffffffff1660e01b81526004016140309493929190615adb565b60206040518083038186803b15801561404857600080fd5b505afa15801561405c573d6000803e3d6000fd5b505050506040513d601f19601f82011682018060405250810190611cff91906159af565b600061408a6127ea565b60405160609190911b6bffffffffffffffffffffffff191660208201526034810185905260548101839052607481018490524360948201524260b482015260d40160408051601f198184030181529190528051602090910120949350505050565b611b79828260405180602001604052806000815250614401565b60008060006141148585614434565b915091506135f8816144a4565b600083815261010060205260408120805490919061413e906127f9565b90506001600583810154600160a01b900460ff169081111561416257614162615476565b1415614179576141748582868661465f565b614207565b604081015181516141909163ffffffff1690615afb565b604085015185516141a79163ffffffff1690615afb565b14156141b8576141748585856146da565b604081015181516141cf9163ffffffff1690615afb565b604085015185516141e69163ffffffff1690615afb565b11156141f85761417485828686614803565b61420785856020015185614919565b5050505050565b60006001600160a01b0384163b1561431757836001600160a01b031663150b7a026142376127ea565b8786866040518563ffffffff1660e01b81526004016142599493929190615b1d565b602060405180830381600087803b15801561427357600080fd5b505af19250505080156142a3575060408051601f3d908101601f191682019092526142a091810190615b50565b60015b6142fd573d8080156142d1576040519150601f19603f3d011682016040523d82523d6000602084013e6142d6565b606091505b5080516142f55760405162461bcd60e51b815260040161073e906158ac565b805181602001fd5b6001600160e01b031916630a85bd0160e11b149050612a31565b506001949350505050565b600054610100900460ff16610c525760405162461bcd60e51b815260040161073e906159cc565b600054610100900460ff166143705760405162461bcd60e51b815260040161073e906159cc565b610c5261437b6127ea565b6133e1565b600054610100900460ff166143a75760405162461bcd60e51b815260040161073e906159cc565b60ca805460ff19169055565b600054610100900460ff166143da5760405162461bcd60e51b815260040161073e906159cc565b81516143ed906066906020850190614c9e565b508051610bc4906067906020840190614c9e565b61440b83836149b3565b614418600084848461420e565b610bc45760405162461bcd60e51b815260040161073e906158ac565b60008082516041141561446b5760208301516040840151606085015160001a61445f87828585614b01565b9450945050505061449d565b825160401415614495576020830151604084015161448a868383614beb565b93509350505061449d565b506000905060025b9250929050565b60008160048111156144b8576144b8615476565b14156144c15750565b60018160048111156144d5576144d5615476565b14156145235760405162461bcd60e51b815260206004820152601860248201527f45434453413a20696e76616c6964207369676e61747572650000000000000000604482015260640161073e565b600281600481111561453757614537615476565b14156145855760405162461bcd60e51b815260206004820152601f60248201527f45434453413a20696e76616c6964207369676e6174757265206c656e67746800604482015260640161073e565b600381600481111561459957614599615476565b14156145f25760405162461bcd60e51b815260206004820152602260248201527f45434453413a20696e76616c6964207369676e6174757265202773272076616c604482015261756560f01b606482015260840161073e565b600481600481111561460657614606615476565b14156123b25760405162461bcd60e51b815260206004820152602260248201527f45434453413a20696e76616c6964207369676e6174757265202776272076616c604482015261756560f01b606482015260840161073e565b60008481526101006020526040902060608084015190850151600683015461468d919063ffffffff16615b6d565b61469791906157ec565b60068201805463ffffffff191663ffffffff92831690811790915542909116106146d35760068101805463ffffffff19164263ffffffff161790555b6142078584845b600083815261010060205260409020600581015484906001600160a01b031661470282610fe4565b6004840154600585015460208089015160028801546040805195865263ffffffff600160a81b90950485169386019390935292169083015260608201526001600160a01b0391909116907fe17e61be0a4aac2f0b6fece72cedc2ab9ca554634d5af864a9282095206a0c2b9060800160405180910390a460a083015161ffff16156147d2578260a0015161ffff16836040015161479f9190615794565b6147af9063ffffffff1642615657565b8160060160046101000a81548163ffffffff021916908363ffffffff1602179055505b60209092015160058301805463ffffffff909216600160a81b0263ffffffff60a81b19909216919091179055905550565b600084815261010060205260408120600681015490919061482b90429063ffffffff16615b6d565b63ffffffff16856040015163ffffffff16866000015161484b9190615afb565b604086015186516148629163ffffffff1690615afb565b61486c919061577d565b6148769190615b92565b60fc549091506001600160a01b031663c54c58c461489388610fe4565b600585015460405160e084901b6001600160e01b03191681526001600160a01b039283166004820152911660248201526044810189905260648101849052608401600060405180830381600087803b1580156148ee57600080fd5b505af1158015614902573d6000803e3d6000fd5b505050506149118685856146da565b505050505050565b600083815261010060209081526040808320610101909252909120829055600581015484906001600160a01b031661495082610fe4565b600484015460058501546040805192835263ffffffff600160a81b90920482166020840152908816908201526001600160a01b0391909116907f3d051466fe86e1bd842d67e98121d69a930caccf48fc2ae2c83119b5a7b71af69060600161096c565b6001600160a01b038216614a095760405162461bcd60e51b815260206004820181905260248201527f4552433732313a206d696e7420746f20746865207a65726f2061646472657373604482015260640161073e565b6000818152606860205260409020546001600160a01b031615614a6e5760405162461bcd60e51b815260206004820152601c60248201527f4552433732313a20746f6b656e20616c7265616479206d696e74656400000000604482015260640161073e565b614a7a60008383613d69565b6001600160a01b0382166000908152606960205260408120805460019290614aa3908490615657565b909155505060008181526068602052604080822080546001600160a01b0319166001600160a01b03861690811790915590518392907fddf252ad1be2c89b69c2b068fc378daa952ba7f163c4a11628f55a4df523b3ef908290a45050565b6000807f7fffffffffffffffffffffffffffffff5d576e7357a4501ddfe92f46681b20a0831115614b385750600090506003613c7d565b8460ff16601b14158015614b5057508460ff16601c14155b15614b615750600090506004613c7d565b6040805160008082526020820180845289905260ff881692820192909252606081018690526080810185905260019060a0016020604051602081039080840390855afa158015614bb5573d6000803e3d6000fd5b5050604051601f1901519150506001600160a01b038116614bde57600060019250925050613c7d565b9660009650945050505050565b6000806001600160ff1b03831660ff84901c601b01614c0c87828885614b01565b935093505050935093915050565b828054614c269061566f565b90600052602060002090601f016020900481019282614c485760008555614c8e565b82601f10614c615782800160ff19823516178555614c8e565b82800160010185558215614c8e579182015b82811115614c8e578235825591602001919060010190614c73565b50614c9a929150614d12565b5090565b828054614caa9061566f565b90600052602060002090601f016020900481019282614ccc5760008555614c8e565b82601f10614ce557805160ff1916838001178555614c8e565b82800160010185558215614c8e579182015b82811115614c8e578251825591602001919060010190614cf7565b5b80821115614c9a5760008155600101614d13565b6001600160e01b0319811681146123b257600080fd5b600060208284031215614d4f57600080fd5b8135611cff81614d27565b600060208284031215614d6c57600080fd5b5035919050565b60005b83811015614d8e578181015183820152602001614d76565b83811115611db45750506000910152565b60008151808452614db7816020860160208601614d73565b601f01601f19169290920160200192915050565b602081526000611cff6020830184614d9f565b6001600160a01b03811681146123b257600080fd5b60008060408385031215614e0657600080fd5b8235614e1181614dde565b946020939093013593505050565b600080600060608486031215614e3457600080fd5b8335614e3f81614dde565b92506020840135614e4f81614dde565b929592945050506040919091013590565b600060208284031215614e7257600080fd5b8135611cff81614dde565b60008083601f840112614e8f57600080fd5b5081356001600160401b03811115614ea657600080fd5b6020830191508360208260051b850101111561449d57600080fd5b803563ffffffff81168114614ed557600080fd5b919050565b634e487b7160e01b600052604160045260246000fd5b604051606081016001600160401b0381118282101715614f1257614f12614eda565b60405290565b604051601f8201601f191681016001600160401b0381118282101715614f4057614f40614eda565b604052919050565b60006001600160401b03821115614f6157614f61614eda565b50601f01601f191660200190565b600082601f830112614f8057600080fd5b8135614f93614f8e82614f48565b614f18565b818152846020838601011115614fa857600080fd5b816020850160208301376000918101602001919091529392505050565b60008083601f840112614fd757600080fd5b5081356001600160401b03811115614fee57600080fd5b60208301915083602082850101111561449d57600080fd5b600080600080600080600080600060c08a8c03121561502457600080fd5b8935985060208a01356001600160401b038082111561504257600080fd5b61504e8d838e01614e7d565b909a50985060408c013591508082111561506757600080fd5b6150738d838e01614e7d565b909850965086915061508760608d01614ec1565b955060808c013591508082111561509d57600080fd5b6150a98d838e01614f6f565b945060a08c01359150808211156150bf57600080fd5b506150cc8c828d01614fc5565b915080935050809150509295985092959850929598565b6020808252825182820181905260009190848201906040850190845b8181101561511b578351835292840192918401916001016150ff565b50909695505050505050565b6000806040838503121561513a57600080fd5b8235915060208301356006811061515057600080fd5b809150509250929050565b60008060008060008060008060008060006101008c8e03121561517d57600080fd5b8b359a506001600160401b038060208e0135111561519a57600080fd5b6151aa8e60208f01358f01614e7d565b909b50995060408d01358110156151c057600080fd5b6151d08e60408f01358f01614e7d565b909950975060608d013596506151e860808e01614ec1565b95508060a08e013511156151fb57600080fd5b61520b8e60a08f01358f01614f6f565b94508060c08e0135111561521e57600080fd5b61522e8e60c08f01358f01614f6f565b93508060e08e0135111561524157600080fd5b506152528d60e08e01358e01614fc5565b81935080925050509295989b509295989b9093969950565b6000806040838503121561527d57600080fd5b8235915061528d60208401614ec1565b90509250929050565b600080604083850312156152a957600080fd5b82356152b481614dde565b915061528d60208401614ec1565b80151581146123b257600080fd5b600080604083850312156152e357600080fd5b82356152ee81614dde565b91506020830135615150816152c2565b60008060006060848603121561531357600080fd5b833561531e81614dde565b95602085013595506040909401359392505050565b600080600080600080600080600060c08a8c03121561535157600080fd5b8935985060208a0135975060408a01356001600160401b038082111561537657600080fd5b6153828d838e01614e7d565b909950975060608c013591508082111561539b57600080fd5b6153a78d838e01614e7d565b909750955060808c013591508082111561509d57600080fd5b600080600080608085870312156153d657600080fd5b84356153e181614dde565b935060208501356153f181614dde565b92506040850135915060608501356001600160401b0381111561541357600080fd5b61541f87828801614f6f565b91505092959194509250565b60008060006040848603121561544057600080fd5b8335925060208401356001600160401b0381111561545d57600080fd5b61546986828701614e7d565b9497909650939450505050565b634e487b7160e01b600052602160045260246000fd5b600681106154aa57634e487b7160e01b600052602160045260246000fd5b9052565b60408152825160408201526020830151606082015260408301516080820152606083015160a0820152608083015160c0820152600060a08401516154fd60e08401826001600160a01b03169052565b5060c08401516101006155128185018361548c565b60e0860151915061012061552d8186018463ffffffff169052565b908601519150610140906155488583018463ffffffff169052565b86015191506101606155618582018463ffffffff169052565b9086015191506101809061557c8583018463ffffffff169052565b86015191506101a06155958582018463ffffffff169052565b818701519250806101c086015250506155b26101e0840182614d9f565b915050611cff60208301846001600160a01b03169052565b600080604083850312156155dd57600080fd5b82356155e881614dde565b9150602083013561515081614dde565b60208082526005908201526404282aaa8960db1b604082015260600190565b60208082526010908201526f14185d5cd8589b194e881c185d5cd95960821b604082015260600190565b634e487b7160e01b600052601160045260246000fd5b6000821982111561566a5761566a615641565b500190565b600181811c9082168061568357607f821691505b602082108114156156a457634e487b7160e01b600052602260045260246000fd5b50919050565b60208082526031908201527f4552433732313a207472616e736665722063616c6c6572206973206e6f74206f6040820152701ddb995c881b9bdc88185c1c1c9bdd9959607a1b606082015260800190565b6020808252818101527f4f776e61626c653a2063616c6c6572206973206e6f7420746865206f776e6572604082015260600190565b60208082526010908201526f21494e56414c4944287374617475732960801b604082015260600190565b602080825260099082015268214d494e5f5445524d60b81b604082015260600190565b60008282101561578f5761578f615641565b500390565b600063ffffffff808316818516818304811182151516156157b7576157b7615641565b02949350505050565b634e487b7160e01b600052603260045260246000fd5b634e487b7160e01b600052603160045260246000fd5b600063ffffffff80831681851680830382111561580b5761580b615641565b01949350505050565b600060001982141561582857615828615641565b5060010190565b66697066733a2f2f60c81b815260008251615851816007850160208701614d73565b9190910160070192915050565b60208082526013908201527221494e56414c494428706c616e50726f6f662960681b604082015260600190565b60006020828403121561589d57600080fd5b815160038110611cff57600080fd5b60208082526032908201527f4552433732313a207472616e7366657220746f206e6f6e20455243373231526560408201527131b2b4bb32b91034b6b83632b6b2b73a32b960711b606082015260800190565b6000808585111561590e57600080fd5b8386111561591b57600080fd5b5050600583901b0193919092039150565b81835260006001600160fb1b0383111561594557600080fd5b8260051b8083602087013760009401602001938452509192915050565b60018060a01b038816815263ffffffff8716602082015285604082015284606082015283608082015260c060a082015260006159a260c08301848661592c565b9998505050505050505050565b6000602082840312156159c157600080fd5b8151611cff816152c2565b6020808252602b908201527f496e697469616c697a61626c653a20636f6e7472616374206973206e6f74206960408201526a6e697469616c697a696e6760a81b606082015260800190565b60006020808385031215615a2a57600080fd5b82516001600160401b0380821115615a4157600080fd5b9084019060608287031215615a5557600080fd5b615a5d614ef0565b8251615a6881614dde565b81528284015184820152604083015182811115615a8457600080fd5b80840193505086601f840112615a9957600080fd5b82519150615aa9614f8e83614f48565b8281528785848601011115615abd57600080fd5b615acc83868301878701614d73565b60408201529695505050505050565b848152836020820152606060408201526000613faf60608301848661592c565b600082615b1857634e487b7160e01b600052601260045260246000fd5b500490565b6001600160a01b0385811682528416602082015260408101839052608060608201819052600090613faf90830184614d9f565b600060208284031215615b6257600080fd5b8151611cff81614d27565b600063ffffffff83811690831681811015615b8a57615b8a615641565b039392505050565b6000816000190483118215151615615bac57615bac615641565b50029056fea2646970667358221220e84f0c760bd081b48299b88e4ee99dc66306f64c2a894afe185abc5a90565f9764736f6c63430008090033",
  "devdoc": {
    "kind": "dev",
    "methods": {
      "approve(address,uint256)": {
        "details": "See {IERC721-approve}."
      },
      "balanceOf(address)": {
        "details": "See {IERC721-balanceOf}."
      },
      "constructor": {
        "custom:oz-upgrades-unsafe-allow": "constructor"
      },
      "getApproved(uint256)": {
        "details": "See {IERC721-getApproved}."
      },
      "isApprovedForAll(address,address)": {
        "details": "See {IERC721-isApprovedForAll}."
      },
      "name()": {
        "details": "See {IERC721Metadata-name}."
      },
      "owner()": {
        "details": "Returns the address of the current owner."
      },
      "ownerOf(uint256)": {
        "details": "See {IERC721-ownerOf}."
      },
      "paused()": {
        "details": "Returns true if the contract is paused, and false otherwise."
      },
      "renounceOwnership()": {
        "details": "Leaves the contract without owner. It will not be possible to call `onlyOwner` functions anymore. Can only be called by the current owner. NOTE: Renouncing ownership will leave the contract without an owner, thereby removing any functionality that is only available to the owner."
      },
      "safeTransferFrom(address,address,uint256)": {
        "details": "See {IERC721-safeTransferFrom}."
      },
      "safeTransferFrom(address,address,uint256,bytes)": {
        "details": "See {IERC721-safeTransferFrom}."
      },
      "setApprovalForAll(address,bool)": {
        "details": "See {IERC721-setApprovalForAll}."
      },
      "supportsInterface(bytes4)": {
        "details": "See {IERC165-supportsInterface}."
      },
      "symbol()": {
        "details": "See {IERC721Metadata-symbol}."
      },
      "transferFrom(address,address,uint256)": {
        "details": "See {IERC721-transferFrom}."
      },
      "transferOwnership(address)": {
        "details": "Transfers ownership of the contract to a new account (`newOwner`). Can only be called by the current owner."
      }
    },
    "stateVariables": {
      "consumerSubscriptions": {
        "details": "Maps for consumer to list of subscriptions. "
      },
      "providerSubscriptions": {
        "details": "Maps for provider to list of subscriptions and plans. "
      },
      "subscriptionManager": {
        "details": "contract to manage subscription plan definitions. "
      },
      "subscriptionPlans": {
        "details": "contract to manage subscription plan definitions. "
      }
    },
    "version": 1
  },
  "userdoc": {
    "kind": "user",
    "methods": {
      "isTrustedForwarder(address)": {
        "notice": "return if the forwarder is trusted to forward relayed transactions to us. the forwarder is required to verify the sender's signature, and verify the call is not a replay."
      }
    },
    "version": 1
  },
  "storageLayout": {
    "storage": [
      {
        "astId": 327,
        "contract": "contracts/protocol/CaskSubscriptions.sol:CaskSubscriptions",
        "label": "_initialized",
        "offset": 0,
        "slot": "0",
        "type": "t_bool"
      },
      {
        "astId": 330,
        "contract": "contracts/protocol/CaskSubscriptions.sol:CaskSubscriptions",
        "label": "_initializing",
        "offset": 1,
        "slot": "0",
        "type": "t_bool"
      },
      {
        "astId": 2551,
        "contract": "contracts/protocol/CaskSubscriptions.sol:CaskSubscriptions",
        "label": "__gap",
        "offset": 0,
        "slot": "1",
        "type": "t_array(t_uint256)50_storage"
      },
      {
        "astId": 2800,
        "contract": "contracts/protocol/CaskSubscriptions.sol:CaskSubscriptions",
        "label": "__gap",
        "offset": 0,
        "slot": "51",
        "type": "t_array(t_uint256)50_storage"
      },
      {
        "astId": 72,
        "contract": "contracts/protocol/CaskSubscriptions.sol:CaskSubscriptions",
        "label": "_trustedForwarder",
        "offset": 0,
        "slot": "101",
        "type": "t_address"
      },
      {
        "astId": 1270,
        "contract": "contracts/protocol/CaskSubscriptions.sol:CaskSubscriptions",
        "label": "_name",
        "offset": 0,
        "slot": "102",
        "type": "t_string_storage"
      },
      {
        "astId": 1272,
        "contract": "contracts/protocol/CaskSubscriptions.sol:CaskSubscriptions",
        "label": "_symbol",
        "offset": 0,
        "slot": "103",
        "type": "t_string_storage"
      },
      {
        "astId": 1276,
        "contract": "contracts/protocol/CaskSubscriptions.sol:CaskSubscriptions",
        "label": "_owners",
        "offset": 0,
        "slot": "104",
        "type": "t_mapping(t_uint256,t_address)"
      },
      {
        "astId": 1280,
        "contract": "contracts/protocol/CaskSubscriptions.sol:CaskSubscriptions",
        "label": "_balances",
        "offset": 0,
        "slot": "105",
        "type": "t_mapping(t_address,t_uint256)"
      },
      {
        "astId": 1284,
        "contract": "contracts/protocol/CaskSubscriptions.sol:CaskSubscriptions",
        "label": "_tokenApprovals",
        "offset": 0,
        "slot": "106",
        "type": "t_mapping(t_uint256,t_address)"
      },
      {
        "astId": 1290,
        "contract": "contracts/protocol/CaskSubscriptions.sol:CaskSubscriptions",
        "label": "_operatorApprovals",
        "offset": 0,
        "slot": "107",
        "type": "t_mapping(t_address,t_mapping(t_address,t_bool))"
      },
      {
        "astId": 2101,
        "contract": "contracts/protocol/CaskSubscriptions.sol:CaskSubscriptions",
        "label": "__gap",
        "offset": 0,
        "slot": "108",
        "type": "t_array(t_uint256)44_storage"
      },
      {
        "astId": 205,
        "contract": "contracts/protocol/CaskSubscriptions.sol:CaskSubscriptions",
        "label": "_owner",
        "offset": 0,
        "slot": "152",
        "type": "t_address"
      },
      {
        "astId": 319,
        "contract": "contracts/protocol/CaskSubscriptions.sol:CaskSubscriptions",
        "label": "__gap",
        "offset": 0,
        "slot": "153",
        "type": "t_array(t_uint256)49_storage"
      },
      {
        "astId": 415,
        "contract": "contracts/protocol/CaskSubscriptions.sol:CaskSubscriptions",
        "label": "_paused",
        "offset": 0,
        "slot": "202",
        "type": "t_bool"
      },
      {
        "astId": 506,
        "contract": "contracts/protocol/CaskSubscriptions.sol:CaskSubscriptions",
        "label": "__gap",
        "offset": 0,
        "slot": "203",
        "type": "t_array(t_uint256)49_storage"
      },
      {
        "astId": 10814,
        "contract": "contracts/protocol/CaskSubscriptions.sol:CaskSubscriptions",
        "label": "subscriptionManager",
        "offset": 0,
        "slot": "252",
        "type": "t_contract(ICaskSubscriptionManager)7572"
      },
      {
        "astId": 10818,
        "contract": "contracts/protocol/CaskSubscriptions.sol:CaskSubscriptions",
        "label": "subscriptionPlans",
        "offset": 0,
        "slot": "253",
        "type": "t_contract(ICaskSubscriptionPlans)7718"
      },
      {
        "astId": 10821,
        "contract": "contracts/protocol/CaskSubscriptions.sol:CaskSubscriptions",
        "label": "activeSubscriptions",
        "offset": 0,
        "slot": "254",
        "type": "t_array(t_uint256)dyn_storage"
      },
      {
        "astId": 10827,
        "contract": "contracts/protocol/CaskSubscriptions.sol:CaskSubscriptions",
        "label": "consumerSubscriptions",
        "offset": 0,
        "slot": "255",
        "type": "t_mapping(t_address,t_array(t_uint256)dyn_storage)"
      },
      {
        "astId": 10832,
        "contract": "contracts/protocol/CaskSubscriptions.sol:CaskSubscriptions",
        "label": "subscriptions",
        "offset": 0,
        "slot": "256",
        "type": "t_mapping(t_uint256,t_struct(Subscription)7766_storage)"
      },
      {
        "astId": 10836,
        "contract": "contracts/protocol/CaskSubscriptions.sol:CaskSubscriptions",
        "label": "pendingPlanChanges",
        "offset": 0,
        "slot": "257",
        "type": "t_mapping(t_uint256,t_bytes32)"
      },
      {
        "astId": 10842,
        "contract": "contracts/protocol/CaskSubscriptions.sol:CaskSubscriptions",
        "label": "providerSubscriptions",
        "offset": 0,
        "slot": "258",
        "type": "t_mapping(t_address,t_array(t_uint256)dyn_storage)"
      },
      {
        "astId": 10846,
        "contract": "contracts/protocol/CaskSubscriptions.sol:CaskSubscriptions",
        "label": "providerActiveSubscriptionCount",
        "offset": 0,
        "slot": "259",
        "type": "t_mapping(t_address,t_uint256)"
      },
      {
        "astId": 10852,
        "contract": "contracts/protocol/CaskSubscriptions.sol:CaskSubscriptions",
        "label": "planActiveSubscriptionCount",
        "offset": 0,
        "slot": "260",
        "type": "t_mapping(t_address,t_mapping(t_uint32,t_uint256))"
      },
      {
        "astId": 10856,
        "contract": "contracts/protocol/CaskSubscriptions.sol:CaskSubscriptions",
        "label": "idxMap",
        "offset": 0,
        "slot": "261",
        "type": "t_mapping(t_uint256,t_uint256)"
      }
    ],
    "types": {
      "t_address": {
        "encoding": "inplace",
        "label": "address",
        "numberOfBytes": "20"
      },
      "t_array(t_uint256)44_storage": {
        "base": "t_uint256",
        "encoding": "inplace",
        "label": "uint256[44]",
        "numberOfBytes": "1408"
      },
      "t_array(t_uint256)49_storage": {
        "base": "t_uint256",
        "encoding": "inplace",
        "label": "uint256[49]",
        "numberOfBytes": "1568"
      },
      "t_array(t_uint256)50_storage": {
        "base": "t_uint256",
        "encoding": "inplace",
        "label": "uint256[50]",
        "numberOfBytes": "1600"
      },
      "t_array(t_uint256)dyn_storage": {
        "base": "t_uint256",
        "encoding": "dynamic_array",
        "label": "uint256[]",
        "numberOfBytes": "32"
      },
      "t_bool": {
        "encoding": "inplace",
        "label": "bool",
        "numberOfBytes": "1"
      },
      "t_bytes32": {
        "encoding": "inplace",
        "label": "bytes32",
        "numberOfBytes": "32"
      },
      "t_contract(ICaskSubscriptionManager)7572": {
        "encoding": "inplace",
        "label": "contract ICaskSubscriptionManager",
        "numberOfBytes": "20"
      },
      "t_contract(ICaskSubscriptionPlans)7718": {
        "encoding": "inplace",
        "label": "contract ICaskSubscriptionPlans",
        "numberOfBytes": "20"
      },
      "t_enum(SubscriptionStatus)7731": {
        "encoding": "inplace",
        "label": "enum ICaskSubscriptions.SubscriptionStatus",
        "numberOfBytes": "1"
      },
      "t_mapping(t_address,t_array(t_uint256)dyn_storage)": {
        "encoding": "mapping",
        "key": "t_address",
        "label": "mapping(address => uint256[])",
        "numberOfBytes": "32",
        "value": "t_array(t_uint256)dyn_storage"
      },
      "t_mapping(t_address,t_bool)": {
        "encoding": "mapping",
        "key": "t_address",
        "label": "mapping(address => bool)",
        "numberOfBytes": "32",
        "value": "t_bool"
      },
      "t_mapping(t_address,t_mapping(t_address,t_bool))": {
        "encoding": "mapping",
        "key": "t_address",
        "label": "mapping(address => mapping(address => bool))",
        "numberOfBytes": "32",
        "value": "t_mapping(t_address,t_bool)"
      },
      "t_mapping(t_address,t_mapping(t_uint32,t_uint256))": {
        "encoding": "mapping",
        "key": "t_address",
        "label": "mapping(address => mapping(uint32 => uint256))",
        "numberOfBytes": "32",
        "value": "t_mapping(t_uint32,t_uint256)"
      },
      "t_mapping(t_address,t_uint256)": {
        "encoding": "mapping",
        "key": "t_address",
        "label": "mapping(address => uint256)",
        "numberOfBytes": "32",
        "value": "t_uint256"
      },
      "t_mapping(t_uint256,t_address)": {
        "encoding": "mapping",
        "key": "t_uint256",
        "label": "mapping(uint256 => address)",
        "numberOfBytes": "32",
        "value": "t_address"
      },
      "t_mapping(t_uint256,t_bytes32)": {
        "encoding": "mapping",
        "key": "t_uint256",
        "label": "mapping(uint256 => bytes32)",
        "numberOfBytes": "32",
        "value": "t_bytes32"
      },
      "t_mapping(t_uint256,t_struct(Subscription)7766_storage)": {
        "encoding": "mapping",
        "key": "t_uint256",
        "label": "mapping(uint256 => struct ICaskSubscriptions.Subscription)",
        "numberOfBytes": "32",
        "value": "t_struct(Subscription)7766_storage"
      },
      "t_mapping(t_uint256,t_uint256)": {
        "encoding": "mapping",
        "key": "t_uint256",
        "label": "mapping(uint256 => uint256)",
        "numberOfBytes": "32",
        "value": "t_uint256"
      },
      "t_mapping(t_uint32,t_uint256)": {
        "encoding": "mapping",
        "key": "t_uint32",
        "label": "mapping(uint32 => uint256)",
        "numberOfBytes": "32",
        "value": "t_uint256"
      },
      "t_string_storage": {
        "encoding": "bytes",
        "label": "string",
        "numberOfBytes": "32"
      },
      "t_struct(Subscription)7766_storage": {
        "encoding": "inplace",
        "label": "struct ICaskSubscriptions.Subscription",
        "members": [
          {
            "astId": 7740,
            "contract": "contracts/protocol/CaskSubscriptions.sol:CaskSubscriptions",
            "label": "planData",
            "offset": 0,
            "slot": "0",
            "type": "t_bytes32"
          },
          {
            "astId": 7742,
            "contract": "contracts/protocol/CaskSubscriptions.sol:CaskSubscriptions",
            "label": "networkData",
            "offset": 0,
            "slot": "1",
            "type": "t_bytes32"
          },
          {
            "astId": 7744,
            "contract": "contracts/protocol/CaskSubscriptions.sol:CaskSubscriptions",
            "label": "discountId",
            "offset": 0,
            "slot": "2",
            "type": "t_bytes32"
          },
          {
            "astId": 7746,
            "contract": "contracts/protocol/CaskSubscriptions.sol:CaskSubscriptions",
            "label": "discountData",
            "offset": 0,
            "slot": "3",
            "type": "t_bytes32"
          },
          {
            "astId": 7748,
            "contract": "contracts/protocol/CaskSubscriptions.sol:CaskSubscriptions",
            "label": "ref",
            "offset": 0,
            "slot": "4",
            "type": "t_bytes32"
          },
          {
            "astId": 7750,
            "contract": "contracts/protocol/CaskSubscriptions.sol:CaskSubscriptions",
            "label": "provider",
            "offset": 0,
            "slot": "5",
            "type": "t_address"
          },
          {
            "astId": 7753,
            "contract": "contracts/protocol/CaskSubscriptions.sol:CaskSubscriptions",
            "label": "status",
            "offset": 20,
            "slot": "5",
            "type": "t_enum(SubscriptionStatus)7731"
          },
          {
            "astId": 7755,
            "contract": "contracts/protocol/CaskSubscriptions.sol:CaskSubscriptions",
            "label": "planId",
            "offset": 21,
            "slot": "5",
            "type": "t_uint32"
          },
          {
            "astId": 7757,
            "contract": "contracts/protocol/CaskSubscriptions.sol:CaskSubscriptions",
            "label": "createdAt",
            "offset": 25,
            "slot": "5",
            "type": "t_uint32"
          },
          {
            "astId": 7759,
            "contract": "contracts/protocol/CaskSubscriptions.sol:CaskSubscriptions",
            "label": "renewAt",
            "offset": 0,
            "slot": "6",
            "type": "t_uint32"
          },
          {
            "astId": 7761,
            "contract": "contracts/protocol/CaskSubscriptions.sol:CaskSubscriptions",
            "label": "minTermAt",
            "offset": 4,
            "slot": "6",
            "type": "t_uint32"
          },
          {
            "astId": 7763,
            "contract": "contracts/protocol/CaskSubscriptions.sol:CaskSubscriptions",
            "label": "cancelAt",
            "offset": 8,
            "slot": "6",
            "type": "t_uint32"
          },
          {
            "astId": 7765,
            "contract": "contracts/protocol/CaskSubscriptions.sol:CaskSubscriptions",
            "label": "cid",
            "offset": 0,
            "slot": "7",
            "type": "t_string_storage"
          }
        ],
        "numberOfBytes": "256"
      },
      "t_uint256": {
        "encoding": "inplace",
        "label": "uint256",
        "numberOfBytes": "32"
      },
      "t_uint32": {
        "encoding": "inplace",
        "label": "uint32",
        "numberOfBytes": "4"
      }
    }
  }
}