{
  "address": "0x2349E83f87170796c82FB6D7a67d3F5b4519b4F0",
  "abi": [
    {
      "inputs": [],
      "stateMutability": "nonpayable",
      "type": "constructor"
    },
    {
      "anonymous": false,
      "inputs": [
        {
          "indexed": true,
          "internalType": "bytes32",
          "name": "dcaId",
          "type": "bytes32"
        },
        {
          "indexed": true,
          "internalType": "address",
          "name": "user",
          "type": "address"
        }
      ],
      "name": "DCACanceled",
      "type": "event"
    },
    {
      "anonymous": false,
      "inputs": [
        {
          "indexed": true,
          "internalType": "bytes32",
          "name": "dcaId",
          "type": "bytes32"
        },
        {
          "indexed": true,
          "internalType": "address",
          "name": "user",
          "type": "address"
        }
      ],
      "name": "DCACompleted",
      "type": "event"
    },
    {
      "anonymous": false,
      "inputs": [
        {
          "indexed": true,
          "internalType": "bytes32",
          "name": "dcaId",
          "type": "bytes32"
        },
        {
          "indexed": true,
          "internalType": "address",
          "name": "user",
          "type": "address"
        },
        {
          "indexed": true,
          "internalType": "address",
          "name": "to",
          "type": "address"
        },
        {
          "indexed": false,
          "internalType": "address",
          "name": "inputAsset",
          "type": "address"
        },
        {
          "indexed": false,
          "internalType": "address",
          "name": "outputAsset",
          "type": "address"
        },
        {
          "indexed": false,
          "internalType": "uint256",
          "name": "amount",
          "type": "uint256"
        },
        {
          "indexed": false,
          "internalType": "uint256",
          "name": "totalAmount",
          "type": "uint256"
        },
        {
          "indexed": false,
          "internalType": "uint32",
          "name": "period",
          "type": "uint32"
        }
      ],
      "name": "DCACreated",
      "type": "event"
    },
    {
      "anonymous": false,
      "inputs": [
        {
          "indexed": true,
          "internalType": "bytes32",
          "name": "dcaId",
          "type": "bytes32"
        },
        {
          "indexed": true,
          "internalType": "address",
          "name": "user",
          "type": "address"
        }
      ],
      "name": "DCAPaused",
      "type": "event"
    },
    {
      "anonymous": false,
      "inputs": [
        {
          "indexed": true,
          "internalType": "bytes32",
          "name": "dcaId",
          "type": "bytes32"
        },
        {
          "indexed": true,
          "internalType": "address",
          "name": "user",
          "type": "address"
        },
        {
          "indexed": false,
          "internalType": "uint256",
          "name": "amount",
          "type": "uint256"
        },
        {
          "indexed": false,
          "internalType": "uint256",
          "name": "buyQty",
          "type": "uint256"
        },
        {
          "indexed": false,
          "internalType": "uint256",
          "name": "fee",
          "type": "uint256"
        }
      ],
      "name": "DCAProcessed",
      "type": "event"
    },
    {
      "anonymous": false,
      "inputs": [
        {
          "indexed": true,
          "internalType": "bytes32",
          "name": "dcaId",
          "type": "bytes32"
        },
        {
          "indexed": true,
          "internalType": "address",
          "name": "user",
          "type": "address"
        }
      ],
      "name": "DCAResumed",
      "type": "event"
    },
    {
      "anonymous": false,
      "inputs": [
        {
          "indexed": true,
          "internalType": "bytes32",
          "name": "dcaId",
          "type": "bytes32"
        },
        {
          "indexed": true,
          "internalType": "address",
          "name": "user",
          "type": "address"
        },
        {
          "indexed": false,
          "internalType": "enum ICaskDCA.SkipReason",
          "name": "skipReason",
          "type": "uint8"
        }
      ],
      "name": "DCASkipped",
      "type": "event"
    },
    {
      "anonymous": false,
      "inputs": [
        {
          "indexed": true,
          "internalType": "address",
          "name": "previousOwner",
          "type": "address"
        },
        {
          "indexed": true,
          "internalType": "address",
          "name": "newOwner",
          "type": "address"
        }
      ],
      "name": "OwnershipTransferred",
      "type": "event"
    },
    {
      "anonymous": false,
      "inputs": [
        {
          "indexed": false,
          "internalType": "address",
          "name": "account",
          "type": "address"
        }
      ],
      "name": "Paused",
      "type": "event"
    },
    {
      "anonymous": false,
      "inputs": [
        {
          "indexed": false,
          "internalType": "address",
          "name": "account",
          "type": "address"
        }
      ],
      "name": "Unpaused",
      "type": "event"
    },
    {
      "inputs": [],
      "name": "assetsMerkleRoot",
      "outputs": [
        {
          "internalType": "bytes32",
          "name": "",
          "type": "bytes32"
        }
      ],
      "stateMutability": "view",
      "type": "function"
    },
    {
      "inputs": [
        {
          "internalType": "bytes32",
          "name": "_dcaId",
          "type": "bytes32"
        }
      ],
      "name": "cancelDCA",
      "outputs": [],
      "stateMutability": "nonpayable",
      "type": "function"
    },
    {
      "inputs": [
        {
          "internalType": "address[]",
          "name": "_assetSpec",
          "type": "address[]"
        },
        {
          "internalType": "bytes32[]",
          "name": "_merkleProof",
          "type": "bytes32[]"
        },
        {
          "internalType": "address",
          "name": "_to",
          "type": "address"
        },
        {
          "internalType": "uint256",
          "name": "_amount",
          "type": "uint256"
        },
        {
          "internalType": "uint256",
          "name": "_totalAmount",
          "type": "uint256"
        },
        {
          "internalType": "uint32",
          "name": "_period",
          "type": "uint32"
        },
        {
          "internalType": "uint256",
          "name": "_slippageBps",
          "type": "uint256"
        },
        {
          "internalType": "uint256",
          "name": "_minPrice",
          "type": "uint256"
        },
        {
          "internalType": "uint256",
          "name": "_maxPrice",
          "type": "uint256"
        }
      ],
      "name": "createDCA",
      "outputs": [
        {
          "internalType": "bytes32",
          "name": "",
          "type": "bytes32"
        }
      ],
      "stateMutability": "nonpayable",
      "type": "function"
    },
    {
      "inputs": [],
      "name": "dcaManager",
      "outputs": [
        {
          "internalType": "contract ICaskDCAManager",
          "name": "",
          "type": "address"
        }
      ],
      "stateMutability": "view",
      "type": "function"
    },
    {
      "inputs": [
        {
          "internalType": "bytes32",
          "name": "_dcaId",
          "type": "bytes32"
        }
      ],
      "name": "getDCA",
      "outputs": [
        {
          "components": [
            {
              "internalType": "address",
              "name": "user",
              "type": "address"
            },
            {
              "internalType": "address",
              "name": "to",
              "type": "address"
            },
            {
              "internalType": "address",
              "name": "router",
              "type": "address"
            },
            {
              "internalType": "address",
              "name": "priceFeed",
              "type": "address"
            },
            {
              "internalType": "uint256",
              "name": "amount",
              "type": "uint256"
            },
            {
              "internalType": "uint256",
              "name": "totalAmount",
              "type": "uint256"
            },
            {
              "internalType": "uint256",
              "name": "currentAmount",
              "type": "uint256"
            },
            {
              "internalType": "uint256",
              "name": "currentQty",
              "type": "uint256"
            },
            {
              "internalType": "uint256",
              "name": "numBuys",
              "type": "uint256"
            },
            {
              "internalType": "uint256",
              "name": "numSkips",
              "type": "uint256"
            },
            {
              "internalType": "uint256",
              "name": "slippageBps",
              "type": "uint256"
            },
            {
              "internalType": "uint256",
              "name": "maxPrice",
              "type": "uint256"
            },
            {
              "internalType": "uint256",
              "name": "minPrice",
              "type": "uint256"
            },
            {
              "internalType": "uint32",
              "name": "period",
              "type": "uint32"
            },
            {
              "internalType": "uint32",
              "name": "createdAt",
              "type": "uint32"
            },
            {
              "internalType": "uint32",
              "name": "processAt",
              "type": "uint32"
            },
            {
              "internalType": "enum ICaskDCA.DCAStatus",
              "name": "status",
              "type": "uint8"
            },
            {
              "internalType": "address[]",
              "name": "path",
              "type": "address[]"
            }
          ],
          "internalType": "struct ICaskDCA.DCA",
          "name": "",
          "type": "tuple"
        }
      ],
      "stateMutability": "view",
      "type": "function"
    },
    {
      "inputs": [
        {
          "internalType": "address",
          "name": "_user",
          "type": "address"
        },
        {
          "internalType": "uint256",
          "name": "_idx",
          "type": "uint256"
        }
      ],
      "name": "getUserDCA",
      "outputs": [
        {
          "internalType": "bytes32",
          "name": "",
          "type": "bytes32"
        }
      ],
      "stateMutability": "view",
      "type": "function"
    },
    {
      "inputs": [
        {
          "internalType": "address",
          "name": "_user",
          "type": "address"
        }
      ],
      "name": "getUserDCACount",
      "outputs": [
        {
          "internalType": "uint256",
          "name": "",
          "type": "uint256"
        }
      ],
      "stateMutability": "view",
      "type": "function"
    },
    {
      "inputs": [
        {
          "internalType": "bytes32",
          "name": "_assetsMerkleRoot",
          "type": "bytes32"
        }
      ],
      "name": "initialize",
      "outputs": [],
      "stateMutability": "nonpayable",
      "type": "function"
    },
    {
      "inputs": [
        {
          "internalType": "address",
          "name": "forwarder",
          "type": "address"
        }
      ],
      "name": "isTrustedForwarder",
      "outputs": [
        {
          "internalType": "bool",
          "name": "",
          "type": "bool"
        }
      ],
      "stateMutability": "view",
      "type": "function"
    },
    {
      "inputs": [
        {
          "internalType": "bytes32",
          "name": "_dcaId",
          "type": "bytes32"
        },
        {
          "internalType": "enum ICaskDCA.ManagerCommand",
          "name": "_command",
          "type": "uint8"
        }
      ],
      "name": "managerCommand",
      "outputs": [],
      "stateMutability": "nonpayable",
      "type": "function"
    },
    {
      "inputs": [
        {
          "internalType": "bytes32",
          "name": "_dcaId",
          "type": "bytes32"
        },
        {
          "internalType": "uint256",
          "name": "_amount",
          "type": "uint256"
        },
        {
          "internalType": "uint256",
          "name": "_buyQty",
          "type": "uint256"
        },
        {
          "internalType": "uint256",
          "name": "_fee",
          "type": "uint256"
        }
      ],
      "name": "managerProcessed",
      "outputs": [],
      "stateMutability": "nonpayable",
      "type": "function"
    },
    {
      "inputs": [
        {
          "internalType": "bytes32",
          "name": "_dcaId",
          "type": "bytes32"
        },
        {
          "internalType": "enum ICaskDCA.SkipReason",
          "name": "_skipReason",
          "type": "uint8"
        }
      ],
      "name": "managerSkipped",
      "outputs": [],
      "stateMutability": "nonpayable",
      "type": "function"
    },
    {
      "inputs": [],
      "name": "minAmount",
      "outputs": [
        {
          "internalType": "uint256",
          "name": "",
          "type": "uint256"
        }
      ],
      "stateMutability": "view",
      "type": "function"
    },
    {
      "inputs": [],
      "name": "minPeriod",
      "outputs": [
        {
          "internalType": "uint32",
          "name": "",
          "type": "uint32"
        }
      ],
      "stateMutability": "view",
      "type": "function"
    },
    {
      "inputs": [],
      "name": "owner",
      "outputs": [
        {
          "internalType": "address",
          "name": "",
          "type": "address"
        }
      ],
      "stateMutability": "view",
      "type": "function"
    },
    {
      "inputs": [],
      "name": "pause",
      "outputs": [],
      "stateMutability": "nonpayable",
      "type": "function"
    },
    {
      "inputs": [
        {
          "internalType": "bytes32",
          "name": "_dcaId",
          "type": "bytes32"
        }
      ],
      "name": "pauseDCA",
      "outputs": [],
      "stateMutability": "nonpayable",
      "type": "function"
    },
    {
      "inputs": [],
      "name": "paused",
      "outputs": [
        {
          "internalType": "bool",
          "name": "",
          "type": "bool"
        }
      ],
      "stateMutability": "view",
      "type": "function"
    },
    {
      "inputs": [],
      "name": "renounceOwnership",
      "outputs": [],
      "stateMutability": "nonpayable",
      "type": "function"
    },
    {
      "inputs": [
        {
          "internalType": "bytes32",
          "name": "_dcaId",
          "type": "bytes32"
        }
      ],
      "name": "resumeDCA",
      "outputs": [],
      "stateMutability": "nonpayable",
      "type": "function"
    },
    {
      "inputs": [
        {
          "internalType": "bytes32",
          "name": "_assetsMerkleRoot",
          "type": "bytes32"
        }
      ],
      "name": "setAssetsMerkleRoot",
      "outputs": [],
      "stateMutability": "nonpayable",
      "type": "function"
    },
    {
      "inputs": [
        {
          "internalType": "address",
          "name": "_dcaManager",
          "type": "address"
        }
      ],
      "name": "setManager",
      "outputs": [],
      "stateMutability": "nonpayable",
      "type": "function"
    },
    {
      "inputs": [
        {
          "internalType": "uint256",
          "name": "_minAmount",
          "type": "uint256"
        }
      ],
      "name": "setMinAmount",
      "outputs": [],
      "stateMutability": "nonpayable",
      "type": "function"
    },
    {
      "inputs": [
        {
          "internalType": "uint32",
          "name": "_minPeriod",
          "type": "uint32"
        }
      ],
      "name": "setMinPeriod",
      "outputs": [],
      "stateMutability": "nonpayable",
      "type": "function"
    },
    {
      "inputs": [
        {
          "internalType": "address",
          "name": "_forwarder",
          "type": "address"
        }
      ],
      "name": "setTrustedForwarder",
      "outputs": [],
      "stateMutability": "nonpayable",
      "type": "function"
    },
    {
      "inputs": [
        {
          "internalType": "address",
          "name": "newOwner",
          "type": "address"
        }
      ],
      "name": "transferOwnership",
      "outputs": [],
      "stateMutability": "nonpayable",
      "type": "function"
    },
    {
      "inputs": [],
      "name": "trustedForwarder",
      "outputs": [
        {
          "internalType": "address",
          "name": "",
          "type": "address"
        }
      ],
      "stateMutability": "view",
      "type": "function"
    },
    {
      "inputs": [],
      "name": "unpause",
      "outputs": [],
      "stateMutability": "nonpayable",
      "type": "function"
    },
    {
      "inputs": [],
      "name": "versionRecipient",
      "outputs": [
        {
          "internalType": "string",
          "name": "",
          "type": "string"
        }
      ],
      "stateMutability": "pure",
      "type": "function"
    }
  ],
  "transactionHash": "0x49640034d25104bc4f97225aadfd4c8732471a462d52a3aabea5f61c25a9451b",
  "args": [],
  "numDeployments": 1,
  "solcInputHash": "23e5945223b9711445ca29f7f02872e9",
  "bytecode": "0x60806040523480156200001157600080fd5b50600054610100900460ff166200002f5760005460ff161562000039565b62000039620000de565b620000a15760405162461bcd60e51b815260206004820152602e60248201527f496e697469616c697a61626c653a20636f6e747261637420697320616c72656160448201526d191e481a5b9a5d1a585b1a5e995960921b606482015260840160405180910390fd5b600054610100900460ff16158015620000c4576000805461ffff19166101011790555b8015620000d7576000805461ff00191690555b5062000102565b6000620000f630620000fc60201b620017271760201c565b15905090565b3b151590565b6123c180620001126000396000f3fe608060405234801561001057600080fd5b50600436106101cf5760003560e01c8063897b063711610104578063b4e38a8d116100a2578063da74222811610071578063da742228146103f1578063f2fde38b14610404578063f5f4bdb914610417578063ffd49c841461042a57600080fd5b8063b4e38a8d146103a5578063bd78b2b3146103b8578063c453824f146103cb578063d0ebdbe7146103de57600080fd5b80639498bd71116100de5780639498bd71146103635780639b2cb5d814610376578063abcfd1541461037f578063b4cbc9e41461039257600080fd5b8063897b06371461031f5780638da5cb5b1461033257806392c65f4b1461034357600080fd5b80635ba581cd11610171578063715018a61161014b578063715018a6146102eb5780637da0a877146102f35780638456cb591461030457806387eb01bf1461030c57600080fd5b80635ba581cd146102a25780635c975abb146102b55780636a82763c146102c057600080fd5b80633f4ba83a116101ad5780633f4ba83a14610238578063486ff0cd146102405780634b51dd2214610267578063572b6c051461027057600080fd5b806316ef2c41146101d45780632a74cbb5146102105780632ce1757814610225575b600080fd5b6101fd6101e2366004611ccb565b6001600160a01b03166000908152609a602052604090205490565b6040519081526020015b60405180910390f35b61022361021e366004611ced565b61044f565b005b610223610233366004611d21565b610548565b610223610596565b60408051808201825260058152640322e322e360dc1b602082015290516102079190611d3a565b6101fd609b5481565b61029261027e366004611ccb565b6097546001600160a01b0391821691161490565b6040519015158152602001610207565b6102236102b0366004611d8f565b6105e9565b60655460ff16610292565b6098546102d3906001600160a01b031681565b6040516001600160a01b039091168152602001610207565b61022361070c565b6097546001600160a01b03166102d3565b61022361075f565b61022361031a366004611d21565b6107b0565b61022361032d366004611d21565b6108e5565b6033546001600160a01b03166102d3565b610356610351366004611d21565b610933565b6040516102079190611e3d565b610223610371366004611d21565b610abe565b6101fd609c5481565b61022361038d366004611d21565b610ba4565b6102236103a0366004611f91565b610d47565b6101fd6103b3366004611fc3565b610ee8565b6102236103c6366004611d21565b610f25565b6102236103d9366004612001565b61102b565b6102236103ec366004611ccb565b611090565b6102236103ff366004611ccb565b6110fb565b610223610412366004611ccb565b611165565b6101fd610425366004612068565b61121c565b609d5461043a9063ffffffff1681565b60405163ffffffff9091168152602001610207565b6098546001600160a01b031661046361172d565b6001600160a01b0316146104925760405162461bcd60e51b81526004016104899061212a565b60405180910390fd5b6000828152609960205260409020600d8101546104bf9063ffffffff80821691600160401b90041661215f565b81600d0160086101000a81548163ffffffff021916908363ffffffff16021790555060018160090160008282546104f69190612187565b909155505080546040516001600160a01b039091169084907f39e94fc57f494ff14c5e6240aaa121bb05346a3baf4434132df8f9075d5874919061053b90869061219f565b60405180910390a3505050565b61055061172d565b6001600160a01b031661056b6033546001600160a01b031690565b6001600160a01b0316146105915760405162461bcd60e51b8152600401610489906121b2565b609b55565b61059e61172d565b6001600160a01b03166105b96033546001600160a01b031690565b6001600160a01b0316146105df5760405162461bcd60e51b8152600401610489906121b2565b6105e761173c565b565b6098546001600160a01b03166105fd61172d565b6001600160a01b0316146106235760405162461bcd60e51b81526004016104899061212a565b6000828152609960205260409020600382600381111561064557610645611db8565b141561069e57600d8101805460ff60601b1916600160611b17905580546040516001600160a01b039091169084907f3d63c73b75a797c741bcfc0ae2644bc392388e97ea718a8731d44f47da2b23a490600090a3505050565b60018260038111156106b2576106b2611db8565b141561070757600d8101805460ff60601b1916600360601b17905580546040516001600160a01b039091169084907f5d3baeac0d91b82fe19cca4c28f0768ed59c65d7f64d48d53f166f9ec0f099c090600090a35b505050565b61071461172d565b6001600160a01b031661072f6033546001600160a01b031690565b6001600160a01b0316146107555760405162461bcd60e51b8152600401610489906121b2565b6105e760006117d5565b61076761172d565b6001600160a01b03166107826033546001600160a01b031690565b6001600160a01b0316146107a85760405162461bcd60e51b8152600401610489906121b2565b6105e7611827565b60008181526099602052604090205481906001600160a01b03166107d261172d565b6001600160a01b0316146107f85760405162461bcd60e51b81526004016104899061212a565b60008281526099602052604090206001600d820154600160601b900460ff16600481111561082857610828611db8565b148061085357506002600d820154600160601b900460ff16600481111561085157610851611db8565b145b6108925760405162461bcd60e51b815260206004820152601060248201526f21494e56414c4944287374617475732960801b6044820152606401610489565b600d8101805460ff60601b1916600360601b17905580546040516001600160a01b039091169084907f0d04c91a4cb25e87e66b2337207d34bd31384c15371c944d543b0d90c866e32c90600090a3505050565b6108ed61172d565b6001600160a01b03166109086033546001600160a01b031690565b6001600160a01b03161461092e5760405162461bcd60e51b8152600401610489906121b2565b609c55565b61093b611b65565b60008281526099602090815260409182902082516102408101845281546001600160a01b03908116825260018301548116938201939093526002820154831693810193909352600381015490911660608301526004808201546080840152600582015460a0840152600682015460c0840152600782015460e084015260088201546101008401526009820154610120840152600a820154610140840152600b820154610160840152600c820154610180840152600d82015463ffffffff8082166101a0860152640100000000820481166101c0860152600160401b8204166101e0850152610200840191600160601b90910460ff1690811115610a4057610a40611db8565b6004811115610a5157610a51611db8565b8152602001600e8201805480602002602001604051908101604052809291908181526020018280548015610aae57602002820191906000526020600020905b81546001600160a01b03168152600190910190602001808311610a90575b5050505050815250509050919050565b600054610100900460ff16610ad95760005460ff1615610add565b303b155b610b405760405162461bcd60e51b815260206004820152602e60248201527f496e697469616c697a61626c653a20636f6e747261637420697320616c72656160448201526d191e481a5b9a5d1a585b1a5e995960921b6064820152608401610489565b600054610100900460ff16158015610b62576000805461ffff19166101011790555b610b6a6118a3565b610b726118da565b609b8290556001609c55609d805463ffffffff1916620151801790558015610ba0576000805461ff00191690555b5050565b60008181526099602052604090205481906001600160a01b0316610bc661172d565b6001600160a01b031614610bec5760405162461bcd60e51b81526004016104899061212a565b60008281526099602052604090206002600d820154600160601b900460ff166004811115610c1c57610c1c611db8565b14610c575760405162461bcd60e51b815260206004820152600b60248201526a085393d517d4105554d15160aa1b6044820152606401610489565b600d8101805460ff60601b1916600160601b179081905563ffffffff428116600160401b909204161015610cab57600d810180546bffffffff00000000000000001916600160401b4263ffffffff16021790555b609854604051637d0c250f60e11b8152600481018590526001600160a01b039091169063fa184a1e90602401600060405180830381600087803b158015610cf157600080fd5b505af1158015610d05573d6000803e3d6000fd5b505082546040516001600160a01b0390911692508591507f0d04c91a4cb25e87e66b2337207d34bd31384c15371c944d543b0d90c866e32c90600090a3505050565b6098546001600160a01b0316610d5b61172d565b6001600160a01b031614610d815760405162461bcd60e51b81526004016104899061212a565b6000848152609960205260409020600d810154610dae9063ffffffff80821691600160401b90041661215f565b81600d0160086101000a81548163ffffffff021916908363ffffffff16021790555083816006016000828254610de49190612187565b9250508190555082816007016000828254610dff9190612187565b925050819055506001816008016000828254610e1b9190612187565b9091555050805460408051868152602081018690529081018490526001600160a01b039091169086907f2cd977fbc4930a01c7a1d2d4f59916c67f5e443ee1b3efc3cf295b30b95499289060600160405180910390a360008160050154118015610e8d57508060050154816006015410155b15610ee157600d8101805460ff60601b1916600160621b17905580546040516001600160a01b039091169086907fe91db046d37f56c01a0949ac11e488007e1e26ea683caaee32d54c4cea5d851b90600090a35b5050505050565b6001600160a01b0382166000908152609a60205260408120805483908110610f1257610f126121e7565b9060005260206000200154905092915050565b60008181526099602052604090205481906001600160a01b0316610f4761172d565b6001600160a01b031614610f6d5760405162461bcd60e51b81526004016104899061212a565b60008281526099602052604090206001600d820154600160601b900460ff166004811115610f9d57610f9d611db8565b14610fd85760405162461bcd60e51b815260206004820152600b60248201526a214e4f545f41435449564560a81b6044820152606401610489565b600d8101805460ff60601b1916600160611b17905580546040516001600160a01b039091169084907f3d63c73b75a797c741bcfc0ae2644bc392388e97ea718a8731d44f47da2b23a490600090a3505050565b61103361172d565b6001600160a01b031661104e6033546001600160a01b031690565b6001600160a01b0316146110745760405162461bcd60e51b8152600401610489906121b2565b609d805463ffffffff191663ffffffff92909216919091179055565b61109861172d565b6001600160a01b03166110b36033546001600160a01b031690565b6001600160a01b0316146110d95760405162461bcd60e51b8152600401610489906121b2565b609880546001600160a01b0319166001600160a01b0392909216919091179055565b61110361172d565b6001600160a01b031661111e6033546001600160a01b031690565b6001600160a01b0316146111445760405162461bcd60e51b8152600401610489906121b2565b609780546001600160a01b0319166001600160a01b03831617905550565b50565b61116d61172d565b6001600160a01b03166111886033546001600160a01b031690565b6001600160a01b0316146111ae5760405162461bcd60e51b8152600401610489906121b2565b6001600160a01b0381166112135760405162461bcd60e51b815260206004820152602660248201527f4f776e61626c653a206e6577206f776e657220697320746865207a65726f206160448201526564647265737360d01b6064820152608401610489565b611162816117d5565b6000609c548710156112635760405162461bcd60e51b815260206004820152601060248201526f21494e56414c494428616d6f756e742960801b6044820152606401610489565b609d5463ffffffff90811690861610156112b25760405162461bcd60e51b815260206004820152601060248201526f21494e56414c494428706572696f642960801b6044820152606401610489565b60048b10156112f95760405162461bcd60e51b815260206004820152601360248201527221494e56414c4944286173736574537065632960681b6044820152606401610489565b6113058c8c8c8c611911565b6113475760405162461bcd60e51b815260206004820152601360248201527221494e56414c4944286173736574537065632960681b6044820152606401610489565b600061135161172d565b8d8d8a89434260405160200161136d97969594939291906121fd565b60408051601f198184030181529181528151602092830120600081815260999093529120909150429061139e61172d565b81546001600160a01b03199081166001600160a01b03928316178355600183018054909116918d169190911790558e8e6000816113dd576113dd6121e7565b90506020020160208101906113f29190611ccb565b6002820180546001600160a01b0319166001600160a01b03929092169190911790558e8e6001818110611427576114276121e7565b905060200201602081019061143c9190611ccb565b8160030160006101000a8154816001600160a01b0302191690836001600160a01b031602179055508e8e60029080926114779392919061227b565b61148591600e840191611c37565b50600481018a905560058101899055600d81018054600c8301889055600b8301879055600a830189905563ffffffff8a811667ffffffffffffffff1990921691909117640100000000918516918202176cffffffffff00000000000000001916600160401b9190910260ff60601b191617600160601b179055609a600061150a61172d565b6001600160a01b0390811682526020808301939093526040918201600090812080546001810182559082529390209092018590556098549051637d0c250f60e11b81526004810186905291169063fa184a1e90602401600060405180830381600087803b15801561157a57600080fd5b505af115801561158e573d6000803e3d6000fd5b506001925061159b915050565b600d820154600160601b900460ff1660048111156115bb576115bb611db8565b146115f95760405162461bcd60e51b815260206004820152600e60248201526d21554e50524f4345535341424c4560901b6044820152606401610489565b806008015460011461163e5760405162461bcd60e51b815260206004820152600e60248201526d21554e50524f4345535341424c4560901b6044820152606401610489565b60018101548154600e830180546001600160a01b03938416939092169186917f9d1e5b985dd0611bc11e93d5075cdea08f64d1d51dd07489e6f288c20cd666909160009061168e5761168e6121e7565b600091825260209091200154600e860180546001600160a01b03909216916116b8906001906122a9565b815481106116c8576116c86121e7565b60009182526020918290200154604080516001600160a01b039485168152939091169183019190915281018f9052606081018e905263ffffffff8d16608082015260a00160405180910390a450909d9c50505050505050505050505050565b3b151590565b60006117376119de565b905090565b60655460ff166117855760405162461bcd60e51b815260206004820152601460248201527314185d5cd8589b194e881b9bdd081c185d5cd95960621b6044820152606401610489565b6065805460ff191690557f5db9ee0a495bf2e6ff9c91a7834c1ba4fdd244a5e8aa4e537bd38aeae4b073aa6117b861172d565b6040516001600160a01b03909116815260200160405180910390a1565b603380546001600160a01b038381166001600160a01b0319831681179093556040519116919082907f8be0079c531659141344cd1fd0a4f28419497f9722a3daafe3b4186f6b6457e090600090a35050565b60655460ff161561186d5760405162461bcd60e51b815260206004820152601060248201526f14185d5cd8589b194e881c185d5cd95960821b6044820152606401610489565b6065805460ff191660011790557f62e78cea01bee320cd4e420270b5ea74000d11b0c9f74754ebdbfc544b05a2586117b861172d565b600054610100900460ff166118ca5760405162461bcd60e51b8152600401610489906122c0565b6118d2611a12565b6105e7611a39565b600054610100900460ff166119015760405162461bcd60e51b8152600401610489906122c0565b611909611a12565b6105e7611a70565b60006119d58383808060200260200160405190810160405280939291908181526020018383602002808284376000920182905250609b5493508a92508991508161195d5761195d6121e7565b90506020020160208101906119729190611ccb565b88886001818110611985576119856121e7565b905060200201602081019061199a9190611ccb565b6119a7896002818d61227b565b6040516020016119ba949392919061230b565b60405160208183030381529060405280519060200120611aa3565b95945050505050565b6000601436108015906119fb57506097546001600160a01b031633145b15611a0d575060131936013560601c90565b503390565b600054610100900460ff166105e75760405162461bcd60e51b8152600401610489906122c0565b600054610100900460ff16611a605760405162461bcd60e51b8152600401610489906122c0565b6105e7611a6b61172d565b6117d5565b600054610100900460ff16611a975760405162461bcd60e51b8152600401610489906122c0565b6065805460ff19169055565b600082611ab08584611ab9565b14949350505050565b600081815b8451811015611b5d576000858281518110611adb57611adb6121e7565b60200260200101519050808311611b1d576040805160208101859052908101829052606001604051602081830303815290604052805190602001209250611b4a565b60408051602081018390529081018490526060016040516020818303038152906040528051906020012092505b5080611b5581612370565b915050611abe565b509392505050565b60405180610240016040528060006001600160a01b0316815260200160006001600160a01b0316815260200160006001600160a01b0316815260200160006001600160a01b03168152602001600081526020016000815260200160008152602001600081526020016000815260200160008152602001600081526020016000815260200160008152602001600063ffffffff168152602001600063ffffffff168152602001600063ffffffff16815260200160006004811115611c2a57611c2a611db8565b8152602001606081525090565b828054828255906000526020600020908101928215611c8a579160200282015b82811115611c8a5781546001600160a01b0319166001600160a01b03843516178255602090920191600190910190611c57565b50611c96929150611c9a565b5090565b5b80821115611c965760008155600101611c9b565b80356001600160a01b0381168114611cc657600080fd5b919050565b600060208284031215611cdd57600080fd5b611ce682611caf565b9392505050565b60008060408385031215611d0057600080fd5b82359150602083013560058110611d1657600080fd5b809150509250929050565b600060208284031215611d3357600080fd5b5035919050565b600060208083528351808285015260005b81811015611d6757858101830151858201604001528201611d4b565b81811115611d79576000604083870101525b50601f01601f1916929092016040019392505050565b60008060408385031215611da257600080fd5b82359150602083013560048110611d1657600080fd5b634e487b7160e01b600052602160045260246000fd5b6005811061116257634e487b7160e01b600052602160045260246000fd5b611df581611dce565b9052565b600081518084526020808501945080840160005b83811015611e325781516001600160a01b031687529582019590820190600101611e0d565b509495945050505050565b60208152611e576020820183516001600160a01b03169052565b60006020830151611e7360408401826001600160a01b03169052565b5060408301516001600160a01b03811660608401525060608301516001600160a01b038116608084015250608083015160a08381019190915283015160c08084019190915283015160e08084019190915283015161010080840191909152830151610120808401919091528301516101408084019190915283015161016080840191909152830151610180808401919091528301516101a0808401919091528301516101c0611f298185018363ffffffff169052565b84015190506101e0611f428482018363ffffffff169052565b8401519050610200611f5b8482018363ffffffff169052565b8401519050610220611f6f84820183611dec565b840151610240848101529050611f89610260840182611df9565b949350505050565b60008060008060808587031215611fa757600080fd5b5050823594602084013594506040840135936060013592509050565b60008060408385031215611fd657600080fd5b611fdf83611caf565b946020939093013593505050565b803563ffffffff81168114611cc657600080fd5b60006020828403121561201357600080fd5b611ce682611fed565b60008083601f84011261202e57600080fd5b50813567ffffffffffffffff81111561204657600080fd5b6020830191508360208260051b850101111561206157600080fd5b9250929050565b60008060008060008060008060008060006101208c8e03121561208a57600080fd5b67ffffffffffffffff808d3511156120a157600080fd5b6120ae8e8e358f0161201c565b909c509a5060208d01358110156120c457600080fd5b506120d58d60208e01358e0161201c565b90995097506120e660408d01611caf565b965060608c0135955060808c0135945061210260a08d01611fed565b935060c08c0135925060e08c013591506101008c013590509295989b509295989b9093969950565b60208082526005908201526404282aaa8960db1b604082015260600190565b634e487b7160e01b600052601160045260246000fd5b600063ffffffff80831681851680830382111561217e5761217e612149565b01949350505050565b6000821982111561219a5761219a612149565b500190565b602081016121ac83611dce565b91905290565b6020808252818101527f4f776e61626c653a2063616c6c6572206973206e6f7420746865206f776e6572604082015260600190565b634e487b7160e01b600052603260045260246000fd5b6bffffffffffffffffffffffff198860601b1681526000601482018860005b8981101561224b576001600160a01b0361223583611caf565b168352602092830192919091019060010161221c565b5050958652505060e09290921b6001600160e01b0319166020840152602483015260448201526064019392505050565b6000808585111561228b57600080fd5b8386111561229857600080fd5b5050600583901b0193919092039150565b6000828210156122bb576122bb612149565b500390565b6020808252602b908201527f496e697469616c697a61626c653a20636f6e7472616374206973206e6f74206960408201526a6e697469616c697a696e6760a81b606082015260800190565b6001600160a01b0385811682528481166020808401919091526060604084018190528301849052600091859160808501845b87811015612362578361234f86611caf565b168252938201939082019060010161233d565b509998505050505050505050565b600060001982141561238457612384612149565b506001019056fea2646970667358221220dcf80ab6770030f672bddc9e4b946fbe33051030873c9b1872294a7d138b2c7264736f6c63430008090033",
  "devdoc": {
    "kind": "dev",
    "methods": {
      "constructor": {
        "custom:oz-upgrades-unsafe-allow": "constructor"
      },
      "owner()": {
        "details": "Returns the address of the current owner."
      },
      "paused()": {
        "details": "Returns true if the contract is paused, and false otherwise."
      },
      "renounceOwnership()": {
        "details": "Leaves the contract without owner. It will not be possible to call `onlyOwner` functions anymore. Can only be called by the current owner. NOTE: Renouncing ownership will leave the contract without an owner, thereby removing any functionality that is only available to the owner."
      },
      "transferOwnership(address)": {
        "details": "Transfers ownership of the contract to a new account (`newOwner`). Can only be called by the current owner."
      }
    },
    "stateVariables": {
      "assetsMerkleRoot": {
        "details": "merkle root of approved assets. "
      },
      "dcaManager": {
        "details": "contract to manage DCA executions. "
      },
      "dcaMap": {
        "details": "map of DCA ID to DCA info. "
      },
      "minAmount": {
        "details": "minimum amount of vault base asset for a DCA. "
      },
      "minPeriod": {
        "details": "minimum period for a DCA. "
      }
    },
    "version": 1
  },
  "userdoc": {
    "kind": "user",
    "methods": {
      "isTrustedForwarder(address)": {
        "notice": "return if the forwarder is trusted to forward relayed transactions to us. the forwarder is required to verify the sender's signature, and verify the call is not a replay."
      }
    },
    "version": 1
  },
  "storageLayout": {
    "storage": [
      {
        "astId": 327,
        "contract": "contracts/dca/CaskDCA.sol:CaskDCA",
        "label": "_initialized",
        "offset": 0,
        "slot": "0",
        "type": "t_bool"
      },
      {
        "astId": 330,
        "contract": "contracts/dca/CaskDCA.sol:CaskDCA",
        "label": "_initializing",
        "offset": 1,
        "slot": "0",
        "type": "t_bool"
      },
      {
        "astId": 2551,
        "contract": "contracts/dca/CaskDCA.sol:CaskDCA",
        "label": "__gap",
        "offset": 0,
        "slot": "1",
        "type": "t_array(t_uint256)50_storage"
      },
      {
        "astId": 205,
        "contract": "contracts/dca/CaskDCA.sol:CaskDCA",
        "label": "_owner",
        "offset": 0,
        "slot": "51",
        "type": "t_address"
      },
      {
        "astId": 319,
        "contract": "contracts/dca/CaskDCA.sol:CaskDCA",
        "label": "__gap",
        "offset": 0,
        "slot": "52",
        "type": "t_array(t_uint256)49_storage"
      },
      {
        "astId": 415,
        "contract": "contracts/dca/CaskDCA.sol:CaskDCA",
        "label": "_paused",
        "offset": 0,
        "slot": "101",
        "type": "t_bool"
      },
      {
        "astId": 506,
        "contract": "contracts/dca/CaskDCA.sol:CaskDCA",
        "label": "__gap",
        "offset": 0,
        "slot": "102",
        "type": "t_array(t_uint256)49_storage"
      },
      {
        "astId": 72,
        "contract": "contracts/dca/CaskDCA.sol:CaskDCA",
        "label": "_trustedForwarder",
        "offset": 0,
        "slot": "151",
        "type": "t_address"
      },
      {
        "astId": 10092,
        "contract": "contracts/dca/CaskDCA.sol:CaskDCA",
        "label": "dcaManager",
        "offset": 0,
        "slot": "152",
        "type": "t_contract(ICaskDCAManager)12337"
      },
      {
        "astId": 10098,
        "contract": "contracts/dca/CaskDCA.sol:CaskDCA",
        "label": "dcaMap",
        "offset": 0,
        "slot": "153",
        "type": "t_mapping(t_bytes32,t_struct(DCA)12161_storage)"
      },
      {
        "astId": 10103,
        "contract": "contracts/dca/CaskDCA.sol:CaskDCA",
        "label": "userDCAs",
        "offset": 0,
        "slot": "154",
        "type": "t_mapping(t_address,t_array(t_bytes32)dyn_storage)"
      },
      {
        "astId": 10106,
        "contract": "contracts/dca/CaskDCA.sol:CaskDCA",
        "label": "assetsMerkleRoot",
        "offset": 0,
        "slot": "155",
        "type": "t_bytes32"
      },
      {
        "astId": 10109,
        "contract": "contracts/dca/CaskDCA.sol:CaskDCA",
        "label": "minAmount",
        "offset": 0,
        "slot": "156",
        "type": "t_uint256"
      },
      {
        "astId": 10112,
        "contract": "contracts/dca/CaskDCA.sol:CaskDCA",
        "label": "minPeriod",
        "offset": 0,
        "slot": "157",
        "type": "t_uint32"
      }
    ],
    "types": {
      "t_address": {
        "encoding": "inplace",
        "label": "address",
        "numberOfBytes": "20"
      },
      "t_array(t_address)dyn_storage": {
        "base": "t_address",
        "encoding": "dynamic_array",
        "label": "address[]",
        "numberOfBytes": "32"
      },
      "t_array(t_bytes32)dyn_storage": {
        "base": "t_bytes32",
        "encoding": "dynamic_array",
        "label": "bytes32[]",
        "numberOfBytes": "32"
      },
      "t_array(t_uint256)49_storage": {
        "base": "t_uint256",
        "encoding": "inplace",
        "label": "uint256[49]",
        "numberOfBytes": "1568"
      },
      "t_array(t_uint256)50_storage": {
        "base": "t_uint256",
        "encoding": "inplace",
        "label": "uint256[50]",
        "numberOfBytes": "1600"
      },
      "t_bool": {
        "encoding": "inplace",
        "label": "bool",
        "numberOfBytes": "1"
      },
      "t_bytes32": {
        "encoding": "inplace",
        "label": "bytes32",
        "numberOfBytes": "32"
      },
      "t_contract(ICaskDCAManager)12337": {
        "encoding": "inplace",
        "label": "contract ICaskDCAManager",
        "numberOfBytes": "20"
      },
      "t_enum(DCAStatus)12111": {
        "encoding": "inplace",
        "label": "enum ICaskDCA.DCAStatus",
        "numberOfBytes": "1"
      },
      "t_mapping(t_address,t_array(t_bytes32)dyn_storage)": {
        "encoding": "mapping",
        "key": "t_address",
        "label": "mapping(address => bytes32[])",
        "numberOfBytes": "32",
        "value": "t_array(t_bytes32)dyn_storage"
      },
      "t_mapping(t_bytes32,t_struct(DCA)12161_storage)": {
        "encoding": "mapping",
        "key": "t_bytes32",
        "label": "mapping(bytes32 => struct ICaskDCA.DCA)",
        "numberOfBytes": "32",
        "value": "t_struct(DCA)12161_storage"
      },
      "t_struct(DCA)12161_storage": {
        "encoding": "inplace",
        "label": "struct ICaskDCA.DCA",
        "members": [
          {
            "astId": 12124,
            "contract": "contracts/dca/CaskDCA.sol:CaskDCA",
            "label": "user",
            "offset": 0,
            "slot": "0",
            "type": "t_address"
          },
          {
            "astId": 12126,
            "contract": "contracts/dca/CaskDCA.sol:CaskDCA",
            "label": "to",
            "offset": 0,
            "slot": "1",
            "type": "t_address"
          },
          {
            "astId": 12128,
            "contract": "contracts/dca/CaskDCA.sol:CaskDCA",
            "label": "router",
            "offset": 0,
            "slot": "2",
            "type": "t_address"
          },
          {
            "astId": 12130,
            "contract": "contracts/dca/CaskDCA.sol:CaskDCA",
            "label": "priceFeed",
            "offset": 0,
            "slot": "3",
            "type": "t_address"
          },
          {
            "astId": 12132,
            "contract": "contracts/dca/CaskDCA.sol:CaskDCA",
            "label": "amount",
            "offset": 0,
            "slot": "4",
            "type": "t_uint256"
          },
          {
            "astId": 12134,
            "contract": "contracts/dca/CaskDCA.sol:CaskDCA",
            "label": "totalAmount",
            "offset": 0,
            "slot": "5",
            "type": "t_uint256"
          },
          {
            "astId": 12136,
            "contract": "contracts/dca/CaskDCA.sol:CaskDCA",
            "label": "currentAmount",
            "offset": 0,
            "slot": "6",
            "type": "t_uint256"
          },
          {
            "astId": 12138,
            "contract": "contracts/dca/CaskDCA.sol:CaskDCA",
            "label": "currentQty",
            "offset": 0,
            "slot": "7",
            "type": "t_uint256"
          },
          {
            "astId": 12140,
            "contract": "contracts/dca/CaskDCA.sol:CaskDCA",
            "label": "numBuys",
            "offset": 0,
            "slot": "8",
            "type": "t_uint256"
          },
          {
            "astId": 12142,
            "contract": "contracts/dca/CaskDCA.sol:CaskDCA",
            "label": "numSkips",
            "offset": 0,
            "slot": "9",
            "type": "t_uint256"
          },
          {
            "astId": 12144,
            "contract": "contracts/dca/CaskDCA.sol:CaskDCA",
            "label": "slippageBps",
            "offset": 0,
            "slot": "10",
            "type": "t_uint256"
          },
          {
            "astId": 12146,
            "contract": "contracts/dca/CaskDCA.sol:CaskDCA",
            "label": "maxPrice",
            "offset": 0,
            "slot": "11",
            "type": "t_uint256"
          },
          {
            "astId": 12148,
            "contract": "contracts/dca/CaskDCA.sol:CaskDCA",
            "label": "minPrice",
            "offset": 0,
            "slot": "12",
            "type": "t_uint256"
          },
          {
            "astId": 12150,
            "contract": "contracts/dca/CaskDCA.sol:CaskDCA",
            "label": "period",
            "offset": 0,
            "slot": "13",
            "type": "t_uint32"
          },
          {
            "astId": 12152,
            "contract": "contracts/dca/CaskDCA.sol:CaskDCA",
            "label": "createdAt",
            "offset": 4,
            "slot": "13",
            "type": "t_uint32"
          },
          {
            "astId": 12154,
            "contract": "contracts/dca/CaskDCA.sol:CaskDCA",
            "label": "processAt",
            "offset": 8,
            "slot": "13",
            "type": "t_uint32"
          },
          {
            "astId": 12157,
            "contract": "contracts/dca/CaskDCA.sol:CaskDCA",
            "label": "status",
            "offset": 12,
            "slot": "13",
            "type": "t_enum(DCAStatus)12111"
          },
          {
            "astId": 12160,
            "contract": "contracts/dca/CaskDCA.sol:CaskDCA",
            "label": "path",
            "offset": 0,
            "slot": "14",
            "type": "t_array(t_address)dyn_storage"
          }
        ],
        "numberOfBytes": "480"
      },
      "t_uint256": {
        "encoding": "inplace",
        "label": "uint256",
        "numberOfBytes": "32"
      },
      "t_uint32": {
        "encoding": "inplace",
        "label": "uint32",
        "numberOfBytes": "4"
      }
    }
  }
}