{
  "address": "0x67C433EC0d9efB3E7E12129056a3168017e3A00B",
  "abi": [
    {
      "inputs": [],
      "stateMutability": "nonpayable",
      "type": "constructor"
    },
    {
      "anonymous": false,
      "inputs": [
        {
          "indexed": true,
          "internalType": "address",
          "name": "previousOwner",
          "type": "address"
        },
        {
          "indexed": true,
          "internalType": "address",
          "name": "newOwner",
          "type": "address"
        }
      ],
      "name": "OwnershipTransferred",
      "type": "event"
    },
    {
      "anonymous": false,
      "inputs": [
        {
          "indexed": false,
          "internalType": "address",
          "name": "account",
          "type": "address"
        }
      ],
      "name": "Paused",
      "type": "event"
    },
    {
      "anonymous": false,
      "inputs": [
        {
          "indexed": false,
          "internalType": "uint256",
          "name": "limit",
          "type": "uint256"
        },
        {
          "indexed": false,
          "internalType": "uint256",
          "name": "jobsProcessed",
          "type": "uint256"
        },
        {
          "indexed": false,
          "internalType": "uint256",
          "name": "depth",
          "type": "uint256"
        },
        {
          "indexed": false,
          "internalType": "uint8",
          "name": "queueId",
          "type": "uint8"
        },
        {
          "indexed": false,
          "internalType": "uint256",
          "name": "queueRemaining",
          "type": "uint256"
        },
        {
          "indexed": false,
          "internalType": "uint32",
          "name": "currentBucket",
          "type": "uint32"
        }
      ],
      "name": "QueueRunReport",
      "type": "event"
    },
    {
      "anonymous": false,
      "inputs": [
        {
          "indexed": false,
          "internalType": "address",
          "name": "registry",
          "type": "address"
        }
      ],
      "name": "RegistryAllowed",
      "type": "event"
    },
    {
      "anonymous": false,
      "inputs": [
        {
          "indexed": false,
          "internalType": "address",
          "name": "registry",
          "type": "address"
        }
      ],
      "name": "RegistryDisallowed",
      "type": "event"
    },
    {
      "anonymous": false,
      "inputs": [
        {
          "indexed": false,
          "internalType": "address",
          "name": "feeDistributor",
          "type": "address"
        }
      ],
      "name": "SetFeeDistributor",
      "type": "event"
    },
    {
      "anonymous": false,
      "inputs": [
        {
          "indexed": false,
          "internalType": "address",
          "name": "account",
          "type": "address"
        }
      ],
      "name": "Unpaused",
      "type": "event"
    },
    {
      "anonymous": false,
      "inputs": [
        {
          "indexed": false,
          "internalType": "uint8",
          "name": "queueId",
          "type": "uint8"
        },
        {
          "indexed": false,
          "internalType": "bytes32",
          "name": "workUnit",
          "type": "bytes32"
        }
      ],
      "name": "WorkUnitProcessed",
      "type": "event"
    },
    {
      "anonymous": false,
      "inputs": [
        {
          "indexed": false,
          "internalType": "uint8",
          "name": "queueId",
          "type": "uint8"
        },
        {
          "indexed": false,
          "internalType": "bytes32",
          "name": "workUnit",
          "type": "bytes32"
        },
        {
          "indexed": false,
          "internalType": "uint32",
          "name": "processAt",
          "type": "uint32"
        }
      ],
      "name": "WorkUnitQueued",
      "type": "event"
    },
    {
      "inputs": [
        {
          "internalType": "address",
          "name": "_registry",
          "type": "address"
        }
      ],
      "name": "allowRegistry",
      "outputs": [],
      "stateMutability": "nonpayable",
      "type": "function"
    },
    {
      "inputs": [
        {
          "internalType": "address",
          "name": "",
          "type": "address"
        }
      ],
      "name": "allowedRegistries",
      "outputs": [
        {
          "internalType": "bool",
          "name": "",
          "type": "bool"
        }
      ],
      "stateMutability": "view",
      "type": "function"
    },
    {
      "inputs": [],
      "name": "caskChainlinkTopup",
      "outputs": [
        {
          "internalType": "contract ICaskChainlinkTopup",
          "name": "",
          "type": "address"
        }
      ],
      "stateMutability": "view",
      "type": "function"
    },
    {
      "inputs": [],
      "name": "caskVault",
      "outputs": [
        {
          "internalType": "contract ICaskVault",
          "name": "",
          "type": "address"
        }
      ],
      "stateMutability": "view",
      "type": "function"
    },
    {
      "inputs": [
        {
          "internalType": "bytes",
          "name": "checkData",
          "type": "bytes"
        }
      ],
      "name": "checkUpkeep",
      "outputs": [
        {
          "internalType": "bool",
          "name": "upkeepNeeded",
          "type": "bool"
        },
        {
          "internalType": "bytes",
          "name": "performData",
          "type": "bytes"
        }
      ],
      "stateMutability": "view",
      "type": "function"
    },
    {
      "inputs": [
        {
          "internalType": "address",
          "name": "_registry",
          "type": "address"
        }
      ],
      "name": "disallowRegistry",
      "outputs": [],
      "stateMutability": "nonpayable",
      "type": "function"
    },
    {
      "inputs": [],
      "name": "feeDistributor",
      "outputs": [
        {
          "internalType": "address",
          "name": "",
          "type": "address"
        }
      ],
      "stateMutability": "view",
      "type": "function"
    },
    {
      "inputs": [
        {
          "internalType": "address",
          "name": "_caskChainlinkTopup",
          "type": "address"
        },
        {
          "internalType": "address",
          "name": "_caskVault",
          "type": "address"
        },
        {
          "internalType": "address",
          "name": "_linkBridgeToken",
          "type": "address"
        },
        {
          "internalType": "address",
          "name": "_linkFundingToken",
          "type": "address"
        },
        {
          "internalType": "address",
          "name": "_linkPriceFeed",
          "type": "address"
        },
        {
          "internalType": "address",
          "name": "_linkSwapRouter",
          "type": "address"
        },
        {
          "internalType": "address[]",
          "name": "_linkSwapPath",
          "type": "address[]"
        },
        {
          "internalType": "address",
          "name": "_pegswap",
          "type": "address"
        },
        {
          "internalType": "address",
          "name": "_feeDistributor",
          "type": "address"
        }
      ],
      "name": "initialize",
      "outputs": [],
      "stateMutability": "nonpayable",
      "type": "function"
    },
    {
      "inputs": [],
      "name": "linkBridgeToken",
      "outputs": [
        {
          "internalType": "contract IERC20Metadata",
          "name": "",
          "type": "address"
        }
      ],
      "stateMutability": "view",
      "type": "function"
    },
    {
      "inputs": [],
      "name": "linkFundingToken",
      "outputs": [
        {
          "internalType": "contract LinkTokenInterface",
          "name": "",
          "type": "address"
        }
      ],
      "stateMutability": "view",
      "type": "function"
    },
    {
      "inputs": [],
      "name": "linkPriceFeed",
      "outputs": [
        {
          "internalType": "contract AggregatorV3Interface",
          "name": "",
          "type": "address"
        }
      ],
      "stateMutability": "view",
      "type": "function"
    },
    {
      "inputs": [
        {
          "internalType": "uint256",
          "name": "",
          "type": "uint256"
        }
      ],
      "name": "linkSwapPath",
      "outputs": [
        {
          "internalType": "address",
          "name": "",
          "type": "address"
        }
      ],
      "stateMutability": "view",
      "type": "function"
    },
    {
      "inputs": [],
      "name": "linkSwapRouter",
      "outputs": [
        {
          "internalType": "contract IUniswapV2Router02",
          "name": "",
          "type": "address"
        }
      ],
      "stateMutability": "view",
      "type": "function"
    },
    {
      "inputs": [],
      "name": "maxPriceFeedAge",
      "outputs": [
        {
          "internalType": "uint256",
          "name": "",
          "type": "uint256"
        }
      ],
      "stateMutability": "view",
      "type": "function"
    },
    {
      "inputs": [],
      "name": "maxQueueAge",
      "outputs": [
        {
          "internalType": "uint32",
          "name": "",
          "type": "uint32"
        }
      ],
      "stateMutability": "view",
      "type": "function"
    },
    {
      "inputs": [],
      "name": "maxSkips",
      "outputs": [
        {
          "internalType": "uint256",
          "name": "",
          "type": "uint256"
        }
      ],
      "stateMutability": "view",
      "type": "function"
    },
    {
      "inputs": [],
      "name": "maxSwapSlippageBps",
      "outputs": [
        {
          "internalType": "uint256",
          "name": "",
          "type": "uint256"
        }
      ],
      "stateMutability": "view",
      "type": "function"
    },
    {
      "inputs": [],
      "name": "maxTopupsPerGroupRun",
      "outputs": [
        {
          "internalType": "uint256",
          "name": "",
          "type": "uint256"
        }
      ],
      "stateMutability": "view",
      "type": "function"
    },
    {
      "inputs": [],
      "name": "owner",
      "outputs": [
        {
          "internalType": "address",
          "name": "",
          "type": "address"
        }
      ],
      "stateMutability": "view",
      "type": "function"
    },
    {
      "inputs": [],
      "name": "paused",
      "outputs": [
        {
          "internalType": "bool",
          "name": "",
          "type": "bool"
        }
      ],
      "stateMutability": "view",
      "type": "function"
    },
    {
      "inputs": [],
      "name": "pegswap",
      "outputs": [
        {
          "internalType": "contract IPegSwap",
          "name": "",
          "type": "address"
        }
      ],
      "stateMutability": "view",
      "type": "function"
    },
    {
      "inputs": [
        {
          "internalType": "bytes",
          "name": "performData",
          "type": "bytes"
        }
      ],
      "name": "performUpkeep",
      "outputs": [],
      "stateMutability": "nonpayable",
      "type": "function"
    },
    {
      "inputs": [],
      "name": "queueBucketSize",
      "outputs": [
        {
          "internalType": "uint32",
          "name": "",
          "type": "uint32"
        }
      ],
      "stateMutability": "view",
      "type": "function"
    },
    {
      "inputs": [
        {
          "internalType": "uint8",
          "name": "_queueId",
          "type": "uint8"
        },
        {
          "internalType": "uint32",
          "name": "_bucket",
          "type": "uint32"
        },
        {
          "internalType": "uint256",
          "name": "_idx",
          "type": "uint256"
        }
      ],
      "name": "queueItem",
      "outputs": [
        {
          "internalType": "bytes32",
          "name": "",
          "type": "bytes32"
        }
      ],
      "stateMutability": "view",
      "type": "function"
    },
    {
      "inputs": [
        {
          "internalType": "uint8",
          "name": "_queueId",
          "type": "uint8"
        }
      ],
      "name": "queuePosition",
      "outputs": [
        {
          "internalType": "uint32",
          "name": "",
          "type": "uint32"
        }
      ],
      "stateMutability": "view",
      "type": "function"
    },
    {
      "inputs": [
        {
          "internalType": "uint8",
          "name": "_queueId",
          "type": "uint8"
        },
        {
          "internalType": "uint32",
          "name": "_bucket",
          "type": "uint32"
        }
      ],
      "name": "queueSize",
      "outputs": [
        {
          "internalType": "uint256",
          "name": "",
          "type": "uint256"
        }
      ],
      "stateMutability": "view",
      "type": "function"
    },
    {
      "inputs": [
        {
          "internalType": "address",
          "name": "_asset",
          "type": "address"
        },
        {
          "internalType": "address",
          "name": "_dest",
          "type": "address"
        }
      ],
      "name": "recoverFunds",
      "outputs": [],
      "stateMutability": "nonpayable",
      "type": "function"
    },
    {
      "inputs": [
        {
          "internalType": "uint256",
          "name": "_chainlinkTopupGroupId",
          "type": "uint256"
        }
      ],
      "name": "registerChainlinkTopupGroup",
      "outputs": [],
      "stateMutability": "nonpayable",
      "type": "function"
    },
    {
      "inputs": [
        {
          "internalType": "address",
          "name": "_registry",
          "type": "address"
        }
      ],
      "name": "registryAllowed",
      "outputs": [
        {
          "internalType": "bool",
          "name": "",
          "type": "bool"
        }
      ],
      "stateMutability": "view",
      "type": "function"
    },
    {
      "inputs": [],
      "name": "renounceOwnership",
      "outputs": [],
      "stateMutability": "nonpayable",
      "type": "function"
    },
    {
      "inputs": [
        {
          "internalType": "address",
          "name": "_linkBridgeToken",
          "type": "address"
        },
        {
          "internalType": "address",
          "name": "_linkFundingToken",
          "type": "address"
        },
        {
          "internalType": "address",
          "name": "_linkPriceFeed",
          "type": "address"
        },
        {
          "internalType": "address",
          "name": "_linkSwapRouter",
          "type": "address"
        },
        {
          "internalType": "address[]",
          "name": "_linkSwapPath",
          "type": "address[]"
        },
        {
          "internalType": "address",
          "name": "_pegswap",
          "type": "address"
        }
      ],
      "name": "setChainklinkAddresses",
      "outputs": [],
      "stateMutability": "nonpayable",
      "type": "function"
    },
    {
      "inputs": [
        {
          "internalType": "address",
          "name": "_feeDistributor",
          "type": "address"
        }
      ],
      "name": "setFeeDistributor",
      "outputs": [],
      "stateMutability": "nonpayable",
      "type": "function"
    },
    {
      "inputs": [
        {
          "internalType": "uint32",
          "name": "_maxQueueAge",
          "type": "uint32"
        }
      ],
      "name": "setMaxQueueAge",
      "outputs": [],
      "stateMutability": "nonpayable",
      "type": "function"
    },
    {
      "inputs": [
        {
          "internalType": "uint256",
          "name": "_maxSkips",
          "type": "uint256"
        },
        {
          "internalType": "uint256",
          "name": "_topupFeeBps",
          "type": "uint256"
        },
        {
          "internalType": "uint256",
          "name": "_topupFeeMin",
          "type": "uint256"
        },
        {
          "internalType": "uint256",
          "name": "_maxPriceFeedAge",
          "type": "uint256"
        },
        {
          "internalType": "uint256",
          "name": "_maxTopupsPerGroupRun",
          "type": "uint256"
        },
        {
          "internalType": "uint256",
          "name": "_maxSwapSlippageBps",
          "type": "uint256"
        },
        {
          "internalType": "uint32",
          "name": "_queueBucketSize",
          "type": "uint32"
        },
        {
          "internalType": "uint32",
          "name": "_maxQueueAge",
          "type": "uint32"
        }
      ],
      "name": "setParameters",
      "outputs": [],
      "stateMutability": "nonpayable",
      "type": "function"
    },
    {
      "inputs": [
        {
          "internalType": "uint32",
          "name": "_queueBucketSize",
          "type": "uint32"
        }
      ],
      "name": "setQueueBucketSize",
      "outputs": [],
      "stateMutability": "nonpayable",
      "type": "function"
    },
    {
      "inputs": [
        {
          "internalType": "uint8",
          "name": "_queueId",
          "type": "uint8"
        },
        {
          "internalType": "uint32",
          "name": "_timestamp",
          "type": "uint32"
        }
      ],
      "name": "setQueuePosition",
      "outputs": [],
      "stateMutability": "nonpayable",
      "type": "function"
    },
    {
      "inputs": [],
      "name": "topupFeeBps",
      "outputs": [
        {
          "internalType": "uint256",
          "name": "",
          "type": "uint256"
        }
      ],
      "stateMutability": "view",
      "type": "function"
    },
    {
      "inputs": [],
      "name": "topupFeeMin",
      "outputs": [
        {
          "internalType": "uint256",
          "name": "",
          "type": "uint256"
        }
      ],
      "stateMutability": "view",
      "type": "function"
    },
    {
      "inputs": [
        {
          "internalType": "address",
          "name": "newOwner",
          "type": "address"
        }
      ],
      "name": "transferOwnership",
      "outputs": [],
      "stateMutability": "nonpayable",
      "type": "function"
    }
  ],
  "transactionHash": "0xe76cca77f3792d0a689086580b44629659b5f8f8ffb6a19f869fb3c55f0b91b8",
  "args": [],
  "numDeployments": 1,
  "solcInputHash": "67e5be4aafc67334b6b370dd54c832fb",
  "bytecode": "0x60806040523480156200001157600080fd5b50600054610100900460ff166200002f5760005460ff161562000039565b62000039620000de565b620000a15760405162461bcd60e51b815260206004820152602e60248201527f496e697469616c697a61626c653a20636f6e747261637420697320616c72656160448201526d191e481a5b9a5d1a585b1a5e995960921b606482015260840160405180910390fd5b600054610100900460ff16158015620000c4576000805461ffff19166101011790555b8015620000d7576000805461ff00191690555b5062000102565b6000620000f630620000fc60201b620013081760201c565b15905090565b3b151590565b61466980620001126000396000f3fe608060405234801561001057600080fd5b506004361061023c5760003560e01c806384b4609f1161013b578063ccfc2e8d116100b8578063f0f4feb81161007c578063f0f4feb814610521578063f2fde38b14610534578063faec9c2214610547578063fce024001461055a578063ff7137fd1461056d57600080fd5b8063ccfc2e8d146104a9578063cd48a614146104bc578063d5f59fb9146104cf578063dfd609bb146104fb578063f009451e1461050e57600080fd5b8063b7c3565d116100ff578063b7c3565d14610463578063b95f16241461046c578063c29c0e9c1461047f578063c506465314610488578063c6f8806c1461049157600080fd5b806384b4609f146104095780638bddd2e41461041c5780638da5cb5b1461042c578063a47755d11461043d578063aa878f761461045057600080fd5b806324ae6a27116101c95780635bd482fd1161018d5780635bd482fd1461038f5780635c975abb146103c25780636e04ff0d146103cd578063715018a6146103ee578063729d8107146103f657600080fd5b806324ae6a271461033a5780632f77bb661461034d5780633283b068146103565780634585e33b146103695780635098c41e1461037c57600080fd5b80630caae41d116102105780630caae41d146102b05780630d43e8ad146102c357806314fad707146102d6578063191888f6146102e95780631c39033c146102fc57600080fd5b8062912b371461024157806305f2becf1461027157806306cd9e18146102845780630816c84714610299575b600080fd5b60d154610254906001600160a01b031681565b6040516001600160a01b0390911681526020015b60405180910390f35b60cd54610254906001600160a01b031681565b6102976102923660046136ef565b610576565b005b6102a260d85481565b604051908152602001610268565b6102976102be36600461372d565b610601565b60db54610254906001600160a01b031681565b6102a26102e4366004613766565b610663565b60cf54610254906001600160a01b031681565b61032561030a3660046137a7565b60ff16600090815260cb602052604090205463ffffffff1690565b60405163ffffffff9091168152602001610268565b6102976103483660046137c4565b6106ad565b6102a260d95481565b6102976103643660046137f2565b6107db565b61029761037736600461380b565b61088c565b61029761038a3660046138c7565b610c2c565b6103b261039d3660046136ef565b60cc6020526000908152604090205460ff1681565b6040519015158152602001610268565b60655460ff166103b2565b6103e06103db36600461380b565b610cd5565b6040516102689291906139c0565b610297610e54565b6102976104043660046139db565b610e8a565b6102976104173660046136ef565b610edc565b60c9546103259063ffffffff1681565b6033546001600160a01b0316610254565b60ce54610254906001600160a01b031681565b6102a261045e36600461372d565b610f5a565b6102a260da5481565b61025461047a3660046137f2565b610f85565b6102a260d65481565b6102a260d55481565b60c95461032590640100000000900463ffffffff1681565b6102976104b73660046136ef565b610faf565b6102976104ca3660046139db565b611027565b6103b26104dd3660046136ef565b6001600160a01b0316600090815260cc602052604090205460ff1690565b6102976105093660046139f8565b61106d565b60d454610254906001600160a01b031681565b61029761052f366004613a6b565b6110e2565b6102976105423660046136ef565b61126d565b60d354610254906001600160a01b031681565b60d054610254906001600160a01b031681565b6102a260d75481565b6033546001600160a01b031633146105a95760405162461bcd60e51b81526004016105a090613b45565b60405180910390fd5b6001600160a01b038116600081815260cc6020908152604091829020805460ff1916905590519182527f41ff3cbb6d9f3c743a5fd7b126595848bf20fe04ced3af1bcfc8313f20f925c391015b60405180910390a150565b6033546001600160a01b0316331461062b5760405162461bcd60e51b81526004016105a090613b45565b6106348161130e565b60ff92909216600090815260cb60205260409020805463ffffffff191663ffffffff9093169290921790915550565b60ff8316600090815260ca6020908152604080832063ffffffff86168452909152812080548390811061069857610698613b7a565b906000526020600020015490505b9392505050565b6033546001600160a01b031633146106d75760405162461bcd60e51b81526004016105a090613b45565b6040516370a0823160e01b81523060048201526001600160a01b0383169063a9059cbb90839083906370a082319060240160206040518083038186803b15801561072057600080fd5b505afa158015610734573d6000803e3d6000fd5b505050506040513d601f19601f820116820180604052508101906107589190613b90565b6040516001600160e01b031960e085901b1681526001600160a01b0390921660048301526024820152604401602060405180830381600087803b15801561079e57600080fd5b505af11580156107b2573d6000803e3d6000fd5b505050506040513d601f19601f820116820180604052508101906107d69190613bbe565b505050565b6002609754141561082e5760405162461bcd60e51b815260206004820152601f60248201527f5265656e7472616e637947756172643a207265656e7472616e742063616c6c0060448201526064016105a0565b600260975560655460ff16156108795760405162461bcd60e51b815260206004820152601060248201526f14185d5cd8589b194e881c185d5cd95960821b60448201526064016105a0565b610884600182611338565b506001609755565b60655460ff16156108d25760405162461bcd60e51b815260206004820152601060248201526f14185d5cd8589b194e881c185d5cd95960821b60448201526064016105a0565b600260975414156109255760405162461bcd60e51b815260206004820152601f60248201527f5265656e7472616e637947756172643a207265656e7472616e742063616c6c0060448201526064016105a0565b60026097556000808061093a84860186613bd9565b925092509250600061094a611543565b905060008061095a866005613c28565b60ff8516600090815260cb602052604090205490915063ffffffff166109a05760ff8416600090815260cb60205260409020805463ffffffff191663ffffffff85161790555b85821080156109af5750600081115b80156109d6575060ff8416600090815260cb602052604090205463ffffffff808516911611155b15610b955760ff8416600090815260ca6020908152604080832060cb83528184205463ffffffff1684529091529020548015610b055760ff8516600090815260ca6020908152604080832060cb83528184205463ffffffff1684529091528120610a41600184613c47565b81548110610a5157610a51613b7a565b600091825260208083209091015460ff8916835260ca8252604080842060cb84528185205463ffffffff168552909252912080549192509080610a9657610a96613c5e565b60019003818190600052602060002001600090559055610ab68682611338565b6040805160ff88168152602081018390527f58c7ae721fd25aaf84e68db9ce9ac6fed4f08438a370a4299d19f8c1425c499e910160405180910390a1610afd600185613c74565b935050610b8f565b60ff8516600090815260cb602052604090205463ffffffff80861691161015610b895760c95460ff8616600090815260cb60205260408120805463ffffffff93841693919291610b5791859116613c8c565b92506101000a81548163ffffffff021916908363ffffffff160217905550600182610b829190613c47565b9150610b8f565b50610b95565b506109a0565b60ff8416600081815260ca6020908152604080832060cb8084528285205463ffffffff168086529184528285205494869052835281518b81529283018790528282018a90526060830194909452608082019290925260a0810192909252517fd69140f88b9a25350749bb371882f4479133fc8b65602aac60f6c1b3598f08329181900360c00190a150506001609755505050505050565b6033546001600160a01b03163314610c565760405162461bcd60e51b81526004016105a090613b45565b60cf80546001600160a01b03808a166001600160a01b03199283161790925560d0805489841690831617905560d1805488841690831617905560d3805492871692909116919091179055610cac60d28484613662565b5060d480546001600160a01b0319166001600160a01b0392909216919091179055505050505050565b60006060818080610ce886880188613bd9565b9250925092506000610cf8611543565b60ff8316600090815260cb602052604081205490975090915063ffffffff1680610d1f5750805b8063ffffffff168263ffffffff1610158015610d5a575060c954640100000000900463ffffffff16610d518284613cb4565b63ffffffff1610155b15610d685760019650610df8565b8163ffffffff168163ffffffff1611610df85760ff8316600090815260ca6020908152604080832063ffffffff8516845290915290205415801590610dd0575060ff8316600090815260ca6020908152604080832063ffffffff851684529091529020548411155b15610dde5760019650610df8565b60c954610df19063ffffffff1682613c8c565b9050610d68565b60ff8316600081815260ca6020908152604080832063ffffffff86168452825291829020548251918201899052918101919091526060810191909152608001604051602081830303815290604052955050505050509250929050565b6033546001600160a01b03163314610e7e5760405162461bcd60e51b81526004016105a090613b45565b610e88600061156b565b565b6033546001600160a01b03163314610eb45760405162461bcd60e51b81526004016105a090613b45565b60c9805463ffffffff9092166401000000000267ffffffff0000000019909216919091179055565b6033546001600160a01b03163314610f065760405162461bcd60e51b81526004016105a090613b45565b6001600160a01b038116600081815260cc6020908152604091829020805460ff1916600117905590519182527faa9fd3a8c3d93ebd697846ec56ec5fa196deef170601239a813cae8d80dfcddb91016105f6565b60ff8216600090815260ca6020908152604080832063ffffffff851684529091529020545b92915050565b60d28181548110610f9557600080fd5b6000918252602090912001546001600160a01b0316905081565b6033546001600160a01b03163314610fd95760405162461bcd60e51b81526004016105a090613b45565b60db80546001600160a01b0319166001600160a01b0383169081179091556040519081527f9e9a9a4a82acd1b28aab6bf1d43aad70ae6d290549c0d6183e2e91ebcdf57441906020016105f6565b6033546001600160a01b031633146110515760405162461bcd60e51b81526004016105a090613b45565b60c9805463ffffffff191663ffffffff92909216919091179055565b6033546001600160a01b031633146110975760405162461bcd60e51b81526004016105a090613b45565b60d59790975560d69590955560d79390935560d89190915560d95560da5560c9805463ffffffff9384166401000000000267ffffffffffffffff199091169390921692909217179055565b600054610100900460ff166110fd5760005460ff1615611101565b303b155b6111645760405162461bcd60e51b815260206004820152602e60248201527f496e697469616c697a61626c653a20636f6e747261637420697320616c72656160448201526d191e481a5b9a5d1a585b1a5e995960921b60648201526084016105a0565b600054610100900460ff16158015611186576000805461ffff19166101011790555b60cd80546001600160a01b03199081166001600160a01b038e81169190911790925560ce805482168d841617905560cf805482168c841617905560d0805482168b841617905560d1805482168a841617905560d380549091169188169190911790556111f460d28686613662565b5060d480546001600160a01b038086166001600160a01b03199283161790925560db805492851692909116919091179055600060d581905560d681905560d781905560d855600160d955606460da5561124e61a8c06115bd565b8015611260576000805461ff00191690555b5050505050505050505050565b6033546001600160a01b031633146112975760405162461bcd60e51b81526004016105a090613b45565b6001600160a01b0381166112fc5760405162461bcd60e51b815260206004820152602660248201527f4f776e61626c653a206e6577206f776e657220697320746865207a65726f206160448201526564647265737360d01b60648201526084016105a0565b6113058161156b565b50565b3b151590565b60c95460009063ffffffff166113248184613cef565b61132e9084613cb4565b610f7f9190613c8c565b60cd5460405163552de85160e11b8152600481018390526000916001600160a01b03169063aa5bd0a29060240160006040518083038186803b15801561137d57600080fd5b505afa158015611391573d6000803e3d6000fd5b505050506040513d6000823e601f3d908101601f191682016040526113b99190810190613dd1565b905060004290508063ffffffff16826020015163ffffffff1611156113f5576113ef84846113ea856020015161130e565b611605565b50505050565b6000805b8351518110801561140b575060d95482105b1561145b576114368460000151828151811061142957611429613b7a565b6020026020010151611695565b1561144957611446600183613c74565b91505b8061145381613eaa565b9150506113f9565b508251518110158061146e575060d95481105b1561152c5760c954602084015161149c91879187916113ea916114979163ffffffff1690613c8c565b61130e565b60cd5460c95460208501516001600160a01b0390921691633f735d6a9187916114cb9163ffffffff1690613c8c565b6040516001600160e01b031960e085901b168152600481019290925263ffffffff166024820152604401600060405180830381600087803b15801561150f57600080fd5b505af1158015611523573d6000803e3d6000fd5b5050505061153c565b61153c85856113ea611497611543565b5050505050565b60c954600090429061155b9063ffffffff1682613cef565b6115659082613cb4565b91505090565b603380546001600160a01b038381166001600160a01b0319831681179093556040519116919082907f8be0079c531659141344cd1fd0a4f28419497f9722a3daafe3b4186f6b6457e090600090a35050565b600054610100900460ff166115e45760405162461bcd60e51b81526004016105a090613ec5565b6115ec611954565b6115f461198b565b6115fc6119c2565b611305816119e9565b60ff8316600090815260ca60205260408120906116218361130e565b63ffffffff90811682526020808301939093526040918201600090812080546001810182559082529084902001859055815160ff87168152928301859052831682820152517f67778e52b18dcf574ab071142a886fce91a8ce5e60e176229fdadb8c063caaed9181900360600190a1505050565b60cd5460405163c68f5eb360e01b81526004810183905260009182916001600160a01b039091169063c68f5eb3906024016101a06040518083038186803b1580156116df57600080fd5b505afa1580156116f3573d6000803e3d6000fd5b505050506040513d601f19601f820116820180604052508101906117179190613f39565b90506001816101800151600381111561173257611732613fff565b146117405750600092915050565b61174983611a56565b158061177357506101408101516001600160a01b0316600090815260cc602052604090205460ff16155b156117e65760cd54604051635ba581cd60e01b81526001600160a01b0390911690635ba581cd906117ab908690600190600401614033565b600060405180830381600087803b1580156117c557600080fd5b505af11580156117d9573d6000803e3d6000fd5b5060009695505050505050565b80604001516117f484611c79565b106118025750600092915050565b600061271060d65483606001516118199190613c28565b6118239190614050565b905060d754811015611834575060d7545b60006118408583611e85565b905080156118c65760cd546060840151604051632d32f27960e21b815260048101889052602481019190915260448101839052606481018490526001600160a01b039091169063b4cbc9e490608401600060405180830381600087803b1580156118a957600080fd5b505af11580156118bd573d6000803e3d6000fd5b50505050611949565b600060d5541180156118de575060d5548360e0015110155b156119495760cd54604051635ba581cd60e01b81526001600160a01b0390911690635ba581cd90611916908890600290600401614033565b600060405180830381600087803b15801561193057600080fd5b505af1158015611944573d6000803e3d6000fd5b505050505b506001949350505050565b600054610100900460ff1661197b5760405162461bcd60e51b81526004016105a090613ec5565b6119836119c2565b610e88612e07565b600054610100900460ff166119b25760405162461bcd60e51b81526004016105a090613ec5565b6119ba6119c2565b610e88612e37565b600054610100900460ff16610e885760405162461bcd60e51b81526004016105a090613ec5565b600054610100900460ff16611a105760405162461bcd60e51b81526004016105a090613ec5565b60c9805463ffffffff191663ffffffff8316908117909155611a33906014614064565b60c960046101000a81548163ffffffff021916908363ffffffff16021790555050565b60cd5460405163c68f5eb360e01b81526004810183905260009182916001600160a01b039091169063c68f5eb3906024016101a06040518083038186803b158015611aa057600080fd5b505afa158015611ab4573d6000803e3d6000fd5b505050506040513d601f19601f82011682018060405250810190611ad89190613f39565b905060018161016001516002811115611af357611af3613fff565b1415611ba3576101408101516101208201516040516363e1d0cd60e11b815260048101919091526001600160a01b0382169063c7c3a19a9060240160006040518083038186803b158015611b4657600080fd5b505afa925050508015611b7b57506040513d6000823e601f3d908101601f19168201604052611b7891908101906140be565b60015b611b89575060009392505050565b6001600160401b03908116149a9950505050505050505050565b60028161016001516002811115611bbc57611bbc613fff565b1415611c705761014081015161012082015160405163523e3b4b60e11b81526001600160401b0390911660048201526001600160a01b0382169063a47c76969060240160006040518083038186803b158015611c1757600080fd5b505afa925050508015611c4c57506040513d6000823e601f3d908101601f19168201604052611c4991908101906141bc565b60015b611c5a575060009392505050565b506001600160a01b031615159695505050505050565b50600092915050565b60cd5460405163c68f5eb360e01b81526004810183905260009182916001600160a01b039091169063c68f5eb3906024016101a06040518083038186803b158015611cc357600080fd5b505afa158015611cd7573d6000803e3d6000fd5b505050506040513d601f19601f82011682018060405250810190611cfb9190613f39565b90506001600160601b0360018261016001516002811115611d1e57611d1e613fff565b1415611dbd576101408201516101208301516040516363e1d0cd60e11b815260048101919091526001600160a01b0382169063c7c3a19a9060240160006040518083038186803b158015611d7157600080fd5b505afa158015611d85573d6000803e3d6000fd5b505050506040513d6000823e601f3d908101601f19168201604052611dad91908101906140be565b50919650611e7595505050505050565b60028261016001516002811115611dd657611dd6613fff565b1415611e755761014082015161012083015160405163523e3b4b60e11b81526001600160401b0390911660048201526001600160a01b0382169063a47c76969060240160006040518083038186803b158015611e3157600080fd5b505afa158015611e45573d6000803e3d6000fd5b505050506040513d6000823e601f3d908101601f19168201604052611e6d91908101906141bc565b509193505050505b6001600160601b03169392505050565b60cd5460405163c68f5eb360e01b81526004810184905260009182916001600160a01b039091169063c68f5eb3906024016101a06040518083038186803b158015611ecf57600080fd5b505afa158015611ee3573d6000803e3d6000fd5b505050506040513d601f19601f82011682018060405250810190611f079190613f39565b9050600060ce60009054906101000a90046001600160a01b03166001600160a01b0316638d3a4af66040518163ffffffff1660e01b815260040160206040518083038186803b158015611f5957600080fd5b505afa158015611f6d573d6000803e3d6000fd5b505050506040513d601f19601f82011682018060405250810190611f91919061428a565b6040516370a0823160e01b81523060048201526001600160a01b0391909116906370a082319060240160206040518083038186803b158015611fd257600080fd5b505afa158015611fe6573d6000803e3d6000fd5b505050506040513d601f19601f8201168201806040525081019061200a9190613b90565b60ce548351606085015160405163fcd6a25b60e01b81526001600160a01b039283166004820152306024820152604481019190915260006064820152929350169063fcd6a25b90608401600060405180830381600087803b15801561206e57600080fd5b505af192505050801561207f575060015b612124573d8080156120ad576040519150601f19603f3d011682016040523d82523d6000602084013e6120b2565b606091505b5060cd54604051632a74cbb560e01b81526001600160a01b0390911690632a74cbb5906120e6908990600190600401614033565b600060405180830381600087803b15801561210057600080fd5b505af1158015612114573d6000803e3d6000fd5b5050505060009350505050610f7f565b60ce5460608301516000916001600160a01b03169063e1ded2de9061214a908890613c47565b6040518263ffffffff1660e01b815260040161216891815260200190565b60206040518083038186803b15801561218057600080fd5b505afa158015612194573d6000803e3d6000fd5b505050506040513d601f19601f820116820180604052508101906121b89190613b90565b60ce546040516370a0823160e01b81523060048201529192506001600160a01b0316906370a082319060240160206040518083038186803b1580156121fc57600080fd5b505afa158015612210573d6000803e3d6000fd5b505050506040513d601f19601f820116820180604052508101906122349190613b90565b8111156122b95760ce546040516370a0823160e01b81523060048201526001600160a01b03909116906370a082319060240160206040518083038186803b15801561227e57600080fd5b505afa158015612292573d6000803e3d6000fd5b505050506040513d601f19601f820116820180604052508101906122b69190613b90565b90505b60ce546040805163469d257b60e11b815290516001600160a01b039092169163f3fef3a3918391638d3a4af691600480820192602092909190829003018186803b15801561230657600080fd5b505afa15801561231a573d6000803e3d6000fd5b505050506040513d601f19601f8201168201806040525081019061233e919061428a565b6040516001600160e01b031960e084901b1681526001600160a01b03909116600482015260248101849052604401600060405180830381600087803b15801561238657600080fd5b505af115801561239a573d6000803e3d6000fd5b5050505060008260ce60009054906101000a90046001600160a01b03166001600160a01b0316638d3a4af66040518163ffffffff1660e01b815260040160206040518083038186803b1580156123ef57600080fd5b505afa158015612403573d6000803e3d6000fd5b505050506040513d601f19601f82011682018060405250810190612427919061428a565b6040516370a0823160e01b81523060048201526001600160a01b0391909116906370a082319060240160206040518083038186803b15801561246857600080fd5b505afa15801561247c573d6000803e3d6000fd5b505050506040513d601f19601f820116820180604052508101906124a09190613b90565b6124aa9190613c47565b9050600081116124f15760405162461bcd60e51b815260206004820152601260248201527121494e56414c494428616d6f756e74496e2960701b60448201526064016105a0565b60d35460ce546040805163469d257b60e11b8152905161258a936001600160a01b03908116938693911691638d3a4af691600480820192602092909190829003018186803b15801561254257600080fd5b505afa158015612556573d6000803e3d6000fd5b505050506040513d601f19601f8201168201806040525081019061257a919061428a565b6001600160a01b03169190612e6a565b60d1546000906001600160a01b0316156127075760ce546040805163469d257b60e11b815290516126dd926001600160a01b0316916330b8b2c6918391638d3a4af6916004808301926020929190829003018186803b1580156125ec57600080fd5b505afa158015612600573d6000803e3d6000fd5b505050506040513d601f19601f82011682018060405250810190612624919061428a565b6040516001600160e01b031960e084901b1681526001600160a01b03909116600482015260240160c06040518083038186803b15801561266357600080fd5b505afa158015612677573d6000803e3d6000fd5b505050506040513d601f19601f8201168201806040525081019061269b91906142a7565b60d280546126ab90600190613c47565b815481106126bb576126bb613b7a565b60009182526020909120015460d1546001600160a01b03918216911685612f4d565b905061271060da54826126f09190613c28565b6126fa9190614050565b6127049082613c47565b90505b60d0546040516370a0823160e01b81523060048201526000916001600160a01b0316906370a082319060240160206040518083038186803b15801561274b57600080fd5b505afa15801561275f573d6000803e3d6000fd5b505050506040513d601f19601f820116820180604052508101906127839190613b90565b60d3549091506001600160a01b03166338ed1739848460d2306127a842610e10613c74565b6040518663ffffffff1660e01b81526004016127c895949392919061433f565b600060405180830381600087803b1580156127e257600080fd5b505af192505050801561281757506040513d6000823e601f3d908101601f1916820160405261281491908101906143b5565b60015b612af4573d808015612845576040519150601f19603f3d011682016040523d82523d6000602084013e61284a565b606091505b5060ce546040805163469d257b60e11b81529051612895926001600160a01b03169187918391638d3a4af6916004808301926020929190829003018186803b15801561254257600080fd5b60ce546040805163469d257b60e11b815290516001600160a01b03909216916347e7ef24918391638d3a4af691600480820192602092909190829003018186803b1580156128e257600080fd5b505afa1580156128f6573d6000803e3d6000fd5b505050506040513d601f19601f8201168201806040525081019061291a919061428a565b6040516001600160e01b031960e084901b1681526001600160a01b03909116600482015260248101879052604401600060405180830381600087803b15801561296257600080fd5b505af1158015612976573d6000803e3d6000fd5b505060ce5489516040516370a0823160e01b81523060048201526001600160a01b03909216935063a9059cbb92509083906370a082319060240160206040518083038186803b1580156129c857600080fd5b505afa1580156129dc573d6000803e3d6000fd5b505050506040513d601f19601f82011682018060405250810190612a009190613b90565b6040516001600160e01b031960e085901b1681526001600160a01b0390921660048301526024820152604401602060405180830381600087803b158015612a4657600080fd5b505af1158015612a5a573d6000803e3d6000fd5b505050506040513d601f19601f82011682018060405250810190612a7e9190613bbe565b5060cd54604051632a74cbb560e01b81526001600160a01b0390911690632a74cbb590612ab2908d90600290600401614033565b600060405180830381600087803b158015612acc57600080fd5b505af1158015612ae0573d6000803e3d6000fd5b505050506000975050505050505050610f7f565b600281511015612b3a5760405162461bcd60e51b815260206004820152601160248201527021494e56414c494428616d6f756e74732960781b60448201526064016105a0565b60ce5460db546040516370a0823160e01b81523060048201526001600160a01b039283169263a9059cbb92169083906370a082319060240160206040518083038186803b158015612b8a57600080fd5b505afa158015612b9e573d6000803e3d6000fd5b505050506040513d601f19601f82011682018060405250810190612bc29190613b90565b6040516001600160e01b031960e085901b1681526001600160a01b0390921660048301526024820152604401602060405180830381600087803b158015612c0857600080fd5b505af1158015612c1c573d6000803e3d6000fd5b505050506040513d601f19601f82011682018060405250810190612c409190613bbe565b505060d4546001600160a01b031615612d645760cf546040516370a0823160e01b81523060048201526000916001600160a01b0316906370a082319060240160206040518083038186803b158015612c9757600080fd5b505afa158015612cab573d6000803e3d6000fd5b505050506040513d601f19601f82011682018060405250810190612ccf9190613b90565b60d45460cf54919250612cef916001600160a01b03908116911683612e6a565b60d45460cf5460d054604051632b7f092360e01b8152600481018590526001600160a01b0392831660248201529082166044820152911690632b7f092390606401600060405180830381600087803b158015612d4a57600080fd5b505af1158015612d5e573d6000803e3d6000fd5b50505050505b60d0546040516370a0823160e01b815230600482015260009183916001600160a01b03909116906370a082319060240160206040518083038186803b158015612dac57600080fd5b505afa158015612dc0573d6000803e3d6000fd5b505050506040513d601f19601f82011682018060405250810190612de49190613b90565b612dee9190613c47565b9050612dfa8a82613267565b9998505050505050505050565b600054610100900460ff16612e2e5760405162461bcd60e51b81526004016105a090613ec5565b610e883361156b565b600054610100900460ff16612e5e5760405162461bcd60e51b81526004016105a090613ec5565b6065805460ff19169055565b604051636eb1769f60e11b81523060048201526001600160a01b038381166024830152600091839186169063dd62ed3e9060440160206040518083038186803b158015612eb657600080fd5b505afa158015612eca573d6000803e3d6000fd5b505050506040513d601f19601f82011682018060405250810190612eee9190613b90565b612ef89190613c74565b604080516001600160a01b038616602482015260448082018490528251808303909101815260649091019091526020810180516001600160e01b031663095ea7b360e01b1790529091506113ef908590613414565b600081612f5c5750600061325f565b6000806000866001600160a01b031663313ce5676040518163ffffffff1660e01b815260040160206040518083038186803b158015612f9a57600080fd5b505afa158015612fae573d6000803e3d6000fd5b505050506040513d601f19601f82011682018060405250810190612fd2919061443a565b90506000866001600160a01b031663313ce5676040518163ffffffff1660e01b815260040160206040518083038186803b15801561300f57600080fd5b505afa158015613023573d6000803e3d6000fd5b505050506040513d601f19601f82011682018060405250810190613047919061443a565b905088600001516001600160a01b031663feaf968c6040518163ffffffff1660e01b815260040160a06040518083038186803b15801561308657600080fd5b505afa15801561309a573d6000803e3d6000fd5b505050506040513d601f19601f820116820180604052508101906130be9190614471565b5060d85492975095508692505015806130e2575060d8546130df8542613c47565b11155b6131205760405162461bcd60e51b815260206004820152600f60248201526e0854149250d157d3d5551110551151608a1b60448201526064016105a0565b876001600160a01b031663feaf968c6040518163ffffffff1660e01b815260040160a06040518083038186803b15801561315957600080fd5b505afa15801561316d573d6000803e3d6000fd5b505050506040513d601f19601f820116820180604052508101906131919190614471565b5060d85492985096508792505015806131b5575060d8546131b28642613c47565b11155b6131f35760405162461bcd60e51b815260206004820152600f60248201526e0854149250d157d3d5551110551151608a1b60448201526064016105a0565b8260ff168b6080015160ff161461324e5761320f8184866134e6565b61321e838d60800151876134e6565b61322d8a8e60600151886134e6565b6132379190613c28565b6132419190614050565b965050505050505061325f565b808261322d8a8e60600151886134e6565b949350505050565b60cd5460405163c68f5eb360e01b8152600481018490526000916001600160a01b03169063c68f5eb3906024016101a06040518083038186803b1580156132ad57600080fd5b505afa1580156132c1573d6000803e3d6000fd5b505050506040513d601f19601f820116820180604052508101906132e59190613f39565b90506001816101600151600281111561330057613300613fff565b14156133b75760d0546101408201516101208301516040805160208101929092526001600160a01b0390931692634000aea092918691015b6040516020818303038152906040526040518463ffffffff1660e01b8152600401613365939291906144c1565b602060405180830381600087803b15801561337f57600080fd5b505af1158015613393573d6000803e3d6000fd5b505050506040513d601f19601f820116820180604052508101906113ef9190613bbe565b600281610160015160028111156133d0576133d0613fff565b14156107d65760d054610140820151610120830151604080516001600160401b0390921660208301526001600160a01b0390931692634000aea09291869101613338565b6000613469826040518060400160405280602081526020017f5361666545524332303a206c6f772d6c6576656c2063616c6c206661696c6564815250856001600160a01b03166135579092919063ffffffff16565b8051909150156107d657808060200190518101906134879190613bbe565b6107d65760405162461bcd60e51b815260206004820152602a60248201527f5361666545524332303a204552433230206f7065726174696f6e20646964206e6044820152691bdd081cdd58d8d9595960b21b60648201526084016105a0565b60008160ff168360ff16101561351f5761350083836144f1565b61350e9060ff16600a6145f8565b6135189085613c28565b90506106a6565b8160ff168360ff16111561354f5761353782846144f1565b6135459060ff16600a6145f8565b6135189085614050565b509192915050565b606061325f848460008585843b6135b05760405162461bcd60e51b815260206004820152601d60248201527f416464726573733a2063616c6c20746f206e6f6e2d636f6e747261637400000060448201526064016105a0565b600080866001600160a01b031685876040516135cc9190614604565b60006040518083038185875af1925050503d8060008114613609576040519150601f19603f3d011682016040523d82523d6000602084013e61360e565b606091505b509150915061361e828286613629565b979650505050505050565b606083156136385750816106a6565b8251156136485782518084602001fd5b8160405162461bcd60e51b81526004016105a09190614620565b8280548282559060005260206000209081019282156136b5579160200282015b828111156136b55781546001600160a01b0319166001600160a01b03843516178255602090920191600190910190613682565b506136c19291506136c5565b5090565b5b808211156136c157600081556001016136c6565b6001600160a01b038116811461130557600080fd5b60006020828403121561370157600080fd5b81356106a6816136da565b60ff8116811461130557600080fd5b63ffffffff8116811461130557600080fd5b6000806040838503121561374057600080fd5b823561374b8161370c565b9150602083013561375b8161371b565b809150509250929050565b60008060006060848603121561377b57600080fd5b83356137868161370c565b925060208401356137968161371b565b929592945050506040919091013590565b6000602082840312156137b957600080fd5b81356106a68161370c565b600080604083850312156137d757600080fd5b82356137e2816136da565b9150602083013561375b816136da565b60006020828403121561380457600080fd5b5035919050565b6000806020838503121561381e57600080fd5b82356001600160401b038082111561383557600080fd5b818501915085601f83011261384957600080fd5b81358181111561385857600080fd5b86602082850101111561386a57600080fd5b60209290920196919550909350505050565b60008083601f84011261388e57600080fd5b5081356001600160401b038111156138a557600080fd5b6020830191508360208260051b85010111156138c057600080fd5b9250929050565b600080600080600080600060c0888a0312156138e257600080fd5b87356138ed816136da565b965060208801356138fd816136da565b9550604088013561390d816136da565b9450606088013561391d816136da565b935060808801356001600160401b0381111561393857600080fd5b6139448a828b0161387c565b90945092505060a0880135613958816136da565b8091505092959891949750929550565b60005b8381101561398357818101518382015260200161396b565b838111156113ef5750506000910152565b600081518084526139ac816020860160208601613968565b601f01601f19169290920160200192915050565b821515815260406020820152600061325f6040830184613994565b6000602082840312156139ed57600080fd5b81356106a68161371b565b600080600080600080600080610100898b031215613a1557600080fd5b883597506020890135965060408901359550606089013594506080890135935060a0890135925060c0890135613a4a8161371b565b915060e0890135613a5a8161371b565b809150509295985092959890939650565b6000806000806000806000806000806101208b8d031215613a8b57600080fd5b8a35613a96816136da565b995060208b0135613aa6816136da565b985060408b0135613ab6816136da565b975060608b0135613ac6816136da565b965060808b0135613ad6816136da565b955060a08b0135613ae6816136da565b945060c08b01356001600160401b03811115613b0157600080fd5b613b0d8d828e0161387c565b90955093505060e08b0135613b21816136da565b91506101008b0135613b32816136da565b809150509295989b9194979a5092959850565b6020808252818101527f4f776e61626c653a2063616c6c6572206973206e6f7420746865206f776e6572604082015260600190565b634e487b7160e01b600052603260045260246000fd5b600060208284031215613ba257600080fd5b5051919050565b80518015158114613bb957600080fd5b919050565b600060208284031215613bd057600080fd5b6106a682613ba9565b600080600060608486031215613bee57600080fd5b83359250602084013591506040840135613c078161370c565b809150509250925092565b634e487b7160e01b600052601160045260246000fd5b6000816000190483118215151615613c4257613c42613c12565b500290565b600082821015613c5957613c59613c12565b500390565b634e487b7160e01b600052603160045260246000fd5b60008219821115613c8757613c87613c12565b500190565b600063ffffffff808316818516808303821115613cab57613cab613c12565b01949350505050565b600063ffffffff83811690831681811015613cd157613cd1613c12565b039392505050565b634e487b7160e01b600052601260045260246000fd5b600063ffffffff80841680613d0657613d06613cd9565b92169190910692915050565b634e487b7160e01b600052604160045260246000fd5b604080519081016001600160401b0381118282101715613d4a57613d4a613d12565b60405290565b6040516101a081016001600160401b0381118282101715613d4a57613d4a613d12565b604051601f8201601f191681016001600160401b0381118282101715613d9b57613d9b613d12565b604052919050565b60006001600160401b03821115613dbc57613dbc613d12565b5060051b60200190565b8051613bb98161371b565b60006020808385031215613de457600080fd5b82516001600160401b0380821115613dfb57600080fd5b9084019060408287031215613e0f57600080fd5b613e17613d28565b825182811115613e2657600080fd5b83019150601f82018713613e3957600080fd5b8151613e4c613e4782613da3565b613d73565b81815260059190911b83018501908581019089831115613e6b57600080fd5b938601935b82851015613e8957845182529386019390860190613e70565b835250613e999050838501613dc6565b848201528094505050505092915050565b6000600019821415613ebe57613ebe613c12565b5060010190565b6020808252602b908201527f496e697469616c697a61626c653a20636f6e7472616374206973206e6f74206960408201526a6e697469616c697a696e6760a81b606082015260800190565b8051613bb9816136da565b805160038110613bb957600080fd5b805160048110613bb957600080fd5b60006101a08284031215613f4c57600080fd5b613f54613d50565b613f5d83613f10565b81526020830151602082015260408301516040820152606083015160608201526080830151608082015260a083015160a082015260c083015160c082015260e083015160e0820152610100613fb3818501613dc6565b908201526101208381015190820152610140613fd0818501613f10565b90820152610160613fe2848201613f1b565b90820152610180613ff4848201613f2a565b908201529392505050565b634e487b7160e01b600052602160045260246000fd5b6003811061130557634e487b7160e01b600052602160045260246000fd5b8281526040810161404383614015565b8260208301529392505050565b60008261405f5761405f613cd9565b500490565b600063ffffffff8083168185168183048111821515161561408757614087613c12565b02949350505050565b80516001600160601b0381168114613bb957600080fd5b80516001600160401b0381168114613bb957600080fd5b600080600080600080600060e0888a0312156140d957600080fd5b87516140e4816136da565b60208901519097506140f58161371b565b60408901519096506001600160401b038082111561411257600080fd5b818a0191508a601f83011261412657600080fd5b81518181111561413857614138613d12565b61414b601f8201601f1916602001613d73565b91508082528b602082850101111561416257600080fd5b614173816020840160208601613968565b509550614184905060608901614090565b935061419260808901613f10565b92506141a060a08901613f10565b91506141ae60c089016140a7565b905092959891949750929550565b600080600080608085870312156141d257600080fd5b6141db85614090565b935060206141ea8187016140a7565b935060408601516141fa816136da565b60608701519093506001600160401b0381111561421657600080fd5b8601601f8101881361422757600080fd5b8051614235613e4782613da3565b81815260059190911b8201830190838101908a83111561425457600080fd5b928401925b8284101561427b57835161426c816136da565b82529284019290840190614259565b979a9699509497505050505050565b60006020828403121561429c57600080fd5b81516106a6816136da565b600060c082840312156142b957600080fd5b60405160c081018181106001600160401b03821117156142db576142db613d12565b60405282516142e9816136da565b808252506020830151602082015260408301516040820152606083015161430f8161370c565b606082015260808301516143228161370c565b608082015261433360a08401613ba9565b60a08201529392505050565b600060a082018783526020878185015260a0604085015281875480845260c0860191508860005282600020935060005b818110156143945784546001600160a01b03168352600194850194928401920161436f565b50506001600160a01b03969096166060850152505050608001529392505050565b600060208083850312156143c857600080fd5b82516001600160401b038111156143de57600080fd5b8301601f810185136143ef57600080fd5b80516143fd613e4782613da3565b81815260059190911b8201830190838101908783111561441c57600080fd5b928401925b8284101561361e57835182529284019290840190614421565b60006020828403121561444c57600080fd5b81516106a68161370c565b805169ffffffffffffffffffff81168114613bb957600080fd5b600080600080600060a0868803121561448957600080fd5b61449286614457565b94506020860151935060408601519250606086015191506144b560808701614457565b90509295509295909350565b60018060a01b03841681528260208201526060604082015260006144e86060830184613994565b95945050505050565b600060ff821660ff84168082101561450b5761450b613c12565b90039392505050565b600181815b8085111561454f57816000190482111561453557614535613c12565b8085161561454257918102915b93841c9390800290614519565b509250929050565b60008261456657506001610f7f565b8161457357506000610f7f565b81600181146145895760028114614593576145af565b6001915050610f7f565b60ff8411156145a4576145a4613c12565b50506001821b610f7f565b5060208310610133831016604e8410600b84101617156145d2575081810a610f7f565b6145dc8383614514565b80600019048211156145f0576145f0613c12565b029392505050565b60006106a68383614557565b60008251614616818460208701613968565b9190910192915050565b6020815260006106a6602083018461399456fea26469706673582212203d48d9d19c6745dc47e56b9fe448a4a39e67a9b6ff43e91203f209b54505e72e64736f6c63430008090033",
  "devdoc": {
    "kind": "dev",
    "methods": {
      "checkUpkeep(bytes)": {
        "details": "To ensure that it is never called, you may want to add the cannotExecute modifier from KeeperBase to your implementation of this method.",
        "params": {
          "checkData": "specified in the upkeep registration so it is always the same for a registered upkeep. This can easilly be broken down into specific arguments using `abi.decode`, so multiple upkeeps can be registered on the same contract and easily differentiated by the contract."
        },
        "returns": {
          "performData": "bytes that the keeper should call performUpkeep with, if upkeep is needed. If you would like to encode data to decode later, try `abi.encode`.",
          "upkeepNeeded": "boolean to indicate whether the keeper should call performUpkeep or not."
        }
      },
      "constructor": {
        "custom:oz-upgrades-unsafe-allow": "constructor"
      },
      "owner()": {
        "details": "Returns the address of the current owner."
      },
      "paused()": {
        "details": "Returns true if the contract is paused, and false otherwise."
      },
      "performUpkeep(bytes)": {
        "details": "The input to this method should not be trusted, and the caller of the method should not even be restricted to any single registry. Anyone should be able call it, and the input should be validated, there is no guarantee that the data passed in is the performData returned from checkUpkeep. This could happen due to malicious keepers, racing keepers, or simply a state change while the performUpkeep transaction is waiting for confirmation. Always validate the data passed in.",
        "params": {
          "performData": "is the data which was passed back from the checkData simulation. If it is encoded, it can easily be decoded into other types by calling `abi.decode`. This data should not be trusted, and should be validated against the contract's current state."
        }
      },
      "renounceOwnership()": {
        "details": "Leaves the contract without owner. It will not be possible to call `onlyOwner` functions anymore. Can only be called by the current owner. NOTE: Renouncing ownership will leave the contract without an owner, thereby removing any functionality that is only available to the owner."
      },
      "transferOwnership(address)": {
        "details": "Transfers ownership of the contract to a new account (`newOwner`). Can only be called by the current owner."
      }
    },
    "stateVariables": {
      "allowedRegistries": {
        "details": "map of registries address that are allowed "
      },
      "caskChainlinkTopup": {
        "details": "Pointer to CaskChainlinkTopup contract "
      },
      "caskVault": {
        "details": "vault to use for ChainlinkTopup funding. "
      },
      "feeDistributor": {
        "details": "Address to receive DCA fees. "
      },
      "maxPriceFeedAge": {
        "details": "max allowable age for price feed data. "
      },
      "maxSkips": {
        "details": "max number of failed ChainlinkTopup purchases before ChainlinkTopup is permanently canceled. "
      },
      "maxSwapSlippageBps": {
        "details": "max slippage allowed when buying LINK on the DEX for a topup. "
      },
      "maxTopupsPerGroupRun": {
        "details": "max number of topups to do per each run of a group. "
      },
      "topupFeeBps": {
        "details": "ChainlinkTopup transaction fee bps and min. "
      }
    },
    "version": 1
  },
  "userdoc": {
    "kind": "user",
    "methods": {
      "checkUpkeep(bytes)": {
        "notice": "method that is simulated by the keepers to see if any work actually needs to be performed. This method does does not actually need to be executable, and since it is only ever simulated it can consume lots of gas."
      },
      "performUpkeep(bytes)": {
        "notice": "method that is actually executed by the keepers, via the registry. The data returned by the checkUpkeep simulation will be passed into this method to actually be executed."
      }
    },
    "version": 1
  },
  "storageLayout": {
    "storage": [
      {
        "astId": 327,
        "contract": "contracts/chainlink_topup/CaskChainlinkTopupManager.sol:CaskChainlinkTopupManager",
        "label": "_initialized",
        "offset": 0,
        "slot": "0",
        "type": "t_bool"
      },
      {
        "astId": 330,
        "contract": "contracts/chainlink_topup/CaskChainlinkTopupManager.sol:CaskChainlinkTopupManager",
        "label": "_initializing",
        "offset": 1,
        "slot": "0",
        "type": "t_bool"
      },
      {
        "astId": 2551,
        "contract": "contracts/chainlink_topup/CaskChainlinkTopupManager.sol:CaskChainlinkTopupManager",
        "label": "__gap",
        "offset": 0,
        "slot": "1",
        "type": "t_array(t_uint256)50_storage"
      },
      {
        "astId": 205,
        "contract": "contracts/chainlink_topup/CaskChainlinkTopupManager.sol:CaskChainlinkTopupManager",
        "label": "_owner",
        "offset": 0,
        "slot": "51",
        "type": "t_address"
      },
      {
        "astId": 319,
        "contract": "contracts/chainlink_topup/CaskChainlinkTopupManager.sol:CaskChainlinkTopupManager",
        "label": "__gap",
        "offset": 0,
        "slot": "52",
        "type": "t_array(t_uint256)49_storage"
      },
      {
        "astId": 415,
        "contract": "contracts/chainlink_topup/CaskChainlinkTopupManager.sol:CaskChainlinkTopupManager",
        "label": "_paused",
        "offset": 0,
        "slot": "101",
        "type": "t_bool"
      },
      {
        "astId": 506,
        "contract": "contracts/chainlink_topup/CaskChainlinkTopupManager.sol:CaskChainlinkTopupManager",
        "label": "__gap",
        "offset": 0,
        "slot": "102",
        "type": "t_array(t_uint256)49_storage"
      },
      {
        "astId": 521,
        "contract": "contracts/chainlink_topup/CaskChainlinkTopupManager.sol:CaskChainlinkTopupManager",
        "label": "_status",
        "offset": 0,
        "slot": "151",
        "type": "t_uint256"
      },
      {
        "astId": 564,
        "contract": "contracts/chainlink_topup/CaskChainlinkTopupManager.sol:CaskChainlinkTopupManager",
        "label": "__gap",
        "offset": 0,
        "slot": "152",
        "type": "t_array(t_uint256)49_storage"
      },
      {
        "astId": 17085,
        "contract": "contracts/chainlink_topup/CaskChainlinkTopupManager.sol:CaskChainlinkTopupManager",
        "label": "queueBucketSize",
        "offset": 0,
        "slot": "201",
        "type": "t_uint32"
      },
      {
        "astId": 17088,
        "contract": "contracts/chainlink_topup/CaskChainlinkTopupManager.sol:CaskChainlinkTopupManager",
        "label": "maxQueueAge",
        "offset": 4,
        "slot": "201",
        "type": "t_uint32"
      },
      {
        "astId": 17096,
        "contract": "contracts/chainlink_topup/CaskChainlinkTopupManager.sol:CaskChainlinkTopupManager",
        "label": "queue",
        "offset": 0,
        "slot": "202",
        "type": "t_mapping(t_uint8,t_mapping(t_uint32,t_array(t_bytes32)dyn_storage))"
      },
      {
        "astId": 17100,
        "contract": "contracts/chainlink_topup/CaskChainlinkTopupManager.sol:CaskChainlinkTopupManager",
        "label": "queueBucket",
        "offset": 0,
        "slot": "203",
        "type": "t_mapping(t_uint8,t_uint32)"
      },
      {
        "astId": 9555,
        "contract": "contracts/chainlink_topup/CaskChainlinkTopupManager.sol:CaskChainlinkTopupManager",
        "label": "allowedRegistries",
        "offset": 0,
        "slot": "204",
        "type": "t_mapping(t_address,t_bool)"
      },
      {
        "astId": 9559,
        "contract": "contracts/chainlink_topup/CaskChainlinkTopupManager.sol:CaskChainlinkTopupManager",
        "label": "caskChainlinkTopup",
        "offset": 0,
        "slot": "205",
        "type": "t_contract(ICaskChainlinkTopup)11253"
      },
      {
        "astId": 9563,
        "contract": "contracts/chainlink_topup/CaskChainlinkTopupManager.sol:CaskChainlinkTopupManager",
        "label": "caskVault",
        "offset": 0,
        "slot": "206",
        "type": "t_contract(ICaskVault)17062"
      },
      {
        "astId": 9566,
        "contract": "contracts/chainlink_topup/CaskChainlinkTopupManager.sol:CaskChainlinkTopupManager",
        "label": "linkBridgeToken",
        "offset": 0,
        "slot": "207",
        "type": "t_contract(IERC20Metadata)4330"
      },
      {
        "astId": 9569,
        "contract": "contracts/chainlink_topup/CaskChainlinkTopupManager.sol:CaskChainlinkTopupManager",
        "label": "linkFundingToken",
        "offset": 0,
        "slot": "208",
        "type": "t_contract(LinkTokenInterface)11390"
      },
      {
        "astId": 9572,
        "contract": "contracts/chainlink_topup/CaskChainlinkTopupManager.sol:CaskChainlinkTopupManager",
        "label": "linkPriceFeed",
        "offset": 0,
        "slot": "209",
        "type": "t_contract(AggregatorV3Interface)45"
      },
      {
        "astId": 9575,
        "contract": "contracts/chainlink_topup/CaskChainlinkTopupManager.sol:CaskChainlinkTopupManager",
        "label": "linkSwapPath",
        "offset": 0,
        "slot": "210",
        "type": "t_array(t_address)dyn_storage"
      },
      {
        "astId": 9578,
        "contract": "contracts/chainlink_topup/CaskChainlinkTopupManager.sol:CaskChainlinkTopupManager",
        "label": "linkSwapRouter",
        "offset": 0,
        "slot": "211",
        "type": "t_contract(IUniswapV2Router02)8411"
      },
      {
        "astId": 9581,
        "contract": "contracts/chainlink_topup/CaskChainlinkTopupManager.sol:CaskChainlinkTopupManager",
        "label": "pegswap",
        "offset": 0,
        "slot": "212",
        "type": "t_contract(IPegSwap)11295"
      },
      {
        "astId": 9584,
        "contract": "contracts/chainlink_topup/CaskChainlinkTopupManager.sol:CaskChainlinkTopupManager",
        "label": "maxSkips",
        "offset": 0,
        "slot": "213",
        "type": "t_uint256"
      },
      {
        "astId": 9587,
        "contract": "contracts/chainlink_topup/CaskChainlinkTopupManager.sol:CaskChainlinkTopupManager",
        "label": "topupFeeBps",
        "offset": 0,
        "slot": "214",
        "type": "t_uint256"
      },
      {
        "astId": 9589,
        "contract": "contracts/chainlink_topup/CaskChainlinkTopupManager.sol:CaskChainlinkTopupManager",
        "label": "topupFeeMin",
        "offset": 0,
        "slot": "215",
        "type": "t_uint256"
      },
      {
        "astId": 9592,
        "contract": "contracts/chainlink_topup/CaskChainlinkTopupManager.sol:CaskChainlinkTopupManager",
        "label": "maxPriceFeedAge",
        "offset": 0,
        "slot": "216",
        "type": "t_uint256"
      },
      {
        "astId": 9595,
        "contract": "contracts/chainlink_topup/CaskChainlinkTopupManager.sol:CaskChainlinkTopupManager",
        "label": "maxTopupsPerGroupRun",
        "offset": 0,
        "slot": "217",
        "type": "t_uint256"
      },
      {
        "astId": 9598,
        "contract": "contracts/chainlink_topup/CaskChainlinkTopupManager.sol:CaskChainlinkTopupManager",
        "label": "maxSwapSlippageBps",
        "offset": 0,
        "slot": "218",
        "type": "t_uint256"
      },
      {
        "astId": 9601,
        "contract": "contracts/chainlink_topup/CaskChainlinkTopupManager.sol:CaskChainlinkTopupManager",
        "label": "feeDistributor",
        "offset": 0,
        "slot": "219",
        "type": "t_address"
      }
    ],
    "types": {
      "t_address": {
        "encoding": "inplace",
        "label": "address",
        "numberOfBytes": "20"
      },
      "t_array(t_address)dyn_storage": {
        "base": "t_address",
        "encoding": "dynamic_array",
        "label": "address[]",
        "numberOfBytes": "32"
      },
      "t_array(t_bytes32)dyn_storage": {
        "base": "t_bytes32",
        "encoding": "dynamic_array",
        "label": "bytes32[]",
        "numberOfBytes": "32"
      },
      "t_array(t_uint256)49_storage": {
        "base": "t_uint256",
        "encoding": "inplace",
        "label": "uint256[49]",
        "numberOfBytes": "1568"
      },
      "t_array(t_uint256)50_storage": {
        "base": "t_uint256",
        "encoding": "inplace",
        "label": "uint256[50]",
        "numberOfBytes": "1600"
      },
      "t_bool": {
        "encoding": "inplace",
        "label": "bool",
        "numberOfBytes": "1"
      },
      "t_bytes32": {
        "encoding": "inplace",
        "label": "bytes32",
        "numberOfBytes": "32"
      },
      "t_contract(AggregatorV3Interface)45": {
        "encoding": "inplace",
        "label": "contract AggregatorV3Interface",
        "numberOfBytes": "20"
      },
      "t_contract(ICaskChainlinkTopup)11253": {
        "encoding": "inplace",
        "label": "contract ICaskChainlinkTopup",
        "numberOfBytes": "20"
      },
      "t_contract(ICaskVault)17062": {
        "encoding": "inplace",
        "label": "contract ICaskVault",
        "numberOfBytes": "20"
      },
      "t_contract(IERC20Metadata)4330": {
        "encoding": "inplace",
        "label": "contract IERC20Metadata",
        "numberOfBytes": "20"
      },
      "t_contract(IPegSwap)11295": {
        "encoding": "inplace",
        "label": "contract IPegSwap",
        "numberOfBytes": "20"
      },
      "t_contract(IUniswapV2Router02)8411": {
        "encoding": "inplace",
        "label": "contract IUniswapV2Router02",
        "numberOfBytes": "20"
      },
      "t_contract(LinkTokenInterface)11390": {
        "encoding": "inplace",
        "label": "contract LinkTokenInterface",
        "numberOfBytes": "20"
      },
      "t_mapping(t_address,t_bool)": {
        "encoding": "mapping",
        "key": "t_address",
        "label": "mapping(address => bool)",
        "numberOfBytes": "32",
        "value": "t_bool"
      },
      "t_mapping(t_uint32,t_array(t_bytes32)dyn_storage)": {
        "encoding": "mapping",
        "key": "t_uint32",
        "label": "mapping(uint32 => bytes32[])",
        "numberOfBytes": "32",
        "value": "t_array(t_bytes32)dyn_storage"
      },
      "t_mapping(t_uint8,t_mapping(t_uint32,t_array(t_bytes32)dyn_storage))": {
        "encoding": "mapping",
        "key": "t_uint8",
        "label": "mapping(uint8 => mapping(uint32 => bytes32[]))",
        "numberOfBytes": "32",
        "value": "t_mapping(t_uint32,t_array(t_bytes32)dyn_storage)"
      },
      "t_mapping(t_uint8,t_uint32)": {
        "encoding": "mapping",
        "key": "t_uint8",
        "label": "mapping(uint8 => uint32)",
        "numberOfBytes": "32",
        "value": "t_uint32"
      },
      "t_uint256": {
        "encoding": "inplace",
        "label": "uint256",
        "numberOfBytes": "32"
      },
      "t_uint32": {
        "encoding": "inplace",
        "label": "uint32",
        "numberOfBytes": "4"
      },
      "t_uint8": {
        "encoding": "inplace",
        "label": "uint8",
        "numberOfBytes": "1"
      }
    }
  }
}