{
  "address": "0x0ba17555185d6A867DCaEBb88e17246a0F131009",
  "abi": [
    {
      "inputs": [],
      "stateMutability": "nonpayable",
      "type": "constructor"
    },
    {
      "anonymous": false,
      "inputs": [
        {
          "indexed": true,
          "internalType": "bytes32",
          "name": "dcaId",
          "type": "bytes32"
        },
        {
          "indexed": true,
          "internalType": "address",
          "name": "user",
          "type": "address"
        }
      ],
      "name": "DCACanceled",
      "type": "event"
    },
    {
      "anonymous": false,
      "inputs": [
        {
          "indexed": true,
          "internalType": "bytes32",
          "name": "dcaId",
          "type": "bytes32"
        },
        {
          "indexed": true,
          "internalType": "address",
          "name": "user",
          "type": "address"
        }
      ],
      "name": "DCACompleted",
      "type": "event"
    },
    {
      "anonymous": false,
      "inputs": [
        {
          "indexed": true,
          "internalType": "bytes32",
          "name": "dcaId",
          "type": "bytes32"
        },
        {
          "indexed": true,
          "internalType": "address",
          "name": "user",
          "type": "address"
        },
        {
          "indexed": true,
          "internalType": "address",
          "name": "to",
          "type": "address"
        },
        {
          "indexed": false,
          "internalType": "address",
          "name": "inputAsset",
          "type": "address"
        },
        {
          "indexed": false,
          "internalType": "address",
          "name": "outputAsset",
          "type": "address"
        },
        {
          "indexed": false,
          "internalType": "uint256",
          "name": "amount",
          "type": "uint256"
        },
        {
          "indexed": false,
          "internalType": "uint256",
          "name": "totalAmount",
          "type": "uint256"
        },
        {
          "indexed": false,
          "internalType": "uint32",
          "name": "period",
          "type": "uint32"
        }
      ],
      "name": "DCACreated",
      "type": "event"
    },
    {
      "anonymous": false,
      "inputs": [
        {
          "indexed": true,
          "internalType": "bytes32",
          "name": "dcaId",
          "type": "bytes32"
        },
        {
          "indexed": true,
          "internalType": "address",
          "name": "user",
          "type": "address"
        }
      ],
      "name": "DCAPaused",
      "type": "event"
    },
    {
      "anonymous": false,
      "inputs": [
        {
          "indexed": true,
          "internalType": "bytes32",
          "name": "dcaId",
          "type": "bytes32"
        },
        {
          "indexed": true,
          "internalType": "address",
          "name": "user",
          "type": "address"
        },
        {
          "indexed": false,
          "internalType": "uint256",
          "name": "amount",
          "type": "uint256"
        },
        {
          "indexed": false,
          "internalType": "uint256",
          "name": "buyQty",
          "type": "uint256"
        },
        {
          "indexed": false,
          "internalType": "uint256",
          "name": "fee",
          "type": "uint256"
        }
      ],
      "name": "DCAProcessed",
      "type": "event"
    },
    {
      "anonymous": false,
      "inputs": [
        {
          "indexed": true,
          "internalType": "bytes32",
          "name": "dcaId",
          "type": "bytes32"
        },
        {
          "indexed": true,
          "internalType": "address",
          "name": "user",
          "type": "address"
        }
      ],
      "name": "DCAResumed",
      "type": "event"
    },
    {
      "anonymous": false,
      "inputs": [
        {
          "indexed": true,
          "internalType": "bytes32",
          "name": "dcaId",
          "type": "bytes32"
        },
        {
          "indexed": true,
          "internalType": "address",
          "name": "user",
          "type": "address"
        },
        {
          "indexed": false,
          "internalType": "enum ICaskDCA.SkipReason",
          "name": "skipReason",
          "type": "uint8"
        }
      ],
      "name": "DCASkipped",
      "type": "event"
    },
    {
      "anonymous": false,
      "inputs": [
        {
          "indexed": true,
          "internalType": "address",
          "name": "previousOwner",
          "type": "address"
        },
        {
          "indexed": true,
          "internalType": "address",
          "name": "newOwner",
          "type": "address"
        }
      ],
      "name": "OwnershipTransferred",
      "type": "event"
    },
    {
      "anonymous": false,
      "inputs": [
        {
          "indexed": false,
          "internalType": "address",
          "name": "account",
          "type": "address"
        }
      ],
      "name": "Paused",
      "type": "event"
    },
    {
      "anonymous": false,
      "inputs": [
        {
          "indexed": false,
          "internalType": "address",
          "name": "account",
          "type": "address"
        }
      ],
      "name": "Unpaused",
      "type": "event"
    },
    {
      "inputs": [],
      "name": "assetsMerkleRoot",
      "outputs": [
        {
          "internalType": "bytes32",
          "name": "",
          "type": "bytes32"
        }
      ],
      "stateMutability": "view",
      "type": "function"
    },
    {
      "inputs": [
        {
          "internalType": "bytes32",
          "name": "_dcaId",
          "type": "bytes32"
        }
      ],
      "name": "cancelDCA",
      "outputs": [],
      "stateMutability": "nonpayable",
      "type": "function"
    },
    {
      "inputs": [
        {
          "internalType": "address[]",
          "name": "_assetSpec",
          "type": "address[]"
        },
        {
          "internalType": "bytes32[]",
          "name": "_merkleProof",
          "type": "bytes32[]"
        },
        {
          "internalType": "enum ICaskDCA.SwapProtocol",
          "name": "_swapProtocol",
          "type": "uint8"
        },
        {
          "internalType": "address",
          "name": "_to",
          "type": "address"
        },
        {
          "internalType": "uint256",
          "name": "_amount",
          "type": "uint256"
        },
        {
          "internalType": "uint256",
          "name": "_totalAmount",
          "type": "uint256"
        },
        {
          "internalType": "uint32",
          "name": "_period",
          "type": "uint32"
        },
        {
          "internalType": "uint256",
          "name": "_slippageBps",
          "type": "uint256"
        },
        {
          "internalType": "uint256",
          "name": "_minPrice",
          "type": "uint256"
        },
        {
          "internalType": "uint256",
          "name": "_maxPrice",
          "type": "uint256"
        }
      ],
      "name": "createDCA",
      "outputs": [
        {
          "internalType": "bytes32",
          "name": "",
          "type": "bytes32"
        }
      ],
      "stateMutability": "nonpayable",
      "type": "function"
    },
    {
      "inputs": [],
      "name": "dcaManager",
      "outputs": [
        {
          "internalType": "contract ICaskDCAManager",
          "name": "",
          "type": "address"
        }
      ],
      "stateMutability": "view",
      "type": "function"
    },
    {
      "inputs": [
        {
          "internalType": "bytes32",
          "name": "_dcaId",
          "type": "bytes32"
        }
      ],
      "name": "getDCA",
      "outputs": [
        {
          "components": [
            {
              "internalType": "address",
              "name": "user",
              "type": "address"
            },
            {
              "internalType": "address",
              "name": "to",
              "type": "address"
            },
            {
              "internalType": "address",
              "name": "router",
              "type": "address"
            },
            {
              "internalType": "address",
              "name": "priceFeed",
              "type": "address"
            },
            {
              "internalType": "uint256",
              "name": "amount",
              "type": "uint256"
            },
            {
              "internalType": "uint256",
              "name": "totalAmount",
              "type": "uint256"
            },
            {
              "internalType": "uint256",
              "name": "currentAmount",
              "type": "uint256"
            },
            {
              "internalType": "uint256",
              "name": "currentQty",
              "type": "uint256"
            },
            {
              "internalType": "uint256",
              "name": "numBuys",
              "type": "uint256"
            },
            {
              "internalType": "uint256",
              "name": "numSkips",
              "type": "uint256"
            },
            {
              "internalType": "uint256",
              "name": "slippageBps",
              "type": "uint256"
            },
            {
              "internalType": "uint256",
              "name": "maxPrice",
              "type": "uint256"
            },
            {
              "internalType": "uint256",
              "name": "minPrice",
              "type": "uint256"
            },
            {
              "internalType": "uint32",
              "name": "period",
              "type": "uint32"
            },
            {
              "internalType": "uint32",
              "name": "createdAt",
              "type": "uint32"
            },
            {
              "internalType": "uint32",
              "name": "processAt",
              "type": "uint32"
            },
            {
              "internalType": "enum ICaskDCA.DCAStatus",
              "name": "status",
              "type": "uint8"
            },
            {
              "internalType": "address[]",
              "name": "path",
              "type": "address[]"
            },
            {
              "internalType": "enum ICaskDCA.SwapProtocol",
              "name": "swapProtocol",
              "type": "uint8"
            }
          ],
          "internalType": "struct ICaskDCA.DCA",
          "name": "",
          "type": "tuple"
        }
      ],
      "stateMutability": "view",
      "type": "function"
    },
    {
      "inputs": [
        {
          "internalType": "address",
          "name": "_user",
          "type": "address"
        },
        {
          "internalType": "uint256",
          "name": "_idx",
          "type": "uint256"
        }
      ],
      "name": "getUserDCA",
      "outputs": [
        {
          "internalType": "bytes32",
          "name": "",
          "type": "bytes32"
        }
      ],
      "stateMutability": "view",
      "type": "function"
    },
    {
      "inputs": [
        {
          "internalType": "address",
          "name": "_user",
          "type": "address"
        }
      ],
      "name": "getUserDCACount",
      "outputs": [
        {
          "internalType": "uint256",
          "name": "",
          "type": "uint256"
        }
      ],
      "stateMutability": "view",
      "type": "function"
    },
    {
      "inputs": [
        {
          "internalType": "bytes32",
          "name": "_assetsMerkleRoot",
          "type": "bytes32"
        }
      ],
      "name": "initialize",
      "outputs": [],
      "stateMutability": "nonpayable",
      "type": "function"
    },
    {
      "inputs": [
        {
          "internalType": "address",
          "name": "forwarder",
          "type": "address"
        }
      ],
      "name": "isTrustedForwarder",
      "outputs": [
        {
          "internalType": "bool",
          "name": "",
          "type": "bool"
        }
      ],
      "stateMutability": "view",
      "type": "function"
    },
    {
      "inputs": [
        {
          "internalType": "bytes32",
          "name": "_dcaId",
          "type": "bytes32"
        },
        {
          "internalType": "enum ICaskDCA.ManagerCommand",
          "name": "_command",
          "type": "uint8"
        }
      ],
      "name": "managerCommand",
      "outputs": [],
      "stateMutability": "nonpayable",
      "type": "function"
    },
    {
      "inputs": [
        {
          "internalType": "bytes32",
          "name": "_dcaId",
          "type": "bytes32"
        },
        {
          "internalType": "uint256",
          "name": "_amount",
          "type": "uint256"
        },
        {
          "internalType": "uint256",
          "name": "_buyQty",
          "type": "uint256"
        },
        {
          "internalType": "uint256",
          "name": "_fee",
          "type": "uint256"
        }
      ],
      "name": "managerProcessed",
      "outputs": [],
      "stateMutability": "nonpayable",
      "type": "function"
    },
    {
      "inputs": [
        {
          "internalType": "bytes32",
          "name": "_dcaId",
          "type": "bytes32"
        },
        {
          "internalType": "enum ICaskDCA.SkipReason",
          "name": "_skipReason",
          "type": "uint8"
        }
      ],
      "name": "managerSkipped",
      "outputs": [],
      "stateMutability": "nonpayable",
      "type": "function"
    },
    {
      "inputs": [],
      "name": "minAmount",
      "outputs": [
        {
          "internalType": "uint256",
          "name": "",
          "type": "uint256"
        }
      ],
      "stateMutability": "view",
      "type": "function"
    },
    {
      "inputs": [],
      "name": "minPeriod",
      "outputs": [
        {
          "internalType": "uint32",
          "name": "",
          "type": "uint32"
        }
      ],
      "stateMutability": "view",
      "type": "function"
    },
    {
      "inputs": [],
      "name": "minSlippage",
      "outputs": [
        {
          "internalType": "uint256",
          "name": "",
          "type": "uint256"
        }
      ],
      "stateMutability": "view",
      "type": "function"
    },
    {
      "inputs": [],
      "name": "owner",
      "outputs": [
        {
          "internalType": "address",
          "name": "",
          "type": "address"
        }
      ],
      "stateMutability": "view",
      "type": "function"
    },
    {
      "inputs": [],
      "name": "pause",
      "outputs": [],
      "stateMutability": "nonpayable",
      "type": "function"
    },
    {
      "inputs": [
        {
          "internalType": "bytes32",
          "name": "_dcaId",
          "type": "bytes32"
        }
      ],
      "name": "pauseDCA",
      "outputs": [],
      "stateMutability": "nonpayable",
      "type": "function"
    },
    {
      "inputs": [],
      "name": "paused",
      "outputs": [
        {
          "internalType": "bool",
          "name": "",
          "type": "bool"
        }
      ],
      "stateMutability": "view",
      "type": "function"
    },
    {
      "inputs": [],
      "name": "renounceOwnership",
      "outputs": [],
      "stateMutability": "nonpayable",
      "type": "function"
    },
    {
      "inputs": [
        {
          "internalType": "bytes32",
          "name": "_dcaId",
          "type": "bytes32"
        }
      ],
      "name": "resumeDCA",
      "outputs": [],
      "stateMutability": "nonpayable",
      "type": "function"
    },
    {
      "inputs": [
        {
          "internalType": "bytes32",
          "name": "_assetsMerkleRoot",
          "type": "bytes32"
        }
      ],
      "name": "setAssetsMerkleRoot",
      "outputs": [],
      "stateMutability": "nonpayable",
      "type": "function"
    },
    {
      "inputs": [
        {
          "internalType": "address",
          "name": "_dcaManager",
          "type": "address"
        }
      ],
      "name": "setManager",
      "outputs": [],
      "stateMutability": "nonpayable",
      "type": "function"
    },
    {
      "inputs": [
        {
          "internalType": "uint256",
          "name": "_minAmount",
          "type": "uint256"
        }
      ],
      "name": "setMinAmount",
      "outputs": [],
      "stateMutability": "nonpayable",
      "type": "function"
    },
    {
      "inputs": [
        {
          "internalType": "uint32",
          "name": "_minPeriod",
          "type": "uint32"
        }
      ],
      "name": "setMinPeriod",
      "outputs": [],
      "stateMutability": "nonpayable",
      "type": "function"
    },
    {
      "inputs": [
        {
          "internalType": "uint256",
          "name": "_minSlippage",
          "type": "uint256"
        }
      ],
      "name": "setMinSlippage",
      "outputs": [],
      "stateMutability": "nonpayable",
      "type": "function"
    },
    {
      "inputs": [
        {
          "internalType": "address",
          "name": "_forwarder",
          "type": "address"
        }
      ],
      "name": "setTrustedForwarder",
      "outputs": [],
      "stateMutability": "nonpayable",
      "type": "function"
    },
    {
      "inputs": [
        {
          "internalType": "address",
          "name": "newOwner",
          "type": "address"
        }
      ],
      "name": "transferOwnership",
      "outputs": [],
      "stateMutability": "nonpayable",
      "type": "function"
    },
    {
      "inputs": [],
      "name": "trustedForwarder",
      "outputs": [
        {
          "internalType": "address",
          "name": "",
          "type": "address"
        }
      ],
      "stateMutability": "view",
      "type": "function"
    },
    {
      "inputs": [],
      "name": "unpause",
      "outputs": [],
      "stateMutability": "nonpayable",
      "type": "function"
    },
    {
      "inputs": [],
      "name": "versionRecipient",
      "outputs": [
        {
          "internalType": "string",
          "name": "",
          "type": "string"
        }
      ],
      "stateMutability": "pure",
      "type": "function"
    }
  ],
  "transactionHash": "0x41cbf13966489fa9d25fa393a6c81e55dbb6e6e0fa85dc74526d6b1b2784f407",
  "args": [],
  "numDeployments": 3,
  "solcInputHash": "6f110f249a7efb928faefcd956f057af",
  "bytecode": "0x60806040523480156200001157600080fd5b50600054610100900460ff166200002f5760005460ff161562000039565b62000039620000de565b620000a15760405162461bcd60e51b815260206004820152602e60248201527f496e697469616c697a61626c653a20636f6e747261637420697320616c72656160448201526d191e481a5b9a5d1a585b1a5e995960921b606482015260840160405180910390fd5b600054610100900460ff16158015620000c4576000805461ffff19166101011790555b8015620000d7576000805461ff00191690555b5062000102565b6000620000f630620000fc60201b620018301760201c565b15905090565b3b151590565b61257480620001126000396000f3fe608060405234801561001057600080fd5b50600436106101e55760003560e01c8063897b06371161010f578063bd78b2b3116100a2578063da74222811610071578063da74222814610423578063e3e01f9f14610436578063f2fde38b14610449578063ffd49c841461045c57600080fd5b8063bd78b2b3146103e1578063c0677c47146103f4578063c453824f146103fd578063d0ebdbe71461041057600080fd5b80639b2cb5d8116100de5780639b2cb5d81461039f578063abcfd154146103a8578063b4cbc9e4146103bb578063b4e38a8d146103ce57600080fd5b8063897b0637146103485780638da5cb5b1461035b57806392c65f4b1461036c5780639498bd711461038c57600080fd5b8063572b6c0511610187578063715018a611610156578063715018a6146103145780637da0a8771461031c5780638456cb591461032d57806387eb01bf1461033557600080fd5b8063572b6c05146102995780635ba581cd146102cb5780635c975abb146102de5780636a82763c146102e957600080fd5b80633d2ae75d116101c35780633d2ae75d1461024e5780633f4ba83a14610261578063486ff0cd146102695780634b51dd221461029057600080fd5b806316ef2c41146101ea5780632a74cbb5146102265780632ce175781461023b575b600080fd5b6102136101f8366004611dde565b6001600160a01b03166000908152609a602052604090205490565b6040519081526020015b60405180910390f35b610239610234366004611e00565b610481565b005b610239610249366004611e34565b61057a565b61021361025c366004611ebc565b6105c8565b610239610b55565b60408051808201825260058152640322e322e360dc1b6020820152905161021d9190611f94565b610213609b5481565b6102bb6102a7366004611dde565b6097546001600160a01b0391821691161490565b604051901515815260200161021d565b6102396102d9366004611fe9565b610ba8565b60655460ff166102bb565b6098546102fc906001600160a01b031681565b6040516001600160a01b03909116815260200161021d565b610239610cd3565b6097546001600160a01b03166102fc565b610239610d26565b610239610343366004611e34565b610d77565b610239610356366004611e34565b610e75565b6033546001600160a01b03166102fc565b61037f61037a366004611e34565b610ec3565b60405161021d9190612090565b61023961039a366004611e34565b61107f565b610213609c5481565b6102396103b6366004611e34565b61116a565b6102396103c93660046121ff565b61130d565b6102136103dc366004612231565b6114ae565b6102396103ef366004611e34565b6114eb565b610213609e5481565b61023961040b36600461225b565b6115f1565b61023961041e366004611dde565b611656565b610239610431366004611dde565b6116c1565b610239610444366004611e34565b61172b565b610239610457366004611dde565b611779565b609d5461046c9063ffffffff1681565b60405163ffffffff909116815260200161021d565b6098546001600160a01b0316610495611836565b6001600160a01b0316146104c45760405162461bcd60e51b81526004016104bb90612276565b60405180910390fd5b6000828152609960205260409020600d8101546104f19063ffffffff80821691600160401b9004166122ab565b81600d0160086101000a81548163ffffffff021916908363ffffffff160217905550600181600901600082825461052891906122d3565b909155505080546040516001600160a01b039091169084907f39e94fc57f494ff14c5e6240aaa121bb05346a3baf4434132df8f9075d5874919061056d9086906122eb565b60405180910390a3505050565b610582611836565b6001600160a01b031661059d6033546001600160a01b031690565b6001600160a01b0316146105c35760405162461bcd60e51b81526004016104bb90612305565b609b55565b6000609c5487101561060f5760405162461bcd60e51b815260206004820152601060248201526f21494e56414c494428616d6f756e742960801b60448201526064016104bb565b609d5463ffffffff908116908616101561065e5760405162461bcd60e51b815260206004820152601060248201526f21494e56414c494428706572696f642960801b60448201526064016104bb565b609e548410156106a85760405162461bcd60e51b815260206004820152601560248201527421494e56414c494428736c6970706167654270732960581b60448201526064016104bb565b6106b5898e8e8e8e611845565b6106d15760405162461bcd60e51b81526004016104bb9061233a565b60008960028111156106e5576106e5612012565b14156107115760048c101561070c5760405162461bcd60e51b81526004016104bb9061233a565b61074c565b600189600281111561072557610725612012565b141561074c5760068c101561074c5760405162461bcd60e51b81526004016104bb9061233a565b6000610756611836565b8a8f8f8b8a4342604051602001610774989796959493929190612367565b60408051601f19818403018152918152815160209283012060008181526099909352912090915042906107a5611836565b81546001600160a01b03199081166001600160a01b03928316178355600183018054909116918d169190911790558f8f6000816107e4576107e4612408565b90506020020160208101906107f99190611dde565b6002820180546001600160a01b0319166001600160a01b03929092169190911790558f8f600181811061082e5761082e612408565b90506020020160208101906108439190611dde565b8160030160006101000a8154816001600160a01b0302191690836001600160a01b031602179055508f8f600290809261087e9392919061241e565b61088c91600e840191611c72565b50600481018a905560058101899055600d81018054600c8301889055600b8301879055600a830189905563ffffffff8a811667ffffffffffffffff1990921691909117640100000000918516918202176cffffffffff00000000000000001916600160401b9190910260ff60601b191617600160601b179055600f810180548d919060ff1916600183600281111561092657610926612012565b0217905550609a6000610937611836565b6001600160a01b0390811682526020808301939093526040918201600090812080546001810182559082529390209092018590556098549051637d0c250f60e11b81526004810186905291169063fa184a1e90602401600060405180830381600087803b1580156109a757600080fd5b505af11580156109bb573d6000803e3d6000fd5b50600192506109c8915050565b600d820154600160601b900460ff1660048111156109e8576109e8612012565b14610a265760405162461bcd60e51b815260206004820152600e60248201526d21554e50524f4345535341424c4560901b60448201526064016104bb565b8060080154600114610a6b5760405162461bcd60e51b815260206004820152600e60248201526d21554e50524f4345535341424c4560901b60448201526064016104bb565b60018101548154600e830180546001600160a01b03938416939092169186917f9d1e5b985dd0611bc11e93d5075cdea08f64d1d51dd07489e6f288c20cd6669091600090610abb57610abb612408565b600091825260209091200154600e860180546001600160a01b0390921691610ae59060019061244c565b81548110610af557610af5612408565b60009182526020918290200154604080516001600160a01b039485168152939091169183019190915281018f9052606081018e905263ffffffff8d16608082015260a00160405180910390a450909e9d5050505050505050505050505050565b610b5d611836565b6001600160a01b0316610b786033546001600160a01b031690565b6001600160a01b031614610b9e5760405162461bcd60e51b81526004016104bb90612305565b610ba6611916565b565b6098546001600160a01b0316610bbc611836565b6001600160a01b031614610be25760405162461bcd60e51b81526004016104bb90612276565b60008281526099602052604090206003826003811115610c0457610c04612012565b1415610c5d57600d8101805460ff60601b1916600160611b17905580546040516001600160a01b039091169084907f3d63c73b75a797c741bcfc0ae2644bc392388e97ea718a8731d44f47da2b23a490600090a3505050565b6001826003811115610c7157610c71612012565b1415610cce57600d810180546003919060ff60601b1916600160601b835b021790555080546040516001600160a01b039091169084907f5d3baeac0d91b82fe19cca4c28f0768ed59c65d7f64d48d53f166f9ec0f099c090600090a35b505050565b610cdb611836565b6001600160a01b0316610cf66033546001600160a01b031690565b6001600160a01b031614610d1c5760405162461bcd60e51b81526004016104bb90612305565b610ba660006119af565b610d2e611836565b6001600160a01b0316610d496033546001600160a01b031690565b6001600160a01b031614610d6f5760405162461bcd60e51b81526004016104bb90612305565b610ba6611a01565b60008181526099602052604090205481906001600160a01b0316610d99611836565b6001600160a01b031614610dbf5760405162461bcd60e51b81526004016104bb90612276565b60008281526099602052604090206001600d820154600160601b900460ff166004811115610def57610def612012565b1480610e1a57506002600d820154600160601b900460ff166004811115610e1857610e18612012565b145b610e595760405162461bcd60e51b815260206004820152601060248201526f21494e56414c4944287374617475732960801b60448201526064016104bb565b600d810180546003919060ff60601b1916600160601b83610c8f565b610e7d611836565b6001600160a01b0316610e986033546001600160a01b031690565b6001600160a01b031614610ebe5760405162461bcd60e51b81526004016104bb90612305565b609c55565b610ecb611cd5565b60008281526099602090815260409182902082516102608101845281546001600160a01b03908116825260018301548116938201939093526002820154831693810193909352600381015490911660608301526004808201546080840152600582015460a0840152600682015460c0840152600782015460e084015260088201546101008401526009820154610120840152600a820154610140840152600b820154610160840152600c820154610180840152600d82015463ffffffff8082166101a0860152640100000000820481166101c0860152600160401b8204166101e0850152610200840191600160601b90910460ff1690811115610fd057610fd0612012565b6004811115610fe157610fe1612012565b8152602001600e820180548060200260200160405190810160405280929190818152602001828054801561103e57602002820191906000526020600020905b81546001600160a01b03168152600190910190602001808311611020575b5050509183525050600f82015460209091019060ff16600281111561106557611065612012565b600281111561107657611076612012565b90525092915050565b600054610100900460ff1661109a5760005460ff161561109e565b303b155b6111015760405162461bcd60e51b815260206004820152602e60248201527f496e697469616c697a61626c653a20636f6e747261637420697320616c72656160448201526d191e481a5b9a5d1a585b1a5e995960921b60648201526084016104bb565b600054610100900460ff16158015611123576000805461ffff19166101011790555b61112b611a7d565b611133611ab4565b609b8290556001609c55609d805463ffffffff191662015180179055600a609e558015611166576000805461ff00191690555b5050565b60008181526099602052604090205481906001600160a01b031661118c611836565b6001600160a01b0316146111b25760405162461bcd60e51b81526004016104bb90612276565b60008281526099602052604090206002600d820154600160601b900460ff1660048111156111e2576111e2612012565b1461121d5760405162461bcd60e51b815260206004820152600b60248201526a085393d517d4105554d15160aa1b60448201526064016104bb565b600d8101805460ff60601b1916600160601b179081905563ffffffff428116600160401b90920416101561127157600d810180546bffffffff00000000000000001916600160401b4263ffffffff16021790555b609854604051637d0c250f60e11b8152600481018590526001600160a01b039091169063fa184a1e90602401600060405180830381600087803b1580156112b757600080fd5b505af11580156112cb573d6000803e3d6000fd5b505082546040516001600160a01b0390911692508591507f0d04c91a4cb25e87e66b2337207d34bd31384c15371c944d543b0d90c866e32c90600090a3505050565b6098546001600160a01b0316611321611836565b6001600160a01b0316146113475760405162461bcd60e51b81526004016104bb90612276565b6000848152609960205260409020600d8101546113749063ffffffff80821691600160401b9004166122ab565b81600d0160086101000a81548163ffffffff021916908363ffffffff160217905550838160060160008282546113aa91906122d3565b92505081905550828160070160008282546113c591906122d3565b9250508190555060018160080160008282546113e191906122d3565b9091555050805460408051868152602081018690529081018490526001600160a01b039091169086907f2cd977fbc4930a01c7a1d2d4f59916c67f5e443ee1b3efc3cf295b30b95499289060600160405180910390a36000816005015411801561145357508060050154816006015410155b156114a757600d8101805460ff60601b1916600160621b17905580546040516001600160a01b039091169086907fe91db046d37f56c01a0949ac11e488007e1e26ea683caaee32d54c4cea5d851b90600090a35b5050505050565b6001600160a01b0382166000908152609a602052604081208054839081106114d8576114d8612408565b9060005260206000200154905092915050565b60008181526099602052604090205481906001600160a01b031661150d611836565b6001600160a01b0316146115335760405162461bcd60e51b81526004016104bb90612276565b60008281526099602052604090206001600d820154600160601b900460ff16600481111561156357611563612012565b1461159e5760405162461bcd60e51b815260206004820152600b60248201526a214e4f545f41435449564560a81b60448201526064016104bb565b600d8101805460ff60601b1916600160611b17905580546040516001600160a01b039091169084907f3d63c73b75a797c741bcfc0ae2644bc392388e97ea718a8731d44f47da2b23a490600090a3505050565b6115f9611836565b6001600160a01b03166116146033546001600160a01b031690565b6001600160a01b03161461163a5760405162461bcd60e51b81526004016104bb90612305565b609d805463ffffffff191663ffffffff92909216919091179055565b61165e611836565b6001600160a01b03166116796033546001600160a01b031690565b6001600160a01b03161461169f5760405162461bcd60e51b81526004016104bb90612305565b609880546001600160a01b0319166001600160a01b0392909216919091179055565b6116c9611836565b6001600160a01b03166116e46033546001600160a01b031690565b6001600160a01b03161461170a5760405162461bcd60e51b81526004016104bb90612305565b609780546001600160a01b0319166001600160a01b03831617905550565b50565b611733611836565b6001600160a01b031661174e6033546001600160a01b031690565b6001600160a01b0316146117745760405162461bcd60e51b81526004016104bb90612305565b609e55565b611781611836565b6001600160a01b031661179c6033546001600160a01b031690565b6001600160a01b0316146117c25760405162461bcd60e51b81526004016104bb90612305565b6001600160a01b0381166118275760405162461bcd60e51b815260206004820152602660248201527f4f776e61626c653a206e6577206f776e657220697320746865207a65726f206160448201526564647265737360d01b60648201526084016104bb565b611728816119af565b3b151590565b6000611840611aeb565b905090565b600061190c8383808060200260200160405190810160405280939291908181526020018383602002808284376000920182905250609b5493508b92508a915089908161189357611893612408565b90506020020160208101906118a89190611dde565b898960018181106118bb576118bb612408565b90506020020160208101906118d09190611dde565b6118dd8a6002818e61241e565b6040516020016118f1959493929190612463565b60405160208183030381529060405280519060200120611b1f565b9695505050505050565b60655460ff1661195f5760405162461bcd60e51b815260206004820152601460248201527314185d5cd8589b194e881b9bdd081c185d5cd95960621b60448201526064016104bb565b6065805460ff191690557f5db9ee0a495bf2e6ff9c91a7834c1ba4fdd244a5e8aa4e537bd38aeae4b073aa611992611836565b6040516001600160a01b03909116815260200160405180910390a1565b603380546001600160a01b038381166001600160a01b0319831681179093556040519116919082907f8be0079c531659141344cd1fd0a4f28419497f9722a3daafe3b4186f6b6457e090600090a35050565b60655460ff1615611a475760405162461bcd60e51b815260206004820152601060248201526f14185d5cd8589b194e881c185d5cd95960821b60448201526064016104bb565b6065805460ff191660011790557f62e78cea01bee320cd4e420270b5ea74000d11b0c9f74754ebdbfc544b05a258611992611836565b600054610100900460ff16611aa45760405162461bcd60e51b81526004016104bb906124d8565b611aac611b35565b610ba6611b5c565b600054610100900460ff16611adb5760405162461bcd60e51b81526004016104bb906124d8565b611ae3611b35565b610ba6611b93565b600060143610801590611b0857506097546001600160a01b031633145b15611b1a575060131936013560601c90565b503390565b600082611b2c8584611bc6565b14949350505050565b600054610100900460ff16610ba65760405162461bcd60e51b81526004016104bb906124d8565b600054610100900460ff16611b835760405162461bcd60e51b81526004016104bb906124d8565b610ba6611b8e611836565b6119af565b600054610100900460ff16611bba5760405162461bcd60e51b81526004016104bb906124d8565b6065805460ff19169055565b600081815b8451811015611c6a576000858281518110611be857611be8612408565b60200260200101519050808311611c2a576040805160208101859052908101829052606001604051602081830303815290604052805190602001209250611c57565b60408051602081018390529081018490526060016040516020818303038152906040528051906020012092505b5080611c6281612523565b915050611bcb565b509392505050565b828054828255906000526020600020908101928215611cc5579160200282015b82811115611cc55781546001600160a01b0319166001600160a01b03843516178255602090920191600190910190611c92565b50611cd1929150611dad565b5090565b60405180610260016040528060006001600160a01b0316815260200160006001600160a01b0316815260200160006001600160a01b0316815260200160006001600160a01b03168152602001600081526020016000815260200160008152602001600081526020016000815260200160008152602001600081526020016000815260200160008152602001600063ffffffff168152602001600063ffffffff168152602001600063ffffffff16815260200160006004811115611d9a57611d9a612012565b8152606060208201526040016000905290565b5b80821115611cd15760008155600101611dae565b80356001600160a01b0381168114611dd957600080fd5b919050565b600060208284031215611df057600080fd5b611df982611dc2565b9392505050565b60008060408385031215611e1357600080fd5b82359150602083013560068110611e2957600080fd5b809150509250929050565b600060208284031215611e4657600080fd5b5035919050565b60008083601f840112611e5f57600080fd5b50813567ffffffffffffffff811115611e7757600080fd5b6020830191508360208260051b8501011115611e9257600080fd5b9250929050565b803560038110611dd957600080fd5b803563ffffffff81168114611dd957600080fd5b6000806000806000806000806000806000806101408d8f031215611edf57600080fd5b67ffffffffffffffff8d351115611ef557600080fd5b611f028e8e358f01611e4d565b909c509a5067ffffffffffffffff60208e01351115611f2057600080fd5b611f308e60208f01358f01611e4d565b909a509850611f4160408e01611e99565b9750611f4f60608e01611dc2565b965060808d0135955060a08d01359450611f6b60c08e01611ea8565b935060e08d013592506101008d013591506101208d013590509295989b509295989b509295989b565b600060208083528351808285015260005b81811015611fc157858101830151858201604001528201611fa5565b81811115611fd3576000604083870101525b50601f01601f1916929092016040019392505050565b60008060408385031215611ffc57600080fd5b82359150602083013560048110611e2957600080fd5b634e487b7160e01b600052602160045260246000fd5b6005811061203857612038612012565b9052565b600081518084526020808501945080840160005b838110156120755781516001600160a01b031687529582019590820190600101612050565b509495945050505050565b6003811061203857612038612012565b602081526120aa6020820183516001600160a01b03169052565b600060208301516120c660408401826001600160a01b03169052565b5060408301516001600160a01b03811660608401525060608301516001600160a01b038116608084015250608083015160a08381019190915283015160c08084019190915283015160e08084019190915283015161010080840191909152830151610120808401919091528301516101408084019190915283015161016080840191909152830151610180808401919091528301516101a0808401919091528301516101c061217c8185018363ffffffff169052565b84015190506101e06121958482018363ffffffff169052565b84015190506102006121ae8482018363ffffffff169052565b84015190506102206121c284820183612028565b8085015191505061026061024081818601526121e261028086018461203c565b908601519092506121f585830182612080565b5090949350505050565b6000806000806080858703121561221557600080fd5b5050823594602084013594506040840135936060013592509050565b6000806040838503121561224457600080fd5b61224d83611dc2565b946020939093013593505050565b60006020828403121561226d57600080fd5b611df982611ea8565b60208082526005908201526404282aaa8960db1b604082015260600190565b634e487b7160e01b600052601160045260246000fd5b600063ffffffff8083168185168083038211156122ca576122ca612295565b01949350505050565b600082198211156122e6576122e6612295565b500190565b60208101600683106122ff576122ff612012565b91905290565b6020808252818101527f4f776e61626c653a2063616c6c6572206973206e6f7420746865206f776e6572604082015260600190565b60208082526013908201527221494e56414c4944286173736574537065632960681b604082015260600190565b6bffffffffffffffffffffffff198960601b16815260006003891061238e5761238e612012565b8860f81b6014830152601582018860005b898110156123ce576001600160a01b036123b883611dc2565b168352602092830192919091019060010161239f565b50508681526123ec602082018760e01b6001600160e01b0319169052565b6024810194909452505060448201526064019695505050505050565b634e487b7160e01b600052603260045260246000fd5b6000808585111561242e57600080fd5b8386111561243b57600080fd5b5050600583901b0193919092039150565b60008282101561245e5761245e612295565b500390565b6000608082016124738389612080565b6001600160a01b038781166020858101919091528782166040860152608060608601529185905285919060a0850160005b878110156124c957826124b686611dc2565b16825293830193908301906001016124a4565b509a9950505050505050505050565b6020808252602b908201527f496e697469616c697a61626c653a20636f6e7472616374206973206e6f74206960408201526a6e697469616c697a696e6760a81b606082015260800190565b600060001982141561253757612537612295565b506001019056fea264697066735822122061cc87ac7445a9c89c38ce93ba0b041807ec78cfb37cd480690ebeb95c2762ee64736f6c63430008090033",
  "devdoc": {
    "kind": "dev",
    "methods": {
      "constructor": {
        "custom:oz-upgrades-unsafe-allow": "constructor"
      },
      "owner()": {
        "details": "Returns the address of the current owner."
      },
      "paused()": {
        "details": "Returns true if the contract is paused, and false otherwise."
      },
      "renounceOwnership()": {
        "details": "Leaves the contract without owner. It will not be possible to call `onlyOwner` functions anymore. Can only be called by the current owner. NOTE: Renouncing ownership will leave the contract without an owner, thereby removing any functionality that is only available to the owner."
      },
      "transferOwnership(address)": {
        "details": "Transfers ownership of the contract to a new account (`newOwner`). Can only be called by the current owner."
      }
    },
    "stateVariables": {
      "assetsMerkleRoot": {
        "details": "merkle root of approved assets. "
      },
      "dcaManager": {
        "details": "contract to manage DCA executions. "
      },
      "dcaMap": {
        "details": "map of DCA ID to DCA info. "
      },
      "minAmount": {
        "details": "minimum amount of vault base asset for a DCA. "
      },
      "minPeriod": {
        "details": "minimum period for a DCA. "
      },
      "minSlippage": {
        "details": "minimum slippage allowed for a DCA. "
      }
    },
    "version": 1
  },
  "userdoc": {
    "kind": "user",
    "methods": {
      "isTrustedForwarder(address)": {
        "notice": "return if the forwarder is trusted to forward relayed transactions to us. the forwarder is required to verify the sender's signature, and verify the call is not a replay."
      }
    },
    "version": 1
  },
  "storageLayout": {
    "storage": [
      {
        "astId": 327,
        "contract": "contracts/dca/CaskDCA.sol:CaskDCA",
        "label": "_initialized",
        "offset": 0,
        "slot": "0",
        "type": "t_bool"
      },
      {
        "astId": 330,
        "contract": "contracts/dca/CaskDCA.sol:CaskDCA",
        "label": "_initializing",
        "offset": 1,
        "slot": "0",
        "type": "t_bool"
      },
      {
        "astId": 2551,
        "contract": "contracts/dca/CaskDCA.sol:CaskDCA",
        "label": "__gap",
        "offset": 0,
        "slot": "1",
        "type": "t_array(t_uint256)50_storage"
      },
      {
        "astId": 205,
        "contract": "contracts/dca/CaskDCA.sol:CaskDCA",
        "label": "_owner",
        "offset": 0,
        "slot": "51",
        "type": "t_address"
      },
      {
        "astId": 319,
        "contract": "contracts/dca/CaskDCA.sol:CaskDCA",
        "label": "__gap",
        "offset": 0,
        "slot": "52",
        "type": "t_array(t_uint256)49_storage"
      },
      {
        "astId": 415,
        "contract": "contracts/dca/CaskDCA.sol:CaskDCA",
        "label": "_paused",
        "offset": 0,
        "slot": "101",
        "type": "t_bool"
      },
      {
        "astId": 506,
        "contract": "contracts/dca/CaskDCA.sol:CaskDCA",
        "label": "__gap",
        "offset": 0,
        "slot": "102",
        "type": "t_array(t_uint256)49_storage"
      },
      {
        "astId": 72,
        "contract": "contracts/dca/CaskDCA.sol:CaskDCA",
        "label": "_trustedForwarder",
        "offset": 0,
        "slot": "151",
        "type": "t_address"
      },
      {
        "astId": 10277,
        "contract": "contracts/dca/CaskDCA.sol:CaskDCA",
        "label": "dcaManager",
        "offset": 0,
        "slot": "152",
        "type": "t_contract(ICaskDCAManager)13060"
      },
      {
        "astId": 10283,
        "contract": "contracts/dca/CaskDCA.sol:CaskDCA",
        "label": "dcaMap",
        "offset": 0,
        "slot": "153",
        "type": "t_mapping(t_bytes32,t_struct(DCA)12876_storage)"
      },
      {
        "astId": 10288,
        "contract": "contracts/dca/CaskDCA.sol:CaskDCA",
        "label": "userDCAs",
        "offset": 0,
        "slot": "154",
        "type": "t_mapping(t_address,t_array(t_bytes32)dyn_storage)"
      },
      {
        "astId": 10291,
        "contract": "contracts/dca/CaskDCA.sol:CaskDCA",
        "label": "assetsMerkleRoot",
        "offset": 0,
        "slot": "155",
        "type": "t_bytes32"
      },
      {
        "astId": 10294,
        "contract": "contracts/dca/CaskDCA.sol:CaskDCA",
        "label": "minAmount",
        "offset": 0,
        "slot": "156",
        "type": "t_uint256"
      },
      {
        "astId": 10297,
        "contract": "contracts/dca/CaskDCA.sol:CaskDCA",
        "label": "minPeriod",
        "offset": 0,
        "slot": "157",
        "type": "t_uint32"
      },
      {
        "astId": 10300,
        "contract": "contracts/dca/CaskDCA.sol:CaskDCA",
        "label": "minSlippage",
        "offset": 0,
        "slot": "158",
        "type": "t_uint256"
      }
    ],
    "types": {
      "t_address": {
        "encoding": "inplace",
        "label": "address",
        "numberOfBytes": "20"
      },
      "t_array(t_address)dyn_storage": {
        "base": "t_address",
        "encoding": "dynamic_array",
        "label": "address[]",
        "numberOfBytes": "32"
      },
      "t_array(t_bytes32)dyn_storage": {
        "base": "t_bytes32",
        "encoding": "dynamic_array",
        "label": "bytes32[]",
        "numberOfBytes": "32"
      },
      "t_array(t_uint256)49_storage": {
        "base": "t_uint256",
        "encoding": "inplace",
        "label": "uint256[49]",
        "numberOfBytes": "1568"
      },
      "t_array(t_uint256)50_storage": {
        "base": "t_uint256",
        "encoding": "inplace",
        "label": "uint256[50]",
        "numberOfBytes": "1600"
      },
      "t_bool": {
        "encoding": "inplace",
        "label": "bool",
        "numberOfBytes": "1"
      },
      "t_bytes32": {
        "encoding": "inplace",
        "label": "bytes32",
        "numberOfBytes": "32"
      },
      "t_contract(ICaskDCAManager)13060": {
        "encoding": "inplace",
        "label": "contract ICaskDCAManager",
        "numberOfBytes": "20"
      },
      "t_enum(DCAStatus)12822": {
        "encoding": "inplace",
        "label": "enum ICaskDCA.DCAStatus",
        "numberOfBytes": "1"
      },
      "t_enum(SwapProtocol)12816": {
        "encoding": "inplace",
        "label": "enum ICaskDCA.SwapProtocol",
        "numberOfBytes": "1"
      },
      "t_mapping(t_address,t_array(t_bytes32)dyn_storage)": {
        "encoding": "mapping",
        "key": "t_address",
        "label": "mapping(address => bytes32[])",
        "numberOfBytes": "32",
        "value": "t_array(t_bytes32)dyn_storage"
      },
      "t_mapping(t_bytes32,t_struct(DCA)12876_storage)": {
        "encoding": "mapping",
        "key": "t_bytes32",
        "label": "mapping(bytes32 => struct ICaskDCA.DCA)",
        "numberOfBytes": "32",
        "value": "t_struct(DCA)12876_storage"
      },
      "t_struct(DCA)12876_storage": {
        "encoding": "inplace",
        "label": "struct ICaskDCA.DCA",
        "members": [
          {
            "astId": 12836,
            "contract": "contracts/dca/CaskDCA.sol:CaskDCA",
            "label": "user",
            "offset": 0,
            "slot": "0",
            "type": "t_address"
          },
          {
            "astId": 12838,
            "contract": "contracts/dca/CaskDCA.sol:CaskDCA",
            "label": "to",
            "offset": 0,
            "slot": "1",
            "type": "t_address"
          },
          {
            "astId": 12840,
            "contract": "contracts/dca/CaskDCA.sol:CaskDCA",
            "label": "router",
            "offset": 0,
            "slot": "2",
            "type": "t_address"
          },
          {
            "astId": 12842,
            "contract": "contracts/dca/CaskDCA.sol:CaskDCA",
            "label": "priceFeed",
            "offset": 0,
            "slot": "3",
            "type": "t_address"
          },
          {
            "astId": 12844,
            "contract": "contracts/dca/CaskDCA.sol:CaskDCA",
            "label": "amount",
            "offset": 0,
            "slot": "4",
            "type": "t_uint256"
          },
          {
            "astId": 12846,
            "contract": "contracts/dca/CaskDCA.sol:CaskDCA",
            "label": "totalAmount",
            "offset": 0,
            "slot": "5",
            "type": "t_uint256"
          },
          {
            "astId": 12848,
            "contract": "contracts/dca/CaskDCA.sol:CaskDCA",
            "label": "currentAmount",
            "offset": 0,
            "slot": "6",
            "type": "t_uint256"
          },
          {
            "astId": 12850,
            "contract": "contracts/dca/CaskDCA.sol:CaskDCA",
            "label": "currentQty",
            "offset": 0,
            "slot": "7",
            "type": "t_uint256"
          },
          {
            "astId": 12852,
            "contract": "contracts/dca/CaskDCA.sol:CaskDCA",
            "label": "numBuys",
            "offset": 0,
            "slot": "8",
            "type": "t_uint256"
          },
          {
            "astId": 12854,
            "contract": "contracts/dca/CaskDCA.sol:CaskDCA",
            "label": "numSkips",
            "offset": 0,
            "slot": "9",
            "type": "t_uint256"
          },
          {
            "astId": 12856,
            "contract": "contracts/dca/CaskDCA.sol:CaskDCA",
            "label": "slippageBps",
            "offset": 0,
            "slot": "10",
            "type": "t_uint256"
          },
          {
            "astId": 12858,
            "contract": "contracts/dca/CaskDCA.sol:CaskDCA",
            "label": "maxPrice",
            "offset": 0,
            "slot": "11",
            "type": "t_uint256"
          },
          {
            "astId": 12860,
            "contract": "contracts/dca/CaskDCA.sol:CaskDCA",
            "label": "minPrice",
            "offset": 0,
            "slot": "12",
            "type": "t_uint256"
          },
          {
            "astId": 12862,
            "contract": "contracts/dca/CaskDCA.sol:CaskDCA",
            "label": "period",
            "offset": 0,
            "slot": "13",
            "type": "t_uint32"
          },
          {
            "astId": 12864,
            "contract": "contracts/dca/CaskDCA.sol:CaskDCA",
            "label": "createdAt",
            "offset": 4,
            "slot": "13",
            "type": "t_uint32"
          },
          {
            "astId": 12866,
            "contract": "contracts/dca/CaskDCA.sol:CaskDCA",
            "label": "processAt",
            "offset": 8,
            "slot": "13",
            "type": "t_uint32"
          },
          {
            "astId": 12869,
            "contract": "contracts/dca/CaskDCA.sol:CaskDCA",
            "label": "status",
            "offset": 12,
            "slot": "13",
            "type": "t_enum(DCAStatus)12822"
          },
          {
            "astId": 12872,
            "contract": "contracts/dca/CaskDCA.sol:CaskDCA",
            "label": "path",
            "offset": 0,
            "slot": "14",
            "type": "t_array(t_address)dyn_storage"
          },
          {
            "astId": 12875,
            "contract": "contracts/dca/CaskDCA.sol:CaskDCA",
            "label": "swapProtocol",
            "offset": 0,
            "slot": "15",
            "type": "t_enum(SwapProtocol)12816"
          }
        ],
        "numberOfBytes": "512"
      },
      "t_uint256": {
        "encoding": "inplace",
        "label": "uint256",
        "numberOfBytes": "32"
      },
      "t_uint32": {
        "encoding": "inplace",
        "label": "uint32",
        "numberOfBytes": "4"
      }
    }
  }
}