{
  "address": "0xe8F7200f38070d1B122E9a3182015ED31A1E2387",
  "abi": [
    {
      "inputs": [],
      "stateMutability": "nonpayable",
      "type": "constructor"
    },
    {
      "anonymous": false,
      "inputs": [
        {
          "indexed": true,
          "internalType": "address",
          "name": "previousOwner",
          "type": "address"
        },
        {
          "indexed": true,
          "internalType": "address",
          "name": "newOwner",
          "type": "address"
        }
      ],
      "name": "OwnershipTransferred",
      "type": "event"
    },
    {
      "anonymous": false,
      "inputs": [
        {
          "indexed": false,
          "internalType": "address",
          "name": "account",
          "type": "address"
        }
      ],
      "name": "Paused",
      "type": "event"
    },
    {
      "anonymous": false,
      "inputs": [
        {
          "indexed": false,
          "internalType": "uint256",
          "name": "limit",
          "type": "uint256"
        },
        {
          "indexed": false,
          "internalType": "uint256",
          "name": "renewals",
          "type": "uint256"
        },
        {
          "indexed": false,
          "internalType": "uint256",
          "name": "depth",
          "type": "uint256"
        },
        {
          "indexed": false,
          "internalType": "enum ICaskSubscriptionManager.CheckType",
          "name": "checkType",
          "type": "uint8"
        },
        {
          "indexed": false,
          "internalType": "uint256",
          "name": "queueRemaining",
          "type": "uint256"
        },
        {
          "indexed": false,
          "internalType": "uint32",
          "name": "currentBucket",
          "type": "uint32"
        }
      ],
      "name": "SubscriptionManagerReport",
      "type": "event"
    },
    {
      "anonymous": false,
      "inputs": [
        {
          "indexed": false,
          "internalType": "address",
          "name": "account",
          "type": "address"
        }
      ],
      "name": "Unpaused",
      "type": "event"
    },
    {
      "inputs": [
        {
          "internalType": "bytes",
          "name": "checkData",
          "type": "bytes"
        }
      ],
      "name": "checkUpkeep",
      "outputs": [
        {
          "internalType": "bool",
          "name": "upkeepNeeded",
          "type": "bool"
        },
        {
          "internalType": "bytes",
          "name": "performData",
          "type": "bytes"
        }
      ],
      "stateMutability": "view",
      "type": "function"
    },
    {
      "inputs": [
        {
          "internalType": "address",
          "name": "_vault",
          "type": "address"
        },
        {
          "internalType": "address",
          "name": "_subscriptionPlans",
          "type": "address"
        },
        {
          "internalType": "address",
          "name": "_subscriptions",
          "type": "address"
        }
      ],
      "name": "initialize",
      "outputs": [],
      "stateMutability": "nonpayable",
      "type": "function"
    },
    {
      "inputs": [],
      "name": "owner",
      "outputs": [
        {
          "internalType": "address",
          "name": "",
          "type": "address"
        }
      ],
      "stateMutability": "view",
      "type": "function"
    },
    {
      "inputs": [],
      "name": "pause",
      "outputs": [],
      "stateMutability": "nonpayable",
      "type": "function"
    },
    {
      "inputs": [],
      "name": "paused",
      "outputs": [
        {
          "internalType": "bool",
          "name": "",
          "type": "bool"
        }
      ],
      "stateMutability": "view",
      "type": "function"
    },
    {
      "inputs": [],
      "name": "paymentFeeMin",
      "outputs": [
        {
          "internalType": "uint256",
          "name": "",
          "type": "uint256"
        }
      ],
      "stateMutability": "view",
      "type": "function"
    },
    {
      "inputs": [],
      "name": "paymentFeeRateMax",
      "outputs": [
        {
          "internalType": "uint256",
          "name": "",
          "type": "uint256"
        }
      ],
      "stateMutability": "view",
      "type": "function"
    },
    {
      "inputs": [],
      "name": "paymentFeeRateMin",
      "outputs": [
        {
          "internalType": "uint256",
          "name": "",
          "type": "uint256"
        }
      ],
      "stateMutability": "view",
      "type": "function"
    },
    {
      "inputs": [],
      "name": "paymentMinValue",
      "outputs": [
        {
          "internalType": "uint256",
          "name": "",
          "type": "uint256"
        }
      ],
      "stateMutability": "view",
      "type": "function"
    },
    {
      "inputs": [
        {
          "internalType": "bytes",
          "name": "performData",
          "type": "bytes"
        }
      ],
      "name": "performUpkeep",
      "outputs": [],
      "stateMutability": "nonpayable",
      "type": "function"
    },
    {
      "inputs": [],
      "name": "processBucketSize",
      "outputs": [
        {
          "internalType": "uint32",
          "name": "",
          "type": "uint32"
        }
      ],
      "stateMutability": "view",
      "type": "function"
    },
    {
      "inputs": [
        {
          "internalType": "address",
          "name": "_consumer",
          "type": "address"
        },
        {
          "internalType": "address",
          "name": "_provider",
          "type": "address"
        },
        {
          "internalType": "uint256",
          "name": "_subscriptionId",
          "type": "uint256"
        },
        {
          "internalType": "uint256",
          "name": "_value",
          "type": "uint256"
        }
      ],
      "name": "processSinglePayment",
      "outputs": [
        {
          "internalType": "bool",
          "name": "",
          "type": "bool"
        }
      ],
      "stateMutability": "nonpayable",
      "type": "function"
    },
    {
      "inputs": [
        {
          "internalType": "enum ICaskSubscriptionManager.CheckType",
          "name": "_checkType",
          "type": "uint8"
        },
        {
          "internalType": "uint32",
          "name": "_bucket",
          "type": "uint32"
        },
        {
          "internalType": "uint256",
          "name": "_idx",
          "type": "uint256"
        }
      ],
      "name": "queueItem",
      "outputs": [
        {
          "internalType": "uint256",
          "name": "",
          "type": "uint256"
        }
      ],
      "stateMutability": "view",
      "type": "function"
    },
    {
      "inputs": [
        {
          "internalType": "enum ICaskSubscriptionManager.CheckType",
          "name": "_checkType",
          "type": "uint8"
        }
      ],
      "name": "queuePosition",
      "outputs": [
        {
          "internalType": "uint32",
          "name": "",
          "type": "uint32"
        }
      ],
      "stateMutability": "view",
      "type": "function"
    },
    {
      "inputs": [
        {
          "internalType": "enum ICaskSubscriptionManager.CheckType",
          "name": "_checkType",
          "type": "uint8"
        },
        {
          "internalType": "uint32",
          "name": "_bucket",
          "type": "uint32"
        }
      ],
      "name": "queueSize",
      "outputs": [
        {
          "internalType": "uint256",
          "name": "",
          "type": "uint256"
        }
      ],
      "stateMutability": "view",
      "type": "function"
    },
    {
      "inputs": [
        {
          "internalType": "uint256",
          "name": "_subscriptionId",
          "type": "uint256"
        }
      ],
      "name": "renewSubscription",
      "outputs": [],
      "stateMutability": "nonpayable",
      "type": "function"
    },
    {
      "inputs": [],
      "name": "renounceOwnership",
      "outputs": [],
      "stateMutability": "nonpayable",
      "type": "function"
    },
    {
      "inputs": [
        {
          "internalType": "uint256",
          "name": "_paymentMinValue",
          "type": "uint256"
        },
        {
          "internalType": "uint256",
          "name": "_paymentFeeMin",
          "type": "uint256"
        },
        {
          "internalType": "uint256",
          "name": "_paymentFeeRateMin",
          "type": "uint256"
        },
        {
          "internalType": "uint256",
          "name": "_paymentFeeRateMax",
          "type": "uint256"
        },
        {
          "internalType": "uint256",
          "name": "_stakeTargetFactor",
          "type": "uint256"
        },
        {
          "internalType": "uint32",
          "name": "_processBucketSize",
          "type": "uint32"
        }
      ],
      "name": "setParameters",
      "outputs": [],
      "stateMutability": "nonpayable",
      "type": "function"
    },
    {
      "inputs": [
        {
          "internalType": "enum ICaskSubscriptionManager.CheckType",
          "name": "_checkType",
          "type": "uint8"
        },
        {
          "internalType": "uint32",
          "name": "_timestamp",
          "type": "uint32"
        }
      ],
      "name": "setProcessingBucket",
      "outputs": [],
      "stateMutability": "nonpayable",
      "type": "function"
    },
    {
      "inputs": [],
      "name": "stakeTargetFactor",
      "outputs": [
        {
          "internalType": "uint256",
          "name": "",
          "type": "uint256"
        }
      ],
      "stateMutability": "view",
      "type": "function"
    },
    {
      "inputs": [],
      "name": "subscriptionPlans",
      "outputs": [
        {
          "internalType": "contract ICaskSubscriptionPlans",
          "name": "",
          "type": "address"
        }
      ],
      "stateMutability": "view",
      "type": "function"
    },
    {
      "inputs": [],
      "name": "subscriptions",
      "outputs": [
        {
          "internalType": "contract ICaskSubscriptions",
          "name": "",
          "type": "address"
        }
      ],
      "stateMutability": "view",
      "type": "function"
    },
    {
      "inputs": [
        {
          "internalType": "address",
          "name": "newOwner",
          "type": "address"
        }
      ],
      "name": "transferOwnership",
      "outputs": [],
      "stateMutability": "nonpayable",
      "type": "function"
    },
    {
      "inputs": [],
      "name": "unpause",
      "outputs": [],
      "stateMutability": "nonpayable",
      "type": "function"
    },
    {
      "inputs": [],
      "name": "vault",
      "outputs": [
        {
          "internalType": "contract ICaskVault",
          "name": "",
          "type": "address"
        }
      ],
      "stateMutability": "view",
      "type": "function"
    }
  ],
  "transactionHash": "0x50a992b8f3ec4029e8d8b3472cd813be57f91b567c17a16d4b1b8f087b716ddb",
  "args": [],
  "numDeployments": 5,
  "solcInputHash": "c1e8a22321c551549d63b608e6642bfe",
  "bytecode": "0x60806040523480156200001157600080fd5b50600054610100900460ff166200002f5760005460ff161562000039565b62000039620000de565b620000a15760405162461bcd60e51b815260206004820152602e60248201527f496e697469616c697a61626c653a20636f6e747261637420697320616c72656160448201526d191e481a5b9a5d1a585b1a5e995960921b606482015260840160405180910390fd5b600054610100900460ff16158015620000c4576000805461ffff19166101011790555b8015620000d7576000805461ff00191690555b5062000102565b6000620000f630620000fc60201b620010fd1760201c565b15905090565b3b151590565b612e6a80620001126000396000f3fe608060405234801561001057600080fd5b50600436106101735760003560e01c80638fe17b16116100de578063c0c53b8b11610097578063d71bb37b11610071578063d71bb37b146102ff578063e775d1ac14610312578063f2fde38b14610325578063fbfa77cf1461033857600080fd5b8063c0c53b8b146102d0578063c54c58c4146102e3578063c83cbe89146102f657600080fd5b80638fe17b161461026b57806393357f581461027e578063a76d67b81461028e578063aa878f76146102a1578063b8e381e5146102b4578063badf4b3e146102c757600080fd5b80634585e33b116101305780634585e33b146101eb5780635c975abb146101fe5780636e04ff0d14610215578063715018a6146102365780638456cb591461023e5780638da5cb5b1461024657600080fd5b806308e27a991461017857806314fad707146101945780631c39033c146101a7578063219e24c5146101cf5780633d3ce926146101d85780633f4ba83a146101e1575b600080fd5b610181609d5481565b6040519081526020015b60405180910390f35b6101816101a236600461251a565b61034b565b6101ba6101b536600461255b565b6103c5565b60405163ffffffff909116815260200161018b565b610181609b5481565b61018160a15481565b6101e961040b565b005b6101e96101f9366004612578565b610448565b60655460ff165b604051901515815260200161018b565b610228610223366004612578565b610993565b60405161018b929190612616565b6101e9610b97565b6101e9610bcb565b6033546001600160a01b03165b6040516001600160a01b03909116815260200161018b565b609754610253906001600160a01b031681565b609e546101ba9063ffffffff1681565b6101e961029c366004612652565b610bfd565b6101816102af366004612652565b610c87565b609854610253906001600160a01b031681565b610181609c5481565b6101e96102de3660046126a0565b610cdc565b6102056102f13660046126eb565b610ea4565b610181609a5481565b6101e961030d366004612731565b610f09565b6101e961032036600461274a565b610f38565b6101e961033336600461279f565b611065565b609954610253906001600160a01b031681565b6000609f6000856002811115610363576103636127bc565b6002811115610374576103746127bc565b815260200190815260200160002060008463ffffffff1663ffffffff16815260200190815260200160002082815481106103b0576103b06127d2565b906000526020600020015490505b9392505050565b600060a060008360028111156103dd576103dd6127bc565b60028111156103ee576103ee6127bc565b815260208101919091526040016000205463ffffffff1692915050565b6033546001600160a01b0316331461043e5760405162461bcd60e51b8152600401610435906127e8565b60405180910390fd5b610446611103565b565b60655460ff161561046b5760405162461bcd60e51b81526004016104359061281d565b6000808061047b84860186612847565b925092509250600061048b611196565b905060008061049b86600561288b565b905060a060008560028111156104b3576104b36127bc565b60028111156104c4576104c46127bc565b815260208101919091526040016000205463ffffffff16610534578260a060008660028111156104f6576104f66127bc565b6002811115610507576105076127bc565b815260200190815260200160002060006101000a81548163ffffffff021916908363ffffffff1602179055505b85821080156105435750600081115b801561059257508263ffffffff1660a06000866002811115610567576105676127bc565b6002811115610578576105786127bc565b815260208101919091526040016000205463ffffffff1611155b15610883576000609f60008660028111156105af576105af6127bc565b60028111156105c0576105c06127bc565b8152602001908152602001600020600060a060008860028111156105e6576105e66127bc565b60028111156105f7576105f76127bc565b8152602080820192909252604090810160009081205463ffffffff168452918301939093529101902054905080156107a2576000609f6000876002811115610641576106416127bc565b6002811115610652576106526127bc565b8152602001908152602001600020600060a06000896002811115610678576106786127bc565b6002811115610689576106896127bc565b8152602080820192909252604090810160009081205463ffffffff16845291830193909352910190206106bd6001846128aa565b815481106106cd576106cd6127d2565b90600052602060002001549050609f60008760028111156106f0576106f06127bc565b6002811115610701576107016127bc565b8152602001908152602001600020600060a06000896002811115610727576107276127bc565b6002811115610738576107386127bc565b8152602080820192909252604090810160009081205463ffffffff1684529183019390935291019020805480610770576107706128c1565b6001900381819060005260206000200160009055905561078f816111be565b61079a6001856128d7565b93505061087d565b8363ffffffff1660a060008760028111156107bf576107bf6127bc565b60028111156107d0576107d06127bc565b815260208101919091526040016000205463ffffffff16101561087757609e5463ffffffff1660a0600087600281111561080c5761080c6127bc565b600281111561081d5761081d6127bc565b815260208101919091526040016000908120805490919061084590849063ffffffff166128ef565b92506101000a81548163ffffffff021916908363ffffffff16021790555060018261087091906128aa565b915061087d565b50610883565b50610534565b7f75a64c7d044cacf7f5733a40d9f770446e4a977483bf14d9e58752255a62785386838787609f60008a60028111156108be576108be6127bc565b60028111156108cf576108cf6127bc565b8152602001908152602001600020600060a060008c60028111156108f5576108f56127bc565b6002811115610906576109066127bc565b8152602080820192909252604090810160009081205463ffffffff1684529183019390935291018120549060a0908b6002811115610946576109466127bc565b6002811115610957576109576127bc565b81526020810191909152604090810160002054905161098196959493929163ffffffff169061292b565b60405180910390a15050505050505050565b600060608180806109a686880188612847565b92509250925060006109b6611196565b905060009550600060a060008460028111156109d4576109d46127bc565b60028111156109e5576109e56127bc565b815260208101919091526040016000205463ffffffff16905080610a065750805b8063ffffffff168263ffffffff1610158015610a325750610e10610a2a828461296a565b63ffffffff16115b15610a405760019650610b1f565b8163ffffffff168163ffffffff1611610b1f576000609f6000856002811115610a6b57610a6b6127bc565b6002811115610a7c57610a7c6127bc565b81526020808201929092526040908101600090812063ffffffff86168252909252902054118015610af7575083609f6000856002811115610abf57610abf6127bc565b6002811115610ad057610ad06127bc565b81526020808201929092526040908101600090812063ffffffff8616825290925290205410155b15610b055760019650610b1f565b609e54610b189063ffffffff16826128ef565b9050610a40565b84609f6000856002811115610b3657610b366127bc565b6002811115610b4757610b476127bc565b81526020808201929092526040908101600090812063ffffffff861682528352819020549051610b7a939287910161298f565b604051602081830303815290604052955050505050509250929050565b6033546001600160a01b03163314610bc15760405162461bcd60e51b8152600401610435906127e8565b6104466000611bc4565b6033546001600160a01b03163314610bf55760405162461bcd60e51b8152600401610435906127e8565b610446611c16565b6033546001600160a01b03163314610c275760405162461bcd60e51b8152600401610435906127e8565b610c3081611c6e565b60a06000846002811115610c4657610c466127bc565b6002811115610c5757610c576127bc565b815260200190815260200160002060006101000a81548163ffffffff021916908363ffffffff1602179055505050565b6000609f6000846002811115610c9f57610c9f6127bc565b6002811115610cb057610cb06127bc565b81526020808201929092526040908101600090812063ffffffff86168252909252902054905092915050565b600054610100900460ff16610cf75760005460ff1615610cfb565b303b155b610d5e5760405162461bcd60e51b815260206004820152602e60248201527f496e697469616c697a61626c653a20636f6e747261637420697320616c72656160448201526d191e481a5b9a5d1a585b1a5e995960921b6064820152608401610435565b600054610100900460ff16158015610d80576000805461ffff19166101011790555b610d88611c9e565b610d90611cd5565b609780546001600160a01b038086166001600160a01b031992831617909255609880548584169083161790556099805492871692909116919091179055600060a1819055609a819055609b819055609c819055609d55609e805463ffffffff191661012c179055610dff611196565b600160005260a06020527f5e4aa62fc514c001129aba2f8cfdadfdbf7b1cca3faf4a1fee3af14b1315f0dd805463ffffffff191663ffffffff92909216919091179055610e4a611196565b600260005260a06020527e3e94880a29ff53e6a8208a04e96e212c12922b7bda6b10d8c1979e9844e678805463ffffffff191663ffffffff929092169190911790558015610e9e576000805461ff00191690555b50505050565b6098546000906001600160a01b0316336001600160a01b031614610ef25760405162461bcd60e51b815260206004820152600560248201526404282aaa8960db1b6044820152606401610435565b610efe85858585611d0c565b90505b949350505050565b60655460ff1615610f2c5760405162461bcd60e51b81526004016104359061281d565b610f35816111be565b50565b6033546001600160a01b03163314610f625760405162461bcd60e51b8152600401610435906127e8565b60a1869055609a859055609b849055609c839055609d829055609e805463ffffffff191663ffffffff8316179055610fc760a0600060015b6002811115610fab57610fab6127bc565b815260208101919091526040016000205463ffffffff16611c6e565b6001600090815260a060208190527f5e4aa62fc514c001129aba2f8cfdadfdbf7b1cca3faf4a1fee3af14b1315f0dd805463ffffffff191663ffffffff949094169390931790925561101b91906002610f9a565b600260005260a06020527e3e94880a29ff53e6a8208a04e96e212c12922b7bda6b10d8c1979e9844e678805463ffffffff191663ffffffff92909216919091179055505050505050565b6033546001600160a01b0316331461108f5760405162461bcd60e51b8152600401610435906127e8565b6001600160a01b0381166110f45760405162461bcd60e51b815260206004820152602660248201527f4f776e61626c653a206e6577206f776e657220697320746865207a65726f206160448201526564647265737360d01b6064820152608401610435565b610f3581611bc4565b3b151590565b60655460ff1661114c5760405162461bcd60e51b815260206004820152601460248201527314185d5cd8589b194e881b9bdd081c185d5cd95960621b6044820152606401610435565b6065805460ff191690557f5db9ee0a495bf2e6ff9c91a7834c1ba4fdd244a5e8aa4e537bd38aeae4b073aa335b6040516001600160a01b03909116815260200160405180910390a1565b609e5460009042906111ae9063ffffffff16826129c0565b6111b8908261296a565b91505090565b60985460405163dc311dd360e01b81526004810183905260009182916001600160a01b039091169063dc311dd39060240160006040518083038186803b15801561120757600080fd5b505afa15801561121b573d6000803e3d6000fd5b505050506040513d6000823e601f3d908101601f191682016040526112439190810190612ad5565b90925090504260038360c001516006811115611261576112616127bc565b1480611282575060048360c001516006811115611280576112806127bc565b145b806112a2575060008360c0015160068111156112a0576112a06127bc565b145b156112ad5750505050565b8063ffffffff1683610120015163ffffffff1611156113355760016000908152609f6020526101208401517fd8ebc4b3e3fc84fb7267bc9651f22e5107e8b4ddef6b7d4ac503c1ca7368470b919061130490611c6e565b63ffffffff168152602080820192909252604001600090812080546001810182559082529190200193909355505050565b60068360c00151600681111561134d5761134d6127bc565b14156113be57609854604051633efbd95560e11b81526001600160a01b0390911690637df7b2aa90611386908790600690600401612c2b565b600060405180830381600087803b1580156113a057600080fd5b505af11580156113b4573d6000803e3d6000fd5b5050505050505050565b600083610160015163ffffffff161180156113ea57508063ffffffff1683610160015163ffffffff1611155b8061154f5750600260975460a085015160e086015160405163b6ab359f60e01b81526001600160a01b03928316600482015263ffffffff909116602482015291169063b6ab359f9060440160206040518083038186803b15801561144d57600080fd5b505afa158015611461573d6000803e3d6000fd5b505050506040513d601f19601f820116820180604052508101906114859190612c4f565b6002811115611496576114966127bc565b14801561154f575060975460a084015160e085015160405163025b687560e01b815263ffffffff8516936001600160a01b03169263025b6875926114f6926004016001600160a01b0392909216825263ffffffff16602082015260400190565b60206040518083038186803b15801561150e57600080fd5b505afa158015611522573d6000803e3d6000fd5b505050506040513d601f19601f820116820180604052508101906115469190612c6c565b63ffffffff1611155b1561158757609854604051633efbd95560e11b81526001600160a01b0390911690637df7b2aa90611386908790600290600401612c2b565b60985460405163321b9a5560e21b8152600481018690526000916001600160a01b03169063c86e69549060240160206040518083038186803b1580156115cc57600080fd5b505afa1580156115e0573d6000803e3d6000fd5b505050506040513d601f19601f820116820180604052508101906116049190612c89565b11156116f357609854604051633efbd95560e11b81526001600160a01b0390911690637df7b2aa9061163d908790600190600401612c2b565b600060405180830381600087803b15801561165757600080fd5b505af115801561166b573d6000803e3d6000fd5b505060985460405163dc311dd360e01b8152600481018890526001600160a01b03909116925063dc311dd3915060240160006040518083038186803b1580156116b357600080fd5b505afa1580156116c7573d6000803e3d6000fd5b505050506040513d6000823e601f3d908101601f191682016040526116ef9190810190612ad5565b5092505b60006117028460000151611f85565b80519091508061171457505050505050565b60408501511561185157600061172d8660600151612060565b90508060a0015161ffff166000148061177857508363ffffffff168160a0015161ffff1684604001516117609190612ca2565b87610100015161177091906128ef565b63ffffffff16105b156117e95761178c85876040015183612148565b156117e4578060e00151156117c05780518211156117b75780516117b090836128aa565b915061184f565b6000915061184f565b8051612710906117d0908461288b565b6117da9190612cce565b6117b090836128aa565b61184f565b609854604051633efbd95560e11b81526001600160a01b0390911690637df7b2aa9061181c908a90600590600401612c2b565b600060405180830381600087803b15801561183657600080fd5b505af115801561184a573d6000803e3d6000fd5b505050505b505b60a1548110806118635750609a548111155b156118d257609854604051633efbd95560e11b81526001600160a01b0390911690637df7b2aa9061189b908990600290600401612c2b565b600060405180830381600087803b1580156118b557600080fd5b505af11580156118c9573d6000803e3d6000fd5b50505050611bbc565b8015806118ea57506118ea848660a001518884611d0c565b15611a29578263ffffffff16826040015186610120015161190b91906128ef565b63ffffffff16101561197e5760026000908152609f6020527f95684aba87c7afc0cb0825ce802e59a0c43a91e65441705f8ec2d377a306a5879061194e85611c6e565b63ffffffff16815260208082019290925260400160009081208054600181018255908252919020018690556119f7565b60016000908152609f60205260408301516101208701517fd8ebc4b3e3fc84fb7267bc9651f22e5107e8b4ddef6b7d4ac503c1ca7368470b92916119cb916119c691906128ef565b611c6e565b63ffffffff16815260208082019290925260400160009081208054600181018255908252919020018690555b609854604051633efbd95560e11b81526001600160a01b0390911690637df7b2aa9061189b9089906004908101612c2b565b60c0820151611a3e9060ff1662015180612ce2565b611a4d9062ffffff168461296a565b63ffffffff1685610120015163ffffffff161015611a9857609854604051633efbd95560e11b81526001600160a01b0390911690637df7b2aa9061189b908990600290600401612c2b565b60058560c001516006811115611ab057611ab06127bc565b14611b535760026000908152609f6020527f95684aba87c7afc0cb0825ce802e59a0c43a91e65441705f8ec2d377a306a58790611af26119c6866138406128ef565b63ffffffff1681526020808201929092526040908101600090812080546001810182559082529290209091018790556098549051633efbd95560e11b81526001600160a01b0390911690637df7b2aa9061189b908990600390600401612c2b565b60026000908152609f6020527f95684aba87c7afc0cb0825ce802e59a0c43a91e65441705f8ec2d377a306a58790611b906119c6866138406128ef565b63ffffffff16815260208082019290925260400160009081208054600181018255908252919020018690555b505050505050565b603380546001600160a01b038381166001600160a01b0319831681179093556040519116919082907f8be0079c531659141344cd1fd0a4f28419497f9722a3daafe3b4186f6b6457e090600090a35050565b60655460ff1615611c395760405162461bcd60e51b81526004016104359061281d565b6065805460ff191660011790557f62e78cea01bee320cd4e420270b5ea74000d11b0c9f74754ebdbfc544b05a2586111793390565b609e5460009063ffffffff16611c8481846129c0565b611c8e908461296a565b611c9891906128ef565b92915050565b600054610100900460ff16611cc55760405162461bcd60e51b815260040161043590612d04565b611ccd612225565b61044661224c565b600054610100900460ff16611cfc5760405162461bcd60e51b815260040161043590612d04565b611d04612225565b61044661227c565b60985460405163dc311dd360e01b81526004810184905260009182916001600160a01b039091169063dc311dd39060240160006040518083038186803b158015611d5557600080fd5b505afa158015611d69573d6000803e3d6000fd5b505050506040513d6000823e601f3d908101601f19168201604052611d919190810190612ad5565b50609c54609d549192509015611ed057600080611db18460000151611f85565b90508115611ecd576000620151808260400151611dce9190612d4f565b611dda9061016d612d4f565b609d5460985460a08801516040516374c1443960e01b81526001600160a01b0391821660048201526000602482018190526044820181905263ffffffff95909516955085939291909116906374c144399060640160206040518083038186803b158015611e4657600080fd5b505afa158015611e5a573d6000803e3d6000fd5b505050506040513d601f19601f82011682018060405250810190611e7e9190612c89565b611e88919061288b565b611e92919061288b565b9050611e9e8185612cce565b609c54611eab919061288b565b609c54611eb891906128aa565b9450609b54851015611eca57609b5494505b50505b50505b609754604051630782fb5960e31b81526001600160a01b0388811660048301526000921690633c17dac89060240160006040518083038186803b158015611f1657600080fd5b505afa158015611f2a573d6000803e3d6000fd5b505050506040513d6000823e601f3d908101601f19168201604052611f529190810190612d72565b805190915087906001600160a01b031615611f6b575080515b611f78848a8389876122af565b9998505050505050505050565b6040805161012081018252600080825260208201819052918101829052606081018290526080810182905260a0810182905260c0810182905260e0810182905261010081019190915250604080516101208101825260a083811c8252608084811c63ffffffff908116602080860191909152606087811c8316868801529587901c8216958501959095529385901c90931692820192909252601083901c61ffff1691810191909152600882901c60ff1660c082015260f89190911b600160f81b8181161460e0830152600160f91b9081161461010082015290565b6040805161010081018252600080825260208201819052918101829052606081018290526080810182905260a0810182905260c0810182905260e0810191909152604080516101008101825260a084811c825263ffffffff608086811c8216602080860191909152606088811c8416868801529588901c8316958501959095529386901c169282019290925261ffff601085901c169181019190915260f083901b9060c0810160ff8516600281111561211b5761211b6127bc565b600281111561212c5761212c6127bc565b8152600160f81b92831690921460209092019190915292915050565b600060018260c001516002811115612162576121626127bc565b1415612170575060016103be565b60028260c001516002811115612188576121886127bc565b141561221b5760975460405163cd1402e760e01b81526001600160a01b038681166004830152602482018690529091169063cd1402e790604401602060405180830381600087803b1580156121dc57600080fd5b505af11580156121f0573d6000803e3d6000fd5b505050506040513d601f19601f820116820180604052508101906122149190612e12565b90506103be565b5060009392505050565b600054610100900460ff166104465760405162461bcd60e51b815260040161043590612d04565b600054610100900460ff166122735760405162461bcd60e51b815260040161043590612d04565b61044633611bc4565b600054610100900460ff166122a35760405162461bcd60e51b815260040161043590612d04565b6065805460ff19169055565b6000806127106122bf848661288b565b6122c99190612cce565b9050609a548110156122da5750609a545b602087015115612430576000612326886020015160408051808201909152600080825260208201525060408051808201909152606082901c815260509190911c61ffff16602082015290565b90506000612710826020015161ffff1687612341919061288b565b61234b9190612cce565b905061235781846128d7565b86116123965760405162461bcd60e51b815260206004820152600e60248201526d2156414c55455f544f4f5f4c4f5760901b6044820152606401610435565b60995482516040516379b2125f60e01b81526001600160a01b038b811660048301528a81166024830152604482018a905260648201879052918216608482015260a481018490529116906379b2125f9060c401600060405180830381600087803b15801561240357600080fd5b505af1925050508015612414575060015b61242457600093505050506124f2565b600193505050506124f2565b8084116124705760405162461bcd60e51b815260206004820152600e60248201526d2156414c55455f544f4f5f4c4f5760901b6044820152606401610435565b60995460405163fcd6a25b60e01b81526001600160a01b038881166004830152878116602483015260448201879052606482018490529091169063fcd6a25b90608401600060405180830381600087803b1580156124cd57600080fd5b505af19250505080156124de575060015b6124ec5760009150506124f2565b60019150505b95945050505050565b60038110610f3557600080fd5b63ffffffff81168114610f3557600080fd5b60008060006060848603121561252f57600080fd5b833561253a816124fb565b9250602084013561254a81612508565b929592945050506040919091013590565b60006020828403121561256d57600080fd5b81356103be816124fb565b6000806020838503121561258b57600080fd5b823567ffffffffffffffff808211156125a357600080fd5b818501915085601f8301126125b757600080fd5b8135818111156125c657600080fd5b8660208285010111156125d857600080fd5b60209290920196919550909350505050565b60005b838110156126055781810151838201526020016125ed565b83811115610e9e5750506000910152565b8215158152604060208201526000825180604084015261263d8160608501602087016125ea565b601f01601f1916919091016060019392505050565b6000806040838503121561266557600080fd5b8235612670816124fb565b9150602083013561268081612508565b809150509250929050565b6001600160a01b0381168114610f3557600080fd5b6000806000606084860312156126b557600080fd5b83356126c08161268b565b925060208401356126d08161268b565b915060408401356126e08161268b565b809150509250925092565b6000806000806080858703121561270157600080fd5b843561270c8161268b565b9350602085013561271c8161268b565b93969395505050506040820135916060013590565b60006020828403121561274357600080fd5b5035919050565b60008060008060008060c0878903121561276357600080fd5b863595506020870135945060408701359350606087013592506080870135915060a087013561279181612508565b809150509295509295509295565b6000602082840312156127b157600080fd5b81356103be8161268b565b634e487b7160e01b600052602160045260246000fd5b634e487b7160e01b600052603260045260246000fd5b6020808252818101527f4f776e61626c653a2063616c6c6572206973206e6f7420746865206f776e6572604082015260600190565b60208082526010908201526f14185d5cd8589b194e881c185d5cd95960821b604082015260600190565b60008060006060848603121561285c57600080fd5b833592506020840135915060408401356126e0816124fb565b634e487b7160e01b600052601160045260246000fd5b60008160001904831182151516156128a5576128a5612875565b500290565b6000828210156128bc576128bc612875565b500390565b634e487b7160e01b600052603160045260246000fd5b600082198211156128ea576128ea612875565b500190565b600063ffffffff80831681851680830382111561290e5761290e612875565b01949350505050565b60038110612927576129276127bc565b9052565b868152602081018690526040810185905260c0810161294d6060830186612917565b83608083015263ffffffff831660a0830152979650505050505050565b600063ffffffff8381169083168181101561298757612987612875565b039392505050565b8381526020810183905260608101610f016040830184612917565b634e487b7160e01b600052601260045260246000fd5b600063ffffffff808416806129d7576129d76129aa565b92169190910692915050565b634e487b7160e01b600052604160045260246000fd5b6040516101c0810167ffffffffffffffff81118282101715612a1d57612a1d6129e3565b60405290565b8051612a2e8161268b565b919050565b805160078110612a2e57600080fd5b8051612a2e81612508565b600082601f830112612a5e57600080fd5b815167ffffffffffffffff80821115612a7957612a796129e3565b604051601f8301601f19908116603f01168101908282118183101715612aa157612aa16129e3565b81604052838152866020858801011115612aba57600080fd5b612acb8460208301602089016125ea565b9695505050505050565b60008060408385031215612ae857600080fd5b825167ffffffffffffffff80821115612b0057600080fd5b908401906101c08287031215612b1557600080fd5b612b1d6129f9565b8251815260208301516020820152604083015160408201526060830151606082015260808301516080820152612b5560a08401612a23565b60a0820152612b6660c08401612a33565b60c0820152612b7760e08401612a42565b60e0820152610100612b8a818501612a42565b90820152610120612b9c848201612a42565b90820152610140612bae848201612a42565b90820152610160612bc0848201612a42565b908201526101808381015183811115612bd857600080fd5b612be489828701612a4d565b8284015250506101a08084015183811115612bfe57600080fd5b612c0a89828701612a4d565b828401525050809450505050612c2260208401612a23565b90509250929050565b8281526040810160078310612c4257612c426127bc565b8260208301529392505050565b600060208284031215612c6157600080fd5b81516103be816124fb565b600060208284031215612c7e57600080fd5b81516103be81612508565b600060208284031215612c9b57600080fd5b5051919050565b600063ffffffff80831681851681830481118215151615612cc557612cc5612875565b02949350505050565b600082612cdd57612cdd6129aa565b500490565b600062ffffff80831681851681830481118215151615612cc557612cc5612875565b6020808252602b908201527f496e697469616c697a61626c653a20636f6e7472616374206973206e6f74206960408201526a6e697469616c697a696e6760a81b606082015260800190565b600063ffffffff80841680612d6657612d666129aa565b92169190910492915050565b600060208284031215612d8457600080fd5b815167ffffffffffffffff80821115612d9c57600080fd5b9083019060608286031215612db057600080fd5b604051606081018181108382111715612dcb57612dcb6129e3565b6040528251612dd98161268b565b815260208381015190820152604083015182811115612df757600080fd5b612e0387828601612a4d565b60408301525095945050505050565b600060208284031215612e2457600080fd5b815180151581146103be57600080fdfea2646970667358221220f564cc5daf17c4afe741a20195f07665a379c58b57bd324132e8ec2731e3da5264736f6c63430008090033",
  "devdoc": {
    "kind": "dev",
    "methods": {
      "checkUpkeep(bytes)": {
        "details": "To ensure that it is never called, you may want to add the cannotExecute modifier from KeeperBase to your implementation of this method.",
        "params": {
          "checkData": "specified in the upkeep registration so it is always the same for a registered upkeep. This can easilly be broken down into specific arguments using `abi.decode`, so multiple upkeeps can be registered on the same contract and easily differentiated by the contract."
        },
        "returns": {
          "performData": "bytes that the keeper should call performUpkeep with, if upkeep is needed. If you would like to encode data to decode later, try `abi.encode`.",
          "upkeepNeeded": "boolean to indicate whether the keeper should call performUpkeep or not."
        }
      },
      "constructor": {
        "custom:oz-upgrades-unsafe-allow": "constructor"
      },
      "owner()": {
        "details": "Returns the address of the current owner."
      },
      "paused()": {
        "details": "Returns true if the contract is paused, and false otherwise."
      },
      "performUpkeep(bytes)": {
        "details": "The input to this method should not be trusted, and the caller of the method should not even be restricted to any single registry. Anyone should be able call it, and the input should be validated, there is no guarantee that the data passed in is the performData returned from checkUpkeep. This could happen due to malicious keepers, racing keepers, or simply a state change while the performUpkeep transaction is waiting for confirmation. Always validate the data passed in.",
        "params": {
          "performData": "is the data which was passed back from the checkData simulation. If it is encoded, it can easily be decoded into other types by calling `abi.decode`. This data should not be trusted, and should be validated against the contract's current state."
        }
      },
      "renounceOwnership()": {
        "details": "Leaves the contract without owner. It will not be possible to call `onlyOwner` functions anymore. Can only be called by the current owner. NOTE: Renouncing ownership will leave the contract without an owner, thereby removing any functionality that is only available to the owner."
      },
      "transferOwnership(address)": {
        "details": "Transfers ownership of the contract to a new account (`newOwner`). Can only be called by the current owner."
      }
    },
    "stateVariables": {
      "paymentFeeMin": {
        "details": "minimum total fee to charge, if rate fees do not add up to this amount "
      },
      "paymentFeeRateMin": {
        "details": "min and max percentage to charge on payments, in bps. 50% = 5000. "
      },
      "paymentMinValue": {
        "details": "min value for a payment. "
      },
      "processBucketSize": {
        "details": "size (in seconds) of buckets to group subscriptions into for processing "
      },
      "processQueue": {
        "details": "map used to track when subscriptions need attention next "
      },
      "stakeTargetFactor": {
        "details": "factor used to reduce payment fee based on qty of staked CASK "
      },
      "subscriptionPlans": {
        "details": "contract to manage subscription plan definitions. "
      },
      "vault": {
        "details": "vault to use for payments. "
      }
    },
    "version": 1
  },
  "userdoc": {
    "kind": "user",
    "methods": {
      "checkUpkeep(bytes)": {
        "notice": "method that is simulated by the keepers to see if any work actually needs to be performed. This method does does not actually need to be executable, and since it is only ever simulated it can consume lots of gas."
      },
      "performUpkeep(bytes)": {
        "notice": "method that is actually executed by the keepers, via the registry. The data returned by the checkUpkeep simulation will be passed into this method to actually be executed."
      }
    },
    "version": 1
  },
  "storageLayout": {
    "storage": [
      {
        "astId": 327,
        "contract": "contracts/protocol/CaskSubscriptionManager.sol:CaskSubscriptionManager",
        "label": "_initialized",
        "offset": 0,
        "slot": "0",
        "type": "t_bool"
      },
      {
        "astId": 330,
        "contract": "contracts/protocol/CaskSubscriptionManager.sol:CaskSubscriptionManager",
        "label": "_initializing",
        "offset": 1,
        "slot": "0",
        "type": "t_bool"
      },
      {
        "astId": 2551,
        "contract": "contracts/protocol/CaskSubscriptionManager.sol:CaskSubscriptionManager",
        "label": "__gap",
        "offset": 0,
        "slot": "1",
        "type": "t_array(t_uint256)50_storage"
      },
      {
        "astId": 205,
        "contract": "contracts/protocol/CaskSubscriptionManager.sol:CaskSubscriptionManager",
        "label": "_owner",
        "offset": 0,
        "slot": "51",
        "type": "t_address"
      },
      {
        "astId": 319,
        "contract": "contracts/protocol/CaskSubscriptionManager.sol:CaskSubscriptionManager",
        "label": "__gap",
        "offset": 0,
        "slot": "52",
        "type": "t_array(t_uint256)49_storage"
      },
      {
        "astId": 415,
        "contract": "contracts/protocol/CaskSubscriptionManager.sol:CaskSubscriptionManager",
        "label": "_paused",
        "offset": 0,
        "slot": "101",
        "type": "t_bool"
      },
      {
        "astId": 506,
        "contract": "contracts/protocol/CaskSubscriptionManager.sol:CaskSubscriptionManager",
        "label": "__gap",
        "offset": 0,
        "slot": "102",
        "type": "t_array(t_uint256)49_storage"
      },
      {
        "astId": 10124,
        "contract": "contracts/protocol/CaskSubscriptionManager.sol:CaskSubscriptionManager",
        "label": "subscriptionPlans",
        "offset": 0,
        "slot": "151",
        "type": "t_contract(ICaskSubscriptionPlans)9129"
      },
      {
        "astId": 10127,
        "contract": "contracts/protocol/CaskSubscriptionManager.sol:CaskSubscriptionManager",
        "label": "subscriptions",
        "offset": 0,
        "slot": "152",
        "type": "t_contract(ICaskSubscriptions)9505"
      },
      {
        "astId": 10131,
        "contract": "contracts/protocol/CaskSubscriptionManager.sol:CaskSubscriptionManager",
        "label": "vault",
        "offset": 0,
        "slot": "153",
        "type": "t_contract(ICaskVault)9792"
      },
      {
        "astId": 10134,
        "contract": "contracts/protocol/CaskSubscriptionManager.sol:CaskSubscriptionManager",
        "label": "paymentFeeMin",
        "offset": 0,
        "slot": "154",
        "type": "t_uint256"
      },
      {
        "astId": 10137,
        "contract": "contracts/protocol/CaskSubscriptionManager.sol:CaskSubscriptionManager",
        "label": "paymentFeeRateMin",
        "offset": 0,
        "slot": "155",
        "type": "t_uint256"
      },
      {
        "astId": 10139,
        "contract": "contracts/protocol/CaskSubscriptionManager.sol:CaskSubscriptionManager",
        "label": "paymentFeeRateMax",
        "offset": 0,
        "slot": "156",
        "type": "t_uint256"
      },
      {
        "astId": 10142,
        "contract": "contracts/protocol/CaskSubscriptionManager.sol:CaskSubscriptionManager",
        "label": "stakeTargetFactor",
        "offset": 0,
        "slot": "157",
        "type": "t_uint256"
      },
      {
        "astId": 10145,
        "contract": "contracts/protocol/CaskSubscriptionManager.sol:CaskSubscriptionManager",
        "label": "processBucketSize",
        "offset": 0,
        "slot": "158",
        "type": "t_uint32"
      },
      {
        "astId": 10154,
        "contract": "contracts/protocol/CaskSubscriptionManager.sol:CaskSubscriptionManager",
        "label": "processQueue",
        "offset": 0,
        "slot": "159",
        "type": "t_mapping(t_enum(CheckType)8881,t_mapping(t_uint32,t_array(t_uint256)dyn_storage))"
      },
      {
        "astId": 10159,
        "contract": "contracts/protocol/CaskSubscriptionManager.sol:CaskSubscriptionManager",
        "label": "processingBucket",
        "offset": 0,
        "slot": "160",
        "type": "t_mapping(t_enum(CheckType)8881,t_uint32)"
      },
      {
        "astId": 10162,
        "contract": "contracts/protocol/CaskSubscriptionManager.sol:CaskSubscriptionManager",
        "label": "paymentMinValue",
        "offset": 0,
        "slot": "161",
        "type": "t_uint256"
      }
    ],
    "types": {
      "t_address": {
        "encoding": "inplace",
        "label": "address",
        "numberOfBytes": "20"
      },
      "t_array(t_uint256)49_storage": {
        "base": "t_uint256",
        "encoding": "inplace",
        "label": "uint256[49]",
        "numberOfBytes": "1568"
      },
      "t_array(t_uint256)50_storage": {
        "base": "t_uint256",
        "encoding": "inplace",
        "label": "uint256[50]",
        "numberOfBytes": "1600"
      },
      "t_array(t_uint256)dyn_storage": {
        "base": "t_uint256",
        "encoding": "dynamic_array",
        "label": "uint256[]",
        "numberOfBytes": "32"
      },
      "t_bool": {
        "encoding": "inplace",
        "label": "bool",
        "numberOfBytes": "1"
      },
      "t_contract(ICaskSubscriptionPlans)9129": {
        "encoding": "inplace",
        "label": "contract ICaskSubscriptionPlans",
        "numberOfBytes": "20"
      },
      "t_contract(ICaskSubscriptions)9505": {
        "encoding": "inplace",
        "label": "contract ICaskSubscriptions",
        "numberOfBytes": "20"
      },
      "t_contract(ICaskVault)9792": {
        "encoding": "inplace",
        "label": "contract ICaskVault",
        "numberOfBytes": "20"
      },
      "t_enum(CheckType)8881": {
        "encoding": "inplace",
        "label": "enum ICaskSubscriptionManager.CheckType",
        "numberOfBytes": "1"
      },
      "t_mapping(t_enum(CheckType)8881,t_mapping(t_uint32,t_array(t_uint256)dyn_storage))": {
        "encoding": "mapping",
        "key": "t_enum(CheckType)8881",
        "label": "mapping(enum ICaskSubscriptionManager.CheckType => mapping(uint32 => uint256[]))",
        "numberOfBytes": "32",
        "value": "t_mapping(t_uint32,t_array(t_uint256)dyn_storage)"
      },
      "t_mapping(t_enum(CheckType)8881,t_uint32)": {
        "encoding": "mapping",
        "key": "t_enum(CheckType)8881",
        "label": "mapping(enum ICaskSubscriptionManager.CheckType => uint32)",
        "numberOfBytes": "32",
        "value": "t_uint32"
      },
      "t_mapping(t_uint32,t_array(t_uint256)dyn_storage)": {
        "encoding": "mapping",
        "key": "t_uint32",
        "label": "mapping(uint32 => uint256[])",
        "numberOfBytes": "32",
        "value": "t_array(t_uint256)dyn_storage"
      },
      "t_uint256": {
        "encoding": "inplace",
        "label": "uint256",
        "numberOfBytes": "32"
      },
      "t_uint32": {
        "encoding": "inplace",
        "label": "uint32",
        "numberOfBytes": "4"
      }
    }
  }
}