{
  "address": "0x795D8852F0FBC94947d8F5d968bdAF3438196CAc",
  "abi": [
    {
      "inputs": [],
      "stateMutability": "nonpayable",
      "type": "constructor"
    },
    {
      "anonymous": false,
      "inputs": [
        {
          "indexed": true,
          "internalType": "address",
          "name": "previousOwner",
          "type": "address"
        },
        {
          "indexed": true,
          "internalType": "address",
          "name": "newOwner",
          "type": "address"
        }
      ],
      "name": "OwnershipTransferred",
      "type": "event"
    },
    {
      "anonymous": false,
      "inputs": [
        {
          "indexed": false,
          "internalType": "address",
          "name": "account",
          "type": "address"
        }
      ],
      "name": "Paused",
      "type": "event"
    },
    {
      "anonymous": false,
      "inputs": [
        {
          "indexed": false,
          "internalType": "address",
          "name": "account",
          "type": "address"
        }
      ],
      "name": "Unpaused",
      "type": "event"
    },
    {
      "inputs": [
        {
          "internalType": "bytes",
          "name": "checkData",
          "type": "bytes"
        }
      ],
      "name": "checkUpkeep",
      "outputs": [
        {
          "internalType": "bool",
          "name": "upkeepNeeded",
          "type": "bool"
        },
        {
          "internalType": "bytes",
          "name": "performData",
          "type": "bytes"
        }
      ],
      "stateMutability": "view",
      "type": "function"
    },
    {
      "inputs": [
        {
          "internalType": "address",
          "name": "_vault",
          "type": "address"
        },
        {
          "internalType": "address",
          "name": "_subscriptionPlans",
          "type": "address"
        },
        {
          "internalType": "address",
          "name": "_subscriptions",
          "type": "address"
        }
      ],
      "name": "initialize",
      "outputs": [],
      "stateMutability": "nonpayable",
      "type": "function"
    },
    {
      "inputs": [],
      "name": "owner",
      "outputs": [
        {
          "internalType": "address",
          "name": "",
          "type": "address"
        }
      ],
      "stateMutability": "view",
      "type": "function"
    },
    {
      "inputs": [],
      "name": "pause",
      "outputs": [],
      "stateMutability": "nonpayable",
      "type": "function"
    },
    {
      "inputs": [],
      "name": "paused",
      "outputs": [
        {
          "internalType": "bool",
          "name": "",
          "type": "bool"
        }
      ],
      "stateMutability": "view",
      "type": "function"
    },
    {
      "inputs": [],
      "name": "paymentFeeFixed",
      "outputs": [
        {
          "internalType": "uint256",
          "name": "",
          "type": "uint256"
        }
      ],
      "stateMutability": "view",
      "type": "function"
    },
    {
      "inputs": [],
      "name": "paymentFeeRateMax",
      "outputs": [
        {
          "internalType": "uint256",
          "name": "",
          "type": "uint256"
        }
      ],
      "stateMutability": "view",
      "type": "function"
    },
    {
      "inputs": [],
      "name": "paymentFeeRateMin",
      "outputs": [
        {
          "internalType": "uint256",
          "name": "",
          "type": "uint256"
        }
      ],
      "stateMutability": "view",
      "type": "function"
    },
    {
      "inputs": [
        {
          "internalType": "bytes",
          "name": "performData",
          "type": "bytes"
        }
      ],
      "name": "performUpkeep",
      "outputs": [],
      "stateMutability": "nonpayable",
      "type": "function"
    },
    {
      "inputs": [
        {
          "internalType": "address",
          "name": "_consumer",
          "type": "address"
        },
        {
          "internalType": "address",
          "name": "_provider",
          "type": "address"
        },
        {
          "internalType": "uint256",
          "name": "_subscriptionId",
          "type": "uint256"
        },
        {
          "internalType": "uint256",
          "name": "_value",
          "type": "uint256"
        }
      ],
      "name": "processSinglePayment",
      "outputs": [],
      "stateMutability": "nonpayable",
      "type": "function"
    },
    {
      "inputs": [
        {
          "internalType": "uint256",
          "name": "_subscriptionId",
          "type": "uint256"
        }
      ],
      "name": "renewSubscription",
      "outputs": [],
      "stateMutability": "nonpayable",
      "type": "function"
    },
    {
      "inputs": [],
      "name": "renounceOwnership",
      "outputs": [],
      "stateMutability": "nonpayable",
      "type": "function"
    },
    {
      "inputs": [
        {
          "internalType": "uint256",
          "name": "_paymentFeeFixed",
          "type": "uint256"
        },
        {
          "internalType": "uint256",
          "name": "_paymentFeeRateMin",
          "type": "uint256"
        },
        {
          "internalType": "uint256",
          "name": "_paymentFeeRateMax",
          "type": "uint256"
        },
        {
          "internalType": "uint256",
          "name": "_stakeTargetFactor",
          "type": "uint256"
        }
      ],
      "name": "setParameters",
      "outputs": [],
      "stateMutability": "nonpayable",
      "type": "function"
    },
    {
      "inputs": [],
      "name": "stakeTargetFactor",
      "outputs": [
        {
          "internalType": "uint256",
          "name": "",
          "type": "uint256"
        }
      ],
      "stateMutability": "view",
      "type": "function"
    },
    {
      "inputs": [],
      "name": "subscriptionPlans",
      "outputs": [
        {
          "internalType": "contract ICaskSubscriptionPlans",
          "name": "",
          "type": "address"
        }
      ],
      "stateMutability": "view",
      "type": "function"
    },
    {
      "inputs": [],
      "name": "subscriptions",
      "outputs": [
        {
          "internalType": "contract ICaskSubscriptions",
          "name": "",
          "type": "address"
        }
      ],
      "stateMutability": "view",
      "type": "function"
    },
    {
      "inputs": [
        {
          "internalType": "address",
          "name": "newOwner",
          "type": "address"
        }
      ],
      "name": "transferOwnership",
      "outputs": [],
      "stateMutability": "nonpayable",
      "type": "function"
    },
    {
      "inputs": [],
      "name": "unpause",
      "outputs": [],
      "stateMutability": "nonpayable",
      "type": "function"
    },
    {
      "inputs": [],
      "name": "vault",
      "outputs": [
        {
          "internalType": "contract ICaskVault",
          "name": "",
          "type": "address"
        }
      ],
      "stateMutability": "view",
      "type": "function"
    }
  ],
  "transactionHash": "0xe2957de2e3eb3dc1a6af12c968c70e17a2c0fcbf016895848bb0e527173365d7",
  "args": [],
  "numDeployments": 1,
  "solcInputHash": "a99c6c066e8671457738dab1e566a864",
  "bytecode": "0x60806040523480156200001157600080fd5b50600054610100900460ff166200002f5760005460ff161562000039565b62000039620000de565b620000a15760405162461bcd60e51b815260206004820152602e60248201527f496e697469616c697a61626c653a20636f6e747261637420697320616c72656160448201526d191e481a5b9a5d1a585b1a5e995960921b606482015260840160405180910390fd5b600054610100900460ff16158015620000c4576000805461ffff19166101011790555b8015620000d7576000805461ff00191690555b5062000102565b6000620000f630620000fc60201b620007be1760201c565b15905090565b3b151590565b61257280620001126000396000f3fe608060405234801561001057600080fd5b50600436106101215760003560e01c80638da5cb5b116100ad578063c54c58c411610071578063c54c58c41461021f578063d71bb37b14610232578063f2fde38b14610245578063fbfa77cf14610258578063fcd9da441461026b57600080fd5b80638da5cb5b146101b85780638fe17b16146101dd578063b8e381e5146101f0578063badf4b3e14610203578063c0c53b8b1461020c57600080fd5b80634585e33b116100f45780634585e33b1461015e5780635c975abb146101715780636e04ff0d14610187578063715018a6146101a85780638456cb59146101b057600080fd5b806308e27a9914610126578063219e24c5146101425780633c07e34d1461014b5780633f4ba83a14610154575b600080fd5b61012f609d5481565b6040519081526020015b60405180910390f35b61012f609b5481565b61012f609a5481565b61015c61027e565b005b61015c61016c366004611be6565b6102bb565b60655460ff166040519015158152602001610139565b61019a610195366004611be6565b610356565b604051610139929190611c84565b61015c6104e0565b61015c610514565b6033546001600160a01b03165b6040516001600160a01b039091168152602001610139565b6097546101c5906001600160a01b031681565b6098546101c5906001600160a01b031681565b61012f609c5481565b61015c61021a366004611cd5565b610546565b61015c61022d366004611d20565b610662565b61015c610240366004611d66565b6106b9565b61015c610253366004611d7f565b6106e8565b6099546101c5906001600160a01b031681565b61015c610279366004611da3565b610780565b6033546001600160a01b031633146102b15760405162461bcd60e51b81526004016102a890611dd5565b60405180910390fd5b6102b96107c4565b565b60655460ff16156102de5760405162461bcd60e51b81526004016102a890611e0a565b60006102ec82840184611ec9565b905060005b815181101561035057600082828151811061030e5761030e611f5f565b6020026020010151111561033e5761033e82828151811061033157610331611f5f565b6020026020010151610857565b8061034881611f8b565b9150506102f1565b50505050565b60006060818061036885870187611fa6565b915091506000806103798484611194565b9150915081600014156103a157600095506040518060200160405280600081525094506104d5565b838210156104ae576000808367ffffffffffffffff8111156103c5576103c5611e34565b6040519080825280602002602001820160405280156103ee578160200160208202803683370190505b50905060005b868110801561040257508483105b1561048057600084828151811061041b5761041b611f5f565b6020026020010151111561046e5783818151811061043b5761043b611f5f565b602002602001015182848151811061045557610455611f5f565b602090810291909101015261046b836001611fc8565b92505b8061047881611f8b565b9150506103f4565b5060019750806040516020016104969190611fe0565b604051602081830303815290604052965050506104d5565b60019550806040516020016104c39190611fe0565b60405160208183030381529060405294505b505050509250929050565b6033546001600160a01b0316331461050a5760405162461bcd60e51b81526004016102a890611dd5565b6102b960006114ad565b6033546001600160a01b0316331461053e5760405162461bcd60e51b81526004016102a890611dd5565b6102b96114ff565b600054610100900460ff166105615760005460ff1615610565565b303b155b6105c85760405162461bcd60e51b815260206004820152602e60248201527f496e697469616c697a61626c653a20636f6e747261637420697320616c72656160448201526d191e481a5b9a5d1a585b1a5e995960921b60648201526084016102a8565b600054610100900460ff161580156105ea576000805461ffff19166101011790555b6105f2611557565b6105fa61158e565b609780546001600160a01b038086166001600160a01b0319928316179092556098805485841690831617905560998054928716929091169190911790556000609a819055609b819055609c819055609d558015610350576000805461ff001916905550505050565b6098546001600160a01b0316336001600160a01b0316146106ad5760405162461bcd60e51b815260206004820152600560248201526404282aaa8960db1b60448201526064016102a8565b610350848484846115c5565b60655460ff16156106dc5760405162461bcd60e51b81526004016102a890611e0a565b6106e581610857565b50565b6033546001600160a01b031633146107125760405162461bcd60e51b81526004016102a890611dd5565b6001600160a01b0381166107775760405162461bcd60e51b815260206004820152602660248201527f4f776e61626c653a206e6577206f776e657220697320746865207a65726f206160448201526564647265737360d01b60648201526084016102a8565b6106e5816114ad565b6033546001600160a01b031633146107aa5760405162461bcd60e51b81526004016102a890611dd5565b609a93909355609b91909155609c55609d55565b3b151590565b60655460ff1661080d5760405162461bcd60e51b815260206004820152601460248201527314185d5cd8589b194e881b9bdd081c185d5cd95960621b60448201526064016102a8565b6065805460ff191690557f5db9ee0a495bf2e6ff9c91a7834c1ba4fdd244a5e8aa4e537bd38aeae4b073aa335b6040516001600160a01b03909116815260200160405180910390a1565b60985460405163dc311dd360e01b8152600481018390526000916001600160a01b03169063dc311dd39060240160006040518083038186803b15801561089c57600080fd5b505afa1580156108b0573d6000803e3d6000fd5b505050506040513d6000823e601f3d908101601f191682016040526108d891908101906120c3565b50905060004290508063ffffffff1682610120015163ffffffff161180610914575060038260c001516005811115610912576109126121f3565b145b1561091e57505050565b600082610160015163ffffffff1611801561094a57508063ffffffff1682610160015163ffffffff1611155b80610aaf5750600260975460a084015160e085015160405163b6ab359f60e01b81526001600160a01b03928316600482015263ffffffff909116602482015291169063b6ab359f9060440160206040518083038186803b1580156109ad57600080fd5b505afa1580156109c1573d6000803e3d6000fd5b505050506040513d601f19601f820116820180604052508101906109e59190612209565b60028111156109f6576109f66121f3565b148015610aaf575060975460a083015160e084015160405163025b687560e01b815263ffffffff8516936001600160a01b03169263025b687592610a56926004016001600160a01b0392909216825263ffffffff16602082015260400190565b60206040518083038186803b158015610a6e57600080fd5b505afa158015610a82573d6000803e3d6000fd5b505050506040513d601f19601f82011682018060405250810190610aa6919061222a565b63ffffffff1611155b15610b1e57609854604051633efbd95560e11b81526001600160a01b0390911690637df7b2aa90610ae7908690600290600401612245565b600060405180830381600087803b158015610b0157600080fd5b505af1158015610b15573d6000803e3d6000fd5b50505050505050565b60985460405163321b9a5560e21b8152600481018590526000916001600160a01b03169063c86e69549060240160206040518083038186803b158015610b6357600080fd5b505afa158015610b77573d6000803e3d6000fd5b505050506040513d601f19601f82011682018060405250810190610b9b9190612277565b1115610c8a57609854604051633efbd95560e11b81526001600160a01b0390911690637df7b2aa90610bd4908690600190600401612245565b600060405180830381600087803b158015610bee57600080fd5b505af1158015610c02573d6000803e3d6000fd5b505060985460405163dc311dd360e01b8152600481018790526001600160a01b03909116925063dc311dd3915060240160006040518083038186803b158015610c4a57600080fd5b505afa158015610c5e573d6000803e3d6000fd5b505050506040513d6000823e601f3d908101601f19168201604052610c8691908101906120c3565b5091505b6000610c9983600001516118d9565b805160408501519192509015610e58576000610d5f85606001516040805160e081018252600080825260208201819052918101829052606081018290526080810182905260a0810182905260c0810191909152506040805160e08101825260a083811c825263ffffffff608085811c8216602080860191909152606087811c8416868801529587901c8316958501959095529385901c169282019290925261ffff601084901c1691810191909152600160f01b60f09290921b821690911460c082015290565b90508060a0015161ffff1660001480610daa57508363ffffffff168160a0015161ffff168460400151610d929190612290565b866101000151610da291906122bc565b63ffffffff16105b15610df0578060c0015115610dcc578051610dc590836122e4565b9150610e56565b805161271090610ddc90846122fb565b610de69190612330565b610dc590836122e4565b609854604051633efbd95560e11b81526001600160a01b0390911690637df7b2aa90610e23908990600590600401612245565b600060405180830381600087803b158015610e3d57600080fd5b505af1158015610e51573d6000803e3d6000fd5b505050505b505b600081118015610f6657506099546098546040516331a9108f60e11b81526004810188905283926001600160a01b039081169263597435cb92911690636352211e9060240160206040518083038186803b158015610eb557600080fd5b505afa158015610ec9573d6000803e3d6000fd5b505050506040513d601f19601f82011682018060405250810190610eed9190612344565b6040516001600160e01b031960e084901b1681526001600160a01b03909116600482015260240160206040518083038186803b158015610f2c57600080fd5b505afa158015610f40573d6000803e3d6000fd5b505050506040513d601f19601f82011682018060405250810190610f649190612277565b105b156110665760c0820151610f809060ff1662015180612361565b610f8f9062ffffff1684612383565b63ffffffff1684610120015163ffffffff16101561101157609854604051633efbd95560e11b81526001600160a01b0390911690637df7b2aa90610fda908890600290600401612245565b600060405180830381600087803b158015610ff457600080fd5b505af1158015611008573d6000803e3d6000fd5b5050505061118d565b60058460c001516005811115611029576110296121f3565b1461106157609854604051633efbd95560e11b81526001600160a01b0390911690637df7b2aa90610fda908890600390600401612245565b61118d565b8015611128576098546040516331a9108f60e11b8152600481018790526110f6916001600160a01b031690636352211e9060240160206040518083038186803b1580156110b257600080fd5b505afa1580156110c6573d6000803e3d6000fd5b505050506040513d601f19601f820116820180604052508101906110ea9190612344565b8560a0015187846115c5565b609854604051633efbd95560e11b81526001600160a01b0390911690637df7b2aa90610fda9088906004908101612245565b609854604051633efbd95560e11b81526001600160a01b0390911690637df7b2aa9061115a9088906004908101612245565b600060405180830381600087803b15801561117457600080fd5b505af1158015611188573d6000803e3d6000fd5b505050505b5050505050565b600060606000609860009054906101000a90046001600160a01b03166001600160a01b03166398c0bce06040518163ffffffff1660e01b815260040160206040518083038186803b1580156111e857600080fd5b505afa1580156111fc573d6000803e3d6000fd5b505050506040513d601f19601f820116820180604052508101906112209190612277565b9050848181111561122e5750805b81851061125057604080516000808252602082019092529350935050506114a6565b4260008267ffffffffffffffff81111561126c5761126c611e34565b604051908082528060200260200182016040528015611295578160200160208202803683370190505b5090506000609860009054906101000a90046001600160a01b03166001600160a01b0316635bdc42696040518163ffffffff1660e01b815260040160006040518083038186803b1580156112e857600080fd5b505afa1580156112fc573d6000803e3d6000fd5b505050506040513d6000823e601f3d908101601f1916820160405261132491908101906123a8565b90506000805b858110801561134157508661133f8b83611fc8565b105b1561149b576098546000906001600160a01b031663dc311dd3856113658e86611fc8565b8151811061137557611375611f5f565b60200260200101516040518263ffffffff1660e01b815260040161139b91815260200190565b60006040518083038186803b1580156113b357600080fd5b505afa1580156113c7573d6000803e3d6000fd5b505050506040513d6000823e601f3d908101601f191682016040526113ef91908101906120c3565b5090508563ffffffff1681610120015163ffffffff1611158015611429575060038160c001516005811115611426576114266121f3565b14155b1561148857836114398c84611fc8565b8151811061144957611449611f5f565b602002602001015185848151811061146357611463611f5f565b6020908102919091010152611479600184611fc8565b9250868310611488575061149b565b508061149381611f8b565b91505061132a565b509650909450505050505b9250929050565b603380546001600160a01b038381166001600160a01b0319831681179093556040519116919082907f8be0079c531659141344cd1fd0a4f28419497f9722a3daafe3b4186f6b6457e090600090a35050565b60655460ff16156115225760405162461bcd60e51b81526004016102a890611e0a565b6065805460ff191660011790557f62e78cea01bee320cd4e420270b5ea74000d11b0c9f74754ebdbfc544b05a25861083a3390565b600054610100900460ff1661157e5760405162461bcd60e51b81526004016102a89061242e565b6115866119b4565b6102b96119db565b600054610100900460ff166115b55760405162461bcd60e51b81526004016102a89061242e565b6115bd6119b4565b6102b9611a0b565b60995460405163597435cb60e01b81526001600160a01b0386811660048301528392169063597435cb9060240160206040518083038186803b15801561160a57600080fd5b505afa15801561161e573d6000803e3d6000fd5b505050506040513d601f19601f820116820180604052508101906116429190612277565b101561167b5760405162461bcd60e51b81526020600482015260086024820152672142414c414e434560c01b60448201526064016102a8565b609c5460985460405163dc311dd360e01b8152600481018590526000929183916001600160a01b039091169063dc311dd39060240160006040518083038186803b1580156116c857600080fd5b505afa1580156116dc573d6000803e3d6000fd5b505050506040513d6000823e601f3d908101601f1916820160405261170491908101906120c3565b509050600061171682600001516118d9565b905083156118255760006201518082604001516117339190612479565b61173f9061016d612479565b609d5460985460a086015160405163c7a687bf60e01b81526001600160a01b03918216600482015263ffffffff949094169450600093859392919091169063c7a687bf9060240160206040518083038186803b15801561179e57600080fd5b505afa1580156117b2573d6000803e3d6000fd5b505050506040513d601f19601f820116820180604052508101906117d69190612277565b6117e091906122fb565b6117ea91906122fb565b90506117f68187612330565b609c5461180391906122fb565b609c5461181091906122e4565b9450609b5485101561182257609b5494505b50505b609754604051630782fb5960e31b81526001600160a01b0389811660048301526000921690633c17dac89060240160006040518083038186803b15801561186b57600080fd5b505afa15801561187f573d6000803e3d6000fd5b505050506040513d6000823e601f3d908101601f191682016040526118a7919081019061249c565b805190915088906001600160a01b0316156118c0575080515b6118cd848b838a89611a3e565b50505050505050505050565b6040805161012081018252600080825260208201819052918101829052606081018290526080810182905260a0810182905260c0810182905260e0810182905261010081019190915250604080516101208101825260a083811c8252608084811c63ffffffff908116602080860191909152606087811c8316868801529587901c8216958501959095529385901c90931692820192909252601083901c61ffff1691810191909152600882901c60ff1660c082015260f89190911b600160f81b8181161460e0830152600160f91b9081161461010082015290565b600054610100900460ff166102b95760405162461bcd60e51b81526004016102a89061242e565b600054610100900460ff16611a025760405162461bcd60e51b81526004016102a89061242e565b6102b9336114ad565b600054610100900460ff16611a325760405162461bcd60e51b81526004016102a89061242e565b6065805460ff19169055565b602085015115611b6f576000611a8a866020015160408051808201909152600080825260208201525060408051808201909152606082901c815260509190911c61ffff16602082015290565b6099549091506001600160a01b03166379b2125f868686612710611aae88836122fb565b611ab89190612330565b609a54611ac59190611fc8565b8651602088015161271090611ade9061ffff168c6122fb565b611ae89190612330565b60405160e088901b6001600160e01b03191681526001600160a01b039687166004820152948616602486015260448501939093526064840191909152909216608482015260a481019190915260c401600060405180830381600087803b158015611b5157600080fd5b505af1158015611b65573d6000803e3d6000fd5b505050505061118d565b6099546001600160a01b031663fcd6a25b858585612710611b9087836122fb565b611b9a9190612330565b609a54611ba79190611fc8565b6040516001600160e01b031960e087901b1681526001600160a01b0394851660048201529390921660248401526044830152606482015260840161115a565b60008060208385031215611bf957600080fd5b823567ffffffffffffffff80821115611c1157600080fd5b818501915085601f830112611c2557600080fd5b813581811115611c3457600080fd5b866020828501011115611c4657600080fd5b60209290920196919550909350505050565b60005b83811015611c73578181015183820152602001611c5b565b838111156103505750506000910152565b82151581526040602082015260008251806040840152611cab816060850160208701611c58565b601f01601f1916919091016060019392505050565b6001600160a01b03811681146106e557600080fd5b600080600060608486031215611cea57600080fd5b8335611cf581611cc0565b92506020840135611d0581611cc0565b91506040840135611d1581611cc0565b809150509250925092565b60008060008060808587031215611d3657600080fd5b8435611d4181611cc0565b93506020850135611d5181611cc0565b93969395505050506040820135916060013590565b600060208284031215611d7857600080fd5b5035919050565b600060208284031215611d9157600080fd5b8135611d9c81611cc0565b9392505050565b60008060008060808587031215611db957600080fd5b5050823594602084013594506040840135936060013592509050565b6020808252818101527f4f776e61626c653a2063616c6c6572206973206e6f7420746865206f776e6572604082015260600190565b60208082526010908201526f14185d5cd8589b194e881c185d5cd95960821b604082015260600190565b634e487b7160e01b600052604160045260246000fd5b6040516101a0810167ffffffffffffffff81118282101715611e6e57611e6e611e34565b60405290565b604051601f8201601f1916810167ffffffffffffffff81118282101715611e9d57611e9d611e34565b604052919050565b600067ffffffffffffffff821115611ebf57611ebf611e34565b5060051b60200190565b60006020808385031215611edc57600080fd5b823567ffffffffffffffff811115611ef357600080fd5b8301601f81018513611f0457600080fd5b8035611f17611f1282611ea5565b611e74565b81815260059190911b82018301908381019087831115611f3657600080fd5b928401925b82841015611f5457833582529284019290840190611f3b565b979650505050505050565b634e487b7160e01b600052603260045260246000fd5b634e487b7160e01b600052601160045260246000fd5b6000600019821415611f9f57611f9f611f75565b5060010190565b60008060408385031215611fb957600080fd5b50508035926020909101359150565b60008219821115611fdb57611fdb611f75565b500190565b6020808252825182820181905260009190848201906040850190845b8181101561201857835183529284019291840191600101611ffc565b50909695505050505050565b805161202f81611cc0565b919050565b80516006811061202f57600080fd5b805163ffffffff8116811461202f57600080fd5b600082601f83011261206857600080fd5b815167ffffffffffffffff81111561208257612082611e34565b612095601f8201601f1916602001611e74565b8181528460208386010111156120aa57600080fd5b6120bb826020830160208701611c58565b949350505050565b600080604083850312156120d657600080fd5b825167ffffffffffffffff808211156120ee57600080fd5b908401906101a0828703121561210357600080fd5b61210b611e4a565b825181526020830151602082015260408301516040820152606083015160608201526080830151608082015261214360a08401612024565b60a082015261215460c08401612034565b60c082015261216560e08401612043565b60e0820152610100612178818501612043565b9082015261012061218a848201612043565b9082015261014061219c848201612043565b908201526101606121ae848201612043565b9082015261018083810151838111156121c657600080fd5b6121d289828701612057565b8284015250508094505050506121ea60208401612024565b90509250929050565b634e487b7160e01b600052602160045260246000fd5b60006020828403121561221b57600080fd5b815160038110611d9c57600080fd5b60006020828403121561223c57600080fd5b611d9c82612043565b828152604081016006831061226a57634e487b7160e01b600052602160045260246000fd5b8260208301529392505050565b60006020828403121561228957600080fd5b5051919050565b600063ffffffff808316818516818304811182151516156122b3576122b3611f75565b02949350505050565b600063ffffffff8083168185168083038211156122db576122db611f75565b01949350505050565b6000828210156122f6576122f6611f75565b500390565b600081600019048311821515161561231557612315611f75565b500290565b634e487b7160e01b600052601260045260246000fd5b60008261233f5761233f61231a565b500490565b60006020828403121561235657600080fd5b8151611d9c81611cc0565b600062ffffff808316818516818304811182151516156122b3576122b3611f75565b600063ffffffff838116908316818110156123a0576123a0611f75565b039392505050565b600060208083850312156123bb57600080fd5b825167ffffffffffffffff8111156123d257600080fd5b8301601f810185136123e357600080fd5b80516123f1611f1282611ea5565b81815260059190911b8201830190838101908783111561241057600080fd5b928401925b82841015611f5457835182529284019290840190612415565b6020808252602b908201527f496e697469616c697a61626c653a20636f6e7472616374206973206e6f74206960408201526a6e697469616c697a696e6760a81b606082015260800190565b600063ffffffff808416806124905761249061231a565b92169190910492915050565b6000602082840312156124ae57600080fd5b815167ffffffffffffffff808211156124c657600080fd5b90830190606082860312156124da57600080fd5b6040516060810181811083821117156124f5576124f5611e34565b604052825161250381611cc0565b81526020838101519082015260408301518281111561252157600080fd5b61252d87828601612057565b6040830152509594505050505056fea2646970667358221220d134f1cb740b0fabc6d8982edeccd42ac3ee6068ffbd8362885ee9e9696ac47e64736f6c63430008090033",
  "devdoc": {
    "kind": "dev",
    "methods": {
      "checkUpkeep(bytes)": {
        "details": "To ensure that it is never called, you may want to add the cannotExecute modifier from KeeperBase to your implementation of this method.",
        "params": {
          "checkData": "specified in the upkeep registration so it is always the same for a registered upkeep. This can easilly be broken down into specific arguments using `abi.decode`, so multiple upkeeps can be registered on the same contract and easily differentiated by the contract."
        },
        "returns": {
          "performData": "bytes that the keeper should call performUpkeep with, if upkeep is needed. If you would like to encode data to decode later, try `abi.encode`.",
          "upkeepNeeded": "boolean to indicate whether the keeper should call performUpkeep or not."
        }
      },
      "constructor": {
        "custom:oz-upgrades-unsafe-allow": "constructor"
      },
      "owner()": {
        "details": "Returns the address of the current owner."
      },
      "paused()": {
        "details": "Returns true if the contract is paused, and false otherwise."
      },
      "performUpkeep(bytes)": {
        "details": "The input to this method should not be trusted, and the caller of the method should not even be restricted to any single registry. Anyone should be able call it, and the input should be validated, there is no guarantee that the data passed in is the performData returned from checkUpkeep. This could happen due to malicious keepers, racing keepers, or simply a state change while the performUpkeep transaction is waiting for confirmation. Always validate the data passed in.",
        "params": {
          "performData": "is the data which was passed back from the checkData simulation. If it is encoded, it can easily be decoded into other types by calling `abi.decode`. This data should not be trusted, and should be validated against the contract's current state."
        }
      },
      "renounceOwnership()": {
        "details": "Leaves the contract without owner. It will not be possible to call `onlyOwner` functions anymore. Can only be called by the current owner. NOTE: Renouncing ownership will leave the contract without an owner, thereby removing any functionality that is only available to the owner."
      },
      "transferOwnership(address)": {
        "details": "Transfers ownership of the contract to a new account (`newOwner`). Can only be called by the current owner."
      }
    },
    "stateVariables": {
      "paymentFeeFixed": {
        "details": "fixed fee to charge on payments, in baseAsset decimal units. "
      },
      "paymentFeeRateMin": {
        "details": "min and max percentage to charge on payments, in bps. 50% = 5000. "
      },
      "stakeTargetFactor": {
        "details": "factor used to reduce payment fee based on qty of staked CASK "
      },
      "subscriptionPlans": {
        "details": "contract to manage subscription plan definitions. "
      },
      "vault": {
        "details": "vault to use for payments. "
      }
    },
    "version": 1
  },
  "userdoc": {
    "kind": "user",
    "methods": {
      "checkUpkeep(bytes)": {
        "notice": "method that is simulated by the keepers to see if any work actually needs to be performed. This method does does not actually need to be executable, and since it is only ever simulated it can consume lots of gas."
      },
      "performUpkeep(bytes)": {
        "notice": "method that is actually executed by the keepers, via the registry. The data returned by the checkUpkeep simulation will be passed into this method to actually be executed."
      }
    },
    "version": 1
  },
  "storageLayout": {
    "storage": [
      {
        "astId": 327,
        "contract": "contracts/protocol/CaskSubscriptionManager.sol:CaskSubscriptionManager",
        "label": "_initialized",
        "offset": 0,
        "slot": "0",
        "type": "t_bool"
      },
      {
        "astId": 330,
        "contract": "contracts/protocol/CaskSubscriptionManager.sol:CaskSubscriptionManager",
        "label": "_initializing",
        "offset": 1,
        "slot": "0",
        "type": "t_bool"
      },
      {
        "astId": 2551,
        "contract": "contracts/protocol/CaskSubscriptionManager.sol:CaskSubscriptionManager",
        "label": "__gap",
        "offset": 0,
        "slot": "1",
        "type": "t_array(t_uint256)50_storage"
      },
      {
        "astId": 205,
        "contract": "contracts/protocol/CaskSubscriptionManager.sol:CaskSubscriptionManager",
        "label": "_owner",
        "offset": 0,
        "slot": "51",
        "type": "t_address"
      },
      {
        "astId": 319,
        "contract": "contracts/protocol/CaskSubscriptionManager.sol:CaskSubscriptionManager",
        "label": "__gap",
        "offset": 0,
        "slot": "52",
        "type": "t_array(t_uint256)49_storage"
      },
      {
        "astId": 415,
        "contract": "contracts/protocol/CaskSubscriptionManager.sol:CaskSubscriptionManager",
        "label": "_paused",
        "offset": 0,
        "slot": "101",
        "type": "t_bool"
      },
      {
        "astId": 506,
        "contract": "contracts/protocol/CaskSubscriptionManager.sol:CaskSubscriptionManager",
        "label": "__gap",
        "offset": 0,
        "slot": "102",
        "type": "t_array(t_uint256)49_storage"
      },
      {
        "astId": 8931,
        "contract": "contracts/protocol/CaskSubscriptionManager.sol:CaskSubscriptionManager",
        "label": "subscriptionPlans",
        "offset": 0,
        "slot": "151",
        "type": "t_contract(ICaskSubscriptionPlans)7697"
      },
      {
        "astId": 8934,
        "contract": "contracts/protocol/CaskSubscriptionManager.sol:CaskSubscriptionManager",
        "label": "subscriptions",
        "offset": 0,
        "slot": "152",
        "type": "t_contract(ICaskSubscriptions)8095"
      },
      {
        "astId": 8938,
        "contract": "contracts/protocol/CaskSubscriptionManager.sol:CaskSubscriptionManager",
        "label": "vault",
        "offset": 0,
        "slot": "153",
        "type": "t_contract(ICaskVault)8341"
      },
      {
        "astId": 8941,
        "contract": "contracts/protocol/CaskSubscriptionManager.sol:CaskSubscriptionManager",
        "label": "paymentFeeFixed",
        "offset": 0,
        "slot": "154",
        "type": "t_uint256"
      },
      {
        "astId": 8944,
        "contract": "contracts/protocol/CaskSubscriptionManager.sol:CaskSubscriptionManager",
        "label": "paymentFeeRateMin",
        "offset": 0,
        "slot": "155",
        "type": "t_uint256"
      },
      {
        "astId": 8946,
        "contract": "contracts/protocol/CaskSubscriptionManager.sol:CaskSubscriptionManager",
        "label": "paymentFeeRateMax",
        "offset": 0,
        "slot": "156",
        "type": "t_uint256"
      },
      {
        "astId": 8949,
        "contract": "contracts/protocol/CaskSubscriptionManager.sol:CaskSubscriptionManager",
        "label": "stakeTargetFactor",
        "offset": 0,
        "slot": "157",
        "type": "t_uint256"
      }
    ],
    "types": {
      "t_address": {
        "encoding": "inplace",
        "label": "address",
        "numberOfBytes": "20"
      },
      "t_array(t_uint256)49_storage": {
        "base": "t_uint256",
        "encoding": "inplace",
        "label": "uint256[49]",
        "numberOfBytes": "1568"
      },
      "t_array(t_uint256)50_storage": {
        "base": "t_uint256",
        "encoding": "inplace",
        "label": "uint256[50]",
        "numberOfBytes": "1600"
      },
      "t_bool": {
        "encoding": "inplace",
        "label": "bool",
        "numberOfBytes": "1"
      },
      "t_contract(ICaskSubscriptionPlans)7697": {
        "encoding": "inplace",
        "label": "contract ICaskSubscriptionPlans",
        "numberOfBytes": "20"
      },
      "t_contract(ICaskSubscriptions)8095": {
        "encoding": "inplace",
        "label": "contract ICaskSubscriptions",
        "numberOfBytes": "20"
      },
      "t_contract(ICaskVault)8341": {
        "encoding": "inplace",
        "label": "contract ICaskVault",
        "numberOfBytes": "20"
      },
      "t_uint256": {
        "encoding": "inplace",
        "label": "uint256",
        "numberOfBytes": "32"
      }
    }
  }
}