{
  "address": "0x082CAd5CC6d7c2db5fa6F396545A6Af52265DcF7",
  "abi": [
    {
      "inputs": [],
      "stateMutability": "nonpayable",
      "type": "constructor"
    },
    {
      "anonymous": false,
      "inputs": [
        {
          "indexed": true,
          "internalType": "address",
          "name": "owner",
          "type": "address"
        },
        {
          "indexed": true,
          "internalType": "address",
          "name": "approved",
          "type": "address"
        },
        {
          "indexed": true,
          "internalType": "uint256",
          "name": "tokenId",
          "type": "uint256"
        }
      ],
      "name": "Approval",
      "type": "event"
    },
    {
      "anonymous": false,
      "inputs": [
        {
          "indexed": true,
          "internalType": "address",
          "name": "owner",
          "type": "address"
        },
        {
          "indexed": true,
          "internalType": "address",
          "name": "operator",
          "type": "address"
        },
        {
          "indexed": false,
          "internalType": "bool",
          "name": "approved",
          "type": "bool"
        }
      ],
      "name": "ApprovalForAll",
      "type": "event"
    },
    {
      "anonymous": false,
      "inputs": [
        {
          "indexed": true,
          "internalType": "address",
          "name": "previousOwner",
          "type": "address"
        },
        {
          "indexed": true,
          "internalType": "address",
          "name": "newOwner",
          "type": "address"
        }
      ],
      "name": "OwnershipTransferred",
      "type": "event"
    },
    {
      "anonymous": false,
      "inputs": [
        {
          "indexed": false,
          "internalType": "address",
          "name": "account",
          "type": "address"
        }
      ],
      "name": "Paused",
      "type": "event"
    },
    {
      "anonymous": false,
      "inputs": [
        {
          "indexed": true,
          "internalType": "address",
          "name": "consumer",
          "type": "address"
        },
        {
          "indexed": true,
          "internalType": "address",
          "name": "provider",
          "type": "address"
        },
        {
          "indexed": true,
          "internalType": "uint256",
          "name": "subscriptionId",
          "type": "uint256"
        },
        {
          "indexed": false,
          "internalType": "bytes32",
          "name": "ref",
          "type": "bytes32"
        },
        {
          "indexed": false,
          "internalType": "uint32",
          "name": "planId",
          "type": "uint32"
        }
      ],
      "name": "SubscriptionCanceled",
      "type": "event"
    },
    {
      "anonymous": false,
      "inputs": [
        {
          "indexed": true,
          "internalType": "address",
          "name": "consumer",
          "type": "address"
        },
        {
          "indexed": true,
          "internalType": "address",
          "name": "provider",
          "type": "address"
        },
        {
          "indexed": true,
          "internalType": "uint256",
          "name": "subscriptionId",
          "type": "uint256"
        },
        {
          "indexed": false,
          "internalType": "bytes32",
          "name": "ref",
          "type": "bytes32"
        },
        {
          "indexed": false,
          "internalType": "uint32",
          "name": "planId",
          "type": "uint32"
        },
        {
          "indexed": false,
          "internalType": "bytes32",
          "name": "discountId",
          "type": "bytes32"
        }
      ],
      "name": "SubscriptionChangedDiscount",
      "type": "event"
    },
    {
      "anonymous": false,
      "inputs": [
        {
          "indexed": true,
          "internalType": "address",
          "name": "consumer",
          "type": "address"
        },
        {
          "indexed": true,
          "internalType": "address",
          "name": "provider",
          "type": "address"
        },
        {
          "indexed": true,
          "internalType": "uint256",
          "name": "subscriptionId",
          "type": "uint256"
        },
        {
          "indexed": false,
          "internalType": "bytes32",
          "name": "ref",
          "type": "bytes32"
        },
        {
          "indexed": false,
          "internalType": "uint32",
          "name": "prevPlanId",
          "type": "uint32"
        },
        {
          "indexed": false,
          "internalType": "uint32",
          "name": "planId",
          "type": "uint32"
        },
        {
          "indexed": false,
          "internalType": "bytes32",
          "name": "discountId",
          "type": "bytes32"
        }
      ],
      "name": "SubscriptionChangedPlan",
      "type": "event"
    },
    {
      "anonymous": false,
      "inputs": [
        {
          "indexed": true,
          "internalType": "address",
          "name": "consumer",
          "type": "address"
        },
        {
          "indexed": true,
          "internalType": "address",
          "name": "provider",
          "type": "address"
        },
        {
          "indexed": true,
          "internalType": "uint256",
          "name": "subscriptionId",
          "type": "uint256"
        },
        {
          "indexed": false,
          "internalType": "bytes32",
          "name": "ref",
          "type": "bytes32"
        },
        {
          "indexed": false,
          "internalType": "uint32",
          "name": "planId",
          "type": "uint32"
        },
        {
          "indexed": false,
          "internalType": "bytes32",
          "name": "discountId",
          "type": "bytes32"
        }
      ],
      "name": "SubscriptionCreated",
      "type": "event"
    },
    {
      "anonymous": false,
      "inputs": [
        {
          "indexed": true,
          "internalType": "address",
          "name": "consumer",
          "type": "address"
        },
        {
          "indexed": true,
          "internalType": "address",
          "name": "provider",
          "type": "address"
        },
        {
          "indexed": true,
          "internalType": "uint256",
          "name": "subscriptionId",
          "type": "uint256"
        },
        {
          "indexed": false,
          "internalType": "bytes32",
          "name": "ref",
          "type": "bytes32"
        },
        {
          "indexed": false,
          "internalType": "uint32",
          "name": "planId",
          "type": "uint32"
        }
      ],
      "name": "SubscriptionPastDue",
      "type": "event"
    },
    {
      "anonymous": false,
      "inputs": [
        {
          "indexed": true,
          "internalType": "address",
          "name": "consumer",
          "type": "address"
        },
        {
          "indexed": true,
          "internalType": "address",
          "name": "provider",
          "type": "address"
        },
        {
          "indexed": true,
          "internalType": "uint256",
          "name": "subscriptionId",
          "type": "uint256"
        },
        {
          "indexed": false,
          "internalType": "bytes32",
          "name": "ref",
          "type": "bytes32"
        },
        {
          "indexed": false,
          "internalType": "uint32",
          "name": "planId",
          "type": "uint32"
        }
      ],
      "name": "SubscriptionPaused",
      "type": "event"
    },
    {
      "anonymous": false,
      "inputs": [
        {
          "indexed": true,
          "internalType": "address",
          "name": "consumer",
          "type": "address"
        },
        {
          "indexed": true,
          "internalType": "address",
          "name": "provider",
          "type": "address"
        },
        {
          "indexed": true,
          "internalType": "uint256",
          "name": "subscriptionId",
          "type": "uint256"
        },
        {
          "indexed": false,
          "internalType": "bytes32",
          "name": "ref",
          "type": "bytes32"
        },
        {
          "indexed": false,
          "internalType": "uint32",
          "name": "planId",
          "type": "uint32"
        },
        {
          "indexed": false,
          "internalType": "uint32",
          "name": "cancelAt",
          "type": "uint32"
        }
      ],
      "name": "SubscriptionPendingCancel",
      "type": "event"
    },
    {
      "anonymous": false,
      "inputs": [
        {
          "indexed": true,
          "internalType": "address",
          "name": "consumer",
          "type": "address"
        },
        {
          "indexed": true,
          "internalType": "address",
          "name": "provider",
          "type": "address"
        },
        {
          "indexed": true,
          "internalType": "uint256",
          "name": "subscriptionId",
          "type": "uint256"
        },
        {
          "indexed": false,
          "internalType": "bytes32",
          "name": "ref",
          "type": "bytes32"
        },
        {
          "indexed": false,
          "internalType": "uint32",
          "name": "prevPlanId",
          "type": "uint32"
        },
        {
          "indexed": false,
          "internalType": "uint32",
          "name": "planId",
          "type": "uint32"
        }
      ],
      "name": "SubscriptionPendingChangePlan",
      "type": "event"
    },
    {
      "anonymous": false,
      "inputs": [
        {
          "indexed": true,
          "internalType": "address",
          "name": "consumer",
          "type": "address"
        },
        {
          "indexed": true,
          "internalType": "address",
          "name": "provider",
          "type": "address"
        },
        {
          "indexed": true,
          "internalType": "uint256",
          "name": "subscriptionId",
          "type": "uint256"
        },
        {
          "indexed": false,
          "internalType": "bytes32",
          "name": "ref",
          "type": "bytes32"
        },
        {
          "indexed": false,
          "internalType": "uint32",
          "name": "planId",
          "type": "uint32"
        }
      ],
      "name": "SubscriptionRenewed",
      "type": "event"
    },
    {
      "anonymous": false,
      "inputs": [
        {
          "indexed": true,
          "internalType": "address",
          "name": "consumer",
          "type": "address"
        },
        {
          "indexed": true,
          "internalType": "address",
          "name": "provider",
          "type": "address"
        },
        {
          "indexed": true,
          "internalType": "uint256",
          "name": "subscriptionId",
          "type": "uint256"
        },
        {
          "indexed": false,
          "internalType": "bytes32",
          "name": "ref",
          "type": "bytes32"
        },
        {
          "indexed": false,
          "internalType": "uint32",
          "name": "planId",
          "type": "uint32"
        }
      ],
      "name": "SubscriptionResumed",
      "type": "event"
    },
    {
      "anonymous": false,
      "inputs": [
        {
          "indexed": true,
          "internalType": "address",
          "name": "consumer",
          "type": "address"
        },
        {
          "indexed": true,
          "internalType": "address",
          "name": "provider",
          "type": "address"
        },
        {
          "indexed": true,
          "internalType": "uint256",
          "name": "subscriptionId",
          "type": "uint256"
        },
        {
          "indexed": false,
          "internalType": "bytes32",
          "name": "ref",
          "type": "bytes32"
        },
        {
          "indexed": false,
          "internalType": "uint32",
          "name": "planId",
          "type": "uint32"
        }
      ],
      "name": "SubscriptionTrialEnded",
      "type": "event"
    },
    {
      "anonymous": false,
      "inputs": [
        {
          "indexed": true,
          "internalType": "address",
          "name": "from",
          "type": "address"
        },
        {
          "indexed": true,
          "internalType": "address",
          "name": "to",
          "type": "address"
        },
        {
          "indexed": true,
          "internalType": "uint256",
          "name": "tokenId",
          "type": "uint256"
        }
      ],
      "name": "Transfer",
      "type": "event"
    },
    {
      "anonymous": false,
      "inputs": [
        {
          "indexed": false,
          "internalType": "address",
          "name": "account",
          "type": "address"
        }
      ],
      "name": "Unpaused",
      "type": "event"
    },
    {
      "inputs": [
        {
          "internalType": "address",
          "name": "to",
          "type": "address"
        },
        {
          "internalType": "uint256",
          "name": "tokenId",
          "type": "uint256"
        }
      ],
      "name": "approve",
      "outputs": [],
      "stateMutability": "nonpayable",
      "type": "function"
    },
    {
      "inputs": [
        {
          "internalType": "address",
          "name": "owner",
          "type": "address"
        }
      ],
      "name": "balanceOf",
      "outputs": [
        {
          "internalType": "uint256",
          "name": "",
          "type": "uint256"
        }
      ],
      "stateMutability": "view",
      "type": "function"
    },
    {
      "inputs": [
        {
          "internalType": "uint256",
          "name": "_subscriptionId",
          "type": "uint256"
        },
        {
          "internalType": "uint32",
          "name": "_cancelAt",
          "type": "uint32"
        }
      ],
      "name": "cancelSubscription",
      "outputs": [],
      "stateMutability": "nonpayable",
      "type": "function"
    },
    {
      "inputs": [
        {
          "internalType": "uint256",
          "name": "_subscriptionId",
          "type": "uint256"
        },
        {
          "internalType": "bytes32[]",
          "name": "_discountProof",
          "type": "bytes32[]"
        }
      ],
      "name": "changeSubscriptionDiscount",
      "outputs": [],
      "stateMutability": "nonpayable",
      "type": "function"
    },
    {
      "inputs": [
        {
          "internalType": "uint256",
          "name": "_subscriptionId",
          "type": "uint256"
        },
        {
          "internalType": "uint256",
          "name": "_nonce",
          "type": "uint256"
        },
        {
          "internalType": "bytes32[]",
          "name": "_planProof",
          "type": "bytes32[]"
        },
        {
          "internalType": "bytes32[]",
          "name": "_discountProof",
          "type": "bytes32[]"
        },
        {
          "internalType": "bytes",
          "name": "_providerSignature",
          "type": "bytes"
        },
        {
          "internalType": "string",
          "name": "_cid",
          "type": "string"
        }
      ],
      "name": "changeSubscriptionPlan",
      "outputs": [],
      "stateMutability": "nonpayable",
      "type": "function"
    },
    {
      "inputs": [
        {
          "internalType": "uint256",
          "name": "_nonce",
          "type": "uint256"
        },
        {
          "internalType": "bytes32[]",
          "name": "_planProof",
          "type": "bytes32[]"
        },
        {
          "internalType": "bytes32[]",
          "name": "_discountProof",
          "type": "bytes32[]"
        },
        {
          "internalType": "bytes32",
          "name": "_networkData",
          "type": "bytes32"
        },
        {
          "internalType": "uint32",
          "name": "_cancelAt",
          "type": "uint32"
        },
        {
          "internalType": "bytes",
          "name": "_providerSignature",
          "type": "bytes"
        },
        {
          "internalType": "bytes",
          "name": "_networkSignature",
          "type": "bytes"
        },
        {
          "internalType": "string",
          "name": "_cid",
          "type": "string"
        }
      ],
      "name": "createNetworkSubscription",
      "outputs": [],
      "stateMutability": "nonpayable",
      "type": "function"
    },
    {
      "inputs": [
        {
          "internalType": "uint256",
          "name": "_nonce",
          "type": "uint256"
        },
        {
          "internalType": "bytes32[]",
          "name": "_planProof",
          "type": "bytes32[]"
        },
        {
          "internalType": "bytes32[]",
          "name": "_discountProof",
          "type": "bytes32[]"
        },
        {
          "internalType": "uint32",
          "name": "_cancelAt",
          "type": "uint32"
        },
        {
          "internalType": "bytes",
          "name": "_providerSignature",
          "type": "bytes"
        },
        {
          "internalType": "string",
          "name": "_cid",
          "type": "string"
        }
      ],
      "name": "createSubscription",
      "outputs": [],
      "stateMutability": "nonpayable",
      "type": "function"
    },
    {
      "inputs": [],
      "name": "getActiveSubscriptions",
      "outputs": [
        {
          "internalType": "uint256[]",
          "name": "",
          "type": "uint256[]"
        }
      ],
      "stateMutability": "view",
      "type": "function"
    },
    {
      "inputs": [],
      "name": "getActiveSubscriptionsCount",
      "outputs": [
        {
          "internalType": "uint256",
          "name": "",
          "type": "uint256"
        }
      ],
      "stateMutability": "view",
      "type": "function"
    },
    {
      "inputs": [
        {
          "internalType": "uint256",
          "name": "tokenId",
          "type": "uint256"
        }
      ],
      "name": "getApproved",
      "outputs": [
        {
          "internalType": "address",
          "name": "",
          "type": "address"
        }
      ],
      "stateMutability": "view",
      "type": "function"
    },
    {
      "inputs": [
        {
          "internalType": "address",
          "name": "_consumer",
          "type": "address"
        }
      ],
      "name": "getConsumerSubscriptionCount",
      "outputs": [
        {
          "internalType": "uint256",
          "name": "",
          "type": "uint256"
        }
      ],
      "stateMutability": "view",
      "type": "function"
    },
    {
      "inputs": [
        {
          "internalType": "address",
          "name": "_consumer",
          "type": "address"
        },
        {
          "internalType": "uint256",
          "name": "_limit",
          "type": "uint256"
        },
        {
          "internalType": "uint256",
          "name": "_offset",
          "type": "uint256"
        }
      ],
      "name": "getConsumerSubscriptions",
      "outputs": [
        {
          "internalType": "uint256[]",
          "name": "",
          "type": "uint256[]"
        }
      ],
      "stateMutability": "view",
      "type": "function"
    },
    {
      "inputs": [
        {
          "internalType": "uint256",
          "name": "_subscriptionId",
          "type": "uint256"
        }
      ],
      "name": "getPendingPlanChange",
      "outputs": [
        {
          "internalType": "bytes32",
          "name": "",
          "type": "bytes32"
        }
      ],
      "stateMutability": "view",
      "type": "function"
    },
    {
      "inputs": [
        {
          "internalType": "address",
          "name": "_provider",
          "type": "address"
        }
      ],
      "name": "getProviderActiveSubscriptionCount",
      "outputs": [
        {
          "internalType": "uint256",
          "name": "",
          "type": "uint256"
        }
      ],
      "stateMutability": "view",
      "type": "function"
    },
    {
      "inputs": [
        {
          "internalType": "address",
          "name": "_provider",
          "type": "address"
        },
        {
          "internalType": "uint32",
          "name": "_planId",
          "type": "uint32"
        }
      ],
      "name": "getProviderPlanActiveSubscriptionCount",
      "outputs": [
        {
          "internalType": "uint256",
          "name": "",
          "type": "uint256"
        }
      ],
      "stateMutability": "view",
      "type": "function"
    },
    {
      "inputs": [
        {
          "internalType": "address",
          "name": "_provider",
          "type": "address"
        }
      ],
      "name": "getProviderSubscriptionCount",
      "outputs": [
        {
          "internalType": "uint256",
          "name": "",
          "type": "uint256"
        }
      ],
      "stateMutability": "view",
      "type": "function"
    },
    {
      "inputs": [
        {
          "internalType": "address",
          "name": "_provider",
          "type": "address"
        },
        {
          "internalType": "uint256",
          "name": "_limit",
          "type": "uint256"
        },
        {
          "internalType": "uint256",
          "name": "_offset",
          "type": "uint256"
        }
      ],
      "name": "getProviderSubscriptions",
      "outputs": [
        {
          "internalType": "uint256[]",
          "name": "",
          "type": "uint256[]"
        }
      ],
      "stateMutability": "view",
      "type": "function"
    },
    {
      "inputs": [
        {
          "internalType": "uint256",
          "name": "_subscriptionId",
          "type": "uint256"
        }
      ],
      "name": "getSubscription",
      "outputs": [
        {
          "components": [
            {
              "internalType": "bytes32",
              "name": "planData",
              "type": "bytes32"
            },
            {
              "internalType": "bytes32",
              "name": "networkData",
              "type": "bytes32"
            },
            {
              "internalType": "bytes32",
              "name": "discountId",
              "type": "bytes32"
            },
            {
              "internalType": "bytes32",
              "name": "discountData",
              "type": "bytes32"
            },
            {
              "internalType": "bytes32",
              "name": "ref",
              "type": "bytes32"
            },
            {
              "internalType": "address",
              "name": "provider",
              "type": "address"
            },
            {
              "internalType": "enum ICaskSubscriptions.SubscriptionStatus",
              "name": "status",
              "type": "uint8"
            },
            {
              "internalType": "uint32",
              "name": "planId",
              "type": "uint32"
            },
            {
              "internalType": "uint32",
              "name": "createdAt",
              "type": "uint32"
            },
            {
              "internalType": "uint32",
              "name": "renewAt",
              "type": "uint32"
            },
            {
              "internalType": "uint32",
              "name": "minTermAt",
              "type": "uint32"
            },
            {
              "internalType": "uint32",
              "name": "cancelAt",
              "type": "uint32"
            },
            {
              "internalType": "string",
              "name": "cid",
              "type": "string"
            }
          ],
          "internalType": "struct ICaskSubscriptions.Subscription",
          "name": "subscription",
          "type": "tuple"
        },
        {
          "internalType": "address",
          "name": "currentOwner",
          "type": "address"
        }
      ],
      "stateMutability": "view",
      "type": "function"
    },
    {
      "inputs": [
        {
          "internalType": "address",
          "name": "_subscriptionPlans",
          "type": "address"
        }
      ],
      "name": "initialize",
      "outputs": [],
      "stateMutability": "nonpayable",
      "type": "function"
    },
    {
      "inputs": [
        {
          "internalType": "address",
          "name": "owner",
          "type": "address"
        },
        {
          "internalType": "address",
          "name": "operator",
          "type": "address"
        }
      ],
      "name": "isApprovedForAll",
      "outputs": [
        {
          "internalType": "bool",
          "name": "",
          "type": "bool"
        }
      ],
      "stateMutability": "view",
      "type": "function"
    },
    {
      "inputs": [
        {
          "internalType": "address",
          "name": "forwarder",
          "type": "address"
        }
      ],
      "name": "isTrustedForwarder",
      "outputs": [
        {
          "internalType": "bool",
          "name": "",
          "type": "bool"
        }
      ],
      "stateMutability": "view",
      "type": "function"
    },
    {
      "inputs": [
        {
          "internalType": "uint256",
          "name": "_subscriptionId",
          "type": "uint256"
        },
        {
          "internalType": "enum ICaskSubscriptions.ManagerCommand",
          "name": "_command",
          "type": "uint8"
        }
      ],
      "name": "managerCommand",
      "outputs": [],
      "stateMutability": "nonpayable",
      "type": "function"
    },
    {
      "inputs": [],
      "name": "name",
      "outputs": [
        {
          "internalType": "string",
          "name": "",
          "type": "string"
        }
      ],
      "stateMutability": "view",
      "type": "function"
    },
    {
      "inputs": [],
      "name": "owner",
      "outputs": [
        {
          "internalType": "address",
          "name": "",
          "type": "address"
        }
      ],
      "stateMutability": "view",
      "type": "function"
    },
    {
      "inputs": [
        {
          "internalType": "uint256",
          "name": "tokenId",
          "type": "uint256"
        }
      ],
      "name": "ownerOf",
      "outputs": [
        {
          "internalType": "address",
          "name": "",
          "type": "address"
        }
      ],
      "stateMutability": "view",
      "type": "function"
    },
    {
      "inputs": [],
      "name": "pause",
      "outputs": [],
      "stateMutability": "nonpayable",
      "type": "function"
    },
    {
      "inputs": [
        {
          "internalType": "uint256",
          "name": "_subscriptionId",
          "type": "uint256"
        }
      ],
      "name": "pauseSubscription",
      "outputs": [],
      "stateMutability": "nonpayable",
      "type": "function"
    },
    {
      "inputs": [],
      "name": "paused",
      "outputs": [
        {
          "internalType": "bool",
          "name": "",
          "type": "bool"
        }
      ],
      "stateMutability": "view",
      "type": "function"
    },
    {
      "inputs": [],
      "name": "renounceOwnership",
      "outputs": [],
      "stateMutability": "nonpayable",
      "type": "function"
    },
    {
      "inputs": [
        {
          "internalType": "uint256",
          "name": "_subscriptionId",
          "type": "uint256"
        }
      ],
      "name": "resumeSubscription",
      "outputs": [],
      "stateMutability": "nonpayable",
      "type": "function"
    },
    {
      "inputs": [
        {
          "internalType": "address",
          "name": "from",
          "type": "address"
        },
        {
          "internalType": "address",
          "name": "to",
          "type": "address"
        },
        {
          "internalType": "uint256",
          "name": "tokenId",
          "type": "uint256"
        }
      ],
      "name": "safeTransferFrom",
      "outputs": [],
      "stateMutability": "nonpayable",
      "type": "function"
    },
    {
      "inputs": [
        {
          "internalType": "address",
          "name": "from",
          "type": "address"
        },
        {
          "internalType": "address",
          "name": "to",
          "type": "address"
        },
        {
          "internalType": "uint256",
          "name": "tokenId",
          "type": "uint256"
        },
        {
          "internalType": "bytes",
          "name": "_data",
          "type": "bytes"
        }
      ],
      "name": "safeTransferFrom",
      "outputs": [],
      "stateMutability": "nonpayable",
      "type": "function"
    },
    {
      "inputs": [
        {
          "internalType": "address",
          "name": "operator",
          "type": "address"
        },
        {
          "internalType": "bool",
          "name": "approved",
          "type": "bool"
        }
      ],
      "name": "setApprovalForAll",
      "outputs": [],
      "stateMutability": "nonpayable",
      "type": "function"
    },
    {
      "inputs": [
        {
          "internalType": "address",
          "name": "_subscriptionManager",
          "type": "address"
        }
      ],
      "name": "setManager",
      "outputs": [],
      "stateMutability": "nonpayable",
      "type": "function"
    },
    {
      "inputs": [
        {
          "internalType": "address",
          "name": "_forwarder",
          "type": "address"
        }
      ],
      "name": "setTrustedForwarder",
      "outputs": [],
      "stateMutability": "nonpayable",
      "type": "function"
    },
    {
      "inputs": [],
      "name": "subscriptionManager",
      "outputs": [
        {
          "internalType": "contract ICaskSubscriptionManager",
          "name": "",
          "type": "address"
        }
      ],
      "stateMutability": "view",
      "type": "function"
    },
    {
      "inputs": [],
      "name": "subscriptionPlans",
      "outputs": [
        {
          "internalType": "contract ICaskSubscriptionPlans",
          "name": "",
          "type": "address"
        }
      ],
      "stateMutability": "view",
      "type": "function"
    },
    {
      "inputs": [
        {
          "internalType": "bytes4",
          "name": "interfaceId",
          "type": "bytes4"
        }
      ],
      "name": "supportsInterface",
      "outputs": [
        {
          "internalType": "bool",
          "name": "",
          "type": "bool"
        }
      ],
      "stateMutability": "view",
      "type": "function"
    },
    {
      "inputs": [],
      "name": "symbol",
      "outputs": [
        {
          "internalType": "string",
          "name": "",
          "type": "string"
        }
      ],
      "stateMutability": "view",
      "type": "function"
    },
    {
      "inputs": [
        {
          "internalType": "uint256",
          "name": "_subscriptionId",
          "type": "uint256"
        }
      ],
      "name": "tokenURI",
      "outputs": [
        {
          "internalType": "string",
          "name": "",
          "type": "string"
        }
      ],
      "stateMutability": "view",
      "type": "function"
    },
    {
      "inputs": [
        {
          "internalType": "address",
          "name": "from",
          "type": "address"
        },
        {
          "internalType": "address",
          "name": "to",
          "type": "address"
        },
        {
          "internalType": "uint256",
          "name": "tokenId",
          "type": "uint256"
        }
      ],
      "name": "transferFrom",
      "outputs": [],
      "stateMutability": "nonpayable",
      "type": "function"
    },
    {
      "inputs": [
        {
          "internalType": "address",
          "name": "newOwner",
          "type": "address"
        }
      ],
      "name": "transferOwnership",
      "outputs": [],
      "stateMutability": "nonpayable",
      "type": "function"
    },
    {
      "inputs": [],
      "name": "trustedForwarder",
      "outputs": [
        {
          "internalType": "address",
          "name": "",
          "type": "address"
        }
      ],
      "stateMutability": "view",
      "type": "function"
    },
    {
      "inputs": [],
      "name": "unpause",
      "outputs": [],
      "stateMutability": "nonpayable",
      "type": "function"
    },
    {
      "inputs": [],
      "name": "versionRecipient",
      "outputs": [
        {
          "internalType": "string",
          "name": "",
          "type": "string"
        }
      ],
      "stateMutability": "pure",
      "type": "function"
    }
  ],
  "transactionHash": "0xa30b9ba799d2586ddff5047448e32f5bd5d65e55d44d1cb0670b4b41503216ef",
  "args": [],
  "numDeployments": 1,
  "solcInputHash": "a99c6c066e8671457738dab1e566a864",
  "bytecode": "0x60806040523480156200001157600080fd5b50600054610100900460ff166200002f5760005460ff161562000039565b62000039620000de565b620000a15760405162461bcd60e51b815260206004820152602e60248201527f496e697469616c697a61626c653a20636f6e747261637420697320616c72656160448201526d191e481a5b9a5d1a585b1a5e995960921b606482015260840160405180910390fd5b600054610100900460ff16158015620000c4576000805461ffff19166101011790555b8015620000d7576000805461ff00191690555b5062000102565b6000620000f630620000fc60201b620027e41760201c565b15905090565b3b151590565b615b7c80620001126000396000f3fe608060405234801561001057600080fd5b506004361061027f5760003560e01c80638da5cb5b1161015c578063bf158fd2116100ce578063da74222811610087578063da742228146105eb578063dc311dd3146105fe578063e985e9c51461061f578063f268f53e1461065b578063f2fde38b14610685578063f6189f0e1461069857600080fd5b8063bf158fd214610554578063c4d66de814610567578063c7a687bf1461057a578063c86e6954146105a4578063c87b56dd146105c5578063d0ebdbe7146105d857600080fd5b806398c0bce01161012057806398c0bce0146104ed578063a22cb465146104f5578063ab5f8b7c14610508578063ac58e37b1461051b578063b88d4fde1461052e578063ba4bf1b61461054157600080fd5b80638da5cb5b1461046f5780638fe17b1614610480578063925fa591146104935780639377877d146104a657806395d89b41146104e557600080fd5b80634d5106ae116101f557806370a08231116101b957806370a0823114610415578063715018a6146104285780637da0a877146104305780637df7b2aa14610441578063825527ff146104545780638456cb591461046757600080fd5b80634d5106ae146103ad578063572b6c05146103c05780635bdc4269146103e25780635c975abb146103f75780636352211e1461040257600080fd5b806323b872dd1161024757806323b872dd14610314578063291b9a3f146103275780633f4ba83a1461035e57806341f23f0a1461036657806342842e0e14610379578063486ff0cd1461038c57600080fd5b806301ffc9a714610284578063023a584e146102ac57806306fdde03146102c1578063081812fc146102d6578063095ea7b314610301575b600080fd5b610297610292366004614cd2565b6106ab565b60405190151581526020015b60405180910390f35b6102bf6102ba366004614cef565b6106fd565b005b6102c961097a565b6040516102a39190614d60565b6102e96102e4366004614cef565b610a0c565b6040516001600160a01b0390911681526020016102a3565b6102bf61030f366004614d88565b610aa1565b6102bf610322366004614db4565b610bc9565b610350610335366004614df5565b6001600160a01b0316600090815260ff602052604090205490565b6040519081526020016102a3565b6102bf610c01565b6102bf610374366004614cef565b610c54565b6102bf610387366004614db4565b610f32565b6040805180820190915260058152640322e322e360dc1b60208201526102c9565b6102bf6103bb366004614f9b565b610f4d565b6102976103ce366004614df5565b6065546001600160a01b0391821691161490565b6103ea610f8d565b6040516102a39190615078565b60ca5460ff16610297565b6102e9610410366004614cef565b610fe4565b610350610423366004614df5565b61105b565b6102bf6110e2565b6065546001600160a01b03166102e9565b6102bf61044f3660046150bc565b611135565b6102bf6104623660046150f0565b6117af565b6102bf611814565b6098546001600160a01b03166102e9565b60fd546102e9906001600160a01b031681565b6102bf6104a13660046151ff565b611865565b6103506104b436600461522b565b6001600160a01b03821660009081526101046020908152604080832063ffffffff8516845290915290205492915050565b6102c9611b58565b60fe54610350565b6102bf610503366004615265565b611b67565b6103ea610516366004615293565b611b7d565b6102bf6105293660046152c8565b611d06565b6102bf61053c366004615355565b611d7b565b6102bf61054f3660046153c0565b611dba565b60fc546102e9906001600160a01b031681565b6102bf610575366004614df5565b611f81565b610350610588366004614df5565b6001600160a01b03166000908152610103602052604090205490565b6103506105b2366004614cef565b6000908152610101602052604090205490565b6102c96105d3366004614cef565b6120b9565b6102bf6105e6366004614df5565b6122e0565b6102bf6105f9366004614df5565b61234b565b61061161060c366004614cef565b6123b5565b6040516102a3929190615443565b61029761062d36600461555f565b6001600160a01b039182166000908152606b6020908152604080832093909416825291909152205460ff1690565b610350610669366004614df5565b6001600160a01b03166000908152610102602052604090205490565b6102bf610693366004614df5565b6125d9565b6103ea6106a6366004615293565b612690565b60006001600160e01b031982166380ac58cd60e01b14806106dc57506001600160e01b03198216635b5e139f60e01b145b806106f757506301ffc9a760e01b6001600160e01b03198316145b92915050565b8061070781610fe4565b6001600160a01b03166107186127ea565b6001600160a01b0316146107475760405162461bcd60e51b815260040161073e9061558d565b60405180910390fd5b60ca5460ff161561076a5760405162461bcd60e51b815260040161073e906155ac565b6000828152610100602052604090206003600582810154600160a01b900460ff169081111561079b5761079b61540b565b146107d65760405162461bcd60e51b815260206004820152600b60248201526a085393d517d4105554d15160aa1b604482015260640161073e565b60006107e582600001546127f9565b9050806080015163ffffffff16600014806108385750608081015160058301546001600160a01b03166000908152610104602090815260408083208286015163ffffffff90811685529252909120549116115b6108725760405162461bcd60e51b815260206004820152600b60248201526a214d41585f41435449564560a81b604482015260640161073e565b60058201805460ff60a01b198116600160a11b17918290556001600160a01b0316600090815261010460209081526040808320600160a81b90940463ffffffff1683529290529081208054600192906108cc9084906155ec565b9091555050600682015463ffffffff428116911610156108fe5760068201805463ffffffff19164263ffffffff161790555b600582015484906001600160a01b031661091782610fe4565b6004850154600586015460408051928352600160a81b90910463ffffffff1660208301526001600160a01b0392909216917f7ee0fc3eab7021686f891346ebbf5bab192d6f9995fcc66021f4551888dc148191015b60405180910390a450505050565b60606066805461098990615604565b80601f01602080910402602001604051908101604052809291908181526020018280546109b590615604565b8015610a025780601f106109d757610100808354040283529160200191610a02565b820191906000526020600020905b8154815290600101906020018083116109e557829003601f168201915b5050505050905090565b6000818152606860205260408120546001600160a01b0316610a855760405162461bcd60e51b815260206004820152602c60248201527f4552433732313a20617070726f76656420717565727920666f72206e6f6e657860448201526b34b9ba32b73a103a37b5b2b760a11b606482015260840161073e565b506000908152606a60205260409020546001600160a01b031690565b6000610aac82610fe4565b9050806001600160a01b0316836001600160a01b03161415610b1a5760405162461bcd60e51b815260206004820152602160248201527f4552433732313a20617070726f76616c20746f2063757272656e74206f776e656044820152603960f91b606482015260840161073e565b806001600160a01b0316610b2c6127ea565b6001600160a01b03161480610b485750610b488161062d6127ea565b610bba5760405162461bcd60e51b815260206004820152603860248201527f4552433732313a20617070726f76652063616c6c6572206973206e6f74206f7760448201527f6e6572206e6f7220617070726f76656420666f7220616c6c0000000000000000606482015260840161073e565b610bc483836128d4565b505050565b610bda610bd46127ea565b82612942565b610bf65760405162461bcd60e51b815260040161073e9061563f565b610bc4838383612a39565b610c096127ea565b6001600160a01b0316610c246098546001600160a01b031690565b6001600160a01b031614610c4a5760405162461bcd60e51b815260040161073e90615690565b610c52612be4565b565b80610c5e81610fe4565b6001600160a01b0316610c6f6127ea565b6001600160a01b03161480610cae5750600081815261010060205260409020600501546001600160a01b0316610ca36127ea565b6001600160a01b0316145b610cca5760405162461bcd60e51b815260040161073e9061558d565b60ca5460ff1615610ced5760405162461bcd60e51b815260040161073e906155ac565b6000828152610100602052604090206003600582810154600160a01b900460ff1690811115610d1e57610d1e61540b565b14158015610d4b575060058082810154600160a01b900460ff1690811115610d4857610d4861540b565b14155b8015610d7757506004600582810154600160a01b900460ff1690811115610d7457610d7461540b565b14155b8015610da357506001600582810154600160a01b900460ff1690811115610da057610da061540b565b14155b610dbf5760405162461bcd60e51b815260040161073e906156c5565b6006810154600160201b900463ffffffff161580610df35750600681015463ffffffff600160201b90910481164290911610155b610e0f5760405162461bcd60e51b815260040161073e906156ef565b6000610e1e82600001546127f9565b90508060e00151610e615760405162461bcd60e51b815260206004820152600d60248201526c214e4f545f5041555341424c4560981b604482015260640161073e565b60058201805460ff60a01b198116600360a01b17918290556001600160a01b0316600090815261010460209081526040808320600160a81b90940463ffffffff168352929052908120805460019290610ebb908490615712565b9091555050600582015484906001600160a01b0316610ed982610fe4565b6004850154600586015460408051928352600160a81b90910463ffffffff1660208301526001600160a01b0392909216917f7afd3b59e582bb56b590409b808e910ae787056cb10b682b9bdefa44c8eb940d910161096c565b610bc483838360405180602001604052806000815250611d7b565b60ca5460ff1615610f705760405162461bcd60e51b815260040161073e906155ac565b610f81898989898989898989612c7d565b50505050505050505050565b606060fe805480602002602001604051908101604052809291908181526020018280548015610a0257602002820191906000526020600020905b815481526020019060010190808311610fc7575050505050905090565b6000818152606860205260408120546001600160a01b0316806106f75760405162461bcd60e51b815260206004820152602960248201527f4552433732313a206f776e657220717565727920666f72206e6f6e657869737460448201526832b73a103a37b5b2b760b91b606482015260840161073e565b60006001600160a01b0382166110c65760405162461bcd60e51b815260206004820152602a60248201527f4552433732313a2062616c616e636520717565727920666f7220746865207a65604482015269726f206164647265737360b01b606482015260840161073e565b506001600160a01b031660009081526069602052604090205490565b6110ea6127ea565b6001600160a01b03166111056098546001600160a01b031690565b6001600160a01b03161461112b5760405162461bcd60e51b815260040161073e90615690565b610c526000613376565b60fc546001600160a01b03166111496127ea565b6001600160a01b03161461116f5760405162461bcd60e51b815260040161073e9061558d565b60ca5460ff16156111925760405162461bcd60e51b815260040161073e906155ac565b60008281526101006020526040902060018260058111156111b5576111b561540b565b14156113535760008381526101016020526040902054806112185760405162461bcd60e51b815260206004820152601960248201527f21494e56414c49442870656e64696e67506c616e446174612900000000000000604482015260640161073e565b6000611223826127f9565b600584015490915085906001600160a01b031661123f82610fe4565b6004860154600587015460208087015160028a01546040805195865263ffffffff600160a81b90950485169386019390935292169083015260608201526001600160a01b0391909116907fe17e61be0a4aac2f0b6fece72cedc2ab9ca554634d5af864a9282095206a0c2b9060800160405180910390a4602081015160058401805463ffffffff909216600160a81b0263ffffffff60a81b1990921691909117905581835560a081015161ffff161561133d578060a0015161ffff16816040015161130a9190615729565b61131a9063ffffffff16426155ec565b8360060160046101000a81548163ffffffff021916908363ffffffff1602179055505b5050506000918252506101016020526040812055565b60028260058111156113675761136761540b565b141561155d57600581018054600160a21b60ff60a01b198216179091556001600160a01b03166000908152610103602052604081208054600192906113ad908490615712565b909155505060058101546001600160a01b038116600090815261010460209081526040808320600160a81b90940463ffffffff1683529290529081208054600192906113fa908490615712565b9091555050600581015483906001600160a01b031661141882610fe4565b6004840154600585015460408051928352600160a81b90910463ffffffff1660208301526001600160a01b0392909216917f58e4414596fd750dbb9dabfe65b97bf5add2061f5902f34e2b82a9c25bd79f98910160405180910390a460fe805461148490600190615712565b8154811061149457611494615755565b906000526020600020015460fe610105600086815260200190815260200160002054815481106114c6576114c6615755565b600091825260208083209091019290925584815261010591829052604081205460fe805491939291849081106114fe576114fe615755565b906000526020600020015481526020019081526020016000208190555060fe80548061152c5761152c61576b565b60008281526020808220830160001990810183905590920190925584825261010590526040812055610bc4836133c8565b60038260058111156115715761157161540b565b141561160357600581018054600560a01b60ff60a01b1982161790915583906001600160a01b03166115a282610fe4565b6004840154600585015460408051928352600160a81b90910463ffffffff1660208301526001600160a01b0392909216917f44abb4f4529fdbcacc1ee98eef9318eaf9a12044d6925a2dc2c702959d9352f1910160405180910390a4505050565b60048260058111156116175761161761540b565b141561178957600061162c82600001546127f9565b90506001600583810154600160a01b900460ff16908111156116505761165061540b565b14156116cc57600582015484906001600160a01b031661166f82610fe4565b6004850154600586015460408051928352600160a81b90910463ffffffff1660208301526001600160a01b0392909216917ff42e506093cb49dad3d3349cf7a2b390140be665daecb2c820e903afd12b1df7910160405180910390a45b60058201805460ff60a01b1916600160a11b179055604081015160068301546116fb919063ffffffff16615781565b60068301805463ffffffff191663ffffffff92909216919091179055600582015484906001600160a01b031661173082610fe4565b6004850154600586015460408051928352600160a81b90910463ffffffff1660208301526001600160a01b0392909216917fcdd2eee203a384f2c6e81f39021f7e3ebef3a21ccd0d0f6dd117387ab61b6b54910161096c565b600582600581111561179d5761179d61540b565b1415610bc45760006003820155505050565b60ca5460ff16156117d25760405162461bcd60e51b815260040161073e906155ac565b60006117e58c8c8c8c8c8b8b8a8a612c7d565b90506117f1878561346f565b506000908152610100602052604090206001019590955550505050505050505050565b61181c6127ea565b6001600160a01b03166118376098546001600160a01b031690565b6001600160a01b03161461185d5760405162461bcd60e51b815260040161073e90615690565b610c52613595565b8161186f81610fe4565b6001600160a01b03166118806127ea565b6001600160a01b031614806118bf5750600081815261010060205260409020600501546001600160a01b03166118b46127ea565b6001600160a01b0316145b6118db5760405162461bcd60e51b815260040161073e9061558d565b60ca5460ff16156118fe5760405162461bcd60e51b815260040161073e906155ac565b6000838152610100602052604090206004600582810154600160a01b900460ff169081111561192f5761192f61540b565b141561194d5760405162461bcd60e51b815260040161073e906156c5565b4263ffffffff84166119be5761196285610fe4565b6001600160a01b03166119736127ea565b6001600160a01b0316146119995760405162461bcd60e51b815260040161073e9061558d565b60068201805463ffffffff60401b1916600160401b63ffffffff871602179055611ad4565b8063ffffffff168463ffffffff1611611a64576006820154600160201b900463ffffffff161580611a045750600682015463ffffffff600160201b909104811690821610155b611a205760405162461bcd60e51b815260040161073e906156ef565b60058201805460ff60a01b1916600160a21b179055600682018054600160401b63ffffffff84169081026bffffffff00000000ffffffff1990921617179055611ad4565b6006820154600160201b900463ffffffff161580611a975750600682015463ffffffff600160201b909104811690851610155b611ab35760405162461bcd60e51b815260040161073e906156ef565b60068201805463ffffffff60401b1916600160401b63ffffffff8716021790555b600582015485906001600160a01b0316611aed82610fe4565b6004850154600586015460408051928352600160a81b90910463ffffffff9081166020840152891682820152516001600160a01b0392909216917fc54424be96a88104b924830a25713de0140a7b7048d7a26370e735b421b057869181900360600190a45050505050565b60606067805461098990615604565b611b79611b726127ea565b83836135ee565b5050565b6001600160a01b038316600090815260ff60205260409020546060908390811115611bbd57506001600160a01b038416600090815260ff60205260409020545b6001600160a01b038516600090815260ff60205260409020548310611c115760005b604051908082528060200260200182016040528015611c08578160200160208202803683370190505b50915050611cff565b6000816001600160401b03811115611c2b57611c2b614e6f565b604051908082528060200260200182016040528015611c54578160200160208202803683370190505b50905060005b8281108015611c8957506001600160a01b038716600090815260ff6020526040902054611c8786836155ec565b105b15611cfa576001600160a01b038716600090815260ff60205260409020611cb086836155ec565b81548110611cc057611cc0615755565b9060005260206000200154828281518110611cdd57611cdd615755565b602090810291909101015280611cf2816157a9565b915050611c5a565b509150505b9392505050565b88611d1081610fe4565b6001600160a01b0316611d216127ea565b6001600160a01b031614611d475760405162461bcd60e51b815260040161073e9061558d565b60ca5460ff1615611d6a5760405162461bcd60e51b815260040161073e906155ac565b610f818a8a8a8a8a8a8a8a8a6136bd565b611d8c611d866127ea565b83612942565b611da85760405162461bcd60e51b815260040161073e9061563f565b611db484848484613a69565b50505050565b60ca5460ff1615611ddd5760405162461bcd60e51b815260040161073e906155ac565b600083815261010060205260409020600281015415611e335760405162461bcd60e51b81526020600482015260126024820152710851561254d5125391d7d11254d0d3d5539560721b604482015260640161073e565b60058101546001600160a01b0316611e496127ea565b6001600160a01b031614611e6f5760405162461bcd60e51b815260040161073e9061558d565b6000848152610101602052604090205415611ed15760008481526101016020526040812054611e9d906127f9565b60058301546020820151919250611ec1916001600160a01b03909116908686613a9c565b6003840155600283015550611f04565b6005810154611ef9906001600160a01b03811690600160a81b900463ffffffff168585613a9c565b600383015560028201555b600581015484906001600160a01b0316611f1d82610fe4565b60048401546005850154600386015460408051938452600160a81b90920463ffffffff166020840152908201526001600160a01b0391909116907f23be24e2f5bdda1a165ef44cb730243e3f79e09d3c28086b166ab914c79750609060600161096c565b600054610100900460ff16611f9c5760005460ff1615611fa0565b303b155b6120035760405162461bcd60e51b815260206004820152602e60248201527f496e697469616c697a61626c653a20636f6e747261637420697320616c72656160448201526d191e481a5b9a5d1a585b1a5e995960921b606482015260840161073e565b600054610100900460ff16158015612025576000805461ffff19166101011790555b61202d613c1b565b612035613c52565b612089604051806040016040528060128152602001714361736b20537562736372697074696f6e7360701b815250604051806040016040528060088152602001674341534b5355425360c01b815250613c89565b60fd80546001600160a01b0319166001600160a01b0384161790558015611b79576000805461ff00191690555050565b6000818152606860205260409020546060906001600160a01b03166121385760405162461bcd60e51b815260206004820152602f60248201527f4552433732314d657461646174613a2055524920717565727920666f72206e6f60448201526e3732bc34b9ba32b73a103a37b5b2b760891b606482015260840161073e565b60008281526101006020908152604080832081516101a0810183528154815260018201549381019390935260028101549183019190915260038101546060830152600481015460808301526005808201546001600160a01b03811660a085015260c0840191600160a01b90910460ff16908111156121b8576121b861540b565b60058111156121c9576121c961540b565b8152600582015463ffffffff600160a81b820481166020840152600160c81b9091048116604083015260068301548082166060840152600160201b810482166080840152600160401b90041660a082015260078201805460c09092019161222f90615604565b80601f016020809104026020016040519081016040528092919081815260200182805461225b90615604565b80156122a85780601f1061227d576101008083540402835291602001916122a8565b820191906000526020600020905b81548152906001019060200180831161228b57829003601f168201915b50505050508152505090508061018001516040516020016122c991906157c4565b604051602081830303815290604052915050919050565b6122e86127ea565b6001600160a01b03166123036098546001600160a01b031690565b6001600160a01b0316146123295760405162461bcd60e51b815260040161073e90615690565b60fc80546001600160a01b0319166001600160a01b0392909216919091179055565b6123536127ea565b6001600160a01b031661236e6098546001600160a01b031690565b6001600160a01b0316146123945760405162461bcd60e51b815260040161073e90615690565b606580546001600160a01b0319166001600160a01b03831617905550565b50565b604080516101a08101825260008082526020820181905291810182905260608082018390526080820183905260a0820183905260c0820183905260e0820183905261010082018390526101208201839052610140820183905261016082019290925261018081019190915260008281526101006020908152604080832081516101a0810183528154815260018201549381019390935260028101549183019190915260038101546060830152600481015460808301526005808201546001600160a01b03811660a085015260c0840191600160a01b90910460ff16908111156124a0576124a061540b565b60058111156124b1576124b161540b565b8152600582015463ffffffff600160a81b820481166020840152600160c81b9091048116604083015260068301548082166060840152600160201b810482166080840152600160401b90041660a082015260078201805460c09092019161251790615604565b80601f016020809104026020016040519081016040528092919081815260200182805461254390615604565b80156125905780601f1061256557610100808354040283529160200191612590565b820191906000526020600020905b81548152906001019060200180831161257357829003601f168201915b50505050508152505091506125bc836000908152606860205260409020546001600160a01b0316151590565b156125d1576125ca83610fe4565b9050915091565b506000915091565b6125e16127ea565b6001600160a01b03166125fc6098546001600160a01b031690565b6001600160a01b0316146126225760405162461bcd60e51b815260040161073e90615690565b6001600160a01b0381166126875760405162461bcd60e51b815260206004820152602660248201527f4f776e61626c653a206e6577206f776e657220697320746865207a65726f206160448201526564647265737360d01b606482015260840161073e565b6123b281613376565b6001600160a01b0383166000908152610102602052604090205460609083908111156126d257506001600160a01b038416600090815261010260205260409020545b6001600160a01b0385166000908152610102602052604090205483106126f9576000611bdf565b6000816001600160401b0381111561271357612713614e6f565b60405190808252806020026020018201604052801561273c578160200160208202803683370190505b50905060005b828110801561277257506001600160a01b0387166000908152610102602052604090205461277086836155ec565b105b15611cfa576001600160a01b03871660009081526101026020526040902061279a86836155ec565b815481106127aa576127aa615755565b90600052602060002001548282815181106127c7576127c7615755565b6020908102919091010152806127dc816157a9565b915050612742565b3b151590565b60006127f4613cca565b905090565b6040805161012081018252600080825260208201819052918101829052606081018290526080810182905260a0810182905260c0810182905260e0810182905261010081019190915250604080516101208101825260a083811c8252608084811c63ffffffff908116602080860191909152606087811c8316868801529587901c8216958501959095529385901c90931692820192909252601083901c61ffff1691810191909152600882901c60ff1660c082015260f89190911b600160f81b8181161460e0830152600160f91b9081161461010082015290565b6000818152606a6020526040902080546001600160a01b0319166001600160a01b038416908117909155819061290982610fe4565b6001600160a01b03167f8c5be1e5ebec7d5bd14f71427d1e84f3dd0314c0f7b2291e5b200ac8c7c3b92560405160405180910390a45050565b6000818152606860205260408120546001600160a01b03166129bb5760405162461bcd60e51b815260206004820152602c60248201527f4552433732313a206f70657261746f7220717565727920666f72206e6f6e657860448201526b34b9ba32b73a103a37b5b2b760a11b606482015260840161073e565b60006129c683610fe4565b9050806001600160a01b0316846001600160a01b03161480612a015750836001600160a01b03166129f684610a0c565b6001600160a01b0316145b80612a3157506001600160a01b038082166000908152606b602090815260408083209388168352929052205460ff165b949350505050565b826001600160a01b0316612a4c82610fe4565b6001600160a01b031614612ab45760405162461bcd60e51b815260206004820152602960248201527f4552433732313a207472616e73666572206f6620746f6b656e2074686174206960448201526839903737ba1037bbb760b91b606482015260840161073e565b6001600160a01b038216612b165760405162461bcd60e51b8152602060048201526024808201527f4552433732313a207472616e7366657220746f20746865207a65726f206164646044820152637265737360e01b606482015260840161073e565b612b21838383613cfe565b612b2c6000826128d4565b6001600160a01b0383166000908152606960205260408120805460019290612b55908490615712565b90915550506001600160a01b0382166000908152606960205260408120805460019290612b839084906155ec565b909155505060008181526068602052604080822080546001600160a01b0319166001600160a01b0386811691821790925591518493918716917fddf252ad1be2c89b69c2b068fc378daa952ba7f163c4a11628f55a4df523b3ef91a4505050565b60ca5460ff16612c2d5760405162461bcd60e51b815260206004820152601460248201527314185d5cd8589b194e881b9bdd081c185d5cd95960621b604482015260640161073e565b60ca805460ff191690557f5db9ee0a495bf2e6ff9c91a7834c1ba4fdd244a5e8aa4e537bd38aeae4b073aa612c606127ea565b6040516001600160a01b03909116815260200160405180910390a1565b60006004881015612cc95760405162461bcd60e51b815260206004820152601660248201527521494e56414c494428706c616e50726f6f664c656e2960501b604482015260640161073e565b600060038710612d3257612d2b8a8a6000818110612ce957612ce9615755565b905060200201358c8c8c6003818110612d0457612d04615755565b905060200201358b8b6002818110612d1e57612d1e615755565b9050602002013589613e00565b9050612d77565b612d748a8a6000818110612d4857612d48615755565b905060200201358c8c8c6003818110612d6357612d63615755565b905060200201356000801b89613e00565b90505b612d818a8a613f4e565b612d9d5760405162461bcd60e51b815260040161073e906157f3565b6000612dc18b8b6002818110612db557612db5615755565b905060200201356127f9565b90506000612e1b8c8c6000818110612ddb57612ddb615755565b905060200201358d8d6001818110612df557612df5615755565b905060200201358e8e6002818110612e0f57612e0f615755565b90506020020135614015565b9050816080015163ffffffff1660001480612e6a575060808201516001600160a01b0384166000908152610104602090815260408083208287015163ffffffff90811685529252909120549116115b612ea45760405162461bcd60e51b815260206004820152600b60248201526a214d41585f41435449564560a81b604482015260640161073e565b600060fd54602084015160405163b6ab359f60e01b81526001600160a01b03878116600483015263ffffffff909216602482015291169063b6ab359f9060440160206040518083038186803b158015612efc57600080fd5b505afa158015612f10573d6000803e3d6000fd5b505050506040513d601f19601f82011682018060405250810190612f349190615820565b6002811115612f4557612f4561540b565b14612f815760405162461bcd60e51b815260206004820152600c60248201526b085393d517d153905093115160a21b604482015260640161073e565b612f92612f8c6127ea565b82614080565b6000818152610100602090815260409091206005810180549285015163ffffffff16600160a81b02600164ffffffff0160a01b03199093166001600160a01b0387161792909217909155428d8d6001818110612ff057612ff0615755565b60200291909101356004840155508d8d600281811061301157613011615755565b602002919091013583555060068201805463ffffffff60401b1916600160401b63ffffffff8d160217905561304a600783018989614baf565b5060058201805463ffffffff60c81b1916600160c81b63ffffffff84160217905560a084015161ffff16156130be578360a0015161ffff1684604001516130919190615729565b61309b9082615781565b8260060160046101000a81548163ffffffff021916908363ffffffff1602179055505b606084015163ffffffff16156131135760058201805460ff60a01b1916600160a01b17905560608401516130f29082615781565b60068301805463ffffffff191663ffffffff92909216919091179055613140565b60058201805460ff60a01b1916600160a11b17905560068201805463ffffffff191663ffffffff83161790555b6005820154602085015161315f916001600160a01b0316908e8e613a9c565b60038401556002830155600682015463ffffffff8083169116116131dc5760fc5460405163d71bb37b60e01b8152600481018590526001600160a01b039091169063d71bb37b90602401600060405180830381600087803b1580156131c357600080fd5b505af11580156131d7573d6000803e3d6000fd5b505050505b600582015483906001600160a01b03166131f582610fe4565b60048501546005860154600287015460408051938452600160a81b90920463ffffffff166020840152908201526001600160a01b0391909116907f9fb45eab820cdd481e286e8c699e1c01031bb833c58f7cfba3ca8d1db6d98d819060600160405180910390a460ff60006132686127ea565b6001600160a01b03908116825260208083019390935260409182016000908120805460018181018355918352858320018890559189168082526101028552838220805480850182559083528583200188905581526101039093529082208054919290916132d69084906155ec565b90915550506001600160a01b0385166000908152610104602090815260408083208783015163ffffffff16845290915281208054600192906133199084906155ec565b909155505060fe8054600085815261010560205260408120829055600182018355919091527f54075df80ec1ae6ac9100e1fd0ebf3246c17f5c933137af392011f4c5f61513a0183905550909d9c50505050505050505050505050565b609880546001600160a01b038381166001600160a01b0319831681179093556040519116919082907f8be0079c531659141344cd1fd0a4f28419497f9722a3daafe3b4186f6b6457e090600090a35050565b60006133d382610fe4565b90506133e181600084613cfe565b6133ec6000836128d4565b6001600160a01b0381166000908152606960205260408120805460019290613415908490615712565b909155505060008281526068602052604080822080546001600160a01b0319169055518391906001600160a01b038416907fddf252ad1be2c89b69c2b068fc378daa952ba7f163c4a11628f55a4df523b3ef908390a45050565b6000806134f2836134ec8660405160200161348c91815260200190565b60408051601f1981840301815282825280516020918201207f19457468657265756d205369676e6564204d6573736167653a0a33320000000084830152603c8085019190915282518085039091018152605c909301909152815191012090565b9061409a565b905060006135328560408051808201909152600080825260208201525060408051808201909152606082901c815260509190911c61ffff16602082015290565b9050816001600160a01b031681600001516001600160a01b03161461358d5760405162461bcd60e51b815260206004820152601160248201527021494e56414c4944286e6574776f726b2960781b604482015260640161073e565b509392505050565b60ca5460ff16156135b85760405162461bcd60e51b815260040161073e906155ac565b60ca805460ff191660011790557f62e78cea01bee320cd4e420270b5ea74000d11b0c9f74754ebdbfc544b05a258612c606127ea565b816001600160a01b0316836001600160a01b031614156136505760405162461bcd60e51b815260206004820152601960248201527f4552433732313a20617070726f766520746f2063616c6c657200000000000000604482015260640161073e565b6001600160a01b038381166000818152606b6020908152604080832094871680845294825291829020805460ff191686151590811790915591519182527f17307eab39ab6107e8899845ad3d59bd9653f200f220920489ca2b5937696c31910160405180910390a3505050565b60048610156136de5760405162461bcd60e51b815260040161073e906157f3565b600089815261010060205260409020600681015463ffffffff4281169116116137395760405162461bcd60e51b815260206004820152600d60248201526c085391515117d491539155d053609a1b604482015260640161073e565b6002600582810154600160a01b900460ff169081111561375b5761375b61540b565b148061378657506001600582810154600160a01b900460ff16908111156137845761378461540b565b145b6137a25760405162461bcd60e51b815260040161073e906156c5565b6000600386106137fe576137f7898960008181106137c2576137c2615755565b905060200201358b8b8b60038181106137dd576137dd615755565b905060200201358a8a6002818110612d1e57612d1e615755565b9050613832565b61382f8989600081811061381457613814615755565b905060200201358b8b8b6003818110612d6357612d63615755565b90505b61383c8989613f4e565b6138585760405162461bcd60e51b815260040161073e906157f3565b60006138708a8a6002818110612db557612db5615755565b60058401549091506001600160a01b038381169116146138c75760405162461bcd60e51b815260206004820152601260248201527121494e56414c49442870726f76696465722960701b604482015260640161073e565b6138d5600784018686614baf565b5060028301541580156138e9575060038710155b801561390b575060008888828161390257613902615755565b90506020020135115b1561393a576005830154602082015161392f916001600160a01b0316908a8a613a9c565b600385015560028401555b60208101516005840154600160a81b900463ffffffff908116911614613a5b57600060fd54602083015160405163b6ab359f60e01b81526001600160a01b03868116600483015263ffffffff909216602482015291169063b6ab359f9060440160206040518083038186803b1580156139b257600080fd5b505afa1580156139c6573d6000803e3d6000fd5b505050506040513d601f19601f820116820180604052508101906139ea9190615820565b60028111156139fb576139fb61540b565b14613a375760405162461bcd60e51b815260206004820152600c60248201526b085393d517d153905093115160a21b604482015260640161073e565b613a5b8c828c8c6002818110613a4f57613a4f615755565b905060200201356140b6565b505050505050505050505050565b613a74848484612a39565b613a80848484846141a3565b611db45760405162461bcd60e51b815260040161073e90615841565b600080600383118015613ac55750600084848281613abc57613abc615755565b90506020020135115b15613c0b57600084846000818110613adf57613adf615755565b90506020020135604051602001613af891815260200190565b60408051601f19818403018152919052805160209091012060fd549091506001600160a01b0316634cfa66ff88888489896001818110613b3a57613b3a615755565b905060200201358a8a6002818110613b5457613b54615755565b60200291909101359050613b6b8b6003818f615893565b6040518863ffffffff1660e01b8152600401613b8d97969594939291906158f7565b602060405180830381600087803b158015613ba757600080fd5b505af1158015613bbb573d6000803e3d6000fd5b505050506040513d601f19601f82011682018060405250810190613bdf9190615944565b15613c09578085856001818110613bf857613bf8615755565b905060200201359250925050613c12565b505b5060009050805b94509492505050565b600054610100900460ff16613c425760405162461bcd60e51b815260040161073e90615961565b613c4a6142b7565b610c526142de565b600054610100900460ff16613c795760405162461bcd60e51b815260040161073e90615961565b613c816142b7565b610c52614315565b600054610100900460ff16613cb05760405162461bcd60e51b815260040161073e90615961565b613cb86142b7565b613cc06142b7565b611b798282614348565b600060143610801590613ce757506065546001600160a01b031633145b15613cf9575060131936013560601c90565b503390565b6001600160a01b03831615801590613d1e57506001600160a01b03821615155b15610bc4576000818152610100602052604081208054909190613d40906127f9565b9050806101000151613d895760405162461bcd60e51b8152602060048201526012602482015271214e4f545f5452414e534645525241424c4560701b604482015260640161073e565b6006820154600160201b900463ffffffff161580613dbd5750600682015463ffffffff600160201b90910481164290911610155b613dd95760405162461bcd60e51b815260040161073e906156ef565b506006018054600160401b63ffffffff82160263ffffffff60401b19909116179055505050565b600080613e30836134ec88888860405160200161348c939291909283526020830191909152604082015260600190565b90506001600160a01b0387811690821614613e7f5760405162461bcd60e51b815260206004820152600f60248201526e21494e56414c49442870726f6f662960881b604482015260640161073e565b60fd54604051630782fb5960e31b81526001600160a01b03838116600483015290911690633c17dac89060240160006040518083038186803b158015613ec457600080fd5b505afa158015613ed8573d6000803e3d6000fd5b505050506040513d6000823e601f3d908101601f19168201604052613f0091908101906159ac565b602001518614613f445760405162461bcd60e51b815260206004820152600f60248201526e2150524f56494445525f4e4f4e434560881b604482015260640161073e565b9695505050505050565b60fd546000906001600160a01b03166371ce3e6684846002818110613f7557613f75615755565b9050602002013585856003818110613f8f57613f8f615755565b60200291909101359050613fa6866004818a615893565b6040518563ffffffff1660e01b8152600401613fc59493929190615a70565b60206040518083038186803b158015613fdd57600080fd5b505afa158015613ff1573d6000803e3d6000fd5b505050506040513d601f19601f82011682018060405250810190611cff9190615944565b600061401f6127ea565b60405160609190911b6bffffffffffffffffffffffff191660208201526034810185905260548101839052607481018490524360948201524260b482015260d40160408051601f198184030181529190528051602090910120949350505050565b611b79828260405180602001604052806000815250614396565b60008060006140a985856143c9565b9150915061358d81614439565b60008381526101006020526040812080549091906140d3906127f9565b90506001600583810154600160a01b900460ff16908111156140f7576140f761540b565b141561410e57614109858286866145f4565b61419c565b604081015181516141259163ffffffff1690615a90565b6040850151855161413c9163ffffffff1690615a90565b141561414d5761410985858561466f565b604081015181516141649163ffffffff1690615a90565b6040850151855161417b9163ffffffff1690615a90565b111561418d5761410985828686614798565b61419c858560200151856148ae565b5050505050565b60006001600160a01b0384163b156142ac57836001600160a01b031663150b7a026141cc6127ea565b8786866040518563ffffffff1660e01b81526004016141ee9493929190615ab2565b602060405180830381600087803b15801561420857600080fd5b505af1925050508015614238575060408051601f3d908101601f1916820190925261423591810190615ae5565b60015b614292573d808015614266576040519150601f19603f3d011682016040523d82523d6000602084013e61426b565b606091505b50805161428a5760405162461bcd60e51b815260040161073e90615841565b805181602001fd5b6001600160e01b031916630a85bd0160e11b149050612a31565b506001949350505050565b600054610100900460ff16610c525760405162461bcd60e51b815260040161073e90615961565b600054610100900460ff166143055760405162461bcd60e51b815260040161073e90615961565b610c526143106127ea565b613376565b600054610100900460ff1661433c5760405162461bcd60e51b815260040161073e90615961565b60ca805460ff19169055565b600054610100900460ff1661436f5760405162461bcd60e51b815260040161073e90615961565b8151614382906066906020850190614c33565b508051610bc4906067906020840190614c33565b6143a08383614948565b6143ad60008484846141a3565b610bc45760405162461bcd60e51b815260040161073e90615841565b6000808251604114156144005760208301516040840151606085015160001a6143f487828585614a96565b94509450505050614432565b82516040141561442a576020830151604084015161441f868383614b80565b935093505050614432565b506000905060025b9250929050565b600081600481111561444d5761444d61540b565b14156144565750565b600181600481111561446a5761446a61540b565b14156144b85760405162461bcd60e51b815260206004820152601860248201527f45434453413a20696e76616c6964207369676e61747572650000000000000000604482015260640161073e565b60028160048111156144cc576144cc61540b565b141561451a5760405162461bcd60e51b815260206004820152601f60248201527f45434453413a20696e76616c6964207369676e6174757265206c656e67746800604482015260640161073e565b600381600481111561452e5761452e61540b565b14156145875760405162461bcd60e51b815260206004820152602260248201527f45434453413a20696e76616c6964207369676e6174757265202773272076616c604482015261756560f01b606482015260840161073e565b600481600481111561459b5761459b61540b565b14156123b25760405162461bcd60e51b815260206004820152602260248201527f45434453413a20696e76616c6964207369676e6174757265202776272076616c604482015261756560f01b606482015260840161073e565b600084815261010060205260409020606080840151908501516006830154614622919063ffffffff16615b02565b61462c9190615781565b60068201805463ffffffff191663ffffffff92831690811790915542909116106146685760068101805463ffffffff19164263ffffffff161790555b61419c8584845b600083815261010060205260409020600581015484906001600160a01b031661469782610fe4565b6004840154600585015460208089015160028801546040805195865263ffffffff600160a81b90950485169386019390935292169083015260608201526001600160a01b0391909116907fe17e61be0a4aac2f0b6fece72cedc2ab9ca554634d5af864a9282095206a0c2b9060800160405180910390a460a083015161ffff1615614767578260a0015161ffff1683604001516147349190615729565b6147449063ffffffff16426155ec565b8160060160046101000a81548163ffffffff021916908363ffffffff1602179055505b60209092015160058301805463ffffffff909216600160a81b0263ffffffff60a81b19909216919091179055905550565b60008481526101006020526040812060068101549091906147c090429063ffffffff16615b02565b63ffffffff16856040015163ffffffff1686600001516147e09190615a90565b604086015186516147f79163ffffffff1690615a90565b6148019190615712565b61480b9190615b27565b60fc549091506001600160a01b031663c54c58c461482888610fe4565b600585015460405160e084901b6001600160e01b03191681526001600160a01b039283166004820152911660248201526044810189905260648101849052608401600060405180830381600087803b15801561488357600080fd5b505af1158015614897573d6000803e3d6000fd5b505050506148a686858561466f565b505050505050565b600083815261010060209081526040808320610101909252909120829055600581015484906001600160a01b03166148e582610fe4565b600484015460058501546040805192835263ffffffff600160a81b90920482166020840152908816908201526001600160a01b0391909116907f3d051466fe86e1bd842d67e98121d69a930caccf48fc2ae2c83119b5a7b71af69060600161096c565b6001600160a01b03821661499e5760405162461bcd60e51b815260206004820181905260248201527f4552433732313a206d696e7420746f20746865207a65726f2061646472657373604482015260640161073e565b6000818152606860205260409020546001600160a01b031615614a035760405162461bcd60e51b815260206004820152601c60248201527f4552433732313a20746f6b656e20616c7265616479206d696e74656400000000604482015260640161073e565b614a0f60008383613cfe565b6001600160a01b0382166000908152606960205260408120805460019290614a389084906155ec565b909155505060008181526068602052604080822080546001600160a01b0319166001600160a01b03861690811790915590518392907fddf252ad1be2c89b69c2b068fc378daa952ba7f163c4a11628f55a4df523b3ef908290a45050565b6000807f7fffffffffffffffffffffffffffffff5d576e7357a4501ddfe92f46681b20a0831115614acd5750600090506003613c12565b8460ff16601b14158015614ae557508460ff16601c14155b15614af65750600090506004613c12565b6040805160008082526020820180845289905260ff881692820192909252606081018690526080810185905260019060a0016020604051602081039080840390855afa158015614b4a573d6000803e3d6000fd5b5050604051601f1901519150506001600160a01b038116614b7357600060019250925050613c12565b9660009650945050505050565b6000806001600160ff1b03831660ff84901c601b01614ba187828885614a96565b935093505050935093915050565b828054614bbb90615604565b90600052602060002090601f016020900481019282614bdd5760008555614c23565b82601f10614bf65782800160ff19823516178555614c23565b82800160010185558215614c23579182015b82811115614c23578235825591602001919060010190614c08565b50614c2f929150614ca7565b5090565b828054614c3f90615604565b90600052602060002090601f016020900481019282614c615760008555614c23565b82601f10614c7a57805160ff1916838001178555614c23565b82800160010185558215614c23579182015b82811115614c23578251825591602001919060010190614c8c565b5b80821115614c2f5760008155600101614ca8565b6001600160e01b0319811681146123b257600080fd5b600060208284031215614ce457600080fd5b8135611cff81614cbc565b600060208284031215614d0157600080fd5b5035919050565b60005b83811015614d23578181015183820152602001614d0b565b83811115611db45750506000910152565b60008151808452614d4c816020860160208601614d08565b601f01601f19169290920160200192915050565b602081526000611cff6020830184614d34565b6001600160a01b03811681146123b257600080fd5b60008060408385031215614d9b57600080fd5b8235614da681614d73565b946020939093013593505050565b600080600060608486031215614dc957600080fd5b8335614dd481614d73565b92506020840135614de481614d73565b929592945050506040919091013590565b600060208284031215614e0757600080fd5b8135611cff81614d73565b60008083601f840112614e2457600080fd5b5081356001600160401b03811115614e3b57600080fd5b6020830191508360208260051b850101111561443257600080fd5b803563ffffffff81168114614e6a57600080fd5b919050565b634e487b7160e01b600052604160045260246000fd5b604051606081016001600160401b0381118282101715614ea757614ea7614e6f565b60405290565b604051601f8201601f191681016001600160401b0381118282101715614ed557614ed5614e6f565b604052919050565b60006001600160401b03821115614ef657614ef6614e6f565b50601f01601f191660200190565b600082601f830112614f1557600080fd5b8135614f28614f2382614edd565b614ead565b818152846020838601011115614f3d57600080fd5b816020850160208301376000918101602001919091529392505050565b60008083601f840112614f6c57600080fd5b5081356001600160401b03811115614f8357600080fd5b60208301915083602082850101111561443257600080fd5b600080600080600080600080600060c08a8c031215614fb957600080fd5b8935985060208a01356001600160401b0380821115614fd757600080fd5b614fe38d838e01614e12565b909a50985060408c0135915080821115614ffc57600080fd5b6150088d838e01614e12565b909850965086915061501c60608d01614e56565b955060808c013591508082111561503257600080fd5b61503e8d838e01614f04565b945060a08c013591508082111561505457600080fd5b506150618c828d01614f5a565b915080935050809150509295985092959850929598565b6020808252825182820181905260009190848201906040850190845b818110156150b057835183529284019291840191600101615094565b50909695505050505050565b600080604083850312156150cf57600080fd5b823591506020830135600681106150e557600080fd5b809150509250929050565b60008060008060008060008060008060006101008c8e03121561511257600080fd5b8b359a506001600160401b038060208e0135111561512f57600080fd5b61513f8e60208f01358f01614e12565b909b50995060408d013581101561515557600080fd5b6151658e60408f01358f01614e12565b909950975060608d0135965061517d60808e01614e56565b95508060a08e0135111561519057600080fd5b6151a08e60a08f01358f01614f04565b94508060c08e013511156151b357600080fd5b6151c38e60c08f01358f01614f04565b93508060e08e013511156151d657600080fd5b506151e78d60e08e01358e01614f5a565b81935080925050509295989b509295989b9093969950565b6000806040838503121561521257600080fd5b8235915061522260208401614e56565b90509250929050565b6000806040838503121561523e57600080fd5b823561524981614d73565b915061522260208401614e56565b80151581146123b257600080fd5b6000806040838503121561527857600080fd5b823561528381614d73565b915060208301356150e581615257565b6000806000606084860312156152a857600080fd5b83356152b381614d73565b95602085013595506040909401359392505050565b600080600080600080600080600060c08a8c0312156152e657600080fd5b8935985060208a0135975060408a01356001600160401b038082111561530b57600080fd5b6153178d838e01614e12565b909950975060608c013591508082111561533057600080fd5b61533c8d838e01614e12565b909750955060808c013591508082111561503257600080fd5b6000806000806080858703121561536b57600080fd5b843561537681614d73565b9350602085013561538681614d73565b92506040850135915060608501356001600160401b038111156153a857600080fd5b6153b487828801614f04565b91505092959194509250565b6000806000604084860312156153d557600080fd5b8335925060208401356001600160401b038111156153f257600080fd5b6153fe86828701614e12565b9497909650939450505050565b634e487b7160e01b600052602160045260246000fd5b6006811061543f57634e487b7160e01b600052602160045260246000fd5b9052565b60408152825160408201526020830151606082015260408301516080820152606083015160a0820152608083015160c0820152600060a084015161549260e08401826001600160a01b03169052565b5060c08401516101006154a781850183615421565b60e086015191506101206154c28186018463ffffffff169052565b908601519150610140906154dd8583018463ffffffff169052565b86015191506101606154f68582018463ffffffff169052565b908601519150610180906155118583018463ffffffff169052565b86015191506101a061552a8582018463ffffffff169052565b818701519250806101c086015250506155476101e0840182614d34565b915050611cff60208301846001600160a01b03169052565b6000806040838503121561557257600080fd5b823561557d81614d73565b915060208301356150e581614d73565b60208082526005908201526404282aaa8960db1b604082015260600190565b60208082526010908201526f14185d5cd8589b194e881c185d5cd95960821b604082015260600190565b634e487b7160e01b600052601160045260246000fd5b600082198211156155ff576155ff6155d6565b500190565b600181811c9082168061561857607f821691505b6020821081141561563957634e487b7160e01b600052602260045260246000fd5b50919050565b60208082526031908201527f4552433732313a207472616e736665722063616c6c6572206973206e6f74206f6040820152701ddb995c881b9bdc88185c1c1c9bdd9959607a1b606082015260800190565b6020808252818101527f4f776e61626c653a2063616c6c6572206973206e6f7420746865206f776e6572604082015260600190565b60208082526010908201526f21494e56414c4944287374617475732960801b604082015260600190565b602080825260099082015268214d494e5f5445524d60b81b604082015260600190565b600082821015615724576157246155d6565b500390565b600063ffffffff8083168185168183048111821515161561574c5761574c6155d6565b02949350505050565b634e487b7160e01b600052603260045260246000fd5b634e487b7160e01b600052603160045260246000fd5b600063ffffffff8083168185168083038211156157a0576157a06155d6565b01949350505050565b60006000198214156157bd576157bd6155d6565b5060010190565b66697066733a2f2f60c81b8152600082516157e6816007850160208701614d08565b9190910160070192915050565b60208082526013908201527221494e56414c494428706c616e50726f6f662960681b604082015260600190565b60006020828403121561583257600080fd5b815160038110611cff57600080fd5b60208082526032908201527f4552433732313a207472616e7366657220746f206e6f6e20455243373231526560408201527131b2b4bb32b91034b6b83632b6b2b73a32b960711b606082015260800190565b600080858511156158a357600080fd5b838611156158b057600080fd5b5050600583901b0193919092039150565b81835260006001600160fb1b038311156158da57600080fd5b8260051b8083602087013760009401602001938452509192915050565b60018060a01b038816815263ffffffff8716602082015285604082015284606082015283608082015260c060a0820152600061593760c0830184866158c1565b9998505050505050505050565b60006020828403121561595657600080fd5b8151611cff81615257565b6020808252602b908201527f496e697469616c697a61626c653a20636f6e7472616374206973206e6f74206960408201526a6e697469616c697a696e6760a81b606082015260800190565b600060208083850312156159bf57600080fd5b82516001600160401b03808211156159d657600080fd5b90840190606082870312156159ea57600080fd5b6159f2614e85565b82516159fd81614d73565b81528284015184820152604083015182811115615a1957600080fd5b80840193505086601f840112615a2e57600080fd5b82519150615a3e614f2383614edd565b8281528785848601011115615a5257600080fd5b615a6183868301878701614d08565b60408201529695505050505050565b848152836020820152606060408201526000613f446060830184866158c1565b600082615aad57634e487b7160e01b600052601260045260246000fd5b500490565b6001600160a01b0385811682528416602082015260408101839052608060608201819052600090613f4490830184614d34565b600060208284031215615af757600080fd5b8151611cff81614cbc565b600063ffffffff83811690831681811015615b1f57615b1f6155d6565b039392505050565b6000816000190483118215151615615b4157615b416155d6565b50029056fea26469706673582212200264d315b181d52bde0700a61118bb42b32a41594a512e6dcaa5fd417a12437d64736f6c63430008090033",
  "devdoc": {
    "kind": "dev",
    "methods": {
      "approve(address,uint256)": {
        "details": "See {IERC721-approve}."
      },
      "balanceOf(address)": {
        "details": "See {IERC721-balanceOf}."
      },
      "constructor": {
        "custom:oz-upgrades-unsafe-allow": "constructor"
      },
      "getApproved(uint256)": {
        "details": "See {IERC721-getApproved}."
      },
      "isApprovedForAll(address,address)": {
        "details": "See {IERC721-isApprovedForAll}."
      },
      "name()": {
        "details": "See {IERC721Metadata-name}."
      },
      "owner()": {
        "details": "Returns the address of the current owner."
      },
      "ownerOf(uint256)": {
        "details": "See {IERC721-ownerOf}."
      },
      "paused()": {
        "details": "Returns true if the contract is paused, and false otherwise."
      },
      "renounceOwnership()": {
        "details": "Leaves the contract without owner. It will not be possible to call `onlyOwner` functions anymore. Can only be called by the current owner. NOTE: Renouncing ownership will leave the contract without an owner, thereby removing any functionality that is only available to the owner."
      },
      "safeTransferFrom(address,address,uint256)": {
        "details": "See {IERC721-safeTransferFrom}."
      },
      "safeTransferFrom(address,address,uint256,bytes)": {
        "details": "See {IERC721-safeTransferFrom}."
      },
      "setApprovalForAll(address,bool)": {
        "details": "See {IERC721-setApprovalForAll}."
      },
      "supportsInterface(bytes4)": {
        "details": "See {IERC165-supportsInterface}."
      },
      "symbol()": {
        "details": "See {IERC721Metadata-symbol}."
      },
      "transferFrom(address,address,uint256)": {
        "details": "See {IERC721-transferFrom}."
      },
      "transferOwnership(address)": {
        "details": "Transfers ownership of the contract to a new account (`newOwner`). Can only be called by the current owner."
      }
    },
    "stateVariables": {
      "consumerSubscriptions": {
        "details": "Maps for consumer to list of subscriptions. "
      },
      "providerSubscriptions": {
        "details": "Maps for provider to list of subscriptions and plans. "
      },
      "subscriptionManager": {
        "details": "contract to manage subscription plan definitions. "
      },
      "subscriptionPlans": {
        "details": "contract to manage subscription plan definitions. "
      }
    },
    "version": 1
  },
  "userdoc": {
    "kind": "user",
    "methods": {
      "isTrustedForwarder(address)": {
        "notice": "return if the forwarder is trusted to forward relayed transactions to us. the forwarder is required to verify the sender's signature, and verify the call is not a replay."
      }
    },
    "version": 1
  },
  "storageLayout": {
    "storage": [
      {
        "astId": 327,
        "contract": "contracts/protocol/CaskSubscriptions.sol:CaskSubscriptions",
        "label": "_initialized",
        "offset": 0,
        "slot": "0",
        "type": "t_bool"
      },
      {
        "astId": 330,
        "contract": "contracts/protocol/CaskSubscriptions.sol:CaskSubscriptions",
        "label": "_initializing",
        "offset": 1,
        "slot": "0",
        "type": "t_bool"
      },
      {
        "astId": 2551,
        "contract": "contracts/protocol/CaskSubscriptions.sol:CaskSubscriptions",
        "label": "__gap",
        "offset": 0,
        "slot": "1",
        "type": "t_array(t_uint256)50_storage"
      },
      {
        "astId": 2800,
        "contract": "contracts/protocol/CaskSubscriptions.sol:CaskSubscriptions",
        "label": "__gap",
        "offset": 0,
        "slot": "51",
        "type": "t_array(t_uint256)50_storage"
      },
      {
        "astId": 72,
        "contract": "contracts/protocol/CaskSubscriptions.sol:CaskSubscriptions",
        "label": "_trustedForwarder",
        "offset": 0,
        "slot": "101",
        "type": "t_address"
      },
      {
        "astId": 1270,
        "contract": "contracts/protocol/CaskSubscriptions.sol:CaskSubscriptions",
        "label": "_name",
        "offset": 0,
        "slot": "102",
        "type": "t_string_storage"
      },
      {
        "astId": 1272,
        "contract": "contracts/protocol/CaskSubscriptions.sol:CaskSubscriptions",
        "label": "_symbol",
        "offset": 0,
        "slot": "103",
        "type": "t_string_storage"
      },
      {
        "astId": 1276,
        "contract": "contracts/protocol/CaskSubscriptions.sol:CaskSubscriptions",
        "label": "_owners",
        "offset": 0,
        "slot": "104",
        "type": "t_mapping(t_uint256,t_address)"
      },
      {
        "astId": 1280,
        "contract": "contracts/protocol/CaskSubscriptions.sol:CaskSubscriptions",
        "label": "_balances",
        "offset": 0,
        "slot": "105",
        "type": "t_mapping(t_address,t_uint256)"
      },
      {
        "astId": 1284,
        "contract": "contracts/protocol/CaskSubscriptions.sol:CaskSubscriptions",
        "label": "_tokenApprovals",
        "offset": 0,
        "slot": "106",
        "type": "t_mapping(t_uint256,t_address)"
      },
      {
        "astId": 1290,
        "contract": "contracts/protocol/CaskSubscriptions.sol:CaskSubscriptions",
        "label": "_operatorApprovals",
        "offset": 0,
        "slot": "107",
        "type": "t_mapping(t_address,t_mapping(t_address,t_bool))"
      },
      {
        "astId": 2101,
        "contract": "contracts/protocol/CaskSubscriptions.sol:CaskSubscriptions",
        "label": "__gap",
        "offset": 0,
        "slot": "108",
        "type": "t_array(t_uint256)44_storage"
      },
      {
        "astId": 205,
        "contract": "contracts/protocol/CaskSubscriptions.sol:CaskSubscriptions",
        "label": "_owner",
        "offset": 0,
        "slot": "152",
        "type": "t_address"
      },
      {
        "astId": 319,
        "contract": "contracts/protocol/CaskSubscriptions.sol:CaskSubscriptions",
        "label": "__gap",
        "offset": 0,
        "slot": "153",
        "type": "t_array(t_uint256)49_storage"
      },
      {
        "astId": 415,
        "contract": "contracts/protocol/CaskSubscriptions.sol:CaskSubscriptions",
        "label": "_paused",
        "offset": 0,
        "slot": "202",
        "type": "t_bool"
      },
      {
        "astId": 506,
        "contract": "contracts/protocol/CaskSubscriptions.sol:CaskSubscriptions",
        "label": "__gap",
        "offset": 0,
        "slot": "203",
        "type": "t_array(t_uint256)49_storage"
      },
      {
        "astId": 10727,
        "contract": "contracts/protocol/CaskSubscriptions.sol:CaskSubscriptions",
        "label": "subscriptionManager",
        "offset": 0,
        "slot": "252",
        "type": "t_contract(ICaskSubscriptionManager)7562"
      },
      {
        "astId": 10731,
        "contract": "contracts/protocol/CaskSubscriptions.sol:CaskSubscriptions",
        "label": "subscriptionPlans",
        "offset": 0,
        "slot": "253",
        "type": "t_contract(ICaskSubscriptionPlans)7697"
      },
      {
        "astId": 10734,
        "contract": "contracts/protocol/CaskSubscriptions.sol:CaskSubscriptions",
        "label": "activeSubscriptions",
        "offset": 0,
        "slot": "254",
        "type": "t_array(t_uint256)dyn_storage"
      },
      {
        "astId": 10740,
        "contract": "contracts/protocol/CaskSubscriptions.sol:CaskSubscriptions",
        "label": "consumerSubscriptions",
        "offset": 0,
        "slot": "255",
        "type": "t_mapping(t_address,t_array(t_uint256)dyn_storage)"
      },
      {
        "astId": 10745,
        "contract": "contracts/protocol/CaskSubscriptions.sol:CaskSubscriptions",
        "label": "subscriptions",
        "offset": 0,
        "slot": "256",
        "type": "t_mapping(t_uint256,t_struct(Subscription)7745_storage)"
      },
      {
        "astId": 10749,
        "contract": "contracts/protocol/CaskSubscriptions.sol:CaskSubscriptions",
        "label": "pendingPlanChanges",
        "offset": 0,
        "slot": "257",
        "type": "t_mapping(t_uint256,t_bytes32)"
      },
      {
        "astId": 10755,
        "contract": "contracts/protocol/CaskSubscriptions.sol:CaskSubscriptions",
        "label": "providerSubscriptions",
        "offset": 0,
        "slot": "258",
        "type": "t_mapping(t_address,t_array(t_uint256)dyn_storage)"
      },
      {
        "astId": 10759,
        "contract": "contracts/protocol/CaskSubscriptions.sol:CaskSubscriptions",
        "label": "providerActiveSubscriptionCount",
        "offset": 0,
        "slot": "259",
        "type": "t_mapping(t_address,t_uint256)"
      },
      {
        "astId": 10765,
        "contract": "contracts/protocol/CaskSubscriptions.sol:CaskSubscriptions",
        "label": "planActiveSubscriptionCount",
        "offset": 0,
        "slot": "260",
        "type": "t_mapping(t_address,t_mapping(t_uint32,t_uint256))"
      },
      {
        "astId": 10769,
        "contract": "contracts/protocol/CaskSubscriptions.sol:CaskSubscriptions",
        "label": "idxMap",
        "offset": 0,
        "slot": "261",
        "type": "t_mapping(t_uint256,t_uint256)"
      }
    ],
    "types": {
      "t_address": {
        "encoding": "inplace",
        "label": "address",
        "numberOfBytes": "20"
      },
      "t_array(t_uint256)44_storage": {
        "base": "t_uint256",
        "encoding": "inplace",
        "label": "uint256[44]",
        "numberOfBytes": "1408"
      },
      "t_array(t_uint256)49_storage": {
        "base": "t_uint256",
        "encoding": "inplace",
        "label": "uint256[49]",
        "numberOfBytes": "1568"
      },
      "t_array(t_uint256)50_storage": {
        "base": "t_uint256",
        "encoding": "inplace",
        "label": "uint256[50]",
        "numberOfBytes": "1600"
      },
      "t_array(t_uint256)dyn_storage": {
        "base": "t_uint256",
        "encoding": "dynamic_array",
        "label": "uint256[]",
        "numberOfBytes": "32"
      },
      "t_bool": {
        "encoding": "inplace",
        "label": "bool",
        "numberOfBytes": "1"
      },
      "t_bytes32": {
        "encoding": "inplace",
        "label": "bytes32",
        "numberOfBytes": "32"
      },
      "t_contract(ICaskSubscriptionManager)7562": {
        "encoding": "inplace",
        "label": "contract ICaskSubscriptionManager",
        "numberOfBytes": "20"
      },
      "t_contract(ICaskSubscriptionPlans)7697": {
        "encoding": "inplace",
        "label": "contract ICaskSubscriptionPlans",
        "numberOfBytes": "20"
      },
      "t_enum(SubscriptionStatus)7710": {
        "encoding": "inplace",
        "label": "enum ICaskSubscriptions.SubscriptionStatus",
        "numberOfBytes": "1"
      },
      "t_mapping(t_address,t_array(t_uint256)dyn_storage)": {
        "encoding": "mapping",
        "key": "t_address",
        "label": "mapping(address => uint256[])",
        "numberOfBytes": "32",
        "value": "t_array(t_uint256)dyn_storage"
      },
      "t_mapping(t_address,t_bool)": {
        "encoding": "mapping",
        "key": "t_address",
        "label": "mapping(address => bool)",
        "numberOfBytes": "32",
        "value": "t_bool"
      },
      "t_mapping(t_address,t_mapping(t_address,t_bool))": {
        "encoding": "mapping",
        "key": "t_address",
        "label": "mapping(address => mapping(address => bool))",
        "numberOfBytes": "32",
        "value": "t_mapping(t_address,t_bool)"
      },
      "t_mapping(t_address,t_mapping(t_uint32,t_uint256))": {
        "encoding": "mapping",
        "key": "t_address",
        "label": "mapping(address => mapping(uint32 => uint256))",
        "numberOfBytes": "32",
        "value": "t_mapping(t_uint32,t_uint256)"
      },
      "t_mapping(t_address,t_uint256)": {
        "encoding": "mapping",
        "key": "t_address",
        "label": "mapping(address => uint256)",
        "numberOfBytes": "32",
        "value": "t_uint256"
      },
      "t_mapping(t_uint256,t_address)": {
        "encoding": "mapping",
        "key": "t_uint256",
        "label": "mapping(uint256 => address)",
        "numberOfBytes": "32",
        "value": "t_address"
      },
      "t_mapping(t_uint256,t_bytes32)": {
        "encoding": "mapping",
        "key": "t_uint256",
        "label": "mapping(uint256 => bytes32)",
        "numberOfBytes": "32",
        "value": "t_bytes32"
      },
      "t_mapping(t_uint256,t_struct(Subscription)7745_storage)": {
        "encoding": "mapping",
        "key": "t_uint256",
        "label": "mapping(uint256 => struct ICaskSubscriptions.Subscription)",
        "numberOfBytes": "32",
        "value": "t_struct(Subscription)7745_storage"
      },
      "t_mapping(t_uint256,t_uint256)": {
        "encoding": "mapping",
        "key": "t_uint256",
        "label": "mapping(uint256 => uint256)",
        "numberOfBytes": "32",
        "value": "t_uint256"
      },
      "t_mapping(t_uint32,t_uint256)": {
        "encoding": "mapping",
        "key": "t_uint32",
        "label": "mapping(uint32 => uint256)",
        "numberOfBytes": "32",
        "value": "t_uint256"
      },
      "t_string_storage": {
        "encoding": "bytes",
        "label": "string",
        "numberOfBytes": "32"
      },
      "t_struct(Subscription)7745_storage": {
        "encoding": "inplace",
        "label": "struct ICaskSubscriptions.Subscription",
        "members": [
          {
            "astId": 7719,
            "contract": "contracts/protocol/CaskSubscriptions.sol:CaskSubscriptions",
            "label": "planData",
            "offset": 0,
            "slot": "0",
            "type": "t_bytes32"
          },
          {
            "astId": 7721,
            "contract": "contracts/protocol/CaskSubscriptions.sol:CaskSubscriptions",
            "label": "networkData",
            "offset": 0,
            "slot": "1",
            "type": "t_bytes32"
          },
          {
            "astId": 7723,
            "contract": "contracts/protocol/CaskSubscriptions.sol:CaskSubscriptions",
            "label": "discountId",
            "offset": 0,
            "slot": "2",
            "type": "t_bytes32"
          },
          {
            "astId": 7725,
            "contract": "contracts/protocol/CaskSubscriptions.sol:CaskSubscriptions",
            "label": "discountData",
            "offset": 0,
            "slot": "3",
            "type": "t_bytes32"
          },
          {
            "astId": 7727,
            "contract": "contracts/protocol/CaskSubscriptions.sol:CaskSubscriptions",
            "label": "ref",
            "offset": 0,
            "slot": "4",
            "type": "t_bytes32"
          },
          {
            "astId": 7729,
            "contract": "contracts/protocol/CaskSubscriptions.sol:CaskSubscriptions",
            "label": "provider",
            "offset": 0,
            "slot": "5",
            "type": "t_address"
          },
          {
            "astId": 7732,
            "contract": "contracts/protocol/CaskSubscriptions.sol:CaskSubscriptions",
            "label": "status",
            "offset": 20,
            "slot": "5",
            "type": "t_enum(SubscriptionStatus)7710"
          },
          {
            "astId": 7734,
            "contract": "contracts/protocol/CaskSubscriptions.sol:CaskSubscriptions",
            "label": "planId",
            "offset": 21,
            "slot": "5",
            "type": "t_uint32"
          },
          {
            "astId": 7736,
            "contract": "contracts/protocol/CaskSubscriptions.sol:CaskSubscriptions",
            "label": "createdAt",
            "offset": 25,
            "slot": "5",
            "type": "t_uint32"
          },
          {
            "astId": 7738,
            "contract": "contracts/protocol/CaskSubscriptions.sol:CaskSubscriptions",
            "label": "renewAt",
            "offset": 0,
            "slot": "6",
            "type": "t_uint32"
          },
          {
            "astId": 7740,
            "contract": "contracts/protocol/CaskSubscriptions.sol:CaskSubscriptions",
            "label": "minTermAt",
            "offset": 4,
            "slot": "6",
            "type": "t_uint32"
          },
          {
            "astId": 7742,
            "contract": "contracts/protocol/CaskSubscriptions.sol:CaskSubscriptions",
            "label": "cancelAt",
            "offset": 8,
            "slot": "6",
            "type": "t_uint32"
          },
          {
            "astId": 7744,
            "contract": "contracts/protocol/CaskSubscriptions.sol:CaskSubscriptions",
            "label": "cid",
            "offset": 0,
            "slot": "7",
            "type": "t_string_storage"
          }
        ],
        "numberOfBytes": "256"
      },
      "t_uint256": {
        "encoding": "inplace",
        "label": "uint256",
        "numberOfBytes": "32"
      },
      "t_uint32": {
        "encoding": "inplace",
        "label": "uint32",
        "numberOfBytes": "4"
      }
    }
  }
}