{
  "address": "0xf1d7dbC9faF226913f0849869863F5A34C045847",
  "abi": [
    {
      "inputs": [],
      "stateMutability": "nonpayable",
      "type": "constructor"
    },
    {
      "anonymous": false,
      "inputs": [
        {
          "indexed": true,
          "internalType": "address",
          "name": "previousOwner",
          "type": "address"
        },
        {
          "indexed": true,
          "internalType": "address",
          "name": "newOwner",
          "type": "address"
        }
      ],
      "name": "OwnershipTransferred",
      "type": "event"
    },
    {
      "anonymous": false,
      "inputs": [
        {
          "indexed": false,
          "internalType": "address",
          "name": "account",
          "type": "address"
        }
      ],
      "name": "Paused",
      "type": "event"
    },
    {
      "anonymous": false,
      "inputs": [
        {
          "indexed": false,
          "internalType": "address",
          "name": "account",
          "type": "address"
        }
      ],
      "name": "Unpaused",
      "type": "event"
    },
    {
      "inputs": [
        {
          "internalType": "bytes",
          "name": "checkData",
          "type": "bytes"
        }
      ],
      "name": "checkUpkeep",
      "outputs": [
        {
          "internalType": "bool",
          "name": "upkeepNeeded",
          "type": "bool"
        },
        {
          "internalType": "bytes",
          "name": "performData",
          "type": "bytes"
        }
      ],
      "stateMutability": "view",
      "type": "function"
    },
    {
      "inputs": [
        {
          "internalType": "address",
          "name": "_vault",
          "type": "address"
        },
        {
          "internalType": "address",
          "name": "_subscriptionPlans",
          "type": "address"
        },
        {
          "internalType": "address",
          "name": "_subscriptions",
          "type": "address"
        }
      ],
      "name": "initialize",
      "outputs": [],
      "stateMutability": "nonpayable",
      "type": "function"
    },
    {
      "inputs": [],
      "name": "owner",
      "outputs": [
        {
          "internalType": "address",
          "name": "",
          "type": "address"
        }
      ],
      "stateMutability": "view",
      "type": "function"
    },
    {
      "inputs": [],
      "name": "pause",
      "outputs": [],
      "stateMutability": "nonpayable",
      "type": "function"
    },
    {
      "inputs": [],
      "name": "paused",
      "outputs": [
        {
          "internalType": "bool",
          "name": "",
          "type": "bool"
        }
      ],
      "stateMutability": "view",
      "type": "function"
    },
    {
      "inputs": [],
      "name": "paymentFeeFixed",
      "outputs": [
        {
          "internalType": "uint256",
          "name": "",
          "type": "uint256"
        }
      ],
      "stateMutability": "view",
      "type": "function"
    },
    {
      "inputs": [],
      "name": "paymentFeeRateMax",
      "outputs": [
        {
          "internalType": "uint256",
          "name": "",
          "type": "uint256"
        }
      ],
      "stateMutability": "view",
      "type": "function"
    },
    {
      "inputs": [],
      "name": "paymentFeeRateMin",
      "outputs": [
        {
          "internalType": "uint256",
          "name": "",
          "type": "uint256"
        }
      ],
      "stateMutability": "view",
      "type": "function"
    },
    {
      "inputs": [
        {
          "internalType": "bytes",
          "name": "performData",
          "type": "bytes"
        }
      ],
      "name": "performUpkeep",
      "outputs": [],
      "stateMutability": "nonpayable",
      "type": "function"
    },
    {
      "inputs": [],
      "name": "processBucketSize",
      "outputs": [
        {
          "internalType": "uint32",
          "name": "",
          "type": "uint32"
        }
      ],
      "stateMutability": "view",
      "type": "function"
    },
    {
      "inputs": [
        {
          "internalType": "enum ICaskSubscriptionManager.CheckType",
          "name": "",
          "type": "uint8"
        },
        {
          "internalType": "uint32",
          "name": "",
          "type": "uint32"
        },
        {
          "internalType": "uint256",
          "name": "",
          "type": "uint256"
        }
      ],
      "name": "processQueue",
      "outputs": [
        {
          "internalType": "uint256",
          "name": "",
          "type": "uint256"
        }
      ],
      "stateMutability": "view",
      "type": "function"
    },
    {
      "inputs": [
        {
          "internalType": "address",
          "name": "_consumer",
          "type": "address"
        },
        {
          "internalType": "address",
          "name": "_provider",
          "type": "address"
        },
        {
          "internalType": "uint256",
          "name": "_subscriptionId",
          "type": "uint256"
        },
        {
          "internalType": "uint256",
          "name": "_value",
          "type": "uint256"
        }
      ],
      "name": "processSinglePayment",
      "outputs": [],
      "stateMutability": "nonpayable",
      "type": "function"
    },
    {
      "inputs": [
        {
          "internalType": "enum ICaskSubscriptionManager.CheckType",
          "name": "",
          "type": "uint8"
        }
      ],
      "name": "processingBucket",
      "outputs": [
        {
          "internalType": "uint32",
          "name": "",
          "type": "uint32"
        }
      ],
      "stateMutability": "view",
      "type": "function"
    },
    {
      "inputs": [
        {
          "internalType": "uint256",
          "name": "_subscriptionId",
          "type": "uint256"
        }
      ],
      "name": "renewSubscription",
      "outputs": [],
      "stateMutability": "nonpayable",
      "type": "function"
    },
    {
      "inputs": [],
      "name": "renounceOwnership",
      "outputs": [],
      "stateMutability": "nonpayable",
      "type": "function"
    },
    {
      "inputs": [
        {
          "internalType": "uint256",
          "name": "_paymentFeeFixed",
          "type": "uint256"
        },
        {
          "internalType": "uint256",
          "name": "_paymentFeeRateMin",
          "type": "uint256"
        },
        {
          "internalType": "uint256",
          "name": "_paymentFeeRateMax",
          "type": "uint256"
        },
        {
          "internalType": "uint256",
          "name": "_stakeTargetFactor",
          "type": "uint256"
        },
        {
          "internalType": "uint32",
          "name": "_processBucketSize",
          "type": "uint32"
        }
      ],
      "name": "setParameters",
      "outputs": [],
      "stateMutability": "nonpayable",
      "type": "function"
    },
    {
      "inputs": [
        {
          "internalType": "enum ICaskSubscriptionManager.CheckType",
          "name": "_checkType",
          "type": "uint8"
        },
        {
          "internalType": "uint32",
          "name": "_timestamp",
          "type": "uint32"
        }
      ],
      "name": "setProcessingBucket",
      "outputs": [],
      "stateMutability": "nonpayable",
      "type": "function"
    },
    {
      "inputs": [],
      "name": "stakeTargetFactor",
      "outputs": [
        {
          "internalType": "uint256",
          "name": "",
          "type": "uint256"
        }
      ],
      "stateMutability": "view",
      "type": "function"
    },
    {
      "inputs": [],
      "name": "subscriptionPlans",
      "outputs": [
        {
          "internalType": "contract ICaskSubscriptionPlans",
          "name": "",
          "type": "address"
        }
      ],
      "stateMutability": "view",
      "type": "function"
    },
    {
      "inputs": [],
      "name": "subscriptions",
      "outputs": [
        {
          "internalType": "contract ICaskSubscriptions",
          "name": "",
          "type": "address"
        }
      ],
      "stateMutability": "view",
      "type": "function"
    },
    {
      "inputs": [
        {
          "internalType": "address",
          "name": "newOwner",
          "type": "address"
        }
      ],
      "name": "transferOwnership",
      "outputs": [],
      "stateMutability": "nonpayable",
      "type": "function"
    },
    {
      "inputs": [],
      "name": "unpause",
      "outputs": [],
      "stateMutability": "nonpayable",
      "type": "function"
    },
    {
      "inputs": [],
      "name": "vault",
      "outputs": [
        {
          "internalType": "contract ICaskVault",
          "name": "",
          "type": "address"
        }
      ],
      "stateMutability": "view",
      "type": "function"
    }
  ],
  "transactionHash": "0x16faa194dc4d1c5ab95a27e8953c6a4c3070c9ad09ec9d2eb497879324d261b3",
  "args": [],
  "numDeployments": 8,
  "solcInputHash": "5349a6dc1ba6ec23cb65d1c04b7519d1",
  "bytecode": "0x60806040523480156200001157600080fd5b50600054610100900460ff166200002f5760005460ff161562000039565b62000039620000de565b620000a15760405162461bcd60e51b815260206004820152602e60248201527f496e697469616c697a61626c653a20636f6e747261637420697320616c72656160448201526d191e481a5b9a5d1a585b1a5e995960921b606482015260840160405180910390fd5b600054610100900460ff16158015620000c4576000805461ffff19166101011790555b8015620000d7576000805461ff00191690555b5062000102565b6000620000f630620000fc60201b62000f631760201c565b15905090565b3b151590565b612ba180620001126000396000f3fe608060405234801561001057600080fd5b506004361061014d5760003560e01c80638da5cb5b116100c3578063c0c53b8b1161007c578063c0c53b8b14610296578063c54c58c4146102a9578063d71bb37b146102bc578063f22a950e146102cf578063f2fde38b146102f5578063fbfa77cf1461030857600080fd5b80638da5cb5b1461020a5780638fe17b161461022f57806393357f5814610242578063a76d67b814610267578063b8e381e51461027a578063badf4b3e1461028d57600080fd5b80634585e33b116101155780634585e33b1461019d5780635c975abb146101b05780636e04ff0d146101c65780637040cbb1146101e7578063715018a6146101fa5780638456cb591461020257600080fd5b806308e27a991461015257806309e22a8b1461016e578063219e24c5146101815780633c07e34d1461018a5780633f4ba83a14610193575b600080fd5b61015b609d5481565b6040519081526020015b60405180910390f35b61015b61017c3660046122a6565b61031b565b61015b609b5481565b61015b609a5481565b61019b610359565b005b61019b6101ab3660046122e7565b610396565b60655460ff166040519015158152602001610165565b6101d96101d43660046122e7565b610805565b604051610165929190612385565b61019b6101f53660046123c1565b6109ef565b61019b610bb5565b61019b610be9565b6033546001600160a01b03165b6040516001600160a01b039091168152602001610165565b609754610217906001600160a01b031681565b609f546102529063ffffffff1681565b60405163ffffffff9091168152602001610165565b61019b61027536600461240e565b610c1b565b609854610217906001600160a01b031681565b61015b609c5481565b61019b6102a436600461245c565b610ca5565b61019b6102b73660046124a7565b610e45565b61019b6102ca3660046124ed565b610e9c565b6102526102dd366004612506565b60a16020526000908152604090205463ffffffff1681565b61019b61030336600461252a565b610ecb565b609954610217906001600160a01b031681565b60a0602052826000526040600020602052816000526040600020818154811061034357600080fd5b9060005260206000200160009250925050505481565b6033546001600160a01b0316331461038c5760405162461bcd60e51b815260040161038390612547565b60405180910390fd5b610394610f69565b565b60655460ff16156103b95760405162461bcd60e51b81526004016103839061257c565b6000806103c8838501856125a6565b9150915060a160008260028111156103e2576103e26125cb565b60028111156103f3576103f36125cb565b815260208101919091526040016000205463ffffffff1661046a57610416610ffc565b60a1600083600281111561042c5761042c6125cb565b600281111561043d5761043d6125cb565b815260200190815260200160002060006101000a81548163ffffffff021916908363ffffffff1602179055505b600061047783600a6125f7565b90505b60008311801561048a5750600081115b156107fe57600060a060008460028111156104a7576104a76125cb565b60028111156104b8576104b86125cb565b8152602001908152602001600020600060a160008660028111156104de576104de6125cb565b60028111156104ef576104ef6125cb565b8152602080820192909252604090810160009081205463ffffffff168452918301939093529101902054111561072257600060a06000846002811115610537576105376125cb565b6002811115610548576105486125cb565b8152602001908152602001600020600060a1600086600281111561056e5761056e6125cb565b600281111561057f5761057f6125cb565b8152602080820192909252604090810160009081205463ffffffff168452918301939093529101812054915060a0818560028111156105c0576105c06125cb565b60028111156105d1576105d16125cb565b8152602001908152602001600020600060a160008760028111156105f7576105f76125cb565b6002811115610608576106086125cb565b8152602080820192909252604090810160009081205463ffffffff168452918301939093529101902061063c600184612616565b8154811061064c5761064c61262d565b9060005260206000200154905060a0600085600281111561066f5761066f6125cb565b6002811115610680576106806125cb565b8152602001908152602001600020600060a160008760028111156106a6576106a66125cb565b60028111156106b7576106b76125cb565b8152602080820192909252604090810160009081205463ffffffff16845291830193909352910190208054806106ef576106ef612643565b6001900381819060005260206000200160009055905561070e81611024565b610719600186612616565b9450505061047a565b61072a610ffc565b63ffffffff1660a16000846002811115610746576107466125cb565b6002811115610757576107576125cb565b815260208101919091526040016000205463ffffffff1610156107fe57609f5463ffffffff1660a16000846002811115610793576107936125cb565b60028111156107a4576107a46125cb565b81526020810191909152604001600090812080549091906107cc90849063ffffffff16612659565b92506101000a81548163ffffffff021916908363ffffffff1602179055506000816107f79190612616565b905061047a565b5050505050565b600060608180610817858701876125a6565b91509150600060a16000836002811115610833576108336125cb565b6002811115610844576108446125cb565b815260208101919091526040016000205463ffffffff1690508061086d5761086a610ffc565b90505b60009450600060a06000846002811115610889576108896125cb565b600281111561089a5761089a6125cb565b81526020808201929092526040908101600090812063ffffffff8616825290925290205411156108cd57600194506109ab565b8063ffffffff166108dc610ffc565b63ffffffff16101580156109095750610e10816108f7610ffc565b6109019190612681565b63ffffffff16115b1561091757600194506109ab565b805b610921610ffc565b63ffffffff168163ffffffff16116109a957600060a0600085600281111561094b5761094b6125cb565b600281111561095c5761095c6125cb565b81526020808201929092526040908101600090812063ffffffff86168252909252902054111561098f57600195506109a9565b609f546109a29063ffffffff1682612659565b9050610919565b505b86868080601f016020809104026020016040519081016040528093929190818152602001838380828437600092019190915250979a92995091975050505050505050565b6033546001600160a01b03163314610a195760405162461bcd60e51b815260040161038390612547565b609a859055609b849055609c839055609d829055609f805463ffffffff191663ffffffff83811691909117909155600160005260a1602052600080516020612b2c8339815191525416610aa457610a6e610ffc565b600160005260a1602052600080516020612b2c833981519152805463ffffffff191663ffffffff92909216919091179055610b0d565b610adb60a1600060015b6002811115610abf57610abf6125cb565b815260208101919091526040016000205463ffffffff16611b1e565b600160005260a1602052600080516020612b2c833981519152805463ffffffff191663ffffffff929092169190911790555b600260005260a1602052600080516020612b4c8339815191525463ffffffff16610b6f57610b39610ffc565b600260005260a1602052600080516020612b4c833981519152805463ffffffff191663ffffffff929092169190911790556107fe565b610b7d60a160006002610aae565b600260005260a1602052600080516020612b4c833981519152805463ffffffff191663ffffffff929092169190911790555050505050565b6033546001600160a01b03163314610bdf5760405162461bcd60e51b815260040161038390612547565b6103946000611b4e565b6033546001600160a01b03163314610c135760405162461bcd60e51b815260040161038390612547565b610394611ba0565b6033546001600160a01b03163314610c455760405162461bcd60e51b815260040161038390612547565b610c4e81611b1e565b60a16000846002811115610c6457610c646125cb565b6002811115610c7557610c756125cb565b815260200190815260200160002060006101000a81548163ffffffff021916908363ffffffff1602179055505050565b600054610100900460ff16610cc05760005460ff1615610cc4565b303b155b610d275760405162461bcd60e51b815260206004820152602e60248201527f496e697469616c697a61626c653a20636f6e747261637420697320616c72656160448201526d191e481a5b9a5d1a585b1a5e995960921b6064820152608401610383565b600054610100900460ff16158015610d49576000805461ffff19166101011790555b610d51611bf8565b610d59611c2f565b609780546001600160a01b038086166001600160a01b0319928316179092556098805485841690831617905560998054928716929091169190911790556000609a819055609b819055609c819055609d55609f805463ffffffff191661012c179055610dc3610ffc565b600160005260a1602052600080516020612b2c833981519152805463ffffffff191663ffffffff92909216919091179055610dfc610ffc565b600260005260a1602052600080516020612b4c833981519152805463ffffffff191663ffffffff929092169190911790558015610e3f576000805461ff00191690555b50505050565b6098546001600160a01b0316336001600160a01b031614610e905760405162461bcd60e51b815260206004820152600560248201526404282aaa8960db1b6044820152606401610383565b610e3f84848484611c66565b60655460ff1615610ebf5760405162461bcd60e51b81526004016103839061257c565b610ec881611024565b50565b6033546001600160a01b03163314610ef55760405162461bcd60e51b815260040161038390612547565b6001600160a01b038116610f5a5760405162461bcd60e51b815260206004820152602660248201527f4f776e61626c653a206e6577206f776e657220697320746865207a65726f206160448201526564647265737360d01b6064820152608401610383565b610ec881611b4e565b3b151590565b60655460ff16610fb25760405162461bcd60e51b815260206004820152601460248201527314185d5cd8589b194e881b9bdd081c185d5cd95960621b6044820152606401610383565b6065805460ff191690557f5db9ee0a495bf2e6ff9c91a7834c1ba4fdd244a5e8aa4e537bd38aeae4b073aa335b6040516001600160a01b03909116815260200160405180910390a1565b609f5460009042906110149063ffffffff16826126bc565b61101e9082612681565b91505090565b60985460405163dc311dd360e01b8152600481018390526000916001600160a01b03169063dc311dd39060240160006040518083038186803b15801561106957600080fd5b505afa15801561107d573d6000803e3d6000fd5b505050506040513d6000823e601f3d908101601f191682016040526110a591908101906127d1565b5090504260038260c0015160058111156110c1576110c16125cb565b14156110cc57505050565b8063ffffffff1682610120015163ffffffff161115611153576001600090815260a06020526101208301517f5e4aa62fc514c001129aba2f8cfdadfdbf7b1cca3faf4a1fee3af14b1315f0dd919061112390611b1e565b63ffffffff1681526020808201929092526040016000908120805460018101825590825291902001929092555050565b600082610160015163ffffffff1611801561117f57508063ffffffff1682610160015163ffffffff1611155b806112e45750600260975460a084015160e085015160405163b6ab359f60e01b81526001600160a01b03928316600482015263ffffffff909116602482015291169063b6ab359f9060440160206040518083038186803b1580156111e257600080fd5b505afa1580156111f6573d6000803e3d6000fd5b505050506040513d601f19601f8201168201806040525081019061121a9190612901565b600281111561122b5761122b6125cb565b1480156112e4575060975460a083015160e084015160405163025b687560e01b815263ffffffff8516936001600160a01b03169263025b68759261128b926004016001600160a01b0392909216825263ffffffff16602082015260400190565b60206040518083038186803b1580156112a357600080fd5b505afa1580156112b7573d6000803e3d6000fd5b505050506040513d601f19601f820116820180604052508101906112db919061291e565b63ffffffff1611155b1561135357609854604051633efbd95560e11b81526001600160a01b0390911690637df7b2aa9061131c90869060029060040161293b565b600060405180830381600087803b15801561133657600080fd5b505af115801561134a573d6000803e3d6000fd5b50505050505050565b60985460405163321b9a5560e21b8152600481018590526000916001600160a01b03169063c86e69549060240160206040518083038186803b15801561139857600080fd5b505afa1580156113ac573d6000803e3d6000fd5b505050506040513d601f19601f820116820180604052508101906113d0919061296d565b11156114bf57609854604051633efbd95560e11b81526001600160a01b0390911690637df7b2aa9061140990869060019060040161293b565b600060405180830381600087803b15801561142357600080fd5b505af1158015611437573d6000803e3d6000fd5b505060985460405163dc311dd360e01b8152600481018790526001600160a01b03909116925063dc311dd3915060240160006040518083038186803b15801561147f57600080fd5b505afa158015611493573d6000803e3d6000fd5b505050506040513d6000823e601f3d908101601f191682016040526114bb91908101906127d1565b5091505b60006114ce8360000151611f7a565b80516040850151919250901561168d57600061159485606001516040805160e081018252600080825260208201819052918101829052606081018290526080810182905260a0810182905260c0810191909152506040805160e08101825260a083811c825263ffffffff608085811c8216602080860191909152606087811c8416868801529587901c8316958501959095529385901c169282019290925261ffff601084901c1691810191909152600160f01b60f09290921b821690911460c082015290565b90508060a0015161ffff16600014806115df57508363ffffffff168160a0015161ffff1684604001516115c79190612986565b8661010001516115d79190612659565b63ffffffff16105b15611625578060c00151156116015780516115fa9083612616565b915061168b565b80516127109061161190846125f7565b61161b91906129b2565b6115fa9083612616565b609854604051633efbd95560e11b81526001600160a01b0390911690637df7b2aa9061165890899060059060040161293b565b600060405180830381600087803b15801561167257600080fd5b505af1158015611686573d6000803e3d6000fd5b505050505b505b60008111801561179b57506099546098546040516331a9108f60e11b81526004810188905283926001600160a01b039081169263597435cb92911690636352211e9060240160206040518083038186803b1580156116ea57600080fd5b505afa1580156116fe573d6000803e3d6000fd5b505050506040513d601f19601f8201168201806040525081019061172291906129c6565b6040516001600160e01b031960e084901b1681526001600160a01b03909116600482015260240160206040518083038186803b15801561176157600080fd5b505afa158015611775573d6000803e3d6000fd5b505050506040513d601f19601f82011682018060405250810190611799919061296d565b105b156119055760c08201516117b59060ff16620151806129e3565b6117c49062ffffff1684612681565b63ffffffff1684610120015163ffffffff16101561184657609854604051633efbd95560e11b81526001600160a01b0390911690637df7b2aa9061180f90889060029060040161293b565b600060405180830381600087803b15801561182957600080fd5b505af115801561183d573d6000803e3d6000fd5b505050506107fe565b60058460c00151600581111561185e5761185e6125cb565b146107fe576002600090815260a06020527e3e94880a29ff53e6a8208a04e96e212c12922b7bda6b10d8c1979e9844e678906118a461189f86613840612659565b611b1e565b63ffffffff1681526020808201929092526040908101600090812080546001810182559082529290209091018690556098549051633efbd95560e11b81526001600160a01b0390911690637df7b2aa9061180f90889060039060040161293b565b8015611a3d576098546040516331a9108f60e11b815260048101879052611995916001600160a01b031690636352211e9060240160206040518083038186803b15801561195157600080fd5b505afa158015611965573d6000803e3d6000fd5b505050506040513d601f19601f8201168201806040525081019061198991906129c6565b8560a001518784611c66565b6001600090815260a060205260408301516101208601517f5e4aa62fc514c001129aba2f8cfdadfdbf7b1cca3faf4a1fee3af14b1315f0dd92916119dd9161189f9190612659565b63ffffffff1681526020808201929092526040908101600090812080546001810182559082529290209091018690556098549051633efbd95560e11b81526001600160a01b0390911690637df7b2aa9061180f908890600490810161293b565b6001600090815260a060205260408301516101208601517f5e4aa62fc514c001129aba2f8cfdadfdbf7b1cca3faf4a1fee3af14b1315f0dd9291611a859161189f9190612659565b63ffffffff1681526020808201929092526040908101600090812080546001810182559082529290209091018690556098549051633efbd95560e11b81526001600160a01b0390911690637df7b2aa90611ae5908890600490810161293b565b600060405180830381600087803b158015611aff57600080fd5b505af1158015611b13573d6000803e3d6000fd5b505050505050505050565b609f5460009063ffffffff16611b3481846126bc565b611b3e9084612681565b611b489190612659565b92915050565b603380546001600160a01b038381166001600160a01b0319831681179093556040519116919082907f8be0079c531659141344cd1fd0a4f28419497f9722a3daafe3b4186f6b6457e090600090a35050565b60655460ff1615611bc35760405162461bcd60e51b81526004016103839061257c565b6065805460ff191660011790557f62e78cea01bee320cd4e420270b5ea74000d11b0c9f74754ebdbfc544b05a258610fdf3390565b600054610100900460ff16611c1f5760405162461bcd60e51b815260040161038390612a05565b611c27612055565b61039461207c565b600054610100900460ff16611c565760405162461bcd60e51b815260040161038390612a05565b611c5e612055565b6103946120ac565b60995460405163597435cb60e01b81526001600160a01b0386811660048301528392169063597435cb9060240160206040518083038186803b158015611cab57600080fd5b505afa158015611cbf573d6000803e3d6000fd5b505050506040513d601f19601f82011682018060405250810190611ce3919061296d565b1015611d1c5760405162461bcd60e51b81526020600482015260086024820152672142414c414e434560c01b6044820152606401610383565b609c5460985460405163dc311dd360e01b8152600481018590526000929183916001600160a01b039091169063dc311dd39060240160006040518083038186803b158015611d6957600080fd5b505afa158015611d7d573d6000803e3d6000fd5b505050506040513d6000823e601f3d908101601f19168201604052611da591908101906127d1565b5090506000611db78260000151611f7a565b90508315611ec6576000620151808260400151611dd49190612a50565b611de09061016d612a50565b609d5460985460a086015160405163c7a687bf60e01b81526001600160a01b03918216600482015263ffffffff949094169450600093859392919091169063c7a687bf9060240160206040518083038186803b158015611e3f57600080fd5b505afa158015611e53573d6000803e3d6000fd5b505050506040513d601f19601f82011682018060405250810190611e77919061296d565b611e8191906125f7565b611e8b91906125f7565b9050611e9781876129b2565b609c54611ea491906125f7565b609c54611eb19190612616565b9450609b54851015611ec357609b5494505b50505b609754604051630782fb5960e31b81526001600160a01b0389811660048301526000921690633c17dac89060240160006040518083038186803b158015611f0c57600080fd5b505afa158015611f20573d6000803e3d6000fd5b505050506040513d6000823e601f3d908101601f19168201604052611f489190810190612a73565b805190915088906001600160a01b031615611f61575080515b611f6e848b838a896120df565b50505050505050505050565b6040805161012081018252600080825260208201819052918101829052606081018290526080810182905260a0810182905260c0810182905260e0810182905261010081019190915250604080516101208101825260a083811c8252608084811c63ffffffff908116602080860191909152606087811c8316868801529587901c8216958501959095529385901c90931692820192909252601083901c61ffff1691810191909152600882901c60ff1660c082015260f89190911b600160f81b8181161460e0830152600160f91b9081161461010082015290565b600054610100900460ff166103945760405162461bcd60e51b815260040161038390612a05565b600054610100900460ff166120a35760405162461bcd60e51b815260040161038390612a05565b61039433611b4e565b600054610100900460ff166120d35760405162461bcd60e51b815260040161038390612a05565b6065805460ff19169055565b60208501511561221057600061212b866020015160408051808201909152600080825260208201525060408051808201909152606082901c815260509190911c61ffff16602082015290565b6099549091506001600160a01b03166379b2125f86868661271061214f88836125f7565b61215991906129b2565b609a546121669190612b13565b865160208801516127109061217f9061ffff168c6125f7565b61218991906129b2565b60405160e088901b6001600160e01b03191681526001600160a01b039687166004820152948616602486015260448501939093526064840191909152909216608482015260a481019190915260c401600060405180830381600087803b1580156121f257600080fd5b505af1158015612206573d6000803e3d6000fd5b50505050506107fe565b6099546001600160a01b031663fcd6a25b85858561271061223187836125f7565b61223b91906129b2565b609a546122489190612b13565b6040516001600160e01b031960e087901b1681526001600160a01b03948516600482015293909216602484015260448301526064820152608401611ae5565b60038110610ec857600080fd5b63ffffffff81168114610ec857600080fd5b6000806000606084860312156122bb57600080fd5b83356122c681612287565b925060208401356122d681612294565b929592945050506040919091013590565b600080602083850312156122fa57600080fd5b823567ffffffffffffffff8082111561231257600080fd5b818501915085601f83011261232657600080fd5b81358181111561233557600080fd5b86602082850101111561234757600080fd5b60209290920196919550909350505050565b60005b8381101561237457818101518382015260200161235c565b83811115610e3f5750506000910152565b821515815260406020820152600082518060408401526123ac816060850160208701612359565b601f01601f1916919091016060019392505050565b600080600080600060a086880312156123d957600080fd5b85359450602086013593506040860135925060608601359150608086013561240081612294565b809150509295509295909350565b6000806040838503121561242157600080fd5b823561242c81612287565b9150602083013561243c81612294565b809150509250929050565b6001600160a01b0381168114610ec857600080fd5b60008060006060848603121561247157600080fd5b833561247c81612447565b9250602084013561248c81612447565b9150604084013561249c81612447565b809150509250925092565b600080600080608085870312156124bd57600080fd5b84356124c881612447565b935060208501356124d881612447565b93969395505050506040820135916060013590565b6000602082840312156124ff57600080fd5b5035919050565b60006020828403121561251857600080fd5b813561252381612287565b9392505050565b60006020828403121561253c57600080fd5b813561252381612447565b6020808252818101527f4f776e61626c653a2063616c6c6572206973206e6f7420746865206f776e6572604082015260600190565b60208082526010908201526f14185d5cd8589b194e881c185d5cd95960821b604082015260600190565b600080604083850312156125b957600080fd5b82359150602083013561243c81612287565b634e487b7160e01b600052602160045260246000fd5b634e487b7160e01b600052601160045260246000fd5b6000816000190483118215151615612611576126116125e1565b500290565b600082821015612628576126286125e1565b500390565b634e487b7160e01b600052603260045260246000fd5b634e487b7160e01b600052603160045260246000fd5b600063ffffffff808316818516808303821115612678576126786125e1565b01949350505050565b600063ffffffff8381169083168181101561269e5761269e6125e1565b039392505050565b634e487b7160e01b600052601260045260246000fd5b600063ffffffff808416806126d3576126d36126a6565b92169190910692915050565b634e487b7160e01b600052604160045260246000fd5b6040516101a0810167ffffffffffffffff81118282101715612719576127196126df565b60405290565b805161272a81612447565b919050565b80516006811061272a57600080fd5b805161272a81612294565b600082601f83011261275a57600080fd5b815167ffffffffffffffff80821115612775576127756126df565b604051601f8301601f19908116603f0116810190828211818310171561279d5761279d6126df565b816040528381528660208588010111156127b657600080fd5b6127c7846020830160208901612359565b9695505050505050565b600080604083850312156127e457600080fd5b825167ffffffffffffffff808211156127fc57600080fd5b908401906101a0828703121561281157600080fd5b6128196126f5565b825181526020830151602082015260408301516040820152606083015160608201526080830151608082015261285160a0840161271f565b60a082015261286260c0840161272f565b60c082015261287360e0840161273e565b60e082015261010061288681850161273e565b9082015261012061289884820161273e565b908201526101406128aa84820161273e565b908201526101606128bc84820161273e565b9082015261018083810151838111156128d457600080fd5b6128e089828701612749565b8284015250508094505050506128f86020840161271f565b90509250929050565b60006020828403121561291357600080fd5b815161252381612287565b60006020828403121561293057600080fd5b815161252381612294565b828152604081016006831061296057634e487b7160e01b600052602160045260246000fd5b8260208301529392505050565b60006020828403121561297f57600080fd5b5051919050565b600063ffffffff808316818516818304811182151516156129a9576129a96125e1565b02949350505050565b6000826129c1576129c16126a6565b500490565b6000602082840312156129d857600080fd5b815161252381612447565b600062ffffff808316818516818304811182151516156129a9576129a96125e1565b6020808252602b908201527f496e697469616c697a61626c653a20636f6e7472616374206973206e6f74206960408201526a6e697469616c697a696e6760a81b606082015260800190565b600063ffffffff80841680612a6757612a676126a6565b92169190910492915050565b600060208284031215612a8557600080fd5b815167ffffffffffffffff80821115612a9d57600080fd5b9083019060608286031215612ab157600080fd5b604051606081018181108382111715612acc57612acc6126df565b6040528251612ada81612447565b815260208381015190820152604083015182811115612af857600080fd5b612b0487828601612749565b60408301525095945050505050565b60008219821115612b2657612b266125e1565b50019056fef4875fff8b0cf986238a93aa5a1c4dd6cdbe2f1045b9974e1f43ef715569af6656cd10bd7c5a283404157adf2ba847ac6f7bfee0953fbdea6cae6f66ee17d9cea2646970667358221220966f99157399d33e639f8a9dcb0eba0d33fd2fd5b493cd0bcb24ea0e6c83adbb64736f6c63430008090033",
  "devdoc": {
    "kind": "dev",
    "methods": {
      "checkUpkeep(bytes)": {
        "details": "To ensure that it is never called, you may want to add the cannotExecute modifier from KeeperBase to your implementation of this method.",
        "params": {
          "checkData": "specified in the upkeep registration so it is always the same for a registered upkeep. This can easilly be broken down into specific arguments using `abi.decode`, so multiple upkeeps can be registered on the same contract and easily differentiated by the contract."
        },
        "returns": {
          "performData": "bytes that the keeper should call performUpkeep with, if upkeep is needed. If you would like to encode data to decode later, try `abi.encode`.",
          "upkeepNeeded": "boolean to indicate whether the keeper should call performUpkeep or not."
        }
      },
      "constructor": {
        "custom:oz-upgrades-unsafe-allow": "constructor"
      },
      "owner()": {
        "details": "Returns the address of the current owner."
      },
      "paused()": {
        "details": "Returns true if the contract is paused, and false otherwise."
      },
      "performUpkeep(bytes)": {
        "details": "The input to this method should not be trusted, and the caller of the method should not even be restricted to any single registry. Anyone should be able call it, and the input should be validated, there is no guarantee that the data passed in is the performData returned from checkUpkeep. This could happen due to malicious keepers, racing keepers, or simply a state change while the performUpkeep transaction is waiting for confirmation. Always validate the data passed in.",
        "params": {
          "performData": "is the data which was passed back from the checkData simulation. If it is encoded, it can easily be decoded into other types by calling `abi.decode`. This data should not be trusted, and should be validated against the contract's current state."
        }
      },
      "renounceOwnership()": {
        "details": "Leaves the contract without owner. It will not be possible to call `onlyOwner` functions anymore. Can only be called by the current owner. NOTE: Renouncing ownership will leave the contract without an owner, thereby removing any functionality that is only available to the owner."
      },
      "transferOwnership(address)": {
        "details": "Transfers ownership of the contract to a new account (`newOwner`). Can only be called by the current owner."
      }
    },
    "stateVariables": {
      "paymentFeeFixed": {
        "details": "fixed fee to charge on payments, in baseAsset decimal units. "
      },
      "paymentFeeRateMin": {
        "details": "min and max percentage to charge on payments, in bps. 50% = 5000. "
      },
      "processBucketSize": {
        "details": "size (in seconds) of buckets to group subscriptions into for processing "
      },
      "processQueue": {
        "details": "map used to track when subscriptions need attention next "
      },
      "stakeTargetFactor": {
        "details": "factor used to reduce payment fee based on qty of staked CASK "
      },
      "subscriptionPlans": {
        "details": "contract to manage subscription plan definitions. "
      },
      "vault": {
        "details": "vault to use for payments. "
      }
    },
    "version": 1
  },
  "userdoc": {
    "kind": "user",
    "methods": {
      "checkUpkeep(bytes)": {
        "notice": "method that is simulated by the keepers to see if any work actually needs to be performed. This method does does not actually need to be executable, and since it is only ever simulated it can consume lots of gas."
      },
      "performUpkeep(bytes)": {
        "notice": "method that is actually executed by the keepers, via the registry. The data returned by the checkUpkeep simulation will be passed into this method to actually be executed."
      }
    },
    "version": 1
  },
  "storageLayout": {
    "storage": [
      {
        "astId": 327,
        "contract": "contracts/protocol/CaskSubscriptionManager.sol:CaskSubscriptionManager",
        "label": "_initialized",
        "offset": 0,
        "slot": "0",
        "type": "t_bool"
      },
      {
        "astId": 330,
        "contract": "contracts/protocol/CaskSubscriptionManager.sol:CaskSubscriptionManager",
        "label": "_initializing",
        "offset": 1,
        "slot": "0",
        "type": "t_bool"
      },
      {
        "astId": 2551,
        "contract": "contracts/protocol/CaskSubscriptionManager.sol:CaskSubscriptionManager",
        "label": "__gap",
        "offset": 0,
        "slot": "1",
        "type": "t_array(t_uint256)50_storage"
      },
      {
        "astId": 205,
        "contract": "contracts/protocol/CaskSubscriptionManager.sol:CaskSubscriptionManager",
        "label": "_owner",
        "offset": 0,
        "slot": "51",
        "type": "t_address"
      },
      {
        "astId": 319,
        "contract": "contracts/protocol/CaskSubscriptionManager.sol:CaskSubscriptionManager",
        "label": "__gap",
        "offset": 0,
        "slot": "52",
        "type": "t_array(t_uint256)49_storage"
      },
      {
        "astId": 415,
        "contract": "contracts/protocol/CaskSubscriptionManager.sol:CaskSubscriptionManager",
        "label": "_paused",
        "offset": 0,
        "slot": "101",
        "type": "t_bool"
      },
      {
        "astId": 506,
        "contract": "contracts/protocol/CaskSubscriptionManager.sol:CaskSubscriptionManager",
        "label": "__gap",
        "offset": 0,
        "slot": "102",
        "type": "t_array(t_uint256)49_storage"
      },
      {
        "astId": 8945,
        "contract": "contracts/protocol/CaskSubscriptionManager.sol:CaskSubscriptionManager",
        "label": "subscriptionPlans",
        "offset": 0,
        "slot": "151",
        "type": "t_contract(ICaskSubscriptionPlans)7722"
      },
      {
        "astId": 8948,
        "contract": "contracts/protocol/CaskSubscriptionManager.sol:CaskSubscriptionManager",
        "label": "subscriptions",
        "offset": 0,
        "slot": "152",
        "type": "t_contract(ICaskSubscriptions)8109"
      },
      {
        "astId": 8952,
        "contract": "contracts/protocol/CaskSubscriptionManager.sol:CaskSubscriptionManager",
        "label": "vault",
        "offset": 0,
        "slot": "153",
        "type": "t_contract(ICaskVault)8355"
      },
      {
        "astId": 8955,
        "contract": "contracts/protocol/CaskSubscriptionManager.sol:CaskSubscriptionManager",
        "label": "paymentFeeFixed",
        "offset": 0,
        "slot": "154",
        "type": "t_uint256"
      },
      {
        "astId": 8958,
        "contract": "contracts/protocol/CaskSubscriptionManager.sol:CaskSubscriptionManager",
        "label": "paymentFeeRateMin",
        "offset": 0,
        "slot": "155",
        "type": "t_uint256"
      },
      {
        "astId": 8960,
        "contract": "contracts/protocol/CaskSubscriptionManager.sol:CaskSubscriptionManager",
        "label": "paymentFeeRateMax",
        "offset": 0,
        "slot": "156",
        "type": "t_uint256"
      },
      {
        "astId": 8963,
        "contract": "contracts/protocol/CaskSubscriptionManager.sol:CaskSubscriptionManager",
        "label": "stakeTargetFactor",
        "offset": 0,
        "slot": "157",
        "type": "t_uint256"
      },
      {
        "astId": 8967,
        "contract": "contracts/protocol/CaskSubscriptionManager.sol:CaskSubscriptionManager",
        "label": "deprecated1",
        "offset": 0,
        "slot": "158",
        "type": "t_mapping(t_uint256,t_uint32)"
      },
      {
        "astId": 8970,
        "contract": "contracts/protocol/CaskSubscriptionManager.sol:CaskSubscriptionManager",
        "label": "processBucketSize",
        "offset": 0,
        "slot": "159",
        "type": "t_uint32"
      },
      {
        "astId": 8979,
        "contract": "contracts/protocol/CaskSubscriptionManager.sol:CaskSubscriptionManager",
        "label": "processQueue",
        "offset": 0,
        "slot": "160",
        "type": "t_mapping(t_enum(CheckType)7559,t_mapping(t_uint32,t_array(t_uint256)dyn_storage))"
      },
      {
        "astId": 8984,
        "contract": "contracts/protocol/CaskSubscriptionManager.sol:CaskSubscriptionManager",
        "label": "processingBucket",
        "offset": 0,
        "slot": "161",
        "type": "t_mapping(t_enum(CheckType)7559,t_uint32)"
      }
    ],
    "types": {
      "t_address": {
        "encoding": "inplace",
        "label": "address",
        "numberOfBytes": "20"
      },
      "t_array(t_uint256)49_storage": {
        "base": "t_uint256",
        "encoding": "inplace",
        "label": "uint256[49]",
        "numberOfBytes": "1568"
      },
      "t_array(t_uint256)50_storage": {
        "base": "t_uint256",
        "encoding": "inplace",
        "label": "uint256[50]",
        "numberOfBytes": "1600"
      },
      "t_array(t_uint256)dyn_storage": {
        "base": "t_uint256",
        "encoding": "dynamic_array",
        "label": "uint256[]",
        "numberOfBytes": "32"
      },
      "t_bool": {
        "encoding": "inplace",
        "label": "bool",
        "numberOfBytes": "1"
      },
      "t_contract(ICaskSubscriptionPlans)7722": {
        "encoding": "inplace",
        "label": "contract ICaskSubscriptionPlans",
        "numberOfBytes": "20"
      },
      "t_contract(ICaskSubscriptions)8109": {
        "encoding": "inplace",
        "label": "contract ICaskSubscriptions",
        "numberOfBytes": "20"
      },
      "t_contract(ICaskVault)8355": {
        "encoding": "inplace",
        "label": "contract ICaskVault",
        "numberOfBytes": "20"
      },
      "t_enum(CheckType)7559": {
        "encoding": "inplace",
        "label": "enum ICaskSubscriptionManager.CheckType",
        "numberOfBytes": "1"
      },
      "t_mapping(t_enum(CheckType)7559,t_mapping(t_uint32,t_array(t_uint256)dyn_storage))": {
        "encoding": "mapping",
        "key": "t_enum(CheckType)7559",
        "label": "mapping(enum ICaskSubscriptionManager.CheckType => mapping(uint32 => uint256[]))",
        "numberOfBytes": "32",
        "value": "t_mapping(t_uint32,t_array(t_uint256)dyn_storage)"
      },
      "t_mapping(t_enum(CheckType)7559,t_uint32)": {
        "encoding": "mapping",
        "key": "t_enum(CheckType)7559",
        "label": "mapping(enum ICaskSubscriptionManager.CheckType => uint32)",
        "numberOfBytes": "32",
        "value": "t_uint32"
      },
      "t_mapping(t_uint256,t_uint32)": {
        "encoding": "mapping",
        "key": "t_uint256",
        "label": "mapping(uint256 => uint32)",
        "numberOfBytes": "32",
        "value": "t_uint32"
      },
      "t_mapping(t_uint32,t_array(t_uint256)dyn_storage)": {
        "encoding": "mapping",
        "key": "t_uint32",
        "label": "mapping(uint32 => uint256[])",
        "numberOfBytes": "32",
        "value": "t_array(t_uint256)dyn_storage"
      },
      "t_uint256": {
        "encoding": "inplace",
        "label": "uint256",
        "numberOfBytes": "32"
      },
      "t_uint32": {
        "encoding": "inplace",
        "label": "uint32",
        "numberOfBytes": "4"
      }
    }
  }
}