{
  "address": "0x95CdC6D2F6dB573189fdFb8d523dFb6fD7622115",
  "abi": [
    {
      "inputs": [],
      "stateMutability": "nonpayable",
      "type": "constructor"
    },
    {
      "anonymous": false,
      "inputs": [
        {
          "indexed": true,
          "internalType": "address",
          "name": "previousOwner",
          "type": "address"
        },
        {
          "indexed": true,
          "internalType": "address",
          "name": "newOwner",
          "type": "address"
        }
      ],
      "name": "OwnershipTransferred",
      "type": "event"
    },
    {
      "anonymous": false,
      "inputs": [
        {
          "indexed": false,
          "internalType": "address",
          "name": "account",
          "type": "address"
        }
      ],
      "name": "Paused",
      "type": "event"
    },
    {
      "anonymous": false,
      "inputs": [],
      "name": "SetParameters",
      "type": "event"
    },
    {
      "anonymous": false,
      "inputs": [
        {
          "indexed": false,
          "internalType": "uint256",
          "name": "limit",
          "type": "uint256"
        },
        {
          "indexed": false,
          "internalType": "uint256",
          "name": "renewals",
          "type": "uint256"
        },
        {
          "indexed": false,
          "internalType": "uint256",
          "name": "depth",
          "type": "uint256"
        },
        {
          "indexed": false,
          "internalType": "enum ICaskSubscriptionManager.CheckType",
          "name": "checkType",
          "type": "uint8"
        },
        {
          "indexed": false,
          "internalType": "uint256",
          "name": "queueRemaining",
          "type": "uint256"
        },
        {
          "indexed": false,
          "internalType": "uint32",
          "name": "currentBucket",
          "type": "uint32"
        }
      ],
      "name": "SubscriptionManagerReport",
      "type": "event"
    },
    {
      "anonymous": false,
      "inputs": [
        {
          "indexed": false,
          "internalType": "address",
          "name": "account",
          "type": "address"
        }
      ],
      "name": "Unpaused",
      "type": "event"
    },
    {
      "inputs": [
        {
          "internalType": "bytes",
          "name": "checkData",
          "type": "bytes"
        }
      ],
      "name": "checkUpkeep",
      "outputs": [
        {
          "internalType": "bool",
          "name": "upkeepNeeded",
          "type": "bool"
        },
        {
          "internalType": "bytes",
          "name": "performData",
          "type": "bytes"
        }
      ],
      "stateMutability": "view",
      "type": "function"
    },
    {
      "inputs": [
        {
          "internalType": "address",
          "name": "_vault",
          "type": "address"
        },
        {
          "internalType": "address",
          "name": "_subscriptionPlans",
          "type": "address"
        },
        {
          "internalType": "address",
          "name": "_subscriptions",
          "type": "address"
        }
      ],
      "name": "initialize",
      "outputs": [],
      "stateMutability": "nonpayable",
      "type": "function"
    },
    {
      "inputs": [],
      "name": "owner",
      "outputs": [
        {
          "internalType": "address",
          "name": "",
          "type": "address"
        }
      ],
      "stateMutability": "view",
      "type": "function"
    },
    {
      "inputs": [],
      "name": "pause",
      "outputs": [],
      "stateMutability": "nonpayable",
      "type": "function"
    },
    {
      "inputs": [],
      "name": "paused",
      "outputs": [
        {
          "internalType": "bool",
          "name": "",
          "type": "bool"
        }
      ],
      "stateMutability": "view",
      "type": "function"
    },
    {
      "inputs": [],
      "name": "paymentFeeMin",
      "outputs": [
        {
          "internalType": "uint256",
          "name": "",
          "type": "uint256"
        }
      ],
      "stateMutability": "view",
      "type": "function"
    },
    {
      "inputs": [],
      "name": "paymentFeeRateMax",
      "outputs": [
        {
          "internalType": "uint256",
          "name": "",
          "type": "uint256"
        }
      ],
      "stateMutability": "view",
      "type": "function"
    },
    {
      "inputs": [],
      "name": "paymentFeeRateMin",
      "outputs": [
        {
          "internalType": "uint256",
          "name": "",
          "type": "uint256"
        }
      ],
      "stateMutability": "view",
      "type": "function"
    },
    {
      "inputs": [],
      "name": "paymentMinValue",
      "outputs": [
        {
          "internalType": "uint256",
          "name": "",
          "type": "uint256"
        }
      ],
      "stateMutability": "view",
      "type": "function"
    },
    {
      "inputs": [
        {
          "internalType": "bytes",
          "name": "performData",
          "type": "bytes"
        }
      ],
      "name": "performUpkeep",
      "outputs": [],
      "stateMutability": "nonpayable",
      "type": "function"
    },
    {
      "inputs": [],
      "name": "processBucketSize",
      "outputs": [
        {
          "internalType": "uint32",
          "name": "",
          "type": "uint32"
        }
      ],
      "stateMutability": "view",
      "type": "function"
    },
    {
      "inputs": [
        {
          "internalType": "address",
          "name": "_consumer",
          "type": "address"
        },
        {
          "internalType": "address",
          "name": "_provider",
          "type": "address"
        },
        {
          "internalType": "uint256",
          "name": "_subscriptionId",
          "type": "uint256"
        },
        {
          "internalType": "uint256",
          "name": "_value",
          "type": "uint256"
        }
      ],
      "name": "processSinglePayment",
      "outputs": [
        {
          "internalType": "bool",
          "name": "",
          "type": "bool"
        }
      ],
      "stateMutability": "nonpayable",
      "type": "function"
    },
    {
      "inputs": [
        {
          "internalType": "enum ICaskSubscriptionManager.CheckType",
          "name": "_checkType",
          "type": "uint8"
        },
        {
          "internalType": "uint32",
          "name": "_bucket",
          "type": "uint32"
        },
        {
          "internalType": "uint256",
          "name": "_idx",
          "type": "uint256"
        }
      ],
      "name": "queueItem",
      "outputs": [
        {
          "internalType": "uint256",
          "name": "",
          "type": "uint256"
        }
      ],
      "stateMutability": "view",
      "type": "function"
    },
    {
      "inputs": [
        {
          "internalType": "enum ICaskSubscriptionManager.CheckType",
          "name": "_checkType",
          "type": "uint8"
        }
      ],
      "name": "queuePosition",
      "outputs": [
        {
          "internalType": "uint32",
          "name": "",
          "type": "uint32"
        }
      ],
      "stateMutability": "view",
      "type": "function"
    },
    {
      "inputs": [
        {
          "internalType": "enum ICaskSubscriptionManager.CheckType",
          "name": "_checkType",
          "type": "uint8"
        },
        {
          "internalType": "uint32",
          "name": "_bucket",
          "type": "uint32"
        }
      ],
      "name": "queueSize",
      "outputs": [
        {
          "internalType": "uint256",
          "name": "",
          "type": "uint256"
        }
      ],
      "stateMutability": "view",
      "type": "function"
    },
    {
      "inputs": [
        {
          "internalType": "uint256",
          "name": "_subscriptionId",
          "type": "uint256"
        }
      ],
      "name": "renewSubscription",
      "outputs": [],
      "stateMutability": "nonpayable",
      "type": "function"
    },
    {
      "inputs": [],
      "name": "renounceOwnership",
      "outputs": [],
      "stateMutability": "nonpayable",
      "type": "function"
    },
    {
      "inputs": [
        {
          "internalType": "uint256",
          "name": "_paymentMinValue",
          "type": "uint256"
        },
        {
          "internalType": "uint256",
          "name": "_paymentFeeMin",
          "type": "uint256"
        },
        {
          "internalType": "uint256",
          "name": "_paymentFeeRateMin",
          "type": "uint256"
        },
        {
          "internalType": "uint256",
          "name": "_paymentFeeRateMax",
          "type": "uint256"
        },
        {
          "internalType": "uint256",
          "name": "_stakeTargetFactor",
          "type": "uint256"
        },
        {
          "internalType": "uint32",
          "name": "_processBucketSize",
          "type": "uint32"
        }
      ],
      "name": "setParameters",
      "outputs": [],
      "stateMutability": "nonpayable",
      "type": "function"
    },
    {
      "inputs": [
        {
          "internalType": "enum ICaskSubscriptionManager.CheckType",
          "name": "_checkType",
          "type": "uint8"
        },
        {
          "internalType": "uint32",
          "name": "_timestamp",
          "type": "uint32"
        }
      ],
      "name": "setProcessingBucket",
      "outputs": [],
      "stateMutability": "nonpayable",
      "type": "function"
    },
    {
      "inputs": [],
      "name": "stakeTargetFactor",
      "outputs": [
        {
          "internalType": "uint256",
          "name": "",
          "type": "uint256"
        }
      ],
      "stateMutability": "view",
      "type": "function"
    },
    {
      "inputs": [],
      "name": "subscriptionPlans",
      "outputs": [
        {
          "internalType": "contract ICaskSubscriptionPlans",
          "name": "",
          "type": "address"
        }
      ],
      "stateMutability": "view",
      "type": "function"
    },
    {
      "inputs": [],
      "name": "subscriptions",
      "outputs": [
        {
          "internalType": "contract ICaskSubscriptions",
          "name": "",
          "type": "address"
        }
      ],
      "stateMutability": "view",
      "type": "function"
    },
    {
      "inputs": [
        {
          "internalType": "address",
          "name": "newOwner",
          "type": "address"
        }
      ],
      "name": "transferOwnership",
      "outputs": [],
      "stateMutability": "nonpayable",
      "type": "function"
    },
    {
      "inputs": [],
      "name": "unpause",
      "outputs": [],
      "stateMutability": "nonpayable",
      "type": "function"
    },
    {
      "inputs": [],
      "name": "vault",
      "outputs": [
        {
          "internalType": "contract ICaskVault",
          "name": "",
          "type": "address"
        }
      ],
      "stateMutability": "view",
      "type": "function"
    }
  ],
  "transactionHash": "0x3f32935f0113563e0703515da31abc4abc2cccd747dd812af2830e882f4ba7db",
  "args": [],
  "numDeployments": 7,
  "solcInputHash": "afebfa8a394233f1f3cf83903ac4f82a",
  "bytecode": "0x60806040523480156200001157600080fd5b50600054610100900460ff166200002f5760005460ff161562000039565b62000039620000de565b620000a15760405162461bcd60e51b815260206004820152602e60248201527f496e697469616c697a61626c653a20636f6e747261637420697320616c72656160448201526d191e481a5b9a5d1a585b1a5e995960921b606482015260840160405180910390fd5b600054610100900460ff16158015620000c4576000805461ffff19166101011790555b8015620000d7576000805461ff00191690555b5062000102565b6000620000f630620000fc60201b620011c91760201c565b15905090565b3b151590565b612f2e80620001126000396000f3fe608060405234801561001057600080fd5b50600436106101735760003560e01c80638fe17b16116100de578063c0c53b8b11610097578063d71bb37b11610071578063d71bb37b146102ff578063e775d1ac14610312578063f2fde38b14610325578063fbfa77cf1461033857600080fd5b8063c0c53b8b146102d0578063c54c58c4146102e3578063c83cbe89146102f657600080fd5b80638fe17b161461026b57806393357f581461027e578063a76d67b81461028e578063aa878f76146102a1578063b8e381e5146102b4578063badf4b3e146102c757600080fd5b80634585e33b116101305780634585e33b146101eb5780635c975abb146101fe5780636e04ff0d14610215578063715018a6146102365780638456cb591461023e5780638da5cb5b1461024657600080fd5b806308e27a991461017857806314fad707146101945780631c39033c146101a7578063219e24c5146101cf5780633d3ce926146101d85780633f4ba83a146101e1575b600080fd5b610181609d5481565b6040519081526020015b60405180910390f35b6101816101a23660046125de565b61034b565b6101ba6101b536600461261f565b6103c5565b60405163ffffffff909116815260200161018b565b610181609b5481565b61018160a15481565b6101e961040b565b005b6101e96101f936600461263c565b610448565b60655460ff165b604051901515815260200161018b565b61022861022336600461263c565b610993565b60405161018b9291906126da565b6101e9610b97565b6101e9610bcb565b6033546001600160a01b03165b6040516001600160a01b03909116815260200161018b565b609754610253906001600160a01b031681565b609e546101ba9063ffffffff1681565b6101e961029c366004612716565b610bfd565b6101816102af366004612716565b610c87565b609854610253906001600160a01b031681565b610181609c5481565b6101e96102de366004612764565b610cdc565b6102056102f13660046127af565b610ea4565b610181609a5481565b6101e961030d3660046127f5565b610f09565b6101e961032036600461280e565b610f38565b6101e9610333366004612863565b611131565b609954610253906001600160a01b031681565b6000609f600085600281111561036357610363612880565b600281111561037457610374612880565b815260200190815260200160002060008463ffffffff1663ffffffff16815260200190815260200160002082815481106103b0576103b0612896565b906000526020600020015490505b9392505050565b600060a060008360028111156103dd576103dd612880565b60028111156103ee576103ee612880565b815260208101919091526040016000205463ffffffff1692915050565b6033546001600160a01b0316331461043e5760405162461bcd60e51b8152600401610435906128ac565b60405180910390fd5b6104466111cf565b565b60655460ff161561046b5760405162461bcd60e51b8152600401610435906128e1565b6000808061047b8486018661290b565b925092509250600061048b611262565b905060008061049b86600561294f565b905060a060008560028111156104b3576104b3612880565b60028111156104c4576104c4612880565b815260208101919091526040016000205463ffffffff16610534578260a060008660028111156104f6576104f6612880565b600281111561050757610507612880565b815260200190815260200160002060006101000a81548163ffffffff021916908363ffffffff1602179055505b85821080156105435750600081115b801561059257508263ffffffff1660a0600086600281111561056757610567612880565b600281111561057857610578612880565b815260208101919091526040016000205463ffffffff1611155b15610883576000609f60008660028111156105af576105af612880565b60028111156105c0576105c0612880565b8152602001908152602001600020600060a060008860028111156105e6576105e6612880565b60028111156105f7576105f7612880565b8152602080820192909252604090810160009081205463ffffffff168452918301939093529101902054905080156107a2576000609f600087600281111561064157610641612880565b600281111561065257610652612880565b8152602001908152602001600020600060a0600089600281111561067857610678612880565b600281111561068957610689612880565b8152602080820192909252604090810160009081205463ffffffff16845291830193909352910190206106bd60018461296e565b815481106106cd576106cd612896565b90600052602060002001549050609f60008760028111156106f0576106f0612880565b600281111561070157610701612880565b8152602001908152602001600020600060a0600089600281111561072757610727612880565b600281111561073857610738612880565b8152602080820192909252604090810160009081205463ffffffff168452918301939093529101902080548061077057610770612985565b6001900381819060005260206000200160009055905561078f8161128a565b61079a60018561299b565b93505061087d565b8363ffffffff1660a060008760028111156107bf576107bf612880565b60028111156107d0576107d0612880565b815260208101919091526040016000205463ffffffff16101561087757609e5463ffffffff1660a0600087600281111561080c5761080c612880565b600281111561081d5761081d612880565b815260208101919091526040016000908120805490919061084590849063ffffffff166129b3565b92506101000a81548163ffffffff021916908363ffffffff160217905550600182610870919061296e565b915061087d565b50610883565b50610534565b7f75a64c7d044cacf7f5733a40d9f770446e4a977483bf14d9e58752255a62785386838787609f60008a60028111156108be576108be612880565b60028111156108cf576108cf612880565b8152602001908152602001600020600060a060008c60028111156108f5576108f5612880565b600281111561090657610906612880565b8152602080820192909252604090810160009081205463ffffffff1684529183019390935291018120549060a0908b600281111561094657610946612880565b600281111561095757610957612880565b81526020810191909152604090810160002054905161098196959493929163ffffffff16906129ef565b60405180910390a15050505050505050565b600060608180806109a68688018861290b565b92509250925060006109b6611262565b905060009550600060a060008460028111156109d4576109d4612880565b60028111156109e5576109e5612880565b815260208101919091526040016000205463ffffffff16905080610a065750805b8063ffffffff168263ffffffff1610158015610a325750610e10610a2a8284612a2e565b63ffffffff16115b15610a405760019650610b1f565b8163ffffffff168163ffffffff1611610b1f576000609f6000856002811115610a6b57610a6b612880565b6002811115610a7c57610a7c612880565b81526020808201929092526040908101600090812063ffffffff86168252909252902054118015610af7575083609f6000856002811115610abf57610abf612880565b6002811115610ad057610ad0612880565b81526020808201929092526040908101600090812063ffffffff8616825290925290205410155b15610b055760019650610b1f565b609e54610b189063ffffffff16826129b3565b9050610a40565b84609f6000856002811115610b3657610b36612880565b6002811115610b4757610b47612880565b81526020808201929092526040908101600090812063ffffffff861682528352819020549051610b7a9392879101612a53565b604051602081830303815290604052955050505050509250929050565b6033546001600160a01b03163314610bc15760405162461bcd60e51b8152600401610435906128ac565b6104466000611c88565b6033546001600160a01b03163314610bf55760405162461bcd60e51b8152600401610435906128ac565b610446611cda565b6033546001600160a01b03163314610c275760405162461bcd60e51b8152600401610435906128ac565b610c3081611d32565b60a06000846002811115610c4657610c46612880565b6002811115610c5757610c57612880565b815260200190815260200160002060006101000a81548163ffffffff021916908363ffffffff1602179055505050565b6000609f6000846002811115610c9f57610c9f612880565b6002811115610cb057610cb0612880565b81526020808201929092526040908101600090812063ffffffff86168252909252902054905092915050565b600054610100900460ff16610cf75760005460ff1615610cfb565b303b155b610d5e5760405162461bcd60e51b815260206004820152602e60248201527f496e697469616c697a61626c653a20636f6e747261637420697320616c72656160448201526d191e481a5b9a5d1a585b1a5e995960921b6064820152608401610435565b600054610100900460ff16158015610d80576000805461ffff19166101011790555b610d88611d62565b610d90611d99565b609780546001600160a01b038086166001600160a01b031992831617909255609880548584169083161790556099805492871692909116919091179055600060a1819055609a819055609b819055609c819055609d55609e805463ffffffff191661012c179055610dff611262565b600160005260a06020527f5e4aa62fc514c001129aba2f8cfdadfdbf7b1cca3faf4a1fee3af14b1315f0dd805463ffffffff191663ffffffff92909216919091179055610e4a611262565b600260005260a06020527e3e94880a29ff53e6a8208a04e96e212c12922b7bda6b10d8c1979e9844e678805463ffffffff191663ffffffff929092169190911790558015610e9e576000805461ff00191690555b50505050565b6098546000906001600160a01b0316336001600160a01b031614610ef25760405162461bcd60e51b815260206004820152600560248201526404282aaa8960db1b6044820152606401610435565b610efe85858585611dd0565b90505b949350505050565b60655460ff1615610f2c5760405162461bcd60e51b8152600401610435906128e1565b610f358161128a565b50565b6033546001600160a01b03163314610f625760405162461bcd60e51b8152600401610435906128ac565b6127108410610fb35760405162461bcd60e51b815260206004820152601b60248201527f21494e56414c4944287061796d656e74466565526174654d696e2900000000006044820152606401610435565b61271083106110045760405162461bcd60e51b815260206004820152601b60248201527f21494e56414c4944287061796d656e74466565526174654d61782900000000006044820152606401610435565b60a1869055609a859055609b849055609c839055609d829055609e805463ffffffff191663ffffffff831617905561106960a0600060015b600281111561104d5761104d612880565b815260208101919091526040016000205463ffffffff16611d32565b6001600090815260a060208190527f5e4aa62fc514c001129aba2f8cfdadfdbf7b1cca3faf4a1fee3af14b1315f0dd805463ffffffff191663ffffffff94909416939093179092556110bd9190600261103c565b6002600090815260a06020527e3e94880a29ff53e6a8208a04e96e212c12922b7bda6b10d8c1979e9844e678805463ffffffff191663ffffffff93909316929092179091556040517f3b5fda6f71b960b21be0b432d9b7c87d9c8c996477ea1eba5c19cb77d1e027aa9190a1505050505050565b6033546001600160a01b0316331461115b5760405162461bcd60e51b8152600401610435906128ac565b6001600160a01b0381166111c05760405162461bcd60e51b815260206004820152602660248201527f4f776e61626c653a206e6577206f776e657220697320746865207a65726f206160448201526564647265737360d01b6064820152608401610435565b610f3581611c88565b3b151590565b60655460ff166112185760405162461bcd60e51b815260206004820152601460248201527314185d5cd8589b194e881b9bdd081c185d5cd95960621b6044820152606401610435565b6065805460ff191690557f5db9ee0a495bf2e6ff9c91a7834c1ba4fdd244a5e8aa4e537bd38aeae4b073aa335b6040516001600160a01b03909116815260200160405180910390a1565b609e54600090429061127a9063ffffffff1682612a84565b6112849082612a2e565b91505090565b60985460405163dc311dd360e01b81526004810183905260009182916001600160a01b039091169063dc311dd39060240160006040518083038186803b1580156112d357600080fd5b505afa1580156112e7573d6000803e3d6000fd5b505050506040513d6000823e601f3d908101601f1916820160405261130f9190810190612b99565b90925090504260038360c00151600681111561132d5761132d612880565b148061134e575060048360c00151600681111561134c5761134c612880565b145b8061136e575060008360c00151600681111561136c5761136c612880565b145b156113795750505050565b8063ffffffff1683610120015163ffffffff1611156114015760016000908152609f6020526101208401517fd8ebc4b3e3fc84fb7267bc9651f22e5107e8b4ddef6b7d4ac503c1ca7368470b91906113d090611d32565b63ffffffff168152602080820192909252604001600090812080546001810182559082529190200193909355505050565b60068360c00151600681111561141957611419612880565b141561148a57609854604051633efbd95560e11b81526001600160a01b0390911690637df7b2aa90611452908790600690600401612cef565b600060405180830381600087803b15801561146c57600080fd5b505af1158015611480573d6000803e3d6000fd5b5050505050505050565b600083610160015163ffffffff161180156114b657508063ffffffff1683610160015163ffffffff1611155b8061161b5750600260975460a085015160e086015160405163b6ab359f60e01b81526001600160a01b03928316600482015263ffffffff909116602482015291169063b6ab359f9060440160206040518083038186803b15801561151957600080fd5b505afa15801561152d573d6000803e3d6000fd5b505050506040513d601f19601f820116820180604052508101906115519190612d13565b600281111561156257611562612880565b14801561161b575060975460a084015160e085015160405163025b687560e01b815263ffffffff8516936001600160a01b03169263025b6875926115c2926004016001600160a01b0392909216825263ffffffff16602082015260400190565b60206040518083038186803b1580156115da57600080fd5b505afa1580156115ee573d6000803e3d6000fd5b505050506040513d601f19601f820116820180604052508101906116129190612d30565b63ffffffff1611155b1561165357609854604051633efbd95560e11b81526001600160a01b0390911690637df7b2aa90611452908790600290600401612cef565b60985460405163321b9a5560e21b8152600481018690526000916001600160a01b03169063c86e69549060240160206040518083038186803b15801561169857600080fd5b505afa1580156116ac573d6000803e3d6000fd5b505050506040513d601f19601f820116820180604052508101906116d09190612d4d565b11156117bf57609854604051633efbd95560e11b81526001600160a01b0390911690637df7b2aa90611709908790600190600401612cef565b600060405180830381600087803b15801561172357600080fd5b505af1158015611737573d6000803e3d6000fd5b505060985460405163dc311dd360e01b8152600481018890526001600160a01b03909116925063dc311dd3915060240160006040518083038186803b15801561177f57600080fd5b505afa158015611793573d6000803e3d6000fd5b505050506040513d6000823e601f3d908101601f191682016040526117bb9190810190612b99565b5092505b60006117ce8460000151612049565b8051909150806117e057505050505050565b6040850151156119155760006117f98660600151612124565b90508060a0015161ffff166000148061184457508363ffffffff168160a0015161ffff16846040015161182c9190612d66565b87610100015161183c91906129b3565b63ffffffff16115b156118ad576118588587604001518361220c565b156118a85760008160e0015161188757815161271090611878908561294f565b6118829190612d92565b61188a565b81515b905080831161189a5760006118a4565b6118a4818461296e565b9250505b611913565b609854604051633efbd95560e11b81526001600160a01b0390911690637df7b2aa906118e0908a90600590600401612cef565b600060405180830381600087803b1580156118fa57600080fd5b505af115801561190e573d6000803e3d6000fd5b505050505b505b60a1548110806119275750609a548111155b1561199657609854604051633efbd95560e11b81526001600160a01b0390911690637df7b2aa9061195f908990600290600401612cef565b600060405180830381600087803b15801561197957600080fd5b505af115801561198d573d6000803e3d6000fd5b50505050611c80565b8015806119ae57506119ae848660a001518884611dd0565b15611aed578263ffffffff1682604001518661012001516119cf91906129b3565b63ffffffff161015611a425760026000908152609f6020527f95684aba87c7afc0cb0825ce802e59a0c43a91e65441705f8ec2d377a306a58790611a1285611d32565b63ffffffff1681526020808201929092526040016000908120805460018101825590825291902001869055611abb565b60016000908152609f60205260408301516101208701517fd8ebc4b3e3fc84fb7267bc9651f22e5107e8b4ddef6b7d4ac503c1ca7368470b9291611a8f91611a8a91906129b3565b611d32565b63ffffffff16815260208082019290925260400160009081208054600181018255908252919020018690555b609854604051633efbd95560e11b81526001600160a01b0390911690637df7b2aa9061195f9089906004908101612cef565b60c0820151611b029060ff1662015180612da6565b611b119062ffffff1684612a2e565b63ffffffff1685610120015163ffffffff161015611b5c57609854604051633efbd95560e11b81526001600160a01b0390911690637df7b2aa9061195f908990600290600401612cef565b60058560c001516006811115611b7457611b74612880565b14611c175760026000908152609f6020527f95684aba87c7afc0cb0825ce802e59a0c43a91e65441705f8ec2d377a306a58790611bb6611a8a866138406129b3565b63ffffffff1681526020808201929092526040908101600090812080546001810182559082529290209091018790556098549051633efbd95560e11b81526001600160a01b0390911690637df7b2aa9061195f908990600390600401612cef565b60026000908152609f6020527f95684aba87c7afc0cb0825ce802e59a0c43a91e65441705f8ec2d377a306a58790611c54611a8a866138406129b3565b63ffffffff16815260208082019290925260400160009081208054600181018255908252919020018690555b505050505050565b603380546001600160a01b038381166001600160a01b0319831681179093556040519116919082907f8be0079c531659141344cd1fd0a4f28419497f9722a3daafe3b4186f6b6457e090600090a35050565b60655460ff1615611cfd5760405162461bcd60e51b8152600401610435906128e1565b6065805460ff191660011790557f62e78cea01bee320cd4e420270b5ea74000d11b0c9f74754ebdbfc544b05a2586112453390565b609e5460009063ffffffff16611d488184612a84565b611d529084612a2e565b611d5c91906129b3565b92915050565b600054610100900460ff16611d895760405162461bcd60e51b815260040161043590612dc8565b611d916122e9565b610446612310565b600054610100900460ff16611dc05760405162461bcd60e51b815260040161043590612dc8565b611dc86122e9565b610446612340565b60985460405163dc311dd360e01b81526004810184905260009182916001600160a01b039091169063dc311dd39060240160006040518083038186803b158015611e1957600080fd5b505afa158015611e2d573d6000803e3d6000fd5b505050506040513d6000823e601f3d908101601f19168201604052611e559190810190612b99565b50609c54609d549192509015611f9457600080611e758460000151612049565b90508115611f91576000620151808260400151611e929190612e13565b611e9e9061016d612e13565b609d5460985460a08801516040516374c1443960e01b81526001600160a01b0391821660048201526000602482018190526044820181905263ffffffff95909516955085939291909116906374c144399060640160206040518083038186803b158015611f0a57600080fd5b505afa158015611f1e573d6000803e3d6000fd5b505050506040513d601f19601f82011682018060405250810190611f429190612d4d565b611f4c919061294f565b611f56919061294f565b9050611f628185612d92565b609c54611f6f919061294f565b609c54611f7c919061296e565b9450609b54851015611f8e57609b5494505b50505b50505b609754604051630782fb5960e31b81526001600160a01b0388811660048301526000921690633c17dac89060240160006040518083038186803b158015611fda57600080fd5b505afa158015611fee573d6000803e3d6000fd5b505050506040513d6000823e601f3d908101601f191682016040526120169190810190612e36565b805190915087906001600160a01b03161561202f575080515b61203c848a838987612373565b9998505050505050505050565b6040805161012081018252600080825260208201819052918101829052606081018290526080810182905260a0810182905260c0810182905260e0810182905261010081019190915250604080516101208101825260a083811c8252608084811c63ffffffff908116602080860191909152606087811c8316868801529587901c8216958501959095529385901c90931692820192909252601083901c61ffff1691810191909152600882901c60ff1660c082015260f89190911b600160f81b8181161460e0830152600160f91b9081161461010082015290565b6040805161010081018252600080825260208201819052918101829052606081018290526080810182905260a0810182905260c0810182905260e0810191909152604080516101008101825260a084811c825263ffffffff608086811c8216602080860191909152606088811c8416868801529588901c8316958501959095529386901c169282019290925261ffff601085901c169181019190915260f083901b9060c0810160ff851660028111156121df576121df612880565b60028111156121f0576121f0612880565b8152600160f81b92831690921460209092019190915292915050565b600060018260c00151600281111561222657612226612880565b1415612234575060016103be565b60028260c00151600281111561224c5761224c612880565b14156122df5760975460405163cd1402e760e01b81526001600160a01b038681166004830152602482018690529091169063cd1402e790604401602060405180830381600087803b1580156122a057600080fd5b505af11580156122b4573d6000803e3d6000fd5b505050506040513d601f19601f820116820180604052508101906122d89190612ed6565b90506103be565b5060009392505050565b600054610100900460ff166104465760405162461bcd60e51b815260040161043590612dc8565b600054610100900460ff166123375760405162461bcd60e51b815260040161043590612dc8565b61044633611c88565b600054610100900460ff166123675760405162461bcd60e51b815260040161043590612dc8565b6065805460ff19169055565b600080612710612383848661294f565b61238d9190612d92565b9050609a5481101561239e5750609a545b6020870151156124f45760006123ea886020015160408051808201909152600080825260208201525060408051808201909152606082901c815260509190911c61ffff16602082015290565b90506000612710826020015161ffff1687612405919061294f565b61240f9190612d92565b905061241b818461299b565b861161245a5760405162461bcd60e51b815260206004820152600e60248201526d2156414c55455f544f4f5f4c4f5760901b6044820152606401610435565b60995482516040516379b2125f60e01b81526001600160a01b038b811660048301528a81166024830152604482018a905260648201879052918216608482015260a481018490529116906379b2125f9060c401600060405180830381600087803b1580156124c757600080fd5b505af19250505080156124d8575060015b6124e857600093505050506125b6565b600193505050506125b6565b8084116125345760405162461bcd60e51b815260206004820152600e60248201526d2156414c55455f544f4f5f4c4f5760901b6044820152606401610435565b60995460405163fcd6a25b60e01b81526001600160a01b038881166004830152878116602483015260448201879052606482018490529091169063fcd6a25b90608401600060405180830381600087803b15801561259157600080fd5b505af19250505080156125a2575060015b6125b05760009150506125b6565b60019150505b95945050505050565b60038110610f3557600080fd5b63ffffffff81168114610f3557600080fd5b6000806000606084860312156125f357600080fd5b83356125fe816125bf565b9250602084013561260e816125cc565b929592945050506040919091013590565b60006020828403121561263157600080fd5b81356103be816125bf565b6000806020838503121561264f57600080fd5b823567ffffffffffffffff8082111561266757600080fd5b818501915085601f83011261267b57600080fd5b81358181111561268a57600080fd5b86602082850101111561269c57600080fd5b60209290920196919550909350505050565b60005b838110156126c95781810151838201526020016126b1565b83811115610e9e5750506000910152565b821515815260406020820152600082518060408401526127018160608501602087016126ae565b601f01601f1916919091016060019392505050565b6000806040838503121561272957600080fd5b8235612734816125bf565b91506020830135612744816125cc565b809150509250929050565b6001600160a01b0381168114610f3557600080fd5b60008060006060848603121561277957600080fd5b83356127848161274f565b925060208401356127948161274f565b915060408401356127a48161274f565b809150509250925092565b600080600080608085870312156127c557600080fd5b84356127d08161274f565b935060208501356127e08161274f565b93969395505050506040820135916060013590565b60006020828403121561280757600080fd5b5035919050565b60008060008060008060c0878903121561282757600080fd5b863595506020870135945060408701359350606087013592506080870135915060a0870135612855816125cc565b809150509295509295509295565b60006020828403121561287557600080fd5b81356103be8161274f565b634e487b7160e01b600052602160045260246000fd5b634e487b7160e01b600052603260045260246000fd5b6020808252818101527f4f776e61626c653a2063616c6c6572206973206e6f7420746865206f776e6572604082015260600190565b60208082526010908201526f14185d5cd8589b194e881c185d5cd95960821b604082015260600190565b60008060006060848603121561292057600080fd5b833592506020840135915060408401356127a4816125bf565b634e487b7160e01b600052601160045260246000fd5b600081600019048311821515161561296957612969612939565b500290565b60008282101561298057612980612939565b500390565b634e487b7160e01b600052603160045260246000fd5b600082198211156129ae576129ae612939565b500190565b600063ffffffff8083168185168083038211156129d2576129d2612939565b01949350505050565b600381106129eb576129eb612880565b9052565b868152602081018690526040810185905260c08101612a1160608301866129db565b83608083015263ffffffff831660a0830152979650505050505050565b600063ffffffff83811690831681811015612a4b57612a4b612939565b039392505050565b8381526020810183905260608101610f0160408301846129db565b634e487b7160e01b600052601260045260246000fd5b600063ffffffff80841680612a9b57612a9b612a6e565b92169190910692915050565b634e487b7160e01b600052604160045260246000fd5b6040516101c0810167ffffffffffffffff81118282101715612ae157612ae1612aa7565b60405290565b8051612af28161274f565b919050565b805160078110612af257600080fd5b8051612af2816125cc565b600082601f830112612b2257600080fd5b815167ffffffffffffffff80821115612b3d57612b3d612aa7565b604051601f8301601f19908116603f01168101908282118183101715612b6557612b65612aa7565b81604052838152866020858801011115612b7e57600080fd5b612b8f8460208301602089016126ae565b9695505050505050565b60008060408385031215612bac57600080fd5b825167ffffffffffffffff80821115612bc457600080fd5b908401906101c08287031215612bd957600080fd5b612be1612abd565b8251815260208301516020820152604083015160408201526060830151606082015260808301516080820152612c1960a08401612ae7565b60a0820152612c2a60c08401612af7565b60c0820152612c3b60e08401612b06565b60e0820152610100612c4e818501612b06565b90820152610120612c60848201612b06565b90820152610140612c72848201612b06565b90820152610160612c84848201612b06565b908201526101808381015183811115612c9c57600080fd5b612ca889828701612b11565b8284015250506101a08084015183811115612cc257600080fd5b612cce89828701612b11565b828401525050809450505050612ce660208401612ae7565b90509250929050565b8281526040810160078310612d0657612d06612880565b8260208301529392505050565b600060208284031215612d2557600080fd5b81516103be816125bf565b600060208284031215612d4257600080fd5b81516103be816125cc565b600060208284031215612d5f57600080fd5b5051919050565b600063ffffffff80831681851681830481118215151615612d8957612d89612939565b02949350505050565b600082612da157612da1612a6e565b500490565b600062ffffff80831681851681830481118215151615612d8957612d89612939565b6020808252602b908201527f496e697469616c697a61626c653a20636f6e7472616374206973206e6f74206960408201526a6e697469616c697a696e6760a81b606082015260800190565b600063ffffffff80841680612e2a57612e2a612a6e565b92169190910492915050565b600060208284031215612e4857600080fd5b815167ffffffffffffffff80821115612e6057600080fd5b9083019060608286031215612e7457600080fd5b604051606081018181108382111715612e8f57612e8f612aa7565b6040528251612e9d8161274f565b815260208381015190820152604083015182811115612ebb57600080fd5b612ec787828601612b11565b60408301525095945050505050565b600060208284031215612ee857600080fd5b815180151581146103be57600080fdfea264697066735822122094400042d1d182dc44fd27c84e0770dbde8c04fb88229816674b08708fd44b6c64736f6c63430008090033",
  "devdoc": {
    "kind": "dev",
    "methods": {
      "checkUpkeep(bytes)": {
        "details": "To ensure that it is never called, you may want to add the cannotExecute modifier from KeeperBase to your implementation of this method.",
        "params": {
          "checkData": "specified in the upkeep registration so it is always the same for a registered upkeep. This can easilly be broken down into specific arguments using `abi.decode`, so multiple upkeeps can be registered on the same contract and easily differentiated by the contract."
        },
        "returns": {
          "performData": "bytes that the keeper should call performUpkeep with, if upkeep is needed. If you would like to encode data to decode later, try `abi.encode`.",
          "upkeepNeeded": "boolean to indicate whether the keeper should call performUpkeep or not."
        }
      },
      "constructor": {
        "custom:oz-upgrades-unsafe-allow": "constructor"
      },
      "owner()": {
        "details": "Returns the address of the current owner."
      },
      "paused()": {
        "details": "Returns true if the contract is paused, and false otherwise."
      },
      "performUpkeep(bytes)": {
        "details": "The input to this method should not be trusted, and the caller of the method should not even be restricted to any single registry. Anyone should be able call it, and the input should be validated, there is no guarantee that the data passed in is the performData returned from checkUpkeep. This could happen due to malicious keepers, racing keepers, or simply a state change while the performUpkeep transaction is waiting for confirmation. Always validate the data passed in.",
        "params": {
          "performData": "is the data which was passed back from the checkData simulation. If it is encoded, it can easily be decoded into other types by calling `abi.decode`. This data should not be trusted, and should be validated against the contract's current state."
        }
      },
      "renounceOwnership()": {
        "details": "Leaves the contract without owner. It will not be possible to call `onlyOwner` functions anymore. Can only be called by the current owner. NOTE: Renouncing ownership will leave the contract without an owner, thereby removing any functionality that is only available to the owner."
      },
      "transferOwnership(address)": {
        "details": "Transfers ownership of the contract to a new account (`newOwner`). Can only be called by the current owner."
      }
    },
    "stateVariables": {
      "paymentFeeMin": {
        "details": "minimum total fee to charge, if rate fees do not add up to this amount "
      },
      "paymentFeeRateMin": {
        "details": "min and max percentage to charge on payments, in bps. 50% = 5000. "
      },
      "paymentMinValue": {
        "details": "min value for a payment. "
      },
      "processBucketSize": {
        "details": "size (in seconds) of buckets to group subscriptions into for processing "
      },
      "processQueue": {
        "details": "map used to track when subscriptions need attention next "
      },
      "stakeTargetFactor": {
        "details": "factor used to reduce payment fee based on qty of staked CASK "
      },
      "subscriptionPlans": {
        "details": "contract to manage subscription plan definitions. "
      },
      "vault": {
        "details": "vault to use for payments. "
      }
    },
    "version": 1
  },
  "userdoc": {
    "kind": "user",
    "methods": {
      "checkUpkeep(bytes)": {
        "notice": "method that is simulated by the keepers to see if any work actually needs to be performed. This method does does not actually need to be executable, and since it is only ever simulated it can consume lots of gas."
      },
      "performUpkeep(bytes)": {
        "notice": "method that is actually executed by the keepers, via the registry. The data returned by the checkUpkeep simulation will be passed into this method to actually be executed."
      }
    },
    "version": 1
  },
  "storageLayout": {
    "storage": [
      {
        "astId": 327,
        "contract": "contracts/protocol/CaskSubscriptionManager.sol:CaskSubscriptionManager",
        "label": "_initialized",
        "offset": 0,
        "slot": "0",
        "type": "t_bool"
      },
      {
        "astId": 330,
        "contract": "contracts/protocol/CaskSubscriptionManager.sol:CaskSubscriptionManager",
        "label": "_initializing",
        "offset": 1,
        "slot": "0",
        "type": "t_bool"
      },
      {
        "astId": 2551,
        "contract": "contracts/protocol/CaskSubscriptionManager.sol:CaskSubscriptionManager",
        "label": "__gap",
        "offset": 0,
        "slot": "1",
        "type": "t_array(t_uint256)50_storage"
      },
      {
        "astId": 205,
        "contract": "contracts/protocol/CaskSubscriptionManager.sol:CaskSubscriptionManager",
        "label": "_owner",
        "offset": 0,
        "slot": "51",
        "type": "t_address"
      },
      {
        "astId": 319,
        "contract": "contracts/protocol/CaskSubscriptionManager.sol:CaskSubscriptionManager",
        "label": "__gap",
        "offset": 0,
        "slot": "52",
        "type": "t_array(t_uint256)49_storage"
      },
      {
        "astId": 415,
        "contract": "contracts/protocol/CaskSubscriptionManager.sol:CaskSubscriptionManager",
        "label": "_paused",
        "offset": 0,
        "slot": "101",
        "type": "t_bool"
      },
      {
        "astId": 506,
        "contract": "contracts/protocol/CaskSubscriptionManager.sol:CaskSubscriptionManager",
        "label": "__gap",
        "offset": 0,
        "slot": "102",
        "type": "t_array(t_uint256)49_storage"
      },
      {
        "astId": 10948,
        "contract": "contracts/protocol/CaskSubscriptionManager.sol:CaskSubscriptionManager",
        "label": "subscriptionPlans",
        "offset": 0,
        "slot": "151",
        "type": "t_contract(ICaskSubscriptionPlans)9923"
      },
      {
        "astId": 10951,
        "contract": "contracts/protocol/CaskSubscriptionManager.sol:CaskSubscriptionManager",
        "label": "subscriptions",
        "offset": 0,
        "slot": "152",
        "type": "t_contract(ICaskSubscriptions)10299"
      },
      {
        "astId": 10955,
        "contract": "contracts/protocol/CaskSubscriptionManager.sol:CaskSubscriptionManager",
        "label": "vault",
        "offset": 0,
        "slot": "153",
        "type": "t_contract(ICaskVault)10616"
      },
      {
        "astId": 10958,
        "contract": "contracts/protocol/CaskSubscriptionManager.sol:CaskSubscriptionManager",
        "label": "paymentFeeMin",
        "offset": 0,
        "slot": "154",
        "type": "t_uint256"
      },
      {
        "astId": 10961,
        "contract": "contracts/protocol/CaskSubscriptionManager.sol:CaskSubscriptionManager",
        "label": "paymentFeeRateMin",
        "offset": 0,
        "slot": "155",
        "type": "t_uint256"
      },
      {
        "astId": 10963,
        "contract": "contracts/protocol/CaskSubscriptionManager.sol:CaskSubscriptionManager",
        "label": "paymentFeeRateMax",
        "offset": 0,
        "slot": "156",
        "type": "t_uint256"
      },
      {
        "astId": 10966,
        "contract": "contracts/protocol/CaskSubscriptionManager.sol:CaskSubscriptionManager",
        "label": "stakeTargetFactor",
        "offset": 0,
        "slot": "157",
        "type": "t_uint256"
      },
      {
        "astId": 10969,
        "contract": "contracts/protocol/CaskSubscriptionManager.sol:CaskSubscriptionManager",
        "label": "processBucketSize",
        "offset": 0,
        "slot": "158",
        "type": "t_uint32"
      },
      {
        "astId": 10978,
        "contract": "contracts/protocol/CaskSubscriptionManager.sol:CaskSubscriptionManager",
        "label": "processQueue",
        "offset": 0,
        "slot": "159",
        "type": "t_mapping(t_enum(CheckType)9672,t_mapping(t_uint32,t_array(t_uint256)dyn_storage))"
      },
      {
        "astId": 10983,
        "contract": "contracts/protocol/CaskSubscriptionManager.sol:CaskSubscriptionManager",
        "label": "processingBucket",
        "offset": 0,
        "slot": "160",
        "type": "t_mapping(t_enum(CheckType)9672,t_uint32)"
      },
      {
        "astId": 10986,
        "contract": "contracts/protocol/CaskSubscriptionManager.sol:CaskSubscriptionManager",
        "label": "paymentMinValue",
        "offset": 0,
        "slot": "161",
        "type": "t_uint256"
      }
    ],
    "types": {
      "t_address": {
        "encoding": "inplace",
        "label": "address",
        "numberOfBytes": "20"
      },
      "t_array(t_uint256)49_storage": {
        "base": "t_uint256",
        "encoding": "inplace",
        "label": "uint256[49]",
        "numberOfBytes": "1568"
      },
      "t_array(t_uint256)50_storage": {
        "base": "t_uint256",
        "encoding": "inplace",
        "label": "uint256[50]",
        "numberOfBytes": "1600"
      },
      "t_array(t_uint256)dyn_storage": {
        "base": "t_uint256",
        "encoding": "dynamic_array",
        "label": "uint256[]",
        "numberOfBytes": "32"
      },
      "t_bool": {
        "encoding": "inplace",
        "label": "bool",
        "numberOfBytes": "1"
      },
      "t_contract(ICaskSubscriptionPlans)9923": {
        "encoding": "inplace",
        "label": "contract ICaskSubscriptionPlans",
        "numberOfBytes": "20"
      },
      "t_contract(ICaskSubscriptions)10299": {
        "encoding": "inplace",
        "label": "contract ICaskSubscriptions",
        "numberOfBytes": "20"
      },
      "t_contract(ICaskVault)10616": {
        "encoding": "inplace",
        "label": "contract ICaskVault",
        "numberOfBytes": "20"
      },
      "t_enum(CheckType)9672": {
        "encoding": "inplace",
        "label": "enum ICaskSubscriptionManager.CheckType",
        "numberOfBytes": "1"
      },
      "t_mapping(t_enum(CheckType)9672,t_mapping(t_uint32,t_array(t_uint256)dyn_storage))": {
        "encoding": "mapping",
        "key": "t_enum(CheckType)9672",
        "label": "mapping(enum ICaskSubscriptionManager.CheckType => mapping(uint32 => uint256[]))",
        "numberOfBytes": "32",
        "value": "t_mapping(t_uint32,t_array(t_uint256)dyn_storage)"
      },
      "t_mapping(t_enum(CheckType)9672,t_uint32)": {
        "encoding": "mapping",
        "key": "t_enum(CheckType)9672",
        "label": "mapping(enum ICaskSubscriptionManager.CheckType => uint32)",
        "numberOfBytes": "32",
        "value": "t_uint32"
      },
      "t_mapping(t_uint32,t_array(t_uint256)dyn_storage)": {
        "encoding": "mapping",
        "key": "t_uint32",
        "label": "mapping(uint32 => uint256[])",
        "numberOfBytes": "32",
        "value": "t_array(t_uint256)dyn_storage"
      },
      "t_uint256": {
        "encoding": "inplace",
        "label": "uint256",
        "numberOfBytes": "32"
      },
      "t_uint32": {
        "encoding": "inplace",
        "label": "uint32",
        "numberOfBytes": "4"
      }
    }
  }
}