{
  "address": "0x69b6D4E6e075a6E4D79F8c07C131944Da9754489",
  "abi": [
    {
      "inputs": [],
      "stateMutability": "nonpayable",
      "type": "constructor"
    },
    {
      "anonymous": false,
      "inputs": [
        {
          "indexed": true,
          "internalType": "address",
          "name": "previousOwner",
          "type": "address"
        },
        {
          "indexed": true,
          "internalType": "address",
          "name": "newOwner",
          "type": "address"
        }
      ],
      "name": "OwnershipTransferred",
      "type": "event"
    },
    {
      "anonymous": false,
      "inputs": [
        {
          "indexed": false,
          "internalType": "address",
          "name": "account",
          "type": "address"
        }
      ],
      "name": "Paused",
      "type": "event"
    },
    {
      "anonymous": false,
      "inputs": [
        {
          "indexed": true,
          "internalType": "address",
          "name": "_strategy",
          "type": "address"
        }
      ],
      "name": "StrategyAdded",
      "type": "event"
    },
    {
      "anonymous": false,
      "inputs": [
        {
          "indexed": true,
          "internalType": "address",
          "name": "_strategy",
          "type": "address"
        }
      ],
      "name": "StrategyRemoved",
      "type": "event"
    },
    {
      "anonymous": false,
      "inputs": [
        {
          "indexed": false,
          "internalType": "address",
          "name": "account",
          "type": "address"
        }
      ],
      "name": "Unpaused",
      "type": "event"
    },
    {
      "inputs": [
        {
          "internalType": "address",
          "name": "_strategy",
          "type": "address"
        }
      ],
      "name": "addStrategy",
      "outputs": [],
      "stateMutability": "nonpayable",
      "type": "function"
    },
    {
      "inputs": [
        {
          "internalType": "address",
          "name": "_asset",
          "type": "address"
        }
      ],
      "name": "assetBalanceManaged",
      "outputs": [
        {
          "internalType": "uint256",
          "name": "",
          "type": "uint256"
        }
      ],
      "stateMutability": "view",
      "type": "function"
    },
    {
      "inputs": [],
      "name": "getAllStrategies",
      "outputs": [
        {
          "internalType": "address[]",
          "name": "",
          "type": "address[]"
        }
      ],
      "stateMutability": "view",
      "type": "function"
    },
    {
      "inputs": [
        {
          "internalType": "uint256",
          "name": "_strategyAllocationRate",
          "type": "uint256"
        },
        {
          "internalType": "uint256",
          "name": "_yieldFeeBps",
          "type": "uint256"
        }
      ],
      "name": "initialize",
      "outputs": [],
      "stateMutability": "nonpayable",
      "type": "function"
    },
    {
      "inputs": [],
      "name": "owner",
      "outputs": [
        {
          "internalType": "address",
          "name": "",
          "type": "address"
        }
      ],
      "stateMutability": "view",
      "type": "function"
    },
    {
      "inputs": [],
      "name": "pause",
      "outputs": [],
      "stateMutability": "nonpayable",
      "type": "function"
    },
    {
      "inputs": [],
      "name": "paused",
      "outputs": [
        {
          "internalType": "bool",
          "name": "",
          "type": "bool"
        }
      ],
      "stateMutability": "view",
      "type": "function"
    },
    {
      "inputs": [
        {
          "internalType": "address",
          "name": "_strategy",
          "type": "address"
        }
      ],
      "name": "removeStrategy",
      "outputs": [],
      "stateMutability": "nonpayable",
      "type": "function"
    },
    {
      "inputs": [],
      "name": "renounceOwnership",
      "outputs": [],
      "stateMutability": "nonpayable",
      "type": "function"
    },
    {
      "inputs": [
        {
          "internalType": "uint256",
          "name": "_yieldFeeBps",
          "type": "uint256"
        },
        {
          "internalType": "uint256",
          "name": "_strategyAllocationRate",
          "type": "uint256"
        }
      ],
      "name": "setParameters",
      "outputs": [],
      "stateMutability": "nonpayable",
      "type": "function"
    },
    {
      "inputs": [
        {
          "internalType": "address",
          "name": "_strategist",
          "type": "address"
        }
      ],
      "name": "setStrategist",
      "outputs": [],
      "stateMutability": "nonpayable",
      "type": "function"
    },
    {
      "inputs": [
        {
          "internalType": "address",
          "name": "_vault",
          "type": "address"
        }
      ],
      "name": "setVault",
      "outputs": [],
      "stateMutability": "nonpayable",
      "type": "function"
    },
    {
      "inputs": [],
      "name": "strategist",
      "outputs": [
        {
          "internalType": "address",
          "name": "",
          "type": "address"
        }
      ],
      "stateMutability": "view",
      "type": "function"
    },
    {
      "inputs": [],
      "name": "strategyAllocationRate",
      "outputs": [
        {
          "internalType": "uint256",
          "name": "",
          "type": "uint256"
        }
      ],
      "stateMutability": "view",
      "type": "function"
    },
    {
      "inputs": [],
      "name": "totalValueInStrategies",
      "outputs": [
        {
          "internalType": "uint256",
          "name": "",
          "type": "uint256"
        }
      ],
      "stateMutability": "view",
      "type": "function"
    },
    {
      "inputs": [
        {
          "internalType": "address",
          "name": "_strategy",
          "type": "address"
        }
      ],
      "name": "totalValueInStrategy",
      "outputs": [
        {
          "internalType": "uint256",
          "name": "",
          "type": "uint256"
        }
      ],
      "stateMutability": "view",
      "type": "function"
    },
    {
      "inputs": [
        {
          "internalType": "address",
          "name": "newOwner",
          "type": "address"
        }
      ],
      "name": "transferOwnership",
      "outputs": [],
      "stateMutability": "nonpayable",
      "type": "function"
    },
    {
      "inputs": [],
      "name": "unpause",
      "outputs": [],
      "stateMutability": "nonpayable",
      "type": "function"
    },
    {
      "inputs": [],
      "name": "vault",
      "outputs": [
        {
          "internalType": "address",
          "name": "",
          "type": "address"
        }
      ],
      "stateMutability": "view",
      "type": "function"
    },
    {
      "inputs": [],
      "name": "yieldFeeBps",
      "outputs": [
        {
          "internalType": "uint256",
          "name": "",
          "type": "uint256"
        }
      ],
      "stateMutability": "view",
      "type": "function"
    }
  ],
  "transactionHash": "0xfd1dba8699ff1648e4b99749f4bf126743ef56341131ae3cbf4bf3aa0903e8ef",
  "args": [],
  "numDeployments": 1,
  "solcInputHash": "c276bc92099fcbb92367a1ba0ee8e6a6",
  "bytecode": "0x608060405234801561001057600080fd5b50600054610100900460ff1661002c5760005460ff1615610034565b6100346100d5565b61009b5760405162461bcd60e51b815260206004820152602e60248201527f496e697469616c697a61626c653a20636f6e747261637420697320616c72656160448201526d191e481a5b9a5d1a585b1a5e995960921b606482015260840160405180910390fd5b600054610100900460ff161580156100bd576000805461ffff19166101011790555b80156100cf576000805461ff00191690555b506100f6565b60006100ea306100f060201b610b681760201c565b15905090565b3b151590565b61103f806101056000396000f3fe608060405234801561001057600080fd5b506004361061012c5760003560e01c806375a323b2116100ad578063c7b9d53011610071578063c7b9d5301461023f578063da0c5f0414610252578063e4a3011614610265578063f2fde38b14610278578063fbfa77cf1461028b57600080fd5b806375a323b2146101f55780638456cb59146101fe578063884870c7146102065780638da5cb5b14610219578063c3b288641461022a57600080fd5b806359c1c142116100f457806359c1c142146101a75780635c975abb146101b057806362b1ad7f146101c65780636817031b146101da578063715018a6146101ed57600080fd5b8063175188e81461013157806317852264146101465780631fe4a68614610161578063223e54791461018c5780633f4ba83a1461019f575b600080fd5b61014461013f366004610e23565b61029e565b005b61014e6104e9565b6040519081526020015b60405180910390f35b60cc54610174906001600160a01b031681565b6040516001600160a01b039091168152602001610158565b61014461019a366004610e23565b61053b565b610144610643565b61014e60cb5481565b60655460ff166040519015158152602001610158565b61014e6101d4366004610e23565b50600090565b6101446101e8366004610e23565b610677565b6101446106c3565b61014e60ca5481565b6101446106f7565b610144610214366004610e53565b610729565b6033546001600160a01b0316610174565b61023261075e565b6040516101589190610e75565b61014461024d366004610e23565b6107c0565b61014e610260366004610e23565b61080c565b610144610273366004610e53565b6109de565b610144610286366004610e23565b610acd565b60c954610174906001600160a01b031681565b6033546001600160a01b031633146102d15760405162461bcd60e51b81526004016102c890610ec2565b60405180910390fd5b6001600160a01b038116600090815260cd602052604090205460ff166103255760405162461bcd60e51b8152602060048201526009602482015268085b9bdd199bdd5b9960ba1b60448201526064016102c8565b60ce5460005b60ce5481101561038757826001600160a01b031660ce828154811061035257610352610ef7565b6000918252602090912001546001600160a01b0316141561037557809150610387565b8061037f81610f23565b91505061032b565b5060ce548110156104e55760ce80546103a290600190610f3e565b815481106103b2576103b2610ef7565b60009182526020909120015460ce80546001600160a01b0390921691839081106103de576103de610ef7565b9060005260206000200160006101000a8154816001600160a01b0302191690836001600160a01b0316021790555060ce80548061041d5761041d610f55565b6001900381819060005260206000200160006101000a8154906001600160a01b03021916905590556000829050806001600160a01b031663853828b66040518163ffffffff1660e01b8152600401600060405180830381600087803b15801561048557600080fd5b505af1158015610499573d6000803e3d6000fd5b505050506001600160a01b038316600081815260cd6020526040808220805460ff19169055517f09a1db4b80c32706328728508c941a6b954f31eb5affd32f236c1fd405f8fea49190a2505b5050565b600080805b60ce548110156105355761051760ce828154811061050e5761050e610ef7565b50600090815290565b6105219083610f6b565b91508061052d81610f23565b9150506104ee565b50919050565b6033546001600160a01b031633146105655760405162461bcd60e51b81526004016102c890610ec2565b6001600160a01b038116600090815260cd602052604090205460ff16156105b75760405162461bcd60e51b815260206004820152600660248201526508585919195960d21b60448201526064016102c8565b6001600160a01b038116600081815260cd6020526040808220805460ff1916600190811790915560ce8054918201815583527fd36cd1c74ef8d7326d8021b776c18fb5a5724b7f7bc93c2f42e43e10ef27d12a0180546001600160a01b03191684179055517f3f008fd510eae7a9e7bee13513d7b83bef8003d488b5a3d0b0da4de71d6846f19190a250565b6033546001600160a01b0316331461066d5760405162461bcd60e51b81526004016102c890610ec2565b610675610b6e565b565b6033546001600160a01b031633146106a15760405162461bcd60e51b81526004016102c890610ec2565b60c980546001600160a01b0319166001600160a01b0392909216919091179055565b6033546001600160a01b031633146106ed5760405162461bcd60e51b81526004016102c890610ec2565b6106756000610c01565b6033546001600160a01b031633146107215760405162461bcd60e51b81526004016102c890610ec2565b610675610c53565b6033546001600160a01b031633146107535760405162461bcd60e51b81526004016102c890610ec2565b60cb9190915560ca55565b606060ce8054806020026020016040519081016040528092919081815260200182805480156107b657602002820191906000526020600020905b81546001600160a01b03168152600190910190602001808311610798575b5050505050905090565b6033546001600160a01b031633146107ea5760405162461bcd60e51b81526004016102c890610ec2565b60cc80546001600160a01b0319166001600160a01b0392909216919091179055565b6040516370a0823160e01b8152306004820152600090819083906001600160a01b038216906370a082319060240160206040518083038186803b15801561085257600080fd5b505afa158015610866573d6000803e3d6000fd5b505050506040513d601f19601f8201168201806040525081019061088a9190610f83565b915060005b60ce548110156109d557600060ce82815481106108ae576108ae610ef7565b60009182526020909120015460405163551c457b60e11b81526001600160a01b0388811660048301529091169150819063aa388af69060240160206040518083038186803b1580156108ff57600080fd5b505afa158015610913573d6000803e3d6000fd5b505050506040513d601f19601f820116820180604052508101906109379190610f9c565b156109c2576040516319b11cab60e31b81526001600160a01b03878116600483015282169063cd88e5589060240160206040518083038186803b15801561097d57600080fd5b505afa158015610991573d6000803e3d6000fd5b505050506040513d601f19601f820116820180604052508101906109b59190610f83565b6109bf9085610f6b565b93505b50806109cd81610f23565b91505061088f565b50909392505050565b600054610100900460ff166109f95760005460ff16156109fd565b303b155b610a605760405162461bcd60e51b815260206004820152602e60248201527f496e697469616c697a61626c653a20636f6e747261637420697320616c72656160448201526d191e481a5b9a5d1a585b1a5e995960921b60648201526084016102c8565b600054610100900460ff16158015610a82576000805461ffff19166101011790555b610a8a610cce565b610a92610d05565b610a9a610d3c565b60cc80546001600160a01b0319163317905560ca83905560cb8290558015610ac8576000805461ff00191690555b505050565b6033546001600160a01b03163314610af75760405162461bcd60e51b81526004016102c890610ec2565b6001600160a01b038116610b5c5760405162461bcd60e51b815260206004820152602660248201527f4f776e61626c653a206e6577206f776e657220697320746865207a65726f206160448201526564647265737360d01b60648201526084016102c8565b610b6581610c01565b50565b3b151590565b60655460ff16610bb75760405162461bcd60e51b815260206004820152601460248201527314185d5cd8589b194e881b9bdd081c185d5cd95960621b60448201526064016102c8565b6065805460ff191690557f5db9ee0a495bf2e6ff9c91a7834c1ba4fdd244a5e8aa4e537bd38aeae4b073aa335b6040516001600160a01b03909116815260200160405180910390a1565b603380546001600160a01b038381166001600160a01b0319831681179093556040519116919082907f8be0079c531659141344cd1fd0a4f28419497f9722a3daafe3b4186f6b6457e090600090a35050565b60655460ff1615610c995760405162461bcd60e51b815260206004820152601060248201526f14185d5cd8589b194e881c185d5cd95960821b60448201526064016102c8565b6065805460ff191660011790557f62e78cea01bee320cd4e420270b5ea74000d11b0c9f74754ebdbfc544b05a258610be43390565b600054610100900460ff16610cf55760405162461bcd60e51b81526004016102c890610fbe565b610cfd610d6b565b610675610d92565b600054610100900460ff16610d2c5760405162461bcd60e51b81526004016102c890610fbe565b610d34610d6b565b610675610dc2565b600054610100900460ff16610d635760405162461bcd60e51b81526004016102c890610fbe565b610675610df5565b600054610100900460ff166106755760405162461bcd60e51b81526004016102c890610fbe565b600054610100900460ff16610db95760405162461bcd60e51b81526004016102c890610fbe565b61067533610c01565b600054610100900460ff16610de95760405162461bcd60e51b81526004016102c890610fbe565b6065805460ff19169055565b600054610100900460ff16610e1c5760405162461bcd60e51b81526004016102c890610fbe565b6001609755565b600060208284031215610e3557600080fd5b81356001600160a01b0381168114610e4c57600080fd5b9392505050565b60008060408385031215610e6657600080fd5b50508035926020909101359150565b6020808252825182820181905260009190848201906040850190845b81811015610eb65783516001600160a01b031683529284019291840191600101610e91565b50909695505050505050565b6020808252818101527f4f776e61626c653a2063616c6c6572206973206e6f7420746865206f776e6572604082015260600190565b634e487b7160e01b600052603260045260246000fd5b634e487b7160e01b600052601160045260246000fd5b6000600019821415610f3757610f37610f0d565b5060010190565b600082821015610f5057610f50610f0d565b500390565b634e487b7160e01b600052603160045260246000fd5b60008219821115610f7e57610f7e610f0d565b500190565b600060208284031215610f9557600080fd5b5051919050565b600060208284031215610fae57600080fd5b81518015158114610e4c57600080fd5b6020808252602b908201527f496e697469616c697a61626c653a20636f6e7472616374206973206e6f74206960408201526a6e697469616c697a696e6760a81b60608201526080019056fea2646970667358221220d61922fc154e6cda33a60706b4fbea188dde2f46cd228fcf37f634da1fd223b464736f6c63430008090033",
  "devdoc": {
    "events": {
      "StrategyAdded(address)": {
        "details": "Emitted when `_strategy` is added "
      },
      "StrategyRemoved(address)": {
        "details": "Emitted when `_strategy` is removed "
      }
    },
    "kind": "dev",
    "methods": {
      "assetBalanceManaged(address)": {
        "details": "total value of `_asset` under management",
        "params": {
          "_asset": "Asset address"
        },
        "returns": {
          "_0": "uint256 Balance of asset from all strategies"
        }
      },
      "constructor": {
        "custom:oz-upgrades-unsafe-allow": "constructor"
      },
      "owner()": {
        "details": "Returns the address of the current owner."
      },
      "paused()": {
        "details": "Returns true if the contract is paused, and false otherwise."
      },
      "renounceOwnership()": {
        "details": "Leaves the contract without owner. It will not be possible to call `onlyOwner` functions anymore. Can only be called by the current owner. NOTE: Renouncing ownership will leave the contract without an owner, thereby removing any functionality that is only available to the owner."
      },
      "totalValueInStrategies()": {
        "details": "Get total value of all assets held in all strategies.",
        "returns": {
          "_0": "value Total value in all strategies denominated in baseAsset"
        }
      },
      "totalValueInStrategy(address)": {
        "details": "Get total value of all assets held by strategy.",
        "params": {
          "_strategy": "Address of the strategy"
        },
        "returns": {
          "_0": "value Total value in of all assets in strategy denominated in baseAsset"
        }
      },
      "transferOwnership(address)": {
        "details": "Transfers ownership of the contract to a new account (`newOwner`). Can only be called by the current owner."
      }
    },
    "stateVariables": {
      "strategist": {
        "details": "strategist who manages the strategies. "
      },
      "strategyAllocationRate": {
        "details": "percentage to allocate to strategies in 18 decimals. 100% = 1e18. "
      },
      "vault": {
        "details": "vault being managed. "
      },
      "yieldFeeBps": {
        "details": "yield fee basis points. 2% = 200. "
      }
    },
    "version": 1
  },
  "userdoc": {
    "kind": "user",
    "methods": {},
    "notice": "CaskVaultOperator is where: - the list of strategies lives - allocation plans across strategies lives - strategy rebalancing happen, when needed - strategy harvesting happens - yield and performance fees are collected and managed",
    "version": 1
  },
  "storageLayout": {
    "storage": [
      {
        "astId": 327,
        "contract": "contracts/vault/CaskVaultManager.sol:CaskVaultManager",
        "label": "_initialized",
        "offset": 0,
        "slot": "0",
        "type": "t_bool"
      },
      {
        "astId": 330,
        "contract": "contracts/vault/CaskVaultManager.sol:CaskVaultManager",
        "label": "_initializing",
        "offset": 1,
        "slot": "0",
        "type": "t_bool"
      },
      {
        "astId": 2551,
        "contract": "contracts/vault/CaskVaultManager.sol:CaskVaultManager",
        "label": "__gap",
        "offset": 0,
        "slot": "1",
        "type": "t_array(t_uint256)50_storage"
      },
      {
        "astId": 205,
        "contract": "contracts/vault/CaskVaultManager.sol:CaskVaultManager",
        "label": "_owner",
        "offset": 0,
        "slot": "51",
        "type": "t_address"
      },
      {
        "astId": 319,
        "contract": "contracts/vault/CaskVaultManager.sol:CaskVaultManager",
        "label": "__gap",
        "offset": 0,
        "slot": "52",
        "type": "t_array(t_uint256)49_storage"
      },
      {
        "astId": 415,
        "contract": "contracts/vault/CaskVaultManager.sol:CaskVaultManager",
        "label": "_paused",
        "offset": 0,
        "slot": "101",
        "type": "t_bool"
      },
      {
        "astId": 506,
        "contract": "contracts/vault/CaskVaultManager.sol:CaskVaultManager",
        "label": "__gap",
        "offset": 0,
        "slot": "102",
        "type": "t_array(t_uint256)49_storage"
      },
      {
        "astId": 521,
        "contract": "contracts/vault/CaskVaultManager.sol:CaskVaultManager",
        "label": "_status",
        "offset": 0,
        "slot": "151",
        "type": "t_uint256"
      },
      {
        "astId": 564,
        "contract": "contracts/vault/CaskVaultManager.sol:CaskVaultManager",
        "label": "__gap",
        "offset": 0,
        "slot": "152",
        "type": "t_array(t_uint256)49_storage"
      },
      {
        "astId": 15201,
        "contract": "contracts/vault/CaskVaultManager.sol:CaskVaultManager",
        "label": "vault",
        "offset": 0,
        "slot": "201",
        "type": "t_address"
      },
      {
        "astId": 15204,
        "contract": "contracts/vault/CaskVaultManager.sol:CaskVaultManager",
        "label": "strategyAllocationRate",
        "offset": 0,
        "slot": "202",
        "type": "t_uint256"
      },
      {
        "astId": 15207,
        "contract": "contracts/vault/CaskVaultManager.sol:CaskVaultManager",
        "label": "yieldFeeBps",
        "offset": 0,
        "slot": "203",
        "type": "t_uint256"
      },
      {
        "astId": 15210,
        "contract": "contracts/vault/CaskVaultManager.sol:CaskVaultManager",
        "label": "strategist",
        "offset": 0,
        "slot": "204",
        "type": "t_address"
      },
      {
        "astId": 15214,
        "contract": "contracts/vault/CaskVaultManager.sol:CaskVaultManager",
        "label": "strategies",
        "offset": 0,
        "slot": "205",
        "type": "t_mapping(t_address,t_bool)"
      },
      {
        "astId": 15217,
        "contract": "contracts/vault/CaskVaultManager.sol:CaskVaultManager",
        "label": "allStrategies",
        "offset": 0,
        "slot": "206",
        "type": "t_array(t_address)dyn_storage"
      }
    ],
    "types": {
      "t_address": {
        "encoding": "inplace",
        "label": "address",
        "numberOfBytes": "20"
      },
      "t_array(t_address)dyn_storage": {
        "base": "t_address",
        "encoding": "dynamic_array",
        "label": "address[]",
        "numberOfBytes": "32"
      },
      "t_array(t_uint256)49_storage": {
        "base": "t_uint256",
        "encoding": "inplace",
        "label": "uint256[49]",
        "numberOfBytes": "1568"
      },
      "t_array(t_uint256)50_storage": {
        "base": "t_uint256",
        "encoding": "inplace",
        "label": "uint256[50]",
        "numberOfBytes": "1600"
      },
      "t_bool": {
        "encoding": "inplace",
        "label": "bool",
        "numberOfBytes": "1"
      },
      "t_mapping(t_address,t_bool)": {
        "encoding": "mapping",
        "key": "t_address",
        "label": "mapping(address => bool)",
        "numberOfBytes": "32",
        "value": "t_bool"
      },
      "t_uint256": {
        "encoding": "inplace",
        "label": "uint256",
        "numberOfBytes": "32"
      }
    }
  }
}