{
  "address": "0x97Ef63CA0520012949B160f2f8393C96Da9477fB",
  "abi": [
    {
      "inputs": [],
      "stateMutability": "nonpayable",
      "type": "constructor"
    },
    {
      "anonymous": false,
      "inputs": [
        {
          "indexed": true,
          "internalType": "address",
          "name": "previousOwner",
          "type": "address"
        },
        {
          "indexed": true,
          "internalType": "address",
          "name": "newOwner",
          "type": "address"
        }
      ],
      "name": "OwnershipTransferred",
      "type": "event"
    },
    {
      "anonymous": false,
      "inputs": [
        {
          "indexed": true,
          "internalType": "bytes32",
          "name": "p2pId",
          "type": "bytes32"
        },
        {
          "indexed": true,
          "internalType": "address",
          "name": "user",
          "type": "address"
        }
      ],
      "name": "P2PCanceled",
      "type": "event"
    },
    {
      "anonymous": false,
      "inputs": [
        {
          "indexed": true,
          "internalType": "bytes32",
          "name": "p2pId",
          "type": "bytes32"
        },
        {
          "indexed": true,
          "internalType": "address",
          "name": "user",
          "type": "address"
        }
      ],
      "name": "P2PCompleted",
      "type": "event"
    },
    {
      "anonymous": false,
      "inputs": [
        {
          "indexed": true,
          "internalType": "bytes32",
          "name": "p2pId",
          "type": "bytes32"
        },
        {
          "indexed": true,
          "internalType": "address",
          "name": "user",
          "type": "address"
        },
        {
          "indexed": true,
          "internalType": "address",
          "name": "to",
          "type": "address"
        },
        {
          "indexed": false,
          "internalType": "uint256",
          "name": "amount",
          "type": "uint256"
        },
        {
          "indexed": false,
          "internalType": "uint256",
          "name": "totalAmount",
          "type": "uint256"
        },
        {
          "indexed": false,
          "internalType": "uint32",
          "name": "period",
          "type": "uint32"
        }
      ],
      "name": "P2PCreated",
      "type": "event"
    },
    {
      "anonymous": false,
      "inputs": [
        {
          "indexed": true,
          "internalType": "bytes32",
          "name": "p2pId",
          "type": "bytes32"
        },
        {
          "indexed": true,
          "internalType": "address",
          "name": "user",
          "type": "address"
        }
      ],
      "name": "P2PPaused",
      "type": "event"
    },
    {
      "anonymous": false,
      "inputs": [
        {
          "indexed": true,
          "internalType": "bytes32",
          "name": "p2pId",
          "type": "bytes32"
        },
        {
          "indexed": true,
          "internalType": "address",
          "name": "user",
          "type": "address"
        },
        {
          "indexed": false,
          "internalType": "uint256",
          "name": "amount",
          "type": "uint256"
        },
        {
          "indexed": false,
          "internalType": "uint256",
          "name": "fee",
          "type": "uint256"
        }
      ],
      "name": "P2PProcessed",
      "type": "event"
    },
    {
      "anonymous": false,
      "inputs": [
        {
          "indexed": true,
          "internalType": "bytes32",
          "name": "p2pId",
          "type": "bytes32"
        },
        {
          "indexed": true,
          "internalType": "address",
          "name": "user",
          "type": "address"
        }
      ],
      "name": "P2PResumed",
      "type": "event"
    },
    {
      "anonymous": false,
      "inputs": [
        {
          "indexed": true,
          "internalType": "bytes32",
          "name": "p2pId",
          "type": "bytes32"
        },
        {
          "indexed": true,
          "internalType": "address",
          "name": "user",
          "type": "address"
        }
      ],
      "name": "P2PSkipped",
      "type": "event"
    },
    {
      "anonymous": false,
      "inputs": [
        {
          "indexed": false,
          "internalType": "address",
          "name": "account",
          "type": "address"
        }
      ],
      "name": "Paused",
      "type": "event"
    },
    {
      "anonymous": false,
      "inputs": [
        {
          "indexed": false,
          "internalType": "address",
          "name": "account",
          "type": "address"
        }
      ],
      "name": "Unpaused",
      "type": "event"
    },
    {
      "inputs": [
        {
          "internalType": "bytes32",
          "name": "_p2pId",
          "type": "bytes32"
        }
      ],
      "name": "cancelP2P",
      "outputs": [],
      "stateMutability": "nonpayable",
      "type": "function"
    },
    {
      "inputs": [
        {
          "internalType": "address",
          "name": "_to",
          "type": "address"
        },
        {
          "internalType": "uint256",
          "name": "_amount",
          "type": "uint256"
        },
        {
          "internalType": "uint256",
          "name": "_totalAmount",
          "type": "uint256"
        },
        {
          "internalType": "uint32",
          "name": "_period",
          "type": "uint32"
        }
      ],
      "name": "createP2P",
      "outputs": [
        {
          "internalType": "bytes32",
          "name": "",
          "type": "bytes32"
        }
      ],
      "stateMutability": "nonpayable",
      "type": "function"
    },
    {
      "inputs": [
        {
          "internalType": "bytes32",
          "name": "_p2pId",
          "type": "bytes32"
        }
      ],
      "name": "getP2P",
      "outputs": [
        {
          "components": [
            {
              "internalType": "address",
              "name": "user",
              "type": "address"
            },
            {
              "internalType": "address",
              "name": "to",
              "type": "address"
            },
            {
              "internalType": "uint256",
              "name": "amount",
              "type": "uint256"
            },
            {
              "internalType": "uint256",
              "name": "totalAmount",
              "type": "uint256"
            },
            {
              "internalType": "uint256",
              "name": "currentAmount",
              "type": "uint256"
            },
            {
              "internalType": "uint256",
              "name": "numPayments",
              "type": "uint256"
            },
            {
              "internalType": "uint256",
              "name": "numSkips",
              "type": "uint256"
            },
            {
              "internalType": "uint32",
              "name": "period",
              "type": "uint32"
            },
            {
              "internalType": "uint32",
              "name": "createdAt",
              "type": "uint32"
            },
            {
              "internalType": "uint32",
              "name": "processAt",
              "type": "uint32"
            },
            {
              "internalType": "enum ICaskP2P.P2PStatus",
              "name": "status",
              "type": "uint8"
            }
          ],
          "internalType": "struct ICaskP2P.P2P",
          "name": "",
          "type": "tuple"
        }
      ],
      "stateMutability": "view",
      "type": "function"
    },
    {
      "inputs": [
        {
          "internalType": "address",
          "name": "_user",
          "type": "address"
        },
        {
          "internalType": "uint256",
          "name": "_idx",
          "type": "uint256"
        }
      ],
      "name": "getUserP2P",
      "outputs": [
        {
          "internalType": "bytes32",
          "name": "",
          "type": "bytes32"
        }
      ],
      "stateMutability": "view",
      "type": "function"
    },
    {
      "inputs": [
        {
          "internalType": "address",
          "name": "_user",
          "type": "address"
        }
      ],
      "name": "getUserP2PCount",
      "outputs": [
        {
          "internalType": "uint256",
          "name": "",
          "type": "uint256"
        }
      ],
      "stateMutability": "view",
      "type": "function"
    },
    {
      "inputs": [],
      "name": "initialize",
      "outputs": [],
      "stateMutability": "nonpayable",
      "type": "function"
    },
    {
      "inputs": [
        {
          "internalType": "address",
          "name": "forwarder",
          "type": "address"
        }
      ],
      "name": "isTrustedForwarder",
      "outputs": [
        {
          "internalType": "bool",
          "name": "",
          "type": "bool"
        }
      ],
      "stateMutability": "view",
      "type": "function"
    },
    {
      "inputs": [
        {
          "internalType": "bytes32",
          "name": "_p2pId",
          "type": "bytes32"
        },
        {
          "internalType": "enum ICaskP2P.ManagerCommand",
          "name": "_command",
          "type": "uint8"
        }
      ],
      "name": "managerCommand",
      "outputs": [],
      "stateMutability": "nonpayable",
      "type": "function"
    },
    {
      "inputs": [
        {
          "internalType": "bytes32",
          "name": "_p2pId",
          "type": "bytes32"
        },
        {
          "internalType": "uint256",
          "name": "_amount",
          "type": "uint256"
        },
        {
          "internalType": "uint256",
          "name": "_fee",
          "type": "uint256"
        }
      ],
      "name": "managerProcessed",
      "outputs": [],
      "stateMutability": "nonpayable",
      "type": "function"
    },
    {
      "inputs": [],
      "name": "minAmount",
      "outputs": [
        {
          "internalType": "uint256",
          "name": "",
          "type": "uint256"
        }
      ],
      "stateMutability": "view",
      "type": "function"
    },
    {
      "inputs": [],
      "name": "minPeriod",
      "outputs": [
        {
          "internalType": "uint32",
          "name": "",
          "type": "uint32"
        }
      ],
      "stateMutability": "view",
      "type": "function"
    },
    {
      "inputs": [],
      "name": "owner",
      "outputs": [
        {
          "internalType": "address",
          "name": "",
          "type": "address"
        }
      ],
      "stateMutability": "view",
      "type": "function"
    },
    {
      "inputs": [],
      "name": "p2pManager",
      "outputs": [
        {
          "internalType": "contract ICaskP2PManager",
          "name": "",
          "type": "address"
        }
      ],
      "stateMutability": "view",
      "type": "function"
    },
    {
      "inputs": [],
      "name": "pause",
      "outputs": [],
      "stateMutability": "nonpayable",
      "type": "function"
    },
    {
      "inputs": [
        {
          "internalType": "bytes32",
          "name": "_p2pId",
          "type": "bytes32"
        }
      ],
      "name": "pauseP2P",
      "outputs": [],
      "stateMutability": "nonpayable",
      "type": "function"
    },
    {
      "inputs": [],
      "name": "paused",
      "outputs": [
        {
          "internalType": "bool",
          "name": "",
          "type": "bool"
        }
      ],
      "stateMutability": "view",
      "type": "function"
    },
    {
      "inputs": [],
      "name": "renounceOwnership",
      "outputs": [],
      "stateMutability": "nonpayable",
      "type": "function"
    },
    {
      "inputs": [
        {
          "internalType": "bytes32",
          "name": "_p2pId",
          "type": "bytes32"
        }
      ],
      "name": "resumeP2P",
      "outputs": [],
      "stateMutability": "nonpayable",
      "type": "function"
    },
    {
      "inputs": [
        {
          "internalType": "address",
          "name": "_p2pManager",
          "type": "address"
        }
      ],
      "name": "setManager",
      "outputs": [],
      "stateMutability": "nonpayable",
      "type": "function"
    },
    {
      "inputs": [
        {
          "internalType": "uint256",
          "name": "_minAmount",
          "type": "uint256"
        }
      ],
      "name": "setMinAmount",
      "outputs": [],
      "stateMutability": "nonpayable",
      "type": "function"
    },
    {
      "inputs": [
        {
          "internalType": "uint32",
          "name": "_minPeriod",
          "type": "uint32"
        }
      ],
      "name": "setMinPeriod",
      "outputs": [],
      "stateMutability": "nonpayable",
      "type": "function"
    },
    {
      "inputs": [
        {
          "internalType": "address",
          "name": "_forwarder",
          "type": "address"
        }
      ],
      "name": "setTrustedForwarder",
      "outputs": [],
      "stateMutability": "nonpayable",
      "type": "function"
    },
    {
      "inputs": [
        {
          "internalType": "address",
          "name": "newOwner",
          "type": "address"
        }
      ],
      "name": "transferOwnership",
      "outputs": [],
      "stateMutability": "nonpayable",
      "type": "function"
    },
    {
      "inputs": [],
      "name": "trustedForwarder",
      "outputs": [
        {
          "internalType": "address",
          "name": "",
          "type": "address"
        }
      ],
      "stateMutability": "view",
      "type": "function"
    },
    {
      "inputs": [],
      "name": "unpause",
      "outputs": [],
      "stateMutability": "nonpayable",
      "type": "function"
    },
    {
      "inputs": [],
      "name": "versionRecipient",
      "outputs": [
        {
          "internalType": "string",
          "name": "",
          "type": "string"
        }
      ],
      "stateMutability": "pure",
      "type": "function"
    }
  ],
  "transactionHash": "0x3951a580ee78fca7c2e37d324812fb40afc6da88c679cd1687fa203d84bd578e",
  "args": [],
  "numDeployments": 3,
  "solcInputHash": "a625c3a04b11d531fbd8cb0bf313e233",
  "bytecode": "0x60806040523480156200001157600080fd5b50600054610100900460ff166200002f5760005460ff161562000039565b62000039620000de565b620000a15760405162461bcd60e51b815260206004820152602e60248201527f496e697469616c697a61626c653a20636f6e747261637420697320616c72656160448201526d191e481a5b9a5d1a585b1a5e995960921b606482015260840160405180910390fd5b600054610100900460ff16158015620000c4576000805461ffff19166101011790555b8015620000d7576000805461ff00191690555b5062000102565b6000620000f630620000fc60201b620013b61760201c565b15905090565b3b151590565b611a4380620001126000396000f3fe608060405234801561001057600080fd5b506004361061018e5760003560e01c8063897b0637116100de578063b30f8a1311610097578063da74222811610071578063da74222814610372578063ded6da0114610385578063f2fde38b14610398578063ffd49c84146103ab57600080fd5b8063b30f8a1314610323578063c453824f1461034c578063d0ebdbe71461035f57600080fd5b8063897b0637146102b05780638da5cb5b146102c35780639b2cb5d8146102d4578063a0b029a9146102dd578063a80cfd51146102fd578063aa2f79be1461031057600080fd5b80635c975abb1161014b578063715018a611610125578063715018a6146102735780637da0a8771461027b5780638129fc1c146102a05780638456cb59146102a857600080fd5b80635c975abb1461024257806361e6c40a1461024d5780636537eace1461026057600080fd5b806317380c34146101935780631b6f39d7146101a85780633f4ba83a146101ce578063486ff0cd146101d6578063572b6c05146101fd5780635ba581cd1461022f575b600080fd5b6101a66101a1366004611665565b6103d0565b005b6101bb6101b636600461169a565b61057c565b6040519081526020015b60405180910390f35b6101a66105b9565b60408051808201825260058152640322e322e360dc1b602082015290516101c591906116c4565b61021f61020b366004611719565b6097546001600160a01b0391821691161490565b60405190151581526020016101c5565b6101a661023d36600461173b565b61060c565b60655460ff1661021f565b6101bb61025b366004611783565b6107ea565b6101a661026e366004611665565b610b3e565b6101a6610c44565b6097546001600160a01b03165b6040516001600160a01b0390911681526020016101c5565b6101a6610c97565b6101a6610d77565b6101a66102be366004611665565b610dc8565b6033546001600160a01b0316610288565b6101bb609b5481565b6102f06102eb366004611665565b610e16565b6040516101c59190611801565b609854610288906001600160a01b031681565b6101a661031e366004611665565b610f4d565b6101bb610331366004611719565b6001600160a01b03166000908152609a602052604090205490565b6101a661035a3660046118bb565b61104b565b6101a661036d366004611719565b6110b0565b6101a6610380366004611719565b61111b565b6101a66103933660046118d6565b611182565b6101a66103a6366004611719565b6112ff565b609c546103bb9063ffffffff1681565b60405163ffffffff90911681526020016101c5565b60008181526099602052604090205481906001600160a01b03166103f26113bc565b6001600160a01b0316146104215760405162461bcd60e51b815260040161041890611902565b60405180910390fd5b600082815260996020526040902060026007820154600160601b900460ff166004811115610451576104516117c9565b1461048c5760405162461bcd60e51b815260206004820152600b60248201526a085393d517d4105554d15160aa1b6044820152606401610418565b60078101805460ff60601b1916600160601b179081905563ffffffff428116600160401b9092041610156104e0576007810180546bffffffff00000000000000001916600160401b4263ffffffff16021790555b609854604051630d64dffd60e21b8152600481018590526001600160a01b03909116906335937ff490602401600060405180830381600087803b15801561052657600080fd5b505af115801561053a573d6000803e3d6000fd5b505082546040516001600160a01b0390911692508591507f90c8a0ae7f3edae1d7211626fda3659920bf9f37e7b6a4a24b01030a832b8fd190600090a3505050565b6001600160a01b0382166000908152609a602052604081208054839081106105a6576105a6611921565b9060005260206000200154905092915050565b6105c16113bc565b6001600160a01b03166105dc6033546001600160a01b031690565b6001600160a01b0316146106025760405162461bcd60e51b815260040161041890611937565b61060a6113cb565b565b6098546001600160a01b03166106206113bc565b6001600160a01b0316146106465760405162461bcd60e51b815260040161041890611902565b60008281526099602052604090206002826003811115610668576106686117c9565b141561070757600781015461068d9063ffffffff80821691600160401b900416611982565b8160070160086101000a81548163ffffffff021916908363ffffffff16021790555060018160060160008282546106c491906119aa565b909155505080546040516001600160a01b039091169084907fe98881c5e1c5fc67607a3f2e92bba431ee626fadd3dbdfaa1d5858c424fb7e7790600090a3505050565b600382600381111561071b5761071b6117c9565b14156107745760078101805460ff60601b1916600160611b17905580546040516001600160a01b039091169084907fec20a78248e90cc1381729a407ac4b26bd962380aab6b8a498e767c26c0f495490600090a3505050565b6001826003811115610788576107886117c9565b14156107e5576007810180546003919060ff60601b1916600160601b835b021790555080546040516001600160a01b039091169084907fdc7a5f3d2133ce8a7112247032e67648de955ec683416a76ee9ea018e7ece3fe90600090a35b505050565b6000609b548410156108315760405162461bcd60e51b815260206004820152601060248201526f21494e56414c494428616d6f756e742960801b6044820152606401610418565b609c5463ffffffff90811690831610156108805760405162461bcd60e51b815260206004820152601060248201526f21494e56414c494428706572696f642960801b6044820152606401610418565b600061088a6113bc565b60405160609190911b6bffffffffffffffffffffffff191660208201526034810186905260e084901b6001600160e01b031916605482015243605882015242607882015260980160408051601f19818403018152918152815160209283012060008181526099909352912090915042906109026113bc565b81546001600160a01b03199081166001600160a01b03928316178355600183018054909116918a16919091179055600281018790556003810186905560078101805463ffffffff87811667ffffffffffffffff1990921691909117640100000000918516918202176cffffffffff00000000000000001916600160401b9190910260ff60601b191617600160601b179055609a600061099f6113bc565b6001600160a01b0390811682526020808301939093526040918201600090812080546001810182559082529390209092018590556098549051630d64dffd60e21b8152600481018690529116906335937ff490602401600060405180830381600087803b158015610a0f57600080fd5b505af1158015610a23573d6000803e3d6000fd5b5060019250610a30915050565b6007820154600160601b900460ff166004811115610a5057610a506117c9565b14610a8e5760405162461bcd60e51b815260206004820152600e60248201526d21554e50524f4345535341424c4560901b6044820152606401610418565b8060050154600114610ad35760405162461bcd60e51b815260206004820152600e60248201526d21554e50524f4345535341424c4560901b6044820152606401610418565b60018101548154604080518a8152602081018a905263ffffffff89168183015290516001600160a01b03938416939092169186917fc306823dfef6d5d873e71870af06b7f6e7c919637db106e3e2b5c8d1e6f0bd0e919081900360600190a450909695505050505050565b60008181526099602052604090205481906001600160a01b0316610b606113bc565b6001600160a01b031614610b865760405162461bcd60e51b815260040161041890611902565b600082815260996020526040902060016007820154600160601b900460ff166004811115610bb657610bb66117c9565b14610bf15760405162461bcd60e51b815260206004820152600b60248201526a214e4f545f41435449564560a81b6044820152606401610418565b60078101805460ff60601b1916600160611b17905580546040516001600160a01b039091169084907fec20a78248e90cc1381729a407ac4b26bd962380aab6b8a498e767c26c0f495490600090a3505050565b610c4c6113bc565b6001600160a01b0316610c676033546001600160a01b031690565b6001600160a01b031614610c8d5760405162461bcd60e51b815260040161041890611937565b61060a6000611464565b600054610100900460ff16610cb25760005460ff1615610cb6565b303b155b610d195760405162461bcd60e51b815260206004820152602e60248201527f496e697469616c697a61626c653a20636f6e747261637420697320616c72656160448201526d191e481a5b9a5d1a585b1a5e995960921b6064820152608401610418565b600054610100900460ff16158015610d3b576000805461ffff19166101011790555b610d436114b6565b610d4b6114ed565b6001609b55609c805463ffffffff1916620151801790558015610d74576000805461ff00191690555b50565b610d7f6113bc565b6001600160a01b0316610d9a6033546001600160a01b031690565b6001600160a01b031614610dc05760405162461bcd60e51b815260040161041890611937565b61060a611524565b610dd06113bc565b6001600160a01b0316610deb6033546001600160a01b031690565b6001600160a01b031614610e115760405162461bcd60e51b815260040161041890611937565b609b55565b610e736040805161016081018252600080825260208201819052918101829052606081018290526080810182905260a0810182905260c0810182905260e08101829052610100810182905261012081018290529061014082015290565b60008281526099602090815260409182902082516101608101845281546001600160a01b03908116825260018301541692810192909252600281015492820192909252600382015460608201526004808301546080830152600583015460a0830152600683015460c0830152600783015463ffffffff80821660e085015264010000000082048116610100850152600160401b820416610120840152919291610140840191600160601b90910460ff1690811115610f3357610f336117c9565b6004811115610f4457610f446117c9565b90525092915050565b60008181526099602052604090205481906001600160a01b0316610f6f6113bc565b6001600160a01b031614610f955760405162461bcd60e51b815260040161041890611902565b600082815260996020526040902060016007820154600160601b900460ff166004811115610fc557610fc56117c9565b1480610ff0575060026007820154600160601b900460ff166004811115610fee57610fee6117c9565b145b61102f5760405162461bcd60e51b815260206004820152601060248201526f21494e56414c4944287374617475732960801b6044820152606401610418565b6007810180546003919060ff60601b1916600160601b836107a6565b6110536113bc565b6001600160a01b031661106e6033546001600160a01b031690565b6001600160a01b0316146110945760405162461bcd60e51b815260040161041890611937565b609c805463ffffffff191663ffffffff92909216919091179055565b6110b86113bc565b6001600160a01b03166110d36033546001600160a01b031690565b6001600160a01b0316146110f95760405162461bcd60e51b815260040161041890611937565b609880546001600160a01b0319166001600160a01b0392909216919091179055565b6111236113bc565b6001600160a01b031661113e6033546001600160a01b031690565b6001600160a01b0316146111645760405162461bcd60e51b815260040161041890611937565b609780546001600160a01b0319166001600160a01b03831617905550565b6098546001600160a01b03166111966113bc565b6001600160a01b0316146111bc5760405162461bcd60e51b815260040161041890611902565b600083815260996020526040902060078101546111e99063ffffffff80821691600160401b900416611982565b8160070160086101000a81548163ffffffff021916908363ffffffff1602179055508281600401600082825461121f91906119aa565b92505081905550600181600501600082825461123b91906119aa565b9091555050805460408051858152602081018590526001600160a01b039092169186917f502ad10f9f6152a1a8763fddc9bab46f67f6acf78ef795b586774e9bae329247910160405180910390a3600081600301541180156112a557508060030154816004015410155b156112f95760078101805460ff60601b1916600160621b17905580546040516001600160a01b039091169085907ff5c7f3c79bb644866beab12f4e904c0f8b7b56e318ebceb77c2b13d0a710482690600090a35b50505050565b6113076113bc565b6001600160a01b03166113226033546001600160a01b031690565b6001600160a01b0316146113485760405162461bcd60e51b815260040161041890611937565b6001600160a01b0381166113ad5760405162461bcd60e51b815260206004820152602660248201527f4f776e61626c653a206e6577206f776e657220697320746865207a65726f206160448201526564647265737360d01b6064820152608401610418565b610d7481611464565b3b151590565b60006113c66115a0565b905090565b60655460ff166114145760405162461bcd60e51b815260206004820152601460248201527314185d5cd8589b194e881b9bdd081c185d5cd95960621b6044820152606401610418565b6065805460ff191690557f5db9ee0a495bf2e6ff9c91a7834c1ba4fdd244a5e8aa4e537bd38aeae4b073aa6114476113bc565b6040516001600160a01b03909116815260200160405180910390a1565b603380546001600160a01b038381166001600160a01b0319831681179093556040519116919082907f8be0079c531659141344cd1fd0a4f28419497f9722a3daafe3b4186f6b6457e090600090a35050565b600054610100900460ff166114dd5760405162461bcd60e51b8152600401610418906119c2565b6114e56115d4565b61060a6115fb565b600054610100900460ff166115145760405162461bcd60e51b8152600401610418906119c2565b61151c6115d4565b61060a611632565b60655460ff161561156a5760405162461bcd60e51b815260206004820152601060248201526f14185d5cd8589b194e881c185d5cd95960821b6044820152606401610418565b6065805460ff191660011790557f62e78cea01bee320cd4e420270b5ea74000d11b0c9f74754ebdbfc544b05a2586114476113bc565b6000601436108015906115bd57506097546001600160a01b031633145b156115cf575060131936013560601c90565b503390565b600054610100900460ff1661060a5760405162461bcd60e51b8152600401610418906119c2565b600054610100900460ff166116225760405162461bcd60e51b8152600401610418906119c2565b61060a61162d6113bc565b611464565b600054610100900460ff166116595760405162461bcd60e51b8152600401610418906119c2565b6065805460ff19169055565b60006020828403121561167757600080fd5b5035919050565b80356001600160a01b038116811461169557600080fd5b919050565b600080604083850312156116ad57600080fd5b6116b68361167e565b946020939093013593505050565b600060208083528351808285015260005b818110156116f1578581018301518582016040015282016116d5565b81811115611703576000604083870101525b50601f01601f1916929092016040019392505050565b60006020828403121561172b57600080fd5b6117348261167e565b9392505050565b6000806040838503121561174e57600080fd5b8235915060208301356004811061176457600080fd5b809150509250929050565b803563ffffffff8116811461169557600080fd5b6000806000806080858703121561179957600080fd5b6117a28561167e565b935060208501359250604085013591506117be6060860161176f565b905092959194509250565b634e487b7160e01b600052602160045260246000fd5b600581106117fd57634e487b7160e01b600052602160045260246000fd5b9052565b81516001600160a01b031681526101608101602083015161182d60208401826001600160a01b03169052565b5060408301516040830152606083015160608301526080830151608083015260a083015160a083015260c083015160c083015260e083015161187760e084018263ffffffff169052565b506101008381015163ffffffff81168483015250506101208381015163ffffffff8116848301525050610140808401516118b3828501826117df565b505092915050565b6000602082840312156118cd57600080fd5b6117348261176f565b6000806000606084860312156118eb57600080fd5b505081359360208301359350604090920135919050565b60208082526005908201526404282aaa8960db1b604082015260600190565b634e487b7160e01b600052603260045260246000fd5b6020808252818101527f4f776e61626c653a2063616c6c6572206973206e6f7420746865206f776e6572604082015260600190565b634e487b7160e01b600052601160045260246000fd5b600063ffffffff8083168185168083038211156119a1576119a161196c565b01949350505050565b600082198211156119bd576119bd61196c565b500190565b6020808252602b908201527f496e697469616c697a61626c653a20636f6e7472616374206973206e6f74206960408201526a6e697469616c697a696e6760a81b60608201526080019056fea26469706673582212205bed5f026162c9315ea88a3be807f6959701b9dcfa902e01871fc4509e943c8a64736f6c63430008090033",
  "devdoc": {
    "kind": "dev",
    "methods": {
      "constructor": {
        "custom:oz-upgrades-unsafe-allow": "constructor"
      },
      "owner()": {
        "details": "Returns the address of the current owner."
      },
      "paused()": {
        "details": "Returns true if the contract is paused, and false otherwise."
      },
      "renounceOwnership()": {
        "details": "Leaves the contract without owner. It will not be possible to call `onlyOwner` functions anymore. Can only be called by the current owner. NOTE: Renouncing ownership will leave the contract without an owner, thereby removing any functionality that is only available to the owner."
      },
      "transferOwnership(address)": {
        "details": "Transfers ownership of the contract to a new account (`newOwner`). Can only be called by the current owner."
      }
    },
    "stateVariables": {
      "minAmount": {
        "details": "minimum amount of vault base asset for a P2P. "
      },
      "minPeriod": {
        "details": "minimum period for a P2P. "
      },
      "p2pManager": {
        "details": "contract to manage P2P executions. "
      },
      "p2pMap": {
        "details": "map of P2P ID to P2P info. "
      }
    },
    "version": 1
  },
  "userdoc": {
    "kind": "user",
    "methods": {
      "isTrustedForwarder(address)": {
        "notice": "return if the forwarder is trusted to forward relayed transactions to us. the forwarder is required to verify the sender's signature, and verify the call is not a replay."
      }
    },
    "version": 1
  },
  "storageLayout": {
    "storage": [
      {
        "astId": 327,
        "contract": "contracts/p2p/CaskP2P.sol:CaskP2P",
        "label": "_initialized",
        "offset": 0,
        "slot": "0",
        "type": "t_bool"
      },
      {
        "astId": 330,
        "contract": "contracts/p2p/CaskP2P.sol:CaskP2P",
        "label": "_initializing",
        "offset": 1,
        "slot": "0",
        "type": "t_bool"
      },
      {
        "astId": 2551,
        "contract": "contracts/p2p/CaskP2P.sol:CaskP2P",
        "label": "__gap",
        "offset": 0,
        "slot": "1",
        "type": "t_array(t_uint256)50_storage"
      },
      {
        "astId": 205,
        "contract": "contracts/p2p/CaskP2P.sol:CaskP2P",
        "label": "_owner",
        "offset": 0,
        "slot": "51",
        "type": "t_address"
      },
      {
        "astId": 319,
        "contract": "contracts/p2p/CaskP2P.sol:CaskP2P",
        "label": "__gap",
        "offset": 0,
        "slot": "52",
        "type": "t_array(t_uint256)49_storage"
      },
      {
        "astId": 415,
        "contract": "contracts/p2p/CaskP2P.sol:CaskP2P",
        "label": "_paused",
        "offset": 0,
        "slot": "101",
        "type": "t_bool"
      },
      {
        "astId": 506,
        "contract": "contracts/p2p/CaskP2P.sol:CaskP2P",
        "label": "__gap",
        "offset": 0,
        "slot": "102",
        "type": "t_array(t_uint256)49_storage"
      },
      {
        "astId": 72,
        "contract": "contracts/p2p/CaskP2P.sol:CaskP2P",
        "label": "_trustedForwarder",
        "offset": 0,
        "slot": "151",
        "type": "t_address"
      },
      {
        "astId": 15015,
        "contract": "contracts/p2p/CaskP2P.sol:CaskP2P",
        "label": "p2pManager",
        "offset": 0,
        "slot": "152",
        "type": "t_contract(ICaskP2PManager)12914"
      },
      {
        "astId": 15021,
        "contract": "contracts/p2p/CaskP2P.sol:CaskP2P",
        "label": "p2pMap",
        "offset": 0,
        "slot": "153",
        "type": "t_mapping(t_bytes32,t_struct(P2P)12779_storage)"
      },
      {
        "astId": 15026,
        "contract": "contracts/p2p/CaskP2P.sol:CaskP2P",
        "label": "userP2Ps",
        "offset": 0,
        "slot": "154",
        "type": "t_mapping(t_address,t_array(t_bytes32)dyn_storage)"
      },
      {
        "astId": 15029,
        "contract": "contracts/p2p/CaskP2P.sol:CaskP2P",
        "label": "minAmount",
        "offset": 0,
        "slot": "155",
        "type": "t_uint256"
      },
      {
        "astId": 15032,
        "contract": "contracts/p2p/CaskP2P.sol:CaskP2P",
        "label": "minPeriod",
        "offset": 0,
        "slot": "156",
        "type": "t_uint32"
      }
    ],
    "types": {
      "t_address": {
        "encoding": "inplace",
        "label": "address",
        "numberOfBytes": "20"
      },
      "t_array(t_bytes32)dyn_storage": {
        "base": "t_bytes32",
        "encoding": "dynamic_array",
        "label": "bytes32[]",
        "numberOfBytes": "32"
      },
      "t_array(t_uint256)49_storage": {
        "base": "t_uint256",
        "encoding": "inplace",
        "label": "uint256[49]",
        "numberOfBytes": "1568"
      },
      "t_array(t_uint256)50_storage": {
        "base": "t_uint256",
        "encoding": "inplace",
        "label": "uint256[50]",
        "numberOfBytes": "1600"
      },
      "t_bool": {
        "encoding": "inplace",
        "label": "bool",
        "numberOfBytes": "1"
      },
      "t_bytes32": {
        "encoding": "inplace",
        "label": "bytes32",
        "numberOfBytes": "32"
      },
      "t_contract(ICaskP2PManager)12914": {
        "encoding": "inplace",
        "label": "contract ICaskP2PManager",
        "numberOfBytes": "20"
      },
      "t_enum(P2PStatus)12750": {
        "encoding": "inplace",
        "label": "enum ICaskP2P.P2PStatus",
        "numberOfBytes": "1"
      },
      "t_mapping(t_address,t_array(t_bytes32)dyn_storage)": {
        "encoding": "mapping",
        "key": "t_address",
        "label": "mapping(address => bytes32[])",
        "numberOfBytes": "32",
        "value": "t_array(t_bytes32)dyn_storage"
      },
      "t_mapping(t_bytes32,t_struct(P2P)12779_storage)": {
        "encoding": "mapping",
        "key": "t_bytes32",
        "label": "mapping(bytes32 => struct ICaskP2P.P2P)",
        "numberOfBytes": "32",
        "value": "t_struct(P2P)12779_storage"
      },
      "t_struct(P2P)12779_storage": {
        "encoding": "inplace",
        "label": "struct ICaskP2P.P2P",
        "members": [
          {
            "astId": 12757,
            "contract": "contracts/p2p/CaskP2P.sol:CaskP2P",
            "label": "user",
            "offset": 0,
            "slot": "0",
            "type": "t_address"
          },
          {
            "astId": 12759,
            "contract": "contracts/p2p/CaskP2P.sol:CaskP2P",
            "label": "to",
            "offset": 0,
            "slot": "1",
            "type": "t_address"
          },
          {
            "astId": 12761,
            "contract": "contracts/p2p/CaskP2P.sol:CaskP2P",
            "label": "amount",
            "offset": 0,
            "slot": "2",
            "type": "t_uint256"
          },
          {
            "astId": 12763,
            "contract": "contracts/p2p/CaskP2P.sol:CaskP2P",
            "label": "totalAmount",
            "offset": 0,
            "slot": "3",
            "type": "t_uint256"
          },
          {
            "astId": 12765,
            "contract": "contracts/p2p/CaskP2P.sol:CaskP2P",
            "label": "currentAmount",
            "offset": 0,
            "slot": "4",
            "type": "t_uint256"
          },
          {
            "astId": 12767,
            "contract": "contracts/p2p/CaskP2P.sol:CaskP2P",
            "label": "numPayments",
            "offset": 0,
            "slot": "5",
            "type": "t_uint256"
          },
          {
            "astId": 12769,
            "contract": "contracts/p2p/CaskP2P.sol:CaskP2P",
            "label": "numSkips",
            "offset": 0,
            "slot": "6",
            "type": "t_uint256"
          },
          {
            "astId": 12771,
            "contract": "contracts/p2p/CaskP2P.sol:CaskP2P",
            "label": "period",
            "offset": 0,
            "slot": "7",
            "type": "t_uint32"
          },
          {
            "astId": 12773,
            "contract": "contracts/p2p/CaskP2P.sol:CaskP2P",
            "label": "createdAt",
            "offset": 4,
            "slot": "7",
            "type": "t_uint32"
          },
          {
            "astId": 12775,
            "contract": "contracts/p2p/CaskP2P.sol:CaskP2P",
            "label": "processAt",
            "offset": 8,
            "slot": "7",
            "type": "t_uint32"
          },
          {
            "astId": 12778,
            "contract": "contracts/p2p/CaskP2P.sol:CaskP2P",
            "label": "status",
            "offset": 12,
            "slot": "7",
            "type": "t_enum(P2PStatus)12750"
          }
        ],
        "numberOfBytes": "256"
      },
      "t_uint256": {
        "encoding": "inplace",
        "label": "uint256",
        "numberOfBytes": "32"
      },
      "t_uint32": {
        "encoding": "inplace",
        "label": "uint32",
        "numberOfBytes": "4"
      }
    }
  }
}