{
  "address": "0x60d577d0fAEA3977cB1b074f4Bb1804B5865af2C",
  "abi": [
    {
      "inputs": [],
      "stateMutability": "nonpayable",
      "type": "constructor"
    },
    {
      "anonymous": false,
      "inputs": [
        {
          "indexed": true,
          "internalType": "bytes32",
          "name": "assetSpec",
          "type": "bytes32"
        }
      ],
      "name": "BlacklistAssetSpec",
      "type": "event"
    },
    {
      "anonymous": false,
      "inputs": [
        {
          "indexed": true,
          "internalType": "address",
          "name": "previousOwner",
          "type": "address"
        },
        {
          "indexed": true,
          "internalType": "address",
          "name": "newOwner",
          "type": "address"
        }
      ],
      "name": "OwnershipTransferred",
      "type": "event"
    },
    {
      "anonymous": false,
      "inputs": [
        {
          "indexed": false,
          "internalType": "address",
          "name": "account",
          "type": "address"
        }
      ],
      "name": "Paused",
      "type": "event"
    },
    {
      "anonymous": false,
      "inputs": [
        {
          "indexed": false,
          "internalType": "uint256",
          "name": "limit",
          "type": "uint256"
        },
        {
          "indexed": false,
          "internalType": "uint256",
          "name": "jobsProcessed",
          "type": "uint256"
        },
        {
          "indexed": false,
          "internalType": "uint256",
          "name": "depth",
          "type": "uint256"
        },
        {
          "indexed": false,
          "internalType": "uint8",
          "name": "queueId",
          "type": "uint8"
        },
        {
          "indexed": false,
          "internalType": "uint256",
          "name": "queueRemaining",
          "type": "uint256"
        },
        {
          "indexed": false,
          "internalType": "uint32",
          "name": "currentBucket",
          "type": "uint32"
        }
      ],
      "name": "QueueRunReport",
      "type": "event"
    },
    {
      "anonymous": false,
      "inputs": [
        {
          "indexed": false,
          "internalType": "address",
          "name": "feeDistributor",
          "type": "address"
        }
      ],
      "name": "SetFeeDistributor",
      "type": "event"
    },
    {
      "anonymous": false,
      "inputs": [],
      "name": "SetParameters",
      "type": "event"
    },
    {
      "anonymous": false,
      "inputs": [
        {
          "indexed": true,
          "internalType": "bytes32",
          "name": "assetSpec",
          "type": "bytes32"
        }
      ],
      "name": "UnblacklistAssetSpec",
      "type": "event"
    },
    {
      "anonymous": false,
      "inputs": [
        {
          "indexed": false,
          "internalType": "address",
          "name": "account",
          "type": "address"
        }
      ],
      "name": "Unpaused",
      "type": "event"
    },
    {
      "anonymous": false,
      "inputs": [
        {
          "indexed": false,
          "internalType": "uint8",
          "name": "queueId",
          "type": "uint8"
        },
        {
          "indexed": false,
          "internalType": "bytes32",
          "name": "workUnit",
          "type": "bytes32"
        }
      ],
      "name": "WorkUnitProcessed",
      "type": "event"
    },
    {
      "anonymous": false,
      "inputs": [
        {
          "indexed": false,
          "internalType": "uint8",
          "name": "queueId",
          "type": "uint8"
        },
        {
          "indexed": false,
          "internalType": "bytes32",
          "name": "workUnit",
          "type": "bytes32"
        },
        {
          "indexed": false,
          "internalType": "uint32",
          "name": "processAt",
          "type": "uint32"
        }
      ],
      "name": "WorkUnitQueued",
      "type": "event"
    },
    {
      "inputs": [
        {
          "internalType": "bytes32",
          "name": "_assetSpec",
          "type": "bytes32"
        }
      ],
      "name": "blacklistAssetspec",
      "outputs": [],
      "stateMutability": "nonpayable",
      "type": "function"
    },
    {
      "inputs": [
        {
          "internalType": "bytes32",
          "name": "",
          "type": "bytes32"
        }
      ],
      "name": "blacklistedAssetspecs",
      "outputs": [
        {
          "internalType": "bool",
          "name": "",
          "type": "bool"
        }
      ],
      "stateMutability": "view",
      "type": "function"
    },
    {
      "inputs": [],
      "name": "caskDCA",
      "outputs": [
        {
          "internalType": "contract ICaskDCA",
          "name": "",
          "type": "address"
        }
      ],
      "stateMutability": "view",
      "type": "function"
    },
    {
      "inputs": [],
      "name": "caskVault",
      "outputs": [
        {
          "internalType": "contract ICaskVault",
          "name": "",
          "type": "address"
        }
      ],
      "stateMutability": "view",
      "type": "function"
    },
    {
      "inputs": [
        {
          "internalType": "bytes",
          "name": "checkData",
          "type": "bytes"
        }
      ],
      "name": "checkUpkeep",
      "outputs": [
        {
          "internalType": "bool",
          "name": "upkeepNeeded",
          "type": "bool"
        },
        {
          "internalType": "bytes",
          "name": "performData",
          "type": "bytes"
        }
      ],
      "stateMutability": "view",
      "type": "function"
    },
    {
      "inputs": [],
      "name": "dcaFeeBps",
      "outputs": [
        {
          "internalType": "uint256",
          "name": "",
          "type": "uint256"
        }
      ],
      "stateMutability": "view",
      "type": "function"
    },
    {
      "inputs": [],
      "name": "dcaFeeMin",
      "outputs": [
        {
          "internalType": "uint256",
          "name": "",
          "type": "uint256"
        }
      ],
      "stateMutability": "view",
      "type": "function"
    },
    {
      "inputs": [],
      "name": "dcaMinValue",
      "outputs": [
        {
          "internalType": "uint256",
          "name": "",
          "type": "uint256"
        }
      ],
      "stateMutability": "view",
      "type": "function"
    },
    {
      "inputs": [],
      "name": "feeDistributor",
      "outputs": [
        {
          "internalType": "address",
          "name": "",
          "type": "address"
        }
      ],
      "stateMutability": "view",
      "type": "function"
    },
    {
      "inputs": [
        {
          "internalType": "address",
          "name": "_caskDCA",
          "type": "address"
        },
        {
          "internalType": "address",
          "name": "_caskVault",
          "type": "address"
        },
        {
          "internalType": "address",
          "name": "_feeDistributor",
          "type": "address"
        }
      ],
      "name": "initialize",
      "outputs": [],
      "stateMutability": "nonpayable",
      "type": "function"
    },
    {
      "inputs": [],
      "name": "maxPriceFeedAge",
      "outputs": [
        {
          "internalType": "uint256",
          "name": "",
          "type": "uint256"
        }
      ],
      "stateMutability": "view",
      "type": "function"
    },
    {
      "inputs": [],
      "name": "maxQueueAge",
      "outputs": [
        {
          "internalType": "uint32",
          "name": "",
          "type": "uint32"
        }
      ],
      "stateMutability": "view",
      "type": "function"
    },
    {
      "inputs": [],
      "name": "maxSkips",
      "outputs": [
        {
          "internalType": "uint256",
          "name": "",
          "type": "uint256"
        }
      ],
      "stateMutability": "view",
      "type": "function"
    },
    {
      "inputs": [],
      "name": "owner",
      "outputs": [
        {
          "internalType": "address",
          "name": "",
          "type": "address"
        }
      ],
      "stateMutability": "view",
      "type": "function"
    },
    {
      "inputs": [],
      "name": "paused",
      "outputs": [
        {
          "internalType": "bool",
          "name": "",
          "type": "bool"
        }
      ],
      "stateMutability": "view",
      "type": "function"
    },
    {
      "inputs": [
        {
          "internalType": "bytes",
          "name": "performData",
          "type": "bytes"
        }
      ],
      "name": "performUpkeep",
      "outputs": [],
      "stateMutability": "nonpayable",
      "type": "function"
    },
    {
      "inputs": [],
      "name": "queueBucketSize",
      "outputs": [
        {
          "internalType": "uint32",
          "name": "",
          "type": "uint32"
        }
      ],
      "stateMutability": "view",
      "type": "function"
    },
    {
      "inputs": [
        {
          "internalType": "uint8",
          "name": "_queueId",
          "type": "uint8"
        },
        {
          "internalType": "uint32",
          "name": "_bucket",
          "type": "uint32"
        },
        {
          "internalType": "uint256",
          "name": "_idx",
          "type": "uint256"
        }
      ],
      "name": "queueItem",
      "outputs": [
        {
          "internalType": "bytes32",
          "name": "",
          "type": "bytes32"
        }
      ],
      "stateMutability": "view",
      "type": "function"
    },
    {
      "inputs": [
        {
          "internalType": "uint8",
          "name": "_queueId",
          "type": "uint8"
        }
      ],
      "name": "queuePosition",
      "outputs": [
        {
          "internalType": "uint32",
          "name": "",
          "type": "uint32"
        }
      ],
      "stateMutability": "view",
      "type": "function"
    },
    {
      "inputs": [
        {
          "internalType": "uint8",
          "name": "_queueId",
          "type": "uint8"
        },
        {
          "internalType": "uint32",
          "name": "_bucket",
          "type": "uint32"
        }
      ],
      "name": "queueSize",
      "outputs": [
        {
          "internalType": "uint256",
          "name": "",
          "type": "uint256"
        }
      ],
      "stateMutability": "view",
      "type": "function"
    },
    {
      "inputs": [
        {
          "internalType": "address",
          "name": "_asset",
          "type": "address"
        },
        {
          "internalType": "address",
          "name": "_dest",
          "type": "address"
        }
      ],
      "name": "recoverFunds",
      "outputs": [],
      "stateMutability": "nonpayable",
      "type": "function"
    },
    {
      "inputs": [
        {
          "internalType": "bytes32",
          "name": "_dcaId",
          "type": "bytes32"
        }
      ],
      "name": "registerDCA",
      "outputs": [],
      "stateMutability": "nonpayable",
      "type": "function"
    },
    {
      "inputs": [],
      "name": "renounceOwnership",
      "outputs": [],
      "stateMutability": "nonpayable",
      "type": "function"
    },
    {
      "inputs": [],
      "name": "reserved1",
      "outputs": [
        {
          "internalType": "bytes32",
          "name": "",
          "type": "bytes32"
        }
      ],
      "stateMutability": "view",
      "type": "function"
    },
    {
      "inputs": [
        {
          "internalType": "address",
          "name": "_feeDistributor",
          "type": "address"
        }
      ],
      "name": "setFeeDistributor",
      "outputs": [],
      "stateMutability": "nonpayable",
      "type": "function"
    },
    {
      "inputs": [
        {
          "internalType": "uint32",
          "name": "_maxQueueAge",
          "type": "uint32"
        }
      ],
      "name": "setMaxQueueAge",
      "outputs": [],
      "stateMutability": "nonpayable",
      "type": "function"
    },
    {
      "inputs": [
        {
          "internalType": "uint256",
          "name": "_maxSkips",
          "type": "uint256"
        },
        {
          "internalType": "uint256",
          "name": "_dcaFeeBps",
          "type": "uint256"
        },
        {
          "internalType": "uint256",
          "name": "_dcaFeeMin",
          "type": "uint256"
        },
        {
          "internalType": "uint256",
          "name": "_dcaMinValue",
          "type": "uint256"
        },
        {
          "internalType": "uint256",
          "name": "_maxPriceFeedAge",
          "type": "uint256"
        },
        {
          "internalType": "uint32",
          "name": "_queueBucketSize",
          "type": "uint32"
        },
        {
          "internalType": "uint32",
          "name": "_maxQueueAge",
          "type": "uint32"
        }
      ],
      "name": "setParameters",
      "outputs": [],
      "stateMutability": "nonpayable",
      "type": "function"
    },
    {
      "inputs": [
        {
          "internalType": "uint32",
          "name": "_queueBucketSize",
          "type": "uint32"
        }
      ],
      "name": "setQueueBucketSize",
      "outputs": [],
      "stateMutability": "nonpayable",
      "type": "function"
    },
    {
      "inputs": [
        {
          "internalType": "uint8",
          "name": "_queueId",
          "type": "uint8"
        },
        {
          "internalType": "uint32",
          "name": "_timestamp",
          "type": "uint32"
        }
      ],
      "name": "setQueuePosition",
      "outputs": [],
      "stateMutability": "nonpayable",
      "type": "function"
    },
    {
      "inputs": [
        {
          "internalType": "address",
          "name": "newOwner",
          "type": "address"
        }
      ],
      "name": "transferOwnership",
      "outputs": [],
      "stateMutability": "nonpayable",
      "type": "function"
    },
    {
      "inputs": [
        {
          "internalType": "bytes32",
          "name": "_assetSpec",
          "type": "bytes32"
        }
      ],
      "name": "unblacklistAssetspec",
      "outputs": [],
      "stateMutability": "nonpayable",
      "type": "function"
    }
  ],
  "transactionHash": "0x2a24244f5aeea418abfa56424025f99d3b8b5bd2c0d8d15bef721c24f57d669a",
  "args": [],
  "numDeployments": 6,
  "solcInputHash": "ca4fa8814a8b5d2b4706e2e60b7c0b60",
  "bytecode": "0x60806040523480156200001157600080fd5b50600054610100900460ff166200002f5760005460ff161562000039565b62000039620000de565b620000a15760405162461bcd60e51b815260206004820152602e60248201527f496e697469616c697a61626c653a20636f6e747261637420697320616c72656160448201526d191e481a5b9a5d1a585b1a5e995960921b606482015260840160405180910390fd5b600054610100900460ff16158015620000c4576000805461ffff19166101011790555b8015620000d7576000805461ff00191690555b5062000102565b6000620000f630620000fc60201b6200129a1760201c565b15905090565b3b151590565b61454780620001126000396000f3fe608060405234801561001057600080fd5b50600436106101e55760003560e01c8063715018a61161010f578063ab4de5ed116100a2578063ccfc2e8d11610071578063ccfc2e8d14610422578063cd48a61414610435578063f2fde38b14610448578063fa184a1e1461045b57600080fd5b8063ab4de5ed146103e5578063c0c53b8b146103ee578063c506465314610401578063c6f8806c1461040a57600080fd5b806390c6da56116100de57806390c6da56146103a3578063a47755d1146103b6578063aa878f76146103c9578063aaac831f146103dc57600080fd5b8063715018a614610367578063729d81071461036f5780638bddd2e4146103825780638da5cb5b1461039257600080fd5b80631c39033c1161018757806335e53b941161015657806335e53b94146102f55780634585e33b146103285780635c975abb1461033b5780636e04ff0d1461034657600080fd5b80631c39033c146102885780631e8506d6146102c657806324ae6a27146102d957806330f01be8146102ec57600080fd5b80630caae41d116101c35780630caae41d146102465780630d43e8ad1461025957806314fad7071461026c5780631ac6c56b1461027f57600080fd5b806308058e7c146101ea5780630816c8471461021a5780630abe19d914610231575b600080fd5b60cc546101fd906001600160a01b031681565b6040516001600160a01b0390911681526020015b60405180910390f35b61022360d45481565b604051908152602001610211565b61024461023f36600461379e565b61046e565b005b610244610254366004613816565b61055a565b60d5546101fd906001600160a01b031681565b61022361027a36600461384f565b6105bc565b61022360d15481565b6102b1610296366004613890565b60ff16600090815260cb602052604090205463ffffffff1690565b60405163ffffffff9091168152602001610211565b6102446102d43660046138ad565b610606565b6102446102e73660046138db565b610673565b61022360d35481565b6103186103033660046138ad565b60cf6020526000908152604090205460ff1681565b6040519015158152602001610211565b610244610336366004613909565b6107a1565b60655460ff16610318565b610359610354366004613909565b610b99565b6040516102119291906139d3565b610244610d18565b61024461037d3660046139ee565b610d4e565b60c9546102b19063ffffffff1681565b6033546001600160a01b03166101fd565b6102446103b13660046138ad565b610da0565b60cd546101fd906001600160a01b031681565b6102236103d7366004613816565b610e0a565b61022360ce5481565b61022360d25481565b6102446103fc366004613a0b565b610e35565b61022360d05481565b60c9546102b190640100000000900463ffffffff1681565b610244610430366004613a56565b611039565b6102446104433660046139ee565b611108565b610244610456366004613a56565b61114e565b6102446104693660046138ad565b6111e9565b6033546001600160a01b031633146104a15760405162461bcd60e51b815260040161049890613a73565b60405180910390fd5b61271086106104e85760405162461bcd60e51b815260206004820152601360248201527221494e56414c4944286463614665654270732960681b6044820152606401610498565b60d087905560d186905560d285905560d384905560d483905560c9805463ffffffff8381166401000000000267ffffffffffffffff19909216908516171790556040517f3b5fda6f71b960b21be0b432d9b7c87d9c8c996477ea1eba5c19cb77d1e027aa90600090a150505050505050565b6033546001600160a01b031633146105845760405162461bcd60e51b815260040161049890613a73565b61058d816112a0565b60ff92909216600090815260cb60205260409020805463ffffffff191663ffffffff9093169290921790915550565b60ff8316600090815260ca6020908152604080832063ffffffff8616845290915281208054839081106105f1576105f1613aa8565b906000526020600020015490505b9392505050565b6033546001600160a01b031633146106305760405162461bcd60e51b815260040161049890613a73565b600081815260cf6020526040808220805460ff191660011790555182917f24b2f8b1797db190508a9ea995ccc6b8f33928a8ec4fb3a27504f51e1157647b91a250565b6033546001600160a01b0316331461069d5760405162461bcd60e51b815260040161049890613a73565b6040516370a0823160e01b81523060048201526001600160a01b0383169063a9059cbb90839083906370a082319060240160206040518083038186803b1580156106e657600080fd5b505afa1580156106fa573d6000803e3d6000fd5b505050506040513d601f19601f8201168201806040525081019061071e9190613abe565b6040516001600160e01b031960e085901b1681526001600160a01b0390921660048301526024820152604401602060405180830381600087803b15801561076457600080fd5b505af1158015610778573d6000803e3d6000fd5b505050506040513d601f19601f8201168201806040525081019061079c9190613aec565b505050565b60655460ff16156107e75760405162461bcd60e51b815260206004820152601060248201526f14185d5cd8589b194e881c185d5cd95960821b6044820152606401610498565b6002609754141561083a5760405162461bcd60e51b815260206004820152601f60248201527f5265656e7472616e637947756172643a207265656e7472616e742063616c6c006044820152606401610498565b60026097556000808061084f84860186613b07565b925092509250600061085f6112ca565b905060008061086f866005613b4b565b60ff8516600090815260cb602052604090205490915063ffffffff166108b55760ff8416600090815260cb60205260409020805463ffffffff191663ffffffff85161790555b60ff8416600090815260cb602052604090205463ffffffff8085169116111561090d5760405162461bcd60e51b815260206004820152600a60248201526921544f4f5f4541524c5960b01b6044820152606401610498565b858210801561091c5750600081115b8015610943575060ff8416600090815260cb602052604090205463ffffffff808516911611155b15610b025760ff8416600090815260ca6020908152604080832060cb83528184205463ffffffff1684529091529020548015610a725760ff8516600090815260ca6020908152604080832060cb83528184205463ffffffff16845290915281206109ae600184613b6a565b815481106109be576109be613aa8565b600091825260208083209091015460ff8916835260ca8252604080842060cb84528185205463ffffffff168552909252912080549192509080610a0357610a03613b81565b60019003818190600052602060002001600090559055610a2386826112f2565b6040805160ff88168152602081018390527f58c7ae721fd25aaf84e68db9ce9ac6fed4f08438a370a4299d19f8c1425c499e910160405180910390a1610a6a600185613b97565b935050610afc565b60ff8516600090815260cb602052604090205463ffffffff80861691161015610af65760c95460ff8616600090815260cb60205260408120805463ffffffff93841693919291610ac491859116613baf565b92506101000a81548163ffffffff021916908363ffffffff160217905550600182610aef9190613b6a565b9150610afc565b50610b02565b5061090d565b60ff8416600081815260ca6020908152604080832060cb8084528285205463ffffffff168086529184528285205494869052835281518b81529283018790528282018a90526060830194909452608082019290925260a0810192909252517fd69140f88b9a25350749bb371882f4479133fc8b65602aac60f6c1b3598f08329181900360c00190a150506001609755505050505050565b60006060818080610bac86880188613b07565b9250925092506000610bbc6112ca565b60ff8316600090815260cb602052604081205490975090915063ffffffff1680610be35750805b8063ffffffff168263ffffffff1610158015610c1e575060c954640100000000900463ffffffff16610c158284613bd7565b63ffffffff1610155b15610c2c5760019650610cbc565b8163ffffffff168163ffffffff1611610cbc5760ff8316600090815260ca6020908152604080832063ffffffff8516845290915290205415801590610c94575060ff8316600090815260ca6020908152604080832063ffffffff851684529091529020548411155b15610ca25760019650610cbc565b60c954610cb59063ffffffff1682613baf565b9050610c2c565b60ff8316600081815260ca6020908152604080832063ffffffff86168452825291829020548251918201899052918101919091526060810191909152608001604051602081830303815290604052955050505050509250929050565b6033546001600160a01b03163314610d425760405162461bcd60e51b815260040161049890613a73565b610d4c6000611aa3565b565b6033546001600160a01b03163314610d785760405162461bcd60e51b815260040161049890613a73565b60c9805463ffffffff9092166401000000000267ffffffff0000000019909216919091179055565b6033546001600160a01b03163314610dca5760405162461bcd60e51b815260040161049890613a73565b600081815260cf6020526040808220805460ff191690555182917fba894bc0c7e4bd24c200bbd3877abd49470e2d8d96aeaecae8a02e09809e4aea91a250565b60ff8216600090815260ca6020908152604080832063ffffffff851684529091529020545b92915050565b600054610100900460ff16610e505760005460ff1615610e54565b303b155b610eb75760405162461bcd60e51b815260206004820152602e60248201527f496e697469616c697a61626c653a20636f6e747261637420697320616c72656160448201526d191e481a5b9a5d1a585b1a5e995960921b6064820152608401610498565b600054610100900460ff16158015610ed9576000805461ffff19166101011790555b6001600160a01b038416610f235760405162461bcd60e51b815260206004820152601160248201527021494e56414c4944286361736b4443412960781b6044820152606401610498565b6001600160a01b038316610f6f5760405162461bcd60e51b815260206004820152601360248201527221494e56414c4944286361736b5661756c742960681b6044820152606401610498565b6001600160a01b038216610fc05760405162461bcd60e51b815260206004820152601860248201527721494e56414c4944286665654469737472696275746f722960401b6044820152606401610498565b60cc80546001600160a01b038087166001600160a01b03199283161790925560cd805486841690831617905560d5805492851692909116919091179055600060d081905560d181905560d281905560d381905560d455611021610e10611af5565b8015611033576000805461ff00191690555b50505050565b6033546001600160a01b031633146110635760405162461bcd60e51b815260040161049890613a73565b6001600160a01b0381166110b45760405162461bcd60e51b815260206004820152601860248201527721494e56414c4944286665654469737472696275746f722960401b6044820152606401610498565b60d580546001600160a01b0319166001600160a01b0383169081179091556040519081527f9e9a9a4a82acd1b28aab6bf1d43aad70ae6d290549c0d6183e2e91ebcdf574419060200160405180910390a150565b6033546001600160a01b031633146111325760405162461bcd60e51b815260040161049890613a73565b60c9805463ffffffff191663ffffffff92909216919091179055565b6033546001600160a01b031633146111785760405162461bcd60e51b815260040161049890613a73565b6001600160a01b0381166111dd5760405162461bcd60e51b815260206004820152602660248201527f4f776e61626c653a206e6577206f776e657220697320746865207a65726f206160448201526564647265737360d01b6064820152608401610498565b6111e681611aa3565b50565b6002609754141561123c5760405162461bcd60e51b815260206004820152601f60248201527f5265656e7472616e637947756172643a207265656e7472616e742063616c6c006044820152606401610498565b600260975560655460ff16156112875760405162461bcd60e51b815260206004820152601060248201526f14185d5cd8589b194e881c185d5cd95960821b6044820152606401610498565b6112926001826112f2565b506001609755565b3b151590565b60c95460009063ffffffff166112b68184613c12565b6112c09084613bd7565b610e2f9190613baf565b60c95460009042906112e29063ffffffff1682613c12565b6112ec9082613bd7565b91505090565b60cc546040516392c65f4b60e01b8152600481018390526000916001600160a01b0316906392c65f4b9060240160006040518083038186803b15801561133757600080fd5b505afa15801561134b573d6000803e3d6000fd5b505050506040513d6000823e601f3d908101601f191682016040526113739190810190613d86565b60cc54604051630b43f1ad60e21b8152600481018590529192506000916001600160a01b0390911690632d0fc6b49060240160006040518083038186803b1580156113bd57600080fd5b505afa1580156113d1573d6000803e3d6000fd5b505050506040513d6000823e601f3d908101601f191682016040526113f99190810190613ee3565b90506000816000015182602001518460400151856060015186610220015160405160200161142b959493929190614011565b60408051601f198184030181529181528151602092830120600081815260cf90935291205490915060ff16156114c75760cc54604051635ba581cd60e01b81526001600160a01b0390911690635ba581cd9061148e90879060019060040161406f565b600060405180830381600087803b1580156114a857600080fd5b505af11580156114bc573d6000803e3d6000fd5b505050505050505050565b600183610200015160048111156114e0576114e0613fb7565b146114ec575050505050565b60d3548360800151101561152d5760cc54604051635ba581cd60e01b81526001600160a01b0390911690635ba581cd9061148e90879060019060040161406f565b6101e0830151429063ffffffff808316911611156115655761155d8686611558876101e001516112a0565b611b3d565b505050505050565b608084015160a08501511580159061158f57508460c001518560a0015161158c9190613b6a565b81115b156115ab578460c001518560a001516115a89190613b6a565b90505b600061271060d154836115be9190613b4b565b6115c89190614093565b905060d2548110156115d9575060d2545b60008661022001516000815181106115f3576115f3613aa8565b6020026020010151905060008761022001516001896102200151516116189190613b6a565b8151811061162857611628613aa8565b602090810291909101015160cd5460405163185c596360e11b81526001600160a01b038581166004830152929350600092909116906330b8b2c69060240160c06040518083038186803b15801561167e57600080fd5b505afa158015611692573d6000803e3d6000fd5b505050506040513d601f19601f820116820180604052508101906116b691906140a7565b90508060a00151611756576116e48b8b6115588c6101a001518d6101e001516116df9190613baf565b6112a0565b60cc54604051632a74cbb560e01b81526001600160a01b0390911690632a74cbb590611717908d90600190600401614140565b600060405180830381600087803b15801561173157600080fd5b505af1158015611745573d6000803e3d6000fd5b505050505050505050505050505050565b61176289898385611c05565b611950576117848b8b6115588c6101a001518d6101e001516116df9190613baf565b60cd54895160d254604051638e3e580d60e01b81526001600160a01b0392831660048201523060248201526044810191909152911690638e3e580d90606401600060405180830381600087803b1580156117dd57600080fd5b505af19250505080156117ee575060015b61188d573d80801561181c576040519150601f19603f3d011682016040523d82523d6000602084013e611821565b606091505b5060cc54604051635ba581cd60e01b81526001600160a01b0390911690635ba581cd90611855908e9060019060040161406f565b600060405180830381600087803b15801561186f57600080fd5b505af1158015611883573d6000803e3d6000fd5b5050505050611943565b60cc54604051632a74cbb560e01b81526001600160a01b0390911690632a74cbb5906118c0908d90600390600401614140565b600060405180830381600087803b1580156118da57600080fd5b505af11580156118ee573d6000803e3d6000fd5b50505050600060d05411801561190b575060d05489610120015110155b156119435760cc54604051635ba581cd60e01b81526001600160a01b0390911690635ba581cd90611717908d9060039060040161406f565b5050505050505050505050565b600061195f8b8b8b8989611d96565b90508015611a265760a08a0151158061198a57508960a00151868b60c001516119889190613b97565b105b156119ad576119ad8c8c6115588d6101a001518e6101e001516116df9190613baf565b60cc54604051632d32f27960e21b8152600481018d90526024810188905260448101839052606481018790526001600160a01b039091169063b4cbc9e4906084015b600060405180830381600087803b158015611a0957600080fd5b505af1158015611a1d573d6000803e3d6000fd5b50505050611a95565b600060d054118015611a3f575060d0548a610120015110155b15611a775760cc54604051635ba581cd60e01b81526001600160a01b0390911690635ba581cd906119ef908e9060039060040161406f565b611a958c8c6115588d6101a001518e6101e001516116df9190613baf565b505050505050505050505050565b603380546001600160a01b038381166001600160a01b0319831681179093556040519116919082907f8be0079c531659141344cd1fd0a4f28419497f9722a3daafe3b4186f6b6457e090600090a35050565b600054610100900460ff16611b1c5760405162461bcd60e51b815260040161049890614157565b611b2461273b565b611b2c612772565b611b346127a9565b6111e6816127d0565b6000611b48826112a0565b60ff8516600090815260cb602052604090205490915063ffffffff9081169082161015611b8a575060ff8316600090815260cb602052604090205463ffffffff165b60ff8416600081815260ca6020908152604080832063ffffffff861680855290835281842080546001810182559085529383902090930187905580519384529083018690528201527f67778e52b18dcf574ab071142a886fce91a8ce5e60e176229fdadb8c063caaed9060600160405180910390a150505050565b60008461018001516000148015611c1f5750610160850151155b15611c2c57506001611d8e565b600080836001600160a01b031663313ce5676040518163ffffffff1660e01b815260040160206040518083038186803b158015611c6857600080fd5b505afa158015611c7c573d6000803e3d6000fd5b505050506040513d601f19601f82011682018060405250810190611ca091906141a2565b90506000611caf82600a6142a3565b60608901519091506001600160a01b031615611d0057611ce586868a606001518960600151600a611ce091906142a3565b61283d565b611cef8280613b4b565b611cf99190614093565b9250611d32565b611d1b88888860600151600a611d1691906142a3565b612b6d565b611d258280613b4b565b611d2f9190614093565b92505b6000886101800151118015611d4b575087610180015183105b15611d5c5760009350505050611d8e565b6000886101600151118015611d75575087610160015183115b15611d865760009350505050611d8e565b600193505050505b949350505050565b600080856102200151600081518110611db157611db1613aa8565b60209081029190910101516040516370a0823160e01b81523060048201529091506000906001600160a01b038316906370a082319060240160206040518083038186803b158015611e0157600080fd5b505afa158015611e15573d6000803e3d6000fd5b505050506040513d601f19601f82011682018060405250810190611e399190613abe565b60cd54885160405163fcd6a25b60e01b81526001600160a01b0391821660048201523060248201526044810189905260006064820152929350169063fcd6a25b90608401600060405180830381600087803b158015611e9757600080fd5b505af1925050508015611ea8575060015b611f4d573d808015611ed6576040519150601f19603f3d011682016040523d82523d6000602084013e611edb565b606091505b5060cc54604051632a74cbb560e01b81526001600160a01b0390911690632a74cbb590611f0f908c90600290600401614140565b600060405180830381600087803b158015611f2957600080fd5b505af1158015611f3d573d6000803e3d6000fd5b5050505060009350505050612732565b60cd546000906001600160a01b031663e1ded2de611f6b8789613b6a565b6040518263ffffffff1660e01b8152600401611f8991815260200190565b60206040518083038186803b158015611fa157600080fd5b505afa158015611fb5573d6000803e3d6000fd5b505050506040513d601f19601f82011682018060405250810190611fd99190613abe565b60cd546040516370a0823160e01b81523060048201529192506001600160a01b0316906370a082319060240160206040518083038186803b15801561201d57600080fd5b505afa158015612031573d6000803e3d6000fd5b505050506040513d601f19601f820116820180604052508101906120559190613abe565b8111156120da5760cd546040516370a0823160e01b81523060048201526001600160a01b03909116906370a082319060240160206040518083038186803b15801561209f57600080fd5b505afa1580156120b3573d6000803e3d6000fd5b505050506040513d601f19601f820116820180604052508101906120d79190613abe565b90505b60cd5460405163f3fef3a360e01b81526001600160a01b038581166004830152602482018490529091169063f3fef3a390604401600060405180830381600087803b15801561212857600080fd5b505af115801561213c573d6000803e3d6000fd5b50506040516370a0823160e01b8152306004820152600092508491506001600160a01b038616906370a082319060240160206040518083038186803b15801561218457600080fd5b505afa158015612198573d6000803e3d6000fd5b505050506040513d601f19601f820116820180604052508101906121bc9190613abe565b6121c69190613b6a565b9050600081116122105760405162461bcd60e51b815260206004820152601560248201527421494e56414c494428696e707574416d6f756e742960581b6044820152606401610498565b600061221d8a8a84612cba565b9050801561253f5760006122338b8b8585612e54565b905080156123475760cd5460d5546040516370a0823160e01b81523060048201526001600160a01b039283169263a9059cbb92169083906370a082319060240160206040518083038186803b15801561228b57600080fd5b505afa15801561229f573d6000803e3d6000fd5b505050506040513d601f19601f820116820180604052508101906122c39190613abe565b6040516001600160e01b031960e085901b1681526001600160a01b0390921660048301526024820152604401602060405180830381600087803b15801561230957600080fd5b505af115801561231d573d6000803e3d6000fd5b505050506040513d601f19601f820116820180604052508101906123419190613aec565b50612532565b60cd54612361906001600160a01b03888116911685612ecf565b60cd546040516311f9fbc960e21b81526001600160a01b03888116600483015260248201869052909116906347e7ef2490604401600060405180830381600087803b1580156123af57600080fd5b505af11580156123c3573d6000803e3d6000fd5b505060cd548d516040516370a0823160e01b81523060048201526001600160a01b03909216935063a9059cbb92509083906370a082319060240160206040518083038186803b15801561241557600080fd5b505afa158015612429573d6000803e3d6000fd5b505050506040513d601f19601f8201168201806040525081019061244d9190613abe565b6040516001600160e01b031960e085901b1681526001600160a01b0390921660048301526024820152604401602060405180830381600087803b15801561249357600080fd5b505af11580156124a7573d6000803e3d6000fd5b505050506040513d601f19601f820116820180604052508101906124cb9190613aec565b5060cc54604051632a74cbb560e01b81526001600160a01b0390911690632a74cbb5906124ff908f90600590600401614140565b600060405180830381600087803b15801561251957600080fd5b505af115801561252d573d6000803e3d6000fd5b505050505b9550612732945050505050565b60cd54612559906001600160a01b03878116911684612ecf565b60cd546040516311f9fbc960e21b81526001600160a01b03878116600483015260248201859052909116906347e7ef2490604401600060405180830381600087803b1580156125a757600080fd5b505af11580156125bb573d6000803e3d6000fd5b505060cd548c516040516370a0823160e01b81523060048201526001600160a01b03909216935063a9059cbb92509083906370a082319060240160206040518083038186803b15801561260d57600080fd5b505afa158015612621573d6000803e3d6000fd5b505050506040513d601f19601f820116820180604052508101906126459190613abe565b6040516001600160e01b031960e085901b1681526001600160a01b0390921660048301526024820152604401602060405180830381600087803b15801561268b57600080fd5b505af115801561269f573d6000803e3d6000fd5b505050506040513d601f19601f820116820180604052508101906126c39190613aec565b5060cc54604051632a74cbb560e01b81526001600160a01b0390911690632a74cbb5906126f6908e906004908101614140565b600060405180830381600087803b15801561271057600080fd5b505af1158015612724573d6000803e3d6000fd5b505050506000955050505050505b95945050505050565b600054610100900460ff166127625760405162461bcd60e51b815260040161049890614157565b61276a6127a9565b610d4c612fb2565b600054610100900460ff166127995760405162461bcd60e51b815260040161049890614157565b6127a16127a9565b610d4c612fe2565b600054610100900460ff16610d4c5760405162461bcd60e51b815260040161049890614157565b600054610100900460ff166127f75760405162461bcd60e51b815260040161049890614157565b60c9805463ffffffff191663ffffffff831690811790915561281a9060146142b2565b60c960046101000a81548163ffffffff021916908363ffffffff16021790555050565b60008161284c57506000611d8e565b6000806000866001600160a01b031663313ce5676040518163ffffffff1660e01b815260040160206040518083038186803b15801561288a57600080fd5b505afa15801561289e573d6000803e3d6000fd5b505050506040513d601f19601f820116820180604052508101906128c291906141a2565b90506000866001600160a01b031663313ce5676040518163ffffffff1660e01b815260040160206040518083038186803b1580156128ff57600080fd5b505afa158015612913573d6000803e3d6000fd5b505050506040513d601f19601f8201168201806040525081019061293791906141a2565b905088600001516001600160a01b031663feaf968c6040518163ffffffff1660e01b815260040160a06040518083038186803b15801561297657600080fd5b505afa15801561298a573d6000803e3d6000fd5b505050506040513d601f19601f820116820180604052508101906129ae91906142f8565b5060d45492975095508692505015806129d2575060d4546129cf8542613b6a565b11155b612a105760405162461bcd60e51b815260206004820152600f60248201526e0854149250d157d3d5551110551151608a1b6044820152606401610498565b876001600160a01b031663feaf968c6040518163ffffffff1660e01b815260040160a06040518083038186803b158015612a4957600080fd5b505afa158015612a5d573d6000803e3d6000fd5b505050506040513d601f19601f82011682018060405250810190612a8191906142f8565b5060d4549298509650879250501580612aa5575060d454612aa28642613b6a565b11155b612ae35760405162461bcd60e51b815260206004820152600f60248201526e0854149250d157d3d5551110551151608a1b6044820152606401610498565b8260ff168b6080015160ff1614612b3e57612aff818486613015565b612b0e838d6080015187613015565b612b1d8a8e6060015188613015565b612b279190613b4b565b612b319190614093565b9650505050505050611d8e565b612b318183612b528b8f6060015188613015565b612b5c9190613b4b565b612b669190614093565b8486613015565b60008083516002811115612b8357612b83613fb7565b1415612b9a57612b93848361307f565b90506105ff565b600183516002811115612baf57612baf613fb7565b1415612c0e5760608401516001600160a01b0316612c055760405162461bcd60e51b815260206004820152601360248201527221494e56414c4944287072696365466565642960681b6044820152606401610498565b506000196105ff565b600283516002811115612c2357612c23613fb7565b1415612c795760608401516001600160a01b0316612c055760405162461bcd60e51b815260206004820152601360248201527221494e56414c4944287072696365466565642960681b6044820152606401610498565b60405162461bcd60e51b815260206004820152601660248201527521494e56414c4944287377617050726f746f636f6c2960501b6044820152606401610498565b60cd54610220840151805160009283926001600160a01b03909116916330b8b2c691908490612ceb57612ceb613aa8565b60200260200101516040518263ffffffff1660e01b8152600401612d1e91906001600160a01b0391909116815260200190565b60c06040518083038186803b158015612d3657600080fd5b505afa158015612d4a573d6000803e3d6000fd5b505050506040513d601f19601f82011682018060405250810190612d6e91906140a7565b60608601519091506000906001600160a01b031615612dc7576102208601518051612dc4918491612da190600190613b6a565b81518110612db157612db1613aa8565b602002602001015188606001518761283d565b90505b6000612dd4878787612b6d565b90508115612e1f5761271087610140015183612df09190613b4b565b612dfa9190614093565b612e049083613b6a565b915081811015612e1a57600093505050506105ff565b612e4a565b61271087610140015182612e339190613b4b565b612e3d9190614093565b612e479082613b6a565b91505b5095945050505050565b60008084516002811115612e6a57612e6a613fb7565b1415612e8257612e7b85848461313f565b9050611d8e565b600184516002811115612e9757612e97613fb7565b1415612ea957612e7b8585858561328d565b600284516002811115612ebe57612ebe613fb7565b1415612c7957612e7b8584846133ad565b604051636eb1769f60e11b81523060048201526001600160a01b038381166024830152600091839186169063dd62ed3e9060440160206040518083038186803b158015612f1b57600080fd5b505afa158015612f2f573d6000803e3d6000fd5b505050506040513d601f19601f82011682018060405250810190612f539190613abe565b612f5d9190613b97565b604080516001600160a01b038616602482015260448082018490528251808303909101815260649091019091526020810180516001600160e01b031663095ea7b360e01b1790529091506110339085906135af565b600054610100900460ff16612fd95760405162461bcd60e51b815260040161049890614157565b610d4c33611aa3565b600054610100900460ff166130095760405162461bcd60e51b815260040161049890614157565b6065805460ff19169055565b60008160ff168360ff1610156130475761302f8383614348565b61303d9060ff16600a61436b565b612b939085613b4b565b8160ff168360ff1611156130775761305f8284614348565b61306d9060ff16600a61436b565b612b939085614093565b509192915050565b60008083604001516001600160a01b031663d06ca61f848661022001516040518363ffffffff1660e01b81526004016130b9929190614377565b60006040518083038186803b1580156130d157600080fd5b505afa1580156130e5573d6000803e3d6000fd5b505050506040513d6000823e601f3d908101601f1916820160405261310d9190810190614390565b9050806001825161311e9190613b6a565b8151811061312e5761312e613aa8565b602002602001015191505092915050565b600061318284604001518486610220015160008151811061316257613162613aa8565b60200260200101516001600160a01b0316612ecf9092919063ffffffff16565b600084604001516001600160a01b03166338ed17398585886102200151896020015142610e106131b29190613b97565b6040518663ffffffff1660e01b81526004016131d2959493929190614416565b600060405180830381600087803b1580156131ec57600080fd5b505af192505050801561322157506040513d6000823e601f3d908101601f1916820160405261321e9190810190614390565b60015b61325b573d80801561324f576040519150601f19603f3d011682016040523d82523d6000602084013e613254565b606091505b5050611d8e565b806001825161326a9190613b6a565b8151811061327a5761327a613aa8565b6020026020010151915050949350505050565b60006132b085604001518487610220015160008151811061316257613162613aa8565b6000806040518060a001604052808760200151815260200188602001516001600160a01b0316815260200142603c6132e89190613b97565b815260200186815260200185815250905086604001516001600160a01b031663c04b8d59826040518263ffffffff1660e01b81526004016133299190614452565b602060405180830381600087803b15801561334357600080fd5b505af1925050508015613373575060408051601f3d908101601f1916820190925261337091810190613abe565b60015b612e47573d8080156133a1576040519150601f19603f3d011682016040523d82523d6000602084013e6133a6565b606091505b5050612e4a565b60006133d084604001518486610220015160008151811061316257613162613aa8565b6102208401518051600091906133e890600190613b6a565b815181106133f8576133f8613aa8565b60209081029190910101516040516370a0823160e01b81523060048201529091506000906001600160a01b038316906370a082319060240160206040518083038186803b15801561344857600080fd5b505afa15801561345c573d6000803e3d6000fd5b505050506040513d601f19601f820116820180604052508101906134809190613abe565b905085604001516001600160a01b0316636023e96687610220015187878a602001516040518563ffffffff1660e01b81526004016134c194939291906144aa565b600060405180830381600087803b1580156134db57600080fd5b505af19250505080156134ec575060015b613522573d80801561351a576040519150601f19603f3d011682016040523d82523d6000602084013e61351f565b606091505b50505b6040516370a0823160e01b815230600482015281906001600160a01b038416906370a082319060240160206040518083038186803b15801561356357600080fd5b505afa158015613577573d6000803e3d6000fd5b505050506040513d601f19601f8201168201806040525081019061359b9190613abe565b6135a59190613b6a565b9695505050505050565b6000613604826040518060400160405280602081526020017f5361666545524332303a206c6f772d6c6576656c2063616c6c206661696c6564815250856001600160a01b03166136819092919063ffffffff16565b80519091501561079c57808060200190518101906136229190613aec565b61079c5760405162461bcd60e51b815260206004820152602a60248201527f5361666545524332303a204552433230206f7065726174696f6e20646964206e6044820152691bdd081cdd58d8d9595960b21b6064820152608401610498565b6060611d8e848460008585843b6136da5760405162461bcd60e51b815260206004820152601d60248201527f416464726573733a2063616c6c20746f206e6f6e2d636f6e74726163740000006044820152606401610498565b600080866001600160a01b031685876040516136f691906144e2565b60006040518083038185875af1925050503d8060008114613733576040519150601f19603f3d011682016040523d82523d6000602084013e613738565b606091505b5091509150613748828286613753565b979650505050505050565b606083156137625750816105ff565b8251156137725782518084602001fd5b8160405162461bcd60e51b815260040161049891906144fe565b63ffffffff811681146111e657600080fd5b600080600080600080600060e0888a0312156137b957600080fd5b873596506020880135955060408801359450606088013593506080880135925060a08801356137e78161378c565b915060c08801356137f78161378c565b8091505092959891949750929550565b60ff811681146111e657600080fd5b6000806040838503121561382957600080fd5b823561383481613807565b915060208301356138448161378c565b809150509250929050565b60008060006060848603121561386457600080fd5b833561386f81613807565b9250602084013561387f8161378c565b929592945050506040919091013590565b6000602082840312156138a257600080fd5b81356105ff81613807565b6000602082840312156138bf57600080fd5b5035919050565b6001600160a01b03811681146111e657600080fd5b600080604083850312156138ee57600080fd5b82356138f9816138c6565b91506020830135613844816138c6565b6000806020838503121561391c57600080fd5b823567ffffffffffffffff8082111561393457600080fd5b818501915085601f83011261394857600080fd5b81358181111561395757600080fd5b86602082850101111561396957600080fd5b60209290920196919550909350505050565b60005b8381101561399657818101518382015260200161397e565b838111156110335750506000910152565b600081518084526139bf81602086016020860161397b565b601f01601f19169290920160200192915050565b8215158152604060208201526000611d8e60408301846139a7565b600060208284031215613a0057600080fd5b81356105ff8161378c565b600080600060608486031215613a2057600080fd5b8335613a2b816138c6565b92506020840135613a3b816138c6565b91506040840135613a4b816138c6565b809150509250925092565b600060208284031215613a6857600080fd5b81356105ff816138c6565b6020808252818101527f4f776e61626c653a2063616c6c6572206973206e6f7420746865206f776e6572604082015260600190565b634e487b7160e01b600052603260045260246000fd5b600060208284031215613ad057600080fd5b5051919050565b80518015158114613ae757600080fd5b919050565b600060208284031215613afe57600080fd5b6105ff82613ad7565b600080600060608486031215613b1c57600080fd5b83359250602084013591506040840135613a4b81613807565b634e487b7160e01b600052601160045260246000fd5b6000816000190483118215151615613b6557613b65613b35565b500290565b600082821015613b7c57613b7c613b35565b500390565b634e487b7160e01b600052603160045260246000fd5b60008219821115613baa57613baa613b35565b500190565b600063ffffffff808316818516808303821115613bce57613bce613b35565b01949350505050565b600063ffffffff83811690831681811015613bf457613bf4613b35565b039392505050565b634e487b7160e01b600052601260045260246000fd5b600063ffffffff80841680613c2957613c29613bfc565b92169190910692915050565b634e487b7160e01b600052604160045260246000fd5b604051610240810167ffffffffffffffff81118282101715613c6f57613c6f613c35565b60405290565b6040805190810167ffffffffffffffff81118282101715613c6f57613c6f613c35565b604051601f8201601f1916810167ffffffffffffffff81118282101715613cc157613cc1613c35565b604052919050565b8051613ae7816138c6565b8051613ae78161378c565b805160058110613ae757600080fd5b600067ffffffffffffffff821115613d0857613d08613c35565b5060051b60200190565b600082601f830112613d2357600080fd5b81516020613d38613d3383613cee565b613c98565b82815260059290921b84018101918181019086841115613d5757600080fd5b8286015b84811015613d7b578051613d6e816138c6565b8352918301918301613d5b565b509695505050505050565b600060208284031215613d9857600080fd5b815167ffffffffffffffff80821115613db057600080fd5b908301906102408286031215613dc557600080fd5b613dcd613c4b565b613dd683613cc9565b8152613de460208401613cc9565b6020820152613df560408401613cc9565b6040820152613e0660608401613cc9565b60608201526080838101519082015260a0808401519082015260c0808401519082015260e08084015190820152610100808401519082015261012080840151908201526101408084015190820152610160808401519082015261018080840151908201526101a0613e78818501613cd4565b908201526101c0613e8a848201613cd4565b908201526101e0613e9c848201613cd4565b90820152610200613eae848201613cdf565b908201526102208381015183811115613ec657600080fd5b613ed288828701613d12565b918301919091525095945050505050565b60006020808385031215613ef657600080fd5b825167ffffffffffffffff80821115613f0e57600080fd5b9084019060408287031215613f2257600080fd5b613f2a613c75565b825160038110613f3957600080fd5b81528284015182811115613f4c57600080fd5b80840193505086601f840112613f6157600080fd5b825182811115613f7357613f73613c35565b613f85601f8201601f19168601613c98565b92508083528785828601011115613f9b57600080fd5b613faa8186850187870161397b565b5092830152509392505050565b634e487b7160e01b600052602160045260246000fd5b600081518084526020808501945080840160005b838110156140065781516001600160a01b031687529582019590820190600101613fe1565b509495945050505050565b60006003871061402357614023613fb7565b86825260a0602083015261403a60a08301876139a7565b6001600160a01b0386811660408501528516606084015282810360808401526140638185613fcd565b98975050505050505050565b828152604081016004831061408657614086613fb7565b8260208301529392505050565b6000826140a2576140a2613bfc565b500490565b600060c082840312156140b957600080fd5b60405160c0810181811067ffffffffffffffff821117156140dc576140dc613c35565b60405282516140ea816138c6565b808252506020830151602082015260408301516040820152606083015161411081613807565b6060820152608083015161412381613807565b608082015261413460a08401613ad7565b60a08201529392505050565b828152604081016006831061408657614086613fb7565b6020808252602b908201527f496e697469616c697a61626c653a20636f6e7472616374206973206e6f74206960408201526a6e697469616c697a696e6760a81b606082015260800190565b6000602082840312156141b457600080fd5b81516105ff81613807565b600181815b808511156141fa5781600019048211156141e0576141e0613b35565b808516156141ed57918102915b93841c93908002906141c4565b509250929050565b60008261421157506001610e2f565b8161421e57506000610e2f565b8160018114614234576002811461423e5761425a565b6001915050610e2f565b60ff84111561424f5761424f613b35565b50506001821b610e2f565b5060208310610133831016604e8410600b841016171561427d575081810a610e2f565b61428783836141bf565b806000190482111561429b5761429b613b35565b029392505050565b60006105ff60ff841683614202565b600063ffffffff808316818516818304811182151516156142d5576142d5613b35565b02949350505050565b805169ffffffffffffffffffff81168114613ae757600080fd5b600080600080600060a0868803121561431057600080fd5b614319866142de565b945060208601519350604086015192506060860151915061433c608087016142de565b90509295509295909350565b600060ff821660ff84168082101561436257614362613b35565b90039392505050565b60006105ff8383614202565b828152604060208201526000611d8e6040830184613fcd565b600060208083850312156143a357600080fd5b825167ffffffffffffffff8111156143ba57600080fd5b8301601f810185136143cb57600080fd5b80516143d9613d3382613cee565b81815260059190911b820183019083810190878311156143f857600080fd5b928401925b82841015613748578351825292840192908401906143fd565b85815284602082015260a06040820152600061443560a0830186613fcd565b6001600160a01b0394909416606083015250608001529392505050565b602081526000825160a0602084015261446e60c08401826139a7565b905060018060a01b0360208501511660408401526040840151606084015260608401516080840152608084015160a08401528091505092915050565b6080815260006144bd6080830187613fcd565b60208301959095525060408101929092526001600160a01b0316606090910152919050565b600082516144f481846020870161397b565b9190910192915050565b6020815260006105ff60208301846139a756fea264697066735822122086f9a7fd0ba60a685f9a5ce3acedf122b884f13578bc216a01990cb6e17d8c0c64736f6c63430008090033",
  "devdoc": {
    "kind": "dev",
    "methods": {
      "checkUpkeep(bytes)": {
        "details": "To ensure that it is never called, you may want to add the cannotExecute modifier from KeeperBase to your implementation of this method.",
        "params": {
          "checkData": "specified in the upkeep registration so it is always the same for a registered upkeep. This can easilly be broken down into specific arguments using `abi.decode`, so multiple upkeeps can be registered on the same contract and easily differentiated by the contract."
        },
        "returns": {
          "performData": "bytes that the keeper should call performUpkeep with, if upkeep is needed. If you would like to encode data to decode later, try `abi.encode`.",
          "upkeepNeeded": "boolean to indicate whether the keeper should call performUpkeep or not."
        }
      },
      "constructor": {
        "custom:oz-upgrades-unsafe-allow": "constructor"
      },
      "owner()": {
        "details": "Returns the address of the current owner."
      },
      "paused()": {
        "details": "Returns true if the contract is paused, and false otherwise."
      },
      "performUpkeep(bytes)": {
        "details": "The input to this method should not be trusted, and the caller of the method should not even be restricted to any single registry. Anyone should be able call it, and the input should be validated, there is no guarantee that the data passed in is the performData returned from checkUpkeep. This could happen due to malicious keepers, racing keepers, or simply a state change while the performUpkeep transaction is waiting for confirmation. Always validate the data passed in.",
        "params": {
          "performData": "is the data which was passed back from the checkData simulation. If it is encoded, it can easily be decoded into other types by calling `abi.decode`. This data should not be trusted, and should be validated against the contract's current state."
        }
      },
      "renounceOwnership()": {
        "details": "Leaves the contract without owner. It will not be possible to call `onlyOwner` functions anymore. Can only be called by the current owner. NOTE: Renouncing ownership will leave the contract without an owner, thereby removing any functionality that is only available to the owner."
      },
      "transferOwnership(address)": {
        "details": "Transfers ownership of the contract to a new account (`newOwner`). Can only be called by the current owner."
      }
    },
    "stateVariables": {
      "blacklistedAssetspecs": {
        "details": "map of assetSpecs that are deemed unsafe and any active DCA to them will be canceled "
      },
      "caskDCA": {
        "details": "Pointer to CaskDCA contract "
      },
      "caskVault": {
        "details": "vault to use for DCA funding. "
      },
      "dcaFeeBps": {
        "details": "DCA transaction fee in basis points. "
      },
      "dcaFeeMin": {
        "details": "Minimum DCA transaction fee. "
      },
      "dcaMinValue": {
        "details": "Smallest allowable DCA amount. "
      },
      "feeDistributor": {
        "details": "Address to receive DCA fees. "
      },
      "maxPriceFeedAge": {
        "details": "revert if price feed age is older than this number of seconds. set to 0 to disable check. "
      },
      "maxSkips": {
        "details": "max number of failed DCA purchases before DCA is permanently canceled. "
      },
      "reserved1": {
        "details": "merkle root of allowed assets definitions. "
      }
    },
    "version": 1
  },
  "userdoc": {
    "kind": "user",
    "methods": {
      "checkUpkeep(bytes)": {
        "notice": "method that is simulated by the keepers to see if any work actually needs to be performed. This method does does not actually need to be executable, and since it is only ever simulated it can consume lots of gas."
      },
      "performUpkeep(bytes)": {
        "notice": "method that is actually executed by the keepers, via the registry. The data returned by the checkUpkeep simulation will be passed into this method to actually be executed."
      }
    },
    "version": 1
  },
  "storageLayout": {
    "storage": [
      {
        "astId": 327,
        "contract": "contracts/dca/CaskDCAManager.sol:CaskDCAManager",
        "label": "_initialized",
        "offset": 0,
        "slot": "0",
        "type": "t_bool"
      },
      {
        "astId": 330,
        "contract": "contracts/dca/CaskDCAManager.sol:CaskDCAManager",
        "label": "_initializing",
        "offset": 1,
        "slot": "0",
        "type": "t_bool"
      },
      {
        "astId": 2551,
        "contract": "contracts/dca/CaskDCAManager.sol:CaskDCAManager",
        "label": "__gap",
        "offset": 0,
        "slot": "1",
        "type": "t_array(t_uint256)50_storage"
      },
      {
        "astId": 205,
        "contract": "contracts/dca/CaskDCAManager.sol:CaskDCAManager",
        "label": "_owner",
        "offset": 0,
        "slot": "51",
        "type": "t_address"
      },
      {
        "astId": 319,
        "contract": "contracts/dca/CaskDCAManager.sol:CaskDCAManager",
        "label": "__gap",
        "offset": 0,
        "slot": "52",
        "type": "t_array(t_uint256)49_storage"
      },
      {
        "astId": 415,
        "contract": "contracts/dca/CaskDCAManager.sol:CaskDCAManager",
        "label": "_paused",
        "offset": 0,
        "slot": "101",
        "type": "t_bool"
      },
      {
        "astId": 506,
        "contract": "contracts/dca/CaskDCAManager.sol:CaskDCAManager",
        "label": "__gap",
        "offset": 0,
        "slot": "102",
        "type": "t_array(t_uint256)49_storage"
      },
      {
        "astId": 521,
        "contract": "contracts/dca/CaskDCAManager.sol:CaskDCAManager",
        "label": "_status",
        "offset": 0,
        "slot": "151",
        "type": "t_uint256"
      },
      {
        "astId": 564,
        "contract": "contracts/dca/CaskDCAManager.sol:CaskDCAManager",
        "label": "__gap",
        "offset": 0,
        "slot": "152",
        "type": "t_array(t_uint256)49_storage"
      },
      {
        "astId": 18015,
        "contract": "contracts/dca/CaskDCAManager.sol:CaskDCAManager",
        "label": "queueBucketSize",
        "offset": 0,
        "slot": "201",
        "type": "t_uint32"
      },
      {
        "astId": 18018,
        "contract": "contracts/dca/CaskDCAManager.sol:CaskDCAManager",
        "label": "maxQueueAge",
        "offset": 4,
        "slot": "201",
        "type": "t_uint32"
      },
      {
        "astId": 18026,
        "contract": "contracts/dca/CaskDCAManager.sol:CaskDCAManager",
        "label": "queue",
        "offset": 0,
        "slot": "202",
        "type": "t_mapping(t_uint8,t_mapping(t_uint32,t_array(t_bytes32)dyn_storage))"
      },
      {
        "astId": 18030,
        "contract": "contracts/dca/CaskDCAManager.sol:CaskDCAManager",
        "label": "queueBucket",
        "offset": 0,
        "slot": "203",
        "type": "t_mapping(t_uint8,t_uint32)"
      },
      {
        "astId": 14276,
        "contract": "contracts/dca/CaskDCAManager.sol:CaskDCAManager",
        "label": "caskDCA",
        "offset": 0,
        "slot": "204",
        "type": "t_contract(ICaskDCA)16485"
      },
      {
        "astId": 14280,
        "contract": "contracts/dca/CaskDCAManager.sol:CaskDCAManager",
        "label": "caskVault",
        "offset": 0,
        "slot": "205",
        "type": "t_contract(ICaskVault)17781"
      },
      {
        "astId": 14283,
        "contract": "contracts/dca/CaskDCAManager.sol:CaskDCAManager",
        "label": "reserved1",
        "offset": 0,
        "slot": "206",
        "type": "t_bytes32"
      },
      {
        "astId": 14288,
        "contract": "contracts/dca/CaskDCAManager.sol:CaskDCAManager",
        "label": "blacklistedAssetspecs",
        "offset": 0,
        "slot": "207",
        "type": "t_mapping(t_bytes32,t_bool)"
      },
      {
        "astId": 14291,
        "contract": "contracts/dca/CaskDCAManager.sol:CaskDCAManager",
        "label": "maxSkips",
        "offset": 0,
        "slot": "208",
        "type": "t_uint256"
      },
      {
        "astId": 14294,
        "contract": "contracts/dca/CaskDCAManager.sol:CaskDCAManager",
        "label": "dcaFeeBps",
        "offset": 0,
        "slot": "209",
        "type": "t_uint256"
      },
      {
        "astId": 14297,
        "contract": "contracts/dca/CaskDCAManager.sol:CaskDCAManager",
        "label": "dcaFeeMin",
        "offset": 0,
        "slot": "210",
        "type": "t_uint256"
      },
      {
        "astId": 14300,
        "contract": "contracts/dca/CaskDCAManager.sol:CaskDCAManager",
        "label": "dcaMinValue",
        "offset": 0,
        "slot": "211",
        "type": "t_uint256"
      },
      {
        "astId": 14303,
        "contract": "contracts/dca/CaskDCAManager.sol:CaskDCAManager",
        "label": "maxPriceFeedAge",
        "offset": 0,
        "slot": "212",
        "type": "t_uint256"
      },
      {
        "astId": 14306,
        "contract": "contracts/dca/CaskDCAManager.sol:CaskDCAManager",
        "label": "feeDistributor",
        "offset": 0,
        "slot": "213",
        "type": "t_address"
      }
    ],
    "types": {
      "t_address": {
        "encoding": "inplace",
        "label": "address",
        "numberOfBytes": "20"
      },
      "t_array(t_bytes32)dyn_storage": {
        "base": "t_bytes32",
        "encoding": "dynamic_array",
        "label": "bytes32[]",
        "numberOfBytes": "32"
      },
      "t_array(t_uint256)49_storage": {
        "base": "t_uint256",
        "encoding": "inplace",
        "label": "uint256[49]",
        "numberOfBytes": "1568"
      },
      "t_array(t_uint256)50_storage": {
        "base": "t_uint256",
        "encoding": "inplace",
        "label": "uint256[50]",
        "numberOfBytes": "1600"
      },
      "t_bool": {
        "encoding": "inplace",
        "label": "bool",
        "numberOfBytes": "1"
      },
      "t_bytes32": {
        "encoding": "inplace",
        "label": "bytes32",
        "numberOfBytes": "32"
      },
      "t_contract(ICaskDCA)16485": {
        "encoding": "inplace",
        "label": "contract ICaskDCA",
        "numberOfBytes": "20"
      },
      "t_contract(ICaskVault)17781": {
        "encoding": "inplace",
        "label": "contract ICaskVault",
        "numberOfBytes": "20"
      },
      "t_mapping(t_bytes32,t_bool)": {
        "encoding": "mapping",
        "key": "t_bytes32",
        "label": "mapping(bytes32 => bool)",
        "numberOfBytes": "32",
        "value": "t_bool"
      },
      "t_mapping(t_uint32,t_array(t_bytes32)dyn_storage)": {
        "encoding": "mapping",
        "key": "t_uint32",
        "label": "mapping(uint32 => bytes32[])",
        "numberOfBytes": "32",
        "value": "t_array(t_bytes32)dyn_storage"
      },
      "t_mapping(t_uint8,t_mapping(t_uint32,t_array(t_bytes32)dyn_storage))": {
        "encoding": "mapping",
        "key": "t_uint8",
        "label": "mapping(uint8 => mapping(uint32 => bytes32[]))",
        "numberOfBytes": "32",
        "value": "t_mapping(t_uint32,t_array(t_bytes32)dyn_storage)"
      },
      "t_mapping(t_uint8,t_uint32)": {
        "encoding": "mapping",
        "key": "t_uint8",
        "label": "mapping(uint8 => uint32)",
        "numberOfBytes": "32",
        "value": "t_uint32"
      },
      "t_uint256": {
        "encoding": "inplace",
        "label": "uint256",
        "numberOfBytes": "32"
      },
      "t_uint32": {
        "encoding": "inplace",
        "label": "uint32",
        "numberOfBytes": "4"
      },
      "t_uint8": {
        "encoding": "inplace",
        "label": "uint8",
        "numberOfBytes": "1"
      }
    }
  }
}