{
  "address": "0x60a75B5B7DCa50ad7E0a27802Dc0f0e676006679",
  "abi": [
    {
      "inputs": [],
      "stateMutability": "nonpayable",
      "type": "constructor"
    },
    {
      "anonymous": false,
      "inputs": [
        {
          "indexed": true,
          "internalType": "address",
          "name": "previousOwner",
          "type": "address"
        },
        {
          "indexed": true,
          "internalType": "address",
          "name": "newOwner",
          "type": "address"
        }
      ],
      "name": "OwnershipTransferred",
      "type": "event"
    },
    {
      "anonymous": false,
      "inputs": [
        {
          "indexed": false,
          "internalType": "address",
          "name": "account",
          "type": "address"
        }
      ],
      "name": "Paused",
      "type": "event"
    },
    {
      "anonymous": false,
      "inputs": [
        {
          "indexed": false,
          "internalType": "uint256",
          "name": "limit",
          "type": "uint256"
        },
        {
          "indexed": false,
          "internalType": "uint256",
          "name": "jobsProcessed",
          "type": "uint256"
        },
        {
          "indexed": false,
          "internalType": "uint256",
          "name": "depth",
          "type": "uint256"
        },
        {
          "indexed": false,
          "internalType": "uint8",
          "name": "queueId",
          "type": "uint8"
        },
        {
          "indexed": false,
          "internalType": "uint256",
          "name": "queueRemaining",
          "type": "uint256"
        },
        {
          "indexed": false,
          "internalType": "uint32",
          "name": "currentBucket",
          "type": "uint32"
        }
      ],
      "name": "QueueRunReport",
      "type": "event"
    },
    {
      "anonymous": false,
      "inputs": [
        {
          "indexed": false,
          "internalType": "address",
          "name": "registry",
          "type": "address"
        }
      ],
      "name": "RegistryAllowed",
      "type": "event"
    },
    {
      "anonymous": false,
      "inputs": [
        {
          "indexed": false,
          "internalType": "address",
          "name": "registry",
          "type": "address"
        }
      ],
      "name": "RegistryDisallowed",
      "type": "event"
    },
    {
      "anonymous": false,
      "inputs": [
        {
          "indexed": false,
          "internalType": "address",
          "name": "feeDistributor",
          "type": "address"
        }
      ],
      "name": "SetFeeDistributor",
      "type": "event"
    },
    {
      "anonymous": false,
      "inputs": [
        {
          "indexed": false,
          "internalType": "address",
          "name": "account",
          "type": "address"
        }
      ],
      "name": "Unpaused",
      "type": "event"
    },
    {
      "anonymous": false,
      "inputs": [
        {
          "indexed": false,
          "internalType": "uint8",
          "name": "queueId",
          "type": "uint8"
        },
        {
          "indexed": false,
          "internalType": "bytes32",
          "name": "workUnit",
          "type": "bytes32"
        }
      ],
      "name": "WorkUnitProcessed",
      "type": "event"
    },
    {
      "anonymous": false,
      "inputs": [
        {
          "indexed": false,
          "internalType": "uint8",
          "name": "queueId",
          "type": "uint8"
        },
        {
          "indexed": false,
          "internalType": "bytes32",
          "name": "workUnit",
          "type": "bytes32"
        },
        {
          "indexed": false,
          "internalType": "uint32",
          "name": "processAt",
          "type": "uint32"
        }
      ],
      "name": "WorkUnitQueued",
      "type": "event"
    },
    {
      "inputs": [
        {
          "internalType": "address",
          "name": "_registry",
          "type": "address"
        }
      ],
      "name": "allowRegistry",
      "outputs": [],
      "stateMutability": "nonpayable",
      "type": "function"
    },
    {
      "inputs": [
        {
          "internalType": "address",
          "name": "",
          "type": "address"
        }
      ],
      "name": "allowedRegistries",
      "outputs": [
        {
          "internalType": "bool",
          "name": "",
          "type": "bool"
        }
      ],
      "stateMutability": "view",
      "type": "function"
    },
    {
      "inputs": [],
      "name": "caskChainlinkTopup",
      "outputs": [
        {
          "internalType": "contract ICaskChainlinkTopup",
          "name": "",
          "type": "address"
        }
      ],
      "stateMutability": "view",
      "type": "function"
    },
    {
      "inputs": [],
      "name": "caskVault",
      "outputs": [
        {
          "internalType": "contract ICaskVault",
          "name": "",
          "type": "address"
        }
      ],
      "stateMutability": "view",
      "type": "function"
    },
    {
      "inputs": [
        {
          "internalType": "bytes",
          "name": "checkData",
          "type": "bytes"
        }
      ],
      "name": "checkUpkeep",
      "outputs": [
        {
          "internalType": "bool",
          "name": "upkeepNeeded",
          "type": "bool"
        },
        {
          "internalType": "bytes",
          "name": "performData",
          "type": "bytes"
        }
      ],
      "stateMutability": "view",
      "type": "function"
    },
    {
      "inputs": [
        {
          "internalType": "address",
          "name": "_registry",
          "type": "address"
        }
      ],
      "name": "disallowRegistry",
      "outputs": [],
      "stateMutability": "nonpayable",
      "type": "function"
    },
    {
      "inputs": [],
      "name": "feeDistributor",
      "outputs": [
        {
          "internalType": "address",
          "name": "",
          "type": "address"
        }
      ],
      "stateMutability": "view",
      "type": "function"
    },
    {
      "inputs": [
        {
          "internalType": "address",
          "name": "_caskChainlinkTopup",
          "type": "address"
        },
        {
          "internalType": "address",
          "name": "_caskVault",
          "type": "address"
        },
        {
          "internalType": "address",
          "name": "_linkBridgeToken",
          "type": "address"
        },
        {
          "internalType": "address",
          "name": "_linkFundingToken",
          "type": "address"
        },
        {
          "internalType": "address",
          "name": "_linkPriceFeed",
          "type": "address"
        },
        {
          "internalType": "address",
          "name": "_linkSwapRouter",
          "type": "address"
        },
        {
          "internalType": "address[]",
          "name": "_linkSwapPath",
          "type": "address[]"
        },
        {
          "internalType": "address",
          "name": "_pegswap",
          "type": "address"
        },
        {
          "internalType": "address",
          "name": "_feeDistributor",
          "type": "address"
        }
      ],
      "name": "initialize",
      "outputs": [],
      "stateMutability": "nonpayable",
      "type": "function"
    },
    {
      "inputs": [],
      "name": "linkBridgeToken",
      "outputs": [
        {
          "internalType": "contract IERC20Metadata",
          "name": "",
          "type": "address"
        }
      ],
      "stateMutability": "view",
      "type": "function"
    },
    {
      "inputs": [],
      "name": "linkFundingToken",
      "outputs": [
        {
          "internalType": "contract LinkTokenInterface",
          "name": "",
          "type": "address"
        }
      ],
      "stateMutability": "view",
      "type": "function"
    },
    {
      "inputs": [],
      "name": "linkPriceFeed",
      "outputs": [
        {
          "internalType": "contract AggregatorV3Interface",
          "name": "",
          "type": "address"
        }
      ],
      "stateMutability": "view",
      "type": "function"
    },
    {
      "inputs": [
        {
          "internalType": "uint256",
          "name": "",
          "type": "uint256"
        }
      ],
      "name": "linkSwapPath",
      "outputs": [
        {
          "internalType": "address",
          "name": "",
          "type": "address"
        }
      ],
      "stateMutability": "view",
      "type": "function"
    },
    {
      "inputs": [],
      "name": "linkSwapRouter",
      "outputs": [
        {
          "internalType": "contract IUniswapV2Router02",
          "name": "",
          "type": "address"
        }
      ],
      "stateMutability": "view",
      "type": "function"
    },
    {
      "inputs": [],
      "name": "maxPriceFeedAge",
      "outputs": [
        {
          "internalType": "uint256",
          "name": "",
          "type": "uint256"
        }
      ],
      "stateMutability": "view",
      "type": "function"
    },
    {
      "inputs": [],
      "name": "maxQueueAge",
      "outputs": [
        {
          "internalType": "uint32",
          "name": "",
          "type": "uint32"
        }
      ],
      "stateMutability": "view",
      "type": "function"
    },
    {
      "inputs": [],
      "name": "maxSkips",
      "outputs": [
        {
          "internalType": "uint256",
          "name": "",
          "type": "uint256"
        }
      ],
      "stateMutability": "view",
      "type": "function"
    },
    {
      "inputs": [],
      "name": "maxSwapSlippageBps",
      "outputs": [
        {
          "internalType": "uint256",
          "name": "",
          "type": "uint256"
        }
      ],
      "stateMutability": "view",
      "type": "function"
    },
    {
      "inputs": [],
      "name": "maxTopupsPerGroupRun",
      "outputs": [
        {
          "internalType": "uint256",
          "name": "",
          "type": "uint256"
        }
      ],
      "stateMutability": "view",
      "type": "function"
    },
    {
      "inputs": [],
      "name": "owner",
      "outputs": [
        {
          "internalType": "address",
          "name": "",
          "type": "address"
        }
      ],
      "stateMutability": "view",
      "type": "function"
    },
    {
      "inputs": [],
      "name": "paused",
      "outputs": [
        {
          "internalType": "bool",
          "name": "",
          "type": "bool"
        }
      ],
      "stateMutability": "view",
      "type": "function"
    },
    {
      "inputs": [],
      "name": "pegswap",
      "outputs": [
        {
          "internalType": "contract IPegSwap",
          "name": "",
          "type": "address"
        }
      ],
      "stateMutability": "view",
      "type": "function"
    },
    {
      "inputs": [
        {
          "internalType": "bytes",
          "name": "performData",
          "type": "bytes"
        }
      ],
      "name": "performUpkeep",
      "outputs": [],
      "stateMutability": "nonpayable",
      "type": "function"
    },
    {
      "inputs": [],
      "name": "queueBucketSize",
      "outputs": [
        {
          "internalType": "uint32",
          "name": "",
          "type": "uint32"
        }
      ],
      "stateMutability": "view",
      "type": "function"
    },
    {
      "inputs": [
        {
          "internalType": "uint8",
          "name": "_queueId",
          "type": "uint8"
        },
        {
          "internalType": "uint32",
          "name": "_bucket",
          "type": "uint32"
        },
        {
          "internalType": "uint256",
          "name": "_idx",
          "type": "uint256"
        }
      ],
      "name": "queueItem",
      "outputs": [
        {
          "internalType": "bytes32",
          "name": "",
          "type": "bytes32"
        }
      ],
      "stateMutability": "view",
      "type": "function"
    },
    {
      "inputs": [
        {
          "internalType": "uint8",
          "name": "_queueId",
          "type": "uint8"
        }
      ],
      "name": "queuePosition",
      "outputs": [
        {
          "internalType": "uint32",
          "name": "",
          "type": "uint32"
        }
      ],
      "stateMutability": "view",
      "type": "function"
    },
    {
      "inputs": [
        {
          "internalType": "uint8",
          "name": "_queueId",
          "type": "uint8"
        },
        {
          "internalType": "uint32",
          "name": "_bucket",
          "type": "uint32"
        }
      ],
      "name": "queueSize",
      "outputs": [
        {
          "internalType": "uint256",
          "name": "",
          "type": "uint256"
        }
      ],
      "stateMutability": "view",
      "type": "function"
    },
    {
      "inputs": [
        {
          "internalType": "address",
          "name": "_asset",
          "type": "address"
        },
        {
          "internalType": "address",
          "name": "_dest",
          "type": "address"
        }
      ],
      "name": "recoverFunds",
      "outputs": [],
      "stateMutability": "nonpayable",
      "type": "function"
    },
    {
      "inputs": [
        {
          "internalType": "bytes32",
          "name": "_chainlinkTopupId",
          "type": "bytes32"
        }
      ],
      "name": "registerChainlinkTopup",
      "outputs": [],
      "stateMutability": "nonpayable",
      "type": "function"
    },
    {
      "inputs": [
        {
          "internalType": "address",
          "name": "_registry",
          "type": "address"
        }
      ],
      "name": "registryAllowed",
      "outputs": [
        {
          "internalType": "bool",
          "name": "",
          "type": "bool"
        }
      ],
      "stateMutability": "view",
      "type": "function"
    },
    {
      "inputs": [],
      "name": "renounceOwnership",
      "outputs": [],
      "stateMutability": "nonpayable",
      "type": "function"
    },
    {
      "inputs": [
        {
          "internalType": "address",
          "name": "_linkBridgeToken",
          "type": "address"
        },
        {
          "internalType": "address",
          "name": "_linkFundingToken",
          "type": "address"
        },
        {
          "internalType": "address",
          "name": "_linkPriceFeed",
          "type": "address"
        },
        {
          "internalType": "address",
          "name": "_linkSwapRouter",
          "type": "address"
        },
        {
          "internalType": "address[]",
          "name": "_linkSwapPath",
          "type": "address[]"
        },
        {
          "internalType": "address",
          "name": "_pegswap",
          "type": "address"
        }
      ],
      "name": "setChainklinkAddresses",
      "outputs": [],
      "stateMutability": "nonpayable",
      "type": "function"
    },
    {
      "inputs": [
        {
          "internalType": "address",
          "name": "_feeDistributor",
          "type": "address"
        }
      ],
      "name": "setFeeDistributor",
      "outputs": [],
      "stateMutability": "nonpayable",
      "type": "function"
    },
    {
      "inputs": [
        {
          "internalType": "uint32",
          "name": "_maxQueueAge",
          "type": "uint32"
        }
      ],
      "name": "setMaxQueueAge",
      "outputs": [],
      "stateMutability": "nonpayable",
      "type": "function"
    },
    {
      "inputs": [
        {
          "internalType": "uint256",
          "name": "_maxSkips",
          "type": "uint256"
        },
        {
          "internalType": "uint256",
          "name": "_topupFeeBps",
          "type": "uint256"
        },
        {
          "internalType": "uint256",
          "name": "_topupFeeMin",
          "type": "uint256"
        },
        {
          "internalType": "uint256",
          "name": "_maxPriceFeedAge",
          "type": "uint256"
        },
        {
          "internalType": "uint256",
          "name": "_maxTopupsPerGroupRun",
          "type": "uint256"
        },
        {
          "internalType": "uint256",
          "name": "_maxSwapSlippageBps",
          "type": "uint256"
        },
        {
          "internalType": "uint32",
          "name": "_queueBucketSize",
          "type": "uint32"
        },
        {
          "internalType": "uint32",
          "name": "_maxQueueAge",
          "type": "uint32"
        }
      ],
      "name": "setParameters",
      "outputs": [],
      "stateMutability": "nonpayable",
      "type": "function"
    },
    {
      "inputs": [
        {
          "internalType": "uint32",
          "name": "_queueBucketSize",
          "type": "uint32"
        }
      ],
      "name": "setQueueBucketSize",
      "outputs": [],
      "stateMutability": "nonpayable",
      "type": "function"
    },
    {
      "inputs": [
        {
          "internalType": "uint8",
          "name": "_queueId",
          "type": "uint8"
        },
        {
          "internalType": "uint32",
          "name": "_timestamp",
          "type": "uint32"
        }
      ],
      "name": "setQueuePosition",
      "outputs": [],
      "stateMutability": "nonpayable",
      "type": "function"
    },
    {
      "inputs": [],
      "name": "topupFeeBps",
      "outputs": [
        {
          "internalType": "uint256",
          "name": "",
          "type": "uint256"
        }
      ],
      "stateMutability": "view",
      "type": "function"
    },
    {
      "inputs": [],
      "name": "topupFeeMin",
      "outputs": [
        {
          "internalType": "uint256",
          "name": "",
          "type": "uint256"
        }
      ],
      "stateMutability": "view",
      "type": "function"
    },
    {
      "inputs": [
        {
          "internalType": "address",
          "name": "newOwner",
          "type": "address"
        }
      ],
      "name": "transferOwnership",
      "outputs": [],
      "stateMutability": "nonpayable",
      "type": "function"
    }
  ],
  "transactionHash": "0x28b023b5dc222734cf2e2b96414baab6af6073f120aaa884cd38da9688007c5d",
  "args": [],
  "numDeployments": 1,
  "solcInputHash": "e4235bfdaef52ff4b9af1299c07264a7",
  "bytecode": "0x60806040523480156200001157600080fd5b50600054610100900460ff166200002f5760005460ff161562000039565b62000039620000de565b620000a15760405162461bcd60e51b815260206004820152602e60248201527f496e697469616c697a61626c653a20636f6e747261637420697320616c72656160448201526d191e481a5b9a5d1a585b1a5e995960921b606482015260840160405180910390fd5b600054610100900460ff16158015620000c4576000805461ffff19166101011790555b8015620000d7576000805461ff00191690555b5062000102565b6000620000f630620000fc60201b620014d11760201c565b15905090565b3b151590565b6147a280620001126000396000f3fe608060405234801561001057600080fd5b506004361061023c5760003560e01c80638bddd2e41161013b578063cd48a614116100b8578063f0f4feb81161007c578063f0f4feb814610521578063f2fde38b14610534578063faec9c2214610547578063fce024001461055a578063ff7137fd1461056d57600080fd5b8063cd48a614146104a9578063d5f59fb9146104bc578063dfd609bb146104e8578063e6cab671146104fb578063f009451e1461050e57600080fd5b8063b95f1624116100ff578063b95f162414610459578063c29c0e9c1461046c578063c506465314610475578063c6f8806c1461047e578063ccfc2e8d1461049657600080fd5b80638bddd2e4146104095780638da5cb5b14610419578063a47755d11461042a578063aa878f761461043d578063b7c3565d1461045057600080fd5b806324ae6a27116101c95780635c975abb1161018d5780635c975abb146103af5780636e04ff0d146103ba578063715018a6146103db578063729d8107146103e357806384b4609f146103f657600080fd5b806324ae6a271461033a5780632f77bb661461034d5780634585e33b146103565780635098c41e146103695780635bd482fd1461037c57600080fd5b80630caae41d116102105780630caae41d146102b05780630d43e8ad146102c357806314fad707146102d6578063191888f6146102e95780631c39033c146102fc57600080fd5b8062912b371461024157806305f2becf1461027157806306cd9e18146102845780630816c84714610299575b600080fd5b60d154610254906001600160a01b031681565b6040516001600160a01b0390911681526020015b60405180910390f35b60cd54610254906001600160a01b031681565b61029761029236600461380b565b610576565b005b6102a260d85481565b604051908152602001610268565b6102976102be366004613849565b610601565b60db54610254906001600160a01b031681565b6102a26102e4366004613882565b610663565b60cf54610254906001600160a01b031681565b61032561030a3660046138c3565b60ff16600090815260cb602052604090205463ffffffff1690565b60405163ffffffff9091168152602001610268565b6102976103483660046138e0565b6106ad565b6102a260d95481565b61029761036436600461390e565b6107db565b6102976103773660046139ca565b610bd3565b61039f61038a36600461380b565b60cc6020526000908152604090205460ff1681565b6040519015158152602001610268565b60655460ff1661039f565b6103cd6103c836600461390e565b610c7c565b604051610268929190613ac3565b610297610dfb565b6102976103f1366004613ade565b610e31565b61029761040436600461380b565b610e83565b60c9546103259063ffffffff1681565b6033546001600160a01b0316610254565b60ce54610254906001600160a01b031681565b6102a261044b366004613849565b610f01565b6102a260da5481565b610254610467366004613afb565b610f2c565b6102a260d65481565b6102a260d55481565b60c95461032590640100000000900463ffffffff1681565b6102976104a436600461380b565b610f56565b6102976104b7366004613ade565b610fce565b61039f6104ca36600461380b565b6001600160a01b0316600090815260cc602052604090205460ff1690565b6102976104f6366004613b14565b611014565b610297610509366004613afb565b611089565b60d454610254906001600160a01b031681565b61029761052f366004613b87565b6112ab565b61029761054236600461380b565b611436565b60d354610254906001600160a01b031681565b60d054610254906001600160a01b031681565b6102a260d75481565b6033546001600160a01b031633146105a95760405162461bcd60e51b81526004016105a090613c61565b60405180910390fd5b6001600160a01b038116600081815260cc6020908152604091829020805460ff1916905590519182527f41ff3cbb6d9f3c743a5fd7b126595848bf20fe04ced3af1bcfc8313f20f925c391015b60405180910390a150565b6033546001600160a01b0316331461062b5760405162461bcd60e51b81526004016105a090613c61565b610634816114d7565b60ff92909216600090815260cb60205260409020805463ffffffff191663ffffffff9093169290921790915550565b60ff8316600090815260ca6020908152604080832063ffffffff86168452909152812080548390811061069857610698613c96565b906000526020600020015490505b9392505050565b6033546001600160a01b031633146106d75760405162461bcd60e51b81526004016105a090613c61565b6040516370a0823160e01b81523060048201526001600160a01b0383169063a9059cbb90839083906370a082319060240160206040518083038186803b15801561072057600080fd5b505afa158015610734573d6000803e3d6000fd5b505050506040513d601f19601f820116820180604052508101906107589190613cac565b6040516001600160e01b031960e085901b1681526001600160a01b0390921660048301526024820152604401602060405180830381600087803b15801561079e57600080fd5b505af11580156107b2573d6000803e3d6000fd5b505050506040513d601f19601f820116820180604052508101906107d69190613cda565b505050565b60655460ff16156108215760405162461bcd60e51b815260206004820152601060248201526f14185d5cd8589b194e881c185d5cd95960821b60448201526064016105a0565b600260975414156108745760405162461bcd60e51b815260206004820152601f60248201527f5265656e7472616e637947756172643a207265656e7472616e742063616c6c0060448201526064016105a0565b60026097556000808061088984860186613cf5565b9250925092506000610899611501565b90506000806108a9866005613d44565b60ff8516600090815260cb602052604090205490915063ffffffff166108ef5760ff8416600090815260cb60205260409020805463ffffffff191663ffffffff85161790555b60ff8416600090815260cb602052604090205463ffffffff808516911611156109475760405162461bcd60e51b815260206004820152600a60248201526921544f4f5f4541524c5960b01b60448201526064016105a0565b85821080156109565750600081115b801561097d575060ff8416600090815260cb602052604090205463ffffffff808516911611155b15610b3c5760ff8416600090815260ca6020908152604080832060cb83528184205463ffffffff1684529091529020548015610aac5760ff8516600090815260ca6020908152604080832060cb83528184205463ffffffff16845290915281206109e8600184613d63565b815481106109f8576109f8613c96565b600091825260208083209091015460ff8916835260ca8252604080842060cb84528185205463ffffffff168552909252912080549192509080610a3d57610a3d613d7a565b60019003818190600052602060002001600090559055610a5d8682611529565b6040805160ff88168152602081018390527f58c7ae721fd25aaf84e68db9ce9ac6fed4f08438a370a4299d19f8c1425c499e910160405180910390a1610aa4600185613d90565b935050610b36565b60ff8516600090815260cb602052604090205463ffffffff80861691161015610b305760c95460ff8616600090815260cb60205260408120805463ffffffff93841693919291610afe91859116613da8565b92506101000a81548163ffffffff021916908363ffffffff160217905550600182610b299190613d63565b9150610b36565b50610b3c565b50610947565b60ff8416600081815260ca6020908152604080832060cb8084528285205463ffffffff168086529184528285205494869052835281518b81529283018790528282018a90526060830194909452608082019290925260a0810192909252517fd69140f88b9a25350749bb371882f4479133fc8b65602aac60f6c1b3598f08329181900360c00190a150506001609755505050505050565b6033546001600160a01b03163314610bfd5760405162461bcd60e51b81526004016105a090613c61565b60cf80546001600160a01b03808a166001600160a01b03199283161790925560d0805489841690831617905560d1805488841690831617905560d3805492871692909116919091179055610c5360d2848461377e565b5060d480546001600160a01b0319166001600160a01b0392909216919091179055505050505050565b60006060818080610c8f86880188613cf5565b9250925092506000610c9f611501565b60ff8316600090815260cb602052604081205490975090915063ffffffff1680610cc65750805b8063ffffffff168263ffffffff1610158015610d01575060c954640100000000900463ffffffff16610cf88284613dd0565b63ffffffff1610155b15610d0f5760019650610d9f565b8163ffffffff168163ffffffff1611610d9f5760ff8316600090815260ca6020908152604080832063ffffffff8516845290915290205415801590610d77575060ff8316600090815260ca6020908152604080832063ffffffff851684529091529020548411155b15610d855760019650610d9f565b60c954610d989063ffffffff1682613da8565b9050610d0f565b60ff8316600081815260ca6020908152604080832063ffffffff86168452825291829020548251918201899052918101919091526060810191909152608001604051602081830303815290604052955050505050509250929050565b6033546001600160a01b03163314610e255760405162461bcd60e51b81526004016105a090613c61565b610e2f6000611657565b565b6033546001600160a01b03163314610e5b5760405162461bcd60e51b81526004016105a090613c61565b60c9805463ffffffff9092166401000000000267ffffffff0000000019909216919091179055565b6033546001600160a01b03163314610ead5760405162461bcd60e51b81526004016105a090613c61565b6001600160a01b038116600081815260cc6020908152604091829020805460ff1916600117905590519182527faa9fd3a8c3d93ebd697846ec56ec5fa196deef170601239a813cae8d80dfcddb91016105f6565b60ff8216600090815260ca6020908152604080832063ffffffff851684529091529020545b92915050565b60d28181548110610f3c57600080fd5b6000918252602090912001546001600160a01b0316905081565b6033546001600160a01b03163314610f805760405162461bcd60e51b81526004016105a090613c61565b60db80546001600160a01b0319166001600160a01b0383169081179091556040519081527f9e9a9a4a82acd1b28aab6bf1d43aad70ae6d290549c0d6183e2e91ebcdf57441906020016105f6565b6033546001600160a01b03163314610ff85760405162461bcd60e51b81526004016105a090613c61565b60c9805463ffffffff191663ffffffff92909216919091179055565b6033546001600160a01b0316331461103e5760405162461bcd60e51b81526004016105a090613c61565b60d59790975560d69590955560d79390935560d89190915560d95560da5560c9805463ffffffff9384166401000000000267ffffffffffffffff199091169390921692909217179055565b600260975414156110dc5760405162461bcd60e51b815260206004820152601f60248201527f5265656e7472616e637947756172643a207265656e7472616e742063616c6c0060448201526064016105a0565b600260975560655460ff16156111275760405162461bcd60e51b815260206004820152601060248201526f14185d5cd8589b194e881c185d5cd95960821b60448201526064016105a0565b60cd5460405163c68f5eb360e01b8152600481018390526000916001600160a01b03169063c68f5eb3906024016101c06040518083038186803b15801561116d57600080fd5b505afa158015611181573d6000803e3d6000fd5b505050506040513d601f19601f820116820180604052508101906111a59190613eab565b905060008160200151116111ef5760405162461bcd60e51b815260206004820152601160248201527021494e56414c49442867726f757049642960781b60448201526064016105a0565b6111f8826116a9565b5060cd54602082015160405163552de85160e11b815260048101919091526000916001600160a01b03169063aa5bd0a29060240160006040518083038186803b15801561124457600080fd5b505afa158015611258573d6000803e3d6000fd5b505050506040513d6000823e601f3d908101601f191682016040526112809190810190613fa6565b805151909150600114156112a1576112a16001836020015160001b426119ab565b5050600160975550565b600054610100900460ff166112c65760005460ff16156112ca565b303b155b61132d5760405162461bcd60e51b815260206004820152602e60248201527f496e697469616c697a61626c653a20636f6e747261637420697320616c72656160448201526d191e481a5b9a5d1a585b1a5e995960921b60648201526084016105a0565b600054610100900460ff1615801561134f576000805461ffff19166101011790555b60cd80546001600160a01b03199081166001600160a01b038e81169190911790925560ce805482168d841617905560cf805482168c841617905560d0805482168b841617905560d1805482168a841617905560d380549091169188169190911790556113bd60d2868661377e565b5060d480546001600160a01b038086166001600160a01b03199283161790925560db805492851692909116919091179055600060d581905560d681905560d781905560d855600160d955606460da5561141761a8c0611a73565b8015611429576000805461ff00191690555b5050505050505050505050565b6033546001600160a01b031633146114605760405162461bcd60e51b81526004016105a090613c61565b6001600160a01b0381166114c55760405162461bcd60e51b815260206004820152602660248201527f4f776e61626c653a206e6577206f776e657220697320746865207a65726f206160448201526564647265737360d01b60648201526084016105a0565b6114ce81611657565b50565b3b151590565b60c95460009063ffffffff166114ed8184614085565b6114f79084613dd0565b610f269190613da8565b60c95460009042906115199063ffffffff1682614085565b6115239082613dd0565b91505090565b60cd5460405163552de85160e11b8152600481018390526000916001600160a01b03169063aa5bd0a29060240160006040518083038186803b15801561156e57600080fd5b505afa158015611582573d6000803e3d6000fd5b505050506040513d6000823e601f3d908101601f191682016040526115aa9190810190613fa6565b8051519091506115b957505050565b6000805b825151811080156115cf575060d95482105b1561161f576115fa836000015182815181106115ed576115ed613c96565b60200260200101516116a9565b1561160d5761160a600183613d90565b91505b80611617816140a8565b9150506115bd565b5081515181101580611632575060d95481105b15611647576116428484426119ab565b611651565b6116518484611abb565b50505050565b603380546001600160a01b038381166001600160a01b0319831681179093556040519116919082907f8be0079c531659141344cd1fd0a4f28419497f9722a3daafe3b4186f6b6457e090600090a35050565b60cd5460405163c68f5eb360e01b81526004810183905260009182916001600160a01b039091169063c68f5eb3906024016101c06040518083038186803b1580156116f357600080fd5b505afa158015611707573d6000803e3d6000fd5b505050506040513d601f19601f8201168201806040525081019061172b9190613eab565b905060018161018001516003811115611746576117466140c3565b146117545750600092915050565b4263ffffffff16816101a0015163ffffffff16106117755750600092915050565b61177e83611b42565b15806117ca57506003816101600151600381111561179e5761179e6140c3565b141580156117ca57506101408101516001600160a01b0316600090815260cc602052604090205460ff16155b1561183d5760cd54604051635ba581cd60e01b81526001600160a01b0390911690635ba581cd906118029086906001906004016140f7565b600060405180830381600087803b15801561181c57600080fd5b505af1158015611830573d6000803e3d6000fd5b5060009695505050505050565b806040015161184b84611d9a565b106118595750600092915050565b600061271060d65483606001516118709190613d44565b61187a9190614114565b905060d75481101561188b575060d7545b6000611897858361204f565b9050801561191d5760cd546060840151604051632d32f27960e21b815260048101889052602481019190915260448101839052606481018490526001600160a01b039091169063b4cbc9e490608401600060405180830381600087803b15801561190057600080fd5b505af1158015611914573d6000803e3d6000fd5b505050506119a0565b600060d554118015611935575060d5548360e0015110155b156119a05760cd54604051635ba581cd60e01b81526001600160a01b0390911690635ba581cd9061196d9088906002906004016140f7565b600060405180830381600087803b15801561198757600080fd5b505af115801561199b573d6000803e3d6000fd5b505050505b506001949350505050565b60006119b6826114d7565b60ff8516600090815260cb602052604090205490915063ffffffff90811690821610156119f8575060ff8316600090815260cb602052604090205463ffffffff165b60ff8416600081815260ca6020908152604080832063ffffffff861680855290835281842080546001810182559085529383902090930187905580519384529083018690528201527f67778e52b18dcf574ab071142a886fce91a8ce5e60e176229fdadb8c063caaed9060600160405180910390a150505050565b600054610100900460ff16611a9a5760405162461bcd60e51b81526004016105a090614128565b611aa2612d83565b611aaa612dba565b611ab2612df1565b6114ce81612e18565b6000611ac5611501565b60ff8416600081815260ca6020908152604080832063ffffffff861680855290835281842080546001810182559085529383902090930187905580519384529083018690528201529091507f67778e52b18dcf574ab071142a886fce91a8ce5e60e176229fdadb8c063caaed9060600160405180910390a1505050565b60cd5460405163c68f5eb360e01b81526004810183905260009182916001600160a01b039091169063c68f5eb3906024016101c06040518083038186803b158015611b8c57600080fd5b505afa158015611ba0573d6000803e3d6000fd5b505050506040513d601f19601f82011682018060405250810190611bc49190613eab565b905060018161016001516003811115611bdf57611bdf6140c3565b1415611c8f576101408101516101208201516040516363e1d0cd60e11b815260048101919091526001600160a01b0382169063c7c3a19a9060240160006040518083038186803b158015611c3257600080fd5b505afa925050508015611c6757506040513d6000823e601f3d908101601f19168201604052611c6491908101906141a1565b60015b611c75575060009392505050565b6001600160401b03908116149a9950505050505050505050565b60028161016001516003811115611ca857611ca86140c3565b1415611d5c5761014081015161012082015160405163523e3b4b60e11b81526001600160401b0390911660048201526001600160a01b0382169063a47c76969060240160006040518083038186803b158015611d0357600080fd5b505afa925050508015611d3857506040513d6000823e601f3d908101601f19168201604052611d35919081019061429f565b60015b611d46575060009392505050565b506001600160a01b031615159695505050505050565b60038161016001516003811115611d7557611d756140c3565b1415611d915761014001516001600160a01b0316151592915050565b50600092915050565b60cd5460405163c68f5eb360e01b81526004810183905260009182916001600160a01b039091169063c68f5eb3906024016101c06040518083038186803b158015611de457600080fd5b505afa158015611df8573d6000803e3d6000fd5b505050506040513d601f19601f82011682018060405250810190611e1c9190613eab565b90506001600160601b0360018261016001516003811115611e3f57611e3f6140c3565b1415611ede576101408201516101208301516040516363e1d0cd60e11b815260048101919091526001600160a01b0382169063c7c3a19a9060240160006040518083038186803b158015611e9257600080fd5b505afa158015611ea6573d6000803e3d6000fd5b505050506040513d6000823e601f3d908101601f19168201604052611ece91908101906141a1565b5091965061203f95505050505050565b60028261016001516003811115611ef757611ef76140c3565b1415611f9b5761014082015161012083015160405163523e3b4b60e11b81526001600160401b0390911660048201526001600160a01b0382169063a47c76969060240160006040518083038186803b158015611f5257600080fd5b505afa158015611f66573d6000803e3d6000fd5b505050506040513d6000823e601f3d908101601f19168201604052611f8e919081019061429f565b5091935061203f92505050565b60038261016001516003811115611fb457611fb46140c3565b141561203f5760d0546101408301516040516370a0823160e01b81526001600160a01b0391821660048201529116906370a082319060240160206040518083038186803b15801561200457600080fd5b505afa158015612018573d6000803e3d6000fd5b505050506040513d601f19601f8201168201806040525081019061203c9190613cac565b90505b6001600160601b03169392505050565b60cd5460405163c68f5eb360e01b81526004810184905260009182916001600160a01b039091169063c68f5eb3906024016101c06040518083038186803b15801561209957600080fd5b505afa1580156120ad573d6000803e3d6000fd5b505050506040513d601f19601f820116820180604052508101906120d19190613eab565b9050600060ce60009054906101000a90046001600160a01b03166001600160a01b0316638d3a4af66040518163ffffffff1660e01b815260040160206040518083038186803b15801561212357600080fd5b505afa158015612137573d6000803e3d6000fd5b505050506040513d601f19601f8201168201806040525081019061215b919061436d565b6040516370a0823160e01b81523060048201526001600160a01b0391909116906370a082319060240160206040518083038186803b15801561219c57600080fd5b505afa1580156121b0573d6000803e3d6000fd5b505050506040513d601f19601f820116820180604052508101906121d49190613cac565b60ce548351606085015160405163fcd6a25b60e01b81526001600160a01b039283166004820152306024820152604481019190915260006064820152929350169063fcd6a25b90608401600060405180830381600087803b15801561223857600080fd5b505af1925050508015612249575060015b612305573d808015612277576040519150601f19603f3d011682016040523d82523d6000602084013e61227c565b606091505b5060cd5460c9546001600160a01b0390911690630d4d98a59088906122a79063ffffffff1642613da8565b60016040518463ffffffff1660e01b81526004016122c79392919061438a565b600060405180830381600087803b1580156122e157600080fd5b505af11580156122f5573d6000803e3d6000fd5b5050505060009350505050610f26565b60ce5460608301516000916001600160a01b03169063e1ded2de9061232b908890613d63565b6040518263ffffffff1660e01b815260040161234991815260200190565b60206040518083038186803b15801561236157600080fd5b505afa158015612375573d6000803e3d6000fd5b505050506040513d601f19601f820116820180604052508101906123999190613cac565b60ce546040516370a0823160e01b81523060048201529192506001600160a01b0316906370a082319060240160206040518083038186803b1580156123dd57600080fd5b505afa1580156123f1573d6000803e3d6000fd5b505050506040513d601f19601f820116820180604052508101906124159190613cac565b81111561249a5760ce546040516370a0823160e01b81523060048201526001600160a01b03909116906370a082319060240160206040518083038186803b15801561245f57600080fd5b505afa158015612473573d6000803e3d6000fd5b505050506040513d601f19601f820116820180604052508101906124979190613cac565b90505b60ce546040805163469d257b60e11b815290516001600160a01b039092169163f3fef3a3918391638d3a4af691600480820192602092909190829003018186803b1580156124e757600080fd5b505afa1580156124fb573d6000803e3d6000fd5b505050506040513d601f19601f8201168201806040525081019061251f919061436d565b6040516001600160e01b031960e084901b1681526001600160a01b03909116600482015260248101849052604401600060405180830381600087803b15801561256757600080fd5b505af115801561257b573d6000803e3d6000fd5b5050505060008260ce60009054906101000a90046001600160a01b03166001600160a01b0316638d3a4af66040518163ffffffff1660e01b815260040160206040518083038186803b1580156125d057600080fd5b505afa1580156125e4573d6000803e3d6000fd5b505050506040513d601f19601f82011682018060405250810190612608919061436d565b6040516370a0823160e01b81523060048201526001600160a01b0391909116906370a082319060240160206040518083038186803b15801561264957600080fd5b505afa15801561265d573d6000803e3d6000fd5b505050506040513d601f19601f820116820180604052508101906126819190613cac565b61268b9190613d63565b9050600081116126d25760405162461bcd60e51b815260206004820152601260248201527121494e56414c494428616d6f756e74496e2960701b60448201526064016105a0565b60d35460ce546040805163469d257b60e11b8152905161276b936001600160a01b03908116938693911691638d3a4af691600480820192602092909190829003018186803b15801561272357600080fd5b505afa158015612737573d6000803e3d6000fd5b505050506040513d601f19601f8201168201806040525081019061275b919061436d565b6001600160a01b03169190612e85565b60d1546000906001600160a01b0316156128e85760ce546040805163469d257b60e11b815290516128be926001600160a01b0316916330b8b2c6918391638d3a4af6916004808301926020929190829003018186803b1580156127cd57600080fd5b505afa1580156127e1573d6000803e3d6000fd5b505050506040513d601f19601f82011682018060405250810190612805919061436d565b6040516001600160e01b031960e084901b1681526001600160a01b03909116600482015260240160c06040518083038186803b15801561284457600080fd5b505afa158015612858573d6000803e3d6000fd5b505050506040513d601f19601f8201168201806040525081019061287c91906143b4565b60d2805461288c90600190613d63565b8154811061289c5761289c613c96565b60009182526020909120015460d1546001600160a01b03918216911685612f68565b905061271060da54826128d19190613d44565b6128db9190614114565b6128e59082613d63565b90505b60d0546040516370a0823160e01b81523060048201526000916001600160a01b0316906370a082319060240160206040518083038186803b15801561292c57600080fd5b505afa158015612940573d6000803e3d6000fd5b505050506040513d601f19601f820116820180604052508101906129649190613cac565b60d3549091506001600160a01b03166338ed1739848460d23061298942610e10613d90565b6040518663ffffffff1660e01b81526004016129a995949392919061444c565b600060405180830381600087803b1580156129c357600080fd5b505af11580156129d7573d6000803e3d6000fd5b505050506040513d6000823e601f3d908101601f191682016040526129ff91908101906144c2565b5060ce5460db546040516370a0823160e01b81523060048201526001600160a01b039283169263a9059cbb92169083906370a082319060240160206040518083038186803b158015612a5057600080fd5b505afa158015612a64573d6000803e3d6000fd5b505050506040513d601f19601f82011682018060405250810190612a889190613cac565b6040516001600160e01b031960e085901b1681526001600160a01b0390921660048301526024820152604401602060405180830381600087803b158015612ace57600080fd5b505af1158015612ae2573d6000803e3d6000fd5b505050506040513d601f19601f82011682018060405250810190612b069190613cda565b5060d4546001600160a01b031615612ce05760cf546040516370a0823160e01b81523060048201526000916001600160a01b0316906370a082319060240160206040518083038186803b158015612b5c57600080fd5b505afa158015612b70573d6000803e3d6000fd5b505050506040513d601f19601f82011682018060405250810190612b949190613cac565b60d45460cf54919250612bb4916001600160a01b03908116911683612e85565b60d45460cf5460d054604051632b7f092360e01b8152600481018590526001600160a01b0392831660248201529082166044820152911690632b7f092390606401600060405180830381600087803b158015612c0f57600080fd5b505af1158015612c23573d6000803e3d6000fd5b505060d0546040516370a0823160e01b81523060048201528493506001600160a01b0390911691506370a082319060240160206040518083038186803b158015612c6c57600080fd5b505afa158015612c80573d6000803e3d6000fd5b505050506040513d601f19601f82011682018060405250810190612ca49190613cac565b1015612cde5760405162461bcd60e51b81526020600482015260096024820152680215045475f535741560bc1b60448201526064016105a0565b505b60d0546040516370a0823160e01b815230600482015260009183916001600160a01b03909116906370a082319060240160206040518083038186803b158015612d2857600080fd5b505afa158015612d3c573d6000803e3d6000fd5b505050506040513d601f19601f82011682018060405250810190612d609190613cac565b612d6a9190613d63565b9050612d768a82613282565b9998505050505050505050565b600054610100900460ff16612daa5760405162461bcd60e51b81526004016105a090614128565b612db2612df1565b610e2f6134cd565b600054610100900460ff16612de15760405162461bcd60e51b81526004016105a090614128565b612de9612df1565b610e2f6134fd565b600054610100900460ff16610e2f5760405162461bcd60e51b81526004016105a090614128565b600054610100900460ff16612e3f5760405162461bcd60e51b81526004016105a090614128565b60c9805463ffffffff191663ffffffff8316908117909155612e62906014614547565b60c960046101000a81548163ffffffff021916908363ffffffff16021790555050565b604051636eb1769f60e11b81523060048201526001600160a01b038381166024830152600091839186169063dd62ed3e9060440160206040518083038186803b158015612ed157600080fd5b505afa158015612ee5573d6000803e3d6000fd5b505050506040513d601f19601f82011682018060405250810190612f099190613cac565b612f139190613d90565b604080516001600160a01b038616602482015260448082018490528251808303909101815260649091019091526020810180516001600160e01b031663095ea7b360e01b179052909150611651908590613530565b600081612f775750600061327a565b6000806000866001600160a01b031663313ce5676040518163ffffffff1660e01b815260040160206040518083038186803b158015612fb557600080fd5b505afa158015612fc9573d6000803e3d6000fd5b505050506040513d601f19601f82011682018060405250810190612fed9190614573565b90506000866001600160a01b031663313ce5676040518163ffffffff1660e01b815260040160206040518083038186803b15801561302a57600080fd5b505afa15801561303e573d6000803e3d6000fd5b505050506040513d601f19601f820116820180604052508101906130629190614573565b905088600001516001600160a01b031663feaf968c6040518163ffffffff1660e01b815260040160a06040518083038186803b1580156130a157600080fd5b505afa1580156130b5573d6000803e3d6000fd5b505050506040513d601f19601f820116820180604052508101906130d991906145aa565b5060d85492975095508692505015806130fd575060d8546130fa8542613d63565b11155b61313b5760405162461bcd60e51b815260206004820152600f60248201526e0854149250d157d3d5551110551151608a1b60448201526064016105a0565b876001600160a01b031663feaf968c6040518163ffffffff1660e01b815260040160a06040518083038186803b15801561317457600080fd5b505afa158015613188573d6000803e3d6000fd5b505050506040513d601f19601f820116820180604052508101906131ac91906145aa565b5060d85492985096508792505015806131d0575060d8546131cd8642613d63565b11155b61320e5760405162461bcd60e51b815260206004820152600f60248201526e0854149250d157d3d5551110551151608a1b60448201526064016105a0565b8260ff168b6080015160ff16146132695761322a818486613602565b613239838d6080015187613602565b6132488a8e6060015188613602565b6132529190613d44565b61325c9190614114565b965050505050505061327a565b80826132488a8e6060015188613602565b949350505050565b60cd5460405163c68f5eb360e01b8152600481018490526000916001600160a01b03169063c68f5eb3906024016101c06040518083038186803b1580156132c857600080fd5b505afa1580156132dc573d6000803e3d6000fd5b505050506040513d601f19601f820116820180604052508101906133009190613eab565b90506001816101600151600381111561331b5761331b6140c3565b14156133d25760d0546101408201516101208301516040805160208101929092526001600160a01b0390931692634000aea092918691015b6040516020818303038152906040526040518463ffffffff1660e01b8152600401613380939291906145fa565b602060405180830381600087803b15801561339a57600080fd5b505af11580156133ae573d6000803e3d6000fd5b505050506040513d601f19601f820116820180604052508101906116519190613cda565b600281610160015160038111156133eb576133eb6140c3565b141561342f5760d054610140820151610120830151604080516001600160401b0390921660208301526001600160a01b0390931692634000aea09291869101613353565b60038161016001516003811115613448576134486140c3565b14156107d6576101208101511561348f5760d0546101408201516101208301516040805160208101929092526001600160a01b0390931692634000aea09291869101613353565b60d05461014082015160405163a9059cbb60e01b81526001600160a01b0391821660048201526024810185905291169063a9059cbb90604401613380565b600054610100900460ff166134f45760405162461bcd60e51b81526004016105a090614128565b610e2f33611657565b600054610100900460ff166135245760405162461bcd60e51b81526004016105a090614128565b6065805460ff19169055565b6000613585826040518060400160405280602081526020017f5361666545524332303a206c6f772d6c6576656c2063616c6c206661696c6564815250856001600160a01b03166136739092919063ffffffff16565b8051909150156107d657808060200190518101906135a39190613cda565b6107d65760405162461bcd60e51b815260206004820152602a60248201527f5361666545524332303a204552433230206f7065726174696f6e20646964206e6044820152691bdd081cdd58d8d9595960b21b60648201526084016105a0565b60008160ff168360ff16101561363b5761361c838361462a565b61362a9060ff16600a614731565b6136349085613d44565b90506106a6565b8160ff168360ff16111561366b57613653828461462a565b6136619060ff16600a614731565b6136349085614114565b509192915050565b606061327a848460008585843b6136cc5760405162461bcd60e51b815260206004820152601d60248201527f416464726573733a2063616c6c20746f206e6f6e2d636f6e747261637400000060448201526064016105a0565b600080866001600160a01b031685876040516136e8919061473d565b60006040518083038185875af1925050503d8060008114613725576040519150601f19603f3d011682016040523d82523d6000602084013e61372a565b606091505b509150915061373a828286613745565b979650505050505050565b606083156137545750816106a6565b8251156137645782518084602001fd5b8160405162461bcd60e51b81526004016105a09190614759565b8280548282559060005260206000209081019282156137d1579160200282015b828111156137d15781546001600160a01b0319166001600160a01b0384351617825560209092019160019091019061379e565b506137dd9291506137e1565b5090565b5b808211156137dd57600081556001016137e2565b6001600160a01b03811681146114ce57600080fd5b60006020828403121561381d57600080fd5b81356106a6816137f6565b60ff811681146114ce57600080fd5b63ffffffff811681146114ce57600080fd5b6000806040838503121561385c57600080fd5b823561386781613828565b9150602083013561387781613837565b809150509250929050565b60008060006060848603121561389757600080fd5b83356138a281613828565b925060208401356138b281613837565b929592945050506040919091013590565b6000602082840312156138d557600080fd5b81356106a681613828565b600080604083850312156138f357600080fd5b82356138fe816137f6565b91506020830135613877816137f6565b6000806020838503121561392157600080fd5b82356001600160401b038082111561393857600080fd5b818501915085601f83011261394c57600080fd5b81358181111561395b57600080fd5b86602082850101111561396d57600080fd5b60209290920196919550909350505050565b60008083601f84011261399157600080fd5b5081356001600160401b038111156139a857600080fd5b6020830191508360208260051b85010111156139c357600080fd5b9250929050565b600080600080600080600060c0888a0312156139e557600080fd5b87356139f0816137f6565b96506020880135613a00816137f6565b95506040880135613a10816137f6565b94506060880135613a20816137f6565b935060808801356001600160401b03811115613a3b57600080fd5b613a478a828b0161397f565b90945092505060a0880135613a5b816137f6565b8091505092959891949750929550565b60005b83811015613a86578181015183820152602001613a6e565b838111156116515750506000910152565b60008151808452613aaf816020860160208601613a6b565b601f01601f19169290920160200192915050565b821515815260406020820152600061327a6040830184613a97565b600060208284031215613af057600080fd5b81356106a681613837565b600060208284031215613b0d57600080fd5b5035919050565b600080600080600080600080610100898b031215613b3157600080fd5b883597506020890135965060408901359550606089013594506080890135935060a0890135925060c0890135613b6681613837565b915060e0890135613b7681613837565b809150509295985092959890939650565b6000806000806000806000806000806101208b8d031215613ba757600080fd5b8a35613bb2816137f6565b995060208b0135613bc2816137f6565b985060408b0135613bd2816137f6565b975060608b0135613be2816137f6565b965060808b0135613bf2816137f6565b955060a08b0135613c02816137f6565b945060c08b01356001600160401b03811115613c1d57600080fd5b613c298d828e0161397f565b90955093505060e08b0135613c3d816137f6565b91506101008b0135613c4e816137f6565b809150509295989b9194979a5092959850565b6020808252818101527f4f776e61626c653a2063616c6c6572206973206e6f7420746865206f776e6572604082015260600190565b634e487b7160e01b600052603260045260246000fd5b600060208284031215613cbe57600080fd5b5051919050565b80518015158114613cd557600080fd5b919050565b600060208284031215613cec57600080fd5b6106a682613cc5565b600080600060608486031215613d0a57600080fd5b83359250602084013591506040840135613d2381613828565b809150509250925092565b634e487b7160e01b600052601160045260246000fd5b6000816000190483118215151615613d5e57613d5e613d2e565b500290565b600082821015613d7557613d75613d2e565b500390565b634e487b7160e01b600052603160045260246000fd5b60008219821115613da357613da3613d2e565b500190565b600063ffffffff808316818516808303821115613dc757613dc7613d2e565b01949350505050565b600063ffffffff83811690831681811015613ded57613ded613d2e565b039392505050565b634e487b7160e01b600052604160045260246000fd5b6040516101c081016001600160401b0381118282101715613e2e57613e2e613df5565b60405290565b604051602081016001600160401b0381118282101715613e2e57613e2e613df5565b604051601f8201601f191681016001600160401b0381118282101715613e7e57613e7e613df5565b604052919050565b8051613cd5816137f6565b8051613cd581613837565b805160048110613cd557600080fd5b60006101c08284031215613ebe57600080fd5b613ec6613e0b565b613ecf83613e86565b81526020830151602082015260408301516040820152606083015160608201526080830151608082015260a083015160a082015260c083015160c082015260e083015160e0820152610100613f25818501613e91565b908201526101208381015190820152610140613f42818501613e86565b90820152610160613f54848201613e9c565b90820152610180613f66848201613e9c565b908201526101a0613f78848201613e91565b908201529392505050565b60006001600160401b03821115613f9c57613f9c613df5565b5060051b60200190565b60006020808385031215613fb957600080fd5b82516001600160401b0380821115613fd057600080fd5b8185019150828287031215613fe457600080fd5b613fec613e34565b825182811115613ffb57600080fd5b80840193505086601f84011261401057600080fd5b8251915061402561402083613f83565b613e56565b82815260059290921b8301840191848101908884111561404457600080fd5b938501935b8385101561406257845182529385019390850190614049565b8252509695505050505050565b634e487b7160e01b600052601260045260246000fd5b600063ffffffff8084168061409c5761409c61406f565b92169190910692915050565b60006000198214156140bc576140bc613d2e565b5060010190565b634e487b7160e01b600052602160045260246000fd5b600381106114ce57634e487b7160e01b600052602160045260246000fd5b82815260408101614107836140d9565b8260208301529392505050565b6000826141235761412361406f565b500490565b6020808252602b908201527f496e697469616c697a61626c653a20636f6e7472616374206973206e6f74206960408201526a6e697469616c697a696e6760a81b606082015260800190565b80516001600160601b0381168114613cd557600080fd5b80516001600160401b0381168114613cd557600080fd5b600080600080600080600060e0888a0312156141bc57600080fd5b87516141c7816137f6565b60208901519097506141d881613837565b60408901519096506001600160401b03808211156141f557600080fd5b818a0191508a601f83011261420957600080fd5b81518181111561421b5761421b613df5565b61422e601f8201601f1916602001613e56565b91508082528b602082850101111561424557600080fd5b614256816020840160208601613a6b565b509550614267905060608901614173565b935061427560808901613e86565b925061428360a08901613e86565b915061429160c0890161418a565b905092959891949750929550565b600080600080608085870312156142b557600080fd5b6142be85614173565b935060206142cd81870161418a565b935060408601516142dd816137f6565b60608701519093506001600160401b038111156142f957600080fd5b8601601f8101881361430a57600080fd5b805161431861402082613f83565b81815260059190911b8201830190838101908a83111561433757600080fd5b928401925b8284101561435e57835161434f816137f6565b8252928401929084019061433c565b979a9699509497505050505050565b60006020828403121561437f57600080fd5b81516106a6816137f6565b83815263ffffffff83166020820152606081016143a6836140d9565b826040830152949350505050565b600060c082840312156143c657600080fd5b60405160c081018181106001600160401b03821117156143e8576143e8613df5565b60405282516143f6816137f6565b808252506020830151602082015260408301516040820152606083015161441c81613828565b6060820152608083015161442f81613828565b608082015261444060a08401613cc5565b60a08201529392505050565b600060a082018783526020878185015260a0604085015281875480845260c0860191508860005282600020935060005b818110156144a15784546001600160a01b03168352600194850194928401920161447c565b50506001600160a01b03969096166060850152505050608001529392505050565b600060208083850312156144d557600080fd5b82516001600160401b038111156144eb57600080fd5b8301601f810185136144fc57600080fd5b805161450a61402082613f83565b81815260059190911b8201830190838101908783111561452957600080fd5b928401925b8284101561373a5783518252928401929084019061452e565b600063ffffffff8083168185168183048111821515161561456a5761456a613d2e565b02949350505050565b60006020828403121561458557600080fd5b81516106a681613828565b805169ffffffffffffffffffff81168114613cd557600080fd5b600080600080600060a086880312156145c257600080fd5b6145cb86614590565b94506020860151935060408601519250606086015191506145ee60808701614590565b90509295509295909350565b60018060a01b03841681528260208201526060604082015260006146216060830184613a97565b95945050505050565b600060ff821660ff84168082101561464457614644613d2e565b90039392505050565b600181815b8085111561468857816000190482111561466e5761466e613d2e565b8085161561467b57918102915b93841c9390800290614652565b509250929050565b60008261469f57506001610f26565b816146ac57506000610f26565b81600181146146c257600281146146cc576146e8565b6001915050610f26565b60ff8411156146dd576146dd613d2e565b50506001821b610f26565b5060208310610133831016604e8410600b841016171561470b575081810a610f26565b614715838361464d565b806000190482111561472957614729613d2e565b029392505050565b60006106a68383614690565b6000825161474f818460208701613a6b565b9190910192915050565b6020815260006106a66020830184613a9756fea2646970667358221220ce2b4e6a7a118e0e8a90af90f4d2faa0de0a0e4a099d1418b5a2c4bcd481b06664736f6c63430008090033",
  "devdoc": {
    "kind": "dev",
    "methods": {
      "checkUpkeep(bytes)": {
        "details": "To ensure that it is never called, you may want to add the cannotExecute modifier from KeeperBase to your implementation of this method.",
        "params": {
          "checkData": "specified in the upkeep registration so it is always the same for a registered upkeep. This can easilly be broken down into specific arguments using `abi.decode`, so multiple upkeeps can be registered on the same contract and easily differentiated by the contract."
        },
        "returns": {
          "performData": "bytes that the keeper should call performUpkeep with, if upkeep is needed. If you would like to encode data to decode later, try `abi.encode`.",
          "upkeepNeeded": "boolean to indicate whether the keeper should call performUpkeep or not."
        }
      },
      "constructor": {
        "custom:oz-upgrades-unsafe-allow": "constructor"
      },
      "owner()": {
        "details": "Returns the address of the current owner."
      },
      "paused()": {
        "details": "Returns true if the contract is paused, and false otherwise."
      },
      "performUpkeep(bytes)": {
        "details": "The input to this method should not be trusted, and the caller of the method should not even be restricted to any single registry. Anyone should be able call it, and the input should be validated, there is no guarantee that the data passed in is the performData returned from checkUpkeep. This could happen due to malicious keepers, racing keepers, or simply a state change while the performUpkeep transaction is waiting for confirmation. Always validate the data passed in.",
        "params": {
          "performData": "is the data which was passed back from the checkData simulation. If it is encoded, it can easily be decoded into other types by calling `abi.decode`. This data should not be trusted, and should be validated against the contract's current state."
        }
      },
      "renounceOwnership()": {
        "details": "Leaves the contract without owner. It will not be possible to call `onlyOwner` functions anymore. Can only be called by the current owner. NOTE: Renouncing ownership will leave the contract without an owner, thereby removing any functionality that is only available to the owner."
      },
      "transferOwnership(address)": {
        "details": "Transfers ownership of the contract to a new account (`newOwner`). Can only be called by the current owner."
      }
    },
    "stateVariables": {
      "allowedRegistries": {
        "details": "map of registries address that are allowed "
      },
      "caskChainlinkTopup": {
        "details": "Pointer to CaskChainlinkTopup contract "
      },
      "caskVault": {
        "details": "vault to use for ChainlinkTopup funding. "
      },
      "feeDistributor": {
        "details": "Address to receive DCA fees. "
      },
      "maxPriceFeedAge": {
        "details": "max allowable age for price feed data. "
      },
      "maxSkips": {
        "details": "max number of failed ChainlinkTopup purchases before ChainlinkTopup is permanently canceled. "
      },
      "maxSwapSlippageBps": {
        "details": "max slippage allowed when buying LINK on the DEX for a topup. "
      },
      "maxTopupsPerGroupRun": {
        "details": "max number of topups to do per each run of a group. "
      },
      "topupFeeBps": {
        "details": "ChainlinkTopup transaction fee bps and min. "
      }
    },
    "version": 1
  },
  "userdoc": {
    "kind": "user",
    "methods": {
      "checkUpkeep(bytes)": {
        "notice": "method that is simulated by the keepers to see if any work actually needs to be performed. This method does does not actually need to be executable, and since it is only ever simulated it can consume lots of gas."
      },
      "performUpkeep(bytes)": {
        "notice": "method that is actually executed by the keepers, via the registry. The data returned by the checkUpkeep simulation will be passed into this method to actually be executed."
      }
    },
    "version": 1
  },
  "storageLayout": {
    "storage": [
      {
        "astId": 327,
        "contract": "contracts/chainlink_topup/CaskChainlinkTopupManager.sol:CaskChainlinkTopupManager",
        "label": "_initialized",
        "offset": 0,
        "slot": "0",
        "type": "t_bool"
      },
      {
        "astId": 330,
        "contract": "contracts/chainlink_topup/CaskChainlinkTopupManager.sol:CaskChainlinkTopupManager",
        "label": "_initializing",
        "offset": 1,
        "slot": "0",
        "type": "t_bool"
      },
      {
        "astId": 2551,
        "contract": "contracts/chainlink_topup/CaskChainlinkTopupManager.sol:CaskChainlinkTopupManager",
        "label": "__gap",
        "offset": 0,
        "slot": "1",
        "type": "t_array(t_uint256)50_storage"
      },
      {
        "astId": 205,
        "contract": "contracts/chainlink_topup/CaskChainlinkTopupManager.sol:CaskChainlinkTopupManager",
        "label": "_owner",
        "offset": 0,
        "slot": "51",
        "type": "t_address"
      },
      {
        "astId": 319,
        "contract": "contracts/chainlink_topup/CaskChainlinkTopupManager.sol:CaskChainlinkTopupManager",
        "label": "__gap",
        "offset": 0,
        "slot": "52",
        "type": "t_array(t_uint256)49_storage"
      },
      {
        "astId": 415,
        "contract": "contracts/chainlink_topup/CaskChainlinkTopupManager.sol:CaskChainlinkTopupManager",
        "label": "_paused",
        "offset": 0,
        "slot": "101",
        "type": "t_bool"
      },
      {
        "astId": 506,
        "contract": "contracts/chainlink_topup/CaskChainlinkTopupManager.sol:CaskChainlinkTopupManager",
        "label": "__gap",
        "offset": 0,
        "slot": "102",
        "type": "t_array(t_uint256)49_storage"
      },
      {
        "astId": 521,
        "contract": "contracts/chainlink_topup/CaskChainlinkTopupManager.sol:CaskChainlinkTopupManager",
        "label": "_status",
        "offset": 0,
        "slot": "151",
        "type": "t_uint256"
      },
      {
        "astId": 564,
        "contract": "contracts/chainlink_topup/CaskChainlinkTopupManager.sol:CaskChainlinkTopupManager",
        "label": "__gap",
        "offset": 0,
        "slot": "152",
        "type": "t_array(t_uint256)49_storage"
      },
      {
        "astId": 17750,
        "contract": "contracts/chainlink_topup/CaskChainlinkTopupManager.sol:CaskChainlinkTopupManager",
        "label": "queueBucketSize",
        "offset": 0,
        "slot": "201",
        "type": "t_uint32"
      },
      {
        "astId": 17753,
        "contract": "contracts/chainlink_topup/CaskChainlinkTopupManager.sol:CaskChainlinkTopupManager",
        "label": "maxQueueAge",
        "offset": 4,
        "slot": "201",
        "type": "t_uint32"
      },
      {
        "astId": 17761,
        "contract": "contracts/chainlink_topup/CaskChainlinkTopupManager.sol:CaskChainlinkTopupManager",
        "label": "queue",
        "offset": 0,
        "slot": "202",
        "type": "t_mapping(t_uint8,t_mapping(t_uint32,t_array(t_bytes32)dyn_storage))"
      },
      {
        "astId": 17765,
        "contract": "contracts/chainlink_topup/CaskChainlinkTopupManager.sol:CaskChainlinkTopupManager",
        "label": "queueBucket",
        "offset": 0,
        "slot": "203",
        "type": "t_mapping(t_uint8,t_uint32)"
      },
      {
        "astId": 9736,
        "contract": "contracts/chainlink_topup/CaskChainlinkTopupManager.sol:CaskChainlinkTopupManager",
        "label": "allowedRegistries",
        "offset": 0,
        "slot": "204",
        "type": "t_mapping(t_address,t_bool)"
      },
      {
        "astId": 9740,
        "contract": "contracts/chainlink_topup/CaskChainlinkTopupManager.sol:CaskChainlinkTopupManager",
        "label": "caskChainlinkTopup",
        "offset": 0,
        "slot": "205",
        "type": "t_contract(ICaskChainlinkTopup)11484"
      },
      {
        "astId": 9744,
        "contract": "contracts/chainlink_topup/CaskChainlinkTopupManager.sol:CaskChainlinkTopupManager",
        "label": "caskVault",
        "offset": 0,
        "slot": "206",
        "type": "t_contract(ICaskVault)17727"
      },
      {
        "astId": 9747,
        "contract": "contracts/chainlink_topup/CaskChainlinkTopupManager.sol:CaskChainlinkTopupManager",
        "label": "linkBridgeToken",
        "offset": 0,
        "slot": "207",
        "type": "t_contract(IERC20Metadata)4344"
      },
      {
        "astId": 9750,
        "contract": "contracts/chainlink_topup/CaskChainlinkTopupManager.sol:CaskChainlinkTopupManager",
        "label": "linkFundingToken",
        "offset": 0,
        "slot": "208",
        "type": "t_contract(LinkTokenInterface)11621"
      },
      {
        "astId": 9753,
        "contract": "contracts/chainlink_topup/CaskChainlinkTopupManager.sol:CaskChainlinkTopupManager",
        "label": "linkPriceFeed",
        "offset": 0,
        "slot": "209",
        "type": "t_contract(AggregatorV3Interface)45"
      },
      {
        "astId": 9756,
        "contract": "contracts/chainlink_topup/CaskChainlinkTopupManager.sol:CaskChainlinkTopupManager",
        "label": "linkSwapPath",
        "offset": 0,
        "slot": "210",
        "type": "t_array(t_address)dyn_storage"
      },
      {
        "astId": 9759,
        "contract": "contracts/chainlink_topup/CaskChainlinkTopupManager.sol:CaskChainlinkTopupManager",
        "label": "linkSwapRouter",
        "offset": 0,
        "slot": "211",
        "type": "t_contract(IUniswapV2Router02)8425"
      },
      {
        "astId": 9762,
        "contract": "contracts/chainlink_topup/CaskChainlinkTopupManager.sol:CaskChainlinkTopupManager",
        "label": "pegswap",
        "offset": 0,
        "slot": "212",
        "type": "t_contract(IPegSwap)11526"
      },
      {
        "astId": 9765,
        "contract": "contracts/chainlink_topup/CaskChainlinkTopupManager.sol:CaskChainlinkTopupManager",
        "label": "maxSkips",
        "offset": 0,
        "slot": "213",
        "type": "t_uint256"
      },
      {
        "astId": 9768,
        "contract": "contracts/chainlink_topup/CaskChainlinkTopupManager.sol:CaskChainlinkTopupManager",
        "label": "topupFeeBps",
        "offset": 0,
        "slot": "214",
        "type": "t_uint256"
      },
      {
        "astId": 9770,
        "contract": "contracts/chainlink_topup/CaskChainlinkTopupManager.sol:CaskChainlinkTopupManager",
        "label": "topupFeeMin",
        "offset": 0,
        "slot": "215",
        "type": "t_uint256"
      },
      {
        "astId": 9773,
        "contract": "contracts/chainlink_topup/CaskChainlinkTopupManager.sol:CaskChainlinkTopupManager",
        "label": "maxPriceFeedAge",
        "offset": 0,
        "slot": "216",
        "type": "t_uint256"
      },
      {
        "astId": 9776,
        "contract": "contracts/chainlink_topup/CaskChainlinkTopupManager.sol:CaskChainlinkTopupManager",
        "label": "maxTopupsPerGroupRun",
        "offset": 0,
        "slot": "217",
        "type": "t_uint256"
      },
      {
        "astId": 9779,
        "contract": "contracts/chainlink_topup/CaskChainlinkTopupManager.sol:CaskChainlinkTopupManager",
        "label": "maxSwapSlippageBps",
        "offset": 0,
        "slot": "218",
        "type": "t_uint256"
      },
      {
        "astId": 9782,
        "contract": "contracts/chainlink_topup/CaskChainlinkTopupManager.sol:CaskChainlinkTopupManager",
        "label": "feeDistributor",
        "offset": 0,
        "slot": "219",
        "type": "t_address"
      }
    ],
    "types": {
      "t_address": {
        "encoding": "inplace",
        "label": "address",
        "numberOfBytes": "20"
      },
      "t_array(t_address)dyn_storage": {
        "base": "t_address",
        "encoding": "dynamic_array",
        "label": "address[]",
        "numberOfBytes": "32"
      },
      "t_array(t_bytes32)dyn_storage": {
        "base": "t_bytes32",
        "encoding": "dynamic_array",
        "label": "bytes32[]",
        "numberOfBytes": "32"
      },
      "t_array(t_uint256)49_storage": {
        "base": "t_uint256",
        "encoding": "inplace",
        "label": "uint256[49]",
        "numberOfBytes": "1568"
      },
      "t_array(t_uint256)50_storage": {
        "base": "t_uint256",
        "encoding": "inplace",
        "label": "uint256[50]",
        "numberOfBytes": "1600"
      },
      "t_bool": {
        "encoding": "inplace",
        "label": "bool",
        "numberOfBytes": "1"
      },
      "t_bytes32": {
        "encoding": "inplace",
        "label": "bytes32",
        "numberOfBytes": "32"
      },
      "t_contract(AggregatorV3Interface)45": {
        "encoding": "inplace",
        "label": "contract AggregatorV3Interface",
        "numberOfBytes": "20"
      },
      "t_contract(ICaskChainlinkTopup)11484": {
        "encoding": "inplace",
        "label": "contract ICaskChainlinkTopup",
        "numberOfBytes": "20"
      },
      "t_contract(ICaskVault)17727": {
        "encoding": "inplace",
        "label": "contract ICaskVault",
        "numberOfBytes": "20"
      },
      "t_contract(IERC20Metadata)4344": {
        "encoding": "inplace",
        "label": "contract IERC20Metadata",
        "numberOfBytes": "20"
      },
      "t_contract(IPegSwap)11526": {
        "encoding": "inplace",
        "label": "contract IPegSwap",
        "numberOfBytes": "20"
      },
      "t_contract(IUniswapV2Router02)8425": {
        "encoding": "inplace",
        "label": "contract IUniswapV2Router02",
        "numberOfBytes": "20"
      },
      "t_contract(LinkTokenInterface)11621": {
        "encoding": "inplace",
        "label": "contract LinkTokenInterface",
        "numberOfBytes": "20"
      },
      "t_mapping(t_address,t_bool)": {
        "encoding": "mapping",
        "key": "t_address",
        "label": "mapping(address => bool)",
        "numberOfBytes": "32",
        "value": "t_bool"
      },
      "t_mapping(t_uint32,t_array(t_bytes32)dyn_storage)": {
        "encoding": "mapping",
        "key": "t_uint32",
        "label": "mapping(uint32 => bytes32[])",
        "numberOfBytes": "32",
        "value": "t_array(t_bytes32)dyn_storage"
      },
      "t_mapping(t_uint8,t_mapping(t_uint32,t_array(t_bytes32)dyn_storage))": {
        "encoding": "mapping",
        "key": "t_uint8",
        "label": "mapping(uint8 => mapping(uint32 => bytes32[]))",
        "numberOfBytes": "32",
        "value": "t_mapping(t_uint32,t_array(t_bytes32)dyn_storage)"
      },
      "t_mapping(t_uint8,t_uint32)": {
        "encoding": "mapping",
        "key": "t_uint8",
        "label": "mapping(uint8 => uint32)",
        "numberOfBytes": "32",
        "value": "t_uint32"
      },
      "t_uint256": {
        "encoding": "inplace",
        "label": "uint256",
        "numberOfBytes": "32"
      },
      "t_uint32": {
        "encoding": "inplace",
        "label": "uint32",
        "numberOfBytes": "4"
      },
      "t_uint8": {
        "encoding": "inplace",
        "label": "uint8",
        "numberOfBytes": "1"
      }
    }
  }
}