{
  "address": "0x429063DD558aabb29F0a2b65501EAF7E9AAbc417",
  "abi": [
    {
      "inputs": [],
      "stateMutability": "nonpayable",
      "type": "constructor"
    },
    {
      "anonymous": false,
      "inputs": [
        {
          "indexed": true,
          "internalType": "address",
          "name": "strategy",
          "type": "address"
        },
        {
          "indexed": true,
          "internalType": "address",
          "name": "asset",
          "type": "address"
        },
        {
          "indexed": false,
          "internalType": "uint256",
          "name": "assetAmount",
          "type": "uint256"
        }
      ],
      "name": "AllocatedToStrategy",
      "type": "event"
    },
    {
      "anonymous": false,
      "inputs": [
        {
          "indexed": true,
          "internalType": "address",
          "name": "asset",
          "type": "address"
        }
      ],
      "name": "AllowedAsset",
      "type": "event"
    },
    {
      "anonymous": false,
      "inputs": [
        {
          "indexed": true,
          "internalType": "address",
          "name": "owner",
          "type": "address"
        },
        {
          "indexed": true,
          "internalType": "address",
          "name": "spender",
          "type": "address"
        },
        {
          "indexed": false,
          "internalType": "uint256",
          "name": "value",
          "type": "uint256"
        }
      ],
      "name": "Approval",
      "type": "event"
    },
    {
      "anonymous": false,
      "inputs": [
        {
          "indexed": true,
          "internalType": "address",
          "name": "participant",
          "type": "address"
        },
        {
          "indexed": true,
          "internalType": "address",
          "name": "asset",
          "type": "address"
        },
        {
          "indexed": false,
          "internalType": "uint256",
          "name": "assetAmount",
          "type": "uint256"
        },
        {
          "indexed": false,
          "internalType": "uint256",
          "name": "baseAssetAmount",
          "type": "uint256"
        },
        {
          "indexed": false,
          "internalType": "uint256",
          "name": "shares",
          "type": "uint256"
        }
      ],
      "name": "AssetDeposited",
      "type": "event"
    },
    {
      "anonymous": false,
      "inputs": [
        {
          "indexed": true,
          "internalType": "address",
          "name": "participant",
          "type": "address"
        },
        {
          "indexed": true,
          "internalType": "address",
          "name": "asset",
          "type": "address"
        },
        {
          "indexed": false,
          "internalType": "uint256",
          "name": "assetAmount",
          "type": "uint256"
        },
        {
          "indexed": false,
          "internalType": "uint256",
          "name": "baseAssetAmount",
          "type": "uint256"
        },
        {
          "indexed": false,
          "internalType": "uint256",
          "name": "shares",
          "type": "uint256"
        }
      ],
      "name": "AssetWithdrawn",
      "type": "event"
    },
    {
      "anonymous": false,
      "inputs": [
        {
          "indexed": true,
          "internalType": "address",
          "name": "asset",
          "type": "address"
        }
      ],
      "name": "DisallowedAsset",
      "type": "event"
    },
    {
      "anonymous": false,
      "inputs": [
        {
          "indexed": true,
          "internalType": "address",
          "name": "previousOwner",
          "type": "address"
        },
        {
          "indexed": true,
          "internalType": "address",
          "name": "newOwner",
          "type": "address"
        }
      ],
      "name": "OwnershipTransferred",
      "type": "event"
    },
    {
      "anonymous": false,
      "inputs": [
        {
          "indexed": false,
          "internalType": "address",
          "name": "account",
          "type": "address"
        }
      ],
      "name": "Paused",
      "type": "event"
    },
    {
      "anonymous": false,
      "inputs": [
        {
          "indexed": true,
          "internalType": "address",
          "name": "from",
          "type": "address"
        },
        {
          "indexed": true,
          "internalType": "address",
          "name": "to",
          "type": "address"
        },
        {
          "indexed": false,
          "internalType": "uint256",
          "name": "baseAssetAmount",
          "type": "uint256"
        },
        {
          "indexed": false,
          "internalType": "uint256",
          "name": "shares",
          "type": "uint256"
        },
        {
          "indexed": false,
          "internalType": "uint256",
          "name": "protocolFee",
          "type": "uint256"
        },
        {
          "indexed": false,
          "internalType": "uint256",
          "name": "protocolFeeShares",
          "type": "uint256"
        },
        {
          "indexed": true,
          "internalType": "address",
          "name": "network",
          "type": "address"
        },
        {
          "indexed": false,
          "internalType": "uint256",
          "name": "networkFee",
          "type": "uint256"
        },
        {
          "indexed": false,
          "internalType": "uint256",
          "name": "networkFeeShares",
          "type": "uint256"
        }
      ],
      "name": "Payment",
      "type": "event"
    },
    {
      "anonymous": false,
      "inputs": [
        {
          "indexed": true,
          "internalType": "address",
          "name": "from",
          "type": "address"
        },
        {
          "indexed": true,
          "internalType": "address",
          "name": "to",
          "type": "address"
        },
        {
          "indexed": false,
          "internalType": "uint256",
          "name": "value",
          "type": "uint256"
        }
      ],
      "name": "Transfer",
      "type": "event"
    },
    {
      "anonymous": false,
      "inputs": [
        {
          "indexed": true,
          "internalType": "address",
          "name": "from",
          "type": "address"
        },
        {
          "indexed": true,
          "internalType": "address",
          "name": "to",
          "type": "address"
        },
        {
          "indexed": false,
          "internalType": "uint256",
          "name": "baseAssetAmount",
          "type": "uint256"
        },
        {
          "indexed": false,
          "internalType": "uint256",
          "name": "shares",
          "type": "uint256"
        }
      ],
      "name": "TransferValue",
      "type": "event"
    },
    {
      "anonymous": false,
      "inputs": [
        {
          "indexed": false,
          "internalType": "address",
          "name": "account",
          "type": "address"
        }
      ],
      "name": "Unpaused",
      "type": "event"
    },
    {
      "inputs": [
        {
          "internalType": "address",
          "name": "_protocol",
          "type": "address"
        }
      ],
      "name": "addProtocol",
      "outputs": [],
      "stateMutability": "nonpayable",
      "type": "function"
    },
    {
      "inputs": [
        {
          "internalType": "address",
          "name": "_strategy",
          "type": "address"
        },
        {
          "internalType": "address",
          "name": "_asset",
          "type": "address"
        },
        {
          "internalType": "uint256",
          "name": "_assetAmount",
          "type": "uint256"
        }
      ],
      "name": "allocateToStrategy",
      "outputs": [],
      "stateMutability": "nonpayable",
      "type": "function"
    },
    {
      "inputs": [
        {
          "internalType": "address",
          "name": "_asset",
          "type": "address"
        },
        {
          "internalType": "address",
          "name": "_priceFeed",
          "type": "address"
        },
        {
          "internalType": "uint256",
          "name": "_depositLimit",
          "type": "uint256"
        },
        {
          "internalType": "uint256",
          "name": "_slippageBps",
          "type": "uint256"
        }
      ],
      "name": "allowAsset",
      "outputs": [],
      "stateMutability": "nonpayable",
      "type": "function"
    },
    {
      "inputs": [
        {
          "internalType": "address",
          "name": "owner",
          "type": "address"
        },
        {
          "internalType": "address",
          "name": "spender",
          "type": "address"
        }
      ],
      "name": "allowance",
      "outputs": [
        {
          "internalType": "uint256",
          "name": "",
          "type": "uint256"
        }
      ],
      "stateMutability": "view",
      "type": "function"
    },
    {
      "inputs": [
        {
          "internalType": "address",
          "name": "spender",
          "type": "address"
        },
        {
          "internalType": "uint256",
          "name": "amount",
          "type": "uint256"
        }
      ],
      "name": "approve",
      "outputs": [
        {
          "internalType": "bool",
          "name": "",
          "type": "bool"
        }
      ],
      "stateMutability": "nonpayable",
      "type": "function"
    },
    {
      "inputs": [
        {
          "internalType": "address",
          "name": "account",
          "type": "address"
        }
      ],
      "name": "balanceOf",
      "outputs": [
        {
          "internalType": "uint256",
          "name": "",
          "type": "uint256"
        }
      ],
      "stateMutability": "view",
      "type": "function"
    },
    {
      "inputs": [],
      "name": "baseAsset",
      "outputs": [
        {
          "internalType": "address",
          "name": "",
          "type": "address"
        }
      ],
      "stateMutability": "view",
      "type": "function"
    },
    {
      "inputs": [
        {
          "internalType": "address",
          "name": "_fromAsset",
          "type": "address"
        },
        {
          "internalType": "address",
          "name": "_toAsset",
          "type": "address"
        },
        {
          "internalType": "uint256",
          "name": "_fromAmount",
          "type": "uint256"
        }
      ],
      "name": "convertPrice",
      "outputs": [
        {
          "internalType": "uint256",
          "name": "",
          "type": "uint256"
        }
      ],
      "stateMutability": "view",
      "type": "function"
    },
    {
      "inputs": [
        {
          "internalType": "address",
          "name": "_address",
          "type": "address"
        }
      ],
      "name": "currentValueOf",
      "outputs": [
        {
          "internalType": "uint256",
          "name": "",
          "type": "uint256"
        }
      ],
      "stateMutability": "view",
      "type": "function"
    },
    {
      "inputs": [],
      "name": "decimals",
      "outputs": [
        {
          "internalType": "uint8",
          "name": "",
          "type": "uint8"
        }
      ],
      "stateMutability": "view",
      "type": "function"
    },
    {
      "inputs": [
        {
          "internalType": "address",
          "name": "spender",
          "type": "address"
        },
        {
          "internalType": "uint256",
          "name": "subtractedValue",
          "type": "uint256"
        }
      ],
      "name": "decreaseAllowance",
      "outputs": [
        {
          "internalType": "bool",
          "name": "",
          "type": "bool"
        }
      ],
      "stateMutability": "nonpayable",
      "type": "function"
    },
    {
      "inputs": [
        {
          "internalType": "address",
          "name": "_asset",
          "type": "address"
        },
        {
          "internalType": "uint256",
          "name": "_assetAmount",
          "type": "uint256"
        }
      ],
      "name": "deposit",
      "outputs": [],
      "stateMutability": "nonpayable",
      "type": "function"
    },
    {
      "inputs": [
        {
          "internalType": "address",
          "name": "_to",
          "type": "address"
        },
        {
          "internalType": "address",
          "name": "_asset",
          "type": "address"
        },
        {
          "internalType": "uint256",
          "name": "_assetAmount",
          "type": "uint256"
        }
      ],
      "name": "depositTo",
      "outputs": [],
      "stateMutability": "nonpayable",
      "type": "function"
    },
    {
      "inputs": [
        {
          "internalType": "address",
          "name": "_asset",
          "type": "address"
        }
      ],
      "name": "disallowAsset",
      "outputs": [],
      "stateMutability": "nonpayable",
      "type": "function"
    },
    {
      "inputs": [],
      "name": "feeDistributor",
      "outputs": [
        {
          "internalType": "address",
          "name": "",
          "type": "address"
        }
      ],
      "stateMutability": "view",
      "type": "function"
    },
    {
      "inputs": [],
      "name": "getAllAssets",
      "outputs": [
        {
          "internalType": "address[]",
          "name": "",
          "type": "address[]"
        }
      ],
      "stateMutability": "view",
      "type": "function"
    },
    {
      "inputs": [
        {
          "internalType": "address",
          "name": "_asset",
          "type": "address"
        }
      ],
      "name": "getAsset",
      "outputs": [
        {
          "components": [
            {
              "internalType": "address",
              "name": "priceFeed",
              "type": "address"
            },
            {
              "internalType": "uint256",
              "name": "slippageBps",
              "type": "uint256"
            },
            {
              "internalType": "uint256",
              "name": "depositLimit",
              "type": "uint256"
            },
            {
              "internalType": "uint8",
              "name": "assetDecimals",
              "type": "uint8"
            },
            {
              "internalType": "uint8",
              "name": "priceFeedDecimals",
              "type": "uint8"
            },
            {
              "internalType": "bool",
              "name": "allowed",
              "type": "bool"
            }
          ],
          "internalType": "struct ICaskVault.Asset",
          "name": "",
          "type": "tuple"
        }
      ],
      "stateMutability": "view",
      "type": "function"
    },
    {
      "inputs": [],
      "name": "getBaseAsset",
      "outputs": [
        {
          "internalType": "address",
          "name": "",
          "type": "address"
        }
      ],
      "stateMutability": "view",
      "type": "function"
    },
    {
      "inputs": [
        {
          "internalType": "address",
          "name": "spender",
          "type": "address"
        },
        {
          "internalType": "uint256",
          "name": "addedValue",
          "type": "uint256"
        }
      ],
      "name": "increaseAllowance",
      "outputs": [
        {
          "internalType": "bool",
          "name": "",
          "type": "bool"
        }
      ],
      "stateMutability": "nonpayable",
      "type": "function"
    },
    {
      "inputs": [
        {
          "internalType": "address",
          "name": "_vaultManager",
          "type": "address"
        },
        {
          "internalType": "address",
          "name": "_baseAsset",
          "type": "address"
        },
        {
          "internalType": "address",
          "name": "_baseAssetPriceFeed",
          "type": "address"
        },
        {
          "internalType": "address",
          "name": "_feeDistributor",
          "type": "address"
        }
      ],
      "name": "initialize",
      "outputs": [],
      "stateMutability": "nonpayable",
      "type": "function"
    },
    {
      "inputs": [
        {
          "internalType": "address",
          "name": "forwarder",
          "type": "address"
        }
      ],
      "name": "isTrustedForwarder",
      "outputs": [
        {
          "internalType": "bool",
          "name": "",
          "type": "bool"
        }
      ],
      "stateMutability": "view",
      "type": "function"
    },
    {
      "inputs": [],
      "name": "name",
      "outputs": [
        {
          "internalType": "string",
          "name": "",
          "type": "string"
        }
      ],
      "stateMutability": "view",
      "type": "function"
    },
    {
      "inputs": [],
      "name": "owner",
      "outputs": [
        {
          "internalType": "address",
          "name": "",
          "type": "address"
        }
      ],
      "stateMutability": "view",
      "type": "function"
    },
    {
      "inputs": [],
      "name": "pause",
      "outputs": [],
      "stateMutability": "nonpayable",
      "type": "function"
    },
    {
      "inputs": [],
      "name": "paused",
      "outputs": [
        {
          "internalType": "bool",
          "name": "",
          "type": "bool"
        }
      ],
      "stateMutability": "view",
      "type": "function"
    },
    {
      "inputs": [],
      "name": "pricePerShare",
      "outputs": [
        {
          "internalType": "uint256",
          "name": "",
          "type": "uint256"
        }
      ],
      "stateMutability": "view",
      "type": "function"
    },
    {
      "inputs": [],
      "name": "protocolCount",
      "outputs": [
        {
          "internalType": "uint256",
          "name": "",
          "type": "uint256"
        }
      ],
      "stateMutability": "view",
      "type": "function"
    },
    {
      "inputs": [
        {
          "internalType": "address",
          "name": "_from",
          "type": "address"
        },
        {
          "internalType": "address",
          "name": "_to",
          "type": "address"
        },
        {
          "internalType": "uint256",
          "name": "_value",
          "type": "uint256"
        },
        {
          "internalType": "uint256",
          "name": "_protocolFee",
          "type": "uint256"
        },
        {
          "internalType": "address",
          "name": "_network",
          "type": "address"
        },
        {
          "internalType": "uint256",
          "name": "_networkFee",
          "type": "uint256"
        }
      ],
      "name": "protocolPayment",
      "outputs": [],
      "stateMutability": "nonpayable",
      "type": "function"
    },
    {
      "inputs": [
        {
          "internalType": "address",
          "name": "_from",
          "type": "address"
        },
        {
          "internalType": "address",
          "name": "_to",
          "type": "address"
        },
        {
          "internalType": "uint256",
          "name": "_value",
          "type": "uint256"
        }
      ],
      "name": "protocolPayment",
      "outputs": [],
      "stateMutability": "nonpayable",
      "type": "function"
    },
    {
      "inputs": [
        {
          "internalType": "address",
          "name": "_from",
          "type": "address"
        },
        {
          "internalType": "address",
          "name": "_to",
          "type": "address"
        },
        {
          "internalType": "uint256",
          "name": "_value",
          "type": "uint256"
        },
        {
          "internalType": "uint256",
          "name": "_protocolFee",
          "type": "uint256"
        }
      ],
      "name": "protocolPayment",
      "outputs": [],
      "stateMutability": "nonpayable",
      "type": "function"
    },
    {
      "inputs": [
        {
          "internalType": "uint256",
          "name": "",
          "type": "uint256"
        }
      ],
      "name": "protocols",
      "outputs": [
        {
          "internalType": "address",
          "name": "",
          "type": "address"
        }
      ],
      "stateMutability": "view",
      "type": "function"
    },
    {
      "inputs": [
        {
          "internalType": "address",
          "name": "_protocol",
          "type": "address"
        }
      ],
      "name": "removeProtocol",
      "outputs": [],
      "stateMutability": "nonpayable",
      "type": "function"
    },
    {
      "inputs": [],
      "name": "renounceOwnership",
      "outputs": [],
      "stateMutability": "nonpayable",
      "type": "function"
    },
    {
      "inputs": [
        {
          "internalType": "address",
          "name": "_feeDistributor",
          "type": "address"
        }
      ],
      "name": "setFeeDistributor",
      "outputs": [],
      "stateMutability": "nonpayable",
      "type": "function"
    },
    {
      "inputs": [
        {
          "internalType": "address",
          "name": "_vaultManager",
          "type": "address"
        }
      ],
      "name": "setManager",
      "outputs": [],
      "stateMutability": "nonpayable",
      "type": "function"
    },
    {
      "inputs": [
        {
          "internalType": "address",
          "name": "_forwarder",
          "type": "address"
        }
      ],
      "name": "setTrustedForwarder",
      "outputs": [],
      "stateMutability": "nonpayable",
      "type": "function"
    },
    {
      "inputs": [
        {
          "internalType": "address",
          "name": "_asset",
          "type": "address"
        }
      ],
      "name": "supportsAsset",
      "outputs": [
        {
          "internalType": "bool",
          "name": "",
          "type": "bool"
        }
      ],
      "stateMutability": "view",
      "type": "function"
    },
    {
      "inputs": [],
      "name": "symbol",
      "outputs": [
        {
          "internalType": "string",
          "name": "",
          "type": "string"
        }
      ],
      "stateMutability": "view",
      "type": "function"
    },
    {
      "inputs": [
        {
          "internalType": "address",
          "name": "_asset",
          "type": "address"
        }
      ],
      "name": "totalAssetBalance",
      "outputs": [
        {
          "internalType": "uint256",
          "name": "",
          "type": "uint256"
        }
      ],
      "stateMutability": "view",
      "type": "function"
    },
    {
      "inputs": [],
      "name": "totalSupply",
      "outputs": [
        {
          "internalType": "uint256",
          "name": "",
          "type": "uint256"
        }
      ],
      "stateMutability": "view",
      "type": "function"
    },
    {
      "inputs": [],
      "name": "totalValue",
      "outputs": [
        {
          "internalType": "uint256",
          "name": "",
          "type": "uint256"
        }
      ],
      "stateMutability": "view",
      "type": "function"
    },
    {
      "inputs": [
        {
          "internalType": "address",
          "name": "recipient",
          "type": "address"
        },
        {
          "internalType": "uint256",
          "name": "amount",
          "type": "uint256"
        }
      ],
      "name": "transfer",
      "outputs": [
        {
          "internalType": "bool",
          "name": "",
          "type": "bool"
        }
      ],
      "stateMutability": "nonpayable",
      "type": "function"
    },
    {
      "inputs": [
        {
          "internalType": "address",
          "name": "sender",
          "type": "address"
        },
        {
          "internalType": "address",
          "name": "recipient",
          "type": "address"
        },
        {
          "internalType": "uint256",
          "name": "amount",
          "type": "uint256"
        }
      ],
      "name": "transferFrom",
      "outputs": [
        {
          "internalType": "bool",
          "name": "",
          "type": "bool"
        }
      ],
      "stateMutability": "nonpayable",
      "type": "function"
    },
    {
      "inputs": [
        {
          "internalType": "address",
          "name": "newOwner",
          "type": "address"
        }
      ],
      "name": "transferOwnership",
      "outputs": [],
      "stateMutability": "nonpayable",
      "type": "function"
    },
    {
      "inputs": [
        {
          "internalType": "address",
          "name": "_recipient",
          "type": "address"
        },
        {
          "internalType": "uint256",
          "name": "_value",
          "type": "uint256"
        }
      ],
      "name": "transferValue",
      "outputs": [
        {
          "internalType": "bool",
          "name": "",
          "type": "bool"
        }
      ],
      "stateMutability": "nonpayable",
      "type": "function"
    },
    {
      "inputs": [
        {
          "internalType": "address",
          "name": "_sender",
          "type": "address"
        },
        {
          "internalType": "address",
          "name": "_recipient",
          "type": "address"
        },
        {
          "internalType": "uint256",
          "name": "_value",
          "type": "uint256"
        }
      ],
      "name": "transferValueFrom",
      "outputs": [
        {
          "internalType": "bool",
          "name": "",
          "type": "bool"
        }
      ],
      "stateMutability": "nonpayable",
      "type": "function"
    },
    {
      "inputs": [],
      "name": "trustedForwarder",
      "outputs": [
        {
          "internalType": "address",
          "name": "",
          "type": "address"
        }
      ],
      "stateMutability": "view",
      "type": "function"
    },
    {
      "inputs": [],
      "name": "unpause",
      "outputs": [],
      "stateMutability": "nonpayable",
      "type": "function"
    },
    {
      "inputs": [],
      "name": "vaultManager",
      "outputs": [
        {
          "internalType": "address",
          "name": "",
          "type": "address"
        }
      ],
      "stateMutability": "view",
      "type": "function"
    },
    {
      "inputs": [],
      "name": "versionRecipient",
      "outputs": [
        {
          "internalType": "string",
          "name": "",
          "type": "string"
        }
      ],
      "stateMutability": "pure",
      "type": "function"
    },
    {
      "inputs": [
        {
          "internalType": "address",
          "name": "_asset",
          "type": "address"
        },
        {
          "internalType": "uint256",
          "name": "_shares",
          "type": "uint256"
        }
      ],
      "name": "withdraw",
      "outputs": [],
      "stateMutability": "nonpayable",
      "type": "function"
    },
    {
      "inputs": [
        {
          "internalType": "address",
          "name": "_recipient",
          "type": "address"
        },
        {
          "internalType": "address",
          "name": "_asset",
          "type": "address"
        },
        {
          "internalType": "uint256",
          "name": "_shares",
          "type": "uint256"
        }
      ],
      "name": "withdrawTo",
      "outputs": [],
      "stateMutability": "nonpayable",
      "type": "function"
    }
  ],
  "transactionHash": "0x711f43b9a3b4f64b43a798ab7604453bef3c4a2e1fba8945f658fd4d6d85110e",
  "args": [],
  "numDeployments": 1,
  "solcInputHash": "9d9eaf1e993d8c09d4a86290d89d30a0",
  "bytecode": "0x60806040523480156200001157600080fd5b50600054610100900460ff166200002f5760005460ff161562000039565b62000039620000de565b620000a15760405162461bcd60e51b815260206004820152602e60248201527f496e697469616c697a61626c653a20636f6e747261637420697320616c72656160448201526d191e481a5b9a5d1a585b1a5e995960921b606482015260840160405180910390fd5b600054610100900460ff16158015620000c4576000805461ffff19166101011790555b8015620000d7576000805461ff00191690555b5062000102565b6000620000f630620000fc60201b6200200f1760201c565b15905090565b3b151590565b613d8180620001126000396000f3fe608060405234801561001057600080fd5b506004361061030c5760003560e01c80637da0a8771161019d578063ccfc2e8d116100e9578063e2eed04f116100a2578063f2fde38b1161007c578063f2fde38b146107ee578063f3fef3a314610801578063f8c8765e14610814578063fcd6a25b1461082757600080fd5b8063e2eed04f146107bf578063e5130322146107c8578063f213159c146107db57600080fd5b8063ccfc2e8d14610732578063cdf456e114610745578063d0ebdbe714610758578063d4c3eea01461076b578063da74222814610773578063dd62ed3e1461078657600080fd5b80638e3e580d11610156578063a457c2d711610130578063a457c2d7146106c3578063a9059cbb146106d6578063aa388af6146106e9578063c3b35a7e1461071f57600080fd5b80638e3e580d146106a057806395d89b41146106b357806399530b06146106bb57600080fd5b80637da0a8771461063f5780638456cb59146106505780638a4adf24146106585780638c3962201461066b5780638d3a4af61461067e5780638da5cb5b1461068f57600080fd5b80633f4ba83a1161025c578063597435cb1161021557806370a08231116101ef57806370a08231146105e8578063715018a614610611578063771d4c281461061957806379b2125f1461062c57600080fd5b8063597435cb146105b75780635a4161ff146105ca5780635c975abb146105dd57600080fd5b80633f4ba83a1461053357806347e7ef241461053b578063486ff0cd1461054e5780634bb846e11461056f5780635517575d14610582578063572b6c051461059557600080fd5b80631e377d39116102c95780632acada4d116102a35780632acada4d146103f057806330b8b2c614610405578063313ce56714610511578063395093511461052057600080fd5b80631e377d39146103b75780632298d849146103ca57806323b872dd146103dd57600080fd5b806306fdde031461031157806308751b181461032f578063095ea7b3146103525780630d43e8ad1461036557806318160ddd1461039057806318ff5768146103a2575b600080fd5b61031961083a565b604051610326919061369f565b60405180910390f35b61034261033d3660046136e9565b6108cc565b6040519015158152602001610326565b610342610360366004613725565b6109c3565b60fe54610378906001600160a01b031681565b6040516001600160a01b039091168152602001610326565b6036545b604051908152602001610326565b6103b56103b036600461374f565b6109e1565b005b6103b56103c536600461376a565b610b50565b6103b56103d836600461374f565b610f12565b6103426103eb3660046136e9565b611010565b6103f86110a2565b60405161032691906137ac565b6104b561041336600461374f565b6040805160c081018252600080825260208201819052918101829052606081018290526080810182905260a0810191909152506001600160a01b03908116600090815260ff6020818152604092839020835160c08101855281549095168552600181015491850191909152600281015492840192909252600390910154808216606084015261010081048216608084015262010000900416151560a082015290565b6040516103269190600060c08201905060018060a01b038351168252602083015160208301526040830151604083015260ff606084015116606083015260ff608084015116608083015260a0830151151560a083015292915050565b60405160128152602001610326565b61034261052e366004613725565b611104565b6103b5611158565b6103b5610549366004613725565b6111ab565b6040805180820190915260058152640322e322e360dc1b6020820152610319565b61039461057d3660046136e9565b6111ee565b61039461059036600461374f565b611203565b6103426105a336600461374f565b6033546001600160a01b0391821691161490565b6103946105c536600461374f565b61120e565b6103426105d8366004613725565b611235565b60985460ff16610342565b6103946105f636600461374f565b6001600160a01b031660009081526034602052604090205490565b6103b56112eb565b6103b561062736600461374f565b61133e565b6103b561063a3660046137f9565b6113da565b6033546001600160a01b0316610378565b6103b56114a6565b60fc54610378906001600160a01b031681565b610378610679366004613858565b6114f7565b60fd546001600160a01b0316610378565b6066546001600160a01b0316610378565b6103b56106ae3660046136e9565b611522565b6103196115ed565b6103946115fc565b6103426106d1366004613725565b611631565b6103426106e4366004613725565b6116e8565b6103426106f736600461374f565b6001600160a01b0316600090815260ff60208190526040909120600301546201000090041690565b6103b561072d3660046136e9565b6116fc565b6103b561074036600461374f565b611739565b60fd54610378906001600160a01b031681565b6103b561076636600461374f565b6117a4565b61039461180f565b6103b561078136600461374f565b611819565b610394610794366004613871565b6001600160a01b03918216600090815260356020908152604080832093909416825291909152205490565b61010154610394565b6103b56107d63660046136e9565b611883565b6103b56107e93660046136e9565b6119b4565b6103b56107fc36600461374f565b6119e7565b6103b561080f366004613725565b611a9e565b6103b56108223660046138a4565b611ad8565b6103b561083536600461376a565b611f44565b606060378054610849906138f8565b80601f0160208091040260200160405190810160405280929190818152602001828054610875906138f8565b80156108c25780601f10610897576101008083540402835291602001916108c2565b820191906000526020600020905b8154815290600101906020018083116108a557829003601f168201915b5050505050905090565b6000600260ca5414156108fa5760405162461bcd60e51b81526004016108f19061392d565b60405180910390fd5b600260ca55600061090a83612015565b905061091785858361204f565b600061092586610794612216565b9050818110156109475760405162461bcd60e51b81526004016108f190613964565b61095b86610953612216565b848403612220565b846001600160a01b0316866001600160a01b03167fc8cf4e5d87b5b4ffb59d20991b0840a27d2227ee272dae54bacf0f4b4184bf7786856040516109a9929190918252602082015260400190565b60405180910390a3600192505050600160ca559392505050565b60006109d76109d0612216565b8484612220565b5060015b92915050565b6109e9612216565b6001600160a01b0316610a046066546001600160a01b031690565b6001600160a01b031614610a2a5760405162461bcd60e51b81526004016108f1906139ac565b6101015460005b61010154811015610a8f57826001600160a01b03166101018281548110610a5a57610a5a6139e1565b6000918252602090912001546001600160a01b03161415610a7d57809150610a8f565b80610a8781613a0d565b915050610a31565b5061010154811015610b4c576101018054610aac90600190613a28565b81548110610abc57610abc6139e1565b60009182526020909120015461010180546001600160a01b039092169183908110610ae957610ae96139e1565b9060005260206000200160006101000a8154816001600160a01b0302191690836001600160a01b03160217905550610101805480610b2957610b29613a3f565b600082815260209020810160001990810180546001600160a01b03191690550190555b5050565b610b58612216565b6001600160a01b0316610b736066546001600160a01b031690565b6001600160a01b031614610b995760405162461bcd60e51b81526004016108f1906139ac565b6000846001600160a01b031663313ce5676040518163ffffffff1660e01b815260040160206040518083038186803b158015610bd457600080fd5b505afa158015610be8573d6000803e3d6000fd5b505050506040513d601f19601f82011682018060405250810190610c0c9190613a55565b60ff1611610c4e5760405162461bcd60e51b815260206004820152600f60248201526e21494e56414c49442861737365742960881b60448201526064016108f1565b6000836001600160a01b031663313ce5676040518163ffffffff1660e01b815260040160206040518083038186803b158015610c8957600080fd5b505afa158015610c9d573d6000803e3d6000fd5b505050506040513d601f19601f82011682018060405250810190610cc19190613a55565b60ff1611610d075760405162461bcd60e51b815260206004820152601360248201527221494e56414c4944287072696365466565642960681b60448201526064016108f1565b6001600160a01b038416600090815260ff602081905260409091206003810154909116610d7b5761010080546001810182556000919091527f45e010b9ae401e2eb71529478da8bd513a9bdc2d095a111e324f5b95c09ed87b0180546001600160a01b0319166001600160a01b0387161790555b60038101805462ff000019166201000017905580546001600160a01b038086166001600160a01b031990921691909117825560028201849055600182018390556040805163313ce56760e01b815290519187169163313ce56791600480820192602092909190829003018186803b158015610df557600080fd5b505afa158015610e09573d6000803e3d6000fd5b505050506040513d601f19601f82011682018060405250810190610e2d9190613a55565b8160030160006101000a81548160ff021916908360ff160217905550836001600160a01b031663313ce5676040518163ffffffff1660e01b815260040160206040518083038186803b158015610e8257600080fd5b505afa158015610e96573d6000803e3d6000fd5b505050506040513d601f19601f82011682018060405250810190610eba9190613a55565b60038201805460ff929092166101000261ff00199092169190911790556040516001600160a01b038616907f06a94869c30cb7089f57f8d4a5ff251ac74a8c2bc361e7f91bda209898de8ead90600090a25050505050565b610f1a612216565b6001600160a01b0316610f356066546001600160a01b031690565b6001600160a01b031614610f5b5760405162461bcd60e51b81526004016108f1906139ac565b6001600160a01b038116600090815260ff602081905260409091206003015462010000900416610fc25760405162461bcd60e51b8152602060048201526012602482015271085054d4d15517d393d517d0531313d5d15160721b60448201526064016108f1565b6001600160a01b038116600081815260ff6020526040808220600301805462ff000019169055517f0a8090b3b8835c60a03ebb0cc69833b4359a1924917dbc2e80bb4516428da0a39190a250565b600061101d84848461204f565b6001600160a01b03841660009081526035602052604081208161103e612216565b6001600160a01b03166001600160a01b03168152602001908152602001600020549050828110156110815760405162461bcd60e51b81526004016108f190613964565b6110958561108d612216565b858403612220565b60019150505b9392505050565b60606101008054806020026020016040519081016040528092919081815260200182805480156108c257602002820191906000526020600020905b81546001600160a01b031681526001909101906020018083116110dd575050505050905090565b60006109d7611111612216565b84846035600061111f612216565b6001600160a01b03908116825260208083019390935260409182016000908120918b16815292529020546111539190613a78565b612220565b611160612216565b6001600160a01b031661117b6066546001600160a01b031690565b6001600160a01b0316146111a15760405162461bcd60e51b81526004016108f1906139ac565b6111a9612344565b565b600260ca5414156111ce5760405162461bcd60e51b81526004016108f19061392d565b600260ca556111e56111de612216565b83836123dd565b5050600160ca55565b60006111fb84848461256c565b949350505050565b60006109db8261294b565b6001600160a01b0381166000908152603460205260408120546109db90612a4a565b612a4a565b6000600260ca54141561125a5760405162461bcd60e51b81526004016108f19061392d565b600260ca55600061126a83612015565b905061127e611277612216565b858361204f565b836001600160a01b0316611290612216565b6001600160a01b03167fc8cf4e5d87b5b4ffb59d20991b0840a27d2227ee272dae54bacf0f4b4184bf7785846040516112d3929190918252602082015260400190565b60405180910390a36001915050600160ca5592915050565b6112f3612216565b6001600160a01b031661130e6066546001600160a01b031690565b6001600160a01b0316146113345760405162461bcd60e51b81526004016108f1906139ac565b6111a96000612a68565b611346612216565b6001600160a01b03166113616066546001600160a01b031690565b6001600160a01b0316146113875760405162461bcd60e51b81526004016108f1906139ac565b61010180546001810182556000919091527f109ea3cebb188b9c1b9fc5bb3920be60dfdc8699098dff92f3d80daaca7476890180546001600160a01b0319166001600160a01b0392909216919091179055565b600260ca5414156113fd5760405162461bcd60e51b81526004016108f19061392d565b600260ca556000805b6101015481101561146c576101018181548110611425576114256139e1565b6000918252602090912001546001600160a01b0316611442612216565b6001600160a01b0316141561145a576001915061146c565b8061146481613a0d565b915050611406565b508061148a5760405162461bcd60e51b81526004016108f190613a90565b611498878787878787612aba565b5050600160ca555050505050565b6114ae612216565b6001600160a01b03166114c96066546001600160a01b031690565b6001600160a01b0316146114ef5760405162461bcd60e51b81526004016108f1906139ac565b6111a9612bb3565b610101818154811061150857600080fd5b6000918252602090912001546001600160a01b0316905081565b600260ca5414156115455760405162461bcd60e51b81526004016108f19061392d565b600260ca556000805b610101548110156115b457610101818154811061156d5761156d6139e1565b6000918252602090912001546001600160a01b031661158a612216565b6001600160a01b031614156115a257600191506115b4565b806115ac81613a0d565b91505061154e565b50806115d25760405162461bcd60e51b81526004016108f190613a90565b6115e28484846000806000612aba565b5050600160ca555050565b606060388054610849906138f8565b60fd546001600160a01b0316600090815260ff6020819052604082206003015461162c916112309116600a613b93565b905090565b60008060356000611640612216565b6001600160a01b03908116825260208083019390935260409182016000908120918816815292529020549050828110156116ca5760405162461bcd60e51b815260206004820152602560248201527f45524332303a2064656372656173656420616c6c6f77616e63652062656c6f77604482015264207a65726f60d81b60648201526084016108f1565b6116de6116d5612216565b85858403612220565b5060019392505050565b60006109d76116f5612216565b848461204f565b600260ca54141561171f5760405162461bcd60e51b81526004016108f19061392d565b600260ca5561172f838383612c2f565b5050600160ca5550565b611741612216565b6001600160a01b031661175c6066546001600160a01b031690565b6001600160a01b0316146117825760405162461bcd60e51b81526004016108f1906139ac565b60fe80546001600160a01b0319166001600160a01b0392909216919091179055565b6117ac612216565b6001600160a01b03166117c76066546001600160a01b031690565b6001600160a01b0316146117ed5760405162461bcd60e51b81526004016108f1906139ac565b60fc80546001600160a01b0319166001600160a01b0392909216919091179055565b600061162c612dad565b611821612216565b6001600160a01b031661183c6066546001600160a01b031690565b6001600160a01b0316146118625760405162461bcd60e51b81526004016108f1906139ac565b603380546001600160a01b0319166001600160a01b03831617905550565b50565b6000805b610101548110156118ed5761010181815481106118a6576118a66139e1565b6000918252602090912001546001600160a01b03166118c3612216565b6001600160a01b031614156118db57600191506118ed565b806118e581613a0d565b915050611887565b508061190b5760405162461bcd60e51b81526004016108f190613a90565b6001600160a01b038316600090815260ff60208190526040909120600301546201000090041661194d5760405162461bcd60e51b81526004016108f190613ba2565b6119616001600160a01b0384168584612eb1565b826001600160a01b0316846001600160a01b03167f4d0df46bea966973af88bd9f2ec263268a205e0a196a519fca0aded1b0525648846040516119a691815260200190565b60405180910390a350505050565b600260ca5414156119d75760405162461bcd60e51b81526004016108f19061392d565b600260ca5561172f8383836123dd565b6119ef612216565b6001600160a01b0316611a0a6066546001600160a01b031690565b6001600160a01b031614611a305760405162461bcd60e51b81526004016108f1906139ac565b6001600160a01b038116611a955760405162461bcd60e51b815260206004820152602660248201527f4f776e61626c653a206e6577206f776e657220697320746865207a65726f206160448201526564647265737360d01b60648201526084016108f1565b61188081612a68565b600260ca541415611ac15760405162461bcd60e51b81526004016108f19061392d565b600260ca556111e5611ad1612216565b8383612c2f565b600054610100900460ff16611af35760005460ff1615611af7565b303b155b611b5a5760405162461bcd60e51b815260206004820152602e60248201527f496e697469616c697a61626c653a20636f6e747261637420697320616c72656160448201526d191e481a5b9a5d1a585b1a5e995960921b60648201526084016108f1565b600054610100900460ff16158015611b7c576000805461ffff19166101011790555b611b84612f19565b611b8c612f50565b611b94612f87565b611be3604051806040016040528060118152602001704361736b205661756c7420546f6b656e7360781b8152506040518060400160405280600481526020016309a82a6960e31b815250612fb6565b6000846001600160a01b031663313ce5676040518163ffffffff1660e01b815260040160206040518083038186803b158015611c1e57600080fd5b505afa158015611c32573d6000803e3d6000fd5b505050506040513d601f19601f82011682018060405250810190611c569190613a55565b60ff1611611c9c5760405162461bcd60e51b815260206004820152601360248201527221494e56414c4944286261736541737365742960681b60448201526064016108f1565b6000836001600160a01b031663313ce5676040518163ffffffff1660e01b815260040160206040518083038186803b158015611cd757600080fd5b505afa158015611ceb573d6000803e3d6000fd5b505050506040513d601f19601f82011682018060405250810190611d0f9190613a55565b60ff1611611d5f5760405162461bcd60e51b815260206004820152601c60248201527f21494e56414c494428626173654173736574507269636546656564290000000060448201526064016108f1565b6001600160a01b03848116600081815260ff602090815260409182902080546001600160a01b031916948816949094178455815163313ce56760e01b8152915163313ce567926004808201939291829003018186803b158015611dc157600080fd5b505afa158015611dd5573d6000803e3d6000fd5b505050506040513d601f19601f82011682018060405250810190611df99190613a55565b8160030160006101000a81548160ff021916908360ff160217905550836001600160a01b031663313ce5676040518163ffffffff1660e01b815260040160206040518083038186803b158015611e4e57600080fd5b505afa158015611e62573d6000803e3d6000fd5b505050506040513d601f19601f82011682018060405250810190611e869190613a55565b600382018054600060019485018190556201000062ffff001990921661010060ff95909516850262ff00001916179190911790915581549283018255527f45e010b9ae401e2eb71529478da8bd513a9bdc2d095a111e324f5b95c09ed87b0180546001600160a01b03199081166001600160a01b0387811691821790935560fc8054831689851617905560fd80548316909117905560fe80549091169184169190911790558015611f3d576000805461ff00191690555b5050505050565b600260ca541415611f675760405162461bcd60e51b81526004016108f19061392d565b600260ca556000805b61010154811015611fd6576101018181548110611f8f57611f8f6139e1565b6000918252602090912001546001600160a01b0316611fac612216565b6001600160a01b03161415611fc45760019150611fd6565b80611fce81613a0d565b915050611f70565b5080611ff45760405162461bcd60e51b81526004016108f190613a90565b61200385858585600080612aba565b5050600160ca55505050565b3b151590565b600080612020612dad565b11156120465761202e612dad565b6036545b61203c9084613bcf565b6109db9190613bee565b5090565b919050565b6001600160a01b0383166120b35760405162461bcd60e51b815260206004820152602560248201527f45524332303a207472616e736665722066726f6d20746865207a65726f206164604482015264647265737360d81b60648201526084016108f1565b6001600160a01b0382166121155760405162461bcd60e51b815260206004820152602360248201527f45524332303a207472616e7366657220746f20746865207a65726f206164647260448201526265737360e81b60648201526084016108f1565b6001600160a01b0383166000908152603460205260409020548181101561218d5760405162461bcd60e51b815260206004820152602660248201527f45524332303a207472616e7366657220616d6f756e7420657863656564732062604482015265616c616e636560d01b60648201526084016108f1565b6001600160a01b038085166000908152603460205260408082208585039055918516815290812080548492906121c4908490613a78565b92505081905550826001600160a01b0316846001600160a01b03167fddf252ad1be2c89b69c2b068fc378daa952ba7f163c4a11628f55a4df523b3ef846040516119a691815260200190565b50505050565b600061162c612fef565b6001600160a01b0383166122825760405162461bcd60e51b8152602060048201526024808201527f45524332303a20617070726f76652066726f6d20746865207a65726f206164646044820152637265737360e01b60648201526084016108f1565b6001600160a01b0382166122e35760405162461bcd60e51b815260206004820152602260248201527f45524332303a20617070726f766520746f20746865207a65726f206164647265604482015261737360f01b60648201526084016108f1565b6001600160a01b0383811660008181526035602090815260408083209487168084529482529182902085905590518481527f8c5be1e5ebec7d5bd14f71427d1e84f3dd0314c0f7b2291e5b200ac8c7c3b925910160405180910390a3505050565b60985460ff1661238d5760405162461bcd60e51b815260206004820152601460248201527314185d5cd8589b194e881b9bdd081c185d5cd95960621b60448201526064016108f1565b6098805460ff191690557f5db9ee0a495bf2e6ff9c91a7834c1ba4fdd244a5e8aa4e537bd38aeae4b073aa6123c0612216565b6040516001600160a01b03909116815260200160405180910390a1565b6001600160a01b038216600090815260ff60208190526040909120600301546201000090041661241f5760405162461bcd60e51b81526004016108f190613ba2565b600081116124675760405162461bcd60e51b815260206004820152601560248201527421494e56414c4944286173736574416d6f756e742960581b60448201526064016108f1565b60fd5481906001600160a01b038481169116146124df576001600160a01b038316600090815260ff602052604081206001810154909190612710906124ac9086613bcf565b6124b69190613bee565b60fd549091506124da9086906001600160a01b03166124d58488613a28565b61256c565b925050505b60006124ea82612015565b90506125096124f7612216565b6001600160a01b038616903086613023565b612513858261305b565b60408051848152602081018490529081018290526001600160a01b0380861691908716907fbef68d45f01f5e2c114616dc4840e7a543da6ec57afc5700e4be96056a899b4e906060015b60405180910390a35050505050565b6000826001600160a01b0316846001600160a01b031614156125be5760405162461bcd60e51b815260206004820152600b60248201526a0854d0535157d054d4d15560aa1b60448201526064016108f1565b6001600160a01b03848116600090815260ff60205260409020541661261b5760405162461bcd60e51b815260206004820152601360248201527221494e56414c49442866726f6d41737365742960681b60448201526064016108f1565b6001600160a01b03838116600090815260ff60205260409020541661267a5760405162461bcd60e51b8152602060048201526015602482015274214e4f545f414c4c4f57454428746f41737365742960581b60448201526064016108f1565b816126875750600061109b565b6001600160a01b03808516600090815260ff6020526040808220548151633fabe5a360e21b815291519293169163feaf968c9160048082019260a092909190829003018186803b1580156126da57600080fd5b505afa1580156126ee573d6000803e3d6000fd5b505050506040513d601f19601f820116820180604052508101906127129190613c2a565b5050506001600160a01b03808716600090815260ff602052604090819020548151633fabe5a360e21b815291519395508594509091169163feaf968c9160048082019260a092909190829003018186803b15801561276f57600080fd5b505afa158015612783573d6000803e3d6000fd5b505050506040513d601f19601f820116820180604052508101906127a79190613c2a565b5050506001600160a01b03808816600090815260ff60208190526040808320600390810154948d1684529220909101549295508593506101009283900481169290910416146128c0576001600160a01b038616600090815260ff602081905260409091206003015461282391839161010081048216911661313a565b6001600160a01b03808916600090815260ff60208190526040808320600390810154948c1684529220909101546128659286926101009091048116911661313a565b6001600160a01b03808a16600090815260ff60208190526040808320600390810154948d1684529220909101546128a2928a92908116911661313a565b6128ac9190613bcf565b6128b69190613bee565b935050505061109b565b6001600160a01b03808816600090815260ff60208190526040808320600390810154948b1684529220909101546128b6928492869261290a928b929081169161010090041661313a565b6129149190613bcf565b61291e9190613bee565b6001600160a01b038816600090815260ff602081905260409091206003015461010081048216911661313a565b60fc5460405163368317c160e21b81526001600160a01b038381166004830152600092169063da0c5f049060240160206040518083038186803b15801561299157600080fd5b505afa1580156129a5573d6000803e3d6000fd5b505050506040513d601f19601f820116820180604052508101906129c99190613c7a565b6040516370a0823160e01b81523060048201526001600160a01b038416906370a082319060240160206040518083038186803b158015612a0857600080fd5b505afa158015612a1c573d6000803e3d6000fd5b505050506040513d601f19601f82011682018060405250810190612a409190613c7a565b6109db9190613a78565b6000612a5560365490565b612a5d575090565b603654612032612dad565b606680546001600160a01b038381166001600160a01b0319831681179093556040519116919082907f8be0079c531659141344cd1fd0a4f28419497f9722a3daafe3b4186f6b6457e090600090a35050565b6000612ac585612015565b905060008415612adb57612ad885612015565b90505b60008084118015612af457506001600160a01b03851615155b15612b0557612b0284612015565b90505b612b1089898561204f565b8115612b2e5760fe54612b2e9089906001600160a01b03168461204f565b8015612b3f57612b3f88868361204f565b6040805188815260208101859052908101879052606081018390526080810185905260a081018290526001600160a01b03808716918a8216918c16907fe231cd9559a5a16d19e2bf003665b108bb05f45a7318361550754822be725a1d9060c00160405180910390a4505050505050505050565b60985460ff1615612bf95760405162461bcd60e51b815260206004820152601060248201526f14185d5cd8589b194e881c185d5cd95960821b60448201526064016108f1565b6098805460ff191660011790557f62e78cea01bee320cd4e420270b5ea74000d11b0c9f74754ebdbfc544b05a2586123c0612216565b6001600160a01b038216600090815260ff602081905260409091206003015462010000900416612c715760405162461bcd60e51b81526004016108f190613ba2565b60008111612cba5760405162461bcd60e51b815260206004820152601660248201527521494e56414c494428736861726573416d6f756e742960501b60448201526064016108f1565b6000612cc582612a4a565b9050612cd8612cd2612216565b836131ab565b60fd5481906001600160a01b03858116911614612d4b576001600160a01b03808516600090815260ff6020526040902060fd549091612d199116868561256c565b91506000612710826001015484612d309190613bcf565b612d3a9190613bee565b9050612d468184613a28565b925050505b612d5f6001600160a01b0385168683612eb1565b60408051828152602081018490529081018490526001600160a01b0380861691908716907fc90b5405a6805d53680586ef15168b1d791e67ceebe68fa62eefdb81478763cc9060600161255d565b600080805b61010054811015612eab5760fd5461010080546001600160a01b039092169183908110612de157612de16139e1565b6000918252602090912001546001600160a01b03161415612e225760fd54612e11906001600160a01b031661294b565b612e1b9083613a78565b9150612e99565b612e8c6101008281548110612e3957612e396139e1565b60009182526020909120015460fd5461010080546001600160a01b0393841693909216916124d5919086908110612e7257612e726139e1565b6000918252602090912001546001600160a01b031661294b565b612e969083613a78565b91505b80612ea381613a0d565b915050612db2565b50919050565b6040516001600160a01b038316602482015260448101829052612f1490849063a9059cbb60e01b906064015b60408051601f198184030181529190526020810180516001600160e01b03166001600160e01b0319909316929092179091526132f9565b505050565b600054610100900460ff16612f405760405162461bcd60e51b81526004016108f190613c93565b612f486133cb565b6111a96133f2565b600054610100900460ff16612f775760405162461bcd60e51b81526004016108f190613c93565b612f7f6133cb565b6111a9613429565b600054610100900460ff16612fae5760405162461bcd60e51b81526004016108f190613c93565b6111a961345c565b600054610100900460ff16612fdd5760405162461bcd60e51b81526004016108f190613c93565b612fe56133cb565b610b4c828261348a565b60006014361080159061300c57506033546001600160a01b031633145b1561301e575060131936013560601c90565b503390565b6040516001600160a01b03808516602483015283166044820152606481018290526122109085906323b872dd60e01b90608401612edd565b6001600160a01b0382166130b15760405162461bcd60e51b815260206004820152601f60248201527f45524332303a206d696e7420746f20746865207a65726f20616464726573730060448201526064016108f1565b80603660008282546130c39190613a78565b90915550506001600160a01b038216600090815260346020526040812080548392906130f0908490613a78565b90915550506040518181526001600160a01b038316906000907fddf252ad1be2c89b69c2b068fc378daa952ba7f163c4a11628f55a4df523b3ef9060200160405180910390a35050565b60008160ff168360ff161015613173576131548383613cde565b6131629060ff16600a613d01565b61316c9085613bcf565b905061109b565b8160ff168360ff1611156131a35761318b8284613cde565b6131999060ff16600a613d01565b61316c9085613bee565b509192915050565b6001600160a01b03821661320b5760405162461bcd60e51b815260206004820152602160248201527f45524332303a206275726e2066726f6d20746865207a65726f206164647265736044820152607360f81b60648201526084016108f1565b6001600160a01b0382166000908152603460205260409020548181101561327f5760405162461bcd60e51b815260206004820152602260248201527f45524332303a206275726e20616d6f756e7420657863656564732062616c616e604482015261636560f01b60648201526084016108f1565b6001600160a01b03831660009081526034602052604081208383039055603680548492906132ae908490613a28565b90915550506040518281526000906001600160a01b038516907fddf252ad1be2c89b69c2b068fc378daa952ba7f163c4a11628f55a4df523b3ef9060200160405180910390a3505050565b600061334e826040518060400160405280602081526020017f5361666545524332303a206c6f772d6c6576656c2063616c6c206661696c6564815250856001600160a01b03166134d89092919063ffffffff16565b805190915015612f14578080602001905181019061336c9190613d0d565b612f145760405162461bcd60e51b815260206004820152602a60248201527f5361666545524332303a204552433230206f7065726174696f6e20646964206e6044820152691bdd081cdd58d8d9595960b21b60648201526084016108f1565b600054610100900460ff166111a95760405162461bcd60e51b81526004016108f190613c93565b600054610100900460ff166134195760405162461bcd60e51b81526004016108f190613c93565b6111a9613424612216565b612a68565b600054610100900460ff166134505760405162461bcd60e51b81526004016108f190613c93565b6098805460ff19169055565b600054610100900460ff166134835760405162461bcd60e51b81526004016108f190613c93565b600160ca55565b600054610100900460ff166134b15760405162461bcd60e51b81526004016108f190613c93565b81516134c49060379060208501906135e3565b508051612f149060389060208401906135e3565b60606111fb848460008585843b6135315760405162461bcd60e51b815260206004820152601d60248201527f416464726573733a2063616c6c20746f206e6f6e2d636f6e747261637400000060448201526064016108f1565b600080866001600160a01b0316858760405161354d9190613d2f565b60006040518083038185875af1925050503d806000811461358a576040519150601f19603f3d011682016040523d82523d6000602084013e61358f565b606091505b509150915061359f8282866135aa565b979650505050505050565b606083156135b957508161109b565b8251156135c95782518084602001fd5b8160405162461bcd60e51b81526004016108f1919061369f565b8280546135ef906138f8565b90600052602060002090601f0160209004810192826136115760008555613657565b82601f1061362a57805160ff1916838001178555613657565b82800160010185558215613657579182015b8281111561365757825182559160200191906001019061363c565b506120469291505b80821115612046576000815560010161365f565b60005b8381101561368e578181015183820152602001613676565b838111156122105750506000910152565b60208152600082518060208401526136be816040850160208701613673565b601f01601f19169190910160400192915050565b80356001600160a01b038116811461204a57600080fd5b6000806000606084860312156136fe57600080fd5b613707846136d2565b9250613715602085016136d2565b9150604084013590509250925092565b6000806040838503121561373857600080fd5b613741836136d2565b946020939093013593505050565b60006020828403121561376157600080fd5b61109b826136d2565b6000806000806080858703121561378057600080fd5b613789856136d2565b9350613797602086016136d2565b93969395505050506040820135916060013590565b6020808252825182820181905260009190848201906040850190845b818110156137ed5783516001600160a01b0316835292840192918401916001016137c8565b50909695505050505050565b60008060008060008060c0878903121561381257600080fd5b61381b876136d2565b9550613829602088016136d2565b94506040870135935060608701359250613845608088016136d2565b915060a087013590509295509295509295565b60006020828403121561386a57600080fd5b5035919050565b6000806040838503121561388457600080fd5b61388d836136d2565b915061389b602084016136d2565b90509250929050565b600080600080608085870312156138ba57600080fd5b6138c3856136d2565b93506138d1602086016136d2565b92506138df604086016136d2565b91506138ed606086016136d2565b905092959194509250565b600181811c9082168061390c57607f821691505b60208210811415612eab57634e487b7160e01b600052602260045260246000fd5b6020808252601f908201527f5265656e7472616e637947756172643a207265656e7472616e742063616c6c00604082015260600190565b60208082526028908201527f45524332303a207472616e7366657220616d6f756e74206578636565647320616040820152676c6c6f77616e636560c01b606082015260800190565b6020808252818101527f4f776e61626c653a2063616c6c6572206973206e6f7420746865206f776e6572604082015260600190565b634e487b7160e01b600052603260045260246000fd5b634e487b7160e01b600052601160045260246000fd5b6000600019821415613a2157613a216139f7565b5060010190565b600082821015613a3a57613a3a6139f7565b500390565b634e487b7160e01b600052603160045260246000fd5b600060208284031215613a6757600080fd5b815160ff8116811461109b57600080fd5b60008219821115613a8b57613a8b6139f7565b500190565b60208082526005908201526404282aaa8960db1b604082015260600190565b600181815b80851115613aea578160001904821115613ad057613ad06139f7565b80851615613add57918102915b93841c9390800290613ab4565b509250929050565b600082613b01575060016109db565b81613b0e575060006109db565b8160018114613b245760028114613b2e57613b4a565b60019150506109db565b60ff841115613b3f57613b3f6139f7565b50506001821b6109db565b5060208310610133831016604e8410600b8410161715613b6d575081810a6109db565b613b778383613aaf565b8060001904821115613b8b57613b8b6139f7565b029392505050565b600061109b60ff841683613af2565b602080825260139082015272214e4f545f414c4c4f5745442861737365742960681b604082015260600190565b6000816000190483118215151615613be957613be96139f7565b500290565b600082613c0b57634e487b7160e01b600052601260045260246000fd5b500490565b805169ffffffffffffffffffff8116811461204a57600080fd5b600080600080600060a08688031215613c4257600080fd5b613c4b86613c10565b9450602086015193506040860151925060608601519150613c6e60808701613c10565b90509295509295909350565b600060208284031215613c8c57600080fd5b5051919050565b6020808252602b908201527f496e697469616c697a61626c653a20636f6e7472616374206973206e6f74206960408201526a6e697469616c697a696e6760a81b606082015260800190565b600060ff821660ff841680821015613cf857613cf86139f7565b90039392505050565b600061109b8383613af2565b600060208284031215613d1f57600080fd5b8151801515811461109b57600080fd5b60008251613d41818460208701613673565b919091019291505056fea2646970667358221220b2aef4a583ad6b5c04893375647e332ff05293208095a55ba755e468638794ea64736f6c63430008090033",
  "devdoc": {
    "kind": "dev",
    "methods": {
      "allocateToStrategy(address,address,uint256)": {
        "details": "Send an amount of asset to a strategy",
        "params": {
          "_asset": "Address of asset",
          "_assetAmount": "Amount of asset to send"
        }
      },
      "allowAsset(address,address,uint256,uint256)": {
        "details": "Add an allowed asset to be deposited into the vault",
        "params": {
          "_asset": "Address of new ERC20 asset",
          "_priceFeed": "Address of a chainlink-compatible price oracle for the asset",
          "_slippageBps": "Slippage basis points to use when depositing/withdrawing this asset"
        }
      },
      "allowance(address,address)": {
        "details": "See {IERC20-allowance}."
      },
      "approve(address,uint256)": {
        "details": "See {IERC20-approve}. Requirements: - `spender` cannot be the zero address."
      },
      "balanceOf(address)": {
        "details": "See {IERC20-balanceOf}."
      },
      "constructor": {
        "custom:oz-upgrades-unsafe-allow": "constructor"
      },
      "currentValueOf(address)": {
        "details": "Get current vault value of `_address` denominated in `baseAsset`",
        "params": {
          "_address": "Address to check"
        }
      },
      "decimals()": {
        "details": "Returns the number of decimals used to get its user representation. For example, if `decimals` equals `2`, a balance of `505` tokens should be displayed to a user as `5.05` (`505 / 10 ** 2`). Tokens usually opt for a value of 18, imitating the relationship between Ether and Wei. This is the value {ERC20} uses, unless this function is overridden; NOTE: This information is only used for _display_ purposes: it in no way affects any of the arithmetic of the contract, including {IERC20-balanceOf} and {IERC20-transfer}."
      },
      "decreaseAllowance(address,uint256)": {
        "details": "Atomically decreases the allowance granted to `spender` by the caller. This is an alternative to {approve} that can be used as a mitigation for problems described in {IERC20-approve}. Emits an {Approval} event indicating the updated allowance. Requirements: - `spender` cannot be the zero address. - `spender` must have allowance for the caller of at least `subtractedValue`."
      },
      "deposit(address,uint256)": {
        "details": "Deposit an amount of `_asset` into the vault and credit the equal value of `baseAsset`",
        "params": {
          "_asset": "Address of incoming asset",
          "_assetAmount": "Amount of asset to deposit"
        }
      },
      "depositTo(address,address,uint256)": {
        "details": "Deposit an amount of `_asset` into the vault and credit the equal value of `baseAsset`",
        "params": {
          "_asset": "Address of incoming asset",
          "_assetAmount": "Amount of asset to deposit",
          "_to": "Recipient of funds"
        }
      },
      "disallowAsset(address)": {
        "details": "Mark an already allowed asset to no longer be allowed for deposits/withdraws",
        "params": {
          "_asset": "Address of new ERC20 asset"
        }
      },
      "getAllAssets()": {
        "details": "Get all the assets supported by the vault."
      },
      "getAsset(address)": {
        "details": "Get asset details",
        "params": {
          "_asset": "Asset address"
        },
        "returns": {
          "_0": "Asset Asset details"
        }
      },
      "getBaseAsset()": {
        "details": "Get base asset of vault."
      },
      "increaseAllowance(address,uint256)": {
        "details": "Atomically increases the allowance granted to `spender` by the caller. This is an alternative to {approve} that can be used as a mitigation for problems described in {IERC20-approve}. Emits an {Approval} event indicating the updated allowance. Requirements: - `spender` cannot be the zero address."
      },
      "name()": {
        "details": "Returns the name of the token."
      },
      "owner()": {
        "details": "Returns the address of the current owner."
      },
      "paused()": {
        "details": "Returns true if the contract is paused, and false otherwise."
      },
      "pricePerShare()": {
        "details": "Get current vault value a vault share"
      },
      "protocolPayment(address,address,uint256)": {
        "details": "Pay `_value` of `baseAsset` from `_from` to `_to` initiated by an authorized protocol",
        "params": {
          "_from": "From address",
          "_to": "To address",
          "_value": "Amount of baseAsset value to transfer"
        }
      },
      "protocolPayment(address,address,uint256,uint256)": {
        "details": "Pay `_value` of `baseAsset` from `_from` to `_to` initiated by an authorized protocol",
        "params": {
          "_from": "From address",
          "_protocolFee": "Protocol fee to deduct from `_value`",
          "_to": "To address",
          "_value": "Amount of baseAsset value to transfer"
        }
      },
      "protocolPayment(address,address,uint256,uint256,address,uint256)": {
        "details": "Pay `_value` of `baseAsset` from `_from` to `_to` initiated by an authorized protocol",
        "params": {
          "_from": "From address",
          "_network": "Address of network fee collector",
          "_networkFee": "Network fee to deduct from `_value`",
          "_protocolFee": "Protocol fee to deduct from `_value`",
          "_to": "To address",
          "_value": "Amount of baseAsset value to transfer"
        }
      },
      "renounceOwnership()": {
        "details": "Leaves the contract without owner. It will not be possible to call `onlyOwner` functions anymore. Can only be called by the current owner. NOTE: Renouncing ownership will leave the contract without an owner, thereby removing any functionality that is only available to the owner."
      },
      "supportsAsset(address)": {
        "details": "Check if the vault supports an asset",
        "params": {
          "_asset": "Asset address"
        },
        "returns": {
          "_0": "bool `true` if asset supported, `false` otherwise"
        }
      },
      "symbol()": {
        "details": "Returns the symbol of the token, usually a shorter version of the name."
      },
      "totalAssetBalance(address)": {
        "details": "Get total amount of an asset held in vault and managed by admin",
        "params": {
          "_asset": "Address of asset"
        }
      },
      "totalSupply()": {
        "details": "See {IERC20-totalSupply}."
      },
      "totalValue()": {
        "details": "Get total value in vault and managed by admin - denominated in `baseAsset`"
      },
      "transfer(address,uint256)": {
        "details": "See {IERC20-transfer}. Requirements: - `recipient` cannot be the zero address. - the caller must have a balance of at least `amount`."
      },
      "transferFrom(address,address,uint256)": {
        "details": "See {IERC20-transferFrom}. Emits an {Approval} event indicating the updated allowance. This is not required by the EIP. See the note at the beginning of {ERC20}. Requirements: - `sender` and `recipient` cannot be the zero address. - `sender` must have a balance of at least `amount`. - the caller must have allowance for ``sender``'s tokens of at least `amount`."
      },
      "transferOwnership(address)": {
        "details": "Transfers ownership of the contract to a new account (`newOwner`). Can only be called by the current owner."
      },
      "transferValue(address,uint256)": {
        "details": "Transfer the equivalent vault shares of base asset `value` to `_recipient`",
        "params": {
          "_recipient": "To address",
          "_value": "Amount of baseAsset value to transfer"
        }
      },
      "transferValueFrom(address,address,uint256)": {
        "details": "Transfer the equivalent vault shares of base asset `value` from `_sender` to `_recipient`",
        "params": {
          "_recipient": "To address",
          "_sender": "From address",
          "_value": "Amount of baseAsset value to transfer"
        }
      },
      "withdraw(address,uint256)": {
        "details": "Withdraw an amount of shares from the vault in the form of `_asset`",
        "params": {
          "_asset": "Address of outgoing asset",
          "_shares": "Amount of shares to withdraw"
        }
      },
      "withdrawTo(address,address,uint256)": {
        "details": "Withdraw an amount of shares from the vault in the form of `_asset`",
        "params": {
          "_asset": "Address of outgoing asset",
          "_recipient": "Recipient who will receive the withdrawn assets",
          "_shares": "Amount of shares to withdraw"
        }
      }
    },
    "version": 1
  },
  "userdoc": {
    "kind": "user",
    "methods": {
      "isTrustedForwarder(address)": {
        "notice": "return if the forwarder is trusted to forward relayed transactions to us. the forwarder is required to verify the sender's signature, and verify the call is not a replay."
      }
    },
    "notice": "CaskVault is where: - the approved asset list lives - users deposit/withdraw approved assets which results in a mint/burn of the vault token - a minimum reserve rate is enforced - vault manager can tell the vault to send unallocated assets to strategies - approved protocols can process a payment between parties - one can query the value of all unallocated assets",
    "version": 1
  },
  "storageLayout": {
    "storage": [
      {
        "astId": 327,
        "contract": "contracts/vault/CaskVault.sol:CaskVault",
        "label": "_initialized",
        "offset": 0,
        "slot": "0",
        "type": "t_bool"
      },
      {
        "astId": 330,
        "contract": "contracts/vault/CaskVault.sol:CaskVault",
        "label": "_initializing",
        "offset": 1,
        "slot": "0",
        "type": "t_bool"
      },
      {
        "astId": 2551,
        "contract": "contracts/vault/CaskVault.sol:CaskVault",
        "label": "__gap",
        "offset": 0,
        "slot": "1",
        "type": "t_array(t_uint256)50_storage"
      },
      {
        "astId": 72,
        "contract": "contracts/vault/CaskVault.sol:CaskVault",
        "label": "_trustedForwarder",
        "offset": 0,
        "slot": "51",
        "type": "t_address"
      },
      {
        "astId": 584,
        "contract": "contracts/vault/CaskVault.sol:CaskVault",
        "label": "_balances",
        "offset": 0,
        "slot": "52",
        "type": "t_mapping(t_address,t_uint256)"
      },
      {
        "astId": 590,
        "contract": "contracts/vault/CaskVault.sol:CaskVault",
        "label": "_allowances",
        "offset": 0,
        "slot": "53",
        "type": "t_mapping(t_address,t_mapping(t_address,t_uint256))"
      },
      {
        "astId": 592,
        "contract": "contracts/vault/CaskVault.sol:CaskVault",
        "label": "_totalSupply",
        "offset": 0,
        "slot": "54",
        "type": "t_uint256"
      },
      {
        "astId": 594,
        "contract": "contracts/vault/CaskVault.sol:CaskVault",
        "label": "_name",
        "offset": 0,
        "slot": "55",
        "type": "t_string_storage"
      },
      {
        "astId": 596,
        "contract": "contracts/vault/CaskVault.sol:CaskVault",
        "label": "_symbol",
        "offset": 0,
        "slot": "56",
        "type": "t_string_storage"
      },
      {
        "astId": 1137,
        "contract": "contracts/vault/CaskVault.sol:CaskVault",
        "label": "__gap",
        "offset": 0,
        "slot": "57",
        "type": "t_array(t_uint256)45_storage"
      },
      {
        "astId": 205,
        "contract": "contracts/vault/CaskVault.sol:CaskVault",
        "label": "_owner",
        "offset": 0,
        "slot": "102",
        "type": "t_address"
      },
      {
        "astId": 319,
        "contract": "contracts/vault/CaskVault.sol:CaskVault",
        "label": "__gap",
        "offset": 0,
        "slot": "103",
        "type": "t_array(t_uint256)49_storage"
      },
      {
        "astId": 415,
        "contract": "contracts/vault/CaskVault.sol:CaskVault",
        "label": "_paused",
        "offset": 0,
        "slot": "152",
        "type": "t_bool"
      },
      {
        "astId": 506,
        "contract": "contracts/vault/CaskVault.sol:CaskVault",
        "label": "__gap",
        "offset": 0,
        "slot": "153",
        "type": "t_array(t_uint256)49_storage"
      },
      {
        "astId": 521,
        "contract": "contracts/vault/CaskVault.sol:CaskVault",
        "label": "_status",
        "offset": 0,
        "slot": "202",
        "type": "t_uint256"
      },
      {
        "astId": 564,
        "contract": "contracts/vault/CaskVault.sol:CaskVault",
        "label": "__gap",
        "offset": 0,
        "slot": "203",
        "type": "t_array(t_uint256)49_storage"
      },
      {
        "astId": 13906,
        "contract": "contracts/vault/CaskVault.sol:CaskVault",
        "label": "vaultManager",
        "offset": 0,
        "slot": "252",
        "type": "t_address"
      },
      {
        "astId": 13908,
        "contract": "contracts/vault/CaskVault.sol:CaskVault",
        "label": "baseAsset",
        "offset": 0,
        "slot": "253",
        "type": "t_address"
      },
      {
        "astId": 13910,
        "contract": "contracts/vault/CaskVault.sol:CaskVault",
        "label": "feeDistributor",
        "offset": 0,
        "slot": "254",
        "type": "t_address"
      },
      {
        "astId": 13915,
        "contract": "contracts/vault/CaskVault.sol:CaskVault",
        "label": "assets",
        "offset": 0,
        "slot": "255",
        "type": "t_mapping(t_address,t_struct(Asset)8166_storage)"
      },
      {
        "astId": 13918,
        "contract": "contracts/vault/CaskVault.sol:CaskVault",
        "label": "allAssets",
        "offset": 0,
        "slot": "256",
        "type": "t_array(t_address)dyn_storage"
      },
      {
        "astId": 13921,
        "contract": "contracts/vault/CaskVault.sol:CaskVault",
        "label": "protocols",
        "offset": 0,
        "slot": "257",
        "type": "t_array(t_address)dyn_storage"
      }
    ],
    "types": {
      "t_address": {
        "encoding": "inplace",
        "label": "address",
        "numberOfBytes": "20"
      },
      "t_array(t_address)dyn_storage": {
        "base": "t_address",
        "encoding": "dynamic_array",
        "label": "address[]",
        "numberOfBytes": "32"
      },
      "t_array(t_uint256)45_storage": {
        "base": "t_uint256",
        "encoding": "inplace",
        "label": "uint256[45]",
        "numberOfBytes": "1440"
      },
      "t_array(t_uint256)49_storage": {
        "base": "t_uint256",
        "encoding": "inplace",
        "label": "uint256[49]",
        "numberOfBytes": "1568"
      },
      "t_array(t_uint256)50_storage": {
        "base": "t_uint256",
        "encoding": "inplace",
        "label": "uint256[50]",
        "numberOfBytes": "1600"
      },
      "t_bool": {
        "encoding": "inplace",
        "label": "bool",
        "numberOfBytes": "1"
      },
      "t_mapping(t_address,t_mapping(t_address,t_uint256))": {
        "encoding": "mapping",
        "key": "t_address",
        "label": "mapping(address => mapping(address => uint256))",
        "numberOfBytes": "32",
        "value": "t_mapping(t_address,t_uint256)"
      },
      "t_mapping(t_address,t_struct(Asset)8166_storage)": {
        "encoding": "mapping",
        "key": "t_address",
        "label": "mapping(address => struct ICaskVault.Asset)",
        "numberOfBytes": "32",
        "value": "t_struct(Asset)8166_storage"
      },
      "t_mapping(t_address,t_uint256)": {
        "encoding": "mapping",
        "key": "t_address",
        "label": "mapping(address => uint256)",
        "numberOfBytes": "32",
        "value": "t_uint256"
      },
      "t_string_storage": {
        "encoding": "bytes",
        "label": "string",
        "numberOfBytes": "32"
      },
      "t_struct(Asset)8166_storage": {
        "encoding": "inplace",
        "label": "struct ICaskVault.Asset",
        "members": [
          {
            "astId": 8155,
            "contract": "contracts/vault/CaskVault.sol:CaskVault",
            "label": "priceFeed",
            "offset": 0,
            "slot": "0",
            "type": "t_address"
          },
          {
            "astId": 8157,
            "contract": "contracts/vault/CaskVault.sol:CaskVault",
            "label": "slippageBps",
            "offset": 0,
            "slot": "1",
            "type": "t_uint256"
          },
          {
            "astId": 8159,
            "contract": "contracts/vault/CaskVault.sol:CaskVault",
            "label": "depositLimit",
            "offset": 0,
            "slot": "2",
            "type": "t_uint256"
          },
          {
            "astId": 8161,
            "contract": "contracts/vault/CaskVault.sol:CaskVault",
            "label": "assetDecimals",
            "offset": 0,
            "slot": "3",
            "type": "t_uint8"
          },
          {
            "astId": 8163,
            "contract": "contracts/vault/CaskVault.sol:CaskVault",
            "label": "priceFeedDecimals",
            "offset": 1,
            "slot": "3",
            "type": "t_uint8"
          },
          {
            "astId": 8165,
            "contract": "contracts/vault/CaskVault.sol:CaskVault",
            "label": "allowed",
            "offset": 2,
            "slot": "3",
            "type": "t_bool"
          }
        ],
        "numberOfBytes": "128"
      },
      "t_uint256": {
        "encoding": "inplace",
        "label": "uint256",
        "numberOfBytes": "32"
      },
      "t_uint8": {
        "encoding": "inplace",
        "label": "uint8",
        "numberOfBytes": "1"
      }
    }
  }
}