{
  "address": "0x818C674AFbaFd415Fe7A2c4D16EEd8B16BC2854c",
  "abi": [
    {
      "inputs": [],
      "stateMutability": "nonpayable",
      "type": "constructor"
    },
    {
      "anonymous": false,
      "inputs": [
        {
          "indexed": true,
          "internalType": "bytes32",
          "name": "dcaId",
          "type": "bytes32"
        },
        {
          "indexed": true,
          "internalType": "address",
          "name": "user",
          "type": "address"
        }
      ],
      "name": "DCACanceled",
      "type": "event"
    },
    {
      "anonymous": false,
      "inputs": [
        {
          "indexed": true,
          "internalType": "bytes32",
          "name": "dcaId",
          "type": "bytes32"
        },
        {
          "indexed": true,
          "internalType": "address",
          "name": "user",
          "type": "address"
        }
      ],
      "name": "DCACompleted",
      "type": "event"
    },
    {
      "anonymous": false,
      "inputs": [
        {
          "indexed": true,
          "internalType": "bytes32",
          "name": "dcaId",
          "type": "bytes32"
        },
        {
          "indexed": true,
          "internalType": "address",
          "name": "user",
          "type": "address"
        },
        {
          "indexed": true,
          "internalType": "address",
          "name": "to",
          "type": "address"
        },
        {
          "indexed": false,
          "internalType": "address",
          "name": "inputAsset",
          "type": "address"
        },
        {
          "indexed": false,
          "internalType": "address",
          "name": "outputAsset",
          "type": "address"
        },
        {
          "indexed": false,
          "internalType": "uint256",
          "name": "amount",
          "type": "uint256"
        },
        {
          "indexed": false,
          "internalType": "uint256",
          "name": "totalAmount",
          "type": "uint256"
        },
        {
          "indexed": false,
          "internalType": "uint32",
          "name": "period",
          "type": "uint32"
        }
      ],
      "name": "DCACreated",
      "type": "event"
    },
    {
      "anonymous": false,
      "inputs": [
        {
          "indexed": true,
          "internalType": "bytes32",
          "name": "dcaId",
          "type": "bytes32"
        },
        {
          "indexed": true,
          "internalType": "address",
          "name": "user",
          "type": "address"
        }
      ],
      "name": "DCAPaused",
      "type": "event"
    },
    {
      "anonymous": false,
      "inputs": [
        {
          "indexed": true,
          "internalType": "bytes32",
          "name": "dcaId",
          "type": "bytes32"
        },
        {
          "indexed": true,
          "internalType": "address",
          "name": "user",
          "type": "address"
        },
        {
          "indexed": false,
          "internalType": "uint256",
          "name": "amount",
          "type": "uint256"
        },
        {
          "indexed": false,
          "internalType": "uint256",
          "name": "buyQty",
          "type": "uint256"
        },
        {
          "indexed": false,
          "internalType": "uint256",
          "name": "fee",
          "type": "uint256"
        }
      ],
      "name": "DCAProcessed",
      "type": "event"
    },
    {
      "anonymous": false,
      "inputs": [
        {
          "indexed": true,
          "internalType": "bytes32",
          "name": "dcaId",
          "type": "bytes32"
        },
        {
          "indexed": true,
          "internalType": "address",
          "name": "user",
          "type": "address"
        }
      ],
      "name": "DCAResumed",
      "type": "event"
    },
    {
      "anonymous": false,
      "inputs": [
        {
          "indexed": true,
          "internalType": "bytes32",
          "name": "dcaId",
          "type": "bytes32"
        },
        {
          "indexed": true,
          "internalType": "address",
          "name": "user",
          "type": "address"
        }
      ],
      "name": "DCASkipped",
      "type": "event"
    },
    {
      "anonymous": false,
      "inputs": [
        {
          "indexed": true,
          "internalType": "address",
          "name": "previousOwner",
          "type": "address"
        },
        {
          "indexed": true,
          "internalType": "address",
          "name": "newOwner",
          "type": "address"
        }
      ],
      "name": "OwnershipTransferred",
      "type": "event"
    },
    {
      "anonymous": false,
      "inputs": [
        {
          "indexed": false,
          "internalType": "address",
          "name": "account",
          "type": "address"
        }
      ],
      "name": "Paused",
      "type": "event"
    },
    {
      "anonymous": false,
      "inputs": [
        {
          "indexed": false,
          "internalType": "address",
          "name": "account",
          "type": "address"
        }
      ],
      "name": "Unpaused",
      "type": "event"
    },
    {
      "inputs": [],
      "name": "assetsMerkleRoot",
      "outputs": [
        {
          "internalType": "bytes32",
          "name": "",
          "type": "bytes32"
        }
      ],
      "stateMutability": "view",
      "type": "function"
    },
    {
      "inputs": [
        {
          "internalType": "bytes32",
          "name": "_dcaId",
          "type": "bytes32"
        }
      ],
      "name": "cancelDCA",
      "outputs": [],
      "stateMutability": "nonpayable",
      "type": "function"
    },
    {
      "inputs": [
        {
          "internalType": "address[]",
          "name": "_assetSpec",
          "type": "address[]"
        },
        {
          "internalType": "bytes32[]",
          "name": "_merkleProof",
          "type": "bytes32[]"
        },
        {
          "internalType": "address",
          "name": "_to",
          "type": "address"
        },
        {
          "internalType": "uint256",
          "name": "_amount",
          "type": "uint256"
        },
        {
          "internalType": "uint256",
          "name": "_totalAmount",
          "type": "uint256"
        },
        {
          "internalType": "uint32",
          "name": "_period",
          "type": "uint32"
        },
        {
          "internalType": "uint256",
          "name": "_slippageBps",
          "type": "uint256"
        },
        {
          "internalType": "uint256",
          "name": "_minPrice",
          "type": "uint256"
        },
        {
          "internalType": "uint256",
          "name": "_maxPrice",
          "type": "uint256"
        }
      ],
      "name": "createDCA",
      "outputs": [
        {
          "internalType": "bytes32",
          "name": "",
          "type": "bytes32"
        }
      ],
      "stateMutability": "nonpayable",
      "type": "function"
    },
    {
      "inputs": [],
      "name": "dcaManager",
      "outputs": [
        {
          "internalType": "contract ICaskDCAManager",
          "name": "",
          "type": "address"
        }
      ],
      "stateMutability": "view",
      "type": "function"
    },
    {
      "inputs": [
        {
          "internalType": "bytes32",
          "name": "_dcaId",
          "type": "bytes32"
        }
      ],
      "name": "getDCA",
      "outputs": [
        {
          "components": [
            {
              "internalType": "address",
              "name": "user",
              "type": "address"
            },
            {
              "internalType": "address",
              "name": "to",
              "type": "address"
            },
            {
              "internalType": "address",
              "name": "router",
              "type": "address"
            },
            {
              "internalType": "address",
              "name": "priceFeed",
              "type": "address"
            },
            {
              "internalType": "uint256",
              "name": "amount",
              "type": "uint256"
            },
            {
              "internalType": "uint256",
              "name": "totalAmount",
              "type": "uint256"
            },
            {
              "internalType": "uint256",
              "name": "currentAmount",
              "type": "uint256"
            },
            {
              "internalType": "uint256",
              "name": "currentQty",
              "type": "uint256"
            },
            {
              "internalType": "uint256",
              "name": "numBuys",
              "type": "uint256"
            },
            {
              "internalType": "uint256",
              "name": "numSkips",
              "type": "uint256"
            },
            {
              "internalType": "uint256",
              "name": "slippageBps",
              "type": "uint256"
            },
            {
              "internalType": "uint256",
              "name": "maxPrice",
              "type": "uint256"
            },
            {
              "internalType": "uint256",
              "name": "minPrice",
              "type": "uint256"
            },
            {
              "internalType": "uint32",
              "name": "period",
              "type": "uint32"
            },
            {
              "internalType": "uint32",
              "name": "createdAt",
              "type": "uint32"
            },
            {
              "internalType": "uint32",
              "name": "processAt",
              "type": "uint32"
            },
            {
              "internalType": "enum ICaskDCA.DCAStatus",
              "name": "status",
              "type": "uint8"
            },
            {
              "internalType": "address[]",
              "name": "path",
              "type": "address[]"
            }
          ],
          "internalType": "struct ICaskDCA.DCA",
          "name": "",
          "type": "tuple"
        }
      ],
      "stateMutability": "view",
      "type": "function"
    },
    {
      "inputs": [
        {
          "internalType": "address",
          "name": "_user",
          "type": "address"
        },
        {
          "internalType": "uint256",
          "name": "_idx",
          "type": "uint256"
        }
      ],
      "name": "getUserDCA",
      "outputs": [
        {
          "internalType": "bytes32",
          "name": "",
          "type": "bytes32"
        }
      ],
      "stateMutability": "view",
      "type": "function"
    },
    {
      "inputs": [
        {
          "internalType": "address",
          "name": "_user",
          "type": "address"
        }
      ],
      "name": "getUserDCACount",
      "outputs": [
        {
          "internalType": "uint256",
          "name": "",
          "type": "uint256"
        }
      ],
      "stateMutability": "view",
      "type": "function"
    },
    {
      "inputs": [
        {
          "internalType": "bytes32",
          "name": "_assetsMerkleRoot",
          "type": "bytes32"
        }
      ],
      "name": "initialize",
      "outputs": [],
      "stateMutability": "nonpayable",
      "type": "function"
    },
    {
      "inputs": [
        {
          "internalType": "address",
          "name": "forwarder",
          "type": "address"
        }
      ],
      "name": "isTrustedForwarder",
      "outputs": [
        {
          "internalType": "bool",
          "name": "",
          "type": "bool"
        }
      ],
      "stateMutability": "view",
      "type": "function"
    },
    {
      "inputs": [
        {
          "internalType": "bytes32",
          "name": "_dcaId",
          "type": "bytes32"
        },
        {
          "internalType": "enum ICaskDCA.ManagerCommand",
          "name": "_command",
          "type": "uint8"
        }
      ],
      "name": "managerCommand",
      "outputs": [],
      "stateMutability": "nonpayable",
      "type": "function"
    },
    {
      "inputs": [
        {
          "internalType": "bytes32",
          "name": "_dcaId",
          "type": "bytes32"
        },
        {
          "internalType": "uint256",
          "name": "_amount",
          "type": "uint256"
        },
        {
          "internalType": "uint256",
          "name": "_buyQty",
          "type": "uint256"
        },
        {
          "internalType": "uint256",
          "name": "_fee",
          "type": "uint256"
        }
      ],
      "name": "managerProcessed",
      "outputs": [],
      "stateMutability": "nonpayable",
      "type": "function"
    },
    {
      "inputs": [],
      "name": "minAmount",
      "outputs": [
        {
          "internalType": "uint256",
          "name": "",
          "type": "uint256"
        }
      ],
      "stateMutability": "view",
      "type": "function"
    },
    {
      "inputs": [],
      "name": "minPeriod",
      "outputs": [
        {
          "internalType": "uint32",
          "name": "",
          "type": "uint32"
        }
      ],
      "stateMutability": "view",
      "type": "function"
    },
    {
      "inputs": [],
      "name": "owner",
      "outputs": [
        {
          "internalType": "address",
          "name": "",
          "type": "address"
        }
      ],
      "stateMutability": "view",
      "type": "function"
    },
    {
      "inputs": [],
      "name": "pause",
      "outputs": [],
      "stateMutability": "nonpayable",
      "type": "function"
    },
    {
      "inputs": [
        {
          "internalType": "bytes32",
          "name": "_dcaId",
          "type": "bytes32"
        }
      ],
      "name": "pauseDCA",
      "outputs": [],
      "stateMutability": "nonpayable",
      "type": "function"
    },
    {
      "inputs": [],
      "name": "paused",
      "outputs": [
        {
          "internalType": "bool",
          "name": "",
          "type": "bool"
        }
      ],
      "stateMutability": "view",
      "type": "function"
    },
    {
      "inputs": [],
      "name": "renounceOwnership",
      "outputs": [],
      "stateMutability": "nonpayable",
      "type": "function"
    },
    {
      "inputs": [
        {
          "internalType": "bytes32",
          "name": "_dcaId",
          "type": "bytes32"
        }
      ],
      "name": "resumeDCA",
      "outputs": [],
      "stateMutability": "nonpayable",
      "type": "function"
    },
    {
      "inputs": [
        {
          "internalType": "bytes32",
          "name": "_assetsMerkleRoot",
          "type": "bytes32"
        }
      ],
      "name": "setAssetsMerkleRoot",
      "outputs": [],
      "stateMutability": "nonpayable",
      "type": "function"
    },
    {
      "inputs": [
        {
          "internalType": "address",
          "name": "_dcaManager",
          "type": "address"
        }
      ],
      "name": "setManager",
      "outputs": [],
      "stateMutability": "nonpayable",
      "type": "function"
    },
    {
      "inputs": [
        {
          "internalType": "uint256",
          "name": "_minAmount",
          "type": "uint256"
        }
      ],
      "name": "setMinAmount",
      "outputs": [],
      "stateMutability": "nonpayable",
      "type": "function"
    },
    {
      "inputs": [
        {
          "internalType": "uint32",
          "name": "_minPeriod",
          "type": "uint32"
        }
      ],
      "name": "setMinPeriod",
      "outputs": [],
      "stateMutability": "nonpayable",
      "type": "function"
    },
    {
      "inputs": [
        {
          "internalType": "address",
          "name": "_forwarder",
          "type": "address"
        }
      ],
      "name": "setTrustedForwarder",
      "outputs": [],
      "stateMutability": "nonpayable",
      "type": "function"
    },
    {
      "inputs": [
        {
          "internalType": "address",
          "name": "newOwner",
          "type": "address"
        }
      ],
      "name": "transferOwnership",
      "outputs": [],
      "stateMutability": "nonpayable",
      "type": "function"
    },
    {
      "inputs": [],
      "name": "trustedForwarder",
      "outputs": [
        {
          "internalType": "address",
          "name": "",
          "type": "address"
        }
      ],
      "stateMutability": "view",
      "type": "function"
    },
    {
      "inputs": [],
      "name": "unpause",
      "outputs": [],
      "stateMutability": "nonpayable",
      "type": "function"
    },
    {
      "inputs": [],
      "name": "versionRecipient",
      "outputs": [
        {
          "internalType": "string",
          "name": "",
          "type": "string"
        }
      ],
      "stateMutability": "pure",
      "type": "function"
    }
  ],
  "transactionHash": "0x4373e2cd14218b23f29a61f87d3953818b9781b12a64593fc3fc2cb4f3731ec2",
  "args": [],
  "numDeployments": 1,
  "solcInputHash": "79a7f6ff9bd8a3922495b96a9b369300",
  "bytecode": "0x60806040523480156200001157600080fd5b50600054610100900460ff166200002f5760005460ff161562000039565b62000039620000de565b620000a15760405162461bcd60e51b815260206004820152602e60248201527f496e697469616c697a61626c653a20636f6e747261637420697320616c72656160448201526d191e481a5b9a5d1a585b1a5e995960921b606482015260840160405180910390fd5b600054610100900460ff16158015620000c4576000805461ffff19166101011790555b8015620000d7576000805461ff00191690555b5062000102565b6000620000f630620000fc60201b620016871760201c565b15905090565b3b151590565b61226a80620001126000396000f3fe608060405234801561001057600080fd5b50600436106101c45760003560e01c80638da5cb5b116100f9578063bd78b2b311610097578063da74222811610071578063da742228146103d3578063f2fde38b146103e6578063f5f4bdb9146103f9578063ffd49c841461040c57600080fd5b8063bd78b2b31461039a578063c453824f146103ad578063d0ebdbe7146103c057600080fd5b80639b2cb5d8116100d35780639b2cb5d814610358578063abcfd15414610361578063b4cbc9e414610374578063b4e38a8d1461038757600080fd5b80638da5cb5b1461031457806392c65f4b146103255780639498bd711461034557600080fd5b80635c975abb116101665780637da0a877116101405780637da0a877146102d55780638456cb59146102e657806387eb01bf146102ee578063897b06371461030157600080fd5b80635c975abb146102975780636a82763c146102a2578063715018a6146102cd57600080fd5b8063486ff0cd116101a2578063486ff0cd146102225780634b51dd2214610249578063572b6c05146102525780635ba581cd1461028457600080fd5b806316ef2c41146101c95780632ce17578146102055780633f4ba83a1461021a575b600080fd5b6101f26101d7366004611bd2565b6001600160a01b03166000908152609a602052604090205490565b6040519081526020015b60405180910390f35b610218610213366004611bf4565b610431565b005b610218610488565b60408051808201825260058152640322e322e360dc1b602082015290516101fc9190611c0d565b6101f2609b5481565b610274610260366004611bd2565b6097546001600160a01b0391821691161490565b60405190151581526020016101fc565b610218610292366004611c62565b6104db565b60655460ff16610274565b6098546102b5906001600160a01b031681565b6040516001600160a01b0390911681526020016101fc565b6102186106b1565b6097546001600160a01b03166102b5565b610218610704565b6102186102fc366004611bf4565b610755565b61021861030f366004611bf4565b61088a565b6033546001600160a01b03166102b5565b610338610333366004611bf4565b6108d8565b6040516101fc9190611d12565b610218610353366004611bf4565b610a63565b6101f2609c5481565b61021861036f366004611bf4565b610b49565b610218610382366004611e66565b610cec565b6101f2610395366004611e98565b610e8d565b6102186103a8366004611bf4565b610eca565b6102186103bb366004611ed6565b610fd0565b6102186103ce366004611bd2565b611035565b6102186103e1366004611bd2565b6110a0565b6102186103f4366004611bd2565b61110a565b6101f2610407366004611f3d565b6111c1565b609d5461041c9063ffffffff1681565b60405163ffffffff90911681526020016101fc565b61043961168d565b6001600160a01b03166104546033546001600160a01b031690565b6001600160a01b0316146104835760405162461bcd60e51b815260040161047a90611fff565b60405180910390fd5b609b55565b61049061168d565b6001600160a01b03166104ab6033546001600160a01b031690565b6001600160a01b0316146104d15760405162461bcd60e51b815260040161047a90611fff565b6104d961169c565b565b6098546001600160a01b03166104ef61168d565b6001600160a01b0316146105155760405162461bcd60e51b815260040161047a90612034565b6000828152609960205260409020600282600381111561053757610537611c96565b14156105d657600d81015461055c9063ffffffff80821691600160401b900416612069565b81600d0160086101000a81548163ffffffff021916908363ffffffff16021790555060018160090160008282546105939190612091565b909155505080546040516001600160a01b039091169084907f8acf26a2ac506dc8e9cad0063326ba3403e61054e077ea7110fbef90a2b0e10e90600090a3505050565b60038260038111156105ea576105ea611c96565b141561064357600d8101805460ff60601b1916600160611b17905580546040516001600160a01b039091169084907f3d63c73b75a797c741bcfc0ae2644bc392388e97ea718a8731d44f47da2b23a490600090a3505050565b600182600381111561065757610657611c96565b14156106ac57600d8101805460ff60601b1916600360601b17905580546040516001600160a01b039091169084907f5d3baeac0d91b82fe19cca4c28f0768ed59c65d7f64d48d53f166f9ec0f099c090600090a35b505050565b6106b961168d565b6001600160a01b03166106d46033546001600160a01b031690565b6001600160a01b0316146106fa5760405162461bcd60e51b815260040161047a90611fff565b6104d96000611735565b61070c61168d565b6001600160a01b03166107276033546001600160a01b031690565b6001600160a01b03161461074d5760405162461bcd60e51b815260040161047a90611fff565b6104d9611787565b60008181526099602052604090205481906001600160a01b031661077761168d565b6001600160a01b03161461079d5760405162461bcd60e51b815260040161047a90612034565b60008281526099602052604090206001600d820154600160601b900460ff1660048111156107cd576107cd611c96565b14806107f857506002600d820154600160601b900460ff1660048111156107f6576107f6611c96565b145b6108375760405162461bcd60e51b815260206004820152601060248201526f21494e56414c4944287374617475732960801b604482015260640161047a565b600d8101805460ff60601b1916600360601b17905580546040516001600160a01b039091169084907f0d04c91a4cb25e87e66b2337207d34bd31384c15371c944d543b0d90c866e32c90600090a3505050565b61089261168d565b6001600160a01b03166108ad6033546001600160a01b031690565b6001600160a01b0316146108d35760405162461bcd60e51b815260040161047a90611fff565b609c55565b6108e0611a6c565b60008281526099602090815260409182902082516102408101845281546001600160a01b03908116825260018301548116938201939093526002820154831693810193909352600381015490911660608301526004808201546080840152600582015460a0840152600682015460c0840152600782015460e084015260088201546101008401526009820154610120840152600a820154610140840152600b820154610160840152600c820154610180840152600d82015463ffffffff8082166101a0860152640100000000820481166101c0860152600160401b8204166101e0850152610200840191600160601b90910460ff16908111156109e5576109e5611c96565b60048111156109f6576109f6611c96565b8152602001600e8201805480602002602001604051908101604052809291908181526020018280548015610a5357602002820191906000526020600020905b81546001600160a01b03168152600190910190602001808311610a35575b5050505050815250509050919050565b600054610100900460ff16610a7e5760005460ff1615610a82565b303b155b610ae55760405162461bcd60e51b815260206004820152602e60248201527f496e697469616c697a61626c653a20636f6e747261637420697320616c72656160448201526d191e481a5b9a5d1a585b1a5e995960921b606482015260840161047a565b600054610100900460ff16158015610b07576000805461ffff19166101011790555b610b0f611803565b610b1761183a565b609b8290556001609c55609d805463ffffffff1916620151801790558015610b45576000805461ff00191690555b5050565b60008181526099602052604090205481906001600160a01b0316610b6b61168d565b6001600160a01b031614610b915760405162461bcd60e51b815260040161047a90612034565b60008281526099602052604090206002600d820154600160601b900460ff166004811115610bc157610bc1611c96565b14610bfc5760405162461bcd60e51b815260206004820152600b60248201526a085393d517d4105554d15160aa1b604482015260640161047a565b600d8101805460ff60601b1916600160601b179081905563ffffffff428116600160401b909204161015610c5057600d810180546bffffffff00000000000000001916600160401b4263ffffffff16021790555b609854604051637d0c250f60e11b8152600481018590526001600160a01b039091169063fa184a1e90602401600060405180830381600087803b158015610c9657600080fd5b505af1158015610caa573d6000803e3d6000fd5b505082546040516001600160a01b0390911692508591507f0d04c91a4cb25e87e66b2337207d34bd31384c15371c944d543b0d90c866e32c90600090a3505050565b6098546001600160a01b0316610d0061168d565b6001600160a01b031614610d265760405162461bcd60e51b815260040161047a90612034565b6000848152609960205260409020600d810154610d539063ffffffff80821691600160401b900416612069565b81600d0160086101000a81548163ffffffff021916908363ffffffff16021790555083816006016000828254610d899190612091565b9250508190555082816007016000828254610da49190612091565b925050819055506001816008016000828254610dc09190612091565b9091555050805460408051868152602081018690529081018490526001600160a01b039091169086907f2cd977fbc4930a01c7a1d2d4f59916c67f5e443ee1b3efc3cf295b30b95499289060600160405180910390a360008160050154118015610e3257508060050154816006015410155b15610e8657600d8101805460ff60601b1916600160621b17905580546040516001600160a01b039091169086907fe91db046d37f56c01a0949ac11e488007e1e26ea683caaee32d54c4cea5d851b90600090a35b5050505050565b6001600160a01b0382166000908152609a60205260408120805483908110610eb757610eb76120a9565b9060005260206000200154905092915050565b60008181526099602052604090205481906001600160a01b0316610eec61168d565b6001600160a01b031614610f125760405162461bcd60e51b815260040161047a90612034565b60008281526099602052604090206001600d820154600160601b900460ff166004811115610f4257610f42611c96565b14610f7d5760405162461bcd60e51b815260206004820152600b60248201526a214e4f545f41435449564560a81b604482015260640161047a565b600d8101805460ff60601b1916600160611b17905580546040516001600160a01b039091169084907f3d63c73b75a797c741bcfc0ae2644bc392388e97ea718a8731d44f47da2b23a490600090a3505050565b610fd861168d565b6001600160a01b0316610ff36033546001600160a01b031690565b6001600160a01b0316146110195760405162461bcd60e51b815260040161047a90611fff565b609d805463ffffffff191663ffffffff92909216919091179055565b61103d61168d565b6001600160a01b03166110586033546001600160a01b031690565b6001600160a01b03161461107e5760405162461bcd60e51b815260040161047a90611fff565b609880546001600160a01b0319166001600160a01b0392909216919091179055565b6110a861168d565b6001600160a01b03166110c36033546001600160a01b031690565b6001600160a01b0316146110e95760405162461bcd60e51b815260040161047a90611fff565b609780546001600160a01b0319166001600160a01b03831617905550565b50565b61111261168d565b6001600160a01b031661112d6033546001600160a01b031690565b6001600160a01b0316146111535760405162461bcd60e51b815260040161047a90611fff565b6001600160a01b0381166111b85760405162461bcd60e51b815260206004820152602660248201527f4f776e61626c653a206e6577206f776e657220697320746865207a65726f206160448201526564647265737360d01b606482015260840161047a565b61110781611735565b6000609c548710156112085760405162461bcd60e51b815260206004820152601060248201526f21494e56414c494428616d6f756e742960801b604482015260640161047a565b609d5463ffffffff90811690861610156112575760405162461bcd60e51b815260206004820152601060248201526f21494e56414c494428706572696f642960801b604482015260640161047a565b60048b101561129e5760405162461bcd60e51b815260206004820152601360248201527221494e56414c4944286173736574537065632960681b604482015260640161047a565b6112aa8c8c8c8c611871565b6112ec5760405162461bcd60e51b815260206004820152601360248201527221494e56414c4944286173736574537065632960681b604482015260640161047a565b60006112f661168d565b8d8d8a89434260405160200161131297969594939291906120bf565b60408051601f198184030181529181528151602092830120600081815260999093529120909150429061134361168d565b81546001600160a01b03199081166001600160a01b03928316178355600183018054909116918d169190911790558e8e600081611382576113826120a9565b90506020020160208101906113979190611bd2565b6002820180546001600160a01b0319166001600160a01b03929092169190911790558e8e60018181106113cc576113cc6120a9565b90506020020160208101906113e19190611bd2565b8160030160006101000a8154816001600160a01b0302191690836001600160a01b031602179055508e8e600290809261141c9392919061213d565b61142a91600e840191611b3e565b50600481018a905560058101899055600d81018054600c8301889055600b8301879055600a830189905563ffffffff8a811667ffffffffffffffff1990921691909117640100000000918516918202176cffffffffff00000000000000001916600160401b9190910260ff60601b191617600160601b179055609a60006114af61168d565b6001600160a01b0390811682526020808301939093526040918201600090812080546001810182559082529390209092018590556098549051637d0c250f60e11b81526004810186905291169063fa184a1e90602401600060405180830381600087803b15801561151f57600080fd5b505af1158015611533573d6000803e3d6000fd5b5060019250611540915050565b600d820154600160601b900460ff16600481111561156057611560611c96565b1461159e5760405162461bcd60e51b815260206004820152600e60248201526d21554e50524f4345535341424c4560901b604482015260640161047a565b60018101548154600e830180546001600160a01b03938416939092169186917f9d1e5b985dd0611bc11e93d5075cdea08f64d1d51dd07489e6f288c20cd66690916000906115ee576115ee6120a9565b600091825260209091200154600e860180546001600160a01b03909216916116189060019061216b565b81548110611628576116286120a9565b60009182526020918290200154604080516001600160a01b039485168152939091169183019190915281018f9052606081018e905263ffffffff8d16608082015260a00160405180910390a450909d9c50505050505050505050505050565b3b151590565b60006116976118e5565b905090565b60655460ff166116e55760405162461bcd60e51b815260206004820152601460248201527314185d5cd8589b194e881b9bdd081c185d5cd95960621b604482015260640161047a565b6065805460ff191690557f5db9ee0a495bf2e6ff9c91a7834c1ba4fdd244a5e8aa4e537bd38aeae4b073aa61171861168d565b6040516001600160a01b03909116815260200160405180910390a1565b603380546001600160a01b038381166001600160a01b0319831681179093556040519116919082907f8be0079c531659141344cd1fd0a4f28419497f9722a3daafe3b4186f6b6457e090600090a35050565b60655460ff16156117cd5760405162461bcd60e51b815260206004820152601060248201526f14185d5cd8589b194e881c185d5cd95960821b604482015260640161047a565b6065805460ff191660011790557f62e78cea01bee320cd4e420270b5ea74000d11b0c9f74754ebdbfc544b05a25861171861168d565b600054610100900460ff1661182a5760405162461bcd60e51b815260040161047a90612182565b611832611919565b6104d9611940565b600054610100900460ff166118615760405162461bcd60e51b815260040161047a90612182565b611869611919565b6104d9611977565b60006118dc83838080602002602001604051908101604052809392919081815260200183836020028082843760009201919091525050609b546040519092506118c19150899089906020016121cd565b604051602081830303815290604052805190602001206119aa565b95945050505050565b60006014361080159061190257506097546001600160a01b031633145b15611914575060131936013560601c90565b503390565b600054610100900460ff166104d95760405162461bcd60e51b815260040161047a90612182565b600054610100900460ff166119675760405162461bcd60e51b815260040161047a90612182565b6104d961197261168d565b611735565b600054610100900460ff1661199e5760405162461bcd60e51b815260040161047a90612182565b6065805460ff19169055565b6000826119b785846119c0565b14949350505050565b600081815b8451811015611a645760008582815181106119e2576119e26120a9565b60200260200101519050808311611a24576040805160208101859052908101829052606001604051602081830303815290604052805190602001209250611a51565b60408051602081018390529081018490526060016040516020818303038152906040528051906020012092505b5080611a5c81612219565b9150506119c5565b509392505050565b60405180610240016040528060006001600160a01b0316815260200160006001600160a01b0316815260200160006001600160a01b0316815260200160006001600160a01b03168152602001600081526020016000815260200160008152602001600081526020016000815260200160008152602001600081526020016000815260200160008152602001600063ffffffff168152602001600063ffffffff168152602001600063ffffffff16815260200160006004811115611b3157611b31611c96565b8152602001606081525090565b828054828255906000526020600020908101928215611b91579160200282015b82811115611b915781546001600160a01b0319166001600160a01b03843516178255602090920191600190910190611b5e565b50611b9d929150611ba1565b5090565b5b80821115611b9d5760008155600101611ba2565b80356001600160a01b0381168114611bcd57600080fd5b919050565b600060208284031215611be457600080fd5b611bed82611bb6565b9392505050565b600060208284031215611c0657600080fd5b5035919050565b600060208083528351808285015260005b81811015611c3a57858101830151858201604001528201611c1e565b81811115611c4c576000604083870101525b50601f01601f1916929092016040019392505050565b60008060408385031215611c7557600080fd5b82359150602083013560048110611c8b57600080fd5b809150509250929050565b634e487b7160e01b600052602160045260246000fd5b60058110611cca57634e487b7160e01b600052602160045260246000fd5b9052565b600081518084526020808501945080840160005b83811015611d075781516001600160a01b031687529582019590820190600101611ce2565b509495945050505050565b60208152611d2c6020820183516001600160a01b03169052565b60006020830151611d4860408401826001600160a01b03169052565b5060408301516001600160a01b03811660608401525060608301516001600160a01b038116608084015250608083015160a08381019190915283015160c08084019190915283015160e08084019190915283015161010080840191909152830151610120808401919091528301516101408084019190915283015161016080840191909152830151610180808401919091528301516101a0808401919091528301516101c0611dfe8185018363ffffffff169052565b84015190506101e0611e178482018363ffffffff169052565b8401519050610200611e308482018363ffffffff169052565b8401519050610220611e4484820183611cac565b840151610240848101529050611e5e610260840182611cce565b949350505050565b60008060008060808587031215611e7c57600080fd5b5050823594602084013594506040840135936060013592509050565b60008060408385031215611eab57600080fd5b611eb483611bb6565b946020939093013593505050565b803563ffffffff81168114611bcd57600080fd5b600060208284031215611ee857600080fd5b611bed82611ec2565b60008083601f840112611f0357600080fd5b50813567ffffffffffffffff811115611f1b57600080fd5b6020830191508360208260051b8501011115611f3657600080fd5b9250929050565b60008060008060008060008060008060006101208c8e031215611f5f57600080fd5b67ffffffffffffffff808d351115611f7657600080fd5b611f838e8e358f01611ef1565b909c509a5060208d0135811015611f9957600080fd5b50611faa8d60208e01358e01611ef1565b9099509750611fbb60408d01611bb6565b965060608c0135955060808c01359450611fd760a08d01611ec2565b935060c08c0135925060e08c013591506101008c013590509295989b509295989b9093969950565b6020808252818101527f4f776e61626c653a2063616c6c6572206973206e6f7420746865206f776e6572604082015260600190565b60208082526005908201526404282aaa8960db1b604082015260600190565b634e487b7160e01b600052601160045260246000fd5b600063ffffffff80831681851680830382111561208857612088612053565b01949350505050565b600082198211156120a4576120a4612053565b500190565b634e487b7160e01b600052603260045260246000fd5b6bffffffffffffffffffffffff198860601b1681526000601482018860005b8981101561210d576001600160a01b036120f783611bb6565b16835260209283019291909101906001016120de565b5050958652505060e09290921b6001600160e01b0319166020840152602483015260448201526064019392505050565b6000808585111561214d57600080fd5b8386111561215a57600080fd5b5050600583901b0193919092039150565b60008282101561217d5761217d612053565b500390565b6020808252602b908201527f496e697469616c697a61626c653a20636f6e7472616374206973206e6f74206960408201526a6e697469616c697a696e6760a81b606082015260800190565b60208082528181018390526000908460408401835b8681101561220e576001600160a01b036121fb84611bb6565b16825291830191908301906001016121e2565b509695505050505050565b600060001982141561222d5761222d612053565b506001019056fea2646970667358221220c7e0a591e426cbca763e52bb3e614a1f08157508e0cd355727db0fdf7e714b6c64736f6c63430008090033",
  "devdoc": {
    "kind": "dev",
    "methods": {
      "constructor": {
        "custom:oz-upgrades-unsafe-allow": "constructor"
      },
      "owner()": {
        "details": "Returns the address of the current owner."
      },
      "paused()": {
        "details": "Returns true if the contract is paused, and false otherwise."
      },
      "renounceOwnership()": {
        "details": "Leaves the contract without owner. It will not be possible to call `onlyOwner` functions anymore. Can only be called by the current owner. NOTE: Renouncing ownership will leave the contract without an owner, thereby removing any functionality that is only available to the owner."
      },
      "transferOwnership(address)": {
        "details": "Transfers ownership of the contract to a new account (`newOwner`). Can only be called by the current owner."
      }
    },
    "stateVariables": {
      "assetsMerkleRoot": {
        "details": "merkle root of approved assets. "
      },
      "dcaManager": {
        "details": "contract to manage DCA executions. "
      },
      "dcaMap": {
        "details": "map of DCA ID to DCA info. "
      },
      "minAmount": {
        "details": "minimum amount of vault base asset for a DCA. "
      },
      "minPeriod": {
        "details": "minimum period for a DCA. "
      }
    },
    "version": 1
  },
  "userdoc": {
    "kind": "user",
    "methods": {
      "isTrustedForwarder(address)": {
        "notice": "return if the forwarder is trusted to forward relayed transactions to us. the forwarder is required to verify the sender's signature, and verify the call is not a replay."
      }
    },
    "version": 1
  },
  "storageLayout": {
    "storage": [
      {
        "astId": 327,
        "contract": "contracts/dca/CaskDCA.sol:CaskDCA",
        "label": "_initialized",
        "offset": 0,
        "slot": "0",
        "type": "t_bool"
      },
      {
        "astId": 330,
        "contract": "contracts/dca/CaskDCA.sol:CaskDCA",
        "label": "_initializing",
        "offset": 1,
        "slot": "0",
        "type": "t_bool"
      },
      {
        "astId": 2551,
        "contract": "contracts/dca/CaskDCA.sol:CaskDCA",
        "label": "__gap",
        "offset": 0,
        "slot": "1",
        "type": "t_array(t_uint256)50_storage"
      },
      {
        "astId": 205,
        "contract": "contracts/dca/CaskDCA.sol:CaskDCA",
        "label": "_owner",
        "offset": 0,
        "slot": "51",
        "type": "t_address"
      },
      {
        "astId": 319,
        "contract": "contracts/dca/CaskDCA.sol:CaskDCA",
        "label": "__gap",
        "offset": 0,
        "slot": "52",
        "type": "t_array(t_uint256)49_storage"
      },
      {
        "astId": 415,
        "contract": "contracts/dca/CaskDCA.sol:CaskDCA",
        "label": "_paused",
        "offset": 0,
        "slot": "101",
        "type": "t_bool"
      },
      {
        "astId": 506,
        "contract": "contracts/dca/CaskDCA.sol:CaskDCA",
        "label": "__gap",
        "offset": 0,
        "slot": "102",
        "type": "t_array(t_uint256)49_storage"
      },
      {
        "astId": 72,
        "contract": "contracts/dca/CaskDCA.sol:CaskDCA",
        "label": "_trustedForwarder",
        "offset": 0,
        "slot": "151",
        "type": "t_address"
      },
      {
        "astId": 10092,
        "contract": "contracts/dca/CaskDCA.sol:CaskDCA",
        "label": "dcaManager",
        "offset": 0,
        "slot": "152",
        "type": "t_contract(ICaskDCAManager)12175"
      },
      {
        "astId": 10098,
        "contract": "contracts/dca/CaskDCA.sol:CaskDCA",
        "label": "dcaMap",
        "offset": 0,
        "slot": "153",
        "type": "t_mapping(t_bytes32,t_struct(DCA)12010_storage)"
      },
      {
        "astId": 10103,
        "contract": "contracts/dca/CaskDCA.sol:CaskDCA",
        "label": "userDCAs",
        "offset": 0,
        "slot": "154",
        "type": "t_mapping(t_address,t_array(t_bytes32)dyn_storage)"
      },
      {
        "astId": 10106,
        "contract": "contracts/dca/CaskDCA.sol:CaskDCA",
        "label": "assetsMerkleRoot",
        "offset": 0,
        "slot": "155",
        "type": "t_bytes32"
      },
      {
        "astId": 10109,
        "contract": "contracts/dca/CaskDCA.sol:CaskDCA",
        "label": "minAmount",
        "offset": 0,
        "slot": "156",
        "type": "t_uint256"
      },
      {
        "astId": 10112,
        "contract": "contracts/dca/CaskDCA.sol:CaskDCA",
        "label": "minPeriod",
        "offset": 0,
        "slot": "157",
        "type": "t_uint32"
      }
    ],
    "types": {
      "t_address": {
        "encoding": "inplace",
        "label": "address",
        "numberOfBytes": "20"
      },
      "t_array(t_address)dyn_storage": {
        "base": "t_address",
        "encoding": "dynamic_array",
        "label": "address[]",
        "numberOfBytes": "32"
      },
      "t_array(t_bytes32)dyn_storage": {
        "base": "t_bytes32",
        "encoding": "dynamic_array",
        "label": "bytes32[]",
        "numberOfBytes": "32"
      },
      "t_array(t_uint256)49_storage": {
        "base": "t_uint256",
        "encoding": "inplace",
        "label": "uint256[49]",
        "numberOfBytes": "1568"
      },
      "t_array(t_uint256)50_storage": {
        "base": "t_uint256",
        "encoding": "inplace",
        "label": "uint256[50]",
        "numberOfBytes": "1600"
      },
      "t_bool": {
        "encoding": "inplace",
        "label": "bool",
        "numberOfBytes": "1"
      },
      "t_bytes32": {
        "encoding": "inplace",
        "label": "bytes32",
        "numberOfBytes": "32"
      },
      "t_contract(ICaskDCAManager)12175": {
        "encoding": "inplace",
        "label": "contract ICaskDCAManager",
        "numberOfBytes": "20"
      },
      "t_enum(DCAStatus)11966": {
        "encoding": "inplace",
        "label": "enum ICaskDCA.DCAStatus",
        "numberOfBytes": "1"
      },
      "t_mapping(t_address,t_array(t_bytes32)dyn_storage)": {
        "encoding": "mapping",
        "key": "t_address",
        "label": "mapping(address => bytes32[])",
        "numberOfBytes": "32",
        "value": "t_array(t_bytes32)dyn_storage"
      },
      "t_mapping(t_bytes32,t_struct(DCA)12010_storage)": {
        "encoding": "mapping",
        "key": "t_bytes32",
        "label": "mapping(bytes32 => struct ICaskDCA.DCA)",
        "numberOfBytes": "32",
        "value": "t_struct(DCA)12010_storage"
      },
      "t_struct(DCA)12010_storage": {
        "encoding": "inplace",
        "label": "struct ICaskDCA.DCA",
        "members": [
          {
            "astId": 11973,
            "contract": "contracts/dca/CaskDCA.sol:CaskDCA",
            "label": "user",
            "offset": 0,
            "slot": "0",
            "type": "t_address"
          },
          {
            "astId": 11975,
            "contract": "contracts/dca/CaskDCA.sol:CaskDCA",
            "label": "to",
            "offset": 0,
            "slot": "1",
            "type": "t_address"
          },
          {
            "astId": 11977,
            "contract": "contracts/dca/CaskDCA.sol:CaskDCA",
            "label": "router",
            "offset": 0,
            "slot": "2",
            "type": "t_address"
          },
          {
            "astId": 11979,
            "contract": "contracts/dca/CaskDCA.sol:CaskDCA",
            "label": "priceFeed",
            "offset": 0,
            "slot": "3",
            "type": "t_address"
          },
          {
            "astId": 11981,
            "contract": "contracts/dca/CaskDCA.sol:CaskDCA",
            "label": "amount",
            "offset": 0,
            "slot": "4",
            "type": "t_uint256"
          },
          {
            "astId": 11983,
            "contract": "contracts/dca/CaskDCA.sol:CaskDCA",
            "label": "totalAmount",
            "offset": 0,
            "slot": "5",
            "type": "t_uint256"
          },
          {
            "astId": 11985,
            "contract": "contracts/dca/CaskDCA.sol:CaskDCA",
            "label": "currentAmount",
            "offset": 0,
            "slot": "6",
            "type": "t_uint256"
          },
          {
            "astId": 11987,
            "contract": "contracts/dca/CaskDCA.sol:CaskDCA",
            "label": "currentQty",
            "offset": 0,
            "slot": "7",
            "type": "t_uint256"
          },
          {
            "astId": 11989,
            "contract": "contracts/dca/CaskDCA.sol:CaskDCA",
            "label": "numBuys",
            "offset": 0,
            "slot": "8",
            "type": "t_uint256"
          },
          {
            "astId": 11991,
            "contract": "contracts/dca/CaskDCA.sol:CaskDCA",
            "label": "numSkips",
            "offset": 0,
            "slot": "9",
            "type": "t_uint256"
          },
          {
            "astId": 11993,
            "contract": "contracts/dca/CaskDCA.sol:CaskDCA",
            "label": "slippageBps",
            "offset": 0,
            "slot": "10",
            "type": "t_uint256"
          },
          {
            "astId": 11995,
            "contract": "contracts/dca/CaskDCA.sol:CaskDCA",
            "label": "maxPrice",
            "offset": 0,
            "slot": "11",
            "type": "t_uint256"
          },
          {
            "astId": 11997,
            "contract": "contracts/dca/CaskDCA.sol:CaskDCA",
            "label": "minPrice",
            "offset": 0,
            "slot": "12",
            "type": "t_uint256"
          },
          {
            "astId": 11999,
            "contract": "contracts/dca/CaskDCA.sol:CaskDCA",
            "label": "period",
            "offset": 0,
            "slot": "13",
            "type": "t_uint32"
          },
          {
            "astId": 12001,
            "contract": "contracts/dca/CaskDCA.sol:CaskDCA",
            "label": "createdAt",
            "offset": 4,
            "slot": "13",
            "type": "t_uint32"
          },
          {
            "astId": 12003,
            "contract": "contracts/dca/CaskDCA.sol:CaskDCA",
            "label": "processAt",
            "offset": 8,
            "slot": "13",
            "type": "t_uint32"
          },
          {
            "astId": 12006,
            "contract": "contracts/dca/CaskDCA.sol:CaskDCA",
            "label": "status",
            "offset": 12,
            "slot": "13",
            "type": "t_enum(DCAStatus)11966"
          },
          {
            "astId": 12009,
            "contract": "contracts/dca/CaskDCA.sol:CaskDCA",
            "label": "path",
            "offset": 0,
            "slot": "14",
            "type": "t_array(t_address)dyn_storage"
          }
        ],
        "numberOfBytes": "480"
      },
      "t_uint256": {
        "encoding": "inplace",
        "label": "uint256",
        "numberOfBytes": "32"
      },
      "t_uint32": {
        "encoding": "inplace",
        "label": "uint32",
        "numberOfBytes": "4"
      }
    }
  }
}