{
  "address": "0x58cD4e8AEa6637BF6589a340766b29BD55933e07",
  "abi": [
    {
      "inputs": [],
      "stateMutability": "nonpayable",
      "type": "constructor"
    },
    {
      "anonymous": false,
      "inputs": [
        {
          "indexed": true,
          "internalType": "address",
          "name": "router",
          "type": "address"
        }
      ],
      "name": "BlacklistRouter",
      "type": "event"
    },
    {
      "anonymous": false,
      "inputs": [
        {
          "indexed": true,
          "internalType": "address",
          "name": "previousOwner",
          "type": "address"
        },
        {
          "indexed": true,
          "internalType": "address",
          "name": "newOwner",
          "type": "address"
        }
      ],
      "name": "OwnershipTransferred",
      "type": "event"
    },
    {
      "anonymous": false,
      "inputs": [
        {
          "indexed": false,
          "internalType": "address",
          "name": "account",
          "type": "address"
        }
      ],
      "name": "Paused",
      "type": "event"
    },
    {
      "anonymous": false,
      "inputs": [
        {
          "indexed": false,
          "internalType": "uint256",
          "name": "limit",
          "type": "uint256"
        },
        {
          "indexed": false,
          "internalType": "uint256",
          "name": "jobsProcessed",
          "type": "uint256"
        },
        {
          "indexed": false,
          "internalType": "uint256",
          "name": "depth",
          "type": "uint256"
        },
        {
          "indexed": false,
          "internalType": "uint8",
          "name": "queueId",
          "type": "uint8"
        },
        {
          "indexed": false,
          "internalType": "uint256",
          "name": "queueRemaining",
          "type": "uint256"
        },
        {
          "indexed": false,
          "internalType": "uint32",
          "name": "currentBucket",
          "type": "uint32"
        }
      ],
      "name": "QueueRunReport",
      "type": "event"
    },
    {
      "anonymous": false,
      "inputs": [],
      "name": "SetParameters",
      "type": "event"
    },
    {
      "anonymous": false,
      "inputs": [
        {
          "indexed": true,
          "internalType": "address",
          "name": "router",
          "type": "address"
        }
      ],
      "name": "UnblacklistRouter",
      "type": "event"
    },
    {
      "anonymous": false,
      "inputs": [
        {
          "indexed": false,
          "internalType": "address",
          "name": "account",
          "type": "address"
        }
      ],
      "name": "Unpaused",
      "type": "event"
    },
    {
      "anonymous": false,
      "inputs": [
        {
          "indexed": false,
          "internalType": "uint8",
          "name": "queueId",
          "type": "uint8"
        },
        {
          "indexed": false,
          "internalType": "bytes32",
          "name": "workUnit",
          "type": "bytes32"
        }
      ],
      "name": "WorkUnitProcessed",
      "type": "event"
    },
    {
      "anonymous": false,
      "inputs": [
        {
          "indexed": false,
          "internalType": "uint8",
          "name": "queueId",
          "type": "uint8"
        },
        {
          "indexed": false,
          "internalType": "bytes32",
          "name": "workUnit",
          "type": "bytes32"
        },
        {
          "indexed": false,
          "internalType": "uint32",
          "name": "processAt",
          "type": "uint32"
        }
      ],
      "name": "WorkUnitQueued",
      "type": "event"
    },
    {
      "inputs": [],
      "name": "assetsMerkleRoot",
      "outputs": [
        {
          "internalType": "bytes32",
          "name": "",
          "type": "bytes32"
        }
      ],
      "stateMutability": "view",
      "type": "function"
    },
    {
      "inputs": [
        {
          "internalType": "address",
          "name": "_router",
          "type": "address"
        }
      ],
      "name": "blacklistRouter",
      "outputs": [],
      "stateMutability": "nonpayable",
      "type": "function"
    },
    {
      "inputs": [
        {
          "internalType": "address",
          "name": "",
          "type": "address"
        }
      ],
      "name": "blacklistedRouters",
      "outputs": [
        {
          "internalType": "bool",
          "name": "",
          "type": "bool"
        }
      ],
      "stateMutability": "view",
      "type": "function"
    },
    {
      "inputs": [],
      "name": "caskDCA",
      "outputs": [
        {
          "internalType": "contract ICaskDCA",
          "name": "",
          "type": "address"
        }
      ],
      "stateMutability": "view",
      "type": "function"
    },
    {
      "inputs": [],
      "name": "caskVault",
      "outputs": [
        {
          "internalType": "contract ICaskVault",
          "name": "",
          "type": "address"
        }
      ],
      "stateMutability": "view",
      "type": "function"
    },
    {
      "inputs": [
        {
          "internalType": "bytes",
          "name": "checkData",
          "type": "bytes"
        }
      ],
      "name": "checkUpkeep",
      "outputs": [
        {
          "internalType": "bool",
          "name": "upkeepNeeded",
          "type": "bool"
        },
        {
          "internalType": "bytes",
          "name": "performData",
          "type": "bytes"
        }
      ],
      "stateMutability": "view",
      "type": "function"
    },
    {
      "inputs": [],
      "name": "dcaFeeBps",
      "outputs": [
        {
          "internalType": "uint256",
          "name": "",
          "type": "uint256"
        }
      ],
      "stateMutability": "view",
      "type": "function"
    },
    {
      "inputs": [],
      "name": "dcaFeeMin",
      "outputs": [
        {
          "internalType": "uint256",
          "name": "",
          "type": "uint256"
        }
      ],
      "stateMutability": "view",
      "type": "function"
    },
    {
      "inputs": [],
      "name": "dcaMinValue",
      "outputs": [
        {
          "internalType": "uint256",
          "name": "",
          "type": "uint256"
        }
      ],
      "stateMutability": "view",
      "type": "function"
    },
    {
      "inputs": [
        {
          "internalType": "address",
          "name": "_caskDCA",
          "type": "address"
        },
        {
          "internalType": "address",
          "name": "_caskVault",
          "type": "address"
        }
      ],
      "name": "initialize",
      "outputs": [],
      "stateMutability": "nonpayable",
      "type": "function"
    },
    {
      "inputs": [],
      "name": "maxPriceFeedAge",
      "outputs": [
        {
          "internalType": "uint256",
          "name": "",
          "type": "uint256"
        }
      ],
      "stateMutability": "view",
      "type": "function"
    },
    {
      "inputs": [],
      "name": "maxQueueAge",
      "outputs": [
        {
          "internalType": "uint32",
          "name": "",
          "type": "uint32"
        }
      ],
      "stateMutability": "view",
      "type": "function"
    },
    {
      "inputs": [],
      "name": "maxSkips",
      "outputs": [
        {
          "internalType": "uint256",
          "name": "",
          "type": "uint256"
        }
      ],
      "stateMutability": "view",
      "type": "function"
    },
    {
      "inputs": [],
      "name": "owner",
      "outputs": [
        {
          "internalType": "address",
          "name": "",
          "type": "address"
        }
      ],
      "stateMutability": "view",
      "type": "function"
    },
    {
      "inputs": [],
      "name": "paused",
      "outputs": [
        {
          "internalType": "bool",
          "name": "",
          "type": "bool"
        }
      ],
      "stateMutability": "view",
      "type": "function"
    },
    {
      "inputs": [
        {
          "internalType": "bytes",
          "name": "performData",
          "type": "bytes"
        }
      ],
      "name": "performUpkeep",
      "outputs": [],
      "stateMutability": "nonpayable",
      "type": "function"
    },
    {
      "inputs": [],
      "name": "queueBucketSize",
      "outputs": [
        {
          "internalType": "uint32",
          "name": "",
          "type": "uint32"
        }
      ],
      "stateMutability": "view",
      "type": "function"
    },
    {
      "inputs": [
        {
          "internalType": "uint8",
          "name": "_queueId",
          "type": "uint8"
        },
        {
          "internalType": "uint32",
          "name": "_bucket",
          "type": "uint32"
        },
        {
          "internalType": "uint256",
          "name": "_idx",
          "type": "uint256"
        }
      ],
      "name": "queueItem",
      "outputs": [
        {
          "internalType": "bytes32",
          "name": "",
          "type": "bytes32"
        }
      ],
      "stateMutability": "view",
      "type": "function"
    },
    {
      "inputs": [
        {
          "internalType": "uint8",
          "name": "_queueId",
          "type": "uint8"
        }
      ],
      "name": "queuePosition",
      "outputs": [
        {
          "internalType": "uint32",
          "name": "",
          "type": "uint32"
        }
      ],
      "stateMutability": "view",
      "type": "function"
    },
    {
      "inputs": [
        {
          "internalType": "uint8",
          "name": "_queueId",
          "type": "uint8"
        },
        {
          "internalType": "uint32",
          "name": "_bucket",
          "type": "uint32"
        }
      ],
      "name": "queueSize",
      "outputs": [
        {
          "internalType": "uint256",
          "name": "",
          "type": "uint256"
        }
      ],
      "stateMutability": "view",
      "type": "function"
    },
    {
      "inputs": [
        {
          "internalType": "bytes32",
          "name": "_dcaId",
          "type": "bytes32"
        }
      ],
      "name": "registerDCA",
      "outputs": [],
      "stateMutability": "nonpayable",
      "type": "function"
    },
    {
      "inputs": [],
      "name": "renounceOwnership",
      "outputs": [],
      "stateMutability": "nonpayable",
      "type": "function"
    },
    {
      "inputs": [
        {
          "internalType": "uint32",
          "name": "_maxQueueAge",
          "type": "uint32"
        }
      ],
      "name": "setMaxQueueAge",
      "outputs": [],
      "stateMutability": "nonpayable",
      "type": "function"
    },
    {
      "inputs": [
        {
          "internalType": "uint256",
          "name": "_maxSkips",
          "type": "uint256"
        },
        {
          "internalType": "uint256",
          "name": "_dcaFeeBps",
          "type": "uint256"
        },
        {
          "internalType": "uint256",
          "name": "_dcaFeeMin",
          "type": "uint256"
        },
        {
          "internalType": "uint256",
          "name": "_dcaMinValue",
          "type": "uint256"
        },
        {
          "internalType": "uint256",
          "name": "_maxPriceFeedAge",
          "type": "uint256"
        },
        {
          "internalType": "uint32",
          "name": "_queueBucketSize",
          "type": "uint32"
        }
      ],
      "name": "setParameters",
      "outputs": [],
      "stateMutability": "nonpayable",
      "type": "function"
    },
    {
      "inputs": [
        {
          "internalType": "uint32",
          "name": "_queueBucketSize",
          "type": "uint32"
        }
      ],
      "name": "setQueueBucketSize",
      "outputs": [],
      "stateMutability": "nonpayable",
      "type": "function"
    },
    {
      "inputs": [
        {
          "internalType": "uint8",
          "name": "_queueId",
          "type": "uint8"
        },
        {
          "internalType": "uint32",
          "name": "_timestamp",
          "type": "uint32"
        }
      ],
      "name": "setQueuePosition",
      "outputs": [],
      "stateMutability": "nonpayable",
      "type": "function"
    },
    {
      "inputs": [
        {
          "internalType": "address",
          "name": "newOwner",
          "type": "address"
        }
      ],
      "name": "transferOwnership",
      "outputs": [],
      "stateMutability": "nonpayable",
      "type": "function"
    },
    {
      "inputs": [
        {
          "internalType": "address",
          "name": "_router",
          "type": "address"
        }
      ],
      "name": "unblacklistRouter",
      "outputs": [],
      "stateMutability": "nonpayable",
      "type": "function"
    }
  ],
  "transactionHash": "0x370918d34cc1652b233d4a1efce06e9aa21d3500b6b0dff874ecb3587438a231",
  "args": [],
  "numDeployments": 1,
  "solcInputHash": "79a7f6ff9bd8a3922495b96a9b369300",
  "bytecode": "0x60806040523480156200001157600080fd5b50600054610100900460ff166200002f5760005460ff161562000039565b62000039620000de565b620000a15760405162461bcd60e51b815260206004820152602e60248201527f496e697469616c697a61626c653a20636f6e747261637420697320616c72656160448201526d191e481a5b9a5d1a585b1a5e995960921b606482015260840160405180910390fd5b600054610100900460ff16158015620000c4576000805461ffff19166101011790555b8015620000d7576000805461ff00191690555b5062000102565b6000620000f630620000fc60201b62000e971760201c565b15905090565b3b151590565b61316580620001126000396000f3fe608060405234801561001057600080fd5b50600436106101c45760003560e01c8063715018a6116100f9578063b5c60b3811610097578063cd48a61411610071578063cd48a614146103c8578063e775d1ac146103db578063f2fde38b146103ee578063fa184a1e1461040157600080fd5b8063b5c60b3814610394578063c5064653146103a7578063c6f8806c146103b057600080fd5b80638da5cb5b116100d35780638da5cb5b14610354578063a47755d114610365578063aa878f7614610378578063ab4de5ed1461038b57600080fd5b8063715018a614610329578063729d8107146103315780638bddd2e41461034457600080fd5b8063453c3ea1116101665780634b51dd22116101405780634b51dd22146102c15780634d1ed891146102ca5780635c975abb146102fd5780636e04ff0d1461030857600080fd5b8063453c3ea1146102885780634585e33b1461029b578063485cc955146102ae57600080fd5b806314fad707116101a257806314fad707146102255780631ac6c56b146102385780631c39033c1461024157806330f01be81461027f57600080fd5b806308058e7c146101c95780630816c847146101f95780630caae41d14610210575b600080fd5b60cc546101dc906001600160a01b031681565b6040516001600160a01b0390911681526020015b60405180910390f35b61020260d45481565b6040519081526020016101f0565b61022361021e36600461260d565b610414565b005b610202610233366004612646565b61047f565b61020260d15481565b61026a61024f366004612687565b60ff16600090815260cb602052604090205463ffffffff1690565b60405163ffffffff90911681526020016101f0565b61020260d35481565b6102236102963660046126b9565b6104c9565b6102236102a93660046126d6565b61053c565b6102236102bc366004612748565b61087f565b61020260ce5481565b6102ed6102d83660046126b9565b60cf6020526000908152604090205460ff1681565b60405190151581526020016101f0565b60975460ff166102ed565b61031b6103163660046126d6565b61098e565b6040516101f09291906127ce565b610223610b0d565b61022361033f3660046127e9565b610b43565b60c95461026a9063ffffffff1681565b6065546001600160a01b03166101dc565b60cd546101dc906001600160a01b031681565b61020261038636600461260d565b610b95565b61020260d25481565b6102236103a23660046126b9565b610bc0565b61020260d05481565b60c95461026a90640100000000900463ffffffff1681565b6102236103d63660046127e9565b610c36565b6102236103e9366004612806565b610c7c565b6102236103fc3660046126b9565b610d4c565b61022361040f36600461285b565b610de7565b6065546001600160a01b031633146104475760405162461bcd60e51b815260040161043e90612874565b60405180910390fd5b61045081610e9d565b60ff92909216600090815260cb60205260409020805463ffffffff191663ffffffff9093169290921790915550565b60ff8316600090815260ca6020908152604080832063ffffffff8616845290915281208054839081106104b4576104b46128a9565b906000526020600020015490505b9392505050565b6065546001600160a01b031633146104f35760405162461bcd60e51b815260040161043e90612874565b6001600160a01b038116600081815260cf6020526040808220805460ff19169055517fbe68633f03b6fc1b408a601ddf93393cc980ad052eb3a3a2cc7e3599ec117b3d9190a250565b60975460ff16156105825760405162461bcd60e51b815260206004820152601060248201526f14185d5cd8589b194e881c185d5cd95960821b604482015260640161043e565b60008080610592848601866128bf565b92509250925060006105a2610ec7565b90506000806105b286600561290e565b60ff8516600090815260cb602052604090205490915063ffffffff166105f85760ff8416600090815260cb60205260409020805463ffffffff191663ffffffff85161790555b85821080156106075750600081115b801561062e575060ff8416600090815260cb602052604090205463ffffffff808516911611155b156107ed5760ff8416600090815260ca6020908152604080832060cb83528184205463ffffffff168452909152902054801561075d5760ff8516600090815260ca6020908152604080832060cb83528184205463ffffffff168452909152812061069960018461292d565b815481106106a9576106a96128a9565b600091825260208083209091015460ff8916835260ca8252604080842060cb84528185205463ffffffff1685529092529120805491925090806106ee576106ee612944565b6001900381819060005260206000200160009055905561070e8682610eef565b6040805160ff88168152602081018390527f58c7ae721fd25aaf84e68db9ce9ac6fed4f08438a370a4299d19f8c1425c499e910160405180910390a161075560018561295a565b9350506107e7565b60ff8516600090815260cb602052604090205463ffffffff808616911610156107e15760c95460ff8616600090815260cb60205260408120805463ffffffff938416939192916107af91859116612972565b92506101000a81548163ffffffff021916908363ffffffff1602179055506001826107da919061292d565b91506107e7565b506107ed565b506105f8565b60ff8416600081815260ca6020908152604080832060cb8084528285205463ffffffff168086529184528285205494869052835281518b81529283018790528282018a90526060830194909452608082019290925260a0810192909252517fd69140f88b9a25350749bb371882f4479133fc8b65602aac60f6c1b3598f08329181900360c00190a15050505050505050565b600054610100900460ff1661089a5760005460ff161561089e565b303b155b6109015760405162461bcd60e51b815260206004820152602e60248201527f496e697469616c697a61626c653a20636f6e747261637420697320616c72656160448201526d191e481a5b9a5d1a585b1a5e995960921b606482015260840161043e565b600054610100900460ff16158015610923576000805461ffff19166101011790555b60cc80546001600160a01b038086166001600160a01b03199283161790925560cd805492851692909116919091179055600060d081905560d181905560d281905560d381905560d455610977610e106112f7565b8015610989576000805461ff00191690555b505050565b600060608180806109a1868801886128bf565b92509250925060006109b1610ec7565b60ff8316600090815260cb602052604081205490975090915063ffffffff16806109d85750805b8063ffffffff168263ffffffff1610158015610a13575060c954640100000000900463ffffffff16610a0a828461299a565b63ffffffff1610155b15610a215760019650610ab1565b8163ffffffff168163ffffffff1611610ab15760ff8316600090815260ca6020908152604080832063ffffffff8516845290915290205415801590610a89575060ff8316600090815260ca6020908152604080832063ffffffff851684529091529020548411155b15610a975760019650610ab1565b60c954610aaa9063ffffffff1682612972565b9050610a21565b60ff8316600081815260ca6020908152604080832063ffffffff86168452825291829020548251918201899052918101919091526060810191909152608001604051602081830303815290604052955050505050509250929050565b6065546001600160a01b03163314610b375760405162461bcd60e51b815260040161043e90612874565b610b41600061133f565b565b6065546001600160a01b03163314610b6d5760405162461bcd60e51b815260040161043e90612874565b60c9805463ffffffff9092166401000000000267ffffffff0000000019909216919091179055565b60ff8216600090815260ca6020908152604080832063ffffffff851684529091529020545b92915050565b6065546001600160a01b03163314610bea5760405162461bcd60e51b815260040161043e90612874565b6001600160a01b038116600081815260cf6020526040808220805460ff19166001179055517ffd53558403e69775f527253d59778a7280ef9037a9285f1f1df3595b6ac996319190a250565b6065546001600160a01b03163314610c605760405162461bcd60e51b815260040161043e90612874565b60c9805463ffffffff191663ffffffff92909216919091179055565b6065546001600160a01b03163314610ca65760405162461bcd60e51b815260040161043e90612874565b6127108510610ced5760405162461bcd60e51b815260206004820152601360248201527221494e56414c4944286463614665654270732960681b604482015260640161043e565b60d086905560d185905560d284905560d383905560d482905560c9805463ffffffff191663ffffffff83161790556040517f3b5fda6f71b960b21be0b432d9b7c87d9c8c996477ea1eba5c19cb77d1e027aa90600090a1505050505050565b6065546001600160a01b03163314610d765760405162461bcd60e51b815260040161043e90612874565b6001600160a01b038116610ddb5760405162461bcd60e51b815260206004820152602660248201527f4f776e61626c653a206e6577206f776e657220697320746865207a65726f206160448201526564647265737360d01b606482015260840161043e565b610de48161133f565b50565b60026001541415610e3a5760405162461bcd60e51b815260206004820152601f60248201527f5265656e7472616e637947756172643a207265656e7472616e742063616c6c00604482015260640161043e565b600260015560975460ff1615610e855760405162461bcd60e51b815260206004820152601060248201526f14185d5cd8589b194e881c185d5cd95960821b604482015260640161043e565b610e90600182610eef565b5060018055565b3b151590565b60c95460009063ffffffff16610eb381846129d5565b610ebd908461299a565b610bba9190612972565b60c9546000904290610edf9063ffffffff16826129d5565b610ee9908261299a565b91505090565b60cc546040516392c65f4b60e01b8152600481018390526000916001600160a01b0316906392c65f4b9060240160006040518083038186803b158015610f3457600080fd5b505afa158015610f48573d6000803e3d6000fd5b505050506040513d6000823e601f3d908101601f19168201604052610f709190810190612b2b565b6040808201516001600160a01b0316600090815260cf602052205490915060ff16156110005760cc54604051635ba581cd60e01b81526001600160a01b0390911690635ba581cd90610fc9908590600190600401612c9e565b600060405180830381600087803b158015610fe357600080fd5b505af1158015610ff7573d6000803e3d6000fd5b50505050505050565b6001816102000151600481111561101957611019612c88565b1461102357505050565b60d354816080015110156110975760cc54604051635ba581cd60e01b81526001600160a01b0390911690635ba581cd90611064908590600190600401612c9e565b600060405180830381600087803b15801561107e57600080fd5b505af1158015611092573d6000803e3d6000fd5b505050505b6101e0810151429063ffffffff808316911611156110cd576110c784846110c2856101e00151610e9d565b611391565b50505050565b608082015160a0830151158015906110f757508260c001518360a001516110f4919061292d565b81115b15611113578260c001518360a00151611110919061292d565b90505b600061271060d15483611126919061290e565b6111309190612cd0565b905060d254811015611141575060d2545b600061114e858484611421565b9050801561121a5760a0850151158061117957508460a00151838660c00151611177919061295a565b105b156111a1576111a187876110c2886101a00151896101e0015161119c9190612972565b610e9d565b60cc54604051632d32f27960e21b8152600481018890526024810185905260448101839052606481018490526001600160a01b039091169063b4cbc9e4906084015b600060405180830381600087803b1580156111fd57600080fd5b505af1158015611211573d6000803e3d6000fd5b50505050610ff7565b600060d054118015611233575060d05485610120015110155b1561126b5760cc54604051635ba581cd60e01b81526001600160a01b0390911690635ba581cd906111e3908990600390600401612c9e565b61128987876110c2886101a00151896101e0015161119c9190612972565b60cc54604051635ba581cd60e01b81526001600160a01b0390911690635ba581cd906112bc908990600290600401612c9e565b600060405180830381600087803b1580156112d657600080fd5b505af11580156112ea573d6000803e3d6000fd5b5050505050505050505050565b600054610100900460ff1661131e5760405162461bcd60e51b815260040161043e90612ce4565b611326611be4565b61132e611c1b565b611336611c52565b610de481611c79565b606580546001600160a01b038381166001600160a01b0319831681179093556040519116919082907f8be0079c531659141344cd1fd0a4f28419497f9722a3daafe3b4186f6b6457e090600090a35050565b60ff8316600090815260ca60205260408120906113ad83610e9d565b63ffffffff90811682526020808301939093526040918201600090812080546001810182559082529084902001859055815160ff87168152928301859052831682820152517f67778e52b18dcf574ab071142a886fce91a8ce5e60e176229fdadb8c063caaed9181900360600190a1505050565b60008084610220015160008151811061143c5761143c6128a9565b602002602001015190506000856102200151600187610220015151611461919061292d565b81518110611471576114716128a9565b602090810291909101015160cd5460405163185c596360e11b81526001600160a01b038581166004830152929350600092909116906330b8b2c69060240160c06040518083038186803b1580156114c757600080fd5b505afa1580156114db573d6000803e3d6000fd5b505050506040513d601f19601f820116820180604052508101906114ff9190612d3f565b90508060a0015161151657600093505050506104c2565b611527878783858b60600151611ce6565b61153757600093505050506104c2565b6040516370a0823160e01b81523060048201526000906001600160a01b038516906370a082319060240160206040518083038186803b15801561157957600080fd5b505afa15801561158d573d6000803e3d6000fd5b505050506040513d601f19601f820116820180604052508101906115b19190612dd8565b60cd54895160405163fcd6a25b60e01b81526001600160a01b039182166004820152306024820152604481018b9052606481018a9052929350169063fcd6a25b90608401600060405180830381600087803b15801561160f57600080fd5b505af1925050508015611620575060015b611662573d80801561164e576040519150601f19603f3d011682016040523d82523d6000602084013e611653565b606091505b506000955050505050506104c2565b60cd546000906001600160a01b031663e1ded2de611680898b61292d565b6040518263ffffffff1660e01b815260040161169e91815260200190565b60206040518083038186803b1580156116b657600080fd5b505afa1580156116ca573d6000803e3d6000fd5b505050506040513d601f19601f820116820180604052508101906116ee9190612dd8565b60cd546040516370a0823160e01b81523060048201529192506001600160a01b0316906370a082319060240160206040518083038186803b15801561173257600080fd5b505afa158015611746573d6000803e3d6000fd5b505050506040513d601f19601f8201168201806040525081019061176a9190612dd8565b8111156117ef5760cd546040516370a0823160e01b81523060048201526001600160a01b03909116906370a082319060240160206040518083038186803b1580156117b457600080fd5b505afa1580156117c8573d6000803e3d6000fd5b505050506040513d601f19601f820116820180604052508101906117ec9190612dd8565b90505b60cd5460405163f3fef3a360e01b81526001600160a01b038781166004830152602482018490529091169063f3fef3a390604401600060405180830381600087803b15801561183d57600080fd5b505af192505050801561184e575060015b611891573d80801561187c576040519150601f19603f3d011682016040523d82523d6000602084013e611881565b606091505b50600096505050505050506104c2565b6040516370a0823160e01b815230600482015260009083906001600160a01b038816906370a082319060240160206040518083038186803b1580156118d557600080fd5b505afa1580156118e9573d6000803e3d6000fd5b505050506040513d601f19601f8201168201806040525081019061190d9190612dd8565b611917919061292d565b90506000811161195e5760405162461bcd60e51b815260206004820152601260248201527121494e56414c494428616d6f756e74496e2960701b604482015260640161043e565b60608a01516000906001600160a01b03161561198b5761198485878d606001518d611f20565b9050611a45565b60008b604001516001600160a01b031663d06ca61f8c8e61022001516040518363ffffffff1660e01b81526004016119c4929190612e35565b60006040518083038186803b1580156119dc57600080fd5b505afa1580156119f0573d6000803e3d6000fd5b505050506040513d6000823e601f3d908101601f19168201604052611a189190810190612e4e565b90508060018251611a29919061292d565b81518110611a3957611a396128a9565b60200260200101519150505b60408b0151611a5f906001600160a01b0389169084612258565b8a604001516001600160a01b03166338ed1739836127108e610140015185611a87919061290e565b611a919190612cd0565b611a9b908561292d565b8e61022001518f6020015142610e10611ab4919061295a565b6040518663ffffffff1660e01b8152600401611ad4959493929190612ed4565b600060405180830381600087803b158015611aee57600080fd5b505af1925050508015611b2357506040513d6000823e601f3d908101601f19168201604052611b209190810190612e4e565b60015b611b68573d808015611b51576040519150601f19603f3d011682016040523d82523d6000602084013e611b56565b606091505b506000985050505050505050506104c2565b600281511015611bae5760405162461bcd60e51b815260206004820152601160248201527021494e56414c494428616d6f756e74732960781b604482015260640161043e565b8060018251611bbd919061292d565b81518110611bcd57611bcd6128a9565b6020026020010151985050505050505050506104c2565b600054610100900460ff16611c0b5760405162461bcd60e51b815260040161043e90612ce4565b611c13611c52565b610b4161233b565b600054610100900460ff16611c425760405162461bcd60e51b815260040161043e90612ce4565b611c4a611c52565b610b4161236b565b600054610100900460ff16610b415760405162461bcd60e51b815260040161043e90612ce4565b600054610100900460ff16611ca05760405162461bcd60e51b815260040161043e90612ce4565b60c9805463ffffffff191663ffffffff8316908117909155611cc3906014612f10565b60c960046101000a81548163ffffffff021916908363ffffffff16021790555050565b60008561018001516000148015611d005750610160860151155b15611d0d57506001611f17565b600080846001600160a01b031663313ce5676040518163ffffffff1660e01b815260040160206040518083038186803b158015611d4957600080fd5b505afa158015611d5d573d6000803e3d6000fd5b505050506040513d601f19601f82011682018060405250810190611d819190612f3c565b90506000611d9082600a61303d565b60608a01519091506001600160a01b031615611ddd57611dc28787878a60600151600a611dbd919061303d565b611f20565b611dcc828061290e565b611dd69190612cd0565b9250611ebb565b600089604001516001600160a01b031663d06ca61f8a8c61022001516040518363ffffffff1660e01b8152600401611e16929190612e35565b60006040518083038186803b158015611e2e57600080fd5b505afa158015611e42573d6000803e3d6000fd5b505050506040513d6000823e601f3d908101601f19168201604052611e6a9190810190612e4e565b90508060018251611e7b919061292d565b81518110611e8b57611e8b6128a9565b602002602001015182611ea38b8b606001518761239e565b611ead919061290e565b611eb79190612cd0565b9350505b6000896101800151118015611ed4575088610180015183105b15611ee55760009350505050611f17565b6000896101600151118015611efe575088610160015183115b15611f0f5760009350505050611f17565b600193505050505b95945050505050565b600081611f2f57506000612250565b6000806000866001600160a01b031663313ce5676040518163ffffffff1660e01b815260040160206040518083038186803b158015611f6d57600080fd5b505afa158015611f81573d6000803e3d6000fd5b505050506040513d601f19601f82011682018060405250810190611fa59190612f3c565b90506000866001600160a01b031663313ce5676040518163ffffffff1660e01b815260040160206040518083038186803b158015611fe257600080fd5b505afa158015611ff6573d6000803e3d6000fd5b505050506040513d601f19601f8201168201806040525081019061201a9190612f3c565b905088600001516001600160a01b031663feaf968c6040518163ffffffff1660e01b815260040160a06040518083038186803b15801561205957600080fd5b505afa15801561206d573d6000803e3d6000fd5b505050506040513d601f19601f820116820180604052508101906120919190613066565b5060d45492975095508692505015806120b5575060d4546120b2854261292d565b11155b6120f35760405162461bcd60e51b815260206004820152600f60248201526e0854149250d157d3d5551110551151608a1b604482015260640161043e565b876001600160a01b031663feaf968c6040518163ffffffff1660e01b815260040160a06040518083038186803b15801561212c57600080fd5b505afa158015612140573d6000803e3d6000fd5b505050506040513d601f19601f820116820180604052508101906121649190613066565b5060d4549298509650879250501580612188575060d454612185864261292d565b11155b6121c65760405162461bcd60e51b815260206004820152600f60248201526e0854149250d157d3d5551110551151608a1b604482015260640161043e565b8260ff168b6080015160ff1614612221576121e281848661239e565b6121f1838d608001518761239e565b6122008a8e606001518861239e565b61220a919061290e565b6122149190612cd0565b9650505050505050612250565b61221481836122358b8f606001518861239e565b61223f919061290e565b6122499190612cd0565b848661239e565b949350505050565b604051636eb1769f60e11b81523060048201526001600160a01b038381166024830152600091839186169063dd62ed3e9060440160206040518083038186803b1580156122a457600080fd5b505afa1580156122b8573d6000803e3d6000fd5b505050506040513d601f19601f820116820180604052508101906122dc9190612dd8565b6122e6919061295a565b604080516001600160a01b038616602482015260448082018490528251808303909101815260649091019091526020810180516001600160e01b031663095ea7b360e01b1790529091506110c790859061240f565b600054610100900460ff166123625760405162461bcd60e51b815260040161043e90612ce4565b610b413361133f565b600054610100900460ff166123925760405162461bcd60e51b815260040161043e90612ce4565b6097805460ff19169055565b60008160ff168360ff1610156123d7576123b883836130b6565b6123c69060ff16600a6130d9565b6123d0908561290e565b90506104c2565b8160ff168360ff161115612407576123ef82846130b6565b6123fd9060ff16600a6130d9565b6123d09085612cd0565b509192915050565b6000612464826040518060400160405280602081526020017f5361666545524332303a206c6f772d6c6576656c2063616c6c206661696c6564815250856001600160a01b03166124e19092919063ffffffff16565b805190915015610989578080602001905181019061248291906130e5565b6109895760405162461bcd60e51b815260206004820152602a60248201527f5361666545524332303a204552433230206f7065726174696f6e20646964206e6044820152691bdd081cdd58d8d9595960b21b606482015260840161043e565b6060612250848460008585843b61253a5760405162461bcd60e51b815260206004820152601d60248201527f416464726573733a2063616c6c20746f206e6f6e2d636f6e7472616374000000604482015260640161043e565b600080866001600160a01b031685876040516125569190613100565b60006040518083038185875af1925050503d8060008114612593576040519150601f19603f3d011682016040523d82523d6000602084013e612598565b606091505b50915091506125a88282866125b3565b979650505050505050565b606083156125c25750816104c2565b8251156125d25782518084602001fd5b8160405162461bcd60e51b815260040161043e919061311c565b60ff81168114610de457600080fd5b63ffffffff81168114610de457600080fd5b6000806040838503121561262057600080fd5b823561262b816125ec565b9150602083013561263b816125fb565b809150509250929050565b60008060006060848603121561265b57600080fd5b8335612666816125ec565b92506020840135612676816125fb565b929592945050506040919091013590565b60006020828403121561269957600080fd5b81356104c2816125ec565b6001600160a01b0381168114610de457600080fd5b6000602082840312156126cb57600080fd5b81356104c2816126a4565b600080602083850312156126e957600080fd5b823567ffffffffffffffff8082111561270157600080fd5b818501915085601f83011261271557600080fd5b81358181111561272457600080fd5b86602082850101111561273657600080fd5b60209290920196919550909350505050565b6000806040838503121561275b57600080fd5b8235612766816126a4565b9150602083013561263b816126a4565b60005b83811015612791578181015183820152602001612779565b838111156110c75750506000910152565b600081518084526127ba816020860160208601612776565b601f01601f19169290920160200192915050565b821515815260406020820152600061225060408301846127a2565b6000602082840312156127fb57600080fd5b81356104c2816125fb565b60008060008060008060c0878903121561281f57600080fd5b863595506020870135945060408701359350606087013592506080870135915060a087013561284d816125fb565b809150509295509295509295565b60006020828403121561286d57600080fd5b5035919050565b6020808252818101527f4f776e61626c653a2063616c6c6572206973206e6f7420746865206f776e6572604082015260600190565b634e487b7160e01b600052603260045260246000fd5b6000806000606084860312156128d457600080fd5b833592506020840135915060408401356128ed816125ec565b809150509250925092565b634e487b7160e01b600052601160045260246000fd5b6000816000190483118215151615612928576129286128f8565b500290565b60008282101561293f5761293f6128f8565b500390565b634e487b7160e01b600052603160045260246000fd5b6000821982111561296d5761296d6128f8565b500190565b600063ffffffff808316818516808303821115612991576129916128f8565b01949350505050565b600063ffffffff838116908316818110156129b7576129b76128f8565b039392505050565b634e487b7160e01b600052601260045260246000fd5b600063ffffffff808416806129ec576129ec6129bf565b92169190910692915050565b634e487b7160e01b600052604160045260246000fd5b604051610240810167ffffffffffffffff81118282101715612a3257612a326129f8565b60405290565b604051601f8201601f1916810167ffffffffffffffff81118282101715612a6157612a616129f8565b604052919050565b8051612a74816126a4565b919050565b8051612a74816125fb565b805160058110612a7457600080fd5b600067ffffffffffffffff821115612aad57612aad6129f8565b5060051b60200190565b600082601f830112612ac857600080fd5b81516020612add612ad883612a93565b612a38565b82815260059290921b84018101918181019086841115612afc57600080fd5b8286015b84811015612b20578051612b13816126a4565b8352918301918301612b00565b509695505050505050565b600060208284031215612b3d57600080fd5b815167ffffffffffffffff80821115612b5557600080fd5b908301906102408286031215612b6a57600080fd5b612b72612a0e565b612b7b83612a69565b8152612b8960208401612a69565b6020820152612b9a60408401612a69565b6040820152612bab60608401612a69565b60608201526080838101519082015260a0808401519082015260c0808401519082015260e08084015190820152610100808401519082015261012080840151908201526101408084015190820152610160808401519082015261018080840151908201526101a0612c1d818501612a79565b908201526101c0612c2f848201612a79565b908201526101e0612c41848201612a79565b90820152610200612c53848201612a84565b908201526102208381015183811115612c6b57600080fd5b612c7788828701612ab7565b918301919091525095945050505050565b634e487b7160e01b600052602160045260246000fd5b8281526040810160048310612cc357634e487b7160e01b600052602160045260246000fd5b8260208301529392505050565b600082612cdf57612cdf6129bf565b500490565b6020808252602b908201527f496e697469616c697a61626c653a20636f6e7472616374206973206e6f74206960408201526a6e697469616c697a696e6760a81b606082015260800190565b80518015158114612a7457600080fd5b600060c08284031215612d5157600080fd5b60405160c0810181811067ffffffffffffffff82111715612d7457612d746129f8565b6040528251612d82816126a4565b8082525060208301516020820152604083015160408201526060830151612da8816125ec565b60608201526080830151612dbb816125ec565b6080820152612dcc60a08401612d2f565b60a08201529392505050565b600060208284031215612dea57600080fd5b5051919050565b600081518084526020808501945080840160005b83811015612e2a5781516001600160a01b031687529582019590820190600101612e05565b509495945050505050565b8281526040602082015260006122506040830184612df1565b60006020808385031215612e6157600080fd5b825167ffffffffffffffff811115612e7857600080fd5b8301601f81018513612e8957600080fd5b8051612e97612ad882612a93565b81815260059190911b82018301908381019087831115612eb657600080fd5b928401925b828410156125a857835182529284019290840190612ebb565b85815284602082015260a060408201526000612ef360a0830186612df1565b6001600160a01b0394909416606083015250608001529392505050565b600063ffffffff80831681851681830481118215151615612f3357612f336128f8565b02949350505050565b600060208284031215612f4e57600080fd5b81516104c2816125ec565b600181815b80851115612f94578160001904821115612f7a57612f7a6128f8565b80851615612f8757918102915b93841c9390800290612f5e565b509250929050565b600082612fab57506001610bba565b81612fb857506000610bba565b8160018114612fce5760028114612fd857612ff4565b6001915050610bba565b60ff841115612fe957612fe96128f8565b50506001821b610bba565b5060208310610133831016604e8410600b8410161715613017575081810a610bba565b6130218383612f59565b8060001904821115613035576130356128f8565b029392505050565b60006104c260ff841683612f9c565b805169ffffffffffffffffffff81168114612a7457600080fd5b600080600080600060a0868803121561307e57600080fd5b6130878661304c565b94506020860151935060408601519250606086015191506130aa6080870161304c565b90509295509295909350565b600060ff821660ff8416808210156130d0576130d06128f8565b90039392505050565b60006104c28383612f9c565b6000602082840312156130f757600080fd5b6104c282612d2f565b60008251613112818460208701612776565b9190910192915050565b6020815260006104c260208301846127a256fea264697066735822122074859d43045d805fc8b98553904c6333c190690f9786df0f8d817b2bdd91f1ca64736f6c63430008090033",
  "devdoc": {
    "kind": "dev",
    "methods": {
      "checkUpkeep(bytes)": {
        "details": "To ensure that it is never called, you may want to add the cannotExecute modifier from KeeperBase to your implementation of this method.",
        "params": {
          "checkData": "specified in the upkeep registration so it is always the same for a registered upkeep. This can easilly be broken down into specific arguments using `abi.decode`, so multiple upkeeps can be registered on the same contract and easily differentiated by the contract."
        },
        "returns": {
          "performData": "bytes that the keeper should call performUpkeep with, if upkeep is needed. If you would like to encode data to decode later, try `abi.encode`.",
          "upkeepNeeded": "boolean to indicate whether the keeper should call performUpkeep or not."
        }
      },
      "constructor": {
        "custom:oz-upgrades-unsafe-allow": "constructor"
      },
      "owner()": {
        "details": "Returns the address of the current owner."
      },
      "paused()": {
        "details": "Returns true if the contract is paused, and false otherwise."
      },
      "performUpkeep(bytes)": {
        "details": "The input to this method should not be trusted, and the caller of the method should not even be restricted to any single registry. Anyone should be able call it, and the input should be validated, there is no guarantee that the data passed in is the performData returned from checkUpkeep. This could happen due to malicious keepers, racing keepers, or simply a state change while the performUpkeep transaction is waiting for confirmation. Always validate the data passed in.",
        "params": {
          "performData": "is the data which was passed back from the checkData simulation. If it is encoded, it can easily be decoded into other types by calling `abi.decode`. This data should not be trusted, and should be validated against the contract's current state."
        }
      },
      "renounceOwnership()": {
        "details": "Leaves the contract without owner. It will not be possible to call `onlyOwner` functions anymore. Can only be called by the current owner. NOTE: Renouncing ownership will leave the contract without an owner, thereby removing any functionality that is only available to the owner."
      },
      "transferOwnership(address)": {
        "details": "Transfers ownership of the contract to a new account (`newOwner`). Can only be called by the current owner."
      }
    },
    "stateVariables": {
      "assetsMerkleRoot": {
        "details": "merkle root of allowed assets definitions. "
      },
      "blacklistedRouters": {
        "details": "map of swap routers that are deemed unsafe and any active DCA to them will be canceled "
      },
      "caskDCA": {
        "details": "Pointer to CaskDCA contract "
      },
      "caskVault": {
        "details": "vault to use for DCA funding. "
      },
      "dcaFeeBps": {
        "details": "DCA transaction fee in basis points. "
      },
      "dcaFeeMin": {
        "details": "Minimum DCA transaction fee. "
      },
      "dcaMinValue": {
        "details": "Smallest allowable DCA amount. "
      },
      "maxPriceFeedAge": {
        "details": "revert if price feed age is older than this number of seconds. set to 0 to disable check. "
      },
      "maxSkips": {
        "details": "max number of failed DCA purchases before DCA is permanently canceled. "
      }
    },
    "version": 1
  },
  "userdoc": {
    "kind": "user",
    "methods": {
      "checkUpkeep(bytes)": {
        "notice": "method that is simulated by the keepers to see if any work actually needs to be performed. This method does does not actually need to be executable, and since it is only ever simulated it can consume lots of gas."
      },
      "performUpkeep(bytes)": {
        "notice": "method that is actually executed by the keepers, via the registry. The data returned by the checkUpkeep simulation will be passed into this method to actually be executed."
      }
    },
    "version": 1
  },
  "storageLayout": {
    "storage": [
      {
        "astId": 327,
        "contract": "contracts/dca/CaskDCAManager.sol:CaskDCAManager",
        "label": "_initialized",
        "offset": 0,
        "slot": "0",
        "type": "t_bool"
      },
      {
        "astId": 330,
        "contract": "contracts/dca/CaskDCAManager.sol:CaskDCAManager",
        "label": "_initializing",
        "offset": 1,
        "slot": "0",
        "type": "t_bool"
      },
      {
        "astId": 521,
        "contract": "contracts/dca/CaskDCAManager.sol:CaskDCAManager",
        "label": "_status",
        "offset": 0,
        "slot": "1",
        "type": "t_uint256"
      },
      {
        "astId": 564,
        "contract": "contracts/dca/CaskDCAManager.sol:CaskDCAManager",
        "label": "__gap",
        "offset": 0,
        "slot": "2",
        "type": "t_array(t_uint256)49_storage"
      },
      {
        "astId": 2551,
        "contract": "contracts/dca/CaskDCAManager.sol:CaskDCAManager",
        "label": "__gap",
        "offset": 0,
        "slot": "51",
        "type": "t_array(t_uint256)50_storage"
      },
      {
        "astId": 205,
        "contract": "contracts/dca/CaskDCAManager.sol:CaskDCAManager",
        "label": "_owner",
        "offset": 0,
        "slot": "101",
        "type": "t_address"
      },
      {
        "astId": 319,
        "contract": "contracts/dca/CaskDCAManager.sol:CaskDCAManager",
        "label": "__gap",
        "offset": 0,
        "slot": "102",
        "type": "t_array(t_uint256)49_storage"
      },
      {
        "astId": 415,
        "contract": "contracts/dca/CaskDCAManager.sol:CaskDCAManager",
        "label": "_paused",
        "offset": 0,
        "slot": "151",
        "type": "t_bool"
      },
      {
        "astId": 506,
        "contract": "contracts/dca/CaskDCAManager.sol:CaskDCAManager",
        "label": "__gap",
        "offset": 0,
        "slot": "152",
        "type": "t_array(t_uint256)49_storage"
      },
      {
        "astId": 13429,
        "contract": "contracts/dca/CaskDCAManager.sol:CaskDCAManager",
        "label": "queueBucketSize",
        "offset": 0,
        "slot": "201",
        "type": "t_uint32"
      },
      {
        "astId": 13432,
        "contract": "contracts/dca/CaskDCAManager.sol:CaskDCAManager",
        "label": "maxQueueAge",
        "offset": 4,
        "slot": "201",
        "type": "t_uint32"
      },
      {
        "astId": 13440,
        "contract": "contracts/dca/CaskDCAManager.sol:CaskDCAManager",
        "label": "queue",
        "offset": 0,
        "slot": "202",
        "type": "t_mapping(t_uint8,t_mapping(t_uint32,t_array(t_bytes32)dyn_storage))"
      },
      {
        "astId": 13444,
        "contract": "contracts/dca/CaskDCAManager.sol:CaskDCAManager",
        "label": "queueBucket",
        "offset": 0,
        "slot": "203",
        "type": "t_mapping(t_uint8,t_uint32)"
      },
      {
        "astId": 10942,
        "contract": "contracts/dca/CaskDCAManager.sol:CaskDCAManager",
        "label": "caskDCA",
        "offset": 0,
        "slot": "204",
        "type": "t_contract(ICaskDCA)12154"
      },
      {
        "astId": 10946,
        "contract": "contracts/dca/CaskDCAManager.sol:CaskDCAManager",
        "label": "caskVault",
        "offset": 0,
        "slot": "205",
        "type": "t_contract(ICaskVault)13409"
      },
      {
        "astId": 10949,
        "contract": "contracts/dca/CaskDCAManager.sol:CaskDCAManager",
        "label": "assetsMerkleRoot",
        "offset": 0,
        "slot": "206",
        "type": "t_bytes32"
      },
      {
        "astId": 10954,
        "contract": "contracts/dca/CaskDCAManager.sol:CaskDCAManager",
        "label": "blacklistedRouters",
        "offset": 0,
        "slot": "207",
        "type": "t_mapping(t_address,t_bool)"
      },
      {
        "astId": 10957,
        "contract": "contracts/dca/CaskDCAManager.sol:CaskDCAManager",
        "label": "maxSkips",
        "offset": 0,
        "slot": "208",
        "type": "t_uint256"
      },
      {
        "astId": 10960,
        "contract": "contracts/dca/CaskDCAManager.sol:CaskDCAManager",
        "label": "dcaFeeBps",
        "offset": 0,
        "slot": "209",
        "type": "t_uint256"
      },
      {
        "astId": 10963,
        "contract": "contracts/dca/CaskDCAManager.sol:CaskDCAManager",
        "label": "dcaFeeMin",
        "offset": 0,
        "slot": "210",
        "type": "t_uint256"
      },
      {
        "astId": 10966,
        "contract": "contracts/dca/CaskDCAManager.sol:CaskDCAManager",
        "label": "dcaMinValue",
        "offset": 0,
        "slot": "211",
        "type": "t_uint256"
      },
      {
        "astId": 10969,
        "contract": "contracts/dca/CaskDCAManager.sol:CaskDCAManager",
        "label": "maxPriceFeedAge",
        "offset": 0,
        "slot": "212",
        "type": "t_uint256"
      }
    ],
    "types": {
      "t_address": {
        "encoding": "inplace",
        "label": "address",
        "numberOfBytes": "20"
      },
      "t_array(t_bytes32)dyn_storage": {
        "base": "t_bytes32",
        "encoding": "dynamic_array",
        "label": "bytes32[]",
        "numberOfBytes": "32"
      },
      "t_array(t_uint256)49_storage": {
        "base": "t_uint256",
        "encoding": "inplace",
        "label": "uint256[49]",
        "numberOfBytes": "1568"
      },
      "t_array(t_uint256)50_storage": {
        "base": "t_uint256",
        "encoding": "inplace",
        "label": "uint256[50]",
        "numberOfBytes": "1600"
      },
      "t_bool": {
        "encoding": "inplace",
        "label": "bool",
        "numberOfBytes": "1"
      },
      "t_bytes32": {
        "encoding": "inplace",
        "label": "bytes32",
        "numberOfBytes": "32"
      },
      "t_contract(ICaskDCA)12154": {
        "encoding": "inplace",
        "label": "contract ICaskDCA",
        "numberOfBytes": "20"
      },
      "t_contract(ICaskVault)13409": {
        "encoding": "inplace",
        "label": "contract ICaskVault",
        "numberOfBytes": "20"
      },
      "t_mapping(t_address,t_bool)": {
        "encoding": "mapping",
        "key": "t_address",
        "label": "mapping(address => bool)",
        "numberOfBytes": "32",
        "value": "t_bool"
      },
      "t_mapping(t_uint32,t_array(t_bytes32)dyn_storage)": {
        "encoding": "mapping",
        "key": "t_uint32",
        "label": "mapping(uint32 => bytes32[])",
        "numberOfBytes": "32",
        "value": "t_array(t_bytes32)dyn_storage"
      },
      "t_mapping(t_uint8,t_mapping(t_uint32,t_array(t_bytes32)dyn_storage))": {
        "encoding": "mapping",
        "key": "t_uint8",
        "label": "mapping(uint8 => mapping(uint32 => bytes32[]))",
        "numberOfBytes": "32",
        "value": "t_mapping(t_uint32,t_array(t_bytes32)dyn_storage)"
      },
      "t_mapping(t_uint8,t_uint32)": {
        "encoding": "mapping",
        "key": "t_uint8",
        "label": "mapping(uint8 => uint32)",
        "numberOfBytes": "32",
        "value": "t_uint32"
      },
      "t_uint256": {
        "encoding": "inplace",
        "label": "uint256",
        "numberOfBytes": "32"
      },
      "t_uint32": {
        "encoding": "inplace",
        "label": "uint32",
        "numberOfBytes": "4"
      },
      "t_uint8": {
        "encoding": "inplace",
        "label": "uint8",
        "numberOfBytes": "1"
      }
    }
  }
}