{
  "address": "0xa9790171680E324E4a26ce58E37E8F54F15D20e8",
  "abi": [
    {
      "inputs": [
        {
          "internalType": "uint256",
          "name": "amount",
          "type": "uint256"
        },
        {
          "internalType": "address",
          "name": "source",
          "type": "address"
        },
        {
          "internalType": "address",
          "name": "target",
          "type": "address"
        }
      ],
      "name": "swap",
      "outputs": [],
      "stateMutability": "nonpayable",
      "type": "function"
    }
  ],
  "transactionHash": "0x9727071133633c7f3bf0929c509dc674acce59d1454c5c91660779c1193cabe7",
  "args": [],
  "numDeployments": 1,
  "solcInputHash": "67e5be4aafc67334b6b370dd54c832fb",
  "bytecode": "0x608060405234801561001057600080fd5b5060c78061001f6000396000f3fe6080604052348015600f57600080fd5b506004361060285760003560e01c80632b7f092314602d575b600080fd5b603d6038366004605a565b505050565b005b80356001600160a01b0381168114605557600080fd5b919050565b600080600060608486031215606e57600080fd5b83359250607c60208501603f565b9150608860408501603f565b9050925092509256fea2646970667358221220c78b9970ef26968ea6fab95b90ccf6304fd2904c3197235d1d384308963e483964736f6c63430008090033",
  "devdoc": {
    "kind": "dev",
    "methods": {},
    "version": 1
  },
  "userdoc": {
    "kind": "user",
    "methods": {},
    "version": 1
  },
  "storageLayout": {
    "storage": [],
    "types": null
  }
}