{
  "address": "0x416667F404058E063CBE5AAE72f5F3B2A854A116",
  "abi": [
    {
      "inputs": [],
      "stateMutability": "nonpayable",
      "type": "constructor"
    },
    {
      "anonymous": false,
      "inputs": [
        {
          "indexed": true,
          "internalType": "address",
          "name": "previousOwner",
          "type": "address"
        },
        {
          "indexed": true,
          "internalType": "address",
          "name": "newOwner",
          "type": "address"
        }
      ],
      "name": "OwnershipTransferred",
      "type": "event"
    },
    {
      "anonymous": false,
      "inputs": [
        {
          "indexed": false,
          "internalType": "address",
          "name": "account",
          "type": "address"
        }
      ],
      "name": "Paused",
      "type": "event"
    },
    {
      "anonymous": false,
      "inputs": [
        {
          "indexed": false,
          "internalType": "uint256",
          "name": "limit",
          "type": "uint256"
        },
        {
          "indexed": false,
          "internalType": "uint256",
          "name": "jobsProcessed",
          "type": "uint256"
        },
        {
          "indexed": false,
          "internalType": "uint256",
          "name": "depth",
          "type": "uint256"
        },
        {
          "indexed": false,
          "internalType": "uint8",
          "name": "queueId",
          "type": "uint8"
        },
        {
          "indexed": false,
          "internalType": "uint256",
          "name": "queueRemaining",
          "type": "uint256"
        },
        {
          "indexed": false,
          "internalType": "uint32",
          "name": "currentBucket",
          "type": "uint32"
        }
      ],
      "name": "QueueRunReport",
      "type": "event"
    },
    {
      "anonymous": false,
      "inputs": [],
      "name": "SetParameters",
      "type": "event"
    },
    {
      "anonymous": false,
      "inputs": [
        {
          "indexed": false,
          "internalType": "address",
          "name": "account",
          "type": "address"
        }
      ],
      "name": "Unpaused",
      "type": "event"
    },
    {
      "anonymous": false,
      "inputs": [
        {
          "indexed": false,
          "internalType": "uint8",
          "name": "queueId",
          "type": "uint8"
        },
        {
          "indexed": false,
          "internalType": "bytes32",
          "name": "workUnit",
          "type": "bytes32"
        }
      ],
      "name": "WorkUnitProcessed",
      "type": "event"
    },
    {
      "anonymous": false,
      "inputs": [
        {
          "indexed": false,
          "internalType": "uint8",
          "name": "queueId",
          "type": "uint8"
        },
        {
          "indexed": false,
          "internalType": "bytes32",
          "name": "workUnit",
          "type": "bytes32"
        },
        {
          "indexed": false,
          "internalType": "uint32",
          "name": "processAt",
          "type": "uint32"
        }
      ],
      "name": "WorkUnitQueued",
      "type": "event"
    },
    {
      "inputs": [],
      "name": "caskP2P",
      "outputs": [
        {
          "internalType": "contract ICaskP2P",
          "name": "",
          "type": "address"
        }
      ],
      "stateMutability": "view",
      "type": "function"
    },
    {
      "inputs": [],
      "name": "caskVault",
      "outputs": [
        {
          "internalType": "contract ICaskVault",
          "name": "",
          "type": "address"
        }
      ],
      "stateMutability": "view",
      "type": "function"
    },
    {
      "inputs": [
        {
          "internalType": "bytes",
          "name": "checkData",
          "type": "bytes"
        }
      ],
      "name": "checkUpkeep",
      "outputs": [
        {
          "internalType": "bool",
          "name": "upkeepNeeded",
          "type": "bool"
        },
        {
          "internalType": "bytes",
          "name": "performData",
          "type": "bytes"
        }
      ],
      "stateMutability": "view",
      "type": "function"
    },
    {
      "inputs": [
        {
          "internalType": "address",
          "name": "_caskP2P",
          "type": "address"
        },
        {
          "internalType": "address",
          "name": "_caskVault",
          "type": "address"
        }
      ],
      "name": "initialize",
      "outputs": [],
      "stateMutability": "nonpayable",
      "type": "function"
    },
    {
      "inputs": [],
      "name": "maxQueueAge",
      "outputs": [
        {
          "internalType": "uint32",
          "name": "",
          "type": "uint32"
        }
      ],
      "stateMutability": "view",
      "type": "function"
    },
    {
      "inputs": [],
      "name": "maxSkips",
      "outputs": [
        {
          "internalType": "uint256",
          "name": "",
          "type": "uint256"
        }
      ],
      "stateMutability": "view",
      "type": "function"
    },
    {
      "inputs": [],
      "name": "owner",
      "outputs": [
        {
          "internalType": "address",
          "name": "",
          "type": "address"
        }
      ],
      "stateMutability": "view",
      "type": "function"
    },
    {
      "inputs": [],
      "name": "pause",
      "outputs": [],
      "stateMutability": "nonpayable",
      "type": "function"
    },
    {
      "inputs": [],
      "name": "paused",
      "outputs": [
        {
          "internalType": "bool",
          "name": "",
          "type": "bool"
        }
      ],
      "stateMutability": "view",
      "type": "function"
    },
    {
      "inputs": [],
      "name": "paymentFee",
      "outputs": [
        {
          "internalType": "uint256",
          "name": "",
          "type": "uint256"
        }
      ],
      "stateMutability": "view",
      "type": "function"
    },
    {
      "inputs": [
        {
          "internalType": "bytes",
          "name": "performData",
          "type": "bytes"
        }
      ],
      "name": "performUpkeep",
      "outputs": [],
      "stateMutability": "nonpayable",
      "type": "function"
    },
    {
      "inputs": [],
      "name": "queueBucketSize",
      "outputs": [
        {
          "internalType": "uint32",
          "name": "",
          "type": "uint32"
        }
      ],
      "stateMutability": "view",
      "type": "function"
    },
    {
      "inputs": [
        {
          "internalType": "uint8",
          "name": "_queueId",
          "type": "uint8"
        },
        {
          "internalType": "uint32",
          "name": "_bucket",
          "type": "uint32"
        },
        {
          "internalType": "uint256",
          "name": "_idx",
          "type": "uint256"
        }
      ],
      "name": "queueItem",
      "outputs": [
        {
          "internalType": "bytes32",
          "name": "",
          "type": "bytes32"
        }
      ],
      "stateMutability": "view",
      "type": "function"
    },
    {
      "inputs": [
        {
          "internalType": "uint8",
          "name": "_queueId",
          "type": "uint8"
        }
      ],
      "name": "queuePosition",
      "outputs": [
        {
          "internalType": "uint32",
          "name": "",
          "type": "uint32"
        }
      ],
      "stateMutability": "view",
      "type": "function"
    },
    {
      "inputs": [
        {
          "internalType": "uint8",
          "name": "_queueId",
          "type": "uint8"
        },
        {
          "internalType": "uint32",
          "name": "_bucket",
          "type": "uint32"
        }
      ],
      "name": "queueSize",
      "outputs": [
        {
          "internalType": "uint256",
          "name": "",
          "type": "uint256"
        }
      ],
      "stateMutability": "view",
      "type": "function"
    },
    {
      "inputs": [
        {
          "internalType": "address",
          "name": "_asset",
          "type": "address"
        },
        {
          "internalType": "address",
          "name": "_dest",
          "type": "address"
        }
      ],
      "name": "recoverFunds",
      "outputs": [],
      "stateMutability": "nonpayable",
      "type": "function"
    },
    {
      "inputs": [
        {
          "internalType": "bytes32",
          "name": "_p2pId",
          "type": "bytes32"
        }
      ],
      "name": "registerP2P",
      "outputs": [],
      "stateMutability": "nonpayable",
      "type": "function"
    },
    {
      "inputs": [],
      "name": "renounceOwnership",
      "outputs": [],
      "stateMutability": "nonpayable",
      "type": "function"
    },
    {
      "inputs": [
        {
          "internalType": "uint32",
          "name": "_maxQueueAge",
          "type": "uint32"
        }
      ],
      "name": "setMaxQueueAge",
      "outputs": [],
      "stateMutability": "nonpayable",
      "type": "function"
    },
    {
      "inputs": [
        {
          "internalType": "uint256",
          "name": "_maxSkips",
          "type": "uint256"
        },
        {
          "internalType": "uint256",
          "name": "_paymentFee",
          "type": "uint256"
        },
        {
          "internalType": "uint32",
          "name": "_queueBucketSize",
          "type": "uint32"
        },
        {
          "internalType": "uint32",
          "name": "_maxQueueAge",
          "type": "uint32"
        }
      ],
      "name": "setParameters",
      "outputs": [],
      "stateMutability": "nonpayable",
      "type": "function"
    },
    {
      "inputs": [
        {
          "internalType": "uint32",
          "name": "_queueBucketSize",
          "type": "uint32"
        }
      ],
      "name": "setQueueBucketSize",
      "outputs": [],
      "stateMutability": "nonpayable",
      "type": "function"
    },
    {
      "inputs": [
        {
          "internalType": "uint8",
          "name": "_queueId",
          "type": "uint8"
        },
        {
          "internalType": "uint32",
          "name": "_timestamp",
          "type": "uint32"
        }
      ],
      "name": "setQueuePosition",
      "outputs": [],
      "stateMutability": "nonpayable",
      "type": "function"
    },
    {
      "inputs": [
        {
          "internalType": "address",
          "name": "newOwner",
          "type": "address"
        }
      ],
      "name": "transferOwnership",
      "outputs": [],
      "stateMutability": "nonpayable",
      "type": "function"
    },
    {
      "inputs": [],
      "name": "unpause",
      "outputs": [],
      "stateMutability": "nonpayable",
      "type": "function"
    }
  ],
  "transactionHash": "0x0cda1388d0dbfc7fb916ed27ae477083a5ac421288df4db564b32ad112ceda25",
  "args": [],
  "numDeployments": 3,
  "solcInputHash": "0882abc7c4e26d1403a1ff9d0351d7f2",
  "bytecode": "0x60806040523480156200001157600080fd5b50600054610100900460ff166200002f5760005460ff161562000039565b62000039620000de565b620000a15760405162461bcd60e51b815260206004820152602e60248201527f496e697469616c697a61626c653a20636f6e747261637420697320616c72656160448201526d191e481a5b9a5d1a585b1a5e995960921b606482015260840160405180910390fd5b600054610100900460ff16158015620000c4576000805461ffff19166101011790555b8015620000d7576000805461ff00191690555b5062000102565b6000620000f630620000fc60201b62000ec21760201c565b15905090565b3b151590565b611cab80620001126000396000f3fe608060405234801561001057600080fd5b50600436106101585760003560e01c8063729d8107116100c3578063aa878f761161007c578063aa878f76146102e8578063b12ed58a146102fb578063c50646531461030e578063c6f8806c14610317578063cd48a6141461032f578063f2fde38b1461034257600080fd5b8063729d8107146102725780638420a02d146102855780638456cb59146102985780638bddd2e4146102a05780638da5cb5b146102b0578063a47755d1146102d557600080fd5b80634585e33b116101155780634585e33b14610204578063485cc955146102175780635c975abb1461022a5780636e04ff0d146102405780636ef06a0814610261578063715018a61461026a57600080fd5b80630caae41d1461015d57806314fad707146101725780631c39033c1461019857806324ae6a27146101d657806335937ff4146101e95780633f4ba83a146101fc575b600080fd5b61017061016b36600461167c565b610355565b005b6101856101803660046116b3565b6103c0565b6040519081526020015b60405180910390f35b6101c16101a63660046116f2565b60ff16600090815260cb602052604090205463ffffffff1690565b60405163ffffffff909116815260200161018f565b6101706101e4366004611729565b610409565b6101706101f7366004611757565b610537565b6101706105c5565b610170610212366004611770565b6105f9565b610170610225366004611729565b6109ce565b60655460ff16604051901515815260200161018f565b61025361024e366004611770565b610acd565b60405161018f9291906117e2565b61018560cf5481565b610170610c74565b610170610280366004611841565b610ca8565b61017061029336600461185e565b610cfa565b610170610d84565b60c9546101c19063ffffffff1681565b6033546001600160a01b03165b6040516001600160a01b03909116815260200161018f565b60cd546102bd906001600160a01b031681565b6101856102f636600461167c565b610db6565b60cc546102bd906001600160a01b031681565b61018560ce5481565b60c9546101c190640100000000900463ffffffff1681565b61017061033d366004611841565b610de1565b6101706103503660046118a8565b610e27565b6033546001600160a01b031633146103885760405162461bcd60e51b815260040161037f906118c5565b60405180910390fd5b61039181610ec8565b60ff92909216600090815260cb60205260409020805463ffffffff191663ffffffff9093169290921790915550565b60ff8316600090815260ca6020908152604080832063ffffffff8616845290915281208054839081106103f5576103f56118fa565b906000526020600020015490509392505050565b6033546001600160a01b031633146104335760405162461bcd60e51b815260040161037f906118c5565b6040516370a0823160e01b81523060048201526001600160a01b0383169063a9059cbb90839083906370a082319060240160206040518083038186803b15801561047c57600080fd5b505afa158015610490573d6000803e3d6000fd5b505050506040513d601f19601f820116820180604052508101906104b49190611910565b6040516001600160e01b031960e085901b1681526001600160a01b0390921660048301526024820152604401602060405180830381600087803b1580156104fa57600080fd5b505af115801561050e573d6000803e3d6000fd5b505050506040513d601f19601f820116820180604052508101906105329190611929565b505050565b6002609754141561058a5760405162461bcd60e51b815260206004820152601f60248201527f5265656e7472616e637947756172643a207265656e7472616e742063616c6c00604482015260640161037f565b600260975560655460ff16156105b25760405162461bcd60e51b815260040161037f9061194b565b6105bd600182610ef2565b506001609755565b6033546001600160a01b031633146105ef5760405162461bcd60e51b815260040161037f906118c5565b6105f76111ba565b565b60655460ff161561061c5760405162461bcd60e51b815260040161037f9061194b565b6002609754141561066f5760405162461bcd60e51b815260206004820152601f60248201527f5265656e7472616e637947756172643a207265656e7472616e742063616c6c00604482015260640161037f565b60026097556000808061068484860186611975565b925092509250600061069461124d565b90506000806106a48660056119c0565b60ff8516600090815260cb602052604090205490915063ffffffff166106ea5760ff8416600090815260cb60205260409020805463ffffffff191663ffffffff85161790555b60ff8416600090815260cb602052604090205463ffffffff808516911611156107425760405162461bcd60e51b815260206004820152600a60248201526921544f4f5f4541524c5960b01b604482015260640161037f565b85821080156107515750600081115b8015610778575060ff8416600090815260cb602052604090205463ffffffff808516911611155b156109375760ff8416600090815260ca6020908152604080832060cb83528184205463ffffffff16845290915290205480156108a75760ff8516600090815260ca6020908152604080832060cb83528184205463ffffffff16845290915281206107e36001846119df565b815481106107f3576107f36118fa565b600091825260208083209091015460ff8916835260ca8252604080842060cb84528185205463ffffffff168552909252912080549192509080610838576108386119f6565b600190038181906000526020600020016000905590556108588682610ef2565b6040805160ff88168152602081018390527f58c7ae721fd25aaf84e68db9ce9ac6fed4f08438a370a4299d19f8c1425c499e910160405180910390a161089f600185611a0c565b935050610931565b60ff8516600090815260cb602052604090205463ffffffff8086169116101561092b5760c95460ff8616600090815260cb60205260408120805463ffffffff938416939192916108f991859116611a24565b92506101000a81548163ffffffff021916908363ffffffff16021790555060018261092491906119df565b9150610931565b50610937565b50610742565b60ff8416600081815260ca6020908152604080832060cb8084528285205463ffffffff168086529184528285205494869052835281518b81529283018790528282018a90526060830194909452608082019290925260a0810192909252517fd69140f88b9a25350749bb371882f4479133fc8b65602aac60f6c1b3598f08329181900360c00190a150506001609755505050505050565b600054610100900460ff166109e95760005460ff16156109ed565b303b155b610a505760405162461bcd60e51b815260206004820152602e60248201527f496e697469616c697a61626c653a20636f6e747261637420697320616c72656160448201526d191e481a5b9a5d1a585b1a5e995960921b606482015260840161037f565b600054610100900460ff16158015610a72576000805461ffff19166101011790555b60cc80546001600160a01b038086166001600160a01b03199283161790925560cd805492851692909116919091179055600060ce81905560cf55610ab7610e10611275565b8015610532576000805461ff0019169055505050565b60006060610add60655460ff1690565b15610afa5750506040805160208101909152600080825290610c6d565b60008080610b0a86880188611975565b9250925092506000610b1a61124d565b60ff8316600090815260cb602052604090205490915063ffffffff1680610b3e5750805b8063ffffffff168263ffffffff1610158015610b79575060c954640100000000900463ffffffff16610b708284611a4c565b63ffffffff1610155b15610b875760019650610c17565b8163ffffffff168163ffffffff1611610c175760ff8316600090815260ca6020908152604080832063ffffffff8516845290915290205415801590610bef575060ff8316600090815260ca6020908152604080832063ffffffff851684529091529020548411155b15610bfd5760019650610c17565b60c954610c109063ffffffff1682611a24565b9050610b87565b60ff8316600081815260ca6020908152604080832063ffffffff86168452825291829020548251918201899052918101919091526060810191909152608001604051602081830303815290604052955050505050505b9250929050565b6033546001600160a01b03163314610c9e5760405162461bcd60e51b815260040161037f906118c5565b6105f760006112bd565b6033546001600160a01b03163314610cd25760405162461bcd60e51b815260040161037f906118c5565b60c9805463ffffffff9092166401000000000267ffffffff0000000019909216919091179055565b6033546001600160a01b03163314610d245760405162461bcd60e51b815260040161037f906118c5565b60ce84905560cf83905560c9805463ffffffff8381166401000000000267ffffffffffffffff19909216908516171790556040517f3b5fda6f71b960b21be0b432d9b7c87d9c8c996477ea1eba5c19cb77d1e027aa90600090a150505050565b6033546001600160a01b03163314610dae5760405162461bcd60e51b815260040161037f906118c5565b6105f761130f565b60ff8216600090815260ca6020908152604080832063ffffffff851684529091529020545b92915050565b6033546001600160a01b03163314610e0b5760405162461bcd60e51b815260040161037f906118c5565b60c9805463ffffffff191663ffffffff92909216919091179055565b6033546001600160a01b03163314610e515760405162461bcd60e51b815260040161037f906118c5565b6001600160a01b038116610eb65760405162461bcd60e51b815260206004820152602660248201527f4f776e61626c653a206e6577206f776e657220697320746865207a65726f206160448201526564647265737360d01b606482015260840161037f565b610ebf816112bd565b50565b3b151590565b60c95460009063ffffffff16610ede8184611a71565b610ee89084611a4c565b610ddb9190611a24565b60cc5460405163a0b029a960e01b8152600481018390526000916001600160a01b03169063a0b029a9906024016101606040518083038186803b158015610f3857600080fd5b505afa158015610f4c573d6000803e3d6000fd5b505050506040513d601f19601f82011682018060405250810190610f709190611aff565b905060018161014001516004811115610f8b57610f8b611bb6565b14610f9557505050565b610120810151429063ffffffff80831691161115610fcb57610fc58484610fc0856101200151610ec8565b611367565b50505050565b6040820151606083015115801590610ff5575082608001518360600151610ff291906119df565b81115b15611011578260800151836060015161100e91906119df565b90505b61101b838261142f565b156110e05760608301511580611043575082606001518184608001516110419190611a0c565b105b1561106a5761106a8585610fc08660e001518761012001516110659190611a24565b610ec8565b60cc5460cf5460405163ded6da0160e01b8152600481018790526024810184905260448101919091526001600160a01b039091169063ded6da01906064015b600060405180830381600087803b1580156110c357600080fd5b505af11580156110d7573d6000803e3d6000fd5b505050506111b3565b600060ce541180156110f8575060ce548360c0015110155b156111305760cc54604051635ba581cd60e01b81526001600160a01b0390911690635ba581cd906110a9908790600390600401611bcc565b61114d8585610fc08660e001518761012001516110659190611a24565b60cc54604051635ba581cd60e01b81526001600160a01b0390911690635ba581cd90611180908790600290600401611bcc565b600060405180830381600087803b15801561119a57600080fd5b505af11580156111ae573d6000803e3d6000fd5b505050505b5050505050565b60655460ff166112035760405162461bcd60e51b815260206004820152601460248201527314185d5cd8589b194e881b9bdd081c185d5cd95960621b604482015260640161037f565b6065805460ff191690557f5db9ee0a495bf2e6ff9c91a7834c1ba4fdd244a5e8aa4e537bd38aeae4b073aa335b6040516001600160a01b03909116815260200160405180910390a1565b60c95460009042906112659063ffffffff1682611a71565b61126f9082611a4c565b91505090565b600054610100900460ff1661129c5760405162461bcd60e51b815260040161037f90611bfe565b6112a46114ef565b6112ac611526565b6112b461155d565b610ebf81611584565b603380546001600160a01b038381166001600160a01b0319831681179093556040519116919082907f8be0079c531659141344cd1fd0a4f28419497f9722a3daafe3b4186f6b6457e090600090a35050565b60655460ff16156113325760405162461bcd60e51b815260040161037f9061194b565b6065805460ff191660011790557f62e78cea01bee320cd4e420270b5ea74000d11b0c9f74754ebdbfc544b05a2586112303390565b600061137282610ec8565b60ff8516600090815260cb602052604090205490915063ffffffff90811690821610156113b4575060ff8316600090815260cb602052604090205463ffffffff165b60ff8416600081815260ca6020908152604080832063ffffffff861680855290835281842080546001810182559085529383902090930187905580519384529083018690528201527f67778e52b18dcf574ab071142a886fce91a8ce5e60e176229fdadb8c063caaed9060600160405180910390a150505050565b60cd548251602084015160cf5460405163fcd6a25b60e01b81526001600160a01b0393841660048201529183166024830152604482018590526064820152600092919091169063fcd6a25b90608401600060405180830381600087803b15801561149857600080fd5b505af19250505080156114a9575060015b6114e7573d8080156114d7576040519150601f19603f3d011682016040523d82523d6000602084013e6114dc565b606091505b506000915050610ddb565b506001610ddb565b600054610100900460ff166115165760405162461bcd60e51b815260040161037f90611bfe565b61151e61155d565b6105f76115f1565b600054610100900460ff1661154d5760405162461bcd60e51b815260040161037f90611bfe565b61155561155d565b6105f7611621565b600054610100900460ff166105f75760405162461bcd60e51b815260040161037f90611bfe565b600054610100900460ff166115ab5760405162461bcd60e51b815260040161037f90611bfe565b60c9805463ffffffff191663ffffffff83169081179091556115ce906014611c49565b60c960046101000a81548163ffffffff021916908363ffffffff16021790555050565b600054610100900460ff166116185760405162461bcd60e51b815260040161037f90611bfe565b6105f7336112bd565b600054610100900460ff166116485760405162461bcd60e51b815260040161037f90611bfe565b6065805460ff19169055565b803560ff8116811461166557600080fd5b919050565b63ffffffff81168114610ebf57600080fd5b6000806040838503121561168f57600080fd5b61169883611654565b915060208301356116a88161166a565b809150509250929050565b6000806000606084860312156116c857600080fd5b6116d184611654565b925060208401356116e18161166a565b929592945050506040919091013590565b60006020828403121561170457600080fd5b61170d82611654565b9392505050565b6001600160a01b0381168114610ebf57600080fd5b6000806040838503121561173c57600080fd5b823561174781611714565b915060208301356116a881611714565b60006020828403121561176957600080fd5b5035919050565b6000806020838503121561178357600080fd5b823567ffffffffffffffff8082111561179b57600080fd5b818501915085601f8301126117af57600080fd5b8135818111156117be57600080fd5b8660208285010111156117d057600080fd5b60209290920196919550909350505050565b821515815260006020604081840152835180604085015260005b81811015611818578581018301518582016060015282016117fc565b8181111561182a576000606083870101525b50601f01601f191692909201606001949350505050565b60006020828403121561185357600080fd5b813561170d8161166a565b6000806000806080858703121561187457600080fd5b8435935060208501359250604085013561188d8161166a565b9150606085013561189d8161166a565b939692955090935050565b6000602082840312156118ba57600080fd5b813561170d81611714565b6020808252818101527f4f776e61626c653a2063616c6c6572206973206e6f7420746865206f776e6572604082015260600190565b634e487b7160e01b600052603260045260246000fd5b60006020828403121561192257600080fd5b5051919050565b60006020828403121561193b57600080fd5b8151801515811461170d57600080fd5b60208082526010908201526f14185d5cd8589b194e881c185d5cd95960821b604082015260600190565b60008060006060848603121561198a57600080fd5b83359250602084013591506119a160408501611654565b90509250925092565b634e487b7160e01b600052601160045260246000fd5b60008160001904831182151516156119da576119da6119aa565b500290565b6000828210156119f1576119f16119aa565b500390565b634e487b7160e01b600052603160045260246000fd5b60008219821115611a1f57611a1f6119aa565b500190565b600063ffffffff808316818516808303821115611a4357611a436119aa565b01949350505050565b600063ffffffff83811690831681811015611a6957611a696119aa565b039392505050565b600063ffffffff80841680611a9657634e487b7160e01b600052601260045260246000fd5b92169190910692915050565b604051610160810167ffffffffffffffff81118282101715611ad457634e487b7160e01b600052604160045260246000fd5b60405290565b805161166581611714565b80516116658161166a565b80516005811061166557600080fd5b60006101608284031215611b1257600080fd5b611b1a611aa2565b611b2383611ada565b8152611b3160208401611ada565b602082015260408301516040820152606083015160608201526080830151608082015260a083015160a082015260c083015160c0820152611b7460e08401611ae5565b60e0820152610100611b87818501611ae5565b90820152610120611b99848201611ae5565b90820152610140611bab848201611af0565b908201529392505050565b634e487b7160e01b600052602160045260246000fd5b8281526040810160048310611bf157634e487b7160e01b600052602160045260246000fd5b8260208301529392505050565b6020808252602b908201527f496e697469616c697a61626c653a20636f6e7472616374206973206e6f74206960408201526a6e697469616c697a696e6760a81b606082015260800190565b600063ffffffff80831681851681830481118215151615611c6c57611c6c6119aa565b0294935050505056fea264697066735822122005314317940cf0b5104134c44afee6d67c3cfab29c7dc248874ce166b5a9d76864736f6c63430008090033",
  "devdoc": {
    "kind": "dev",
    "methods": {
      "checkUpkeep(bytes)": {
        "details": "To ensure that it is never called, you may want to add the cannotExecute modifier from KeeperBase to your implementation of this method.",
        "params": {
          "checkData": "specified in the upkeep registration so it is always the same for a registered upkeep. This can easilly be broken down into specific arguments using `abi.decode`, so multiple upkeeps can be registered on the same contract and easily differentiated by the contract."
        },
        "returns": {
          "performData": "bytes that the keeper should call performUpkeep with, if upkeep is needed. If you would like to encode data to decode later, try `abi.encode`.",
          "upkeepNeeded": "boolean to indicate whether the keeper should call performUpkeep or not."
        }
      },
      "constructor": {
        "custom:oz-upgrades-unsafe-allow": "constructor"
      },
      "owner()": {
        "details": "Returns the address of the current owner."
      },
      "paused()": {
        "details": "Returns true if the contract is paused, and false otherwise."
      },
      "performUpkeep(bytes)": {
        "details": "The input to this method should not be trusted, and the caller of the method should not even be restricted to any single registry. Anyone should be able call it, and the input should be validated, there is no guarantee that the data passed in is the performData returned from checkUpkeep. This could happen due to malicious keepers, racing keepers, or simply a state change while the performUpkeep transaction is waiting for confirmation. Always validate the data passed in.",
        "params": {
          "performData": "is the data which was passed back from the checkData simulation. If it is encoded, it can easily be decoded into other types by calling `abi.decode`. This data should not be trusted, and should be validated against the contract's current state."
        }
      },
      "renounceOwnership()": {
        "details": "Leaves the contract without owner. It will not be possible to call `onlyOwner` functions anymore. Can only be called by the current owner. NOTE: Renouncing ownership will leave the contract without an owner, thereby removing any functionality that is only available to the owner."
      },
      "transferOwnership(address)": {
        "details": "Transfers ownership of the contract to a new account (`newOwner`). Can only be called by the current owner."
      }
    },
    "stateVariables": {
      "caskP2P": {
        "details": "Pointer to CaskP2P contract "
      },
      "caskVault": {
        "details": "vault to use for P2P funding. "
      },
      "maxSkips": {
        "details": "max number of failed P2P purchases before P2P is permanently canceled. "
      },
      "paymentFee": {
        "details": "P2P transaction fee. "
      }
    },
    "version": 1
  },
  "userdoc": {
    "kind": "user",
    "methods": {
      "checkUpkeep(bytes)": {
        "notice": "method that is simulated by the keepers to see if any work actually needs to be performed. This method does does not actually need to be executable, and since it is only ever simulated it can consume lots of gas."
      },
      "performUpkeep(bytes)": {
        "notice": "method that is actually executed by the keepers, via the registry. The data returned by the checkUpkeep simulation will be passed into this method to actually be executed."
      }
    },
    "version": 1
  },
  "storageLayout": {
    "storage": [
      {
        "astId": 327,
        "contract": "contracts/p2p/CaskP2PManager.sol:CaskP2PManager",
        "label": "_initialized",
        "offset": 0,
        "slot": "0",
        "type": "t_bool"
      },
      {
        "astId": 330,
        "contract": "contracts/p2p/CaskP2PManager.sol:CaskP2PManager",
        "label": "_initializing",
        "offset": 1,
        "slot": "0",
        "type": "t_bool"
      },
      {
        "astId": 2551,
        "contract": "contracts/p2p/CaskP2PManager.sol:CaskP2PManager",
        "label": "__gap",
        "offset": 0,
        "slot": "1",
        "type": "t_array(t_uint256)50_storage"
      },
      {
        "astId": 205,
        "contract": "contracts/p2p/CaskP2PManager.sol:CaskP2PManager",
        "label": "_owner",
        "offset": 0,
        "slot": "51",
        "type": "t_address"
      },
      {
        "astId": 319,
        "contract": "contracts/p2p/CaskP2PManager.sol:CaskP2PManager",
        "label": "__gap",
        "offset": 0,
        "slot": "52",
        "type": "t_array(t_uint256)49_storage"
      },
      {
        "astId": 415,
        "contract": "contracts/p2p/CaskP2PManager.sol:CaskP2PManager",
        "label": "_paused",
        "offset": 0,
        "slot": "101",
        "type": "t_bool"
      },
      {
        "astId": 506,
        "contract": "contracts/p2p/CaskP2PManager.sol:CaskP2PManager",
        "label": "__gap",
        "offset": 0,
        "slot": "102",
        "type": "t_array(t_uint256)49_storage"
      },
      {
        "astId": 521,
        "contract": "contracts/p2p/CaskP2PManager.sol:CaskP2PManager",
        "label": "_status",
        "offset": 0,
        "slot": "151",
        "type": "t_uint256"
      },
      {
        "astId": 564,
        "contract": "contracts/p2p/CaskP2PManager.sol:CaskP2PManager",
        "label": "__gap",
        "offset": 0,
        "slot": "152",
        "type": "t_array(t_uint256)49_storage"
      },
      {
        "astId": 18542,
        "contract": "contracts/p2p/CaskP2PManager.sol:CaskP2PManager",
        "label": "queueBucketSize",
        "offset": 0,
        "slot": "201",
        "type": "t_uint32"
      },
      {
        "astId": 18545,
        "contract": "contracts/p2p/CaskP2PManager.sol:CaskP2PManager",
        "label": "maxQueueAge",
        "offset": 4,
        "slot": "201",
        "type": "t_uint32"
      },
      {
        "astId": 18553,
        "contract": "contracts/p2p/CaskP2PManager.sol:CaskP2PManager",
        "label": "queue",
        "offset": 0,
        "slot": "202",
        "type": "t_mapping(t_uint8,t_mapping(t_uint32,t_array(t_bytes32)dyn_storage))"
      },
      {
        "astId": 18557,
        "contract": "contracts/p2p/CaskP2PManager.sol:CaskP2PManager",
        "label": "queueBucket",
        "offset": 0,
        "slot": "203",
        "type": "t_mapping(t_uint8,t_uint32)"
      },
      {
        "astId": 21218,
        "contract": "contracts/p2p/CaskP2PManager.sol:CaskP2PManager",
        "label": "caskP2P",
        "offset": 0,
        "slot": "204",
        "type": "t_contract(ICaskP2P)17294"
      },
      {
        "astId": 21222,
        "contract": "contracts/p2p/CaskP2PManager.sol:CaskP2PManager",
        "label": "caskVault",
        "offset": 0,
        "slot": "205",
        "type": "t_contract(ICaskVault)18286"
      },
      {
        "astId": 21225,
        "contract": "contracts/p2p/CaskP2PManager.sol:CaskP2PManager",
        "label": "maxSkips",
        "offset": 0,
        "slot": "206",
        "type": "t_uint256"
      },
      {
        "astId": 21228,
        "contract": "contracts/p2p/CaskP2PManager.sol:CaskP2PManager",
        "label": "paymentFee",
        "offset": 0,
        "slot": "207",
        "type": "t_uint256"
      }
    ],
    "types": {
      "t_address": {
        "encoding": "inplace",
        "label": "address",
        "numberOfBytes": "20"
      },
      "t_array(t_bytes32)dyn_storage": {
        "base": "t_bytes32",
        "encoding": "dynamic_array",
        "label": "bytes32[]",
        "numberOfBytes": "32"
      },
      "t_array(t_uint256)49_storage": {
        "base": "t_uint256",
        "encoding": "inplace",
        "label": "uint256[49]",
        "numberOfBytes": "1568"
      },
      "t_array(t_uint256)50_storage": {
        "base": "t_uint256",
        "encoding": "inplace",
        "label": "uint256[50]",
        "numberOfBytes": "1600"
      },
      "t_bool": {
        "encoding": "inplace",
        "label": "bool",
        "numberOfBytes": "1"
      },
      "t_bytes32": {
        "encoding": "inplace",
        "label": "bytes32",
        "numberOfBytes": "32"
      },
      "t_contract(ICaskP2P)17294": {
        "encoding": "inplace",
        "label": "contract ICaskP2P",
        "numberOfBytes": "20"
      },
      "t_contract(ICaskVault)18286": {
        "encoding": "inplace",
        "label": "contract ICaskVault",
        "numberOfBytes": "20"
      },
      "t_mapping(t_uint32,t_array(t_bytes32)dyn_storage)": {
        "encoding": "mapping",
        "key": "t_uint32",
        "label": "mapping(uint32 => bytes32[])",
        "numberOfBytes": "32",
        "value": "t_array(t_bytes32)dyn_storage"
      },
      "t_mapping(t_uint8,t_mapping(t_uint32,t_array(t_bytes32)dyn_storage))": {
        "encoding": "mapping",
        "key": "t_uint8",
        "label": "mapping(uint8 => mapping(uint32 => bytes32[]))",
        "numberOfBytes": "32",
        "value": "t_mapping(t_uint32,t_array(t_bytes32)dyn_storage)"
      },
      "t_mapping(t_uint8,t_uint32)": {
        "encoding": "mapping",
        "key": "t_uint8",
        "label": "mapping(uint8 => uint32)",
        "numberOfBytes": "32",
        "value": "t_uint32"
      },
      "t_uint256": {
        "encoding": "inplace",
        "label": "uint256",
        "numberOfBytes": "32"
      },
      "t_uint32": {
        "encoding": "inplace",
        "label": "uint32",
        "numberOfBytes": "4"
      },
      "t_uint8": {
        "encoding": "inplace",
        "label": "uint8",
        "numberOfBytes": "1"
      }
    }
  }
}