{
  "address": "0x83aA6a992Ff3ef3766679Cc90E8C60a04afcC171",
  "abi": [
    {
      "inputs": [],
      "stateMutability": "nonpayable",
      "type": "constructor"
    },
    {
      "anonymous": false,
      "inputs": [
        {
          "indexed": true,
          "internalType": "address",
          "name": "owner",
          "type": "address"
        },
        {
          "indexed": true,
          "internalType": "address",
          "name": "approved",
          "type": "address"
        },
        {
          "indexed": true,
          "internalType": "uint256",
          "name": "tokenId",
          "type": "uint256"
        }
      ],
      "name": "Approval",
      "type": "event"
    },
    {
      "anonymous": false,
      "inputs": [
        {
          "indexed": true,
          "internalType": "address",
          "name": "owner",
          "type": "address"
        },
        {
          "indexed": true,
          "internalType": "address",
          "name": "operator",
          "type": "address"
        },
        {
          "indexed": false,
          "internalType": "bool",
          "name": "approved",
          "type": "bool"
        }
      ],
      "name": "ApprovalForAll",
      "type": "event"
    },
    {
      "anonymous": false,
      "inputs": [
        {
          "indexed": true,
          "internalType": "address",
          "name": "previousOwner",
          "type": "address"
        },
        {
          "indexed": true,
          "internalType": "address",
          "name": "newOwner",
          "type": "address"
        }
      ],
      "name": "OwnershipTransferred",
      "type": "event"
    },
    {
      "anonymous": false,
      "inputs": [
        {
          "indexed": false,
          "internalType": "address",
          "name": "account",
          "type": "address"
        }
      ],
      "name": "Paused",
      "type": "event"
    },
    {
      "anonymous": false,
      "inputs": [
        {
          "indexed": true,
          "internalType": "address",
          "name": "consumer",
          "type": "address"
        },
        {
          "indexed": true,
          "internalType": "address",
          "name": "provider",
          "type": "address"
        },
        {
          "indexed": true,
          "internalType": "uint256",
          "name": "subscriptionId",
          "type": "uint256"
        },
        {
          "indexed": false,
          "internalType": "bytes32",
          "name": "ref",
          "type": "bytes32"
        },
        {
          "indexed": false,
          "internalType": "uint32",
          "name": "planId",
          "type": "uint32"
        }
      ],
      "name": "SubscriptionCanceled",
      "type": "event"
    },
    {
      "anonymous": false,
      "inputs": [
        {
          "indexed": true,
          "internalType": "address",
          "name": "consumer",
          "type": "address"
        },
        {
          "indexed": true,
          "internalType": "address",
          "name": "provider",
          "type": "address"
        },
        {
          "indexed": true,
          "internalType": "uint256",
          "name": "subscriptionId",
          "type": "uint256"
        },
        {
          "indexed": false,
          "internalType": "bytes32",
          "name": "ref",
          "type": "bytes32"
        },
        {
          "indexed": false,
          "internalType": "uint32",
          "name": "prevPlanId",
          "type": "uint32"
        },
        {
          "indexed": false,
          "internalType": "uint32",
          "name": "planId",
          "type": "uint32"
        },
        {
          "indexed": false,
          "internalType": "bytes32",
          "name": "discountId",
          "type": "bytes32"
        }
      ],
      "name": "SubscriptionChangedPlan",
      "type": "event"
    },
    {
      "anonymous": false,
      "inputs": [
        {
          "indexed": true,
          "internalType": "address",
          "name": "consumer",
          "type": "address"
        },
        {
          "indexed": true,
          "internalType": "address",
          "name": "provider",
          "type": "address"
        },
        {
          "indexed": true,
          "internalType": "uint256",
          "name": "subscriptionId",
          "type": "uint256"
        },
        {
          "indexed": false,
          "internalType": "bytes32",
          "name": "ref",
          "type": "bytes32"
        },
        {
          "indexed": false,
          "internalType": "uint32",
          "name": "planId",
          "type": "uint32"
        },
        {
          "indexed": false,
          "internalType": "bytes32",
          "name": "discountId",
          "type": "bytes32"
        }
      ],
      "name": "SubscriptionCreated",
      "type": "event"
    },
    {
      "anonymous": false,
      "inputs": [
        {
          "indexed": true,
          "internalType": "address",
          "name": "consumer",
          "type": "address"
        },
        {
          "indexed": true,
          "internalType": "address",
          "name": "provider",
          "type": "address"
        },
        {
          "indexed": true,
          "internalType": "uint256",
          "name": "subscriptionId",
          "type": "uint256"
        },
        {
          "indexed": false,
          "internalType": "bytes32",
          "name": "ref",
          "type": "bytes32"
        },
        {
          "indexed": false,
          "internalType": "uint32",
          "name": "planId",
          "type": "uint32"
        }
      ],
      "name": "SubscriptionPastDue",
      "type": "event"
    },
    {
      "anonymous": false,
      "inputs": [
        {
          "indexed": true,
          "internalType": "address",
          "name": "consumer",
          "type": "address"
        },
        {
          "indexed": true,
          "internalType": "address",
          "name": "provider",
          "type": "address"
        },
        {
          "indexed": true,
          "internalType": "uint256",
          "name": "subscriptionId",
          "type": "uint256"
        },
        {
          "indexed": false,
          "internalType": "bytes32",
          "name": "ref",
          "type": "bytes32"
        },
        {
          "indexed": false,
          "internalType": "uint32",
          "name": "planId",
          "type": "uint32"
        }
      ],
      "name": "SubscriptionPaused",
      "type": "event"
    },
    {
      "anonymous": false,
      "inputs": [
        {
          "indexed": true,
          "internalType": "address",
          "name": "consumer",
          "type": "address"
        },
        {
          "indexed": true,
          "internalType": "address",
          "name": "provider",
          "type": "address"
        },
        {
          "indexed": true,
          "internalType": "uint256",
          "name": "subscriptionId",
          "type": "uint256"
        },
        {
          "indexed": false,
          "internalType": "bytes32",
          "name": "ref",
          "type": "bytes32"
        },
        {
          "indexed": false,
          "internalType": "uint32",
          "name": "planId",
          "type": "uint32"
        },
        {
          "indexed": false,
          "internalType": "uint32",
          "name": "cancelAt",
          "type": "uint32"
        }
      ],
      "name": "SubscriptionPendingCancel",
      "type": "event"
    },
    {
      "anonymous": false,
      "inputs": [
        {
          "indexed": true,
          "internalType": "address",
          "name": "consumer",
          "type": "address"
        },
        {
          "indexed": true,
          "internalType": "address",
          "name": "provider",
          "type": "address"
        },
        {
          "indexed": true,
          "internalType": "uint256",
          "name": "subscriptionId",
          "type": "uint256"
        },
        {
          "indexed": false,
          "internalType": "bytes32",
          "name": "ref",
          "type": "bytes32"
        },
        {
          "indexed": false,
          "internalType": "uint32",
          "name": "prevPlanId",
          "type": "uint32"
        },
        {
          "indexed": false,
          "internalType": "uint32",
          "name": "planId",
          "type": "uint32"
        }
      ],
      "name": "SubscriptionPendingChangePlan",
      "type": "event"
    },
    {
      "anonymous": false,
      "inputs": [
        {
          "indexed": true,
          "internalType": "address",
          "name": "consumer",
          "type": "address"
        },
        {
          "indexed": true,
          "internalType": "address",
          "name": "provider",
          "type": "address"
        },
        {
          "indexed": true,
          "internalType": "uint256",
          "name": "subscriptionId",
          "type": "uint256"
        },
        {
          "indexed": false,
          "internalType": "bytes32",
          "name": "ref",
          "type": "bytes32"
        },
        {
          "indexed": false,
          "internalType": "uint32",
          "name": "planId",
          "type": "uint32"
        }
      ],
      "name": "SubscriptionPendingPause",
      "type": "event"
    },
    {
      "anonymous": false,
      "inputs": [
        {
          "indexed": true,
          "internalType": "address",
          "name": "consumer",
          "type": "address"
        },
        {
          "indexed": true,
          "internalType": "address",
          "name": "provider",
          "type": "address"
        },
        {
          "indexed": true,
          "internalType": "uint256",
          "name": "subscriptionId",
          "type": "uint256"
        },
        {
          "indexed": false,
          "internalType": "bytes32",
          "name": "ref",
          "type": "bytes32"
        },
        {
          "indexed": false,
          "internalType": "uint32",
          "name": "planId",
          "type": "uint32"
        }
      ],
      "name": "SubscriptionRenewed",
      "type": "event"
    },
    {
      "anonymous": false,
      "inputs": [
        {
          "indexed": true,
          "internalType": "address",
          "name": "consumer",
          "type": "address"
        },
        {
          "indexed": true,
          "internalType": "address",
          "name": "provider",
          "type": "address"
        },
        {
          "indexed": true,
          "internalType": "uint256",
          "name": "subscriptionId",
          "type": "uint256"
        },
        {
          "indexed": false,
          "internalType": "bytes32",
          "name": "ref",
          "type": "bytes32"
        },
        {
          "indexed": false,
          "internalType": "uint32",
          "name": "planId",
          "type": "uint32"
        }
      ],
      "name": "SubscriptionResumed",
      "type": "event"
    },
    {
      "anonymous": false,
      "inputs": [
        {
          "indexed": true,
          "internalType": "address",
          "name": "consumer",
          "type": "address"
        },
        {
          "indexed": true,
          "internalType": "address",
          "name": "provider",
          "type": "address"
        },
        {
          "indexed": true,
          "internalType": "uint256",
          "name": "subscriptionId",
          "type": "uint256"
        },
        {
          "indexed": false,
          "internalType": "bytes32",
          "name": "ref",
          "type": "bytes32"
        },
        {
          "indexed": false,
          "internalType": "uint32",
          "name": "planId",
          "type": "uint32"
        }
      ],
      "name": "SubscriptionTrialEnded",
      "type": "event"
    },
    {
      "anonymous": false,
      "inputs": [
        {
          "indexed": true,
          "internalType": "address",
          "name": "from",
          "type": "address"
        },
        {
          "indexed": true,
          "internalType": "address",
          "name": "to",
          "type": "address"
        },
        {
          "indexed": true,
          "internalType": "uint256",
          "name": "tokenId",
          "type": "uint256"
        }
      ],
      "name": "Transfer",
      "type": "event"
    },
    {
      "anonymous": false,
      "inputs": [
        {
          "indexed": false,
          "internalType": "address",
          "name": "account",
          "type": "address"
        }
      ],
      "name": "Unpaused",
      "type": "event"
    },
    {
      "inputs": [
        {
          "internalType": "address",
          "name": "to",
          "type": "address"
        },
        {
          "internalType": "uint256",
          "name": "tokenId",
          "type": "uint256"
        }
      ],
      "name": "approve",
      "outputs": [],
      "stateMutability": "nonpayable",
      "type": "function"
    },
    {
      "inputs": [
        {
          "internalType": "uint256",
          "name": "_subscriptionId",
          "type": "uint256"
        },
        {
          "internalType": "string",
          "name": "_dataCid",
          "type": "string"
        }
      ],
      "name": "attachData",
      "outputs": [],
      "stateMutability": "nonpayable",
      "type": "function"
    },
    {
      "inputs": [
        {
          "internalType": "address",
          "name": "owner",
          "type": "address"
        }
      ],
      "name": "balanceOf",
      "outputs": [
        {
          "internalType": "uint256",
          "name": "",
          "type": "uint256"
        }
      ],
      "stateMutability": "view",
      "type": "function"
    },
    {
      "inputs": [
        {
          "internalType": "uint256",
          "name": "_subscriptionId",
          "type": "uint256"
        },
        {
          "internalType": "uint32",
          "name": "_cancelAt",
          "type": "uint32"
        }
      ],
      "name": "cancelSubscription",
      "outputs": [],
      "stateMutability": "nonpayable",
      "type": "function"
    },
    {
      "inputs": [
        {
          "internalType": "uint256",
          "name": "_subscriptionId",
          "type": "uint256"
        },
        {
          "internalType": "uint256",
          "name": "_nonce",
          "type": "uint256"
        },
        {
          "internalType": "bytes32[]",
          "name": "_planProof",
          "type": "bytes32[]"
        },
        {
          "internalType": "bytes32[]",
          "name": "_discountProof",
          "type": "bytes32[]"
        },
        {
          "internalType": "bytes",
          "name": "_providerSignature",
          "type": "bytes"
        },
        {
          "internalType": "string",
          "name": "_cid",
          "type": "string"
        }
      ],
      "name": "changeSubscriptionPlan",
      "outputs": [],
      "stateMutability": "nonpayable",
      "type": "function"
    },
    {
      "inputs": [
        {
          "internalType": "uint256",
          "name": "_nonce",
          "type": "uint256"
        },
        {
          "internalType": "bytes32[]",
          "name": "_planProof",
          "type": "bytes32[]"
        },
        {
          "internalType": "bytes32[]",
          "name": "_discountProof",
          "type": "bytes32[]"
        },
        {
          "internalType": "bytes32",
          "name": "_networkData",
          "type": "bytes32"
        },
        {
          "internalType": "uint32",
          "name": "_cancelAt",
          "type": "uint32"
        },
        {
          "internalType": "bytes",
          "name": "_providerSignature",
          "type": "bytes"
        },
        {
          "internalType": "bytes",
          "name": "_networkSignature",
          "type": "bytes"
        },
        {
          "internalType": "string",
          "name": "_cid",
          "type": "string"
        }
      ],
      "name": "createNetworkSubscription",
      "outputs": [],
      "stateMutability": "nonpayable",
      "type": "function"
    },
    {
      "inputs": [
        {
          "internalType": "uint256",
          "name": "_nonce",
          "type": "uint256"
        },
        {
          "internalType": "bytes32[]",
          "name": "_planProof",
          "type": "bytes32[]"
        },
        {
          "internalType": "bytes32[]",
          "name": "_discountProof",
          "type": "bytes32[]"
        },
        {
          "internalType": "uint32",
          "name": "_cancelAt",
          "type": "uint32"
        },
        {
          "internalType": "bytes",
          "name": "_providerSignature",
          "type": "bytes"
        },
        {
          "internalType": "string",
          "name": "_cid",
          "type": "string"
        }
      ],
      "name": "createSubscription",
      "outputs": [],
      "stateMutability": "nonpayable",
      "type": "function"
    },
    {
      "inputs": [
        {
          "internalType": "uint256",
          "name": "tokenId",
          "type": "uint256"
        }
      ],
      "name": "getApproved",
      "outputs": [
        {
          "internalType": "address",
          "name": "",
          "type": "address"
        }
      ],
      "stateMutability": "view",
      "type": "function"
    },
    {
      "inputs": [
        {
          "internalType": "address",
          "name": "_consumer",
          "type": "address"
        }
      ],
      "name": "getConsumerSubscriptionCount",
      "outputs": [
        {
          "internalType": "uint256",
          "name": "",
          "type": "uint256"
        }
      ],
      "stateMutability": "view",
      "type": "function"
    },
    {
      "inputs": [
        {
          "internalType": "address",
          "name": "_consumer",
          "type": "address"
        },
        {
          "internalType": "uint256",
          "name": "_limit",
          "type": "uint256"
        },
        {
          "internalType": "uint256",
          "name": "_offset",
          "type": "uint256"
        }
      ],
      "name": "getConsumerSubscriptions",
      "outputs": [
        {
          "internalType": "uint256[]",
          "name": "",
          "type": "uint256[]"
        }
      ],
      "stateMutability": "view",
      "type": "function"
    },
    {
      "inputs": [
        {
          "internalType": "uint256",
          "name": "_subscriptionId",
          "type": "uint256"
        }
      ],
      "name": "getPendingPlanChange",
      "outputs": [
        {
          "internalType": "bytes32",
          "name": "",
          "type": "bytes32"
        }
      ],
      "stateMutability": "view",
      "type": "function"
    },
    {
      "inputs": [
        {
          "internalType": "address",
          "name": "_provider",
          "type": "address"
        },
        {
          "internalType": "bool",
          "name": "_includeCanceled",
          "type": "bool"
        },
        {
          "internalType": "uint32",
          "name": "_planId",
          "type": "uint32"
        }
      ],
      "name": "getProviderSubscriptionCount",
      "outputs": [
        {
          "internalType": "uint256",
          "name": "",
          "type": "uint256"
        }
      ],
      "stateMutability": "view",
      "type": "function"
    },
    {
      "inputs": [
        {
          "internalType": "address",
          "name": "_provider",
          "type": "address"
        },
        {
          "internalType": "uint256",
          "name": "_limit",
          "type": "uint256"
        },
        {
          "internalType": "uint256",
          "name": "_offset",
          "type": "uint256"
        }
      ],
      "name": "getProviderSubscriptions",
      "outputs": [
        {
          "internalType": "uint256[]",
          "name": "",
          "type": "uint256[]"
        }
      ],
      "stateMutability": "view",
      "type": "function"
    },
    {
      "inputs": [
        {
          "internalType": "uint256",
          "name": "_subscriptionId",
          "type": "uint256"
        }
      ],
      "name": "getSubscription",
      "outputs": [
        {
          "components": [
            {
              "internalType": "bytes32",
              "name": "planData",
              "type": "bytes32"
            },
            {
              "internalType": "bytes32",
              "name": "networkData",
              "type": "bytes32"
            },
            {
              "internalType": "bytes32",
              "name": "discountId",
              "type": "bytes32"
            },
            {
              "internalType": "bytes32",
              "name": "discountData",
              "type": "bytes32"
            },
            {
              "internalType": "bytes32",
              "name": "ref",
              "type": "bytes32"
            },
            {
              "internalType": "address",
              "name": "provider",
              "type": "address"
            },
            {
              "internalType": "enum ICaskSubscriptions.SubscriptionStatus",
              "name": "status",
              "type": "uint8"
            },
            {
              "internalType": "uint32",
              "name": "planId",
              "type": "uint32"
            },
            {
              "internalType": "uint32",
              "name": "createdAt",
              "type": "uint32"
            },
            {
              "internalType": "uint32",
              "name": "renewAt",
              "type": "uint32"
            },
            {
              "internalType": "uint32",
              "name": "minTermAt",
              "type": "uint32"
            },
            {
              "internalType": "uint32",
              "name": "cancelAt",
              "type": "uint32"
            },
            {
              "internalType": "string",
              "name": "cid",
              "type": "string"
            },
            {
              "internalType": "string",
              "name": "dataCid",
              "type": "string"
            }
          ],
          "internalType": "struct ICaskSubscriptions.Subscription",
          "name": "subscription",
          "type": "tuple"
        },
        {
          "internalType": "address",
          "name": "currentOwner",
          "type": "address"
        }
      ],
      "stateMutability": "view",
      "type": "function"
    },
    {
      "inputs": [
        {
          "internalType": "address",
          "name": "_subscriptionPlans",
          "type": "address"
        }
      ],
      "name": "initialize",
      "outputs": [],
      "stateMutability": "nonpayable",
      "type": "function"
    },
    {
      "inputs": [
        {
          "internalType": "address",
          "name": "owner",
          "type": "address"
        },
        {
          "internalType": "address",
          "name": "operator",
          "type": "address"
        }
      ],
      "name": "isApprovedForAll",
      "outputs": [
        {
          "internalType": "bool",
          "name": "",
          "type": "bool"
        }
      ],
      "stateMutability": "view",
      "type": "function"
    },
    {
      "inputs": [
        {
          "internalType": "address",
          "name": "forwarder",
          "type": "address"
        }
      ],
      "name": "isTrustedForwarder",
      "outputs": [
        {
          "internalType": "bool",
          "name": "",
          "type": "bool"
        }
      ],
      "stateMutability": "view",
      "type": "function"
    },
    {
      "inputs": [
        {
          "internalType": "uint256",
          "name": "_subscriptionId",
          "type": "uint256"
        },
        {
          "internalType": "enum ICaskSubscriptions.ManagerCommand",
          "name": "_command",
          "type": "uint8"
        }
      ],
      "name": "managerCommand",
      "outputs": [],
      "stateMutability": "nonpayable",
      "type": "function"
    },
    {
      "inputs": [],
      "name": "name",
      "outputs": [
        {
          "internalType": "string",
          "name": "",
          "type": "string"
        }
      ],
      "stateMutability": "view",
      "type": "function"
    },
    {
      "inputs": [],
      "name": "owner",
      "outputs": [
        {
          "internalType": "address",
          "name": "",
          "type": "address"
        }
      ],
      "stateMutability": "view",
      "type": "function"
    },
    {
      "inputs": [
        {
          "internalType": "uint256",
          "name": "tokenId",
          "type": "uint256"
        }
      ],
      "name": "ownerOf",
      "outputs": [
        {
          "internalType": "address",
          "name": "",
          "type": "address"
        }
      ],
      "stateMutability": "view",
      "type": "function"
    },
    {
      "inputs": [],
      "name": "pause",
      "outputs": [],
      "stateMutability": "nonpayable",
      "type": "function"
    },
    {
      "inputs": [
        {
          "internalType": "uint256",
          "name": "_subscriptionId",
          "type": "uint256"
        }
      ],
      "name": "pauseSubscription",
      "outputs": [],
      "stateMutability": "nonpayable",
      "type": "function"
    },
    {
      "inputs": [],
      "name": "paused",
      "outputs": [
        {
          "internalType": "bool",
          "name": "",
          "type": "bool"
        }
      ],
      "stateMutability": "view",
      "type": "function"
    },
    {
      "inputs": [],
      "name": "renounceOwnership",
      "outputs": [],
      "stateMutability": "nonpayable",
      "type": "function"
    },
    {
      "inputs": [
        {
          "internalType": "uint256",
          "name": "_subscriptionId",
          "type": "uint256"
        }
      ],
      "name": "resumeSubscription",
      "outputs": [],
      "stateMutability": "nonpayable",
      "type": "function"
    },
    {
      "inputs": [
        {
          "internalType": "address",
          "name": "from",
          "type": "address"
        },
        {
          "internalType": "address",
          "name": "to",
          "type": "address"
        },
        {
          "internalType": "uint256",
          "name": "tokenId",
          "type": "uint256"
        }
      ],
      "name": "safeTransferFrom",
      "outputs": [],
      "stateMutability": "nonpayable",
      "type": "function"
    },
    {
      "inputs": [
        {
          "internalType": "address",
          "name": "from",
          "type": "address"
        },
        {
          "internalType": "address",
          "name": "to",
          "type": "address"
        },
        {
          "internalType": "uint256",
          "name": "tokenId",
          "type": "uint256"
        },
        {
          "internalType": "bytes",
          "name": "_data",
          "type": "bytes"
        }
      ],
      "name": "safeTransferFrom",
      "outputs": [],
      "stateMutability": "nonpayable",
      "type": "function"
    },
    {
      "inputs": [
        {
          "internalType": "address",
          "name": "operator",
          "type": "address"
        },
        {
          "internalType": "bool",
          "name": "approved",
          "type": "bool"
        }
      ],
      "name": "setApprovalForAll",
      "outputs": [],
      "stateMutability": "nonpayable",
      "type": "function"
    },
    {
      "inputs": [
        {
          "internalType": "address",
          "name": "_subscriptionManager",
          "type": "address"
        }
      ],
      "name": "setManager",
      "outputs": [],
      "stateMutability": "nonpayable",
      "type": "function"
    },
    {
      "inputs": [
        {
          "internalType": "address",
          "name": "_forwarder",
          "type": "address"
        }
      ],
      "name": "setTrustedForwarder",
      "outputs": [],
      "stateMutability": "nonpayable",
      "type": "function"
    },
    {
      "inputs": [],
      "name": "subscriptionManager",
      "outputs": [
        {
          "internalType": "contract ICaskSubscriptionManager",
          "name": "",
          "type": "address"
        }
      ],
      "stateMutability": "view",
      "type": "function"
    },
    {
      "inputs": [],
      "name": "subscriptionPlans",
      "outputs": [
        {
          "internalType": "contract ICaskSubscriptionPlans",
          "name": "",
          "type": "address"
        }
      ],
      "stateMutability": "view",
      "type": "function"
    },
    {
      "inputs": [
        {
          "internalType": "bytes4",
          "name": "interfaceId",
          "type": "bytes4"
        }
      ],
      "name": "supportsInterface",
      "outputs": [
        {
          "internalType": "bool",
          "name": "",
          "type": "bool"
        }
      ],
      "stateMutability": "view",
      "type": "function"
    },
    {
      "inputs": [],
      "name": "symbol",
      "outputs": [
        {
          "internalType": "string",
          "name": "",
          "type": "string"
        }
      ],
      "stateMutability": "view",
      "type": "function"
    },
    {
      "inputs": [
        {
          "internalType": "uint256",
          "name": "_subscriptionId",
          "type": "uint256"
        }
      ],
      "name": "tokenURI",
      "outputs": [
        {
          "internalType": "string",
          "name": "",
          "type": "string"
        }
      ],
      "stateMutability": "view",
      "type": "function"
    },
    {
      "inputs": [
        {
          "internalType": "address",
          "name": "from",
          "type": "address"
        },
        {
          "internalType": "address",
          "name": "to",
          "type": "address"
        },
        {
          "internalType": "uint256",
          "name": "tokenId",
          "type": "uint256"
        }
      ],
      "name": "transferFrom",
      "outputs": [],
      "stateMutability": "nonpayable",
      "type": "function"
    },
    {
      "inputs": [
        {
          "internalType": "address",
          "name": "newOwner",
          "type": "address"
        }
      ],
      "name": "transferOwnership",
      "outputs": [],
      "stateMutability": "nonpayable",
      "type": "function"
    },
    {
      "inputs": [],
      "name": "trustedForwarder",
      "outputs": [
        {
          "internalType": "address",
          "name": "",
          "type": "address"
        }
      ],
      "stateMutability": "view",
      "type": "function"
    },
    {
      "inputs": [],
      "name": "unpause",
      "outputs": [],
      "stateMutability": "nonpayable",
      "type": "function"
    },
    {
      "inputs": [],
      "name": "versionRecipient",
      "outputs": [
        {
          "internalType": "string",
          "name": "",
          "type": "string"
        }
      ],
      "stateMutability": "pure",
      "type": "function"
    }
  ],
  "transactionHash": "0xbcd86a68f13657dfd5033f48b3f12b9347f9ef5137fffc697f59ba439d65a2a9",
  "args": [],
  "numDeployments": 2,
  "solcInputHash": "65f4b23534685eff129f3118d6b9e2fd",
  "bytecode": "0x60806040523480156200001157600080fd5b50600054610100900460ff166200002f5760005460ff161562000039565b62000039620000de565b620000a15760405162461bcd60e51b815260206004820152602e60248201527f496e697469616c697a61626c653a20636f6e747261637420697320616c72656160448201526d191e481a5b9a5d1a585b1a5e995960921b606482015260840160405180910390fd5b600054610100900460ff16158015620000c4576000805461ffff19166101011790555b8015620000d7576000805461ff00191690555b5062000102565b6000620000f630620000fc60201b62002a011760201c565b15905090565b3b151590565b615ec980620001126000396000f3fe608060405234801561001057600080fd5b50600436106102535760003560e01c80637df7b2aa11610146578063b88d4fde116100c3578063d0ebdbe711610087578063d0ebdbe714610546578063da74222814610559578063dc311dd31461056c578063e985e9c51461058d578063f2fde38b146105c9578063f6189f0e146105dc57600080fd5b8063b88d4fde146104d9578063bf158fd2146104ec578063c4d66de8146104ff578063c86e695414610512578063c87b56dd1461053357600080fd5b8063925fa5911161010a578063925fa5911461047857806395d89b411461048b578063a22cb46514610493578063ab5f8b7c146104a6578063ac58e37b146104c657600080fd5b80637df7b2aa14610426578063825527ff146104395780638456cb591461044c5780638da5cb5b146104545780638fe17b161461046557600080fd5b806345041a46116101d45780636352211e116101985780636352211e146103d457806370a08231146103e7578063715018a6146103fa57806374c14439146104025780637da0a8771461041557600080fd5b806345041a4614610360578063486ff0cd146103735780634d5106ae14610394578063572b6c05146103a75780635c975abb146103c957600080fd5b806323b872dd1161021b57806323b872dd146102e8578063291b9a3f146102fb5780633f4ba83a1461033257806341f23f0a1461033a57806342842e0e1461034d57600080fd5b806301ffc9a714610258578063023a584e1461028057806306fdde0314610295578063081812fc146102aa578063095ea7b3146102d5575b600080fd5b61026b610266366004614fc0565b6105ef565b60405190151581526020015b60405180910390f35b61029361028e366004614fdd565b610641565b005b61029d610a25565b604051610277919061504e565b6102bd6102b8366004614fdd565b610ab7565b6040516001600160a01b039091168152602001610277565b6102936102e3366004615076565b610b4c565b6102936102f63660046150a2565b610c74565b6103246103093660046150e3565b6001600160a01b0316600090815260fe602052604090205490565b604051908152602001610277565b610293610cac565b610293610348366004614fdd565b610cff565b61029361035b3660046150a2565b610f8e565b61029361036e366004615141565b610fa9565b6040805180820190915260058152640322e322e360dc1b602082015261029d565b6102936103a23660046152d4565b6110c1565b61026b6103b53660046150e3565b6065546001600160a01b0391821691161490565b60ca5460ff1661026b565b6102bd6103e2366004614fdd565b611101565b6103246103f53660046150e3565b611178565b6102936111ff565b6103246104103660046153bf565b611252565b6065546001600160a01b03166102bd565b610293610434366004615406565b6112da565b61029361044736600461543a565b6119ae565b610293611a12565b6098546001600160a01b03166102bd565b60fd546102bd906001600160a01b031681565b610293610486366004615549565b611a63565b61029d611e1a565b6102936104a1366004615575565b611e29565b6104b96104b43660046155a3565b611e3b565b60405161027791906155d8565b6102936104d436600461561c565b611fc2565b6102936104e73660046156a9565b612037565b60fc546102bd906001600160a01b031681565b61029361050d3660046150e3565b612070565b610324610520366004614fdd565b6000908152610100602052604090205490565b61029d610541366004614fdd565b6121a8565b6102936105543660046150e3565b612462565b6102936105673660046150e3565b6124cd565b61057f61057a366004614fdd565b612537565b60405161027792919061574c565b61026b61059b36600461588a565b6001600160a01b039182166000908152606b6020908152604080832093909416825291909152205460ff1690565b6102936105d73660046150e3565b6127f6565b6104b96105ea3660046155a3565b6128ad565b60006001600160e01b031982166380ac58cd60e01b148061062057506001600160e01b03198216635b5e139f60e01b145b8061063b57506301ffc9a760e01b6001600160e01b03198316145b92915050565b8061064b81611101565b6001600160a01b031661065c612a07565b6001600160a01b03161461068b5760405162461bcd60e51b8152600401610682906158b8565b60405180910390fd5b60ca5460ff16156106ae5760405162461bcd60e51b8152600401610682906158d7565b600082815260ff6020526040902060036005820154600160a01b900460ff1660068111156106de576106de615714565b1480610709575060066005820154600160a01b900460ff16600681111561070757610707615714565b145b6107435760405162461bcd60e51b815260206004820152600b60248201526a085393d517d4105554d15160aa1b6044820152606401610682565b60066005820154600160a01b900460ff16600681111561076557610765615714565b141561078357600501805460ff60a01b1916600160a11b1790555050565b60006107928260000154612a16565b9050806080015163ffffffff16600014806107e55750608081015160058301546001600160a01b03166000908152610103602090815260408083208286015163ffffffff90811685529252909120549116115b61081f5760405162461bcd60e51b815260206004820152600b60248201526a214d41585f41435449564560a81b6044820152606401610682565b600582018054600160a11b60ff60a01b198216179091556001600160a01b031660009081526101026020526040812080546001929061085f908490615917565b909155505060058201546001600160a01b038116600090815261010360209081526040808320600160a81b90940463ffffffff1683529290529081208054600192906108ac908490615917565b9091555050600682015463ffffffff428116911610156108de5760068201805463ffffffff19164263ffffffff161790555b60fc5460405163d71bb37b60e01b8152600481018690526001600160a01b039091169063d71bb37b90602401600060405180830381600087803b15801561092457600080fd5b505af1158015610938573d6000803e3d6000fd5b5060029250610945915050565b6005830154600160a01b900460ff16600681111561096557610965615714565b146109a85760405162461bcd60e51b815260206004820152601360248201527221494e53554646494349454e545f46554e445360681b6044820152606401610682565b600582015484906001600160a01b03166109c182611101565b6004850154600586015460408051928352600160a81b90910463ffffffff1660208301526001600160a01b0392909216917f7ee0fc3eab7021686f891346ebbf5bab192d6f9995fcc66021f4551888dc148191015b60405180910390a450505b5050565b606060668054610a349061592f565b80601f0160208091040260200160405190810160405280929190818152602001828054610a609061592f565b8015610aad5780601f10610a8257610100808354040283529160200191610aad565b820191906000526020600020905b815481529060010190602001808311610a9057829003601f168201915b5050505050905090565b6000818152606860205260408120546001600160a01b0316610b305760405162461bcd60e51b815260206004820152602c60248201527f4552433732313a20617070726f76656420717565727920666f72206e6f6e657860448201526b34b9ba32b73a103a37b5b2b760a11b6064820152608401610682565b506000908152606a60205260409020546001600160a01b031690565b6000610b5782611101565b9050806001600160a01b0316836001600160a01b03161415610bc55760405162461bcd60e51b815260206004820152602160248201527f4552433732313a20617070726f76616c20746f2063757272656e74206f776e656044820152603960f91b6064820152608401610682565b806001600160a01b0316610bd7612a07565b6001600160a01b03161480610bf35750610bf38161059b612a07565b610c655760405162461bcd60e51b815260206004820152603860248201527f4552433732313a20617070726f76652063616c6c6572206973206e6f74206f7760448201527f6e6572206e6f7220617070726f76656420666f7220616c6c00000000000000006064820152608401610682565b610c6f8383612af1565b505050565b610c85610c7f612a07565b82612b5f565b610ca15760405162461bcd60e51b81526004016106829061596a565b610c6f838383612c56565b610cb4612a07565b6001600160a01b0316610ccf6098546001600160a01b031690565b6001600160a01b031614610cf55760405162461bcd60e51b8152600401610682906159bb565b610cfd612e01565b565b80610d0981611101565b6001600160a01b0316610d1a612a07565b6001600160a01b03161480610d585750600081815260ff60205260409020600501546001600160a01b0316610d4d612a07565b6001600160a01b0316145b610d745760405162461bcd60e51b8152600401610682906158b8565b60ca5460ff1615610d975760405162461bcd60e51b8152600401610682906158d7565b600082815260ff6020526040902060036005820154600160a01b900460ff166006811115610dc757610dc7615714565b14158015610df45750600580820154600160a01b900460ff166006811115610df157610df1615714565b14155b8015610e20575060046005820154600160a01b900460ff166006811115610e1d57610e1d615714565b14155b8015610e4c575060016005820154600160a01b900460ff166006811115610e4957610e49615714565b14155b610e685760405162461bcd60e51b8152600401610682906159f0565b6006810154600160201b900463ffffffff161580610e9c5750600681015463ffffffff600160201b90910481164290911610155b610eb85760405162461bcd60e51b815260040161068290615a1a565b6000610ec78260000154612a16565b90508060e00151610f0a5760405162461bcd60e51b815260206004820152600d60248201526c214e4f545f5041555341424c4560981b6044820152606401610682565b600582018054600360a11b60ff60a01b1982161790915584906001600160a01b0316610f3582611101565b6004850154600586015460408051928352600160a81b90910463ffffffff1660208301526001600160a01b0392909216917f3b1ababbfb41865093a096e886e08d3058f1adbce6c29e7be7ed6fd16b7080289101610a16565b610c6f83838360405180602001604052806000815250612037565b82610fb381611101565b6001600160a01b0316610fc4612a07565b6001600160a01b031614806110025750600081815260ff60205260409020600501546001600160a01b0316610ff7612a07565b6001600160a01b0316145b61101e5760405162461bcd60e51b8152600401610682906158b8565b60ca5460ff16156110415760405162461bcd60e51b8152600401610682906158d7565b600084815260ff6020526040902060046005820154600160a01b900460ff16600681111561107157611071615714565b14156110ab5760405162461bcd60e51b81526020600482015260096024820152680850d05390d153115160ba1b6044820152606401610682565b6110b9600882018585614e9d565b505050505050565b60ca5460ff16156110e45760405162461bcd60e51b8152600401610682906158d7565b6110f5898989898989898989612e9a565b50505050505050505050565b6000818152606860205260408120546001600160a01b03168061063b5760405162461bcd60e51b815260206004820152602960248201527f4552433732313a206f776e657220717565727920666f72206e6f6e657869737460448201526832b73a103a37b5b2b760b91b6064820152608401610682565b60006001600160a01b0382166111e35760405162461bcd60e51b815260206004820152602a60248201527f4552433732313a2062616c616e636520717565727920666f7220746865207a65604482015269726f206164647265737360b01b6064820152608401610682565b506001600160a01b031660009081526069602052604090205490565b611207612a07565b6001600160a01b03166112226098546001600160a01b031690565b6001600160a01b0316146112485760405162461bcd60e51b8152600401610682906159bb565b610cfd60006135e2565b6000821561127a57506001600160a01b038316600090815261010160205260409020546112d3565b63ffffffff8216156112b757506001600160a01b03831660009081526101036020908152604080832063ffffffff851684529091529020546112d3565b506001600160a01b038316600090815261010260205260409020545b9392505050565b60fc546001600160a01b03166112ee612a07565b6001600160a01b0316146113145760405162461bcd60e51b8152600401610682906158b8565b60ca5460ff16156113375760405162461bcd60e51b8152600401610682906158d7565b600082815260ff6020526040902042600183600681111561135a5761135a615714565b14156114f35760008481526101006020526040902054806113bd5760405162461bcd60e51b815260206004820152601960248201527f21494e56414c49442870656e64696e67506c616e4461746129000000000000006044820152606401610682565b60006113c882612a16565b600585015490915086906001600160a01b03166113e482611101565b6004870154600588015460208087015160028b01546040805195865263ffffffff600160a81b90950485169386019390935292169083015260608201526001600160a01b0391909116907fe17e61be0a4aac2f0b6fece72cedc2ab9ca554634d5af864a9282095206a0c2b9060800160405180910390a4602081015160058501805463ffffffff909216600160a81b0263ffffffff60a81b1990921691909117905581845560a081015161ffff16156114dc578060a0015161ffff1681604001516114af9190615a3d565b6114b99084615a69565b8460060160046101000a81548163ffffffff021916908363ffffffff1602179055505b5050600084815261010060205260408120556119a8565b600283600681111561150757611507615714565b141561162257600582018054600160a21b60ff60a01b198216179091556001600160a01b031660009081526101026020526040812080546001929061154d908490615a91565b909155505060058201546001600160a01b038116600090815261010360209081526040808320600160a81b90940463ffffffff16835292905290812080546001929061159a908490615a91565b9091555050600582015484906001600160a01b03166115b882611101565b6004850154600586015460408051928352600160a81b90910463ffffffff1660208301526001600160a01b0392909216917f58e4414596fd750dbb9dabfe65b97bf5add2061f5902f34e2b82a9c25bd79f98910160405180910390a461161d84613634565b6119a8565b600683600681111561163657611636615714565b141561174957600582018054600360a01b60ff60a01b198216179091556001600160a01b031660009081526101026020526040812080546001929061167c908490615a91565b909155505060058201546001600160a01b038116600090815261010360209081526040808320600160a81b90940463ffffffff1683529290529081208054600192906116c9908490615a91565b9091555050600582015484906001600160a01b03166116e782611101565b6004850154600586015460408051928352600160a81b90910463ffffffff1660208301526001600160a01b0392909216917f7afd3b59e582bb56b590409b808e910ae787056cb10b682b9bdefa44c8eb940d91015b60405180910390a46119a8565b600383600681111561175d5761175d615714565b14156117e757600582018054600560a01b60ff60a01b1982161790915584906001600160a01b031661178e82611101565b6004850154600586015460408051928352600160a81b90910463ffffffff1660208301526001600160a01b0392909216917f44abb4f4529fdbcacc1ee98eef9318eaf9a12044d6925a2dc2c702959d9352f1910161173c565b60048360068111156117fb576117fb615714565b141561197f5760006118108360000154612a16565b905060016005840154600160a01b900460ff16600681111561183457611834615714565b14156118b057600583015485906001600160a01b031661185382611101565b6004860154600587015460408051928352600160a81b90910463ffffffff1660208301526001600160a01b0392909216917ff42e506093cb49dad3d3349cf7a2b390140be665daecb2c820e903afd12b1df7910160405180910390a45b604081015160068401546118ca919063ffffffff16615a69565b60068401805463ffffffff191663ffffffff92831690811790915590831610156119045760058301805460ff60a01b1916600160a11b1790555b600583015485906001600160a01b031661191d82611101565b6004860154600587015460408051928352600160a81b90910463ffffffff1660208301526001600160a01b0392909216917fcdd2eee203a384f2c6e81f39021f7e3ebef3a21ccd0d0f6dd117387ab61b6b54910160405180910390a4506119a8565b600583600681111561199357611993615714565b14156119a85760006002830181905560038301555b50505050565b60ca5460ff16156119d15760405162461bcd60e51b8152600401610682906158d7565b60006119e48c8c8c8c8c8b8b8a8a612e9a565b90506119f087856136db565b50600090815260ff602052604090206001019590955550505050505050505050565b611a1a612a07565b6001600160a01b0316611a356098546001600160a01b031690565b6001600160a01b031614611a5b5760405162461bcd60e51b8152600401610682906159bb565b610cfd613801565b81611a6d81611101565b6001600160a01b0316611a7e612a07565b6001600160a01b03161480611abc5750600081815260ff60205260409020600501546001600160a01b0316611ab1612a07565b6001600160a01b0316145b611ad85760405162461bcd60e51b8152600401610682906158b8565b60ca5460ff1615611afb5760405162461bcd60e51b8152600401610682906158d7565b600083815260ff6020526040902060046005820154600160a01b900460ff166006811115611b2b57611b2b615714565b1415611b495760405162461bcd60e51b8152600401610682906159f0565b4263ffffffff8416611c3757611b5e85611101565b6001600160a01b0316611b6f612a07565b6001600160a01b031614611b955760405162461bcd60e51b8152600401610682906158b8565b60068201805463ffffffff60401b1916600160401b63ffffffff871602179055600582015485906001600160a01b0316611bce82611101565b6004850154600586015460408051928352600160a81b90910463ffffffff9081166020840152891682820152516001600160a01b0392909216917fc54424be96a88104b924830a25713de0140a7b7048d7a26370e735b421b057869181900360600190a4611e13565b8063ffffffff168463ffffffff1611611d26576006820154600160201b900463ffffffff161580611c7d5750600682015463ffffffff600160201b909104811690821610155b611c995760405162461bcd60e51b815260040161068290615a1a565b600682018054600160401b63ffffffff84169081026bffffffff00000000ffffffff199092161717905560fc5460405163d71bb37b60e01b8152600481018790526001600160a01b039091169063d71bb37b90602401600060405180830381600087803b158015611d0957600080fd5b505af1158015611d1d573d6000803e3d6000fd5b50505050611e13565b6006820154600160201b900463ffffffff161580611d595750600682015463ffffffff600160201b909104811690851610155b611d755760405162461bcd60e51b815260040161068290615a1a565b60068201805463ffffffff60401b1916600160401b63ffffffff871602179055600582015485906001600160a01b0316611dae82611101565b6004850154600586015460408051928352600160a81b90910463ffffffff9081166020840152891682820152516001600160a01b0392909216917fc54424be96a88104b924830a25713de0140a7b7048d7a26370e735b421b057869181900360600190a45b5050505050565b606060678054610a349061592f565b610a21611e34612a07565b838361385a565b6001600160a01b038316600090815260fe60205260409020546060908390811115611e7b57506001600160a01b038416600090815260fe60205260409020545b6001600160a01b038516600090815260fe60205260409020548310611ecf5760005b604051908082528060200260200182016040528015611ec6578160200160208202803683370190505b509150506112d3565b6000816001600160401b03811115611ee957611ee96151e9565b604051908082528060200260200182016040528015611f12578160200160208202803683370190505b50905060005b8281108015611f4757506001600160a01b038716600090815260fe6020526040902054611f458683615917565b105b15611fb8576001600160a01b038716600090815260fe60205260409020611f6e8683615917565b81548110611f7e57611f7e615aa8565b9060005260206000200154828281518110611f9b57611f9b615aa8565b602090810291909101015280611fb081615abe565b915050611f18565b5095945050505050565b88611fcc81611101565b6001600160a01b0316611fdd612a07565b6001600160a01b0316146120035760405162461bcd60e51b8152600401610682906158b8565b60ca5460ff16156120265760405162461bcd60e51b8152600401610682906158d7565b6110f58a8a8a8a8a8a8a8a8a613929565b612048612042612a07565b83612b5f565b6120645760405162461bcd60e51b81526004016106829061596a565b6119a884848484613cde565b600054610100900460ff1661208b5760005460ff161561208f565b303b155b6120f25760405162461bcd60e51b815260206004820152602e60248201527f496e697469616c697a61626c653a20636f6e747261637420697320616c72656160448201526d191e481a5b9a5d1a585b1a5e995960921b6064820152608401610682565b600054610100900460ff16158015612114576000805461ffff19166101011790555b61211c613d11565b612124613d48565b612178604051806040016040528060128152602001714361736b20537562736372697074696f6e7360701b815250604051806040016040528060088152602001674341534b5355425360c01b815250613d7f565b60fd80546001600160a01b0319166001600160a01b0384161790558015610a21576000805461ff00191690555050565b6000818152606860205260409020546060906001600160a01b03166122275760405162461bcd60e51b815260206004820152602f60248201527f4552433732314d657461646174613a2055524920717565727920666f72206e6f60448201526e3732bc34b9ba32b73a103a37b5b2b760891b6064820152608401610682565b600082815260ff6020818152604080842081516101c08101835281548152600182015493810193909352600281015491830191909152600381015460608301526004810154608083015260058101546001600160a01b03811660a08401529192909160c0840191600160a01b9091041660068111156122a8576122a8615714565b60068111156122b9576122b9615714565b8152600582015463ffffffff600160a81b820481166020840152600160c81b9091048116604083015260068301548082166060840152600160201b810482166080840152600160401b90041660a082015260078201805460c09092019161231f9061592f565b80601f016020809104026020016040519081016040528092919081815260200182805461234b9061592f565b80156123985780601f1061236d57610100808354040283529160200191612398565b820191906000526020600020905b81548152906001019060200180831161237b57829003601f168201915b505050505081526020016008820180546123b19061592f565b80601f01602080910402602001604051908101604052809291908181526020018280546123dd9061592f565b801561242a5780601f106123ff5761010080835404028352916020019161242a565b820191906000526020600020905b81548152906001019060200180831161240d57829003601f168201915b505050505081525050905080610180015160405160200161244b9190615ad9565b604051602081830303815290604052915050919050565b61246a612a07565b6001600160a01b03166124856098546001600160a01b031690565b6001600160a01b0316146124ab5760405162461bcd60e51b8152600401610682906159bb565b60fc80546001600160a01b0319166001600160a01b0392909216919091179055565b6124d5612a07565b6001600160a01b03166124f06098546001600160a01b031690565b6001600160a01b0316146125165760405162461bcd60e51b8152600401610682906159bb565b606580546001600160a01b0319166001600160a01b03831617905550565b50565b604080516101c08101825260008082526020820181905291810182905260608082018390526080820183905260a0820183905260c0820183905260e0820183905261010082018390526101208201839052610140820183905261016082019290925261018081018290526101a0810191909152600082815260ff6020818152604080842081516101c08101835281548152600182015493810193909352600281015491830191909152600381015460608301526004810154608083015260058101546001600160a01b03811660a08401529192909160c0840191600160a01b90910416600681111561262b5761262b615714565b600681111561263c5761263c615714565b8152600582015463ffffffff600160a81b820481166020840152600160c81b9091048116604083015260068301548082166060840152600160201b810482166080840152600160401b90041660a082015260078201805460c0909201916126a29061592f565b80601f01602080910402602001604051908101604052809291908181526020018280546126ce9061592f565b801561271b5780601f106126f05761010080835404028352916020019161271b565b820191906000526020600020905b8154815290600101906020018083116126fe57829003601f168201915b505050505081526020016008820180546127349061592f565b80601f01602080910402602001604051908101604052809291908181526020018280546127609061592f565b80156127ad5780601f10612782576101008083540402835291602001916127ad565b820191906000526020600020905b81548152906001019060200180831161279057829003601f168201915b50505050508152505091506127d9836000908152606860205260409020546001600160a01b0316151590565b156127ee576127e783611101565b9050915091565b506000915091565b6127fe612a07565b6001600160a01b03166128196098546001600160a01b031690565b6001600160a01b03161461283f5760405162461bcd60e51b8152600401610682906159bb565b6001600160a01b0381166128a45760405162461bcd60e51b815260206004820152602660248201527f4f776e61626c653a206e6577206f776e657220697320746865207a65726f206160448201526564647265737360d01b6064820152608401610682565b612534816135e2565b6001600160a01b0383166000908152610101602052604090205460609083908111156128ef57506001600160a01b038416600090815261010160205260409020545b6001600160a01b038516600090815261010160205260409020548310612916576000611e9d565b6000816001600160401b03811115612930576129306151e9565b604051908082528060200260200182016040528015612959578160200160208202803683370190505b50905060005b828110801561298f57506001600160a01b0387166000908152610101602052604090205461298d8683615917565b105b15611fb8576001600160a01b0387166000908152610101602052604090206129b78683615917565b815481106129c7576129c7615aa8565b90600052602060002001548282815181106129e4576129e4615aa8565b6020908102919091010152806129f981615abe565b91505061295f565b3b151590565b6000612a11613dc0565b905090565b6040805161012081018252600080825260208201819052918101829052606081018290526080810182905260a0810182905260c0810182905260e0810182905261010081019190915250604080516101208101825260a083811c8252608084811c63ffffffff908116602080860191909152606087811c8316868801529587901c8216958501959095529385901c90931692820192909252601083901c61ffff1691810191909152600882901c60ff1660c082015260f89190911b600160f81b8181161460e0830152600160f91b9081161461010082015290565b6000818152606a6020526040902080546001600160a01b0319166001600160a01b0384169081179091558190612b2682611101565b6001600160a01b03167f8c5be1e5ebec7d5bd14f71427d1e84f3dd0314c0f7b2291e5b200ac8c7c3b92560405160405180910390a45050565b6000818152606860205260408120546001600160a01b0316612bd85760405162461bcd60e51b815260206004820152602c60248201527f4552433732313a206f70657261746f7220717565727920666f72206e6f6e657860448201526b34b9ba32b73a103a37b5b2b760a11b6064820152608401610682565b6000612be383611101565b9050806001600160a01b0316846001600160a01b03161480612c1e5750836001600160a01b0316612c1384610ab7565b6001600160a01b0316145b80612c4e57506001600160a01b038082166000908152606b602090815260408083209388168352929052205460ff165b949350505050565b826001600160a01b0316612c6982611101565b6001600160a01b031614612cd15760405162461bcd60e51b815260206004820152602960248201527f4552433732313a207472616e73666572206f6620746f6b656e2074686174206960448201526839903737ba1037bbb760b91b6064820152608401610682565b6001600160a01b038216612d335760405162461bcd60e51b8152602060048201526024808201527f4552433732313a207472616e7366657220746f20746865207a65726f206164646044820152637265737360e01b6064820152608401610682565b612d3e838383613df4565b612d49600082612af1565b6001600160a01b0383166000908152606960205260408120805460019290612d72908490615a91565b90915550506001600160a01b0382166000908152606960205260408120805460019290612da0908490615917565b909155505060008181526068602052604080822080546001600160a01b0319166001600160a01b0386811691821790925591518493918716917fddf252ad1be2c89b69c2b068fc378daa952ba7f163c4a11628f55a4df523b3ef91a4505050565b60ca5460ff16612e4a5760405162461bcd60e51b815260206004820152601460248201527314185d5cd8589b194e881b9bdd081c185d5cd95960621b6044820152606401610682565b60ca805460ff191690557f5db9ee0a495bf2e6ff9c91a7834c1ba4fdd244a5e8aa4e537bd38aeae4b073aa612e7d612a07565b6040516001600160a01b03909116815260200160405180910390a1565b60006004881015612ee65760405162461bcd60e51b815260206004820152601660248201527521494e56414c494428706c616e50726f6f664c656e2960501b6044820152606401610682565b600060038710612f4f57612f488a8a6000818110612f0657612f06615aa8565b905060200201358c8c8c6003818110612f2157612f21615aa8565b905060200201358b8b6002818110612f3b57612f3b615aa8565b9050602002013589613f1e565b9050612f94565b612f918a8a6000818110612f6557612f65615aa8565b905060200201358c8c8c6003818110612f8057612f80615aa8565b905060200201356000801b89613f1e565b90505b612f9e8a8a61406c565b612fba5760405162461bcd60e51b815260040161068290615b08565b6000612fde8b8b6002818110612fd257612fd2615aa8565b90506020020135612a16565b905060006130388c8c6000818110612ff857612ff8615aa8565b905060200201358d8d600181811061301257613012615aa8565b905060200201358e8e600281811061302c5761302c615aa8565b90506020020135614133565b9050816080015163ffffffff1660001480613087575060808201516001600160a01b0384166000908152610103602090815260408083208287015163ffffffff90811685529252909120549116115b6130c15760405162461bcd60e51b815260206004820152600b60248201526a214d41585f41435449564560a81b6044820152606401610682565b600060fd54602084015160405163b6ab359f60e01b81526001600160a01b03878116600483015263ffffffff909216602482015291169063b6ab359f9060440160206040518083038186803b15801561311957600080fd5b505afa15801561312d573d6000803e3d6000fd5b505050506040513d601f19601f820116820180604052508101906131519190615b35565b600281111561316257613162615714565b1461319e5760405162461bcd60e51b815260206004820152600c60248201526b085393d517d153905093115160a21b6044820152606401610682565b6131af6131a9612a07565b8261419e565b600081815260ff602090815260409091206005810180549285015163ffffffff16600160a81b02600164ffffffff0160a01b03199093166001600160a01b0387161792909217909155428d8d600181811061320c5761320c615aa8565b60200291909101356004840155508d8d600281811061322d5761322d615aa8565b602002919091013583555060068201805463ffffffff60401b1916600160401b63ffffffff8d1602179055613266600783018989614e9d565b5060058201805463ffffffff60c81b1916600160c81b63ffffffff84160217905560a084015161ffff16156132da578360a0015161ffff1684604001516132ad9190615a3d565b6132b79082615a69565b8260060160046101000a81548163ffffffff021916908363ffffffff1602179055505b83516133095760058201805460ff60a01b1916600160a11b17905560068201805463ffffffff1916905561338b565b606084015163ffffffff161561335e5760058201805460ff60a01b1916600160a01b179055606084015161333d9082615a69565b60068301805463ffffffff191663ffffffff9290921691909117905561338b565b60058201805460ff60a01b1916600160a11b17905560068201805463ffffffff191663ffffffff83161790555b60fe6000613397612a07565b6001600160a01b0390811682526020808301939093526040918201600090812080546001818101835591835285832001889055918916808252610101855283822080548085018255908352858320018890558152610102909352908220805491929091613405908490615917565b90915550506001600160a01b0385166000908152610103602090815260408083208783015163ffffffff1684529091528120805460019290613448908490615917565b90915550613477905061345a84611101565b600584015460208701516001600160a01b03909116908f8f6141b8565b6003840155600283015560fc5460405163d71bb37b60e01b8152600481018590526001600160a01b039091169063d71bb37b90602401600060405180830381600087803b1580156134c757600080fd5b505af11580156134db573d6000803e3d6000fd5b50600292506134e8915050565b6005830154600160a01b900460ff16600681111561350857613508615714565b1480613533575060016005830154600160a01b900460ff16600681111561353157613531615714565b145b61354f5760405162461bcd60e51b815260040161068290615b56565b600582015483906001600160a01b031661356882611101565b60048501546005860154600287015460408051938452600160a81b90920463ffffffff166020840152908201526001600160a01b0391909116907f9fb45eab820cdd481e286e8c699e1c01031bb833c58f7cfba3ca8d1db6d98d819060600160405180910390a450909d9c50505050505050505050505050565b609880546001600160a01b038381166001600160a01b0319831681179093556040519116919082907f8be0079c531659141344cd1fd0a4f28419497f9722a3daafe3b4186f6b6457e090600090a35050565b600061363f82611101565b905061364d81600084613df4565b613658600083612af1565b6001600160a01b0381166000908152606960205260408120805460019290613681908490615a91565b909155505060008281526068602052604080822080546001600160a01b0319169055518391906001600160a01b038416907fddf252ad1be2c89b69c2b068fc378daa952ba7f163c4a11628f55a4df523b3ef908390a45050565b60008061375e83613758866040516020016136f891815260200190565b60408051601f1981840301815282825280516020918201207f19457468657265756d205369676e6564204d6573736167653a0a33320000000084830152603c8085019190915282518085039091018152605c909301909152815191012090565b906142a4565b9050600061379e8560408051808201909152600080825260208201525060408051808201909152606082901c815260509190911c61ffff16602082015290565b9050816001600160a01b031681600001516001600160a01b0316146137f95760405162461bcd60e51b815260206004820152601160248201527021494e56414c4944286e6574776f726b2960781b6044820152606401610682565b509392505050565b60ca5460ff16156138245760405162461bcd60e51b8152600401610682906158d7565b60ca805460ff191660011790557f62e78cea01bee320cd4e420270b5ea74000d11b0c9f74754ebdbfc544b05a258612e7d612a07565b816001600160a01b0316836001600160a01b031614156138bc5760405162461bcd60e51b815260206004820152601960248201527f4552433732313a20617070726f766520746f2063616c6c6572000000000000006044820152606401610682565b6001600160a01b038381166000818152606b6020908152604080832094871680845294825291829020805460ff191686151590811790915591519182527f17307eab39ab6107e8899845ad3d59bd9653f200f220920489ca2b5937696c31910160405180910390a3505050565b600486101561394a5760405162461bcd60e51b815260040161068290615b08565b600089815260ff60205260409020600681015463ffffffff4281169116116139a45760405162461bcd60e51b815260206004820152600d60248201526c085391515117d491539155d053609a1b6044820152606401610682565b60026005820154600160a01b900460ff1660068111156139c6576139c6615714565b14806139f1575060016005820154600160a01b900460ff1660068111156139ef576139ef615714565b145b613a0d5760405162461bcd60e51b8152600401610682906159f0565b600060038610613a6957613a6289896000818110613a2d57613a2d615aa8565b905060200201358b8b8b6003818110613a4857613a48615aa8565b905060200201358a8a6002818110612f3b57612f3b615aa8565b9050613a9d565b613a9a89896000818110613a7f57613a7f615aa8565b905060200201358b8b8b6003818110612f8057612f80615aa8565b90505b613aa7898961406c565b613ac35760405162461bcd60e51b815260040161068290615b08565b6000613adb8a8a6002818110612fd257612fd2615aa8565b60058401549091506001600160a01b03838116911614613b325760405162461bcd60e51b815260206004820152601260248201527121494e56414c49442870726f76696465722960701b6044820152606401610682565b613b40600784018686614e9d565b506002830154158015613b54575060038710155b8015613b765750600088888281613b6d57613b6d615aa8565b90506020020135115b15613baf57613ba4613b878d611101565b600585015460208401516001600160a01b03909116908b8b6141b8565b600385015560028401555b60208101516005840154600160a81b900463ffffffff908116911614613cd057600060fd54602083015160405163b6ab359f60e01b81526001600160a01b03868116600483015263ffffffff909216602482015291169063b6ab359f9060440160206040518083038186803b158015613c2757600080fd5b505afa158015613c3b573d6000803e3d6000fd5b505050506040513d601f19601f82011682018060405250810190613c5f9190615b35565b6002811115613c7057613c70615714565b14613cac5760405162461bcd60e51b815260206004820152600c60248201526b085393d517d153905093115160a21b6044820152606401610682565b613cd08c828c8c6002818110613cc457613cc4615aa8565b905060200201356142c0565b505050505050505050505050565b613ce9848484612c56565b613cf584848484614409565b6119a85760405162461bcd60e51b815260040161068290615b7e565b600054610100900460ff16613d385760405162461bcd60e51b815260040161068290615bd0565b613d4061451d565b610cfd614544565b600054610100900460ff16613d6f5760405162461bcd60e51b815260040161068290615bd0565b613d7761451d565b610cfd61457b565b600054610100900460ff16613da65760405162461bcd60e51b815260040161068290615bd0565b613dae61451d565b613db661451d565b610a2182826145ae565b600060143610801590613ddd57506065546001600160a01b031633145b15613def575060131936013560601c90565b503390565b6001600160a01b03831615801590613e1457506001600160a01b03821615155b15610c6f57600081815260ff602052604081208054909190613e3590612a16565b9050806101000151613e7e5760405162461bcd60e51b8152602060048201526012602482015271214e4f545f5452414e534645525241424c4560701b6044820152606401610682565b6006820154600160201b900463ffffffff161580613eb25750600682015463ffffffff600160201b90910481164290911610155b613ece5760405162461bcd60e51b815260040161068290615a1a565b50600601805463ffffffff60401b19811663ffffffff909116600160401b021790556001600160a01b0391909116600090815260fe60209081526040822080546001810182559083529120015550565b600080613f4e836137588888886040516020016136f8939291909283526020830191909152604082015260600190565b90506001600160a01b0387811690821614613f9d5760405162461bcd60e51b815260206004820152600f60248201526e21494e56414c49442870726f6f662960881b6044820152606401610682565b60fd54604051630782fb5960e31b81526001600160a01b03838116600483015290911690633c17dac89060240160006040518083038186803b158015613fe257600080fd5b505afa158015613ff6573d6000803e3d6000fd5b505050506040513d6000823e601f3d908101601f1916820160405261401e9190810190615c1b565b6020015186146140625760405162461bcd60e51b815260206004820152600f60248201526e2150524f56494445525f4e4f4e434560881b6044820152606401610682565b9695505050505050565b60fd546000906001600160a01b03166371ce3e668484600281811061409357614093615aa8565b90506020020135858560038181106140ad576140ad615aa8565b602002919091013590506140c4866004818a615cdf565b6040518563ffffffff1660e01b81526004016140e39493929190615d43565b60206040518083038186803b1580156140fb57600080fd5b505afa15801561410f573d6000803e3d6000fd5b505050506040513d601f19601f820116820180604052508101906112d39190615d63565b600061413d612a07565b60405160609190911b6bffffffffffffffffffffffff191660208201526034810185905260548101839052607481018490524360948201524260b482015260d40160408051601f198184030181529190528051602090910120949350505050565b610a218282604051806020016040528060008152506145fc565b60008080848482816141cc576141cc615aa8565b9050602002013511156142935760fd54604051632218d7d360e01b81526000916001600160a01b031690632218d7d390614212908b908b908b908b908b90600401615d80565b602060405180830381600087803b15801561422c57600080fd5b505af1158015614240573d6000803e3d6000fd5b505050506040513d601f19601f820116820180604052508101906142649190615dc4565b9050801561429157808585600181811061428057614280615aa8565b90506020020135925092505061429a565b505b5060009050805b9550959350505050565b60008060006142b3858561462f565b915091506137f98161469f565b600083815260ff6020526040812080549091906142dc90612a16565b905060016005830154600160a01b900460ff16600681111561430057614300615714565b141561437b57606080850151908201516006840154614325919063ffffffff16615ddd565b61432f9190615a69565b60068301805463ffffffff191663ffffffff928316908117909155429091161061436b5760068201805463ffffffff19164263ffffffff161790555b61437685858561485a565b611e13565b604081015181516143929163ffffffff1690615e02565b604085015185516143a99163ffffffff1690615e02565b14156143ba5761437685858561485a565b604081015181516143d19163ffffffff1690615e02565b604085015185516143e89163ffffffff1690615e02565b11156143fa5761437685828686614982565b611e1385856020015185614b9a565b60006001600160a01b0384163b1561451257836001600160a01b031663150b7a02614432612a07565b8786866040518563ffffffff1660e01b81526004016144549493929190615e24565b602060405180830381600087803b15801561446e57600080fd5b505af192505050801561449e575060408051601f3d908101601f1916820190925261449b91810190615e57565b60015b6144f8573d8080156144cc576040519150601f19603f3d011682016040523d82523d6000602084013e6144d1565b606091505b5080516144f05760405162461bcd60e51b815260040161068290615b7e565b805181602001fd5b6001600160e01b031916630a85bd0160e11b149050612c4e565b506001949350505050565b600054610100900460ff16610cfd5760405162461bcd60e51b815260040161068290615bd0565b600054610100900460ff1661456b5760405162461bcd60e51b815260040161068290615bd0565b610cfd614576612a07565b6135e2565b600054610100900460ff166145a25760405162461bcd60e51b815260040161068290615bd0565b60ca805460ff19169055565b600054610100900460ff166145d55760405162461bcd60e51b815260040161068290615bd0565b81516145e8906066906020850190614f21565b508051610c6f906067906020840190614f21565b6146068383614c33565b6146136000848484614409565b610c6f5760405162461bcd60e51b815260040161068290615b7e565b6000808251604114156146665760208301516040840151606085015160001a61465a87828585614d81565b94509450505050614698565b8251604014156146905760208301516040840151614685868383614e6e565b935093505050614698565b506000905060025b9250929050565b60008160048111156146b3576146b3615714565b14156146bc5750565b60018160048111156146d0576146d0615714565b141561471e5760405162461bcd60e51b815260206004820152601860248201527f45434453413a20696e76616c6964207369676e617475726500000000000000006044820152606401610682565b600281600481111561473257614732615714565b14156147805760405162461bcd60e51b815260206004820152601f60248201527f45434453413a20696e76616c6964207369676e6174757265206c656e677468006044820152606401610682565b600381600481111561479457614794615714565b14156147ed5760405162461bcd60e51b815260206004820152602260248201527f45434453413a20696e76616c6964207369676e6174757265202773272076616c604482015261756560f01b6064820152608401610682565b600481600481111561480157614801615714565b14156125345760405162461bcd60e51b815260206004820152602260248201527f45434453413a20696e76616c6964207369676e6174757265202776272076616c604482015261756560f01b6064820152608401610682565b600083815260ff60205260409020600581015484906001600160a01b031661488182611101565b6004840154600585015460208089015160028801546040805195865263ffffffff600160a81b90950485169386019390935292169083015260608201526001600160a01b0391909116907fe17e61be0a4aac2f0b6fece72cedc2ab9ca554634d5af864a9282095206a0c2b9060800160405180910390a460a083015161ffff1615614951578260a0015161ffff16836040015161491e9190615a3d565b61492e9063ffffffff1642615917565b8160060160046101000a81548163ffffffff021916908363ffffffff1602179055505b60209092015160058301805463ffffffff909216600160a81b0263ffffffff60a81b19909216919091179055905550565b600084815260ff6020526040902061499b85848461485a565b83511580156149aa5750825115155b15614a6a5760068101805463ffffffff19164263ffffffff1617905560fc5460405163d71bb37b60e01b8152600481018790526001600160a01b039091169063d71bb37b90602401600060405180830381600087803b158015614a0c57600080fd5b505af1158015614a20573d6000803e3d6000fd5b5060029250614a2d915050565b6005820154600160a01b900460ff166006811115614a4d57614a4d615714565b146143765760405162461bcd60e51b815260040161068290615b56565b6006810154600090614a8390429063ffffffff16615ddd565b63ffffffff16856040015163ffffffff168660000151614aa39190615e02565b60408601518651614aba9163ffffffff1690615e02565b614ac49190615a91565b614ace9190615e74565b60fc549091506001600160a01b031663c54c58c4614aeb88611101565b600585015460405160e084901b6001600160e01b03191681526001600160a01b039283166004820152911660248201526044810189905260648101849052608401602060405180830381600087803b158015614b4657600080fd5b505af1158015614b5a573d6000803e3d6000fd5b505050506040513d601f19601f82011682018060405250810190614b7e9190615d63565b6110b95760405162461bcd60e51b815260040161068290615b56565b600083815260ff60209081526040808320610100909252909120829055600581015484906001600160a01b0316614bd082611101565b600484015460058501546040805192835263ffffffff600160a81b90920482166020840152908816908201526001600160a01b0391909116907f3d051466fe86e1bd842d67e98121d69a930caccf48fc2ae2c83119b5a7b71af690606001610a16565b6001600160a01b038216614c895760405162461bcd60e51b815260206004820181905260248201527f4552433732313a206d696e7420746f20746865207a65726f20616464726573736044820152606401610682565b6000818152606860205260409020546001600160a01b031615614cee5760405162461bcd60e51b815260206004820152601c60248201527f4552433732313a20746f6b656e20616c7265616479206d696e746564000000006044820152606401610682565b614cfa60008383613df4565b6001600160a01b0382166000908152606960205260408120805460019290614d23908490615917565b909155505060008181526068602052604080822080546001600160a01b0319166001600160a01b03861690811790915590518392907fddf252ad1be2c89b69c2b068fc378daa952ba7f163c4a11628f55a4df523b3ef908290a45050565b6000807f7fffffffffffffffffffffffffffffff5d576e7357a4501ddfe92f46681b20a0831115614db85750600090506003614e65565b8460ff16601b14158015614dd057508460ff16601c14155b15614de15750600090506004614e65565b6040805160008082526020820180845289905260ff881692820192909252606081018690526080810185905260019060a0016020604051602081039080840390855afa158015614e35573d6000803e3d6000fd5b5050604051601f1901519150506001600160a01b038116614e5e57600060019250925050614e65565b9150600090505b94509492505050565b6000806001600160ff1b03831660ff84901c601b01614e8f87828885614d81565b935093505050935093915050565b828054614ea99061592f565b90600052602060002090601f016020900481019282614ecb5760008555614f11565b82601f10614ee45782800160ff19823516178555614f11565b82800160010185558215614f11579182015b82811115614f11578235825591602001919060010190614ef6565b50614f1d929150614f95565b5090565b828054614f2d9061592f565b90600052602060002090601f016020900481019282614f4f5760008555614f11565b82601f10614f6857805160ff1916838001178555614f11565b82800160010185558215614f11579182015b82811115614f11578251825591602001919060010190614f7a565b5b80821115614f1d5760008155600101614f96565b6001600160e01b03198116811461253457600080fd5b600060208284031215614fd257600080fd5b81356112d381614faa565b600060208284031215614fef57600080fd5b5035919050565b60005b83811015615011578181015183820152602001614ff9565b838111156119a85750506000910152565b6000815180845261503a816020860160208601614ff6565b601f01601f19169290920160200192915050565b6020815260006112d36020830184615022565b6001600160a01b038116811461253457600080fd5b6000806040838503121561508957600080fd5b823561509481615061565b946020939093013593505050565b6000806000606084860312156150b757600080fd5b83356150c281615061565b925060208401356150d281615061565b929592945050506040919091013590565b6000602082840312156150f557600080fd5b81356112d381615061565b60008083601f84011261511257600080fd5b5081356001600160401b0381111561512957600080fd5b60208301915083602082850101111561469857600080fd5b60008060006040848603121561515657600080fd5b8335925060208401356001600160401b0381111561517357600080fd5b61517f86828701615100565b9497909650939450505050565b60008083601f84011261519e57600080fd5b5081356001600160401b038111156151b557600080fd5b6020830191508360208260051b850101111561469857600080fd5b803563ffffffff811681146151e457600080fd5b919050565b634e487b7160e01b600052604160045260246000fd5b604051606081016001600160401b0381118282101715615221576152216151e9565b60405290565b604051601f8201601f191681016001600160401b038111828210171561524f5761524f6151e9565b604052919050565b60006001600160401b03821115615270576152706151e9565b50601f01601f191660200190565b600082601f83011261528f57600080fd5b81356152a261529d82615257565b615227565b8181528460208386010111156152b757600080fd5b816020850160208301376000918101602001919091529392505050565b600080600080600080600080600060c08a8c0312156152f257600080fd5b8935985060208a01356001600160401b038082111561531057600080fd5b61531c8d838e0161518c565b909a50985060408c013591508082111561533557600080fd5b6153418d838e0161518c565b909850965086915061535560608d016151d0565b955060808c013591508082111561536b57600080fd5b6153778d838e0161527e565b945060a08c013591508082111561538d57600080fd5b5061539a8c828d01615100565b915080935050809150509295985092959850929598565b801515811461253457600080fd5b6000806000606084860312156153d457600080fd5b83356153df81615061565b925060208401356153ef816153b1565b91506153fd604085016151d0565b90509250925092565b6000806040838503121561541957600080fd5b8235915060208301356007811061542f57600080fd5b809150509250929050565b60008060008060008060008060008060006101008c8e03121561545c57600080fd5b8b359a506001600160401b038060208e0135111561547957600080fd5b6154898e60208f01358f0161518c565b909b50995060408d013581101561549f57600080fd5b6154af8e60408f01358f0161518c565b909950975060608d013596506154c760808e016151d0565b95508060a08e013511156154da57600080fd5b6154ea8e60a08f01358f0161527e565b94508060c08e013511156154fd57600080fd5b61550d8e60c08f01358f0161527e565b93508060e08e0135111561552057600080fd5b506155318d60e08e01358e01615100565b81935080925050509295989b509295989b9093969950565b6000806040838503121561555c57600080fd5b8235915061556c602084016151d0565b90509250929050565b6000806040838503121561558857600080fd5b823561559381615061565b9150602083013561542f816153b1565b6000806000606084860312156155b857600080fd5b83356155c381615061565b95602085013595506040909401359392505050565b6020808252825182820181905260009190848201906040850190845b81811015615610578351835292840192918401916001016155f4565b50909695505050505050565b600080600080600080600080600060c08a8c03121561563a57600080fd5b8935985060208a0135975060408a01356001600160401b038082111561565f57600080fd5b61566b8d838e0161518c565b909950975060608c013591508082111561568457600080fd5b6156908d838e0161518c565b909750955060808c013591508082111561536b57600080fd5b600080600080608085870312156156bf57600080fd5b84356156ca81615061565b935060208501356156da81615061565b92506040850135915060608501356001600160401b038111156156fc57600080fd5b6157088782880161527e565b91505092959194509250565b634e487b7160e01b600052602160045260246000fd5b6007811061574857634e487b7160e01b600052602160045260246000fd5b9052565b60408152825160408201526020830151606082015260408301516080820152606083015160a0820152608083015160c0820152600060a084015161579b60e08401826001600160a01b03169052565b5060c08401516101006157b08185018361572a565b60e086015191506101206157cb8186018463ffffffff169052565b908601519150610140906157e68583018463ffffffff169052565b86015191506101606157ff8582018463ffffffff169052565b9086015191506101809061581a8583018463ffffffff169052565b86015191506101a06158338582018463ffffffff169052565b8187015192506101c091508182860152615851610200860184615022565b90870151858203603f19016101e087015290925090506158718282615022565b925050506112d360208301846001600160a01b03169052565b6000806040838503121561589d57600080fd5b82356158a881615061565b9150602083013561542f81615061565b60208082526005908201526404282aaa8960db1b604082015260600190565b60208082526010908201526f14185d5cd8589b194e881c185d5cd95960821b604082015260600190565b634e487b7160e01b600052601160045260246000fd5b6000821982111561592a5761592a615901565b500190565b600181811c9082168061594357607f821691505b6020821081141561596457634e487b7160e01b600052602260045260246000fd5b50919050565b60208082526031908201527f4552433732313a207472616e736665722063616c6c6572206973206e6f74206f6040820152701ddb995c881b9bdc88185c1c1c9bdd9959607a1b606082015260800190565b6020808252818101527f4f776e61626c653a2063616c6c6572206973206e6f7420746865206f776e6572604082015260600190565b60208082526010908201526f21494e56414c4944287374617475732960801b604082015260600190565b602080825260099082015268214d494e5f5445524d60b81b604082015260600190565b600063ffffffff80831681851681830481118215151615615a6057615a60615901565b02949350505050565b600063ffffffff808316818516808303821115615a8857615a88615901565b01949350505050565b600082821015615aa357615aa3615901565b500390565b634e487b7160e01b600052603260045260246000fd5b6000600019821415615ad257615ad2615901565b5060010190565b66697066733a2f2f60c81b815260008251615afb816007850160208701614ff6565b9190910160070192915050565b60208082526013908201527221494e56414c494428706c616e50726f6f662960681b604082015260600190565b600060208284031215615b4757600080fd5b8151600381106112d357600080fd5b6020808252600e908201526d21554e50524f4345535341424c4560901b604082015260600190565b60208082526032908201527f4552433732313a207472616e7366657220746f206e6f6e20455243373231526560408201527131b2b4bb32b91034b6b83632b6b2b73a32b960711b606082015260800190565b6020808252602b908201527f496e697469616c697a61626c653a20636f6e7472616374206973206e6f74206960408201526a6e697469616c697a696e6760a81b606082015260800190565b60006020808385031215615c2e57600080fd5b82516001600160401b0380821115615c4557600080fd5b9084019060608287031215615c5957600080fd5b615c616151ff565b8251615c6c81615061565b81528284015184820152604083015182811115615c8857600080fd5b80840193505086601f840112615c9d57600080fd5b82519150615cad61529d83615257565b8281528785848601011115615cc157600080fd5b615cd083868301878701614ff6565b60408201529695505050505050565b60008085851115615cef57600080fd5b83861115615cfc57600080fd5b5050600583901b0193919092039150565b81835260006001600160fb1b03831115615d2657600080fd5b8260051b8083602087013760009401602001938452509192915050565b848152836020820152606060408201526000614062606083018486615d0d565b600060208284031215615d7557600080fd5b81516112d3816153b1565b6001600160a01b0386811682528516602082015263ffffffff84166040820152608060608201819052600090615db99083018486615d0d565b979650505050505050565b600060208284031215615dd657600080fd5b5051919050565b600063ffffffff83811690831681811015615dfa57615dfa615901565b039392505050565b600082615e1f57634e487b7160e01b600052601260045260246000fd5b500490565b6001600160a01b038581168252841660208201526040810183905260806060820181905260009061406290830184615022565b600060208284031215615e6957600080fd5b81516112d381614faa565b6000816000190483118215151615615e8e57615e8e615901565b50029056fea264697066735822122021a29e1aeca7f45673f69c96a3277f8212823b378b42d57beb5fa8f54f73a6e464736f6c63430008090033",
  "devdoc": {
    "kind": "dev",
    "methods": {
      "approve(address,uint256)": {
        "details": "See {IERC721-approve}."
      },
      "balanceOf(address)": {
        "details": "See {IERC721-balanceOf}."
      },
      "constructor": {
        "custom:oz-upgrades-unsafe-allow": "constructor"
      },
      "getApproved(uint256)": {
        "details": "See {IERC721-getApproved}."
      },
      "isApprovedForAll(address,address)": {
        "details": "See {IERC721-isApprovedForAll}."
      },
      "name()": {
        "details": "See {IERC721Metadata-name}."
      },
      "owner()": {
        "details": "Returns the address of the current owner."
      },
      "ownerOf(uint256)": {
        "details": "See {IERC721-ownerOf}."
      },
      "paused()": {
        "details": "Returns true if the contract is paused, and false otherwise."
      },
      "renounceOwnership()": {
        "details": "Leaves the contract without owner. It will not be possible to call `onlyOwner` functions anymore. Can only be called by the current owner. NOTE: Renouncing ownership will leave the contract without an owner, thereby removing any functionality that is only available to the owner."
      },
      "safeTransferFrom(address,address,uint256)": {
        "details": "See {IERC721-safeTransferFrom}."
      },
      "safeTransferFrom(address,address,uint256,bytes)": {
        "details": "See {IERC721-safeTransferFrom}."
      },
      "setApprovalForAll(address,bool)": {
        "details": "See {IERC721-setApprovalForAll}."
      },
      "supportsInterface(bytes4)": {
        "details": "See {IERC165-supportsInterface}."
      },
      "symbol()": {
        "details": "See {IERC721Metadata-symbol}."
      },
      "transferFrom(address,address,uint256)": {
        "details": "See {IERC721-transferFrom}."
      },
      "transferOwnership(address)": {
        "details": "Transfers ownership of the contract to a new account (`newOwner`). Can only be called by the current owner."
      }
    },
    "stateVariables": {
      "consumerSubscriptions": {
        "details": "Maps for consumer to list of subscriptions. "
      },
      "providerSubscriptions": {
        "details": "Maps for provider to list of subscriptions and plans. "
      },
      "subscriptionManager": {
        "details": "contract to manage subscription plan definitions. "
      },
      "subscriptionPlans": {
        "details": "contract to manage subscription plan definitions. "
      }
    },
    "version": 1
  },
  "userdoc": {
    "kind": "user",
    "methods": {
      "isTrustedForwarder(address)": {
        "notice": "return if the forwarder is trusted to forward relayed transactions to us. the forwarder is required to verify the sender's signature, and verify the call is not a replay."
      }
    },
    "version": 1
  },
  "storageLayout": {
    "storage": [
      {
        "astId": 327,
        "contract": "contracts/protocol/CaskSubscriptions.sol:CaskSubscriptions",
        "label": "_initialized",
        "offset": 0,
        "slot": "0",
        "type": "t_bool"
      },
      {
        "astId": 330,
        "contract": "contracts/protocol/CaskSubscriptions.sol:CaskSubscriptions",
        "label": "_initializing",
        "offset": 1,
        "slot": "0",
        "type": "t_bool"
      },
      {
        "astId": 2551,
        "contract": "contracts/protocol/CaskSubscriptions.sol:CaskSubscriptions",
        "label": "__gap",
        "offset": 0,
        "slot": "1",
        "type": "t_array(t_uint256)50_storage"
      },
      {
        "astId": 2800,
        "contract": "contracts/protocol/CaskSubscriptions.sol:CaskSubscriptions",
        "label": "__gap",
        "offset": 0,
        "slot": "51",
        "type": "t_array(t_uint256)50_storage"
      },
      {
        "astId": 72,
        "contract": "contracts/protocol/CaskSubscriptions.sol:CaskSubscriptions",
        "label": "_trustedForwarder",
        "offset": 0,
        "slot": "101",
        "type": "t_address"
      },
      {
        "astId": 1270,
        "contract": "contracts/protocol/CaskSubscriptions.sol:CaskSubscriptions",
        "label": "_name",
        "offset": 0,
        "slot": "102",
        "type": "t_string_storage"
      },
      {
        "astId": 1272,
        "contract": "contracts/protocol/CaskSubscriptions.sol:CaskSubscriptions",
        "label": "_symbol",
        "offset": 0,
        "slot": "103",
        "type": "t_string_storage"
      },
      {
        "astId": 1276,
        "contract": "contracts/protocol/CaskSubscriptions.sol:CaskSubscriptions",
        "label": "_owners",
        "offset": 0,
        "slot": "104",
        "type": "t_mapping(t_uint256,t_address)"
      },
      {
        "astId": 1280,
        "contract": "contracts/protocol/CaskSubscriptions.sol:CaskSubscriptions",
        "label": "_balances",
        "offset": 0,
        "slot": "105",
        "type": "t_mapping(t_address,t_uint256)"
      },
      {
        "astId": 1284,
        "contract": "contracts/protocol/CaskSubscriptions.sol:CaskSubscriptions",
        "label": "_tokenApprovals",
        "offset": 0,
        "slot": "106",
        "type": "t_mapping(t_uint256,t_address)"
      },
      {
        "astId": 1290,
        "contract": "contracts/protocol/CaskSubscriptions.sol:CaskSubscriptions",
        "label": "_operatorApprovals",
        "offset": 0,
        "slot": "107",
        "type": "t_mapping(t_address,t_mapping(t_address,t_bool))"
      },
      {
        "astId": 2101,
        "contract": "contracts/protocol/CaskSubscriptions.sol:CaskSubscriptions",
        "label": "__gap",
        "offset": 0,
        "slot": "108",
        "type": "t_array(t_uint256)44_storage"
      },
      {
        "astId": 205,
        "contract": "contracts/protocol/CaskSubscriptions.sol:CaskSubscriptions",
        "label": "_owner",
        "offset": 0,
        "slot": "152",
        "type": "t_address"
      },
      {
        "astId": 319,
        "contract": "contracts/protocol/CaskSubscriptions.sol:CaskSubscriptions",
        "label": "__gap",
        "offset": 0,
        "slot": "153",
        "type": "t_array(t_uint256)49_storage"
      },
      {
        "astId": 415,
        "contract": "contracts/protocol/CaskSubscriptions.sol:CaskSubscriptions",
        "label": "_paused",
        "offset": 0,
        "slot": "202",
        "type": "t_bool"
      },
      {
        "astId": 506,
        "contract": "contracts/protocol/CaskSubscriptions.sol:CaskSubscriptions",
        "label": "__gap",
        "offset": 0,
        "slot": "203",
        "type": "t_array(t_uint256)49_storage"
      },
      {
        "astId": 12756,
        "contract": "contracts/protocol/CaskSubscriptions.sol:CaskSubscriptions",
        "label": "subscriptionManager",
        "offset": 0,
        "slot": "252",
        "type": "t_contract(ICaskSubscriptionManager)8946"
      },
      {
        "astId": 12760,
        "contract": "contracts/protocol/CaskSubscriptions.sol:CaskSubscriptions",
        "label": "subscriptionPlans",
        "offset": 0,
        "slot": "253",
        "type": "t_contract(ICaskSubscriptionPlans)9129"
      },
      {
        "astId": 12766,
        "contract": "contracts/protocol/CaskSubscriptions.sol:CaskSubscriptions",
        "label": "consumerSubscriptions",
        "offset": 0,
        "slot": "254",
        "type": "t_mapping(t_address,t_array(t_uint256)dyn_storage)"
      },
      {
        "astId": 12771,
        "contract": "contracts/protocol/CaskSubscriptions.sol:CaskSubscriptions",
        "label": "subscriptions",
        "offset": 0,
        "slot": "255",
        "type": "t_mapping(t_uint256,t_struct(Subscription)9181_storage)"
      },
      {
        "astId": 12775,
        "contract": "contracts/protocol/CaskSubscriptions.sol:CaskSubscriptions",
        "label": "pendingPlanChanges",
        "offset": 0,
        "slot": "256",
        "type": "t_mapping(t_uint256,t_bytes32)"
      },
      {
        "astId": 12781,
        "contract": "contracts/protocol/CaskSubscriptions.sol:CaskSubscriptions",
        "label": "providerSubscriptions",
        "offset": 0,
        "slot": "257",
        "type": "t_mapping(t_address,t_array(t_uint256)dyn_storage)"
      },
      {
        "astId": 12785,
        "contract": "contracts/protocol/CaskSubscriptions.sol:CaskSubscriptions",
        "label": "providerActiveSubscriptionCount",
        "offset": 0,
        "slot": "258",
        "type": "t_mapping(t_address,t_uint256)"
      },
      {
        "astId": 12791,
        "contract": "contracts/protocol/CaskSubscriptions.sol:CaskSubscriptions",
        "label": "planActiveSubscriptionCount",
        "offset": 0,
        "slot": "259",
        "type": "t_mapping(t_address,t_mapping(t_uint32,t_uint256))"
      }
    ],
    "types": {
      "t_address": {
        "encoding": "inplace",
        "label": "address",
        "numberOfBytes": "20"
      },
      "t_array(t_uint256)44_storage": {
        "base": "t_uint256",
        "encoding": "inplace",
        "label": "uint256[44]",
        "numberOfBytes": "1408"
      },
      "t_array(t_uint256)49_storage": {
        "base": "t_uint256",
        "encoding": "inplace",
        "label": "uint256[49]",
        "numberOfBytes": "1568"
      },
      "t_array(t_uint256)50_storage": {
        "base": "t_uint256",
        "encoding": "inplace",
        "label": "uint256[50]",
        "numberOfBytes": "1600"
      },
      "t_array(t_uint256)dyn_storage": {
        "base": "t_uint256",
        "encoding": "dynamic_array",
        "label": "uint256[]",
        "numberOfBytes": "32"
      },
      "t_bool": {
        "encoding": "inplace",
        "label": "bool",
        "numberOfBytes": "1"
      },
      "t_bytes32": {
        "encoding": "inplace",
        "label": "bytes32",
        "numberOfBytes": "32"
      },
      "t_contract(ICaskSubscriptionManager)8946": {
        "encoding": "inplace",
        "label": "contract ICaskSubscriptionManager",
        "numberOfBytes": "20"
      },
      "t_contract(ICaskSubscriptionPlans)9129": {
        "encoding": "inplace",
        "label": "contract ICaskSubscriptionPlans",
        "numberOfBytes": "20"
      },
      "t_enum(SubscriptionStatus)9143": {
        "encoding": "inplace",
        "label": "enum ICaskSubscriptions.SubscriptionStatus",
        "numberOfBytes": "1"
      },
      "t_mapping(t_address,t_array(t_uint256)dyn_storage)": {
        "encoding": "mapping",
        "key": "t_address",
        "label": "mapping(address => uint256[])",
        "numberOfBytes": "32",
        "value": "t_array(t_uint256)dyn_storage"
      },
      "t_mapping(t_address,t_bool)": {
        "encoding": "mapping",
        "key": "t_address",
        "label": "mapping(address => bool)",
        "numberOfBytes": "32",
        "value": "t_bool"
      },
      "t_mapping(t_address,t_mapping(t_address,t_bool))": {
        "encoding": "mapping",
        "key": "t_address",
        "label": "mapping(address => mapping(address => bool))",
        "numberOfBytes": "32",
        "value": "t_mapping(t_address,t_bool)"
      },
      "t_mapping(t_address,t_mapping(t_uint32,t_uint256))": {
        "encoding": "mapping",
        "key": "t_address",
        "label": "mapping(address => mapping(uint32 => uint256))",
        "numberOfBytes": "32",
        "value": "t_mapping(t_uint32,t_uint256)"
      },
      "t_mapping(t_address,t_uint256)": {
        "encoding": "mapping",
        "key": "t_address",
        "label": "mapping(address => uint256)",
        "numberOfBytes": "32",
        "value": "t_uint256"
      },
      "t_mapping(t_uint256,t_address)": {
        "encoding": "mapping",
        "key": "t_uint256",
        "label": "mapping(uint256 => address)",
        "numberOfBytes": "32",
        "value": "t_address"
      },
      "t_mapping(t_uint256,t_bytes32)": {
        "encoding": "mapping",
        "key": "t_uint256",
        "label": "mapping(uint256 => bytes32)",
        "numberOfBytes": "32",
        "value": "t_bytes32"
      },
      "t_mapping(t_uint256,t_struct(Subscription)9181_storage)": {
        "encoding": "mapping",
        "key": "t_uint256",
        "label": "mapping(uint256 => struct ICaskSubscriptions.Subscription)",
        "numberOfBytes": "32",
        "value": "t_struct(Subscription)9181_storage"
      },
      "t_mapping(t_uint32,t_uint256)": {
        "encoding": "mapping",
        "key": "t_uint32",
        "label": "mapping(uint32 => uint256)",
        "numberOfBytes": "32",
        "value": "t_uint256"
      },
      "t_string_storage": {
        "encoding": "bytes",
        "label": "string",
        "numberOfBytes": "32"
      },
      "t_struct(Subscription)9181_storage": {
        "encoding": "inplace",
        "label": "struct ICaskSubscriptions.Subscription",
        "members": [
          {
            "astId": 9153,
            "contract": "contracts/protocol/CaskSubscriptions.sol:CaskSubscriptions",
            "label": "planData",
            "offset": 0,
            "slot": "0",
            "type": "t_bytes32"
          },
          {
            "astId": 9155,
            "contract": "contracts/protocol/CaskSubscriptions.sol:CaskSubscriptions",
            "label": "networkData",
            "offset": 0,
            "slot": "1",
            "type": "t_bytes32"
          },
          {
            "astId": 9157,
            "contract": "contracts/protocol/CaskSubscriptions.sol:CaskSubscriptions",
            "label": "discountId",
            "offset": 0,
            "slot": "2",
            "type": "t_bytes32"
          },
          {
            "astId": 9159,
            "contract": "contracts/protocol/CaskSubscriptions.sol:CaskSubscriptions",
            "label": "discountData",
            "offset": 0,
            "slot": "3",
            "type": "t_bytes32"
          },
          {
            "astId": 9161,
            "contract": "contracts/protocol/CaskSubscriptions.sol:CaskSubscriptions",
            "label": "ref",
            "offset": 0,
            "slot": "4",
            "type": "t_bytes32"
          },
          {
            "astId": 9163,
            "contract": "contracts/protocol/CaskSubscriptions.sol:CaskSubscriptions",
            "label": "provider",
            "offset": 0,
            "slot": "5",
            "type": "t_address"
          },
          {
            "astId": 9166,
            "contract": "contracts/protocol/CaskSubscriptions.sol:CaskSubscriptions",
            "label": "status",
            "offset": 20,
            "slot": "5",
            "type": "t_enum(SubscriptionStatus)9143"
          },
          {
            "astId": 9168,
            "contract": "contracts/protocol/CaskSubscriptions.sol:CaskSubscriptions",
            "label": "planId",
            "offset": 21,
            "slot": "5",
            "type": "t_uint32"
          },
          {
            "astId": 9170,
            "contract": "contracts/protocol/CaskSubscriptions.sol:CaskSubscriptions",
            "label": "createdAt",
            "offset": 25,
            "slot": "5",
            "type": "t_uint32"
          },
          {
            "astId": 9172,
            "contract": "contracts/protocol/CaskSubscriptions.sol:CaskSubscriptions",
            "label": "renewAt",
            "offset": 0,
            "slot": "6",
            "type": "t_uint32"
          },
          {
            "astId": 9174,
            "contract": "contracts/protocol/CaskSubscriptions.sol:CaskSubscriptions",
            "label": "minTermAt",
            "offset": 4,
            "slot": "6",
            "type": "t_uint32"
          },
          {
            "astId": 9176,
            "contract": "contracts/protocol/CaskSubscriptions.sol:CaskSubscriptions",
            "label": "cancelAt",
            "offset": 8,
            "slot": "6",
            "type": "t_uint32"
          },
          {
            "astId": 9178,
            "contract": "contracts/protocol/CaskSubscriptions.sol:CaskSubscriptions",
            "label": "cid",
            "offset": 0,
            "slot": "7",
            "type": "t_string_storage"
          },
          {
            "astId": 9180,
            "contract": "contracts/protocol/CaskSubscriptions.sol:CaskSubscriptions",
            "label": "dataCid",
            "offset": 0,
            "slot": "8",
            "type": "t_string_storage"
          }
        ],
        "numberOfBytes": "288"
      },
      "t_uint256": {
        "encoding": "inplace",
        "label": "uint256",
        "numberOfBytes": "32"
      },
      "t_uint32": {
        "encoding": "inplace",
        "label": "uint32",
        "numberOfBytes": "4"
      }
    }
  }
}