{
  "address": "0x443a801E6e3383ff7c456a082699246F3bb6C8D9",
  "abi": [
    {
      "inputs": [],
      "stateMutability": "nonpayable",
      "type": "constructor"
    },
    {
      "anonymous": false,
      "inputs": [
        {
          "indexed": true,
          "internalType": "address",
          "name": "owner",
          "type": "address"
        },
        {
          "indexed": true,
          "internalType": "address",
          "name": "approved",
          "type": "address"
        },
        {
          "indexed": true,
          "internalType": "uint256",
          "name": "tokenId",
          "type": "uint256"
        }
      ],
      "name": "Approval",
      "type": "event"
    },
    {
      "anonymous": false,
      "inputs": [
        {
          "indexed": true,
          "internalType": "address",
          "name": "owner",
          "type": "address"
        },
        {
          "indexed": true,
          "internalType": "address",
          "name": "operator",
          "type": "address"
        },
        {
          "indexed": false,
          "internalType": "bool",
          "name": "approved",
          "type": "bool"
        }
      ],
      "name": "ApprovalForAll",
      "type": "event"
    },
    {
      "anonymous": false,
      "inputs": [
        {
          "indexed": true,
          "internalType": "address",
          "name": "previousOwner",
          "type": "address"
        },
        {
          "indexed": true,
          "internalType": "address",
          "name": "newOwner",
          "type": "address"
        }
      ],
      "name": "OwnershipTransferred",
      "type": "event"
    },
    {
      "anonymous": false,
      "inputs": [
        {
          "indexed": false,
          "internalType": "address",
          "name": "account",
          "type": "address"
        }
      ],
      "name": "Paused",
      "type": "event"
    },
    {
      "anonymous": false,
      "inputs": [
        {
          "indexed": true,
          "internalType": "address",
          "name": "consumer",
          "type": "address"
        },
        {
          "indexed": true,
          "internalType": "address",
          "name": "provider",
          "type": "address"
        },
        {
          "indexed": true,
          "internalType": "uint256",
          "name": "subscriptionId",
          "type": "uint256"
        },
        {
          "indexed": false,
          "internalType": "bytes32",
          "name": "ref",
          "type": "bytes32"
        },
        {
          "indexed": false,
          "internalType": "uint32",
          "name": "planId",
          "type": "uint32"
        }
      ],
      "name": "SubscriptionCanceled",
      "type": "event"
    },
    {
      "anonymous": false,
      "inputs": [
        {
          "indexed": true,
          "internalType": "address",
          "name": "consumer",
          "type": "address"
        },
        {
          "indexed": true,
          "internalType": "address",
          "name": "provider",
          "type": "address"
        },
        {
          "indexed": true,
          "internalType": "uint256",
          "name": "subscriptionId",
          "type": "uint256"
        },
        {
          "indexed": false,
          "internalType": "bytes32",
          "name": "ref",
          "type": "bytes32"
        },
        {
          "indexed": false,
          "internalType": "uint32",
          "name": "planId",
          "type": "uint32"
        },
        {
          "indexed": false,
          "internalType": "bytes32",
          "name": "discountId",
          "type": "bytes32"
        }
      ],
      "name": "SubscriptionChangedDiscount",
      "type": "event"
    },
    {
      "anonymous": false,
      "inputs": [
        {
          "indexed": true,
          "internalType": "address",
          "name": "consumer",
          "type": "address"
        },
        {
          "indexed": true,
          "internalType": "address",
          "name": "provider",
          "type": "address"
        },
        {
          "indexed": true,
          "internalType": "uint256",
          "name": "subscriptionId",
          "type": "uint256"
        },
        {
          "indexed": false,
          "internalType": "bytes32",
          "name": "ref",
          "type": "bytes32"
        },
        {
          "indexed": false,
          "internalType": "uint32",
          "name": "prevPlanId",
          "type": "uint32"
        },
        {
          "indexed": false,
          "internalType": "uint32",
          "name": "planId",
          "type": "uint32"
        },
        {
          "indexed": false,
          "internalType": "bytes32",
          "name": "discountId",
          "type": "bytes32"
        }
      ],
      "name": "SubscriptionChangedPlan",
      "type": "event"
    },
    {
      "anonymous": false,
      "inputs": [
        {
          "indexed": true,
          "internalType": "address",
          "name": "consumer",
          "type": "address"
        },
        {
          "indexed": true,
          "internalType": "address",
          "name": "provider",
          "type": "address"
        },
        {
          "indexed": true,
          "internalType": "uint256",
          "name": "subscriptionId",
          "type": "uint256"
        },
        {
          "indexed": false,
          "internalType": "bytes32",
          "name": "ref",
          "type": "bytes32"
        },
        {
          "indexed": false,
          "internalType": "uint32",
          "name": "planId",
          "type": "uint32"
        },
        {
          "indexed": false,
          "internalType": "bytes32",
          "name": "discountId",
          "type": "bytes32"
        }
      ],
      "name": "SubscriptionCreated",
      "type": "event"
    },
    {
      "anonymous": false,
      "inputs": [
        {
          "indexed": true,
          "internalType": "address",
          "name": "consumer",
          "type": "address"
        },
        {
          "indexed": true,
          "internalType": "address",
          "name": "provider",
          "type": "address"
        },
        {
          "indexed": true,
          "internalType": "uint256",
          "name": "subscriptionId",
          "type": "uint256"
        },
        {
          "indexed": false,
          "internalType": "bytes32",
          "name": "ref",
          "type": "bytes32"
        },
        {
          "indexed": false,
          "internalType": "uint32",
          "name": "planId",
          "type": "uint32"
        }
      ],
      "name": "SubscriptionPastDue",
      "type": "event"
    },
    {
      "anonymous": false,
      "inputs": [
        {
          "indexed": true,
          "internalType": "address",
          "name": "consumer",
          "type": "address"
        },
        {
          "indexed": true,
          "internalType": "address",
          "name": "provider",
          "type": "address"
        },
        {
          "indexed": true,
          "internalType": "uint256",
          "name": "subscriptionId",
          "type": "uint256"
        },
        {
          "indexed": false,
          "internalType": "bytes32",
          "name": "ref",
          "type": "bytes32"
        },
        {
          "indexed": false,
          "internalType": "uint32",
          "name": "planId",
          "type": "uint32"
        }
      ],
      "name": "SubscriptionPaused",
      "type": "event"
    },
    {
      "anonymous": false,
      "inputs": [
        {
          "indexed": true,
          "internalType": "address",
          "name": "consumer",
          "type": "address"
        },
        {
          "indexed": true,
          "internalType": "address",
          "name": "provider",
          "type": "address"
        },
        {
          "indexed": true,
          "internalType": "uint256",
          "name": "subscriptionId",
          "type": "uint256"
        },
        {
          "indexed": false,
          "internalType": "bytes32",
          "name": "ref",
          "type": "bytes32"
        },
        {
          "indexed": false,
          "internalType": "uint32",
          "name": "planId",
          "type": "uint32"
        }
      ],
      "name": "SubscriptionPendingCancel",
      "type": "event"
    },
    {
      "anonymous": false,
      "inputs": [
        {
          "indexed": true,
          "internalType": "address",
          "name": "consumer",
          "type": "address"
        },
        {
          "indexed": true,
          "internalType": "address",
          "name": "provider",
          "type": "address"
        },
        {
          "indexed": true,
          "internalType": "uint256",
          "name": "subscriptionId",
          "type": "uint256"
        },
        {
          "indexed": false,
          "internalType": "bytes32",
          "name": "ref",
          "type": "bytes32"
        },
        {
          "indexed": false,
          "internalType": "uint32",
          "name": "prevPlanId",
          "type": "uint32"
        },
        {
          "indexed": false,
          "internalType": "uint32",
          "name": "planId",
          "type": "uint32"
        }
      ],
      "name": "SubscriptionPendingChangePlan",
      "type": "event"
    },
    {
      "anonymous": false,
      "inputs": [
        {
          "indexed": true,
          "internalType": "address",
          "name": "consumer",
          "type": "address"
        },
        {
          "indexed": true,
          "internalType": "address",
          "name": "provider",
          "type": "address"
        },
        {
          "indexed": true,
          "internalType": "uint256",
          "name": "subscriptionId",
          "type": "uint256"
        },
        {
          "indexed": false,
          "internalType": "bytes32",
          "name": "ref",
          "type": "bytes32"
        },
        {
          "indexed": false,
          "internalType": "uint32",
          "name": "planId",
          "type": "uint32"
        }
      ],
      "name": "SubscriptionRenewed",
      "type": "event"
    },
    {
      "anonymous": false,
      "inputs": [
        {
          "indexed": true,
          "internalType": "address",
          "name": "consumer",
          "type": "address"
        },
        {
          "indexed": true,
          "internalType": "address",
          "name": "provider",
          "type": "address"
        },
        {
          "indexed": true,
          "internalType": "uint256",
          "name": "subscriptionId",
          "type": "uint256"
        },
        {
          "indexed": false,
          "internalType": "bytes32",
          "name": "ref",
          "type": "bytes32"
        },
        {
          "indexed": false,
          "internalType": "uint32",
          "name": "planId",
          "type": "uint32"
        }
      ],
      "name": "SubscriptionResumed",
      "type": "event"
    },
    {
      "anonymous": false,
      "inputs": [
        {
          "indexed": true,
          "internalType": "address",
          "name": "consumer",
          "type": "address"
        },
        {
          "indexed": true,
          "internalType": "address",
          "name": "provider",
          "type": "address"
        },
        {
          "indexed": true,
          "internalType": "uint256",
          "name": "subscriptionId",
          "type": "uint256"
        },
        {
          "indexed": false,
          "internalType": "bytes32",
          "name": "ref",
          "type": "bytes32"
        },
        {
          "indexed": false,
          "internalType": "uint32",
          "name": "planId",
          "type": "uint32"
        }
      ],
      "name": "SubscriptionTrialEnded",
      "type": "event"
    },
    {
      "anonymous": false,
      "inputs": [
        {
          "indexed": true,
          "internalType": "address",
          "name": "from",
          "type": "address"
        },
        {
          "indexed": true,
          "internalType": "address",
          "name": "to",
          "type": "address"
        },
        {
          "indexed": true,
          "internalType": "uint256",
          "name": "tokenId",
          "type": "uint256"
        }
      ],
      "name": "Transfer",
      "type": "event"
    },
    {
      "anonymous": false,
      "inputs": [
        {
          "indexed": false,
          "internalType": "address",
          "name": "account",
          "type": "address"
        }
      ],
      "name": "Unpaused",
      "type": "event"
    },
    {
      "inputs": [
        {
          "internalType": "address",
          "name": "to",
          "type": "address"
        },
        {
          "internalType": "uint256",
          "name": "tokenId",
          "type": "uint256"
        }
      ],
      "name": "approve",
      "outputs": [],
      "stateMutability": "nonpayable",
      "type": "function"
    },
    {
      "inputs": [
        {
          "internalType": "address",
          "name": "owner",
          "type": "address"
        }
      ],
      "name": "balanceOf",
      "outputs": [
        {
          "internalType": "uint256",
          "name": "",
          "type": "uint256"
        }
      ],
      "stateMutability": "view",
      "type": "function"
    },
    {
      "inputs": [
        {
          "internalType": "uint256",
          "name": "_subscriptionId",
          "type": "uint256"
        }
      ],
      "name": "cancelSubscription",
      "outputs": [],
      "stateMutability": "nonpayable",
      "type": "function"
    },
    {
      "inputs": [
        {
          "internalType": "uint256",
          "name": "_subscriptionId",
          "type": "uint256"
        },
        {
          "internalType": "uint32",
          "name": "_cancelAt",
          "type": "uint32"
        }
      ],
      "name": "changeSubscriptionCancelAt",
      "outputs": [],
      "stateMutability": "nonpayable",
      "type": "function"
    },
    {
      "inputs": [
        {
          "internalType": "uint256",
          "name": "_subscriptionId",
          "type": "uint256"
        },
        {
          "internalType": "bytes32[]",
          "name": "_discountProof",
          "type": "bytes32[]"
        }
      ],
      "name": "changeSubscriptionDiscount",
      "outputs": [],
      "stateMutability": "nonpayable",
      "type": "function"
    },
    {
      "inputs": [
        {
          "internalType": "uint256",
          "name": "_subscriptionId",
          "type": "uint256"
        },
        {
          "internalType": "bytes32[]",
          "name": "_planProof",
          "type": "bytes32[]"
        },
        {
          "internalType": "bytes32[]",
          "name": "_discountProof",
          "type": "bytes32[]"
        },
        {
          "internalType": "bytes",
          "name": "_providerSignature",
          "type": "bytes"
        },
        {
          "internalType": "string",
          "name": "_cid",
          "type": "string"
        }
      ],
      "name": "changeSubscriptionPlan",
      "outputs": [],
      "stateMutability": "nonpayable",
      "type": "function"
    },
    {
      "inputs": [
        {
          "internalType": "bytes32[]",
          "name": "_planProof",
          "type": "bytes32[]"
        },
        {
          "internalType": "bytes32[]",
          "name": "_discountProof",
          "type": "bytes32[]"
        },
        {
          "internalType": "bytes32",
          "name": "_networkData",
          "type": "bytes32"
        },
        {
          "internalType": "uint32",
          "name": "_cancelAt",
          "type": "uint32"
        },
        {
          "internalType": "bytes",
          "name": "_providerSignature",
          "type": "bytes"
        },
        {
          "internalType": "bytes",
          "name": "_networkSignature",
          "type": "bytes"
        },
        {
          "internalType": "string",
          "name": "_cid",
          "type": "string"
        }
      ],
      "name": "createNetworkSubscription",
      "outputs": [],
      "stateMutability": "nonpayable",
      "type": "function"
    },
    {
      "inputs": [
        {
          "internalType": "bytes32[]",
          "name": "_planProof",
          "type": "bytes32[]"
        },
        {
          "internalType": "bytes32[]",
          "name": "_discountProof",
          "type": "bytes32[]"
        },
        {
          "internalType": "uint32",
          "name": "_cancelAt",
          "type": "uint32"
        },
        {
          "internalType": "bytes",
          "name": "_providerSignature",
          "type": "bytes"
        },
        {
          "internalType": "string",
          "name": "_cid",
          "type": "string"
        }
      ],
      "name": "createSubscription",
      "outputs": [],
      "stateMutability": "nonpayable",
      "type": "function"
    },
    {
      "inputs": [],
      "name": "gasRefundLimitCancelSubscription",
      "outputs": [
        {
          "internalType": "uint256",
          "name": "",
          "type": "uint256"
        }
      ],
      "stateMutability": "view",
      "type": "function"
    },
    {
      "inputs": [],
      "name": "gasRefundLimitChangeSubscription",
      "outputs": [
        {
          "internalType": "uint256",
          "name": "",
          "type": "uint256"
        }
      ],
      "stateMutability": "view",
      "type": "function"
    },
    {
      "inputs": [],
      "name": "gasRefundLimitCreateSubscription",
      "outputs": [
        {
          "internalType": "uint256",
          "name": "",
          "type": "uint256"
        }
      ],
      "stateMutability": "view",
      "type": "function"
    },
    {
      "inputs": [],
      "name": "gasRefundLimitOther",
      "outputs": [
        {
          "internalType": "uint256",
          "name": "",
          "type": "uint256"
        }
      ],
      "stateMutability": "view",
      "type": "function"
    },
    {
      "inputs": [],
      "name": "getAllSubscriptions",
      "outputs": [
        {
          "internalType": "uint256[]",
          "name": "",
          "type": "uint256[]"
        }
      ],
      "stateMutability": "view",
      "type": "function"
    },
    {
      "inputs": [],
      "name": "getAllSubscriptionsCount",
      "outputs": [
        {
          "internalType": "uint256",
          "name": "",
          "type": "uint256"
        }
      ],
      "stateMutability": "view",
      "type": "function"
    },
    {
      "inputs": [
        {
          "internalType": "uint256",
          "name": "tokenId",
          "type": "uint256"
        }
      ],
      "name": "getApproved",
      "outputs": [
        {
          "internalType": "address",
          "name": "",
          "type": "address"
        }
      ],
      "stateMutability": "view",
      "type": "function"
    },
    {
      "inputs": [
        {
          "internalType": "address",
          "name": "_consumer",
          "type": "address"
        }
      ],
      "name": "getConsumerSubscriptionCount",
      "outputs": [
        {
          "internalType": "uint256",
          "name": "",
          "type": "uint256"
        }
      ],
      "stateMutability": "view",
      "type": "function"
    },
    {
      "inputs": [
        {
          "internalType": "address",
          "name": "_consumer",
          "type": "address"
        },
        {
          "internalType": "uint256",
          "name": "limit",
          "type": "uint256"
        },
        {
          "internalType": "uint256",
          "name": "offset",
          "type": "uint256"
        }
      ],
      "name": "getConsumerSubscriptions",
      "outputs": [
        {
          "internalType": "uint256[]",
          "name": "",
          "type": "uint256[]"
        }
      ],
      "stateMutability": "view",
      "type": "function"
    },
    {
      "inputs": [
        {
          "internalType": "uint256",
          "name": "_subscriptionId",
          "type": "uint256"
        }
      ],
      "name": "getPendingPlanChange",
      "outputs": [
        {
          "internalType": "bytes32",
          "name": "",
          "type": "bytes32"
        }
      ],
      "stateMutability": "view",
      "type": "function"
    },
    {
      "inputs": [
        {
          "internalType": "address",
          "name": "_provider",
          "type": "address"
        }
      ],
      "name": "getProviderActiveSubscriptionCount",
      "outputs": [
        {
          "internalType": "uint256",
          "name": "",
          "type": "uint256"
        }
      ],
      "stateMutability": "view",
      "type": "function"
    },
    {
      "inputs": [
        {
          "internalType": "address",
          "name": "_provider",
          "type": "address"
        },
        {
          "internalType": "uint32",
          "name": "_planId",
          "type": "uint32"
        }
      ],
      "name": "getProviderPlanActiveSubscriptionCount",
      "outputs": [
        {
          "internalType": "uint256",
          "name": "",
          "type": "uint256"
        }
      ],
      "stateMutability": "view",
      "type": "function"
    },
    {
      "inputs": [
        {
          "internalType": "address",
          "name": "_provider",
          "type": "address"
        }
      ],
      "name": "getProviderSubscriptionCount",
      "outputs": [
        {
          "internalType": "uint256",
          "name": "",
          "type": "uint256"
        }
      ],
      "stateMutability": "view",
      "type": "function"
    },
    {
      "inputs": [
        {
          "internalType": "address",
          "name": "_provider",
          "type": "address"
        },
        {
          "internalType": "uint256",
          "name": "limit",
          "type": "uint256"
        },
        {
          "internalType": "uint256",
          "name": "offset",
          "type": "uint256"
        }
      ],
      "name": "getProviderSubscriptions",
      "outputs": [
        {
          "internalType": "uint256[]",
          "name": "",
          "type": "uint256[]"
        }
      ],
      "stateMutability": "view",
      "type": "function"
    },
    {
      "inputs": [
        {
          "internalType": "uint256",
          "name": "_subscriptionId",
          "type": "uint256"
        }
      ],
      "name": "getSubscription",
      "outputs": [
        {
          "components": [
            {
              "internalType": "bytes32",
              "name": "planData",
              "type": "bytes32"
            },
            {
              "internalType": "bytes32",
              "name": "networkData",
              "type": "bytes32"
            },
            {
              "internalType": "bytes32",
              "name": "discountId",
              "type": "bytes32"
            },
            {
              "internalType": "bytes32",
              "name": "discountData",
              "type": "bytes32"
            },
            {
              "internalType": "bytes32",
              "name": "ref",
              "type": "bytes32"
            },
            {
              "internalType": "address",
              "name": "provider",
              "type": "address"
            },
            {
              "internalType": "enum ICaskSubscriptions.SubscriptionStatus",
              "name": "status",
              "type": "uint8"
            },
            {
              "internalType": "uint32",
              "name": "planId",
              "type": "uint32"
            },
            {
              "internalType": "uint32",
              "name": "createdAt",
              "type": "uint32"
            },
            {
              "internalType": "uint32",
              "name": "renewAt",
              "type": "uint32"
            },
            {
              "internalType": "uint32",
              "name": "minTermAt",
              "type": "uint32"
            },
            {
              "internalType": "uint32",
              "name": "cancelAt",
              "type": "uint32"
            },
            {
              "internalType": "string",
              "name": "cid",
              "type": "string"
            }
          ],
          "internalType": "struct ICaskSubscriptions.Subscription",
          "name": "",
          "type": "tuple"
        }
      ],
      "stateMutability": "view",
      "type": "function"
    },
    {
      "inputs": [
        {
          "internalType": "address",
          "name": "_subscriptionPlans",
          "type": "address"
        }
      ],
      "name": "initialize",
      "outputs": [],
      "stateMutability": "nonpayable",
      "type": "function"
    },
    {
      "inputs": [
        {
          "internalType": "address",
          "name": "owner",
          "type": "address"
        },
        {
          "internalType": "address",
          "name": "operator",
          "type": "address"
        }
      ],
      "name": "isApprovedForAll",
      "outputs": [
        {
          "internalType": "bool",
          "name": "",
          "type": "bool"
        }
      ],
      "stateMutability": "view",
      "type": "function"
    },
    {
      "inputs": [
        {
          "internalType": "uint256",
          "name": "_subscriptionId",
          "type": "uint256"
        }
      ],
      "name": "managerCancelSubscription",
      "outputs": [],
      "stateMutability": "nonpayable",
      "type": "function"
    },
    {
      "inputs": [
        {
          "internalType": "uint256",
          "name": "_subscriptionId",
          "type": "uint256"
        }
      ],
      "name": "managerClearDiscount",
      "outputs": [],
      "stateMutability": "nonpayable",
      "type": "function"
    },
    {
      "inputs": [
        {
          "internalType": "uint256",
          "name": "_subscriptionId",
          "type": "uint256"
        }
      ],
      "name": "managerPastDueSubscription",
      "outputs": [],
      "stateMutability": "nonpayable",
      "type": "function"
    },
    {
      "inputs": [
        {
          "internalType": "uint256",
          "name": "_subscriptionId",
          "type": "uint256"
        }
      ],
      "name": "managerPlanChange",
      "outputs": [],
      "stateMutability": "nonpayable",
      "type": "function"
    },
    {
      "inputs": [
        {
          "internalType": "uint256",
          "name": "_subscriptionId",
          "type": "uint256"
        }
      ],
      "name": "managerRenewSubscription",
      "outputs": [],
      "stateMutability": "nonpayable",
      "type": "function"
    },
    {
      "inputs": [],
      "name": "name",
      "outputs": [
        {
          "internalType": "string",
          "name": "",
          "type": "string"
        }
      ],
      "stateMutability": "view",
      "type": "function"
    },
    {
      "inputs": [],
      "name": "owner",
      "outputs": [
        {
          "internalType": "address",
          "name": "",
          "type": "address"
        }
      ],
      "stateMutability": "view",
      "type": "function"
    },
    {
      "inputs": [
        {
          "internalType": "uint256",
          "name": "tokenId",
          "type": "uint256"
        }
      ],
      "name": "ownerOf",
      "outputs": [
        {
          "internalType": "address",
          "name": "",
          "type": "address"
        }
      ],
      "stateMutability": "view",
      "type": "function"
    },
    {
      "inputs": [],
      "name": "pause",
      "outputs": [],
      "stateMutability": "nonpayable",
      "type": "function"
    },
    {
      "inputs": [
        {
          "internalType": "uint256",
          "name": "_subscriptionId",
          "type": "uint256"
        }
      ],
      "name": "pauseSubscription",
      "outputs": [],
      "stateMutability": "nonpayable",
      "type": "function"
    },
    {
      "inputs": [],
      "name": "paused",
      "outputs": [
        {
          "internalType": "bool",
          "name": "",
          "type": "bool"
        }
      ],
      "stateMutability": "view",
      "type": "function"
    },
    {
      "inputs": [],
      "name": "renounceOwnership",
      "outputs": [],
      "stateMutability": "nonpayable",
      "type": "function"
    },
    {
      "inputs": [
        {
          "internalType": "uint256",
          "name": "_subscriptionId",
          "type": "uint256"
        }
      ],
      "name": "resumeSubscription",
      "outputs": [],
      "stateMutability": "nonpayable",
      "type": "function"
    },
    {
      "inputs": [
        {
          "internalType": "address",
          "name": "from",
          "type": "address"
        },
        {
          "internalType": "address",
          "name": "to",
          "type": "address"
        },
        {
          "internalType": "uint256",
          "name": "tokenId",
          "type": "uint256"
        }
      ],
      "name": "safeTransferFrom",
      "outputs": [],
      "stateMutability": "nonpayable",
      "type": "function"
    },
    {
      "inputs": [
        {
          "internalType": "address",
          "name": "from",
          "type": "address"
        },
        {
          "internalType": "address",
          "name": "to",
          "type": "address"
        },
        {
          "internalType": "uint256",
          "name": "tokenId",
          "type": "uint256"
        },
        {
          "internalType": "bytes",
          "name": "_data",
          "type": "bytes"
        }
      ],
      "name": "safeTransferFrom",
      "outputs": [],
      "stateMutability": "nonpayable",
      "type": "function"
    },
    {
      "inputs": [
        {
          "internalType": "address",
          "name": "operator",
          "type": "address"
        },
        {
          "internalType": "bool",
          "name": "approved",
          "type": "bool"
        }
      ],
      "name": "setApprovalForAll",
      "outputs": [],
      "stateMutability": "nonpayable",
      "type": "function"
    },
    {
      "inputs": [
        {
          "internalType": "address",
          "name": "_subscriptionManager",
          "type": "address"
        }
      ],
      "name": "setManager",
      "outputs": [],
      "stateMutability": "nonpayable",
      "type": "function"
    },
    {
      "inputs": [
        {
          "internalType": "uint256",
          "name": "_gasRefundLimitCreateSubscription",
          "type": "uint256"
        },
        {
          "internalType": "uint256",
          "name": "_gasRefundLimitChangeSubscription",
          "type": "uint256"
        },
        {
          "internalType": "uint256",
          "name": "_gasRefundLimitCancelSubscription",
          "type": "uint256"
        },
        {
          "internalType": "uint256",
          "name": "_gasRefundLimitOther",
          "type": "uint256"
        }
      ],
      "name": "setParameters",
      "outputs": [],
      "stateMutability": "nonpayable",
      "type": "function"
    },
    {
      "inputs": [],
      "name": "subscriptionManager",
      "outputs": [
        {
          "internalType": "contract ICaskSubscriptionManager",
          "name": "",
          "type": "address"
        }
      ],
      "stateMutability": "view",
      "type": "function"
    },
    {
      "inputs": [],
      "name": "subscriptionPlans",
      "outputs": [
        {
          "internalType": "contract ICaskSubscriptionPlans",
          "name": "",
          "type": "address"
        }
      ],
      "stateMutability": "view",
      "type": "function"
    },
    {
      "inputs": [
        {
          "internalType": "bytes4",
          "name": "interfaceId",
          "type": "bytes4"
        }
      ],
      "name": "supportsInterface",
      "outputs": [
        {
          "internalType": "bool",
          "name": "",
          "type": "bool"
        }
      ],
      "stateMutability": "view",
      "type": "function"
    },
    {
      "inputs": [],
      "name": "symbol",
      "outputs": [
        {
          "internalType": "string",
          "name": "",
          "type": "string"
        }
      ],
      "stateMutability": "view",
      "type": "function"
    },
    {
      "inputs": [
        {
          "internalType": "uint256",
          "name": "_subscriptionId",
          "type": "uint256"
        }
      ],
      "name": "tokenURI",
      "outputs": [
        {
          "internalType": "string",
          "name": "",
          "type": "string"
        }
      ],
      "stateMutability": "view",
      "type": "function"
    },
    {
      "inputs": [
        {
          "internalType": "address",
          "name": "from",
          "type": "address"
        },
        {
          "internalType": "address",
          "name": "to",
          "type": "address"
        },
        {
          "internalType": "uint256",
          "name": "tokenId",
          "type": "uint256"
        }
      ],
      "name": "transferFrom",
      "outputs": [],
      "stateMutability": "nonpayable",
      "type": "function"
    },
    {
      "inputs": [
        {
          "internalType": "address",
          "name": "newOwner",
          "type": "address"
        }
      ],
      "name": "transferOwnership",
      "outputs": [],
      "stateMutability": "nonpayable",
      "type": "function"
    },
    {
      "inputs": [],
      "name": "unpause",
      "outputs": [],
      "stateMutability": "nonpayable",
      "type": "function"
    }
  ],
  "transactionHash": "0xe035f673cd9f7fbe58cbc754f3c8c891a35c7cef5e67fdbd5d83f06ea3d4987e",
  "args": [],
  "solcInputHash": "872f962c3f8fbc5ed0805e7318b51c15",
  "bytecode": "0x60806040523480156200001157600080fd5b50600054610100900460ff166200002f5760005460ff161562000039565b62000039620000de565b620000a15760405162461bcd60e51b815260206004820152602e60248201527f496e697469616c697a61626c653a20636f6e747261637420697320616c72656160448201526d191e481a5b9a5d1a585b1a5e995960921b606482015260840160405180910390fd5b600054610100900460ff16158015620000c4576000805461ffff19166101011790555b8015620000d7576000805461ff00191690555b5062000102565b6000620000f630620000fc60201b620028811760201c565b15905090565b3b151590565b61594b80620001126000396000f3fe608060405234801561001057600080fd5b50600436106102f15760003560e01c80638e814f111161019d578063c7a687bf116100e9578063e985e9c5116100a2578063f2fde38b1161007c578063f2fde38b14610708578063f6189f0e1461071b578063fb288e151461072e578063fcd9da441461073757600080fd5b8063e985e9c514610699578063ef5e668d146106d5578063f268f53e146106de57600080fd5b8063c7a687bf146105f5578063c86e69541461061f578063c87b56dd14610640578063d0ebdbe714610653578063dbb4520b14610666578063dc311dd31461067957600080fd5b8063a746df7011610156578063ba4bf1b611610130578063ba4bf1b6146105a9578063bf158fd2146105bc578063c0159f6f146105cf578063c4d66de8146105e257600080fd5b8063a746df7014610570578063ab5f8b7c14610583578063b88d4fde1461059657600080fd5b80638e814f11146104dd5780638fe17b16146104f05780639377877d1461050357806395d89b4114610542578063a0936cb11461054a578063a22cb4651461055d57600080fd5b8063406907071161025c5780636352211e11610215578063715018a6116101ef578063715018a6146104a95780638456cb59146104b157806385e25ad4146104b95780638da5cb5b146104cc57600080fd5b80636352211e146104705780636c4f70df1461048357806370a082311461049657600080fd5b8063406907071461040e57806341f23f0a1461042157806342842e0e1461043457806343e6a6ee1461044757806356eb00a1146104505780635c975abb1461046557600080fd5b806313406f6f116102ae57806313406f6f1461039957806316020d21146103ac57806321235083146103b657806323b872dd146103c9578063291b9a3f146103dc5780633f4ba83a1461040657600080fd5b806301ffc9a7146102f6578063023a584e1461031e57806306fdde0314610333578063081812fc1461034857806308e7250314610373578063095ea7b314610386575b600080fd5b610309610304366004614c2f565b61074a565b60405190151581526020015b60405180910390f35b61033161032c366004614c4c565b61079c565b005b61033b610a84565b6040516103159190614cbd565b61035b610356366004614c4c565b610b16565b6040516001600160a01b039091168152602001610315565b610101545b604051908152602001610315565b610331610394366004614cec565b610bab565b6103316103a7366004614e54565b610cc1565b6103786101005481565b6103316103c4366004614c4c565b610d99565b6103316103d7366004614f57565b610fe0565b6103786103ea366004614f93565b6001600160a01b03166000908152610102602052604090205490565b610331611011565b61033161041c366004614c4c565b611045565b61033161042f366004614c4c565b611224565b610331610442366004614f57565b6114f0565b61037860fd5481565b61045861150b565b6040516103159190614fae565b60c95460ff16610309565b61035b61047e366004614c4c565b611563565b610331610491366004614c4c565b6115da565b6103786104a4366004614f93565b6116c1565b610331611748565b61033161177c565b6103316104c7366004614ff2565b6117ae565b6097546001600160a01b031661035b565b6103316104eb366004614c4c565b6118cd565b60fc5461035b906001600160a01b031681565b61037861051136600461501e565b6001600160a01b03821660009081526101076020908152604080832063ffffffff8516845290915290205492915050565b61033b611a9c565b610331610558366004614c4c565b611aab565b61033161056b366004615056565b611b0d565b61033161057e36600461508d565b611b1c565b610458610591366004615155565b611c03565b6103316105a4366004615188565b611ccd565b6103316105b73660046151f0565b611d05565b60fb5461035b906001600160a01b031681565b6103316105dd36600461523c565b611f21565b6103316105f0366004614f93565b611fce565b610378610603366004614f93565b6001600160a01b03166000908152610106602052604090205490565b61037861062d366004614c4c565b6000908152610104602052604090205490565b61033b61064e366004614c4c565b61211b565b610331610661366004614f93565b612341565b610331610674366004614c4c565b61238d565b61068c610687366004614c4c565b6124f8565b6040516103159190615303565b6103096106a73660046153fd565b6001600160a01b039182166000908152606a6020908152604080832093909416825291909152205460ff1690565b61037860ff5481565b6103786106ec366004614f93565b6001600160a01b03166000908152610105602052604090205490565b610331610716366004614f93565b6126e6565b610458610729366004615155565b612781565b61037860fe5481565b610331610745366004615427565b612842565b60006001600160e01b031982166380ac58cd60e01b148061077b57506001600160e01b03198216635b5e139f60e01b145b8061079657506301ffc9a760e01b6001600160e01b03198316145b92915050565b806107a681611563565b6001600160a01b0316336001600160a01b0316146107df5760405162461bcd60e51b81526004016107d690615459565b60405180910390fd5b60c95460ff16156108025760405162461bcd60e51b81526004016107d690615478565b60005a60008481526101036020526040902090915060036005820154600160a01b900460ff166006811115610839576108396152cb565b146108745760405162461bcd60e51b815260206004820152600b60248201526a085393d517d4105554d15160aa1b60448201526064016107d6565b60006108838260000154612887565b9050806080015163ffffffff16600014806108d65750608081015160058301546001600160a01b03166000908152610107602090815260408083208286015163ffffffff90811685529252909120549116115b6109105760405162461bcd60e51b815260206004820152600b60248201526a214d41585f41435449564560a81b60448201526064016107d6565b60058201805460ff60a01b198116600160a11b17918290556001600160a01b0316600090815261010760209081526040808320600160a81b90940463ffffffff16835292905290812080546001929061096a9084906154b8565b9091555050600682015463ffffffff4281169116101561099c5760068201805463ffffffff19164263ffffffff161790555b600582015485906001600160a01b03166109b582611563565b6004850154600586015460408051928352600160a81b90910463ffffffff1660208301526001600160a01b0392909216917f7ee0fc3eab7021686f891346ebbf5bab192d6f9995fcc66021f4551888dc148191015b60405180910390a460fb5461010054604051632fe329ff60e21b81526004810186905260248101919091526001600160a01b039091169063bf8ca7fc906044015b600060405180830381600087803b158015610a6557600080fd5b505af1158015610a79573d6000803e3d6000fd5b505050505050505050565b606060658054610a93906154d0565b80601f0160208091040260200160405190810160405280929190818152602001828054610abf906154d0565b8015610b0c5780601f10610ae157610100808354040283529160200191610b0c565b820191906000526020600020905b815481529060010190602001808311610aef57829003601f168201915b5050505050905090565b6000818152606760205260408120546001600160a01b0316610b8f5760405162461bcd60e51b815260206004820152602c60248201527f4552433732313a20617070726f76656420717565727920666f72206e6f6e657860448201526b34b9ba32b73a103a37b5b2b760a11b60648201526084016107d6565b506000908152606960205260409020546001600160a01b031690565b6000610bb682611563565b9050806001600160a01b0316836001600160a01b03161415610c245760405162461bcd60e51b815260206004820152602160248201527f4552433732313a20617070726f76616c20746f2063757272656e74206f776e656044820152603960f91b60648201526084016107d6565b336001600160a01b0382161480610c405750610c4081336106a7565b610cb25760405162461bcd60e51b815260206004820152603860248201527f4552433732313a20617070726f76652063616c6c6572206973206e6f74206f7760448201527f6e6572206e6f7220617070726f76656420666f7220616c6c000000000000000060648201526084016107d6565b610cbc838361294c565b505050565b60c95460ff1615610ce45760405162461bcd60e51b81526004016107d690615478565b60005a90506000610cfb8c8c8c8c8b8b8a8a6129ba565b9050610d0788866130d6565b506000818152610103602052604090819020600181018a905560fb5460fd549251632fe329ff60e21b815260048101869052602481019390935290916001600160a01b039091169063bf8ca7fc90604401600060405180830381600087803b158015610d7257600080fd5b505af1158015610d86573d6000803e3d6000fd5b5050505050505050505050505050505050565b80610da381611563565b6001600160a01b0316336001600160a01b03161480610ddc5750600081815261010360205260409020600501546001600160a01b031633145b610df85760405162461bcd60e51b81526004016107d690615459565b60c95460ff1615610e1b5760405162461bcd60e51b81526004016107d690615478565b60005a600084815261010360205260409020909150600580820154600160a01b900460ff166006811115610e5157610e516152cb565b14158015610e7f575060046005820154600160a01b900460ff166006811115610e7c57610e7c6152cb565b14155b610e9b5760405162461bcd60e51b81526004016107d69061550b565b6006810154600160201b900463ffffffff161580610ece5750600681015463ffffffff600160201b909104811642909116115b610eea5760405162461bcd60e51b81526004016107d690615535565b600581018054600560a01b60ff60a01b1982161790915584906001600160a01b0316610f1582611563565b6004840154600585015460408051928352600160a81b90910463ffffffff1660208301526001600160a01b0392909216917f83217e17a62745245734031007583a7faee757904c6d101fc0003df8e0b541d4910160405180910390a460fb5460ff54604051632fe329ff60e21b81526004810185905260248101919091526001600160a01b039091169063bf8ca7fc90604401600060405180830381600087803b158015610fc257600080fd5b505af1158015610fd6573d6000803e3d6000fd5b5050505050505050565b610fea33826131fc565b6110065760405162461bcd60e51b81526004016107d690615558565b610cbc8383836132f3565b6097546001600160a01b0316331461103b5760405162461bcd60e51b81526004016107d6906155a9565b61104361349e565b565b60fb546001600160a01b0316331461106f5760405162461bcd60e51b81526004016107d690615459565b60c95460ff16156110925760405162461bcd60e51b81526004016107d690615478565b60008181526101046020526040902054806110e25760405162461bcd60e51b815260206004820152601060248201526f21494e56414c494428706c616e49642960801b60448201526064016107d6565b600082815261010360205260408120906110fb83612887565b600583015490915084906001600160a01b031661111782611563565b6004850154600586015460208087015160028901546040805195865263ffffffff600160a81b90950485169386019390935292169083015260608201526001600160a01b0391909116907fe17e61be0a4aac2f0b6fece72cedc2ab9ca554634d5af864a9282095206a0c2b9060800160405180910390a4602081015160058301805463ffffffff909216600160a81b0263ffffffff60a81b1990921691909117905582825560a081015161ffff161561120f578060a0015161ffff1681604001516111e291906155de565b6111ec904261560a565b8260060160046101000a81548163ffffffff021916908363ffffffff1602179055505b50505060009081526101046020526040812055565b8061122e81611563565b6001600160a01b0316336001600160a01b031614806112675750600081815261010360205260409020600501546001600160a01b031633145b6112835760405162461bcd60e51b81526004016107d690615459565b60c95460ff16156112a65760405162461bcd60e51b81526004016107d690615478565b60005a60008481526101036020526040902090915060036005820154600160a01b900460ff1660068111156112dd576112dd6152cb565b1415801561130b575060066005820154600160a01b900460ff166006811115611308576113086152cb565b14155b8015611337575060046005820154600160a01b900460ff166006811115611334576113346152cb565b14155b80156113625750600580820154600160a01b900460ff16600681111561135f5761135f6152cb565b14155b61137e5760405162461bcd60e51b81526004016107d69061550b565b6006810154600160201b900463ffffffff1615806113b15750600681015463ffffffff600160201b909104811642909116115b6113cd5760405162461bcd60e51b81526004016107d690615535565b60006113dc8260000154612887565b90508060c0015161141f5760405162461bcd60e51b815260206004820152600d60248201526c214e4f545f5041555341424c4560981b60448201526064016107d6565b60058201805460ff60a01b198116600360a01b17918290556001600160a01b0316600090815261010760209081526040808320600160a81b90940463ffffffff168352929052908120805460019290611479908490615632565b9091555050600582015485906001600160a01b031661149782611563565b6004850154600586015460408051928352600160a81b90910463ffffffff1660208301526001600160a01b0392909216917f7afd3b59e582bb56b590409b808e910ae787056cb10b682b9bdefa44c8eb940d9101610a0a565b610cbc83838360405180602001604052806000815250611ccd565b6060610101805480602002602001604051908101604052809291908181526020018280548015610b0c57602002820191906000526020600020905b815481526020019060010190808311611546575050505050905090565b6000818152606760205260408120546001600160a01b0316806107965760405162461bcd60e51b815260206004820152602960248201527f4552433732313a206f776e657220717565727920666f72206e6f6e657869737460448201526832b73a103a37b5b2b760b91b60648201526084016107d6565b60fb546001600160a01b031633146116045760405162461bcd60e51b81526004016107d690615459565b60c95460ff16156116275760405162461bcd60e51b81526004016107d690615478565b600081815261010360205260409020600581018054600360a11b60ff60a01b1982161790915582906001600160a01b031661166182611563565b6004840154600585015460408051928352600160a81b90910463ffffffff1660208301526001600160a01b0392909216917f44abb4f4529fdbcacc1ee98eef9318eaf9a12044d6925a2dc2c702959d9352f1910160405180910390a45050565b60006001600160a01b03821661172c5760405162461bcd60e51b815260206004820152602a60248201527f4552433732313a2062616c616e636520717565727920666f7220746865207a65604482015269726f206164647265737360b01b60648201526084016107d6565b506001600160a01b031660009081526068602052604090205490565b6097546001600160a01b031633146117725760405162461bcd60e51b81526004016107d6906155a9565b6110436000613531565b6097546001600160a01b031633146117a65760405162461bcd60e51b81526004016107d6906155a9565b611043613583565b816117b881611563565b6001600160a01b0316336001600160a01b0316146117e85760405162461bcd60e51b81526004016107d690615459565b60c95460ff161561180b5760405162461bcd60e51b81526004016107d690615478565b60005a600085815261010360205260409020600681015491925090600160201b900463ffffffff1615806118545750600681015463ffffffff600160201b909104811690851610155b6118705760405162461bcd60e51b81526004016107d690615535565b60068101805463ffffffff60401b1916600160401b63ffffffff87160217905560fb5461010054604051632fe329ff60e21b81526004810185905260248101919091526001600160a01b039091169063bf8ca7fc90604401610a4b565b60fb546001600160a01b031633146118f75760405162461bcd60e51b81526004016107d690615459565b60c95460ff161561191a5760405162461bcd60e51b81526004016107d690615478565b600081815261010360205260408120805490919061193790612887565b905060016005830154600160a01b900460ff16600681111561195b5761195b6152cb565b14156119d757600582015483906001600160a01b031661197a82611563565b6004850154600586015460408051928352600160a81b90910463ffffffff1660208301526001600160a01b0392909216917ff42e506093cb49dad3d3349cf7a2b390140be665daecb2c820e903afd12b1df7910160405180910390a45b60058201805460ff60a01b1916600160a11b17905560408101516006830154611a06919063ffffffff1661560a565b60068301805463ffffffff191663ffffffff92909216919091179055600582015483906001600160a01b0316611a3b82611563565b6004850154600586015460408051928352600160a81b90910463ffffffff1660208301526001600160a01b0392909216917fcdd2eee203a384f2c6e81f39021f7e3ebef3a21ccd0d0f6dd117387ab61b6b54910160405180910390a4505050565b606060668054610a93906154d0565b60fb546001600160a01b03163314611ad55760405162461bcd60e51b81526004016107d690615459565b60c95460ff1615611af85760405162461bcd60e51b81526004016107d690615478565b60009081526101036020526040812060030155565b611b183383836135db565b5050565b87611b2681611563565b6001600160a01b0316336001600160a01b031614611b565760405162461bcd60e51b81526004016107d690615459565b60c95460ff1615611b795760405162461bcd60e51b81526004016107d690615478565b60005a9050611b8e8a8a8a8a8a8a8a8a6136aa565b60fb5460fe54604051632fe329ff60e21b81526004810184905260248101919091526001600160a01b039091169063bf8ca7fc90604401600060405180830381600087803b158015611bdf57600080fd5b505af1158015611bf3573d6000803e3d6000fd5b5050505050505050505050505050565b606060008367ffffffffffffffff811115611c2057611c20614d6f565b604051908082528060200260200182016040528015611c49578160200160208202803683370190505b50905060005b84811015611cc4576001600160a01b038616600090815261010260205260409020611c7a85836154b8565b81548110611c8a57611c8a615649565b9060005260206000200154828281518110611ca757611ca7615649565b602090810291909101015280611cbc8161565f565b915050611c4f565b50949350505050565b611cd733836131fc565b611cf35760405162461bcd60e51b81526004016107d690615558565b611cff84848484613aac565b50505050565b82611d0f81611563565b6001600160a01b0316336001600160a01b03161480611d485750600081815261010360205260409020600501546001600160a01b031633145b611d645760405162461bcd60e51b81526004016107d690615459565b60c95460ff1615611d875760405162461bcd60e51b81526004016107d690615478565b60005a600086815261010360209081526040808320610104909252909120549192509015611dfc5760008681526101046020526040812054611dc890612887565b60058301546020820151919250611dec916001600160a01b03909116908888613adf565b6003840155600283015550611e2f565b6005810154611e24906001600160a01b03811690600160a81b900463ffffffff168787613adf565b600383015560028201555b600581015486906001600160a01b0316611e4882611563565b60048401546005850154600386015460408051938452600160a81b90920463ffffffff166020840152908201526001600160a01b0391909116907f23be24e2f5bdda1a165ef44cb730243e3f79e09d3c28086b166ab914c79750609060600160405180910390a460fb5461010054604051632fe329ff60e21b81526004810185905260248101919091526001600160a01b039091169063bf8ca7fc90604401600060405180830381600087803b158015611f0157600080fd5b505af1158015611f15573d6000803e3d6000fd5b50505050505050505050565b60c95460ff1615611f445760405162461bcd60e51b81526004016107d690615478565b60005a9050611f5989898989898989896129ba565b5060fb5460fd54604051632fe329ff60e21b81526004810184905260248101919091526001600160a01b039091169063bf8ca7fc90604401600060405180830381600087803b158015611fab57600080fd5b505af1158015611fbf573d6000803e3d6000fd5b50505050505050505050505050565b600054610100900460ff16611fe95760005460ff1615611fed565b303b155b6120505760405162461bcd60e51b815260206004820152602e60248201527f496e697469616c697a61626c653a20636f6e747261637420697320616c72656160448201526d191e481a5b9a5d1a585b1a5e995960921b60648201526084016107d6565b600054610100900460ff16158015612072576000805461ffff19166101011790555b61207a613c4b565b612082613c82565b6120d6604051806040016040528060128152602001714361736b20537562736372697074696f6e7360701b815250604051806040016040528060088152602001674341534b5355425360c01b815250613cb9565b60fc80546001600160a01b0319166001600160a01b038416179055600060fd81905560fe81905560ff819055610100558015611b18576000805461ff00191690555050565b6000818152606760205260409020546060906001600160a01b031661219a5760405162461bcd60e51b815260206004820152602f60248201527f4552433732314d657461646174613a2055524920717565727920666f72206e6f60448201526e3732bc34b9ba32b73a103a37b5b2b760891b60648201526084016107d6565b60008281526101036020908152604080832081516101a08101835281548152600182015493810193909352600281015491830191909152600381015460608301526004810154608083015260058101546001600160a01b03811660a084015260c0830190600160a01b900460ff166006811115612219576122196152cb565b600681111561222a5761222a6152cb565b8152600582015463ffffffff600160a81b820481166020840152600160c81b9091048116604083015260068301548082166060840152600160201b810482166080840152600160401b90041660a082015260078201805460c090920191612290906154d0565b80601f01602080910402602001604051908101604052809291908181526020018280546122bc906154d0565b80156123095780601f106122de57610100808354040283529160200191612309565b820191906000526020600020905b8154815290600101906020018083116122ec57829003601f168201915b505050505081525050905080610180015160405160200161232a919061567a565b604051602081830303815290604052915050919050565b6097546001600160a01b0316331461236b5760405162461bcd60e51b81526004016107d6906155a9565b60fb80546001600160a01b0319166001600160a01b0392909216919091179055565b60fb546001600160a01b031633146123b75760405162461bcd60e51b81526004016107d690615459565b60c95460ff16156123da5760405162461bcd60e51b81526004016107d690615478565b600081815261010360209081526040808320600581018054600160a21b60ff60a01b198216179091556001600160a01b03168452610106909252822080549192600192612428908490615632565b909155505060058101546001600160a01b038116600090815261010760209081526040808320600160a81b90940463ffffffff168352929052908120805460019290612475908490615632565b9091555050600581015482906001600160a01b031661249382611563565b6004840154600585015460408051928352600160a81b90910463ffffffff1660208301526001600160a01b0392909216917f58e4414596fd750dbb9dabfe65b97bf5add2061f5902f34e2b82a9c25bd79f98910160405180910390a4611b1882613cfa565b604080516101a08101825260008082526020820181905291810182905260608082018390526080820183905260a0820183905260c0820183905260e082018390526101008201839052610120820183905261014082018390526101608201929092526101808101919091526000828152610103602090815260409182902082516101a08101845281548152600182015492810192909252600281015492820192909252600382015460608201526004820154608082015260058201546001600160a01b03811660a083015290919060c0830190600160a01b900460ff1660068111156125e6576125e66152cb565b60068111156125f7576125f76152cb565b8152600582015463ffffffff600160a81b820481166020840152600160c81b9091048116604083015260068301548082166060840152600160201b810482166080840152600160401b90041660a082015260078201805460c09092019161265d906154d0565b80601f0160208091040260200160405190810160405280929190818152602001828054612689906154d0565b80156126d65780601f106126ab576101008083540402835291602001916126d6565b820191906000526020600020905b8154815290600101906020018083116126b957829003601f168201915b5050505050815250509050919050565b6097546001600160a01b031633146127105760405162461bcd60e51b81526004016107d6906155a9565b6001600160a01b0381166127755760405162461bcd60e51b815260206004820152602660248201527f4f776e61626c653a206e6577206f776e657220697320746865207a65726f206160448201526564647265737360d01b60648201526084016107d6565b61277e81613531565b50565b606060008367ffffffffffffffff81111561279e5761279e614d6f565b6040519080825280602002602001820160405280156127c7578160200160208202803683370190505b50905060005b84811015611cc4576001600160a01b0386166000908152610105602052604090206127f885836154b8565b8154811061280857612808615649565b906000526020600020015482828151811061282557612825615649565b60209081029190910101528061283a8161565f565b9150506127cd565b6097546001600160a01b0316331461286c5760405162461bcd60e51b81526004016107d6906155a9565b60fd9390935560fe9190915560ff5561010055565b3b151590565b6040805161010081018252600080825260208201819052918101829052606081018290526080810182905260a0810182905260c0810182905260e081019190915250604080516101008101825260a083811c8252608084811c63ffffffff908116602080860191909152606087811c8316868801529587901c8216958501959095529385901c90931692820192909252601083901c61ffff169181019190915260f09190911b600160f01b8181161460c0830152600160f11b9081161460e082015290565b600081815260696020526040902080546001600160a01b0319166001600160a01b038416908117909155819061298182611563565b6001600160a01b03167f8c5be1e5ebec7d5bd14f71427d1e84f3dd0314c0f7b2291e5b200ac8c7c3b92560405160405180910390a45050565b60006004881015612a065760405162461bcd60e51b815260206004820152601660248201527521494e56414c494428706c616e50726f6f664c656e2960501b60448201526064016107d6565b600060038710612a6e57612a678a8a6000818110612a2657612a26615649565b90506020020135868c8c6003818110612a4157612a41615649565b905060200201358b8b6002818110612a5b57612a5b615649565b90506020020135613da1565b9050612ab2565b612aaf8a8a6000818110612a8457612a84615649565b90506020020135868c8c6003818110612a9f57612a9f615649565b905060200201356000801b613da1565b90505b612abc8a8a613e1f565b612afe5760405162461bcd60e51b815260206004820152601360248201527221494e56414c494428706c616e50726f6f662960681b60448201526064016107d6565b6000612b228b8b6002818110612b1657612b16615649565b90506020020135612887565b90506000612bd38c8c6000818110612b3c57612b3c615649565b905060200201358d8d6001818110612b5657612b56615649565b905060200201358e8e6002818110612b7057612b70615649565b905060200201356040516bffffffffffffffffffffffff193360601b16602082015260348101849052605481018290526074810183905243609482015260009060b40160408051601f198184030181529190528051602090910120949350505050565b9050816080015163ffffffff1660001480612c22575060808201516001600160a01b0384166000908152610107602090815260408083208287015163ffffffff90811685529252909120549116115b612c5c5760405162461bcd60e51b815260206004820152600b60248201526a214d41585f41435449564560a81b60448201526064016107d6565b600060fc54602084015160405163b6ab359f60e01b81526001600160a01b03878116600483015263ffffffff909216602482015291169063b6ab359f9060440160206040518083038186803b158015612cb457600080fd5b505afa158015612cc8573d6000803e3d6000fd5b505050506040513d601f19601f82011682018060405250810190612cec91906156a9565b6002811115612cfd57612cfd6152cb565b14612d395760405162461bcd60e51b815260206004820152600c60248201526b085393d517d153905093115160a21b60448201526064016107d6565b612d433382613eed565b6000818152610103602090815260409091206005810180549285015163ffffffff16600160a81b02600164ffffffff0160a01b03199093166001600160a01b03871617929092179091558c8c6001818110612da057612da0615649565b60200291909101356004830155508c8c6002818110612dc157612dc1615649565b602002919091013582555060068101805463ffffffff60401b1916600160401b63ffffffff8c1602179055612dfa600782018888614b0c565b5060058101805463ffffffff60c81b1916600160c81b4263ffffffff160217905560a083015161ffff1615612e74578260a0015161ffff168360400151612e4191906155de565b612e519063ffffffff16426154b8565b8160060160046101000a81548163ffffffff021916908363ffffffff1602179055505b606083015163ffffffff1615612ec55760058101805460ff60a01b1916600160a01b1790556060830151612ea8904261560a565b60068201805463ffffffff191663ffffffff929092169190911790555b6005810154612ee4908590600160a81b900463ffffffff168d8d613adf565b60038301556002820155600681015463ffffffff428116911611612f615760fb5460405163d71bb37b60e01b8152600481018490526001600160a01b039091169063d71bb37b90602401600060405180830381600087803b158015612f4857600080fd5b505af1158015612f5c573d6000803e3d6000fd5b505050505b600581015482906001600160a01b0316612f7a82611563565b60048401546005850154600286015460408051938452600160a81b90920463ffffffff166020840152908201526001600160a01b0391909116907f9fb45eab820cdd481e286e8c699e1c01031bb833c58f7cfba3ca8d1db6d98d819060600160405180910390a433600090815261010260209081526040808320805460018181018355918552838520018690556001600160a01b03881680855261010584528285208054808401825590865284862001879055845261010690925282208054919290916130489084906154b8565b90915550506001600160a01b0384166000908152610107602090815260408083208683015163ffffffff168452909152812080546001929061308b9084906154b8565b909155505061010180546001810182556000919091527f109ea3cebb188b9c1b9fc5bb3920be60dfdc8699098dff92f3d80daaca74768901829055509b9a5050505050505050505050565b60008061315983613153866040516020016130f391815260200190565b60408051601f1981840301815282825280516020918201207f19457468657265756d205369676e6564204d6573736167653a0a33320000000084830152603c8085019190915282518085039091018152605c909301909152815191012090565b90613f07565b905060006131998560408051808201909152600080825260208201525060408051808201909152606082901c815260509190911c61ffff16602082015290565b9050816001600160a01b031681600001516001600160a01b0316146131f45760405162461bcd60e51b815260206004820152601160248201527021494e56414c4944286e6574776f726b2960781b60448201526064016107d6565b509392505050565b6000818152606760205260408120546001600160a01b03166132755760405162461bcd60e51b815260206004820152602c60248201527f4552433732313a206f70657261746f7220717565727920666f72206e6f6e657860448201526b34b9ba32b73a103a37b5b2b760a11b60648201526084016107d6565b600061328083611563565b9050806001600160a01b0316846001600160a01b031614806132bb5750836001600160a01b03166132b084610b16565b6001600160a01b0316145b806132eb57506001600160a01b038082166000908152606a602090815260408083209388168352929052205460ff165b949350505050565b826001600160a01b031661330682611563565b6001600160a01b03161461336e5760405162461bcd60e51b815260206004820152602960248201527f4552433732313a207472616e73666572206f6620746f6b656e2074686174206960448201526839903737ba1037bbb760b91b60648201526084016107d6565b6001600160a01b0382166133d05760405162461bcd60e51b8152602060048201526024808201527f4552433732313a207472616e7366657220746f20746865207a65726f206164646044820152637265737360e01b60648201526084016107d6565b6133db838383613f23565b6133e660008261294c565b6001600160a01b038316600090815260686020526040812080546001929061340f908490615632565b90915550506001600160a01b038216600090815260686020526040812080546001929061343d9084906154b8565b909155505060008181526067602052604080822080546001600160a01b0319166001600160a01b0386811691821790925591518493918716917fddf252ad1be2c89b69c2b068fc378daa952ba7f163c4a11628f55a4df523b3ef91a4505050565b60c95460ff166134e75760405162461bcd60e51b815260206004820152601460248201527314185d5cd8589b194e881b9bdd081c185d5cd95960621b60448201526064016107d6565b60c9805460ff191690557f5db9ee0a495bf2e6ff9c91a7834c1ba4fdd244a5e8aa4e537bd38aeae4b073aa335b6040516001600160a01b03909116815260200160405180910390a1565b609780546001600160a01b038381166001600160a01b0319831681179093556040519116919082907f8be0079c531659141344cd1fd0a4f28419497f9722a3daafe3b4186f6b6457e090600090a35050565b60c95460ff16156135a65760405162461bcd60e51b81526004016107d690615478565b60c9805460ff191660011790557f62e78cea01bee320cd4e420270b5ea74000d11b0c9f74754ebdbfc544b05a2586135143390565b816001600160a01b0316836001600160a01b0316141561363d5760405162461bcd60e51b815260206004820152601960248201527f4552433732313a20617070726f766520746f2063616c6c65720000000000000060448201526064016107d6565b6001600160a01b038381166000818152606a6020908152604080832094871680845294825291829020805460ff191686151590811790915591519182527f17307eab39ab6107e8899845ad3d59bd9653f200f220920489ca2b5937696c31910160405180910390a3505050565b60048610156136f45760405162461bcd60e51b815260206004820152601660248201527521494e56414c494428706c616e50726f6f664c656e2960501b60448201526064016107d6565b600088815261010360205260409020600681015463ffffffff42811691161161374f5760405162461bcd60e51b815260206004820152600d60248201526c085391515117d491539155d053609a1b60448201526064016107d6565b60026005820154600160a01b900460ff166006811115613771576137716152cb565b148061379c575060016005820154600160a01b900460ff16600681111561379a5761379a6152cb565b145b6137b85760405162461bcd60e51b81526004016107d69061550b565b6000600386106138145761380d898960008181106137d8576137d8615649565b90506020020135868b8b60038181106137f3576137f3615649565b905060200201358a8a6002818110612a5b57612a5b615649565b9050613848565b6138458989600081811061382a5761382a615649565b90506020020135868b8b6003818110612a9f57612a9f615649565b90505b6138528989613e1f565b6138945760405162461bcd60e51b815260206004820152601360248201527221494e56414c494428706c616e50726f6f662960681b60448201526064016107d6565b60006138ac8a8a6002818110612b1657612b16615649565b60058401549091506001600160a01b038381169116146139035760405162461bcd60e51b815260206004820152601260248201527121494e56414c49442870726f76696465722960701b60448201526064016107d6565b60208101516005840154600160a81b900463ffffffff9081169116141561395f5760405162461bcd60e51b815260206004820152601060248201526f21494e56414c494428706c616e49642960801b60448201526064016107d6565b600060fc54602083015160405163b6ab359f60e01b81526001600160a01b03868116600483015263ffffffff909216602482015291169063b6ab359f9060440160206040518083038186803b1580156139b757600080fd5b505afa1580156139cb573d6000803e3d6000fd5b505050506040513d601f19601f820116820180604052508101906139ef91906156a9565b6002811115613a0057613a006152cb565b14613a3c5760405162461bcd60e51b815260206004820152600c60248201526b085393d517d153905093115160a21b60448201526064016107d6565b613a4a600784018686614b0c565b506005830154613a6a908390600160a81b900463ffffffff168a8a613adf565b6003850155600280850191909155613a9f908c9083908d908d90818110613a9357613a93615649565b90506020020135614023565b5050505050505050505050565b613ab78484846132f3565b613ac384848484614110565b611cff5760405162461bcd60e51b81526004016107d6906156ca565b600080600383118015613b085750600084848281613aff57613aff615649565b90506020020135115b15613c3b57600084846000818110613b2257613b22615649565b90506020020135604051602001613b3b91815260200190565b604051602081830303815290604052805190602001209050600085856001818110613b6857613b68615649565b60fc54602090910292909201359250506001600160a01b03166372212e76898985858b8b6002818110613b9d57613b9d615649565b905060200201358c8c6003908092613bb79392919061571c565b6040518863ffffffff1660e01b8152600401613bd99796959493929190615780565b60206040518083038186803b158015613bf157600080fd5b505afa158015613c05573d6000803e3d6000fd5b505050506040513d601f19601f82011682018060405250810190613c2991906157cd565b15613c38579092509050613c42565b50505b5060009050805b94509492505050565b600054610100900460ff16613c725760405162461bcd60e51b81526004016107d6906157ea565b613c7a61421a565b611043614241565b600054610100900460ff16613ca95760405162461bcd60e51b81526004016107d6906157ea565b613cb161421a565b611043614271565b600054610100900460ff16613ce05760405162461bcd60e51b81526004016107d6906157ea565b613ce861421a565b613cf061421a565b611b1882826142a4565b6000613d0582611563565b9050613d1381600084613f23565b613d1e60008361294c565b6001600160a01b0381166000908152606860205260408120805460019290613d47908490615632565b909155505060008281526067602052604080822080546001600160a01b0319169055518391906001600160a01b038416907fddf252ad1be2c89b69c2b068fc378daa952ba7f163c4a11628f55a4df523b3ef908390a45050565b600080613dc78561315386866040516020016130f3929190918252602082015260400190565b90506001600160a01b0386811690821614613e165760405162461bcd60e51b815260206004820152600f60248201526e21494e56414c49442870726f6f662960881b60448201526064016107d6565b95945050505050565b60fc546000906001600160a01b03166371ce3e6684846002818110613e4657613e46615649565b9050602002013585856003818110613e6057613e60615649565b60200291909101359050613e77866004818a61571c565b6040518563ffffffff1660e01b8152600401613e969493929190615835565b60206040518083038186803b158015613eae57600080fd5b505afa158015613ec2573d6000803e3d6000fd5b505050506040513d601f19601f82011682018060405250810190613ee691906157cd565b9392505050565b611b188282604051806020016040528060008152506142f2565b6000806000613f168585614325565b915091506131f481614395565b6001600160a01b03831615801590613f4357506001600160a01b03821615155b15610cbc576000818152610103602052604081208054909190613f6590612887565b90508060e00151613fad5760405162461bcd60e51b8152602060048201526012602482015271214e4f545f5452414e534645525241424c4560701b60448201526064016107d6565b6006820154600160201b900463ffffffff161580613fe05750600682015463ffffffff600160201b909104811642909116115b613ffc5760405162461bcd60e51b81526004016107d690615535565b506006018054600160401b63ffffffff82160263ffffffff60401b19909116179055505050565b600083815261010360205260408120805490919061404090612887565b905060016005830154600160a01b900460ff166006811115614064576140646152cb565b141561407b5761407685828686614550565b614109565b604081015181516140929163ffffffff169061585f565b604085015185516140a99163ffffffff169061585f565b14156140ba576140768585856145cb565b604081015181516140d19163ffffffff169061585f565b604085015185516140e89163ffffffff169061585f565b11156140fa57614076858286866146ee565b61410985856020015185614804565b5050505050565b60006001600160a01b0384163b1561421257604051630a85bd0160e11b81526001600160a01b0385169063150b7a0290614154903390899088908890600401615881565b602060405180830381600087803b15801561416e57600080fd5b505af192505050801561419e575060408051601f3d908101601f1916820190925261419b918101906158b4565b60015b6141f8573d8080156141cc576040519150601f19603f3d011682016040523d82523d6000602084013e6141d1565b606091505b5080516141f05760405162461bcd60e51b81526004016107d6906156ca565b805181602001fd5b6001600160e01b031916630a85bd0160e11b1490506132eb565b5060016132eb565b600054610100900460ff166110435760405162461bcd60e51b81526004016107d6906157ea565b600054610100900460ff166142685760405162461bcd60e51b81526004016107d6906157ea565b61104333613531565b600054610100900460ff166142985760405162461bcd60e51b81526004016107d6906157ea565b60c9805460ff19169055565b600054610100900460ff166142cb5760405162461bcd60e51b81526004016107d6906157ea565b81516142de906065906020850190614b90565b508051610cbc906066906020840190614b90565b6142fc83836148a5565b6143096000848484614110565b610cbc5760405162461bcd60e51b81526004016107d6906156ca565b60008082516041141561435c5760208301516040840151606085015160001a614350878285856149f3565b9450945050505061438e565b825160401415614386576020830151604084015161437b868383614add565b93509350505061438e565b506000905060025b9250929050565b60008160048111156143a9576143a96152cb565b14156143b25750565b60018160048111156143c6576143c66152cb565b14156144145760405162461bcd60e51b815260206004820152601860248201527f45434453413a20696e76616c6964207369676e6174757265000000000000000060448201526064016107d6565b6002816004811115614428576144286152cb565b14156144765760405162461bcd60e51b815260206004820152601f60248201527f45434453413a20696e76616c6964207369676e6174757265206c656e6774680060448201526064016107d6565b600381600481111561448a5761448a6152cb565b14156144e35760405162461bcd60e51b815260206004820152602260248201527f45434453413a20696e76616c6964207369676e6174757265202773272076616c604482015261756560f01b60648201526084016107d6565b60048160048111156144f7576144f76152cb565b141561277e5760405162461bcd60e51b815260206004820152602260248201527f45434453413a20696e76616c6964207369676e6174757265202776272076616c604482015261756560f01b60648201526084016107d6565b60008481526101036020526040902060608084015190850151600683015461457e919063ffffffff166158d1565b614588919061560a565b60068201805463ffffffff191663ffffffff92831690811790915542909116106145c45760068101805463ffffffff19164263ffffffff161790555b6141098584845b600083815261010360205260409020600581015484906001600160a01b03166145f382611563565b6004840154600585015460208089015160028801546040805195865263ffffffff600160a81b90950485169386019390935292169083015260608201526001600160a01b0391909116907fe17e61be0a4aac2f0b6fece72cedc2ab9ca554634d5af864a9282095206a0c2b9060800160405180910390a460a083015161ffff16156146bd578260a0015161ffff16836040015161469091906155de565b61469a904261560a565b8160060160046101000a81548163ffffffff021916908363ffffffff1602179055505b60209092015160058301805463ffffffff909216600160a81b0263ffffffff60a81b19909216919091179055905550565b600084815261010360205260408120600681015490919061471690429063ffffffff166158d1565b63ffffffff16856040015163ffffffff168660000151614736919061585f565b6040860151865161474d9163ffffffff169061585f565b6147579190615632565b61476191906158f6565b60fb549091506001600160a01b031663c54c58c461477e88611563565b600585015460405160e084901b6001600160e01b03191681526001600160a01b039283166004820152911660248201526044810189905260648101849052608401600060405180830381600087803b1580156147d957600080fd5b505af11580156147ed573d6000803e3d6000fd5b505050506147fc8685856145cb565b505050505050565b600083815261010360209081526040808320610104909252909120829055600581015484906001600160a01b031661483b82611563565b6004840154600585015460408051928352600160a81b90910463ffffffff9081166020840152881682820152516001600160a01b0392909216917f3d051466fe86e1bd842d67e98121d69a930caccf48fc2ae2c83119b5a7b71af69181900360600190a450505050565b6001600160a01b0382166148fb5760405162461bcd60e51b815260206004820181905260248201527f4552433732313a206d696e7420746f20746865207a65726f206164647265737360448201526064016107d6565b6000818152606760205260409020546001600160a01b0316156149605760405162461bcd60e51b815260206004820152601c60248201527f4552433732313a20746f6b656e20616c7265616479206d696e7465640000000060448201526064016107d6565b61496c60008383613f23565b6001600160a01b03821660009081526068602052604081208054600192906149959084906154b8565b909155505060008181526067602052604080822080546001600160a01b0319166001600160a01b03861690811790915590518392907fddf252ad1be2c89b69c2b068fc378daa952ba7f163c4a11628f55a4df523b3ef908290a45050565b6000807f7fffffffffffffffffffffffffffffff5d576e7357a4501ddfe92f46681b20a0831115614a2a5750600090506003613c42565b8460ff16601b14158015614a4257508460ff16601c14155b15614a535750600090506004613c42565b6040805160008082526020820180845289905260ff881692820192909252606081018690526080810185905260019060a0016020604051602081039080840390855afa158015614aa7573d6000803e3d6000fd5b5050604051601f1901519150506001600160a01b038116614ad057600060019250925050613c42565b9660009650945050505050565b6000806001600160ff1b03831660ff84901c601b01614afe878288856149f3565b935093505050935093915050565b828054614b18906154d0565b90600052602060002090601f016020900481019282614b3a5760008555614b80565b82601f10614b535782800160ff19823516178555614b80565b82800160010185558215614b80579182015b82811115614b80578235825591602001919060010190614b65565b50614b8c929150614c04565b5090565b828054614b9c906154d0565b90600052602060002090601f016020900481019282614bbe5760008555614b80565b82601f10614bd757805160ff1916838001178555614b80565b82800160010185558215614b80579182015b82811115614b80578251825591602001919060010190614be9565b5b80821115614b8c5760008155600101614c05565b6001600160e01b03198116811461277e57600080fd5b600060208284031215614c4157600080fd5b8135613ee681614c19565b600060208284031215614c5e57600080fd5b5035919050565b60005b83811015614c80578181015183820152602001614c68565b83811115611cff5750506000910152565b60008151808452614ca9816020860160208601614c65565b601f01601f19169290920160200192915050565b602081526000613ee66020830184614c91565b80356001600160a01b0381168114614ce757600080fd5b919050565b60008060408385031215614cff57600080fd5b614d0883614cd0565b946020939093013593505050565b60008083601f840112614d2857600080fd5b50813567ffffffffffffffff811115614d4057600080fd5b6020830191508360208260051b850101111561438e57600080fd5b803563ffffffff81168114614ce757600080fd5b634e487b7160e01b600052604160045260246000fd5b600082601f830112614d9657600080fd5b813567ffffffffffffffff80821115614db157614db1614d6f565b604051601f8301601f19908116603f01168101908282118183101715614dd957614dd9614d6f565b81604052838152866020858801011115614df257600080fd5b836020870160208301376000602085830101528094505050505092915050565b60008083601f840112614e2457600080fd5b50813567ffffffffffffffff811115614e3c57600080fd5b60208301915083602082850101111561438e57600080fd5b60008060008060008060008060008060e08b8d031215614e7357600080fd5b8a3567ffffffffffffffff80821115614e8b57600080fd5b614e978e838f01614d16565b909c509a5060208d0135915080821115614eb057600080fd5b614ebc8e838f01614d16565b909a50985060408d01359750889150614ed760608e01614d5b565b965060808d0135915080821115614eed57600080fd5b614ef98e838f01614d85565b955060a08d0135915080821115614f0f57600080fd5b614f1b8e838f01614d85565b945060c08d0135915080821115614f3157600080fd5b50614f3e8d828e01614e12565b915080935050809150509295989b9194979a5092959850565b600080600060608486031215614f6c57600080fd5b614f7584614cd0565b9250614f8360208501614cd0565b9150604084013590509250925092565b600060208284031215614fa557600080fd5b613ee682614cd0565b6020808252825182820181905260009190848201906040850190845b81811015614fe657835183529284019291840191600101614fca565b50909695505050505050565b6000806040838503121561500557600080fd5b8235915061501560208401614d5b565b90509250929050565b6000806040838503121561503157600080fd5b61503a83614cd0565b915061501560208401614d5b565b801515811461277e57600080fd5b6000806040838503121561506957600080fd5b61507283614cd0565b9150602083013561508281615048565b809150509250929050565b60008060008060008060008060a0898b0312156150a957600080fd5b88359750602089013567ffffffffffffffff808211156150c857600080fd5b6150d48c838d01614d16565b909950975060408b01359150808211156150ed57600080fd5b6150f98c838d01614d16565b909750955060608b013591508082111561511257600080fd5b61511e8c838d01614d85565b945060808b013591508082111561513457600080fd5b506151418b828c01614e12565b999c989b5096995094979396929594505050565b60008060006060848603121561516a57600080fd5b61517384614cd0565b95602085013595506040909401359392505050565b6000806000806080858703121561519e57600080fd5b6151a785614cd0565b93506151b560208601614cd0565b925060408501359150606085013567ffffffffffffffff8111156151d857600080fd5b6151e487828801614d85565b91505092959194509250565b60008060006040848603121561520557600080fd5b83359250602084013567ffffffffffffffff81111561522357600080fd5b61522f86828701614d16565b9497909650939450505050565b60008060008060008060008060a0898b03121561525857600080fd5b883567ffffffffffffffff8082111561527057600080fd5b61527c8c838d01614d16565b909a50985060208b013591508082111561529557600080fd5b6152a18c838d01614d16565b90985096508691506152b560408c01614d5b565b955060608b013591508082111561511257600080fd5b634e487b7160e01b600052602160045260246000fd5b600781106152ff57634e487b7160e01b600052602160045260246000fd5b9052565b6020815281516020820152602082015160408201526040820151606082015260608201516080820152608082015160a0820152600060a083015161535260c08401826001600160a01b03169052565b5060c083015161536560e08401826152e1565b5060e083015161010061537f8185018363ffffffff169052565b84015190506101206153988482018363ffffffff169052565b84015190506101406153b18482018363ffffffff169052565b84015190506101606153ca8482018363ffffffff169052565b84015190506101806153e38482018363ffffffff169052565b8401516101a08481015290506132eb6101c0840182614c91565b6000806040838503121561541057600080fd5b61541983614cd0565b915061501560208401614cd0565b6000806000806080858703121561543d57600080fd5b5050823594602084013594506040840135936060013592509050565b60208082526005908201526404282aaa8960db1b604082015260600190565b60208082526010908201526f14185d5cd8589b194e881c185d5cd95960821b604082015260600190565b634e487b7160e01b600052601160045260246000fd5b600082198211156154cb576154cb6154a2565b500190565b600181811c908216806154e457607f821691505b6020821081141561550557634e487b7160e01b600052602260045260246000fd5b50919050565b60208082526010908201526f21494e56414c4944287374617475732960801b604082015260600190565b602080825260099082015268214d494e5f5445524d60b81b604082015260600190565b60208082526031908201527f4552433732313a207472616e736665722063616c6c6572206973206e6f74206f6040820152701ddb995c881b9bdc88185c1c1c9bdd9959607a1b606082015260800190565b6020808252818101527f4f776e61626c653a2063616c6c6572206973206e6f7420746865206f776e6572604082015260600190565b600063ffffffff80831681851681830481118215151615615601576156016154a2565b02949350505050565b600063ffffffff808316818516808303821115615629576156296154a2565b01949350505050565b600082821015615644576156446154a2565b500390565b634e487b7160e01b600052603260045260246000fd5b6000600019821415615673576156736154a2565b5060010190565b66697066733a2f2f60c81b81526000825161569c816007850160208701614c65565b9190910160070192915050565b6000602082840312156156bb57600080fd5b815160038110613ee657600080fd5b60208082526032908201527f4552433732313a207472616e7366657220746f206e6f6e20455243373231526560408201527131b2b4bb32b91034b6b83632b6b2b73a32b960711b606082015260800190565b6000808585111561572c57600080fd5b8386111561573957600080fd5b5050600583901b0193919092039150565b81835260006001600160fb1b0383111561576357600080fd5b8260051b8083602087013760009401602001938452509192915050565b60018060a01b038816815263ffffffff8716602082015285604082015284606082015283608082015260c060a082015260006157c060c08301848661574a565b9998505050505050505050565b6000602082840312156157df57600080fd5b8151613ee681615048565b6020808252602b908201527f496e697469616c697a61626c653a20636f6e7472616374206973206e6f74206960408201526a6e697469616c697a696e6760a81b606082015260800190565b84815283602082015260606040820152600061585560608301848661574a565b9695505050505050565b60008261587c57634e487b7160e01b600052601260045260246000fd5b500490565b6001600160a01b038581168252841660208201526040810183905260806060820181905260009061585590830184614c91565b6000602082840312156158c657600080fd5b8151613ee681614c19565b600063ffffffff838116908316818110156158ee576158ee6154a2565b039392505050565b6000816000190483118215151615615910576159106154a2565b50029056fea2646970667358221220d2ddf956e51d8870179b976a3795286e10831cae9e69ad9041cd13204646783764736f6c63430008090033",
  "devdoc": {
    "kind": "dev",
    "methods": {
      "approve(address,uint256)": {
        "details": "See {IERC721-approve}."
      },
      "balanceOf(address)": {
        "details": "See {IERC721-balanceOf}."
      },
      "constructor": {
        "custom:oz-upgrades-unsafe-allow": "constructor"
      },
      "getApproved(uint256)": {
        "details": "See {IERC721-getApproved}."
      },
      "isApprovedForAll(address,address)": {
        "details": "See {IERC721-isApprovedForAll}."
      },
      "name()": {
        "details": "See {IERC721Metadata-name}."
      },
      "owner()": {
        "details": "Returns the address of the current owner."
      },
      "ownerOf(uint256)": {
        "details": "See {IERC721-ownerOf}."
      },
      "paused()": {
        "details": "Returns true if the contract is paused, and false otherwise."
      },
      "renounceOwnership()": {
        "details": "Leaves the contract without owner. It will not be possible to call `onlyOwner` functions anymore. Can only be called by the current owner. NOTE: Renouncing ownership will leave the contract without an owner, thereby removing any functionality that is only available to the owner."
      },
      "safeTransferFrom(address,address,uint256)": {
        "details": "See {IERC721-safeTransferFrom}."
      },
      "safeTransferFrom(address,address,uint256,bytes)": {
        "details": "See {IERC721-safeTransferFrom}."
      },
      "setApprovalForAll(address,bool)": {
        "details": "See {IERC721-setApprovalForAll}."
      },
      "supportsInterface(bytes4)": {
        "details": "See {IERC165-supportsInterface}."
      },
      "symbol()": {
        "details": "See {IERC721Metadata-symbol}."
      },
      "transferFrom(address,address,uint256)": {
        "details": "See {IERC721-transferFrom}."
      },
      "transferOwnership(address)": {
        "details": "Transfers ownership of the contract to a new account (`newOwner`). Can only be called by the current owner."
      }
    },
    "stateVariables": {
      "consumerSubscriptions": {
        "details": "Maps for consumer to list of subscriptions. "
      },
      "gasRefundLimitCreateSubscription": {
        "details": "max gas refund for transactions, in wei "
      },
      "providerSubscriptions": {
        "details": "Maps for provider to list of subscriptions and plans. "
      },
      "subscriptionManager": {
        "details": "contract to manage subscription plan definitions. "
      },
      "subscriptionPlans": {
        "details": "contract to manage subscription plan definitions. "
      }
    },
    "version": 1
  },
  "userdoc": {
    "kind": "user",
    "methods": {},
    "version": 1
  },
  "storageLayout": {
    "storage": [
      {
        "astId": 788,
        "contract": "contracts/protocol/CaskSubscriptions.sol:CaskSubscriptions",
        "label": "_initialized",
        "offset": 0,
        "slot": "0",
        "type": "t_bool"
      },
      {
        "astId": 791,
        "contract": "contracts/protocol/CaskSubscriptions.sol:CaskSubscriptions",
        "label": "_initializing",
        "offset": 1,
        "slot": "0",
        "type": "t_bool"
      },
      {
        "astId": 2336,
        "contract": "contracts/protocol/CaskSubscriptions.sol:CaskSubscriptions",
        "label": "__gap",
        "offset": 0,
        "slot": "1",
        "type": "t_array(t_uint256)50_storage"
      },
      {
        "astId": 2585,
        "contract": "contracts/protocol/CaskSubscriptions.sol:CaskSubscriptions",
        "label": "__gap",
        "offset": 0,
        "slot": "51",
        "type": "t_array(t_uint256)50_storage"
      },
      {
        "astId": 1055,
        "contract": "contracts/protocol/CaskSubscriptions.sol:CaskSubscriptions",
        "label": "_name",
        "offset": 0,
        "slot": "101",
        "type": "t_string_storage"
      },
      {
        "astId": 1057,
        "contract": "contracts/protocol/CaskSubscriptions.sol:CaskSubscriptions",
        "label": "_symbol",
        "offset": 0,
        "slot": "102",
        "type": "t_string_storage"
      },
      {
        "astId": 1061,
        "contract": "contracts/protocol/CaskSubscriptions.sol:CaskSubscriptions",
        "label": "_owners",
        "offset": 0,
        "slot": "103",
        "type": "t_mapping(t_uint256,t_address)"
      },
      {
        "astId": 1065,
        "contract": "contracts/protocol/CaskSubscriptions.sol:CaskSubscriptions",
        "label": "_balances",
        "offset": 0,
        "slot": "104",
        "type": "t_mapping(t_address,t_uint256)"
      },
      {
        "astId": 1069,
        "contract": "contracts/protocol/CaskSubscriptions.sol:CaskSubscriptions",
        "label": "_tokenApprovals",
        "offset": 0,
        "slot": "105",
        "type": "t_mapping(t_uint256,t_address)"
      },
      {
        "astId": 1075,
        "contract": "contracts/protocol/CaskSubscriptions.sol:CaskSubscriptions",
        "label": "_operatorApprovals",
        "offset": 0,
        "slot": "106",
        "type": "t_mapping(t_address,t_mapping(t_address,t_bool))"
      },
      {
        "astId": 1886,
        "contract": "contracts/protocol/CaskSubscriptions.sol:CaskSubscriptions",
        "label": "__gap",
        "offset": 0,
        "slot": "107",
        "type": "t_array(t_uint256)44_storage"
      },
      {
        "astId": 666,
        "contract": "contracts/protocol/CaskSubscriptions.sol:CaskSubscriptions",
        "label": "_owner",
        "offset": 0,
        "slot": "151",
        "type": "t_address"
      },
      {
        "astId": 780,
        "contract": "contracts/protocol/CaskSubscriptions.sol:CaskSubscriptions",
        "label": "__gap",
        "offset": 0,
        "slot": "152",
        "type": "t_array(t_uint256)49_storage"
      },
      {
        "astId": 876,
        "contract": "contracts/protocol/CaskSubscriptions.sol:CaskSubscriptions",
        "label": "_paused",
        "offset": 0,
        "slot": "201",
        "type": "t_bool"
      },
      {
        "astId": 967,
        "contract": "contracts/protocol/CaskSubscriptions.sol:CaskSubscriptions",
        "label": "__gap",
        "offset": 0,
        "slot": "202",
        "type": "t_array(t_uint256)49_storage"
      },
      {
        "astId": 10971,
        "contract": "contracts/protocol/CaskSubscriptions.sol:CaskSubscriptions",
        "label": "subscriptionManager",
        "offset": 0,
        "slot": "251",
        "type": "t_contract(ICaskSubscriptionManager)7953"
      },
      {
        "astId": 10975,
        "contract": "contracts/protocol/CaskSubscriptions.sol:CaskSubscriptions",
        "label": "subscriptionPlans",
        "offset": 0,
        "slot": "252",
        "type": "t_contract(ICaskSubscriptionPlans)8097"
      },
      {
        "astId": 10978,
        "contract": "contracts/protocol/CaskSubscriptions.sol:CaskSubscriptions",
        "label": "gasRefundLimitCreateSubscription",
        "offset": 0,
        "slot": "253",
        "type": "t_uint256"
      },
      {
        "astId": 10980,
        "contract": "contracts/protocol/CaskSubscriptions.sol:CaskSubscriptions",
        "label": "gasRefundLimitChangeSubscription",
        "offset": 0,
        "slot": "254",
        "type": "t_uint256"
      },
      {
        "astId": 10982,
        "contract": "contracts/protocol/CaskSubscriptions.sol:CaskSubscriptions",
        "label": "gasRefundLimitCancelSubscription",
        "offset": 0,
        "slot": "255",
        "type": "t_uint256"
      },
      {
        "astId": 10984,
        "contract": "contracts/protocol/CaskSubscriptions.sol:CaskSubscriptions",
        "label": "gasRefundLimitOther",
        "offset": 0,
        "slot": "256",
        "type": "t_uint256"
      },
      {
        "astId": 10987,
        "contract": "contracts/protocol/CaskSubscriptions.sol:CaskSubscriptions",
        "label": "allSubscriptions",
        "offset": 0,
        "slot": "257",
        "type": "t_array(t_uint256)dyn_storage"
      },
      {
        "astId": 10993,
        "contract": "contracts/protocol/CaskSubscriptions.sol:CaskSubscriptions",
        "label": "consumerSubscriptions",
        "offset": 0,
        "slot": "258",
        "type": "t_mapping(t_address,t_array(t_uint256)dyn_storage)"
      },
      {
        "astId": 10998,
        "contract": "contracts/protocol/CaskSubscriptions.sol:CaskSubscriptions",
        "label": "subscriptions",
        "offset": 0,
        "slot": "259",
        "type": "t_mapping(t_uint256,t_struct(Subscription)8138_storage)"
      },
      {
        "astId": 11002,
        "contract": "contracts/protocol/CaskSubscriptions.sol:CaskSubscriptions",
        "label": "pendingPlanChanges",
        "offset": 0,
        "slot": "260",
        "type": "t_mapping(t_uint256,t_bytes32)"
      },
      {
        "astId": 11008,
        "contract": "contracts/protocol/CaskSubscriptions.sol:CaskSubscriptions",
        "label": "providerSubscriptions",
        "offset": 0,
        "slot": "261",
        "type": "t_mapping(t_address,t_array(t_uint256)dyn_storage)"
      },
      {
        "astId": 11012,
        "contract": "contracts/protocol/CaskSubscriptions.sol:CaskSubscriptions",
        "label": "providerActiveSubscriptionCount",
        "offset": 0,
        "slot": "262",
        "type": "t_mapping(t_address,t_uint256)"
      },
      {
        "astId": 11018,
        "contract": "contracts/protocol/CaskSubscriptions.sol:CaskSubscriptions",
        "label": "planActiveSubscriptionCount",
        "offset": 0,
        "slot": "263",
        "type": "t_mapping(t_address,t_mapping(t_uint32,t_uint256))"
      }
    ],
    "types": {
      "t_address": {
        "encoding": "inplace",
        "label": "address",
        "numberOfBytes": "20"
      },
      "t_array(t_uint256)44_storage": {
        "base": "t_uint256",
        "encoding": "inplace",
        "label": "uint256[44]",
        "numberOfBytes": "1408"
      },
      "t_array(t_uint256)49_storage": {
        "base": "t_uint256",
        "encoding": "inplace",
        "label": "uint256[49]",
        "numberOfBytes": "1568"
      },
      "t_array(t_uint256)50_storage": {
        "base": "t_uint256",
        "encoding": "inplace",
        "label": "uint256[50]",
        "numberOfBytes": "1600"
      },
      "t_array(t_uint256)dyn_storage": {
        "base": "t_uint256",
        "encoding": "dynamic_array",
        "label": "uint256[]",
        "numberOfBytes": "32"
      },
      "t_bool": {
        "encoding": "inplace",
        "label": "bool",
        "numberOfBytes": "1"
      },
      "t_bytes32": {
        "encoding": "inplace",
        "label": "bytes32",
        "numberOfBytes": "32"
      },
      "t_contract(ICaskSubscriptionManager)7953": {
        "encoding": "inplace",
        "label": "contract ICaskSubscriptionManager",
        "numberOfBytes": "20"
      },
      "t_contract(ICaskSubscriptionPlans)8097": {
        "encoding": "inplace",
        "label": "contract ICaskSubscriptionPlans",
        "numberOfBytes": "20"
      },
      "t_enum(SubscriptionStatus)8110": {
        "encoding": "inplace",
        "label": "enum ICaskSubscriptions.SubscriptionStatus",
        "numberOfBytes": "1"
      },
      "t_mapping(t_address,t_array(t_uint256)dyn_storage)": {
        "encoding": "mapping",
        "key": "t_address",
        "label": "mapping(address => uint256[])",
        "numberOfBytes": "32",
        "value": "t_array(t_uint256)dyn_storage"
      },
      "t_mapping(t_address,t_bool)": {
        "encoding": "mapping",
        "key": "t_address",
        "label": "mapping(address => bool)",
        "numberOfBytes": "32",
        "value": "t_bool"
      },
      "t_mapping(t_address,t_mapping(t_address,t_bool))": {
        "encoding": "mapping",
        "key": "t_address",
        "label": "mapping(address => mapping(address => bool))",
        "numberOfBytes": "32",
        "value": "t_mapping(t_address,t_bool)"
      },
      "t_mapping(t_address,t_mapping(t_uint32,t_uint256))": {
        "encoding": "mapping",
        "key": "t_address",
        "label": "mapping(address => mapping(uint32 => uint256))",
        "numberOfBytes": "32",
        "value": "t_mapping(t_uint32,t_uint256)"
      },
      "t_mapping(t_address,t_uint256)": {
        "encoding": "mapping",
        "key": "t_address",
        "label": "mapping(address => uint256)",
        "numberOfBytes": "32",
        "value": "t_uint256"
      },
      "t_mapping(t_uint256,t_address)": {
        "encoding": "mapping",
        "key": "t_uint256",
        "label": "mapping(uint256 => address)",
        "numberOfBytes": "32",
        "value": "t_address"
      },
      "t_mapping(t_uint256,t_bytes32)": {
        "encoding": "mapping",
        "key": "t_uint256",
        "label": "mapping(uint256 => bytes32)",
        "numberOfBytes": "32",
        "value": "t_bytes32"
      },
      "t_mapping(t_uint256,t_struct(Subscription)8138_storage)": {
        "encoding": "mapping",
        "key": "t_uint256",
        "label": "mapping(uint256 => struct ICaskSubscriptions.Subscription)",
        "numberOfBytes": "32",
        "value": "t_struct(Subscription)8138_storage"
      },
      "t_mapping(t_uint32,t_uint256)": {
        "encoding": "mapping",
        "key": "t_uint32",
        "label": "mapping(uint32 => uint256)",
        "numberOfBytes": "32",
        "value": "t_uint256"
      },
      "t_string_storage": {
        "encoding": "bytes",
        "label": "string",
        "numberOfBytes": "32"
      },
      "t_struct(Subscription)8138_storage": {
        "encoding": "inplace",
        "label": "struct ICaskSubscriptions.Subscription",
        "members": [
          {
            "astId": 8112,
            "contract": "contracts/protocol/CaskSubscriptions.sol:CaskSubscriptions",
            "label": "planData",
            "offset": 0,
            "slot": "0",
            "type": "t_bytes32"
          },
          {
            "astId": 8114,
            "contract": "contracts/protocol/CaskSubscriptions.sol:CaskSubscriptions",
            "label": "networkData",
            "offset": 0,
            "slot": "1",
            "type": "t_bytes32"
          },
          {
            "astId": 8116,
            "contract": "contracts/protocol/CaskSubscriptions.sol:CaskSubscriptions",
            "label": "discountId",
            "offset": 0,
            "slot": "2",
            "type": "t_bytes32"
          },
          {
            "astId": 8118,
            "contract": "contracts/protocol/CaskSubscriptions.sol:CaskSubscriptions",
            "label": "discountData",
            "offset": 0,
            "slot": "3",
            "type": "t_bytes32"
          },
          {
            "astId": 8120,
            "contract": "contracts/protocol/CaskSubscriptions.sol:CaskSubscriptions",
            "label": "ref",
            "offset": 0,
            "slot": "4",
            "type": "t_bytes32"
          },
          {
            "astId": 8122,
            "contract": "contracts/protocol/CaskSubscriptions.sol:CaskSubscriptions",
            "label": "provider",
            "offset": 0,
            "slot": "5",
            "type": "t_address"
          },
          {
            "astId": 8125,
            "contract": "contracts/protocol/CaskSubscriptions.sol:CaskSubscriptions",
            "label": "status",
            "offset": 20,
            "slot": "5",
            "type": "t_enum(SubscriptionStatus)8110"
          },
          {
            "astId": 8127,
            "contract": "contracts/protocol/CaskSubscriptions.sol:CaskSubscriptions",
            "label": "planId",
            "offset": 21,
            "slot": "5",
            "type": "t_uint32"
          },
          {
            "astId": 8129,
            "contract": "contracts/protocol/CaskSubscriptions.sol:CaskSubscriptions",
            "label": "createdAt",
            "offset": 25,
            "slot": "5",
            "type": "t_uint32"
          },
          {
            "astId": 8131,
            "contract": "contracts/protocol/CaskSubscriptions.sol:CaskSubscriptions",
            "label": "renewAt",
            "offset": 0,
            "slot": "6",
            "type": "t_uint32"
          },
          {
            "astId": 8133,
            "contract": "contracts/protocol/CaskSubscriptions.sol:CaskSubscriptions",
            "label": "minTermAt",
            "offset": 4,
            "slot": "6",
            "type": "t_uint32"
          },
          {
            "astId": 8135,
            "contract": "contracts/protocol/CaskSubscriptions.sol:CaskSubscriptions",
            "label": "cancelAt",
            "offset": 8,
            "slot": "6",
            "type": "t_uint32"
          },
          {
            "astId": 8137,
            "contract": "contracts/protocol/CaskSubscriptions.sol:CaskSubscriptions",
            "label": "cid",
            "offset": 0,
            "slot": "7",
            "type": "t_string_storage"
          }
        ],
        "numberOfBytes": "256"
      },
      "t_uint256": {
        "encoding": "inplace",
        "label": "uint256",
        "numberOfBytes": "32"
      },
      "t_uint32": {
        "encoding": "inplace",
        "label": "uint32",
        "numberOfBytes": "4"
      }
    }
  }
}