{
  "address": "0x7A5a2b7470bfEb95a3f2b16BACFC3Afc79469718",
  "abi": [
    {
      "inputs": [],
      "stateMutability": "nonpayable",
      "type": "constructor"
    },
    {
      "anonymous": false,
      "inputs": [
        {
          "indexed": true,
          "internalType": "address",
          "name": "strategy",
          "type": "address"
        },
        {
          "indexed": true,
          "internalType": "address",
          "name": "asset",
          "type": "address"
        },
        {
          "indexed": false,
          "internalType": "uint256",
          "name": "assetAmount",
          "type": "uint256"
        }
      ],
      "name": "AllocatedToStrategy",
      "type": "event"
    },
    {
      "anonymous": false,
      "inputs": [
        {
          "indexed": true,
          "internalType": "address",
          "name": "asset",
          "type": "address"
        }
      ],
      "name": "AllowedAsset",
      "type": "event"
    },
    {
      "anonymous": false,
      "inputs": [
        {
          "indexed": true,
          "internalType": "address",
          "name": "owner",
          "type": "address"
        },
        {
          "indexed": true,
          "internalType": "address",
          "name": "spender",
          "type": "address"
        },
        {
          "indexed": false,
          "internalType": "uint256",
          "name": "value",
          "type": "uint256"
        }
      ],
      "name": "Approval",
      "type": "event"
    },
    {
      "anonymous": false,
      "inputs": [
        {
          "indexed": true,
          "internalType": "address",
          "name": "participant",
          "type": "address"
        },
        {
          "indexed": true,
          "internalType": "address",
          "name": "asset",
          "type": "address"
        },
        {
          "indexed": false,
          "internalType": "uint256",
          "name": "assetAmount",
          "type": "uint256"
        },
        {
          "indexed": false,
          "internalType": "uint256",
          "name": "baseAssetAmount",
          "type": "uint256"
        },
        {
          "indexed": false,
          "internalType": "uint256",
          "name": "shares",
          "type": "uint256"
        }
      ],
      "name": "AssetDeposited",
      "type": "event"
    },
    {
      "anonymous": false,
      "inputs": [
        {
          "indexed": true,
          "internalType": "address",
          "name": "participant",
          "type": "address"
        },
        {
          "indexed": true,
          "internalType": "address",
          "name": "asset",
          "type": "address"
        },
        {
          "indexed": false,
          "internalType": "uint256",
          "name": "assetAmount",
          "type": "uint256"
        },
        {
          "indexed": false,
          "internalType": "uint256",
          "name": "baseAssetAmount",
          "type": "uint256"
        },
        {
          "indexed": false,
          "internalType": "uint256",
          "name": "shares",
          "type": "uint256"
        }
      ],
      "name": "AssetWithdrawn",
      "type": "event"
    },
    {
      "anonymous": false,
      "inputs": [
        {
          "indexed": true,
          "internalType": "address",
          "name": "previousOwner",
          "type": "address"
        },
        {
          "indexed": true,
          "internalType": "address",
          "name": "newOwner",
          "type": "address"
        }
      ],
      "name": "OwnershipTransferred",
      "type": "event"
    },
    {
      "anonymous": false,
      "inputs": [
        {
          "indexed": false,
          "internalType": "address",
          "name": "account",
          "type": "address"
        }
      ],
      "name": "Paused",
      "type": "event"
    },
    {
      "anonymous": false,
      "inputs": [
        {
          "indexed": true,
          "internalType": "address",
          "name": "from",
          "type": "address"
        },
        {
          "indexed": true,
          "internalType": "address",
          "name": "to",
          "type": "address"
        },
        {
          "indexed": false,
          "internalType": "uint256",
          "name": "baseAssetAmount",
          "type": "uint256"
        },
        {
          "indexed": false,
          "internalType": "uint256",
          "name": "baseAssetFee",
          "type": "uint256"
        },
        {
          "indexed": false,
          "internalType": "uint256",
          "name": "shares",
          "type": "uint256"
        }
      ],
      "name": "Payment",
      "type": "event"
    },
    {
      "anonymous": false,
      "inputs": [
        {
          "indexed": true,
          "internalType": "address",
          "name": "from",
          "type": "address"
        },
        {
          "indexed": true,
          "internalType": "address",
          "name": "to",
          "type": "address"
        },
        {
          "indexed": false,
          "internalType": "uint256",
          "name": "value",
          "type": "uint256"
        }
      ],
      "name": "Transfer",
      "type": "event"
    },
    {
      "anonymous": false,
      "inputs": [
        {
          "indexed": false,
          "internalType": "address",
          "name": "account",
          "type": "address"
        }
      ],
      "name": "Unpaused",
      "type": "event"
    },
    {
      "inputs": [
        {
          "internalType": "address",
          "name": "_protocol",
          "type": "address"
        }
      ],
      "name": "addProtocol",
      "outputs": [],
      "stateMutability": "nonpayable",
      "type": "function"
    },
    {
      "inputs": [
        {
          "internalType": "address",
          "name": "_strategy",
          "type": "address"
        },
        {
          "internalType": "address",
          "name": "_asset",
          "type": "address"
        },
        {
          "internalType": "uint256",
          "name": "_assetAmount",
          "type": "uint256"
        }
      ],
      "name": "allocateToStrategy",
      "outputs": [],
      "stateMutability": "nonpayable",
      "type": "function"
    },
    {
      "inputs": [
        {
          "internalType": "address",
          "name": "_asset",
          "type": "address"
        },
        {
          "internalType": "address",
          "name": "_priceFeed",
          "type": "address"
        },
        {
          "internalType": "uint256",
          "name": "_depositLimit",
          "type": "uint256"
        },
        {
          "internalType": "uint256",
          "name": "_slippageBps",
          "type": "uint256"
        }
      ],
      "name": "allowAsset",
      "outputs": [],
      "stateMutability": "nonpayable",
      "type": "function"
    },
    {
      "inputs": [
        {
          "internalType": "address",
          "name": "owner",
          "type": "address"
        },
        {
          "internalType": "address",
          "name": "spender",
          "type": "address"
        }
      ],
      "name": "allowance",
      "outputs": [
        {
          "internalType": "uint256",
          "name": "",
          "type": "uint256"
        }
      ],
      "stateMutability": "view",
      "type": "function"
    },
    {
      "inputs": [
        {
          "internalType": "address",
          "name": "spender",
          "type": "address"
        },
        {
          "internalType": "uint256",
          "name": "amount",
          "type": "uint256"
        }
      ],
      "name": "approve",
      "outputs": [
        {
          "internalType": "bool",
          "name": "",
          "type": "bool"
        }
      ],
      "stateMutability": "nonpayable",
      "type": "function"
    },
    {
      "inputs": [
        {
          "internalType": "address",
          "name": "account",
          "type": "address"
        }
      ],
      "name": "balanceOf",
      "outputs": [
        {
          "internalType": "uint256",
          "name": "",
          "type": "uint256"
        }
      ],
      "stateMutability": "view",
      "type": "function"
    },
    {
      "inputs": [],
      "name": "baseAsset",
      "outputs": [
        {
          "internalType": "address",
          "name": "",
          "type": "address"
        }
      ],
      "stateMutability": "view",
      "type": "function"
    },
    {
      "inputs": [
        {
          "internalType": "address",
          "name": "_fromAsset",
          "type": "address"
        },
        {
          "internalType": "address",
          "name": "_toAsset",
          "type": "address"
        },
        {
          "internalType": "uint256",
          "name": "_fromAmount",
          "type": "uint256"
        }
      ],
      "name": "convertPrice",
      "outputs": [
        {
          "internalType": "uint256",
          "name": "",
          "type": "uint256"
        }
      ],
      "stateMutability": "view",
      "type": "function"
    },
    {
      "inputs": [
        {
          "internalType": "address",
          "name": "_address",
          "type": "address"
        }
      ],
      "name": "currentValueOf",
      "outputs": [
        {
          "internalType": "uint256",
          "name": "",
          "type": "uint256"
        }
      ],
      "stateMutability": "view",
      "type": "function"
    },
    {
      "inputs": [],
      "name": "decimals",
      "outputs": [
        {
          "internalType": "uint8",
          "name": "",
          "type": "uint8"
        }
      ],
      "stateMutability": "view",
      "type": "function"
    },
    {
      "inputs": [
        {
          "internalType": "address",
          "name": "spender",
          "type": "address"
        },
        {
          "internalType": "uint256",
          "name": "subtractedValue",
          "type": "uint256"
        }
      ],
      "name": "decreaseAllowance",
      "outputs": [
        {
          "internalType": "bool",
          "name": "",
          "type": "bool"
        }
      ],
      "stateMutability": "nonpayable",
      "type": "function"
    },
    {
      "inputs": [
        {
          "internalType": "address",
          "name": "_asset",
          "type": "address"
        },
        {
          "internalType": "uint256",
          "name": "_assetAmount",
          "type": "uint256"
        }
      ],
      "name": "deposit",
      "outputs": [],
      "stateMutability": "nonpayable",
      "type": "function"
    },
    {
      "inputs": [
        {
          "internalType": "address",
          "name": "_to",
          "type": "address"
        },
        {
          "internalType": "address",
          "name": "_asset",
          "type": "address"
        },
        {
          "internalType": "uint256",
          "name": "_assetAmount",
          "type": "uint256"
        }
      ],
      "name": "depositTo",
      "outputs": [],
      "stateMutability": "nonpayable",
      "type": "function"
    },
    {
      "inputs": [],
      "name": "feeDistributor",
      "outputs": [
        {
          "internalType": "address",
          "name": "",
          "type": "address"
        }
      ],
      "stateMutability": "view",
      "type": "function"
    },
    {
      "inputs": [],
      "name": "getAllAssets",
      "outputs": [
        {
          "internalType": "address[]",
          "name": "",
          "type": "address[]"
        }
      ],
      "stateMutability": "view",
      "type": "function"
    },
    {
      "inputs": [
        {
          "internalType": "address",
          "name": "_asset",
          "type": "address"
        }
      ],
      "name": "getAsset",
      "outputs": [
        {
          "components": [
            {
              "internalType": "address",
              "name": "priceFeed",
              "type": "address"
            },
            {
              "internalType": "uint256",
              "name": "slippageBps",
              "type": "uint256"
            },
            {
              "internalType": "uint256",
              "name": "depositLimit",
              "type": "uint256"
            },
            {
              "internalType": "uint8",
              "name": "assetDecimals",
              "type": "uint8"
            },
            {
              "internalType": "uint8",
              "name": "priceFeedDecimals",
              "type": "uint8"
            },
            {
              "internalType": "bool",
              "name": "allowed",
              "type": "bool"
            }
          ],
          "internalType": "struct ICaskVault.Asset",
          "name": "",
          "type": "tuple"
        }
      ],
      "stateMutability": "view",
      "type": "function"
    },
    {
      "inputs": [],
      "name": "getBaseAsset",
      "outputs": [
        {
          "internalType": "address",
          "name": "",
          "type": "address"
        }
      ],
      "stateMutability": "view",
      "type": "function"
    },
    {
      "inputs": [
        {
          "internalType": "address",
          "name": "spender",
          "type": "address"
        },
        {
          "internalType": "uint256",
          "name": "addedValue",
          "type": "uint256"
        }
      ],
      "name": "increaseAllowance",
      "outputs": [
        {
          "internalType": "bool",
          "name": "",
          "type": "bool"
        }
      ],
      "stateMutability": "nonpayable",
      "type": "function"
    },
    {
      "inputs": [
        {
          "internalType": "address",
          "name": "_vaultManager",
          "type": "address"
        },
        {
          "internalType": "address",
          "name": "_baseAsset",
          "type": "address"
        },
        {
          "internalType": "address",
          "name": "_baseAssetPriceFeed",
          "type": "address"
        },
        {
          "internalType": "address",
          "name": "_feeDistributor",
          "type": "address"
        }
      ],
      "name": "initialize",
      "outputs": [],
      "stateMutability": "nonpayable",
      "type": "function"
    },
    {
      "inputs": [
        {
          "internalType": "address",
          "name": "forwarder",
          "type": "address"
        }
      ],
      "name": "isTrustedForwarder",
      "outputs": [
        {
          "internalType": "bool",
          "name": "",
          "type": "bool"
        }
      ],
      "stateMutability": "view",
      "type": "function"
    },
    {
      "inputs": [],
      "name": "name",
      "outputs": [
        {
          "internalType": "string",
          "name": "",
          "type": "string"
        }
      ],
      "stateMutability": "view",
      "type": "function"
    },
    {
      "inputs": [],
      "name": "owner",
      "outputs": [
        {
          "internalType": "address",
          "name": "",
          "type": "address"
        }
      ],
      "stateMutability": "view",
      "type": "function"
    },
    {
      "inputs": [],
      "name": "pause",
      "outputs": [],
      "stateMutability": "nonpayable",
      "type": "function"
    },
    {
      "inputs": [],
      "name": "paused",
      "outputs": [
        {
          "internalType": "bool",
          "name": "",
          "type": "bool"
        }
      ],
      "stateMutability": "view",
      "type": "function"
    },
    {
      "inputs": [],
      "name": "pricePerShare",
      "outputs": [
        {
          "internalType": "uint256",
          "name": "",
          "type": "uint256"
        }
      ],
      "stateMutability": "view",
      "type": "function"
    },
    {
      "inputs": [],
      "name": "protocolCount",
      "outputs": [
        {
          "internalType": "uint256",
          "name": "",
          "type": "uint256"
        }
      ],
      "stateMutability": "view",
      "type": "function"
    },
    {
      "inputs": [
        {
          "internalType": "address",
          "name": "_from",
          "type": "address"
        },
        {
          "internalType": "address",
          "name": "_to",
          "type": "address"
        },
        {
          "internalType": "uint256",
          "name": "_value",
          "type": "uint256"
        },
        {
          "internalType": "uint256",
          "name": "_protocolFee",
          "type": "uint256"
        },
        {
          "internalType": "address",
          "name": "_network",
          "type": "address"
        },
        {
          "internalType": "uint256",
          "name": "_networkFee",
          "type": "uint256"
        }
      ],
      "name": "protocolPayment",
      "outputs": [],
      "stateMutability": "nonpayable",
      "type": "function"
    },
    {
      "inputs": [
        {
          "internalType": "address",
          "name": "_from",
          "type": "address"
        },
        {
          "internalType": "address",
          "name": "_to",
          "type": "address"
        },
        {
          "internalType": "uint256",
          "name": "_value",
          "type": "uint256"
        }
      ],
      "name": "protocolPayment",
      "outputs": [],
      "stateMutability": "nonpayable",
      "type": "function"
    },
    {
      "inputs": [
        {
          "internalType": "address",
          "name": "_from",
          "type": "address"
        },
        {
          "internalType": "address",
          "name": "_to",
          "type": "address"
        },
        {
          "internalType": "uint256",
          "name": "_value",
          "type": "uint256"
        },
        {
          "internalType": "uint256",
          "name": "_protocolFee",
          "type": "uint256"
        }
      ],
      "name": "protocolPayment",
      "outputs": [],
      "stateMutability": "nonpayable",
      "type": "function"
    },
    {
      "inputs": [
        {
          "internalType": "uint256",
          "name": "",
          "type": "uint256"
        }
      ],
      "name": "protocols",
      "outputs": [
        {
          "internalType": "address",
          "name": "",
          "type": "address"
        }
      ],
      "stateMutability": "view",
      "type": "function"
    },
    {
      "inputs": [
        {
          "internalType": "address",
          "name": "_protocol",
          "type": "address"
        }
      ],
      "name": "removeProtocol",
      "outputs": [],
      "stateMutability": "nonpayable",
      "type": "function"
    },
    {
      "inputs": [],
      "name": "renounceOwnership",
      "outputs": [],
      "stateMutability": "nonpayable",
      "type": "function"
    },
    {
      "inputs": [
        {
          "internalType": "address",
          "name": "_feeDistributor",
          "type": "address"
        }
      ],
      "name": "setFeeDistributor",
      "outputs": [],
      "stateMutability": "nonpayable",
      "type": "function"
    },
    {
      "inputs": [
        {
          "internalType": "address",
          "name": "_vaultManager",
          "type": "address"
        }
      ],
      "name": "setManager",
      "outputs": [],
      "stateMutability": "nonpayable",
      "type": "function"
    },
    {
      "inputs": [
        {
          "internalType": "address",
          "name": "_forwarder",
          "type": "address"
        }
      ],
      "name": "setTrustedForwarder",
      "outputs": [],
      "stateMutability": "nonpayable",
      "type": "function"
    },
    {
      "inputs": [
        {
          "internalType": "address",
          "name": "_asset",
          "type": "address"
        }
      ],
      "name": "supportsAsset",
      "outputs": [
        {
          "internalType": "bool",
          "name": "",
          "type": "bool"
        }
      ],
      "stateMutability": "view",
      "type": "function"
    },
    {
      "inputs": [],
      "name": "symbol",
      "outputs": [
        {
          "internalType": "string",
          "name": "",
          "type": "string"
        }
      ],
      "stateMutability": "view",
      "type": "function"
    },
    {
      "inputs": [
        {
          "internalType": "address",
          "name": "_asset",
          "type": "address"
        }
      ],
      "name": "totalAssetBalance",
      "outputs": [
        {
          "internalType": "uint256",
          "name": "",
          "type": "uint256"
        }
      ],
      "stateMutability": "view",
      "type": "function"
    },
    {
      "inputs": [],
      "name": "totalSupply",
      "outputs": [
        {
          "internalType": "uint256",
          "name": "",
          "type": "uint256"
        }
      ],
      "stateMutability": "view",
      "type": "function"
    },
    {
      "inputs": [],
      "name": "totalValue",
      "outputs": [
        {
          "internalType": "uint256",
          "name": "",
          "type": "uint256"
        }
      ],
      "stateMutability": "view",
      "type": "function"
    },
    {
      "inputs": [
        {
          "internalType": "address",
          "name": "recipient",
          "type": "address"
        },
        {
          "internalType": "uint256",
          "name": "amount",
          "type": "uint256"
        }
      ],
      "name": "transfer",
      "outputs": [
        {
          "internalType": "bool",
          "name": "",
          "type": "bool"
        }
      ],
      "stateMutability": "nonpayable",
      "type": "function"
    },
    {
      "inputs": [
        {
          "internalType": "address",
          "name": "sender",
          "type": "address"
        },
        {
          "internalType": "address",
          "name": "recipient",
          "type": "address"
        },
        {
          "internalType": "uint256",
          "name": "amount",
          "type": "uint256"
        }
      ],
      "name": "transferFrom",
      "outputs": [
        {
          "internalType": "bool",
          "name": "",
          "type": "bool"
        }
      ],
      "stateMutability": "nonpayable",
      "type": "function"
    },
    {
      "inputs": [
        {
          "internalType": "address",
          "name": "newOwner",
          "type": "address"
        }
      ],
      "name": "transferOwnership",
      "outputs": [],
      "stateMutability": "nonpayable",
      "type": "function"
    },
    {
      "inputs": [],
      "name": "trustedForwarder",
      "outputs": [
        {
          "internalType": "address",
          "name": "",
          "type": "address"
        }
      ],
      "stateMutability": "view",
      "type": "function"
    },
    {
      "inputs": [],
      "name": "unpause",
      "outputs": [],
      "stateMutability": "nonpayable",
      "type": "function"
    },
    {
      "inputs": [],
      "name": "vaultManager",
      "outputs": [
        {
          "internalType": "address",
          "name": "",
          "type": "address"
        }
      ],
      "stateMutability": "view",
      "type": "function"
    },
    {
      "inputs": [],
      "name": "versionRecipient",
      "outputs": [
        {
          "internalType": "string",
          "name": "",
          "type": "string"
        }
      ],
      "stateMutability": "pure",
      "type": "function"
    },
    {
      "inputs": [
        {
          "internalType": "address",
          "name": "_asset",
          "type": "address"
        },
        {
          "internalType": "uint256",
          "name": "_shares",
          "type": "uint256"
        }
      ],
      "name": "withdraw",
      "outputs": [],
      "stateMutability": "nonpayable",
      "type": "function"
    },
    {
      "inputs": [
        {
          "internalType": "address",
          "name": "_recipient",
          "type": "address"
        },
        {
          "internalType": "address",
          "name": "_asset",
          "type": "address"
        },
        {
          "internalType": "uint256",
          "name": "_shares",
          "type": "uint256"
        }
      ],
      "name": "withdrawTo",
      "outputs": [],
      "stateMutability": "nonpayable",
      "type": "function"
    }
  ],
  "transactionHash": "0x238d16a58345b79c1d047c08dc8c5d2f6241db8028890c93306f8a2b081ff760",
  "args": [],
  "numDeployments": 2,
  "solcInputHash": "7cc6d8c436abd662069fcd0d698bd109",
  "bytecode": "0x60806040523480156200001157600080fd5b50600054610100900460ff166200002f5760005460ff161562000039565b62000039620000de565b620000a15760405162461bcd60e51b815260206004820152602e60248201527f496e697469616c697a61626c653a20636f6e747261637420697320616c72656160448201526d191e481a5b9a5d1a585b1a5e995960921b606482015260840160405180910390fd5b600054610100900460ff16158015620000c4576000805461ffff19166101011790555b8015620000d7576000805461ff00191690555b5062000102565b6000620000f630620000fc60201b62001d101760201c565b15905090565b3b151590565b613a4d80620001126000396000f3fe608060405234801561001057600080fd5b50600436106102bb5760003560e01c80638456cb5911610182578063ccfc2e8d116100e9578063e2eed04f116100a2578063f2fde38b1161007c578063f2fde38b14610764578063f3fef3a314610777578063f8c8765e1461078a578063fcd6a25b1461079d57600080fd5b8063e2eed04f14610735578063e51303221461073e578063f213159c1461075157600080fd5b8063ccfc2e8d146106a8578063cdf456e1146106bb578063d0ebdbe7146106ce578063d4c3eea0146106e1578063da742228146106e9578063dd62ed3e146106fc57600080fd5b806395d89b411161013b57806395d89b411461062957806399530b0614610631578063a457c2d714610639578063a9059cbb1461064c578063aa388af61461065f578063c3b35a7e1461069557600080fd5b80638456cb59146105c65780638a4adf24146105ce5780638c396220146105e15780638d3a4af6146105f45780638da5cb5b146106055780638e3e580d1461061657600080fd5b806347e7ef24116102265780635c975abb116101df5780635c975abb1461055357806370a082311461055e578063715018a614610587578063771d4c281461058f57806379b2125f146105a25780637da0a877146105b557600080fd5b806347e7ef24146104c4578063486ff0cd146104d75780634bb846e1146104f85780635517575d1461050b578063572b6c051461051e578063597435cb1461054057600080fd5b806323b872dd1161027857806323b872dd146103665780632acada4d1461037957806330b8b2c61461038e578063313ce5671461049a57806339509351146104a95780633f4ba83a146104bc57600080fd5b806306fdde03146102c0578063095ea7b3146102de5780630d43e8ad1461030157806318160ddd1461032c57806318ff57681461033e5780631e377d3914610353575b600080fd5b6102c86107b0565b6040516102d591906133b3565b60405180910390f35b6102f16102ec3660046133fd565b610842565b60405190151581526020016102d5565b60fe54610314906001600160a01b031681565b6040516001600160a01b0390911681526020016102d5565b6036545b6040519081526020016102d5565b61035161034c366004613427565b610860565b005b610351610361366004613442565b6109d8565b6102f1610374366004613484565b610d85565b610381610e58565b6040516102d591906134c0565b61043e61039c366004613427565b6040805160c081018252600080825260208201819052918101829052606081018290526080810182905260a0810191909152506001600160a01b03908116600090815260ff6020818152604092839020835160c08101855281549095168552600181015491850191909152600281015492840192909252600390910154808216606084015261010081048216608084015262010000900416151560a082015290565b6040516102d59190600060c08201905060018060a01b038351168252602083015160208301526040830151604083015260ff606084015116606083015260ff608084015116608083015260a0830151151560a083015292915050565b604051601281526020016102d5565b6102f16104b73660046133fd565b610eba565b610351610f0e565b6103516104d23660046133fd565b610f61565b6040805180820190915260058152640322e322e360dc1b60208201526102c8565b610330610506366004613484565b610fa4565b610330610519366004613427565b610fb9565b6102f161052c366004613427565b6033546001600160a01b0391821691161490565b61033061054e366004613427565b610fc4565b60985460ff166102f1565b61033061056c366004613427565b6001600160a01b031660009081526034602052604090205490565b610351610feb565b61035161059d366004613427565b61103e565b6103516105b036600461350d565b6110da565b6033546001600160a01b0316610314565b6103516111a6565b60fc54610314906001600160a01b031681565b6103146105ef36600461356c565b6111f7565b60fd546001600160a01b0316610314565b6066546001600160a01b0316610314565b610351610624366004613484565b611222565b6102c86112ed565b6103306112fc565b6102f16106473660046133fd565b611331565b6102f161065a3660046133fd565b6113e8565b6102f161066d366004613427565b6001600160a01b0316600090815260ff60208190526040909120600301546201000090041690565b6103516106a3366004613484565b6113fc565b6103516106b6366004613427565b611439565b60fd54610314906001600160a01b031681565b6103516106dc366004613427565b6114a4565b61033061150f565b6103516106f7366004613427565b611519565b61033061070a366004613585565b6001600160a01b03918216600090815260356020908152604080832093909416825291909152205490565b61010154610330565b61035161074c366004613484565b611583565b61035161075f366004613484565b6116b4565b610351610772366004613427565b6116e7565b6103516107853660046133fd565b61179e565b6103516107983660046135b8565b6117d8565b6103516107ab366004613442565b611c45565b6060603780546107bf9061360c565b80601f01602080910402602001604051908101604052809291908181526020018280546107eb9061360c565b80156108385780601f1061080d57610100808354040283529160200191610838565b820191906000526020600020905b81548152906001019060200180831161081b57829003601f168201915b5050505050905090565b600061085661084f611d16565b8484611d20565b5060015b92915050565b610868611d16565b6001600160a01b03166108836066546001600160a01b031690565b6001600160a01b0316146108b25760405162461bcd60e51b81526004016108a990613641565b60405180910390fd5b6101015460005b6101015481101561091757826001600160a01b031661010182815481106108e2576108e2613676565b6000918252602090912001546001600160a01b0316141561090557809150610917565b8061090f816136a2565b9150506108b9565b50610101548110156109d4576101018054610934906001906136bd565b8154811061094457610944613676565b60009182526020909120015461010180546001600160a01b03909216918390811061097157610971613676565b9060005260206000200160006101000a8154816001600160a01b0302191690836001600160a01b031602179055506101018054806109b1576109b16136d4565b600082815260209020810160001990810180546001600160a01b03191690550190555b5050565b6109e0611d16565b6001600160a01b03166109fb6066546001600160a01b031690565b6001600160a01b031614610a215760405162461bcd60e51b81526004016108a990613641565b6000846001600160a01b031663313ce5676040518163ffffffff1660e01b815260040160206040518083038186803b158015610a5c57600080fd5b505afa158015610a70573d6000803e3d6000fd5b505050506040513d601f19601f82011682018060405250810190610a9491906136ea565b60ff1611610ad65760405162461bcd60e51b815260206004820152600f60248201526e21494e56414c49442861737365742960881b60448201526064016108a9565b6000836001600160a01b031663313ce5676040518163ffffffff1660e01b815260040160206040518083038186803b158015610b1157600080fd5b505afa158015610b25573d6000803e3d6000fd5b505050506040513d601f19601f82011682018060405250810190610b4991906136ea565b60ff1611610b8f5760405162461bcd60e51b815260206004820152601360248201527221494e56414c4944287072696365466565642960681b60448201526064016108a9565b6001600160a01b03848116600081815260ff602090815260409182902080546001600160a01b0319169488169490941784556002840186905560018401859055815163313ce56760e01b8152915163313ce567926004808201939291829003018186803b158015610bff57600080fd5b505afa158015610c13573d6000803e3d6000fd5b505050506040513d601f19601f82011682018060405250810190610c3791906136ea565b8160030160006101000a81548160ff021916908360ff160217905550836001600160a01b031663313ce5676040518163ffffffff1660e01b815260040160206040518083038186803b158015610c8c57600080fd5b505afa158015610ca0573d6000803e3d6000fd5b505050506040513d601f19601f82011682018060405250810190610cc491906136ea565b60038201805461ff00191661010060ff93841602179081905562010000900416610d4a5760038101805462ff000019166201000017905561010080546001810182556000919091527f45e010b9ae401e2eb71529478da8bd513a9bdc2d095a111e324f5b95c09ed87b0180546001600160a01b0387166001600160a01b03199091161790555b6040516001600160a01b038616907f06a94869c30cb7089f57f8d4a5ff251ac74a8c2bc361e7f91bda209898de8ead90600090a25050505050565b6000610d92848484611e44565b6001600160a01b038416600090815260356020526040812081610db3611d16565b6001600160a01b03166001600160a01b0316815260200190815260200160002054905082811015610e375760405162461bcd60e51b815260206004820152602860248201527f45524332303a207472616e7366657220616d6f756e74206578636565647320616044820152676c6c6f77616e636560c01b60648201526084016108a9565b610e4b85610e43611d16565b858403611d20565b60019150505b9392505050565b606061010080548060200260200160405190810160405280929190818152602001828054801561083857602002820191906000526020600020905b81546001600160a01b03168152600190910190602001808311610e93575050505050905090565b6000610856610ec7611d16565b848460356000610ed5611d16565b6001600160a01b03908116825260208083019390935260409182016000908120918b1681529252902054610f09919061370d565b611d20565b610f16611d16565b6001600160a01b0316610f316066546001600160a01b031690565b6001600160a01b031614610f575760405162461bcd60e51b81526004016108a990613641565b610f5f61200b565b565b600260ca541415610f845760405162461bcd60e51b81526004016108a990613725565b600260ca55610f9b610f94611d16565b83836120a4565b5050600160ca55565b6000610fb1848484612233565b949350505050565b600061085a82612639565b6001600160a01b03811660009081526034602052604081205461085a90612738565b612738565b610ff3611d16565b6001600160a01b031661100e6066546001600160a01b031690565b6001600160a01b0316146110345760405162461bcd60e51b81526004016108a990613641565b610f5f600061276a565b611046611d16565b6001600160a01b03166110616066546001600160a01b031690565b6001600160a01b0316146110875760405162461bcd60e51b81526004016108a990613641565b61010180546001810182556000919091527f109ea3cebb188b9c1b9fc5bb3920be60dfdc8699098dff92f3d80daaca7476890180546001600160a01b0319166001600160a01b0392909216919091179055565b600260ca5414156110fd5760405162461bcd60e51b81526004016108a990613725565b600260ca556000805b6101015481101561116c57610101818154811061112557611125613676565b6000918252602090912001546001600160a01b0316611142611d16565b6001600160a01b0316141561115a576001915061116c565b80611164816136a2565b915050611106565b508061118a5760405162461bcd60e51b81526004016108a99061375c565b6111988787878787876127bc565b5050600160ca555050505050565b6111ae611d16565b6001600160a01b03166111c96066546001600160a01b031690565b6001600160a01b0316146111ef5760405162461bcd60e51b81526004016108a990613641565b610f5f61289d565b610101818154811061120857600080fd5b6000918252602090912001546001600160a01b0316905081565b600260ca5414156112455760405162461bcd60e51b81526004016108a990613725565b600260ca556000805b610101548110156112b457610101818154811061126d5761126d613676565b6000918252602090912001546001600160a01b031661128a611d16565b6001600160a01b031614156112a257600191506112b4565b806112ac816136a2565b91505061124e565b50806112d25760405162461bcd60e51b81526004016108a99061375c565b6112e284848460008060006127bc565b5050600160ca555050565b6060603880546107bf9061360c565b60fd546001600160a01b0316600090815260ff6020819052604082206003015461132c91610fe69116600a61385f565b905090565b60008060356000611340611d16565b6001600160a01b03908116825260208083019390935260409182016000908120918816815292529020549050828110156113ca5760405162461bcd60e51b815260206004820152602560248201527f45524332303a2064656372656173656420616c6c6f77616e63652062656c6f77604482015264207a65726f60d81b60648201526084016108a9565b6113de6113d5611d16565b85858403611d20565b5060019392505050565b60006108566113f5611d16565b8484611e44565b600260ca54141561141f5760405162461bcd60e51b81526004016108a990613725565b600260ca5561142f838383612919565b5050600160ca5550565b611441611d16565b6001600160a01b031661145c6066546001600160a01b031690565b6001600160a01b0316146114825760405162461bcd60e51b81526004016108a990613641565b60fe80546001600160a01b0319166001600160a01b0392909216919091179055565b6114ac611d16565b6001600160a01b03166114c76066546001600160a01b031690565b6001600160a01b0316146114ed5760405162461bcd60e51b81526004016108a990613641565b60fc80546001600160a01b0319166001600160a01b0392909216919091179055565b600061132c612a97565b611521611d16565b6001600160a01b031661153c6066546001600160a01b031690565b6001600160a01b0316146115625760405162461bcd60e51b81526004016108a990613641565b603380546001600160a01b0319166001600160a01b03831617905550565b50565b6000805b610101548110156115ed5761010181815481106115a6576115a6613676565b6000918252602090912001546001600160a01b03166115c3611d16565b6001600160a01b031614156115db57600191506115ed565b806115e5816136a2565b915050611587565b508061160b5760405162461bcd60e51b81526004016108a99061375c565b6001600160a01b038316600090815260ff60208190526040909120600301546201000090041661164d5760405162461bcd60e51b81526004016108a99061386e565b6116616001600160a01b0384168584612b9b565b826001600160a01b0316846001600160a01b03167f4d0df46bea966973af88bd9f2ec263268a205e0a196a519fca0aded1b0525648846040516116a691815260200190565b60405180910390a350505050565b600260ca5414156116d75760405162461bcd60e51b81526004016108a990613725565b600260ca5561142f8383836120a4565b6116ef611d16565b6001600160a01b031661170a6066546001600160a01b031690565b6001600160a01b0316146117305760405162461bcd60e51b81526004016108a990613641565b6001600160a01b0381166117955760405162461bcd60e51b815260206004820152602660248201527f4f776e61626c653a206e6577206f776e657220697320746865207a65726f206160448201526564647265737360d01b60648201526084016108a9565b6115808161276a565b600260ca5414156117c15760405162461bcd60e51b81526004016108a990613725565b600260ca55610f9b6117d1611d16565b8383612919565b600054610100900460ff166117f35760005460ff16156117f7565b303b155b61185a5760405162461bcd60e51b815260206004820152602e60248201527f496e697469616c697a61626c653a20636f6e747261637420697320616c72656160448201526d191e481a5b9a5d1a585b1a5e995960921b60648201526084016108a9565b600054610100900460ff1615801561187c576000805461ffff19166101011790555b611884612c03565b61188c612c3a565b611894612c71565b6118e4604051806040016040528060118152602001704361736b205661756c742053686172657360781b81525060405180604001604052806005815260200164764341534b60d81b815250612ca0565b6000846001600160a01b031663313ce5676040518163ffffffff1660e01b815260040160206040518083038186803b15801561191f57600080fd5b505afa158015611933573d6000803e3d6000fd5b505050506040513d601f19601f8201168201806040525081019061195791906136ea565b60ff161161199d5760405162461bcd60e51b815260206004820152601360248201527221494e56414c4944286261736541737365742960681b60448201526064016108a9565b6000836001600160a01b031663313ce5676040518163ffffffff1660e01b815260040160206040518083038186803b1580156119d857600080fd5b505afa1580156119ec573d6000803e3d6000fd5b505050506040513d601f19601f82011682018060405250810190611a1091906136ea565b60ff1611611a605760405162461bcd60e51b815260206004820152601c60248201527f21494e56414c494428626173654173736574507269636546656564290000000060448201526064016108a9565b6001600160a01b03848116600081815260ff602090815260409182902080546001600160a01b031916948816949094178455815163313ce56760e01b8152915163313ce567926004808201939291829003018186803b158015611ac257600080fd5b505afa158015611ad6573d6000803e3d6000fd5b505050506040513d601f19601f82011682018060405250810190611afa91906136ea565b8160030160006101000a81548160ff021916908360ff160217905550836001600160a01b031663313ce5676040518163ffffffff1660e01b815260040160206040518083038186803b158015611b4f57600080fd5b505afa158015611b63573d6000803e3d6000fd5b505050506040513d601f19601f82011682018060405250810190611b8791906136ea565b600382018054600060019485018190556201000062ffff001990921661010060ff95909516850262ff00001916179190911790915581549283018255527f45e010b9ae401e2eb71529478da8bd513a9bdc2d095a111e324f5b95c09ed87b0180546001600160a01b03199081166001600160a01b0387811691821790935560fc8054831689851617905560fd80548316909117905560fe80549091169184169190911790558015611c3e576000805461ff00191690555b5050505050565b600260ca541415611c685760405162461bcd60e51b81526004016108a990613725565b600260ca556000805b61010154811015611cd7576101018181548110611c9057611c90613676565b6000918252602090912001546001600160a01b0316611cad611d16565b6001600160a01b03161415611cc55760019150611cd7565b80611ccf816136a2565b915050611c71565b5080611cf55760405162461bcd60e51b81526004016108a99061375c565b611d04858585856000806127bc565b5050600160ca55505050565b3b151590565b600061132c612cd9565b6001600160a01b038316611d825760405162461bcd60e51b8152602060048201526024808201527f45524332303a20617070726f76652066726f6d20746865207a65726f206164646044820152637265737360e01b60648201526084016108a9565b6001600160a01b038216611de35760405162461bcd60e51b815260206004820152602260248201527f45524332303a20617070726f766520746f20746865207a65726f206164647265604482015261737360f01b60648201526084016108a9565b6001600160a01b0383811660008181526035602090815260408083209487168084529482529182902085905590518481527f8c5be1e5ebec7d5bd14f71427d1e84f3dd0314c0f7b2291e5b200ac8c7c3b925910160405180910390a3505050565b6001600160a01b038316611ea85760405162461bcd60e51b815260206004820152602560248201527f45524332303a207472616e736665722066726f6d20746865207a65726f206164604482015264647265737360d81b60648201526084016108a9565b6001600160a01b038216611f0a5760405162461bcd60e51b815260206004820152602360248201527f45524332303a207472616e7366657220746f20746865207a65726f206164647260448201526265737360e81b60648201526084016108a9565b6001600160a01b03831660009081526034602052604090205481811015611f825760405162461bcd60e51b815260206004820152602660248201527f45524332303a207472616e7366657220616d6f756e7420657863656564732062604482015265616c616e636560d01b60648201526084016108a9565b6001600160a01b03808516600090815260346020526040808220858503905591851681529081208054849290611fb990849061370d565b92505081905550826001600160a01b0316846001600160a01b03167fddf252ad1be2c89b69c2b068fc378daa952ba7f163c4a11628f55a4df523b3ef846040516116a691815260200190565b50505050565b60985460ff166120545760405162461bcd60e51b815260206004820152601460248201527314185d5cd8589b194e881b9bdd081c185d5cd95960621b60448201526064016108a9565b6098805460ff191690557f5db9ee0a495bf2e6ff9c91a7834c1ba4fdd244a5e8aa4e537bd38aeae4b073aa612087611d16565b6040516001600160a01b03909116815260200160405180910390a1565b6001600160a01b038216600090815260ff6020819052604090912060030154620100009004166120e65760405162461bcd60e51b81526004016108a99061386e565b6000811161212e5760405162461bcd60e51b815260206004820152601560248201527421494e56414c4944286173736574416d6f756e742960581b60448201526064016108a9565b60fd5481906001600160a01b038481169116146121a6576001600160a01b038316600090815260ff60205260408120600181015490919061271090612173908661389b565b61217d91906138ba565b60fd549091506121a19086906001600160a01b031661219c84886136bd565b612233565b925050505b60006121b182612d0d565b90506121d06121be611d16565b6001600160a01b038616903086612d37565b6121da8582612d6f565b60408051848152602081018490529081018290526001600160a01b0380861691908716907fbef68d45f01f5e2c114616dc4840e7a543da6ec57afc5700e4be96056a899b4e906060015b60405180910390a35050505050565b6000826001600160a01b0316846001600160a01b0316141561228c5760405162461bcd60e51b815260206004820152601260248201527108525395905312510a199c9bdb505cdcd95d60721b60448201526064016108a9565b6001600160a01b038416600090815260ff6020819052604090912060030154620100009004166122fe5760405162461bcd60e51b815260206004820152601760248201527f214e4f545f414c4c4f5745442866726f6d41737365742900000000000000000060448201526064016108a9565b6001600160a01b038316600090815260ff6020819052604090912060030154620100009004166123685760405162461bcd60e51b8152602060048201526015602482015274214e4f545f414c4c4f57454428746f41737365742960581b60448201526064016108a9565b8161237557506000610e51565b6001600160a01b03808516600090815260ff6020526040808220548151633fabe5a360e21b815291519293169163feaf968c9160048082019260a092909190829003018186803b1580156123c857600080fd5b505afa1580156123dc573d6000803e3d6000fd5b505050506040513d601f19601f8201168201806040525081019061240091906138f6565b5050506001600160a01b03808716600090815260ff602052604090819020548151633fabe5a360e21b815291519395508594509091169163feaf968c9160048082019260a092909190829003018186803b15801561245d57600080fd5b505afa158015612471573d6000803e3d6000fd5b505050506040513d601f19601f8201168201806040525081019061249591906138f6565b5050506001600160a01b03808816600090815260ff60208190526040808320600390810154948d1684529220909101549295508593506101009283900481169290910416146125ae576001600160a01b038616600090815260ff6020819052604090912060030154612511918391610100810482169116612e4e565b6001600160a01b03808916600090815260ff60208190526040808320600390810154948c16845292209091015461255392869261010090910481169116612e4e565b6001600160a01b03808a16600090815260ff60208190526040808320600390810154948d168452922090910154612590928a929081169116612e4e565b61259a919061389b565b6125a491906138ba565b9350505050610e51565b6001600160a01b03808816600090815260ff60208190526040808320600390810154948b1684529220909101546125a492849286926125f8928b9290811691610100900416612e4e565b612602919061389b565b61260c91906138ba565b6001600160a01b038816600090815260ff6020819052604090912060030154610100810482169116612e4e565b60fc5460405163368317c160e21b81526001600160a01b038381166004830152600092169063da0c5f049060240160206040518083038186803b15801561267f57600080fd5b505afa158015612693573d6000803e3d6000fd5b505050506040513d601f19601f820116820180604052508101906126b79190613946565b6040516370a0823160e01b81523060048201526001600160a01b038416906370a082319060240160206040518083038186803b1580156126f657600080fd5b505afa15801561270a573d6000803e3d6000fd5b505050506040513d601f19601f8201168201806040525081019061272e9190613946565b61085a919061370d565b600061274360365490565b61274b575090565b603654612756612a97565b612760908461389b565b61085a91906138ba565b606680546001600160a01b038381166001600160a01b0319831681179093556040519116919082907f8be0079c531659141344cd1fd0a4f28419497f9722a3daafe3b4186f6b6457e090600090a35050565b60006127c785612d0d565b9050600084156127dd576127da85612d0d565b90505b600080841180156127f657506001600160a01b03851615155b156128075761280484612d0d565b90505b612812898985611e44565b81156128305760fe546128309089906001600160a01b031684611e44565b801561284157612841888683611e44565b60408051888152602081018890529081018490526001600160a01b03808a1691908b16907ffc8dd32b1cfbf2c565436049e9e556251a12304b0c3e624bc5e3b205692cf2dc9060600160405180910390a3505050505050505050565b60985460ff16156128e35760405162461bcd60e51b815260206004820152601060248201526f14185d5cd8589b194e881c185d5cd95960821b60448201526064016108a9565b6098805460ff191660011790557f62e78cea01bee320cd4e420270b5ea74000d11b0c9f74754ebdbfc544b05a258612087611d16565b6001600160a01b038216600090815260ff60208190526040909120600301546201000090041661295b5760405162461bcd60e51b81526004016108a99061386e565b600081116129a45760405162461bcd60e51b815260206004820152601660248201527521494e56414c494428736861726573416d6f756e742960501b60448201526064016108a9565b60006129af82612738565b90506129c26129bc611d16565b83612ebf565b60fd5481906001600160a01b03858116911614612a35576001600160a01b03808516600090815260ff6020526040902060fd549091612a0391168685612233565b91506000612710826001015484612a1a919061389b565b612a2491906138ba565b9050612a3081846136bd565b925050505b612a496001600160a01b0385168683612b9b565b60408051828152602081018490529081018490526001600160a01b0380861691908716907fc90b5405a6805d53680586ef15168b1d791e67ceebe68fa62eefdb81478763cc90606001612224565b600080805b61010054811015612b955760fd5461010080546001600160a01b039092169183908110612acb57612acb613676565b6000918252602090912001546001600160a01b03161415612b0c5760fd54612afb906001600160a01b0316612639565b612b05908361370d565b9150612b83565b612b766101008281548110612b2357612b23613676565b60009182526020909120015460fd5461010080546001600160a01b03938416939092169161219c919086908110612b5c57612b5c613676565b6000918252602090912001546001600160a01b0316612639565b612b80908361370d565b91505b80612b8d816136a2565b915050612a9c565b50919050565b6040516001600160a01b038316602482015260448101829052612bfe90849063a9059cbb60e01b906064015b60408051601f198184030181529190526020810180516001600160e01b03166001600160e01b03199093169290921790915261300d565b505050565b600054610100900460ff16612c2a5760405162461bcd60e51b81526004016108a99061395f565b612c326130df565b610f5f613106565b600054610100900460ff16612c615760405162461bcd60e51b81526004016108a99061395f565b612c696130df565b610f5f61313d565b600054610100900460ff16612c985760405162461bcd60e51b81526004016108a99061395f565b610f5f613170565b600054610100900460ff16612cc75760405162461bcd60e51b81526004016108a99061395f565b612ccf6130df565b6109d4828261319e565b600060143610801590612cf657506033546001600160a01b031633145b15612d08575060131936013560601c90565b503390565b600080612d18612a97565b1115612d2e57612d26612a97565b603654612756565b5090565b919050565b6040516001600160a01b03808516602483015283166044820152606481018290526120059085906323b872dd60e01b90608401612bc7565b6001600160a01b038216612dc55760405162461bcd60e51b815260206004820152601f60248201527f45524332303a206d696e7420746f20746865207a65726f20616464726573730060448201526064016108a9565b8060366000828254612dd7919061370d565b90915550506001600160a01b03821660009081526034602052604081208054839290612e0490849061370d565b90915550506040518181526001600160a01b038316906000907fddf252ad1be2c89b69c2b068fc378daa952ba7f163c4a11628f55a4df523b3ef9060200160405180910390a35050565b60008160ff168360ff161015612e8757612e6883836139aa565b612e769060ff16600a6139cd565b612e80908561389b565b9050610e51565b8160ff168360ff161115612eb757612e9f82846139aa565b612ead9060ff16600a6139cd565b612e8090856138ba565b509192915050565b6001600160a01b038216612f1f5760405162461bcd60e51b815260206004820152602160248201527f45524332303a206275726e2066726f6d20746865207a65726f206164647265736044820152607360f81b60648201526084016108a9565b6001600160a01b03821660009081526034602052604090205481811015612f935760405162461bcd60e51b815260206004820152602260248201527f45524332303a206275726e20616d6f756e7420657863656564732062616c616e604482015261636560f01b60648201526084016108a9565b6001600160a01b0383166000908152603460205260408120838303905560368054849290612fc29084906136bd565b90915550506040518281526000906001600160a01b038516907fddf252ad1be2c89b69c2b068fc378daa952ba7f163c4a11628f55a4df523b3ef9060200160405180910390a3505050565b6000613062826040518060400160405280602081526020017f5361666545524332303a206c6f772d6c6576656c2063616c6c206661696c6564815250856001600160a01b03166131ec9092919063ffffffff16565b805190915015612bfe578080602001905181019061308091906139d9565b612bfe5760405162461bcd60e51b815260206004820152602a60248201527f5361666545524332303a204552433230206f7065726174696f6e20646964206e6044820152691bdd081cdd58d8d9595960b21b60648201526084016108a9565b600054610100900460ff16610f5f5760405162461bcd60e51b81526004016108a99061395f565b600054610100900460ff1661312d5760405162461bcd60e51b81526004016108a99061395f565b610f5f613138611d16565b61276a565b600054610100900460ff166131645760405162461bcd60e51b81526004016108a99061395f565b6098805460ff19169055565b600054610100900460ff166131975760405162461bcd60e51b81526004016108a99061395f565b600160ca55565b600054610100900460ff166131c55760405162461bcd60e51b81526004016108a99061395f565b81516131d89060379060208501906132f7565b508051612bfe9060389060208401906132f7565b6060610fb1848460008585843b6132455760405162461bcd60e51b815260206004820152601d60248201527f416464726573733a2063616c6c20746f206e6f6e2d636f6e747261637400000060448201526064016108a9565b600080866001600160a01b0316858760405161326191906139fb565b60006040518083038185875af1925050503d806000811461329e576040519150601f19603f3d011682016040523d82523d6000602084013e6132a3565b606091505b50915091506132b38282866132be565b979650505050505050565b606083156132cd575081610e51565b8251156132dd5782518084602001fd5b8160405162461bcd60e51b81526004016108a991906133b3565b8280546133039061360c565b90600052602060002090601f016020900481019282613325576000855561336b565b82601f1061333e57805160ff191683800117855561336b565b8280016001018555821561336b579182015b8281111561336b578251825591602001919060010190613350565b50612d2e9291505b80821115612d2e5760008155600101613373565b60005b838110156133a257818101518382015260200161338a565b838111156120055750506000910152565b60208152600082518060208401526133d2816040850160208701613387565b601f01601f19169190910160400192915050565b80356001600160a01b0381168114612d3257600080fd5b6000806040838503121561341057600080fd5b613419836133e6565b946020939093013593505050565b60006020828403121561343957600080fd5b610e51826133e6565b6000806000806080858703121561345857600080fd5b613461856133e6565b935061346f602086016133e6565b93969395505050506040820135916060013590565b60008060006060848603121561349957600080fd5b6134a2846133e6565b92506134b0602085016133e6565b9150604084013590509250925092565b6020808252825182820181905260009190848201906040850190845b818110156135015783516001600160a01b0316835292840192918401916001016134dc565b50909695505050505050565b60008060008060008060c0878903121561352657600080fd5b61352f876133e6565b955061353d602088016133e6565b94506040870135935060608701359250613559608088016133e6565b915060a087013590509295509295509295565b60006020828403121561357e57600080fd5b5035919050565b6000806040838503121561359857600080fd5b6135a1836133e6565b91506135af602084016133e6565b90509250929050565b600080600080608085870312156135ce57600080fd5b6135d7856133e6565b93506135e5602086016133e6565b92506135f3604086016133e6565b9150613601606086016133e6565b905092959194509250565b600181811c9082168061362057607f821691505b60208210811415612b9557634e487b7160e01b600052602260045260246000fd5b6020808252818101527f4f776e61626c653a2063616c6c6572206973206e6f7420746865206f776e6572604082015260600190565b634e487b7160e01b600052603260045260246000fd5b634e487b7160e01b600052601160045260246000fd5b60006000198214156136b6576136b661368c565b5060010190565b6000828210156136cf576136cf61368c565b500390565b634e487b7160e01b600052603160045260246000fd5b6000602082840312156136fc57600080fd5b815160ff81168114610e5157600080fd5b600082198211156137205761372061368c565b500190565b6020808252601f908201527f5265656e7472616e637947756172643a207265656e7472616e742063616c6c00604082015260600190565b60208082526005908201526404282aaa8960db1b604082015260600190565b600181815b808511156137b657816000190482111561379c5761379c61368c565b808516156137a957918102915b93841c9390800290613780565b509250929050565b6000826137cd5750600161085a565b816137da5750600061085a565b81600181146137f057600281146137fa57613816565b600191505061085a565b60ff84111561380b5761380b61368c565b50506001821b61085a565b5060208310610133831016604e8410600b8410161715613839575081810a61085a565b613843838361377b565b80600019048211156138575761385761368c565b029392505050565b6000610e5160ff8416836137be565b602080825260139082015272214e4f545f414c4c4f5745442861737365742960681b604082015260600190565b60008160001904831182151516156138b5576138b561368c565b500290565b6000826138d757634e487b7160e01b600052601260045260246000fd5b500490565b805169ffffffffffffffffffff81168114612d3257600080fd5b600080600080600060a0868803121561390e57600080fd5b613917866138dc565b945060208601519350604086015192506060860151915061393a608087016138dc565b90509295509295909350565b60006020828403121561395857600080fd5b5051919050565b6020808252602b908201527f496e697469616c697a61626c653a20636f6e7472616374206973206e6f74206960408201526a6e697469616c697a696e6760a81b606082015260800190565b600060ff821660ff8416808210156139c4576139c461368c565b90039392505050565b6000610e5183836137be565b6000602082840312156139eb57600080fd5b81518015158114610e5157600080fd5b60008251613a0d818460208701613387565b919091019291505056fea26469706673582212209b1976f0213bea51115b3c58906eaa0465f037da76eb170f2ffe5d72239e79dc64736f6c63430008090033",
  "devdoc": {
    "kind": "dev",
    "methods": {
      "allocateToStrategy(address,address,uint256)": {
        "details": "Send an amount of asset to a strategy",
        "params": {
          "_asset": "Address of asset",
          "_assetAmount": "Amount of asset to send"
        }
      },
      "allowAsset(address,address,uint256,uint256)": {
        "details": "Add an allowed asset to be deposited into the vault",
        "params": {
          "_asset": "Address of new ERC20 asset",
          "_priceFeed": "Address of a chainlink-compatible price oracle for the asset",
          "_slippageBps": "Slippage basis points to use when depositing/withdrawing this asset"
        }
      },
      "allowance(address,address)": {
        "details": "See {IERC20-allowance}."
      },
      "approve(address,uint256)": {
        "details": "See {IERC20-approve}. Requirements: - `spender` cannot be the zero address."
      },
      "balanceOf(address)": {
        "details": "See {IERC20-balanceOf}."
      },
      "constructor": {
        "custom:oz-upgrades-unsafe-allow": "constructor"
      },
      "currentValueOf(address)": {
        "details": "Get current vault value of `_address` denominated in `baseAsset`",
        "params": {
          "_address": "Address to check"
        }
      },
      "decimals()": {
        "details": "Returns the number of decimals used to get its user representation. For example, if `decimals` equals `2`, a balance of `505` tokens should be displayed to a user as `5.05` (`505 / 10 ** 2`). Tokens usually opt for a value of 18, imitating the relationship between Ether and Wei. This is the value {ERC20} uses, unless this function is overridden; NOTE: This information is only used for _display_ purposes: it in no way affects any of the arithmetic of the contract, including {IERC20-balanceOf} and {IERC20-transfer}."
      },
      "decreaseAllowance(address,uint256)": {
        "details": "Atomically decreases the allowance granted to `spender` by the caller. This is an alternative to {approve} that can be used as a mitigation for problems described in {IERC20-approve}. Emits an {Approval} event indicating the updated allowance. Requirements: - `spender` cannot be the zero address. - `spender` must have allowance for the caller of at least `subtractedValue`."
      },
      "deposit(address,uint256)": {
        "details": "Deposit an amount of `_asset` into the vault and credit the equal value of `baseAsset`",
        "params": {
          "_asset": "Address of incoming asset",
          "_assetAmount": "Amount of asset to deposit"
        }
      },
      "depositTo(address,address,uint256)": {
        "details": "Deposit an amount of `_asset` into the vault and credit the equal value of `baseAsset`",
        "params": {
          "_asset": "Address of incoming asset",
          "_assetAmount": "Amount of asset to deposit",
          "_to": "Recipient of funds"
        }
      },
      "getAllAssets()": {
        "details": "Get all the assets supported by the vault."
      },
      "getAsset(address)": {
        "details": "Get asset details",
        "params": {
          "_asset": "Asset address"
        },
        "returns": {
          "_0": "Asset Asset details"
        }
      },
      "getBaseAsset()": {
        "details": "Get base asset of vault."
      },
      "increaseAllowance(address,uint256)": {
        "details": "Atomically increases the allowance granted to `spender` by the caller. This is an alternative to {approve} that can be used as a mitigation for problems described in {IERC20-approve}. Emits an {Approval} event indicating the updated allowance. Requirements: - `spender` cannot be the zero address."
      },
      "name()": {
        "details": "Returns the name of the token."
      },
      "owner()": {
        "details": "Returns the address of the current owner."
      },
      "paused()": {
        "details": "Returns true if the contract is paused, and false otherwise."
      },
      "pricePerShare()": {
        "details": "Get current vault value a vault share"
      },
      "protocolPayment(address,address,uint256)": {
        "details": "Pay `_value` of `baseAsset` from `_from` to `_to` initiated by an authorized protocol",
        "params": {
          "_from": "From address",
          "_to": "To address",
          "_value": "Amount of baseAsset value to transfer"
        }
      },
      "protocolPayment(address,address,uint256,uint256)": {
        "details": "Pay `_value` of `baseAsset` from `_from` to `_to` initiated by an authorized protocol",
        "params": {
          "_from": "From address",
          "_protocolFee": "Protocol fee to deduct from `_value`",
          "_to": "To address",
          "_value": "Amount of baseAsset value to transfer"
        }
      },
      "protocolPayment(address,address,uint256,uint256,address,uint256)": {
        "details": "Pay `_value` of `baseAsset` from `_from` to `_to` initiated by an authorized protocol",
        "params": {
          "_from": "From address",
          "_network": "Address of network fee collector",
          "_networkFee": "Network fee to deduct from `_value`",
          "_protocolFee": "Protocol fee to deduct from `_value`",
          "_to": "To address",
          "_value": "Amount of baseAsset value to transfer"
        }
      },
      "renounceOwnership()": {
        "details": "Leaves the contract without owner. It will not be possible to call `onlyOwner` functions anymore. Can only be called by the current owner. NOTE: Renouncing ownership will leave the contract without an owner, thereby removing any functionality that is only available to the owner."
      },
      "supportsAsset(address)": {
        "details": "Check if the vault supports an asset",
        "params": {
          "_asset": "Asset address"
        },
        "returns": {
          "_0": "bool `true` if asset supported, `false` otherwise"
        }
      },
      "symbol()": {
        "details": "Returns the symbol of the token, usually a shorter version of the name."
      },
      "totalAssetBalance(address)": {
        "details": "Get total amount of an asset held in vault and managed by admin",
        "params": {
          "_asset": "Address of asset"
        }
      },
      "totalSupply()": {
        "details": "See {IERC20-totalSupply}."
      },
      "totalValue()": {
        "details": "Get total value in vault and managed by admin - denominated in `baseAsset`"
      },
      "transfer(address,uint256)": {
        "details": "See {IERC20-transfer}. Requirements: - `recipient` cannot be the zero address. - the caller must have a balance of at least `amount`."
      },
      "transferFrom(address,address,uint256)": {
        "details": "See {IERC20-transferFrom}. Emits an {Approval} event indicating the updated allowance. This is not required by the EIP. See the note at the beginning of {ERC20}. Requirements: - `sender` and `recipient` cannot be the zero address. - `sender` must have a balance of at least `amount`. - the caller must have allowance for ``sender``'s tokens of at least `amount`."
      },
      "transferOwnership(address)": {
        "details": "Transfers ownership of the contract to a new account (`newOwner`). Can only be called by the current owner."
      },
      "withdraw(address,uint256)": {
        "details": "Withdraw an amount of shares from the vault in the form of `_asset`",
        "params": {
          "_asset": "Address of outgoing asset",
          "_shares": "Amount of shares to withdraw"
        }
      },
      "withdrawTo(address,address,uint256)": {
        "details": "Withdraw an amount of shares from the vault in the form of `_asset`",
        "params": {
          "_asset": "Address of outgoing asset",
          "_recipient": "Recipient who will receive the withdrawn assets",
          "_shares": "Amount of shares to withdraw"
        }
      }
    },
    "version": 1
  },
  "userdoc": {
    "kind": "user",
    "methods": {
      "isTrustedForwarder(address)": {
        "notice": "return if the forwarder is trusted to forward relayed transactions to us. the forwarder is required to verify the sender's signature, and verify the call is not a replay."
      }
    },
    "notice": "CaskVault is where: - the approved asset list lives - users deposit/withdraw approved assets which results in a mint/burn of the vault token - a minimum reserve rate is enforced - vault manager can tell the vault to send unallocated assets to strategies - approved protocols can process a payment between parties - one can query the value of all unallocated assets",
    "version": 1
  },
  "storageLayout": {
    "storage": [
      {
        "astId": 327,
        "contract": "contracts/vault/CaskVault.sol:CaskVault",
        "label": "_initialized",
        "offset": 0,
        "slot": "0",
        "type": "t_bool"
      },
      {
        "astId": 330,
        "contract": "contracts/vault/CaskVault.sol:CaskVault",
        "label": "_initializing",
        "offset": 1,
        "slot": "0",
        "type": "t_bool"
      },
      {
        "astId": 2551,
        "contract": "contracts/vault/CaskVault.sol:CaskVault",
        "label": "__gap",
        "offset": 0,
        "slot": "1",
        "type": "t_array(t_uint256)50_storage"
      },
      {
        "astId": 72,
        "contract": "contracts/vault/CaskVault.sol:CaskVault",
        "label": "_trustedForwarder",
        "offset": 0,
        "slot": "51",
        "type": "t_address"
      },
      {
        "astId": 584,
        "contract": "contracts/vault/CaskVault.sol:CaskVault",
        "label": "_balances",
        "offset": 0,
        "slot": "52",
        "type": "t_mapping(t_address,t_uint256)"
      },
      {
        "astId": 590,
        "contract": "contracts/vault/CaskVault.sol:CaskVault",
        "label": "_allowances",
        "offset": 0,
        "slot": "53",
        "type": "t_mapping(t_address,t_mapping(t_address,t_uint256))"
      },
      {
        "astId": 592,
        "contract": "contracts/vault/CaskVault.sol:CaskVault",
        "label": "_totalSupply",
        "offset": 0,
        "slot": "54",
        "type": "t_uint256"
      },
      {
        "astId": 594,
        "contract": "contracts/vault/CaskVault.sol:CaskVault",
        "label": "_name",
        "offset": 0,
        "slot": "55",
        "type": "t_string_storage"
      },
      {
        "astId": 596,
        "contract": "contracts/vault/CaskVault.sol:CaskVault",
        "label": "_symbol",
        "offset": 0,
        "slot": "56",
        "type": "t_string_storage"
      },
      {
        "astId": 1137,
        "contract": "contracts/vault/CaskVault.sol:CaskVault",
        "label": "__gap",
        "offset": 0,
        "slot": "57",
        "type": "t_array(t_uint256)45_storage"
      },
      {
        "astId": 205,
        "contract": "contracts/vault/CaskVault.sol:CaskVault",
        "label": "_owner",
        "offset": 0,
        "slot": "102",
        "type": "t_address"
      },
      {
        "astId": 319,
        "contract": "contracts/vault/CaskVault.sol:CaskVault",
        "label": "__gap",
        "offset": 0,
        "slot": "103",
        "type": "t_array(t_uint256)49_storage"
      },
      {
        "astId": 415,
        "contract": "contracts/vault/CaskVault.sol:CaskVault",
        "label": "_paused",
        "offset": 0,
        "slot": "152",
        "type": "t_bool"
      },
      {
        "astId": 506,
        "contract": "contracts/vault/CaskVault.sol:CaskVault",
        "label": "__gap",
        "offset": 0,
        "slot": "153",
        "type": "t_array(t_uint256)49_storage"
      },
      {
        "astId": 521,
        "contract": "contracts/vault/CaskVault.sol:CaskVault",
        "label": "_status",
        "offset": 0,
        "slot": "202",
        "type": "t_uint256"
      },
      {
        "astId": 564,
        "contract": "contracts/vault/CaskVault.sol:CaskVault",
        "label": "__gap",
        "offset": 0,
        "slot": "203",
        "type": "t_array(t_uint256)49_storage"
      },
      {
        "astId": 13489,
        "contract": "contracts/vault/CaskVault.sol:CaskVault",
        "label": "vaultManager",
        "offset": 0,
        "slot": "252",
        "type": "t_address"
      },
      {
        "astId": 13491,
        "contract": "contracts/vault/CaskVault.sol:CaskVault",
        "label": "baseAsset",
        "offset": 0,
        "slot": "253",
        "type": "t_address"
      },
      {
        "astId": 13493,
        "contract": "contracts/vault/CaskVault.sol:CaskVault",
        "label": "feeDistributor",
        "offset": 0,
        "slot": "254",
        "type": "t_address"
      },
      {
        "astId": 13498,
        "contract": "contracts/vault/CaskVault.sol:CaskVault",
        "label": "assets",
        "offset": 0,
        "slot": "255",
        "type": "t_mapping(t_address,t_struct(Asset)8108_storage)"
      },
      {
        "astId": 13501,
        "contract": "contracts/vault/CaskVault.sol:CaskVault",
        "label": "allAssets",
        "offset": 0,
        "slot": "256",
        "type": "t_array(t_address)dyn_storage"
      },
      {
        "astId": 13504,
        "contract": "contracts/vault/CaskVault.sol:CaskVault",
        "label": "protocols",
        "offset": 0,
        "slot": "257",
        "type": "t_array(t_address)dyn_storage"
      }
    ],
    "types": {
      "t_address": {
        "encoding": "inplace",
        "label": "address",
        "numberOfBytes": "20"
      },
      "t_array(t_address)dyn_storage": {
        "base": "t_address",
        "encoding": "dynamic_array",
        "label": "address[]",
        "numberOfBytes": "32"
      },
      "t_array(t_uint256)45_storage": {
        "base": "t_uint256",
        "encoding": "inplace",
        "label": "uint256[45]",
        "numberOfBytes": "1440"
      },
      "t_array(t_uint256)49_storage": {
        "base": "t_uint256",
        "encoding": "inplace",
        "label": "uint256[49]",
        "numberOfBytes": "1568"
      },
      "t_array(t_uint256)50_storage": {
        "base": "t_uint256",
        "encoding": "inplace",
        "label": "uint256[50]",
        "numberOfBytes": "1600"
      },
      "t_bool": {
        "encoding": "inplace",
        "label": "bool",
        "numberOfBytes": "1"
      },
      "t_mapping(t_address,t_mapping(t_address,t_uint256))": {
        "encoding": "mapping",
        "key": "t_address",
        "label": "mapping(address => mapping(address => uint256))",
        "numberOfBytes": "32",
        "value": "t_mapping(t_address,t_uint256)"
      },
      "t_mapping(t_address,t_struct(Asset)8108_storage)": {
        "encoding": "mapping",
        "key": "t_address",
        "label": "mapping(address => struct ICaskVault.Asset)",
        "numberOfBytes": "32",
        "value": "t_struct(Asset)8108_storage"
      },
      "t_mapping(t_address,t_uint256)": {
        "encoding": "mapping",
        "key": "t_address",
        "label": "mapping(address => uint256)",
        "numberOfBytes": "32",
        "value": "t_uint256"
      },
      "t_string_storage": {
        "encoding": "bytes",
        "label": "string",
        "numberOfBytes": "32"
      },
      "t_struct(Asset)8108_storage": {
        "encoding": "inplace",
        "label": "struct ICaskVault.Asset",
        "members": [
          {
            "astId": 8097,
            "contract": "contracts/vault/CaskVault.sol:CaskVault",
            "label": "priceFeed",
            "offset": 0,
            "slot": "0",
            "type": "t_address"
          },
          {
            "astId": 8099,
            "contract": "contracts/vault/CaskVault.sol:CaskVault",
            "label": "slippageBps",
            "offset": 0,
            "slot": "1",
            "type": "t_uint256"
          },
          {
            "astId": 8101,
            "contract": "contracts/vault/CaskVault.sol:CaskVault",
            "label": "depositLimit",
            "offset": 0,
            "slot": "2",
            "type": "t_uint256"
          },
          {
            "astId": 8103,
            "contract": "contracts/vault/CaskVault.sol:CaskVault",
            "label": "assetDecimals",
            "offset": 0,
            "slot": "3",
            "type": "t_uint8"
          },
          {
            "astId": 8105,
            "contract": "contracts/vault/CaskVault.sol:CaskVault",
            "label": "priceFeedDecimals",
            "offset": 1,
            "slot": "3",
            "type": "t_uint8"
          },
          {
            "astId": 8107,
            "contract": "contracts/vault/CaskVault.sol:CaskVault",
            "label": "allowed",
            "offset": 2,
            "slot": "3",
            "type": "t_bool"
          }
        ],
        "numberOfBytes": "128"
      },
      "t_uint256": {
        "encoding": "inplace",
        "label": "uint256",
        "numberOfBytes": "32"
      },
      "t_uint8": {
        "encoding": "inplace",
        "label": "uint8",
        "numberOfBytes": "1"
      }
    }
  }
}