{
  "address": "0x031FcD5848cd7a302D59D3099BC8DfDf23B56a00",
  "abi": [
    {
      "inputs": [],
      "stateMutability": "nonpayable",
      "type": "constructor"
    },
    {
      "anonymous": false,
      "inputs": [
        {
          "indexed": true,
          "internalType": "address",
          "name": "previousOwner",
          "type": "address"
        },
        {
          "indexed": true,
          "internalType": "address",
          "name": "newOwner",
          "type": "address"
        }
      ],
      "name": "OwnershipTransferred",
      "type": "event"
    },
    {
      "anonymous": false,
      "inputs": [
        {
          "indexed": false,
          "internalType": "address",
          "name": "account",
          "type": "address"
        }
      ],
      "name": "Paused",
      "type": "event"
    },
    {
      "anonymous": false,
      "inputs": [
        {
          "indexed": true,
          "internalType": "address",
          "name": "provider",
          "type": "address"
        },
        {
          "indexed": true,
          "internalType": "uint32",
          "name": "planId",
          "type": "uint32"
        }
      ],
      "name": "PlanDisabled",
      "type": "event"
    },
    {
      "anonymous": false,
      "inputs": [
        {
          "indexed": true,
          "internalType": "address",
          "name": "provider",
          "type": "address"
        },
        {
          "indexed": true,
          "internalType": "uint32",
          "name": "planId",
          "type": "uint32"
        },
        {
          "indexed": false,
          "internalType": "uint32",
          "name": "eolAt",
          "type": "uint32"
        }
      ],
      "name": "PlanEOL",
      "type": "event"
    },
    {
      "anonymous": false,
      "inputs": [
        {
          "indexed": true,
          "internalType": "address",
          "name": "provider",
          "type": "address"
        },
        {
          "indexed": true,
          "internalType": "uint32",
          "name": "planId",
          "type": "uint32"
        }
      ],
      "name": "PlanEnabled",
      "type": "event"
    },
    {
      "anonymous": false,
      "inputs": [
        {
          "indexed": false,
          "internalType": "address",
          "name": "account",
          "type": "address"
        }
      ],
      "name": "Unpaused",
      "type": "event"
    },
    {
      "inputs": [
        {
          "internalType": "address",
          "name": "_provider",
          "type": "address"
        },
        {
          "internalType": "uint32",
          "name": "_planId",
          "type": "uint32"
        },
        {
          "internalType": "uint32",
          "name": "_planPeriod",
          "type": "uint32"
        },
        {
          "internalType": "uint32",
          "name": "_subscriptionCreatedAt",
          "type": "uint32"
        },
        {
          "internalType": "bytes32",
          "name": "_discountId",
          "type": "bytes32"
        },
        {
          "internalType": "bytes32",
          "name": "_discountData",
          "type": "bytes32"
        }
      ],
      "name": "consumeDiscount",
      "outputs": [
        {
          "internalType": "bool",
          "name": "",
          "type": "bool"
        }
      ],
      "stateMutability": "nonpayable",
      "type": "function"
    },
    {
      "inputs": [
        {
          "internalType": "uint32",
          "name": "_planId",
          "type": "uint32"
        }
      ],
      "name": "disablePlan",
      "outputs": [],
      "stateMutability": "nonpayable",
      "type": "function"
    },
    {
      "inputs": [
        {
          "internalType": "uint32",
          "name": "_planId",
          "type": "uint32"
        }
      ],
      "name": "enablePlan",
      "outputs": [],
      "stateMutability": "nonpayable",
      "type": "function"
    },
    {
      "inputs": [
        {
          "internalType": "address",
          "name": "_provider",
          "type": "address"
        },
        {
          "internalType": "uint32",
          "name": "_planId",
          "type": "uint32"
        }
      ],
      "name": "getPlanEOL",
      "outputs": [
        {
          "internalType": "uint32",
          "name": "",
          "type": "uint32"
        }
      ],
      "stateMutability": "view",
      "type": "function"
    },
    {
      "inputs": [
        {
          "internalType": "address",
          "name": "_provider",
          "type": "address"
        },
        {
          "internalType": "uint32",
          "name": "_planId",
          "type": "uint32"
        }
      ],
      "name": "getPlanStatus",
      "outputs": [
        {
          "internalType": "enum ICaskSubscriptionPlans.PlanStatus",
          "name": "",
          "type": "uint8"
        }
      ],
      "stateMutability": "view",
      "type": "function"
    },
    {
      "inputs": [
        {
          "internalType": "address",
          "name": "_provider",
          "type": "address"
        }
      ],
      "name": "getProviderProfile",
      "outputs": [
        {
          "components": [
            {
              "internalType": "address",
              "name": "paymentAddress",
              "type": "address"
            },
            {
              "internalType": "string",
              "name": "cid",
              "type": "string"
            }
          ],
          "internalType": "struct ICaskSubscriptionPlans.Provider",
          "name": "",
          "type": "tuple"
        }
      ],
      "stateMutability": "view",
      "type": "function"
    },
    {
      "inputs": [],
      "name": "initialize",
      "outputs": [],
      "stateMutability": "nonpayable",
      "type": "function"
    },
    {
      "inputs": [
        {
          "internalType": "uint32",
          "name": "_planId",
          "type": "uint32"
        },
        {
          "internalType": "uint32",
          "name": "_eolAt",
          "type": "uint32"
        }
      ],
      "name": "killPlan",
      "outputs": [],
      "stateMutability": "nonpayable",
      "type": "function"
    },
    {
      "inputs": [],
      "name": "owner",
      "outputs": [
        {
          "internalType": "address",
          "name": "",
          "type": "address"
        }
      ],
      "stateMutability": "view",
      "type": "function"
    },
    {
      "inputs": [],
      "name": "pause",
      "outputs": [],
      "stateMutability": "nonpayable",
      "type": "function"
    },
    {
      "inputs": [],
      "name": "paused",
      "outputs": [
        {
          "internalType": "bool",
          "name": "",
          "type": "bool"
        }
      ],
      "stateMutability": "view",
      "type": "function"
    },
    {
      "inputs": [],
      "name": "renounceOwnership",
      "outputs": [],
      "stateMutability": "nonpayable",
      "type": "function"
    },
    {
      "inputs": [
        {
          "internalType": "address",
          "name": "_subscriptionManager",
          "type": "address"
        }
      ],
      "name": "setManager",
      "outputs": [],
      "stateMutability": "nonpayable",
      "type": "function"
    },
    {
      "inputs": [
        {
          "internalType": "address",
          "name": "_paymentAddress",
          "type": "address"
        },
        {
          "internalType": "string",
          "name": "_cid",
          "type": "string"
        }
      ],
      "name": "setProviderProfile",
      "outputs": [],
      "stateMutability": "nonpayable",
      "type": "function"
    },
    {
      "inputs": [],
      "name": "subscriptionManager",
      "outputs": [
        {
          "internalType": "address",
          "name": "",
          "type": "address"
        }
      ],
      "stateMutability": "view",
      "type": "function"
    },
    {
      "inputs": [
        {
          "internalType": "address",
          "name": "newOwner",
          "type": "address"
        }
      ],
      "name": "transferOwnership",
      "outputs": [],
      "stateMutability": "nonpayable",
      "type": "function"
    },
    {
      "inputs": [],
      "name": "unpause",
      "outputs": [],
      "stateMutability": "nonpayable",
      "type": "function"
    },
    {
      "inputs": [
        {
          "internalType": "address",
          "name": "_provider",
          "type": "address"
        },
        {
          "internalType": "uint32",
          "name": "_planId",
          "type": "uint32"
        },
        {
          "internalType": "bytes32",
          "name": "_discountId",
          "type": "bytes32"
        },
        {
          "internalType": "bytes32",
          "name": "_discountData",
          "type": "bytes32"
        },
        {
          "internalType": "bytes32",
          "name": "_merkleRoot",
          "type": "bytes32"
        },
        {
          "internalType": "bytes32[]",
          "name": "_merkleProof",
          "type": "bytes32[]"
        }
      ],
      "name": "verifyDiscount",
      "outputs": [
        {
          "internalType": "bool",
          "name": "",
          "type": "bool"
        }
      ],
      "stateMutability": "view",
      "type": "function"
    },
    {
      "inputs": [
        {
          "internalType": "bytes32",
          "name": "_planData",
          "type": "bytes32"
        },
        {
          "internalType": "bytes32",
          "name": "_merkleRoot",
          "type": "bytes32"
        },
        {
          "internalType": "bytes32[]",
          "name": "_merkleProof",
          "type": "bytes32[]"
        }
      ],
      "name": "verifyPlan",
      "outputs": [
        {
          "internalType": "bool",
          "name": "",
          "type": "bool"
        }
      ],
      "stateMutability": "pure",
      "type": "function"
    }
  ],
  "transactionHash": "0xe3334738e8aaf81d7e7c747d9639cbcf1ad6e8336251c7d8227a9cb4f21dfac8",
  "args": [],
  "numDeployments": 2,
  "solcInputHash": "05372b4b96a0a02c64a17bf31d22afb6",
  "bytecode": "0x60806040523480156200001157600080fd5b50600054610100900460ff166200002f5760005460ff161562000039565b62000039620000de565b620000a15760405162461bcd60e51b815260206004820152602e60248201527f496e697469616c697a61626c653a20636f6e747261637420697320616c72656160448201526d191e481a5b9a5d1a585b1a5e995960921b606482015260840160405180910390fd5b600054610100900460ff16158015620000c4576000805461ffff19166101011790555b8015620000d7576000805461ff00191690555b5062000102565b6000620000f630620000fc60201b62000d031760201c565b15905090565b3b151590565b61167f80620001126000396000f3fe608060405234801561001057600080fd5b50600436106101215760003560e01c806372212e76116100ad578063b6ab359f11610071578063b6ab359f14610273578063bf158fd2146102c1578063d0ebdbe7146102d4578063f2fde38b146102e7578063fdfca0d3146102fa57600080fd5b806372212e76146102185780638129fc1c1461022b5780638456cb59146102335780638da5cb5b1461023b5780639c5c3eb41461026057600080fd5b80633f4ba83a116100f45780633f4ba83a146101c7578063551d937f146101cf5780635c975abb146101f2578063715018a6146101fd57806371ce3e661461020557600080fd5b8063025b6875146101265780631bc569b51461017f578063256c6ba9146101945780633c17dac8146101a7575b600080fd5b610165610134366004611198565b6001600160a01b03919091166000908152609a6020908152604080832063ffffffff94851684529091529020541690565b60405163ffffffff90911681526020015b60405180910390f35b61019261018d3660046111cb565b61030d565b005b6101926101a23660046111cb565b6103d9565b6101ba6101b53660046111ed565b6104a0565b6040516101769190611208565b61019261057c565b6101e26101dd366004611277565b6105b0565b6040519015158152602001610176565b60655460ff166101e2565b61019261082a565b6101e2610213366004611329565b61085e565b6101e261022636600461137c565b6108ca565b610192610a5e565b610192610b27565b6033546001600160a01b03165b6040516001600160a01b039091168152602001610176565b61019261026e3660046113fe565b610b59565b6102b4610281366004611198565b6001600160a01b038216600090815260996020908152604080832063ffffffff8516845290915290205460ff1692915050565b6040516101769190611430565b609754610248906001600160a01b031681565b6101926102e23660046111ed565b610be2565b6101926102f53660046111ed565b610c2e565b610192610308366004611458565b610cc6565b33600090815260996020908152604080832063ffffffff8516845290915281205460ff1660028111156103425761034261141a565b146103835760405162461bcd60e51b815260206004820152600c60248201526b085393d517d153905093115160a21b60448201526064015b60405180910390fd5b33600081815260996020908152604080832063ffffffff86168085529252808320805460ff19166001179055519092917f50ec551c598cd517a78f91d12398f4f1d95e0171a4393505d01401f8b6c940a791a350565b600133600090815260996020908152604080832063ffffffff8616845290915290205460ff1660028111156104105761041061141a565b1461044d5760405162461bcd60e51b815260206004820152600d60248201526c085393d517d11254d050931151609a1b604482015260640161037a565b33600081815260996020908152604080832063ffffffff86168085529252808320805460ff19169055519092917fb6af1d2951898e17e763c18b77daf0ada2f2753802d37868e67797e87991a29891a350565b604080518082018252600080825260606020808401919091526001600160a01b0385811683526098825291849020845180860190955280549092168452600182018054939493918401916104f3906114db565b80601f016020809104026020016040519081016040528092919081815260200182805461051f906114db565b801561056c5780601f106105415761010080835404028352916020019161056c565b820191906000526020600020905b81548152906001019060200180831161054f57829003601f168201915b5050505050815250509050919050565b6033546001600160a01b031633146105a65760405162461bcd60e51b815260040161037a90611516565b6105ae610d09565b565b6097546000906001600160a01b031633146105f55760405162461bcd60e51b815260206004820152600560248201526404282aaa8960db1b604482015260640161037a565b600061060083610d9c565b9050806060015163ffffffff1660001480610654575060608101516001600160a01b0389166000908152609b6020908152604080832063ffffffff8c81168552908352818420898552909252909120549116115b6106955760405162461bcd60e51b815260206004820152601260248201527121444953434f554e545f4d41585f5553455360701b604482015260640161037a565b602081015163ffffffff1615806106bc57504263ffffffff16816020015163ffffffff1610155b6107085760405162461bcd60e51b815260206004820152601760248201527f21444953434f554e545f4e4f545f56414c49445f594554000000000000000000604482015260640161037a565b60a081015161ffff16158061074557504263ffffffff168160a0015161ffff16876107339190611561565b61073d908761158d565b63ffffffff16105b6107875760405162461bcd60e51b815260206004820152601360248201527208511254d0d3d5539517d15612105554d51151606a1b604482015260640161037a565b6001600160a01b0388166000908152609b6020908152604080832063ffffffff8b168452825280832087845290915281208054600192906107c99084906115b5565b9091555050606081015163ffffffff16158061081e575060608101516001600160a01b0389166000908152609b6020908152604080832063ffffffff8c81168552908352818420898552909252909120549116115b98975050505050505050565b6033546001600160a01b031633146108545760405162461bcd60e51b815260040161037a90611516565b6105ae6000610e48565b60006108c18383808060200260200160405190810160405280939291908181526020018383602002808284376000920191909152505060408051602081018b90528993500190505b60405160208183030381529060405280519060200120610e9a565b95945050505050565b600061091e8383808060200260200160405190810160405280939291908181526020018383602002808284376000920191909152505060408051602081018c90529081018a905288925060600190506108a6565b15610a4f57600061092e86610d9c565b9050806080015163ffffffff166000148061095857508763ffffffff16816080015163ffffffff16145b6109975760405162461bcd60e51b815260206004820152601060248201526f21494e56414c494428706c616e49642960801b604482015260640161037a565b606081015163ffffffff1615806109ec575060608101516001600160a01b038a166000908152609b60209081526040808320608086015163ffffffff90811685529083528184208c8552909252909120549116115b8015610a1a5750602081015163ffffffff161580610a1a57504263ffffffff16816020015163ffffffff1610155b8015610a475750604081015163ffffffff161580610a4757504263ffffffff16816040015163ffffffff16105b915050610a53565b5060005b979650505050505050565b600054610100900460ff16610a795760005460ff1615610a7d565b303b155b610ae05760405162461bcd60e51b815260206004820152602e60248201527f496e697469616c697a61626c653a20636f6e747261637420697320616c72656160448201526d191e481a5b9a5d1a585b1a5e995960921b606482015260840161037a565b600054610100900460ff16158015610b02576000805461ffff19166101011790555b610b0a610eb0565b610b12610ee7565b8015610b24576000805461ff00191690555b50565b6033546001600160a01b03163314610b515760405162461bcd60e51b815260040161037a90611516565b6105ae610f1e565b33600081815260996020908152604080832063ffffffff878116808652918452828520805460ff19166002179055858552609a8452828520828652845293829020805494871663ffffffff1990951685179055905192835292917f4594a2f1d5b5d27b7b29f7c73ec2f5f23b7a97269ec277e84619bcfffe9c13dc910160405180910390a35050565b6033546001600160a01b03163314610c0c5760405162461bcd60e51b815260040161037a90611516565b609780546001600160a01b0319166001600160a01b0392909216919091179055565b6033546001600160a01b03163314610c585760405162461bcd60e51b815260040161037a90611516565b6001600160a01b038116610cbd5760405162461bcd60e51b815260206004820152602660248201527f4f776e61626c653a206e6577206f776e657220697320746865207a65726f206160448201526564647265737360d01b606482015260840161037a565b610b2481610e48565b33600090815260986020526040902080546001600160a01b0319166001600160a01b038516178155610cfc6001820184846110cf565b5050505050565b3b151590565b60655460ff16610d525760405162461bcd60e51b815260206004820152601460248201527314185d5cd8589b194e881b9bdd081c185d5cd95960621b604482015260640161037a565b6065805460ff191690557f5db9ee0a495bf2e6ff9c91a7834c1ba4fdd244a5e8aa4e537bd38aeae4b073aa335b6040516001600160a01b03909116815260200160405180910390a1565b6040805160e081018252600080825260208201819052918101829052606081018290526080810182905260a0810182905260c0810191909152506040805160e08101825260a083811c825263ffffffff608085811c8216602080860191909152606087811c8416868801529587901c8316958501959095529385901c169282019290925261ffff601084901c1691810191909152600160f01b60f09290921b821690911460c082015290565b603380546001600160a01b038381166001600160a01b0319831681179093556040519116919082907f8be0079c531659141344cd1fd0a4f28419497f9722a3daafe3b4186f6b6457e090600090a35050565b600082610ea78584610f99565b14949350505050565b600054610100900460ff16610ed75760405162461bcd60e51b815260040161037a906115cd565b610edf611045565b6105ae61106c565b600054610100900460ff16610f0e5760405162461bcd60e51b815260040161037a906115cd565b610f16611045565b6105ae61109c565b60655460ff1615610f645760405162461bcd60e51b815260206004820152601060248201526f14185d5cd8589b194e881c185d5cd95960821b604482015260640161037a565b6065805460ff191660011790557f62e78cea01bee320cd4e420270b5ea74000d11b0c9f74754ebdbfc544b05a258610d7f3390565b600081815b845181101561103d576000858281518110610fbb57610fbb611618565b60200260200101519050808311610ffd57604080516020810185905290810182905260600160405160208183030381529060405280519060200120925061102a565b60408051602081018390529081018490526060016040516020818303038152906040528051906020012092505b50806110358161162e565b915050610f9e565b509392505050565b600054610100900460ff166105ae5760405162461bcd60e51b815260040161037a906115cd565b600054610100900460ff166110935760405162461bcd60e51b815260040161037a906115cd565b6105ae33610e48565b600054610100900460ff166110c35760405162461bcd60e51b815260040161037a906115cd565b6065805460ff19169055565b8280546110db906114db565b90600052602060002090601f0160209004810192826110fd5760008555611143565b82601f106111165782800160ff19823516178555611143565b82800160010185558215611143579182015b82811115611143578235825591602001919060010190611128565b5061114f929150611153565b5090565b5b8082111561114f5760008155600101611154565b80356001600160a01b038116811461117f57600080fd5b919050565b803563ffffffff8116811461117f57600080fd5b600080604083850312156111ab57600080fd5b6111b483611168565b91506111c260208401611184565b90509250929050565b6000602082840312156111dd57600080fd5b6111e682611184565b9392505050565b6000602082840312156111ff57600080fd5b6111e682611168565b6000602080835260018060a01b038451168184015280840151604080850152805180606086015260005b8181101561124e57828101840151868201608001528301611232565b81811115611260576000608083880101525b50601f01601f191693909301608001949350505050565b60008060008060008060c0878903121561129057600080fd5b61129987611168565b95506112a760208801611184565b94506112b560408801611184565b93506112c360608801611184565b92506080870135915060a087013590509295509295509295565b60008083601f8401126112ef57600080fd5b50813567ffffffffffffffff81111561130757600080fd5b6020830191508360208260051b850101111561132257600080fd5b9250929050565b6000806000806060858703121561133f57600080fd5b8435935060208501359250604085013567ffffffffffffffff81111561136457600080fd5b611370878288016112dd565b95989497509550505050565b600080600080600080600060c0888a03121561139757600080fd5b6113a088611168565b96506113ae60208901611184565b955060408801359450606088013593506080880135925060a088013567ffffffffffffffff8111156113df57600080fd5b6113eb8a828b016112dd565b989b979a50959850939692959293505050565b6000806040838503121561141157600080fd5b6111b483611184565b634e487b7160e01b600052602160045260246000fd5b602081016003831061145257634e487b7160e01b600052602160045260246000fd5b91905290565b60008060006040848603121561146d57600080fd5b61147684611168565b9250602084013567ffffffffffffffff8082111561149357600080fd5b818601915086601f8301126114a757600080fd5b8135818111156114b657600080fd5b8760208285010111156114c857600080fd5b6020830194508093505050509250925092565b600181811c908216806114ef57607f821691505b6020821081141561151057634e487b7160e01b600052602260045260246000fd5b50919050565b6020808252818101527f4f776e61626c653a2063616c6c6572206973206e6f7420746865206f776e6572604082015260600190565b634e487b7160e01b600052601160045260246000fd5b600063ffffffff808316818516818304811182151516156115845761158461154b565b02949350505050565b600063ffffffff8083168185168083038211156115ac576115ac61154b565b01949350505050565b600082198211156115c8576115c861154b565b500190565b6020808252602b908201527f496e697469616c697a61626c653a20636f6e7472616374206973206e6f74206960408201526a6e697469616c697a696e6760a81b606082015260800190565b634e487b7160e01b600052603260045260246000fd5b60006000198214156116425761164261154b565b506001019056fea2646970667358221220be58a2b2cd23804eeb4d10c0aa04b7810b6caa840c54c8f299720a3ce0e0bd1b64736f6c63430008090033",
  "devdoc": {
    "kind": "dev",
    "methods": {
      "constructor": {
        "custom:oz-upgrades-unsafe-allow": "constructor"
      },
      "owner()": {
        "details": "Returns the address of the current owner."
      },
      "paused()": {
        "details": "Returns true if the contract is paused, and false otherwise."
      },
      "renounceOwnership()": {
        "details": "Leaves the contract without owner. It will not be possible to call `onlyOwner` functions anymore. Can only be called by the current owner. NOTE: Renouncing ownership will leave the contract without an owner, thereby removing any functionality that is only available to the owner."
      },
      "transferOwnership(address)": {
        "details": "Transfers ownership of the contract to a new account (`newOwner`). Can only be called by the current owner."
      }
    },
    "stateVariables": {
      "discountUses": {
        "details": "Maps for discounts. "
      },
      "planStatus": {
        "details": "Map for current plan status. "
      },
      "providerProfiles": {
        "details": "Map for provider to profile info. "
      },
      "subscriptionManager": {
        "details": "Address of subscription manager. "
      }
    },
    "version": 1
  },
  "userdoc": {
    "kind": "user",
    "methods": {},
    "version": 1
  },
  "storageLayout": {
    "storage": [
      {
        "astId": 788,
        "contract": "contracts/protocol/CaskSubscriptionPlans.sol:CaskSubscriptionPlans",
        "label": "_initialized",
        "offset": 0,
        "slot": "0",
        "type": "t_bool"
      },
      {
        "astId": 791,
        "contract": "contracts/protocol/CaskSubscriptionPlans.sol:CaskSubscriptionPlans",
        "label": "_initializing",
        "offset": 1,
        "slot": "0",
        "type": "t_bool"
      },
      {
        "astId": 2336,
        "contract": "contracts/protocol/CaskSubscriptionPlans.sol:CaskSubscriptionPlans",
        "label": "__gap",
        "offset": 0,
        "slot": "1",
        "type": "t_array(t_uint256)50_storage"
      },
      {
        "astId": 666,
        "contract": "contracts/protocol/CaskSubscriptionPlans.sol:CaskSubscriptionPlans",
        "label": "_owner",
        "offset": 0,
        "slot": "51",
        "type": "t_address"
      },
      {
        "astId": 780,
        "contract": "contracts/protocol/CaskSubscriptionPlans.sol:CaskSubscriptionPlans",
        "label": "__gap",
        "offset": 0,
        "slot": "52",
        "type": "t_array(t_uint256)49_storage"
      },
      {
        "astId": 876,
        "contract": "contracts/protocol/CaskSubscriptionPlans.sol:CaskSubscriptionPlans",
        "label": "_paused",
        "offset": 0,
        "slot": "101",
        "type": "t_bool"
      },
      {
        "astId": 967,
        "contract": "contracts/protocol/CaskSubscriptionPlans.sol:CaskSubscriptionPlans",
        "label": "__gap",
        "offset": 0,
        "slot": "102",
        "type": "t_array(t_uint256)49_storage"
      },
      {
        "astId": 10388,
        "contract": "contracts/protocol/CaskSubscriptionPlans.sol:CaskSubscriptionPlans",
        "label": "subscriptionManager",
        "offset": 0,
        "slot": "151",
        "type": "t_address"
      },
      {
        "astId": 10394,
        "contract": "contracts/protocol/CaskSubscriptionPlans.sol:CaskSubscriptionPlans",
        "label": "providerProfiles",
        "offset": 0,
        "slot": "152",
        "type": "t_mapping(t_address,t_struct(Provider)7979_storage)"
      },
      {
        "astId": 10402,
        "contract": "contracts/protocol/CaskSubscriptionPlans.sol:CaskSubscriptionPlans",
        "label": "planStatus",
        "offset": 0,
        "slot": "153",
        "type": "t_mapping(t_address,t_mapping(t_uint32,t_enum(PlanStatus)7959))"
      },
      {
        "astId": 10408,
        "contract": "contracts/protocol/CaskSubscriptionPlans.sol:CaskSubscriptionPlans",
        "label": "planEol",
        "offset": 0,
        "slot": "154",
        "type": "t_mapping(t_address,t_mapping(t_uint32,t_uint32))"
      },
      {
        "astId": 10417,
        "contract": "contracts/protocol/CaskSubscriptionPlans.sol:CaskSubscriptionPlans",
        "label": "discountUses",
        "offset": 0,
        "slot": "155",
        "type": "t_mapping(t_address,t_mapping(t_uint32,t_mapping(t_bytes32,t_uint256)))"
      }
    ],
    "types": {
      "t_address": {
        "encoding": "inplace",
        "label": "address",
        "numberOfBytes": "20"
      },
      "t_array(t_uint256)49_storage": {
        "base": "t_uint256",
        "encoding": "inplace",
        "label": "uint256[49]",
        "numberOfBytes": "1568"
      },
      "t_array(t_uint256)50_storage": {
        "base": "t_uint256",
        "encoding": "inplace",
        "label": "uint256[50]",
        "numberOfBytes": "1600"
      },
      "t_bool": {
        "encoding": "inplace",
        "label": "bool",
        "numberOfBytes": "1"
      },
      "t_bytes32": {
        "encoding": "inplace",
        "label": "bytes32",
        "numberOfBytes": "32"
      },
      "t_enum(PlanStatus)7959": {
        "encoding": "inplace",
        "label": "enum ICaskSubscriptionPlans.PlanStatus",
        "numberOfBytes": "1"
      },
      "t_mapping(t_address,t_mapping(t_uint32,t_enum(PlanStatus)7959))": {
        "encoding": "mapping",
        "key": "t_address",
        "label": "mapping(address => mapping(uint32 => enum ICaskSubscriptionPlans.PlanStatus))",
        "numberOfBytes": "32",
        "value": "t_mapping(t_uint32,t_enum(PlanStatus)7959)"
      },
      "t_mapping(t_address,t_mapping(t_uint32,t_mapping(t_bytes32,t_uint256)))": {
        "encoding": "mapping",
        "key": "t_address",
        "label": "mapping(address => mapping(uint32 => mapping(bytes32 => uint256)))",
        "numberOfBytes": "32",
        "value": "t_mapping(t_uint32,t_mapping(t_bytes32,t_uint256))"
      },
      "t_mapping(t_address,t_mapping(t_uint32,t_uint32))": {
        "encoding": "mapping",
        "key": "t_address",
        "label": "mapping(address => mapping(uint32 => uint32))",
        "numberOfBytes": "32",
        "value": "t_mapping(t_uint32,t_uint32)"
      },
      "t_mapping(t_address,t_struct(Provider)7979_storage)": {
        "encoding": "mapping",
        "key": "t_address",
        "label": "mapping(address => struct ICaskSubscriptionPlans.Provider)",
        "numberOfBytes": "32",
        "value": "t_struct(Provider)7979_storage"
      },
      "t_mapping(t_bytes32,t_uint256)": {
        "encoding": "mapping",
        "key": "t_bytes32",
        "label": "mapping(bytes32 => uint256)",
        "numberOfBytes": "32",
        "value": "t_uint256"
      },
      "t_mapping(t_uint32,t_enum(PlanStatus)7959)": {
        "encoding": "mapping",
        "key": "t_uint32",
        "label": "mapping(uint32 => enum ICaskSubscriptionPlans.PlanStatus)",
        "numberOfBytes": "32",
        "value": "t_enum(PlanStatus)7959"
      },
      "t_mapping(t_uint32,t_mapping(t_bytes32,t_uint256))": {
        "encoding": "mapping",
        "key": "t_uint32",
        "label": "mapping(uint32 => mapping(bytes32 => uint256))",
        "numberOfBytes": "32",
        "value": "t_mapping(t_bytes32,t_uint256)"
      },
      "t_mapping(t_uint32,t_uint32)": {
        "encoding": "mapping",
        "key": "t_uint32",
        "label": "mapping(uint32 => uint32)",
        "numberOfBytes": "32",
        "value": "t_uint32"
      },
      "t_string_storage": {
        "encoding": "bytes",
        "label": "string",
        "numberOfBytes": "32"
      },
      "t_struct(Provider)7979_storage": {
        "encoding": "inplace",
        "label": "struct ICaskSubscriptionPlans.Provider",
        "members": [
          {
            "astId": 7976,
            "contract": "contracts/protocol/CaskSubscriptionPlans.sol:CaskSubscriptionPlans",
            "label": "paymentAddress",
            "offset": 0,
            "slot": "0",
            "type": "t_address"
          },
          {
            "astId": 7978,
            "contract": "contracts/protocol/CaskSubscriptionPlans.sol:CaskSubscriptionPlans",
            "label": "cid",
            "offset": 0,
            "slot": "1",
            "type": "t_string_storage"
          }
        ],
        "numberOfBytes": "64"
      },
      "t_uint256": {
        "encoding": "inplace",
        "label": "uint256",
        "numberOfBytes": "32"
      },
      "t_uint32": {
        "encoding": "inplace",
        "label": "uint32",
        "numberOfBytes": "4"
      }
    }
  }
}