{
  "address": "0x7bd1ed281eFae47bF1fFEEe00fc53cb6dB1Db2AE",
  "abi": [
    {
      "inputs": [],
      "stateMutability": "nonpayable",
      "type": "constructor"
    },
    {
      "anonymous": false,
      "inputs": [
        {
          "indexed": true,
          "internalType": "address",
          "name": "previousOwner",
          "type": "address"
        },
        {
          "indexed": true,
          "internalType": "address",
          "name": "newOwner",
          "type": "address"
        }
      ],
      "name": "OwnershipTransferred",
      "type": "event"
    },
    {
      "anonymous": false,
      "inputs": [
        {
          "indexed": false,
          "internalType": "address",
          "name": "account",
          "type": "address"
        }
      ],
      "name": "Paused",
      "type": "event"
    },
    {
      "anonymous": false,
      "inputs": [
        {
          "indexed": false,
          "internalType": "address",
          "name": "account",
          "type": "address"
        }
      ],
      "name": "Unpaused",
      "type": "event"
    },
    {
      "inputs": [
        {
          "internalType": "bytes",
          "name": "checkData",
          "type": "bytes"
        }
      ],
      "name": "checkUpkeep",
      "outputs": [
        {
          "internalType": "bool",
          "name": "upkeepNeeded",
          "type": "bool"
        },
        {
          "internalType": "bytes",
          "name": "performData",
          "type": "bytes"
        }
      ],
      "stateMutability": "view",
      "type": "function"
    },
    {
      "inputs": [
        {
          "internalType": "address",
          "name": "_vault",
          "type": "address"
        },
        {
          "internalType": "address",
          "name": "_subscriptionPlans",
          "type": "address"
        },
        {
          "internalType": "address",
          "name": "_subscriptions",
          "type": "address"
        }
      ],
      "name": "initialize",
      "outputs": [],
      "stateMutability": "nonpayable",
      "type": "function"
    },
    {
      "inputs": [],
      "name": "owner",
      "outputs": [
        {
          "internalType": "address",
          "name": "",
          "type": "address"
        }
      ],
      "stateMutability": "view",
      "type": "function"
    },
    {
      "inputs": [],
      "name": "pause",
      "outputs": [],
      "stateMutability": "nonpayable",
      "type": "function"
    },
    {
      "inputs": [],
      "name": "paused",
      "outputs": [
        {
          "internalType": "bool",
          "name": "",
          "type": "bool"
        }
      ],
      "stateMutability": "view",
      "type": "function"
    },
    {
      "inputs": [],
      "name": "paymentFeeFixed",
      "outputs": [
        {
          "internalType": "uint256",
          "name": "",
          "type": "uint256"
        }
      ],
      "stateMutability": "view",
      "type": "function"
    },
    {
      "inputs": [],
      "name": "paymentFeeRateMax",
      "outputs": [
        {
          "internalType": "uint256",
          "name": "",
          "type": "uint256"
        }
      ],
      "stateMutability": "view",
      "type": "function"
    },
    {
      "inputs": [],
      "name": "paymentFeeRateMin",
      "outputs": [
        {
          "internalType": "uint256",
          "name": "",
          "type": "uint256"
        }
      ],
      "stateMutability": "view",
      "type": "function"
    },
    {
      "inputs": [
        {
          "internalType": "bytes",
          "name": "performData",
          "type": "bytes"
        }
      ],
      "name": "performUpkeep",
      "outputs": [],
      "stateMutability": "nonpayable",
      "type": "function"
    },
    {
      "inputs": [
        {
          "internalType": "address",
          "name": "_consumer",
          "type": "address"
        },
        {
          "internalType": "address",
          "name": "_provider",
          "type": "address"
        },
        {
          "internalType": "uint256",
          "name": "_subscriptionId",
          "type": "uint256"
        },
        {
          "internalType": "uint256",
          "name": "_amount",
          "type": "uint256"
        }
      ],
      "name": "processSinglePayment",
      "outputs": [],
      "stateMutability": "nonpayable",
      "type": "function"
    },
    {
      "inputs": [
        {
          "internalType": "uint256",
          "name": "_initialGasLeft",
          "type": "uint256"
        },
        {
          "internalType": "uint256",
          "name": "_gasRefundLimit",
          "type": "uint256"
        }
      ],
      "name": "rebateGas",
      "outputs": [],
      "stateMutability": "nonpayable",
      "type": "function"
    },
    {
      "inputs": [
        {
          "internalType": "uint256",
          "name": "_subscriptionId",
          "type": "uint256"
        }
      ],
      "name": "renewSubscription",
      "outputs": [],
      "stateMutability": "nonpayable",
      "type": "function"
    },
    {
      "inputs": [],
      "name": "renounceOwnership",
      "outputs": [],
      "stateMutability": "nonpayable",
      "type": "function"
    },
    {
      "inputs": [
        {
          "internalType": "uint256",
          "name": "_paymentFeeFixed",
          "type": "uint256"
        },
        {
          "internalType": "uint256",
          "name": "_paymentFeeRateMin",
          "type": "uint256"
        },
        {
          "internalType": "uint256",
          "name": "_paymentFeeRateMax",
          "type": "uint256"
        },
        {
          "internalType": "uint256",
          "name": "_stakeTargetFactor",
          "type": "uint256"
        }
      ],
      "name": "setParameters",
      "outputs": [],
      "stateMutability": "nonpayable",
      "type": "function"
    },
    {
      "inputs": [],
      "name": "stakeTargetFactor",
      "outputs": [
        {
          "internalType": "uint256",
          "name": "",
          "type": "uint256"
        }
      ],
      "stateMutability": "view",
      "type": "function"
    },
    {
      "inputs": [],
      "name": "subscriptionPlans",
      "outputs": [
        {
          "internalType": "contract ICaskSubscriptionPlans",
          "name": "",
          "type": "address"
        }
      ],
      "stateMutability": "view",
      "type": "function"
    },
    {
      "inputs": [],
      "name": "subscriptions",
      "outputs": [
        {
          "internalType": "contract ICaskSubscriptions",
          "name": "",
          "type": "address"
        }
      ],
      "stateMutability": "view",
      "type": "function"
    },
    {
      "inputs": [
        {
          "internalType": "address",
          "name": "newOwner",
          "type": "address"
        }
      ],
      "name": "transferOwnership",
      "outputs": [],
      "stateMutability": "nonpayable",
      "type": "function"
    },
    {
      "inputs": [],
      "name": "unpause",
      "outputs": [],
      "stateMutability": "nonpayable",
      "type": "function"
    },
    {
      "inputs": [],
      "name": "vault",
      "outputs": [
        {
          "internalType": "contract ICaskVault",
          "name": "",
          "type": "address"
        }
      ],
      "stateMutability": "view",
      "type": "function"
    }
  ],
  "transactionHash": "0x4a5010f7c03b9ebdb005ce43d352fee9102154ce2a032daec9618c0556d6fa52",
  "args": [],
  "numDeployments": 2,
  "solcInputHash": "05372b4b96a0a02c64a17bf31d22afb6",
  "bytecode": "0x60806040523480156200001157600080fd5b50600054610100900460ff166200002f5760005460ff161562000039565b62000039620000de565b620000a15760405162461bcd60e51b815260206004820152602e60248201527f496e697469616c697a61626c653a20636f6e747261637420697320616c72656160448201526d191e481a5b9a5d1a585b1a5e995960921b606482015260840160405180910390fd5b600054610100900460ff16158015620000c4576000805461ffff19166101011790555b8015620000d7576000805461ff00191690555b5062000102565b6000620000f630620000fc60201b620008541760201c565b15905090565b3b151590565b6125d380620001126000396000f3fe608060405234801561001057600080fd5b506004361061012c5760003560e01c80638fe17b16116100ad578063c54c58c411610071578063c54c58c41461023d578063d71bb37b14610250578063f2fde38b14610263578063fbfa77cf14610276578063fcd9da441461028957600080fd5b80638fe17b16146101e8578063b8e381e5146101fb578063badf4b3e1461020e578063bf8ca7fc14610217578063c0c53b8b1461022a57600080fd5b80635c975abb116100f45780635c975abb1461017c5780636e04ff0d14610192578063715018a6146101b35780638456cb59146101bb5780638da5cb5b146101c357600080fd5b806308e27a9914610131578063219e24c51461014d5780633c07e34d146101565780633f4ba83a1461015f5780634585e33b14610169575b600080fd5b61013a609d5481565b6040519081526020015b60405180910390f35b61013a609b5481565b61013a609a5481565b61016761029c565b005b610167610177366004611c26565b6102d9565b60655460ff166040519015158152602001610144565b6101a56101a0366004611c26565b610374565b604051610144929190611cc4565b6101676104fe565b610167610532565b6033546001600160a01b03165b6040516001600160a01b039091168152602001610144565b6097546101d0906001600160a01b031681565b6098546101d0906001600160a01b031681565b61013a609c5481565b610167610225366004611d00565b610564565b610167610238366004611d37565b6105e5565b61016761024b366004611d82565b610701565b61016761025e366004611dc8565b61074f565b610167610271366004611de1565b61077e565b6099546101d0906001600160a01b031681565b610167610297366004611e05565b610816565b6033546001600160a01b031633146102cf5760405162461bcd60e51b81526004016102c690611e37565b60405180910390fd5b6102d761085a565b565b60655460ff16156102fc5760405162461bcd60e51b81526004016102c690611e6c565b600061030a82840184611f33565b905060005b815181101561036e57600082828151811061032c5761032c611fcf565b6020026020010151111561035c5761035c82828151811061034f5761034f611fcf565b60200260200101516108ed565b8061036681611ffb565b91505061030f565b50505050565b60006060818061038685870187611d00565b915091506000806103978484611321565b9150915081600014156103bf57600095506040518060200160405280600081525094506104f3565b838210156104cc576000808367ffffffffffffffff8111156103e3576103e3611e96565b60405190808252806020026020018201604052801561040c578160200160208202803683370190505b50905060005b868110801561042057508483105b1561049e57600084828151811061043957610439611fcf565b6020026020010151111561048c5783818151811061045957610459611fcf565b602002602001015182848151811061047357610473611fcf565b6020908102919091010152610489836001612016565b92505b8061049681611ffb565b915050610412565b5060019750806040516020016104b4919061202e565b604051602081830303815290604052965050506104f3565b60019550806040516020016104e1919061202e565b60405160208183030381529060405294505b505050509250929050565b6033546001600160a01b031633146105285760405162461bcd60e51b81526004016102c690611e37565b6102d76000611615565b6033546001600160a01b0316331461055c5760405162461bcd60e51b81526004016102c690611e37565b6102d7611667565b6098546001600160a01b031633146105a65760405162461bcd60e51b815260206004820152600560248201526404282aaa8960db1b60448201526064016102c6565b806105af575050565b60003a5a6105bd9085612072565b6105c990617530612016565b6105d39190612089565b9050818111156105e05750805b505050565b600054610100900460ff166106005760005460ff1615610604565b303b155b6106675760405162461bcd60e51b815260206004820152602e60248201527f496e697469616c697a61626c653a20636f6e747261637420697320616c72656160448201526d191e481a5b9a5d1a585b1a5e995960921b60648201526084016102c6565b600054610100900460ff16158015610689576000805461ffff19166101011790555b6106916116bf565b6106996116f6565b609780546001600160a01b038086166001600160a01b0319928316179092556098805485841690831617905560998054928716929091169190911790556000609a819055609b819055609c819055609d55801561036e576000805461ff001916905550505050565b6098546001600160a01b031633146107435760405162461bcd60e51b815260206004820152600560248201526404282aaa8960db1b60448201526064016102c6565b61036e8484848461172d565b60655460ff16156107725760405162461bcd60e51b81526004016102c690611e6c565b61077b816108ed565b50565b6033546001600160a01b031633146107a85760405162461bcd60e51b81526004016102c690611e37565b6001600160a01b03811661080d5760405162461bcd60e51b815260206004820152602660248201527f4f776e61626c653a206e6577206f776e657220697320746865207a65726f206160448201526564647265737360d01b60648201526084016102c6565b61077b81611615565b6033546001600160a01b031633146108405760405162461bcd60e51b81526004016102c690611e37565b609a93909355609b91909155609c55609d55565b3b151590565b60655460ff166108a35760405162461bcd60e51b815260206004820152601460248201527314185d5cd8589b194e881b9bdd081c185d5cd95960621b60448201526064016102c6565b6065805460ff191690557f5db9ee0a495bf2e6ff9c91a7834c1ba4fdd244a5e8aa4e537bd38aeae4b073aa335b6040516001600160a01b03909116815260200160405180910390a1565b60985460405163dc311dd360e01b8152600481018390526000916001600160a01b03169063dc311dd39060240160006040518083038186803b15801561093257600080fd5b505afa158015610946573d6000803e3d6000fd5b505050506040513d6000823e601f3d908101601f1916820160405261096e919081019061214b565b905060004290508063ffffffff1682610120015163ffffffff1611806109a9575060038260c0015160068111156109a7576109a761226a565b145b156109b357505050565b60058260c0015160068111156109cb576109cb61226a565b14806109fe5750600082610160015163ffffffff161180156109fe57508063ffffffff1682610160015163ffffffff1611155b80610b635750600260975460a084015160e085015160405163b6ab359f60e01b81526001600160a01b03928316600482015263ffffffff909116602482015291169063b6ab359f9060440160206040518083038186803b158015610a6157600080fd5b505afa158015610a75573d6000803e3d6000fd5b505050506040513d601f19601f82011682018060405250810190610a999190612280565b6002811115610aaa57610aaa61226a565b148015610b63575060975460a083015160e084015160405163025b687560e01b815263ffffffff8516936001600160a01b03169263025b687592610b0a926004016001600160a01b0392909216825263ffffffff16602082015260400190565b60206040518083038186803b158015610b2257600080fd5b505afa158015610b36573d6000803e3d6000fd5b505050506040513d601f19601f82011682018060405250810190610b5a91906122a1565b63ffffffff1611155b15610bcb5760985460405163dbb4520b60e01b8152600481018590526001600160a01b039091169063dbb4520b90602401600060405180830381600087803b158015610bae57600080fd5b505af1158015610bc2573d6000803e3d6000fd5b50505050505050565b60985460405163321b9a5560e21b8152600481018590526000916001600160a01b03169063c86e69549060240160206040518083038186803b158015610c1057600080fd5b505afa158015610c24573d6000803e3d6000fd5b505050506040513d601f19601f82011682018060405250810190610c4891906122bc565b1115610d2f57609854604051634069070760e01b8152600481018590526001600160a01b0390911690634069070790602401600060405180830381600087803b158015610c9457600080fd5b505af1158015610ca8573d6000803e3d6000fd5b505060985460405163dc311dd360e01b8152600481018790526001600160a01b03909116925063dc311dd3915060240160006040518083038186803b158015610cf057600080fd5b505afa158015610d04573d6000803e3d6000fd5b505050506040513d6000823e601f3d908101601f19168201604052610d2c919081019061214b565b91505b6000610d3e8360000151611ad7565b80516040850151919250901561100b576000610e0485606001516040805160e081018252600080825260208201819052918101829052606081018290526080810182905260a0810182905260c0810191909152506040805160e08101825260a083811c825263ffffffff608085811c8216602080860191909152606087811c8416868801529587901c8316958501959095529385901c169282019290925261ffff601084901c1691810191909152600160f01b60f09290921b821690911460c082015290565b60975460a087015160808301516040878101516101008b0151828c015160608d0151935163551d937f60e01b81526001600160a01b03968716600482015263ffffffff9586166024820152928516604484015293166064820152608481019290925260a4820152929350169063551d937f9060c401602060405180830381600087803b158015610e9357600080fd5b505af1925050508015610ec3575060408051601f3d908101601f19168201909252610ec0918101906122d5565b60015b610f5f57610ecf6122f7565b806308c379a01415610f535750610ee4612312565b80610eef5750610f55565b60985460405163a0936cb160e01b8152600481018990526001600160a01b039091169063a0936cb190602401600060405180830381600087803b158015610f3557600080fd5b505af1158015610f49573d6000803e3d6000fd5b5050505050611009565b505b3d6000803e3d6000fd5b8160c0015115610f7c578151610f759084612072565b9250610fa3565b815161271090610f8c9085612089565b610f9691906123b2565b610fa09084612072565b92505b806110075760985460405163a0936cb160e01b8152600481018990526001600160a01b039091169063a0936cb190602401600060405180830381600087803b158015610fee57600080fd5b505af1158015611002573d6000803e3d6000fd5b505050505b505b505b60008111801561111957506099546098546040516331a9108f60e11b81526004810188905283926001600160a01b039081169263597435cb92911690636352211e9060240160206040518083038186803b15801561106857600080fd5b505afa15801561107c573d6000803e3d6000fd5b505050506040513d601f19601f820116820180604052508101906110a091906123c6565b6040516001600160e01b031960e084901b1681526001600160a01b03909116600482015260240160206040518083038186803b1580156110df57600080fd5b505afa1580156110f3573d6000803e3d6000fd5b505050506040513d601f19601f8201168201806040525081019061111791906122bc565b105b156111fa5761112b62093a80846123e3565b63ffffffff1684610120015163ffffffff1610156111a75760985460405163dbb4520b60e01b8152600481018790526001600160a01b039091169063dbb4520b906024015b600060405180830381600087803b15801561118a57600080fd5b505af115801561119e573d6000803e3d6000fd5b5050505061131a565b60068460c0015160068111156111bf576111bf61226a565b146111f557609854604051636c4f70df60e01b8152600481018790526001600160a01b0390911690636c4f70df90602401611170565b61131a565b80156112bb576098546040516331a9108f60e11b81526004810187905261128a916001600160a01b031690636352211e9060240160206040518083038186803b15801561124657600080fd5b505afa15801561125a573d6000803e3d6000fd5b505050506040513d601f19601f8201168201806040525081019061127e91906123c6565b8560a00151878461172d565b609854604051638e814f1160e01b8152600481018790526001600160a01b0390911690638e814f1190602401611170565b609854604051638e814f1160e01b8152600481018790526001600160a01b0390911690638e814f1190602401600060405180830381600087803b15801561130157600080fd5b505af1158015611315573d6000803e3d6000fd5b505050505b5050505050565b600060606000609860009054906101000a90046001600160a01b03166001600160a01b03166308e725036040518163ffffffff1660e01b815260040160206040518083038186803b15801561137557600080fd5b505afa158015611389573d6000803e3d6000fd5b505050506040513d601f19601f820116820180604052508101906113ad91906122bc565b905084818111156113bb5750805b4260008267ffffffffffffffff8111156113d7576113d7611e96565b604051908082528060200260200182016040528015611400578160200160208202803683370190505b5090506000609860009054906101000a90046001600160a01b03166001600160a01b03166356eb00a16040518163ffffffff1660e01b815260040160006040518083038186803b15801561145357600080fd5b505afa158015611467573d6000803e3d6000fd5b505050506040513d6000823e601f3d908101601f1916820160405261148f9190810190612408565b90506000885b868110156116055760985483516000916001600160a01b03169063dc311dd3908690859081106114c7576114c7611fcf565b60200260200101516040518263ffffffff1660e01b81526004016114ed91815260200190565b60006040518083038186803b15801561150557600080fd5b505afa158015611519573d6000803e3d6000fd5b505050506040513d6000823e601f3d908101601f19168201604052611541919081019061214b565b90508563ffffffff1681610120015163ffffffff161115801561157a575060048160c0015160068111156115775761157761226a565b14155b801561159c575060038160c0015160068111156115995761159961226a565b14155b156115f2578382815181106115b3576115b3611fcf565b60200260200101518584815181106115cd576115cd611fcf565b60209081029190910101526115e3836001612016565b92508683106115f25750611605565b50806115fd81611ffb565b915050611495565b5099919850909650505050505050565b603380546001600160a01b038381166001600160a01b0319831681179093556040519116919082907f8be0079c531659141344cd1fd0a4f28419497f9722a3daafe3b4186f6b6457e090600090a35050565b60655460ff161561168a5760405162461bcd60e51b81526004016102c690611e6c565b6065805460ff191660011790557f62e78cea01bee320cd4e420270b5ea74000d11b0c9f74754ebdbfc544b05a2586108d03390565b600054610100900460ff166116e65760405162461bcd60e51b81526004016102c690612499565b6116ee611b9c565b6102d7611bc3565b600054610100900460ff1661171d5760405162461bcd60e51b81526004016102c690612499565b611725611b9c565b6102d7611bf3565b60995460405163597435cb60e01b81526001600160a01b0386811660048301528392169063597435cb9060240160206040518083038186803b15801561177257600080fd5b505afa158015611786573d6000803e3d6000fd5b505050506040513d601f19601f820116820180604052508101906117aa91906122bc565b10156117e35760405162461bcd60e51b81526020600482015260086024820152672142414c414e434560c01b60448201526064016102c6565b60985460405163dc311dd360e01b815260048101849052600091829182916001600160a01b03169063dc311dd39060240160006040518083038186803b15801561182c57600080fd5b505afa158015611840573d6000803e3d6000fd5b505050506040513d6000823e601f3d908101601f19168201604052611868919081019061214b565b905060006118798260000151611ad7565b60985460a084015160405163c7a687bf60e01b81526001600160a01b03918216600482015292935060009291169063c7a687bf9060240160206040518083038186803b1580156118c857600080fd5b505afa1580156118dc573d6000803e3d6000fd5b505050506040513d601f19601f8201168201806040525081019061190091906122bc565b9050841561198b57600062015180836040015161191d91906124e4565b6119299061016d6124e4565b63ffffffff169050600081609d54846119429190612089565b61194c9190612089565b905061195881886123b2565b609c546119659190612089565b609c546119729190612072565b9550609b5486101561198457609b5495505b5050611991565b609c5493505b609754604051630782fb5960e31b81526001600160a01b038a811660048301526000921690633c17dac89060240160006040518083038186803b1580156119d757600080fd5b505afa1580156119eb573d6000803e3d6000fd5b505050506040513d6000823e601f3d908101601f19168201604052611a139190810190612507565b805190915089906001600160a01b031615611a2c575080515b6000612710611a3b888b612089565b611a4591906123b2565b609a54611a529190612016565b60995460405163fcd6a25b60e01b81526001600160a01b038f811660048301528581166024830152604482018d90526064820184905292935091169063fcd6a25b90608401600060405180830381600087803b158015611ab157600080fd5b505af1158015611ac5573d6000803e3d6000fd5b50505050505050505050505050505050565b6040805161010081018252600080825260208201819052918101829052606081018290526080810182905260a0810182905260c0810182905260e081019190915250604080516101008101825260a083811c8252608084811c63ffffffff908116602080860191909152606087811c8316868801529587901c8216958501959095529385901c90931692820192909252601083901c61ffff169181019190915260f09190911b600160f01b8181161460c0830152600160f11b9081161460e082015290565b600054610100900460ff166102d75760405162461bcd60e51b81526004016102c690612499565b600054610100900460ff16611bea5760405162461bcd60e51b81526004016102c690612499565b6102d733611615565b600054610100900460ff16611c1a5760405162461bcd60e51b81526004016102c690612499565b6065805460ff19169055565b60008060208385031215611c3957600080fd5b823567ffffffffffffffff80821115611c5157600080fd5b818501915085601f830112611c6557600080fd5b813581811115611c7457600080fd5b866020828501011115611c8657600080fd5b60209290920196919550909350505050565b60005b83811015611cb3578181015183820152602001611c9b565b8381111561036e5750506000910152565b82151581526040602082015260008251806040840152611ceb816060850160208701611c98565b601f01601f1916919091016060019392505050565b60008060408385031215611d1357600080fd5b50508035926020909101359150565b6001600160a01b038116811461077b57600080fd5b600080600060608486031215611d4c57600080fd5b8335611d5781611d22565b92506020840135611d6781611d22565b91506040840135611d7781611d22565b809150509250925092565b60008060008060808587031215611d9857600080fd5b8435611da381611d22565b93506020850135611db381611d22565b93969395505050506040820135916060013590565b600060208284031215611dda57600080fd5b5035919050565b600060208284031215611df357600080fd5b8135611dfe81611d22565b9392505050565b60008060008060808587031215611e1b57600080fd5b5050823594602084013594506040840135936060013592509050565b6020808252818101527f4f776e61626c653a2063616c6c6572206973206e6f7420746865206f776e6572604082015260600190565b60208082526010908201526f14185d5cd8589b194e881c185d5cd95960821b604082015260600190565b634e487b7160e01b600052604160045260246000fd5b6101a0810167ffffffffffffffff81118282101715611ecd57611ecd611e96565b60405250565b601f8201601f1916810167ffffffffffffffff81118282101715611ef957611ef9611e96565b6040525050565b604051611f0c81611eac565b90565b600067ffffffffffffffff821115611f2957611f29611e96565b5060051b60200190565b60006020808385031215611f4657600080fd5b823567ffffffffffffffff811115611f5d57600080fd5b8301601f81018513611f6e57600080fd5b8035611f7981611f0f565b604051611f868282611ed3565b82815260059290921b8301840191848101915087831115611fa657600080fd5b928401925b82841015611fc457833582529284019290840190611fab565b979650505050505050565b634e487b7160e01b600052603260045260246000fd5b634e487b7160e01b600052601160045260246000fd5b600060001982141561200f5761200f611fe5565b5060010190565b6000821982111561202957612029611fe5565b500190565b6020808252825182820181905260009190848201906040850190845b818110156120665783518352928401929184019160010161204a565b50909695505050505050565b60008282101561208457612084611fe5565b500390565b60008160001904831182151516156120a3576120a3611fe5565b500290565b80516120b381611d22565b919050565b8051600781106120b357600080fd5b805163ffffffff811681146120b357600080fd5b600082601f8301126120ec57600080fd5b815167ffffffffffffffff81111561210657612106611e96565b60405161211d601f8301601f191660200182611ed3565b81815284602083860101111561213257600080fd5b612143826020830160208701611c98565b949350505050565b60006020828403121561215d57600080fd5b815167ffffffffffffffff8082111561217557600080fd5b908301906101a0828603121561218a57600080fd5b612192611f00565b82518152602083015160208201526040830151604082015260608301516060820152608083015160808201526121ca60a084016120a8565b60a08201526121db60c084016120b8565b60c08201526121ec60e084016120c7565b60e08201526101006121ff8185016120c7565b908201526101206122118482016120c7565b908201526101406122238482016120c7565b908201526101606122358482016120c7565b90820152610180838101518381111561224d57600080fd5b612259888287016120db565b918301919091525095945050505050565b634e487b7160e01b600052602160045260246000fd5b60006020828403121561229257600080fd5b815160038110611dfe57600080fd5b6000602082840312156122b357600080fd5b611dfe826120c7565b6000602082840312156122ce57600080fd5b5051919050565b6000602082840312156122e757600080fd5b81518015158114611dfe57600080fd5b600060033d1115611f0c5760046000803e5060005160e01c90565b600060443d10156123205790565b6040516003193d81016004833e81513d67ffffffffffffffff816024840111818411171561235057505050505090565b82850191508151818111156123685750505050505090565b843d87010160208285010111156123825750505050505090565b61239160208286010187611ed3565b509095945050505050565b634e487b7160e01b600052601260045260246000fd5b6000826123c1576123c161239c565b500490565b6000602082840312156123d857600080fd5b8151611dfe81611d22565b600063ffffffff8381169083168181101561240057612400611fe5565b039392505050565b6000602080838503121561241b57600080fd5b825167ffffffffffffffff81111561243257600080fd5b8301601f8101851361244357600080fd5b805161244e81611f0f565b60405161245b8282611ed3565b82815260059290921b830184019184810191508783111561247b57600080fd5b928401925b82841015611fc457835182529284019290840190612480565b6020808252602b908201527f496e697469616c697a61626c653a20636f6e7472616374206973206e6f74206960408201526a6e697469616c697a696e6760a81b606082015260800190565b600063ffffffff808416806124fb576124fb61239c565b92169190910492915050565b60006020828403121561251957600080fd5b815167ffffffffffffffff8082111561253157600080fd5b908301906040828603121561254557600080fd5b60405160408101818110838211171561256057612560611e96565b604052825161256e81611d22565b815260208301518281111561258257600080fd5b61258e878286016120db565b6020830152509594505050505056fea264697066735822122062bd84c53a78f0239b7bcc7eaf618a22c703cc49805351d0cffb69fc0f4aaab364736f6c63430008090033",
  "devdoc": {
    "kind": "dev",
    "methods": {
      "checkUpkeep(bytes)": {
        "details": "To ensure that it is never called, you may want to add the cannotExecute modifier from KeeperBase to your implementation of this method.",
        "params": {
          "checkData": "specified in the upkeep registration so it is always the same for a registered upkeep. This can easilly be broken down into specific arguments using `abi.decode`, so multiple upkeeps can be registered on the same contract and easily differentiated by the contract."
        },
        "returns": {
          "performData": "bytes that the keeper should call performUpkeep with, if upkeep is needed. If you would like to encode data to decode later, try `abi.encode`.",
          "upkeepNeeded": "boolean to indicate whether the keeper should call performUpkeep or not."
        }
      },
      "constructor": {
        "custom:oz-upgrades-unsafe-allow": "constructor"
      },
      "owner()": {
        "details": "Returns the address of the current owner."
      },
      "paused()": {
        "details": "Returns true if the contract is paused, and false otherwise."
      },
      "performUpkeep(bytes)": {
        "details": "The input to this method should not be trusted, and the caller of the method should not even be restricted to any single registry. Anyone should be able call it, and the input should be validated, there is no guarantee that the data passed in is the performData returned from checkUpkeep. This could happen due to malicious keepers, racing keepers, or simply a state change while the performUpkeep transaction is waiting for confirmation. Always validate the data passed in.",
        "params": {
          "performData": "is the data which was passed back from the checkData simulation. If it is encoded, it can easily be decoded into other types by calling `abi.decode`. This data should not be trusted, and should be validated against the contract's current state."
        }
      },
      "renounceOwnership()": {
        "details": "Leaves the contract without owner. It will not be possible to call `onlyOwner` functions anymore. Can only be called by the current owner. NOTE: Renouncing ownership will leave the contract without an owner, thereby removing any functionality that is only available to the owner."
      },
      "transferOwnership(address)": {
        "details": "Transfers ownership of the contract to a new account (`newOwner`). Can only be called by the current owner."
      }
    },
    "stateVariables": {
      "paymentFeeFixed": {
        "details": "fixed fee to charge on payments, in baseAsset decimal units. "
      },
      "paymentFeeRateMin": {
        "details": "min and max percentage to charge on payments, in bps. 50% = 5000. "
      },
      "stakeTargetFactor": {
        "details": "factor used to reduce payment fee based on qty of staked CASK "
      },
      "subscriptionPlans": {
        "details": "contract to manage subscription plan definitions. "
      },
      "vault": {
        "details": "vault to use for payments. "
      }
    },
    "version": 1
  },
  "userdoc": {
    "kind": "user",
    "methods": {
      "checkUpkeep(bytes)": {
        "notice": "method that is simulated by the keepers to see if any work actually needs to be performed. This method does does not actually need to be executable, and since it is only ever simulated it can consume lots of gas."
      },
      "performUpkeep(bytes)": {
        "notice": "method that is actually executed by the keepers, via the registry. The data returned by the checkUpkeep simulation will be passed into this method to actually be executed."
      }
    },
    "version": 1
  },
  "storageLayout": {
    "storage": [
      {
        "astId": 788,
        "contract": "contracts/protocol/CaskSubscriptionManager.sol:CaskSubscriptionManager",
        "label": "_initialized",
        "offset": 0,
        "slot": "0",
        "type": "t_bool"
      },
      {
        "astId": 791,
        "contract": "contracts/protocol/CaskSubscriptionManager.sol:CaskSubscriptionManager",
        "label": "_initializing",
        "offset": 1,
        "slot": "0",
        "type": "t_bool"
      },
      {
        "astId": 2336,
        "contract": "contracts/protocol/CaskSubscriptionManager.sol:CaskSubscriptionManager",
        "label": "__gap",
        "offset": 0,
        "slot": "1",
        "type": "t_array(t_uint256)50_storage"
      },
      {
        "astId": 666,
        "contract": "contracts/protocol/CaskSubscriptionManager.sol:CaskSubscriptionManager",
        "label": "_owner",
        "offset": 0,
        "slot": "51",
        "type": "t_address"
      },
      {
        "astId": 780,
        "contract": "contracts/protocol/CaskSubscriptionManager.sol:CaskSubscriptionManager",
        "label": "__gap",
        "offset": 0,
        "slot": "52",
        "type": "t_array(t_uint256)49_storage"
      },
      {
        "astId": 876,
        "contract": "contracts/protocol/CaskSubscriptionManager.sol:CaskSubscriptionManager",
        "label": "_paused",
        "offset": 0,
        "slot": "101",
        "type": "t_bool"
      },
      {
        "astId": 967,
        "contract": "contracts/protocol/CaskSubscriptionManager.sol:CaskSubscriptionManager",
        "label": "__gap",
        "offset": 0,
        "slot": "102",
        "type": "t_array(t_uint256)49_storage"
      },
      {
        "astId": 9209,
        "contract": "contracts/protocol/CaskSubscriptionManager.sol:CaskSubscriptionManager",
        "label": "subscriptionPlans",
        "offset": 0,
        "slot": "151",
        "type": "t_contract(ICaskSubscriptionPlans)8101"
      },
      {
        "astId": 9212,
        "contract": "contracts/protocol/CaskSubscriptionManager.sol:CaskSubscriptionManager",
        "label": "subscriptions",
        "offset": 0,
        "slot": "152",
        "type": "t_contract(ICaskSubscriptions)8502"
      },
      {
        "astId": 9216,
        "contract": "contracts/protocol/CaskSubscriptionManager.sol:CaskSubscriptionManager",
        "label": "vault",
        "offset": 0,
        "slot": "153",
        "type": "t_contract(ICaskVault)8704"
      },
      {
        "astId": 9219,
        "contract": "contracts/protocol/CaskSubscriptionManager.sol:CaskSubscriptionManager",
        "label": "paymentFeeFixed",
        "offset": 0,
        "slot": "154",
        "type": "t_uint256"
      },
      {
        "astId": 9222,
        "contract": "contracts/protocol/CaskSubscriptionManager.sol:CaskSubscriptionManager",
        "label": "paymentFeeRateMin",
        "offset": 0,
        "slot": "155",
        "type": "t_uint256"
      },
      {
        "astId": 9224,
        "contract": "contracts/protocol/CaskSubscriptionManager.sol:CaskSubscriptionManager",
        "label": "paymentFeeRateMax",
        "offset": 0,
        "slot": "156",
        "type": "t_uint256"
      },
      {
        "astId": 9227,
        "contract": "contracts/protocol/CaskSubscriptionManager.sol:CaskSubscriptionManager",
        "label": "stakeTargetFactor",
        "offset": 0,
        "slot": "157",
        "type": "t_uint256"
      }
    ],
    "types": {
      "t_address": {
        "encoding": "inplace",
        "label": "address",
        "numberOfBytes": "20"
      },
      "t_array(t_uint256)49_storage": {
        "base": "t_uint256",
        "encoding": "inplace",
        "label": "uint256[49]",
        "numberOfBytes": "1568"
      },
      "t_array(t_uint256)50_storage": {
        "base": "t_uint256",
        "encoding": "inplace",
        "label": "uint256[50]",
        "numberOfBytes": "1600"
      },
      "t_bool": {
        "encoding": "inplace",
        "label": "bool",
        "numberOfBytes": "1"
      },
      "t_contract(ICaskSubscriptionPlans)8101": {
        "encoding": "inplace",
        "label": "contract ICaskSubscriptionPlans",
        "numberOfBytes": "20"
      },
      "t_contract(ICaskSubscriptions)8502": {
        "encoding": "inplace",
        "label": "contract ICaskSubscriptions",
        "numberOfBytes": "20"
      },
      "t_contract(ICaskVault)8704": {
        "encoding": "inplace",
        "label": "contract ICaskVault",
        "numberOfBytes": "20"
      },
      "t_uint256": {
        "encoding": "inplace",
        "label": "uint256",
        "numberOfBytes": "32"
      }
    }
  }
}