{
  "address": "0xCf5EA5cBe519F7a6eEaD217c32df9E3b5E526841",
  "abi": [
    {
      "inputs": [],
      "stateMutability": "nonpayable",
      "type": "constructor"
    },
    {
      "anonymous": false,
      "inputs": [
        {
          "indexed": true,
          "internalType": "address",
          "name": "owner",
          "type": "address"
        },
        {
          "indexed": true,
          "internalType": "address",
          "name": "approved",
          "type": "address"
        },
        {
          "indexed": true,
          "internalType": "uint256",
          "name": "tokenId",
          "type": "uint256"
        }
      ],
      "name": "Approval",
      "type": "event"
    },
    {
      "anonymous": false,
      "inputs": [
        {
          "indexed": true,
          "internalType": "address",
          "name": "owner",
          "type": "address"
        },
        {
          "indexed": true,
          "internalType": "address",
          "name": "operator",
          "type": "address"
        },
        {
          "indexed": false,
          "internalType": "bool",
          "name": "approved",
          "type": "bool"
        }
      ],
      "name": "ApprovalForAll",
      "type": "event"
    },
    {
      "anonymous": false,
      "inputs": [
        {
          "indexed": true,
          "internalType": "address",
          "name": "previousOwner",
          "type": "address"
        },
        {
          "indexed": true,
          "internalType": "address",
          "name": "newOwner",
          "type": "address"
        }
      ],
      "name": "OwnershipTransferred",
      "type": "event"
    },
    {
      "anonymous": false,
      "inputs": [
        {
          "indexed": false,
          "internalType": "address",
          "name": "account",
          "type": "address"
        }
      ],
      "name": "Paused",
      "type": "event"
    },
    {
      "anonymous": false,
      "inputs": [
        {
          "indexed": true,
          "internalType": "address",
          "name": "consumer",
          "type": "address"
        },
        {
          "indexed": true,
          "internalType": "address",
          "name": "provider",
          "type": "address"
        },
        {
          "indexed": true,
          "internalType": "uint256",
          "name": "subscriptionId",
          "type": "uint256"
        },
        {
          "indexed": false,
          "internalType": "bytes32",
          "name": "ref",
          "type": "bytes32"
        },
        {
          "indexed": false,
          "internalType": "uint32",
          "name": "planId",
          "type": "uint32"
        }
      ],
      "name": "SubscriptionCanceled",
      "type": "event"
    },
    {
      "anonymous": false,
      "inputs": [
        {
          "indexed": true,
          "internalType": "address",
          "name": "consumer",
          "type": "address"
        },
        {
          "indexed": true,
          "internalType": "address",
          "name": "provider",
          "type": "address"
        },
        {
          "indexed": true,
          "internalType": "uint256",
          "name": "subscriptionId",
          "type": "uint256"
        },
        {
          "indexed": false,
          "internalType": "bytes32",
          "name": "ref",
          "type": "bytes32"
        },
        {
          "indexed": false,
          "internalType": "uint32",
          "name": "planId",
          "type": "uint32"
        },
        {
          "indexed": false,
          "internalType": "bytes32",
          "name": "discountId",
          "type": "bytes32"
        }
      ],
      "name": "SubscriptionChangedDiscount",
      "type": "event"
    },
    {
      "anonymous": false,
      "inputs": [
        {
          "indexed": true,
          "internalType": "address",
          "name": "consumer",
          "type": "address"
        },
        {
          "indexed": true,
          "internalType": "address",
          "name": "provider",
          "type": "address"
        },
        {
          "indexed": true,
          "internalType": "uint256",
          "name": "subscriptionId",
          "type": "uint256"
        },
        {
          "indexed": false,
          "internalType": "bytes32",
          "name": "ref",
          "type": "bytes32"
        },
        {
          "indexed": false,
          "internalType": "uint32",
          "name": "prevPlanId",
          "type": "uint32"
        },
        {
          "indexed": false,
          "internalType": "uint32",
          "name": "planId",
          "type": "uint32"
        },
        {
          "indexed": false,
          "internalType": "bytes32",
          "name": "discountId",
          "type": "bytes32"
        }
      ],
      "name": "SubscriptionChangedPlan",
      "type": "event"
    },
    {
      "anonymous": false,
      "inputs": [
        {
          "indexed": true,
          "internalType": "address",
          "name": "consumer",
          "type": "address"
        },
        {
          "indexed": true,
          "internalType": "address",
          "name": "provider",
          "type": "address"
        },
        {
          "indexed": true,
          "internalType": "uint256",
          "name": "subscriptionId",
          "type": "uint256"
        },
        {
          "indexed": false,
          "internalType": "bytes32",
          "name": "ref",
          "type": "bytes32"
        },
        {
          "indexed": false,
          "internalType": "uint32",
          "name": "planId",
          "type": "uint32"
        },
        {
          "indexed": false,
          "internalType": "bytes32",
          "name": "discountId",
          "type": "bytes32"
        }
      ],
      "name": "SubscriptionCreated",
      "type": "event"
    },
    {
      "anonymous": false,
      "inputs": [
        {
          "indexed": true,
          "internalType": "address",
          "name": "consumer",
          "type": "address"
        },
        {
          "indexed": true,
          "internalType": "address",
          "name": "provider",
          "type": "address"
        },
        {
          "indexed": true,
          "internalType": "uint256",
          "name": "subscriptionId",
          "type": "uint256"
        },
        {
          "indexed": false,
          "internalType": "bytes32",
          "name": "ref",
          "type": "bytes32"
        },
        {
          "indexed": false,
          "internalType": "uint32",
          "name": "planId",
          "type": "uint32"
        }
      ],
      "name": "SubscriptionPastDue",
      "type": "event"
    },
    {
      "anonymous": false,
      "inputs": [
        {
          "indexed": true,
          "internalType": "address",
          "name": "consumer",
          "type": "address"
        },
        {
          "indexed": true,
          "internalType": "address",
          "name": "provider",
          "type": "address"
        },
        {
          "indexed": true,
          "internalType": "uint256",
          "name": "subscriptionId",
          "type": "uint256"
        },
        {
          "indexed": false,
          "internalType": "bytes32",
          "name": "ref",
          "type": "bytes32"
        },
        {
          "indexed": false,
          "internalType": "uint32",
          "name": "planId",
          "type": "uint32"
        }
      ],
      "name": "SubscriptionPaused",
      "type": "event"
    },
    {
      "anonymous": false,
      "inputs": [
        {
          "indexed": true,
          "internalType": "address",
          "name": "consumer",
          "type": "address"
        },
        {
          "indexed": true,
          "internalType": "address",
          "name": "provider",
          "type": "address"
        },
        {
          "indexed": true,
          "internalType": "uint256",
          "name": "subscriptionId",
          "type": "uint256"
        },
        {
          "indexed": false,
          "internalType": "bytes32",
          "name": "ref",
          "type": "bytes32"
        },
        {
          "indexed": false,
          "internalType": "uint32",
          "name": "planId",
          "type": "uint32"
        }
      ],
      "name": "SubscriptionPendingCancel",
      "type": "event"
    },
    {
      "anonymous": false,
      "inputs": [
        {
          "indexed": true,
          "internalType": "address",
          "name": "consumer",
          "type": "address"
        },
        {
          "indexed": true,
          "internalType": "address",
          "name": "provider",
          "type": "address"
        },
        {
          "indexed": true,
          "internalType": "uint256",
          "name": "subscriptionId",
          "type": "uint256"
        },
        {
          "indexed": false,
          "internalType": "bytes32",
          "name": "ref",
          "type": "bytes32"
        },
        {
          "indexed": false,
          "internalType": "uint32",
          "name": "prevPlanId",
          "type": "uint32"
        },
        {
          "indexed": false,
          "internalType": "uint32",
          "name": "planId",
          "type": "uint32"
        }
      ],
      "name": "SubscriptionPendingChangePlan",
      "type": "event"
    },
    {
      "anonymous": false,
      "inputs": [
        {
          "indexed": true,
          "internalType": "address",
          "name": "consumer",
          "type": "address"
        },
        {
          "indexed": true,
          "internalType": "address",
          "name": "provider",
          "type": "address"
        },
        {
          "indexed": true,
          "internalType": "uint256",
          "name": "subscriptionId",
          "type": "uint256"
        },
        {
          "indexed": false,
          "internalType": "bytes32",
          "name": "ref",
          "type": "bytes32"
        },
        {
          "indexed": false,
          "internalType": "uint32",
          "name": "planId",
          "type": "uint32"
        }
      ],
      "name": "SubscriptionRenewed",
      "type": "event"
    },
    {
      "anonymous": false,
      "inputs": [
        {
          "indexed": true,
          "internalType": "address",
          "name": "consumer",
          "type": "address"
        },
        {
          "indexed": true,
          "internalType": "address",
          "name": "provider",
          "type": "address"
        },
        {
          "indexed": true,
          "internalType": "uint256",
          "name": "subscriptionId",
          "type": "uint256"
        },
        {
          "indexed": false,
          "internalType": "bytes32",
          "name": "ref",
          "type": "bytes32"
        },
        {
          "indexed": false,
          "internalType": "uint32",
          "name": "planId",
          "type": "uint32"
        }
      ],
      "name": "SubscriptionResumed",
      "type": "event"
    },
    {
      "anonymous": false,
      "inputs": [
        {
          "indexed": true,
          "internalType": "address",
          "name": "consumer",
          "type": "address"
        },
        {
          "indexed": true,
          "internalType": "address",
          "name": "provider",
          "type": "address"
        },
        {
          "indexed": true,
          "internalType": "uint256",
          "name": "subscriptionId",
          "type": "uint256"
        },
        {
          "indexed": false,
          "internalType": "bytes32",
          "name": "ref",
          "type": "bytes32"
        },
        {
          "indexed": false,
          "internalType": "uint32",
          "name": "planId",
          "type": "uint32"
        }
      ],
      "name": "SubscriptionTrialEnded",
      "type": "event"
    },
    {
      "anonymous": false,
      "inputs": [
        {
          "indexed": true,
          "internalType": "address",
          "name": "from",
          "type": "address"
        },
        {
          "indexed": true,
          "internalType": "address",
          "name": "to",
          "type": "address"
        },
        {
          "indexed": true,
          "internalType": "uint256",
          "name": "tokenId",
          "type": "uint256"
        }
      ],
      "name": "Transfer",
      "type": "event"
    },
    {
      "anonymous": false,
      "inputs": [
        {
          "indexed": false,
          "internalType": "address",
          "name": "account",
          "type": "address"
        }
      ],
      "name": "Unpaused",
      "type": "event"
    },
    {
      "inputs": [
        {
          "internalType": "address",
          "name": "to",
          "type": "address"
        },
        {
          "internalType": "uint256",
          "name": "tokenId",
          "type": "uint256"
        }
      ],
      "name": "approve",
      "outputs": [],
      "stateMutability": "nonpayable",
      "type": "function"
    },
    {
      "inputs": [
        {
          "internalType": "address",
          "name": "owner",
          "type": "address"
        }
      ],
      "name": "balanceOf",
      "outputs": [
        {
          "internalType": "uint256",
          "name": "",
          "type": "uint256"
        }
      ],
      "stateMutability": "view",
      "type": "function"
    },
    {
      "inputs": [
        {
          "internalType": "uint256",
          "name": "_subscriptionId",
          "type": "uint256"
        }
      ],
      "name": "cancelSubscription",
      "outputs": [],
      "stateMutability": "nonpayable",
      "type": "function"
    },
    {
      "inputs": [
        {
          "internalType": "uint256",
          "name": "_subscriptionId",
          "type": "uint256"
        },
        {
          "internalType": "uint32",
          "name": "_cancelAt",
          "type": "uint32"
        }
      ],
      "name": "changeSubscriptionCancelAt",
      "outputs": [],
      "stateMutability": "nonpayable",
      "type": "function"
    },
    {
      "inputs": [
        {
          "internalType": "uint256",
          "name": "_subscriptionId",
          "type": "uint256"
        },
        {
          "internalType": "bytes32[]",
          "name": "_discountProof",
          "type": "bytes32[]"
        }
      ],
      "name": "changeSubscriptionDiscount",
      "outputs": [],
      "stateMutability": "nonpayable",
      "type": "function"
    },
    {
      "inputs": [
        {
          "internalType": "uint256",
          "name": "_subscriptionId",
          "type": "uint256"
        },
        {
          "internalType": "bytes32[]",
          "name": "_planProof",
          "type": "bytes32[]"
        },
        {
          "internalType": "bytes32[]",
          "name": "_discountProof",
          "type": "bytes32[]"
        },
        {
          "internalType": "bytes",
          "name": "_providerSignature",
          "type": "bytes"
        },
        {
          "internalType": "string",
          "name": "_cid",
          "type": "string"
        }
      ],
      "name": "changeSubscriptionPlan",
      "outputs": [],
      "stateMutability": "nonpayable",
      "type": "function"
    },
    {
      "inputs": [
        {
          "internalType": "bytes32[]",
          "name": "_planProof",
          "type": "bytes32[]"
        },
        {
          "internalType": "bytes32[]",
          "name": "_discountProof",
          "type": "bytes32[]"
        },
        {
          "internalType": "bytes32",
          "name": "_networkData",
          "type": "bytes32"
        },
        {
          "internalType": "uint32",
          "name": "_cancelAt",
          "type": "uint32"
        },
        {
          "internalType": "bytes",
          "name": "_providerSignature",
          "type": "bytes"
        },
        {
          "internalType": "bytes",
          "name": "_networkSignature",
          "type": "bytes"
        },
        {
          "internalType": "string",
          "name": "_cid",
          "type": "string"
        }
      ],
      "name": "createNetworkSubscription",
      "outputs": [],
      "stateMutability": "nonpayable",
      "type": "function"
    },
    {
      "inputs": [
        {
          "internalType": "bytes32[]",
          "name": "_planProof",
          "type": "bytes32[]"
        },
        {
          "internalType": "bytes32[]",
          "name": "_discountProof",
          "type": "bytes32[]"
        },
        {
          "internalType": "uint32",
          "name": "_cancelAt",
          "type": "uint32"
        },
        {
          "internalType": "bytes",
          "name": "_providerSignature",
          "type": "bytes"
        },
        {
          "internalType": "string",
          "name": "_cid",
          "type": "string"
        }
      ],
      "name": "createSubscription",
      "outputs": [],
      "stateMutability": "nonpayable",
      "type": "function"
    },
    {
      "inputs": [],
      "name": "gasRefundLimitCancelSubscription",
      "outputs": [
        {
          "internalType": "uint256",
          "name": "",
          "type": "uint256"
        }
      ],
      "stateMutability": "view",
      "type": "function"
    },
    {
      "inputs": [],
      "name": "gasRefundLimitChangeSubscription",
      "outputs": [
        {
          "internalType": "uint256",
          "name": "",
          "type": "uint256"
        }
      ],
      "stateMutability": "view",
      "type": "function"
    },
    {
      "inputs": [],
      "name": "gasRefundLimitCreateSubscription",
      "outputs": [
        {
          "internalType": "uint256",
          "name": "",
          "type": "uint256"
        }
      ],
      "stateMutability": "view",
      "type": "function"
    },
    {
      "inputs": [],
      "name": "gasRefundLimitOther",
      "outputs": [
        {
          "internalType": "uint256",
          "name": "",
          "type": "uint256"
        }
      ],
      "stateMutability": "view",
      "type": "function"
    },
    {
      "inputs": [],
      "name": "getAllSubscriptions",
      "outputs": [
        {
          "internalType": "uint256[]",
          "name": "",
          "type": "uint256[]"
        }
      ],
      "stateMutability": "view",
      "type": "function"
    },
    {
      "inputs": [],
      "name": "getAllSubscriptionsCount",
      "outputs": [
        {
          "internalType": "uint256",
          "name": "",
          "type": "uint256"
        }
      ],
      "stateMutability": "view",
      "type": "function"
    },
    {
      "inputs": [
        {
          "internalType": "uint256",
          "name": "tokenId",
          "type": "uint256"
        }
      ],
      "name": "getApproved",
      "outputs": [
        {
          "internalType": "address",
          "name": "",
          "type": "address"
        }
      ],
      "stateMutability": "view",
      "type": "function"
    },
    {
      "inputs": [
        {
          "internalType": "address",
          "name": "_consumer",
          "type": "address"
        }
      ],
      "name": "getConsumerSubscriptionCount",
      "outputs": [
        {
          "internalType": "uint256",
          "name": "",
          "type": "uint256"
        }
      ],
      "stateMutability": "view",
      "type": "function"
    },
    {
      "inputs": [
        {
          "internalType": "address",
          "name": "_consumer",
          "type": "address"
        },
        {
          "internalType": "uint256",
          "name": "limit",
          "type": "uint256"
        },
        {
          "internalType": "uint256",
          "name": "offset",
          "type": "uint256"
        }
      ],
      "name": "getConsumerSubscriptions",
      "outputs": [
        {
          "internalType": "uint256[]",
          "name": "",
          "type": "uint256[]"
        }
      ],
      "stateMutability": "view",
      "type": "function"
    },
    {
      "inputs": [
        {
          "internalType": "uint256",
          "name": "_subscriptionId",
          "type": "uint256"
        }
      ],
      "name": "getPendingPlanChange",
      "outputs": [
        {
          "internalType": "bytes32",
          "name": "",
          "type": "bytes32"
        }
      ],
      "stateMutability": "view",
      "type": "function"
    },
    {
      "inputs": [
        {
          "internalType": "address",
          "name": "_provider",
          "type": "address"
        }
      ],
      "name": "getProviderActiveSubscriptionCount",
      "outputs": [
        {
          "internalType": "uint256",
          "name": "",
          "type": "uint256"
        }
      ],
      "stateMutability": "view",
      "type": "function"
    },
    {
      "inputs": [
        {
          "internalType": "address",
          "name": "_provider",
          "type": "address"
        },
        {
          "internalType": "uint32",
          "name": "_planId",
          "type": "uint32"
        }
      ],
      "name": "getProviderPlanActiveSubscriptionCount",
      "outputs": [
        {
          "internalType": "uint256",
          "name": "",
          "type": "uint256"
        }
      ],
      "stateMutability": "view",
      "type": "function"
    },
    {
      "inputs": [
        {
          "internalType": "address",
          "name": "_provider",
          "type": "address"
        }
      ],
      "name": "getProviderSubscriptionCount",
      "outputs": [
        {
          "internalType": "uint256",
          "name": "",
          "type": "uint256"
        }
      ],
      "stateMutability": "view",
      "type": "function"
    },
    {
      "inputs": [
        {
          "internalType": "address",
          "name": "_provider",
          "type": "address"
        },
        {
          "internalType": "uint256",
          "name": "limit",
          "type": "uint256"
        },
        {
          "internalType": "uint256",
          "name": "offset",
          "type": "uint256"
        }
      ],
      "name": "getProviderSubscriptions",
      "outputs": [
        {
          "internalType": "uint256[]",
          "name": "",
          "type": "uint256[]"
        }
      ],
      "stateMutability": "view",
      "type": "function"
    },
    {
      "inputs": [
        {
          "internalType": "uint256",
          "name": "_subscriptionId",
          "type": "uint256"
        }
      ],
      "name": "getSubscription",
      "outputs": [
        {
          "components": [
            {
              "internalType": "bytes32",
              "name": "planData",
              "type": "bytes32"
            },
            {
              "internalType": "bytes32",
              "name": "networkData",
              "type": "bytes32"
            },
            {
              "internalType": "bytes32",
              "name": "discountId",
              "type": "bytes32"
            },
            {
              "internalType": "bytes32",
              "name": "discountData",
              "type": "bytes32"
            },
            {
              "internalType": "bytes32",
              "name": "ref",
              "type": "bytes32"
            },
            {
              "internalType": "address",
              "name": "provider",
              "type": "address"
            },
            {
              "internalType": "enum ICaskSubscriptions.SubscriptionStatus",
              "name": "status",
              "type": "uint8"
            },
            {
              "internalType": "uint32",
              "name": "planId",
              "type": "uint32"
            },
            {
              "internalType": "uint32",
              "name": "createdAt",
              "type": "uint32"
            },
            {
              "internalType": "uint32",
              "name": "renewAt",
              "type": "uint32"
            },
            {
              "internalType": "uint32",
              "name": "minTermAt",
              "type": "uint32"
            },
            {
              "internalType": "uint32",
              "name": "cancelAt",
              "type": "uint32"
            },
            {
              "internalType": "string",
              "name": "cid",
              "type": "string"
            }
          ],
          "internalType": "struct ICaskSubscriptions.Subscription",
          "name": "",
          "type": "tuple"
        }
      ],
      "stateMutability": "view",
      "type": "function"
    },
    {
      "inputs": [
        {
          "internalType": "address",
          "name": "_subscriptionPlans",
          "type": "address"
        }
      ],
      "name": "initialize",
      "outputs": [],
      "stateMutability": "nonpayable",
      "type": "function"
    },
    {
      "inputs": [
        {
          "internalType": "address",
          "name": "owner",
          "type": "address"
        },
        {
          "internalType": "address",
          "name": "operator",
          "type": "address"
        }
      ],
      "name": "isApprovedForAll",
      "outputs": [
        {
          "internalType": "bool",
          "name": "",
          "type": "bool"
        }
      ],
      "stateMutability": "view",
      "type": "function"
    },
    {
      "inputs": [
        {
          "internalType": "uint256",
          "name": "_subscriptionId",
          "type": "uint256"
        }
      ],
      "name": "managerCancelSubscription",
      "outputs": [],
      "stateMutability": "nonpayable",
      "type": "function"
    },
    {
      "inputs": [
        {
          "internalType": "uint256",
          "name": "_subscriptionId",
          "type": "uint256"
        }
      ],
      "name": "managerClearDiscount",
      "outputs": [],
      "stateMutability": "nonpayable",
      "type": "function"
    },
    {
      "inputs": [
        {
          "internalType": "uint256",
          "name": "_subscriptionId",
          "type": "uint256"
        }
      ],
      "name": "managerPastDueSubscription",
      "outputs": [],
      "stateMutability": "nonpayable",
      "type": "function"
    },
    {
      "inputs": [
        {
          "internalType": "uint256",
          "name": "_subscriptionId",
          "type": "uint256"
        }
      ],
      "name": "managerPlanChange",
      "outputs": [],
      "stateMutability": "nonpayable",
      "type": "function"
    },
    {
      "inputs": [
        {
          "internalType": "uint256",
          "name": "_subscriptionId",
          "type": "uint256"
        }
      ],
      "name": "managerRenewSubscription",
      "outputs": [],
      "stateMutability": "nonpayable",
      "type": "function"
    },
    {
      "inputs": [],
      "name": "name",
      "outputs": [
        {
          "internalType": "string",
          "name": "",
          "type": "string"
        }
      ],
      "stateMutability": "view",
      "type": "function"
    },
    {
      "inputs": [],
      "name": "owner",
      "outputs": [
        {
          "internalType": "address",
          "name": "",
          "type": "address"
        }
      ],
      "stateMutability": "view",
      "type": "function"
    },
    {
      "inputs": [
        {
          "internalType": "uint256",
          "name": "tokenId",
          "type": "uint256"
        }
      ],
      "name": "ownerOf",
      "outputs": [
        {
          "internalType": "address",
          "name": "",
          "type": "address"
        }
      ],
      "stateMutability": "view",
      "type": "function"
    },
    {
      "inputs": [],
      "name": "pause",
      "outputs": [],
      "stateMutability": "nonpayable",
      "type": "function"
    },
    {
      "inputs": [
        {
          "internalType": "uint256",
          "name": "_subscriptionId",
          "type": "uint256"
        }
      ],
      "name": "pauseSubscription",
      "outputs": [],
      "stateMutability": "nonpayable",
      "type": "function"
    },
    {
      "inputs": [],
      "name": "paused",
      "outputs": [
        {
          "internalType": "bool",
          "name": "",
          "type": "bool"
        }
      ],
      "stateMutability": "view",
      "type": "function"
    },
    {
      "inputs": [],
      "name": "renounceOwnership",
      "outputs": [],
      "stateMutability": "nonpayable",
      "type": "function"
    },
    {
      "inputs": [
        {
          "internalType": "uint256",
          "name": "_subscriptionId",
          "type": "uint256"
        }
      ],
      "name": "resumeSubscription",
      "outputs": [],
      "stateMutability": "nonpayable",
      "type": "function"
    },
    {
      "inputs": [
        {
          "internalType": "address",
          "name": "from",
          "type": "address"
        },
        {
          "internalType": "address",
          "name": "to",
          "type": "address"
        },
        {
          "internalType": "uint256",
          "name": "tokenId",
          "type": "uint256"
        }
      ],
      "name": "safeTransferFrom",
      "outputs": [],
      "stateMutability": "nonpayable",
      "type": "function"
    },
    {
      "inputs": [
        {
          "internalType": "address",
          "name": "from",
          "type": "address"
        },
        {
          "internalType": "address",
          "name": "to",
          "type": "address"
        },
        {
          "internalType": "uint256",
          "name": "tokenId",
          "type": "uint256"
        },
        {
          "internalType": "bytes",
          "name": "_data",
          "type": "bytes"
        }
      ],
      "name": "safeTransferFrom",
      "outputs": [],
      "stateMutability": "nonpayable",
      "type": "function"
    },
    {
      "inputs": [
        {
          "internalType": "address",
          "name": "operator",
          "type": "address"
        },
        {
          "internalType": "bool",
          "name": "approved",
          "type": "bool"
        }
      ],
      "name": "setApprovalForAll",
      "outputs": [],
      "stateMutability": "nonpayable",
      "type": "function"
    },
    {
      "inputs": [
        {
          "internalType": "address",
          "name": "_subscriptionManager",
          "type": "address"
        }
      ],
      "name": "setManager",
      "outputs": [],
      "stateMutability": "nonpayable",
      "type": "function"
    },
    {
      "inputs": [
        {
          "internalType": "uint256",
          "name": "_gasRefundLimitCreateSubscription",
          "type": "uint256"
        },
        {
          "internalType": "uint256",
          "name": "_gasRefundLimitChangeSubscription",
          "type": "uint256"
        },
        {
          "internalType": "uint256",
          "name": "_gasRefundLimitCancelSubscription",
          "type": "uint256"
        },
        {
          "internalType": "uint256",
          "name": "_gasRefundLimitOther",
          "type": "uint256"
        }
      ],
      "name": "setParameters",
      "outputs": [],
      "stateMutability": "nonpayable",
      "type": "function"
    },
    {
      "inputs": [],
      "name": "subscriptionManager",
      "outputs": [
        {
          "internalType": "contract ICaskSubscriptionManager",
          "name": "",
          "type": "address"
        }
      ],
      "stateMutability": "view",
      "type": "function"
    },
    {
      "inputs": [],
      "name": "subscriptionPlans",
      "outputs": [
        {
          "internalType": "contract ICaskSubscriptionPlans",
          "name": "",
          "type": "address"
        }
      ],
      "stateMutability": "view",
      "type": "function"
    },
    {
      "inputs": [
        {
          "internalType": "bytes4",
          "name": "interfaceId",
          "type": "bytes4"
        }
      ],
      "name": "supportsInterface",
      "outputs": [
        {
          "internalType": "bool",
          "name": "",
          "type": "bool"
        }
      ],
      "stateMutability": "view",
      "type": "function"
    },
    {
      "inputs": [],
      "name": "symbol",
      "outputs": [
        {
          "internalType": "string",
          "name": "",
          "type": "string"
        }
      ],
      "stateMutability": "view",
      "type": "function"
    },
    {
      "inputs": [
        {
          "internalType": "uint256",
          "name": "_subscriptionId",
          "type": "uint256"
        }
      ],
      "name": "tokenURI",
      "outputs": [
        {
          "internalType": "string",
          "name": "",
          "type": "string"
        }
      ],
      "stateMutability": "view",
      "type": "function"
    },
    {
      "inputs": [
        {
          "internalType": "address",
          "name": "from",
          "type": "address"
        },
        {
          "internalType": "address",
          "name": "to",
          "type": "address"
        },
        {
          "internalType": "uint256",
          "name": "tokenId",
          "type": "uint256"
        }
      ],
      "name": "transferFrom",
      "outputs": [],
      "stateMutability": "nonpayable",
      "type": "function"
    },
    {
      "inputs": [
        {
          "internalType": "address",
          "name": "newOwner",
          "type": "address"
        }
      ],
      "name": "transferOwnership",
      "outputs": [],
      "stateMutability": "nonpayable",
      "type": "function"
    },
    {
      "inputs": [],
      "name": "unpause",
      "outputs": [],
      "stateMutability": "nonpayable",
      "type": "function"
    }
  ],
  "transactionHash": "0xe0a6d711e296d4fd2ecf06bbd03a1b656a143f5ba5295d00774751e042ee8b94",
  "args": [],
  "numDeployments": 4,
  "solcInputHash": "05372b4b96a0a02c64a17bf31d22afb6",
  "bytecode": "0x60806040523480156200001157600080fd5b50600054610100900460ff166200002f5760005460ff161562000039565b62000039620000de565b620000a15760405162461bcd60e51b815260206004820152602e60248201527f496e697469616c697a61626c653a20636f6e747261637420697320616c72656160448201526d191e481a5b9a5d1a585b1a5e995960921b606482015260840160405180910390fd5b600054610100900460ff16158015620000c4576000805461ffff19166101011790555b8015620000d7576000805461ff00191690555b5062000102565b6000620000f630620000fc60201b620029881760201c565b15905090565b3b151590565b615a0b80620001126000396000f3fe608060405234801561001057600080fd5b50600436106102f15760003560e01c80638e814f111161019d578063c7a687bf116100e9578063e985e9c5116100a2578063f2fde38b1161007c578063f2fde38b14610708578063f6189f0e1461071b578063fb288e151461072e578063fcd9da441461073757600080fd5b8063e985e9c514610699578063ef5e668d146106d5578063f268f53e146106de57600080fd5b8063c7a687bf146105f5578063c86e69541461061f578063c87b56dd14610640578063d0ebdbe714610653578063dbb4520b14610666578063dc311dd31461067957600080fd5b8063a746df7011610156578063ba4bf1b611610130578063ba4bf1b6146105a9578063bf158fd2146105bc578063c0159f6f146105cf578063c4d66de8146105e257600080fd5b8063a746df7014610570578063ab5f8b7c14610583578063b88d4fde1461059657600080fd5b80638e814f11146104dd5780638fe17b16146104f05780639377877d1461050357806395d89b4114610542578063a0936cb11461054a578063a22cb4651461055d57600080fd5b8063406907071161025c5780636352211e11610215578063715018a6116101ef578063715018a6146104a95780638456cb59146104b157806385e25ad4146104b95780638da5cb5b146104cc57600080fd5b80636352211e146104705780636c4f70df1461048357806370a082311461049657600080fd5b8063406907071461040e57806341f23f0a1461042157806342842e0e1461043457806343e6a6ee1461044757806356eb00a1146104505780635c975abb1461046557600080fd5b806313406f6f116102ae57806313406f6f1461039957806316020d21146103ac57806321235083146103b657806323b872dd146103c9578063291b9a3f146103dc5780633f4ba83a1461040657600080fd5b806301ffc9a7146102f6578063023a584e1461031e57806306fdde0314610333578063081812fc1461034857806308e7250314610373578063095ea7b314610386575b600080fd5b610309610304366004614cc2565b61074a565b60405190151581526020015b60405180910390f35b61033161032c366004614cdf565b61079c565b005b61033b610a83565b6040516103159190614d50565b61035b610356366004614cdf565b610b15565b6040516001600160a01b039091168152602001610315565b610101545b604051908152602001610315565b610331610394366004614d7f565b610baa565b6103316103a7366004614ee7565b610cc0565b6103786101005481565b6103316103c4366004614cdf565b610d98565b6103316103d7366004614fea565b611003565b6103786103ea366004615026565b6001600160a01b03166000908152610102602052604090205490565b610331611034565b61033161041c366004614cdf565b611068565b61033161042f366004614cdf565b61125a565b610331610442366004614fea565b611590565b61037860fd5481565b6104586115ab565b6040516103159190615041565b60c95460ff16610309565b61035b61047e366004614cdf565b611603565b610331610491366004614cdf565b61167a565b6103786104a4366004615026565b611761565b6103316117e8565b61033161181c565b6103316104c7366004615085565b61184e565b6097546001600160a01b031661035b565b6103316104eb366004614cdf565b61196d565b60fc5461035b906001600160a01b031681565b6103786105113660046150b1565b6001600160a01b03821660009081526101076020908152604080832063ffffffff8516845290915290205492915050565b61033b611b3c565b610331610558366004614cdf565b611b4b565b61033161056b3660046150e9565b611bad565b61033161057e366004615120565b611bbc565b6104586105913660046151e8565b611ca3565b6103316105a436600461521b565b611d6d565b6103316105b7366004615283565b611d9f565b60fb5461035b906001600160a01b031681565b6103316105dd3660046152cf565b612028565b6103316105f0366004615026565b6120d5565b610378610603366004615026565b6001600160a01b03166000908152610106602052604090205490565b61037861062d366004614cdf565b6000908152610104602052604090205490565b61033b61064e366004614cdf565b612222565b610331610661366004615026565b612448565b610331610674366004614cdf565b612494565b61068c610687366004614cdf565b6125ff565b6040516103159190615396565b6103096106a7366004615490565b6001600160a01b039182166000908152606a6020908152604080832093909416825291909152205460ff1690565b61037860ff5481565b6103786106ec366004615026565b6001600160a01b03166000908152610105602052604090205490565b610331610716366004615026565b6127ed565b6104586107293660046151e8565b612888565b61037860fe5481565b6103316107453660046154ba565b612949565b60006001600160e01b031982166380ac58cd60e01b148061077b57506001600160e01b03198216635b5e139f60e01b145b8061079657506301ffc9a760e01b6001600160e01b03198316145b92915050565b806107a681611603565b6001600160a01b0316336001600160a01b0316146107df5760405162461bcd60e51b81526004016107d6906154ec565b60405180910390fd5b60c95460ff16156108025760405162461bcd60e51b81526004016107d69061550b565b60005a60008481526101036020526040902090915060036005820154600160a01b900460ff1660068111156108395761083961535e565b146108745760405162461bcd60e51b815260206004820152600b60248201526a085393d517d4105554d15160aa1b60448201526064016107d6565b6000610883826000015461298e565b9050806080015163ffffffff16600014806108d65750608081015160058301546001600160a01b03166000908152610107602090815260408083208286015163ffffffff90811685529252909120549116115b6109105760405162461bcd60e51b815260206004820152600b60248201526a214d41585f41435449564560a81b60448201526064016107d6565b60058201805460ff60a01b198116600160a11b17918290556001600160a01b0316600090815261010760209081526040808320600160a81b90940463ffffffff16835292905290812080546001929061096a90849061554b565b9091555050600682015463ffffffff4281169116101561099c5760068201805463ffffffff19164263ffffffff161790555b600582015485906001600160a01b03166109b582611603565b6004850154600586015460408051928352600160a81b90910463ffffffff1660208301526001600160a01b0392909216917f7ee0fc3eab7021686f891346ebbf5bab192d6f9995fcc66021f4551888dc1481910160405180910390a460fb5461010054604051632fe329ff60e21b81526004810186905260248101919091526001600160a01b039091169063bf8ca7fc906044015b600060405180830381600087803b158015610a6457600080fd5b505af1158015610a78573d6000803e3d6000fd5b505050505050505050565b606060658054610a9290615563565b80601f0160208091040260200160405190810160405280929190818152602001828054610abe90615563565b8015610b0b5780601f10610ae057610100808354040283529160200191610b0b565b820191906000526020600020905b815481529060010190602001808311610aee57829003601f168201915b5050505050905090565b6000818152606760205260408120546001600160a01b0316610b8e5760405162461bcd60e51b815260206004820152602c60248201527f4552433732313a20617070726f76656420717565727920666f72206e6f6e657860448201526b34b9ba32b73a103a37b5b2b760a11b60648201526084016107d6565b506000908152606960205260409020546001600160a01b031690565b6000610bb582611603565b9050806001600160a01b0316836001600160a01b03161415610c235760405162461bcd60e51b815260206004820152602160248201527f4552433732313a20617070726f76616c20746f2063757272656e74206f776e656044820152603960f91b60648201526084016107d6565b336001600160a01b0382161480610c3f5750610c3f81336106a7565b610cb15760405162461bcd60e51b815260206004820152603860248201527f4552433732313a20617070726f76652063616c6c6572206973206e6f74206f7760448201527f6e6572206e6f7220617070726f76656420666f7220616c6c000000000000000060648201526084016107d6565b610cbb8383612a53565b505050565b60c95460ff1615610ce35760405162461bcd60e51b81526004016107d69061550b565b60005a90506000610cfa8c8c8c8c8b8b8a8a612ac1565b9050610d0688866131b7565b506000818152610103602052604090819020600181018a905560fb5460fd549251632fe329ff60e21b815260048101869052602481019390935290916001600160a01b039091169063bf8ca7fc90604401600060405180830381600087803b158015610d7157600080fd5b505af1158015610d85573d6000803e3d6000fd5b5050505050505050505050505050505050565b80610da281611603565b6001600160a01b0316336001600160a01b03161480610ddb5750600081815261010360205260409020600501546001600160a01b031633145b610df75760405162461bcd60e51b81526004016107d6906154ec565b60c95460ff1615610e1a5760405162461bcd60e51b81526004016107d69061550b565b60005a600084815261010360205260409020909150600580820154600160a01b900460ff166006811115610e5057610e5061535e565b14158015610e7e575060046005820154600160a01b900460ff166006811115610e7b57610e7b61535e565b14155b610e9a5760405162461bcd60e51b81526004016107d69061559e565b6006810154600160201b900463ffffffff161580610ece5750600681015463ffffffff600160201b90910481164290911610155b610eea5760405162461bcd60e51b81526004016107d6906155c8565b600581018054600560a01b60ff60a01b1982161790915584906001600160a01b0316610f1582611603565b6004840154600585015460408051928352600160a81b90910463ffffffff1660208301526001600160a01b0392909216917f83217e17a62745245734031007583a7faee757904c6d101fc0003df8e0b541d4910160405180910390a4610f7a84611603565b6001600160a01b0316336001600160a01b03161415610ffd5760fb5460ff54604051632fe329ff60e21b81526004810185905260248101919091526001600160a01b039091169063bf8ca7fc90604401600060405180830381600087803b158015610fe457600080fd5b505af1158015610ff8573d6000803e3d6000fd5b505050505b50505050565b61100d33826132dd565b6110295760405162461bcd60e51b81526004016107d6906155eb565b610cbb8383836133d4565b6097546001600160a01b0316331461105e5760405162461bcd60e51b81526004016107d69061563c565b61106661357f565b565b60fb546001600160a01b031633146110925760405162461bcd60e51b81526004016107d6906154ec565b60c95460ff16156110b55760405162461bcd60e51b81526004016107d69061550b565b60008181526101046020526040902054806111125760405162461bcd60e51b815260206004820152601960248201527f21494e56414c49442870656e64696e67506c616e44617461290000000000000060448201526064016107d6565b6000828152610103602052604081209061112b8361298e565b600583015490915084906001600160a01b031661114782611603565b6004850154600586015460208087015160028901546040805195865263ffffffff600160a81b90950485169386019390935292169083015260608201526001600160a01b0391909116907fe17e61be0a4aac2f0b6fece72cedc2ab9ca554634d5af864a9282095206a0c2b9060800160405180910390a4602081015160058301805463ffffffff909216600160a81b0263ffffffff60a81b1990921691909117905582825560a081015161ffff1615611245578060a0015161ffff1681604001516112129190615671565b6112229063ffffffff164261554b565b8260060160046101000a81548163ffffffff021916908363ffffffff1602179055505b50505060009081526101046020526040812055565b8061126481611603565b6001600160a01b0316336001600160a01b0316148061129d5750600081815261010360205260409020600501546001600160a01b031633145b6112b95760405162461bcd60e51b81526004016107d6906154ec565b60c95460ff16156112dc5760405162461bcd60e51b81526004016107d69061550b565b60005a60008481526101036020526040902090915060036005820154600160a01b900460ff1660068111156113135761131361535e565b14158015611341575060066005820154600160a01b900460ff16600681111561133e5761133e61535e565b14155b801561136d575060046005820154600160a01b900460ff16600681111561136a5761136a61535e565b14155b80156113985750600580820154600160a01b900460ff1660068111156113955761139561535e565b14155b6113b45760405162461bcd60e51b81526004016107d69061559e565b6006810154600160201b900463ffffffff1615806113e85750600681015463ffffffff600160201b90910481164290911610155b6114045760405162461bcd60e51b81526004016107d6906155c8565b6000611413826000015461298e565b90508060c001516114565760405162461bcd60e51b815260206004820152600d60248201526c214e4f545f5041555341424c4560981b60448201526064016107d6565b60058201805460ff60a01b198116600360a01b17918290556001600160a01b0316600090815261010760209081526040808320600160a81b90940463ffffffff1683529290529081208054600192906114b090849061569d565b9091555050600582015485906001600160a01b03166114ce82611603565b6004850154600586015460408051928352600160a81b90910463ffffffff1660208301526001600160a01b0392909216917f7afd3b59e582bb56b590409b808e910ae787056cb10b682b9bdefa44c8eb940d910160405180910390a461153385611603565b6001600160a01b0316336001600160a01b031614156115895760fb5461010054604051632fe329ff60e21b81526004810186905260248101919091526001600160a01b039091169063bf8ca7fc90604401610a4a565b5050505050565b610cbb83838360405180602001604052806000815250611d6d565b6060610101805480602002602001604051908101604052809291908181526020018280548015610b0b57602002820191906000526020600020905b8154815260200190600101908083116115e6575050505050905090565b6000818152606760205260408120546001600160a01b0316806107965760405162461bcd60e51b815260206004820152602960248201527f4552433732313a206f776e657220717565727920666f72206e6f6e657869737460448201526832b73a103a37b5b2b760b91b60648201526084016107d6565b60fb546001600160a01b031633146116a45760405162461bcd60e51b81526004016107d6906154ec565b60c95460ff16156116c75760405162461bcd60e51b81526004016107d69061550b565b600081815261010360205260409020600581018054600360a11b60ff60a01b1982161790915582906001600160a01b031661170182611603565b6004840154600585015460408051928352600160a81b90910463ffffffff1660208301526001600160a01b0392909216917f44abb4f4529fdbcacc1ee98eef9318eaf9a12044d6925a2dc2c702959d9352f1910160405180910390a45050565b60006001600160a01b0382166117cc5760405162461bcd60e51b815260206004820152602a60248201527f4552433732313a2062616c616e636520717565727920666f7220746865207a65604482015269726f206164647265737360b01b60648201526084016107d6565b506001600160a01b031660009081526068602052604090205490565b6097546001600160a01b031633146118125760405162461bcd60e51b81526004016107d69061563c565b6110666000613612565b6097546001600160a01b031633146118465760405162461bcd60e51b81526004016107d69061563c565b611066613664565b8161185881611603565b6001600160a01b0316336001600160a01b0316146118885760405162461bcd60e51b81526004016107d6906154ec565b60c95460ff16156118ab5760405162461bcd60e51b81526004016107d69061550b565b60005a600085815261010360205260409020600681015491925090600160201b900463ffffffff1615806118f45750600681015463ffffffff600160201b909104811690851610155b6119105760405162461bcd60e51b81526004016107d6906155c8565b60068101805463ffffffff60401b1916600160401b63ffffffff87160217905560fb5461010054604051632fe329ff60e21b81526004810185905260248101919091526001600160a01b039091169063bf8ca7fc90604401610a4a565b60fb546001600160a01b031633146119975760405162461bcd60e51b81526004016107d6906154ec565b60c95460ff16156119ba5760405162461bcd60e51b81526004016107d69061550b565b60008181526101036020526040812080549091906119d79061298e565b905060016005830154600160a01b900460ff1660068111156119fb576119fb61535e565b1415611a7757600582015483906001600160a01b0316611a1a82611603565b6004850154600586015460408051928352600160a81b90910463ffffffff1660208301526001600160a01b0392909216917ff42e506093cb49dad3d3349cf7a2b390140be665daecb2c820e903afd12b1df7910160405180910390a45b60058201805460ff60a01b1916600160a11b17905560408101516006830154611aa6919063ffffffff166156b4565b60068301805463ffffffff191663ffffffff92909216919091179055600582015483906001600160a01b0316611adb82611603565b6004850154600586015460408051928352600160a81b90910463ffffffff1660208301526001600160a01b0392909216917fcdd2eee203a384f2c6e81f39021f7e3ebef3a21ccd0d0f6dd117387ab61b6b54910160405180910390a4505050565b606060668054610a9290615563565b60fb546001600160a01b03163314611b755760405162461bcd60e51b81526004016107d6906154ec565b60c95460ff1615611b985760405162461bcd60e51b81526004016107d69061550b565b60009081526101036020526040812060030155565b611bb83383836136bc565b5050565b87611bc681611603565b6001600160a01b0316336001600160a01b031614611bf65760405162461bcd60e51b81526004016107d6906154ec565b60c95460ff1615611c195760405162461bcd60e51b81526004016107d69061550b565b60005a9050611c2e8a8a8a8a8a8a8a8a61378b565b60fb5460fe54604051632fe329ff60e21b81526004810184905260248101919091526001600160a01b039091169063bf8ca7fc90604401600060405180830381600087803b158015611c7f57600080fd5b505af1158015611c93573d6000803e3d6000fd5b5050505050505050505050505050565b606060008367ffffffffffffffff811115611cc057611cc0614e02565b604051908082528060200260200182016040528015611ce9578160200160208202803683370190505b50905060005b84811015611d64576001600160a01b038616600090815261010260205260409020611d1a858361554b565b81548110611d2a57611d2a6156dc565b9060005260206000200154828281518110611d4757611d476156dc565b602090810291909101015280611d5c816156f2565b915050611cef565b50949350505050565b611d7733836132dd565b611d935760405162461bcd60e51b81526004016107d6906155eb565b610ffd84848484613b36565b82611da981611603565b6001600160a01b0316336001600160a01b03161480611de25750600081815261010360205260409020600501546001600160a01b031633145b611dfe5760405162461bcd60e51b81526004016107d6906154ec565b60c95460ff1615611e215760405162461bcd60e51b81526004016107d69061550b565b60005a60008681526101036020526040902060028101549192509015611e7e5760405162461bcd60e51b81526020600482015260126024820152710851561254d5125391d7d11254d0d3d5539560721b60448201526064016107d6565b6000868152610104602052604090205415611ee05760008681526101046020526040812054611eac9061298e565b60058301546020820151919250611ed0916001600160a01b03909116908888613b69565b6003840155600283015550611f13565b6005810154611f08906001600160a01b03811690600160a81b900463ffffffff168787613b69565b600383015560028201555b600581015486906001600160a01b0316611f2c82611603565b60048401546005850154600386015460408051938452600160a81b90920463ffffffff166020840152908201526001600160a01b0391909116907f23be24e2f5bdda1a165ef44cb730243e3f79e09d3c28086b166ab914c79750609060600160405180910390a4611f9c86611603565b6001600160a01b0316336001600160a01b031614156120205760fb5461010054604051632fe329ff60e21b81526004810185905260248101919091526001600160a01b039091169063bf8ca7fc90604401600060405180830381600087803b15801561200757600080fd5b505af115801561201b573d6000803e3d6000fd5b505050505b505050505050565b60c95460ff161561204b5760405162461bcd60e51b81526004016107d69061550b565b60005a90506120608989898989898989612ac1565b5060fb5460fd54604051632fe329ff60e21b81526004810184905260248101919091526001600160a01b039091169063bf8ca7fc90604401600060405180830381600087803b1580156120b257600080fd5b505af11580156120c6573d6000803e3d6000fd5b50505050505050505050505050565b600054610100900460ff166120f05760005460ff16156120f4565b303b155b6121575760405162461bcd60e51b815260206004820152602e60248201527f496e697469616c697a61626c653a20636f6e747261637420697320616c72656160448201526d191e481a5b9a5d1a585b1a5e995960921b60648201526084016107d6565b600054610100900460ff16158015612179576000805461ffff19166101011790555b612181613ce6565b612189613d1d565b6121dd604051806040016040528060128152602001714361736b20537562736372697074696f6e7360701b815250604051806040016040528060088152602001674341534b5355425360c01b815250613d54565b60fc80546001600160a01b0319166001600160a01b038416179055600060fd81905560fe81905560ff819055610100558015611bb8576000805461ff00191690555050565b6000818152606760205260409020546060906001600160a01b03166122a15760405162461bcd60e51b815260206004820152602f60248201527f4552433732314d657461646174613a2055524920717565727920666f72206e6f60448201526e3732bc34b9ba32b73a103a37b5b2b760891b60648201526084016107d6565b60008281526101036020908152604080832081516101a08101835281548152600182015493810193909352600281015491830191909152600381015460608301526004810154608083015260058101546001600160a01b03811660a084015260c0830190600160a01b900460ff1660068111156123205761232061535e565b60068111156123315761233161535e565b8152600582015463ffffffff600160a81b820481166020840152600160c81b9091048116604083015260068301548082166060840152600160201b810482166080840152600160401b90041660a082015260078201805460c09092019161239790615563565b80601f01602080910402602001604051908101604052809291908181526020018280546123c390615563565b80156124105780601f106123e557610100808354040283529160200191612410565b820191906000526020600020905b8154815290600101906020018083116123f357829003601f168201915b5050505050815250509050806101800151604051602001612431919061570d565b604051602081830303815290604052915050919050565b6097546001600160a01b031633146124725760405162461bcd60e51b81526004016107d69061563c565b60fb80546001600160a01b0319166001600160a01b0392909216919091179055565b60fb546001600160a01b031633146124be5760405162461bcd60e51b81526004016107d6906154ec565b60c95460ff16156124e15760405162461bcd60e51b81526004016107d69061550b565b600081815261010360209081526040808320600581018054600160a21b60ff60a01b198216179091556001600160a01b0316845261010690925282208054919260019261252f90849061569d565b909155505060058101546001600160a01b038116600090815261010760209081526040808320600160a81b90940463ffffffff16835292905290812080546001929061257c90849061569d565b9091555050600581015482906001600160a01b031661259a82611603565b6004840154600585015460408051928352600160a81b90910463ffffffff1660208301526001600160a01b0392909216917f58e4414596fd750dbb9dabfe65b97bf5add2061f5902f34e2b82a9c25bd79f98910160405180910390a4611bb882613d95565b604080516101a08101825260008082526020820181905291810182905260608082018390526080820183905260a0820183905260c0820183905260e082018390526101008201839052610120820183905261014082018390526101608201929092526101808101919091526000828152610103602090815260409182902082516101a08101845281548152600182015492810192909252600281015492820192909252600382015460608201526004820154608082015260058201546001600160a01b03811660a083015290919060c0830190600160a01b900460ff1660068111156126ed576126ed61535e565b60068111156126fe576126fe61535e565b8152600582015463ffffffff600160a81b820481166020840152600160c81b9091048116604083015260068301548082166060840152600160201b810482166080840152600160401b90041660a082015260078201805460c09092019161276490615563565b80601f016020809104026020016040519081016040528092919081815260200182805461279090615563565b80156127dd5780601f106127b2576101008083540402835291602001916127dd565b820191906000526020600020905b8154815290600101906020018083116127c057829003601f168201915b5050505050815250509050919050565b6097546001600160a01b031633146128175760405162461bcd60e51b81526004016107d69061563c565b6001600160a01b03811661287c5760405162461bcd60e51b815260206004820152602660248201527f4f776e61626c653a206e6577206f776e657220697320746865207a65726f206160448201526564647265737360d01b60648201526084016107d6565b61288581613612565b50565b606060008367ffffffffffffffff8111156128a5576128a5614e02565b6040519080825280602002602001820160405280156128ce578160200160208202803683370190505b50905060005b84811015611d64576001600160a01b0386166000908152610105602052604090206128ff858361554b565b8154811061290f5761290f6156dc565b906000526020600020015482828151811061292c5761292c6156dc565b602090810291909101015280612941816156f2565b9150506128d4565b6097546001600160a01b031633146129735760405162461bcd60e51b81526004016107d69061563c565b60fd9390935560fe9190915560ff5561010055565b3b151590565b6040805161010081018252600080825260208201819052918101829052606081018290526080810182905260a0810182905260c0810182905260e081019190915250604080516101008101825260a083811c8252608084811c63ffffffff908116602080860191909152606087811c8316868801529587901c8216958501959095529385901c90931692820192909252601083901c61ffff169181019190915260f09190911b600160f01b8181161460c0830152600160f11b9081161460e082015290565b600081815260696020526040902080546001600160a01b0319166001600160a01b0384169081179091558190612a8882611603565b6001600160a01b03167f8c5be1e5ebec7d5bd14f71427d1e84f3dd0314c0f7b2291e5b200ac8c7c3b92560405160405180910390a45050565b60006004881015612b0d5760405162461bcd60e51b815260206004820152601660248201527521494e56414c494428706c616e50726f6f664c656e2960501b60448201526064016107d6565b600060038710612b7557612b6e8a8a6000818110612b2d57612b2d6156dc565b90506020020135868c8c6003818110612b4857612b486156dc565b905060200201358b8b6002818110612b6257612b626156dc565b90506020020135613e3c565b9050612bb9565b612bb68a8a6000818110612b8b57612b8b6156dc565b90506020020135868c8c6003818110612ba657612ba66156dc565b905060200201356000801b613e3c565b90505b612bc38a8a613eba565b612bdf5760405162461bcd60e51b81526004016107d69061573c565b6000612c038b8b6002818110612bf757612bf76156dc565b9050602002013561298e565b90506000612cb48c8c6000818110612c1d57612c1d6156dc565b905060200201358d8d6001818110612c3757612c376156dc565b905060200201358e8e6002818110612c5157612c516156dc565b905060200201356040516bffffffffffffffffffffffff193360601b16602082015260348101849052605481018290526074810183905243609482015260009060b40160408051601f198184030181529190528051602090910120949350505050565b9050816080015163ffffffff1660001480612d03575060808201516001600160a01b0384166000908152610107602090815260408083208287015163ffffffff90811685529252909120549116115b612d3d5760405162461bcd60e51b815260206004820152600b60248201526a214d41585f41435449564560a81b60448201526064016107d6565b600060fc54602084015160405163b6ab359f60e01b81526001600160a01b03878116600483015263ffffffff909216602482015291169063b6ab359f9060440160206040518083038186803b158015612d9557600080fd5b505afa158015612da9573d6000803e3d6000fd5b505050506040513d601f19601f82011682018060405250810190612dcd9190615769565b6002811115612dde57612dde61535e565b14612e1a5760405162461bcd60e51b815260206004820152600c60248201526b085393d517d153905093115160a21b60448201526064016107d6565b612e243382613f88565b6000818152610103602090815260409091206005810180549285015163ffffffff16600160a81b02600164ffffffff0160a01b03199093166001600160a01b03871617929092179091558c8c6001818110612e8157612e816156dc565b60200291909101356004830155508c8c6002818110612ea257612ea26156dc565b602002919091013582555060068101805463ffffffff60401b1916600160401b63ffffffff8c1602179055612edb600782018888614b9f565b5060058101805463ffffffff60c81b1916600160c81b4263ffffffff160217905560a083015161ffff1615612f55578260a0015161ffff168360400151612f229190615671565b612f329063ffffffff164261554b565b8160060160046101000a81548163ffffffff021916908363ffffffff1602179055505b606083015163ffffffff1615612fa65760058101805460ff60a01b1916600160a01b1790556060830151612f8990426156b4565b60068201805463ffffffff191663ffffffff929092169190911790555b60058101546020840151612fc5916001600160a01b0316908d8d613b69565b60038301556002820155600681015463ffffffff4281169116116130425760fb5460405163d71bb37b60e01b8152600481018490526001600160a01b039091169063d71bb37b90602401600060405180830381600087803b15801561302957600080fd5b505af115801561303d573d6000803e3d6000fd5b505050505b600581015482906001600160a01b031661305b82611603565b60048401546005850154600286015460408051938452600160a81b90920463ffffffff166020840152908201526001600160a01b0391909116907f9fb45eab820cdd481e286e8c699e1c01031bb833c58f7cfba3ca8d1db6d98d819060600160405180910390a433600090815261010260209081526040808320805460018181018355918552838520018690556001600160a01b038816808552610105845282852080548084018255908652848620018790558452610106909252822080549192909161312990849061554b565b90915550506001600160a01b0384166000908152610107602090815260408083208683015163ffffffff168452909152812080546001929061316c90849061554b565b909155505061010180546001810182556000919091527f109ea3cebb188b9c1b9fc5bb3920be60dfdc8699098dff92f3d80daaca74768901829055509b9a5050505050505050505050565b60008061323a83613234866040516020016131d491815260200190565b60408051601f1981840301815282825280516020918201207f19457468657265756d205369676e6564204d6573736167653a0a33320000000084830152603c8085019190915282518085039091018152605c909301909152815191012090565b90613fa2565b9050600061327a8560408051808201909152600080825260208201525060408051808201909152606082901c815260509190911c61ffff16602082015290565b9050816001600160a01b031681600001516001600160a01b0316146132d55760405162461bcd60e51b815260206004820152601160248201527021494e56414c4944286e6574776f726b2960781b60448201526064016107d6565b509392505050565b6000818152606760205260408120546001600160a01b03166133565760405162461bcd60e51b815260206004820152602c60248201527f4552433732313a206f70657261746f7220717565727920666f72206e6f6e657860448201526b34b9ba32b73a103a37b5b2b760a11b60648201526084016107d6565b600061336183611603565b9050806001600160a01b0316846001600160a01b0316148061339c5750836001600160a01b031661339184610b15565b6001600160a01b0316145b806133cc57506001600160a01b038082166000908152606a602090815260408083209388168352929052205460ff165b949350505050565b826001600160a01b03166133e782611603565b6001600160a01b03161461344f5760405162461bcd60e51b815260206004820152602960248201527f4552433732313a207472616e73666572206f6620746f6b656e2074686174206960448201526839903737ba1037bbb760b91b60648201526084016107d6565b6001600160a01b0382166134b15760405162461bcd60e51b8152602060048201526024808201527f4552433732313a207472616e7366657220746f20746865207a65726f206164646044820152637265737360e01b60648201526084016107d6565b6134bc838383613fbe565b6134c7600082612a53565b6001600160a01b03831660009081526068602052604081208054600192906134f090849061569d565b90915550506001600160a01b038216600090815260686020526040812080546001929061351e90849061554b565b909155505060008181526067602052604080822080546001600160a01b0319166001600160a01b0386811691821790925591518493918716917fddf252ad1be2c89b69c2b068fc378daa952ba7f163c4a11628f55a4df523b3ef91a4505050565b60c95460ff166135c85760405162461bcd60e51b815260206004820152601460248201527314185d5cd8589b194e881b9bdd081c185d5cd95960621b60448201526064016107d6565b60c9805460ff191690557f5db9ee0a495bf2e6ff9c91a7834c1ba4fdd244a5e8aa4e537bd38aeae4b073aa335b6040516001600160a01b03909116815260200160405180910390a1565b609780546001600160a01b038381166001600160a01b0319831681179093556040519116919082907f8be0079c531659141344cd1fd0a4f28419497f9722a3daafe3b4186f6b6457e090600090a35050565b60c95460ff16156136875760405162461bcd60e51b81526004016107d69061550b565b60c9805460ff191660011790557f62e78cea01bee320cd4e420270b5ea74000d11b0c9f74754ebdbfc544b05a2586135f53390565b816001600160a01b0316836001600160a01b0316141561371e5760405162461bcd60e51b815260206004820152601960248201527f4552433732313a20617070726f766520746f2063616c6c65720000000000000060448201526064016107d6565b6001600160a01b038381166000818152606a6020908152604080832094871680845294825291829020805460ff191686151590811790915591519182527f17307eab39ab6107e8899845ad3d59bd9653f200f220920489ca2b5937696c31910160405180910390a3505050565b60048610156137ac5760405162461bcd60e51b81526004016107d69061573c565b600088815261010360205260409020600681015463ffffffff4281169116116138075760405162461bcd60e51b815260206004820152600d60248201526c085391515117d491539155d053609a1b60448201526064016107d6565b60026005820154600160a01b900460ff1660068111156138295761382961535e565b1480613854575060016005820154600160a01b900460ff1660068111156138525761385261535e565b145b6138705760405162461bcd60e51b81526004016107d69061559e565b6000600386106138cc576138c589896000818110613890576138906156dc565b90506020020135868b8b60038181106138ab576138ab6156dc565b905060200201358a8a6002818110612b6257612b626156dc565b9050613900565b6138fd898960008181106138e2576138e26156dc565b90506020020135868b8b6003818110612ba657612ba66156dc565b90505b61390a8989613eba565b6139265760405162461bcd60e51b81526004016107d69061573c565b600061393e8a8a6002818110612bf757612bf76156dc565b60058401549091506001600160a01b038381169116146139955760405162461bcd60e51b815260206004820152601260248201527121494e56414c49442870726f76696465722960701b60448201526064016107d6565b6139a3600784018686614b9f565b5060028301541580156139b7575060038710155b80156139d957506000888882816139d0576139d06156dc565b90506020020135115b15613a0857600583015460208201516139fd916001600160a01b0316908a8a613b69565b600385015560028401555b60208101516005840154600160a81b900463ffffffff908116911614613b2957600060fc54602083015160405163b6ab359f60e01b81526001600160a01b03868116600483015263ffffffff909216602482015291169063b6ab359f9060440160206040518083038186803b158015613a8057600080fd5b505afa158015613a94573d6000803e3d6000fd5b505050506040513d601f19601f82011682018060405250810190613ab89190615769565b6002811115613ac957613ac961535e565b14613b055760405162461bcd60e51b815260206004820152600c60248201526b085393d517d153905093115160a21b60448201526064016107d6565b613b298b828c8c6002818110613b1d57613b1d6156dc565b905060200201356140bf565b5050505050505050505050565b613b418484846133d4565b613b4d848484846141a5565b610ffd5760405162461bcd60e51b81526004016107d69061578a565b600080600383118015613b925750600084848281613b8957613b896156dc565b90506020020135115b15613cd657600084846000818110613bac57613bac6156dc565b90506020020135604051602001613bc591815260200190565b60408051601f19818403018152919052805160209091012060fc549091506001600160a01b03166372212e7688888489896001818110613c0757613c076156dc565b905060200201358a8a6002818110613c2157613c216156dc565b60200291909101359050613c388b6003818f6157dc565b6040518863ffffffff1660e01b8152600401613c5a9796959493929190615840565b60206040518083038186803b158015613c7257600080fd5b505afa158015613c86573d6000803e3d6000fd5b505050506040513d601f19601f82011682018060405250810190613caa919061588d565b15613cd4578085856001818110613cc357613cc36156dc565b905060200201359250925050613cdd565b505b5060009050805b94509492505050565b600054610100900460ff16613d0d5760405162461bcd60e51b81526004016107d6906158aa565b613d156142af565b6110666142d6565b600054610100900460ff16613d445760405162461bcd60e51b81526004016107d6906158aa565b613d4c6142af565b611066614306565b600054610100900460ff16613d7b5760405162461bcd60e51b81526004016107d6906158aa565b613d836142af565b613d8b6142af565b611bb88282614339565b6000613da082611603565b9050613dae81600084613fbe565b613db9600083612a53565b6001600160a01b0381166000908152606860205260408120805460019290613de290849061569d565b909155505060008281526067602052604080822080546001600160a01b0319169055518391906001600160a01b038416907fddf252ad1be2c89b69c2b068fc378daa952ba7f163c4a11628f55a4df523b3ef908390a45050565b600080613e628561323486866040516020016131d4929190918252602082015260400190565b90506001600160a01b0386811690821614613eb15760405162461bcd60e51b815260206004820152600f60248201526e21494e56414c49442870726f6f662960881b60448201526064016107d6565b95945050505050565b60fc546000906001600160a01b03166371ce3e6684846002818110613ee157613ee16156dc565b9050602002013585856003818110613efb57613efb6156dc565b60200291909101359050613f12866004818a6157dc565b6040518563ffffffff1660e01b8152600401613f3194939291906158f5565b60206040518083038186803b158015613f4957600080fd5b505afa158015613f5d573d6000803e3d6000fd5b505050506040513d601f19601f82011682018060405250810190613f81919061588d565b9392505050565b611bb8828260405180602001604052806000815250614387565b6000806000613fb185856143ba565b915091506132d58161442a565b6001600160a01b03831615801590613fde57506001600160a01b03821615155b15610cbb5760008181526101036020526040812080549091906140009061298e565b90508060e001516140485760405162461bcd60e51b8152602060048201526012602482015271214e4f545f5452414e534645525241424c4560701b60448201526064016107d6565b6006820154600160201b900463ffffffff16158061407c5750600682015463ffffffff600160201b90910481164290911610155b6140985760405162461bcd60e51b81526004016107d6906155c8565b506006018054600160401b63ffffffff82160263ffffffff60401b19909116179055505050565b60008381526101036020526040812080549091906140dc9061298e565b905060016005830154600160a01b900460ff1660068111156141005761410061535e565b141561411757614112858286866145e5565b611589565b6040810151815161412e9163ffffffff169061591f565b604085015185516141459163ffffffff169061591f565b141561415657614112858585614660565b6040810151815161416d9163ffffffff169061591f565b604085015185516141849163ffffffff169061591f565b11156141965761411285828686614789565b61158985856020015185614897565b60006001600160a01b0384163b156142a757604051630a85bd0160e11b81526001600160a01b0385169063150b7a02906141e9903390899088908890600401615941565b602060405180830381600087803b15801561420357600080fd5b505af1925050508015614233575060408051601f3d908101601f1916820190925261423091810190615974565b60015b61428d573d808015614261576040519150601f19603f3d011682016040523d82523d6000602084013e614266565b606091505b5080516142855760405162461bcd60e51b81526004016107d69061578a565b805181602001fd5b6001600160e01b031916630a85bd0160e11b1490506133cc565b5060016133cc565b600054610100900460ff166110665760405162461bcd60e51b81526004016107d6906158aa565b600054610100900460ff166142fd5760405162461bcd60e51b81526004016107d6906158aa565b61106633613612565b600054610100900460ff1661432d5760405162461bcd60e51b81526004016107d6906158aa565b60c9805460ff19169055565b600054610100900460ff166143605760405162461bcd60e51b81526004016107d6906158aa565b8151614373906065906020850190614c23565b508051610cbb906066906020840190614c23565b6143918383614938565b61439e60008484846141a5565b610cbb5760405162461bcd60e51b81526004016107d69061578a565b6000808251604114156143f15760208301516040840151606085015160001a6143e587828585614a86565b94509450505050614423565b82516040141561441b5760208301516040840151614410868383614b70565b935093505050614423565b506000905060025b9250929050565b600081600481111561443e5761443e61535e565b14156144475750565b600181600481111561445b5761445b61535e565b14156144a95760405162461bcd60e51b815260206004820152601860248201527f45434453413a20696e76616c6964207369676e6174757265000000000000000060448201526064016107d6565b60028160048111156144bd576144bd61535e565b141561450b5760405162461bcd60e51b815260206004820152601f60248201527f45434453413a20696e76616c6964207369676e6174757265206c656e6774680060448201526064016107d6565b600381600481111561451f5761451f61535e565b14156145785760405162461bcd60e51b815260206004820152602260248201527f45434453413a20696e76616c6964207369676e6174757265202773272076616c604482015261756560f01b60648201526084016107d6565b600481600481111561458c5761458c61535e565b14156128855760405162461bcd60e51b815260206004820152602260248201527f45434453413a20696e76616c6964207369676e6174757265202776272076616c604482015261756560f01b60648201526084016107d6565b600084815261010360205260409020606080840151908501516006830154614613919063ffffffff16615991565b61461d91906156b4565b60068201805463ffffffff191663ffffffff92831690811790915542909116106146595760068101805463ffffffff19164263ffffffff161790555b6115898584845b600083815261010360205260409020600581015484906001600160a01b031661468882611603565b6004840154600585015460208089015160028801546040805195865263ffffffff600160a81b90950485169386019390935292169083015260608201526001600160a01b0391909116907fe17e61be0a4aac2f0b6fece72cedc2ab9ca554634d5af864a9282095206a0c2b9060800160405180910390a460a083015161ffff1615614758578260a0015161ffff1683604001516147259190615671565b6147359063ffffffff164261554b565b8160060160046101000a81548163ffffffff021916908363ffffffff1602179055505b60209092015160058301805463ffffffff909216600160a81b0263ffffffff60a81b19909216919091179055905550565b60008481526101036020526040812060068101549091906147b190429063ffffffff16615991565b63ffffffff16856040015163ffffffff1686600001516147d1919061591f565b604086015186516147e89163ffffffff169061591f565b6147f2919061569d565b6147fc91906159b6565b60fb549091506001600160a01b031663c54c58c461481988611603565b600585015460405160e084901b6001600160e01b03191681526001600160a01b039283166004820152911660248201526044810189905260648101849052608401600060405180830381600087803b15801561487457600080fd5b505af1158015614888573d6000803e3d6000fd5b50505050612020868585614660565b600083815261010360209081526040808320610104909252909120829055600581015484906001600160a01b03166148ce82611603565b6004840154600585015460408051928352600160a81b90910463ffffffff9081166020840152881682820152516001600160a01b0392909216917f3d051466fe86e1bd842d67e98121d69a930caccf48fc2ae2c83119b5a7b71af69181900360600190a450505050565b6001600160a01b03821661498e5760405162461bcd60e51b815260206004820181905260248201527f4552433732313a206d696e7420746f20746865207a65726f206164647265737360448201526064016107d6565b6000818152606760205260409020546001600160a01b0316156149f35760405162461bcd60e51b815260206004820152601c60248201527f4552433732313a20746f6b656e20616c7265616479206d696e7465640000000060448201526064016107d6565b6149ff60008383613fbe565b6001600160a01b0382166000908152606860205260408120805460019290614a2890849061554b565b909155505060008181526067602052604080822080546001600160a01b0319166001600160a01b03861690811790915590518392907fddf252ad1be2c89b69c2b068fc378daa952ba7f163c4a11628f55a4df523b3ef908290a45050565b6000807f7fffffffffffffffffffffffffffffff5d576e7357a4501ddfe92f46681b20a0831115614abd5750600090506003613cdd565b8460ff16601b14158015614ad557508460ff16601c14155b15614ae65750600090506004613cdd565b6040805160008082526020820180845289905260ff881692820192909252606081018690526080810185905260019060a0016020604051602081039080840390855afa158015614b3a573d6000803e3d6000fd5b5050604051601f1901519150506001600160a01b038116614b6357600060019250925050613cdd565b9660009650945050505050565b6000806001600160ff1b03831660ff84901c601b01614b9187828885614a86565b935093505050935093915050565b828054614bab90615563565b90600052602060002090601f016020900481019282614bcd5760008555614c13565b82601f10614be65782800160ff19823516178555614c13565b82800160010185558215614c13579182015b82811115614c13578235825591602001919060010190614bf8565b50614c1f929150614c97565b5090565b828054614c2f90615563565b90600052602060002090601f016020900481019282614c515760008555614c13565b82601f10614c6a57805160ff1916838001178555614c13565b82800160010185558215614c13579182015b82811115614c13578251825591602001919060010190614c7c565b5b80821115614c1f5760008155600101614c98565b6001600160e01b03198116811461288557600080fd5b600060208284031215614cd457600080fd5b8135613f8181614cac565b600060208284031215614cf157600080fd5b5035919050565b60005b83811015614d13578181015183820152602001614cfb565b83811115610ffd5750506000910152565b60008151808452614d3c816020860160208601614cf8565b601f01601f19169290920160200192915050565b602081526000613f816020830184614d24565b80356001600160a01b0381168114614d7a57600080fd5b919050565b60008060408385031215614d9257600080fd5b614d9b83614d63565b946020939093013593505050565b60008083601f840112614dbb57600080fd5b50813567ffffffffffffffff811115614dd357600080fd5b6020830191508360208260051b850101111561442357600080fd5b803563ffffffff81168114614d7a57600080fd5b634e487b7160e01b600052604160045260246000fd5b600082601f830112614e2957600080fd5b813567ffffffffffffffff80821115614e4457614e44614e02565b604051601f8301601f19908116603f01168101908282118183101715614e6c57614e6c614e02565b81604052838152866020858801011115614e8557600080fd5b836020870160208301376000602085830101528094505050505092915050565b60008083601f840112614eb757600080fd5b50813567ffffffffffffffff811115614ecf57600080fd5b60208301915083602082850101111561442357600080fd5b60008060008060008060008060008060e08b8d031215614f0657600080fd5b8a3567ffffffffffffffff80821115614f1e57600080fd5b614f2a8e838f01614da9565b909c509a5060208d0135915080821115614f4357600080fd5b614f4f8e838f01614da9565b909a50985060408d01359750889150614f6a60608e01614dee565b965060808d0135915080821115614f8057600080fd5b614f8c8e838f01614e18565b955060a08d0135915080821115614fa257600080fd5b614fae8e838f01614e18565b945060c08d0135915080821115614fc457600080fd5b50614fd18d828e01614ea5565b915080935050809150509295989b9194979a5092959850565b600080600060608486031215614fff57600080fd5b61500884614d63565b925061501660208501614d63565b9150604084013590509250925092565b60006020828403121561503857600080fd5b613f8182614d63565b6020808252825182820181905260009190848201906040850190845b818110156150795783518352928401929184019160010161505d565b50909695505050505050565b6000806040838503121561509857600080fd5b823591506150a860208401614dee565b90509250929050565b600080604083850312156150c457600080fd5b6150cd83614d63565b91506150a860208401614dee565b801515811461288557600080fd5b600080604083850312156150fc57600080fd5b61510583614d63565b91506020830135615115816150db565b809150509250929050565b60008060008060008060008060a0898b03121561513c57600080fd5b88359750602089013567ffffffffffffffff8082111561515b57600080fd5b6151678c838d01614da9565b909950975060408b013591508082111561518057600080fd5b61518c8c838d01614da9565b909750955060608b01359150808211156151a557600080fd5b6151b18c838d01614e18565b945060808b01359150808211156151c757600080fd5b506151d48b828c01614ea5565b999c989b5096995094979396929594505050565b6000806000606084860312156151fd57600080fd5b61520684614d63565b95602085013595506040909401359392505050565b6000806000806080858703121561523157600080fd5b61523a85614d63565b935061524860208601614d63565b925060408501359150606085013567ffffffffffffffff81111561526b57600080fd5b61527787828801614e18565b91505092959194509250565b60008060006040848603121561529857600080fd5b83359250602084013567ffffffffffffffff8111156152b657600080fd5b6152c286828701614da9565b9497909650939450505050565b60008060008060008060008060a0898b0312156152eb57600080fd5b883567ffffffffffffffff8082111561530357600080fd5b61530f8c838d01614da9565b909a50985060208b013591508082111561532857600080fd5b6153348c838d01614da9565b909850965086915061534860408c01614dee565b955060608b01359150808211156151a557600080fd5b634e487b7160e01b600052602160045260246000fd5b6007811061539257634e487b7160e01b600052602160045260246000fd5b9052565b6020815281516020820152602082015160408201526040820151606082015260608201516080820152608082015160a0820152600060a08301516153e560c08401826001600160a01b03169052565b5060c08301516153f860e0840182615374565b5060e08301516101006154128185018363ffffffff169052565b840151905061012061542b8482018363ffffffff169052565b84015190506101406154448482018363ffffffff169052565b840151905061016061545d8482018363ffffffff169052565b84015190506101806154768482018363ffffffff169052565b8401516101a08481015290506133cc6101c0840182614d24565b600080604083850312156154a357600080fd5b6154ac83614d63565b91506150a860208401614d63565b600080600080608085870312156154d057600080fd5b5050823594602084013594506040840135936060013592509050565b60208082526005908201526404282aaa8960db1b604082015260600190565b60208082526010908201526f14185d5cd8589b194e881c185d5cd95960821b604082015260600190565b634e487b7160e01b600052601160045260246000fd5b6000821982111561555e5761555e615535565b500190565b600181811c9082168061557757607f821691505b6020821081141561559857634e487b7160e01b600052602260045260246000fd5b50919050565b60208082526010908201526f21494e56414c4944287374617475732960801b604082015260600190565b602080825260099082015268214d494e5f5445524d60b81b604082015260600190565b60208082526031908201527f4552433732313a207472616e736665722063616c6c6572206973206e6f74206f6040820152701ddb995c881b9bdc88185c1c1c9bdd9959607a1b606082015260800190565b6020808252818101527f4f776e61626c653a2063616c6c6572206973206e6f7420746865206f776e6572604082015260600190565b600063ffffffff8083168185168183048111821515161561569457615694615535565b02949350505050565b6000828210156156af576156af615535565b500390565b600063ffffffff8083168185168083038211156156d3576156d3615535565b01949350505050565b634e487b7160e01b600052603260045260246000fd5b600060001982141561570657615706615535565b5060010190565b66697066733a2f2f60c81b81526000825161572f816007850160208701614cf8565b9190910160070192915050565b60208082526013908201527221494e56414c494428706c616e50726f6f662960681b604082015260600190565b60006020828403121561577b57600080fd5b815160038110613f8157600080fd5b60208082526032908201527f4552433732313a207472616e7366657220746f206e6f6e20455243373231526560408201527131b2b4bb32b91034b6b83632b6b2b73a32b960711b606082015260800190565b600080858511156157ec57600080fd5b838611156157f957600080fd5b5050600583901b0193919092039150565b81835260006001600160fb1b0383111561582357600080fd5b8260051b8083602087013760009401602001938452509192915050565b60018060a01b038816815263ffffffff8716602082015285604082015284606082015283608082015260c060a0820152600061588060c08301848661580a565b9998505050505050505050565b60006020828403121561589f57600080fd5b8151613f81816150db565b6020808252602b908201527f496e697469616c697a61626c653a20636f6e7472616374206973206e6f74206960408201526a6e697469616c697a696e6760a81b606082015260800190565b84815283602082015260606040820152600061591560608301848661580a565b9695505050505050565b60008261593c57634e487b7160e01b600052601260045260246000fd5b500490565b6001600160a01b038581168252841660208201526040810183905260806060820181905260009061591590830184614d24565b60006020828403121561598657600080fd5b8151613f8181614cac565b600063ffffffff838116908316818110156159ae576159ae615535565b039392505050565b60008160001904831182151516156159d0576159d0615535565b50029056fea2646970667358221220361f97b752c43221efd67e59d443dfb5a916e208b427fe0baec6850af128267664736f6c63430008090033",
  "devdoc": {
    "kind": "dev",
    "methods": {
      "approve(address,uint256)": {
        "details": "See {IERC721-approve}."
      },
      "balanceOf(address)": {
        "details": "See {IERC721-balanceOf}."
      },
      "constructor": {
        "custom:oz-upgrades-unsafe-allow": "constructor"
      },
      "getApproved(uint256)": {
        "details": "See {IERC721-getApproved}."
      },
      "isApprovedForAll(address,address)": {
        "details": "See {IERC721-isApprovedForAll}."
      },
      "name()": {
        "details": "See {IERC721Metadata-name}."
      },
      "owner()": {
        "details": "Returns the address of the current owner."
      },
      "ownerOf(uint256)": {
        "details": "See {IERC721-ownerOf}."
      },
      "paused()": {
        "details": "Returns true if the contract is paused, and false otherwise."
      },
      "renounceOwnership()": {
        "details": "Leaves the contract without owner. It will not be possible to call `onlyOwner` functions anymore. Can only be called by the current owner. NOTE: Renouncing ownership will leave the contract without an owner, thereby removing any functionality that is only available to the owner."
      },
      "safeTransferFrom(address,address,uint256)": {
        "details": "See {IERC721-safeTransferFrom}."
      },
      "safeTransferFrom(address,address,uint256,bytes)": {
        "details": "See {IERC721-safeTransferFrom}."
      },
      "setApprovalForAll(address,bool)": {
        "details": "See {IERC721-setApprovalForAll}."
      },
      "supportsInterface(bytes4)": {
        "details": "See {IERC165-supportsInterface}."
      },
      "symbol()": {
        "details": "See {IERC721Metadata-symbol}."
      },
      "transferFrom(address,address,uint256)": {
        "details": "See {IERC721-transferFrom}."
      },
      "transferOwnership(address)": {
        "details": "Transfers ownership of the contract to a new account (`newOwner`). Can only be called by the current owner."
      }
    },
    "stateVariables": {
      "consumerSubscriptions": {
        "details": "Maps for consumer to list of subscriptions. "
      },
      "gasRefundLimitCreateSubscription": {
        "details": "max gas refund for transactions, in wei "
      },
      "providerSubscriptions": {
        "details": "Maps for provider to list of subscriptions and plans. "
      },
      "subscriptionManager": {
        "details": "contract to manage subscription plan definitions. "
      },
      "subscriptionPlans": {
        "details": "contract to manage subscription plan definitions. "
      }
    },
    "version": 1
  },
  "userdoc": {
    "kind": "user",
    "methods": {},
    "version": 1
  },
  "storageLayout": {
    "storage": [
      {
        "astId": 788,
        "contract": "contracts/protocol/CaskSubscriptions.sol:CaskSubscriptions",
        "label": "_initialized",
        "offset": 0,
        "slot": "0",
        "type": "t_bool"
      },
      {
        "astId": 791,
        "contract": "contracts/protocol/CaskSubscriptions.sol:CaskSubscriptions",
        "label": "_initializing",
        "offset": 1,
        "slot": "0",
        "type": "t_bool"
      },
      {
        "astId": 2336,
        "contract": "contracts/protocol/CaskSubscriptions.sol:CaskSubscriptions",
        "label": "__gap",
        "offset": 0,
        "slot": "1",
        "type": "t_array(t_uint256)50_storage"
      },
      {
        "astId": 2585,
        "contract": "contracts/protocol/CaskSubscriptions.sol:CaskSubscriptions",
        "label": "__gap",
        "offset": 0,
        "slot": "51",
        "type": "t_array(t_uint256)50_storage"
      },
      {
        "astId": 1055,
        "contract": "contracts/protocol/CaskSubscriptions.sol:CaskSubscriptions",
        "label": "_name",
        "offset": 0,
        "slot": "101",
        "type": "t_string_storage"
      },
      {
        "astId": 1057,
        "contract": "contracts/protocol/CaskSubscriptions.sol:CaskSubscriptions",
        "label": "_symbol",
        "offset": 0,
        "slot": "102",
        "type": "t_string_storage"
      },
      {
        "astId": 1061,
        "contract": "contracts/protocol/CaskSubscriptions.sol:CaskSubscriptions",
        "label": "_owners",
        "offset": 0,
        "slot": "103",
        "type": "t_mapping(t_uint256,t_address)"
      },
      {
        "astId": 1065,
        "contract": "contracts/protocol/CaskSubscriptions.sol:CaskSubscriptions",
        "label": "_balances",
        "offset": 0,
        "slot": "104",
        "type": "t_mapping(t_address,t_uint256)"
      },
      {
        "astId": 1069,
        "contract": "contracts/protocol/CaskSubscriptions.sol:CaskSubscriptions",
        "label": "_tokenApprovals",
        "offset": 0,
        "slot": "105",
        "type": "t_mapping(t_uint256,t_address)"
      },
      {
        "astId": 1075,
        "contract": "contracts/protocol/CaskSubscriptions.sol:CaskSubscriptions",
        "label": "_operatorApprovals",
        "offset": 0,
        "slot": "106",
        "type": "t_mapping(t_address,t_mapping(t_address,t_bool))"
      },
      {
        "astId": 1886,
        "contract": "contracts/protocol/CaskSubscriptions.sol:CaskSubscriptions",
        "label": "__gap",
        "offset": 0,
        "slot": "107",
        "type": "t_array(t_uint256)44_storage"
      },
      {
        "astId": 666,
        "contract": "contracts/protocol/CaskSubscriptions.sol:CaskSubscriptions",
        "label": "_owner",
        "offset": 0,
        "slot": "151",
        "type": "t_address"
      },
      {
        "astId": 780,
        "contract": "contracts/protocol/CaskSubscriptions.sol:CaskSubscriptions",
        "label": "__gap",
        "offset": 0,
        "slot": "152",
        "type": "t_array(t_uint256)49_storage"
      },
      {
        "astId": 876,
        "contract": "contracts/protocol/CaskSubscriptions.sol:CaskSubscriptions",
        "label": "_paused",
        "offset": 0,
        "slot": "201",
        "type": "t_bool"
      },
      {
        "astId": 967,
        "contract": "contracts/protocol/CaskSubscriptions.sol:CaskSubscriptions",
        "label": "__gap",
        "offset": 0,
        "slot": "202",
        "type": "t_array(t_uint256)49_storage"
      },
      {
        "astId": 11006,
        "contract": "contracts/protocol/CaskSubscriptions.sol:CaskSubscriptions",
        "label": "subscriptionManager",
        "offset": 0,
        "slot": "251",
        "type": "t_contract(ICaskSubscriptionManager)7953"
      },
      {
        "astId": 11010,
        "contract": "contracts/protocol/CaskSubscriptions.sol:CaskSubscriptions",
        "label": "subscriptionPlans",
        "offset": 0,
        "slot": "252",
        "type": "t_contract(ICaskSubscriptionPlans)8101"
      },
      {
        "astId": 11013,
        "contract": "contracts/protocol/CaskSubscriptions.sol:CaskSubscriptions",
        "label": "gasRefundLimitCreateSubscription",
        "offset": 0,
        "slot": "253",
        "type": "t_uint256"
      },
      {
        "astId": 11015,
        "contract": "contracts/protocol/CaskSubscriptions.sol:CaskSubscriptions",
        "label": "gasRefundLimitChangeSubscription",
        "offset": 0,
        "slot": "254",
        "type": "t_uint256"
      },
      {
        "astId": 11017,
        "contract": "contracts/protocol/CaskSubscriptions.sol:CaskSubscriptions",
        "label": "gasRefundLimitCancelSubscription",
        "offset": 0,
        "slot": "255",
        "type": "t_uint256"
      },
      {
        "astId": 11019,
        "contract": "contracts/protocol/CaskSubscriptions.sol:CaskSubscriptions",
        "label": "gasRefundLimitOther",
        "offset": 0,
        "slot": "256",
        "type": "t_uint256"
      },
      {
        "astId": 11022,
        "contract": "contracts/protocol/CaskSubscriptions.sol:CaskSubscriptions",
        "label": "allSubscriptions",
        "offset": 0,
        "slot": "257",
        "type": "t_array(t_uint256)dyn_storage"
      },
      {
        "astId": 11028,
        "contract": "contracts/protocol/CaskSubscriptions.sol:CaskSubscriptions",
        "label": "consumerSubscriptions",
        "offset": 0,
        "slot": "258",
        "type": "t_mapping(t_address,t_array(t_uint256)dyn_storage)"
      },
      {
        "astId": 11033,
        "contract": "contracts/protocol/CaskSubscriptions.sol:CaskSubscriptions",
        "label": "subscriptions",
        "offset": 0,
        "slot": "259",
        "type": "t_mapping(t_uint256,t_struct(Subscription)8142_storage)"
      },
      {
        "astId": 11037,
        "contract": "contracts/protocol/CaskSubscriptions.sol:CaskSubscriptions",
        "label": "pendingPlanChanges",
        "offset": 0,
        "slot": "260",
        "type": "t_mapping(t_uint256,t_bytes32)"
      },
      {
        "astId": 11043,
        "contract": "contracts/protocol/CaskSubscriptions.sol:CaskSubscriptions",
        "label": "providerSubscriptions",
        "offset": 0,
        "slot": "261",
        "type": "t_mapping(t_address,t_array(t_uint256)dyn_storage)"
      },
      {
        "astId": 11047,
        "contract": "contracts/protocol/CaskSubscriptions.sol:CaskSubscriptions",
        "label": "providerActiveSubscriptionCount",
        "offset": 0,
        "slot": "262",
        "type": "t_mapping(t_address,t_uint256)"
      },
      {
        "astId": 11053,
        "contract": "contracts/protocol/CaskSubscriptions.sol:CaskSubscriptions",
        "label": "planActiveSubscriptionCount",
        "offset": 0,
        "slot": "263",
        "type": "t_mapping(t_address,t_mapping(t_uint32,t_uint256))"
      }
    ],
    "types": {
      "t_address": {
        "encoding": "inplace",
        "label": "address",
        "numberOfBytes": "20"
      },
      "t_array(t_uint256)44_storage": {
        "base": "t_uint256",
        "encoding": "inplace",
        "label": "uint256[44]",
        "numberOfBytes": "1408"
      },
      "t_array(t_uint256)49_storage": {
        "base": "t_uint256",
        "encoding": "inplace",
        "label": "uint256[49]",
        "numberOfBytes": "1568"
      },
      "t_array(t_uint256)50_storage": {
        "base": "t_uint256",
        "encoding": "inplace",
        "label": "uint256[50]",
        "numberOfBytes": "1600"
      },
      "t_array(t_uint256)dyn_storage": {
        "base": "t_uint256",
        "encoding": "dynamic_array",
        "label": "uint256[]",
        "numberOfBytes": "32"
      },
      "t_bool": {
        "encoding": "inplace",
        "label": "bool",
        "numberOfBytes": "1"
      },
      "t_bytes32": {
        "encoding": "inplace",
        "label": "bytes32",
        "numberOfBytes": "32"
      },
      "t_contract(ICaskSubscriptionManager)7953": {
        "encoding": "inplace",
        "label": "contract ICaskSubscriptionManager",
        "numberOfBytes": "20"
      },
      "t_contract(ICaskSubscriptionPlans)8101": {
        "encoding": "inplace",
        "label": "contract ICaskSubscriptionPlans",
        "numberOfBytes": "20"
      },
      "t_enum(SubscriptionStatus)8114": {
        "encoding": "inplace",
        "label": "enum ICaskSubscriptions.SubscriptionStatus",
        "numberOfBytes": "1"
      },
      "t_mapping(t_address,t_array(t_uint256)dyn_storage)": {
        "encoding": "mapping",
        "key": "t_address",
        "label": "mapping(address => uint256[])",
        "numberOfBytes": "32",
        "value": "t_array(t_uint256)dyn_storage"
      },
      "t_mapping(t_address,t_bool)": {
        "encoding": "mapping",
        "key": "t_address",
        "label": "mapping(address => bool)",
        "numberOfBytes": "32",
        "value": "t_bool"
      },
      "t_mapping(t_address,t_mapping(t_address,t_bool))": {
        "encoding": "mapping",
        "key": "t_address",
        "label": "mapping(address => mapping(address => bool))",
        "numberOfBytes": "32",
        "value": "t_mapping(t_address,t_bool)"
      },
      "t_mapping(t_address,t_mapping(t_uint32,t_uint256))": {
        "encoding": "mapping",
        "key": "t_address",
        "label": "mapping(address => mapping(uint32 => uint256))",
        "numberOfBytes": "32",
        "value": "t_mapping(t_uint32,t_uint256)"
      },
      "t_mapping(t_address,t_uint256)": {
        "encoding": "mapping",
        "key": "t_address",
        "label": "mapping(address => uint256)",
        "numberOfBytes": "32",
        "value": "t_uint256"
      },
      "t_mapping(t_uint256,t_address)": {
        "encoding": "mapping",
        "key": "t_uint256",
        "label": "mapping(uint256 => address)",
        "numberOfBytes": "32",
        "value": "t_address"
      },
      "t_mapping(t_uint256,t_bytes32)": {
        "encoding": "mapping",
        "key": "t_uint256",
        "label": "mapping(uint256 => bytes32)",
        "numberOfBytes": "32",
        "value": "t_bytes32"
      },
      "t_mapping(t_uint256,t_struct(Subscription)8142_storage)": {
        "encoding": "mapping",
        "key": "t_uint256",
        "label": "mapping(uint256 => struct ICaskSubscriptions.Subscription)",
        "numberOfBytes": "32",
        "value": "t_struct(Subscription)8142_storage"
      },
      "t_mapping(t_uint32,t_uint256)": {
        "encoding": "mapping",
        "key": "t_uint32",
        "label": "mapping(uint32 => uint256)",
        "numberOfBytes": "32",
        "value": "t_uint256"
      },
      "t_string_storage": {
        "encoding": "bytes",
        "label": "string",
        "numberOfBytes": "32"
      },
      "t_struct(Subscription)8142_storage": {
        "encoding": "inplace",
        "label": "struct ICaskSubscriptions.Subscription",
        "members": [
          {
            "astId": 8116,
            "contract": "contracts/protocol/CaskSubscriptions.sol:CaskSubscriptions",
            "label": "planData",
            "offset": 0,
            "slot": "0",
            "type": "t_bytes32"
          },
          {
            "astId": 8118,
            "contract": "contracts/protocol/CaskSubscriptions.sol:CaskSubscriptions",
            "label": "networkData",
            "offset": 0,
            "slot": "1",
            "type": "t_bytes32"
          },
          {
            "astId": 8120,
            "contract": "contracts/protocol/CaskSubscriptions.sol:CaskSubscriptions",
            "label": "discountId",
            "offset": 0,
            "slot": "2",
            "type": "t_bytes32"
          },
          {
            "astId": 8122,
            "contract": "contracts/protocol/CaskSubscriptions.sol:CaskSubscriptions",
            "label": "discountData",
            "offset": 0,
            "slot": "3",
            "type": "t_bytes32"
          },
          {
            "astId": 8124,
            "contract": "contracts/protocol/CaskSubscriptions.sol:CaskSubscriptions",
            "label": "ref",
            "offset": 0,
            "slot": "4",
            "type": "t_bytes32"
          },
          {
            "astId": 8126,
            "contract": "contracts/protocol/CaskSubscriptions.sol:CaskSubscriptions",
            "label": "provider",
            "offset": 0,
            "slot": "5",
            "type": "t_address"
          },
          {
            "astId": 8129,
            "contract": "contracts/protocol/CaskSubscriptions.sol:CaskSubscriptions",
            "label": "status",
            "offset": 20,
            "slot": "5",
            "type": "t_enum(SubscriptionStatus)8114"
          },
          {
            "astId": 8131,
            "contract": "contracts/protocol/CaskSubscriptions.sol:CaskSubscriptions",
            "label": "planId",
            "offset": 21,
            "slot": "5",
            "type": "t_uint32"
          },
          {
            "astId": 8133,
            "contract": "contracts/protocol/CaskSubscriptions.sol:CaskSubscriptions",
            "label": "createdAt",
            "offset": 25,
            "slot": "5",
            "type": "t_uint32"
          },
          {
            "astId": 8135,
            "contract": "contracts/protocol/CaskSubscriptions.sol:CaskSubscriptions",
            "label": "renewAt",
            "offset": 0,
            "slot": "6",
            "type": "t_uint32"
          },
          {
            "astId": 8137,
            "contract": "contracts/protocol/CaskSubscriptions.sol:CaskSubscriptions",
            "label": "minTermAt",
            "offset": 4,
            "slot": "6",
            "type": "t_uint32"
          },
          {
            "astId": 8139,
            "contract": "contracts/protocol/CaskSubscriptions.sol:CaskSubscriptions",
            "label": "cancelAt",
            "offset": 8,
            "slot": "6",
            "type": "t_uint32"
          },
          {
            "astId": 8141,
            "contract": "contracts/protocol/CaskSubscriptions.sol:CaskSubscriptions",
            "label": "cid",
            "offset": 0,
            "slot": "7",
            "type": "t_string_storage"
          }
        ],
        "numberOfBytes": "256"
      },
      "t_uint256": {
        "encoding": "inplace",
        "label": "uint256",
        "numberOfBytes": "32"
      },
      "t_uint32": {
        "encoding": "inplace",
        "label": "uint32",
        "numberOfBytes": "4"
      }
    }
  }
}