{
  "address": "0x15F0fD1F99310Cb527A3f79508D5129EF888DB73",
  "abi": [
    {
      "inputs": [],
      "stateMutability": "nonpayable",
      "type": "constructor"
    },
    {
      "anonymous": false,
      "inputs": [
        {
          "indexed": true,
          "internalType": "address",
          "name": "strategy",
          "type": "address"
        },
        {
          "indexed": true,
          "internalType": "address",
          "name": "asset",
          "type": "address"
        },
        {
          "indexed": false,
          "internalType": "uint256",
          "name": "assetAmount",
          "type": "uint256"
        }
      ],
      "name": "AllocatedToStrategy",
      "type": "event"
    },
    {
      "anonymous": false,
      "inputs": [
        {
          "indexed": true,
          "internalType": "address",
          "name": "asset",
          "type": "address"
        }
      ],
      "name": "AllowedAsset",
      "type": "event"
    },
    {
      "anonymous": false,
      "inputs": [
        {
          "indexed": true,
          "internalType": "address",
          "name": "owner",
          "type": "address"
        },
        {
          "indexed": true,
          "internalType": "address",
          "name": "spender",
          "type": "address"
        },
        {
          "indexed": false,
          "internalType": "uint256",
          "name": "value",
          "type": "uint256"
        }
      ],
      "name": "Approval",
      "type": "event"
    },
    {
      "anonymous": false,
      "inputs": [
        {
          "indexed": true,
          "internalType": "address",
          "name": "participant",
          "type": "address"
        },
        {
          "indexed": true,
          "internalType": "address",
          "name": "asset",
          "type": "address"
        },
        {
          "indexed": false,
          "internalType": "uint256",
          "name": "assetAmount",
          "type": "uint256"
        },
        {
          "indexed": false,
          "internalType": "uint256",
          "name": "baseAssetAmount",
          "type": "uint256"
        },
        {
          "indexed": false,
          "internalType": "uint256",
          "name": "shares",
          "type": "uint256"
        }
      ],
      "name": "AssetDeposited",
      "type": "event"
    },
    {
      "anonymous": false,
      "inputs": [
        {
          "indexed": true,
          "internalType": "address",
          "name": "participant",
          "type": "address"
        },
        {
          "indexed": true,
          "internalType": "address",
          "name": "asset",
          "type": "address"
        },
        {
          "indexed": false,
          "internalType": "uint256",
          "name": "assetAmount",
          "type": "uint256"
        },
        {
          "indexed": false,
          "internalType": "uint256",
          "name": "baseAssetAmount",
          "type": "uint256"
        },
        {
          "indexed": false,
          "internalType": "uint256",
          "name": "shares",
          "type": "uint256"
        }
      ],
      "name": "AssetWithdrawn",
      "type": "event"
    },
    {
      "anonymous": false,
      "inputs": [
        {
          "indexed": true,
          "internalType": "address",
          "name": "previousOwner",
          "type": "address"
        },
        {
          "indexed": true,
          "internalType": "address",
          "name": "newOwner",
          "type": "address"
        }
      ],
      "name": "OwnershipTransferred",
      "type": "event"
    },
    {
      "anonymous": false,
      "inputs": [
        {
          "indexed": false,
          "internalType": "address",
          "name": "account",
          "type": "address"
        }
      ],
      "name": "Paused",
      "type": "event"
    },
    {
      "anonymous": false,
      "inputs": [
        {
          "indexed": true,
          "internalType": "address",
          "name": "from",
          "type": "address"
        },
        {
          "indexed": true,
          "internalType": "address",
          "name": "to",
          "type": "address"
        },
        {
          "indexed": false,
          "internalType": "uint256",
          "name": "baseAssetAmount",
          "type": "uint256"
        },
        {
          "indexed": false,
          "internalType": "uint256",
          "name": "baseAssetFee",
          "type": "uint256"
        },
        {
          "indexed": false,
          "internalType": "uint256",
          "name": "shares",
          "type": "uint256"
        }
      ],
      "name": "Payment",
      "type": "event"
    },
    {
      "anonymous": false,
      "inputs": [
        {
          "indexed": true,
          "internalType": "address",
          "name": "from",
          "type": "address"
        },
        {
          "indexed": true,
          "internalType": "address",
          "name": "to",
          "type": "address"
        },
        {
          "indexed": false,
          "internalType": "uint256",
          "name": "value",
          "type": "uint256"
        }
      ],
      "name": "Transfer",
      "type": "event"
    },
    {
      "anonymous": false,
      "inputs": [
        {
          "indexed": false,
          "internalType": "address",
          "name": "account",
          "type": "address"
        }
      ],
      "name": "Unpaused",
      "type": "event"
    },
    {
      "inputs": [
        {
          "internalType": "address",
          "name": "_protocol",
          "type": "address"
        }
      ],
      "name": "addProtocol",
      "outputs": [],
      "stateMutability": "nonpayable",
      "type": "function"
    },
    {
      "inputs": [
        {
          "internalType": "address",
          "name": "_strategy",
          "type": "address"
        },
        {
          "internalType": "address",
          "name": "_asset",
          "type": "address"
        },
        {
          "internalType": "uint256",
          "name": "_assetAmount",
          "type": "uint256"
        }
      ],
      "name": "allocateToStrategy",
      "outputs": [],
      "stateMutability": "nonpayable",
      "type": "function"
    },
    {
      "inputs": [
        {
          "internalType": "address",
          "name": "_asset",
          "type": "address"
        },
        {
          "internalType": "address",
          "name": "_priceFeed",
          "type": "address"
        },
        {
          "internalType": "uint256",
          "name": "_depositLimit",
          "type": "uint256"
        },
        {
          "internalType": "uint256",
          "name": "_slippageBps",
          "type": "uint256"
        }
      ],
      "name": "allowAsset",
      "outputs": [],
      "stateMutability": "nonpayable",
      "type": "function"
    },
    {
      "inputs": [
        {
          "internalType": "address",
          "name": "owner",
          "type": "address"
        },
        {
          "internalType": "address",
          "name": "spender",
          "type": "address"
        }
      ],
      "name": "allowance",
      "outputs": [
        {
          "internalType": "uint256",
          "name": "",
          "type": "uint256"
        }
      ],
      "stateMutability": "view",
      "type": "function"
    },
    {
      "inputs": [
        {
          "internalType": "address",
          "name": "spender",
          "type": "address"
        },
        {
          "internalType": "uint256",
          "name": "amount",
          "type": "uint256"
        }
      ],
      "name": "approve",
      "outputs": [
        {
          "internalType": "bool",
          "name": "",
          "type": "bool"
        }
      ],
      "stateMutability": "nonpayable",
      "type": "function"
    },
    {
      "inputs": [
        {
          "internalType": "address",
          "name": "account",
          "type": "address"
        }
      ],
      "name": "balanceOf",
      "outputs": [
        {
          "internalType": "uint256",
          "name": "",
          "type": "uint256"
        }
      ],
      "stateMutability": "view",
      "type": "function"
    },
    {
      "inputs": [],
      "name": "baseAsset",
      "outputs": [
        {
          "internalType": "address",
          "name": "",
          "type": "address"
        }
      ],
      "stateMutability": "view",
      "type": "function"
    },
    {
      "inputs": [
        {
          "internalType": "address",
          "name": "_fromAsset",
          "type": "address"
        },
        {
          "internalType": "address",
          "name": "_toAsset",
          "type": "address"
        },
        {
          "internalType": "uint256",
          "name": "_fromAmount",
          "type": "uint256"
        }
      ],
      "name": "convertPrice",
      "outputs": [
        {
          "internalType": "uint256",
          "name": "",
          "type": "uint256"
        }
      ],
      "stateMutability": "view",
      "type": "function"
    },
    {
      "inputs": [
        {
          "internalType": "address",
          "name": "_address",
          "type": "address"
        }
      ],
      "name": "currentValueOf",
      "outputs": [
        {
          "internalType": "uint256",
          "name": "",
          "type": "uint256"
        }
      ],
      "stateMutability": "view",
      "type": "function"
    },
    {
      "inputs": [],
      "name": "decimals",
      "outputs": [
        {
          "internalType": "uint8",
          "name": "",
          "type": "uint8"
        }
      ],
      "stateMutability": "view",
      "type": "function"
    },
    {
      "inputs": [
        {
          "internalType": "address",
          "name": "spender",
          "type": "address"
        },
        {
          "internalType": "uint256",
          "name": "subtractedValue",
          "type": "uint256"
        }
      ],
      "name": "decreaseAllowance",
      "outputs": [
        {
          "internalType": "bool",
          "name": "",
          "type": "bool"
        }
      ],
      "stateMutability": "nonpayable",
      "type": "function"
    },
    {
      "inputs": [
        {
          "internalType": "address",
          "name": "_asset",
          "type": "address"
        },
        {
          "internalType": "uint256",
          "name": "_assetAmount",
          "type": "uint256"
        }
      ],
      "name": "deposit",
      "outputs": [],
      "stateMutability": "nonpayable",
      "type": "function"
    },
    {
      "inputs": [
        {
          "internalType": "address",
          "name": "_to",
          "type": "address"
        },
        {
          "internalType": "address",
          "name": "_asset",
          "type": "address"
        },
        {
          "internalType": "uint256",
          "name": "_assetAmount",
          "type": "uint256"
        }
      ],
      "name": "depositTo",
      "outputs": [],
      "stateMutability": "nonpayable",
      "type": "function"
    },
    {
      "inputs": [],
      "name": "feeDistributor",
      "outputs": [
        {
          "internalType": "address",
          "name": "",
          "type": "address"
        }
      ],
      "stateMutability": "view",
      "type": "function"
    },
    {
      "inputs": [],
      "name": "getAllAssets",
      "outputs": [
        {
          "internalType": "address[]",
          "name": "",
          "type": "address[]"
        }
      ],
      "stateMutability": "view",
      "type": "function"
    },
    {
      "inputs": [
        {
          "internalType": "address",
          "name": "_asset",
          "type": "address"
        }
      ],
      "name": "getAsset",
      "outputs": [
        {
          "components": [
            {
              "internalType": "address",
              "name": "priceFeed",
              "type": "address"
            },
            {
              "internalType": "uint256",
              "name": "slippageBps",
              "type": "uint256"
            },
            {
              "internalType": "uint256",
              "name": "depositLimit",
              "type": "uint256"
            },
            {
              "internalType": "uint8",
              "name": "assetDecimals",
              "type": "uint8"
            },
            {
              "internalType": "uint8",
              "name": "priceFeedDecimals",
              "type": "uint8"
            },
            {
              "internalType": "bool",
              "name": "allowed",
              "type": "bool"
            }
          ],
          "internalType": "struct ICaskVault.Asset",
          "name": "",
          "type": "tuple"
        }
      ],
      "stateMutability": "view",
      "type": "function"
    },
    {
      "inputs": [],
      "name": "getBaseAsset",
      "outputs": [
        {
          "internalType": "address",
          "name": "",
          "type": "address"
        }
      ],
      "stateMutability": "view",
      "type": "function"
    },
    {
      "inputs": [
        {
          "internalType": "address",
          "name": "spender",
          "type": "address"
        },
        {
          "internalType": "uint256",
          "name": "addedValue",
          "type": "uint256"
        }
      ],
      "name": "increaseAllowance",
      "outputs": [
        {
          "internalType": "bool",
          "name": "",
          "type": "bool"
        }
      ],
      "stateMutability": "nonpayable",
      "type": "function"
    },
    {
      "inputs": [
        {
          "internalType": "address",
          "name": "_vaultManager",
          "type": "address"
        },
        {
          "internalType": "address",
          "name": "_baseAsset",
          "type": "address"
        },
        {
          "internalType": "address",
          "name": "_baseAssetPriceFeed",
          "type": "address"
        },
        {
          "internalType": "address",
          "name": "_feeDistributor",
          "type": "address"
        }
      ],
      "name": "initialize",
      "outputs": [],
      "stateMutability": "nonpayable",
      "type": "function"
    },
    {
      "inputs": [],
      "name": "name",
      "outputs": [
        {
          "internalType": "string",
          "name": "",
          "type": "string"
        }
      ],
      "stateMutability": "view",
      "type": "function"
    },
    {
      "inputs": [],
      "name": "owner",
      "outputs": [
        {
          "internalType": "address",
          "name": "",
          "type": "address"
        }
      ],
      "stateMutability": "view",
      "type": "function"
    },
    {
      "inputs": [],
      "name": "pause",
      "outputs": [],
      "stateMutability": "nonpayable",
      "type": "function"
    },
    {
      "inputs": [],
      "name": "paused",
      "outputs": [
        {
          "internalType": "bool",
          "name": "",
          "type": "bool"
        }
      ],
      "stateMutability": "view",
      "type": "function"
    },
    {
      "inputs": [],
      "name": "pricePerShare",
      "outputs": [
        {
          "internalType": "uint256",
          "name": "",
          "type": "uint256"
        }
      ],
      "stateMutability": "view",
      "type": "function"
    },
    {
      "inputs": [],
      "name": "protocolCount",
      "outputs": [
        {
          "internalType": "uint256",
          "name": "",
          "type": "uint256"
        }
      ],
      "stateMutability": "view",
      "type": "function"
    },
    {
      "inputs": [
        {
          "internalType": "address",
          "name": "_from",
          "type": "address"
        },
        {
          "internalType": "address",
          "name": "_to",
          "type": "address"
        },
        {
          "internalType": "uint256",
          "name": "_value",
          "type": "uint256"
        },
        {
          "internalType": "uint256",
          "name": "_protocolFee",
          "type": "uint256"
        },
        {
          "internalType": "address",
          "name": "_network",
          "type": "address"
        },
        {
          "internalType": "uint256",
          "name": "_networkFee",
          "type": "uint256"
        }
      ],
      "name": "protocolPayment",
      "outputs": [],
      "stateMutability": "nonpayable",
      "type": "function"
    },
    {
      "inputs": [
        {
          "internalType": "address",
          "name": "_from",
          "type": "address"
        },
        {
          "internalType": "address",
          "name": "_to",
          "type": "address"
        },
        {
          "internalType": "uint256",
          "name": "_value",
          "type": "uint256"
        }
      ],
      "name": "protocolPayment",
      "outputs": [],
      "stateMutability": "nonpayable",
      "type": "function"
    },
    {
      "inputs": [
        {
          "internalType": "address",
          "name": "_from",
          "type": "address"
        },
        {
          "internalType": "address",
          "name": "_to",
          "type": "address"
        },
        {
          "internalType": "uint256",
          "name": "_value",
          "type": "uint256"
        },
        {
          "internalType": "uint256",
          "name": "_protocolFee",
          "type": "uint256"
        }
      ],
      "name": "protocolPayment",
      "outputs": [],
      "stateMutability": "nonpayable",
      "type": "function"
    },
    {
      "inputs": [
        {
          "internalType": "uint256",
          "name": "",
          "type": "uint256"
        }
      ],
      "name": "protocols",
      "outputs": [
        {
          "internalType": "address",
          "name": "",
          "type": "address"
        }
      ],
      "stateMutability": "view",
      "type": "function"
    },
    {
      "inputs": [
        {
          "internalType": "address",
          "name": "_protocol",
          "type": "address"
        }
      ],
      "name": "removeProtocol",
      "outputs": [],
      "stateMutability": "nonpayable",
      "type": "function"
    },
    {
      "inputs": [],
      "name": "renounceOwnership",
      "outputs": [],
      "stateMutability": "nonpayable",
      "type": "function"
    },
    {
      "inputs": [
        {
          "internalType": "address",
          "name": "_baseAsset",
          "type": "address"
        }
      ],
      "name": "setBaseAsset",
      "outputs": [],
      "stateMutability": "nonpayable",
      "type": "function"
    },
    {
      "inputs": [
        {
          "internalType": "uint256",
          "name": "_transferFeeFixed",
          "type": "uint256"
        },
        {
          "internalType": "uint256",
          "name": "_transferFeeRate",
          "type": "uint256"
        }
      ],
      "name": "setParameters",
      "outputs": [],
      "stateMutability": "nonpayable",
      "type": "function"
    },
    {
      "inputs": [
        {
          "internalType": "address",
          "name": "_asset",
          "type": "address"
        }
      ],
      "name": "supportsAsset",
      "outputs": [
        {
          "internalType": "bool",
          "name": "",
          "type": "bool"
        }
      ],
      "stateMutability": "view",
      "type": "function"
    },
    {
      "inputs": [],
      "name": "symbol",
      "outputs": [
        {
          "internalType": "string",
          "name": "",
          "type": "string"
        }
      ],
      "stateMutability": "view",
      "type": "function"
    },
    {
      "inputs": [
        {
          "internalType": "address",
          "name": "_asset",
          "type": "address"
        }
      ],
      "name": "totalAssetBalance",
      "outputs": [
        {
          "internalType": "uint256",
          "name": "",
          "type": "uint256"
        }
      ],
      "stateMutability": "view",
      "type": "function"
    },
    {
      "inputs": [],
      "name": "totalSupply",
      "outputs": [
        {
          "internalType": "uint256",
          "name": "",
          "type": "uint256"
        }
      ],
      "stateMutability": "view",
      "type": "function"
    },
    {
      "inputs": [],
      "name": "totalValue",
      "outputs": [
        {
          "internalType": "uint256",
          "name": "",
          "type": "uint256"
        }
      ],
      "stateMutability": "view",
      "type": "function"
    },
    {
      "inputs": [
        {
          "internalType": "address",
          "name": "recipient",
          "type": "address"
        },
        {
          "internalType": "uint256",
          "name": "amount",
          "type": "uint256"
        }
      ],
      "name": "transfer",
      "outputs": [
        {
          "internalType": "bool",
          "name": "",
          "type": "bool"
        }
      ],
      "stateMutability": "nonpayable",
      "type": "function"
    },
    {
      "inputs": [],
      "name": "transferFeeFixed",
      "outputs": [
        {
          "internalType": "uint256",
          "name": "",
          "type": "uint256"
        }
      ],
      "stateMutability": "view",
      "type": "function"
    },
    {
      "inputs": [],
      "name": "transferFeeRate",
      "outputs": [
        {
          "internalType": "uint256",
          "name": "",
          "type": "uint256"
        }
      ],
      "stateMutability": "view",
      "type": "function"
    },
    {
      "inputs": [
        {
          "internalType": "address",
          "name": "sender",
          "type": "address"
        },
        {
          "internalType": "address",
          "name": "recipient",
          "type": "address"
        },
        {
          "internalType": "uint256",
          "name": "amount",
          "type": "uint256"
        }
      ],
      "name": "transferFrom",
      "outputs": [
        {
          "internalType": "bool",
          "name": "",
          "type": "bool"
        }
      ],
      "stateMutability": "nonpayable",
      "type": "function"
    },
    {
      "inputs": [
        {
          "internalType": "address",
          "name": "newOwner",
          "type": "address"
        }
      ],
      "name": "transferOwnership",
      "outputs": [],
      "stateMutability": "nonpayable",
      "type": "function"
    },
    {
      "inputs": [],
      "name": "unpause",
      "outputs": [],
      "stateMutability": "nonpayable",
      "type": "function"
    },
    {
      "inputs": [],
      "name": "vaultManager",
      "outputs": [
        {
          "internalType": "address",
          "name": "",
          "type": "address"
        }
      ],
      "stateMutability": "view",
      "type": "function"
    },
    {
      "inputs": [
        {
          "internalType": "address",
          "name": "_asset",
          "type": "address"
        },
        {
          "internalType": "uint256",
          "name": "_shares",
          "type": "uint256"
        }
      ],
      "name": "withdraw",
      "outputs": [],
      "stateMutability": "nonpayable",
      "type": "function"
    },
    {
      "inputs": [
        {
          "internalType": "address",
          "name": "_recipient",
          "type": "address"
        },
        {
          "internalType": "address",
          "name": "_asset",
          "type": "address"
        },
        {
          "internalType": "uint256",
          "name": "_shares",
          "type": "uint256"
        }
      ],
      "name": "withdrawTo",
      "outputs": [],
      "stateMutability": "nonpayable",
      "type": "function"
    }
  ],
  "transactionHash": "0x3b462c3787bab2fb4c0d842ee1e722a2d0b26b16b5fd08434fcdd711c0a0a07f",
  "args": [],
  "numDeployments": 1,
  "solcInputHash": "76fdefa36777ac5c2899db1aa699b285",
  "bytecode": "0x60806040523480156200001157600080fd5b50600054610100900460ff166200002f5760005460ff161562000039565b62000039620000de565b620000a15760405162461bcd60e51b815260206004820152602e60248201527f496e697469616c697a61626c653a20636f6e747261637420697320616c72656160448201526d191e481a5b9a5d1a585b1a5e995960921b606482015260840160405180910390fd5b600054610100900460ff16158015620000c4576000805461ffff19166101011790555b8015620000d7576000805461ff00191690555b5062000102565b6000620000f630620000fc60201b62001a501760201c565b15905090565b3b151590565b61376c80620001126000396000f3fe608060405234801561001057600080fd5b50600436106102955760003560e01c806379b2125f11610167578063aa388af6116100ce578063e513032211610087578063e5130322146106c4578063f213159c146106d7578063f2fde38b146106ea578063f3fef3a3146106fd578063f8c8765e14610710578063fcd6a25b1461072357600080fd5b8063aa388af61461061e578063c3b35a7e14610654578063cdf456e114610667578063d4c3eea01461067a578063dd62ed3e14610682578063e2eed04f146106bb57600080fd5b80638da5cb5b116101205780638da5cb5b146105c45780638e3e580d146105d557806395d89b41146105e857806399530b06146105f0578063a457c2d7146105f8578063a9059cbb1461060b57600080fd5b806379b2125f1461055f5780638456cb5914610572578063884870c71461057a5780638a4adf241461058d5780638c396220146105a05780638d3a4af6146105b357600080fd5b80633606b26c1161020b578063597435cb116101c4578063597435cb146104f45780635c975abb1461050757806368c6541f1461051257806370a082311461051b578063715018a614610544578063771d4c281461054c57600080fd5b80633606b26c1461048d57806339509351146104a05780633f4ba83a146104b357806347e7ef24146104bb5780634bb846e1146104ce5780635517575d146104e157600080fd5b80631e377d391161025d5780631e377d391461032d57806323b872dd146103405780632acada4d1461035357806330b8b2c614610368578063313ce56714610475578063351bf5181461048457600080fd5b806306fdde031461029a578063095ea7b3146102b85780630d43e8ad146102db57806318160ddd1461030657806318ff576814610318575b600080fd5b6102a2610736565b6040516102af91906130b0565b60405180910390f35b6102cb6102c63660046130fa565b6107c8565b60405190151581526020016102af565b60ff546102ee906001600160a01b031681565b6040516001600160a01b0390911681526020016102af565b6035545b6040519081526020016102af565b61032b610326366004613124565b6107df565b005b61032b61033b36600461313f565b610938565b6102cb61034e366004613181565b610cc7565b61035b610d73565b6040516102af91906131bd565b610419610376366004613124565b6040805160c081018252600080825260208201819052918101829052606081018290526080810182905260a0810191909152506001600160a01b0390811660009081526101006020818152604092839020835160c0810185528154909516855260018101549185019190915260028101549284019290925260039091015460ff80821660608501529181048216608084015262010000900416151560a082015290565b6040516102af9190600060c08201905060018060a01b038351168252602083015160208301526040830151604083015260ff606084015116606083015260ff608084015116608083015260a0830151151560a083015292915050565b604051601281526020016102af565b61030a60fc5481565b61032b61049b366004613124565b610dd5565b6102cb6104ae3660046130fa565b610e21565b61032b610e5d565b61032b6104c93660046130fa565b610e91565b61030a6104dc366004613181565b610ecd565b61030a6104ef366004613124565b610ee2565b61030a610502366004613124565b610eed565b60975460ff166102cb565b61030a60fb5481565b61030a610529366004613124565b6001600160a01b031660009081526033602052604090205490565b61032b610f14565b61032b61055a366004613124565b610f48565b61032b61056d36600461320a565b610fc5565b61032b611081565b61032b610588366004613269565b6110b3565b60fd546102ee906001600160a01b031681565b6102ee6105ae36600461328b565b6110e8565b60fe546001600160a01b03166102ee565b6065546001600160a01b03166102ee565b61032b6105e3366004613181565b611113565b6102a26111ce565b61030a6111dd565b6102cb6106063660046130fa565b611213565b6102cb6106193660046130fa565b6112ac565b6102cb61062c366004613124565b6001600160a01b03166000908152610100602052604090206003015462010000900460ff1690565b61032b610662366004613181565b6112b9565b60fe546102ee906001600160a01b031681565b61030a6112f6565b61030a6106903660046132a4565b6001600160a01b03918216600090815260346020908152604080832093909416825291909152205490565b6101025461030a565b61032b6106d2366004613181565b611300565b61032b6106e5366004613181565b611421565b61032b6106f8366004613124565b611454565b61032b61070b3660046130fa565b6114ef565b61032b61071e3660046132d7565b611522565b61032b61073136600461313f565b611995565b6060603680546107459061332b565b80601f01602080910402602001604051908101604052809291908181526020018280546107719061332b565b80156107be5780601f10610793576101008083540402835291602001916107be565b820191906000526020600020905b8154815290600101906020018083116107a157829003601f168201915b5050505050905090565b60006107d5338484611a56565b5060015b92915050565b6065546001600160a01b031633146108125760405162461bcd60e51b815260040161080990613360565b60405180910390fd5b6101025460005b6101025481101561087757826001600160a01b0316610102828154811061084257610842613395565b6000918252602090912001546001600160a01b0316141561086557809150610877565b8061086f816133c1565b915050610819565b5061010254811015610934576101028054610894906001906133dc565b815481106108a4576108a4613395565b60009182526020909120015461010280546001600160a01b0390921691839081106108d1576108d1613395565b9060005260206000200160006101000a8154816001600160a01b0302191690836001600160a01b03160217905550610102805480610911576109116133f3565b600082815260209020810160001990810180546001600160a01b03191690550190555b5050565b6065546001600160a01b031633146109625760405162461bcd60e51b815260040161080990613360565b6000846001600160a01b031663313ce5676040518163ffffffff1660e01b815260040160206040518083038186803b15801561099d57600080fd5b505afa1580156109b1573d6000803e3d6000fd5b505050506040513d601f19601f820116820180604052508101906109d59190613409565b60ff1611610a175760405162461bcd60e51b815260206004820152600f60248201526e21494e56414c49442861737365742960881b6044820152606401610809565b6000836001600160a01b031663313ce5676040518163ffffffff1660e01b815260040160206040518083038186803b158015610a5257600080fd5b505afa158015610a66573d6000803e3d6000fd5b505050506040513d601f19601f82011682018060405250810190610a8a9190613409565b60ff1611610ad05760405162461bcd60e51b815260206004820152601360248201527221494e56414c4944287072696365466565642960681b6044820152606401610809565b6001600160a01b038481166000818152610100602090815260409182902080546001600160a01b0319169488169490941784556002840186905560018401859055815163313ce56760e01b8152915163313ce567926004808201939291829003018186803b158015610b4157600080fd5b505afa158015610b55573d6000803e3d6000fd5b505050506040513d601f19601f82011682018060405250810190610b799190613409565b8160030160006101000a81548160ff021916908360ff160217905550836001600160a01b031663313ce5676040518163ffffffff1660e01b815260040160206040518083038186803b158015610bce57600080fd5b505afa158015610be2573d6000803e3d6000fd5b505050506040513d601f19601f82011682018060405250810190610c069190613409565b60038201805461ff00191661010060ff93841602179081905562010000900416610c8c5760038101805462ff000019166201000017905561010180546001810182556000919091527f109ea3cebb188b9c1b9fc5bb3920be60dfdc8699098dff92f3d80daaca7476890180546001600160a01b0387166001600160a01b03199091161790555b6040516001600160a01b038616907f06a94869c30cb7089f57f8d4a5ff251ac74a8c2bc361e7f91bda209898de8ead90600090a25050505050565b6000610cd4848484611b7a565b6001600160a01b038416600090815260346020908152604080832033845290915290205482811015610d595760405162461bcd60e51b815260206004820152602860248201527f45524332303a207472616e7366657220616d6f756e74206578636565647320616044820152676c6c6f77616e636560c01b6064820152608401610809565b610d668533858403611a56565b60019150505b9392505050565b60606101018054806020026020016040519081016040528092919081815260200182805480156107be57602002820191906000526020600020905b81546001600160a01b03168152600190910190602001808311610dae575050505050905090565b6065546001600160a01b03163314610dff5760405162461bcd60e51b815260040161080990613360565b60fe80546001600160a01b0319166001600160a01b0392909216919091179055565b3360008181526034602090815260408083206001600160a01b038716845290915281205490916107d5918590610e5890869061342c565b611a56565b6065546001600160a01b03163314610e875760405162461bcd60e51b815260040161080990613360565b610e8f611d41565b565b600260c9541415610eb45760405162461bcd60e51b815260040161080990613444565b600260c955610ec4338383611dd4565b5050600160c955565b6000610eda848484611f5c565b949350505050565b60006107d982612364565b6001600160a01b0381166000908152603360205260408120546107d990612463565b612463565b6065546001600160a01b03163314610f3e5760405162461bcd60e51b815260040161080990613360565b610e8f6000612495565b6065546001600160a01b03163314610f725760405162461bcd60e51b815260040161080990613360565b61010280546001810182556000919091527f93bdaa6a4190909b7c3fbe8d42169ffe1cab19f51dfc8db24c71abf849eced4a0180546001600160a01b0319166001600160a01b0392909216919091179055565b600260c9541415610fe85760405162461bcd60e51b815260040161080990613444565b600260c9556000805b6101025481101561104757610102818154811061101057611010613395565b6000918252602090912001546001600160a01b03163314156110355760019150611047565b8061103f816133c1565b915050610ff1565b50806110655760405162461bcd60e51b81526004016108099061347b565b6110738787878787876124e7565b5050600160c9555050505050565b6065546001600160a01b031633146110ab5760405162461bcd60e51b815260040161080990613360565b610e8f6125dc565b6065546001600160a01b031633146110dd5760405162461bcd60e51b815260040161080990613360565b60fb9190915560fc55565b61010281815481106110f957600080fd5b6000918252602090912001546001600160a01b0316905081565b600260c95414156111365760405162461bcd60e51b815260040161080990613444565b600260c9556000805b6101025481101561119557610102818154811061115e5761115e613395565b6000918252602090912001546001600160a01b03163314156111835760019150611195565b8061118d816133c1565b91505061113f565b50806111b35760405162461bcd60e51b81526004016108099061347b565b6111c384848460008060006124e7565b5050600160c9555050565b6060603780546107459061332b565b60fe546001600160a01b03166000908152610100602052604081206003015461120e90610f0f9060ff16600a61357e565b905090565b3360009081526034602090815260408083206001600160a01b0386168452909152812054828110156112955760405162461bcd60e51b815260206004820152602560248201527f45524332303a2064656372656173656420616c6c6f77616e63652062656c6f77604482015264207a65726f60d81b6064820152608401610809565b6112a23385858403611a56565b5060019392505050565b60006107d5338484611b7a565b600260c95414156112dc5760405162461bcd60e51b815260040161080990613444565b600260c9556112ec838383612657565b5050600160c95550565b600061120e6127cf565b6000805b6101025481101561135a57610102818154811061132357611323613395565b6000918252602090912001546001600160a01b0316331415611348576001915061135a565b80611352816133c1565b915050611304565b50806113785760405162461bcd60e51b81526004016108099061347b565b6001600160a01b0383166000908152610100602052604090206003015462010000900460ff166113ba5760405162461bcd60e51b81526004016108099061358d565b6113ce6001600160a01b03841685846128d3565b826001600160a01b0316846001600160a01b03167f4d0df46bea966973af88bd9f2ec263268a205e0a196a519fca0aded1b05256488460405161141391815260200190565b60405180910390a350505050565b600260c95414156114445760405162461bcd60e51b815260040161080990613444565b600260c9556112ec838383611dd4565b6065546001600160a01b0316331461147e5760405162461bcd60e51b815260040161080990613360565b6001600160a01b0381166114e35760405162461bcd60e51b815260206004820152602660248201527f4f776e61626c653a206e6577206f776e657220697320746865207a65726f206160448201526564647265737360d01b6064820152608401610809565b6114ec81612495565b50565b600260c95414156115125760405162461bcd60e51b815260040161080990613444565b600260c955610ec4338383612657565b600054610100900460ff1661153d5760005460ff1615611541565b303b155b6115a45760405162461bcd60e51b815260206004820152602e60248201527f496e697469616c697a61626c653a20636f6e747261637420697320616c72656160448201526d191e481a5b9a5d1a585b1a5e995960921b6064820152608401610809565b600054610100900460ff161580156115c6576000805461ffff19166101011790555b6115ce61293b565b6115d6612972565b6115de6129a9565b61162e604051806040016040528060118152602001704361736b205661756c742053686172657360781b81525060405180604001604052806005815260200164764341534b60d81b8152506129d8565b6000846001600160a01b031663313ce5676040518163ffffffff1660e01b815260040160206040518083038186803b15801561166957600080fd5b505afa15801561167d573d6000803e3d6000fd5b505050506040513d601f19601f820116820180604052508101906116a19190613409565b60ff16116116e75760405162461bcd60e51b815260206004820152601360248201527221494e56414c4944286261736541737365742960681b6044820152606401610809565b6000836001600160a01b031663313ce5676040518163ffffffff1660e01b815260040160206040518083038186803b15801561172257600080fd5b505afa158015611736573d6000803e3d6000fd5b505050506040513d601f19601f8201168201806040525081019061175a9190613409565b60ff16116117aa5760405162461bcd60e51b815260206004820152601c60248201527f21494e56414c49442862617365417373657450726963654665656429000000006044820152606401610809565b6001600160a01b038481166000818152610100602090815260409182902080546001600160a01b031916948816949094178455815163313ce56760e01b8152915163313ce567926004808201939291829003018186803b15801561180d57600080fd5b505afa158015611821573d6000803e3d6000fd5b505050506040513d601f19601f820116820180604052508101906118459190613409565b8160030160006101000a81548160ff021916908360ff160217905550836001600160a01b031663313ce5676040518163ffffffff1660e01b815260040160206040518083038186803b15801561189a57600080fd5b505afa1580156118ae573d6000803e3d6000fd5b505050506040513d601f19601f820116820180604052508101906118d29190613409565b600382018054600060019485018190556201000062ffff001990921661010060ff9586160262ff0000191617919091179091556101018054938401815581527f109ea3cebb188b9c1b9fc5bb3920be60dfdc8699098dff92f3d80daaca74768990920180546001600160a01b03199081166001600160a01b0389811691821790935560fd805483168b851617905560fe80548316909117905582541690851617905560fb81905560fc55801561198e576000805461ff00191690555b5050505050565b600260c95414156119b85760405162461bcd60e51b815260040161080990613444565b600260c9556000805b61010254811015611a175761010281815481106119e0576119e0613395565b6000918252602090912001546001600160a01b0316331415611a055760019150611a17565b80611a0f816133c1565b9150506119c1565b5080611a355760405162461bcd60e51b81526004016108099061347b565b611a44858585856000806124e7565b5050600160c955505050565b3b151590565b6001600160a01b038316611ab85760405162461bcd60e51b8152602060048201526024808201527f45524332303a20617070726f76652066726f6d20746865207a65726f206164646044820152637265737360e01b6064820152608401610809565b6001600160a01b038216611b195760405162461bcd60e51b815260206004820152602260248201527f45524332303a20617070726f766520746f20746865207a65726f206164647265604482015261737360f01b6064820152608401610809565b6001600160a01b0383811660008181526034602090815260408083209487168084529482529182902085905590518481527f8c5be1e5ebec7d5bd14f71427d1e84f3dd0314c0f7b2291e5b200ac8c7c3b925910160405180910390a3505050565b6001600160a01b038316611bde5760405162461bcd60e51b815260206004820152602560248201527f45524332303a207472616e736665722066726f6d20746865207a65726f206164604482015264647265737360d81b6064820152608401610809565b6001600160a01b038216611c405760405162461bcd60e51b815260206004820152602360248201527f45524332303a207472616e7366657220746f20746865207a65726f206164647260448201526265737360e81b6064820152608401610809565b6001600160a01b03831660009081526033602052604090205481811015611cb85760405162461bcd60e51b815260206004820152602660248201527f45524332303a207472616e7366657220616d6f756e7420657863656564732062604482015265616c616e636560d01b6064820152608401610809565b6001600160a01b03808516600090815260336020526040808220858503905591851681529081208054849290611cef90849061342c565b92505081905550826001600160a01b0316846001600160a01b03167fddf252ad1be2c89b69c2b068fc378daa952ba7f163c4a11628f55a4df523b3ef8460405161141391815260200190565b50505050565b60975460ff16611d8a5760405162461bcd60e51b815260206004820152601460248201527314185d5cd8589b194e881b9bdd081c185d5cd95960621b6044820152606401610809565b6097805460ff191690557f5db9ee0a495bf2e6ff9c91a7834c1ba4fdd244a5e8aa4e537bd38aeae4b073aa335b6040516001600160a01b03909116815260200160405180910390a1565b6001600160a01b0382166000908152610100602052604090206003015462010000900460ff16611e165760405162461bcd60e51b81526004016108099061358d565b60008111611e5e5760405162461bcd60e51b815260206004820152601560248201527421494e56414c4944286173736574416d6f756e742960581b6044820152606401610809565b60fe5481906001600160a01b03848116911614611ed7576001600160a01b038316600090815261010060205260408120600181015490919061271090611ea490866135ba565b611eae91906135d9565b60fe54909150611ed29086906001600160a01b0316611ecd84886133dc565b611f5c565b925050505b6000611ee282612a11565b9050611ef96001600160a01b038516333086612a3b565b611f038582612a73565b60408051848152602081018490529081018290526001600160a01b0380861691908716907fbef68d45f01f5e2c114616dc4840e7a543da6ec57afc5700e4be96056a899b4e906060015b60405180910390a35050505050565b6000826001600160a01b0316846001600160a01b03161415611fb55760405162461bcd60e51b815260206004820152601260248201527108525395905312510a199c9bdb505cdcd95d60721b6044820152606401610809565b6001600160a01b0384166000908152610100602052604090206003015462010000900460ff166120275760405162461bcd60e51b815260206004820152601760248201527f214e4f545f414c4c4f5745442866726f6d4173736574290000000000000000006044820152606401610809565b6001600160a01b0383166000908152610100602052604090206003015462010000900460ff166120915760405162461bcd60e51b8152602060048201526015602482015274214e4f545f414c4c4f57454428746f41737365742960581b6044820152606401610809565b8161209e57506000610d6c565b6001600160a01b0380851660009081526101006020526040808220548151633fabe5a360e21b815291519293169163feaf968c9160048082019260a092909190829003018186803b1580156120f257600080fd5b505afa158015612106573d6000803e3d6000fd5b505050506040513d601f19601f8201168201806040525081019061212a9190613615565b5050506001600160a01b038087166000908152610100602052604090819020548151633fabe5a360e21b815291519395508594509091169163feaf968c9160048082019260a092909190829003018186803b15801561218857600080fd5b505afa15801561219c573d6000803e3d6000fd5b505050506040513d601f19601f820116820180604052508101906121c09190613615565b5050506001600160a01b03808816600090815261010060208190526040808320600390810154948d1684529220909101549295508593509182900460ff9081169290910416146122d9576001600160a01b0386166000908152610100602081905260409091206003015461223e91839160ff91810482169116612b52565b6001600160a01b03808916600090815261010060208190526040808320600390810154948c16845292209091015461227f92869260ff910481169116612b52565b6001600160a01b03808a1660009081526101006020526040808220600390810154938c168352912001546122bb91899160ff9182169116612b52565b6122c591906135ba565b6122cf91906135d9565b9350505050610d6c565b6001600160a01b03808816600090815261010060208190526040808320600390810154948b1684529220909101546122cf9284928692612322928b9260ff918216920416612b52565b61232c91906135ba565b61233691906135d9565b6001600160a01b0388166000908152610100602081905260409091206003015460ff91810482169116612b52565b60fd5460405163368317c160e21b81526001600160a01b038381166004830152600092169063da0c5f049060240160206040518083038186803b1580156123aa57600080fd5b505afa1580156123be573d6000803e3d6000fd5b505050506040513d601f19601f820116820180604052508101906123e29190613665565b6040516370a0823160e01b81523060048201526001600160a01b038416906370a082319060240160206040518083038186803b15801561242157600080fd5b505afa158015612435573d6000803e3d6000fd5b505050506040513d601f19601f820116820180604052508101906124599190613665565b6107d9919061342c565b600061246e60355490565b612476575090565b6035546124816127cf565b61248b90846135ba565b6107d991906135d9565b606580546001600160a01b038381166001600160a01b0319831681179093556040519116919082907f8be0079c531659141344cd1fd0a4f28419497f9722a3daafe3b4186f6b6457e090600090a35050565b60006124f285612a11565b9050600084156125085761250585612a11565b90505b6000808411801561252157506001600160a01b03851615155b156125325761252f84612a11565b90505b61255189898361254286886133dc565b61254c91906133dc565b611b7a565b811561256f5760ff5461256f908a906001600160a01b031684611b7a565b801561258057612580898683611b7a565b60408051888152602081018890529081018490526001600160a01b03808a1691908b16907ffc8dd32b1cfbf2c565436049e9e556251a12304b0c3e624bc5e3b205692cf2dc9060600160405180910390a3505050505050505050565b60975460ff16156126225760405162461bcd60e51b815260206004820152601060248201526f14185d5cd8589b194e881c185d5cd95960821b6044820152606401610809565b6097805460ff191660011790557f62e78cea01bee320cd4e420270b5ea74000d11b0c9f74754ebdbfc544b05a258611db73390565b6001600160a01b0382166000908152610100602052604090206003015462010000900460ff166126995760405162461bcd60e51b81526004016108099061358d565b600081116126e25760405162461bcd60e51b815260206004820152601660248201527521494e56414c494428736861726573416d6f756e742960501b6044820152606401610809565b60006126ed82612463565b90506126f93383612bc3565b60fe5481906001600160a01b0385811691161461276d576001600160a01b0380851660009081526101006020526040902060fe54909161273b91168685611f5c565b9150600061271082600101548461275291906135ba565b61275c91906135d9565b905061276881846133dc565b925050505b6127816001600160a01b03851686836128d3565b60408051828152602081018490529081018490526001600160a01b0380861691908716907fc90b5405a6805d53680586ef15168b1d791e67ceebe68fa62eefdb81478763cc90606001611f4d565b600080805b610101548110156128cd5760fe5461010180546001600160a01b03909216918390811061280357612803613395565b6000918252602090912001546001600160a01b031614156128445760fe54612833906001600160a01b0316612364565b61283d908361342c565b91506128bb565b6128ae610101828154811061285b5761285b613395565b60009182526020909120015460fe5461010180546001600160a01b039384169390921691611ecd91908690811061289457612894613395565b6000918252602090912001546001600160a01b0316612364565b6128b8908361342c565b91505b806128c5816133c1565b9150506127d4565b50919050565b6040516001600160a01b03831660248201526044810182905261293690849063a9059cbb60e01b906064015b60408051601f198184030181529190526020810180516001600160e01b03166001600160e01b031990931692909217909152612d11565b505050565b600054610100900460ff166129625760405162461bcd60e51b81526004016108099061367e565b61296a612de3565b610e8f612e0a565b600054610100900460ff166129995760405162461bcd60e51b81526004016108099061367e565b6129a1612de3565b610e8f612e3a565b600054610100900460ff166129d05760405162461bcd60e51b81526004016108099061367e565b610e8f612e6d565b600054610100900460ff166129ff5760405162461bcd60e51b81526004016108099061367e565b612a07612de3565b6109348282612e9b565b600080612a1c6127cf565b1115612a3257612a2a6127cf565b603554612481565b5090565b919050565b6040516001600160a01b0380851660248301528316604482015260648101829052611d3b9085906323b872dd60e01b906084016128ff565b6001600160a01b038216612ac95760405162461bcd60e51b815260206004820152601f60248201527f45524332303a206d696e7420746f20746865207a65726f2061646472657373006044820152606401610809565b8060356000828254612adb919061342c565b90915550506001600160a01b03821660009081526033602052604081208054839290612b0890849061342c565b90915550506040518181526001600160a01b038316906000907fddf252ad1be2c89b69c2b068fc378daa952ba7f163c4a11628f55a4df523b3ef9060200160405180910390a35050565b60008160ff168360ff161015612b8b57612b6c83836136c9565b612b7a9060ff16600a6136ec565b612b8490856135ba565b9050610d6c565b8160ff168360ff161115612bbb57612ba382846136c9565b612bb19060ff16600a6136ec565b612b8490856135d9565b509192915050565b6001600160a01b038216612c235760405162461bcd60e51b815260206004820152602160248201527f45524332303a206275726e2066726f6d20746865207a65726f206164647265736044820152607360f81b6064820152608401610809565b6001600160a01b03821660009081526033602052604090205481811015612c975760405162461bcd60e51b815260206004820152602260248201527f45524332303a206275726e20616d6f756e7420657863656564732062616c616e604482015261636560f01b6064820152608401610809565b6001600160a01b0383166000908152603360205260408120838303905560358054849290612cc69084906133dc565b90915550506040518281526000906001600160a01b038516907fddf252ad1be2c89b69c2b068fc378daa952ba7f163c4a11628f55a4df523b3ef9060200160405180910390a3505050565b6000612d66826040518060400160405280602081526020017f5361666545524332303a206c6f772d6c6576656c2063616c6c206661696c6564815250856001600160a01b0316612ee99092919063ffffffff16565b8051909150156129365780806020019051810190612d8491906136f8565b6129365760405162461bcd60e51b815260206004820152602a60248201527f5361666545524332303a204552433230206f7065726174696f6e20646964206e6044820152691bdd081cdd58d8d9595960b21b6064820152608401610809565b600054610100900460ff16610e8f5760405162461bcd60e51b81526004016108099061367e565b600054610100900460ff16612e315760405162461bcd60e51b81526004016108099061367e565b610e8f33612495565b600054610100900460ff16612e615760405162461bcd60e51b81526004016108099061367e565b6097805460ff19169055565b600054610100900460ff16612e945760405162461bcd60e51b81526004016108099061367e565b600160c955565b600054610100900460ff16612ec25760405162461bcd60e51b81526004016108099061367e565b8151612ed5906036906020850190612ff4565b508051612936906037906020840190612ff4565b6060610eda848460008585843b612f425760405162461bcd60e51b815260206004820152601d60248201527f416464726573733a2063616c6c20746f206e6f6e2d636f6e74726163740000006044820152606401610809565b600080866001600160a01b03168587604051612f5e919061371a565b60006040518083038185875af1925050503d8060008114612f9b576040519150601f19603f3d011682016040523d82523d6000602084013e612fa0565b606091505b5091509150612fb0828286612fbb565b979650505050505050565b60608315612fca575081610d6c565b825115612fda5782518084602001fd5b8160405162461bcd60e51b815260040161080991906130b0565b8280546130009061332b565b90600052602060002090601f0160209004810192826130225760008555613068565b82601f1061303b57805160ff1916838001178555613068565b82800160010185558215613068579182015b8281111561306857825182559160200191906001019061304d565b50612a329291505b80821115612a325760008155600101613070565b60005b8381101561309f578181015183820152602001613087565b83811115611d3b5750506000910152565b60208152600082518060208401526130cf816040850160208701613084565b601f01601f19169190910160400192915050565b80356001600160a01b0381168114612a3657600080fd5b6000806040838503121561310d57600080fd5b613116836130e3565b946020939093013593505050565b60006020828403121561313657600080fd5b610d6c826130e3565b6000806000806080858703121561315557600080fd5b61315e856130e3565b935061316c602086016130e3565b93969395505050506040820135916060013590565b60008060006060848603121561319657600080fd5b61319f846130e3565b92506131ad602085016130e3565b9150604084013590509250925092565b6020808252825182820181905260009190848201906040850190845b818110156131fe5783516001600160a01b0316835292840192918401916001016131d9565b50909695505050505050565b60008060008060008060c0878903121561322357600080fd5b61322c876130e3565b955061323a602088016130e3565b94506040870135935060608701359250613256608088016130e3565b915060a087013590509295509295509295565b6000806040838503121561327c57600080fd5b50508035926020909101359150565b60006020828403121561329d57600080fd5b5035919050565b600080604083850312156132b757600080fd5b6132c0836130e3565b91506132ce602084016130e3565b90509250929050565b600080600080608085870312156132ed57600080fd5b6132f6856130e3565b9350613304602086016130e3565b9250613312604086016130e3565b9150613320606086016130e3565b905092959194509250565b600181811c9082168061333f57607f821691505b602082108114156128cd57634e487b7160e01b600052602260045260246000fd5b6020808252818101527f4f776e61626c653a2063616c6c6572206973206e6f7420746865206f776e6572604082015260600190565b634e487b7160e01b600052603260045260246000fd5b634e487b7160e01b600052601160045260246000fd5b60006000198214156133d5576133d56133ab565b5060010190565b6000828210156133ee576133ee6133ab565b500390565b634e487b7160e01b600052603160045260246000fd5b60006020828403121561341b57600080fd5b815160ff81168114610d6c57600080fd5b6000821982111561343f5761343f6133ab565b500190565b6020808252601f908201527f5265656e7472616e637947756172643a207265656e7472616e742063616c6c00604082015260600190565b602080825260059082015264042c2eae8d60db1b604082015260600190565b600181815b808511156134d55781600019048211156134bb576134bb6133ab565b808516156134c857918102915b93841c939080029061349f565b509250929050565b6000826134ec575060016107d9565b816134f9575060006107d9565b816001811461350f576002811461351957613535565b60019150506107d9565b60ff84111561352a5761352a6133ab565b50506001821b6107d9565b5060208310610133831016604e8410600b8410161715613558575081810a6107d9565b613562838361349a565b8060001904821115613576576135766133ab565b029392505050565b6000610d6c60ff8416836134dd565b602080825260139082015272214e4f545f414c4c4f5745442861737365742960681b604082015260600190565b60008160001904831182151516156135d4576135d46133ab565b500290565b6000826135f657634e487b7160e01b600052601260045260246000fd5b500490565b805169ffffffffffffffffffff81168114612a3657600080fd5b600080600080600060a0868803121561362d57600080fd5b613636866135fb565b9450602086015193506040860151925060608601519150613659608087016135fb565b90509295509295909350565b60006020828403121561367757600080fd5b5051919050565b6020808252602b908201527f496e697469616c697a61626c653a20636f6e7472616374206973206e6f74206960408201526a6e697469616c697a696e6760a81b606082015260800190565b600060ff821660ff8416808210156136e3576136e36133ab565b90039392505050565b6000610d6c83836134dd565b60006020828403121561370a57600080fd5b81518015158114610d6c57600080fd5b6000825161372c818460208701613084565b919091019291505056fea2646970667358221220f4531902265bc320267529a4b9af4fe4e8a4f464cdd940311b7a67b53f781a1d64736f6c63430008090033",
  "devdoc": {
    "kind": "dev",
    "methods": {
      "allocateToStrategy(address,address,uint256)": {
        "details": "Send an amount of asset to a strategy",
        "params": {
          "_asset": "Address of asset",
          "_assetAmount": "Amount of asset to send"
        }
      },
      "allowAsset(address,address,uint256,uint256)": {
        "details": "Add an allowed asset to be deposited into the vault",
        "params": {
          "_asset": "Address of new ERC20 asset",
          "_priceFeed": "Address of a chainlink-compatible price oracle for the asset",
          "_slippageBps": "Slippage basis points to use when depositing/withdrawing this asset"
        }
      },
      "allowance(address,address)": {
        "details": "See {IERC20-allowance}."
      },
      "approve(address,uint256)": {
        "details": "See {IERC20-approve}. Requirements: - `spender` cannot be the zero address."
      },
      "balanceOf(address)": {
        "details": "See {IERC20-balanceOf}."
      },
      "constructor": {
        "custom:oz-upgrades-unsafe-allow": "constructor"
      },
      "currentValueOf(address)": {
        "details": "Get current vault value of `_address` denominated in `baseAsset`",
        "params": {
          "_address": "Address to check"
        }
      },
      "decimals()": {
        "details": "Returns the number of decimals used to get its user representation. For example, if `decimals` equals `2`, a balance of `505` tokens should be displayed to a user as `5.05` (`505 / 10 ** 2`). Tokens usually opt for a value of 18, imitating the relationship between Ether and Wei. This is the value {ERC20} uses, unless this function is overridden; NOTE: This information is only used for _display_ purposes: it in no way affects any of the arithmetic of the contract, including {IERC20-balanceOf} and {IERC20-transfer}."
      },
      "decreaseAllowance(address,uint256)": {
        "details": "Atomically decreases the allowance granted to `spender` by the caller. This is an alternative to {approve} that can be used as a mitigation for problems described in {IERC20-approve}. Emits an {Approval} event indicating the updated allowance. Requirements: - `spender` cannot be the zero address. - `spender` must have allowance for the caller of at least `subtractedValue`."
      },
      "deposit(address,uint256)": {
        "details": "Deposit an amount of `_asset` into the vault and credit the equal value of `baseAsset`",
        "params": {
          "_asset": "Address of incoming asset",
          "_assetAmount": "Amount of asset to deposit"
        }
      },
      "depositTo(address,address,uint256)": {
        "details": "Deposit an amount of `_asset` into the vault and credit the equal value of `baseAsset`",
        "params": {
          "_asset": "Address of incoming asset",
          "_assetAmount": "Amount of asset to deposit",
          "_to": "Recipient of funds"
        }
      },
      "getAllAssets()": {
        "details": "Get all the assets supported by the vault."
      },
      "getAsset(address)": {
        "details": "Get asset details",
        "params": {
          "_asset": "Asset address"
        },
        "returns": {
          "_0": "Asset Asset details"
        }
      },
      "getBaseAsset()": {
        "details": "Get base asset of vault."
      },
      "increaseAllowance(address,uint256)": {
        "details": "Atomically increases the allowance granted to `spender` by the caller. This is an alternative to {approve} that can be used as a mitigation for problems described in {IERC20-approve}. Emits an {Approval} event indicating the updated allowance. Requirements: - `spender` cannot be the zero address."
      },
      "name()": {
        "details": "Returns the name of the token."
      },
      "owner()": {
        "details": "Returns the address of the current owner."
      },
      "paused()": {
        "details": "Returns true if the contract is paused, and false otherwise."
      },
      "pricePerShare()": {
        "details": "Get current vault value a vault share"
      },
      "protocolPayment(address,address,uint256)": {
        "details": "Pay `_value` of `baseAsset` from `_from` to `_to` initiated by an authorized protocol",
        "params": {
          "_from": "From address",
          "_to": "To address",
          "_value": "Amount of baseAsset value to transfer"
        }
      },
      "protocolPayment(address,address,uint256,uint256)": {
        "details": "Pay `_value` of `baseAsset` from `_from` to `_to` initiated by an authorized protocol",
        "params": {
          "_from": "From address",
          "_protocolFee": "Protocol fee to deduct from `_value`",
          "_to": "To address",
          "_value": "Amount of baseAsset value to transfer"
        }
      },
      "protocolPayment(address,address,uint256,uint256,address,uint256)": {
        "details": "Pay `_value` of `baseAsset` from `_from` to `_to` initiated by an authorized protocol",
        "params": {
          "_from": "From address",
          "_network": "Address of network fee collector",
          "_networkFee": "Network fee to deduct from `_value`",
          "_protocolFee": "Protocol fee to deduct from `_value`",
          "_to": "To address",
          "_value": "Amount of baseAsset value to transfer"
        }
      },
      "renounceOwnership()": {
        "details": "Leaves the contract without owner. It will not be possible to call `onlyOwner` functions anymore. Can only be called by the current owner. NOTE: Renouncing ownership will leave the contract without an owner, thereby removing any functionality that is only available to the owner."
      },
      "supportsAsset(address)": {
        "details": "Check if the vault supports an asset",
        "params": {
          "_asset": "Asset address"
        },
        "returns": {
          "_0": "bool `true` if asset supported, `false` otherwise"
        }
      },
      "symbol()": {
        "details": "Returns the symbol of the token, usually a shorter version of the name."
      },
      "totalAssetBalance(address)": {
        "details": "Get total amount of an asset held in vault and managed by admin",
        "params": {
          "_asset": "Address of asset"
        }
      },
      "totalSupply()": {
        "details": "See {IERC20-totalSupply}."
      },
      "totalValue()": {
        "details": "Get total value in vault and managed by admin - denominated in `baseAsset`"
      },
      "transfer(address,uint256)": {
        "details": "See {IERC20-transfer}. Requirements: - `recipient` cannot be the zero address. - the caller must have a balance of at least `amount`."
      },
      "transferFrom(address,address,uint256)": {
        "details": "See {IERC20-transferFrom}. Emits an {Approval} event indicating the updated allowance. This is not required by the EIP. See the note at the beginning of {ERC20}. Requirements: - `sender` and `recipient` cannot be the zero address. - `sender` must have a balance of at least `amount`. - the caller must have allowance for ``sender``'s tokens of at least `amount`."
      },
      "transferOwnership(address)": {
        "details": "Transfers ownership of the contract to a new account (`newOwner`). Can only be called by the current owner."
      },
      "withdraw(address,uint256)": {
        "details": "Withdraw an amount of shares from the vault in the form of `_asset`",
        "params": {
          "_asset": "Address of outgoing asset",
          "_shares": "Amount of shares to withdraw"
        }
      },
      "withdrawTo(address,address,uint256)": {
        "details": "Withdraw an amount of shares from the vault in the form of `_asset`",
        "params": {
          "_asset": "Address of outgoing asset",
          "_recipient": "Recipient who will receive the withdrawn assets",
          "_shares": "Amount of shares to withdraw"
        }
      }
    },
    "stateVariables": {
      "transferFeeFixed": {
        "details": "fixed fee to charge recipient on direct transfer, in baseAsset decimal units. "
      },
      "transferFeeRate": {
        "details": "percentage to charge recipient on direct transfer, in bps. 50% = 5000. "
      }
    },
    "version": 1
  },
  "userdoc": {
    "kind": "user",
    "methods": {},
    "notice": "CaskVault is where: - the approved asset list lives - users deposit/withdraw approved assets which results in a mint/burn of the vault token - a minimum reserve rate is enforced - vault manager can tell the vault to send unallocated assets to strategies - approved protocols can process a payment between parties - one can query the value of all unallocated assets",
    "version": 1
  },
  "storageLayout": {
    "storage": [
      {
        "astId": 788,
        "contract": "contracts/vault/CaskVault.sol:CaskVault",
        "label": "_initialized",
        "offset": 0,
        "slot": "0",
        "type": "t_bool"
      },
      {
        "astId": 791,
        "contract": "contracts/vault/CaskVault.sol:CaskVault",
        "label": "_initializing",
        "offset": 1,
        "slot": "0",
        "type": "t_bool"
      },
      {
        "astId": 3012,
        "contract": "contracts/vault/CaskVault.sol:CaskVault",
        "label": "__gap",
        "offset": 0,
        "slot": "1",
        "type": "t_array(t_uint256)50_storage"
      },
      {
        "astId": 1045,
        "contract": "contracts/vault/CaskVault.sol:CaskVault",
        "label": "_balances",
        "offset": 0,
        "slot": "51",
        "type": "t_mapping(t_address,t_uint256)"
      },
      {
        "astId": 1051,
        "contract": "contracts/vault/CaskVault.sol:CaskVault",
        "label": "_allowances",
        "offset": 0,
        "slot": "52",
        "type": "t_mapping(t_address,t_mapping(t_address,t_uint256))"
      },
      {
        "astId": 1053,
        "contract": "contracts/vault/CaskVault.sol:CaskVault",
        "label": "_totalSupply",
        "offset": 0,
        "slot": "53",
        "type": "t_uint256"
      },
      {
        "astId": 1055,
        "contract": "contracts/vault/CaskVault.sol:CaskVault",
        "label": "_name",
        "offset": 0,
        "slot": "54",
        "type": "t_string_storage"
      },
      {
        "astId": 1057,
        "contract": "contracts/vault/CaskVault.sol:CaskVault",
        "label": "_symbol",
        "offset": 0,
        "slot": "55",
        "type": "t_string_storage"
      },
      {
        "astId": 1598,
        "contract": "contracts/vault/CaskVault.sol:CaskVault",
        "label": "__gap",
        "offset": 0,
        "slot": "56",
        "type": "t_array(t_uint256)45_storage"
      },
      {
        "astId": 666,
        "contract": "contracts/vault/CaskVault.sol:CaskVault",
        "label": "_owner",
        "offset": 0,
        "slot": "101",
        "type": "t_address"
      },
      {
        "astId": 780,
        "contract": "contracts/vault/CaskVault.sol:CaskVault",
        "label": "__gap",
        "offset": 0,
        "slot": "102",
        "type": "t_array(t_uint256)49_storage"
      },
      {
        "astId": 876,
        "contract": "contracts/vault/CaskVault.sol:CaskVault",
        "label": "_paused",
        "offset": 0,
        "slot": "151",
        "type": "t_bool"
      },
      {
        "astId": 967,
        "contract": "contracts/vault/CaskVault.sol:CaskVault",
        "label": "__gap",
        "offset": 0,
        "slot": "152",
        "type": "t_array(t_uint256)49_storage"
      },
      {
        "astId": 982,
        "contract": "contracts/vault/CaskVault.sol:CaskVault",
        "label": "_status",
        "offset": 0,
        "slot": "201",
        "type": "t_uint256"
      },
      {
        "astId": 1025,
        "contract": "contracts/vault/CaskVault.sol:CaskVault",
        "label": "__gap",
        "offset": 0,
        "slot": "202",
        "type": "t_array(t_uint256)49_storage"
      },
      {
        "astId": 14603,
        "contract": "contracts/vault/CaskVault.sol:CaskVault",
        "label": "transferFeeFixed",
        "offset": 0,
        "slot": "251",
        "type": "t_uint256"
      },
      {
        "astId": 14606,
        "contract": "contracts/vault/CaskVault.sol:CaskVault",
        "label": "transferFeeRate",
        "offset": 0,
        "slot": "252",
        "type": "t_uint256"
      },
      {
        "astId": 14608,
        "contract": "contracts/vault/CaskVault.sol:CaskVault",
        "label": "vaultManager",
        "offset": 0,
        "slot": "253",
        "type": "t_address"
      },
      {
        "astId": 14610,
        "contract": "contracts/vault/CaskVault.sol:CaskVault",
        "label": "baseAsset",
        "offset": 0,
        "slot": "254",
        "type": "t_address"
      },
      {
        "astId": 14612,
        "contract": "contracts/vault/CaskVault.sol:CaskVault",
        "label": "feeDistributor",
        "offset": 0,
        "slot": "255",
        "type": "t_address"
      },
      {
        "astId": 14617,
        "contract": "contracts/vault/CaskVault.sol:CaskVault",
        "label": "assets",
        "offset": 0,
        "slot": "256",
        "type": "t_mapping(t_address,t_struct(Asset)9197_storage)"
      },
      {
        "astId": 14620,
        "contract": "contracts/vault/CaskVault.sol:CaskVault",
        "label": "allAssets",
        "offset": 0,
        "slot": "257",
        "type": "t_array(t_address)dyn_storage"
      },
      {
        "astId": 14623,
        "contract": "contracts/vault/CaskVault.sol:CaskVault",
        "label": "protocols",
        "offset": 0,
        "slot": "258",
        "type": "t_array(t_address)dyn_storage"
      }
    ],
    "types": {
      "t_address": {
        "encoding": "inplace",
        "label": "address",
        "numberOfBytes": "20"
      },
      "t_array(t_address)dyn_storage": {
        "base": "t_address",
        "encoding": "dynamic_array",
        "label": "address[]",
        "numberOfBytes": "32"
      },
      "t_array(t_uint256)45_storage": {
        "base": "t_uint256",
        "encoding": "inplace",
        "label": "uint256[45]",
        "numberOfBytes": "1440"
      },
      "t_array(t_uint256)49_storage": {
        "base": "t_uint256",
        "encoding": "inplace",
        "label": "uint256[49]",
        "numberOfBytes": "1568"
      },
      "t_array(t_uint256)50_storage": {
        "base": "t_uint256",
        "encoding": "inplace",
        "label": "uint256[50]",
        "numberOfBytes": "1600"
      },
      "t_bool": {
        "encoding": "inplace",
        "label": "bool",
        "numberOfBytes": "1"
      },
      "t_mapping(t_address,t_mapping(t_address,t_uint256))": {
        "encoding": "mapping",
        "key": "t_address",
        "label": "mapping(address => mapping(address => uint256))",
        "numberOfBytes": "32",
        "value": "t_mapping(t_address,t_uint256)"
      },
      "t_mapping(t_address,t_struct(Asset)9197_storage)": {
        "encoding": "mapping",
        "key": "t_address",
        "label": "mapping(address => struct ICaskVault.Asset)",
        "numberOfBytes": "32",
        "value": "t_struct(Asset)9197_storage"
      },
      "t_mapping(t_address,t_uint256)": {
        "encoding": "mapping",
        "key": "t_address",
        "label": "mapping(address => uint256)",
        "numberOfBytes": "32",
        "value": "t_uint256"
      },
      "t_string_storage": {
        "encoding": "bytes",
        "label": "string",
        "numberOfBytes": "32"
      },
      "t_struct(Asset)9197_storage": {
        "encoding": "inplace",
        "label": "struct ICaskVault.Asset",
        "members": [
          {
            "astId": 9186,
            "contract": "contracts/vault/CaskVault.sol:CaskVault",
            "label": "priceFeed",
            "offset": 0,
            "slot": "0",
            "type": "t_address"
          },
          {
            "astId": 9188,
            "contract": "contracts/vault/CaskVault.sol:CaskVault",
            "label": "slippageBps",
            "offset": 0,
            "slot": "1",
            "type": "t_uint256"
          },
          {
            "astId": 9190,
            "contract": "contracts/vault/CaskVault.sol:CaskVault",
            "label": "depositLimit",
            "offset": 0,
            "slot": "2",
            "type": "t_uint256"
          },
          {
            "astId": 9192,
            "contract": "contracts/vault/CaskVault.sol:CaskVault",
            "label": "assetDecimals",
            "offset": 0,
            "slot": "3",
            "type": "t_uint8"
          },
          {
            "astId": 9194,
            "contract": "contracts/vault/CaskVault.sol:CaskVault",
            "label": "priceFeedDecimals",
            "offset": 1,
            "slot": "3",
            "type": "t_uint8"
          },
          {
            "astId": 9196,
            "contract": "contracts/vault/CaskVault.sol:CaskVault",
            "label": "allowed",
            "offset": 2,
            "slot": "3",
            "type": "t_bool"
          }
        ],
        "numberOfBytes": "128"
      },
      "t_uint256": {
        "encoding": "inplace",
        "label": "uint256",
        "numberOfBytes": "32"
      },
      "t_uint8": {
        "encoding": "inplace",
        "label": "uint8",
        "numberOfBytes": "1"
      }
    }
  }
}