{
  "address": "0x3684879f634A4Ee5E9E4CaC172d6171292a76904",
  "abi": [
    {
      "inputs": [],
      "stateMutability": "nonpayable",
      "type": "constructor"
    },
    {
      "anonymous": false,
      "inputs": [
        {
          "indexed": true,
          "internalType": "address",
          "name": "previousOwner",
          "type": "address"
        },
        {
          "indexed": true,
          "internalType": "address",
          "name": "newOwner",
          "type": "address"
        }
      ],
      "name": "OwnershipTransferred",
      "type": "event"
    },
    {
      "anonymous": false,
      "inputs": [
        {
          "indexed": false,
          "internalType": "address",
          "name": "account",
          "type": "address"
        }
      ],
      "name": "Paused",
      "type": "event"
    },
    {
      "anonymous": false,
      "inputs": [
        {
          "indexed": false,
          "internalType": "address",
          "name": "account",
          "type": "address"
        }
      ],
      "name": "Unpaused",
      "type": "event"
    },
    {
      "inputs": [
        {
          "internalType": "bytes",
          "name": "checkData",
          "type": "bytes"
        }
      ],
      "name": "checkUpkeep",
      "outputs": [
        {
          "internalType": "bool",
          "name": "upkeepNeeded",
          "type": "bool"
        },
        {
          "internalType": "bytes",
          "name": "performData",
          "type": "bytes"
        }
      ],
      "stateMutability": "view",
      "type": "function"
    },
    {
      "inputs": [
        {
          "internalType": "address",
          "name": "_vault",
          "type": "address"
        },
        {
          "internalType": "address",
          "name": "_subscriptionPlans",
          "type": "address"
        },
        {
          "internalType": "address",
          "name": "_subscriptions",
          "type": "address"
        }
      ],
      "name": "initialize",
      "outputs": [],
      "stateMutability": "nonpayable",
      "type": "function"
    },
    {
      "inputs": [],
      "name": "owner",
      "outputs": [
        {
          "internalType": "address",
          "name": "",
          "type": "address"
        }
      ],
      "stateMutability": "view",
      "type": "function"
    },
    {
      "inputs": [],
      "name": "pause",
      "outputs": [],
      "stateMutability": "nonpayable",
      "type": "function"
    },
    {
      "inputs": [],
      "name": "paused",
      "outputs": [
        {
          "internalType": "bool",
          "name": "",
          "type": "bool"
        }
      ],
      "stateMutability": "view",
      "type": "function"
    },
    {
      "inputs": [],
      "name": "paymentFeeFixed",
      "outputs": [
        {
          "internalType": "uint256",
          "name": "",
          "type": "uint256"
        }
      ],
      "stateMutability": "view",
      "type": "function"
    },
    {
      "inputs": [],
      "name": "paymentFeeRateMax",
      "outputs": [
        {
          "internalType": "uint256",
          "name": "",
          "type": "uint256"
        }
      ],
      "stateMutability": "view",
      "type": "function"
    },
    {
      "inputs": [],
      "name": "paymentFeeRateMin",
      "outputs": [
        {
          "internalType": "uint256",
          "name": "",
          "type": "uint256"
        }
      ],
      "stateMutability": "view",
      "type": "function"
    },
    {
      "inputs": [
        {
          "internalType": "bytes",
          "name": "performData",
          "type": "bytes"
        }
      ],
      "name": "performUpkeep",
      "outputs": [],
      "stateMutability": "nonpayable",
      "type": "function"
    },
    {
      "inputs": [
        {
          "internalType": "address",
          "name": "_consumer",
          "type": "address"
        },
        {
          "internalType": "address",
          "name": "_provider",
          "type": "address"
        },
        {
          "internalType": "uint256",
          "name": "_subscriptionId",
          "type": "uint256"
        },
        {
          "internalType": "uint256",
          "name": "_amount",
          "type": "uint256"
        }
      ],
      "name": "processSinglePayment",
      "outputs": [],
      "stateMutability": "nonpayable",
      "type": "function"
    },
    {
      "inputs": [
        {
          "internalType": "uint256",
          "name": "_initialGasLeft",
          "type": "uint256"
        },
        {
          "internalType": "uint256",
          "name": "_gasRefundLimit",
          "type": "uint256"
        }
      ],
      "name": "rebateGas",
      "outputs": [],
      "stateMutability": "nonpayable",
      "type": "function"
    },
    {
      "inputs": [
        {
          "internalType": "uint256",
          "name": "_subscriptionId",
          "type": "uint256"
        }
      ],
      "name": "renewSubscription",
      "outputs": [],
      "stateMutability": "nonpayable",
      "type": "function"
    },
    {
      "inputs": [],
      "name": "renounceOwnership",
      "outputs": [],
      "stateMutability": "nonpayable",
      "type": "function"
    },
    {
      "inputs": [
        {
          "internalType": "uint256",
          "name": "_paymentFeeFixed",
          "type": "uint256"
        },
        {
          "internalType": "uint256",
          "name": "_paymentFeeRateMin",
          "type": "uint256"
        },
        {
          "internalType": "uint256",
          "name": "_paymentFeeRateMax",
          "type": "uint256"
        },
        {
          "internalType": "uint256",
          "name": "_stakeTargetFactor",
          "type": "uint256"
        }
      ],
      "name": "setParameters",
      "outputs": [],
      "stateMutability": "nonpayable",
      "type": "function"
    },
    {
      "inputs": [],
      "name": "stakeTargetFactor",
      "outputs": [
        {
          "internalType": "uint256",
          "name": "",
          "type": "uint256"
        }
      ],
      "stateMutability": "view",
      "type": "function"
    },
    {
      "inputs": [],
      "name": "subscriptionPlans",
      "outputs": [
        {
          "internalType": "contract ICaskSubscriptionPlans",
          "name": "",
          "type": "address"
        }
      ],
      "stateMutability": "view",
      "type": "function"
    },
    {
      "inputs": [],
      "name": "subscriptions",
      "outputs": [
        {
          "internalType": "contract ICaskSubscriptions",
          "name": "",
          "type": "address"
        }
      ],
      "stateMutability": "view",
      "type": "function"
    },
    {
      "inputs": [
        {
          "internalType": "address",
          "name": "newOwner",
          "type": "address"
        }
      ],
      "name": "transferOwnership",
      "outputs": [],
      "stateMutability": "nonpayable",
      "type": "function"
    },
    {
      "inputs": [],
      "name": "unpause",
      "outputs": [],
      "stateMutability": "nonpayable",
      "type": "function"
    },
    {
      "inputs": [],
      "name": "vault",
      "outputs": [
        {
          "internalType": "contract ICaskVault",
          "name": "",
          "type": "address"
        }
      ],
      "stateMutability": "view",
      "type": "function"
    }
  ],
  "transactionHash": "0xd851300491b0544f230193eb9ad8a2580c50e303eff83c90fb8b7b2e9d1083cd",
  "args": [],
  "solcInputHash": "872f962c3f8fbc5ed0805e7318b51c15",
  "bytecode": "0x60806040523480156200001157600080fd5b50600054610100900460ff166200002f5760005460ff161562000039565b62000039620000de565b620000a15760405162461bcd60e51b815260206004820152602e60248201527f496e697469616c697a61626c653a20636f6e747261637420697320616c72656160448201526d191e481a5b9a5d1a585b1a5e995960921b606482015260840160405180910390fd5b600054610100900460ff16158015620000c4576000805461ffff19166101011790555b8015620000d7576000805461ff00191690555b5062000102565b6000620000f630620000fc60201b620008541760201c565b15905090565b3b151590565b61256f80620001126000396000f3fe608060405234801561001057600080fd5b506004361061012c5760003560e01c80638fe17b16116100ad578063c54c58c411610071578063c54c58c41461023d578063d71bb37b14610250578063f2fde38b14610263578063fbfa77cf14610276578063fcd9da441461028957600080fd5b80638fe17b16146101e8578063b8e381e5146101fb578063badf4b3e1461020e578063bf8ca7fc14610217578063c0c53b8b1461022a57600080fd5b80635c975abb116100f45780635c975abb1461017c5780636e04ff0d14610192578063715018a6146101b35780638456cb59146101bb5780638da5cb5b146101c357600080fd5b806308e27a9914610131578063219e24c51461014d5780633c07e34d146101565780633f4ba83a1461015f5780634585e33b14610169575b600080fd5b61013a609d5481565b6040519081526020015b60405180910390f35b61013a609b5481565b61013a609a5481565b61016761029c565b005b610167610177366004611bc3565b6102d9565b60655460ff166040519015158152602001610144565b6101a56101a0366004611bc3565b610374565b604051610144929190611c61565b6101676104fe565b610167610532565b6033546001600160a01b03165b6040516001600160a01b039091168152602001610144565b6097546101d0906001600160a01b031681565b6098546101d0906001600160a01b031681565b61013a609c5481565b610167610225366004611c9d565b610564565b610167610238366004611cd4565b6105e5565b61016761024b366004611d1f565b610701565b61016761025e366004611d65565b61074f565b610167610271366004611d7e565b61077e565b6099546101d0906001600160a01b031681565b610167610297366004611da2565b610816565b6033546001600160a01b031633146102cf5760405162461bcd60e51b81526004016102c690611dd4565b60405180910390fd5b6102d761085a565b565b60655460ff16156102fc5760405162461bcd60e51b81526004016102c690611e09565b600061030a82840184611ec4565b905060005b815181101561036e57600082828151811061032c5761032c611f60565b6020026020010151111561035c5761035c82828151811061034f5761034f611f60565b60200260200101516108ed565b8061036681611f8c565b91505061030f565b50505050565b60006060818061038685870187611c9d565b9150915060008061039784846112d6565b9150915081600014156103bf57600095506040518060200160405280600081525094506104f3565b838210156104cc576000808367ffffffffffffffff8111156103e3576103e3611e33565b60405190808252806020026020018201604052801561040c578160200160208202803683370190505b50905060005b868110801561042057508483105b1561049e57600084828151811061043957610439611f60565b6020026020010151111561048c5783818151811061045957610459611f60565b602002602001015182848151811061047357610473611f60565b6020908102919091010152610489836001611fa7565b92505b8061049681611f8c565b915050610412565b5060019750806040516020016104b49190611fbf565b604051602081830303815290604052965050506104f3565b60019550806040516020016104e19190611fbf565b60405160208183030381529060405294505b505050509250929050565b6033546001600160a01b031633146105285760405162461bcd60e51b81526004016102c690611dd4565b6102d760006115ca565b6033546001600160a01b0316331461055c5760405162461bcd60e51b81526004016102c690611dd4565b6102d761161c565b6098546001600160a01b031633146105a65760405162461bcd60e51b815260206004820152600560248201526404282aaa8960db1b60448201526064016102c6565b806105af575050565b60003a5a6105bd9085612003565b6105c990617530611fa7565b6105d3919061201a565b9050818111156105e05750805b505050565b600054610100900460ff166106005760005460ff1615610604565b303b155b6106675760405162461bcd60e51b815260206004820152602e60248201527f496e697469616c697a61626c653a20636f6e747261637420697320616c72656160448201526d191e481a5b9a5d1a585b1a5e995960921b60648201526084016102c6565b600054610100900460ff16158015610689576000805461ffff19166101011790555b610691611674565b6106996116ab565b609780546001600160a01b038086166001600160a01b0319928316179092556098805485841690831617905560998054928716929091169190911790556000609a819055609b819055609c819055609d55801561036e576000805461ff001916905550505050565b6098546001600160a01b031633146107435760405162461bcd60e51b815260206004820152600560248201526404282aaa8960db1b60448201526064016102c6565b61036e848484846116e2565b60655460ff16156107725760405162461bcd60e51b81526004016102c690611e09565b61077b816108ed565b50565b6033546001600160a01b031633146107a85760405162461bcd60e51b81526004016102c690611dd4565b6001600160a01b03811661080d5760405162461bcd60e51b815260206004820152602660248201527f4f776e61626c653a206e6577206f776e657220697320746865207a65726f206160448201526564647265737360d01b60648201526084016102c6565b61077b816115ca565b6033546001600160a01b031633146108405760405162461bcd60e51b81526004016102c690611dd4565b609a93909355609b91909155609c55609d55565b3b151590565b60655460ff166108a35760405162461bcd60e51b815260206004820152601460248201527314185d5cd8589b194e881b9bdd081c185d5cd95960621b60448201526064016102c6565b6065805460ff191690557f5db9ee0a495bf2e6ff9c91a7834c1ba4fdd244a5e8aa4e537bd38aeae4b073aa335b6040516001600160a01b03909116815260200160405180910390a1565b60985460405163dc311dd360e01b8152600481018390526000916001600160a01b03169063dc311dd39060240160006040518083038186803b15801561093257600080fd5b505afa158015610946573d6000803e3d6000fd5b505050506040513d6000823e601f3d908101601f1916820160405261096e91908101906120dc565b905060004290508063ffffffff1682610120015163ffffffff1611806109a9575060038260c0015160068111156109a7576109a76121fb565b145b156109b357505050565b60058260c0015160068111156109cb576109cb6121fb565b14806109fe5750600082610160015163ffffffff161180156109fe57508063ffffffff1682610160015163ffffffff1611155b80610b635750600260975460a084015160e085015160405163b6ab359f60e01b81526001600160a01b03928316600482015263ffffffff909116602482015291169063b6ab359f9060440160206040518083038186803b158015610a6157600080fd5b505afa158015610a75573d6000803e3d6000fd5b505050506040513d601f19601f82011682018060405250810190610a999190612211565b6002811115610aaa57610aaa6121fb565b148015610b63575060975460a083015160e084015160405163025b687560e01b815263ffffffff8516936001600160a01b03169263025b687592610b0a926004016001600160a01b0392909216825263ffffffff16602082015260400190565b60206040518083038186803b158015610b2257600080fd5b505afa158015610b36573d6000803e3d6000fd5b505050506040513d601f19601f82011682018060405250810190610b5a9190612232565b63ffffffff1611155b15610bcb5760985460405163dbb4520b60e01b8152600481018590526001600160a01b039091169063dbb4520b90602401600060405180830381600087803b158015610bae57600080fd5b505af1158015610bc2573d6000803e3d6000fd5b50505050505050565b60985460405163321b9a5560e21b8152600481018590526000916001600160a01b03169063c86e69549060240160206040518083038186803b158015610c1057600080fd5b505afa158015610c24573d6000803e3d6000fd5b505050506040513d601f19601f82011682018060405250810190610c48919061224d565b1115610d2f57609854604051634069070760e01b8152600481018590526001600160a01b0390911690634069070790602401600060405180830381600087803b158015610c9457600080fd5b505af1158015610ca8573d6000803e3d6000fd5b505060985460405163dc311dd360e01b8152600481018790526001600160a01b03909116925063dc311dd3915060240160006040518083038186803b158015610cf057600080fd5b505afa158015610d04573d6000803e3d6000fd5b505050506040513d6000823e601f3d908101601f19168201604052610d2c91908101906120dc565b91505b8151604083015160a09190911c9015610fc2576000610dd784606001516040805160c08082018352600080835260208084018290528385018290526060808501839052608080860184905260a0958601939093528551938401865286851c845286831c63ffffffff9081168584015287821c8116858801529587901c86169084015285901c9093169281019290925260f09290921b600160f01b908116149181019190915290565b60975460a0860151608083015160408089015160608a015191516307184b4b60e21b81526001600160a01b03948516600482015263ffffffff9093166024840152604483015260648201529293501690631c612d2c90608401602060405180830381600087803b158015610e4a57600080fd5b505af1925050508015610e7a575060408051601f3d908101601f19168201909252610e7791810190612266565b60015b610f1657610e86612288565b806308c379a01415610f0a5750610e9b6122a4565b80610ea65750610f0c565b60985460405163a0936cb160e01b8152600481018890526001600160a01b039091169063a0936cb190602401600060405180830381600087803b158015610eec57600080fd5b505af1158015610f00573d6000803e3d6000fd5b5050505050610fc0565b505b3d6000803e3d6000fd5b8160a0015115610f33578151610f2c9084612003565b9250610f5a565b815161271090610f43908561201a565b610f4d9190612344565b610f579084612003565b92505b80610fbe5760985460405163a0936cb160e01b8152600481018890526001600160a01b039091169063a0936cb190602401600060405180830381600087803b158015610fa557600080fd5b505af1158015610fb9573d6000803e3d6000fd5b505050505b505b505b6000811180156110d057506099546098546040516331a9108f60e11b81526004810187905283926001600160a01b039081169263597435cb92911690636352211e9060240160206040518083038186803b15801561101f57600080fd5b505afa158015611033573d6000803e3d6000fd5b505050506040513d601f19601f820116820180604052508101906110579190612358565b6040516001600160e01b031960e084901b1681526001600160a01b03909116600482015260240160206040518083038186803b15801561109657600080fd5b505afa1580156110aa573d6000803e3d6000fd5b505050506040513d601f19601f820116820180604052508101906110ce919061224d565b105b156111b1576110e262093a8083612375565b63ffffffff1683610120015163ffffffff16101561115e5760985460405163dbb4520b60e01b8152600481018690526001600160a01b039091169063dbb4520b906024015b600060405180830381600087803b15801561114157600080fd5b505af1158015611155573d6000803e3d6000fd5b5050505061036e565b60068360c001516006811115611176576111766121fb565b146111ac57609854604051636c4f70df60e01b8152600481018690526001600160a01b0390911690636c4f70df90602401611127565b61036e565b8015611272576098546040516331a9108f60e11b815260048101869052611241916001600160a01b031690636352211e9060240160206040518083038186803b1580156111fd57600080fd5b505afa158015611211573d6000803e3d6000fd5b505050506040513d601f19601f820116820180604052508101906112359190612358565b8460a0015186846116e2565b609854604051638e814f1160e01b8152600481018690526001600160a01b0390911690638e814f1190602401611127565b609854604051638e814f1160e01b8152600481018690526001600160a01b0390911690638e814f1190602401600060405180830381600087803b1580156112b857600080fd5b505af11580156112cc573d6000803e3d6000fd5b5050505050505050565b600060606000609860009054906101000a90046001600160a01b03166001600160a01b03166308e725036040518163ffffffff1660e01b815260040160206040518083038186803b15801561132a57600080fd5b505afa15801561133e573d6000803e3d6000fd5b505050506040513d601f19601f82011682018060405250810190611362919061224d565b905084818111156113705750805b4260008267ffffffffffffffff81111561138c5761138c611e33565b6040519080825280602002602001820160405280156113b5578160200160208202803683370190505b5090506000609860009054906101000a90046001600160a01b03166001600160a01b03166356eb00a16040518163ffffffff1660e01b815260040160006040518083038186803b15801561140857600080fd5b505afa15801561141c573d6000803e3d6000fd5b505050506040513d6000823e601f3d908101601f19168201604052611444919081019061239a565b90506000885b868110156115ba5760985483516000916001600160a01b03169063dc311dd39086908590811061147c5761147c611f60565b60200260200101516040518263ffffffff1660e01b81526004016114a291815260200190565b60006040518083038186803b1580156114ba57600080fd5b505afa1580156114ce573d6000803e3d6000fd5b505050506040513d6000823e601f3d908101601f191682016040526114f691908101906120dc565b90508563ffffffff1681610120015163ffffffff161115801561152f575060048160c00151600681111561152c5761152c6121fb565b14155b8015611551575060038160c00151600681111561154e5761154e6121fb565b14155b156115a75783828151811061156857611568611f60565b602002602001015185848151811061158257611582611f60565b6020908102919091010152611598836001611fa7565b92508683106115a757506115ba565b50806115b281611f8c565b91505061144a565b5099919850909650505050505050565b603380546001600160a01b038381166001600160a01b0319831681179093556040519116919082907f8be0079c531659141344cd1fd0a4f28419497f9722a3daafe3b4186f6b6457e090600090a35050565b60655460ff161561163f5760405162461bcd60e51b81526004016102c690611e09565b6065805460ff191660011790557f62e78cea01bee320cd4e420270b5ea74000d11b0c9f74754ebdbfc544b05a2586108d03390565b600054610100900460ff1661169b5760405162461bcd60e51b81526004016102c69061242b565b6116a3611b39565b6102d7611b60565b600054610100900460ff166116d25760405162461bcd60e51b81526004016102c69061242b565b6116da611b39565b6102d7611b90565b60995460405163597435cb60e01b81526001600160a01b0386811660048301528392169063597435cb9060240160206040518083038186803b15801561172757600080fd5b505afa15801561173b573d6000803e3d6000fd5b505050506040513d601f19601f8201168201806040525081019061175f919061224d565b10156117985760405162461bcd60e51b81526020600482015260086024820152672142414c414e434560c01b60448201526064016102c6565b60985460405163dc311dd360e01b815260048101849052600091829182916001600160a01b03169063dc311dd39060240160006040518083038186803b1580156117e157600080fd5b505afa1580156117f5573d6000803e3d6000fd5b505050506040513d6000823e601f3d908101601f1916820160405261181d91908101906120dc565b8051604080516101008082018352600080835260208084018290528385018290526060808501839052608080860184905260a080870185905260c080880186905260e09788018690528851968701895289821c875263ffffffff8a841c8116888701528a851c8116888b0152988a901c8916938701939093529288901c9096169584019590955261ffff601087901c1690830152600160f01b60f09590951b85811690951493820193909352600160f11b9384169093149083015291925060985460a084015160405163c7a687bf60e01b81526001600160a01b03918216600482015292935060009291169063c7a687bf9060240160206040518083038186803b15801561192a57600080fd5b505afa15801561193e573d6000803e3d6000fd5b505050506040513d601f19601f82011682018060405250810190611962919061224d565b905084156119ed57600062015180836040015161197f9190612476565b61198b9061016d612476565b63ffffffff169050600081609d54846119a4919061201a565b6119ae919061201a565b90506119ba8188612344565b609c546119c7919061201a565b609c546119d49190612003565b9550609b548610156119e657609b5495505b50506119f3565b609c5493505b609754604051630782fb5960e31b81526001600160a01b038a811660048301526000921690633c17dac89060240160006040518083038186803b158015611a3957600080fd5b505afa158015611a4d573d6000803e3d6000fd5b505050506040513d6000823e601f3d908101601f19168201604052611a759190810190612499565b805190915089906001600160a01b031615611a8e575080515b6000612710611a9d888b61201a565b611aa79190612344565b609a54611ab49190611fa7565b60995460405163fcd6a25b60e01b81526001600160a01b038f811660048301528581166024830152604482018d90526064820184905292935091169063fcd6a25b90608401600060405180830381600087803b158015611b1357600080fd5b505af1158015611b27573d6000803e3d6000fd5b50505050505050505050505050505050565b600054610100900460ff166102d75760405162461bcd60e51b81526004016102c69061242b565b600054610100900460ff16611b875760405162461bcd60e51b81526004016102c69061242b565b6102d7336115ca565b600054610100900460ff16611bb75760405162461bcd60e51b81526004016102c69061242b565b6065805460ff19169055565b60008060208385031215611bd657600080fd5b823567ffffffffffffffff80821115611bee57600080fd5b818501915085601f830112611c0257600080fd5b813581811115611c1157600080fd5b866020828501011115611c2357600080fd5b60209290920196919550909350505050565b60005b83811015611c50578181015183820152602001611c38565b8381111561036e5750506000910152565b82151581526040602082015260008251806040840152611c88816060850160208701611c35565b601f01601f1916919091016060019392505050565b60008060408385031215611cb057600080fd5b50508035926020909101359150565b6001600160a01b038116811461077b57600080fd5b600080600060608486031215611ce957600080fd5b8335611cf481611cbf565b92506020840135611d0481611cbf565b91506040840135611d1481611cbf565b809150509250925092565b60008060008060808587031215611d3557600080fd5b8435611d4081611cbf565b93506020850135611d5081611cbf565b93969395505050506040820135916060013590565b600060208284031215611d7757600080fd5b5035919050565b600060208284031215611d9057600080fd5b8135611d9b81611cbf565b9392505050565b60008060008060808587031215611db857600080fd5b5050823594602084013594506040840135936060013592509050565b6020808252818101527f4f776e61626c653a2063616c6c6572206973206e6f7420746865206f776e6572604082015260600190565b60208082526010908201526f14185d5cd8589b194e881c185d5cd95960821b604082015260600190565b634e487b7160e01b600052604160045260246000fd5b601f8201601f1916810167ffffffffffffffff81118282101715611e6f57611e6f611e33565b6040525050565b6040516101a0810167ffffffffffffffff81118282101715611e9a57611e9a611e33565b60405290565b600067ffffffffffffffff821115611eba57611eba611e33565b5060051b60200190565b60006020808385031215611ed757600080fd5b823567ffffffffffffffff811115611eee57600080fd5b8301601f81018513611eff57600080fd5b8035611f0a81611ea0565b604051611f178282611e49565b82815260059290921b8301840191848101915087831115611f3757600080fd5b928401925b82841015611f5557833582529284019290840190611f3c565b979650505050505050565b634e487b7160e01b600052603260045260246000fd5b634e487b7160e01b600052601160045260246000fd5b6000600019821415611fa057611fa0611f76565b5060010190565b60008219821115611fba57611fba611f76565b500190565b6020808252825182820181905260009190848201906040850190845b81811015611ff757835183529284019291840191600101611fdb565b50909695505050505050565b60008282101561201557612015611f76565b500390565b600081600019048311821515161561203457612034611f76565b500290565b805161204481611cbf565b919050565b80516007811061204457600080fd5b805163ffffffff8116811461204457600080fd5b600082601f83011261207d57600080fd5b815167ffffffffffffffff81111561209757612097611e33565b6040516120ae601f8301601f191660200182611e49565b8181528460208386010111156120c357600080fd5b6120d4826020830160208701611c35565b949350505050565b6000602082840312156120ee57600080fd5b815167ffffffffffffffff8082111561210657600080fd5b908301906101a0828603121561211b57600080fd5b612123611e76565b825181526020830151602082015260408301516040820152606083015160608201526080830151608082015261215b60a08401612039565b60a082015261216c60c08401612049565b60c082015261217d60e08401612058565b60e0820152610100612190818501612058565b908201526101206121a2848201612058565b908201526101406121b4848201612058565b908201526101606121c6848201612058565b9082015261018083810151838111156121de57600080fd5b6121ea8882870161206c565b918301919091525095945050505050565b634e487b7160e01b600052602160045260246000fd5b60006020828403121561222357600080fd5b815160038110611d9b57600080fd5b60006020828403121561224457600080fd5b611d9b82612058565b60006020828403121561225f57600080fd5b5051919050565b60006020828403121561227857600080fd5b81518015158114611d9b57600080fd5b600060033d11156122a15760046000803e5060005160e01c5b90565b600060443d10156122b25790565b6040516003193d81016004833e81513d67ffffffffffffffff81602484011181841117156122e257505050505090565b82850191508151818111156122fa5750505050505090565b843d87010160208285010111156123145750505050505090565b61232360208286010187611e49565b509095945050505050565b634e487b7160e01b600052601260045260246000fd5b6000826123535761235361232e565b500490565b60006020828403121561236a57600080fd5b8151611d9b81611cbf565b600063ffffffff8381169083168181101561239257612392611f76565b039392505050565b600060208083850312156123ad57600080fd5b825167ffffffffffffffff8111156123c457600080fd5b8301601f810185136123d557600080fd5b80516123e081611ea0565b6040516123ed8282611e49565b82815260059290921b830184019184810191508783111561240d57600080fd5b928401925b82841015611f5557835182529284019290840190612412565b6020808252602b908201527f496e697469616c697a61626c653a20636f6e7472616374206973206e6f74206960408201526a6e697469616c697a696e6760a81b606082015260800190565b600063ffffffff8084168061248d5761248d61232e565b92169190910492915050565b6000602082840312156124ab57600080fd5b815167ffffffffffffffff808211156124c357600080fd5b90830190606082860312156124d757600080fd5b6040516060810181811083821117156124f2576124f2611e33565b604052825161250081611cbf565b81526020838101519082015260408301518281111561251e57600080fd5b61252a8782860161206c565b6040830152509594505050505056fea2646970667358221220c96442036318bc0576ab45b90e253ae90e5d6dc78254089b64df15fae919d36964736f6c63430008090033",
  "devdoc": {
    "kind": "dev",
    "methods": {
      "checkUpkeep(bytes)": {
        "details": "To ensure that it is never called, you may want to add the cannotExecute modifier from KeeperBase to your implementation of this method.",
        "params": {
          "checkData": "specified in the upkeep registration so it is always the same for a registered upkeep. This can easilly be broken down into specific arguments using `abi.decode`, so multiple upkeeps can be registered on the same contract and easily differentiated by the contract."
        },
        "returns": {
          "performData": "bytes that the keeper should call performUpkeep with, if upkeep is needed. If you would like to encode data to decode later, try `abi.encode`.",
          "upkeepNeeded": "boolean to indicate whether the keeper should call performUpkeep or not."
        }
      },
      "constructor": {
        "custom:oz-upgrades-unsafe-allow": "constructor"
      },
      "owner()": {
        "details": "Returns the address of the current owner."
      },
      "paused()": {
        "details": "Returns true if the contract is paused, and false otherwise."
      },
      "performUpkeep(bytes)": {
        "details": "The input to this method should not be trusted, and the caller of the method should not even be restricted to any single registry. Anyone should be able call it, and the input should be validated, there is no guarantee that the data passed in is the performData returned from checkUpkeep. This could happen due to malicious keepers, racing keepers, or simply a state change while the performUpkeep transaction is waiting for confirmation. Always validate the data passed in.",
        "params": {
          "performData": "is the data which was passed back from the checkData simulation. If it is encoded, it can easily be decoded into other types by calling `abi.decode`. This data should not be trusted, and should be validated against the contract's current state."
        }
      },
      "renounceOwnership()": {
        "details": "Leaves the contract without owner. It will not be possible to call `onlyOwner` functions anymore. Can only be called by the current owner. NOTE: Renouncing ownership will leave the contract without an owner, thereby removing any functionality that is only available to the owner."
      },
      "transferOwnership(address)": {
        "details": "Transfers ownership of the contract to a new account (`newOwner`). Can only be called by the current owner."
      }
    },
    "stateVariables": {
      "paymentFeeFixed": {
        "details": "fixed fee to charge on payments, in baseAsset decimal units. "
      },
      "paymentFeeRateMin": {
        "details": "min and max percentage to charge on payments, in bps. 50% = 5000. "
      },
      "stakeTargetFactor": {
        "details": "factor used to reduce payment fee based on qty of staked CASK "
      },
      "subscriptionPlans": {
        "details": "contract to manage subscription plan definitions. "
      },
      "vault": {
        "details": "vault to use for payments. "
      }
    },
    "version": 1
  },
  "userdoc": {
    "kind": "user",
    "methods": {
      "checkUpkeep(bytes)": {
        "notice": "method that is simulated by the keepers to see if any work actually needs to be performed. This method does does not actually need to be executable, and since it is only ever simulated it can consume lots of gas."
      },
      "performUpkeep(bytes)": {
        "notice": "method that is actually executed by the keepers, via the registry. The data returned by the checkUpkeep simulation will be passed into this method to actually be executed."
      }
    },
    "version": 1
  },
  "storageLayout": {
    "storage": [
      {
        "astId": 788,
        "contract": "contracts/protocol/CaskSubscriptionManager.sol:CaskSubscriptionManager",
        "label": "_initialized",
        "offset": 0,
        "slot": "0",
        "type": "t_bool"
      },
      {
        "astId": 791,
        "contract": "contracts/protocol/CaskSubscriptionManager.sol:CaskSubscriptionManager",
        "label": "_initializing",
        "offset": 1,
        "slot": "0",
        "type": "t_bool"
      },
      {
        "astId": 2336,
        "contract": "contracts/protocol/CaskSubscriptionManager.sol:CaskSubscriptionManager",
        "label": "__gap",
        "offset": 0,
        "slot": "1",
        "type": "t_array(t_uint256)50_storage"
      },
      {
        "astId": 666,
        "contract": "contracts/protocol/CaskSubscriptionManager.sol:CaskSubscriptionManager",
        "label": "_owner",
        "offset": 0,
        "slot": "51",
        "type": "t_address"
      },
      {
        "astId": 780,
        "contract": "contracts/protocol/CaskSubscriptionManager.sol:CaskSubscriptionManager",
        "label": "__gap",
        "offset": 0,
        "slot": "52",
        "type": "t_array(t_uint256)49_storage"
      },
      {
        "astId": 876,
        "contract": "contracts/protocol/CaskSubscriptionManager.sol:CaskSubscriptionManager",
        "label": "_paused",
        "offset": 0,
        "slot": "101",
        "type": "t_bool"
      },
      {
        "astId": 967,
        "contract": "contracts/protocol/CaskSubscriptionManager.sol:CaskSubscriptionManager",
        "label": "__gap",
        "offset": 0,
        "slot": "102",
        "type": "t_array(t_uint256)49_storage"
      },
      {
        "astId": 9205,
        "contract": "contracts/protocol/CaskSubscriptionManager.sol:CaskSubscriptionManager",
        "label": "subscriptionPlans",
        "offset": 0,
        "slot": "151",
        "type": "t_contract(ICaskSubscriptionPlans)8097"
      },
      {
        "astId": 9208,
        "contract": "contracts/protocol/CaskSubscriptionManager.sol:CaskSubscriptionManager",
        "label": "subscriptions",
        "offset": 0,
        "slot": "152",
        "type": "t_contract(ICaskSubscriptions)8498"
      },
      {
        "astId": 9212,
        "contract": "contracts/protocol/CaskSubscriptionManager.sol:CaskSubscriptionManager",
        "label": "vault",
        "offset": 0,
        "slot": "153",
        "type": "t_contract(ICaskVault)8700"
      },
      {
        "astId": 9215,
        "contract": "contracts/protocol/CaskSubscriptionManager.sol:CaskSubscriptionManager",
        "label": "paymentFeeFixed",
        "offset": 0,
        "slot": "154",
        "type": "t_uint256"
      },
      {
        "astId": 9218,
        "contract": "contracts/protocol/CaskSubscriptionManager.sol:CaskSubscriptionManager",
        "label": "paymentFeeRateMin",
        "offset": 0,
        "slot": "155",
        "type": "t_uint256"
      },
      {
        "astId": 9220,
        "contract": "contracts/protocol/CaskSubscriptionManager.sol:CaskSubscriptionManager",
        "label": "paymentFeeRateMax",
        "offset": 0,
        "slot": "156",
        "type": "t_uint256"
      },
      {
        "astId": 9223,
        "contract": "contracts/protocol/CaskSubscriptionManager.sol:CaskSubscriptionManager",
        "label": "stakeTargetFactor",
        "offset": 0,
        "slot": "157",
        "type": "t_uint256"
      }
    ],
    "types": {
      "t_address": {
        "encoding": "inplace",
        "label": "address",
        "numberOfBytes": "20"
      },
      "t_array(t_uint256)49_storage": {
        "base": "t_uint256",
        "encoding": "inplace",
        "label": "uint256[49]",
        "numberOfBytes": "1568"
      },
      "t_array(t_uint256)50_storage": {
        "base": "t_uint256",
        "encoding": "inplace",
        "label": "uint256[50]",
        "numberOfBytes": "1600"
      },
      "t_bool": {
        "encoding": "inplace",
        "label": "bool",
        "numberOfBytes": "1"
      },
      "t_contract(ICaskSubscriptionPlans)8097": {
        "encoding": "inplace",
        "label": "contract ICaskSubscriptionPlans",
        "numberOfBytes": "20"
      },
      "t_contract(ICaskSubscriptions)8498": {
        "encoding": "inplace",
        "label": "contract ICaskSubscriptions",
        "numberOfBytes": "20"
      },
      "t_contract(ICaskVault)8700": {
        "encoding": "inplace",
        "label": "contract ICaskVault",
        "numberOfBytes": "20"
      },
      "t_uint256": {
        "encoding": "inplace",
        "label": "uint256",
        "numberOfBytes": "32"
      }
    }
  }
}