{
  "address": "0x0fE57cECD15D40212bb994704B946816693665aB",
  "abi": [
    {
      "inputs": [],
      "stateMutability": "nonpayable",
      "type": "constructor"
    },
    {
      "anonymous": false,
      "inputs": [
        {
          "indexed": true,
          "internalType": "address",
          "name": "previousOwner",
          "type": "address"
        },
        {
          "indexed": true,
          "internalType": "address",
          "name": "newOwner",
          "type": "address"
        }
      ],
      "name": "OwnershipTransferred",
      "type": "event"
    },
    {
      "anonymous": false,
      "inputs": [
        {
          "indexed": false,
          "internalType": "address",
          "name": "account",
          "type": "address"
        }
      ],
      "name": "Paused",
      "type": "event"
    },
    {
      "anonymous": false,
      "inputs": [
        {
          "indexed": true,
          "internalType": "address",
          "name": "provider",
          "type": "address"
        },
        {
          "indexed": true,
          "internalType": "uint32",
          "name": "planId",
          "type": "uint32"
        }
      ],
      "name": "PlanDisabled",
      "type": "event"
    },
    {
      "anonymous": false,
      "inputs": [
        {
          "indexed": true,
          "internalType": "address",
          "name": "provider",
          "type": "address"
        },
        {
          "indexed": true,
          "internalType": "uint32",
          "name": "planId",
          "type": "uint32"
        },
        {
          "indexed": false,
          "internalType": "uint32",
          "name": "eolAt",
          "type": "uint32"
        }
      ],
      "name": "PlanEOL",
      "type": "event"
    },
    {
      "anonymous": false,
      "inputs": [
        {
          "indexed": true,
          "internalType": "address",
          "name": "provider",
          "type": "address"
        },
        {
          "indexed": true,
          "internalType": "uint32",
          "name": "planId",
          "type": "uint32"
        }
      ],
      "name": "PlanEnabled",
      "type": "event"
    },
    {
      "anonymous": false,
      "inputs": [
        {
          "indexed": false,
          "internalType": "address",
          "name": "account",
          "type": "address"
        }
      ],
      "name": "Unpaused",
      "type": "event"
    },
    {
      "inputs": [
        {
          "internalType": "address",
          "name": "_provider",
          "type": "address"
        },
        {
          "internalType": "uint32",
          "name": "_planId",
          "type": "uint32"
        },
        {
          "internalType": "bytes32",
          "name": "_discountId",
          "type": "bytes32"
        },
        {
          "internalType": "bytes32",
          "name": "_discountData",
          "type": "bytes32"
        }
      ],
      "name": "consumeDiscount",
      "outputs": [
        {
          "internalType": "bool",
          "name": "",
          "type": "bool"
        }
      ],
      "stateMutability": "nonpayable",
      "type": "function"
    },
    {
      "inputs": [
        {
          "internalType": "uint32",
          "name": "_planId",
          "type": "uint32"
        }
      ],
      "name": "disablePlan",
      "outputs": [],
      "stateMutability": "nonpayable",
      "type": "function"
    },
    {
      "inputs": [
        {
          "internalType": "uint32",
          "name": "_planId",
          "type": "uint32"
        }
      ],
      "name": "enablePlan",
      "outputs": [],
      "stateMutability": "nonpayable",
      "type": "function"
    },
    {
      "inputs": [
        {
          "internalType": "address",
          "name": "_provider",
          "type": "address"
        },
        {
          "internalType": "uint32",
          "name": "_planId",
          "type": "uint32"
        }
      ],
      "name": "getPlanEOL",
      "outputs": [
        {
          "internalType": "uint32",
          "name": "",
          "type": "uint32"
        }
      ],
      "stateMutability": "view",
      "type": "function"
    },
    {
      "inputs": [
        {
          "internalType": "address",
          "name": "_provider",
          "type": "address"
        },
        {
          "internalType": "uint32",
          "name": "_planId",
          "type": "uint32"
        }
      ],
      "name": "getPlanStatus",
      "outputs": [
        {
          "internalType": "enum ICaskSubscriptionPlans.PlanStatus",
          "name": "",
          "type": "uint8"
        }
      ],
      "stateMutability": "view",
      "type": "function"
    },
    {
      "inputs": [
        {
          "internalType": "address",
          "name": "_provider",
          "type": "address"
        }
      ],
      "name": "getProviderProfile",
      "outputs": [
        {
          "components": [
            {
              "internalType": "address",
              "name": "paymentAddress",
              "type": "address"
            },
            {
              "internalType": "bytes32",
              "name": "discountMerkleRoot",
              "type": "bytes32"
            },
            {
              "internalType": "string",
              "name": "cid",
              "type": "string"
            }
          ],
          "internalType": "struct ICaskSubscriptionPlans.Provider",
          "name": "",
          "type": "tuple"
        }
      ],
      "stateMutability": "view",
      "type": "function"
    },
    {
      "inputs": [],
      "name": "initialize",
      "outputs": [],
      "stateMutability": "nonpayable",
      "type": "function"
    },
    {
      "inputs": [
        {
          "internalType": "uint32",
          "name": "_planId",
          "type": "uint32"
        },
        {
          "internalType": "uint32",
          "name": "_eolAt",
          "type": "uint32"
        }
      ],
      "name": "killPlan",
      "outputs": [],
      "stateMutability": "nonpayable",
      "type": "function"
    },
    {
      "inputs": [],
      "name": "owner",
      "outputs": [
        {
          "internalType": "address",
          "name": "",
          "type": "address"
        }
      ],
      "stateMutability": "view",
      "type": "function"
    },
    {
      "inputs": [],
      "name": "pause",
      "outputs": [],
      "stateMutability": "nonpayable",
      "type": "function"
    },
    {
      "inputs": [],
      "name": "paused",
      "outputs": [
        {
          "internalType": "bool",
          "name": "",
          "type": "bool"
        }
      ],
      "stateMutability": "view",
      "type": "function"
    },
    {
      "inputs": [],
      "name": "renounceOwnership",
      "outputs": [],
      "stateMutability": "nonpayable",
      "type": "function"
    },
    {
      "inputs": [
        {
          "internalType": "address",
          "name": "_subscriptionManager",
          "type": "address"
        }
      ],
      "name": "setManager",
      "outputs": [],
      "stateMutability": "nonpayable",
      "type": "function"
    },
    {
      "inputs": [
        {
          "internalType": "address",
          "name": "_paymentAddress",
          "type": "address"
        },
        {
          "internalType": "string",
          "name": "_cid",
          "type": "string"
        }
      ],
      "name": "setProviderProfile",
      "outputs": [],
      "stateMutability": "nonpayable",
      "type": "function"
    },
    {
      "inputs": [],
      "name": "subscriptionManager",
      "outputs": [
        {
          "internalType": "address",
          "name": "",
          "type": "address"
        }
      ],
      "stateMutability": "view",
      "type": "function"
    },
    {
      "inputs": [
        {
          "internalType": "address",
          "name": "newOwner",
          "type": "address"
        }
      ],
      "name": "transferOwnership",
      "outputs": [],
      "stateMutability": "nonpayable",
      "type": "function"
    },
    {
      "inputs": [],
      "name": "unpause",
      "outputs": [],
      "stateMutability": "nonpayable",
      "type": "function"
    },
    {
      "inputs": [
        {
          "internalType": "address",
          "name": "_provider",
          "type": "address"
        },
        {
          "internalType": "uint32",
          "name": "_planId",
          "type": "uint32"
        },
        {
          "internalType": "bytes32",
          "name": "_discountId",
          "type": "bytes32"
        },
        {
          "internalType": "bytes32",
          "name": "_discountData",
          "type": "bytes32"
        },
        {
          "internalType": "bytes32",
          "name": "_merkleRoot",
          "type": "bytes32"
        },
        {
          "internalType": "bytes32[]",
          "name": "_merkleProof",
          "type": "bytes32[]"
        }
      ],
      "name": "verifyDiscount",
      "outputs": [
        {
          "internalType": "bool",
          "name": "",
          "type": "bool"
        }
      ],
      "stateMutability": "view",
      "type": "function"
    },
    {
      "inputs": [
        {
          "internalType": "bytes32",
          "name": "_planData",
          "type": "bytes32"
        },
        {
          "internalType": "bytes32",
          "name": "_merkleRoot",
          "type": "bytes32"
        },
        {
          "internalType": "bytes32[]",
          "name": "_merkleProof",
          "type": "bytes32[]"
        }
      ],
      "name": "verifyPlan",
      "outputs": [
        {
          "internalType": "bool",
          "name": "",
          "type": "bool"
        }
      ],
      "stateMutability": "pure",
      "type": "function"
    }
  ],
  "transactionHash": "0x0d4ca7063f5cfd9260e6ffc9a9b7c4239f48e5ea5caaca0d7d06ccbd333426b1",
  "args": [],
  "solcInputHash": "872f962c3f8fbc5ed0805e7318b51c15",
  "bytecode": "0x60806040523480156200001157600080fd5b50600054610100900460ff166200002f5760005460ff161562000039565b62000039620000de565b620000a15760405162461bcd60e51b815260206004820152602e60248201527f496e697469616c697a61626c653a20636f6e747261637420697320616c72656160448201526d191e481a5b9a5d1a585b1a5e995960921b606482015260840160405180910390fd5b600054610100900460ff16158015620000c4576000805461ffff19166101011790555b8015620000d7576000805461ff00191690555b5062000102565b6000620000f630620000fc60201b62000d201760201c565b15905090565b3b151590565b61160d80620001126000396000f3fe608060405234801561001057600080fd5b50600436106101215760003560e01c806372212e76116100ad578063b6ab359f11610071578063b6ab359f14610273578063bf158fd2146102c1578063d0ebdbe7146102d4578063f2fde38b146102e7578063fdfca0d3146102fa57600080fd5b806372212e76146102185780638129fc1c1461022b5780638456cb59146102335780638da5cb5b1461023b5780639c5c3eb41461026057600080fd5b80633c17dac8116100f45780633c17dac8146101ca5780633f4ba83a146101ea5780635c975abb146101f2578063715018a6146101fd57806371ce3e661461020557600080fd5b8063025b6875146101265780631bc569b51461017f5780631c612d2c14610194578063256c6ba9146101b7575b600080fd5b610165610134366004611194565b6001600160a01b03919091166000908152609a6020908152604080832063ffffffff94851684529091529020541690565b60405163ffffffff90911681526020015b60405180910390f35b61019261018d3660046111c7565b61030d565b005b6101a76101a23660046111e9565b6103d9565b6040519015158152602001610176565b6101926101c53660046111c7565b610661565b6101dd6101d836600461122b565b610728565b6040516101769190611246565b610192610813565b60655460ff166101a7565b610192610847565b6101a761021336600461130b565b61087b565b6101a761022636600461135e565b6108e7565b610192610a7b565b610192610b44565b6033546001600160a01b03165b6040516001600160a01b039091168152602001610176565b61019261026e3660046113e0565b610b76565b6102b4610281366004611194565b6001600160a01b038216600090815260996020908152604080832063ffffffff8516845290915290205460ff1692915050565b6040516101769190611412565b609754610248906001600160a01b031681565b6101926102e236600461122b565b610bff565b6101926102f536600461122b565b610c4b565b61019261030836600461143a565b610ce3565b33600090815260996020908152604080832063ffffffff8516845290915281205460ff166002811115610342576103426113fc565b146103835760405162461bcd60e51b815260206004820152600c60248201526b085393d517d153905093115160a21b60448201526064015b60405180910390fd5b33600081815260996020908152604080832063ffffffff86168085529252808320805460ff19166001179055519092917f50ec551c598cd517a78f91d12398f4f1d95e0171a4393505d01401f8b6c940a791a350565b6097546000906001600160a01b0316331461041e5760405162461bcd60e51b815260206004820152600560248201526404282aaa8960db1b604482015260640161037a565b600061042983610d26565b9050806060015163ffffffff166000148061047d575060608101516001600160a01b0387166000908152609b6020908152604080832063ffffffff8a81168552908352818420898552909252909120549116115b6104be5760405162461bcd60e51b815260206004820152601260248201527121444953434f554e545f4d41585f5553455360701b604482015260640161037a565b602081015163ffffffff1615806104e557504263ffffffff16816020015163ffffffff1610155b6105315760405162461bcd60e51b815260206004820152601760248201527f21444953434f554e545f4e4f545f56414c49445f594554000000000000000000604482015260640161037a565b604081015163ffffffff16158061055757504263ffffffff16816040015163ffffffff16105b6105975760405162461bcd60e51b815260206004820152601160248201527008511254d0d3d5539517d1561412549151607a1b604482015260640161037a565b6001600160a01b0386166000908152609b6020908152604080832063ffffffff8916845282528083208784529091529020546105d49060016114d3565b6001600160a01b0387166000908152609b6020908152604080832063ffffffff808b168552908352818420898552909252909120919091556060820151161580610657575060608101516001600160a01b0387166000908152609b6020908152604080832063ffffffff8a81168552908352818420898552909252909120549116115b9695505050505050565b600133600090815260996020908152604080832063ffffffff8616845290915290205460ff166002811115610698576106986113fc565b146106d55760405162461bcd60e51b815260206004820152600d60248201526c085393d517d11254d050931151609a1b604482015260640161037a565b33600081815260996020908152604080832063ffffffff86168085529252808320805460ff19169055519092917fb6af1d2951898e17e763c18b77daf0ada2f2753802d37868e67797e87991a29891a350565b6040805160608082018352600080835260208084018290528385018390526001600160a01b0386811683526098825291859020855193840186528054909216835260018201549083015260028101805493949293919284019161078a906114eb565b80601f01602080910402602001604051908101604052809291908181526020018280546107b6906114eb565b80156108035780601f106107d857610100808354040283529160200191610803565b820191906000526020600020905b8154815290600101906020018083116107e657829003601f168201915b5050505050815250509050919050565b6033546001600160a01b0316331461083d5760405162461bcd60e51b815260040161037a90611526565b610845610db1565b565b6033546001600160a01b031633146108715760405162461bcd60e51b815260040161037a90611526565b6108456000610e44565b60006108de8383808060200260200160405190810160405280939291908181526020018383602002808284376000920191909152505060408051602081018b90528993500190505b60405160208183030381529060405280519060200120610e96565b95945050505050565b600061093b8383808060200260200160405190810160405280939291908181526020018383602002808284376000920191909152505060408051602081018c90529081018a905288925060600190506108c3565b15610a6c57600061094b86610d26565b9050806080015163ffffffff166000148061097557508763ffffffff16816080015163ffffffff16145b6109b45760405162461bcd60e51b815260206004820152601060248201526f21494e56414c494428706c616e49642960801b604482015260640161037a565b606081015163ffffffff161580610a09575060608101516001600160a01b038a166000908152609b60209081526040808320608086015163ffffffff90811685529083528184208c8552909252909120549116115b8015610a375750602081015163ffffffff161580610a3757504263ffffffff16816020015163ffffffff1610155b8015610a645750604081015163ffffffff161580610a6457504263ffffffff16816040015163ffffffff16105b915050610a70565b5060005b979650505050505050565b600054610100900460ff16610a965760005460ff1615610a9a565b303b155b610afd5760405162461bcd60e51b815260206004820152602e60248201527f496e697469616c697a61626c653a20636f6e747261637420697320616c72656160448201526d191e481a5b9a5d1a585b1a5e995960921b606482015260840161037a565b600054610100900460ff16158015610b1f576000805461ffff19166101011790555b610b27610eac565b610b2f610ee3565b8015610b41576000805461ff00191690555b50565b6033546001600160a01b03163314610b6e5760405162461bcd60e51b815260040161037a90611526565b610845610f1a565b33600081815260996020908152604080832063ffffffff878116808652918452828520805460ff19166002179055858552609a8452828520828652845293829020805494871663ffffffff1990951685179055905192835292917f4594a2f1d5b5d27b7b29f7c73ec2f5f23b7a97269ec277e84619bcfffe9c13dc910160405180910390a35050565b6033546001600160a01b03163314610c295760405162461bcd60e51b815260040161037a90611526565b609780546001600160a01b0319166001600160a01b0392909216919091179055565b6033546001600160a01b03163314610c755760405162461bcd60e51b815260040161037a90611526565b6001600160a01b038116610cda5760405162461bcd60e51b815260206004820152602660248201527f4f776e61626c653a206e6577206f776e657220697320746865207a65726f206160448201526564647265737360d01b606482015260840161037a565b610b4181610e44565b33600090815260986020526040902080546001600160a01b0319166001600160a01b038516178155610d196002820184846110cb565b5050505050565b3b151590565b6040805160c08082018352600080835260208084018290528385018290526060808501839052608080860184905260a0958601939093528551938401865286851c845286831c63ffffffff9081168584015287821c8116858801529587901c86169084015285901c9093169281019290925260f09290921b600160f01b908116149181019190915290565b60655460ff16610dfa5760405162461bcd60e51b815260206004820152601460248201527314185d5cd8589b194e881b9bdd081c185d5cd95960621b604482015260640161037a565b6065805460ff191690557f5db9ee0a495bf2e6ff9c91a7834c1ba4fdd244a5e8aa4e537bd38aeae4b073aa335b6040516001600160a01b03909116815260200160405180910390a1565b603380546001600160a01b038381166001600160a01b0319831681179093556040519116919082907f8be0079c531659141344cd1fd0a4f28419497f9722a3daafe3b4186f6b6457e090600090a35050565b600082610ea38584610f95565b14949350505050565b600054610100900460ff16610ed35760405162461bcd60e51b815260040161037a9061155b565b610edb611041565b610845611068565b600054610100900460ff16610f0a5760405162461bcd60e51b815260040161037a9061155b565b610f12611041565b610845611098565b60655460ff1615610f605760405162461bcd60e51b815260206004820152601060248201526f14185d5cd8589b194e881c185d5cd95960821b604482015260640161037a565b6065805460ff191660011790557f62e78cea01bee320cd4e420270b5ea74000d11b0c9f74754ebdbfc544b05a258610e273390565b600081815b8451811015611039576000858281518110610fb757610fb76115a6565b60200260200101519050808311610ff9576040805160208101859052908101829052606001604051602081830303815290604052805190602001209250611026565b60408051602081018390529081018490526060016040516020818303038152906040528051906020012092505b5080611031816115bc565b915050610f9a565b509392505050565b600054610100900460ff166108455760405162461bcd60e51b815260040161037a9061155b565b600054610100900460ff1661108f5760405162461bcd60e51b815260040161037a9061155b565b61084533610e44565b600054610100900460ff166110bf5760405162461bcd60e51b815260040161037a9061155b565b6065805460ff19169055565b8280546110d7906114eb565b90600052602060002090601f0160209004810192826110f9576000855561113f565b82601f106111125782800160ff1982351617855561113f565b8280016001018555821561113f579182015b8281111561113f578235825591602001919060010190611124565b5061114b92915061114f565b5090565b5b8082111561114b5760008155600101611150565b80356001600160a01b038116811461117b57600080fd5b919050565b803563ffffffff8116811461117b57600080fd5b600080604083850312156111a757600080fd5b6111b083611164565b91506111be60208401611180565b90509250929050565b6000602082840312156111d957600080fd5b6111e282611180565b9392505050565b600080600080608085870312156111ff57600080fd5b61120885611164565b935061121660208601611180565b93969395505050506040820135916060013590565b60006020828403121561123d57600080fd5b6111e282611164565b6000602080835260018060a01b03845116818401528084015160408401526040840151606080850152805180608086015260005b818110156112965782810184015186820160a00152830161127a565b818111156112a857600060a083880101525b50601f01601f19169390930160a001949350505050565b60008083601f8401126112d157600080fd5b50813567ffffffffffffffff8111156112e957600080fd5b6020830191508360208260051b850101111561130457600080fd5b9250929050565b6000806000806060858703121561132157600080fd5b8435935060208501359250604085013567ffffffffffffffff81111561134657600080fd5b611352878288016112bf565b95989497509550505050565b600080600080600080600060c0888a03121561137957600080fd5b61138288611164565b965061139060208901611180565b955060408801359450606088013593506080880135925060a088013567ffffffffffffffff8111156113c157600080fd5b6113cd8a828b016112bf565b989b979a50959850939692959293505050565b600080604083850312156113f357600080fd5b6111b083611180565b634e487b7160e01b600052602160045260246000fd5b602081016003831061143457634e487b7160e01b600052602160045260246000fd5b91905290565b60008060006040848603121561144f57600080fd5b61145884611164565b9250602084013567ffffffffffffffff8082111561147557600080fd5b818601915086601f83011261148957600080fd5b81358181111561149857600080fd5b8760208285010111156114aa57600080fd5b6020830194508093505050509250925092565b634e487b7160e01b600052601160045260246000fd5b600082198211156114e6576114e66114bd565b500190565b600181811c908216806114ff57607f821691505b6020821081141561152057634e487b7160e01b600052602260045260246000fd5b50919050565b6020808252818101527f4f776e61626c653a2063616c6c6572206973206e6f7420746865206f776e6572604082015260600190565b6020808252602b908201527f496e697469616c697a61626c653a20636f6e7472616374206973206e6f74206960408201526a6e697469616c697a696e6760a81b606082015260800190565b634e487b7160e01b600052603260045260246000fd5b60006000198214156115d0576115d06114bd565b506001019056fea26469706673582212209fab7729f7e0c9b6e8ac9c52eb90470d696778879067c4bc496b11fdc62364f064736f6c63430008090033",
  "devdoc": {
    "kind": "dev",
    "methods": {
      "constructor": {
        "custom:oz-upgrades-unsafe-allow": "constructor"
      },
      "owner()": {
        "details": "Returns the address of the current owner."
      },
      "paused()": {
        "details": "Returns true if the contract is paused, and false otherwise."
      },
      "renounceOwnership()": {
        "details": "Leaves the contract without owner. It will not be possible to call `onlyOwner` functions anymore. Can only be called by the current owner. NOTE: Renouncing ownership will leave the contract without an owner, thereby removing any functionality that is only available to the owner."
      },
      "transferOwnership(address)": {
        "details": "Transfers ownership of the contract to a new account (`newOwner`). Can only be called by the current owner."
      }
    },
    "stateVariables": {
      "discountUses": {
        "details": "Maps for discounts. "
      },
      "planStatus": {
        "details": "Map for current plan status. "
      },
      "providerProfiles": {
        "details": "Map for provider to profile info. "
      },
      "subscriptionManager": {
        "details": "Address of subscription manager. "
      }
    },
    "version": 1
  },
  "userdoc": {
    "kind": "user",
    "methods": {},
    "version": 1
  },
  "storageLayout": {
    "storage": [
      {
        "astId": 788,
        "contract": "contracts/protocol/CaskSubscriptionPlans.sol:CaskSubscriptionPlans",
        "label": "_initialized",
        "offset": 0,
        "slot": "0",
        "type": "t_bool"
      },
      {
        "astId": 791,
        "contract": "contracts/protocol/CaskSubscriptionPlans.sol:CaskSubscriptionPlans",
        "label": "_initializing",
        "offset": 1,
        "slot": "0",
        "type": "t_bool"
      },
      {
        "astId": 2336,
        "contract": "contracts/protocol/CaskSubscriptionPlans.sol:CaskSubscriptionPlans",
        "label": "__gap",
        "offset": 0,
        "slot": "1",
        "type": "t_array(t_uint256)50_storage"
      },
      {
        "astId": 666,
        "contract": "contracts/protocol/CaskSubscriptionPlans.sol:CaskSubscriptionPlans",
        "label": "_owner",
        "offset": 0,
        "slot": "51",
        "type": "t_address"
      },
      {
        "astId": 780,
        "contract": "contracts/protocol/CaskSubscriptionPlans.sol:CaskSubscriptionPlans",
        "label": "__gap",
        "offset": 0,
        "slot": "52",
        "type": "t_array(t_uint256)49_storage"
      },
      {
        "astId": 876,
        "contract": "contracts/protocol/CaskSubscriptionPlans.sol:CaskSubscriptionPlans",
        "label": "_paused",
        "offset": 0,
        "slot": "101",
        "type": "t_bool"
      },
      {
        "astId": 967,
        "contract": "contracts/protocol/CaskSubscriptionPlans.sol:CaskSubscriptionPlans",
        "label": "__gap",
        "offset": 0,
        "slot": "102",
        "type": "t_array(t_uint256)49_storage"
      },
      {
        "astId": 10363,
        "contract": "contracts/protocol/CaskSubscriptionPlans.sol:CaskSubscriptionPlans",
        "label": "subscriptionManager",
        "offset": 0,
        "slot": "151",
        "type": "t_address"
      },
      {
        "astId": 10369,
        "contract": "contracts/protocol/CaskSubscriptionPlans.sol:CaskSubscriptionPlans",
        "label": "providerProfiles",
        "offset": 0,
        "slot": "152",
        "type": "t_mapping(t_address,t_struct(Provider)7979_storage)"
      },
      {
        "astId": 10377,
        "contract": "contracts/protocol/CaskSubscriptionPlans.sol:CaskSubscriptionPlans",
        "label": "planStatus",
        "offset": 0,
        "slot": "153",
        "type": "t_mapping(t_address,t_mapping(t_uint32,t_enum(PlanStatus)7959))"
      },
      {
        "astId": 10383,
        "contract": "contracts/protocol/CaskSubscriptionPlans.sol:CaskSubscriptionPlans",
        "label": "planEol",
        "offset": 0,
        "slot": "154",
        "type": "t_mapping(t_address,t_mapping(t_uint32,t_uint32))"
      },
      {
        "astId": 10392,
        "contract": "contracts/protocol/CaskSubscriptionPlans.sol:CaskSubscriptionPlans",
        "label": "discountUses",
        "offset": 0,
        "slot": "155",
        "type": "t_mapping(t_address,t_mapping(t_uint32,t_mapping(t_bytes32,t_uint256)))"
      }
    ],
    "types": {
      "t_address": {
        "encoding": "inplace",
        "label": "address",
        "numberOfBytes": "20"
      },
      "t_array(t_uint256)49_storage": {
        "base": "t_uint256",
        "encoding": "inplace",
        "label": "uint256[49]",
        "numberOfBytes": "1568"
      },
      "t_array(t_uint256)50_storage": {
        "base": "t_uint256",
        "encoding": "inplace",
        "label": "uint256[50]",
        "numberOfBytes": "1600"
      },
      "t_bool": {
        "encoding": "inplace",
        "label": "bool",
        "numberOfBytes": "1"
      },
      "t_bytes32": {
        "encoding": "inplace",
        "label": "bytes32",
        "numberOfBytes": "32"
      },
      "t_enum(PlanStatus)7959": {
        "encoding": "inplace",
        "label": "enum ICaskSubscriptionPlans.PlanStatus",
        "numberOfBytes": "1"
      },
      "t_mapping(t_address,t_mapping(t_uint32,t_enum(PlanStatus)7959))": {
        "encoding": "mapping",
        "key": "t_address",
        "label": "mapping(address => mapping(uint32 => enum ICaskSubscriptionPlans.PlanStatus))",
        "numberOfBytes": "32",
        "value": "t_mapping(t_uint32,t_enum(PlanStatus)7959)"
      },
      "t_mapping(t_address,t_mapping(t_uint32,t_mapping(t_bytes32,t_uint256)))": {
        "encoding": "mapping",
        "key": "t_address",
        "label": "mapping(address => mapping(uint32 => mapping(bytes32 => uint256)))",
        "numberOfBytes": "32",
        "value": "t_mapping(t_uint32,t_mapping(t_bytes32,t_uint256))"
      },
      "t_mapping(t_address,t_mapping(t_uint32,t_uint32))": {
        "encoding": "mapping",
        "key": "t_address",
        "label": "mapping(address => mapping(uint32 => uint32))",
        "numberOfBytes": "32",
        "value": "t_mapping(t_uint32,t_uint32)"
      },
      "t_mapping(t_address,t_struct(Provider)7979_storage)": {
        "encoding": "mapping",
        "key": "t_address",
        "label": "mapping(address => struct ICaskSubscriptionPlans.Provider)",
        "numberOfBytes": "32",
        "value": "t_struct(Provider)7979_storage"
      },
      "t_mapping(t_bytes32,t_uint256)": {
        "encoding": "mapping",
        "key": "t_bytes32",
        "label": "mapping(bytes32 => uint256)",
        "numberOfBytes": "32",
        "value": "t_uint256"
      },
      "t_mapping(t_uint32,t_enum(PlanStatus)7959)": {
        "encoding": "mapping",
        "key": "t_uint32",
        "label": "mapping(uint32 => enum ICaskSubscriptionPlans.PlanStatus)",
        "numberOfBytes": "32",
        "value": "t_enum(PlanStatus)7959"
      },
      "t_mapping(t_uint32,t_mapping(t_bytes32,t_uint256))": {
        "encoding": "mapping",
        "key": "t_uint32",
        "label": "mapping(uint32 => mapping(bytes32 => uint256))",
        "numberOfBytes": "32",
        "value": "t_mapping(t_bytes32,t_uint256)"
      },
      "t_mapping(t_uint32,t_uint32)": {
        "encoding": "mapping",
        "key": "t_uint32",
        "label": "mapping(uint32 => uint32)",
        "numberOfBytes": "32",
        "value": "t_uint32"
      },
      "t_string_storage": {
        "encoding": "bytes",
        "label": "string",
        "numberOfBytes": "32"
      },
      "t_struct(Provider)7979_storage": {
        "encoding": "inplace",
        "label": "struct ICaskSubscriptionPlans.Provider",
        "members": [
          {
            "astId": 7974,
            "contract": "contracts/protocol/CaskSubscriptionPlans.sol:CaskSubscriptionPlans",
            "label": "paymentAddress",
            "offset": 0,
            "slot": "0",
            "type": "t_address"
          },
          {
            "astId": 7976,
            "contract": "contracts/protocol/CaskSubscriptionPlans.sol:CaskSubscriptionPlans",
            "label": "discountMerkleRoot",
            "offset": 0,
            "slot": "1",
            "type": "t_bytes32"
          },
          {
            "astId": 7978,
            "contract": "contracts/protocol/CaskSubscriptionPlans.sol:CaskSubscriptionPlans",
            "label": "cid",
            "offset": 0,
            "slot": "2",
            "type": "t_string_storage"
          }
        ],
        "numberOfBytes": "96"
      },
      "t_uint256": {
        "encoding": "inplace",
        "label": "uint256",
        "numberOfBytes": "32"
      },
      "t_uint32": {
        "encoding": "inplace",
        "label": "uint32",
        "numberOfBytes": "4"
      }
    }
  }
}