{
  "address": "0x701dd1bBBF59c78d329B14C7Dc96c4F03D5D07D9",
  "abi": [
    {
      "inputs": [],
      "stateMutability": "nonpayable",
      "type": "constructor"
    },
    {
      "anonymous": false,
      "inputs": [
        {
          "indexed": true,
          "internalType": "address",
          "name": "previousOwner",
          "type": "address"
        },
        {
          "indexed": true,
          "internalType": "address",
          "name": "newOwner",
          "type": "address"
        }
      ],
      "name": "OwnershipTransferred",
      "type": "event"
    },
    {
      "anonymous": false,
      "inputs": [
        {
          "indexed": false,
          "internalType": "address",
          "name": "account",
          "type": "address"
        }
      ],
      "name": "Paused",
      "type": "event"
    },
    {
      "anonymous": false,
      "inputs": [
        {
          "indexed": true,
          "internalType": "address",
          "name": "provider",
          "type": "address"
        },
        {
          "indexed": true,
          "internalType": "uint32",
          "name": "planId",
          "type": "uint32"
        }
      ],
      "name": "PlanDisabled",
      "type": "event"
    },
    {
      "anonymous": false,
      "inputs": [
        {
          "indexed": true,
          "internalType": "address",
          "name": "provider",
          "type": "address"
        },
        {
          "indexed": true,
          "internalType": "uint32",
          "name": "planId",
          "type": "uint32"
        },
        {
          "indexed": false,
          "internalType": "uint32",
          "name": "eolAt",
          "type": "uint32"
        }
      ],
      "name": "PlanEOL",
      "type": "event"
    },
    {
      "anonymous": false,
      "inputs": [
        {
          "indexed": true,
          "internalType": "address",
          "name": "provider",
          "type": "address"
        },
        {
          "indexed": true,
          "internalType": "uint32",
          "name": "planId",
          "type": "uint32"
        }
      ],
      "name": "PlanEnabled",
      "type": "event"
    },
    {
      "anonymous": false,
      "inputs": [
        {
          "indexed": false,
          "internalType": "address",
          "name": "account",
          "type": "address"
        }
      ],
      "name": "Unpaused",
      "type": "event"
    },
    {
      "inputs": [
        {
          "internalType": "uint32",
          "name": "_planId",
          "type": "uint32"
        }
      ],
      "name": "disablePlan",
      "outputs": [],
      "stateMutability": "nonpayable",
      "type": "function"
    },
    {
      "inputs": [
        {
          "internalType": "uint32",
          "name": "_planId",
          "type": "uint32"
        }
      ],
      "name": "enablePlan",
      "outputs": [],
      "stateMutability": "nonpayable",
      "type": "function"
    },
    {
      "inputs": [
        {
          "internalType": "address",
          "name": "_provider",
          "type": "address"
        },
        {
          "internalType": "uint32",
          "name": "_planId",
          "type": "uint32"
        }
      ],
      "name": "getPlanEOL",
      "outputs": [
        {
          "internalType": "uint32",
          "name": "",
          "type": "uint32"
        }
      ],
      "stateMutability": "view",
      "type": "function"
    },
    {
      "inputs": [
        {
          "internalType": "address",
          "name": "_provider",
          "type": "address"
        },
        {
          "internalType": "uint32",
          "name": "_planId",
          "type": "uint32"
        }
      ],
      "name": "getPlanStatus",
      "outputs": [
        {
          "internalType": "enum ICaskSubscriptionPlans.PlanStatus",
          "name": "",
          "type": "uint8"
        }
      ],
      "stateMutability": "view",
      "type": "function"
    },
    {
      "inputs": [
        {
          "internalType": "address",
          "name": "_provider",
          "type": "address"
        }
      ],
      "name": "getProviderProfile",
      "outputs": [
        {
          "components": [
            {
              "internalType": "address",
              "name": "paymentAddress",
              "type": "address"
            },
            {
              "internalType": "uint256",
              "name": "nonce",
              "type": "uint256"
            },
            {
              "internalType": "string",
              "name": "cid",
              "type": "string"
            }
          ],
          "internalType": "struct ICaskSubscriptionPlans.Provider",
          "name": "",
          "type": "tuple"
        }
      ],
      "stateMutability": "view",
      "type": "function"
    },
    {
      "inputs": [],
      "name": "initialize",
      "outputs": [],
      "stateMutability": "nonpayable",
      "type": "function"
    },
    {
      "inputs": [
        {
          "internalType": "address",
          "name": "forwarder",
          "type": "address"
        }
      ],
      "name": "isTrustedForwarder",
      "outputs": [
        {
          "internalType": "bool",
          "name": "",
          "type": "bool"
        }
      ],
      "stateMutability": "view",
      "type": "function"
    },
    {
      "inputs": [
        {
          "internalType": "uint32",
          "name": "_planId",
          "type": "uint32"
        },
        {
          "internalType": "uint32",
          "name": "_eolAt",
          "type": "uint32"
        }
      ],
      "name": "killPlan",
      "outputs": [],
      "stateMutability": "nonpayable",
      "type": "function"
    },
    {
      "inputs": [],
      "name": "owner",
      "outputs": [
        {
          "internalType": "address",
          "name": "",
          "type": "address"
        }
      ],
      "stateMutability": "view",
      "type": "function"
    },
    {
      "inputs": [],
      "name": "pause",
      "outputs": [],
      "stateMutability": "nonpayable",
      "type": "function"
    },
    {
      "inputs": [],
      "name": "paused",
      "outputs": [
        {
          "internalType": "bool",
          "name": "",
          "type": "bool"
        }
      ],
      "stateMutability": "view",
      "type": "function"
    },
    {
      "inputs": [],
      "name": "renounceOwnership",
      "outputs": [],
      "stateMutability": "nonpayable",
      "type": "function"
    },
    {
      "inputs": [
        {
          "internalType": "address",
          "name": "_subscriptionManager",
          "type": "address"
        }
      ],
      "name": "setManager",
      "outputs": [],
      "stateMutability": "nonpayable",
      "type": "function"
    },
    {
      "inputs": [
        {
          "internalType": "address",
          "name": "_paymentAddress",
          "type": "address"
        },
        {
          "internalType": "string",
          "name": "_cid",
          "type": "string"
        },
        {
          "internalType": "uint256",
          "name": "_nonce",
          "type": "uint256"
        }
      ],
      "name": "setProviderProfile",
      "outputs": [],
      "stateMutability": "nonpayable",
      "type": "function"
    },
    {
      "inputs": [
        {
          "internalType": "address",
          "name": "_forwarder",
          "type": "address"
        }
      ],
      "name": "setTrustedForwarder",
      "outputs": [],
      "stateMutability": "nonpayable",
      "type": "function"
    },
    {
      "inputs": [],
      "name": "subscriptionManager",
      "outputs": [
        {
          "internalType": "address",
          "name": "",
          "type": "address"
        }
      ],
      "stateMutability": "view",
      "type": "function"
    },
    {
      "inputs": [
        {
          "internalType": "address",
          "name": "newOwner",
          "type": "address"
        }
      ],
      "name": "transferOwnership",
      "outputs": [],
      "stateMutability": "nonpayable",
      "type": "function"
    },
    {
      "inputs": [],
      "name": "trustedForwarder",
      "outputs": [
        {
          "internalType": "address",
          "name": "",
          "type": "address"
        }
      ],
      "stateMutability": "view",
      "type": "function"
    },
    {
      "inputs": [],
      "name": "unpause",
      "outputs": [],
      "stateMutability": "nonpayable",
      "type": "function"
    },
    {
      "inputs": [
        {
          "internalType": "address",
          "name": "_provider",
          "type": "address"
        },
        {
          "internalType": "uint32",
          "name": "_planId",
          "type": "uint32"
        },
        {
          "internalType": "bytes32",
          "name": "_discountId",
          "type": "bytes32"
        },
        {
          "internalType": "bytes32",
          "name": "_discountData",
          "type": "bytes32"
        },
        {
          "internalType": "bytes32",
          "name": "_merkleRoot",
          "type": "bytes32"
        },
        {
          "internalType": "bytes32[]",
          "name": "_merkleProof",
          "type": "bytes32[]"
        }
      ],
      "name": "verifyAndConsumeDiscount",
      "outputs": [
        {
          "internalType": "bool",
          "name": "",
          "type": "bool"
        }
      ],
      "stateMutability": "nonpayable",
      "type": "function"
    },
    {
      "inputs": [
        {
          "internalType": "bytes32",
          "name": "_planData",
          "type": "bytes32"
        },
        {
          "internalType": "bytes32",
          "name": "_merkleRoot",
          "type": "bytes32"
        },
        {
          "internalType": "bytes32[]",
          "name": "_merkleProof",
          "type": "bytes32[]"
        }
      ],
      "name": "verifyPlan",
      "outputs": [
        {
          "internalType": "bool",
          "name": "",
          "type": "bool"
        }
      ],
      "stateMutability": "pure",
      "type": "function"
    },
    {
      "inputs": [],
      "name": "versionRecipient",
      "outputs": [
        {
          "internalType": "string",
          "name": "",
          "type": "string"
        }
      ],
      "stateMutability": "pure",
      "type": "function"
    }
  ],
  "transactionHash": "0xd6dfe70a36340d5cff0169b97eb511f196d1fd0a380c10c7eefdc5c68425e8da",
  "args": [],
  "numDeployments": 1,
  "solcInputHash": "a99c6c066e8671457738dab1e566a864",
  "bytecode": "0x60806040523480156200001157600080fd5b50600054600160a81b900460ff166200003857600054600160a01b900460ff161562000042565b62000042620000f1565b620000aa5760405162461bcd60e51b815260206004820152602e60248201527f496e697469616c697a61626c653a20636f6e747261637420697320616c72656160448201526d191e481a5b9a5d1a585b1a5e995960921b606482015260840160405180910390fd5b600054600160a81b900460ff16158015620000d5576000805461ffff60a01b191661010160a01b1790555b8015620000ea576000805460ff60a81b191690555b5062000115565b600062000109306200010f60201b62000e531760201c565b15905090565b3b151590565b6116fa80620001256000396000f3fe608060405234801561001057600080fd5b50600436106101425760003560e01c80637da0a877116100b8578063b0d8985c1161007c578063b0d8985c146102db578063b6ab359f146102ee578063bf158fd21461033c578063d0ebdbe71461034f578063da74222814610362578063f2fde38b1461037557600080fd5b80637da0a877146102825780638129fc1c146102a75780638456cb59146102af5780638da5cb5b146102b75780639c5c3eb4146102c857600080fd5b8063486ff0cd1161010a578063486ff0cd146101f05780634cfa66ff14610217578063572b6c051461023a5780635c975abb1461025c578063715018a61461026757806371ce3e661461026f57600080fd5b8063025b6875146101475780631bc569b5146101a0578063256c6ba9146101b55780633c17dac8146101c85780633f4ba83a146101e8575b600080fd5b610186610155366004611297565b6001600160a01b03919091166000908152609a6020908152604080832063ffffffff94851684529091529020541690565b60405163ffffffff90911681526020015b60405180910390f35b6101b36101ae3660046112ca565b610388565b005b6101b36101c33660046112ca565b6104b8565b6101db6101d63660046112ec565b6105e4565b6040516101979190611354565b6101b36106cf565b60408051808201825260058152640322e322e360dc1b602082015290516101979190611393565b61022a6102253660046113f2565b610722565b6040519015158152602001610197565b61022a6102483660046112ec565b6000546001600160a01b0391821691161490565b60655460ff1661022a565b6101b36109a2565b61022a61027d366004611474565b6109f5565b6000546001600160a01b03165b6040516001600160a01b039091168152602001610197565b6101b3610a4a565b6101b3610b26565b6033546001600160a01b031661028f565b6101b36102d63660046114c7565b610b77565b6101b36102e93660046114e3565b610c72565b61032f6102fc366004611297565b6001600160a01b038216600090815260996020908152604080832063ffffffff8516845290915290205460ff1692915050565b6040516101979190611582565b60975461028f906001600160a01b031681565b6101b361035d3660046112ec565b610cca565b6101b36103703660046112ec565b610d35565b6101b36103833660046112ec565b610d9c565b600060996000610396610e59565b6001600160a01b031681526020808201929092526040908101600090812063ffffffff8616825290925290205460ff1660028111156103d7576103d761156c565b146104185760405162461bcd60e51b815260206004820152600c60248201526b085393d517d153905093115160a21b60448201526064015b60405180910390fd5b600160996000610426610e59565b6001600160a01b031681526020808201929092526040908101600090812063ffffffff861682529092529020805460ff1916600183600281111561046c5761046c61156c565b02179055508063ffffffff16610480610e59565b6001600160a01b03167f50ec551c598cd517a78f91d12398f4f1d95e0171a4393505d01401f8b6c940a760405160405180910390a350565b6001609960006104c6610e59565b6001600160a01b031681526020808201929092526040908101600090812063ffffffff8616825290925290205460ff1660028111156105075761050761156c565b146105445760405162461bcd60e51b815260206004820152600d60248201526c085393d517d11254d050931151609a1b604482015260640161040f565b600060996000610552610e59565b6001600160a01b031681526020808201929092526040908101600090812063ffffffff861682529092529020805460ff191660018360028111156105985761059861156c565b02179055508063ffffffff166105ac610e59565b6001600160a01b03167fb6af1d2951898e17e763c18b77daf0ada2f2753802d37868e67797e87991a29860405160405180910390a350565b6040805160608082018352600080835260208084018290528385018390526001600160a01b03868116835260988252918590208551938401865280549092168352600182015490830152600281018054939492939192840191610646906115aa565b80601f0160208091040260200160405190810160405280929190818152602001828054610672906115aa565b80156106bf5780601f10610694576101008083540402835291602001916106bf565b820191906000526020600020905b8154815290600101906020018083116106a257829003601f168201915b5050505050815250509050919050565b6106d7610e59565b6001600160a01b03166106f26033546001600160a01b031690565b6001600160a01b0316146107185760405162461bcd60e51b815260040161040f906115e5565b610720610e68565b565b600061078d8383808060200260200160405190810160405280939291908181526020018383602002808284376000920191909152505060408051602081018c90529081018a905288925060600190505b60405160208183030381529060405280519060200120610f01565b15610993576040805160e08082018352600080835260208084018290528385018290526060808501839052608080860184905260a080870185905260c096870194909452865194850187528b841c855263ffffffff8c821c8116868501528c831c811686890152968c901c871691850191909152908a901c90941693820184905261ffff60108a901c1690820152600160f01b60f089901b8116149181019190915290158061084b57508763ffffffff16816080015163ffffffff16145b61088a5760405162461bcd60e51b815260206004820152601060248201526f21494e56414c494428706c616e49642960801b604482015260640161040f565b606081015163ffffffff1615806108df575060608101516001600160a01b038a166000908152609b60209081526040808320608086015163ffffffff90811685529083528184208c8552909252909120549116115b801561090d5750602081015163ffffffff16158061090d57504263ffffffff16816020015163ffffffff1610155b801561093a5750604081015163ffffffff16158061093a57504263ffffffff16816040015163ffffffff16105b15610991576001600160a01b0389166000908152609b6020908152604080832063ffffffff8c16845282528083208a84529091528120805460019290610981908490611630565b9091555060019250610997915050565b505b5060005b979650505050505050565b6109aa610e59565b6001600160a01b03166109c56033546001600160a01b031690565b6001600160a01b0316146109eb5760405162461bcd60e51b815260040161040f906115e5565b6107206000610f17565b6000610a418383808060200260200160405190810160405280939291908181526020018383602002808284376000920191909152505060408051602081018b9052899350019050610772565b95945050505050565b600054600160a81b900460ff16610a6e57600054600160a01b900460ff1615610a72565b303b155b610ad55760405162461bcd60e51b815260206004820152602e60248201527f496e697469616c697a61626c653a20636f6e747261637420697320616c72656160448201526d191e481a5b9a5d1a585b1a5e995960921b606482015260840161040f565b600054600160a81b900460ff16158015610aff576000805461ffff60a01b191661010160a01b1790555b610b07610f69565b610b0f610fa2565b8015610b23576000805460ff60a81b191690555b50565b610b2e610e59565b6001600160a01b0316610b496033546001600160a01b031690565b6001600160a01b031614610b6f5760405162461bcd60e51b815260040161040f906115e5565b610720610fdb565b600260996000610b85610e59565b6001600160a01b031681526020808201929092526040908101600090812063ffffffff871682529092529020805460ff19166001836002811115610bcb57610bcb61156c565b021790555080609a6000610bdd610e59565b6001600160a01b031681526020808201929092526040908101600090812063ffffffff87811680845291909452919020805463ffffffff191693909216929092179055610c28610e59565b60405163ffffffff841681526001600160a01b0391909116907f4594a2f1d5b5d27b7b29f7c73ec2f5f23b7a97269ec277e84619bcfffe9c13dc9060200160405180910390a35050565b600060986000610c80610e59565b6001600160a01b039081168252602082019290925260400160002080546001600160a01b0319169187169190911781559050610cc06002820185856111ce565b5060010155505050565b610cd2610e59565b6001600160a01b0316610ced6033546001600160a01b031690565b6001600160a01b031614610d135760405162461bcd60e51b815260040161040f906115e5565b609780546001600160a01b0319166001600160a01b0392909216919091179055565b610d3d610e59565b6001600160a01b0316610d586033546001600160a01b031690565b6001600160a01b031614610d7e5760405162461bcd60e51b815260040161040f906115e5565b600080546001600160a01b0319166001600160a01b03831617905550565b610da4610e59565b6001600160a01b0316610dbf6033546001600160a01b031690565b6001600160a01b031614610de55760405162461bcd60e51b815260040161040f906115e5565b6001600160a01b038116610e4a5760405162461bcd60e51b815260206004820152602660248201527f4f776e61626c653a206e6577206f776e657220697320746865207a65726f206160448201526564647265737360d01b606482015260840161040f565b610b2381610f17565b3b151590565b6000610e63611057565b905090565b60655460ff16610eb15760405162461bcd60e51b815260206004820152601460248201527314185d5cd8589b194e881b9bdd081c185d5cd95960621b604482015260640161040f565b6065805460ff191690557f5db9ee0a495bf2e6ff9c91a7834c1ba4fdd244a5e8aa4e537bd38aeae4b073aa610ee4610e59565b6040516001600160a01b03909116815260200160405180910390a1565b600082610f0e858461108b565b14949350505050565b603380546001600160a01b038381166001600160a01b0319831681179093556040519116919082907f8be0079c531659141344cd1fd0a4f28419497f9722a3daafe3b4186f6b6457e090600090a35050565b600054600160a81b900460ff16610f925760405162461bcd60e51b815260040161040f90611648565b610f9a611137565b610720611160565b600054600160a81b900460ff16610fcb5760405162461bcd60e51b815260040161040f90611648565b610fd3611137565b610720611199565b60655460ff16156110215760405162461bcd60e51b815260206004820152601060248201526f14185d5cd8589b194e881c185d5cd95960821b604482015260640161040f565b6065805460ff191660011790557f62e78cea01bee320cd4e420270b5ea74000d11b0c9f74754ebdbfc544b05a258610ee4610e59565b60006014361080159061107457506000546001600160a01b031633145b15611086575060131936013560601c90565b503390565b600081815b845181101561112f5760008582815181106110ad576110ad611693565b602002602001015190508083116110ef57604080516020810185905290810182905260600160405160208183030381529060405280519060200120925061111c565b60408051602081018390529081018490526060016040516020818303038152906040528051906020012092505b5080611127816116a9565b915050611090565b509392505050565b600054600160a81b900460ff166107205760405162461bcd60e51b815260040161040f90611648565b600054600160a81b900460ff166111895760405162461bcd60e51b815260040161040f90611648565b610720611194610e59565b610f17565b600054600160a81b900460ff166111c25760405162461bcd60e51b815260040161040f90611648565b6065805460ff19169055565b8280546111da906115aa565b90600052602060002090601f0160209004810192826111fc5760008555611242565b82601f106112155782800160ff19823516178555611242565b82800160010185558215611242579182015b82811115611242578235825591602001919060010190611227565b5061124e929150611252565b5090565b5b8082111561124e5760008155600101611253565b80356001600160a01b038116811461127e57600080fd5b919050565b803563ffffffff8116811461127e57600080fd5b600080604083850312156112aa57600080fd5b6112b383611267565b91506112c160208401611283565b90509250929050565b6000602082840312156112dc57600080fd5b6112e582611283565b9392505050565b6000602082840312156112fe57600080fd5b6112e582611267565b6000815180845260005b8181101561132d57602081850181015186830182015201611311565b8181111561133f576000602083870101525b50601f01601f19169290920160200192915050565b6020815260018060a01b038251166020820152602082015160408201526000604083015160608084015261138b6080840182611307565b949350505050565b6020815260006112e56020830184611307565b60008083601f8401126113b857600080fd5b50813567ffffffffffffffff8111156113d057600080fd5b6020830191508360208260051b85010111156113eb57600080fd5b9250929050565b600080600080600080600060c0888a03121561140d57600080fd5b61141688611267565b965061142460208901611283565b955060408801359450606088013593506080880135925060a088013567ffffffffffffffff81111561145557600080fd5b6114618a828b016113a6565b989b979a50959850939692959293505050565b6000806000806060858703121561148a57600080fd5b8435935060208501359250604085013567ffffffffffffffff8111156114af57600080fd5b6114bb878288016113a6565b95989497509550505050565b600080604083850312156114da57600080fd5b6112b383611283565b600080600080606085870312156114f957600080fd5b61150285611267565b9350602085013567ffffffffffffffff8082111561151f57600080fd5b818701915087601f83011261153357600080fd5b81358181111561154257600080fd5b88602082850101111561155457600080fd5b95986020929092019750949560400135945092505050565b634e487b7160e01b600052602160045260246000fd5b60208101600383106115a457634e487b7160e01b600052602160045260246000fd5b91905290565b600181811c908216806115be57607f821691505b602082108114156115df57634e487b7160e01b600052602260045260246000fd5b50919050565b6020808252818101527f4f776e61626c653a2063616c6c6572206973206e6f7420746865206f776e6572604082015260600190565b634e487b7160e01b600052601160045260246000fd5b600082198211156116435761164361161a565b500190565b6020808252602b908201527f496e697469616c697a61626c653a20636f6e7472616374206973206e6f74206960408201526a6e697469616c697a696e6760a81b606082015260800190565b634e487b7160e01b600052603260045260246000fd5b60006000198214156116bd576116bd61161a565b506001019056fea264697066735822122062a63357aa06a74275f921270a33e5473013d4b67e15e6abc7f26f8e5697f68764736f6c63430008090033",
  "devdoc": {
    "kind": "dev",
    "methods": {
      "constructor": {
        "custom:oz-upgrades-unsafe-allow": "constructor"
      },
      "owner()": {
        "details": "Returns the address of the current owner."
      },
      "paused()": {
        "details": "Returns true if the contract is paused, and false otherwise."
      },
      "renounceOwnership()": {
        "details": "Leaves the contract without owner. It will not be possible to call `onlyOwner` functions anymore. Can only be called by the current owner. NOTE: Renouncing ownership will leave the contract without an owner, thereby removing any functionality that is only available to the owner."
      },
      "transferOwnership(address)": {
        "details": "Transfers ownership of the contract to a new account (`newOwner`). Can only be called by the current owner."
      }
    },
    "stateVariables": {
      "discountRedemptions": {
        "details": "Maps for discounts. "
      },
      "planStatus": {
        "details": "Map for current plan status. "
      },
      "providerProfiles": {
        "details": "Map for provider to profile info. "
      },
      "subscriptionManager": {
        "details": "Address of subscription manager. "
      }
    },
    "version": 1
  },
  "userdoc": {
    "kind": "user",
    "methods": {
      "isTrustedForwarder(address)": {
        "notice": "return if the forwarder is trusted to forward relayed transactions to us. the forwarder is required to verify the sender's signature, and verify the call is not a replay."
      }
    },
    "version": 1
  },
  "storageLayout": {
    "storage": [
      {
        "astId": 72,
        "contract": "contracts/protocol/CaskSubscriptionPlans.sol:CaskSubscriptionPlans",
        "label": "_trustedForwarder",
        "offset": 0,
        "slot": "0",
        "type": "t_address"
      },
      {
        "astId": 327,
        "contract": "contracts/protocol/CaskSubscriptionPlans.sol:CaskSubscriptionPlans",
        "label": "_initialized",
        "offset": 20,
        "slot": "0",
        "type": "t_bool"
      },
      {
        "astId": 330,
        "contract": "contracts/protocol/CaskSubscriptionPlans.sol:CaskSubscriptionPlans",
        "label": "_initializing",
        "offset": 21,
        "slot": "0",
        "type": "t_bool"
      },
      {
        "astId": 2551,
        "contract": "contracts/protocol/CaskSubscriptionPlans.sol:CaskSubscriptionPlans",
        "label": "__gap",
        "offset": 0,
        "slot": "1",
        "type": "t_array(t_uint256)50_storage"
      },
      {
        "astId": 205,
        "contract": "contracts/protocol/CaskSubscriptionPlans.sol:CaskSubscriptionPlans",
        "label": "_owner",
        "offset": 0,
        "slot": "51",
        "type": "t_address"
      },
      {
        "astId": 319,
        "contract": "contracts/protocol/CaskSubscriptionPlans.sol:CaskSubscriptionPlans",
        "label": "__gap",
        "offset": 0,
        "slot": "52",
        "type": "t_array(t_uint256)49_storage"
      },
      {
        "astId": 415,
        "contract": "contracts/protocol/CaskSubscriptionPlans.sol:CaskSubscriptionPlans",
        "label": "_paused",
        "offset": 0,
        "slot": "101",
        "type": "t_bool"
      },
      {
        "astId": 506,
        "contract": "contracts/protocol/CaskSubscriptionPlans.sol:CaskSubscriptionPlans",
        "label": "__gap",
        "offset": 0,
        "slot": "102",
        "type": "t_array(t_uint256)49_storage"
      },
      {
        "astId": 10149,
        "contract": "contracts/protocol/CaskSubscriptionPlans.sol:CaskSubscriptionPlans",
        "label": "subscriptionManager",
        "offset": 0,
        "slot": "151",
        "type": "t_address"
      },
      {
        "astId": 10155,
        "contract": "contracts/protocol/CaskSubscriptionPlans.sol:CaskSubscriptionPlans",
        "label": "providerProfiles",
        "offset": 0,
        "slot": "152",
        "type": "t_mapping(t_address,t_struct(Provider)7590_storage)"
      },
      {
        "astId": 10163,
        "contract": "contracts/protocol/CaskSubscriptionPlans.sol:CaskSubscriptionPlans",
        "label": "planStatus",
        "offset": 0,
        "slot": "153",
        "type": "t_mapping(t_address,t_mapping(t_uint32,t_enum(PlanStatus)7568))"
      },
      {
        "astId": 10169,
        "contract": "contracts/protocol/CaskSubscriptionPlans.sol:CaskSubscriptionPlans",
        "label": "planEol",
        "offset": 0,
        "slot": "154",
        "type": "t_mapping(t_address,t_mapping(t_uint32,t_uint32))"
      },
      {
        "astId": 10178,
        "contract": "contracts/protocol/CaskSubscriptionPlans.sol:CaskSubscriptionPlans",
        "label": "discountRedemptions",
        "offset": 0,
        "slot": "155",
        "type": "t_mapping(t_address,t_mapping(t_uint32,t_mapping(t_bytes32,t_uint256)))"
      }
    ],
    "types": {
      "t_address": {
        "encoding": "inplace",
        "label": "address",
        "numberOfBytes": "20"
      },
      "t_array(t_uint256)49_storage": {
        "base": "t_uint256",
        "encoding": "inplace",
        "label": "uint256[49]",
        "numberOfBytes": "1568"
      },
      "t_array(t_uint256)50_storage": {
        "base": "t_uint256",
        "encoding": "inplace",
        "label": "uint256[50]",
        "numberOfBytes": "1600"
      },
      "t_bool": {
        "encoding": "inplace",
        "label": "bool",
        "numberOfBytes": "1"
      },
      "t_bytes32": {
        "encoding": "inplace",
        "label": "bytes32",
        "numberOfBytes": "32"
      },
      "t_enum(PlanStatus)7568": {
        "encoding": "inplace",
        "label": "enum ICaskSubscriptionPlans.PlanStatus",
        "numberOfBytes": "1"
      },
      "t_mapping(t_address,t_mapping(t_uint32,t_enum(PlanStatus)7568))": {
        "encoding": "mapping",
        "key": "t_address",
        "label": "mapping(address => mapping(uint32 => enum ICaskSubscriptionPlans.PlanStatus))",
        "numberOfBytes": "32",
        "value": "t_mapping(t_uint32,t_enum(PlanStatus)7568)"
      },
      "t_mapping(t_address,t_mapping(t_uint32,t_mapping(t_bytes32,t_uint256)))": {
        "encoding": "mapping",
        "key": "t_address",
        "label": "mapping(address => mapping(uint32 => mapping(bytes32 => uint256)))",
        "numberOfBytes": "32",
        "value": "t_mapping(t_uint32,t_mapping(t_bytes32,t_uint256))"
      },
      "t_mapping(t_address,t_mapping(t_uint32,t_uint32))": {
        "encoding": "mapping",
        "key": "t_address",
        "label": "mapping(address => mapping(uint32 => uint32))",
        "numberOfBytes": "32",
        "value": "t_mapping(t_uint32,t_uint32)"
      },
      "t_mapping(t_address,t_struct(Provider)7590_storage)": {
        "encoding": "mapping",
        "key": "t_address",
        "label": "mapping(address => struct ICaskSubscriptionPlans.Provider)",
        "numberOfBytes": "32",
        "value": "t_struct(Provider)7590_storage"
      },
      "t_mapping(t_bytes32,t_uint256)": {
        "encoding": "mapping",
        "key": "t_bytes32",
        "label": "mapping(bytes32 => uint256)",
        "numberOfBytes": "32",
        "value": "t_uint256"
      },
      "t_mapping(t_uint32,t_enum(PlanStatus)7568)": {
        "encoding": "mapping",
        "key": "t_uint32",
        "label": "mapping(uint32 => enum ICaskSubscriptionPlans.PlanStatus)",
        "numberOfBytes": "32",
        "value": "t_enum(PlanStatus)7568"
      },
      "t_mapping(t_uint32,t_mapping(t_bytes32,t_uint256))": {
        "encoding": "mapping",
        "key": "t_uint32",
        "label": "mapping(uint32 => mapping(bytes32 => uint256))",
        "numberOfBytes": "32",
        "value": "t_mapping(t_bytes32,t_uint256)"
      },
      "t_mapping(t_uint32,t_uint32)": {
        "encoding": "mapping",
        "key": "t_uint32",
        "label": "mapping(uint32 => uint32)",
        "numberOfBytes": "32",
        "value": "t_uint32"
      },
      "t_string_storage": {
        "encoding": "bytes",
        "label": "string",
        "numberOfBytes": "32"
      },
      "t_struct(Provider)7590_storage": {
        "encoding": "inplace",
        "label": "struct ICaskSubscriptionPlans.Provider",
        "members": [
          {
            "astId": 7585,
            "contract": "contracts/protocol/CaskSubscriptionPlans.sol:CaskSubscriptionPlans",
            "label": "paymentAddress",
            "offset": 0,
            "slot": "0",
            "type": "t_address"
          },
          {
            "astId": 7587,
            "contract": "contracts/protocol/CaskSubscriptionPlans.sol:CaskSubscriptionPlans",
            "label": "nonce",
            "offset": 0,
            "slot": "1",
            "type": "t_uint256"
          },
          {
            "astId": 7589,
            "contract": "contracts/protocol/CaskSubscriptionPlans.sol:CaskSubscriptionPlans",
            "label": "cid",
            "offset": 0,
            "slot": "2",
            "type": "t_string_storage"
          }
        ],
        "numberOfBytes": "96"
      },
      "t_uint256": {
        "encoding": "inplace",
        "label": "uint256",
        "numberOfBytes": "32"
      },
      "t_uint32": {
        "encoding": "inplace",
        "label": "uint32",
        "numberOfBytes": "4"
      }
    }
  }
}