{
  "address": "0x0576e5d3F23a51149607fb928712092410F84DC3",
  "abi": [
    {
      "inputs": [],
      "stateMutability": "nonpayable",
      "type": "constructor"
    },
    {
      "anonymous": false,
      "inputs": [
        {
          "indexed": true,
          "internalType": "address",
          "name": "owner",
          "type": "address"
        },
        {
          "indexed": true,
          "internalType": "address",
          "name": "approved",
          "type": "address"
        },
        {
          "indexed": true,
          "internalType": "uint256",
          "name": "tokenId",
          "type": "uint256"
        }
      ],
      "name": "Approval",
      "type": "event"
    },
    {
      "anonymous": false,
      "inputs": [
        {
          "indexed": true,
          "internalType": "address",
          "name": "owner",
          "type": "address"
        },
        {
          "indexed": true,
          "internalType": "address",
          "name": "operator",
          "type": "address"
        },
        {
          "indexed": false,
          "internalType": "bool",
          "name": "approved",
          "type": "bool"
        }
      ],
      "name": "ApprovalForAll",
      "type": "event"
    },
    {
      "anonymous": false,
      "inputs": [
        {
          "indexed": true,
          "internalType": "address",
          "name": "previousOwner",
          "type": "address"
        },
        {
          "indexed": true,
          "internalType": "address",
          "name": "newOwner",
          "type": "address"
        }
      ],
      "name": "OwnershipTransferred",
      "type": "event"
    },
    {
      "anonymous": false,
      "inputs": [
        {
          "indexed": false,
          "internalType": "address",
          "name": "account",
          "type": "address"
        }
      ],
      "name": "Paused",
      "type": "event"
    },
    {
      "anonymous": false,
      "inputs": [
        {
          "indexed": true,
          "internalType": "address",
          "name": "consumer",
          "type": "address"
        },
        {
          "indexed": true,
          "internalType": "address",
          "name": "provider",
          "type": "address"
        },
        {
          "indexed": true,
          "internalType": "uint256",
          "name": "subscriptionId",
          "type": "uint256"
        },
        {
          "indexed": false,
          "internalType": "bytes32",
          "name": "ref",
          "type": "bytes32"
        },
        {
          "indexed": false,
          "internalType": "uint32",
          "name": "planId",
          "type": "uint32"
        }
      ],
      "name": "SubscriptionCanceled",
      "type": "event"
    },
    {
      "anonymous": false,
      "inputs": [
        {
          "indexed": true,
          "internalType": "address",
          "name": "consumer",
          "type": "address"
        },
        {
          "indexed": true,
          "internalType": "address",
          "name": "provider",
          "type": "address"
        },
        {
          "indexed": true,
          "internalType": "uint256",
          "name": "subscriptionId",
          "type": "uint256"
        },
        {
          "indexed": false,
          "internalType": "bytes32",
          "name": "ref",
          "type": "bytes32"
        },
        {
          "indexed": false,
          "internalType": "uint32",
          "name": "planId",
          "type": "uint32"
        },
        {
          "indexed": false,
          "internalType": "bytes32",
          "name": "discountId",
          "type": "bytes32"
        }
      ],
      "name": "SubscriptionChangedDiscount",
      "type": "event"
    },
    {
      "anonymous": false,
      "inputs": [
        {
          "indexed": true,
          "internalType": "address",
          "name": "consumer",
          "type": "address"
        },
        {
          "indexed": true,
          "internalType": "address",
          "name": "provider",
          "type": "address"
        },
        {
          "indexed": true,
          "internalType": "uint256",
          "name": "subscriptionId",
          "type": "uint256"
        },
        {
          "indexed": false,
          "internalType": "bytes32",
          "name": "ref",
          "type": "bytes32"
        },
        {
          "indexed": false,
          "internalType": "uint32",
          "name": "prevPlanId",
          "type": "uint32"
        },
        {
          "indexed": false,
          "internalType": "uint32",
          "name": "planId",
          "type": "uint32"
        },
        {
          "indexed": false,
          "internalType": "bytes32",
          "name": "discountId",
          "type": "bytes32"
        }
      ],
      "name": "SubscriptionChangedPlan",
      "type": "event"
    },
    {
      "anonymous": false,
      "inputs": [
        {
          "indexed": true,
          "internalType": "address",
          "name": "consumer",
          "type": "address"
        },
        {
          "indexed": true,
          "internalType": "address",
          "name": "provider",
          "type": "address"
        },
        {
          "indexed": true,
          "internalType": "uint256",
          "name": "subscriptionId",
          "type": "uint256"
        },
        {
          "indexed": false,
          "internalType": "bytes32",
          "name": "ref",
          "type": "bytes32"
        },
        {
          "indexed": false,
          "internalType": "uint32",
          "name": "planId",
          "type": "uint32"
        },
        {
          "indexed": false,
          "internalType": "bytes32",
          "name": "discountId",
          "type": "bytes32"
        }
      ],
      "name": "SubscriptionCreated",
      "type": "event"
    },
    {
      "anonymous": false,
      "inputs": [
        {
          "indexed": true,
          "internalType": "address",
          "name": "consumer",
          "type": "address"
        },
        {
          "indexed": true,
          "internalType": "address",
          "name": "provider",
          "type": "address"
        },
        {
          "indexed": true,
          "internalType": "uint256",
          "name": "subscriptionId",
          "type": "uint256"
        },
        {
          "indexed": false,
          "internalType": "bytes32",
          "name": "ref",
          "type": "bytes32"
        },
        {
          "indexed": false,
          "internalType": "uint32",
          "name": "planId",
          "type": "uint32"
        }
      ],
      "name": "SubscriptionPastDue",
      "type": "event"
    },
    {
      "anonymous": false,
      "inputs": [
        {
          "indexed": true,
          "internalType": "address",
          "name": "consumer",
          "type": "address"
        },
        {
          "indexed": true,
          "internalType": "address",
          "name": "provider",
          "type": "address"
        },
        {
          "indexed": true,
          "internalType": "uint256",
          "name": "subscriptionId",
          "type": "uint256"
        },
        {
          "indexed": false,
          "internalType": "bytes32",
          "name": "ref",
          "type": "bytes32"
        },
        {
          "indexed": false,
          "internalType": "uint32",
          "name": "planId",
          "type": "uint32"
        }
      ],
      "name": "SubscriptionPaused",
      "type": "event"
    },
    {
      "anonymous": false,
      "inputs": [
        {
          "indexed": true,
          "internalType": "address",
          "name": "consumer",
          "type": "address"
        },
        {
          "indexed": true,
          "internalType": "address",
          "name": "provider",
          "type": "address"
        },
        {
          "indexed": true,
          "internalType": "uint256",
          "name": "subscriptionId",
          "type": "uint256"
        },
        {
          "indexed": false,
          "internalType": "bytes32",
          "name": "ref",
          "type": "bytes32"
        },
        {
          "indexed": false,
          "internalType": "uint32",
          "name": "planId",
          "type": "uint32"
        },
        {
          "indexed": false,
          "internalType": "uint32",
          "name": "cancelAt",
          "type": "uint32"
        }
      ],
      "name": "SubscriptionPendingCancel",
      "type": "event"
    },
    {
      "anonymous": false,
      "inputs": [
        {
          "indexed": true,
          "internalType": "address",
          "name": "consumer",
          "type": "address"
        },
        {
          "indexed": true,
          "internalType": "address",
          "name": "provider",
          "type": "address"
        },
        {
          "indexed": true,
          "internalType": "uint256",
          "name": "subscriptionId",
          "type": "uint256"
        },
        {
          "indexed": false,
          "internalType": "bytes32",
          "name": "ref",
          "type": "bytes32"
        },
        {
          "indexed": false,
          "internalType": "uint32",
          "name": "prevPlanId",
          "type": "uint32"
        },
        {
          "indexed": false,
          "internalType": "uint32",
          "name": "planId",
          "type": "uint32"
        }
      ],
      "name": "SubscriptionPendingChangePlan",
      "type": "event"
    },
    {
      "anonymous": false,
      "inputs": [
        {
          "indexed": true,
          "internalType": "address",
          "name": "consumer",
          "type": "address"
        },
        {
          "indexed": true,
          "internalType": "address",
          "name": "provider",
          "type": "address"
        },
        {
          "indexed": true,
          "internalType": "uint256",
          "name": "subscriptionId",
          "type": "uint256"
        },
        {
          "indexed": false,
          "internalType": "bytes32",
          "name": "ref",
          "type": "bytes32"
        },
        {
          "indexed": false,
          "internalType": "uint32",
          "name": "planId",
          "type": "uint32"
        }
      ],
      "name": "SubscriptionRenewed",
      "type": "event"
    },
    {
      "anonymous": false,
      "inputs": [
        {
          "indexed": true,
          "internalType": "address",
          "name": "consumer",
          "type": "address"
        },
        {
          "indexed": true,
          "internalType": "address",
          "name": "provider",
          "type": "address"
        },
        {
          "indexed": true,
          "internalType": "uint256",
          "name": "subscriptionId",
          "type": "uint256"
        },
        {
          "indexed": false,
          "internalType": "bytes32",
          "name": "ref",
          "type": "bytes32"
        },
        {
          "indexed": false,
          "internalType": "uint32",
          "name": "planId",
          "type": "uint32"
        }
      ],
      "name": "SubscriptionResumed",
      "type": "event"
    },
    {
      "anonymous": false,
      "inputs": [
        {
          "indexed": true,
          "internalType": "address",
          "name": "consumer",
          "type": "address"
        },
        {
          "indexed": true,
          "internalType": "address",
          "name": "provider",
          "type": "address"
        },
        {
          "indexed": true,
          "internalType": "uint256",
          "name": "subscriptionId",
          "type": "uint256"
        },
        {
          "indexed": false,
          "internalType": "bytes32",
          "name": "ref",
          "type": "bytes32"
        },
        {
          "indexed": false,
          "internalType": "uint32",
          "name": "planId",
          "type": "uint32"
        }
      ],
      "name": "SubscriptionTrialEnded",
      "type": "event"
    },
    {
      "anonymous": false,
      "inputs": [
        {
          "indexed": true,
          "internalType": "address",
          "name": "from",
          "type": "address"
        },
        {
          "indexed": true,
          "internalType": "address",
          "name": "to",
          "type": "address"
        },
        {
          "indexed": true,
          "internalType": "uint256",
          "name": "tokenId",
          "type": "uint256"
        }
      ],
      "name": "Transfer",
      "type": "event"
    },
    {
      "anonymous": false,
      "inputs": [
        {
          "indexed": false,
          "internalType": "address",
          "name": "account",
          "type": "address"
        }
      ],
      "name": "Unpaused",
      "type": "event"
    },
    {
      "inputs": [
        {
          "internalType": "address",
          "name": "to",
          "type": "address"
        },
        {
          "internalType": "uint256",
          "name": "tokenId",
          "type": "uint256"
        }
      ],
      "name": "approve",
      "outputs": [],
      "stateMutability": "nonpayable",
      "type": "function"
    },
    {
      "inputs": [
        {
          "internalType": "address",
          "name": "owner",
          "type": "address"
        }
      ],
      "name": "balanceOf",
      "outputs": [
        {
          "internalType": "uint256",
          "name": "",
          "type": "uint256"
        }
      ],
      "stateMutability": "view",
      "type": "function"
    },
    {
      "inputs": [
        {
          "internalType": "uint256",
          "name": "_subscriptionId",
          "type": "uint256"
        },
        {
          "internalType": "uint32",
          "name": "_cancelAt",
          "type": "uint32"
        }
      ],
      "name": "cancelSubscription",
      "outputs": [],
      "stateMutability": "nonpayable",
      "type": "function"
    },
    {
      "inputs": [
        {
          "internalType": "uint256",
          "name": "_subscriptionId",
          "type": "uint256"
        },
        {
          "internalType": "bytes32[]",
          "name": "_discountProof",
          "type": "bytes32[]"
        }
      ],
      "name": "changeSubscriptionDiscount",
      "outputs": [],
      "stateMutability": "nonpayable",
      "type": "function"
    },
    {
      "inputs": [
        {
          "internalType": "uint256",
          "name": "_subscriptionId",
          "type": "uint256"
        },
        {
          "internalType": "bytes32[]",
          "name": "_planProof",
          "type": "bytes32[]"
        },
        {
          "internalType": "bytes32[]",
          "name": "_discountProof",
          "type": "bytes32[]"
        },
        {
          "internalType": "bytes",
          "name": "_providerSignature",
          "type": "bytes"
        },
        {
          "internalType": "string",
          "name": "_cid",
          "type": "string"
        }
      ],
      "name": "changeSubscriptionPlan",
      "outputs": [],
      "stateMutability": "nonpayable",
      "type": "function"
    },
    {
      "inputs": [
        {
          "internalType": "bytes32[]",
          "name": "_planProof",
          "type": "bytes32[]"
        },
        {
          "internalType": "bytes32[]",
          "name": "_discountProof",
          "type": "bytes32[]"
        },
        {
          "internalType": "bytes32",
          "name": "_networkData",
          "type": "bytes32"
        },
        {
          "internalType": "uint32",
          "name": "_cancelAt",
          "type": "uint32"
        },
        {
          "internalType": "bytes",
          "name": "_providerSignature",
          "type": "bytes"
        },
        {
          "internalType": "bytes",
          "name": "_networkSignature",
          "type": "bytes"
        },
        {
          "internalType": "string",
          "name": "_cid",
          "type": "string"
        }
      ],
      "name": "createNetworkSubscription",
      "outputs": [],
      "stateMutability": "nonpayable",
      "type": "function"
    },
    {
      "inputs": [
        {
          "internalType": "bytes32[]",
          "name": "_planProof",
          "type": "bytes32[]"
        },
        {
          "internalType": "bytes32[]",
          "name": "_discountProof",
          "type": "bytes32[]"
        },
        {
          "internalType": "uint32",
          "name": "_cancelAt",
          "type": "uint32"
        },
        {
          "internalType": "bytes",
          "name": "_providerSignature",
          "type": "bytes"
        },
        {
          "internalType": "string",
          "name": "_cid",
          "type": "string"
        }
      ],
      "name": "createSubscription",
      "outputs": [],
      "stateMutability": "nonpayable",
      "type": "function"
    },
    {
      "inputs": [],
      "name": "getActiveSubscriptions",
      "outputs": [
        {
          "internalType": "uint256[]",
          "name": "",
          "type": "uint256[]"
        }
      ],
      "stateMutability": "view",
      "type": "function"
    },
    {
      "inputs": [],
      "name": "getActiveSubscriptionsCount",
      "outputs": [
        {
          "internalType": "uint256",
          "name": "",
          "type": "uint256"
        }
      ],
      "stateMutability": "view",
      "type": "function"
    },
    {
      "inputs": [
        {
          "internalType": "uint256",
          "name": "tokenId",
          "type": "uint256"
        }
      ],
      "name": "getApproved",
      "outputs": [
        {
          "internalType": "address",
          "name": "",
          "type": "address"
        }
      ],
      "stateMutability": "view",
      "type": "function"
    },
    {
      "inputs": [
        {
          "internalType": "address",
          "name": "_consumer",
          "type": "address"
        }
      ],
      "name": "getConsumerSubscriptionCount",
      "outputs": [
        {
          "internalType": "uint256",
          "name": "",
          "type": "uint256"
        }
      ],
      "stateMutability": "view",
      "type": "function"
    },
    {
      "inputs": [
        {
          "internalType": "address",
          "name": "_consumer",
          "type": "address"
        },
        {
          "internalType": "uint256",
          "name": "_limit",
          "type": "uint256"
        },
        {
          "internalType": "uint256",
          "name": "_offset",
          "type": "uint256"
        }
      ],
      "name": "getConsumerSubscriptions",
      "outputs": [
        {
          "internalType": "uint256[]",
          "name": "",
          "type": "uint256[]"
        }
      ],
      "stateMutability": "view",
      "type": "function"
    },
    {
      "inputs": [
        {
          "internalType": "uint256",
          "name": "_subscriptionId",
          "type": "uint256"
        }
      ],
      "name": "getPendingPlanChange",
      "outputs": [
        {
          "internalType": "bytes32",
          "name": "",
          "type": "bytes32"
        }
      ],
      "stateMutability": "view",
      "type": "function"
    },
    {
      "inputs": [
        {
          "internalType": "address",
          "name": "_provider",
          "type": "address"
        }
      ],
      "name": "getProviderActiveSubscriptionCount",
      "outputs": [
        {
          "internalType": "uint256",
          "name": "",
          "type": "uint256"
        }
      ],
      "stateMutability": "view",
      "type": "function"
    },
    {
      "inputs": [
        {
          "internalType": "address",
          "name": "_provider",
          "type": "address"
        },
        {
          "internalType": "uint32",
          "name": "_planId",
          "type": "uint32"
        }
      ],
      "name": "getProviderPlanActiveSubscriptionCount",
      "outputs": [
        {
          "internalType": "uint256",
          "name": "",
          "type": "uint256"
        }
      ],
      "stateMutability": "view",
      "type": "function"
    },
    {
      "inputs": [
        {
          "internalType": "address",
          "name": "_provider",
          "type": "address"
        }
      ],
      "name": "getProviderSubscriptionCount",
      "outputs": [
        {
          "internalType": "uint256",
          "name": "",
          "type": "uint256"
        }
      ],
      "stateMutability": "view",
      "type": "function"
    },
    {
      "inputs": [
        {
          "internalType": "address",
          "name": "_provider",
          "type": "address"
        },
        {
          "internalType": "uint256",
          "name": "_limit",
          "type": "uint256"
        },
        {
          "internalType": "uint256",
          "name": "_offset",
          "type": "uint256"
        }
      ],
      "name": "getProviderSubscriptions",
      "outputs": [
        {
          "internalType": "uint256[]",
          "name": "",
          "type": "uint256[]"
        }
      ],
      "stateMutability": "view",
      "type": "function"
    },
    {
      "inputs": [
        {
          "internalType": "uint256",
          "name": "_subscriptionId",
          "type": "uint256"
        }
      ],
      "name": "getSubscription",
      "outputs": [
        {
          "components": [
            {
              "internalType": "bytes32",
              "name": "planData",
              "type": "bytes32"
            },
            {
              "internalType": "bytes32",
              "name": "networkData",
              "type": "bytes32"
            },
            {
              "internalType": "bytes32",
              "name": "discountId",
              "type": "bytes32"
            },
            {
              "internalType": "bytes32",
              "name": "discountData",
              "type": "bytes32"
            },
            {
              "internalType": "bytes32",
              "name": "ref",
              "type": "bytes32"
            },
            {
              "internalType": "address",
              "name": "provider",
              "type": "address"
            },
            {
              "internalType": "enum ICaskSubscriptions.SubscriptionStatus",
              "name": "status",
              "type": "uint8"
            },
            {
              "internalType": "uint32",
              "name": "planId",
              "type": "uint32"
            },
            {
              "internalType": "uint32",
              "name": "createdAt",
              "type": "uint32"
            },
            {
              "internalType": "uint32",
              "name": "renewAt",
              "type": "uint32"
            },
            {
              "internalType": "uint32",
              "name": "minTermAt",
              "type": "uint32"
            },
            {
              "internalType": "uint32",
              "name": "cancelAt",
              "type": "uint32"
            },
            {
              "internalType": "string",
              "name": "cid",
              "type": "string"
            }
          ],
          "internalType": "struct ICaskSubscriptions.Subscription",
          "name": "subscription",
          "type": "tuple"
        },
        {
          "internalType": "address",
          "name": "currentOwner",
          "type": "address"
        }
      ],
      "stateMutability": "view",
      "type": "function"
    },
    {
      "inputs": [
        {
          "internalType": "address",
          "name": "_subscriptionPlans",
          "type": "address"
        }
      ],
      "name": "initialize",
      "outputs": [],
      "stateMutability": "nonpayable",
      "type": "function"
    },
    {
      "inputs": [
        {
          "internalType": "address",
          "name": "owner",
          "type": "address"
        },
        {
          "internalType": "address",
          "name": "operator",
          "type": "address"
        }
      ],
      "name": "isApprovedForAll",
      "outputs": [
        {
          "internalType": "bool",
          "name": "",
          "type": "bool"
        }
      ],
      "stateMutability": "view",
      "type": "function"
    },
    {
      "inputs": [
        {
          "internalType": "address",
          "name": "forwarder",
          "type": "address"
        }
      ],
      "name": "isTrustedForwarder",
      "outputs": [
        {
          "internalType": "bool",
          "name": "",
          "type": "bool"
        }
      ],
      "stateMutability": "view",
      "type": "function"
    },
    {
      "inputs": [
        {
          "internalType": "uint256",
          "name": "_subscriptionId",
          "type": "uint256"
        },
        {
          "internalType": "enum ICaskSubscriptions.ManagerCommand",
          "name": "_command",
          "type": "uint8"
        }
      ],
      "name": "managerCommand",
      "outputs": [],
      "stateMutability": "nonpayable",
      "type": "function"
    },
    {
      "inputs": [],
      "name": "name",
      "outputs": [
        {
          "internalType": "string",
          "name": "",
          "type": "string"
        }
      ],
      "stateMutability": "view",
      "type": "function"
    },
    {
      "inputs": [],
      "name": "owner",
      "outputs": [
        {
          "internalType": "address",
          "name": "",
          "type": "address"
        }
      ],
      "stateMutability": "view",
      "type": "function"
    },
    {
      "inputs": [
        {
          "internalType": "uint256",
          "name": "tokenId",
          "type": "uint256"
        }
      ],
      "name": "ownerOf",
      "outputs": [
        {
          "internalType": "address",
          "name": "",
          "type": "address"
        }
      ],
      "stateMutability": "view",
      "type": "function"
    },
    {
      "inputs": [],
      "name": "pause",
      "outputs": [],
      "stateMutability": "nonpayable",
      "type": "function"
    },
    {
      "inputs": [
        {
          "internalType": "uint256",
          "name": "_subscriptionId",
          "type": "uint256"
        }
      ],
      "name": "pauseSubscription",
      "outputs": [],
      "stateMutability": "nonpayable",
      "type": "function"
    },
    {
      "inputs": [],
      "name": "paused",
      "outputs": [
        {
          "internalType": "bool",
          "name": "",
          "type": "bool"
        }
      ],
      "stateMutability": "view",
      "type": "function"
    },
    {
      "inputs": [],
      "name": "renounceOwnership",
      "outputs": [],
      "stateMutability": "nonpayable",
      "type": "function"
    },
    {
      "inputs": [
        {
          "internalType": "uint256",
          "name": "_subscriptionId",
          "type": "uint256"
        }
      ],
      "name": "resumeSubscription",
      "outputs": [],
      "stateMutability": "nonpayable",
      "type": "function"
    },
    {
      "inputs": [
        {
          "internalType": "address",
          "name": "from",
          "type": "address"
        },
        {
          "internalType": "address",
          "name": "to",
          "type": "address"
        },
        {
          "internalType": "uint256",
          "name": "tokenId",
          "type": "uint256"
        }
      ],
      "name": "safeTransferFrom",
      "outputs": [],
      "stateMutability": "nonpayable",
      "type": "function"
    },
    {
      "inputs": [
        {
          "internalType": "address",
          "name": "from",
          "type": "address"
        },
        {
          "internalType": "address",
          "name": "to",
          "type": "address"
        },
        {
          "internalType": "uint256",
          "name": "tokenId",
          "type": "uint256"
        },
        {
          "internalType": "bytes",
          "name": "_data",
          "type": "bytes"
        }
      ],
      "name": "safeTransferFrom",
      "outputs": [],
      "stateMutability": "nonpayable",
      "type": "function"
    },
    {
      "inputs": [
        {
          "internalType": "address",
          "name": "operator",
          "type": "address"
        },
        {
          "internalType": "bool",
          "name": "approved",
          "type": "bool"
        }
      ],
      "name": "setApprovalForAll",
      "outputs": [],
      "stateMutability": "nonpayable",
      "type": "function"
    },
    {
      "inputs": [
        {
          "internalType": "address",
          "name": "_subscriptionManager",
          "type": "address"
        }
      ],
      "name": "setManager",
      "outputs": [],
      "stateMutability": "nonpayable",
      "type": "function"
    },
    {
      "inputs": [
        {
          "internalType": "address",
          "name": "_forwarder",
          "type": "address"
        }
      ],
      "name": "setTrustedForwarder",
      "outputs": [],
      "stateMutability": "nonpayable",
      "type": "function"
    },
    {
      "inputs": [],
      "name": "subscriptionManager",
      "outputs": [
        {
          "internalType": "contract ICaskSubscriptionManager",
          "name": "",
          "type": "address"
        }
      ],
      "stateMutability": "view",
      "type": "function"
    },
    {
      "inputs": [],
      "name": "subscriptionPlans",
      "outputs": [
        {
          "internalType": "contract ICaskSubscriptionPlans",
          "name": "",
          "type": "address"
        }
      ],
      "stateMutability": "view",
      "type": "function"
    },
    {
      "inputs": [
        {
          "internalType": "bytes4",
          "name": "interfaceId",
          "type": "bytes4"
        }
      ],
      "name": "supportsInterface",
      "outputs": [
        {
          "internalType": "bool",
          "name": "",
          "type": "bool"
        }
      ],
      "stateMutability": "view",
      "type": "function"
    },
    {
      "inputs": [],
      "name": "symbol",
      "outputs": [
        {
          "internalType": "string",
          "name": "",
          "type": "string"
        }
      ],
      "stateMutability": "view",
      "type": "function"
    },
    {
      "inputs": [
        {
          "internalType": "uint256",
          "name": "_subscriptionId",
          "type": "uint256"
        }
      ],
      "name": "tokenURI",
      "outputs": [
        {
          "internalType": "string",
          "name": "",
          "type": "string"
        }
      ],
      "stateMutability": "view",
      "type": "function"
    },
    {
      "inputs": [
        {
          "internalType": "address",
          "name": "from",
          "type": "address"
        },
        {
          "internalType": "address",
          "name": "to",
          "type": "address"
        },
        {
          "internalType": "uint256",
          "name": "tokenId",
          "type": "uint256"
        }
      ],
      "name": "transferFrom",
      "outputs": [],
      "stateMutability": "nonpayable",
      "type": "function"
    },
    {
      "inputs": [
        {
          "internalType": "address",
          "name": "newOwner",
          "type": "address"
        }
      ],
      "name": "transferOwnership",
      "outputs": [],
      "stateMutability": "nonpayable",
      "type": "function"
    },
    {
      "inputs": [],
      "name": "trustedForwarder",
      "outputs": [
        {
          "internalType": "address",
          "name": "",
          "type": "address"
        }
      ],
      "stateMutability": "view",
      "type": "function"
    },
    {
      "inputs": [],
      "name": "unpause",
      "outputs": [],
      "stateMutability": "nonpayable",
      "type": "function"
    },
    {
      "inputs": [],
      "name": "versionRecipient",
      "outputs": [
        {
          "internalType": "string",
          "name": "",
          "type": "string"
        }
      ],
      "stateMutability": "pure",
      "type": "function"
    }
  ],
  "transactionHash": "0x4d5b4e7f86cfd3c07529ec8f304d50c3f1115531812be86fbb6679209cdb0ff4",
  "args": [],
  "numDeployments": 1,
  "solcInputHash": "486bbacd6514b425807799e5f18df9c4",
  "bytecode": "0x60806040523480156200001157600080fd5b50600054610100900460ff166200002f5760005460ff161562000039565b62000039620000de565b620000a15760405162461bcd60e51b815260206004820152602e60248201527f496e697469616c697a61626c653a20636f6e747261637420697320616c72656160448201526d191e481a5b9a5d1a585b1a5e995960921b606482015260840160405180910390fd5b600054610100900460ff16158015620000c4576000805461ffff19166101011790555b8015620000d7576000805461ff00191690555b5062000102565b6000620000f630620000fc60201b6200281e1760201c565b15905090565b3b151590565b6159ad80620001126000396000f3fe608060405234801561001057600080fd5b506004361061027f5760003560e01c80638fe17b161161015c578063c0159f6f116100ce578063da74222811610087578063da742228146105eb578063dc311dd3146105fe578063e985e9c51461061f578063f268f53e1461065b578063f2fde38b14610685578063f6189f0e1461069857600080fd5b8063c0159f6f14610554578063c4d66de814610567578063c7a687bf1461057a578063c86e6954146105a4578063c87b56dd146105c5578063d0ebdbe7146105d857600080fd5b8063a22cb46511610120578063a22cb465146104e2578063a746df70146104f5578063ab5f8b7c14610508578063b88d4fde1461051b578063ba4bf1b61461052e578063bf158fd21461054157600080fd5b80638fe17b161461046d578063925fa591146104805780639377877d1461049357806395d89b41146104d257806398c0bce0146104da57600080fd5b8063486ff0cd116101f557806370a08231116101b957806370a0823114610415578063715018a6146104285780637da0a877146104305780637df7b2aa146104415780638456cb59146104545780638da5cb5b1461045c57600080fd5b8063486ff0cd1461039f578063572b6c05146103c05780635bdc4269146103e25780635c975abb146103f75780636352211e1461040257600080fd5b806313406f6f1161024757806313406f6f1461031457806323b872dd14610327578063291b9a3f1461033a5780633f4ba83a1461037157806341f23f0a1461037957806342842e0e1461038c57600080fd5b806301ffc9a714610284578063023a584e146102ac57806306fdde03146102c1578063081812fc146102d6578063095ea7b314610301575b600080fd5b610297610292366004614c35565b6106ab565b60405190151581526020015b60405180910390f35b6102bf6102ba366004614c52565b6106fd565b005b6102c961097a565b6040516102a39190614cc3565b6102e96102e4366004614c52565b610a0c565b6040516001600160a01b0390911681526020016102a3565b6102bf61030f366004614cf2565b610aa1565b6102bf610322366004614e5a565b610bc9565b6102bf610335366004614f5d565b610c2c565b610363610348366004614f99565b6001600160a01b0316600090815260ff602052604090205490565b6040519081526020016102a3565b6102bf610c64565b6102bf610387366004614c52565b610cb7565b6102bf61039a366004614f5d565b610f95565b6040805180820190915260058152640322e322e360dc1b60208201526102c9565b6102976103ce366004614f99565b6065546001600160a01b0391821691161490565b6103ea610fb0565b6040516102a39190614fb4565b60ca5460ff16610297565b6102e9610410366004614c52565b611007565b610363610423366004614f99565b61107e565b6102bf611105565b6065546001600160a01b03166102e9565b6102bf61044f366004614ff8565b611158565b6102bf6117d2565b6098546001600160a01b03166102e9565b60fd546102e9906001600160a01b031681565b6102bf61048e36600461502c565b611823565b6103636104a1366004615058565b6001600160a01b03821660009081526101046020908152604080832063ffffffff8516845290915290205492915050565b6102c9611b19565b60fe54610363565b6102bf6104f0366004615090565b611b28565b6102bf6105033660046150bc565b611b3e565b6103ea610516366004615184565b611bbd565b6102bf6105293660046151b7565b611d47565b6102bf61053c36600461521f565b611d86565b60fc546102e9906001600160a01b031681565b6102bf61056236600461526b565b611f87565b6102bf610575366004614f99565b611fba565b610363610588366004614f99565b6001600160a01b03166000908152610103602052604090205490565b6103636105b2366004614c52565b6000908152610101602052604090205490565b6102c96105d3366004614c52565b6120f2565b6102bf6105e6366004614f99565b612319565b6102bf6105f9366004614f99565b612384565b61061161060c366004614c52565b6123ee565b6040516102a3929190615332565b61029761062d36600461544e565b6001600160a01b039182166000908152606b6020908152604080832093909416825291909152205460ff1690565b610363610669366004614f99565b6001600160a01b03166000908152610102602052604090205490565b6102bf610693366004614f99565b612612565b6103ea6106a6366004615184565b6126c9565b60006001600160e01b031982166380ac58cd60e01b14806106dc57506001600160e01b03198216635b5e139f60e01b145b806106f757506301ffc9a760e01b6001600160e01b03198316145b92915050565b8061070781611007565b6001600160a01b0316610718612824565b6001600160a01b0316146107475760405162461bcd60e51b815260040161073e90615478565b60405180910390fd5b60ca5460ff161561076a5760405162461bcd60e51b815260040161073e90615497565b6000828152610100602052604090206003600582810154600160a01b900460ff169081111561079b5761079b6152fa565b146107d65760405162461bcd60e51b815260206004820152600b60248201526a085393d517d4105554d15160aa1b604482015260640161073e565b60006107e58260000154612833565b9050806080015163ffffffff16600014806108385750608081015160058301546001600160a01b03166000908152610104602090815260408083208286015163ffffffff90811685529252909120549116115b6108725760405162461bcd60e51b815260206004820152600b60248201526a214d41585f41435449564560a81b604482015260640161073e565b60058201805460ff60a01b198116600160a11b17918290556001600160a01b0316600090815261010460209081526040808320600160a81b90940463ffffffff1683529290529081208054600192906108cc9084906154d7565b9091555050600682015463ffffffff428116911610156108fe5760068201805463ffffffff19164263ffffffff161790555b600582015484906001600160a01b031661091782611007565b6004850154600586015460408051928352600160a81b90910463ffffffff1660208301526001600160a01b0392909216917f7ee0fc3eab7021686f891346ebbf5bab192d6f9995fcc66021f4551888dc148191015b60405180910390a450505050565b606060668054610989906154ef565b80601f01602080910402602001604051908101604052809291908181526020018280546109b5906154ef565b8015610a025780601f106109d757610100808354040283529160200191610a02565b820191906000526020600020905b8154815290600101906020018083116109e557829003601f168201915b5050505050905090565b6000818152606860205260408120546001600160a01b0316610a855760405162461bcd60e51b815260206004820152602c60248201527f4552433732313a20617070726f76656420717565727920666f72206e6f6e657860448201526b34b9ba32b73a103a37b5b2b760a11b606482015260840161073e565b506000908152606a60205260409020546001600160a01b031690565b6000610aac82611007565b9050806001600160a01b0316836001600160a01b03161415610b1a5760405162461bcd60e51b815260206004820152602160248201527f4552433732313a20617070726f76616c20746f2063757272656e74206f776e656044820152603960f91b606482015260840161073e565b806001600160a01b0316610b2c612824565b6001600160a01b03161480610b485750610b488161062d612824565b610bba5760405162461bcd60e51b815260206004820152603860248201527f4552433732313a20617070726f76652063616c6c6572206973206e6f74206f7760448201527f6e6572206e6f7220617070726f76656420666f7220616c6c0000000000000000606482015260840161073e565b610bc4838361290e565b505050565b60ca5460ff1615610bec5760405162461bcd60e51b815260040161073e90615497565b6000610bfe8b8b8b8b8a8a898961297c565b9050610c0a8785613072565b5060009081526101006020526040902060010195909555505050505050505050565b610c3d610c37612824565b82613198565b610c595760405162461bcd60e51b815260040161073e9061552a565b610bc483838361328f565b610c6c612824565b6001600160a01b0316610c876098546001600160a01b031690565b6001600160a01b031614610cad5760405162461bcd60e51b815260040161073e9061557b565b610cb561343a565b565b80610cc181611007565b6001600160a01b0316610cd2612824565b6001600160a01b03161480610d115750600081815261010060205260409020600501546001600160a01b0316610d06612824565b6001600160a01b0316145b610d2d5760405162461bcd60e51b815260040161073e90615478565b60ca5460ff1615610d505760405162461bcd60e51b815260040161073e90615497565b6000828152610100602052604090206003600582810154600160a01b900460ff1690811115610d8157610d816152fa565b14158015610dae575060058082810154600160a01b900460ff1690811115610dab57610dab6152fa565b14155b8015610dda57506004600582810154600160a01b900460ff1690811115610dd757610dd76152fa565b14155b8015610e0657506001600582810154600160a01b900460ff1690811115610e0357610e036152fa565b14155b610e225760405162461bcd60e51b815260040161073e906155b0565b6006810154600160201b900463ffffffff161580610e565750600681015463ffffffff600160201b90910481164290911610155b610e725760405162461bcd60e51b815260040161073e906155da565b6000610e818260000154612833565b90508060e00151610ec45760405162461bcd60e51b815260206004820152600d60248201526c214e4f545f5041555341424c4560981b604482015260640161073e565b60058201805460ff60a01b198116600360a01b17918290556001600160a01b0316600090815261010460209081526040808320600160a81b90940463ffffffff168352929052908120805460019290610f1e9084906155fd565b9091555050600582015484906001600160a01b0316610f3c82611007565b6004850154600586015460408051928352600160a81b90910463ffffffff1660208301526001600160a01b0392909216917f7afd3b59e582bb56b590409b808e910ae787056cb10b682b9bdefa44c8eb940d910161096c565b610bc483838360405180602001604052806000815250611d47565b606060fe805480602002602001604051908101604052809291908181526020018280548015610a0257602002820191906000526020600020905b815481526020019060010190808311610fea575050505050905090565b6000818152606860205260408120546001600160a01b0316806106f75760405162461bcd60e51b815260206004820152602960248201527f4552433732313a206f776e657220717565727920666f72206e6f6e657869737460448201526832b73a103a37b5b2b760b91b606482015260840161073e565b60006001600160a01b0382166110e95760405162461bcd60e51b815260206004820152602a60248201527f4552433732313a2062616c616e636520717565727920666f7220746865207a65604482015269726f206164647265737360b01b606482015260840161073e565b506001600160a01b031660009081526069602052604090205490565b61110d612824565b6001600160a01b03166111286098546001600160a01b031690565b6001600160a01b03161461114e5760405162461bcd60e51b815260040161073e9061557b565b610cb560006134d3565b60fc546001600160a01b031661116c612824565b6001600160a01b0316146111925760405162461bcd60e51b815260040161073e90615478565b60ca5460ff16156111b55760405162461bcd60e51b815260040161073e90615497565b60008281526101006020526040902060018260058111156111d8576111d86152fa565b141561137657600083815261010160205260409020548061123b5760405162461bcd60e51b815260206004820152601960248201527f21494e56414c49442870656e64696e67506c616e446174612900000000000000604482015260640161073e565b600061124682612833565b600584015490915085906001600160a01b031661126282611007565b6004860154600587015460208087015160028a01546040805195865263ffffffff600160a81b90950485169386019390935292169083015260608201526001600160a01b0391909116907fe17e61be0a4aac2f0b6fece72cedc2ab9ca554634d5af864a9282095206a0c2b9060800160405180910390a4602081015160058401805463ffffffff909216600160a81b0263ffffffff60a81b1990921691909117905581835560a081015161ffff1615611360578060a0015161ffff16816040015161132d9190615614565b61133d9063ffffffff16426154d7565b8360060160046101000a81548163ffffffff021916908363ffffffff1602179055505b5050506000918252506101016020526040812055565b600282600581111561138a5761138a6152fa565b141561158057600581018054600160a21b60ff60a01b198216179091556001600160a01b03166000908152610103602052604081208054600192906113d09084906155fd565b909155505060058101546001600160a01b038116600090815261010460209081526040808320600160a81b90940463ffffffff16835292905290812080546001929061141d9084906155fd565b9091555050600581015483906001600160a01b031661143b82611007565b6004840154600585015460408051928352600160a81b90910463ffffffff1660208301526001600160a01b0392909216917f58e4414596fd750dbb9dabfe65b97bf5add2061f5902f34e2b82a9c25bd79f98910160405180910390a460fe80546114a7906001906155fd565b815481106114b7576114b7615640565b906000526020600020015460fe610105600086815260200190815260200160002054815481106114e9576114e9615640565b600091825260208083209091019290925584815261010591829052604081205460fe8054919392918490811061152157611521615640565b906000526020600020015481526020019081526020016000208190555060fe80548061154f5761154f615656565b60008281526020808220830160001990810183905590920190925584825261010590526040812055610bc483613525565b6003826005811115611594576115946152fa565b141561162657600581018054600560a01b60ff60a01b1982161790915583906001600160a01b03166115c582611007565b6004840154600585015460408051928352600160a81b90910463ffffffff1660208301526001600160a01b0392909216917f44abb4f4529fdbcacc1ee98eef9318eaf9a12044d6925a2dc2c702959d9352f1910160405180910390a4505050565b600482600581111561163a5761163a6152fa565b14156117ac57600061164f8260000154612833565b90506001600583810154600160a01b900460ff1690811115611673576116736152fa565b14156116ef57600582015484906001600160a01b031661169282611007565b6004850154600586015460408051928352600160a81b90910463ffffffff1660208301526001600160a01b0392909216917ff42e506093cb49dad3d3349cf7a2b390140be665daecb2c820e903afd12b1df7910160405180910390a45b60058201805460ff60a01b1916600160a11b1790556040810151600683015461171e919063ffffffff1661566c565b60068301805463ffffffff191663ffffffff92909216919091179055600582015484906001600160a01b031661175382611007565b6004850154600586015460408051928352600160a81b90910463ffffffff1660208301526001600160a01b0392909216917fcdd2eee203a384f2c6e81f39021f7e3ebef3a21ccd0d0f6dd117387ab61b6b54910161096c565b60058260058111156117c0576117c06152fa565b1415610bc45760006003820155505050565b6117da612824565b6001600160a01b03166117f56098546001600160a01b031690565b6001600160a01b03161461181b5760405162461bcd60e51b815260040161073e9061557b565b610cb56135cc565b8161182d81611007565b6001600160a01b031661183e612824565b6001600160a01b0316148061187d5750600081815261010060205260409020600501546001600160a01b0316611872612824565b6001600160a01b0316145b6118995760405162461bcd60e51b815260040161073e90615478565b60ca5460ff16156118bc5760405162461bcd60e51b815260040161073e90615497565b6000838152610100602052604090206004600582810154600160a01b900460ff16908111156118ed576118ed6152fa565b141561190b5760405162461bcd60e51b815260040161073e906155b0565b4263ffffffff841661197c5761192085611007565b6001600160a01b0316611931612824565b6001600160a01b0316146119575760405162461bcd60e51b815260040161073e90615478565b60068201805463ffffffff60401b1916600160401b63ffffffff871602179055611a92565b8063ffffffff168463ffffffff1611611a22576006820154600160201b900463ffffffff1615806119c25750600682015463ffffffff600160201b909104811690821610155b6119de5760405162461bcd60e51b815260040161073e906155da565b60058201805460ff60a01b1916600160a21b179055600682018054600160401b63ffffffff84169081026bffffffff00000000ffffffff1990921617179055611a92565b6006820154600160201b900463ffffffff161580611a555750600682015463ffffffff600160201b909104811690851610155b611a715760405162461bcd60e51b815260040161073e906155da565b60068201805463ffffffff60401b1916600160401b63ffffffff8716021790555b600582015485906001600160a01b0316611aab82611007565b600485015460058601546040805192835263ffffffff600160a81b90920482166020840152908916908201526001600160a01b0391909116907fc54424be96a88104b924830a25713de0140a7b7048d7a26370e735b421b05786906060015b60405180910390a45050505050565b606060678054610989906154ef565b611b3a611b33612824565b8383613625565b5050565b87611b4881611007565b6001600160a01b0316611b59612824565b6001600160a01b031614611b7f5760405162461bcd60e51b815260040161073e90615478565b60ca5460ff1615611ba25760405162461bcd60e51b815260040161073e90615497565b611bb289898989898989896136f4565b505050505050505050565b6001600160a01b038316600090815260ff60205260409020546060908390811115611bfd57506001600160a01b038416600090815260ff60205260409020545b6001600160a01b038516600090815260ff60205260409020548310611c515760005b604051908082528060200260200182016040528015611c48578160200160208202803683370190505b50915050611d40565b60008167ffffffffffffffff811115611c6c57611c6c614d75565b604051908082528060200260200182016040528015611c95578160200160208202803683370190505b50905060005b8281108015611cca57506001600160a01b038716600090815260ff6020526040902054611cc886836154d7565b105b15611d3b576001600160a01b038716600090815260ff60205260409020611cf186836154d7565b81548110611d0157611d01615640565b9060005260206000200154828281518110611d1e57611d1e615640565b602090810291909101015280611d3381615694565b915050611c9b565b509150505b9392505050565b611d58611d52612824565b83613198565b611d745760405162461bcd60e51b815260040161073e9061552a565b611d8084848484613a9f565b50505050565b82611d9081611007565b6001600160a01b0316611da1612824565b6001600160a01b03161480611de05750600081815261010060205260409020600501546001600160a01b0316611dd5612824565b6001600160a01b0316145b611dfc5760405162461bcd60e51b815260040161073e90615478565b60ca5460ff1615611e1f5760405162461bcd60e51b815260040161073e90615497565b600084815261010060205260409020600281015415611e755760405162461bcd60e51b81526020600482015260126024820152710851561254d5125391d7d11254d0d3d5539560721b604482015260640161073e565b6000858152610101602052604090205415611ed75760008581526101016020526040812054611ea390612833565b60058301546020820151919250611ec7916001600160a01b03909116908787613ad2565b6003840155600283015550611f0a565b6005810154611eff906001600160a01b03811690600160a81b900463ffffffff168686613ad2565b600383015560028201555b600581015485906001600160a01b0316611f2382611007565b60048401546005850154600386015460408051938452600160a81b90920463ffffffff166020840152908201526001600160a01b0391909116907f23be24e2f5bdda1a165ef44cb730243e3f79e09d3c28086b166ab914c797506090606001611b0a565b60ca5460ff1615611faa5760405162461bcd60e51b815260040161073e90615497565b611bb2888888888888888861297c565b600054610100900460ff16611fd55760005460ff1615611fd9565b303b155b61203c5760405162461bcd60e51b815260206004820152602e60248201527f496e697469616c697a61626c653a20636f6e747261637420697320616c72656160448201526d191e481a5b9a5d1a585b1a5e995960921b606482015260840161073e565b600054610100900460ff1615801561205e576000805461ffff19166101011790555b612066613c51565b61206e613c88565b6120c2604051806040016040528060128152602001714361736b20537562736372697074696f6e7360701b815250604051806040016040528060088152602001674341534b5355425360c01b815250613cbf565b60fd80546001600160a01b0319166001600160a01b0384161790558015611b3a576000805461ff00191690555050565b6000818152606860205260409020546060906001600160a01b03166121715760405162461bcd60e51b815260206004820152602f60248201527f4552433732314d657461646174613a2055524920717565727920666f72206e6f60448201526e3732bc34b9ba32b73a103a37b5b2b760891b606482015260840161073e565b60008281526101006020908152604080832081516101a0810183528154815260018201549381019390935260028101549183019190915260038101546060830152600481015460808301526005808201546001600160a01b03811660a085015260c0840191600160a01b90910460ff16908111156121f1576121f16152fa565b6005811115612202576122026152fa565b8152600582015463ffffffff600160a81b820481166020840152600160c81b9091048116604083015260068301548082166060840152600160201b810482166080840152600160401b90041660a082015260078201805460c090920191612268906154ef565b80601f0160208091040260200160405190810160405280929190818152602001828054612294906154ef565b80156122e15780601f106122b6576101008083540402835291602001916122e1565b820191906000526020600020905b8154815290600101906020018083116122c457829003601f168201915b505050505081525050905080610180015160405160200161230291906156af565b604051602081830303815290604052915050919050565b612321612824565b6001600160a01b031661233c6098546001600160a01b031690565b6001600160a01b0316146123625760405162461bcd60e51b815260040161073e9061557b565b60fc80546001600160a01b0319166001600160a01b0392909216919091179055565b61238c612824565b6001600160a01b03166123a76098546001600160a01b031690565b6001600160a01b0316146123cd5760405162461bcd60e51b815260040161073e9061557b565b606580546001600160a01b0319166001600160a01b03831617905550565b50565b604080516101a08101825260008082526020820181905291810182905260608082018390526080820183905260a0820183905260c0820183905260e0820183905261010082018390526101208201839052610140820183905261016082019290925261018081019190915260008281526101006020908152604080832081516101a0810183528154815260018201549381019390935260028101549183019190915260038101546060830152600481015460808301526005808201546001600160a01b03811660a085015260c0840191600160a01b90910460ff16908111156124d9576124d96152fa565b60058111156124ea576124ea6152fa565b8152600582015463ffffffff600160a81b820481166020840152600160c81b9091048116604083015260068301548082166060840152600160201b810482166080840152600160401b90041660a082015260078201805460c090920191612550906154ef565b80601f016020809104026020016040519081016040528092919081815260200182805461257c906154ef565b80156125c95780601f1061259e576101008083540402835291602001916125c9565b820191906000526020600020905b8154815290600101906020018083116125ac57829003601f168201915b50505050508152505091506125f5836000908152606860205260409020546001600160a01b0316151590565b1561260a5761260383611007565b9050915091565b506000915091565b61261a612824565b6001600160a01b03166126356098546001600160a01b031690565b6001600160a01b03161461265b5760405162461bcd60e51b815260040161073e9061557b565b6001600160a01b0381166126c05760405162461bcd60e51b815260206004820152602660248201527f4f776e61626c653a206e6577206f776e657220697320746865207a65726f206160448201526564647265737360d01b606482015260840161073e565b6123eb816134d3565b6001600160a01b03831660009081526101026020526040902054606090839081111561270b57506001600160a01b038416600090815261010260205260409020545b6001600160a01b038516600090815261010260205260409020548310612732576000611c1f565b60008167ffffffffffffffff81111561274d5761274d614d75565b604051908082528060200260200182016040528015612776578160200160208202803683370190505b50905060005b82811080156127ac57506001600160a01b038716600090815261010260205260409020546127aa86836154d7565b105b15611d3b576001600160a01b0387166000908152610102602052604090206127d486836154d7565b815481106127e4576127e4615640565b906000526020600020015482828151811061280157612801615640565b60209081029190910101528061281681615694565b91505061277c565b3b151590565b600061282e613d00565b905090565b6040805161012081018252600080825260208201819052918101829052606081018290526080810182905260a0810182905260c0810182905260e0810182905261010081019190915250604080516101208101825260a083811c8252608084811c63ffffffff908116602080860191909152606087811c8316868801529587901c8216958501959095529385901c90931692820192909252601083901c61ffff1691810191909152600882901c60ff1660c082015260f89190911b600160f81b8181161460e0830152600160f91b9081161461010082015290565b6000818152606a6020526040902080546001600160a01b0319166001600160a01b038416908117909155819061294382611007565b6001600160a01b03167f8c5be1e5ebec7d5bd14f71427d1e84f3dd0314c0f7b2291e5b200ac8c7c3b92560405160405180910390a45050565b600060048810156129c85760405162461bcd60e51b815260206004820152601660248201527521494e56414c494428706c616e50726f6f664c656e2960501b604482015260640161073e565b600060038710612a3057612a298a8a60008181106129e8576129e8615640565b90506020020135868c8c6003818110612a0357612a03615640565b905060200201358b8b6002818110612a1d57612a1d615640565b90506020020135613d34565b9050612a74565b612a718a8a6000818110612a4657612a46615640565b90506020020135868c8c6003818110612a6157612a61615640565b905060200201356000801b613d34565b90505b612a7e8a8a613db2565b612a9a5760405162461bcd60e51b815260040161073e906156de565b6000612abe8b8b6002818110612ab257612ab2615640565b90506020020135612833565b90506000612b188c8c6000818110612ad857612ad8615640565b905060200201358d8d6001818110612af257612af2615640565b905060200201358e8e6002818110612b0c57612b0c615640565b90506020020135613e79565b9050816080015163ffffffff1660001480612b67575060808201516001600160a01b0384166000908152610104602090815260408083208287015163ffffffff90811685529252909120549116115b612ba15760405162461bcd60e51b815260206004820152600b60248201526a214d41585f41435449564560a81b604482015260640161073e565b600060fd54602084015160405163b6ab359f60e01b81526001600160a01b03878116600483015263ffffffff909216602482015291169063b6ab359f9060440160206040518083038186803b158015612bf957600080fd5b505afa158015612c0d573d6000803e3d6000fd5b505050506040513d601f19601f82011682018060405250810190612c31919061570b565b6002811115612c4257612c426152fa565b14612c7e5760405162461bcd60e51b815260206004820152600c60248201526b085393d517d153905093115160a21b604482015260640161073e565b612c8f612c89612824565b82613ee4565b6000818152610100602090815260409091206005810180549285015163ffffffff16600160a81b02600164ffffffff0160a01b03199093166001600160a01b0387161792909217909155428d8d6001818110612ced57612ced615640565b60200291909101356004840155508d8d6002818110612d0e57612d0e615640565b602002919091013583555060068201805463ffffffff60401b1916600160401b63ffffffff8d1602179055612d47600783018989614b12565b5060058201805463ffffffff60c81b1916600160c81b63ffffffff84160217905560a084015161ffff1615612dbb578360a0015161ffff168460400151612d8e9190615614565b612d98908261566c565b8260060160046101000a81548163ffffffff021916908363ffffffff1602179055505b606084015163ffffffff1615612e105760058201805460ff60a01b1916600160a01b1790556060840151612def908261566c565b60068301805463ffffffff191663ffffffff92909216919091179055612e3d565b60058201805460ff60a01b1916600160a11b17905560068201805463ffffffff191663ffffffff83161790555b60058201546020850151612e5c916001600160a01b0316908e8e613ad2565b60038401556002830155600682015463ffffffff808316911611612ed95760fc5460405163d71bb37b60e01b8152600481018590526001600160a01b039091169063d71bb37b90602401600060405180830381600087803b158015612ec057600080fd5b505af1158015612ed4573d6000803e3d6000fd5b505050505b600582015483906001600160a01b0316612ef282611007565b60048501546005860154600287015460408051938452600160a81b90920463ffffffff166020840152908201526001600160a01b0391909116907f9fb45eab820cdd481e286e8c699e1c01031bb833c58f7cfba3ca8d1db6d98d819060600160405180910390a460ff6000612f65612824565b6001600160a01b0390811682526020808301939093526040918201600090812080546001818101835591835285832001889055918916808252610102855283822080548085018255908352858320018890558152610103909352908220805491929091612fd39084906154d7565b90915550506001600160a01b0385166000908152610104602090815260408083208783015163ffffffff16845290915281208054600192906130169084906154d7565b909155505060fe8054600085815261010560205260408120829055600182018355919091527f54075df80ec1ae6ac9100e1fd0ebf3246c17f5c933137af392011f4c5f61513a0183905550909c9b505050505050505050505050565b6000806130f5836130ef8660405160200161308f91815260200190565b60408051601f1981840301815282825280516020918201207f19457468657265756d205369676e6564204d6573736167653a0a33320000000084830152603c8085019190915282518085039091018152605c909301909152815191012090565b90613efe565b905060006131358560408051808201909152600080825260208201525060408051808201909152606082901c815260509190911c61ffff16602082015290565b9050816001600160a01b031681600001516001600160a01b0316146131905760405162461bcd60e51b815260206004820152601160248201527021494e56414c4944286e6574776f726b2960781b604482015260640161073e565b509392505050565b6000818152606860205260408120546001600160a01b03166132115760405162461bcd60e51b815260206004820152602c60248201527f4552433732313a206f70657261746f7220717565727920666f72206e6f6e657860448201526b34b9ba32b73a103a37b5b2b760a11b606482015260840161073e565b600061321c83611007565b9050806001600160a01b0316846001600160a01b031614806132575750836001600160a01b031661324c84610a0c565b6001600160a01b0316145b8061328757506001600160a01b038082166000908152606b602090815260408083209388168352929052205460ff165b949350505050565b826001600160a01b03166132a282611007565b6001600160a01b03161461330a5760405162461bcd60e51b815260206004820152602960248201527f4552433732313a207472616e73666572206f6620746f6b656e2074686174206960448201526839903737ba1037bbb760b91b606482015260840161073e565b6001600160a01b03821661336c5760405162461bcd60e51b8152602060048201526024808201527f4552433732313a207472616e7366657220746f20746865207a65726f206164646044820152637265737360e01b606482015260840161073e565b613377838383613f1a565b61338260008261290e565b6001600160a01b03831660009081526069602052604081208054600192906133ab9084906155fd565b90915550506001600160a01b03821660009081526069602052604081208054600192906133d99084906154d7565b909155505060008181526068602052604080822080546001600160a01b0319166001600160a01b0386811691821790925591518493918716917fddf252ad1be2c89b69c2b068fc378daa952ba7f163c4a11628f55a4df523b3ef91a4505050565b60ca5460ff166134835760405162461bcd60e51b815260206004820152601460248201527314185d5cd8589b194e881b9bdd081c185d5cd95960621b604482015260640161073e565b60ca805460ff191690557f5db9ee0a495bf2e6ff9c91a7834c1ba4fdd244a5e8aa4e537bd38aeae4b073aa6134b6612824565b6040516001600160a01b03909116815260200160405180910390a1565b609880546001600160a01b038381166001600160a01b0319831681179093556040519116919082907f8be0079c531659141344cd1fd0a4f28419497f9722a3daafe3b4186f6b6457e090600090a35050565b600061353082611007565b905061353e81600084613f1a565b61354960008361290e565b6001600160a01b03811660009081526069602052604081208054600192906135729084906155fd565b909155505060008281526068602052604080822080546001600160a01b0319169055518391906001600160a01b038416907fddf252ad1be2c89b69c2b068fc378daa952ba7f163c4a11628f55a4df523b3ef908390a45050565b60ca5460ff16156135ef5760405162461bcd60e51b815260040161073e90615497565b60ca805460ff191660011790557f62e78cea01bee320cd4e420270b5ea74000d11b0c9f74754ebdbfc544b05a2586134b6612824565b816001600160a01b0316836001600160a01b031614156136875760405162461bcd60e51b815260206004820152601960248201527f4552433732313a20617070726f766520746f2063616c6c657200000000000000604482015260640161073e565b6001600160a01b038381166000818152606b6020908152604080832094871680845294825291829020805460ff191686151590811790915591519182527f17307eab39ab6107e8899845ad3d59bd9653f200f220920489ca2b5937696c31910160405180910390a3505050565b60048610156137155760405162461bcd60e51b815260040161073e906156de565b600088815261010060205260409020600681015463ffffffff4281169116116137705760405162461bcd60e51b815260206004820152600d60248201526c085391515117d491539155d053609a1b604482015260640161073e565b6002600582810154600160a01b900460ff1690811115613792576137926152fa565b14806137bd57506001600582810154600160a01b900460ff16908111156137bb576137bb6152fa565b145b6137d95760405162461bcd60e51b815260040161073e906155b0565b6000600386106138355761382e898960008181106137f9576137f9615640565b90506020020135868b8b600381811061381457613814615640565b905060200201358a8a6002818110612a1d57612a1d615640565b9050613869565b6138668989600081811061384b5761384b615640565b90506020020135868b8b6003818110612a6157612a61615640565b90505b6138738989613db2565b61388f5760405162461bcd60e51b815260040161073e906156de565b60006138a78a8a6002818110612ab257612ab2615640565b60058401549091506001600160a01b038381169116146138fe5760405162461bcd60e51b815260206004820152601260248201527121494e56414c49442870726f76696465722960701b604482015260640161073e565b61390c600784018686614b12565b506002830154158015613920575060038710155b8015613942575060008888828161393957613939615640565b90506020020135115b156139715760058301546020820151613966916001600160a01b0316908a8a613ad2565b600385015560028401555b60208101516005840154600160a81b900463ffffffff908116911614613a9257600060fd54602083015160405163b6ab359f60e01b81526001600160a01b03868116600483015263ffffffff909216602482015291169063b6ab359f9060440160206040518083038186803b1580156139e957600080fd5b505afa1580156139fd573d6000803e3d6000fd5b505050506040513d601f19601f82011682018060405250810190613a21919061570b565b6002811115613a3257613a326152fa565b14613a6e5760405162461bcd60e51b815260206004820152600c60248201526b085393d517d153905093115160a21b604482015260640161073e565b613a928b828c8c6002818110613a8657613a86615640565b9050602002013561401c565b5050505050505050505050565b613aaa84848461328f565b613ab684848484614109565b611d805760405162461bcd60e51b815260040161073e9061572c565b600080600383118015613afb5750600084848281613af257613af2615640565b90506020020135115b15613c4157600084846000818110613b1557613b15615640565b90506020020135604051602001613b2e91815260200190565b60408051601f19818403018152919052805160209091012060fd549091506001600160a01b0316634cfa66ff88888489896001818110613b7057613b70615640565b905060200201358a8a6002818110613b8a57613b8a615640565b60200291909101359050613ba18b6003818f61577e565b6040518863ffffffff1660e01b8152600401613bc397969594939291906157e2565b602060405180830381600087803b158015613bdd57600080fd5b505af1158015613bf1573d6000803e3d6000fd5b505050506040513d601f19601f82011682018060405250810190613c15919061582f565b15613c3f578085856001818110613c2e57613c2e615640565b905060200201359250925050613c48565b505b5060009050805b94509492505050565b600054610100900460ff16613c785760405162461bcd60e51b815260040161073e9061584c565b613c8061421a565b610cb5614241565b600054610100900460ff16613caf5760405162461bcd60e51b815260040161073e9061584c565b613cb761421a565b610cb5614278565b600054610100900460ff16613ce65760405162461bcd60e51b815260040161073e9061584c565b613cee61421a565b613cf661421a565b611b3a82826142ab565b600060143610801590613d1d57506065546001600160a01b031633145b15613d2f575060131936013560601c90565b503390565b600080613d5a856130ef868660405160200161308f929190918252602082015260400190565b90506001600160a01b0386811690821614613da95760405162461bcd60e51b815260206004820152600f60248201526e21494e56414c49442870726f6f662960881b604482015260640161073e565b95945050505050565b60fd546000906001600160a01b03166371ce3e6684846002818110613dd957613dd9615640565b9050602002013585856003818110613df357613df3615640565b60200291909101359050613e0a866004818a61577e565b6040518563ffffffff1660e01b8152600401613e299493929190615897565b60206040518083038186803b158015613e4157600080fd5b505afa158015613e55573d6000803e3d6000fd5b505050506040513d601f19601f82011682018060405250810190611d40919061582f565b6000613e83612824565b60405160609190911b6bffffffffffffffffffffffff191660208201526034810185905260548101839052607481018490524360948201524260b482015260d40160408051601f198184030181529190528051602090910120949350505050565b611b3a8282604051806020016040528060008152506142f9565b6000806000613f0d858561432c565b915091506131908161439c565b6001600160a01b03831615801590613f3a57506001600160a01b03821615155b15610bc4576000818152610100602052604081208054909190613f5c90612833565b9050806101000151613fa55760405162461bcd60e51b8152602060048201526012602482015271214e4f545f5452414e534645525241424c4560701b604482015260640161073e565b6006820154600160201b900463ffffffff161580613fd95750600682015463ffffffff600160201b90910481164290911610155b613ff55760405162461bcd60e51b815260040161073e906155da565b506006018054600160401b63ffffffff82160263ffffffff60401b19909116179055505050565b600083815261010060205260408120805490919061403990612833565b90506001600583810154600160a01b900460ff169081111561405d5761405d6152fa565b14156140745761406f85828686614557565b614102565b6040810151815161408b9163ffffffff16906158c1565b604085015185516140a29163ffffffff16906158c1565b14156140b35761406f8585856145d2565b604081015181516140ca9163ffffffff16906158c1565b604085015185516140e19163ffffffff16906158c1565b11156140f35761406f858286866146fb565b61410285856020015185614811565b5050505050565b60006001600160a01b0384163b1561421257836001600160a01b031663150b7a02614132612824565b8786866040518563ffffffff1660e01b815260040161415494939291906158e3565b602060405180830381600087803b15801561416e57600080fd5b505af192505050801561419e575060408051601f3d908101601f1916820190925261419b91810190615916565b60015b6141f8573d8080156141cc576040519150601f19603f3d011682016040523d82523d6000602084013e6141d1565b606091505b5080516141f05760405162461bcd60e51b815260040161073e9061572c565b805181602001fd5b6001600160e01b031916630a85bd0160e11b149050613287565b506001613287565b600054610100900460ff16610cb55760405162461bcd60e51b815260040161073e9061584c565b600054610100900460ff166142685760405162461bcd60e51b815260040161073e9061584c565b610cb5614273612824565b6134d3565b600054610100900460ff1661429f5760405162461bcd60e51b815260040161073e9061584c565b60ca805460ff19169055565b600054610100900460ff166142d25760405162461bcd60e51b815260040161073e9061584c565b81516142e5906066906020850190614b96565b508051610bc4906067906020840190614b96565b61430383836148ab565b6143106000848484614109565b610bc45760405162461bcd60e51b815260040161073e9061572c565b6000808251604114156143635760208301516040840151606085015160001a614357878285856149f9565b94509450505050614395565b82516040141561438d5760208301516040840151614382868383614ae3565b935093505050614395565b506000905060025b9250929050565b60008160048111156143b0576143b06152fa565b14156143b95750565b60018160048111156143cd576143cd6152fa565b141561441b5760405162461bcd60e51b815260206004820152601860248201527f45434453413a20696e76616c6964207369676e61747572650000000000000000604482015260640161073e565b600281600481111561442f5761442f6152fa565b141561447d5760405162461bcd60e51b815260206004820152601f60248201527f45434453413a20696e76616c6964207369676e6174757265206c656e67746800604482015260640161073e565b6003816004811115614491576144916152fa565b14156144ea5760405162461bcd60e51b815260206004820152602260248201527f45434453413a20696e76616c6964207369676e6174757265202773272076616c604482015261756560f01b606482015260840161073e565b60048160048111156144fe576144fe6152fa565b14156123eb5760405162461bcd60e51b815260206004820152602260248201527f45434453413a20696e76616c6964207369676e6174757265202776272076616c604482015261756560f01b606482015260840161073e565b600084815261010060205260409020606080840151908501516006830154614585919063ffffffff16615933565b61458f919061566c565b60068201805463ffffffff191663ffffffff92831690811790915542909116106145cb5760068101805463ffffffff19164263ffffffff161790555b6141028584845b600083815261010060205260409020600581015484906001600160a01b03166145fa82611007565b6004840154600585015460208089015160028801546040805195865263ffffffff600160a81b90950485169386019390935292169083015260608201526001600160a01b0391909116907fe17e61be0a4aac2f0b6fece72cedc2ab9ca554634d5af864a9282095206a0c2b9060800160405180910390a460a083015161ffff16156146ca578260a0015161ffff1683604001516146979190615614565b6146a79063ffffffff16426154d7565b8160060160046101000a81548163ffffffff021916908363ffffffff1602179055505b60209092015160058301805463ffffffff909216600160a81b0263ffffffff60a81b19909216919091179055905550565b600084815261010060205260408120600681015490919061472390429063ffffffff16615933565b63ffffffff16856040015163ffffffff16866000015161474391906158c1565b6040860151865161475a9163ffffffff16906158c1565b61476491906155fd565b61476e9190615958565b60fc549091506001600160a01b031663c54c58c461478b88611007565b600585015460405160e084901b6001600160e01b03191681526001600160a01b039283166004820152911660248201526044810189905260648101849052608401600060405180830381600087803b1580156147e657600080fd5b505af11580156147fa573d6000803e3d6000fd5b505050506148098685856145d2565b505050505050565b600083815261010060209081526040808320610101909252909120829055600581015484906001600160a01b031661484882611007565b600484015460058501546040805192835263ffffffff600160a81b90920482166020840152908816908201526001600160a01b0391909116907f3d051466fe86e1bd842d67e98121d69a930caccf48fc2ae2c83119b5a7b71af69060600161096c565b6001600160a01b0382166149015760405162461bcd60e51b815260206004820181905260248201527f4552433732313a206d696e7420746f20746865207a65726f2061646472657373604482015260640161073e565b6000818152606860205260409020546001600160a01b0316156149665760405162461bcd60e51b815260206004820152601c60248201527f4552433732313a20746f6b656e20616c7265616479206d696e74656400000000604482015260640161073e565b61497260008383613f1a565b6001600160a01b038216600090815260696020526040812080546001929061499b9084906154d7565b909155505060008181526068602052604080822080546001600160a01b0319166001600160a01b03861690811790915590518392907fddf252ad1be2c89b69c2b068fc378daa952ba7f163c4a11628f55a4df523b3ef908290a45050565b6000807f7fffffffffffffffffffffffffffffff5d576e7357a4501ddfe92f46681b20a0831115614a305750600090506003613c48565b8460ff16601b14158015614a4857508460ff16601c14155b15614a595750600090506004613c48565b6040805160008082526020820180845289905260ff881692820192909252606081018690526080810185905260019060a0016020604051602081039080840390855afa158015614aad573d6000803e3d6000fd5b5050604051601f1901519150506001600160a01b038116614ad657600060019250925050613c48565b9660009650945050505050565b6000806001600160ff1b03831660ff84901c601b01614b04878288856149f9565b935093505050935093915050565b828054614b1e906154ef565b90600052602060002090601f016020900481019282614b405760008555614b86565b82601f10614b595782800160ff19823516178555614b86565b82800160010185558215614b86579182015b82811115614b86578235825591602001919060010190614b6b565b50614b92929150614c0a565b5090565b828054614ba2906154ef565b90600052602060002090601f016020900481019282614bc45760008555614b86565b82601f10614bdd57805160ff1916838001178555614b86565b82800160010185558215614b86579182015b82811115614b86578251825591602001919060010190614bef565b5b80821115614b925760008155600101614c0b565b6001600160e01b0319811681146123eb57600080fd5b600060208284031215614c4757600080fd5b8135611d4081614c1f565b600060208284031215614c6457600080fd5b5035919050565b60005b83811015614c86578181015183820152602001614c6e565b83811115611d805750506000910152565b60008151808452614caf816020860160208601614c6b565b601f01601f19169290920160200192915050565b602081526000611d406020830184614c97565b80356001600160a01b0381168114614ced57600080fd5b919050565b60008060408385031215614d0557600080fd5b614d0e83614cd6565b946020939093013593505050565b60008083601f840112614d2e57600080fd5b50813567ffffffffffffffff811115614d4657600080fd5b6020830191508360208260051b850101111561439557600080fd5b803563ffffffff81168114614ced57600080fd5b634e487b7160e01b600052604160045260246000fd5b600082601f830112614d9c57600080fd5b813567ffffffffffffffff80821115614db757614db7614d75565b604051601f8301601f19908116603f01168101908282118183101715614ddf57614ddf614d75565b81604052838152866020858801011115614df857600080fd5b836020870160208301376000602085830101528094505050505092915050565b60008083601f840112614e2a57600080fd5b50813567ffffffffffffffff811115614e4257600080fd5b60208301915083602082850101111561439557600080fd5b60008060008060008060008060008060e08b8d031215614e7957600080fd5b8a3567ffffffffffffffff80821115614e9157600080fd5b614e9d8e838f01614d1c565b909c509a5060208d0135915080821115614eb657600080fd5b614ec28e838f01614d1c565b909a50985060408d01359750889150614edd60608e01614d61565b965060808d0135915080821115614ef357600080fd5b614eff8e838f01614d8b565b955060a08d0135915080821115614f1557600080fd5b614f218e838f01614d8b565b945060c08d0135915080821115614f3757600080fd5b50614f448d828e01614e18565b915080935050809150509295989b9194979a5092959850565b600080600060608486031215614f7257600080fd5b614f7b84614cd6565b9250614f8960208501614cd6565b9150604084013590509250925092565b600060208284031215614fab57600080fd5b611d4082614cd6565b6020808252825182820181905260009190848201906040850190845b81811015614fec57835183529284019291840191600101614fd0565b50909695505050505050565b6000806040838503121561500b57600080fd5b8235915060208301356006811061502157600080fd5b809150509250929050565b6000806040838503121561503f57600080fd5b8235915061504f60208401614d61565b90509250929050565b6000806040838503121561506b57600080fd5b61507483614cd6565b915061504f60208401614d61565b80151581146123eb57600080fd5b600080604083850312156150a357600080fd5b6150ac83614cd6565b9150602083013561502181615082565b60008060008060008060008060a0898b0312156150d857600080fd5b88359750602089013567ffffffffffffffff808211156150f757600080fd5b6151038c838d01614d1c565b909950975060408b013591508082111561511c57600080fd5b6151288c838d01614d1c565b909750955060608b013591508082111561514157600080fd5b61514d8c838d01614d8b565b945060808b013591508082111561516357600080fd5b506151708b828c01614e18565b999c989b5096995094979396929594505050565b60008060006060848603121561519957600080fd5b6151a284614cd6565b95602085013595506040909401359392505050565b600080600080608085870312156151cd57600080fd5b6151d685614cd6565b93506151e460208601614cd6565b925060408501359150606085013567ffffffffffffffff81111561520757600080fd5b61521387828801614d8b565b91505092959194509250565b60008060006040848603121561523457600080fd5b83359250602084013567ffffffffffffffff81111561525257600080fd5b61525e86828701614d1c565b9497909650939450505050565b60008060008060008060008060a0898b03121561528757600080fd5b883567ffffffffffffffff8082111561529f57600080fd5b6152ab8c838d01614d1c565b909a50985060208b01359150808211156152c457600080fd5b6152d08c838d01614d1c565b90985096508691506152e460408c01614d61565b955060608b013591508082111561514157600080fd5b634e487b7160e01b600052602160045260246000fd5b6006811061532e57634e487b7160e01b600052602160045260246000fd5b9052565b60408152825160408201526020830151606082015260408301516080820152606083015160a0820152608083015160c0820152600060a084015161538160e08401826001600160a01b03169052565b5060c084015161010061539681850183615310565b60e086015191506101206153b18186018463ffffffff169052565b908601519150610140906153cc8583018463ffffffff169052565b86015191506101606153e58582018463ffffffff169052565b908601519150610180906154008583018463ffffffff169052565b86015191506101a06154198582018463ffffffff169052565b818701519250806101c086015250506154366101e0840182614c97565b915050611d4060208301846001600160a01b03169052565b6000806040838503121561546157600080fd5b61546a83614cd6565b915061504f60208401614cd6565b60208082526005908201526404282aaa8960db1b604082015260600190565b60208082526010908201526f14185d5cd8589b194e881c185d5cd95960821b604082015260600190565b634e487b7160e01b600052601160045260246000fd5b600082198211156154ea576154ea6154c1565b500190565b600181811c9082168061550357607f821691505b6020821081141561552457634e487b7160e01b600052602260045260246000fd5b50919050565b60208082526031908201527f4552433732313a207472616e736665722063616c6c6572206973206e6f74206f6040820152701ddb995c881b9bdc88185c1c1c9bdd9959607a1b606082015260800190565b6020808252818101527f4f776e61626c653a2063616c6c6572206973206e6f7420746865206f776e6572604082015260600190565b60208082526010908201526f21494e56414c4944287374617475732960801b604082015260600190565b602080825260099082015268214d494e5f5445524d60b81b604082015260600190565b60008282101561560f5761560f6154c1565b500390565b600063ffffffff80831681851681830481118215151615615637576156376154c1565b02949350505050565b634e487b7160e01b600052603260045260246000fd5b634e487b7160e01b600052603160045260246000fd5b600063ffffffff80831681851680830382111561568b5761568b6154c1565b01949350505050565b60006000198214156156a8576156a86154c1565b5060010190565b66697066733a2f2f60c81b8152600082516156d1816007850160208701614c6b565b9190910160070192915050565b60208082526013908201527221494e56414c494428706c616e50726f6f662960681b604082015260600190565b60006020828403121561571d57600080fd5b815160038110611d4057600080fd5b60208082526032908201527f4552433732313a207472616e7366657220746f206e6f6e20455243373231526560408201527131b2b4bb32b91034b6b83632b6b2b73a32b960711b606082015260800190565b6000808585111561578e57600080fd5b8386111561579b57600080fd5b5050600583901b0193919092039150565b81835260006001600160fb1b038311156157c557600080fd5b8260051b8083602087013760009401602001938452509192915050565b60018060a01b038816815263ffffffff8716602082015285604082015284606082015283608082015260c060a0820152600061582260c0830184866157ac565b9998505050505050505050565b60006020828403121561584157600080fd5b8151611d4081615082565b6020808252602b908201527f496e697469616c697a61626c653a20636f6e7472616374206973206e6f74206960408201526a6e697469616c697a696e6760a81b606082015260800190565b8481528360208201526060604082015260006158b76060830184866157ac565b9695505050505050565b6000826158de57634e487b7160e01b600052601260045260246000fd5b500490565b6001600160a01b03858116825284166020820152604081018390526080606082018190526000906158b790830184614c97565b60006020828403121561592857600080fd5b8151611d4081614c1f565b600063ffffffff83811690831681811015615950576159506154c1565b039392505050565b6000816000190483118215151615615972576159726154c1565b50029056fea26469706673582212202fde09c4c09b9e26f37ac97308c5dc31f6e8271e6305e64ec17eb4f99367417564736f6c63430008090033",
  "devdoc": {
    "kind": "dev",
    "methods": {
      "approve(address,uint256)": {
        "details": "See {IERC721-approve}."
      },
      "balanceOf(address)": {
        "details": "See {IERC721-balanceOf}."
      },
      "constructor": {
        "custom:oz-upgrades-unsafe-allow": "constructor"
      },
      "getApproved(uint256)": {
        "details": "See {IERC721-getApproved}."
      },
      "isApprovedForAll(address,address)": {
        "details": "See {IERC721-isApprovedForAll}."
      },
      "name()": {
        "details": "See {IERC721Metadata-name}."
      },
      "owner()": {
        "details": "Returns the address of the current owner."
      },
      "ownerOf(uint256)": {
        "details": "See {IERC721-ownerOf}."
      },
      "paused()": {
        "details": "Returns true if the contract is paused, and false otherwise."
      },
      "renounceOwnership()": {
        "details": "Leaves the contract without owner. It will not be possible to call `onlyOwner` functions anymore. Can only be called by the current owner. NOTE: Renouncing ownership will leave the contract without an owner, thereby removing any functionality that is only available to the owner."
      },
      "safeTransferFrom(address,address,uint256)": {
        "details": "See {IERC721-safeTransferFrom}."
      },
      "safeTransferFrom(address,address,uint256,bytes)": {
        "details": "See {IERC721-safeTransferFrom}."
      },
      "setApprovalForAll(address,bool)": {
        "details": "See {IERC721-setApprovalForAll}."
      },
      "supportsInterface(bytes4)": {
        "details": "See {IERC165-supportsInterface}."
      },
      "symbol()": {
        "details": "See {IERC721Metadata-symbol}."
      },
      "transferFrom(address,address,uint256)": {
        "details": "See {IERC721-transferFrom}."
      },
      "transferOwnership(address)": {
        "details": "Transfers ownership of the contract to a new account (`newOwner`). Can only be called by the current owner."
      }
    },
    "stateVariables": {
      "consumerSubscriptions": {
        "details": "Maps for consumer to list of subscriptions. "
      },
      "providerSubscriptions": {
        "details": "Maps for provider to list of subscriptions and plans. "
      },
      "subscriptionManager": {
        "details": "contract to manage subscription plan definitions. "
      },
      "subscriptionPlans": {
        "details": "contract to manage subscription plan definitions. "
      }
    },
    "version": 1
  },
  "userdoc": {
    "kind": "user",
    "methods": {
      "isTrustedForwarder(address)": {
        "notice": "return if the forwarder is trusted to forward relayed transactions to us. the forwarder is required to verify the sender's signature, and verify the call is not a replay."
      }
    },
    "version": 1
  },
  "storageLayout": {
    "storage": [
      {
        "astId": 327,
        "contract": "contracts/protocol/CaskSubscriptions.sol:CaskSubscriptions",
        "label": "_initialized",
        "offset": 0,
        "slot": "0",
        "type": "t_bool"
      },
      {
        "astId": 330,
        "contract": "contracts/protocol/CaskSubscriptions.sol:CaskSubscriptions",
        "label": "_initializing",
        "offset": 1,
        "slot": "0",
        "type": "t_bool"
      },
      {
        "astId": 2551,
        "contract": "contracts/protocol/CaskSubscriptions.sol:CaskSubscriptions",
        "label": "__gap",
        "offset": 0,
        "slot": "1",
        "type": "t_array(t_uint256)50_storage"
      },
      {
        "astId": 2800,
        "contract": "contracts/protocol/CaskSubscriptions.sol:CaskSubscriptions",
        "label": "__gap",
        "offset": 0,
        "slot": "51",
        "type": "t_array(t_uint256)50_storage"
      },
      {
        "astId": 72,
        "contract": "contracts/protocol/CaskSubscriptions.sol:CaskSubscriptions",
        "label": "_trustedForwarder",
        "offset": 0,
        "slot": "101",
        "type": "t_address"
      },
      {
        "astId": 1270,
        "contract": "contracts/protocol/CaskSubscriptions.sol:CaskSubscriptions",
        "label": "_name",
        "offset": 0,
        "slot": "102",
        "type": "t_string_storage"
      },
      {
        "astId": 1272,
        "contract": "contracts/protocol/CaskSubscriptions.sol:CaskSubscriptions",
        "label": "_symbol",
        "offset": 0,
        "slot": "103",
        "type": "t_string_storage"
      },
      {
        "astId": 1276,
        "contract": "contracts/protocol/CaskSubscriptions.sol:CaskSubscriptions",
        "label": "_owners",
        "offset": 0,
        "slot": "104",
        "type": "t_mapping(t_uint256,t_address)"
      },
      {
        "astId": 1280,
        "contract": "contracts/protocol/CaskSubscriptions.sol:CaskSubscriptions",
        "label": "_balances",
        "offset": 0,
        "slot": "105",
        "type": "t_mapping(t_address,t_uint256)"
      },
      {
        "astId": 1284,
        "contract": "contracts/protocol/CaskSubscriptions.sol:CaskSubscriptions",
        "label": "_tokenApprovals",
        "offset": 0,
        "slot": "106",
        "type": "t_mapping(t_uint256,t_address)"
      },
      {
        "astId": 1290,
        "contract": "contracts/protocol/CaskSubscriptions.sol:CaskSubscriptions",
        "label": "_operatorApprovals",
        "offset": 0,
        "slot": "107",
        "type": "t_mapping(t_address,t_mapping(t_address,t_bool))"
      },
      {
        "astId": 2101,
        "contract": "contracts/protocol/CaskSubscriptions.sol:CaskSubscriptions",
        "label": "__gap",
        "offset": 0,
        "slot": "108",
        "type": "t_array(t_uint256)44_storage"
      },
      {
        "astId": 205,
        "contract": "contracts/protocol/CaskSubscriptions.sol:CaskSubscriptions",
        "label": "_owner",
        "offset": 0,
        "slot": "152",
        "type": "t_address"
      },
      {
        "astId": 319,
        "contract": "contracts/protocol/CaskSubscriptions.sol:CaskSubscriptions",
        "label": "__gap",
        "offset": 0,
        "slot": "153",
        "type": "t_array(t_uint256)49_storage"
      },
      {
        "astId": 415,
        "contract": "contracts/protocol/CaskSubscriptions.sol:CaskSubscriptions",
        "label": "_paused",
        "offset": 0,
        "slot": "202",
        "type": "t_bool"
      },
      {
        "astId": 506,
        "contract": "contracts/protocol/CaskSubscriptions.sol:CaskSubscriptions",
        "label": "__gap",
        "offset": 0,
        "slot": "203",
        "type": "t_array(t_uint256)49_storage"
      },
      {
        "astId": 10709,
        "contract": "contracts/protocol/CaskSubscriptions.sol:CaskSubscriptions",
        "label": "subscriptionManager",
        "offset": 0,
        "slot": "252",
        "type": "t_contract(ICaskSubscriptionManager)7562"
      },
      {
        "astId": 10713,
        "contract": "contracts/protocol/CaskSubscriptions.sol:CaskSubscriptions",
        "label": "subscriptionPlans",
        "offset": 0,
        "slot": "253",
        "type": "t_contract(ICaskSubscriptionPlans)7693"
      },
      {
        "astId": 10716,
        "contract": "contracts/protocol/CaskSubscriptions.sol:CaskSubscriptions",
        "label": "activeSubscriptions",
        "offset": 0,
        "slot": "254",
        "type": "t_array(t_uint256)dyn_storage"
      },
      {
        "astId": 10722,
        "contract": "contracts/protocol/CaskSubscriptions.sol:CaskSubscriptions",
        "label": "consumerSubscriptions",
        "offset": 0,
        "slot": "255",
        "type": "t_mapping(t_address,t_array(t_uint256)dyn_storage)"
      },
      {
        "astId": 10727,
        "contract": "contracts/protocol/CaskSubscriptions.sol:CaskSubscriptions",
        "label": "subscriptions",
        "offset": 0,
        "slot": "256",
        "type": "t_mapping(t_uint256,t_struct(Subscription)7741_storage)"
      },
      {
        "astId": 10731,
        "contract": "contracts/protocol/CaskSubscriptions.sol:CaskSubscriptions",
        "label": "pendingPlanChanges",
        "offset": 0,
        "slot": "257",
        "type": "t_mapping(t_uint256,t_bytes32)"
      },
      {
        "astId": 10737,
        "contract": "contracts/protocol/CaskSubscriptions.sol:CaskSubscriptions",
        "label": "providerSubscriptions",
        "offset": 0,
        "slot": "258",
        "type": "t_mapping(t_address,t_array(t_uint256)dyn_storage)"
      },
      {
        "astId": 10741,
        "contract": "contracts/protocol/CaskSubscriptions.sol:CaskSubscriptions",
        "label": "providerActiveSubscriptionCount",
        "offset": 0,
        "slot": "259",
        "type": "t_mapping(t_address,t_uint256)"
      },
      {
        "astId": 10747,
        "contract": "contracts/protocol/CaskSubscriptions.sol:CaskSubscriptions",
        "label": "planActiveSubscriptionCount",
        "offset": 0,
        "slot": "260",
        "type": "t_mapping(t_address,t_mapping(t_uint32,t_uint256))"
      },
      {
        "astId": 10751,
        "contract": "contracts/protocol/CaskSubscriptions.sol:CaskSubscriptions",
        "label": "idxMap",
        "offset": 0,
        "slot": "261",
        "type": "t_mapping(t_uint256,t_uint256)"
      }
    ],
    "types": {
      "t_address": {
        "encoding": "inplace",
        "label": "address",
        "numberOfBytes": "20"
      },
      "t_array(t_uint256)44_storage": {
        "base": "t_uint256",
        "encoding": "inplace",
        "label": "uint256[44]",
        "numberOfBytes": "1408"
      },
      "t_array(t_uint256)49_storage": {
        "base": "t_uint256",
        "encoding": "inplace",
        "label": "uint256[49]",
        "numberOfBytes": "1568"
      },
      "t_array(t_uint256)50_storage": {
        "base": "t_uint256",
        "encoding": "inplace",
        "label": "uint256[50]",
        "numberOfBytes": "1600"
      },
      "t_array(t_uint256)dyn_storage": {
        "base": "t_uint256",
        "encoding": "dynamic_array",
        "label": "uint256[]",
        "numberOfBytes": "32"
      },
      "t_bool": {
        "encoding": "inplace",
        "label": "bool",
        "numberOfBytes": "1"
      },
      "t_bytes32": {
        "encoding": "inplace",
        "label": "bytes32",
        "numberOfBytes": "32"
      },
      "t_contract(ICaskSubscriptionManager)7562": {
        "encoding": "inplace",
        "label": "contract ICaskSubscriptionManager",
        "numberOfBytes": "20"
      },
      "t_contract(ICaskSubscriptionPlans)7693": {
        "encoding": "inplace",
        "label": "contract ICaskSubscriptionPlans",
        "numberOfBytes": "20"
      },
      "t_enum(SubscriptionStatus)7706": {
        "encoding": "inplace",
        "label": "enum ICaskSubscriptions.SubscriptionStatus",
        "numberOfBytes": "1"
      },
      "t_mapping(t_address,t_array(t_uint256)dyn_storage)": {
        "encoding": "mapping",
        "key": "t_address",
        "label": "mapping(address => uint256[])",
        "numberOfBytes": "32",
        "value": "t_array(t_uint256)dyn_storage"
      },
      "t_mapping(t_address,t_bool)": {
        "encoding": "mapping",
        "key": "t_address",
        "label": "mapping(address => bool)",
        "numberOfBytes": "32",
        "value": "t_bool"
      },
      "t_mapping(t_address,t_mapping(t_address,t_bool))": {
        "encoding": "mapping",
        "key": "t_address",
        "label": "mapping(address => mapping(address => bool))",
        "numberOfBytes": "32",
        "value": "t_mapping(t_address,t_bool)"
      },
      "t_mapping(t_address,t_mapping(t_uint32,t_uint256))": {
        "encoding": "mapping",
        "key": "t_address",
        "label": "mapping(address => mapping(uint32 => uint256))",
        "numberOfBytes": "32",
        "value": "t_mapping(t_uint32,t_uint256)"
      },
      "t_mapping(t_address,t_uint256)": {
        "encoding": "mapping",
        "key": "t_address",
        "label": "mapping(address => uint256)",
        "numberOfBytes": "32",
        "value": "t_uint256"
      },
      "t_mapping(t_uint256,t_address)": {
        "encoding": "mapping",
        "key": "t_uint256",
        "label": "mapping(uint256 => address)",
        "numberOfBytes": "32",
        "value": "t_address"
      },
      "t_mapping(t_uint256,t_bytes32)": {
        "encoding": "mapping",
        "key": "t_uint256",
        "label": "mapping(uint256 => bytes32)",
        "numberOfBytes": "32",
        "value": "t_bytes32"
      },
      "t_mapping(t_uint256,t_struct(Subscription)7741_storage)": {
        "encoding": "mapping",
        "key": "t_uint256",
        "label": "mapping(uint256 => struct ICaskSubscriptions.Subscription)",
        "numberOfBytes": "32",
        "value": "t_struct(Subscription)7741_storage"
      },
      "t_mapping(t_uint256,t_uint256)": {
        "encoding": "mapping",
        "key": "t_uint256",
        "label": "mapping(uint256 => uint256)",
        "numberOfBytes": "32",
        "value": "t_uint256"
      },
      "t_mapping(t_uint32,t_uint256)": {
        "encoding": "mapping",
        "key": "t_uint32",
        "label": "mapping(uint32 => uint256)",
        "numberOfBytes": "32",
        "value": "t_uint256"
      },
      "t_string_storage": {
        "encoding": "bytes",
        "label": "string",
        "numberOfBytes": "32"
      },
      "t_struct(Subscription)7741_storage": {
        "encoding": "inplace",
        "label": "struct ICaskSubscriptions.Subscription",
        "members": [
          {
            "astId": 7715,
            "contract": "contracts/protocol/CaskSubscriptions.sol:CaskSubscriptions",
            "label": "planData",
            "offset": 0,
            "slot": "0",
            "type": "t_bytes32"
          },
          {
            "astId": 7717,
            "contract": "contracts/protocol/CaskSubscriptions.sol:CaskSubscriptions",
            "label": "networkData",
            "offset": 0,
            "slot": "1",
            "type": "t_bytes32"
          },
          {
            "astId": 7719,
            "contract": "contracts/protocol/CaskSubscriptions.sol:CaskSubscriptions",
            "label": "discountId",
            "offset": 0,
            "slot": "2",
            "type": "t_bytes32"
          },
          {
            "astId": 7721,
            "contract": "contracts/protocol/CaskSubscriptions.sol:CaskSubscriptions",
            "label": "discountData",
            "offset": 0,
            "slot": "3",
            "type": "t_bytes32"
          },
          {
            "astId": 7723,
            "contract": "contracts/protocol/CaskSubscriptions.sol:CaskSubscriptions",
            "label": "ref",
            "offset": 0,
            "slot": "4",
            "type": "t_bytes32"
          },
          {
            "astId": 7725,
            "contract": "contracts/protocol/CaskSubscriptions.sol:CaskSubscriptions",
            "label": "provider",
            "offset": 0,
            "slot": "5",
            "type": "t_address"
          },
          {
            "astId": 7728,
            "contract": "contracts/protocol/CaskSubscriptions.sol:CaskSubscriptions",
            "label": "status",
            "offset": 20,
            "slot": "5",
            "type": "t_enum(SubscriptionStatus)7706"
          },
          {
            "astId": 7730,
            "contract": "contracts/protocol/CaskSubscriptions.sol:CaskSubscriptions",
            "label": "planId",
            "offset": 21,
            "slot": "5",
            "type": "t_uint32"
          },
          {
            "astId": 7732,
            "contract": "contracts/protocol/CaskSubscriptions.sol:CaskSubscriptions",
            "label": "createdAt",
            "offset": 25,
            "slot": "5",
            "type": "t_uint32"
          },
          {
            "astId": 7734,
            "contract": "contracts/protocol/CaskSubscriptions.sol:CaskSubscriptions",
            "label": "renewAt",
            "offset": 0,
            "slot": "6",
            "type": "t_uint32"
          },
          {
            "astId": 7736,
            "contract": "contracts/protocol/CaskSubscriptions.sol:CaskSubscriptions",
            "label": "minTermAt",
            "offset": 4,
            "slot": "6",
            "type": "t_uint32"
          },
          {
            "astId": 7738,
            "contract": "contracts/protocol/CaskSubscriptions.sol:CaskSubscriptions",
            "label": "cancelAt",
            "offset": 8,
            "slot": "6",
            "type": "t_uint32"
          },
          {
            "astId": 7740,
            "contract": "contracts/protocol/CaskSubscriptions.sol:CaskSubscriptions",
            "label": "cid",
            "offset": 0,
            "slot": "7",
            "type": "t_string_storage"
          }
        ],
        "numberOfBytes": "256"
      },
      "t_uint256": {
        "encoding": "inplace",
        "label": "uint256",
        "numberOfBytes": "32"
      },
      "t_uint32": {
        "encoding": "inplace",
        "label": "uint32",
        "numberOfBytes": "4"
      }
    }
  }
}