{
  "address": "0xD0f499b1df46FC7Bd5324d30aff0339E740426C3",
  "abi": [
    {
      "inputs": [],
      "stateMutability": "nonpayable",
      "type": "constructor"
    },
    {
      "anonymous": false,
      "inputs": [
        {
          "indexed": true,
          "internalType": "address",
          "name": "previousOwner",
          "type": "address"
        },
        {
          "indexed": true,
          "internalType": "address",
          "name": "newOwner",
          "type": "address"
        }
      ],
      "name": "OwnershipTransferred",
      "type": "event"
    },
    {
      "anonymous": false,
      "inputs": [
        {
          "indexed": false,
          "internalType": "address",
          "name": "account",
          "type": "address"
        }
      ],
      "name": "Paused",
      "type": "event"
    },
    {
      "anonymous": false,
      "inputs": [
        {
          "indexed": false,
          "internalType": "uint256",
          "name": "limit",
          "type": "uint256"
        },
        {
          "indexed": false,
          "internalType": "uint256",
          "name": "renewals",
          "type": "uint256"
        },
        {
          "indexed": false,
          "internalType": "enum ICaskSubscriptionManager.CheckType",
          "name": "checkType",
          "type": "uint8"
        },
        {
          "indexed": false,
          "internalType": "uint256",
          "name": "queueRemaining",
          "type": "uint256"
        },
        {
          "indexed": false,
          "internalType": "uint32",
          "name": "currentBucket",
          "type": "uint32"
        }
      ],
      "name": "SubscriptionsRenewed",
      "type": "event"
    },
    {
      "anonymous": false,
      "inputs": [
        {
          "indexed": false,
          "internalType": "address",
          "name": "account",
          "type": "address"
        }
      ],
      "name": "Unpaused",
      "type": "event"
    },
    {
      "inputs": [
        {
          "internalType": "bytes",
          "name": "checkData",
          "type": "bytes"
        }
      ],
      "name": "checkUpkeep",
      "outputs": [
        {
          "internalType": "bool",
          "name": "upkeepNeeded",
          "type": "bool"
        },
        {
          "internalType": "bytes",
          "name": "performData",
          "type": "bytes"
        }
      ],
      "stateMutability": "view",
      "type": "function"
    },
    {
      "inputs": [
        {
          "internalType": "address",
          "name": "_vault",
          "type": "address"
        },
        {
          "internalType": "address",
          "name": "_subscriptionPlans",
          "type": "address"
        },
        {
          "internalType": "address",
          "name": "_subscriptions",
          "type": "address"
        }
      ],
      "name": "initialize",
      "outputs": [],
      "stateMutability": "nonpayable",
      "type": "function"
    },
    {
      "inputs": [],
      "name": "owner",
      "outputs": [
        {
          "internalType": "address",
          "name": "",
          "type": "address"
        }
      ],
      "stateMutability": "view",
      "type": "function"
    },
    {
      "inputs": [],
      "name": "pause",
      "outputs": [],
      "stateMutability": "nonpayable",
      "type": "function"
    },
    {
      "inputs": [],
      "name": "paused",
      "outputs": [
        {
          "internalType": "bool",
          "name": "",
          "type": "bool"
        }
      ],
      "stateMutability": "view",
      "type": "function"
    },
    {
      "inputs": [],
      "name": "paymentFeeFixed",
      "outputs": [
        {
          "internalType": "uint256",
          "name": "",
          "type": "uint256"
        }
      ],
      "stateMutability": "view",
      "type": "function"
    },
    {
      "inputs": [],
      "name": "paymentFeeRateMax",
      "outputs": [
        {
          "internalType": "uint256",
          "name": "",
          "type": "uint256"
        }
      ],
      "stateMutability": "view",
      "type": "function"
    },
    {
      "inputs": [],
      "name": "paymentFeeRateMin",
      "outputs": [
        {
          "internalType": "uint256",
          "name": "",
          "type": "uint256"
        }
      ],
      "stateMutability": "view",
      "type": "function"
    },
    {
      "inputs": [
        {
          "internalType": "bytes",
          "name": "performData",
          "type": "bytes"
        }
      ],
      "name": "performUpkeep",
      "outputs": [],
      "stateMutability": "nonpayable",
      "type": "function"
    },
    {
      "inputs": [],
      "name": "processBucketSize",
      "outputs": [
        {
          "internalType": "uint32",
          "name": "",
          "type": "uint32"
        }
      ],
      "stateMutability": "view",
      "type": "function"
    },
    {
      "inputs": [
        {
          "internalType": "enum ICaskSubscriptionManager.CheckType",
          "name": "",
          "type": "uint8"
        },
        {
          "internalType": "uint32",
          "name": "",
          "type": "uint32"
        },
        {
          "internalType": "uint256",
          "name": "",
          "type": "uint256"
        }
      ],
      "name": "processQueue",
      "outputs": [
        {
          "internalType": "uint256",
          "name": "",
          "type": "uint256"
        }
      ],
      "stateMutability": "view",
      "type": "function"
    },
    {
      "inputs": [
        {
          "internalType": "address",
          "name": "_consumer",
          "type": "address"
        },
        {
          "internalType": "address",
          "name": "_provider",
          "type": "address"
        },
        {
          "internalType": "uint256",
          "name": "_subscriptionId",
          "type": "uint256"
        },
        {
          "internalType": "uint256",
          "name": "_value",
          "type": "uint256"
        }
      ],
      "name": "processSinglePayment",
      "outputs": [],
      "stateMutability": "nonpayable",
      "type": "function"
    },
    {
      "inputs": [
        {
          "internalType": "enum ICaskSubscriptionManager.CheckType",
          "name": "",
          "type": "uint8"
        }
      ],
      "name": "processingBucket",
      "outputs": [
        {
          "internalType": "uint32",
          "name": "",
          "type": "uint32"
        }
      ],
      "stateMutability": "view",
      "type": "function"
    },
    {
      "inputs": [
        {
          "internalType": "uint256",
          "name": "_subscriptionId",
          "type": "uint256"
        }
      ],
      "name": "renewSubscription",
      "outputs": [],
      "stateMutability": "nonpayable",
      "type": "function"
    },
    {
      "inputs": [],
      "name": "renounceOwnership",
      "outputs": [],
      "stateMutability": "nonpayable",
      "type": "function"
    },
    {
      "inputs": [
        {
          "internalType": "uint256",
          "name": "_paymentFeeFixed",
          "type": "uint256"
        },
        {
          "internalType": "uint256",
          "name": "_paymentFeeRateMin",
          "type": "uint256"
        },
        {
          "internalType": "uint256",
          "name": "_paymentFeeRateMax",
          "type": "uint256"
        },
        {
          "internalType": "uint256",
          "name": "_stakeTargetFactor",
          "type": "uint256"
        },
        {
          "internalType": "uint32",
          "name": "_processBucketSize",
          "type": "uint32"
        }
      ],
      "name": "setParameters",
      "outputs": [],
      "stateMutability": "nonpayable",
      "type": "function"
    },
    {
      "inputs": [
        {
          "internalType": "enum ICaskSubscriptionManager.CheckType",
          "name": "_checkType",
          "type": "uint8"
        },
        {
          "internalType": "uint32",
          "name": "_timestamp",
          "type": "uint32"
        }
      ],
      "name": "setProcessingBucket",
      "outputs": [],
      "stateMutability": "nonpayable",
      "type": "function"
    },
    {
      "inputs": [],
      "name": "stakeTargetFactor",
      "outputs": [
        {
          "internalType": "uint256",
          "name": "",
          "type": "uint256"
        }
      ],
      "stateMutability": "view",
      "type": "function"
    },
    {
      "inputs": [],
      "name": "subscriptionPlans",
      "outputs": [
        {
          "internalType": "contract ICaskSubscriptionPlans",
          "name": "",
          "type": "address"
        }
      ],
      "stateMutability": "view",
      "type": "function"
    },
    {
      "inputs": [],
      "name": "subscriptions",
      "outputs": [
        {
          "internalType": "contract ICaskSubscriptions",
          "name": "",
          "type": "address"
        }
      ],
      "stateMutability": "view",
      "type": "function"
    },
    {
      "inputs": [
        {
          "internalType": "address",
          "name": "newOwner",
          "type": "address"
        }
      ],
      "name": "transferOwnership",
      "outputs": [],
      "stateMutability": "nonpayable",
      "type": "function"
    },
    {
      "inputs": [],
      "name": "unpause",
      "outputs": [],
      "stateMutability": "nonpayable",
      "type": "function"
    },
    {
      "inputs": [],
      "name": "vault",
      "outputs": [
        {
          "internalType": "contract ICaskVault",
          "name": "",
          "type": "address"
        }
      ],
      "stateMutability": "view",
      "type": "function"
    }
  ],
  "transactionHash": "0xa95b7753fad211e92253f25dbe9cfe3083d414573080e893dfcad926009c0d6d",
  "args": [],
  "numDeployments": 6,
  "solcInputHash": "6a3c74f8226f5c1992b55419def8104d",
  "bytecode": "0x60806040523480156200001157600080fd5b50600054610100900460ff166200002f5760005460ff161562000039565b62000039620000de565b620000a15760405162461bcd60e51b815260206004820152602e60248201527f496e697469616c697a61626c653a20636f6e747261637420697320616c72656160448201526d191e481a5b9a5d1a585b1a5e995960921b606482015260840160405180910390fd5b600054610100900460ff16158015620000c4576000805461ffff19166101011790555b8015620000d7576000805461ff00191690555b5062000102565b6000620000f630620000fc60201b620010311760201c565b15905090565b3b151590565b612d5a80620001126000396000f3fe608060405234801561001057600080fd5b506004361061014d5760003560e01c80638da5cb5b116100c3578063c0c53b8b1161007c578063c0c53b8b14610296578063c54c58c4146102a9578063d71bb37b146102bc578063f22a950e146102cf578063f2fde38b146102f5578063fbfa77cf1461030857600080fd5b80638da5cb5b1461020a5780638fe17b161461022f57806393357f5814610242578063a76d67b814610267578063b8e381e51461027a578063badf4b3e1461028d57600080fd5b80634585e33b116101155780634585e33b1461019d5780635c975abb146101b05780636e04ff0d146101c65780637040cbb1146101e7578063715018a6146101fa5780638456cb591461020257600080fd5b806308e27a991461015257806309e22a8b1461016e578063219e24c5146101815780633c07e34d1461018a5780633f4ba83a14610193575b600080fd5b61015b609d5481565b6040519081526020015b60405180910390f35b61015b61017c3660046123e0565b61031b565b61015b609b5481565b61015b609a5481565b61019b610359565b005b61019b6101ab366004612421565b610396565b60655460ff166040519015158152602001610165565b6101d96101d4366004612421565b61088e565b6040516101659291906124bf565b61019b6101f53660046124fb565b610abc565b61019b610c83565b61019b610cb7565b6033546001600160a01b03165b6040516001600160a01b039091168152602001610165565b609754610217906001600160a01b031681565b609f546102529063ffffffff1681565b60405163ffffffff9091168152602001610165565b61019b610275366004612548565b610ce9565b609854610217906001600160a01b031681565b61015b609c5481565b61019b6102a4366004612596565b610d73565b61019b6102b73660046125e1565b610f13565b61019b6102ca366004612627565b610f6a565b6102526102dd366004612640565b60a16020526000908152604090205463ffffffff1681565b61019b610303366004612664565b610f99565b609954610217906001600160a01b031681565b60a0602052826000526040600020602052816000526040600020818154811061034357600080fd5b9060005260206000200160009250925050505481565b6033546001600160a01b0316331461038c5760405162461bcd60e51b815260040161038390612681565b60405180910390fd5b610394611037565b565b60655460ff16156103b95760405162461bcd60e51b8152600401610383906126b6565b6000806103c8838501856126e0565b9150915060a160008260028111156103e2576103e2612705565b60028111156103f3576103f3612705565b815260208101919091526040016000205463ffffffff1661046a576104166110ca565b60a1600083600281111561042c5761042c612705565b600281111561043d5761043d612705565b815260200190815260200160002060006101000a81548163ffffffff021916908363ffffffff1602179055505b60008061047884600a612731565b90505b838210801561048a5750600081115b1561078257600060a060008560028111156104a7576104a7612705565b60028111156104b8576104b8612705565b8152602001908152602001600020600060a160008760028111156104de576104de612705565b60028111156104ef576104ef612705565b8152602080820192909252604090810160009081205463ffffffff1684529183019390935291019020549050801561069a57600060a0600086600281111561053957610539612705565b600281111561054a5761054a612705565b8152602001908152602001600020600060a1600088600281111561057057610570612705565b600281111561058157610581612705565b8152602080820192909252604090810160009081205463ffffffff16845291830193909352910190206105b5600184612750565b815481106105c5576105c5612767565b9060005260206000200154905060a060008660028111156105e8576105e8612705565b60028111156105f9576105f9612705565b8152602001908152602001600020600060a1600088600281111561061f5761061f612705565b600281111561063057610630612705565b8152602080820192909252604090810160009081205463ffffffff16845291830193909352910190208054806106685761066861277d565b60019003818190600052602060002001600090559055610687816110f2565b610692600185612793565b93505061077c565b6106a26110ca565b63ffffffff1660a160008660028111156106be576106be612705565b60028111156106cf576106cf612705565b815260208101919091526040016000205463ffffffff16101561077657609f5463ffffffff1660a1600086600281111561070b5761070b612705565b600281111561071c5761071c612705565b815260208101919091526040016000908120805490919061074490849063ffffffff166127ab565b92506101000a81548163ffffffff021916908363ffffffff16021790555060018261076f9190612750565b915061077c565b50610782565b5061047b565b7f18d901a6c80c2475d285836b90791a240c29b9da66effa5ddc7420bd94d5716b84838560a060008860028111156107bc576107bc612705565b60028111156107cd576107cd612705565b8152602001908152602001600020600060a160008a60028111156107f3576107f3612705565b600281111561080457610804612705565b8152602080820192909252604090810160009081205463ffffffff1684529183019390935291018120549060a19089600281111561084457610844612705565b600281111561085557610855612705565b81526020810191909152604090810160002054905161087e959493929163ffffffff16906127e7565b60405180910390a1505050505050565b600060608180806108a18688018861281e565b925092509250600060a160008360028111156108bf576108bf612705565b60028111156108d0576108d0612705565b815260208101919091526040016000205463ffffffff169050806108f9576108f66110ca565b90505b60009550600060a0600084600281111561091557610915612705565b600281111561092657610926612705565b81526020808201929092526040908101600090812063ffffffff861682529092529020541180156109a157508260a0600084600281111561096957610969612705565b600281111561097a5761097a612705565b81526020808201929092526040908101600090812063ffffffff8616825290925290205410155b156109af5760019550610a8d565b8063ffffffff166109be6110ca565b63ffffffff16101580156109eb5750610e10816109d96110ca565b6109e3919061284c565b63ffffffff16115b156109f95760019550610a8d565b805b610a036110ca565b63ffffffff168163ffffffff1611610a8b57600060a06000856002811115610a2d57610a2d612705565b6002811115610a3e57610a3e612705565b81526020808201929092526040908101600090812063ffffffff861682529092529020541115610a715760019650610a8b565b609f54610a849063ffffffff16826127ab565b90506109fb565b505b8382604051602001610aa0929190612871565b6040516020818303038152906040529450505050509250929050565b6033546001600160a01b03163314610ae65760405162461bcd60e51b815260040161038390612681565b609a859055609b849055609c839055609d829055609f805463ffffffff191663ffffffff83811691909117909155600160005260a1602052600080516020612ce58339815191525416610b7157610b3b6110ca565b600160005260a1602052600080516020612ce5833981519152805463ffffffff191663ffffffff92909216919091179055610bda565b610ba860a1600060015b6002811115610b8c57610b8c612705565b815260208101919091526040016000205463ffffffff16611c58565b600160005260a1602052600080516020612ce5833981519152805463ffffffff191663ffffffff929092169190911790555b600260005260a1602052600080516020612d058339815191525463ffffffff16610c3c57610c066110ca565b600260005260a1602052600080516020612d05833981519152805463ffffffff191663ffffffff92909216919091179055610c7c565b610c4a60a160006002610b7b565b600260005260a1602052600080516020612d05833981519152805463ffffffff191663ffffffff929092169190911790555b5050505050565b6033546001600160a01b03163314610cad5760405162461bcd60e51b815260040161038390612681565b6103946000611c88565b6033546001600160a01b03163314610ce15760405162461bcd60e51b815260040161038390612681565b610394611cda565b6033546001600160a01b03163314610d135760405162461bcd60e51b815260040161038390612681565b610d1c81611c58565b60a16000846002811115610d3257610d32612705565b6002811115610d4357610d43612705565b815260200190815260200160002060006101000a81548163ffffffff021916908363ffffffff1602179055505050565b600054610100900460ff16610d8e5760005460ff1615610d92565b303b155b610df55760405162461bcd60e51b815260206004820152602e60248201527f496e697469616c697a61626c653a20636f6e747261637420697320616c72656160448201526d191e481a5b9a5d1a585b1a5e995960921b6064820152608401610383565b600054610100900460ff16158015610e17576000805461ffff19166101011790555b610e1f611d32565b610e27611d69565b609780546001600160a01b038086166001600160a01b0319928316179092556098805485841690831617905560998054928716929091169190911790556000609a819055609b819055609c819055609d55609f805463ffffffff191661012c179055610e916110ca565b600160005260a1602052600080516020612ce5833981519152805463ffffffff191663ffffffff92909216919091179055610eca6110ca565b600260005260a1602052600080516020612d05833981519152805463ffffffff191663ffffffff929092169190911790558015610f0d576000805461ff00191690555b50505050565b6098546001600160a01b0316336001600160a01b031614610f5e5760405162461bcd60e51b815260206004820152600560248201526404282aaa8960db1b6044820152606401610383565b610f0d84848484611da0565b60655460ff1615610f8d5760405162461bcd60e51b8152600401610383906126b6565b610f96816110f2565b50565b6033546001600160a01b03163314610fc35760405162461bcd60e51b815260040161038390612681565b6001600160a01b0381166110285760405162461bcd60e51b815260206004820152602660248201527f4f776e61626c653a206e6577206f776e657220697320746865207a65726f206160448201526564647265737360d01b6064820152608401610383565b610f9681611c88565b3b151590565b60655460ff166110805760405162461bcd60e51b815260206004820152601460248201527314185d5cd8589b194e881b9bdd081c185d5cd95960621b6044820152606401610383565b6065805460ff191690557f5db9ee0a495bf2e6ff9c91a7834c1ba4fdd244a5e8aa4e537bd38aeae4b073aa335b6040516001600160a01b03909116815260200160405180910390a1565b609f5460009042906110e29063ffffffff168261289b565b6110ec908261284c565b91505090565b60985460405163dc311dd360e01b8152600481018390526000916001600160a01b03169063dc311dd39060240160006040518083038186803b15801561113757600080fd5b505afa15801561114b573d6000803e3d6000fd5b505050506040513d6000823e601f3d908101601f1916820160405261117391908101906129b0565b5090504260038260c00151600581111561118f5761118f612705565b141561119a57505050565b8063ffffffff1682610120015163ffffffff161115611221576001600090815260a06020526101208301517f5e4aa62fc514c001129aba2f8cfdadfdbf7b1cca3faf4a1fee3af14b1315f0dd91906111f190611c58565b63ffffffff1681526020808201929092526040016000908120805460018101825590825291902001929092555050565b600082610160015163ffffffff1611801561124d57508063ffffffff1682610160015163ffffffff1611155b806113b25750600260975460a084015160e085015160405163b6ab359f60e01b81526001600160a01b03928316600482015263ffffffff909116602482015291169063b6ab359f9060440160206040518083038186803b1580156112b057600080fd5b505afa1580156112c4573d6000803e3d6000fd5b505050506040513d601f19601f820116820180604052508101906112e89190612ae0565b60028111156112f9576112f9612705565b1480156113b2575060975460a083015160e084015160405163025b687560e01b815263ffffffff8516936001600160a01b03169263025b687592611359926004016001600160a01b0392909216825263ffffffff16602082015260400190565b60206040518083038186803b15801561137157600080fd5b505afa158015611385573d6000803e3d6000fd5b505050506040513d601f19601f820116820180604052508101906113a99190612afd565b63ffffffff1611155b1561142157609854604051633efbd95560e11b81526001600160a01b0390911690637df7b2aa906113ea908690600290600401612b1a565b600060405180830381600087803b15801561140457600080fd5b505af1158015611418573d6000803e3d6000fd5b50505050505050565b60985460405163321b9a5560e21b8152600481018590526000916001600160a01b03169063c86e69549060240160206040518083038186803b15801561146657600080fd5b505afa15801561147a573d6000803e3d6000fd5b505050506040513d601f19601f8201168201806040525081019061149e9190612b3e565b111561158d57609854604051633efbd95560e11b81526001600160a01b0390911690637df7b2aa906114d7908690600190600401612b1a565b600060405180830381600087803b1580156114f157600080fd5b505af1158015611505573d6000803e3d6000fd5b505060985460405163dc311dd360e01b8152600481018790526001600160a01b03909116925063dc311dd3915060240160006040518083038186803b15801561154d57600080fd5b505afa158015611561573d6000803e3d6000fd5b505050506040513d6000823e601f3d908101601f1916820160405261158991908101906129b0565b5091505b600061159c83600001516120b4565b80516040850151919250901561175b57600061166285606001516040805160e081018252600080825260208201819052918101829052606081018290526080810182905260a0810182905260c0810191909152506040805160e08101825260a083811c825263ffffffff608085811c8216602080860191909152606087811c8416868801529587901c8316958501959095529385901c169282019290925261ffff601084901c1691810191909152600160f01b60f09290921b821690911460c082015290565b90508060a0015161ffff16600014806116ad57508363ffffffff168160a0015161ffff1684604001516116959190612b57565b8661010001516116a591906127ab565b63ffffffff16105b156116f3578060c00151156116cf5780516116c89083612750565b9150611759565b8051612710906116df9084612731565b6116e99190612b83565b6116c89083612750565b609854604051633efbd95560e11b81526001600160a01b0390911690637df7b2aa90611726908990600590600401612b1a565b600060405180830381600087803b15801561174057600080fd5b505af1158015611754573d6000803e3d6000fd5b505050505b505b60008111801561186957506099546098546040516331a9108f60e11b81526004810188905283926001600160a01b039081169263597435cb92911690636352211e9060240160206040518083038186803b1580156117b857600080fd5b505afa1580156117cc573d6000803e3d6000fd5b505050506040513d601f19601f820116820180604052508101906117f09190612b97565b6040516001600160e01b031960e084901b1681526001600160a01b03909116600482015260240160206040518083038186803b15801561182f57600080fd5b505afa158015611843573d6000803e3d6000fd5b505050506040513d601f19601f820116820180604052508101906118679190612b3e565b105b15611a3f5760c08201516118839060ff1662015180612bb4565b6118929062ffffff168461284c565b63ffffffff1684610120015163ffffffff16101561191457609854604051633efbd95560e11b81526001600160a01b0390911690637df7b2aa906118dd908890600290600401612b1a565b600060405180830381600087803b1580156118f757600080fd5b505af115801561190b573d6000803e3d6000fd5b50505050610c7c565b60058460c00151600581111561192c5761192c612705565b146119d3576002600090815260a06020527e3e94880a29ff53e6a8208a04e96e212c12922b7bda6b10d8c1979e9844e6789061197261196d866138406127ab565b611c58565b63ffffffff1681526020808201929092526040908101600090812080546001810182559082529290209091018690556098549051633efbd95560e11b81526001600160a01b0390911690637df7b2aa906118dd908890600390600401612b1a565b6002600090815260a06020527e3e94880a29ff53e6a8208a04e96e212c12922b7bda6b10d8c1979e9844e67890611a0f61196d866138406127ab565b63ffffffff1681526020808201929092526040016000908120805460018101825590825291902001859055610c7c565b8015611b77576098546040516331a9108f60e11b815260048101879052611acf916001600160a01b031690636352211e9060240160206040518083038186803b158015611a8b57600080fd5b505afa158015611a9f573d6000803e3d6000fd5b505050506040513d601f19601f82011682018060405250810190611ac39190612b97565b8560a001518784611da0565b6001600090815260a060205260408301516101208601517f5e4aa62fc514c001129aba2f8cfdadfdbf7b1cca3faf4a1fee3af14b1315f0dd9291611b179161196d91906127ab565b63ffffffff1681526020808201929092526040908101600090812080546001810182559082529290209091018690556098549051633efbd95560e11b81526001600160a01b0390911690637df7b2aa906118dd9088906004908101612b1a565b6001600090815260a060205260408301516101208601517f5e4aa62fc514c001129aba2f8cfdadfdbf7b1cca3faf4a1fee3af14b1315f0dd9291611bbf9161196d91906127ab565b63ffffffff1681526020808201929092526040908101600090812080546001810182559082529290209091018690556098549051633efbd95560e11b81526001600160a01b0390911690637df7b2aa90611c1f9088906004908101612b1a565b600060405180830381600087803b158015611c3957600080fd5b505af1158015611c4d573d6000803e3d6000fd5b505050505050505050565b609f5460009063ffffffff16611c6e818461289b565b611c78908461284c565b611c8291906127ab565b92915050565b603380546001600160a01b038381166001600160a01b0319831681179093556040519116919082907f8be0079c531659141344cd1fd0a4f28419497f9722a3daafe3b4186f6b6457e090600090a35050565b60655460ff1615611cfd5760405162461bcd60e51b8152600401610383906126b6565b6065805460ff191660011790557f62e78cea01bee320cd4e420270b5ea74000d11b0c9f74754ebdbfc544b05a2586110ad3390565b600054610100900460ff16611d595760405162461bcd60e51b815260040161038390612bd6565b611d6161218f565b6103946121b6565b600054610100900460ff16611d905760405162461bcd60e51b815260040161038390612bd6565b611d9861218f565b6103946121e6565b60995460405163597435cb60e01b81526001600160a01b0386811660048301528392169063597435cb9060240160206040518083038186803b158015611de557600080fd5b505afa158015611df9573d6000803e3d6000fd5b505050506040513d601f19601f82011682018060405250810190611e1d9190612b3e565b1015611e565760405162461bcd60e51b81526020600482015260086024820152672142414c414e434560c01b6044820152606401610383565b609c5460985460405163dc311dd360e01b8152600481018590526000929183916001600160a01b039091169063dc311dd39060240160006040518083038186803b158015611ea357600080fd5b505afa158015611eb7573d6000803e3d6000fd5b505050506040513d6000823e601f3d908101601f19168201604052611edf91908101906129b0565b5090506000611ef182600001516120b4565b90508315612000576000620151808260400151611f0e9190612c21565b611f1a9061016d612c21565b609d5460985460a086015160405163c7a687bf60e01b81526001600160a01b03918216600482015263ffffffff949094169450600093859392919091169063c7a687bf9060240160206040518083038186803b158015611f7957600080fd5b505afa158015611f8d573d6000803e3d6000fd5b505050506040513d601f19601f82011682018060405250810190611fb19190612b3e565b611fbb9190612731565b611fc59190612731565b9050611fd18187612b83565b609c54611fde9190612731565b609c54611feb9190612750565b9450609b54851015611ffd57609b5494505b50505b609754604051630782fb5960e31b81526001600160a01b0389811660048301526000921690633c17dac89060240160006040518083038186803b15801561204657600080fd5b505afa15801561205a573d6000803e3d6000fd5b505050506040513d6000823e601f3d908101601f191682016040526120829190810190612c44565b805190915088906001600160a01b03161561209b575080515b6120a8848b838a89612219565b50505050505050505050565b6040805161012081018252600080825260208201819052918101829052606081018290526080810182905260a0810182905260c0810182905260e0810182905261010081019190915250604080516101208101825260a083811c8252608084811c63ffffffff908116602080860191909152606087811c8316868801529587901c8216958501959095529385901c90931692820192909252601083901c61ffff1691810191909152600882901c60ff1660c082015260f89190911b600160f81b8181161460e0830152600160f91b9081161461010082015290565b600054610100900460ff166103945760405162461bcd60e51b815260040161038390612bd6565b600054610100900460ff166121dd5760405162461bcd60e51b815260040161038390612bd6565b61039433611c88565b600054610100900460ff1661220d5760405162461bcd60e51b815260040161038390612bd6565b6065805460ff19169055565b60208501511561234a576000612265866020015160408051808201909152600080825260208201525060408051808201909152606082901c815260509190911c61ffff16602082015290565b6099549091506001600160a01b03166379b2125f8686866127106122898883612731565b6122939190612b83565b609a546122a09190612793565b86516020880151612710906122b99061ffff168c612731565b6122c39190612b83565b60405160e088901b6001600160e01b03191681526001600160a01b039687166004820152948616602486015260448501939093526064840191909152909216608482015260a481019190915260c401600060405180830381600087803b15801561232c57600080fd5b505af1158015612340573d6000803e3d6000fd5b5050505050610c7c565b6099546001600160a01b031663fcd6a25b85858561271061236b8783612731565b6123759190612b83565b609a546123829190612793565b6040516001600160e01b031960e087901b1681526001600160a01b03948516600482015293909216602484015260448301526064820152608401611c1f565b60038110610f9657600080fd5b63ffffffff81168114610f9657600080fd5b6000806000606084860312156123f557600080fd5b8335612400816123c1565b92506020840135612410816123ce565b929592945050506040919091013590565b6000806020838503121561243457600080fd5b823567ffffffffffffffff8082111561244c57600080fd5b818501915085601f83011261246057600080fd5b81358181111561246f57600080fd5b86602082850101111561248157600080fd5b60209290920196919550909350505050565b60005b838110156124ae578181015183820152602001612496565b83811115610f0d5750506000910152565b821515815260406020820152600082518060408401526124e6816060850160208701612493565b601f01601f1916919091016060019392505050565b600080600080600060a0868803121561251357600080fd5b85359450602086013593506040860135925060608601359150608086013561253a816123ce565b809150509295509295909350565b6000806040838503121561255b57600080fd5b8235612566816123c1565b91506020830135612576816123ce565b809150509250929050565b6001600160a01b0381168114610f9657600080fd5b6000806000606084860312156125ab57600080fd5b83356125b681612581565b925060208401356125c681612581565b915060408401356125d681612581565b809150509250925092565b600080600080608085870312156125f757600080fd5b843561260281612581565b9350602085013561261281612581565b93969395505050506040820135916060013590565b60006020828403121561263957600080fd5b5035919050565b60006020828403121561265257600080fd5b813561265d816123c1565b9392505050565b60006020828403121561267657600080fd5b813561265d81612581565b6020808252818101527f4f776e61626c653a2063616c6c6572206973206e6f7420746865206f776e6572604082015260600190565b60208082526010908201526f14185d5cd8589b194e881c185d5cd95960821b604082015260600190565b600080604083850312156126f357600080fd5b823591506020830135612576816123c1565b634e487b7160e01b600052602160045260246000fd5b634e487b7160e01b600052601160045260246000fd5b600081600019048311821515161561274b5761274b61271b565b500290565b6000828210156127625761276261271b565b500390565b634e487b7160e01b600052603260045260246000fd5b634e487b7160e01b600052603160045260246000fd5b600082198211156127a6576127a661271b565b500190565b600063ffffffff8083168185168083038211156127ca576127ca61271b565b01949350505050565b600381106127e3576127e3612705565b9052565b8581526020810185905260a0810161280260408301866127d3565b83606083015263ffffffff831660808301529695505050505050565b60008060006060848603121561283357600080fd5b833592506020840135915060408401356125d6816123c1565b600063ffffffff838116908316818110156128695761286961271b565b039392505050565b8281526040810161265d60208301846127d3565b634e487b7160e01b600052601260045260246000fd5b600063ffffffff808416806128b2576128b2612885565b92169190910692915050565b634e487b7160e01b600052604160045260246000fd5b6040516101a0810167ffffffffffffffff811182821017156128f8576128f86128be565b60405290565b805161290981612581565b919050565b80516006811061290957600080fd5b8051612909816123ce565b600082601f83011261293957600080fd5b815167ffffffffffffffff80821115612954576129546128be565b604051601f8301601f19908116603f0116810190828211818310171561297c5761297c6128be565b8160405283815286602085880101111561299557600080fd5b6129a6846020830160208901612493565b9695505050505050565b600080604083850312156129c357600080fd5b825167ffffffffffffffff808211156129db57600080fd5b908401906101a082870312156129f057600080fd5b6129f86128d4565b8251815260208301516020820152604083015160408201526060830151606082015260808301516080820152612a3060a084016128fe565b60a0820152612a4160c0840161290e565b60c0820152612a5260e0840161291d565b60e0820152610100612a6581850161291d565b90820152610120612a7784820161291d565b90820152610140612a8984820161291d565b90820152610160612a9b84820161291d565b908201526101808381015183811115612ab357600080fd5b612abf89828701612928565b828401525050809450505050612ad7602084016128fe565b90509250929050565b600060208284031215612af257600080fd5b815161265d816123c1565b600060208284031215612b0f57600080fd5b815161265d816123ce565b8281526040810160068310612b3157612b31612705565b8260208301529392505050565b600060208284031215612b5057600080fd5b5051919050565b600063ffffffff80831681851681830481118215151615612b7a57612b7a61271b565b02949350505050565b600082612b9257612b92612885565b500490565b600060208284031215612ba957600080fd5b815161265d81612581565b600062ffffff80831681851681830481118215151615612b7a57612b7a61271b565b6020808252602b908201527f496e697469616c697a61626c653a20636f6e7472616374206973206e6f74206960408201526a6e697469616c697a696e6760a81b606082015260800190565b600063ffffffff80841680612c3857612c38612885565b92169190910492915050565b600060208284031215612c5657600080fd5b815167ffffffffffffffff80821115612c6e57600080fd5b9083019060608286031215612c8257600080fd5b604051606081018181108382111715612c9d57612c9d6128be565b6040528251612cab81612581565b815260208381015190820152604083015182811115612cc957600080fd5b612cd587828601612928565b6040830152509594505050505056fef4875fff8b0cf986238a93aa5a1c4dd6cdbe2f1045b9974e1f43ef715569af6656cd10bd7c5a283404157adf2ba847ac6f7bfee0953fbdea6cae6f66ee17d9cea26469706673582212204c8813c92c13adc2da8fbcc631fe115052e006f8ffc08c563797e27d1e6e776c64736f6c63430008090033",
  "devdoc": {
    "kind": "dev",
    "methods": {
      "checkUpkeep(bytes)": {
        "details": "To ensure that it is never called, you may want to add the cannotExecute modifier from KeeperBase to your implementation of this method.",
        "params": {
          "checkData": "specified in the upkeep registration so it is always the same for a registered upkeep. This can easilly be broken down into specific arguments using `abi.decode`, so multiple upkeeps can be registered on the same contract and easily differentiated by the contract."
        },
        "returns": {
          "performData": "bytes that the keeper should call performUpkeep with, if upkeep is needed. If you would like to encode data to decode later, try `abi.encode`.",
          "upkeepNeeded": "boolean to indicate whether the keeper should call performUpkeep or not."
        }
      },
      "constructor": {
        "custom:oz-upgrades-unsafe-allow": "constructor"
      },
      "owner()": {
        "details": "Returns the address of the current owner."
      },
      "paused()": {
        "details": "Returns true if the contract is paused, and false otherwise."
      },
      "performUpkeep(bytes)": {
        "details": "The input to this method should not be trusted, and the caller of the method should not even be restricted to any single registry. Anyone should be able call it, and the input should be validated, there is no guarantee that the data passed in is the performData returned from checkUpkeep. This could happen due to malicious keepers, racing keepers, or simply a state change while the performUpkeep transaction is waiting for confirmation. Always validate the data passed in.",
        "params": {
          "performData": "is the data which was passed back from the checkData simulation. If it is encoded, it can easily be decoded into other types by calling `abi.decode`. This data should not be trusted, and should be validated against the contract's current state."
        }
      },
      "renounceOwnership()": {
        "details": "Leaves the contract without owner. It will not be possible to call `onlyOwner` functions anymore. Can only be called by the current owner. NOTE: Renouncing ownership will leave the contract without an owner, thereby removing any functionality that is only available to the owner."
      },
      "transferOwnership(address)": {
        "details": "Transfers ownership of the contract to a new account (`newOwner`). Can only be called by the current owner."
      }
    },
    "stateVariables": {
      "paymentFeeFixed": {
        "details": "fixed fee to charge on payments, in baseAsset decimal units. "
      },
      "paymentFeeRateMin": {
        "details": "min and max percentage to charge on payments, in bps. 50% = 5000. "
      },
      "processBucketSize": {
        "details": "size (in seconds) of buckets to group subscriptions into for processing "
      },
      "processQueue": {
        "details": "map used to track when subscriptions need attention next "
      },
      "stakeTargetFactor": {
        "details": "factor used to reduce payment fee based on qty of staked CASK "
      },
      "subscriptionPlans": {
        "details": "contract to manage subscription plan definitions. "
      },
      "vault": {
        "details": "vault to use for payments. "
      }
    },
    "version": 1
  },
  "userdoc": {
    "kind": "user",
    "methods": {
      "checkUpkeep(bytes)": {
        "notice": "method that is simulated by the keepers to see if any work actually needs to be performed. This method does does not actually need to be executable, and since it is only ever simulated it can consume lots of gas."
      },
      "performUpkeep(bytes)": {
        "notice": "method that is actually executed by the keepers, via the registry. The data returned by the checkUpkeep simulation will be passed into this method to actually be executed."
      }
    },
    "version": 1
  },
  "storageLayout": {
    "storage": [
      {
        "astId": 327,
        "contract": "contracts/protocol/CaskSubscriptionManager.sol:CaskSubscriptionManager",
        "label": "_initialized",
        "offset": 0,
        "slot": "0",
        "type": "t_bool"
      },
      {
        "astId": 330,
        "contract": "contracts/protocol/CaskSubscriptionManager.sol:CaskSubscriptionManager",
        "label": "_initializing",
        "offset": 1,
        "slot": "0",
        "type": "t_bool"
      },
      {
        "astId": 2551,
        "contract": "contracts/protocol/CaskSubscriptionManager.sol:CaskSubscriptionManager",
        "label": "__gap",
        "offset": 0,
        "slot": "1",
        "type": "t_array(t_uint256)50_storage"
      },
      {
        "astId": 205,
        "contract": "contracts/protocol/CaskSubscriptionManager.sol:CaskSubscriptionManager",
        "label": "_owner",
        "offset": 0,
        "slot": "51",
        "type": "t_address"
      },
      {
        "astId": 319,
        "contract": "contracts/protocol/CaskSubscriptionManager.sol:CaskSubscriptionManager",
        "label": "__gap",
        "offset": 0,
        "slot": "52",
        "type": "t_array(t_uint256)49_storage"
      },
      {
        "astId": 415,
        "contract": "contracts/protocol/CaskSubscriptionManager.sol:CaskSubscriptionManager",
        "label": "_paused",
        "offset": 0,
        "slot": "101",
        "type": "t_bool"
      },
      {
        "astId": 506,
        "contract": "contracts/protocol/CaskSubscriptionManager.sol:CaskSubscriptionManager",
        "label": "__gap",
        "offset": 0,
        "slot": "102",
        "type": "t_array(t_uint256)49_storage"
      },
      {
        "astId": 8959,
        "contract": "contracts/protocol/CaskSubscriptionManager.sol:CaskSubscriptionManager",
        "label": "subscriptionPlans",
        "offset": 0,
        "slot": "151",
        "type": "t_contract(ICaskSubscriptionPlans)7736"
      },
      {
        "astId": 8962,
        "contract": "contracts/protocol/CaskSubscriptionManager.sol:CaskSubscriptionManager",
        "label": "subscriptions",
        "offset": 0,
        "slot": "152",
        "type": "t_contract(ICaskSubscriptions)8123"
      },
      {
        "astId": 8966,
        "contract": "contracts/protocol/CaskSubscriptionManager.sol:CaskSubscriptionManager",
        "label": "vault",
        "offset": 0,
        "slot": "153",
        "type": "t_contract(ICaskVault)8369"
      },
      {
        "astId": 8969,
        "contract": "contracts/protocol/CaskSubscriptionManager.sol:CaskSubscriptionManager",
        "label": "paymentFeeFixed",
        "offset": 0,
        "slot": "154",
        "type": "t_uint256"
      },
      {
        "astId": 8972,
        "contract": "contracts/protocol/CaskSubscriptionManager.sol:CaskSubscriptionManager",
        "label": "paymentFeeRateMin",
        "offset": 0,
        "slot": "155",
        "type": "t_uint256"
      },
      {
        "astId": 8974,
        "contract": "contracts/protocol/CaskSubscriptionManager.sol:CaskSubscriptionManager",
        "label": "paymentFeeRateMax",
        "offset": 0,
        "slot": "156",
        "type": "t_uint256"
      },
      {
        "astId": 8977,
        "contract": "contracts/protocol/CaskSubscriptionManager.sol:CaskSubscriptionManager",
        "label": "stakeTargetFactor",
        "offset": 0,
        "slot": "157",
        "type": "t_uint256"
      },
      {
        "astId": 8981,
        "contract": "contracts/protocol/CaskSubscriptionManager.sol:CaskSubscriptionManager",
        "label": "deprecated1",
        "offset": 0,
        "slot": "158",
        "type": "t_mapping(t_uint256,t_uint32)"
      },
      {
        "astId": 8984,
        "contract": "contracts/protocol/CaskSubscriptionManager.sol:CaskSubscriptionManager",
        "label": "processBucketSize",
        "offset": 0,
        "slot": "159",
        "type": "t_uint32"
      },
      {
        "astId": 8993,
        "contract": "contracts/protocol/CaskSubscriptionManager.sol:CaskSubscriptionManager",
        "label": "processQueue",
        "offset": 0,
        "slot": "160",
        "type": "t_mapping(t_enum(CheckType)7559,t_mapping(t_uint32,t_array(t_uint256)dyn_storage))"
      },
      {
        "astId": 8998,
        "contract": "contracts/protocol/CaskSubscriptionManager.sol:CaskSubscriptionManager",
        "label": "processingBucket",
        "offset": 0,
        "slot": "161",
        "type": "t_mapping(t_enum(CheckType)7559,t_uint32)"
      }
    ],
    "types": {
      "t_address": {
        "encoding": "inplace",
        "label": "address",
        "numberOfBytes": "20"
      },
      "t_array(t_uint256)49_storage": {
        "base": "t_uint256",
        "encoding": "inplace",
        "label": "uint256[49]",
        "numberOfBytes": "1568"
      },
      "t_array(t_uint256)50_storage": {
        "base": "t_uint256",
        "encoding": "inplace",
        "label": "uint256[50]",
        "numberOfBytes": "1600"
      },
      "t_array(t_uint256)dyn_storage": {
        "base": "t_uint256",
        "encoding": "dynamic_array",
        "label": "uint256[]",
        "numberOfBytes": "32"
      },
      "t_bool": {
        "encoding": "inplace",
        "label": "bool",
        "numberOfBytes": "1"
      },
      "t_contract(ICaskSubscriptionPlans)7736": {
        "encoding": "inplace",
        "label": "contract ICaskSubscriptionPlans",
        "numberOfBytes": "20"
      },
      "t_contract(ICaskSubscriptions)8123": {
        "encoding": "inplace",
        "label": "contract ICaskSubscriptions",
        "numberOfBytes": "20"
      },
      "t_contract(ICaskVault)8369": {
        "encoding": "inplace",
        "label": "contract ICaskVault",
        "numberOfBytes": "20"
      },
      "t_enum(CheckType)7559": {
        "encoding": "inplace",
        "label": "enum ICaskSubscriptionManager.CheckType",
        "numberOfBytes": "1"
      },
      "t_mapping(t_enum(CheckType)7559,t_mapping(t_uint32,t_array(t_uint256)dyn_storage))": {
        "encoding": "mapping",
        "key": "t_enum(CheckType)7559",
        "label": "mapping(enum ICaskSubscriptionManager.CheckType => mapping(uint32 => uint256[]))",
        "numberOfBytes": "32",
        "value": "t_mapping(t_uint32,t_array(t_uint256)dyn_storage)"
      },
      "t_mapping(t_enum(CheckType)7559,t_uint32)": {
        "encoding": "mapping",
        "key": "t_enum(CheckType)7559",
        "label": "mapping(enum ICaskSubscriptionManager.CheckType => uint32)",
        "numberOfBytes": "32",
        "value": "t_uint32"
      },
      "t_mapping(t_uint256,t_uint32)": {
        "encoding": "mapping",
        "key": "t_uint256",
        "label": "mapping(uint256 => uint32)",
        "numberOfBytes": "32",
        "value": "t_uint32"
      },
      "t_mapping(t_uint32,t_array(t_uint256)dyn_storage)": {
        "encoding": "mapping",
        "key": "t_uint32",
        "label": "mapping(uint32 => uint256[])",
        "numberOfBytes": "32",
        "value": "t_array(t_uint256)dyn_storage"
      },
      "t_uint256": {
        "encoding": "inplace",
        "label": "uint256",
        "numberOfBytes": "32"
      },
      "t_uint32": {
        "encoding": "inplace",
        "label": "uint32",
        "numberOfBytes": "4"
      }
    }
  }
}