{
  "address": "0x3Ee6f9cf2b02f740031C2d0293a786d95FCE8D3C",
  "abi": [
    {
      "inputs": [],
      "stateMutability": "nonpayable",
      "type": "constructor"
    },
    {
      "anonymous": false,
      "inputs": [
        {
          "indexed": true,
          "internalType": "address",
          "name": "previousOwner",
          "type": "address"
        },
        {
          "indexed": true,
          "internalType": "address",
          "name": "newOwner",
          "type": "address"
        }
      ],
      "name": "OwnershipTransferred",
      "type": "event"
    },
    {
      "anonymous": false,
      "inputs": [
        {
          "indexed": false,
          "internalType": "address",
          "name": "account",
          "type": "address"
        }
      ],
      "name": "Paused",
      "type": "event"
    },
    {
      "anonymous": false,
      "inputs": [
        {
          "indexed": false,
          "internalType": "address",
          "name": "account",
          "type": "address"
        }
      ],
      "name": "Unpaused",
      "type": "event"
    },
    {
      "inputs": [
        {
          "internalType": "bytes",
          "name": "checkData",
          "type": "bytes"
        }
      ],
      "name": "checkUpkeep",
      "outputs": [
        {
          "internalType": "bool",
          "name": "upkeepNeeded",
          "type": "bool"
        },
        {
          "internalType": "bytes",
          "name": "performData",
          "type": "bytes"
        }
      ],
      "stateMutability": "view",
      "type": "function"
    },
    {
      "inputs": [
        {
          "internalType": "address",
          "name": "_vault",
          "type": "address"
        },
        {
          "internalType": "address",
          "name": "_subscriptionPlans",
          "type": "address"
        },
        {
          "internalType": "address",
          "name": "_subscriptions",
          "type": "address"
        }
      ],
      "name": "initialize",
      "outputs": [],
      "stateMutability": "nonpayable",
      "type": "function"
    },
    {
      "inputs": [],
      "name": "owner",
      "outputs": [
        {
          "internalType": "address",
          "name": "",
          "type": "address"
        }
      ],
      "stateMutability": "view",
      "type": "function"
    },
    {
      "inputs": [],
      "name": "pause",
      "outputs": [],
      "stateMutability": "nonpayable",
      "type": "function"
    },
    {
      "inputs": [],
      "name": "paused",
      "outputs": [
        {
          "internalType": "bool",
          "name": "",
          "type": "bool"
        }
      ],
      "stateMutability": "view",
      "type": "function"
    },
    {
      "inputs": [],
      "name": "paymentFeeFixed",
      "outputs": [
        {
          "internalType": "uint256",
          "name": "",
          "type": "uint256"
        }
      ],
      "stateMutability": "view",
      "type": "function"
    },
    {
      "inputs": [],
      "name": "paymentFeeRateMax",
      "outputs": [
        {
          "internalType": "uint256",
          "name": "",
          "type": "uint256"
        }
      ],
      "stateMutability": "view",
      "type": "function"
    },
    {
      "inputs": [],
      "name": "paymentFeeRateMin",
      "outputs": [
        {
          "internalType": "uint256",
          "name": "",
          "type": "uint256"
        }
      ],
      "stateMutability": "view",
      "type": "function"
    },
    {
      "inputs": [
        {
          "internalType": "bytes",
          "name": "performData",
          "type": "bytes"
        }
      ],
      "name": "performUpkeep",
      "outputs": [],
      "stateMutability": "nonpayable",
      "type": "function"
    },
    {
      "inputs": [
        {
          "internalType": "address",
          "name": "_consumer",
          "type": "address"
        },
        {
          "internalType": "address",
          "name": "_provider",
          "type": "address"
        },
        {
          "internalType": "uint256",
          "name": "_subscriptionId",
          "type": "uint256"
        },
        {
          "internalType": "uint256",
          "name": "_value",
          "type": "uint256"
        }
      ],
      "name": "processSinglePayment",
      "outputs": [],
      "stateMutability": "nonpayable",
      "type": "function"
    },
    {
      "inputs": [
        {
          "internalType": "uint256",
          "name": "_subscriptionId",
          "type": "uint256"
        }
      ],
      "name": "renewSubscription",
      "outputs": [],
      "stateMutability": "nonpayable",
      "type": "function"
    },
    {
      "inputs": [],
      "name": "renounceOwnership",
      "outputs": [],
      "stateMutability": "nonpayable",
      "type": "function"
    },
    {
      "inputs": [
        {
          "internalType": "uint256",
          "name": "_paymentFeeFixed",
          "type": "uint256"
        },
        {
          "internalType": "uint256",
          "name": "_paymentFeeRateMin",
          "type": "uint256"
        },
        {
          "internalType": "uint256",
          "name": "_paymentFeeRateMax",
          "type": "uint256"
        },
        {
          "internalType": "uint256",
          "name": "_stakeTargetFactor",
          "type": "uint256"
        }
      ],
      "name": "setParameters",
      "outputs": [],
      "stateMutability": "nonpayable",
      "type": "function"
    },
    {
      "inputs": [],
      "name": "stakeTargetFactor",
      "outputs": [
        {
          "internalType": "uint256",
          "name": "",
          "type": "uint256"
        }
      ],
      "stateMutability": "view",
      "type": "function"
    },
    {
      "inputs": [],
      "name": "subscriptionPlans",
      "outputs": [
        {
          "internalType": "contract ICaskSubscriptionPlans",
          "name": "",
          "type": "address"
        }
      ],
      "stateMutability": "view",
      "type": "function"
    },
    {
      "inputs": [],
      "name": "subscriptions",
      "outputs": [
        {
          "internalType": "contract ICaskSubscriptions",
          "name": "",
          "type": "address"
        }
      ],
      "stateMutability": "view",
      "type": "function"
    },
    {
      "inputs": [
        {
          "internalType": "address",
          "name": "newOwner",
          "type": "address"
        }
      ],
      "name": "transferOwnership",
      "outputs": [],
      "stateMutability": "nonpayable",
      "type": "function"
    },
    {
      "inputs": [],
      "name": "unpause",
      "outputs": [],
      "stateMutability": "nonpayable",
      "type": "function"
    },
    {
      "inputs": [],
      "name": "vault",
      "outputs": [
        {
          "internalType": "contract ICaskVault",
          "name": "",
          "type": "address"
        }
      ],
      "stateMutability": "view",
      "type": "function"
    }
  ],
  "transactionHash": "0x969c994e2c56421007b307706276bb835bf885358cb2b2882cbb910881bb6b90",
  "args": [],
  "numDeployments": 4,
  "solcInputHash": "3ee954794b3461e77198846a6ecc2879",
  "bytecode": "0x60806040523480156200001157600080fd5b50600054610100900460ff166200002f5760005460ff161562000039565b62000039620000de565b620000a15760405162461bcd60e51b815260206004820152602e60248201527f496e697469616c697a61626c653a20636f6e747261637420697320616c72656160448201526d191e481a5b9a5d1a585b1a5e995960921b606482015260840160405180910390fd5b600054610100900460ff16158015620000c4576000805461ffff19166101011790555b8015620000d7576000805461ff00191690555b5062000102565b6000620000f630620000fc60201b620007c31760201c565b15905090565b3b151590565b6126b280620001126000396000f3fe608060405234801561001057600080fd5b50600436106101215760003560e01c80638da5cb5b116100ad578063c54c58c411610071578063c54c58c41461021f578063d71bb37b14610232578063f2fde38b14610245578063fbfa77cf14610258578063fcd9da441461026b57600080fd5b80638da5cb5b146101b85780638fe17b16146101dd578063b8e381e5146101f0578063badf4b3e14610203578063c0c53b8b1461020c57600080fd5b80634585e33b116100f45780634585e33b1461015e5780635c975abb146101715780636e04ff0d14610187578063715018a6146101a85780638456cb59146101b057600080fd5b806308e27a9914610126578063219e24c5146101425780633c07e34d1461014b5780633f4ba83a14610154575b600080fd5b61012f609d5481565b6040519081526020015b60405180910390f35b61012f609b5481565b61012f609a5481565b61015c61027e565b005b61015c61016c366004611d14565b6102bb565b60655460ff166040519015158152602001610139565b61019a610195366004611d14565b610356565b604051610139929190611db2565b61015c6104e5565b61015c610519565b6033546001600160a01b03165b6040516001600160a01b039091168152602001610139565b6097546101c5906001600160a01b031681565b6098546101c5906001600160a01b031681565b61012f609c5481565b61015c61021a366004611e03565b61054b565b61015c61022d366004611e4e565b610667565b61015c610240366004611e94565b6106be565b61015c610253366004611ead565b6106ed565b6099546101c5906001600160a01b031681565b61015c610279366004611ed1565b610785565b6033546001600160a01b031633146102b15760405162461bcd60e51b81526004016102a890611f03565b60405180910390fd5b6102b96107c9565b565b60655460ff16156102de5760405162461bcd60e51b81526004016102a890611f38565b60006102ec82840184611ff7565b905060005b815181101561035057600082828151811061030e5761030e61208d565b6020026020010151111561033e5761033e8282815181106103315761033161208d565b602002602001015161085c565b80610348816120b9565b9150506102f1565b50505050565b60006060818080610369868801886120d4565b92509250925060008061037d8585856111e7565b9150915081600014156103a557600096506040518060200160405280600081525095506104d9565b848210156104b2576000808367ffffffffffffffff8111156103c9576103c9611f62565b6040519080825280602002602001820160405280156103f2578160200160208202803683370190505b50905060005b878110801561040657508483105b1561048457600084828151811061041f5761041f61208d565b602002602001015111156104725783818151811061043f5761043f61208d565b60200260200101518284815181106104595761045961208d565b602090810291909101015261046f600184612108565b92505b8061047c816120b9565b9150506103f8565b50600198508060405160200161049a9190612120565b604051602081830303815290604052975050506104d9565b60019650806040516020016104c79190612120565b60405160208183030381529060405295505b50505050509250929050565b6033546001600160a01b0316331461050f5760405162461bcd60e51b81526004016102a890611f03565b6102b960006115db565b6033546001600160a01b031633146105435760405162461bcd60e51b81526004016102a890611f03565b6102b961162d565b600054610100900460ff166105665760005460ff161561056a565b303b155b6105cd5760405162461bcd60e51b815260206004820152602e60248201527f496e697469616c697a61626c653a20636f6e747261637420697320616c72656160448201526d191e481a5b9a5d1a585b1a5e995960921b60648201526084016102a8565b600054610100900460ff161580156105ef576000805461ffff19166101011790555b6105f7611685565b6105ff6116bc565b609780546001600160a01b038086166001600160a01b0319928316179092556098805485841690831617905560998054928716929091169190911790556000609a819055609b819055609c819055609d558015610350576000805461ff001916905550505050565b6098546001600160a01b0316336001600160a01b0316146106b25760405162461bcd60e51b815260206004820152600560248201526404282aaa8960db1b60448201526064016102a8565b610350848484846116f3565b60655460ff16156106e15760405162461bcd60e51b81526004016102a890611f38565b6106ea8161085c565b50565b6033546001600160a01b031633146107175760405162461bcd60e51b81526004016102a890611f03565b6001600160a01b03811661077c5760405162461bcd60e51b815260206004820152602660248201527f4f776e61626c653a206e6577206f776e657220697320746865207a65726f206160448201526564647265737360d01b60648201526084016102a8565b6106ea816115db565b6033546001600160a01b031633146107af5760405162461bcd60e51b81526004016102a890611f03565b609a93909355609b91909155609c55609d55565b3b151590565b60655460ff166108125760405162461bcd60e51b815260206004820152601460248201527314185d5cd8589b194e881b9bdd081c185d5cd95960621b60448201526064016102a8565b6065805460ff191690557f5db9ee0a495bf2e6ff9c91a7834c1ba4fdd244a5e8aa4e537bd38aeae4b073aa335b6040516001600160a01b03909116815260200160405180910390a1565b60985460405163dc311dd360e01b8152600481018390526000916001600160a01b03169063dc311dd39060240160006040518083038186803b1580156108a157600080fd5b505afa1580156108b5573d6000803e3d6000fd5b505050506040513d6000823e601f3d908101601f191682016040526108dd9190810190612203565b50905060004290508063ffffffff1682610120015163ffffffff161180610919575060038260c00151600581111561091757610917612333565b145b1561092357505050565b600082610160015163ffffffff1611801561094f57508063ffffffff1682610160015163ffffffff1611155b80610ab45750600260975460a084015160e085015160405163b6ab359f60e01b81526001600160a01b03928316600482015263ffffffff909116602482015291169063b6ab359f9060440160206040518083038186803b1580156109b257600080fd5b505afa1580156109c6573d6000803e3d6000fd5b505050506040513d601f19601f820116820180604052508101906109ea9190612349565b60028111156109fb576109fb612333565b148015610ab4575060975460a083015160e084015160405163025b687560e01b815263ffffffff8516936001600160a01b03169263025b687592610a5b926004016001600160a01b0392909216825263ffffffff16602082015260400190565b60206040518083038186803b158015610a7357600080fd5b505afa158015610a87573d6000803e3d6000fd5b505050506040513d601f19601f82011682018060405250810190610aab919061236a565b63ffffffff1611155b15610b2357609854604051633efbd95560e11b81526001600160a01b0390911690637df7b2aa90610aec908690600290600401612385565b600060405180830381600087803b158015610b0657600080fd5b505af1158015610b1a573d6000803e3d6000fd5b50505050505050565b60985460405163321b9a5560e21b8152600481018590526000916001600160a01b03169063c86e69549060240160206040518083038186803b158015610b6857600080fd5b505afa158015610b7c573d6000803e3d6000fd5b505050506040513d601f19601f82011682018060405250810190610ba091906123b7565b1115610c8f57609854604051633efbd95560e11b81526001600160a01b0390911690637df7b2aa90610bd9908690600190600401612385565b600060405180830381600087803b158015610bf357600080fd5b505af1158015610c07573d6000803e3d6000fd5b505060985460405163dc311dd360e01b8152600481018790526001600160a01b03909116925063dc311dd3915060240160006040518083038186803b158015610c4f57600080fd5b505afa158015610c63573d6000803e3d6000fd5b505050506040513d6000823e601f3d908101601f19168201604052610c8b9190810190612203565b5091505b6000610c9e8360000151611a07565b805160408501519192509015610e5d576000610d6485606001516040805160e081018252600080825260208201819052918101829052606081018290526080810182905260a0810182905260c0810191909152506040805160e08101825260a083811c825263ffffffff608085811c8216602080860191909152606087811c8416868801529587901c8316958501959095529385901c169282019290925261ffff601084901c1691810191909152600160f01b60f09290921b821690911460c082015290565b90508060a0015161ffff1660001480610daf57508363ffffffff168160a0015161ffff168460400151610d9791906123d0565b866101000151610da791906123fc565b63ffffffff16105b15610df5578060c0015115610dd1578051610dca9083612424565b9150610e5b565b805161271090610de1908461243b565b610deb9190612470565b610dca9083612424565b609854604051633efbd95560e11b81526001600160a01b0390911690637df7b2aa90610e28908990600590600401612385565b600060405180830381600087803b158015610e4257600080fd5b505af1158015610e56573d6000803e3d6000fd5b505050505b505b600081118015610f6b57506099546098546040516331a9108f60e11b81526004810188905283926001600160a01b039081169263597435cb92911690636352211e9060240160206040518083038186803b158015610eba57600080fd5b505afa158015610ece573d6000803e3d6000fd5b505050506040513d601f19601f82011682018060405250810190610ef29190612484565b6040516001600160e01b031960e084901b1681526001600160a01b03909116600482015260240160206040518083038186803b158015610f3157600080fd5b505afa158015610f45573d6000803e3d6000fd5b505050506040513d601f19601f82011682018060405250810190610f6991906123b7565b105b1561109f5760c0820151610f859060ff16620151806124a1565b610f949062ffffff16846124c3565b63ffffffff1684610120015163ffffffff16101561101657609854604051633efbd95560e11b81526001600160a01b0390911690637df7b2aa90610fdf908890600290600401612385565b600060405180830381600087803b158015610ff957600080fd5b505af115801561100d573d6000803e3d6000fd5b505050506111e0565b60058460c00151600581111561102e5761102e612333565b1461109a5761103f836138406123fc565b6000868152609e602052604090819020805463ffffffff191663ffffffff93909316929092179091556098549051633efbd95560e11b81526001600160a01b0390911690637df7b2aa90610fdf908890600390600401612385565b6111e0565b801561117b576098546040516331a9108f60e11b81526004810187905261112f916001600160a01b031690636352211e9060240160206040518083038186803b1580156110eb57600080fd5b505afa1580156110ff573d6000803e3d6000fd5b505050506040513d601f19601f820116820180604052508101906111239190612484565b8560a0015187846116f3565b6000858152609e602052604090819020805463ffffffff191690556098549051633efbd95560e11b81526001600160a01b0390911690637df7b2aa90610fdf9088906004908101612385565b609854604051633efbd95560e11b81526001600160a01b0390911690637df7b2aa906111ad9088906004908101612385565b600060405180830381600087803b1580156111c757600080fd5b505af11580156111db573d6000803e3d6000fd5b505050505b5050505050565b600060606000609860009054906101000a90046001600160a01b03166001600160a01b03166398c0bce06040518163ffffffff1660e01b815260040160206040518083038186803b15801561123b57600080fd5b505afa15801561124f573d6000803e3d6000fd5b505050506040513d601f19601f8201168201806040525081019061127391906123b7565b905085818111156112815750805b8186106112a357604080516000808252602082019092529350935050506115d3565b4260008267ffffffffffffffff8111156112bf576112bf611f62565b6040519080825280602002602001820160405280156112e8578160200160208202803683370190505b5090506000609860009054906101000a90046001600160a01b03166001600160a01b0316635bdc42696040518163ffffffff1660e01b815260040160006040518083038186803b15801561133b57600080fd5b505afa15801561134f573d6000803e3d6000fd5b505050506040513d6000823e601f3d908101601f1916820160405261137791908101906124e8565b90506000805b85821080156113945750866113928c83612108565b105b156115c8576098546000906001600160a01b031663dc311dd3856113b88f86612108565b815181106113c8576113c861208d565b60200260200101516040518263ffffffff1660e01b81526004016113ee91815260200190565b60006040518083038186803b15801561140657600080fd5b505afa15801561141a573d6000803e3d6000fd5b505050506040513d6000823e601f3d908101601f191682016040526114429190810190612203565b5090508563ffffffff1681610120015163ffffffff16116115b55760ff8b166114d75760025b8160c00151600581111561147e5761147e612333565b14156114d2578361148f8d84612108565b8151811061149f5761149f61208d565b60200260200101518584815181106114b9576114b961208d565b60209081029190910101526114cf600184612108565b92505b6115b5565b8a60ff16600114156114ea576001611468565b8a60ff16600214156115b55760058160c00151600581111561150e5761150e612333565b14801561156257508563ffffffff16609e6000868f8661152e9190612108565b8151811061153e5761153e61208d565b60209081029190910181015182528101919091526040016000205463ffffffff1611155b156115b557836115728d84612108565b815181106115825761158261208d565b602002602001015185848151811061159c5761159c61208d565b60209081029190910101526115b2600184612108565b92505b50806115c0816120b9565b91505061137d565b509650909450505050505b935093915050565b603380546001600160a01b038381166001600160a01b0319831681179093556040519116919082907f8be0079c531659141344cd1fd0a4f28419497f9722a3daafe3b4186f6b6457e090600090a35050565b60655460ff16156116505760405162461bcd60e51b81526004016102a890611f38565b6065805460ff191660011790557f62e78cea01bee320cd4e420270b5ea74000d11b0c9f74754ebdbfc544b05a25861083f3390565b600054610100900460ff166116ac5760405162461bcd60e51b81526004016102a89061256e565b6116b4611ae2565b6102b9611b09565b600054610100900460ff166116e35760405162461bcd60e51b81526004016102a89061256e565b6116eb611ae2565b6102b9611b39565b60995460405163597435cb60e01b81526001600160a01b0386811660048301528392169063597435cb9060240160206040518083038186803b15801561173857600080fd5b505afa15801561174c573d6000803e3d6000fd5b505050506040513d601f19601f8201168201806040525081019061177091906123b7565b10156117a95760405162461bcd60e51b81526020600482015260086024820152672142414c414e434560c01b60448201526064016102a8565b609c5460985460405163dc311dd360e01b8152600481018590526000929183916001600160a01b039091169063dc311dd39060240160006040518083038186803b1580156117f657600080fd5b505afa15801561180a573d6000803e3d6000fd5b505050506040513d6000823e601f3d908101601f191682016040526118329190810190612203565b50905060006118448260000151611a07565b9050831561195357600062015180826040015161186191906125b9565b61186d9061016d6125b9565b609d5460985460a086015160405163c7a687bf60e01b81526001600160a01b03918216600482015263ffffffff949094169450600093859392919091169063c7a687bf9060240160206040518083038186803b1580156118cc57600080fd5b505afa1580156118e0573d6000803e3d6000fd5b505050506040513d601f19601f8201168201806040525081019061190491906123b7565b61190e919061243b565b611918919061243b565b90506119248187612470565b609c54611931919061243b565b609c5461193e9190612424565b9450609b5485101561195057609b5494505b50505b609754604051630782fb5960e31b81526001600160a01b0389811660048301526000921690633c17dac89060240160006040518083038186803b15801561199957600080fd5b505afa1580156119ad573d6000803e3d6000fd5b505050506040513d6000823e601f3d908101601f191682016040526119d591908101906125dc565b805190915088906001600160a01b0316156119ee575080515b6119fb848b838a89611b6c565b50505050505050505050565b6040805161012081018252600080825260208201819052918101829052606081018290526080810182905260a0810182905260c0810182905260e0810182905261010081019190915250604080516101208101825260a083811c8252608084811c63ffffffff908116602080860191909152606087811c8316868801529587901c8216958501959095529385901c90931692820192909252601083901c61ffff1691810191909152600882901c60ff1660c082015260f89190911b600160f81b8181161460e0830152600160f91b9081161461010082015290565b600054610100900460ff166102b95760405162461bcd60e51b81526004016102a89061256e565b600054610100900460ff16611b305760405162461bcd60e51b81526004016102a89061256e565b6102b9336115db565b600054610100900460ff16611b605760405162461bcd60e51b81526004016102a89061256e565b6065805460ff19169055565b602085015115611c9d576000611bb8866020015160408051808201909152600080825260208201525060408051808201909152606082901c815260509190911c61ffff16602082015290565b6099549091506001600160a01b03166379b2125f868686612710611bdc888361243b565b611be69190612470565b609a54611bf39190612108565b8651602088015161271090611c0c9061ffff168c61243b565b611c169190612470565b60405160e088901b6001600160e01b03191681526001600160a01b039687166004820152948616602486015260448501939093526064840191909152909216608482015260a481019190915260c401600060405180830381600087803b158015611c7f57600080fd5b505af1158015611c93573d6000803e3d6000fd5b50505050506111e0565b6099546001600160a01b031663fcd6a25b858585612710611cbe878361243b565b611cc89190612470565b609a54611cd59190612108565b6040516001600160e01b031960e087901b1681526001600160a01b039485166004820152939092166024840152604483015260648201526084016111ad565b60008060208385031215611d2757600080fd5b823567ffffffffffffffff80821115611d3f57600080fd5b818501915085601f830112611d5357600080fd5b813581811115611d6257600080fd5b866020828501011115611d7457600080fd5b60209290920196919550909350505050565b60005b83811015611da1578181015183820152602001611d89565b838111156103505750506000910152565b82151581526040602082015260008251806040840152611dd9816060850160208701611d86565b601f01601f1916919091016060019392505050565b6001600160a01b03811681146106ea57600080fd5b600080600060608486031215611e1857600080fd5b8335611e2381611dee565b92506020840135611e3381611dee565b91506040840135611e4381611dee565b809150509250925092565b60008060008060808587031215611e6457600080fd5b8435611e6f81611dee565b93506020850135611e7f81611dee565b93969395505050506040820135916060013590565b600060208284031215611ea657600080fd5b5035919050565b600060208284031215611ebf57600080fd5b8135611eca81611dee565b9392505050565b60008060008060808587031215611ee757600080fd5b5050823594602084013594506040840135936060013592509050565b6020808252818101527f4f776e61626c653a2063616c6c6572206973206e6f7420746865206f776e6572604082015260600190565b60208082526010908201526f14185d5cd8589b194e881c185d5cd95960821b604082015260600190565b634e487b7160e01b600052604160045260246000fd5b6040516101a0810167ffffffffffffffff81118282101715611f9c57611f9c611f62565b60405290565b604051601f8201601f1916810167ffffffffffffffff81118282101715611fcb57611fcb611f62565b604052919050565b600067ffffffffffffffff821115611fed57611fed611f62565b5060051b60200190565b6000602080838503121561200a57600080fd5b823567ffffffffffffffff81111561202157600080fd5b8301601f8101851361203257600080fd5b803561204561204082611fd3565b611fa2565b81815260059190911b8201830190838101908783111561206457600080fd5b928401925b8284101561208257833582529284019290840190612069565b979650505050505050565b634e487b7160e01b600052603260045260246000fd5b634e487b7160e01b600052601160045260246000fd5b60006000198214156120cd576120cd6120a3565b5060010190565b6000806000606084860312156120e957600080fd5b8335925060208401359150604084013560ff81168114611e4357600080fd5b6000821982111561211b5761211b6120a3565b500190565b6020808252825182820181905260009190848201906040850190845b818110156121585783518352928401929184019160010161213c565b50909695505050505050565b805161216f81611dee565b919050565b80516006811061216f57600080fd5b805163ffffffff8116811461216f57600080fd5b600082601f8301126121a857600080fd5b815167ffffffffffffffff8111156121c2576121c2611f62565b6121d5601f8201601f1916602001611fa2565b8181528460208386010111156121ea57600080fd5b6121fb826020830160208701611d86565b949350505050565b6000806040838503121561221657600080fd5b825167ffffffffffffffff8082111561222e57600080fd5b908401906101a0828703121561224357600080fd5b61224b611f78565b825181526020830151602082015260408301516040820152606083015160608201526080830151608082015261228360a08401612164565b60a082015261229460c08401612174565b60c08201526122a560e08401612183565b60e08201526101006122b8818501612183565b908201526101206122ca848201612183565b908201526101406122dc848201612183565b908201526101606122ee848201612183565b90820152610180838101518381111561230657600080fd5b61231289828701612197565b82840152505080945050505061232a60208401612164565b90509250929050565b634e487b7160e01b600052602160045260246000fd5b60006020828403121561235b57600080fd5b815160038110611eca57600080fd5b60006020828403121561237c57600080fd5b611eca82612183565b82815260408101600683106123aa57634e487b7160e01b600052602160045260246000fd5b8260208301529392505050565b6000602082840312156123c957600080fd5b5051919050565b600063ffffffff808316818516818304811182151516156123f3576123f36120a3565b02949350505050565b600063ffffffff80831681851680830382111561241b5761241b6120a3565b01949350505050565b600082821015612436576124366120a3565b500390565b6000816000190483118215151615612455576124556120a3565b500290565b634e487b7160e01b600052601260045260246000fd5b60008261247f5761247f61245a565b500490565b60006020828403121561249657600080fd5b8151611eca81611dee565b600062ffffff808316818516818304811182151516156123f3576123f36120a3565b600063ffffffff838116908316818110156124e0576124e06120a3565b039392505050565b600060208083850312156124fb57600080fd5b825167ffffffffffffffff81111561251257600080fd5b8301601f8101851361252357600080fd5b805161253161204082611fd3565b81815260059190911b8201830190838101908783111561255057600080fd5b928401925b8284101561208257835182529284019290840190612555565b6020808252602b908201527f496e697469616c697a61626c653a20636f6e7472616374206973206e6f74206960408201526a6e697469616c697a696e6760a81b606082015260800190565b600063ffffffff808416806125d0576125d061245a565b92169190910492915050565b6000602082840312156125ee57600080fd5b815167ffffffffffffffff8082111561260657600080fd5b908301906060828603121561261a57600080fd5b60405160608101818110838211171561263557612635611f62565b604052825161264381611dee565b81526020838101519082015260408301518281111561266157600080fd5b61266d87828601612197565b6040830152509594505050505056fea2646970667358221220ab9647c3a53ffb14807896de8aa4fe6424dca5227bb7c078909eea5afa0d43d264736f6c63430008090033",
  "devdoc": {
    "kind": "dev",
    "methods": {
      "checkUpkeep(bytes)": {
        "details": "To ensure that it is never called, you may want to add the cannotExecute modifier from KeeperBase to your implementation of this method.",
        "params": {
          "checkData": "specified in the upkeep registration so it is always the same for a registered upkeep. This can easilly be broken down into specific arguments using `abi.decode`, so multiple upkeeps can be registered on the same contract and easily differentiated by the contract."
        },
        "returns": {
          "performData": "bytes that the keeper should call performUpkeep with, if upkeep is needed. If you would like to encode data to decode later, try `abi.encode`.",
          "upkeepNeeded": "boolean to indicate whether the keeper should call performUpkeep or not."
        }
      },
      "constructor": {
        "custom:oz-upgrades-unsafe-allow": "constructor"
      },
      "owner()": {
        "details": "Returns the address of the current owner."
      },
      "paused()": {
        "details": "Returns true if the contract is paused, and false otherwise."
      },
      "performUpkeep(bytes)": {
        "details": "The input to this method should not be trusted, and the caller of the method should not even be restricted to any single registry. Anyone should be able call it, and the input should be validated, there is no guarantee that the data passed in is the performData returned from checkUpkeep. This could happen due to malicious keepers, racing keepers, or simply a state change while the performUpkeep transaction is waiting for confirmation. Always validate the data passed in.",
        "params": {
          "performData": "is the data which was passed back from the checkData simulation. If it is encoded, it can easily be decoded into other types by calling `abi.decode`. This data should not be trusted, and should be validated against the contract's current state."
        }
      },
      "renounceOwnership()": {
        "details": "Leaves the contract without owner. It will not be possible to call `onlyOwner` functions anymore. Can only be called by the current owner. NOTE: Renouncing ownership will leave the contract without an owner, thereby removing any functionality that is only available to the owner."
      },
      "transferOwnership(address)": {
        "details": "Transfers ownership of the contract to a new account (`newOwner`). Can only be called by the current owner."
      }
    },
    "stateVariables": {
      "attemptAfter": {
        "details": "map used to track when to reattempt a failed payment "
      },
      "paymentFeeFixed": {
        "details": "fixed fee to charge on payments, in baseAsset decimal units. "
      },
      "paymentFeeRateMin": {
        "details": "min and max percentage to charge on payments, in bps. 50% = 5000. "
      },
      "stakeTargetFactor": {
        "details": "factor used to reduce payment fee based on qty of staked CASK "
      },
      "subscriptionPlans": {
        "details": "contract to manage subscription plan definitions. "
      },
      "vault": {
        "details": "vault to use for payments. "
      }
    },
    "version": 1
  },
  "userdoc": {
    "kind": "user",
    "methods": {
      "checkUpkeep(bytes)": {
        "notice": "method that is simulated by the keepers to see if any work actually needs to be performed. This method does does not actually need to be executable, and since it is only ever simulated it can consume lots of gas."
      },
      "performUpkeep(bytes)": {
        "notice": "method that is actually executed by the keepers, via the registry. The data returned by the checkUpkeep simulation will be passed into this method to actually be executed."
      }
    },
    "version": 1
  },
  "storageLayout": {
    "storage": [
      {
        "astId": 327,
        "contract": "contracts/protocol/CaskSubscriptionManager.sol:CaskSubscriptionManager",
        "label": "_initialized",
        "offset": 0,
        "slot": "0",
        "type": "t_bool"
      },
      {
        "astId": 330,
        "contract": "contracts/protocol/CaskSubscriptionManager.sol:CaskSubscriptionManager",
        "label": "_initializing",
        "offset": 1,
        "slot": "0",
        "type": "t_bool"
      },
      {
        "astId": 2551,
        "contract": "contracts/protocol/CaskSubscriptionManager.sol:CaskSubscriptionManager",
        "label": "__gap",
        "offset": 0,
        "slot": "1",
        "type": "t_array(t_uint256)50_storage"
      },
      {
        "astId": 205,
        "contract": "contracts/protocol/CaskSubscriptionManager.sol:CaskSubscriptionManager",
        "label": "_owner",
        "offset": 0,
        "slot": "51",
        "type": "t_address"
      },
      {
        "astId": 319,
        "contract": "contracts/protocol/CaskSubscriptionManager.sol:CaskSubscriptionManager",
        "label": "__gap",
        "offset": 0,
        "slot": "52",
        "type": "t_array(t_uint256)49_storage"
      },
      {
        "astId": 415,
        "contract": "contracts/protocol/CaskSubscriptionManager.sol:CaskSubscriptionManager",
        "label": "_paused",
        "offset": 0,
        "slot": "101",
        "type": "t_bool"
      },
      {
        "astId": 506,
        "contract": "contracts/protocol/CaskSubscriptionManager.sol:CaskSubscriptionManager",
        "label": "__gap",
        "offset": 0,
        "slot": "102",
        "type": "t_array(t_uint256)49_storage"
      },
      {
        "astId": 8952,
        "contract": "contracts/protocol/CaskSubscriptionManager.sol:CaskSubscriptionManager",
        "label": "subscriptionPlans",
        "offset": 0,
        "slot": "151",
        "type": "t_contract(ICaskSubscriptionPlans)7718"
      },
      {
        "astId": 8955,
        "contract": "contracts/protocol/CaskSubscriptionManager.sol:CaskSubscriptionManager",
        "label": "subscriptions",
        "offset": 0,
        "slot": "152",
        "type": "t_contract(ICaskSubscriptions)8116"
      },
      {
        "astId": 8959,
        "contract": "contracts/protocol/CaskSubscriptionManager.sol:CaskSubscriptionManager",
        "label": "vault",
        "offset": 0,
        "slot": "153",
        "type": "t_contract(ICaskVault)8362"
      },
      {
        "astId": 8962,
        "contract": "contracts/protocol/CaskSubscriptionManager.sol:CaskSubscriptionManager",
        "label": "paymentFeeFixed",
        "offset": 0,
        "slot": "154",
        "type": "t_uint256"
      },
      {
        "astId": 8965,
        "contract": "contracts/protocol/CaskSubscriptionManager.sol:CaskSubscriptionManager",
        "label": "paymentFeeRateMin",
        "offset": 0,
        "slot": "155",
        "type": "t_uint256"
      },
      {
        "astId": 8967,
        "contract": "contracts/protocol/CaskSubscriptionManager.sol:CaskSubscriptionManager",
        "label": "paymentFeeRateMax",
        "offset": 0,
        "slot": "156",
        "type": "t_uint256"
      },
      {
        "astId": 8970,
        "contract": "contracts/protocol/CaskSubscriptionManager.sol:CaskSubscriptionManager",
        "label": "stakeTargetFactor",
        "offset": 0,
        "slot": "157",
        "type": "t_uint256"
      },
      {
        "astId": 8975,
        "contract": "contracts/protocol/CaskSubscriptionManager.sol:CaskSubscriptionManager",
        "label": "attemptAfter",
        "offset": 0,
        "slot": "158",
        "type": "t_mapping(t_uint256,t_uint32)"
      }
    ],
    "types": {
      "t_address": {
        "encoding": "inplace",
        "label": "address",
        "numberOfBytes": "20"
      },
      "t_array(t_uint256)49_storage": {
        "base": "t_uint256",
        "encoding": "inplace",
        "label": "uint256[49]",
        "numberOfBytes": "1568"
      },
      "t_array(t_uint256)50_storage": {
        "base": "t_uint256",
        "encoding": "inplace",
        "label": "uint256[50]",
        "numberOfBytes": "1600"
      },
      "t_bool": {
        "encoding": "inplace",
        "label": "bool",
        "numberOfBytes": "1"
      },
      "t_contract(ICaskSubscriptionPlans)7718": {
        "encoding": "inplace",
        "label": "contract ICaskSubscriptionPlans",
        "numberOfBytes": "20"
      },
      "t_contract(ICaskSubscriptions)8116": {
        "encoding": "inplace",
        "label": "contract ICaskSubscriptions",
        "numberOfBytes": "20"
      },
      "t_contract(ICaskVault)8362": {
        "encoding": "inplace",
        "label": "contract ICaskVault",
        "numberOfBytes": "20"
      },
      "t_mapping(t_uint256,t_uint32)": {
        "encoding": "mapping",
        "key": "t_uint256",
        "label": "mapping(uint256 => uint32)",
        "numberOfBytes": "32",
        "value": "t_uint32"
      },
      "t_uint256": {
        "encoding": "inplace",
        "label": "uint256",
        "numberOfBytes": "32"
      },
      "t_uint32": {
        "encoding": "inplace",
        "label": "uint32",
        "numberOfBytes": "4"
      }
    }
  }
}