{
  "address": "0xE200324D26A4D1df499642692caC60001585B71A",
  "abi": [
    {
      "inputs": [],
      "stateMutability": "nonpayable",
      "type": "constructor"
    },
    {
      "anonymous": false,
      "inputs": [
        {
          "indexed": true,
          "internalType": "address",
          "name": "previousOwner",
          "type": "address"
        },
        {
          "indexed": true,
          "internalType": "address",
          "name": "newOwner",
          "type": "address"
        }
      ],
      "name": "OwnershipTransferred",
      "type": "event"
    },
    {
      "anonymous": false,
      "inputs": [
        {
          "indexed": false,
          "internalType": "address",
          "name": "account",
          "type": "address"
        }
      ],
      "name": "Paused",
      "type": "event"
    },
    {
      "anonymous": false,
      "inputs": [
        {
          "indexed": false,
          "internalType": "uint256",
          "name": "limit",
          "type": "uint256"
        },
        {
          "indexed": false,
          "internalType": "uint256",
          "name": "renewals",
          "type": "uint256"
        },
        {
          "indexed": false,
          "internalType": "uint256",
          "name": "depth",
          "type": "uint256"
        },
        {
          "indexed": false,
          "internalType": "enum ICaskSubscriptionManager.CheckType",
          "name": "checkType",
          "type": "uint8"
        },
        {
          "indexed": false,
          "internalType": "uint256",
          "name": "queueRemaining",
          "type": "uint256"
        },
        {
          "indexed": false,
          "internalType": "uint32",
          "name": "currentBucket",
          "type": "uint32"
        }
      ],
      "name": "SubscriptionManagerReport",
      "type": "event"
    },
    {
      "anonymous": false,
      "inputs": [
        {
          "indexed": false,
          "internalType": "address",
          "name": "account",
          "type": "address"
        }
      ],
      "name": "Unpaused",
      "type": "event"
    },
    {
      "inputs": [
        {
          "internalType": "bytes",
          "name": "checkData",
          "type": "bytes"
        }
      ],
      "name": "checkUpkeep",
      "outputs": [
        {
          "internalType": "bool",
          "name": "upkeepNeeded",
          "type": "bool"
        },
        {
          "internalType": "bytes",
          "name": "performData",
          "type": "bytes"
        }
      ],
      "stateMutability": "view",
      "type": "function"
    },
    {
      "inputs": [
        {
          "internalType": "address",
          "name": "_vault",
          "type": "address"
        },
        {
          "internalType": "address",
          "name": "_subscriptionPlans",
          "type": "address"
        },
        {
          "internalType": "address",
          "name": "_subscriptions",
          "type": "address"
        }
      ],
      "name": "initialize",
      "outputs": [],
      "stateMutability": "nonpayable",
      "type": "function"
    },
    {
      "inputs": [],
      "name": "owner",
      "outputs": [
        {
          "internalType": "address",
          "name": "",
          "type": "address"
        }
      ],
      "stateMutability": "view",
      "type": "function"
    },
    {
      "inputs": [],
      "name": "pause",
      "outputs": [],
      "stateMutability": "nonpayable",
      "type": "function"
    },
    {
      "inputs": [],
      "name": "paused",
      "outputs": [
        {
          "internalType": "bool",
          "name": "",
          "type": "bool"
        }
      ],
      "stateMutability": "view",
      "type": "function"
    },
    {
      "inputs": [],
      "name": "paymentFeeMin",
      "outputs": [
        {
          "internalType": "uint256",
          "name": "",
          "type": "uint256"
        }
      ],
      "stateMutability": "view",
      "type": "function"
    },
    {
      "inputs": [],
      "name": "paymentFeeRateMax",
      "outputs": [
        {
          "internalType": "uint256",
          "name": "",
          "type": "uint256"
        }
      ],
      "stateMutability": "view",
      "type": "function"
    },
    {
      "inputs": [],
      "name": "paymentFeeRateMin",
      "outputs": [
        {
          "internalType": "uint256",
          "name": "",
          "type": "uint256"
        }
      ],
      "stateMutability": "view",
      "type": "function"
    },
    {
      "inputs": [
        {
          "internalType": "bytes",
          "name": "performData",
          "type": "bytes"
        }
      ],
      "name": "performUpkeep",
      "outputs": [],
      "stateMutability": "nonpayable",
      "type": "function"
    },
    {
      "inputs": [],
      "name": "processBucketSize",
      "outputs": [
        {
          "internalType": "uint32",
          "name": "",
          "type": "uint32"
        }
      ],
      "stateMutability": "view",
      "type": "function"
    },
    {
      "inputs": [
        {
          "internalType": "address",
          "name": "_consumer",
          "type": "address"
        },
        {
          "internalType": "address",
          "name": "_provider",
          "type": "address"
        },
        {
          "internalType": "uint256",
          "name": "_subscriptionId",
          "type": "uint256"
        },
        {
          "internalType": "uint256",
          "name": "_value",
          "type": "uint256"
        }
      ],
      "name": "processSinglePayment",
      "outputs": [],
      "stateMutability": "nonpayable",
      "type": "function"
    },
    {
      "inputs": [
        {
          "internalType": "enum ICaskSubscriptionManager.CheckType",
          "name": "_checkType",
          "type": "uint8"
        },
        {
          "internalType": "uint32",
          "name": "_bucket",
          "type": "uint32"
        },
        {
          "internalType": "uint256",
          "name": "_idx",
          "type": "uint256"
        }
      ],
      "name": "queueItem",
      "outputs": [
        {
          "internalType": "uint256",
          "name": "",
          "type": "uint256"
        }
      ],
      "stateMutability": "view",
      "type": "function"
    },
    {
      "inputs": [
        {
          "internalType": "enum ICaskSubscriptionManager.CheckType",
          "name": "_checkType",
          "type": "uint8"
        }
      ],
      "name": "queuePosition",
      "outputs": [
        {
          "internalType": "uint32",
          "name": "",
          "type": "uint32"
        }
      ],
      "stateMutability": "view",
      "type": "function"
    },
    {
      "inputs": [
        {
          "internalType": "enum ICaskSubscriptionManager.CheckType",
          "name": "_checkType",
          "type": "uint8"
        },
        {
          "internalType": "uint32",
          "name": "_bucket",
          "type": "uint32"
        }
      ],
      "name": "queueSize",
      "outputs": [
        {
          "internalType": "uint256",
          "name": "",
          "type": "uint256"
        }
      ],
      "stateMutability": "view",
      "type": "function"
    },
    {
      "inputs": [
        {
          "internalType": "uint256",
          "name": "_subscriptionId",
          "type": "uint256"
        }
      ],
      "name": "renewSubscription",
      "outputs": [],
      "stateMutability": "nonpayable",
      "type": "function"
    },
    {
      "inputs": [],
      "name": "renounceOwnership",
      "outputs": [],
      "stateMutability": "nonpayable",
      "type": "function"
    },
    {
      "inputs": [
        {
          "internalType": "uint256",
          "name": "_paymentFeeMin",
          "type": "uint256"
        },
        {
          "internalType": "uint256",
          "name": "_paymentFeeRateMin",
          "type": "uint256"
        },
        {
          "internalType": "uint256",
          "name": "_paymentFeeRateMax",
          "type": "uint256"
        },
        {
          "internalType": "uint256",
          "name": "_stakeTargetFactor",
          "type": "uint256"
        },
        {
          "internalType": "uint32",
          "name": "_processBucketSize",
          "type": "uint32"
        }
      ],
      "name": "setParameters",
      "outputs": [],
      "stateMutability": "nonpayable",
      "type": "function"
    },
    {
      "inputs": [
        {
          "internalType": "enum ICaskSubscriptionManager.CheckType",
          "name": "_checkType",
          "type": "uint8"
        },
        {
          "internalType": "uint32",
          "name": "_timestamp",
          "type": "uint32"
        }
      ],
      "name": "setProcessingBucket",
      "outputs": [],
      "stateMutability": "nonpayable",
      "type": "function"
    },
    {
      "inputs": [],
      "name": "stakeTargetFactor",
      "outputs": [
        {
          "internalType": "uint256",
          "name": "",
          "type": "uint256"
        }
      ],
      "stateMutability": "view",
      "type": "function"
    },
    {
      "inputs": [],
      "name": "subscriptionPlans",
      "outputs": [
        {
          "internalType": "contract ICaskSubscriptionPlans",
          "name": "",
          "type": "address"
        }
      ],
      "stateMutability": "view",
      "type": "function"
    },
    {
      "inputs": [],
      "name": "subscriptions",
      "outputs": [
        {
          "internalType": "contract ICaskSubscriptions",
          "name": "",
          "type": "address"
        }
      ],
      "stateMutability": "view",
      "type": "function"
    },
    {
      "inputs": [
        {
          "internalType": "address",
          "name": "newOwner",
          "type": "address"
        }
      ],
      "name": "transferOwnership",
      "outputs": [],
      "stateMutability": "nonpayable",
      "type": "function"
    },
    {
      "inputs": [],
      "name": "unpause",
      "outputs": [],
      "stateMutability": "nonpayable",
      "type": "function"
    },
    {
      "inputs": [],
      "name": "vault",
      "outputs": [
        {
          "internalType": "contract ICaskVault",
          "name": "",
          "type": "address"
        }
      ],
      "stateMutability": "view",
      "type": "function"
    }
  ],
  "transactionHash": "0x5c25f82452c922775d26e7dd179d953c0bc4b753fa7225ec7a597e945b491464",
  "args": [],
  "numDeployments": 3,
  "solcInputHash": "d6c25efcbf0cae4d4b0f900f06de951e",
  "bytecode": "0x60806040523480156200001157600080fd5b50600054610100900460ff166200002f5760005460ff161562000039565b62000039620000de565b620000a15760405162461bcd60e51b815260206004820152602e60248201527f496e697469616c697a61626c653a20636f6e747261637420697320616c72656160448201526d191e481a5b9a5d1a585b1a5e995960921b606482015260840160405180910390fd5b600054610100900460ff16158015620000c4576000805461ffff19166101011790555b8015620000d7576000805461ff00191690555b5062000102565b6000620000f630620000fc60201b620010bf1760201c565b15905090565b3b151590565b612ec780620001126000396000f3fe608060405234801561001057600080fd5b50600436106101585760003560e01c80638fe17b16116100c3578063c0c53b8b1161007c578063c0c53b8b146102be578063c54c58c4146102d1578063c83cbe89146102e4578063d71bb37b146102ed578063f2fde38b14610300578063fbfa77cf1461031357600080fd5b80638fe17b161461025957806393357f581461026c578063a76d67b81461027c578063aa878f761461028f578063b8e381e5146102a2578063badf4b3e146102b557600080fd5b80635c975abb116101155780635c975abb146101da5780636e04ff0d146101f05780637040cbb114610211578063715018a6146102245780638456cb591461022c5780638da5cb5b1461023457600080fd5b806308e27a991461015d57806314fad707146101795780631c39033c1461018c578063219e24c5146101b45780633f4ba83a146101bd5780634585e33b146101c7575b600080fd5b610166609d5481565b6040519081526020015b60405180910390f35b610166610187366004612577565b610326565b61019f61019a3660046125b8565b6103a0565b60405163ffffffff9091168152602001610170565b610166609b5481565b6101c56103e6565b005b6101c56101d53660046125d5565b610423565b60655460ff166040519015158152602001610170565b6102036101fe3660046125d5565b61096e565b604051610170929190612673565b6101c561021f3660046126af565b610b72565b6101c5610c99565b6101c5610ccd565b6033546001600160a01b03165b6040516001600160a01b039091168152602001610170565b609754610241906001600160a01b031681565b609e5461019f9063ffffffff1681565b6101c561028a3660046126fc565b610cff565b61016661029d3660046126fc565b610d89565b609854610241906001600160a01b031681565b610166609c5481565b6101c56102cc36600461274a565b610dde565b6101c56102df366004612795565b610fa1565b610166609a5481565b6101c56102fb3660046127db565b610ff8565b6101c561030e3660046127f4565b611027565b609954610241906001600160a01b031681565b6000609f600085600281111561033e5761033e612811565b600281111561034f5761034f612811565b815260200190815260200160002060008463ffffffff1663ffffffff168152602001908152602001600020828154811061038b5761038b612827565b906000526020600020015490505b9392505050565b600060a060008360028111156103b8576103b8612811565b60028111156103c9576103c9612811565b815260208101919091526040016000205463ffffffff1692915050565b6033546001600160a01b031633146104195760405162461bcd60e51b81526004016104109061283d565b60405180910390fd5b6104216110c5565b565b60655460ff16156104465760405162461bcd60e51b815260040161041090612872565b600080806104568486018661289c565b9250925092506000610466611158565b90506000806104768660056128e0565b905060a0600085600281111561048e5761048e612811565b600281111561049f5761049f612811565b815260208101919091526040016000205463ffffffff1661050f578260a060008660028111156104d1576104d1612811565b60028111156104e2576104e2612811565b815260200190815260200160002060006101000a81548163ffffffff021916908363ffffffff1602179055505b858210801561051e5750600081115b801561056d57508263ffffffff1660a0600086600281111561054257610542612811565b600281111561055357610553612811565b815260208101919091526040016000205463ffffffff1611155b1561085e576000609f600086600281111561058a5761058a612811565b600281111561059b5761059b612811565b8152602001908152602001600020600060a060008860028111156105c1576105c1612811565b60028111156105d2576105d2612811565b8152602080820192909252604090810160009081205463ffffffff1684529183019390935291019020549050801561077d576000609f600087600281111561061c5761061c612811565b600281111561062d5761062d612811565b8152602001908152602001600020600060a0600089600281111561065357610653612811565b600281111561066457610664612811565b8152602080820192909252604090810160009081205463ffffffff16845291830193909352910190206106986001846128ff565b815481106106a8576106a8612827565b90600052602060002001549050609f60008760028111156106cb576106cb612811565b60028111156106dc576106dc612811565b8152602001908152602001600020600060a0600089600281111561070257610702612811565b600281111561071357610713612811565b8152602080820192909252604090810160009081205463ffffffff168452918301939093529101902080548061074b5761074b612916565b6001900381819060005260206000200160009055905561076a81611180565b61077560018561292c565b935050610858565b8363ffffffff1660a0600087600281111561079a5761079a612811565b60028111156107ab576107ab612811565b815260208101919091526040016000205463ffffffff16101561085257609e5463ffffffff1660a060008760028111156107e7576107e7612811565b60028111156107f8576107f8612811565b815260208101919091526040016000908120805490919061082090849063ffffffff16612944565b92506101000a81548163ffffffff021916908363ffffffff16021790555060018261084b91906128ff565b9150610858565b5061085e565b5061050f565b7f75a64c7d044cacf7f5733a40d9f770446e4a977483bf14d9e58752255a62785386838787609f60008a600281111561089957610899612811565b60028111156108aa576108aa612811565b8152602001908152602001600020600060a060008c60028111156108d0576108d0612811565b60028111156108e1576108e1612811565b8152602080820192909252604090810160009081205463ffffffff1684529183019390935291018120549060a0908b600281111561092157610921612811565b600281111561093257610932612811565b81526020810191909152604090810160002054905161095c96959493929163ffffffff1690612980565b60405180910390a15050505050505050565b600060608180806109818688018861289c565b9250925092506000610991611158565b905060009550600060a060008460028111156109af576109af612811565b60028111156109c0576109c0612811565b815260208101919091526040016000205463ffffffff169050806109e15750805b8063ffffffff168263ffffffff1610158015610a0d5750610e10610a0582846129bf565b63ffffffff16115b15610a1b5760019650610afa565b8163ffffffff168163ffffffff1611610afa576000609f6000856002811115610a4657610a46612811565b6002811115610a5757610a57612811565b81526020808201929092526040908101600090812063ffffffff86168252909252902054118015610ad2575083609f6000856002811115610a9a57610a9a612811565b6002811115610aab57610aab612811565b81526020808201929092526040908101600090812063ffffffff8616825290925290205410155b15610ae05760019650610afa565b609e54610af39063ffffffff1682612944565b9050610a1b565b84609f6000856002811115610b1157610b11612811565b6002811115610b2257610b22612811565b81526020808201929092526040908101600090812063ffffffff861682528352819020549051610b5593928791016129e4565b604051602081830303815290604052955050505050509250929050565b6033546001600160a01b03163314610b9c5760405162461bcd60e51b81526004016104109061283d565b609a859055609b849055609c839055609d829055609e805463ffffffff191663ffffffff8316179055610bfc60a0600060015b6002811115610be057610be0612811565b815260208101919091526040016000205463ffffffff16611c3f565b6001600090815260a060208190527f5e4aa62fc514c001129aba2f8cfdadfdbf7b1cca3faf4a1fee3af14b1315f0dd805463ffffffff191663ffffffff9490941693909317909255610c5091906002610bcf565b600260005260a06020527e3e94880a29ff53e6a8208a04e96e212c12922b7bda6b10d8c1979e9844e678805463ffffffff191663ffffffff929092169190911790555050505050565b6033546001600160a01b03163314610cc35760405162461bcd60e51b81526004016104109061283d565b6104216000611c6f565b6033546001600160a01b03163314610cf75760405162461bcd60e51b81526004016104109061283d565b610421611cc1565b6033546001600160a01b03163314610d295760405162461bcd60e51b81526004016104109061283d565b610d3281611c3f565b60a06000846002811115610d4857610d48612811565b6002811115610d5957610d59612811565b815260200190815260200160002060006101000a81548163ffffffff021916908363ffffffff1602179055505050565b6000609f6000846002811115610da157610da1612811565b6002811115610db257610db2612811565b81526020808201929092526040908101600090812063ffffffff86168252909252902054905092915050565b600054610100900460ff16610df95760005460ff1615610dfd565b303b155b610e605760405162461bcd60e51b815260206004820152602e60248201527f496e697469616c697a61626c653a20636f6e747261637420697320616c72656160448201526d191e481a5b9a5d1a585b1a5e995960921b6064820152608401610410565b600054610100900460ff16158015610e82576000805461ffff19166101011790555b610e8a611d19565b610e92611d50565b609780546001600160a01b038086166001600160a01b0319928316179092556098805485841690831617905560998054928716929091169190911790556000609a819055609b819055609c819055609d55609e805463ffffffff191661012c179055610efc611158565b600160005260a06020527f5e4aa62fc514c001129aba2f8cfdadfdbf7b1cca3faf4a1fee3af14b1315f0dd805463ffffffff191663ffffffff92909216919091179055610f47611158565b600260005260a06020527e3e94880a29ff53e6a8208a04e96e212c12922b7bda6b10d8c1979e9844e678805463ffffffff191663ffffffff929092169190911790558015610f9b576000805461ff00191690555b50505050565b6098546001600160a01b0316336001600160a01b031614610fec5760405162461bcd60e51b815260206004820152600560248201526404282aaa8960db1b6044820152606401610410565b610f9b84848484611d87565b60655460ff161561101b5760405162461bcd60e51b815260040161041090612872565b61102481611180565b50565b6033546001600160a01b031633146110515760405162461bcd60e51b81526004016104109061283d565b6001600160a01b0381166110b65760405162461bcd60e51b815260206004820152602660248201527f4f776e61626c653a206e6577206f776e657220697320746865207a65726f206160448201526564647265737360d01b6064820152608401610410565b61102481611c6f565b3b151590565b60655460ff1661110e5760405162461bcd60e51b815260206004820152601460248201527314185d5cd8589b194e881b9bdd081c185d5cd95960621b6044820152606401610410565b6065805460ff191690557f5db9ee0a495bf2e6ff9c91a7834c1ba4fdd244a5e8aa4e537bd38aeae4b073aa335b6040516001600160a01b03909116815260200160405180910390a1565b609e5460009042906111709063ffffffff1682612a1d565b61117a90826129bf565b91505090565b60985460405163dc311dd360e01b81526004810183905260009182916001600160a01b039091169063dc311dd39060240160006040518083038186803b1580156111c957600080fd5b505afa1580156111dd573d6000803e3d6000fd5b505050506040513d6000823e601f3d908101601f191682016040526112059190810190612b32565b90925090504260038360c00151600581111561122357611223612811565b1480611244575060048360c00151600581111561124257611242612811565b145b80611264575060008360c00151600581111561126257611262612811565b145b1561126f5750505050565b8063ffffffff1683610120015163ffffffff1611156112f75760016000908152609f6020526101208401517fd8ebc4b3e3fc84fb7267bc9651f22e5107e8b4ddef6b7d4ac503c1ca7368470b91906112c690611c3f565b63ffffffff168152602080820192909252604001600090812080546001810182559082529190200193909355505050565b600083610160015163ffffffff1611801561132357508063ffffffff1683610160015163ffffffff1611155b806114885750600260975460a085015160e086015160405163b6ab359f60e01b81526001600160a01b03928316600482015263ffffffff909116602482015291169063b6ab359f9060440160206040518083038186803b15801561138657600080fd5b505afa15801561139a573d6000803e3d6000fd5b505050506040513d601f19601f820116820180604052508101906113be9190612c88565b60028111156113cf576113cf612811565b148015611488575060975460a084015160e085015160405163025b687560e01b815263ffffffff8516936001600160a01b03169263025b68759261142f926004016001600160a01b0392909216825263ffffffff16602082015260400190565b60206040518083038186803b15801561144757600080fd5b505afa15801561145b573d6000803e3d6000fd5b505050506040513d601f19601f8201168201806040525081019061147f9190612ca5565b63ffffffff1611155b156114f857609854604051633efbd95560e11b81526001600160a01b0390911690637df7b2aa906114c0908790600290600401612cc2565b600060405180830381600087803b1580156114da57600080fd5b505af11580156114ee573d6000803e3d6000fd5b5050505050505050565b60985460405163321b9a5560e21b8152600481018690526000916001600160a01b03169063c86e69549060240160206040518083038186803b15801561153d57600080fd5b505afa158015611551573d6000803e3d6000fd5b505050506040513d601f19601f820116820180604052508101906115759190612ce6565b111561166457609854604051633efbd95560e11b81526001600160a01b0390911690637df7b2aa906115ae908790600190600401612cc2565b600060405180830381600087803b1580156115c857600080fd5b505af11580156115dc573d6000803e3d6000fd5b505060985460405163dc311dd360e01b8152600481018890526001600160a01b03909116925063dc311dd3915060240160006040518083038186803b15801561162457600080fd5b505afa158015611638573d6000803e3d6000fd5b505050506040513d6000823e601f3d908101601f191682016040526116609190810190612b32565b5092505b600061167384600001516120a5565b8051604086015191925090156117af5760006116928660600151612180565b90506116a385876040015183612268565b156117ad5760a081015161ffff1615806116ef57508363ffffffff168160a0015161ffff1684604001516116d79190612cff565b8761010001516116e79190612944565b63ffffffff16105b15611747578060e001511561172357805182111561171a57805161171390836128ff565b91506117ad565b600091506117ad565b80516127109061173390846128e0565b61173d9190612d2b565b61171390836128ff565b609854604051633efbd95560e11b81526001600160a01b0390911690637df7b2aa9061177a908a90600590600401612cc2565b600060405180830381600087803b15801561179457600080fd5b505af11580156117a8573d6000803e3d6000fd5b505050505b505b600081118015611839575060995460405163597435cb60e01b81526001600160a01b0386811660048301528392169063597435cb9060240160206040518083038186803b1580156117ff57600080fd5b505afa158015611813573d6000803e3d6000fd5b505050506040513d601f19601f820116820180604052508101906118379190612ce6565b105b15611a115760c08201516118539060ff1662015180612d3f565b6118629062ffffff16846129bf565b63ffffffff1685610120015163ffffffff1610156118e457609854604051633efbd95560e11b81526001600160a01b0390911690637df7b2aa906118ad908990600290600401612cc2565b600060405180830381600087803b1580156118c757600080fd5b505af11580156118db573d6000803e3d6000fd5b50505050611c37565b60058560c0015160058111156118fc576118fc612811565b146119a45760026000908152609f6020527f95684aba87c7afc0cb0825ce802e59a0c43a91e65441705f8ec2d377a306a5879061194361193e86613840612944565b611c3f565b63ffffffff1681526020808201929092526040908101600090812080546001810182559082529290209091018790556098549051633efbd95560e11b81526001600160a01b0390911690637df7b2aa906118ad908990600390600401612cc2565b60026000908152609f6020527f95684aba87c7afc0cb0825ce802e59a0c43a91e65441705f8ec2d377a306a587906119e161193e86613840612944565b63ffffffff1681526020808201929092526040016000908120805460018101825590825291902001869055611c37565b8015611b5c57611a27848660a001518884611d87565b8263ffffffff168260400151866101200151611a439190612944565b63ffffffff161015611ab65760026000908152609f6020527f95684aba87c7afc0cb0825ce802e59a0c43a91e65441705f8ec2d377a306a58790611a8685611c3f565b63ffffffff1681526020808201929092526040016000908120805460018101825590825291902001869055611b2a565b60016000908152609f60205260408301516101208701517fd8ebc4b3e3fc84fb7267bc9651f22e5107e8b4ddef6b7d4ac503c1ca7368470b9291611afe9161193e9190612944565b63ffffffff16815260208082019290925260400160009081208054600181018255908252919020018690555b609854604051633efbd95560e11b81526001600160a01b0390911690637df7b2aa906118ad9089906004908101612cc2565b60016000908152609f60205260408301516101208701517fd8ebc4b3e3fc84fb7267bc9651f22e5107e8b4ddef6b7d4ac503c1ca7368470b9291611ba49161193e9190612944565b63ffffffff1681526020808201929092526040908101600090812080546001810182559082529290209091018790556098549051633efbd95560e11b81526001600160a01b0390911690637df7b2aa90611c049089906004908101612cc2565b600060405180830381600087803b158015611c1e57600080fd5b505af1158015611c32573d6000803e3d6000fd5b505050505b505050505050565b609e5460009063ffffffff16611c558184612a1d565b611c5f90846129bf565b611c699190612944565b92915050565b603380546001600160a01b038381166001600160a01b0319831681179093556040519116919082907f8be0079c531659141344cd1fd0a4f28419497f9722a3daafe3b4186f6b6457e090600090a35050565b60655460ff1615611ce45760405162461bcd60e51b815260040161041090612872565b6065805460ff191660011790557f62e78cea01bee320cd4e420270b5ea74000d11b0c9f74754ebdbfc544b05a25861113b3390565b600054610100900460ff16611d405760405162461bcd60e51b815260040161041090612d61565b611d48612345565b61042161236c565b600054610100900460ff16611d775760405162461bcd60e51b815260040161041090612d61565b611d7f612345565b61042161239c565b60995460405163597435cb60e01b81526001600160a01b0386811660048301528392169063597435cb9060240160206040518083038186803b158015611dcc57600080fd5b505afa158015611de0573d6000803e3d6000fd5b505050506040513d601f19601f82011682018060405250810190611e049190612ce6565b1015611e3d5760405162461bcd60e51b81526020600482015260086024820152672142414c414e434560c01b6044820152606401610410565b60985460405163dc311dd360e01b8152600481018490526000916001600160a01b03169063dc311dd39060240160006040518083038186803b158015611e8257600080fd5b505afa158015611e96573d6000803e3d6000fd5b505050506040513d6000823e601f3d908101601f19168201604052611ebe9190810190612b32565b50609c54609d549192509015611ffd57600080611ede84600001516120a5565b90508115611ffa576000620151808260400151611efb9190612dac565b611f079061016d612dac565b609d5460985460a08801516040516374c1443960e01b81526001600160a01b0391821660048201526000602482018190526044820181905263ffffffff95909516955085939291909116906374c144399060640160206040518083038186803b158015611f7357600080fd5b505afa158015611f87573d6000803e3d6000fd5b505050506040513d601f19601f82011682018060405250810190611fab9190612ce6565b611fb591906128e0565b611fbf91906128e0565b9050611fcb8185612d2b565b609c54611fd891906128e0565b609c54611fe591906128ff565b9450609b54851015611ff757609b5494505b50505b50505b609754604051630782fb5960e31b81526001600160a01b0387811660048301526000921690633c17dac89060240160006040518083038186803b15801561204357600080fd5b505afa158015612057573d6000803e3d6000fd5b505050506040513d6000823e601f3d908101601f1916820160405261207f9190810190612dcf565b805190915086906001600160a01b031615612098575080515b6114ee84898388876123cf565b6040805161012081018252600080825260208201819052918101829052606081018290526080810182905260a0810182905260c0810182905260e0810182905261010081019190915250604080516101208101825260a083811c8252608084811c63ffffffff908116602080860191909152606087811c8316868801529587901c8216958501959095529385901c90931692820192909252601083901c61ffff1691810191909152600882901c60ff1660c082015260f89190911b600160f81b8181161460e0830152600160f91b9081161461010082015290565b6040805161010081018252600080825260208201819052918101829052606081018290526080810182905260a0810182905260c0810182905260e0810191909152604080516101008101825260a084811c825263ffffffff608086811c8216602080860191909152606088811c8416868801529588901c8316958501959095529386901c169282019290925261ffff601085901c169181019190915260f083901b9060c0810160ff8516600281111561223b5761223b612811565b600281111561224c5761224c612811565b8152600160f81b92831690921460209092019190915292915050565b600060018260c00151600281111561228257612282612811565b141561229057506001610399565b60028260c0015160028111156122a8576122a8612811565b141561233b5760975460405163cd1402e760e01b81526001600160a01b038681166004830152602482018690529091169063cd1402e790604401602060405180830381600087803b1580156122fc57600080fd5b505af1158015612310573d6000803e3d6000fd5b505050506040513d601f19601f820116820180604052508101906123349190612e6f565b9050610399565b5060009392505050565b600054610100900460ff166104215760405162461bcd60e51b815260040161041090612d61565b600054610100900460ff166123935760405162461bcd60e51b815260040161041090612d61565b61042133611c6f565b600054610100900460ff166123c35760405162461bcd60e51b815260040161041090612d61565b6065805460ff19169055565b60006127106123de83856128e0565b6123e89190612d2b565b9050609a548110156123f95750609a545b602086015115612510576000612445876020015160408051808201909152600080825260208201525060408051808201909152606082901c815260509190911c61ffff16602082015290565b609954815160208301519293506001600160a01b03909116916379b2125f918991899189918891906127109061247f9061ffff16856128e0565b6124899190612d2b565b60405160e088901b6001600160e01b03191681526001600160a01b039687166004820152948616602486015260448501939093526064840191909152909216608482015260a481019190915260c401600060405180830381600087803b1580156124f257600080fd5b505af1158015612506573d6000803e3d6000fd5b5050505050611c37565b60995460405163fcd6a25b60e01b81526001600160a01b038781166004830152868116602483015260448201869052606482018490529091169063fcd6a25b90608401611c04565b6003811061102457600080fd5b63ffffffff8116811461102457600080fd5b60008060006060848603121561258c57600080fd5b833561259781612558565b925060208401356125a781612565565b929592945050506040919091013590565b6000602082840312156125ca57600080fd5b813561039981612558565b600080602083850312156125e857600080fd5b823567ffffffffffffffff8082111561260057600080fd5b818501915085601f83011261261457600080fd5b81358181111561262357600080fd5b86602082850101111561263557600080fd5b60209290920196919550909350505050565b60005b8381101561266257818101518382015260200161264a565b83811115610f9b5750506000910152565b8215158152604060208201526000825180604084015261269a816060850160208701612647565b601f01601f1916919091016060019392505050565b600080600080600060a086880312156126c757600080fd5b8535945060208601359350604086013592506060860135915060808601356126ee81612565565b809150509295509295909350565b6000806040838503121561270f57600080fd5b823561271a81612558565b9150602083013561272a81612565565b809150509250929050565b6001600160a01b038116811461102457600080fd5b60008060006060848603121561275f57600080fd5b833561276a81612735565b9250602084013561277a81612735565b9150604084013561278a81612735565b809150509250925092565b600080600080608085870312156127ab57600080fd5b84356127b681612735565b935060208501356127c681612735565b93969395505050506040820135916060013590565b6000602082840312156127ed57600080fd5b5035919050565b60006020828403121561280657600080fd5b813561039981612735565b634e487b7160e01b600052602160045260246000fd5b634e487b7160e01b600052603260045260246000fd5b6020808252818101527f4f776e61626c653a2063616c6c6572206973206e6f7420746865206f776e6572604082015260600190565b60208082526010908201526f14185d5cd8589b194e881c185d5cd95960821b604082015260600190565b6000806000606084860312156128b157600080fd5b8335925060208401359150604084013561278a81612558565b634e487b7160e01b600052601160045260246000fd5b60008160001904831182151516156128fa576128fa6128ca565b500290565b600082821015612911576129116128ca565b500390565b634e487b7160e01b600052603160045260246000fd5b6000821982111561293f5761293f6128ca565b500190565b600063ffffffff808316818516808303821115612963576129636128ca565b01949350505050565b6003811061297c5761297c612811565b9052565b868152602081018690526040810185905260c081016129a2606083018661296c565b83608083015263ffffffff831660a0830152979650505050505050565b600063ffffffff838116908316818110156129dc576129dc6128ca565b039392505050565b83815260208101839052606081016129ff604083018461296c565b949350505050565b634e487b7160e01b600052601260045260246000fd5b600063ffffffff80841680612a3457612a34612a07565b92169190910692915050565b634e487b7160e01b600052604160045260246000fd5b6040516101c0810167ffffffffffffffff81118282101715612a7a57612a7a612a40565b60405290565b8051612a8b81612735565b919050565b805160068110612a8b57600080fd5b8051612a8b81612565565b600082601f830112612abb57600080fd5b815167ffffffffffffffff80821115612ad657612ad6612a40565b604051601f8301601f19908116603f01168101908282118183101715612afe57612afe612a40565b81604052838152866020858801011115612b1757600080fd5b612b28846020830160208901612647565b9695505050505050565b60008060408385031215612b4557600080fd5b825167ffffffffffffffff80821115612b5d57600080fd5b908401906101c08287031215612b7257600080fd5b612b7a612a56565b8251815260208301516020820152604083015160408201526060830151606082015260808301516080820152612bb260a08401612a80565b60a0820152612bc360c08401612a90565b60c0820152612bd460e08401612a9f565b60e0820152610100612be7818501612a9f565b90820152610120612bf9848201612a9f565b90820152610140612c0b848201612a9f565b90820152610160612c1d848201612a9f565b908201526101808381015183811115612c3557600080fd5b612c4189828701612aaa565b8284015250506101a08084015183811115612c5b57600080fd5b612c6789828701612aaa565b828401525050809450505050612c7f60208401612a80565b90509250929050565b600060208284031215612c9a57600080fd5b815161039981612558565b600060208284031215612cb757600080fd5b815161039981612565565b8281526040810160068310612cd957612cd9612811565b8260208301529392505050565b600060208284031215612cf857600080fd5b5051919050565b600063ffffffff80831681851681830481118215151615612d2257612d226128ca565b02949350505050565b600082612d3a57612d3a612a07565b500490565b600062ffffff80831681851681830481118215151615612d2257612d226128ca565b6020808252602b908201527f496e697469616c697a61626c653a20636f6e7472616374206973206e6f74206960408201526a6e697469616c697a696e6760a81b606082015260800190565b600063ffffffff80841680612dc357612dc3612a07565b92169190910492915050565b600060208284031215612de157600080fd5b815167ffffffffffffffff80821115612df957600080fd5b9083019060608286031215612e0d57600080fd5b604051606081018181108382111715612e2857612e28612a40565b6040528251612e3681612735565b815260208381015190820152604083015182811115612e5457600080fd5b612e6087828601612aaa565b60408301525095945050505050565b600060208284031215612e8157600080fd5b8151801515811461039957600080fdfea26469706673582212205fd42144f6afcad7a23669351b159c3fc2e7c175239432c934debb1234e9dcb164736f6c63430008090033",
  "devdoc": {
    "kind": "dev",
    "methods": {
      "checkUpkeep(bytes)": {
        "details": "To ensure that it is never called, you may want to add the cannotExecute modifier from KeeperBase to your implementation of this method.",
        "params": {
          "checkData": "specified in the upkeep registration so it is always the same for a registered upkeep. This can easilly be broken down into specific arguments using `abi.decode`, so multiple upkeeps can be registered on the same contract and easily differentiated by the contract."
        },
        "returns": {
          "performData": "bytes that the keeper should call performUpkeep with, if upkeep is needed. If you would like to encode data to decode later, try `abi.encode`.",
          "upkeepNeeded": "boolean to indicate whether the keeper should call performUpkeep or not."
        }
      },
      "constructor": {
        "custom:oz-upgrades-unsafe-allow": "constructor"
      },
      "owner()": {
        "details": "Returns the address of the current owner."
      },
      "paused()": {
        "details": "Returns true if the contract is paused, and false otherwise."
      },
      "performUpkeep(bytes)": {
        "details": "The input to this method should not be trusted, and the caller of the method should not even be restricted to any single registry. Anyone should be able call it, and the input should be validated, there is no guarantee that the data passed in is the performData returned from checkUpkeep. This could happen due to malicious keepers, racing keepers, or simply a state change while the performUpkeep transaction is waiting for confirmation. Always validate the data passed in.",
        "params": {
          "performData": "is the data which was passed back from the checkData simulation. If it is encoded, it can easily be decoded into other types by calling `abi.decode`. This data should not be trusted, and should be validated against the contract's current state."
        }
      },
      "renounceOwnership()": {
        "details": "Leaves the contract without owner. It will not be possible to call `onlyOwner` functions anymore. Can only be called by the current owner. NOTE: Renouncing ownership will leave the contract without an owner, thereby removing any functionality that is only available to the owner."
      },
      "transferOwnership(address)": {
        "details": "Transfers ownership of the contract to a new account (`newOwner`). Can only be called by the current owner."
      }
    },
    "stateVariables": {
      "paymentFeeMin": {
        "details": "minimum total fee to charge, if rate fees do not add up to this amount "
      },
      "paymentFeeRateMin": {
        "details": "min and max percentage to charge on payments, in bps. 50% = 5000. "
      },
      "processBucketSize": {
        "details": "size (in seconds) of buckets to group subscriptions into for processing "
      },
      "processQueue": {
        "details": "map used to track when subscriptions need attention next "
      },
      "stakeTargetFactor": {
        "details": "factor used to reduce payment fee based on qty of staked CASK "
      },
      "subscriptionPlans": {
        "details": "contract to manage subscription plan definitions. "
      },
      "vault": {
        "details": "vault to use for payments. "
      }
    },
    "version": 1
  },
  "userdoc": {
    "kind": "user",
    "methods": {
      "checkUpkeep(bytes)": {
        "notice": "method that is simulated by the keepers to see if any work actually needs to be performed. This method does does not actually need to be executable, and since it is only ever simulated it can consume lots of gas."
      },
      "performUpkeep(bytes)": {
        "notice": "method that is actually executed by the keepers, via the registry. The data returned by the checkUpkeep simulation will be passed into this method to actually be executed."
      }
    },
    "version": 1
  },
  "storageLayout": {
    "storage": [
      {
        "astId": 327,
        "contract": "contracts/protocol/CaskSubscriptionManager.sol:CaskSubscriptionManager",
        "label": "_initialized",
        "offset": 0,
        "slot": "0",
        "type": "t_bool"
      },
      {
        "astId": 330,
        "contract": "contracts/protocol/CaskSubscriptionManager.sol:CaskSubscriptionManager",
        "label": "_initializing",
        "offset": 1,
        "slot": "0",
        "type": "t_bool"
      },
      {
        "astId": 2551,
        "contract": "contracts/protocol/CaskSubscriptionManager.sol:CaskSubscriptionManager",
        "label": "__gap",
        "offset": 0,
        "slot": "1",
        "type": "t_array(t_uint256)50_storage"
      },
      {
        "astId": 205,
        "contract": "contracts/protocol/CaskSubscriptionManager.sol:CaskSubscriptionManager",
        "label": "_owner",
        "offset": 0,
        "slot": "51",
        "type": "t_address"
      },
      {
        "astId": 319,
        "contract": "contracts/protocol/CaskSubscriptionManager.sol:CaskSubscriptionManager",
        "label": "__gap",
        "offset": 0,
        "slot": "52",
        "type": "t_array(t_uint256)49_storage"
      },
      {
        "astId": 415,
        "contract": "contracts/protocol/CaskSubscriptionManager.sol:CaskSubscriptionManager",
        "label": "_paused",
        "offset": 0,
        "slot": "101",
        "type": "t_bool"
      },
      {
        "astId": 506,
        "contract": "contracts/protocol/CaskSubscriptionManager.sol:CaskSubscriptionManager",
        "label": "__gap",
        "offset": 0,
        "slot": "102",
        "type": "t_array(t_uint256)49_storage"
      },
      {
        "astId": 8314,
        "contract": "contracts/protocol/CaskSubscriptionManager.sol:CaskSubscriptionManager",
        "label": "subscriptionPlans",
        "offset": 0,
        "slot": "151",
        "type": "t_contract(ICaskSubscriptionPlans)7437"
      },
      {
        "astId": 8317,
        "contract": "contracts/protocol/CaskSubscriptionManager.sol:CaskSubscriptionManager",
        "label": "subscriptions",
        "offset": 0,
        "slot": "152",
        "type": "t_contract(ICaskSubscriptions)7798"
      },
      {
        "astId": 8321,
        "contract": "contracts/protocol/CaskSubscriptionManager.sol:CaskSubscriptionManager",
        "label": "vault",
        "offset": 0,
        "slot": "153",
        "type": "t_contract(ICaskVault)8048"
      },
      {
        "astId": 8324,
        "contract": "contracts/protocol/CaskSubscriptionManager.sol:CaskSubscriptionManager",
        "label": "paymentFeeMin",
        "offset": 0,
        "slot": "154",
        "type": "t_uint256"
      },
      {
        "astId": 8327,
        "contract": "contracts/protocol/CaskSubscriptionManager.sol:CaskSubscriptionManager",
        "label": "paymentFeeRateMin",
        "offset": 0,
        "slot": "155",
        "type": "t_uint256"
      },
      {
        "astId": 8329,
        "contract": "contracts/protocol/CaskSubscriptionManager.sol:CaskSubscriptionManager",
        "label": "paymentFeeRateMax",
        "offset": 0,
        "slot": "156",
        "type": "t_uint256"
      },
      {
        "astId": 8332,
        "contract": "contracts/protocol/CaskSubscriptionManager.sol:CaskSubscriptionManager",
        "label": "stakeTargetFactor",
        "offset": 0,
        "slot": "157",
        "type": "t_uint256"
      },
      {
        "astId": 8335,
        "contract": "contracts/protocol/CaskSubscriptionManager.sol:CaskSubscriptionManager",
        "label": "processBucketSize",
        "offset": 0,
        "slot": "158",
        "type": "t_uint32"
      },
      {
        "astId": 8344,
        "contract": "contracts/protocol/CaskSubscriptionManager.sol:CaskSubscriptionManager",
        "label": "processQueue",
        "offset": 0,
        "slot": "159",
        "type": "t_mapping(t_enum(CheckType)7191,t_mapping(t_uint32,t_array(t_uint256)dyn_storage))"
      },
      {
        "astId": 8349,
        "contract": "contracts/protocol/CaskSubscriptionManager.sol:CaskSubscriptionManager",
        "label": "processingBucket",
        "offset": 0,
        "slot": "160",
        "type": "t_mapping(t_enum(CheckType)7191,t_uint32)"
      }
    ],
    "types": {
      "t_address": {
        "encoding": "inplace",
        "label": "address",
        "numberOfBytes": "20"
      },
      "t_array(t_uint256)49_storage": {
        "base": "t_uint256",
        "encoding": "inplace",
        "label": "uint256[49]",
        "numberOfBytes": "1568"
      },
      "t_array(t_uint256)50_storage": {
        "base": "t_uint256",
        "encoding": "inplace",
        "label": "uint256[50]",
        "numberOfBytes": "1600"
      },
      "t_array(t_uint256)dyn_storage": {
        "base": "t_uint256",
        "encoding": "dynamic_array",
        "label": "uint256[]",
        "numberOfBytes": "32"
      },
      "t_bool": {
        "encoding": "inplace",
        "label": "bool",
        "numberOfBytes": "1"
      },
      "t_contract(ICaskSubscriptionPlans)7437": {
        "encoding": "inplace",
        "label": "contract ICaskSubscriptionPlans",
        "numberOfBytes": "20"
      },
      "t_contract(ICaskSubscriptions)7798": {
        "encoding": "inplace",
        "label": "contract ICaskSubscriptions",
        "numberOfBytes": "20"
      },
      "t_contract(ICaskVault)8048": {
        "encoding": "inplace",
        "label": "contract ICaskVault",
        "numberOfBytes": "20"
      },
      "t_enum(CheckType)7191": {
        "encoding": "inplace",
        "label": "enum ICaskSubscriptionManager.CheckType",
        "numberOfBytes": "1"
      },
      "t_mapping(t_enum(CheckType)7191,t_mapping(t_uint32,t_array(t_uint256)dyn_storage))": {
        "encoding": "mapping",
        "key": "t_enum(CheckType)7191",
        "label": "mapping(enum ICaskSubscriptionManager.CheckType => mapping(uint32 => uint256[]))",
        "numberOfBytes": "32",
        "value": "t_mapping(t_uint32,t_array(t_uint256)dyn_storage)"
      },
      "t_mapping(t_enum(CheckType)7191,t_uint32)": {
        "encoding": "mapping",
        "key": "t_enum(CheckType)7191",
        "label": "mapping(enum ICaskSubscriptionManager.CheckType => uint32)",
        "numberOfBytes": "32",
        "value": "t_uint32"
      },
      "t_mapping(t_uint32,t_array(t_uint256)dyn_storage)": {
        "encoding": "mapping",
        "key": "t_uint32",
        "label": "mapping(uint32 => uint256[])",
        "numberOfBytes": "32",
        "value": "t_array(t_uint256)dyn_storage"
      },
      "t_uint256": {
        "encoding": "inplace",
        "label": "uint256",
        "numberOfBytes": "32"
      },
      "t_uint32": {
        "encoding": "inplace",
        "label": "uint32",
        "numberOfBytes": "4"
      }
    }
  }
}