{
  "address": "0x560aB468f39460457C666f45aaB57079038A79C1",
  "abi": [
    {
      "inputs": [
        {
          "internalType": "int256",
          "name": "_price",
          "type": "int256"
        },
        {
          "internalType": "uint8",
          "name": "_decimals",
          "type": "uint8"
        }
      ],
      "stateMutability": "nonpayable",
      "type": "constructor"
    },
    {
      "inputs": [],
      "name": "decimals",
      "outputs": [
        {
          "internalType": "uint8",
          "name": "",
          "type": "uint8"
        }
      ],
      "stateMutability": "view",
      "type": "function"
    },
    {
      "inputs": [],
      "name": "description",
      "outputs": [
        {
          "internalType": "string",
          "name": "",
          "type": "string"
        }
      ],
      "stateMutability": "pure",
      "type": "function"
    },
    {
      "inputs": [
        {
          "internalType": "uint80",
          "name": "_roundId",
          "type": "uint80"
        }
      ],
      "name": "getRoundData",
      "outputs": [
        {
          "internalType": "uint80",
          "name": "roundId",
          "type": "uint80"
        },
        {
          "internalType": "int256",
          "name": "answer",
          "type": "int256"
        },
        {
          "internalType": "uint256",
          "name": "startedAt",
          "type": "uint256"
        },
        {
          "internalType": "uint256",
          "name": "updatedAt",
          "type": "uint256"
        },
        {
          "internalType": "uint80",
          "name": "answeredInRound",
          "type": "uint80"
        }
      ],
      "stateMutability": "view",
      "type": "function"
    },
    {
      "inputs": [],
      "name": "latestRoundData",
      "outputs": [
        {
          "internalType": "uint80",
          "name": "roundId",
          "type": "uint80"
        },
        {
          "internalType": "int256",
          "name": "answer",
          "type": "int256"
        },
        {
          "internalType": "uint256",
          "name": "startedAt",
          "type": "uint256"
        },
        {
          "internalType": "uint256",
          "name": "updatedAt",
          "type": "uint256"
        },
        {
          "internalType": "uint80",
          "name": "answeredInRound",
          "type": "uint80"
        }
      ],
      "stateMutability": "view",
      "type": "function"
    },
    {
      "inputs": [
        {
          "internalType": "uint8",
          "name": "_decimals",
          "type": "uint8"
        }
      ],
      "name": "setDecimals",
      "outputs": [],
      "stateMutability": "nonpayable",
      "type": "function"
    },
    {
      "inputs": [
        {
          "internalType": "int256",
          "name": "_price",
          "type": "int256"
        }
      ],
      "name": "setPrice",
      "outputs": [],
      "stateMutability": "nonpayable",
      "type": "function"
    },
    {
      "inputs": [],
      "name": "version",
      "outputs": [
        {
          "internalType": "uint256",
          "name": "",
          "type": "uint256"
        }
      ],
      "stateMutability": "pure",
      "type": "function"
    }
  ],
  "transactionHash": "0xf303ceb452ceabc6c8d4d21cc11d784f47d9cf68cb431978a0afa312c0d21daf",
  "args": [
    "100000000",
    8
  ],
  "numDeployments": 1,
  "solcInputHash": "486bbacd6514b425807799e5f18df9c4",
  "bytecode": "0x608060405234801561001057600080fd5b5060405161030038038061030083398101604081905261002f9161004d565b6000919091556001805460ff191660ff909216919091179055610083565b6000806040838503121561006057600080fd5b82519150602083015160ff8116811461007857600080fd5b809150509250929050565b61026e806100926000396000f3fe608060405234801561001057600080fd5b506004361061007d5760003560e01c80637a1395aa1161005b5780637a1395aa146100de5780639a6fc8f514610104578063f7a3080614610155578063feaf968c1461016857600080fd5b8063313ce5671461008257806354fd4d501461009c5780637284e416146100ab575b600080fd5b60015460405160ff90911681526020015b60405180910390f35b60405160018152602001610093565b6040805180820182526011815270135bd8dad3dc9858db19515d1a11995959607a1b602082015290516100939190610174565b6101026100ec3660046101c9565b6001805460ff191660ff92909216919091179055565b005b61011e6101123660046101f3565b60008054919281908190565b6040805169ffffffffffffffffffff968716815260208101959095528401929092526060830152909116608082015260a001610093565b61010261016336600461021f565b600055565b6000805481808061011e565b600060208083528351808285015260005b818110156101a157858101830151858201604001528201610185565b818111156101b3576000604083870101525b50601f01601f1916929092016040019392505050565b6000602082840312156101db57600080fd5b813560ff811681146101ec57600080fd5b9392505050565b60006020828403121561020557600080fd5b813569ffffffffffffffffffff811681146101ec57600080fd5b60006020828403121561023157600080fd5b503591905056fea264697066735822122061189a169ad6355bae5741dee28cdd6724fad60b7284d9a568c2777d624a7e2a64736f6c63430008090033",
  "devdoc": {
    "kind": "dev",
    "methods": {},
    "version": 1
  },
  "userdoc": {
    "kind": "user",
    "methods": {},
    "version": 1
  },
  "storageLayout": {
    "storage": [
      {
        "astId": 8402,
        "contract": "contracts/mocks/MockChainlinkOracleFeed.sol:MockChainlinkOracleFeed",
        "label": "price",
        "offset": 0,
        "slot": "0",
        "type": "t_int256"
      },
      {
        "astId": 8404,
        "contract": "contracts/mocks/MockChainlinkOracleFeed.sol:MockChainlinkOracleFeed",
        "label": "numDecimals",
        "offset": 0,
        "slot": "1",
        "type": "t_uint8"
      }
    ],
    "types": {
      "t_int256": {
        "encoding": "inplace",
        "label": "int256",
        "numberOfBytes": "32"
      },
      "t_uint8": {
        "encoding": "inplace",
        "label": "uint8",
        "numberOfBytes": "1"
      }
    }
  }
}