{
  "address": "0x3e321356724A88fA1737ef589f3e4c269963200b",
  "abi": [
    {
      "inputs": [],
      "stateMutability": "nonpayable",
      "type": "constructor"
    },
    {
      "anonymous": false,
      "inputs": [
        {
          "indexed": true,
          "internalType": "address",
          "name": "previousOwner",
          "type": "address"
        },
        {
          "indexed": true,
          "internalType": "address",
          "name": "newOwner",
          "type": "address"
        }
      ],
      "name": "OwnershipTransferred",
      "type": "event"
    },
    {
      "anonymous": false,
      "inputs": [
        {
          "indexed": false,
          "internalType": "address",
          "name": "account",
          "type": "address"
        }
      ],
      "name": "Paused",
      "type": "event"
    },
    {
      "anonymous": false,
      "inputs": [
        {
          "indexed": false,
          "internalType": "uint256",
          "name": "limit",
          "type": "uint256"
        },
        {
          "indexed": false,
          "internalType": "uint256",
          "name": "jobsProcessed",
          "type": "uint256"
        },
        {
          "indexed": false,
          "internalType": "uint256",
          "name": "depth",
          "type": "uint256"
        },
        {
          "indexed": false,
          "internalType": "uint8",
          "name": "queueId",
          "type": "uint8"
        },
        {
          "indexed": false,
          "internalType": "uint256",
          "name": "queueRemaining",
          "type": "uint256"
        },
        {
          "indexed": false,
          "internalType": "uint32",
          "name": "currentBucket",
          "type": "uint32"
        }
      ],
      "name": "QueueRunReport",
      "type": "event"
    },
    {
      "anonymous": false,
      "inputs": [
        {
          "indexed": false,
          "internalType": "address",
          "name": "registry",
          "type": "address"
        }
      ],
      "name": "RegistryAllowed",
      "type": "event"
    },
    {
      "anonymous": false,
      "inputs": [
        {
          "indexed": false,
          "internalType": "address",
          "name": "registry",
          "type": "address"
        }
      ],
      "name": "RegistryDisallowed",
      "type": "event"
    },
    {
      "anonymous": false,
      "inputs": [],
      "name": "SetChainlinkAddresses",
      "type": "event"
    },
    {
      "anonymous": false,
      "inputs": [
        {
          "indexed": false,
          "internalType": "address",
          "name": "feeDistributor",
          "type": "address"
        }
      ],
      "name": "SetFeeDistributor",
      "type": "event"
    },
    {
      "anonymous": false,
      "inputs": [],
      "name": "SetParameters",
      "type": "event"
    },
    {
      "anonymous": false,
      "inputs": [
        {
          "indexed": false,
          "internalType": "address",
          "name": "account",
          "type": "address"
        }
      ],
      "name": "Unpaused",
      "type": "event"
    },
    {
      "anonymous": false,
      "inputs": [
        {
          "indexed": false,
          "internalType": "uint8",
          "name": "queueId",
          "type": "uint8"
        },
        {
          "indexed": false,
          "internalType": "bytes32",
          "name": "workUnit",
          "type": "bytes32"
        }
      ],
      "name": "WorkUnitProcessed",
      "type": "event"
    },
    {
      "anonymous": false,
      "inputs": [
        {
          "indexed": false,
          "internalType": "uint8",
          "name": "queueId",
          "type": "uint8"
        },
        {
          "indexed": false,
          "internalType": "bytes32",
          "name": "workUnit",
          "type": "bytes32"
        },
        {
          "indexed": false,
          "internalType": "uint32",
          "name": "processAt",
          "type": "uint32"
        }
      ],
      "name": "WorkUnitQueued",
      "type": "event"
    },
    {
      "inputs": [
        {
          "internalType": "address",
          "name": "_registry",
          "type": "address"
        }
      ],
      "name": "allowRegistry",
      "outputs": [],
      "stateMutability": "nonpayable",
      "type": "function"
    },
    {
      "inputs": [
        {
          "internalType": "address",
          "name": "",
          "type": "address"
        }
      ],
      "name": "allowedRegistries",
      "outputs": [
        {
          "internalType": "bool",
          "name": "",
          "type": "bool"
        }
      ],
      "stateMutability": "view",
      "type": "function"
    },
    {
      "inputs": [],
      "name": "caskChainlinkTopup",
      "outputs": [
        {
          "internalType": "contract ICaskChainlinkTopup",
          "name": "",
          "type": "address"
        }
      ],
      "stateMutability": "view",
      "type": "function"
    },
    {
      "inputs": [],
      "name": "caskVault",
      "outputs": [
        {
          "internalType": "contract ICaskVault",
          "name": "",
          "type": "address"
        }
      ],
      "stateMutability": "view",
      "type": "function"
    },
    {
      "inputs": [
        {
          "internalType": "bytes",
          "name": "checkData",
          "type": "bytes"
        }
      ],
      "name": "checkUpkeep",
      "outputs": [
        {
          "internalType": "bool",
          "name": "upkeepNeeded",
          "type": "bool"
        },
        {
          "internalType": "bytes",
          "name": "performData",
          "type": "bytes"
        }
      ],
      "stateMutability": "view",
      "type": "function"
    },
    {
      "inputs": [
        {
          "internalType": "address",
          "name": "_registry",
          "type": "address"
        }
      ],
      "name": "disallowRegistry",
      "outputs": [],
      "stateMutability": "nonpayable",
      "type": "function"
    },
    {
      "inputs": [],
      "name": "feeDistributor",
      "outputs": [
        {
          "internalType": "address",
          "name": "",
          "type": "address"
        }
      ],
      "stateMutability": "view",
      "type": "function"
    },
    {
      "inputs": [
        {
          "internalType": "address",
          "name": "_caskChainlinkTopup",
          "type": "address"
        },
        {
          "internalType": "address",
          "name": "_caskVault",
          "type": "address"
        },
        {
          "internalType": "address",
          "name": "_feeDistributor",
          "type": "address"
        }
      ],
      "name": "initialize",
      "outputs": [],
      "stateMutability": "nonpayable",
      "type": "function"
    },
    {
      "inputs": [],
      "name": "linkBridgeToken",
      "outputs": [
        {
          "internalType": "contract IERC20Metadata",
          "name": "",
          "type": "address"
        }
      ],
      "stateMutability": "view",
      "type": "function"
    },
    {
      "inputs": [],
      "name": "linkFundingToken",
      "outputs": [
        {
          "internalType": "contract LinkTokenInterface",
          "name": "",
          "type": "address"
        }
      ],
      "stateMutability": "view",
      "type": "function"
    },
    {
      "inputs": [],
      "name": "linkPriceFeed",
      "outputs": [
        {
          "internalType": "contract AggregatorV3Interface",
          "name": "",
          "type": "address"
        }
      ],
      "stateMutability": "view",
      "type": "function"
    },
    {
      "inputs": [],
      "name": "linkSwapData",
      "outputs": [
        {
          "internalType": "bytes",
          "name": "",
          "type": "bytes"
        }
      ],
      "stateMutability": "view",
      "type": "function"
    },
    {
      "inputs": [
        {
          "internalType": "uint256",
          "name": "",
          "type": "uint256"
        }
      ],
      "name": "linkSwapPath",
      "outputs": [
        {
          "internalType": "address",
          "name": "",
          "type": "address"
        }
      ],
      "stateMutability": "view",
      "type": "function"
    },
    {
      "inputs": [],
      "name": "linkSwapProtocol",
      "outputs": [
        {
          "internalType": "enum ICaskChainlinkTopupManager.SwapProtocol",
          "name": "",
          "type": "uint8"
        }
      ],
      "stateMutability": "view",
      "type": "function"
    },
    {
      "inputs": [],
      "name": "linkSwapRouter",
      "outputs": [
        {
          "internalType": "address",
          "name": "",
          "type": "address"
        }
      ],
      "stateMutability": "view",
      "type": "function"
    },
    {
      "inputs": [],
      "name": "maxPriceFeedAge",
      "outputs": [
        {
          "internalType": "uint256",
          "name": "",
          "type": "uint256"
        }
      ],
      "stateMutability": "view",
      "type": "function"
    },
    {
      "inputs": [],
      "name": "maxQueueAge",
      "outputs": [
        {
          "internalType": "uint32",
          "name": "",
          "type": "uint32"
        }
      ],
      "stateMutability": "view",
      "type": "function"
    },
    {
      "inputs": [],
      "name": "maxSkips",
      "outputs": [
        {
          "internalType": "uint256",
          "name": "",
          "type": "uint256"
        }
      ],
      "stateMutability": "view",
      "type": "function"
    },
    {
      "inputs": [],
      "name": "maxSwapSlippageBps",
      "outputs": [
        {
          "internalType": "uint256",
          "name": "",
          "type": "uint256"
        }
      ],
      "stateMutability": "view",
      "type": "function"
    },
    {
      "inputs": [],
      "name": "maxTopupsPerGroupRun",
      "outputs": [
        {
          "internalType": "uint256",
          "name": "",
          "type": "uint256"
        }
      ],
      "stateMutability": "view",
      "type": "function"
    },
    {
      "inputs": [],
      "name": "owner",
      "outputs": [
        {
          "internalType": "address",
          "name": "",
          "type": "address"
        }
      ],
      "stateMutability": "view",
      "type": "function"
    },
    {
      "inputs": [],
      "name": "paused",
      "outputs": [
        {
          "internalType": "bool",
          "name": "",
          "type": "bool"
        }
      ],
      "stateMutability": "view",
      "type": "function"
    },
    {
      "inputs": [],
      "name": "pegswap",
      "outputs": [
        {
          "internalType": "contract IPegSwap",
          "name": "",
          "type": "address"
        }
      ],
      "stateMutability": "view",
      "type": "function"
    },
    {
      "inputs": [
        {
          "internalType": "bytes",
          "name": "performData",
          "type": "bytes"
        }
      ],
      "name": "performUpkeep",
      "outputs": [],
      "stateMutability": "nonpayable",
      "type": "function"
    },
    {
      "inputs": [],
      "name": "queueBucketSize",
      "outputs": [
        {
          "internalType": "uint32",
          "name": "",
          "type": "uint32"
        }
      ],
      "stateMutability": "view",
      "type": "function"
    },
    {
      "inputs": [
        {
          "internalType": "uint8",
          "name": "_queueId",
          "type": "uint8"
        },
        {
          "internalType": "uint32",
          "name": "_bucket",
          "type": "uint32"
        },
        {
          "internalType": "uint256",
          "name": "_idx",
          "type": "uint256"
        }
      ],
      "name": "queueItem",
      "outputs": [
        {
          "internalType": "bytes32",
          "name": "",
          "type": "bytes32"
        }
      ],
      "stateMutability": "view",
      "type": "function"
    },
    {
      "inputs": [
        {
          "internalType": "uint8",
          "name": "_queueId",
          "type": "uint8"
        }
      ],
      "name": "queuePosition",
      "outputs": [
        {
          "internalType": "uint32",
          "name": "",
          "type": "uint32"
        }
      ],
      "stateMutability": "view",
      "type": "function"
    },
    {
      "inputs": [
        {
          "internalType": "uint8",
          "name": "_queueId",
          "type": "uint8"
        },
        {
          "internalType": "uint32",
          "name": "_bucket",
          "type": "uint32"
        }
      ],
      "name": "queueSize",
      "outputs": [
        {
          "internalType": "uint256",
          "name": "",
          "type": "uint256"
        }
      ],
      "stateMutability": "view",
      "type": "function"
    },
    {
      "inputs": [
        {
          "internalType": "address",
          "name": "_asset",
          "type": "address"
        },
        {
          "internalType": "address",
          "name": "_dest",
          "type": "address"
        }
      ],
      "name": "recoverFunds",
      "outputs": [],
      "stateMutability": "nonpayable",
      "type": "function"
    },
    {
      "inputs": [
        {
          "internalType": "bytes32",
          "name": "_chainlinkTopupId",
          "type": "bytes32"
        }
      ],
      "name": "registerChainlinkTopup",
      "outputs": [],
      "stateMutability": "nonpayable",
      "type": "function"
    },
    {
      "inputs": [
        {
          "internalType": "address",
          "name": "_registry",
          "type": "address"
        }
      ],
      "name": "registryAllowed",
      "outputs": [
        {
          "internalType": "bool",
          "name": "",
          "type": "bool"
        }
      ],
      "stateMutability": "view",
      "type": "function"
    },
    {
      "inputs": [],
      "name": "renounceOwnership",
      "outputs": [],
      "stateMutability": "nonpayable",
      "type": "function"
    },
    {
      "inputs": [
        {
          "internalType": "address",
          "name": "_linkBridgeToken",
          "type": "address"
        },
        {
          "internalType": "address",
          "name": "_linkFundingToken",
          "type": "address"
        },
        {
          "internalType": "address",
          "name": "_linkPriceFeed",
          "type": "address"
        },
        {
          "internalType": "address",
          "name": "_linkSwapRouter",
          "type": "address"
        },
        {
          "internalType": "address[]",
          "name": "_linkSwapPath",
          "type": "address[]"
        },
        {
          "internalType": "address",
          "name": "_pegswap",
          "type": "address"
        },
        {
          "internalType": "enum ICaskChainlinkTopupManager.SwapProtocol",
          "name": "_linkSwapProtocol",
          "type": "uint8"
        },
        {
          "internalType": "bytes",
          "name": "_linkSwapData",
          "type": "bytes"
        }
      ],
      "name": "setChainklinkAddresses",
      "outputs": [],
      "stateMutability": "nonpayable",
      "type": "function"
    },
    {
      "inputs": [
        {
          "internalType": "address",
          "name": "_feeDistributor",
          "type": "address"
        }
      ],
      "name": "setFeeDistributor",
      "outputs": [],
      "stateMutability": "nonpayable",
      "type": "function"
    },
    {
      "inputs": [
        {
          "internalType": "uint32",
          "name": "_maxQueueAge",
          "type": "uint32"
        }
      ],
      "name": "setMaxQueueAge",
      "outputs": [],
      "stateMutability": "nonpayable",
      "type": "function"
    },
    {
      "inputs": [
        {
          "internalType": "uint256",
          "name": "_maxSkips",
          "type": "uint256"
        },
        {
          "internalType": "uint256",
          "name": "_topupFeeBps",
          "type": "uint256"
        },
        {
          "internalType": "uint256",
          "name": "_topupFeeMin",
          "type": "uint256"
        },
        {
          "internalType": "uint256",
          "name": "_maxPriceFeedAge",
          "type": "uint256"
        },
        {
          "internalType": "uint256",
          "name": "_maxTopupsPerGroupRun",
          "type": "uint256"
        },
        {
          "internalType": "uint256",
          "name": "_maxSwapSlippageBps",
          "type": "uint256"
        },
        {
          "internalType": "uint32",
          "name": "_queueBucketSize",
          "type": "uint32"
        },
        {
          "internalType": "uint32",
          "name": "_maxQueueAge",
          "type": "uint32"
        }
      ],
      "name": "setParameters",
      "outputs": [],
      "stateMutability": "nonpayable",
      "type": "function"
    },
    {
      "inputs": [
        {
          "internalType": "uint32",
          "name": "_queueBucketSize",
          "type": "uint32"
        }
      ],
      "name": "setQueueBucketSize",
      "outputs": [],
      "stateMutability": "nonpayable",
      "type": "function"
    },
    {
      "inputs": [
        {
          "internalType": "uint8",
          "name": "_queueId",
          "type": "uint8"
        },
        {
          "internalType": "uint32",
          "name": "_timestamp",
          "type": "uint32"
        }
      ],
      "name": "setQueuePosition",
      "outputs": [],
      "stateMutability": "nonpayable",
      "type": "function"
    },
    {
      "inputs": [],
      "name": "topupFeeBps",
      "outputs": [
        {
          "internalType": "uint256",
          "name": "",
          "type": "uint256"
        }
      ],
      "stateMutability": "view",
      "type": "function"
    },
    {
      "inputs": [],
      "name": "topupFeeMin",
      "outputs": [
        {
          "internalType": "uint256",
          "name": "",
          "type": "uint256"
        }
      ],
      "stateMutability": "view",
      "type": "function"
    },
    {
      "inputs": [
        {
          "internalType": "address",
          "name": "newOwner",
          "type": "address"
        }
      ],
      "name": "transferOwnership",
      "outputs": [],
      "stateMutability": "nonpayable",
      "type": "function"
    }
  ],
  "transactionHash": "0x19eb745539de3c39a7f0a3f7e1d8dc829bd865eb43ea3bab59fe1aa9154e7485",
  "args": [],
  "numDeployments": 2,
  "solcInputHash": "6f022096d1f3dc4cfe7a982abf34a86d",
  "bytecode": "0x60806040523480156200001157600080fd5b50600054610100900460ff166200002f5760005460ff161562000039565b62000039620000de565b620000a15760405162461bcd60e51b815260206004820152602e60248201527f496e697469616c697a61626c653a20636f6e747261637420697320616c72656160448201526d191e481a5b9a5d1a585b1a5e995960921b606482015260840160405180910390fd5b600054610100900460ff16158015620000c4576000805461ffff19166101011790555b8015620000d7576000805461ff00191690555b5062000102565b6000620000f630620000fc60201b620018081760201c565b15905090565b3b151590565b614ce580620001126000396000f3fe608060405234801561001057600080fd5b50600436106102525760003560e01c80638bddd2e411610146578063c6f8806c116100c3578063e6cab67111610087578063e6cab6711461055a578063f009451e1461056d578063f2fde38b14610580578063faec9c2214610593578063fce02400146105a6578063ff7137fd146105b957600080fd5b8063c6f8806c146104dd578063ccfc2e8d146104f5578063cd48a61414610508578063d5f59fb91461051b578063dfd609bb1461054757600080fd5b8063b7c3565d1161010a578063b7c3565d1461049c578063b95f1624146104a5578063c0c53b8b146104b8578063c29c0e9c146104cb578063c5064653146104d457600080fd5b80638bddd2e4146104425780638da5cb5b146104525780638dc9bc0414610463578063a47755d114610476578063aa878f761461048957600080fd5b80632f77bb66116101d45780635d59efb7116101985780635d59efb7146103de5780636e04ff0d146103f3578063715018a614610414578063729d81071461041c57806384b4609f1461042f57600080fd5b80632f77bb6614610363578063301cce601461036c5780634585e33b1461038d5780635bd482fd146103a05780635c975abb146103d357600080fd5b80630d43e8ad1161021b5780630d43e8ad146102d957806314fad707146102ec578063191888f6146102ff5780631c39033c1461031257806324ae6a271461035057600080fd5b8062912b371461025757806305f2becf1461028757806306cd9e181461029a5780630816c847146102af5780630caae41d146102c6575b600080fd5b60d15461026a906001600160a01b031681565b6040516001600160a01b0390911681526020015b60405180910390f35b60cd5461026a906001600160a01b031681565b6102ad6102a8366004613cd5565b6105c2565b005b6102b860d95481565b60405190815260200161027e565b6102ad6102d4366004613d13565b6106ad565b60dc5461026a906001600160a01b031681565b6102b86102fa366004613d4c565b61070f565b60cf5461026a906001600160a01b031681565b61033b610320366004613d8d565b60ff16600090815260cb602052604090205463ffffffff1690565b60405163ffffffff909116815260200161027e565b6102ad61035e366004613daa565b610759565b6102b860da5481565b60d45461038090600160a01b900460ff1681565b60405161027e9190613e0c565b6102ad61039b366004613e67565b610887565b6103c36103ae366004613cd5565b60cc6020526000908152604090205460ff1681565b604051901515815260200161027e565b60655460ff166103c3565b6103e6610c7f565b60405161027e9190613f00565b610406610401366004613e67565b610d0d565b60405161027e929190613f13565b6102ad610e8c565b6102ad61042a366004613f2e565b610ec2565b6102ad61043d366004613cd5565b610f14565b60c95461033b9063ffffffff1681565b6033546001600160a01b031661026a565b6102ad610471366004613f5a565b610fdd565b60ce5461026a906001600160a01b031681565b6102b8610497366004613d13565b6110e7565b6102b860db5481565b61026a6104b3366004614067565b611112565b6102ad6104c6366004614080565b61113c565b6102b860d75481565b6102b860d65481565b60c95461033b90640100000000900463ffffffff1681565b6102ad610503366004613cd5565b611351565b6102ad610516366004613f2e565b61141a565b6103c3610529366004613cd5565b6001600160a01b0316600090815260cc602052604090205460ff1690565b6102ad6105553660046140cb565b611460565b6102ad610568366004614067565b61154b565b60d45461026a906001600160a01b031681565b6102ad61058e366004613cd5565b61176d565b60d35461026a906001600160a01b031681565b60d05461026a906001600160a01b031681565b6102b860d85481565b6033546001600160a01b031633146105f55760405162461bcd60e51b81526004016105ec9061413e565b60405180910390fd5b6001600160a01b038116600090815260cc602052604090205460ff166106555760405162461bcd60e51b815260206004820152601560248201527408549151d254d5149657d393d517d0531313d5d151605a1b60448201526064016105ec565b6001600160a01b038116600081815260cc6020908152604091829020805460ff1916905590519182527f41ff3cbb6d9f3c743a5fd7b126595848bf20fe04ced3af1bcfc8313f20f925c391015b60405180910390a150565b6033546001600160a01b031633146106d75760405162461bcd60e51b81526004016105ec9061413e565b6106e08161180e565b60ff92909216600090815260cb60205260409020805463ffffffff191663ffffffff9093169290921790915550565b60ff8316600090815260ca6020908152604080832063ffffffff86168452909152812080548390811061074457610744614173565b906000526020600020015490505b9392505050565b6033546001600160a01b031633146107835760405162461bcd60e51b81526004016105ec9061413e565b6040516370a0823160e01b81523060048201526001600160a01b0383169063a9059cbb90839083906370a082319060240160206040518083038186803b1580156107cc57600080fd5b505afa1580156107e0573d6000803e3d6000fd5b505050506040513d601f19601f820116820180604052508101906108049190614189565b6040516001600160e01b031960e085901b1681526001600160a01b0390921660048301526024820152604401602060405180830381600087803b15801561084a57600080fd5b505af115801561085e573d6000803e3d6000fd5b505050506040513d601f19601f8201168201806040525081019061088291906141b2565b505050565b60655460ff16156108cd5760405162461bcd60e51b815260206004820152601060248201526f14185d5cd8589b194e881c185d5cd95960821b60448201526064016105ec565b600260975414156109205760405162461bcd60e51b815260206004820152601f60248201527f5265656e7472616e637947756172643a207265656e7472616e742063616c6c0060448201526064016105ec565b600260975560008080610935848601866141cd565b9250925092506000610945611838565b9050600080610955866005614211565b60ff8516600090815260cb602052604090205490915063ffffffff1661099b5760ff8416600090815260cb60205260409020805463ffffffff191663ffffffff85161790555b60ff8416600090815260cb602052604090205463ffffffff808516911611156109f35760405162461bcd60e51b815260206004820152600a60248201526921544f4f5f4541524c5960b01b60448201526064016105ec565b8582108015610a025750600081115b8015610a29575060ff8416600090815260cb602052604090205463ffffffff808516911611155b15610be85760ff8416600090815260ca6020908152604080832060cb83528184205463ffffffff1684529091529020548015610b585760ff8516600090815260ca6020908152604080832060cb83528184205463ffffffff1684529091528120610a94600184614230565b81548110610aa457610aa4614173565b600091825260208083209091015460ff8916835260ca8252604080842060cb84528185205463ffffffff168552909252912080549192509080610ae957610ae9614247565b60019003818190600052602060002001600090559055610b098682611860565b6040805160ff88168152602081018390527f58c7ae721fd25aaf84e68db9ce9ac6fed4f08438a370a4299d19f8c1425c499e910160405180910390a1610b5060018561425d565b935050610be2565b60ff8516600090815260cb602052604090205463ffffffff80861691161015610bdc5760c95460ff8616600090815260cb60205260408120805463ffffffff93841693919291610baa91859116614275565b92506101000a81548163ffffffff021916908363ffffffff160217905550600182610bd59190614230565b9150610be2565b50610be8565b506109f3565b60ff8416600081815260ca6020908152604080832060cb8084528285205463ffffffff168086529184528285205494869052835281518b81529283018790528282018a90526060830194909452608082019290925260a0810192909252517fd69140f88b9a25350749bb371882f4479133fc8b65602aac60f6c1b3598f08329181900360c00190a150506001609755505050505050565b60d58054610c8c9061429d565b80601f0160208091040260200160405190810160405280929190818152602001828054610cb89061429d565b8015610d055780601f10610cda57610100808354040283529160200191610d05565b820191906000526020600020905b815481529060010190602001808311610ce857829003601f168201915b505050505081565b60006060818080610d20868801886141cd565b9250925092506000610d30611838565b60ff8316600090815260cb602052604081205490975090915063ffffffff1680610d575750805b8063ffffffff168263ffffffff1610158015610d92575060c954640100000000900463ffffffff16610d8982846142d8565b63ffffffff1610155b15610da05760019650610e30565b8163ffffffff168163ffffffff1611610e305760ff8316600090815260ca6020908152604080832063ffffffff8516845290915290205415801590610e08575060ff8316600090815260ca6020908152604080832063ffffffff851684529091529020548411155b15610e165760019650610e30565b60c954610e299063ffffffff1682614275565b9050610da0565b60ff8316600081815260ca6020908152604080832063ffffffff86168452825291829020548251918201899052918101919091526060810191909152608001604051602081830303815290604052955050505050509250929050565b6033546001600160a01b03163314610eb65760405162461bcd60e51b81526004016105ec9061413e565b610ec06000611988565b565b6033546001600160a01b03163314610eec5760405162461bcd60e51b81526004016105ec9061413e565b60c9805463ffffffff9092166401000000000267ffffffff0000000019909216919091179055565b6033546001600160a01b03163314610f3e5760405162461bcd60e51b81526004016105ec9061413e565b6001600160a01b038116610f895760405162461bcd60e51b815260206004820152601260248201527121494e56414c49442872656769737472792960701b60448201526064016105ec565b6001600160a01b038116600081815260cc6020908152604091829020805460ff1916600117905590519182527faa9fd3a8c3d93ebd697846ec56ec5fa196deef170601239a813cae8d80dfcddb91016106a2565b6033546001600160a01b031633146110075760405162461bcd60e51b81526004016105ec9061413e565b60cf80546001600160a01b03808d166001600160a01b03199283161790925560d080548c841690831617905560d180548b841690831617905560d38054928a169290911691909117905561105d60d28787613bc4565b5060d480546001600160a01b0386166001600160a01b03198216811783558592916001600160a81b03191617600160a01b8360028111156110a0576110a0613dd8565b02179055506110b160d58383613c27565b506040517f2a77e01e84a8eac1e6bcac9bde4e5227a63842990baacef9e711c666f86ff1c090600090a150505050505050505050565b60ff8216600090815260ca6020908152604080832063ffffffff851684529091529020545b92915050565b60d2818154811061112257600080fd5b6000918252602090912001546001600160a01b0316905081565b600054610100900460ff166111575760005460ff161561115b565b303b155b6111be5760405162461bcd60e51b815260206004820152602e60248201527f496e697469616c697a61626c653a20636f6e747261637420697320616c72656160448201526d191e481a5b9a5d1a585b1a5e995960921b60648201526084016105ec565b600054610100900460ff161580156111e0576000805461ffff19166101011790555b6001600160a01b0384166112365760405162461bcd60e51b815260206004820152601c60248201527f21494e56414c4944286361736b436861696e6c696e6b546f707570290000000060448201526064016105ec565b6001600160a01b0383166112825760405162461bcd60e51b815260206004820152601360248201527221494e56414c4944286361736b5661756c742960681b60448201526064016105ec565b6001600160a01b0382166112d35760405162461bcd60e51b815260206004820152601860248201527721494e56414c4944286665654469737472696275746f722960401b60448201526064016105ec565b60cd80546001600160a01b038087166001600160a01b03199283161790925560ce805486841690831617905560dc805492851692909116919091179055600060d681905560d781905560d881905560d955600160da55606460db5561133961a8c06119da565b801561134b576000805461ff00191690555b50505050565b6033546001600160a01b0316331461137b5760405162461bcd60e51b81526004016105ec9061413e565b6001600160a01b0381166113cc5760405162461bcd60e51b815260206004820152601860248201527721494e56414c4944286665654469737472696275746f722960401b60448201526064016105ec565b60dc80546001600160a01b0319166001600160a01b0383169081179091556040519081527f9e9a9a4a82acd1b28aab6bf1d43aad70ae6d290549c0d6183e2e91ebcdf57441906020016106a2565b6033546001600160a01b031633146114445760405162461bcd60e51b81526004016105ec9061413e565b60c9805463ffffffff191663ffffffff92909216919091179055565b6033546001600160a01b0316331461148a5760405162461bcd60e51b81526004016105ec9061413e565b61271087106114d35760405162461bcd60e51b815260206004820152601560248201527421494e56414c494428746f7075704665654270732960581b60448201526064016105ec565b60d688905560d787905560d886905560d985905560da84905560db83905560c9805463ffffffff8381166401000000000267ffffffffffffffff19909216908516171790556040517f3b5fda6f71b960b21be0b432d9b7c87d9c8c996477ea1eba5c19cb77d1e027aa90600090a15050505050505050565b6002609754141561159e5760405162461bcd60e51b815260206004820152601f60248201527f5265656e7472616e637947756172643a207265656e7472616e742063616c6c0060448201526064016105ec565b600260975560655460ff16156115e95760405162461bcd60e51b815260206004820152601060248201526f14185d5cd8589b194e881c185d5cd95960821b60448201526064016105ec565b60cd5460405163c68f5eb360e01b8152600481018390526000916001600160a01b03169063c68f5eb3906024016101c06040518083038186803b15801561162f57600080fd5b505afa158015611643573d6000803e3d6000fd5b505050506040513d601f19601f8201168201806040525081019061166791906143b3565b905060008160200151116116b15760405162461bcd60e51b815260206004820152601160248201527021494e56414c49442867726f757049642960781b60448201526064016105ec565b6116ba82611a22565b5060cd54602082015160405163552de85160e11b815260048101919091526000916001600160a01b03169063aa5bd0a29060240160006040518083038186803b15801561170657600080fd5b505afa15801561171a573d6000803e3d6000fd5b505050506040513d6000823e601f3d908101601f1916820160405261174291908101906144ae565b80515190915060011415611763576117636001836020015160001b42611d24565b5050600160975550565b6033546001600160a01b031633146117975760405162461bcd60e51b81526004016105ec9061413e565b6001600160a01b0381166117fc5760405162461bcd60e51b815260206004820152602660248201527f4f776e61626c653a206e6577206f776e657220697320746865207a65726f206160448201526564647265737360d01b60648201526084016105ec565b61180581611988565b50565b3b151590565b60c95460009063ffffffff16611824818461458d565b61182e90846142d8565b61110c9190614275565b60c95460009042906118509063ffffffff168261458d565b61185a90826142d8565b91505090565b60cd5460405163552de85160e11b8152600481018390526000916001600160a01b03169063aa5bd0a29060240160006040518083038186803b1580156118a557600080fd5b505afa1580156118b9573d6000803e3d6000fd5b505050506040513d6000823e601f3d908101601f191682016040526118e191908101906144ae565b8051519091506118f057505050565b6000805b82515181108015611906575060da5482105b15611956576119318360000151828151811061192457611924614173565b6020026020010151611a22565b156119445761194160018361425d565b91505b8061194e816145b0565b9150506118f4565b5081515181101580611969575060da5481105b1561197e57611979848442611d24565b61134b565b61134b8484611dec565b603380546001600160a01b038381166001600160a01b0319831681179093556040519116919082907f8be0079c531659141344cd1fd0a4f28419497f9722a3daafe3b4186f6b6457e090600090a35050565b600054610100900460ff16611a015760405162461bcd60e51b81526004016105ec906145cb565b611a09611e73565b611a11611eaa565b611a19611ee1565b61180581611f08565b60cd5460405163c68f5eb360e01b81526004810183905260009182916001600160a01b039091169063c68f5eb3906024016101c06040518083038186803b158015611a6c57600080fd5b505afa158015611a80573d6000803e3d6000fd5b505050506040513d601f19601f82011682018060405250810190611aa491906143b3565b905060018161018001516003811115611abf57611abf613dd8565b14611acd5750600092915050565b4263ffffffff16816101a0015163ffffffff1610611aee5750600092915050565b611af783611f75565b1580611b43575060038161016001516003811115611b1757611b17613dd8565b14158015611b4357506101408101516001600160a01b0316600090815260cc602052604090205460ff16155b15611bb65760cd54604051635ba581cd60e01b81526001600160a01b0390911690635ba581cd90611b7b908690600190600401614616565b600060405180830381600087803b158015611b9557600080fd5b505af1158015611ba9573d6000803e3d6000fd5b5060009695505050505050565b8060400151611bc4846121d0565b10611bd25750600092915050565b600061271060d7548360600151611be99190614211565b611bf39190614633565b905060d854811015611c04575060d8545b6000611c108583612485565b90508015611c965760cd546060840151604051632d32f27960e21b815260048101889052602481019190915260448101839052606481018490526001600160a01b039091169063b4cbc9e490608401600060405180830381600087803b158015611c7957600080fd5b505af1158015611c8d573d6000803e3d6000fd5b50505050611d19565b600060d654118015611cae575060d6548360e0015110155b15611d195760cd54604051635ba581cd60e01b81526001600160a01b0390911690635ba581cd90611ce6908890600290600401614616565b600060405180830381600087803b158015611d0057600080fd5b505af1158015611d14573d6000803e3d6000fd5b505050505b506001949350505050565b6000611d2f8261180e565b60ff8516600090815260cb602052604090205490915063ffffffff9081169082161015611d71575060ff8316600090815260cb602052604090205463ffffffff165b60ff8416600081815260ca6020908152604080832063ffffffff861680855290835281842080546001810182559085529383902090930187905580519384529083018690528201527f67778e52b18dcf574ab071142a886fce91a8ce5e60e176229fdadb8c063caaed9060600160405180910390a150505050565b6000611df6611838565b60ff8416600081815260ca6020908152604080832063ffffffff861680855290835281842080546001810182559085529383902090930187905580519384529083018690528201529091507f67778e52b18dcf574ab071142a886fce91a8ce5e60e176229fdadb8c063caaed9060600160405180910390a1505050565b600054610100900460ff16611e9a5760405162461bcd60e51b81526004016105ec906145cb565b611ea2611ee1565b610ec0612ff6565b600054610100900460ff16611ed15760405162461bcd60e51b81526004016105ec906145cb565b611ed9611ee1565b610ec0613026565b600054610100900460ff16610ec05760405162461bcd60e51b81526004016105ec906145cb565b600054610100900460ff16611f2f5760405162461bcd60e51b81526004016105ec906145cb565b60c9805463ffffffff191663ffffffff8316908117909155611f52906014614647565b60c960046101000a81548163ffffffff021916908363ffffffff16021790555050565b60cd5460405163c68f5eb360e01b81526004810183905260009182916001600160a01b039091169063c68f5eb3906024016101c06040518083038186803b158015611fbf57600080fd5b505afa158015611fd3573d6000803e3d6000fd5b505050506040513d601f19601f82011682018060405250810190611ff791906143b3565b90506001816101600151600381111561201257612012613dd8565b14156120c5576101408101516101208201516040516363e1d0cd60e11b815260048101919091526001600160a01b0382169063c7c3a19a9060240160006040518083038186803b15801561206557600080fd5b505afa92505050801561209a57506040513d6000823e601f3d908101601f1916820160405261209791908101906146a1565b60015b6120a8575060009392505050565b6001600160401b031663ffffffff149a9950505050505050505050565b600281610160015160038111156120de576120de613dd8565b14156121925761014081015161012082015160405163523e3b4b60e11b81526001600160401b0390911660048201526001600160a01b0382169063a47c76969060240160006040518083038186803b15801561213957600080fd5b505afa92505050801561216e57506040513d6000823e601f3d908101601f1916820160405261216b919081019061479f565b60015b61217c575060009392505050565b506001600160a01b031615159695505050505050565b600381610160015160038111156121ab576121ab613dd8565b14156121c75761014001516001600160a01b0316151592915050565b50600092915050565b60cd5460405163c68f5eb360e01b81526004810183905260009182916001600160a01b039091169063c68f5eb3906024016101c06040518083038186803b15801561221a57600080fd5b505afa15801561222e573d6000803e3d6000fd5b505050506040513d601f19601f8201168201806040525081019061225291906143b3565b90506001600160601b036001826101600151600381111561227557612275613dd8565b1415612314576101408201516101208301516040516363e1d0cd60e11b815260048101919091526001600160a01b0382169063c7c3a19a9060240160006040518083038186803b1580156122c857600080fd5b505afa1580156122dc573d6000803e3d6000fd5b505050506040513d6000823e601f3d908101601f1916820160405261230491908101906146a1565b5091965061247595505050505050565b6002826101600151600381111561232d5761232d613dd8565b14156123d15761014082015161012083015160405163523e3b4b60e11b81526001600160401b0390911660048201526001600160a01b0382169063a47c76969060240160006040518083038186803b15801561238857600080fd5b505afa15801561239c573d6000803e3d6000fd5b505050506040513d6000823e601f3d908101601f191682016040526123c4919081019061479f565b5091935061247592505050565b600382610160015160038111156123ea576123ea613dd8565b14156124755760d0546101408301516040516370a0823160e01b81526001600160a01b0391821660048201529116906370a082319060240160206040518083038186803b15801561243a57600080fd5b505afa15801561244e573d6000803e3d6000fd5b505050506040513d601f19601f820116820180604052508101906124729190614189565b90505b6001600160601b03169392505050565b60d3546000906001600160a01b03166124d25760405162461bcd60e51b815260206004820152600f60248201526e085393d517d0d3d3919251d5549151608a1b60448201526064016105ec565b60cd5460405163c68f5eb360e01b8152600481018590526000916001600160a01b03169063c68f5eb3906024016101c06040518083038186803b15801561251857600080fd5b505afa15801561252c573d6000803e3d6000fd5b505050506040513d601f19601f8201168201806040525081019061255091906143b3565b9050600060d260008154811061256857612568614173565b6000918252602090912001546040516370a0823160e01b81523060048201526001600160a01b03909116906370a082319060240160206040518083038186803b1580156125b457600080fd5b505afa1580156125c8573d6000803e3d6000fd5b505050506040513d601f19601f820116820180604052508101906125ec9190614189565b60ce548351606085015160405163fcd6a25b60e01b81526001600160a01b039283166004820152306024820152604481019190915260006064820152929350169063fcd6a25b90608401600060405180830381600087803b15801561265057600080fd5b505af1925050508015612661575060015b61271d573d80801561268f576040519150601f19603f3d011682016040523d82523d6000602084013e612694565b606091505b5060cd5460c9546001600160a01b0390911690630d4d98a59088906126bf9063ffffffff1642614275565b60016040518463ffffffff1660e01b81526004016126df9392919061486d565b600060405180830381600087803b1580156126f957600080fd5b505af115801561270d573d6000803e3d6000fd5b505050506000935050505061110c565b60ce5460608301516000916001600160a01b03169063e1ded2de90612743908890614230565b6040518263ffffffff1660e01b815260040161276191815260200190565b60206040518083038186803b15801561277957600080fd5b505afa15801561278d573d6000803e3d6000fd5b505050506040513d601f19601f820116820180604052508101906127b19190614189565b60ce546040516370a0823160e01b81523060048201529192506001600160a01b0316906370a082319060240160206040518083038186803b1580156127f557600080fd5b505afa158015612809573d6000803e3d6000fd5b505050506040513d601f19601f8201168201806040525081019061282d9190614189565b8111156128b25760ce546040516370a0823160e01b81523060048201526001600160a01b03909116906370a082319060240160206040518083038186803b15801561287757600080fd5b505afa15801561288b573d6000803e3d6000fd5b505050506040513d601f19601f820116820180604052508101906128af9190614189565b90505b60ce5460d280546001600160a01b039092169163f3fef3a391906000906128db576128db614173565b60009182526020909120015460405160e083901b6001600160e01b03191681526001600160a01b03909116600482015260248101849052604401600060405180830381600087803b15801561292f57600080fd5b505af1158015612943573d6000803e3d6000fd5b5050505060008260d260008154811061295e5761295e614173565b6000918252602090912001546040516370a0823160e01b81523060048201526001600160a01b03909116906370a082319060240160206040518083038186803b1580156129aa57600080fd5b505afa1580156129be573d6000803e3d6000fd5b505050506040513d601f19601f820116820180604052508101906129e29190614189565b6129ec9190614230565b905060008111612a335760405162461bcd60e51b815260206004820152601260248201527121494e56414c494428616d6f756e74496e2960701b60448201526064016105ec565b60d1546000906001600160a01b031615612b605760ce5460d28054612b36926001600160a01b0316916330b8b2c691600090612a7157612a71614173565b60009182526020909120015460405160e083901b6001600160e01b03191681526001600160a01b03909116600482015260240160c06040518083038186803b158015612abc57600080fd5b505afa158015612ad0573d6000803e3d6000fd5b505050506040513d601f19601f82011682018060405250810190612af49190614897565b60d28054612b0490600190614230565b81548110612b1457612b14614173565b60009182526020909120015460d1546001600160a01b03918216911685613059565b905061271060db5482612b499190614211565b612b539190614633565b612b5d9082614230565b90505b60d0546040516370a0823160e01b81523060048201526000916001600160a01b0316906370a082319060240160206040518083038186803b158015612ba457600080fd5b505afa158015612bb8573d6000803e3d6000fd5b505050506040513d601f19601f82011682018060405250810190612bdc9190614189565b9050600060d454600160a01b900460ff166002811115612bfe57612bfe613dd8565b1415612c1357612c0e8383613373565b612c73565b600160d454600160a01b900460ff166002811115612c3357612c33613dd8565b1415612c4357612c0e838361344d565b600260d454600160a01b900460ff166002811115612c6357612c63613dd8565b1415612c7357612c7383836135b5565b60ce5460dc546040516370a0823160e01b81523060048201526001600160a01b039283169263a9059cbb92169083906370a082319060240160206040518083038186803b158015612cc357600080fd5b505afa158015612cd7573d6000803e3d6000fd5b505050506040513d601f19601f82011682018060405250810190612cfb9190614189565b6040516001600160e01b031960e085901b1681526001600160a01b0390921660048301526024820152604401602060405180830381600087803b158015612d4157600080fd5b505af1158015612d55573d6000803e3d6000fd5b505050506040513d601f19601f82011682018060405250810190612d7991906141b2565b5060d4546001600160a01b031615612f535760cf546040516370a0823160e01b81523060048201526000916001600160a01b0316906370a082319060240160206040518083038186803b158015612dcf57600080fd5b505afa158015612de3573d6000803e3d6000fd5b505050506040513d601f19601f82011682018060405250810190612e079190614189565b60d45460cf54919250612e27916001600160a01b03908116911683613648565b60d45460cf5460d054604051632b7f092360e01b8152600481018590526001600160a01b0392831660248201529082166044820152911690632b7f092390606401600060405180830381600087803b158015612e8257600080fd5b505af1158015612e96573d6000803e3d6000fd5b505060d0546040516370a0823160e01b81523060048201528493506001600160a01b0390911691506370a082319060240160206040518083038186803b158015612edf57600080fd5b505afa158015612ef3573d6000803e3d6000fd5b505050506040513d601f19601f82011682018060405250810190612f179190614189565b1015612f515760405162461bcd60e51b81526020600482015260096024820152680215045475f535741560bc1b60448201526064016105ec565b505b60d0546040516370a0823160e01b815230600482015260009183916001600160a01b03909116906370a082319060240160206040518083038186803b158015612f9b57600080fd5b505afa158015612faf573d6000803e3d6000fd5b505050506040513d601f19601f82011682018060405250810190612fd39190614189565b612fdd9190614230565b9050612fe98a8261372b565b9998505050505050505050565b600054610100900460ff1661301d5760405162461bcd60e51b81526004016105ec906145cb565b610ec033611988565b600054610100900460ff1661304d5760405162461bcd60e51b81526004016105ec906145cb565b6065805460ff19169055565b6000816130685750600061336b565b6000806000866001600160a01b031663313ce5676040518163ffffffff1660e01b815260040160206040518083038186803b1580156130a657600080fd5b505afa1580156130ba573d6000803e3d6000fd5b505050506040513d601f19601f820116820180604052508101906130de919061492f565b90506000866001600160a01b031663313ce5676040518163ffffffff1660e01b815260040160206040518083038186803b15801561311b57600080fd5b505afa15801561312f573d6000803e3d6000fd5b505050506040513d601f19601f82011682018060405250810190613153919061492f565b905088600001516001600160a01b031663feaf968c6040518163ffffffff1660e01b815260040160a06040518083038186803b15801561319257600080fd5b505afa1580156131a6573d6000803e3d6000fd5b505050506040513d601f19601f820116820180604052508101906131ca9190614966565b5060d95492975095508692505015806131ee575060d9546131eb8542614230565b11155b61322c5760405162461bcd60e51b815260206004820152600f60248201526e0854149250d157d3d5551110551151608a1b60448201526064016105ec565b876001600160a01b031663feaf968c6040518163ffffffff1660e01b815260040160a06040518083038186803b15801561326557600080fd5b505afa158015613279573d6000803e3d6000fd5b505050506040513d601f19601f8201168201806040525081019061329d9190614966565b5060d95492985096508792505015806132c1575060d9546132be8642614230565b11155b6132ff5760405162461bcd60e51b815260206004820152600f60248201526e0854149250d157d3d5551110551151608a1b60448201526064016105ec565b8260ff168b6080015160ff161461335a5761331b818486613976565b61332a838d6080015187613976565b6133398a8e6060015188613976565b6133439190614211565b61334d9190614633565b965050505050505061336b565b80826133398a8e6060015188613976565b949350505050565b60d35460d280546133b5926001600160a01b031691859160009061339957613399614173565b6000918252602090912001546001600160a01b03169190613648565b60d3546001600160a01b03166338ed1739838360d2306133d742610e1061425d565b6040518663ffffffff1660e01b81526004016133f79594939291906149ff565b600060405180830381600087803b15801561341157600080fd5b505af1158015613425573d6000803e3d6000fd5b505050506040513d6000823e601f3d908101601f191682016040526108829190810190614a3b565b60d35460d28054613473926001600160a01b031691859160009061339957613399614173565b60006040518060a0016040528060d5805461348d9061429d565b80601f01602080910402602001604051908101604052809291908181526020018280546134b99061429d565b80156135065780601f106134db57610100808354040283529160200191613506565b820191906000526020600020905b8154815290600101906020018083116134e957829003601f168201915b505050918352505030602082015260400161352242603c61425d565b815260208101859052604090810184905260d354905163c04b8d5960e01b81529192506001600160a01b03169063c04b8d5990613563908490600401614ac0565b602060405180830381600087803b15801561357d57600080fd5b505af1158015613591573d6000803e3d6000fd5b505050506040513d601f19601f8201168201806040525081019061134b9190614189565b60d35460d280546135db926001600160a01b031691859160009061339957613399614173565b60d354604051633011f4b360e11b81526001600160a01b0390911690636023e966906136129060d290869086903090600401614b18565b600060405180830381600087803b15801561362c57600080fd5b505af1158015613640573d6000803e3d6000fd5b505050505050565b604051636eb1769f60e11b81523060048201526001600160a01b038381166024830152600091839186169063dd62ed3e9060440160206040518083038186803b15801561369457600080fd5b505afa1580156136a8573d6000803e3d6000fd5b505050506040513d601f19601f820116820180604052508101906136cc9190614189565b6136d6919061425d565b604080516001600160a01b038616602482015260448082018490528251808303909101815260649091019091526020810180516001600160e01b031663095ea7b360e01b17905290915061134b9085906139e7565b60cd5460405163c68f5eb360e01b8152600481018490526000916001600160a01b03169063c68f5eb3906024016101c06040518083038186803b15801561377157600080fd5b505afa158015613785573d6000803e3d6000fd5b505050506040513d601f19601f820116820180604052508101906137a991906143b3565b9050600181610160015160038111156137c4576137c4613dd8565b141561387b5760d0546101408201516101208301516040805160208101929092526001600160a01b0390931692634000aea092918691015b6040516020818303038152906040526040518463ffffffff1660e01b815260040161382993929190614b50565b602060405180830381600087803b15801561384357600080fd5b505af1158015613857573d6000803e3d6000fd5b505050506040513d601f19601f8201168201806040525081019061134b91906141b2565b6002816101600151600381111561389457613894613dd8565b14156138d85760d054610140820151610120830151604080516001600160401b0390921660208301526001600160a01b0390931692634000aea092918691016137fc565b600381610160015160038111156138f1576138f1613dd8565b141561088257610120810151156139385760d0546101408201516101208301516040805160208101929092526001600160a01b0390931692634000aea092918691016137fc565b60d05461014082015160405163a9059cbb60e01b81526001600160a01b0391821660048201526024810185905291169063a9059cbb90604401613829565b60008160ff168360ff1610156139af576139908383614b80565b61399e9060ff16600a614c87565b6139a89085614211565b9050610752565b8160ff168360ff1611156139df576139c78284614b80565b6139d59060ff16600a614c87565b6139a89085614633565b509192915050565b6000613a3c826040518060400160405280602081526020017f5361666545524332303a206c6f772d6c6576656c2063616c6c206661696c6564815250856001600160a01b0316613ab99092919063ffffffff16565b8051909150156108825780806020019051810190613a5a91906141b2565b6108825760405162461bcd60e51b815260206004820152602a60248201527f5361666545524332303a204552433230206f7065726174696f6e20646964206e6044820152691bdd081cdd58d8d9595960b21b60648201526084016105ec565b606061336b848460008585843b613b125760405162461bcd60e51b815260206004820152601d60248201527f416464726573733a2063616c6c20746f206e6f6e2d636f6e747261637400000060448201526064016105ec565b600080866001600160a01b03168587604051613b2e9190614c93565b60006040518083038185875af1925050503d8060008114613b6b576040519150601f19603f3d011682016040523d82523d6000602084013e613b70565b606091505b5091509150613b80828286613b8b565b979650505050505050565b60608315613b9a575081610752565b825115613baa5782518084602001fd5b8160405162461bcd60e51b81526004016105ec9190613f00565b828054828255906000526020600020908101928215613c17579160200282015b82811115613c175781546001600160a01b0319166001600160a01b03843516178255602090920191600190910190613be4565b50613c23929150613c9b565b5090565b828054613c339061429d565b90600052602060002090601f016020900481019282613c555760008555613c17565b82601f10613c6e5782800160ff19823516178555613c17565b82800160010185558215613c17579182015b82811115613c17578235825591602001919060010190613c80565b5b80821115613c235760008155600101613c9c565b6001600160a01b038116811461180557600080fd5b8035613cd081613cb0565b919050565b600060208284031215613ce757600080fd5b813561075281613cb0565b60ff8116811461180557600080fd5b63ffffffff8116811461180557600080fd5b60008060408385031215613d2657600080fd5b8235613d3181613cf2565b91506020830135613d4181613d01565b809150509250929050565b600080600060608486031215613d6157600080fd5b8335613d6c81613cf2565b92506020840135613d7c81613d01565b929592945050506040919091013590565b600060208284031215613d9f57600080fd5b813561075281613cf2565b60008060408385031215613dbd57600080fd5b8235613dc881613cb0565b91506020830135613d4181613cb0565b634e487b7160e01b600052602160045260246000fd5b6003811061180557634e487b7160e01b600052602160045260246000fd5b60208101613e1983613dee565b91905290565b60008083601f840112613e3157600080fd5b5081356001600160401b03811115613e4857600080fd5b602083019150836020828501011115613e6057600080fd5b9250929050565b60008060208385031215613e7a57600080fd5b82356001600160401b03811115613e9057600080fd5b613e9c85828601613e1f565b90969095509350505050565b60005b83811015613ec3578181015183820152602001613eab565b8381111561134b5750506000910152565b60008151808452613eec816020860160208601613ea8565b601f01601f19169290920160200192915050565b6020815260006107526020830184613ed4565b821515815260406020820152600061336b6040830184613ed4565b600060208284031215613f4057600080fd5b813561075281613d01565b803560038110613cd057600080fd5b6000806000806000806000806000806101008b8d031215613f7a57600080fd5b8a35613f8581613cb0565b995060208b0135613f9581613cb0565b985060408b0135613fa581613cb0565b975060608b0135613fb581613cb0565b965060808b01356001600160401b0380821115613fd157600080fd5b818d0191508d601f830112613fe557600080fd5b813581811115613ff457600080fd5b8e60208260051b850101111561400957600080fd5b602083019850965061401d60a08e01613cc5565b955061402b60c08e01613f4b565b945060e08d013591508082111561404157600080fd5b5061404e8d828e01613e1f565b915080935050809150509295989b9194979a5092959850565b60006020828403121561407957600080fd5b5035919050565b60008060006060848603121561409557600080fd5b83356140a081613cb0565b925060208401356140b081613cb0565b915060408401356140c081613cb0565b809150509250925092565b600080600080600080600080610100898b0312156140e857600080fd5b883597506020890135965060408901359550606089013594506080890135935060a0890135925060c089013561411d81613d01565b915060e089013561412d81613d01565b809150509295985092959890939650565b6020808252818101527f4f776e61626c653a2063616c6c6572206973206e6f7420746865206f776e6572604082015260600190565b634e487b7160e01b600052603260045260246000fd5b60006020828403121561419b57600080fd5b5051919050565b80518015158114613cd057600080fd5b6000602082840312156141c457600080fd5b610752826141a2565b6000806000606084860312156141e257600080fd5b833592506020840135915060408401356140c081613cf2565b634e487b7160e01b600052601160045260246000fd5b600081600019048311821515161561422b5761422b6141fb565b500290565b600082821015614242576142426141fb565b500390565b634e487b7160e01b600052603160045260246000fd5b60008219821115614270576142706141fb565b500190565b600063ffffffff808316818516808303821115614294576142946141fb565b01949350505050565b600181811c908216806142b157607f821691505b602082108114156142d257634e487b7160e01b600052602260045260246000fd5b50919050565b600063ffffffff838116908316818110156142f5576142f56141fb565b039392505050565b634e487b7160e01b600052604160045260246000fd5b6040516101c081016001600160401b0381118282101715614336576143366142fd565b60405290565b604051602081016001600160401b0381118282101715614336576143366142fd565b604051601f8201601f191681016001600160401b0381118282101715614386576143866142fd565b604052919050565b8051613cd081613cb0565b8051613cd081613d01565b805160048110613cd057600080fd5b60006101c082840312156143c657600080fd5b6143ce614313565b6143d78361438e565b81526020830151602082015260408301516040820152606083015160608201526080830151608082015260a083015160a082015260c083015160c082015260e083015160e082015261010061442d818501614399565b90820152610120838101519082015261014061444a81850161438e565b9082015261016061445c8482016143a4565b9082015261018061446e8482016143a4565b908201526101a0614480848201614399565b908201529392505050565b60006001600160401b038211156144a4576144a46142fd565b5060051b60200190565b600060208083850312156144c157600080fd5b82516001600160401b03808211156144d857600080fd5b81850191508282870312156144ec57600080fd5b6144f461433c565b82518281111561450357600080fd5b80840193505086601f84011261451857600080fd5b8251915061452d6145288361448b565b61435e565b82815260059290921b8301840191848101908884111561454c57600080fd5b938501935b8385101561456a57845182529385019390850190614551565b8252509695505050505050565b634e487b7160e01b600052601260045260246000fd5b600063ffffffff808416806145a4576145a4614577565b92169190910692915050565b60006000198214156145c4576145c46141fb565b5060010190565b6020808252602b908201527f496e697469616c697a61626c653a20636f6e7472616374206973206e6f74206960408201526a6e697469616c697a696e6760a81b606082015260800190565b8281526040810161462683613dee565b8260208301529392505050565b60008261464257614642614577565b500490565b600063ffffffff8083168185168183048111821515161561466a5761466a6141fb565b02949350505050565b80516001600160601b0381168114613cd057600080fd5b80516001600160401b0381168114613cd057600080fd5b600080600080600080600060e0888a0312156146bc57600080fd5b87516146c781613cb0565b60208901519097506146d881613d01565b60408901519096506001600160401b03808211156146f557600080fd5b818a0191508a601f83011261470957600080fd5b81518181111561471b5761471b6142fd565b61472e601f8201601f191660200161435e565b91508082528b602082850101111561474557600080fd5b614756816020840160208601613ea8565b509550614767905060608901614673565b93506147756080890161438e565b925061478360a0890161438e565b915061479160c0890161468a565b905092959891949750929550565b600080600080608085870312156147b557600080fd5b6147be85614673565b935060206147cd81870161468a565b935060408601516147dd81613cb0565b60608701519093506001600160401b038111156147f957600080fd5b8601601f8101881361480a57600080fd5b80516148186145288261448b565b81815260059190911b8201830190838101908a83111561483757600080fd5b928401925b8284101561485e57835161484f81613cb0565b8252928401929084019061483c565b979a9699509497505050505050565b83815263ffffffff831660208201526060810161488983613dee565b826040830152949350505050565b600060c082840312156148a957600080fd5b60405160c081018181106001600160401b03821117156148cb576148cb6142fd565b60405282516148d981613cb0565b80825250602083015160208201526040830151604082015260608301516148ff81613cf2565b6060820152608083015161491281613cf2565b608082015261492360a084016141a2565b60a08201529392505050565b60006020828403121561494157600080fd5b815161075281613cf2565b805169ffffffffffffffffffff81168114613cd057600080fd5b600080600080600060a0868803121561497e57600080fd5b6149878661494c565b94506020860151935060408601519250606086015191506149aa6080870161494c565b90509295509295909350565b6000815480845260208085019450836000528060002060005b838110156149f45781546001600160a01b0316875295820195600191820191016149cf565b509495945050505050565b85815284602082015260a060408201526000614a1e60a08301866149b6565b6001600160a01b0394909416606083015250608001529392505050565b60006020808385031215614a4e57600080fd5b82516001600160401b03811115614a6457600080fd5b8301601f81018513614a7557600080fd5b8051614a836145288261448b565b81815260059190911b82018301908381019087831115614aa257600080fd5b928401925b82841015613b8057835182529284019290840190614aa7565b602081526000825160a06020840152614adc60c0840182613ed4565b905060018060a01b0360208501511660408401526040840151606084015260608401516080840152608084015160a08401528091505092915050565b608081526000614b2b60808301876149b6565b60208301959095525060408101929092526001600160a01b0316606090910152919050565b60018060a01b0384168152826020820152606060408201526000614b776060830184613ed4565b95945050505050565b600060ff821660ff841680821015614b9a57614b9a6141fb565b90039392505050565b600181815b80851115614bde578160001904821115614bc457614bc46141fb565b80851615614bd157918102915b93841c9390800290614ba8565b509250929050565b600082614bf55750600161110c565b81614c025750600061110c565b8160018114614c185760028114614c2257614c3e565b600191505061110c565b60ff841115614c3357614c336141fb565b50506001821b61110c565b5060208310610133831016604e8410600b8410161715614c61575081810a61110c565b614c6b8383614ba3565b8060001904821115614c7f57614c7f6141fb565b029392505050565b60006107528383614be6565b60008251614ca5818460208701613ea8565b919091019291505056fea26469706673582212206754ac20ec7578abf459f1cd866a6cb1df5a5659f4e20709ed84abb5e17e9e1264736f6c63430008090033",
  "devdoc": {
    "kind": "dev",
    "methods": {
      "checkUpkeep(bytes)": {
        "details": "To ensure that it is never called, you may want to add the cannotExecute modifier from KeeperBase to your implementation of this method.",
        "params": {
          "checkData": "specified in the upkeep registration so it is always the same for a registered upkeep. This can easilly be broken down into specific arguments using `abi.decode`, so multiple upkeeps can be registered on the same contract and easily differentiated by the contract."
        },
        "returns": {
          "performData": "bytes that the keeper should call performUpkeep with, if upkeep is needed. If you would like to encode data to decode later, try `abi.encode`.",
          "upkeepNeeded": "boolean to indicate whether the keeper should call performUpkeep or not."
        }
      },
      "constructor": {
        "custom:oz-upgrades-unsafe-allow": "constructor"
      },
      "owner()": {
        "details": "Returns the address of the current owner."
      },
      "paused()": {
        "details": "Returns true if the contract is paused, and false otherwise."
      },
      "performUpkeep(bytes)": {
        "details": "The input to this method should not be trusted, and the caller of the method should not even be restricted to any single registry. Anyone should be able call it, and the input should be validated, there is no guarantee that the data passed in is the performData returned from checkUpkeep. This could happen due to malicious keepers, racing keepers, or simply a state change while the performUpkeep transaction is waiting for confirmation. Always validate the data passed in.",
        "params": {
          "performData": "is the data which was passed back from the checkData simulation. If it is encoded, it can easily be decoded into other types by calling `abi.decode`. This data should not be trusted, and should be validated against the contract's current state."
        }
      },
      "renounceOwnership()": {
        "details": "Leaves the contract without owner. It will not be possible to call `onlyOwner` functions anymore. Can only be called by the current owner. NOTE: Renouncing ownership will leave the contract without an owner, thereby removing any functionality that is only available to the owner."
      },
      "transferOwnership(address)": {
        "details": "Transfers ownership of the contract to a new account (`newOwner`). Can only be called by the current owner."
      }
    },
    "stateVariables": {
      "allowedRegistries": {
        "details": "map of registries address that are allowed "
      },
      "caskChainlinkTopup": {
        "details": "Pointer to CaskChainlinkTopup contract "
      },
      "caskVault": {
        "details": "vault to use for ChainlinkTopup funding. "
      },
      "feeDistributor": {
        "details": "Address to receive DCA fees. "
      },
      "maxPriceFeedAge": {
        "details": "max allowable age for price feed data. "
      },
      "maxSkips": {
        "details": "max number of failed ChainlinkTopup purchases before ChainlinkTopup is permanently canceled. "
      },
      "maxSwapSlippageBps": {
        "details": "max slippage allowed when buying LINK on the DEX for a topup. "
      },
      "maxTopupsPerGroupRun": {
        "details": "max number of topups to do per each run of a group. "
      },
      "topupFeeBps": {
        "details": "ChainlinkTopup transaction fee bps and min. "
      }
    },
    "version": 1
  },
  "userdoc": {
    "kind": "user",
    "methods": {
      "checkUpkeep(bytes)": {
        "notice": "method that is simulated by the keepers to see if any work actually needs to be performed. This method does does not actually need to be executable, and since it is only ever simulated it can consume lots of gas."
      },
      "performUpkeep(bytes)": {
        "notice": "method that is actually executed by the keepers, via the registry. The data returned by the checkUpkeep simulation will be passed into this method to actually be executed."
      }
    },
    "version": 1
  },
  "storageLayout": {
    "storage": [
      {
        "astId": 327,
        "contract": "contracts/chainlink_topup/CaskChainlinkTopupManager.sol:CaskChainlinkTopupManager",
        "label": "_initialized",
        "offset": 0,
        "slot": "0",
        "type": "t_bool"
      },
      {
        "astId": 330,
        "contract": "contracts/chainlink_topup/CaskChainlinkTopupManager.sol:CaskChainlinkTopupManager",
        "label": "_initializing",
        "offset": 1,
        "slot": "0",
        "type": "t_bool"
      },
      {
        "astId": 2551,
        "contract": "contracts/chainlink_topup/CaskChainlinkTopupManager.sol:CaskChainlinkTopupManager",
        "label": "__gap",
        "offset": 0,
        "slot": "1",
        "type": "t_array(t_uint256)50_storage"
      },
      {
        "astId": 205,
        "contract": "contracts/chainlink_topup/CaskChainlinkTopupManager.sol:CaskChainlinkTopupManager",
        "label": "_owner",
        "offset": 0,
        "slot": "51",
        "type": "t_address"
      },
      {
        "astId": 319,
        "contract": "contracts/chainlink_topup/CaskChainlinkTopupManager.sol:CaskChainlinkTopupManager",
        "label": "__gap",
        "offset": 0,
        "slot": "52",
        "type": "t_array(t_uint256)49_storage"
      },
      {
        "astId": 415,
        "contract": "contracts/chainlink_topup/CaskChainlinkTopupManager.sol:CaskChainlinkTopupManager",
        "label": "_paused",
        "offset": 0,
        "slot": "101",
        "type": "t_bool"
      },
      {
        "astId": 506,
        "contract": "contracts/chainlink_topup/CaskChainlinkTopupManager.sol:CaskChainlinkTopupManager",
        "label": "__gap",
        "offset": 0,
        "slot": "102",
        "type": "t_array(t_uint256)49_storage"
      },
      {
        "astId": 521,
        "contract": "contracts/chainlink_topup/CaskChainlinkTopupManager.sol:CaskChainlinkTopupManager",
        "label": "_status",
        "offset": 0,
        "slot": "151",
        "type": "t_uint256"
      },
      {
        "astId": 564,
        "contract": "contracts/chainlink_topup/CaskChainlinkTopupManager.sol:CaskChainlinkTopupManager",
        "label": "__gap",
        "offset": 0,
        "slot": "152",
        "type": "t_array(t_uint256)49_storage"
      },
      {
        "astId": 18014,
        "contract": "contracts/chainlink_topup/CaskChainlinkTopupManager.sol:CaskChainlinkTopupManager",
        "label": "queueBucketSize",
        "offset": 0,
        "slot": "201",
        "type": "t_uint32"
      },
      {
        "astId": 18017,
        "contract": "contracts/chainlink_topup/CaskChainlinkTopupManager.sol:CaskChainlinkTopupManager",
        "label": "maxQueueAge",
        "offset": 4,
        "slot": "201",
        "type": "t_uint32"
      },
      {
        "astId": 18025,
        "contract": "contracts/chainlink_topup/CaskChainlinkTopupManager.sol:CaskChainlinkTopupManager",
        "label": "queue",
        "offset": 0,
        "slot": "202",
        "type": "t_mapping(t_uint8,t_mapping(t_uint32,t_array(t_bytes32)dyn_storage))"
      },
      {
        "astId": 18029,
        "contract": "contracts/chainlink_topup/CaskChainlinkTopupManager.sol:CaskChainlinkTopupManager",
        "label": "queueBucket",
        "offset": 0,
        "slot": "203",
        "type": "t_mapping(t_uint8,t_uint32)"
      },
      {
        "astId": 9588,
        "contract": "contracts/chainlink_topup/CaskChainlinkTopupManager.sol:CaskChainlinkTopupManager",
        "label": "allowedRegistries",
        "offset": 0,
        "slot": "204",
        "type": "t_mapping(t_address,t_bool)"
      },
      {
        "astId": 9592,
        "contract": "contracts/chainlink_topup/CaskChainlinkTopupManager.sol:CaskChainlinkTopupManager",
        "label": "caskChainlinkTopup",
        "offset": 0,
        "slot": "205",
        "type": "t_contract(ICaskChainlinkTopup)11496"
      },
      {
        "astId": 9596,
        "contract": "contracts/chainlink_topup/CaskChainlinkTopupManager.sol:CaskChainlinkTopupManager",
        "label": "caskVault",
        "offset": 0,
        "slot": "206",
        "type": "t_contract(ICaskVault)17780"
      },
      {
        "astId": 9599,
        "contract": "contracts/chainlink_topup/CaskChainlinkTopupManager.sol:CaskChainlinkTopupManager",
        "label": "linkBridgeToken",
        "offset": 0,
        "slot": "207",
        "type": "t_contract(IERC20Metadata)4344"
      },
      {
        "astId": 9602,
        "contract": "contracts/chainlink_topup/CaskChainlinkTopupManager.sol:CaskChainlinkTopupManager",
        "label": "linkFundingToken",
        "offset": 0,
        "slot": "208",
        "type": "t_contract(LinkTokenInterface)17902"
      },
      {
        "astId": 9605,
        "contract": "contracts/chainlink_topup/CaskChainlinkTopupManager.sol:CaskChainlinkTopupManager",
        "label": "linkPriceFeed",
        "offset": 0,
        "slot": "209",
        "type": "t_contract(AggregatorV3Interface)45"
      },
      {
        "astId": 9608,
        "contract": "contracts/chainlink_topup/CaskChainlinkTopupManager.sol:CaskChainlinkTopupManager",
        "label": "linkSwapPath",
        "offset": 0,
        "slot": "210",
        "type": "t_array(t_address)dyn_storage"
      },
      {
        "astId": 9610,
        "contract": "contracts/chainlink_topup/CaskChainlinkTopupManager.sol:CaskChainlinkTopupManager",
        "label": "linkSwapRouter",
        "offset": 0,
        "slot": "211",
        "type": "t_address"
      },
      {
        "astId": 9613,
        "contract": "contracts/chainlink_topup/CaskChainlinkTopupManager.sol:CaskChainlinkTopupManager",
        "label": "pegswap",
        "offset": 0,
        "slot": "212",
        "type": "t_contract(IPegSwap)17807"
      },
      {
        "astId": 9616,
        "contract": "contracts/chainlink_topup/CaskChainlinkTopupManager.sol:CaskChainlinkTopupManager",
        "label": "linkSwapProtocol",
        "offset": 20,
        "slot": "212",
        "type": "t_enum(SwapProtocol)11502"
      },
      {
        "astId": 9618,
        "contract": "contracts/chainlink_topup/CaskChainlinkTopupManager.sol:CaskChainlinkTopupManager",
        "label": "linkSwapData",
        "offset": 0,
        "slot": "213",
        "type": "t_bytes_storage"
      },
      {
        "astId": 9621,
        "contract": "contracts/chainlink_topup/CaskChainlinkTopupManager.sol:CaskChainlinkTopupManager",
        "label": "maxSkips",
        "offset": 0,
        "slot": "214",
        "type": "t_uint256"
      },
      {
        "astId": 9624,
        "contract": "contracts/chainlink_topup/CaskChainlinkTopupManager.sol:CaskChainlinkTopupManager",
        "label": "topupFeeBps",
        "offset": 0,
        "slot": "215",
        "type": "t_uint256"
      },
      {
        "astId": 9626,
        "contract": "contracts/chainlink_topup/CaskChainlinkTopupManager.sol:CaskChainlinkTopupManager",
        "label": "topupFeeMin",
        "offset": 0,
        "slot": "216",
        "type": "t_uint256"
      },
      {
        "astId": 9629,
        "contract": "contracts/chainlink_topup/CaskChainlinkTopupManager.sol:CaskChainlinkTopupManager",
        "label": "maxPriceFeedAge",
        "offset": 0,
        "slot": "217",
        "type": "t_uint256"
      },
      {
        "astId": 9632,
        "contract": "contracts/chainlink_topup/CaskChainlinkTopupManager.sol:CaskChainlinkTopupManager",
        "label": "maxTopupsPerGroupRun",
        "offset": 0,
        "slot": "218",
        "type": "t_uint256"
      },
      {
        "astId": 9635,
        "contract": "contracts/chainlink_topup/CaskChainlinkTopupManager.sol:CaskChainlinkTopupManager",
        "label": "maxSwapSlippageBps",
        "offset": 0,
        "slot": "219",
        "type": "t_uint256"
      },
      {
        "astId": 9638,
        "contract": "contracts/chainlink_topup/CaskChainlinkTopupManager.sol:CaskChainlinkTopupManager",
        "label": "feeDistributor",
        "offset": 0,
        "slot": "220",
        "type": "t_address"
      }
    ],
    "types": {
      "t_address": {
        "encoding": "inplace",
        "label": "address",
        "numberOfBytes": "20"
      },
      "t_array(t_address)dyn_storage": {
        "base": "t_address",
        "encoding": "dynamic_array",
        "label": "address[]",
        "numberOfBytes": "32"
      },
      "t_array(t_bytes32)dyn_storage": {
        "base": "t_bytes32",
        "encoding": "dynamic_array",
        "label": "bytes32[]",
        "numberOfBytes": "32"
      },
      "t_array(t_uint256)49_storage": {
        "base": "t_uint256",
        "encoding": "inplace",
        "label": "uint256[49]",
        "numberOfBytes": "1568"
      },
      "t_array(t_uint256)50_storage": {
        "base": "t_uint256",
        "encoding": "inplace",
        "label": "uint256[50]",
        "numberOfBytes": "1600"
      },
      "t_bool": {
        "encoding": "inplace",
        "label": "bool",
        "numberOfBytes": "1"
      },
      "t_bytes32": {
        "encoding": "inplace",
        "label": "bytes32",
        "numberOfBytes": "32"
      },
      "t_bytes_storage": {
        "encoding": "bytes",
        "label": "bytes",
        "numberOfBytes": "32"
      },
      "t_contract(AggregatorV3Interface)45": {
        "encoding": "inplace",
        "label": "contract AggregatorV3Interface",
        "numberOfBytes": "20"
      },
      "t_contract(ICaskChainlinkTopup)11496": {
        "encoding": "inplace",
        "label": "contract ICaskChainlinkTopup",
        "numberOfBytes": "20"
      },
      "t_contract(ICaskVault)17780": {
        "encoding": "inplace",
        "label": "contract ICaskVault",
        "numberOfBytes": "20"
      },
      "t_contract(IERC20Metadata)4344": {
        "encoding": "inplace",
        "label": "contract IERC20Metadata",
        "numberOfBytes": "20"
      },
      "t_contract(IPegSwap)17807": {
        "encoding": "inplace",
        "label": "contract IPegSwap",
        "numberOfBytes": "20"
      },
      "t_contract(LinkTokenInterface)17902": {
        "encoding": "inplace",
        "label": "contract LinkTokenInterface",
        "numberOfBytes": "20"
      },
      "t_enum(SwapProtocol)11502": {
        "encoding": "inplace",
        "label": "enum ICaskChainlinkTopupManager.SwapProtocol",
        "numberOfBytes": "1"
      },
      "t_mapping(t_address,t_bool)": {
        "encoding": "mapping",
        "key": "t_address",
        "label": "mapping(address => bool)",
        "numberOfBytes": "32",
        "value": "t_bool"
      },
      "t_mapping(t_uint32,t_array(t_bytes32)dyn_storage)": {
        "encoding": "mapping",
        "key": "t_uint32",
        "label": "mapping(uint32 => bytes32[])",
        "numberOfBytes": "32",
        "value": "t_array(t_bytes32)dyn_storage"
      },
      "t_mapping(t_uint8,t_mapping(t_uint32,t_array(t_bytes32)dyn_storage))": {
        "encoding": "mapping",
        "key": "t_uint8",
        "label": "mapping(uint8 => mapping(uint32 => bytes32[]))",
        "numberOfBytes": "32",
        "value": "t_mapping(t_uint32,t_array(t_bytes32)dyn_storage)"
      },
      "t_mapping(t_uint8,t_uint32)": {
        "encoding": "mapping",
        "key": "t_uint8",
        "label": "mapping(uint8 => uint32)",
        "numberOfBytes": "32",
        "value": "t_uint32"
      },
      "t_uint256": {
        "encoding": "inplace",
        "label": "uint256",
        "numberOfBytes": "32"
      },
      "t_uint32": {
        "encoding": "inplace",
        "label": "uint32",
        "numberOfBytes": "4"
      },
      "t_uint8": {
        "encoding": "inplace",
        "label": "uint8",
        "numberOfBytes": "1"
      }
    }
  }
}