{
  "address": "0x67c1d1b99D613edaf30a27ad0ea52EC1dcb28B97",
  "abi": [
    {
      "inputs": [],
      "stateMutability": "nonpayable",
      "type": "constructor"
    },
    {
      "anonymous": false,
      "inputs": [
        {
          "indexed": true,
          "internalType": "bytes32",
          "name": "chainlinkTopupId",
          "type": "bytes32"
        },
        {
          "indexed": true,
          "internalType": "address",
          "name": "user",
          "type": "address"
        },
        {
          "indexed": false,
          "internalType": "uint256",
          "name": "targetId",
          "type": "uint256"
        },
        {
          "indexed": false,
          "internalType": "address",
          "name": "registry",
          "type": "address"
        },
        {
          "indexed": false,
          "internalType": "enum ICaskChainlinkTopup.TopupType",
          "name": "topupType",
          "type": "uint8"
        }
      ],
      "name": "ChainlinkTopupCanceled",
      "type": "event"
    },
    {
      "anonymous": false,
      "inputs": [
        {
          "indexed": true,
          "internalType": "bytes32",
          "name": "chainlinkTopupId",
          "type": "bytes32"
        },
        {
          "indexed": true,
          "internalType": "address",
          "name": "user",
          "type": "address"
        },
        {
          "indexed": false,
          "internalType": "uint256",
          "name": "lowBalance",
          "type": "uint256"
        },
        {
          "indexed": false,
          "internalType": "uint256",
          "name": "topupAmount",
          "type": "uint256"
        },
        {
          "indexed": false,
          "internalType": "uint256",
          "name": "targetId",
          "type": "uint256"
        },
        {
          "indexed": false,
          "internalType": "address",
          "name": "registry",
          "type": "address"
        },
        {
          "indexed": false,
          "internalType": "enum ICaskChainlinkTopup.TopupType",
          "name": "topupType",
          "type": "uint8"
        }
      ],
      "name": "ChainlinkTopupCreated",
      "type": "event"
    },
    {
      "anonymous": false,
      "inputs": [
        {
          "indexed": true,
          "internalType": "bytes32",
          "name": "chainlinkTopupId",
          "type": "bytes32"
        },
        {
          "indexed": true,
          "internalType": "address",
          "name": "user",
          "type": "address"
        },
        {
          "indexed": false,
          "internalType": "uint256",
          "name": "targetId",
          "type": "uint256"
        },
        {
          "indexed": false,
          "internalType": "address",
          "name": "registry",
          "type": "address"
        },
        {
          "indexed": false,
          "internalType": "enum ICaskChainlinkTopup.TopupType",
          "name": "topupType",
          "type": "uint8"
        }
      ],
      "name": "ChainlinkTopupPaused",
      "type": "event"
    },
    {
      "anonymous": false,
      "inputs": [
        {
          "indexed": true,
          "internalType": "bytes32",
          "name": "chainlinkTopupId",
          "type": "bytes32"
        },
        {
          "indexed": true,
          "internalType": "address",
          "name": "user",
          "type": "address"
        },
        {
          "indexed": false,
          "internalType": "uint256",
          "name": "targetId",
          "type": "uint256"
        },
        {
          "indexed": false,
          "internalType": "address",
          "name": "registry",
          "type": "address"
        },
        {
          "indexed": false,
          "internalType": "enum ICaskChainlinkTopup.TopupType",
          "name": "topupType",
          "type": "uint8"
        },
        {
          "indexed": false,
          "internalType": "uint256",
          "name": "amount",
          "type": "uint256"
        },
        {
          "indexed": false,
          "internalType": "uint256",
          "name": "buyQty",
          "type": "uint256"
        },
        {
          "indexed": false,
          "internalType": "uint256",
          "name": "fee",
          "type": "uint256"
        }
      ],
      "name": "ChainlinkTopupProcessed",
      "type": "event"
    },
    {
      "anonymous": false,
      "inputs": [
        {
          "indexed": true,
          "internalType": "bytes32",
          "name": "chainlinkTopupId",
          "type": "bytes32"
        },
        {
          "indexed": true,
          "internalType": "address",
          "name": "user",
          "type": "address"
        },
        {
          "indexed": false,
          "internalType": "uint256",
          "name": "targetId",
          "type": "uint256"
        },
        {
          "indexed": false,
          "internalType": "address",
          "name": "registry",
          "type": "address"
        },
        {
          "indexed": false,
          "internalType": "enum ICaskChainlinkTopup.TopupType",
          "name": "topupType",
          "type": "uint8"
        }
      ],
      "name": "ChainlinkTopupResumed",
      "type": "event"
    },
    {
      "anonymous": false,
      "inputs": [
        {
          "indexed": true,
          "internalType": "bytes32",
          "name": "chainlinkTopupId",
          "type": "bytes32"
        },
        {
          "indexed": true,
          "internalType": "address",
          "name": "user",
          "type": "address"
        },
        {
          "indexed": false,
          "internalType": "uint256",
          "name": "targetId",
          "type": "uint256"
        },
        {
          "indexed": false,
          "internalType": "address",
          "name": "registry",
          "type": "address"
        },
        {
          "indexed": false,
          "internalType": "enum ICaskChainlinkTopup.TopupType",
          "name": "topupType",
          "type": "uint8"
        },
        {
          "indexed": false,
          "internalType": "enum ICaskChainlinkTopup.SkipReason",
          "name": "skipReason",
          "type": "uint8"
        }
      ],
      "name": "ChainlinkTopupSkipped",
      "type": "event"
    },
    {
      "anonymous": false,
      "inputs": [
        {
          "indexed": true,
          "internalType": "address",
          "name": "previousOwner",
          "type": "address"
        },
        {
          "indexed": true,
          "internalType": "address",
          "name": "newOwner",
          "type": "address"
        }
      ],
      "name": "OwnershipTransferred",
      "type": "event"
    },
    {
      "anonymous": false,
      "inputs": [
        {
          "indexed": false,
          "internalType": "address",
          "name": "account",
          "type": "address"
        }
      ],
      "name": "Paused",
      "type": "event"
    },
    {
      "anonymous": false,
      "inputs": [
        {
          "indexed": false,
          "internalType": "address",
          "name": "account",
          "type": "address"
        }
      ],
      "name": "Unpaused",
      "type": "event"
    },
    {
      "inputs": [
        {
          "internalType": "uint256",
          "name": "",
          "type": "uint256"
        }
      ],
      "name": "backfillGroups",
      "outputs": [
        {
          "internalType": "uint256",
          "name": "",
          "type": "uint256"
        }
      ],
      "stateMutability": "view",
      "type": "function"
    },
    {
      "inputs": [
        {
          "internalType": "bytes32",
          "name": "_chainlinkTopupId",
          "type": "bytes32"
        }
      ],
      "name": "cancelChainlinkTopup",
      "outputs": [],
      "stateMutability": "nonpayable",
      "type": "function"
    },
    {
      "inputs": [],
      "name": "chainlinkTopupManager",
      "outputs": [
        {
          "internalType": "contract ICaskChainlinkTopupManager",
          "name": "",
          "type": "address"
        }
      ],
      "stateMutability": "view",
      "type": "function"
    },
    {
      "inputs": [
        {
          "internalType": "uint256",
          "name": "_lowBalance",
          "type": "uint256"
        },
        {
          "internalType": "uint256",
          "name": "_topupAmount",
          "type": "uint256"
        },
        {
          "internalType": "uint256",
          "name": "_targetId",
          "type": "uint256"
        },
        {
          "internalType": "address",
          "name": "_registry",
          "type": "address"
        },
        {
          "internalType": "enum ICaskChainlinkTopup.TopupType",
          "name": "_topupType",
          "type": "uint8"
        }
      ],
      "name": "createChainlinkTopup",
      "outputs": [
        {
          "internalType": "bytes32",
          "name": "",
          "type": "bytes32"
        }
      ],
      "stateMutability": "nonpayable",
      "type": "function"
    },
    {
      "inputs": [],
      "name": "currentGroup",
      "outputs": [
        {
          "internalType": "uint256",
          "name": "",
          "type": "uint256"
        }
      ],
      "stateMutability": "view",
      "type": "function"
    },
    {
      "inputs": [
        {
          "internalType": "bytes32",
          "name": "_chainlinkTopupId",
          "type": "bytes32"
        }
      ],
      "name": "getChainlinkTopup",
      "outputs": [
        {
          "components": [
            {
              "internalType": "address",
              "name": "user",
              "type": "address"
            },
            {
              "internalType": "uint256",
              "name": "groupId",
              "type": "uint256"
            },
            {
              "internalType": "uint256",
              "name": "lowBalance",
              "type": "uint256"
            },
            {
              "internalType": "uint256",
              "name": "topupAmount",
              "type": "uint256"
            },
            {
              "internalType": "uint256",
              "name": "currentAmount",
              "type": "uint256"
            },
            {
              "internalType": "uint256",
              "name": "currentBuyQty",
              "type": "uint256"
            },
            {
              "internalType": "uint256",
              "name": "numTopups",
              "type": "uint256"
            },
            {
              "internalType": "uint256",
              "name": "numSkips",
              "type": "uint256"
            },
            {
              "internalType": "uint32",
              "name": "createdAt",
              "type": "uint32"
            },
            {
              "internalType": "uint256",
              "name": "targetId",
              "type": "uint256"
            },
            {
              "internalType": "address",
              "name": "registry",
              "type": "address"
            },
            {
              "internalType": "enum ICaskChainlinkTopup.TopupType",
              "name": "topupType",
              "type": "uint8"
            },
            {
              "internalType": "enum ICaskChainlinkTopup.ChainlinkTopupStatus",
              "name": "status",
              "type": "uint8"
            },
            {
              "internalType": "uint32",
              "name": "retryAfter",
              "type": "uint32"
            }
          ],
          "internalType": "struct ICaskChainlinkTopup.ChainlinkTopup",
          "name": "",
          "type": "tuple"
        }
      ],
      "stateMutability": "view",
      "type": "function"
    },
    {
      "inputs": [
        {
          "internalType": "uint256",
          "name": "_chainlinkTopupGroupId",
          "type": "uint256"
        }
      ],
      "name": "getChainlinkTopupGroup",
      "outputs": [
        {
          "components": [
            {
              "internalType": "bytes32[]",
              "name": "chainlinkTopups",
              "type": "bytes32[]"
            }
          ],
          "internalType": "struct ICaskChainlinkTopup.ChainlinkTopupGroup",
          "name": "",
          "type": "tuple"
        }
      ],
      "stateMutability": "view",
      "type": "function"
    },
    {
      "inputs": [
        {
          "internalType": "address",
          "name": "_user",
          "type": "address"
        },
        {
          "internalType": "uint256",
          "name": "_idx",
          "type": "uint256"
        }
      ],
      "name": "getUserChainlinkTopup",
      "outputs": [
        {
          "internalType": "bytes32",
          "name": "",
          "type": "bytes32"
        }
      ],
      "stateMutability": "view",
      "type": "function"
    },
    {
      "inputs": [
        {
          "internalType": "address",
          "name": "_user",
          "type": "address"
        }
      ],
      "name": "getUserChainlinkTopupCount",
      "outputs": [
        {
          "internalType": "uint256",
          "name": "",
          "type": "uint256"
        }
      ],
      "stateMutability": "view",
      "type": "function"
    },
    {
      "inputs": [],
      "name": "groupSize",
      "outputs": [
        {
          "internalType": "uint256",
          "name": "",
          "type": "uint256"
        }
      ],
      "stateMutability": "view",
      "type": "function"
    },
    {
      "inputs": [
        {
          "internalType": "uint256",
          "name": "_groupSize",
          "type": "uint256"
        }
      ],
      "name": "initialize",
      "outputs": [],
      "stateMutability": "nonpayable",
      "type": "function"
    },
    {
      "inputs": [
        {
          "internalType": "address",
          "name": "forwarder",
          "type": "address"
        }
      ],
      "name": "isTrustedForwarder",
      "outputs": [
        {
          "internalType": "bool",
          "name": "",
          "type": "bool"
        }
      ],
      "stateMutability": "view",
      "type": "function"
    },
    {
      "inputs": [
        {
          "internalType": "bytes32",
          "name": "_chainlinkTopupId",
          "type": "bytes32"
        },
        {
          "internalType": "enum ICaskChainlinkTopup.ManagerCommand",
          "name": "_command",
          "type": "uint8"
        }
      ],
      "name": "managerCommand",
      "outputs": [],
      "stateMutability": "nonpayable",
      "type": "function"
    },
    {
      "inputs": [
        {
          "internalType": "bytes32",
          "name": "_chainlinkTopupId",
          "type": "bytes32"
        },
        {
          "internalType": "uint256",
          "name": "_amount",
          "type": "uint256"
        },
        {
          "internalType": "uint256",
          "name": "_buyQty",
          "type": "uint256"
        },
        {
          "internalType": "uint256",
          "name": "_fee",
          "type": "uint256"
        }
      ],
      "name": "managerProcessed",
      "outputs": [],
      "stateMutability": "nonpayable",
      "type": "function"
    },
    {
      "inputs": [
        {
          "internalType": "bytes32",
          "name": "_chainlinkTopupId",
          "type": "bytes32"
        },
        {
          "internalType": "uint32",
          "name": "_retryAfter",
          "type": "uint32"
        },
        {
          "internalType": "enum ICaskChainlinkTopup.SkipReason",
          "name": "_skipReason",
          "type": "uint8"
        }
      ],
      "name": "managerSkipped",
      "outputs": [],
      "stateMutability": "nonpayable",
      "type": "function"
    },
    {
      "inputs": [],
      "name": "minTopupAmount",
      "outputs": [
        {
          "internalType": "uint256",
          "name": "",
          "type": "uint256"
        }
      ],
      "stateMutability": "view",
      "type": "function"
    },
    {
      "inputs": [],
      "name": "owner",
      "outputs": [
        {
          "internalType": "address",
          "name": "",
          "type": "address"
        }
      ],
      "stateMutability": "view",
      "type": "function"
    },
    {
      "inputs": [],
      "name": "pause",
      "outputs": [],
      "stateMutability": "nonpayable",
      "type": "function"
    },
    {
      "inputs": [
        {
          "internalType": "bytes32",
          "name": "_chainlinkTopupId",
          "type": "bytes32"
        }
      ],
      "name": "pauseChainlinkTopup",
      "outputs": [],
      "stateMutability": "nonpayable",
      "type": "function"
    },
    {
      "inputs": [],
      "name": "paused",
      "outputs": [
        {
          "internalType": "bool",
          "name": "",
          "type": "bool"
        }
      ],
      "stateMutability": "view",
      "type": "function"
    },
    {
      "inputs": [],
      "name": "renounceOwnership",
      "outputs": [],
      "stateMutability": "nonpayable",
      "type": "function"
    },
    {
      "inputs": [
        {
          "internalType": "bytes32",
          "name": "_chainlinkTopupId",
          "type": "bytes32"
        }
      ],
      "name": "resumeChainlinkTopup",
      "outputs": [],
      "stateMutability": "nonpayable",
      "type": "function"
    },
    {
      "inputs": [
        {
          "internalType": "address",
          "name": "_chainlinkTopupManager",
          "type": "address"
        }
      ],
      "name": "setManager",
      "outputs": [],
      "stateMutability": "nonpayable",
      "type": "function"
    },
    {
      "inputs": [
        {
          "internalType": "uint256",
          "name": "_minTopupAmount",
          "type": "uint256"
        }
      ],
      "name": "setMinTopupAmount",
      "outputs": [],
      "stateMutability": "nonpayable",
      "type": "function"
    },
    {
      "inputs": [
        {
          "internalType": "address",
          "name": "_forwarder",
          "type": "address"
        }
      ],
      "name": "setTrustedForwarder",
      "outputs": [],
      "stateMutability": "nonpayable",
      "type": "function"
    },
    {
      "inputs": [
        {
          "internalType": "address",
          "name": "newOwner",
          "type": "address"
        }
      ],
      "name": "transferOwnership",
      "outputs": [],
      "stateMutability": "nonpayable",
      "type": "function"
    },
    {
      "inputs": [],
      "name": "trustedForwarder",
      "outputs": [
        {
          "internalType": "address",
          "name": "",
          "type": "address"
        }
      ],
      "stateMutability": "view",
      "type": "function"
    },
    {
      "inputs": [],
      "name": "unpause",
      "outputs": [],
      "stateMutability": "nonpayable",
      "type": "function"
    },
    {
      "inputs": [],
      "name": "versionRecipient",
      "outputs": [
        {
          "internalType": "string",
          "name": "",
          "type": "string"
        }
      ],
      "stateMutability": "pure",
      "type": "function"
    }
  ],
  "transactionHash": "0x30d93ed880019775300bbd2e89507586b2c2da0c4f9ad764b1c75217996167ad",
  "args": [],
  "numDeployments": 2,
  "solcInputHash": "0882abc7c4e26d1403a1ff9d0351d7f2",
  "bytecode": "0x60806040523480156200001157600080fd5b50600054610100900460ff166200002f5760005460ff161562000039565b62000039620000de565b620000a15760405162461bcd60e51b815260206004820152602e60248201527f496e697469616c697a61626c653a20636f6e747261637420697320616c72656160448201526d191e481a5b9a5d1a585b1a5e995960921b606482015260840160405180910390fd5b600054610100900460ff16158015620000c4576000805461ffff19166101011790555b8015620000d7576000805461ff00191690555b5062000102565b6000620000f630620000fc60201b6200165c1760201c565b15905090565b3b151590565b6121fd80620001126000396000f3fe608060405234801561001057600080fd5b50600436106101cf5760003560e01c80639d44ac9411610104578063cb3e5eca116100a2578063da74222811610071578063da742228146103f0578063f19d6a4d14610403578063f2fde38b14610416578063fe4b84df1461042957600080fd5b8063cb3e5eca146103a4578063d0ebdbe7146103b7578063d4c359da146103ca578063d89816bb146103dd57600080fd5b8063aa5bd0a2116100de578063aa5bd0a21461033e578063b4cbc9e41461035e578063ba844dc914610371578063c68f5eb31461038457600080fd5b80639d44ac941461030f578063a00b774214610322578063a3d5b5591461032b57600080fd5b806363b635ea11610171578063715018a61161014b578063715018a6146102c95780637da0a877146102d15780638456cb59146102f65780638da5cb5b146102fe57600080fd5b806363b635ea1461028457806367594c6c1461028d5780636f978f6c146102b657600080fd5b8063486ff0cd116101ad578063486ff0cd1461020d578063572b6c05146102345780635ba581cd146102665780635c975abb1461027957600080fd5b80630d4d98a5146101d45780630dff2d0c146101e95780633f4ba83a14610205575b600080fd5b6101e76101e2366004611c37565b61043c565b005b6101f2609e5481565b6040519081526020015b60405180910390f35b6101e7610530565b60408051808201825260058152640322e322e360dc1b602082015290516101fc9190611c82565b610256610242366004611cee565b6097546001600160a01b0391821691161490565b60405190151581526020016101fc565b6101e7610274366004611d10565b610583565b60655460ff16610256565b6101f2609f5481565b6101f261029b366004611cee565b6001600160a01b03166000908152609a602052604090205490565b6101f26102c4366004611d40565b6106ff565b6101e761073c565b6097546001600160a01b03165b6040516001600160a01b0390911681526020016101fc565b6101e761078f565b6033546001600160a01b03166102de565b6101e761031d366004611d6a565b6107e0565b6101f2609c5481565b6101f2610339366004611d6a565b610929565b61035161034c366004611d6a565b61094a565b6040516101fc9190611d83565b6101e761036c366004611dd3565b6109c3565b6101e761037f366004611d6a565b610adc565b610397610392366004611d6a565b610c90565b6040516101fc9190611e38565b6098546102de906001600160a01b031681565b6101e76103c5366004611cee565b610dc6565b6101e76103d8366004611d6a565b610e31565b6101e76103eb366004611d6a565b610fa9565b6101e76103fe366004611cee565b610ff7565b6101f2610411366004611f08565b611061565b6101e7610424366004611cee565b6114d1565b6101e7610437366004611d6a565b611588565b6098546001600160a01b0316610450611662565b6001600160a01b03161461047f5760405162461bcd60e51b815260040161047690611f60565b60405180910390fd5b6000838152609960205260408120600a8101805463ffffffff60b01b1916600160b01b63ffffffff87160217905560078101805491926001926104c3908490611f95565b909155505080546009820154600a8301546040516001600160a01b039384169388937e374955e503c1cb80274d04743ac516c7954db106b4f57f594b216b75e0ad8593610522939192811691600160a01b90910460ff16908990611fad565b60405180910390a350505050565b610538611662565b6001600160a01b03166105536033546001600160a01b031690565b6001600160a01b0316146105795760405162461bcd60e51b815260040161047690611ff1565b610581611671565b565b6098546001600160a01b0316610597611662565b6001600160a01b0316146105bd5760405162461bcd60e51b815260040161047690611f60565b600082815260996020526040902060028260028111156105df576105df611e05565b141561066957600a8101805460ff60a81b1916600160a91b1790556106038361170a565b80546009820154600a8301546040516001600160a01b039384169387937fde6232c9da3e9160ca0f56ea30d25de77f313c765456b2f059566bae7ddddb4e9361065c939192811691600160a01b90910460ff1690612026565b60405180910390a3505050565b600182600281111561067d5761067d611e05565b14156106fa57600a8101805460ff60a81b1916600360a81b1790556106a18361170a565b80546009820154600a8301546040516001600160a01b039384169387937f27edcd358ef2b53bc526b57370e2e080ffa9c6e3d6fd210e390b05ac82b4db419361065c939192811691600160a01b90910460ff1690612026565b505050565b6001600160a01b0382166000908152609a6020526040812080548390811061072957610729612053565b9060005260206000200154905092915050565b610744611662565b6001600160a01b031661075f6033546001600160a01b031690565b6001600160a01b0316146107855760405162461bcd60e51b815260040161047690611ff1565b6105816000611867565b610797611662565b6001600160a01b03166107b26033546001600160a01b031690565b6001600160a01b0316146107d85760405162461bcd60e51b815260040161047690611ff1565b6105816118b9565b60008181526099602052604090205481906001600160a01b0316610802611662565b6001600160a01b0316146108285760405162461bcd60e51b815260040161047690611f60565b60655460ff161561084b5760405162461bcd60e51b815260040161047690612069565b60008281526099602052604090206001600a820154600160a81b900460ff16600381111561087b5761087b611e05565b146108b65760405162461bcd60e51b815260206004820152600b60248201526a214e4f545f41435449564560a81b6044820152606401610476565b6108bf8361170a565b600a8101805460ff60a81b198116600160a91b1791829055825460098401546040516001600160a01b039283169488947fde6232c9da3e9160ca0f56ea30d25de77f313c765456b2f059566bae7ddddb4e9461065c9493911691600160a01b900460ff1690612026565b609d818154811061093957600080fd5b600091825260209091200154905081565b6040805160208082018352606082526000848152609b8252839020835181548084028201860186529281018381529394909391928492918491908401828280156109b357602002820191906000526020600020905b81548152602001906001019080831161099f575b5050505050815250509050919050565b6098546001600160a01b03166109d7611662565b6001600160a01b0316146109fd5760405162461bcd60e51b815260040161047690611f60565b6000848152609960205260408120600a8101805463ffffffff60b01b1916905560048101805491928692610a32908490611f95565b9250508190555082816005016000828254610a4d9190611f95565b925050819055506001816006016000828254610a699190611f95565b909155505080546009820154600a8301546040516001600160a01b039384169389937f18b6d1bde03ff595fa39cebb5f8528d44bcbd97f09a8d99a9ed966e5b8cc1e5293610acd939192811691600160a01b90910460ff16908b908b908b90612093565b60405180910390a35050505050565b60008181526099602052604090205481906001600160a01b0316610afe611662565b6001600160a01b031614610b245760405162461bcd60e51b815260040161047690611f60565b60655460ff1615610b475760405162461bcd60e51b815260040161047690612069565b60008281526099602052604090206002600a820154600160a81b900460ff166003811115610b7757610b77611e05565b14610bb25760405162461bcd60e51b815260206004820152600b60248201526a085393d517d4105554d15160aa1b6044820152606401610476565b610bbb83611912565b60006007820155600a81018054600160a81b60ff60a81b1990911617905560985460405163e6cab67160e01b8152600481018590526001600160a01b039091169063e6cab67190602401600060405180830381600087803b158015610c1f57600080fd5b505af1158015610c33573d6000803e3d6000fd5b505082546009840154600a8501546040516001600160a01b0393841695508894507ff357ce53e83696815ee1632d0f04267d8feff645a8b4f7c5befc32376b8997079361065c939290811691600160a01b90910460ff1690612026565b610c98611b92565b60008281526099602090815260409182902082516101c08101845281546001600160a01b039081168252600183015493820193909352600282015493810193909352600380820154606085015260048201546080850152600582015460a0850152600682015460c0850152600782015460e0850152600882015463ffffffff166101008501526009820154610120850152600a8201549283166101408501529091610160840191600160a01b90910460ff1690811115610d5a57610d5a611e05565b6003811115610d6b57610d6b611e05565b8152602001600a820160159054906101000a900460ff166003811115610d9357610d93611e05565b6003811115610da457610da4611e05565b8152600a9190910154600160b01b900463ffffffff1660209091015292915050565b610dce611662565b6001600160a01b0316610de96033546001600160a01b031690565b6001600160a01b031614610e0f5760405162461bcd60e51b815260040161047690611ff1565b609880546001600160a01b0319166001600160a01b0392909216919091179055565b60008181526099602052604090205481906001600160a01b0316610e53611662565b6001600160a01b031614610e795760405162461bcd60e51b815260040161047690611f60565b60655460ff1615610e9c5760405162461bcd60e51b815260040161047690612069565b60008281526099602052604090206001600a820154600160a81b900460ff166003811115610ecc57610ecc611e05565b1480610ef757506002600a820154600160a81b900460ff166003811115610ef557610ef5611e05565b145b610f365760405162461bcd60e51b815260206004820152601060248201526f21494e56414c4944287374617475732960801b6044820152606401610476565b610f3f8361170a565b600a8101805460ff60a81b198116600360a81b1791829055825460098401546040516001600160a01b039283169488947f27edcd358ef2b53bc526b57370e2e080ffa9c6e3d6fd210e390b05ac82b4db419461065c9493911691600160a01b900460ff1690612026565b610fb1611662565b6001600160a01b0316610fcc6033546001600160a01b031690565b6001600160a01b031614610ff25760405162461bcd60e51b815260040161047690611ff1565b609e55565b610fff611662565b6001600160a01b031661101a6033546001600160a01b031690565b6001600160a01b0316146110405760405162461bcd60e51b815260040161047690611ff1565b609780546001600160a01b0319166001600160a01b03831617905550565b50565b600061106f60655460ff1690565b1561108c5760405162461bcd60e51b815260040161047690612069565b609e548510156110d65760405162461bcd60e51b815260206004820152601560248201527421494e56414c494428746f707570416d6f756e742960581b6044820152606401610476565b60018260038111156110ea576110ea611e05565b14806111075750600282600381111561110557611105611e05565b145b806111235750600382600381111561112157611121611e05565b145b6111655760405162461bcd60e51b815260206004820152601360248201527221494e56414c494428746f707570547970652960681b6044820152606401610476565b600382600381111561117957611179611e05565b1461123c5760985460405163d5f59fb960e01b81526001600160a01b0385811660048301529091169063d5f59fb99060240160206040518083038186803b1580156111c357600080fd5b505afa1580156111d7573d6000803e3d6000fd5b505050506040513d601f19601f820116820180604052508101906111fb91906120d5565b61123c5760405162461bcd60e51b815260206004820152601260248201527121494e56414c49442872656769737472792960701b6044820152606401610476565b6000611246611662565b6040516bffffffffffffffffffffffff19606092831b81166020830152603482018890529186901b909116605482015243606882015242608882015260a80160408051601f1981840301815291815281516020928301206000818152609990935291209091506112b4611662565b81546001600160a01b03199081166001600160a01b03928316178355600283018a905560038084018a905560088401805463ffffffff19164263ffffffff1617905560098401899055600a840180549283169389169384178155879390926001600160a81b0319161790600160a01b90849081111561133557611335611e05565b0217905550600a8101805460ff60a81b1916600160a81b179055609a600061135b611662565b6001600160a01b03168152602080820192909252604001600090812080546001810182559082529190200182905561139282611912565b60985460405163e6cab67160e01b8152600481018490526001600160a01b039091169063e6cab67190602401600060405180830381600087803b1580156113d857600080fd5b505af11580156113ec573d6000803e3d6000fd5b50600192506113f9915050565b600a820154600160a81b900460ff16600381111561141957611419611e05565b146114575760405162461bcd60e51b815260206004820152600e60248201526d21554e50524f4345535341424c4560901b6044820152606401610476565b8054600282015460038301546009840154600a8501546040516001600160a01b039586169588957fe26548496d0e88951d526ea185b82864689467851bf69d0218e2cf1b94985026956114be95919490939192811691600160a01b90910460ff16906120f7565b60405180910390a3509695505050505050565b6114d9611662565b6001600160a01b03166114f46033546001600160a01b031690565b6001600160a01b03161461151a5760405162461bcd60e51b815260040161047690611ff1565b6001600160a01b03811661157f5760405162461bcd60e51b815260206004820152602660248201527f4f776e61626c653a206e6577206f776e657220697320746865207a65726f206160448201526564647265737360d01b6064820152608401610476565b61105e81611867565b600054610100900460ff166115a35760005460ff16156115a7565b303b155b61160a5760405162461bcd60e51b815260206004820152602e60248201527f496e697469616c697a61626c653a20636f6e747261637420697320616c72656160448201526d191e481a5b9a5d1a585b1a5e995960921b6064820152608401610476565b600054610100900460ff1615801561162c576000805461ffff19166101011790555b61163461198e565b61163c6119c5565b6001609c55609f8290558015611658576000805461ff00191690555b5050565b3b151590565b600061166c6119fc565b905090565b60655460ff166116ba5760405162461bcd60e51b815260206004820152601460248201527314185d5cd8589b194e881b9bdd081c185d5cd95960621b6044820152606401610476565b6065805460ff191690557f5db9ee0a495bf2e6ff9c91a7834c1ba4fdd244a5e8aa4e537bd38aeae4b073aa6116ed611662565b6040516001600160a01b03909116815260200160405180910390a1565b60008181526099602090815260408083206001810154808552609b90935290832054909281905b82811015611787576000848152609b6020526040902080548791908390811061175c5761175c612053565b9060005260206000200154141561177557809150611787565b8061177f81612134565b915050611731565b508181101561182e576000838152609b602052604090206117a960018461214f565b815481106117b9576117b9612053565b9060005260206000200154609b600085815260200190815260200160002060000182815481106117eb576117eb612053565b6000918252602080832090910192909255848152609b9091526040902080548061181757611817612166565b600190038181906000526020600020016000905590555b5050609d80546001810182556000919091527fd26e832454299e9fabb89e0e5fffdc046d4e14431bc1bf607ffb2e8a1ddecf7b01555050565b603380546001600160a01b038381166001600160a01b0319831681179093556040519116919082907f8be0079c531659141344cd1fd0a4f28419497f9722a3daafe3b4186f6b6457e090600090a35050565b60655460ff16156118dc5760405162461bcd60e51b815260040161047690612069565b6065805460ff191660011790557f62e78cea01bee320cd4e420270b5ea74000d11b0c9f74754ebdbfc544b05a2586116ed611662565b600061191c611a30565b90506000811161195d5760405162461bcd60e51b815260206004820152600c60248201526b10a3a927aaa82fa2a92927a960a11b6044820152606401610476565b60008281526099602090815260408083206001908101859055938352609b8252822080549384018155825290200155565b600054610100900460ff166119b55760405162461bcd60e51b81526004016104769061217c565b6119bd611b01565b610581611b28565b600054610100900460ff166119ec5760405162461bcd60e51b81526004016104769061217c565b6119f4611b01565b610581611b5f565b600060143610801590611a1957506097546001600160a01b031633145b15611a2b575060131936013560601c90565b503390565b609d54600090819015611a9657609d8054611a4d9060019061214f565b81548110611a5d57611a5d612053565b90600052602060002001549050609d805480611a7b57611a7b612166565b60019003818190600052602060002001600090559055611a9b565b50609c545b609c548114158015611abd5750609f546000828152609b602052604090205410155b15611ac75750609c545b609f546000828152609b602052604090205410611afc576001609c6000828254611af19190611f95565b9091555050609c5490505b919050565b600054610100900460ff166105815760405162461bcd60e51b81526004016104769061217c565b600054610100900460ff16611b4f5760405162461bcd60e51b81526004016104769061217c565b610581611b5a611662565b611867565b600054610100900460ff16611b865760405162461bcd60e51b81526004016104769061217c565b6065805460ff19169055565b604051806101c0016040528060006001600160a01b0316815260200160008152602001600081526020016000815260200160008152602001600081526020016000815260200160008152602001600063ffffffff1681526020016000815260200160006001600160a01b0316815260200160006003811115611c1657611c16611e05565b815260200160008152600060209091015290565b6003811061105e57600080fd5b600080600060608486031215611c4c57600080fd5b83359250602084013563ffffffff81168114611c6757600080fd5b91506040840135611c7781611c2a565b809150509250925092565b600060208083528351808285015260005b81811015611caf57858101830151858201604001528201611c93565b81811115611cc1576000604083870101525b50601f01601f1916929092016040019392505050565b80356001600160a01b0381168114611afc57600080fd5b600060208284031215611d0057600080fd5b611d0982611cd7565b9392505050565b60008060408385031215611d2357600080fd5b823591506020830135611d3581611c2a565b809150509250929050565b60008060408385031215611d5357600080fd5b611d5c83611cd7565b946020939093013593505050565b600060208284031215611d7c57600080fd5b5035919050565b6020808252825182820182905280516040840181905260009291820190839060608601905b80831015611dc85783518252928401926001929092019190840190611da8565b509695505050505050565b60008060008060808587031215611de957600080fd5b5050823594602084013594506040840135936060013592509050565b634e487b7160e01b600052602160045260246000fd5b6004811061105e5761105e611e05565b611e3481611e1b565b9052565b81516001600160a01b031681526101c081016020830151602083015260408301516040830152606083015160608301526080830151608083015260a083015160a083015260c083015160c083015260e083015160e083015261010080840151611ea88285018263ffffffff169052565b50506101208381015190830152610140808401516001600160a01b03169083015261016080840151611edc82850182611e2b565b505061018080840151611ef182850182611e2b565b50506101a09283015163ffffffff16919092015290565b600080600080600060a08688031215611f2057600080fd5b853594506020860135935060408601359250611f3e60608701611cd7565b9150608086013560048110611f5257600080fd5b809150509295509295909350565b60208082526005908201526404282aaa8960db1b604082015260600190565b634e487b7160e01b600052601160045260246000fd5b60008219821115611fa857611fa8611f7f565b500190565b8481526001600160a01b038416602082015260808101611fcc84611e1b565b83604083015260038310611fe257611fe2611e05565b82606083015295945050505050565b6020808252818101527f4f776e61626c653a2063616c6c6572206973206e6f7420746865206f776e6572604082015260600190565b8381526001600160a01b03831660208201526060810161204583611e1b565b826040830152949350505050565b634e487b7160e01b600052603260045260246000fd5b60208082526010908201526f14185d5cd8589b194e881c185d5cd95960821b604082015260600190565b8681526001600160a01b038616602082015260c081016120b286611e1b565b8560408301528460608301528360808301528260a0830152979650505050505050565b6000602082840312156120e757600080fd5b81518015158114611d0957600080fd5b85815260208101859052604081018490526001600160a01b038316606082015260a0810161212483611e1b565b8260808301529695505050505050565b600060001982141561214857612148611f7f565b5060010190565b60008282101561216157612161611f7f565b500390565b634e487b7160e01b600052603160045260246000fd5b6020808252602b908201527f496e697469616c697a61626c653a20636f6e7472616374206973206e6f74206960408201526a6e697469616c697a696e6760a81b60608201526080019056fea2646970667358221220f191ec15dbf473f543a825b86a237befa8ffed9716daa0db71e021ea4b5f2f3064736f6c63430008090033",
  "devdoc": {
    "kind": "dev",
    "methods": {
      "constructor": {
        "custom:oz-upgrades-unsafe-allow": "constructor"
      },
      "owner()": {
        "details": "Returns the address of the current owner."
      },
      "paused()": {
        "details": "Returns true if the contract is paused, and false otherwise."
      },
      "renounceOwnership()": {
        "details": "Leaves the contract without owner. It will not be possible to call `onlyOwner` functions anymore. Can only be called by the current owner. NOTE: Renouncing ownership will leave the contract without an owner, thereby removing any functionality that is only available to the owner."
      },
      "transferOwnership(address)": {
        "details": "Transfers ownership of the contract to a new account (`newOwner`). Can only be called by the current owner."
      }
    },
    "stateVariables": {
      "chainlinkTopupManager": {
        "details": "contract to manage ChainlinkTopup executions. "
      },
      "chainlinkTopupMap": {
        "details": "map of ChainlinkTopup ID to ChainlinkTopup info. "
      },
      "minTopupAmount": {
        "details": "minimum amount to allow for a topup. "
      }
    },
    "version": 1
  },
  "userdoc": {
    "kind": "user",
    "methods": {
      "isTrustedForwarder(address)": {
        "notice": "return if the forwarder is trusted to forward relayed transactions to us. the forwarder is required to verify the sender's signature, and verify the call is not a replay."
      }
    },
    "version": 1
  },
  "storageLayout": {
    "storage": [
      {
        "astId": 327,
        "contract": "contracts/chainlink_topup/CaskChainlinkTopup.sol:CaskChainlinkTopup",
        "label": "_initialized",
        "offset": 0,
        "slot": "0",
        "type": "t_bool"
      },
      {
        "astId": 330,
        "contract": "contracts/chainlink_topup/CaskChainlinkTopup.sol:CaskChainlinkTopup",
        "label": "_initializing",
        "offset": 1,
        "slot": "0",
        "type": "t_bool"
      },
      {
        "astId": 2551,
        "contract": "contracts/chainlink_topup/CaskChainlinkTopup.sol:CaskChainlinkTopup",
        "label": "__gap",
        "offset": 0,
        "slot": "1",
        "type": "t_array(t_uint256)50_storage"
      },
      {
        "astId": 205,
        "contract": "contracts/chainlink_topup/CaskChainlinkTopup.sol:CaskChainlinkTopup",
        "label": "_owner",
        "offset": 0,
        "slot": "51",
        "type": "t_address"
      },
      {
        "astId": 319,
        "contract": "contracts/chainlink_topup/CaskChainlinkTopup.sol:CaskChainlinkTopup",
        "label": "__gap",
        "offset": 0,
        "slot": "52",
        "type": "t_array(t_uint256)49_storage"
      },
      {
        "astId": 415,
        "contract": "contracts/chainlink_topup/CaskChainlinkTopup.sol:CaskChainlinkTopup",
        "label": "_paused",
        "offset": 0,
        "slot": "101",
        "type": "t_bool"
      },
      {
        "astId": 506,
        "contract": "contracts/chainlink_topup/CaskChainlinkTopup.sol:CaskChainlinkTopup",
        "label": "__gap",
        "offset": 0,
        "slot": "102",
        "type": "t_array(t_uint256)49_storage"
      },
      {
        "astId": 72,
        "contract": "contracts/chainlink_topup/CaskChainlinkTopup.sol:CaskChainlinkTopup",
        "label": "_trustedForwarder",
        "offset": 0,
        "slot": "151",
        "type": "t_address"
      },
      {
        "astId": 8567,
        "contract": "contracts/chainlink_topup/CaskChainlinkTopup.sol:CaskChainlinkTopup",
        "label": "chainlinkTopupManager",
        "offset": 0,
        "slot": "152",
        "type": "t_contract(ICaskChainlinkTopupManager)11919"
      },
      {
        "astId": 8573,
        "contract": "contracts/chainlink_topup/CaskChainlinkTopup.sol:CaskChainlinkTopup",
        "label": "chainlinkTopupMap",
        "offset": 0,
        "slot": "153",
        "type": "t_mapping(t_bytes32,t_struct(ChainlinkTopup)11684_storage)"
      },
      {
        "astId": 8578,
        "contract": "contracts/chainlink_topup/CaskChainlinkTopup.sol:CaskChainlinkTopup",
        "label": "userChainlinkTopups",
        "offset": 0,
        "slot": "154",
        "type": "t_mapping(t_address,t_array(t_bytes32)dyn_storage)"
      },
      {
        "astId": 8583,
        "contract": "contracts/chainlink_topup/CaskChainlinkTopup.sol:CaskChainlinkTopup",
        "label": "chainlinkTopupGroupMap",
        "offset": 0,
        "slot": "155",
        "type": "t_mapping(t_uint256,t_struct(ChainlinkTopupGroup)11688_storage)"
      },
      {
        "astId": 8585,
        "contract": "contracts/chainlink_topup/CaskChainlinkTopup.sol:CaskChainlinkTopup",
        "label": "currentGroup",
        "offset": 0,
        "slot": "156",
        "type": "t_uint256"
      },
      {
        "astId": 8588,
        "contract": "contracts/chainlink_topup/CaskChainlinkTopup.sol:CaskChainlinkTopup",
        "label": "backfillGroups",
        "offset": 0,
        "slot": "157",
        "type": "t_array(t_uint256)dyn_storage"
      },
      {
        "astId": 8591,
        "contract": "contracts/chainlink_topup/CaskChainlinkTopup.sol:CaskChainlinkTopup",
        "label": "minTopupAmount",
        "offset": 0,
        "slot": "158",
        "type": "t_uint256"
      },
      {
        "astId": 8593,
        "contract": "contracts/chainlink_topup/CaskChainlinkTopup.sol:CaskChainlinkTopup",
        "label": "groupSize",
        "offset": 0,
        "slot": "159",
        "type": "t_uint256"
      }
    ],
    "types": {
      "t_address": {
        "encoding": "inplace",
        "label": "address",
        "numberOfBytes": "20"
      },
      "t_array(t_bytes32)dyn_storage": {
        "base": "t_bytes32",
        "encoding": "dynamic_array",
        "label": "bytes32[]",
        "numberOfBytes": "32"
      },
      "t_array(t_uint256)49_storage": {
        "base": "t_uint256",
        "encoding": "inplace",
        "label": "uint256[49]",
        "numberOfBytes": "1568"
      },
      "t_array(t_uint256)50_storage": {
        "base": "t_uint256",
        "encoding": "inplace",
        "label": "uint256[50]",
        "numberOfBytes": "1600"
      },
      "t_array(t_uint256)dyn_storage": {
        "base": "t_uint256",
        "encoding": "dynamic_array",
        "label": "uint256[]",
        "numberOfBytes": "32"
      },
      "t_bool": {
        "encoding": "inplace",
        "label": "bool",
        "numberOfBytes": "1"
      },
      "t_bytes32": {
        "encoding": "inplace",
        "label": "bytes32",
        "numberOfBytes": "32"
      },
      "t_contract(ICaskChainlinkTopupManager)11919": {
        "encoding": "inplace",
        "label": "contract ICaskChainlinkTopupManager",
        "numberOfBytes": "20"
      },
      "t_enum(ChainlinkTopupStatus)11640": {
        "encoding": "inplace",
        "label": "enum ICaskChainlinkTopup.ChainlinkTopupStatus",
        "numberOfBytes": "1"
      },
      "t_enum(TopupType)11653": {
        "encoding": "inplace",
        "label": "enum ICaskChainlinkTopup.TopupType",
        "numberOfBytes": "1"
      },
      "t_mapping(t_address,t_array(t_bytes32)dyn_storage)": {
        "encoding": "mapping",
        "key": "t_address",
        "label": "mapping(address => bytes32[])",
        "numberOfBytes": "32",
        "value": "t_array(t_bytes32)dyn_storage"
      },
      "t_mapping(t_bytes32,t_struct(ChainlinkTopup)11684_storage)": {
        "encoding": "mapping",
        "key": "t_bytes32",
        "label": "mapping(bytes32 => struct ICaskChainlinkTopup.ChainlinkTopup)",
        "numberOfBytes": "32",
        "value": "t_struct(ChainlinkTopup)11684_storage"
      },
      "t_mapping(t_uint256,t_struct(ChainlinkTopupGroup)11688_storage)": {
        "encoding": "mapping",
        "key": "t_uint256",
        "label": "mapping(uint256 => struct ICaskChainlinkTopup.ChainlinkTopupGroup)",
        "numberOfBytes": "32",
        "value": "t_struct(ChainlinkTopupGroup)11688_storage"
      },
      "t_struct(ChainlinkTopup)11684_storage": {
        "encoding": "inplace",
        "label": "struct ICaskChainlinkTopup.ChainlinkTopup",
        "members": [
          {
            "astId": 11655,
            "contract": "contracts/chainlink_topup/CaskChainlinkTopup.sol:CaskChainlinkTopup",
            "label": "user",
            "offset": 0,
            "slot": "0",
            "type": "t_address"
          },
          {
            "astId": 11657,
            "contract": "contracts/chainlink_topup/CaskChainlinkTopup.sol:CaskChainlinkTopup",
            "label": "groupId",
            "offset": 0,
            "slot": "1",
            "type": "t_uint256"
          },
          {
            "astId": 11659,
            "contract": "contracts/chainlink_topup/CaskChainlinkTopup.sol:CaskChainlinkTopup",
            "label": "lowBalance",
            "offset": 0,
            "slot": "2",
            "type": "t_uint256"
          },
          {
            "astId": 11661,
            "contract": "contracts/chainlink_topup/CaskChainlinkTopup.sol:CaskChainlinkTopup",
            "label": "topupAmount",
            "offset": 0,
            "slot": "3",
            "type": "t_uint256"
          },
          {
            "astId": 11663,
            "contract": "contracts/chainlink_topup/CaskChainlinkTopup.sol:CaskChainlinkTopup",
            "label": "currentAmount",
            "offset": 0,
            "slot": "4",
            "type": "t_uint256"
          },
          {
            "astId": 11665,
            "contract": "contracts/chainlink_topup/CaskChainlinkTopup.sol:CaskChainlinkTopup",
            "label": "currentBuyQty",
            "offset": 0,
            "slot": "5",
            "type": "t_uint256"
          },
          {
            "astId": 11667,
            "contract": "contracts/chainlink_topup/CaskChainlinkTopup.sol:CaskChainlinkTopup",
            "label": "numTopups",
            "offset": 0,
            "slot": "6",
            "type": "t_uint256"
          },
          {
            "astId": 11669,
            "contract": "contracts/chainlink_topup/CaskChainlinkTopup.sol:CaskChainlinkTopup",
            "label": "numSkips",
            "offset": 0,
            "slot": "7",
            "type": "t_uint256"
          },
          {
            "astId": 11671,
            "contract": "contracts/chainlink_topup/CaskChainlinkTopup.sol:CaskChainlinkTopup",
            "label": "createdAt",
            "offset": 0,
            "slot": "8",
            "type": "t_uint32"
          },
          {
            "astId": 11673,
            "contract": "contracts/chainlink_topup/CaskChainlinkTopup.sol:CaskChainlinkTopup",
            "label": "targetId",
            "offset": 0,
            "slot": "9",
            "type": "t_uint256"
          },
          {
            "astId": 11675,
            "contract": "contracts/chainlink_topup/CaskChainlinkTopup.sol:CaskChainlinkTopup",
            "label": "registry",
            "offset": 0,
            "slot": "10",
            "type": "t_address"
          },
          {
            "astId": 11678,
            "contract": "contracts/chainlink_topup/CaskChainlinkTopup.sol:CaskChainlinkTopup",
            "label": "topupType",
            "offset": 20,
            "slot": "10",
            "type": "t_enum(TopupType)11653"
          },
          {
            "astId": 11681,
            "contract": "contracts/chainlink_topup/CaskChainlinkTopup.sol:CaskChainlinkTopup",
            "label": "status",
            "offset": 21,
            "slot": "10",
            "type": "t_enum(ChainlinkTopupStatus)11640"
          },
          {
            "astId": 11683,
            "contract": "contracts/chainlink_topup/CaskChainlinkTopup.sol:CaskChainlinkTopup",
            "label": "retryAfter",
            "offset": 22,
            "slot": "10",
            "type": "t_uint32"
          }
        ],
        "numberOfBytes": "352"
      },
      "t_struct(ChainlinkTopupGroup)11688_storage": {
        "encoding": "inplace",
        "label": "struct ICaskChainlinkTopup.ChainlinkTopupGroup",
        "members": [
          {
            "astId": 11687,
            "contract": "contracts/chainlink_topup/CaskChainlinkTopup.sol:CaskChainlinkTopup",
            "label": "chainlinkTopups",
            "offset": 0,
            "slot": "0",
            "type": "t_array(t_bytes32)dyn_storage"
          }
        ],
        "numberOfBytes": "32"
      },
      "t_uint256": {
        "encoding": "inplace",
        "label": "uint256",
        "numberOfBytes": "32"
      },
      "t_uint32": {
        "encoding": "inplace",
        "label": "uint32",
        "numberOfBytes": "4"
      }
    }
  }
}