{
  "address": "0xbdB5Bb45e7b509130fa087B37e3DD3CC2F76BaFe",
  "abi": [
    {
      "inputs": [],
      "stateMutability": "nonpayable",
      "type": "constructor"
    },
    {
      "anonymous": false,
      "inputs": [
        {
          "indexed": true,
          "internalType": "bytes32",
          "name": "dcaId",
          "type": "bytes32"
        },
        {
          "indexed": true,
          "internalType": "address",
          "name": "user",
          "type": "address"
        }
      ],
      "name": "DCACanceled",
      "type": "event"
    },
    {
      "anonymous": false,
      "inputs": [
        {
          "indexed": true,
          "internalType": "bytes32",
          "name": "dcaId",
          "type": "bytes32"
        },
        {
          "indexed": true,
          "internalType": "address",
          "name": "user",
          "type": "address"
        }
      ],
      "name": "DCACompleted",
      "type": "event"
    },
    {
      "anonymous": false,
      "inputs": [
        {
          "indexed": true,
          "internalType": "bytes32",
          "name": "dcaId",
          "type": "bytes32"
        },
        {
          "indexed": true,
          "internalType": "address",
          "name": "user",
          "type": "address"
        },
        {
          "indexed": true,
          "internalType": "address",
          "name": "to",
          "type": "address"
        },
        {
          "indexed": false,
          "internalType": "address",
          "name": "inputAsset",
          "type": "address"
        },
        {
          "indexed": false,
          "internalType": "address",
          "name": "outputAsset",
          "type": "address"
        },
        {
          "indexed": false,
          "internalType": "uint256",
          "name": "amount",
          "type": "uint256"
        },
        {
          "indexed": false,
          "internalType": "uint256",
          "name": "totalAmount",
          "type": "uint256"
        },
        {
          "indexed": false,
          "internalType": "uint32",
          "name": "period",
          "type": "uint32"
        }
      ],
      "name": "DCACreated",
      "type": "event"
    },
    {
      "anonymous": false,
      "inputs": [
        {
          "indexed": true,
          "internalType": "bytes32",
          "name": "dcaId",
          "type": "bytes32"
        },
        {
          "indexed": true,
          "internalType": "address",
          "name": "user",
          "type": "address"
        }
      ],
      "name": "DCAPaused",
      "type": "event"
    },
    {
      "anonymous": false,
      "inputs": [
        {
          "indexed": true,
          "internalType": "bytes32",
          "name": "dcaId",
          "type": "bytes32"
        },
        {
          "indexed": true,
          "internalType": "address",
          "name": "user",
          "type": "address"
        },
        {
          "indexed": false,
          "internalType": "uint256",
          "name": "amount",
          "type": "uint256"
        },
        {
          "indexed": false,
          "internalType": "uint256",
          "name": "buyQty",
          "type": "uint256"
        },
        {
          "indexed": false,
          "internalType": "uint256",
          "name": "fee",
          "type": "uint256"
        }
      ],
      "name": "DCAProcessed",
      "type": "event"
    },
    {
      "anonymous": false,
      "inputs": [
        {
          "indexed": true,
          "internalType": "bytes32",
          "name": "dcaId",
          "type": "bytes32"
        },
        {
          "indexed": true,
          "internalType": "address",
          "name": "user",
          "type": "address"
        }
      ],
      "name": "DCAResumed",
      "type": "event"
    },
    {
      "anonymous": false,
      "inputs": [
        {
          "indexed": true,
          "internalType": "bytes32",
          "name": "dcaId",
          "type": "bytes32"
        },
        {
          "indexed": true,
          "internalType": "address",
          "name": "user",
          "type": "address"
        },
        {
          "indexed": false,
          "internalType": "enum ICaskDCA.SkipReason",
          "name": "skipReason",
          "type": "uint8"
        }
      ],
      "name": "DCASkipped",
      "type": "event"
    },
    {
      "anonymous": false,
      "inputs": [
        {
          "indexed": true,
          "internalType": "address",
          "name": "previousOwner",
          "type": "address"
        },
        {
          "indexed": true,
          "internalType": "address",
          "name": "newOwner",
          "type": "address"
        }
      ],
      "name": "OwnershipTransferred",
      "type": "event"
    },
    {
      "anonymous": false,
      "inputs": [
        {
          "indexed": false,
          "internalType": "address",
          "name": "account",
          "type": "address"
        }
      ],
      "name": "Paused",
      "type": "event"
    },
    {
      "anonymous": false,
      "inputs": [
        {
          "indexed": false,
          "internalType": "address",
          "name": "account",
          "type": "address"
        }
      ],
      "name": "Unpaused",
      "type": "event"
    },
    {
      "inputs": [],
      "name": "assetsMerkleRoot",
      "outputs": [
        {
          "internalType": "bytes32",
          "name": "",
          "type": "bytes32"
        }
      ],
      "stateMutability": "view",
      "type": "function"
    },
    {
      "inputs": [
        {
          "internalType": "bytes32",
          "name": "_dcaId",
          "type": "bytes32"
        }
      ],
      "name": "cancelDCA",
      "outputs": [],
      "stateMutability": "nonpayable",
      "type": "function"
    },
    {
      "inputs": [
        {
          "internalType": "address[]",
          "name": "_assetSpec",
          "type": "address[]"
        },
        {
          "internalType": "bytes32[]",
          "name": "_merkleProof",
          "type": "bytes32[]"
        },
        {
          "internalType": "enum ICaskDCA.SwapProtocol",
          "name": "_swapProtocol",
          "type": "uint8"
        },
        {
          "internalType": "bytes",
          "name": "_swapData",
          "type": "bytes"
        },
        {
          "internalType": "address",
          "name": "_to",
          "type": "address"
        },
        {
          "internalType": "uint256[]",
          "name": "_priceSpec",
          "type": "uint256[]"
        }
      ],
      "name": "createDCA",
      "outputs": [
        {
          "internalType": "bytes32",
          "name": "",
          "type": "bytes32"
        }
      ],
      "stateMutability": "nonpayable",
      "type": "function"
    },
    {
      "inputs": [],
      "name": "dcaManager",
      "outputs": [
        {
          "internalType": "contract ICaskDCAManager",
          "name": "",
          "type": "address"
        }
      ],
      "stateMutability": "view",
      "type": "function"
    },
    {
      "inputs": [
        {
          "internalType": "bytes32",
          "name": "_dcaId",
          "type": "bytes32"
        }
      ],
      "name": "getDCA",
      "outputs": [
        {
          "components": [
            {
              "internalType": "address",
              "name": "user",
              "type": "address"
            },
            {
              "internalType": "address",
              "name": "to",
              "type": "address"
            },
            {
              "internalType": "address",
              "name": "router",
              "type": "address"
            },
            {
              "internalType": "address",
              "name": "priceFeed",
              "type": "address"
            },
            {
              "internalType": "uint256",
              "name": "amount",
              "type": "uint256"
            },
            {
              "internalType": "uint256",
              "name": "totalAmount",
              "type": "uint256"
            },
            {
              "internalType": "uint256",
              "name": "currentAmount",
              "type": "uint256"
            },
            {
              "internalType": "uint256",
              "name": "currentQty",
              "type": "uint256"
            },
            {
              "internalType": "uint256",
              "name": "numBuys",
              "type": "uint256"
            },
            {
              "internalType": "uint256",
              "name": "numSkips",
              "type": "uint256"
            },
            {
              "internalType": "uint256",
              "name": "maxSlippageBps",
              "type": "uint256"
            },
            {
              "internalType": "uint256",
              "name": "maxPrice",
              "type": "uint256"
            },
            {
              "internalType": "uint256",
              "name": "minPrice",
              "type": "uint256"
            },
            {
              "internalType": "uint32",
              "name": "period",
              "type": "uint32"
            },
            {
              "internalType": "uint32",
              "name": "createdAt",
              "type": "uint32"
            },
            {
              "internalType": "uint32",
              "name": "processAt",
              "type": "uint32"
            },
            {
              "internalType": "enum ICaskDCA.DCAStatus",
              "name": "status",
              "type": "uint8"
            },
            {
              "internalType": "address[]",
              "name": "path",
              "type": "address[]"
            },
            {
              "internalType": "enum ICaskDCA.SwapProtocol",
              "name": "swapProtocol",
              "type": "uint8"
            },
            {
              "internalType": "bytes",
              "name": "swapData",
              "type": "bytes"
            }
          ],
          "internalType": "struct ICaskDCA.DCA",
          "name": "",
          "type": "tuple"
        }
      ],
      "stateMutability": "view",
      "type": "function"
    },
    {
      "inputs": [
        {
          "internalType": "address",
          "name": "_user",
          "type": "address"
        },
        {
          "internalType": "uint256",
          "name": "_idx",
          "type": "uint256"
        }
      ],
      "name": "getUserDCA",
      "outputs": [
        {
          "internalType": "bytes32",
          "name": "",
          "type": "bytes32"
        }
      ],
      "stateMutability": "view",
      "type": "function"
    },
    {
      "inputs": [
        {
          "internalType": "address",
          "name": "_user",
          "type": "address"
        }
      ],
      "name": "getUserDCACount",
      "outputs": [
        {
          "internalType": "uint256",
          "name": "",
          "type": "uint256"
        }
      ],
      "stateMutability": "view",
      "type": "function"
    },
    {
      "inputs": [
        {
          "internalType": "bytes32",
          "name": "_assetsMerkleRoot",
          "type": "bytes32"
        }
      ],
      "name": "initialize",
      "outputs": [],
      "stateMutability": "nonpayable",
      "type": "function"
    },
    {
      "inputs": [
        {
          "internalType": "address",
          "name": "forwarder",
          "type": "address"
        }
      ],
      "name": "isTrustedForwarder",
      "outputs": [
        {
          "internalType": "bool",
          "name": "",
          "type": "bool"
        }
      ],
      "stateMutability": "view",
      "type": "function"
    },
    {
      "inputs": [
        {
          "internalType": "bytes32",
          "name": "_dcaId",
          "type": "bytes32"
        },
        {
          "internalType": "enum ICaskDCA.ManagerCommand",
          "name": "_command",
          "type": "uint8"
        }
      ],
      "name": "managerCommand",
      "outputs": [],
      "stateMutability": "nonpayable",
      "type": "function"
    },
    {
      "inputs": [
        {
          "internalType": "bytes32",
          "name": "_dcaId",
          "type": "bytes32"
        },
        {
          "internalType": "uint256",
          "name": "_amount",
          "type": "uint256"
        },
        {
          "internalType": "uint256",
          "name": "_buyQty",
          "type": "uint256"
        },
        {
          "internalType": "uint256",
          "name": "_fee",
          "type": "uint256"
        }
      ],
      "name": "managerProcessed",
      "outputs": [],
      "stateMutability": "nonpayable",
      "type": "function"
    },
    {
      "inputs": [
        {
          "internalType": "bytes32",
          "name": "_dcaId",
          "type": "bytes32"
        },
        {
          "internalType": "enum ICaskDCA.SkipReason",
          "name": "_skipReason",
          "type": "uint8"
        }
      ],
      "name": "managerSkipped",
      "outputs": [],
      "stateMutability": "nonpayable",
      "type": "function"
    },
    {
      "inputs": [],
      "name": "minAmount",
      "outputs": [
        {
          "internalType": "uint256",
          "name": "",
          "type": "uint256"
        }
      ],
      "stateMutability": "view",
      "type": "function"
    },
    {
      "inputs": [],
      "name": "minPeriod",
      "outputs": [
        {
          "internalType": "uint32",
          "name": "",
          "type": "uint32"
        }
      ],
      "stateMutability": "view",
      "type": "function"
    },
    {
      "inputs": [],
      "name": "minSlippage",
      "outputs": [
        {
          "internalType": "uint256",
          "name": "",
          "type": "uint256"
        }
      ],
      "stateMutability": "view",
      "type": "function"
    },
    {
      "inputs": [],
      "name": "owner",
      "outputs": [
        {
          "internalType": "address",
          "name": "",
          "type": "address"
        }
      ],
      "stateMutability": "view",
      "type": "function"
    },
    {
      "inputs": [],
      "name": "pause",
      "outputs": [],
      "stateMutability": "nonpayable",
      "type": "function"
    },
    {
      "inputs": [
        {
          "internalType": "bytes32",
          "name": "_dcaId",
          "type": "bytes32"
        }
      ],
      "name": "pauseDCA",
      "outputs": [],
      "stateMutability": "nonpayable",
      "type": "function"
    },
    {
      "inputs": [],
      "name": "paused",
      "outputs": [
        {
          "internalType": "bool",
          "name": "",
          "type": "bool"
        }
      ],
      "stateMutability": "view",
      "type": "function"
    },
    {
      "inputs": [],
      "name": "renounceOwnership",
      "outputs": [],
      "stateMutability": "nonpayable",
      "type": "function"
    },
    {
      "inputs": [
        {
          "internalType": "bytes32",
          "name": "_dcaId",
          "type": "bytes32"
        }
      ],
      "name": "resumeDCA",
      "outputs": [],
      "stateMutability": "nonpayable",
      "type": "function"
    },
    {
      "inputs": [
        {
          "internalType": "bytes32",
          "name": "_assetsMerkleRoot",
          "type": "bytes32"
        }
      ],
      "name": "setAssetsMerkleRoot",
      "outputs": [],
      "stateMutability": "nonpayable",
      "type": "function"
    },
    {
      "inputs": [
        {
          "internalType": "address",
          "name": "_dcaManager",
          "type": "address"
        }
      ],
      "name": "setManager",
      "outputs": [],
      "stateMutability": "nonpayable",
      "type": "function"
    },
    {
      "inputs": [
        {
          "internalType": "uint256",
          "name": "_minAmount",
          "type": "uint256"
        }
      ],
      "name": "setMinAmount",
      "outputs": [],
      "stateMutability": "nonpayable",
      "type": "function"
    },
    {
      "inputs": [
        {
          "internalType": "uint32",
          "name": "_minPeriod",
          "type": "uint32"
        }
      ],
      "name": "setMinPeriod",
      "outputs": [],
      "stateMutability": "nonpayable",
      "type": "function"
    },
    {
      "inputs": [
        {
          "internalType": "uint256",
          "name": "_minSlippage",
          "type": "uint256"
        }
      ],
      "name": "setMinSlippage",
      "outputs": [],
      "stateMutability": "nonpayable",
      "type": "function"
    },
    {
      "inputs": [
        {
          "internalType": "address",
          "name": "_forwarder",
          "type": "address"
        }
      ],
      "name": "setTrustedForwarder",
      "outputs": [],
      "stateMutability": "nonpayable",
      "type": "function"
    },
    {
      "inputs": [
        {
          "internalType": "address",
          "name": "newOwner",
          "type": "address"
        }
      ],
      "name": "transferOwnership",
      "outputs": [],
      "stateMutability": "nonpayable",
      "type": "function"
    },
    {
      "inputs": [],
      "name": "trustedForwarder",
      "outputs": [
        {
          "internalType": "address",
          "name": "",
          "type": "address"
        }
      ],
      "stateMutability": "view",
      "type": "function"
    },
    {
      "inputs": [],
      "name": "unpause",
      "outputs": [],
      "stateMutability": "nonpayable",
      "type": "function"
    },
    {
      "inputs": [],
      "name": "versionRecipient",
      "outputs": [
        {
          "internalType": "string",
          "name": "",
          "type": "string"
        }
      ],
      "stateMutability": "pure",
      "type": "function"
    }
  ],
  "transactionHash": "0xa3855a400ee513d98ea657d0b162b26e871430031b65c5ab26b8b4097b36262c",
  "args": [],
  "numDeployments": 1,
  "solcInputHash": "637123983103b34c061b41bb6ef2019e",
  "bytecode": "0x60806040523480156200001157600080fd5b50600054610100900460ff166200002f5760005460ff161562000039565b62000039620000de565b620000a15760405162461bcd60e51b815260206004820152602e60248201527f496e697469616c697a61626c653a20636f6e747261637420697320616c72656160448201526d191e481a5b9a5d1a585b1a5e995960921b606482015260840160405180910390fd5b600054610100900460ff16158015620000c4576000805461ffff19166101011790555b8015620000d7576000805461ff00191690555b5062000102565b6000620000f630620000fc60201b62001a1b1760201c565b15905090565b3b151590565b6128bd80620001126000396000f3fe608060405234801561001057600080fd5b50600436106101e55760003560e01c8063897b06371161010f578063bd78b2b3116100a2578063da74222811610071578063da74222814610423578063e3e01f9f14610436578063f2fde38b14610449578063ffd49c841461045c57600080fd5b8063bd78b2b3146103e1578063c0677c47146103f4578063c453824f146103fd578063d0ebdbe71461041057600080fd5b80639b2cb5d8116100de5780639b2cb5d81461039f578063abcfd154146103a8578063b4cbc9e4146103bb578063b4e38a8d146103ce57600080fd5b8063897b0637146103485780638da5cb5b1461035b57806392c65f4b1461036c5780639498bd711461038c57600080fd5b8063572b6c0511610187578063715018a611610156578063715018a6146103145780637da0a8771461031c5780638456cb591461032d57806387eb01bf1461033557600080fd5b8063572b6c05146102995780635ba581cd146102cb5780635c975abb146102de5780636a82763c146102e957600080fd5b80632d3d0405116101c35780632d3d04051461024e5780633f4ba83a14610261578063486ff0cd146102695780634b51dd221461029057600080fd5b806316ef2c41146101ea5780632a74cbb5146102265780632ce175781461023b575b600080fd5b6102136101f8366004612053565b6001600160a01b03166000908152609a602052604090205490565b6040519081526020015b60405180910390f35b610239610234366004612075565b610481565b005b6102396102493660046120a9565b61057a565b61021361025c36600461215f565b6105c8565b610239610cb1565b60408051808201825260058152640322e322e360dc1b6020820152905161021d919061229a565b610213609b5481565b6102bb6102a7366004612053565b6097546001600160a01b0391821691161490565b604051901515815260200161021d565b6102396102d93660046122ad565b610d04565b60655460ff166102bb565b6098546102fc906001600160a01b031681565b6040516001600160a01b03909116815260200161021d565b610239610e2f565b6097546001600160a01b03166102fc565b610239610e82565b6102396103433660046120a9565b610ed3565b6102396103563660046120a9565b610fd1565b6033546001600160a01b03166102fc565b61037f61037a3660046120a9565b61101f565b60405161021d9190612354565b61023961039a3660046120a9565b61126f565b610213609c5481565b6102396103b63660046120a9565b61135a565b6102396103c93660046124e0565b6114f8565b6102136103dc366004612512565b611699565b6102396103ef3660046120a9565b6116d6565b610213609e5481565b61023961040b36600461253c565b6117dc565b61023961041e366004612053565b611841565b610239610431366004612053565b6118ac565b6102396104443660046120a9565b611916565b610239610457366004612053565b611964565b609d5461046c9063ffffffff1681565b60405163ffffffff909116815260200161021d565b6098546001600160a01b0316610495611a21565b6001600160a01b0316146104c45760405162461bcd60e51b81526004016104bb90612562565b60405180910390fd5b6000828152609960205260409020600d8101546104f19063ffffffff80821691600160401b900416612597565b81600d0160086101000a81548163ffffffff021916908363ffffffff160217905550600181600901600082825461052891906125bf565b909155505080546040516001600160a01b039091169084907f39e94fc57f494ff14c5e6240aaa121bb05346a3baf4434132df8f9075d5874919061056d9086906125d7565b60405180910390a3505050565b610582611a21565b6001600160a01b031661059d6033546001600160a01b031690565b6001600160a01b0316146105c35760405162461bcd60e51b81526004016104bb906125f1565b609b55565b600060048a10156106115760405162461bcd60e51b815260206004820152601360248201527221494e56414c4944286173736574537065632960681b60448201526064016104bb565b600682146106575760405162461bcd60e51b815260206004820152601360248201527221494e56414c4944287072696365537065632960681b60448201526064016104bb565b609d5463ffffffff16838360008161067157610671612626565b9050602002013510156106b95760405162461bcd60e51b815260206004820152601060248201526f21494e56414c494428706572696f642960801b60448201526064016104bb565b609c54838360018181106106cf576106cf612626565b9050602002013510156107175760405162461bcd60e51b815260206004820152601060248201526f21494e56414c494428616d6f756e742960801b60448201526064016104bb565b609e548383600381811061072d5761072d612626565b9050602002013510156107825760405162461bcd60e51b815260206004820152601860248201527f21494e56414c4944286d6178536c69707061676542707329000000000000000060448201526064016104bb565b6107918787878e8e8e8e611a30565b6107d35760405162461bcd60e51b815260206004820152601360248201527221494e56414c4944286173736574537065632960681b60448201526064016104bb565b60006107dd611a21565b8888888f8f898943426040516020016107ff9a99989796959493929190612669565b60408051601f19818403018152918152815160209283012060008181526099909352912090915061082e611a21565b81546001600160a01b03199081166001600160a01b039283161783556001830180549091169188169190911790558c8c60008161086d5761086d612626565b90506020020160208101906108829190612053565b6002820180546001600160a01b0319166001600160a01b03929092169190911790558c8c60018181106108b7576108b7612626565b90506020020160208101906108cc9190612053565b8160030160006101000a8154816001600160a01b0302191690836001600160a01b031602179055508c8c600290809261090793929190612703565b61091591600e840191611e6b565b508484600181811061092957610929612626565b60200291909101356004830155508484600281811061094a5761094a612626565b6020029190910135600583015550848460008161096957610969612626565b9050602002013581600d0160006101000a81548163ffffffff021916908363ffffffff160217905550848460048181106109a5576109a5612626565b6020029190910135600c83015550848460058181106109c6576109c6612626565b6020029190910135600b83015550848460038181106109e7576109e7612626565b6020029190910135600a83015550600d810180546bffffffffffffffff0000000019166401000000004263ffffffff1690810263ffffffff60401b191691909117600160401b91909102178082556001919060ff60601b1916600160601b830217905550600f810180548a919060ff19166001836002811115610a6c57610a6c6122d6565b0217905550610a7f601082018989611ece565b50609a6000610a8c611a21565b6001600160a01b0390811682526020808301939093526040918201600090812080546001810182559082529390209092018490556098549051637d0c250f60e11b81526004810185905291169063fa184a1e90602401600060405180830381600087803b158015610afc57600080fd5b505af1158015610b10573d6000803e3d6000fd5b5060019250610b1d915050565b600d820154600160601b900460ff166004811115610b3d57610b3d6122d6565b14610b7b5760405162461bcd60e51b815260206004820152600e60248201526d21554e50524f4345535341424c4560901b60448201526064016104bb565b8060080154600114610bc05760405162461bcd60e51b815260206004820152600e60248201526d21554e50524f4345535341424c4560901b60448201526064016104bb565b60018101548154600e830180546001600160a01b03938416939092169185917f9d1e5b985dd0611bc11e93d5075cdea08f64d1d51dd07489e6f288c20cd6669091600090610c1057610c10612626565b600091825260209091200154600e860180546001600160a01b0390921691610c3a90600190612731565b81548110610c4a57610c4a612626565b6000918252602091829020015460048801546005890154600d8a0154604080516001600160a01b039788168152969094169486019490945291840152606083015263ffffffff16608082015260a00160405180910390a4509b9a5050505050505050505050565b610cb9611a21565b6001600160a01b0316610cd46033546001600160a01b031690565b6001600160a01b031614610cfa5760405162461bcd60e51b81526004016104bb906125f1565b610d02611b0f565b565b6098546001600160a01b0316610d18611a21565b6001600160a01b031614610d3e5760405162461bcd60e51b81526004016104bb90612562565b60008281526099602052604090206003826003811115610d6057610d606122d6565b1415610db957600d8101805460ff60601b1916600160611b17905580546040516001600160a01b039091169084907f3d63c73b75a797c741bcfc0ae2644bc392388e97ea718a8731d44f47da2b23a490600090a3505050565b6001826003811115610dcd57610dcd6122d6565b1415610e2a57600d810180546003919060ff60601b1916600160601b835b021790555080546040516001600160a01b039091169084907f5d3baeac0d91b82fe19cca4c28f0768ed59c65d7f64d48d53f166f9ec0f099c090600090a35b505050565b610e37611a21565b6001600160a01b0316610e526033546001600160a01b031690565b6001600160a01b031614610e785760405162461bcd60e51b81526004016104bb906125f1565b610d026000611ba8565b610e8a611a21565b6001600160a01b0316610ea56033546001600160a01b031690565b6001600160a01b031614610ecb5760405162461bcd60e51b81526004016104bb906125f1565b610d02611bfa565b60008181526099602052604090205481906001600160a01b0316610ef5611a21565b6001600160a01b031614610f1b5760405162461bcd60e51b81526004016104bb90612562565b60008281526099602052604090206001600d820154600160601b900460ff166004811115610f4b57610f4b6122d6565b1480610f7657506002600d820154600160601b900460ff166004811115610f7457610f746122d6565b145b610fb55760405162461bcd60e51b815260206004820152601060248201526f21494e56414c4944287374617475732960801b60448201526064016104bb565b600d810180546003919060ff60601b1916600160601b83610deb565b610fd9611a21565b6001600160a01b0316610ff46033546001600160a01b031690565b6001600160a01b03161461101a5760405162461bcd60e51b81526004016104bb906125f1565b609c55565b611027611f42565b60008281526099602090815260409182902082516102808101845281546001600160a01b03908116825260018301548116938201939093526002820154831693810193909352600381015490911660608301526004808201546080840152600582015460a0840152600682015460c0840152600782015460e084015260088201546101008401526009820154610120840152600a820154610140840152600b820154610160840152600c820154610180840152600d82015463ffffffff8082166101a0860152640100000000820481166101c0860152600160401b8204166101e0850152610200840191600160601b90910460ff169081111561112c5761112c6122d6565b600481111561113d5761113d6122d6565b8152602001600e820180548060200260200160405190810160405280929190818152602001828054801561119a57602002820191906000526020600020905b81546001600160a01b0316815260019091019060200180831161117c575b5050509183525050600f82015460209091019060ff1660028111156111c1576111c16122d6565b60028111156111d2576111d26122d6565b81526020016010820180546111e690612748565b80601f016020809104026020016040519081016040528092919081815260200182805461121290612748565b801561125f5780601f106112345761010080835404028352916020019161125f565b820191906000526020600020905b81548152906001019060200180831161124257829003601f168201915b5050505050815250509050919050565b600054610100900460ff1661128a5760005460ff161561128e565b303b155b6112f15760405162461bcd60e51b815260206004820152602e60248201527f496e697469616c697a61626c653a20636f6e747261637420697320616c72656160448201526d191e481a5b9a5d1a585b1a5e995960921b60648201526084016104bb565b600054610100900460ff16158015611313576000805461ffff19166101011790555b61131b611c76565b611323611cad565b609b8290556001609c55609d805463ffffffff191662015180179055600a609e558015611356576000805461ff00191690555b5050565b60008181526099602052604090205481906001600160a01b031661137c611a21565b6001600160a01b0316146113a25760405162461bcd60e51b81526004016104bb90612562565b60008281526099602052604090206002600d820154600160601b900460ff1660048111156113d2576113d26122d6565b1461140d5760405162461bcd60e51b815260206004820152600b60248201526a085393d517d4105554d15160aa1b60448201526064016104bb565b600d8101805460ff60601b1916600160601b179081905563ffffffff428116600160401b90920416101561145c57600d8101805463ffffffff60401b1916600160401b4263ffffffff16021790555b609854604051637d0c250f60e11b8152600481018590526001600160a01b039091169063fa184a1e90602401600060405180830381600087803b1580156114a257600080fd5b505af11580156114b6573d6000803e3d6000fd5b505082546040516001600160a01b0390911692508591507f0d04c91a4cb25e87e66b2337207d34bd31384c15371c944d543b0d90c866e32c90600090a3505050565b6098546001600160a01b031661150c611a21565b6001600160a01b0316146115325760405162461bcd60e51b81526004016104bb90612562565b6000848152609960205260409020600d81015461155f9063ffffffff80821691600160401b900416612597565b81600d0160086101000a81548163ffffffff021916908363ffffffff1602179055508381600601600082825461159591906125bf565b92505081905550828160070160008282546115b091906125bf565b9250508190555060018160080160008282546115cc91906125bf565b9091555050805460408051868152602081018690529081018490526001600160a01b039091169086907f2cd977fbc4930a01c7a1d2d4f59916c67f5e443ee1b3efc3cf295b30b95499289060600160405180910390a36000816005015411801561163e57508060050154816006015410155b1561169257600d8101805460ff60601b1916600160621b17905580546040516001600160a01b039091169086907fe91db046d37f56c01a0949ac11e488007e1e26ea683caaee32d54c4cea5d851b90600090a35b5050505050565b6001600160a01b0382166000908152609a602052604081208054839081106116c3576116c3612626565b9060005260206000200154905092915050565b60008181526099602052604090205481906001600160a01b03166116f8611a21565b6001600160a01b03161461171e5760405162461bcd60e51b81526004016104bb90612562565b60008281526099602052604090206001600d820154600160601b900460ff16600481111561174e5761174e6122d6565b146117895760405162461bcd60e51b815260206004820152600b60248201526a214e4f545f41435449564560a81b60448201526064016104bb565b600d8101805460ff60601b1916600160611b17905580546040516001600160a01b039091169084907f3d63c73b75a797c741bcfc0ae2644bc392388e97ea718a8731d44f47da2b23a490600090a3505050565b6117e4611a21565b6001600160a01b03166117ff6033546001600160a01b031690565b6001600160a01b0316146118255760405162461bcd60e51b81526004016104bb906125f1565b609d805463ffffffff191663ffffffff92909216919091179055565b611849611a21565b6001600160a01b03166118646033546001600160a01b031690565b6001600160a01b03161461188a5760405162461bcd60e51b81526004016104bb906125f1565b609880546001600160a01b0319166001600160a01b0392909216919091179055565b6118b4611a21565b6001600160a01b03166118cf6033546001600160a01b031690565b6001600160a01b0316146118f55760405162461bcd60e51b81526004016104bb906125f1565b609780546001600160a01b0319166001600160a01b03831617905550565b50565b61191e611a21565b6001600160a01b03166119396033546001600160a01b031690565b6001600160a01b03161461195f5760405162461bcd60e51b81526004016104bb906125f1565b609e55565b61196c611a21565b6001600160a01b03166119876033546001600160a01b031690565b6001600160a01b0316146119ad5760405162461bcd60e51b81526004016104bb906125f1565b6001600160a01b038116611a125760405162461bcd60e51b815260206004820152602660248201527f4f776e61626c653a206e6577206f776e657220697320746865207a65726f206160448201526564647265737360d01b60648201526084016104bb565b61191381611ba8565b3b151590565b6000611a2b611ce4565b905090565b6000611b038383808060200260200160405190810160405280939291908181526020018383602002808284376000920182905250609b5493508d92508c91508b908b908b9081611a8257611a82612626565b9050602002016020810190611a979190612053565b8b8b6001818110611aaa57611aaa612626565b9050602002016020810190611abf9190612053565b8c8c6002908092611ad293929190612703565b604051602001611ae89796959493929190612783565b60405160208183030381529060405280519060200120611d18565b98975050505050505050565b60655460ff16611b585760405162461bcd60e51b815260206004820152601460248201527314185d5cd8589b194e881b9bdd081c185d5cd95960621b60448201526064016104bb565b6065805460ff191690557f5db9ee0a495bf2e6ff9c91a7834c1ba4fdd244a5e8aa4e537bd38aeae4b073aa611b8b611a21565b6040516001600160a01b03909116815260200160405180910390a1565b603380546001600160a01b038381166001600160a01b0319831681179093556040519116919082907f8be0079c531659141344cd1fd0a4f28419497f9722a3daafe3b4186f6b6457e090600090a35050565b60655460ff1615611c405760405162461bcd60e51b815260206004820152601060248201526f14185d5cd8589b194e881c185d5cd95960821b60448201526064016104bb565b6065805460ff191660011790557f62e78cea01bee320cd4e420270b5ea74000d11b0c9f74754ebdbfc544b05a258611b8b611a21565b600054610100900460ff16611c9d5760405162461bcd60e51b81526004016104bb90612821565b611ca5611d2e565b610d02611d55565b600054610100900460ff16611cd45760405162461bcd60e51b81526004016104bb90612821565b611cdc611d2e565b610d02611d8c565b600060143610801590611d0157506097546001600160a01b031633145b15611d13575060131936013560601c90565b503390565b600082611d258584611dbf565b14949350505050565b600054610100900460ff16610d025760405162461bcd60e51b81526004016104bb90612821565b600054610100900460ff16611d7c5760405162461bcd60e51b81526004016104bb90612821565b610d02611d87611a21565b611ba8565b600054610100900460ff16611db35760405162461bcd60e51b81526004016104bb90612821565b6065805460ff19169055565b600081815b8451811015611e63576000858281518110611de157611de1612626565b60200260200101519050808311611e23576040805160208101859052908101829052606001604051602081830303815290604052805190602001209250611e50565b60408051602081018390529081018490526060016040516020818303038152906040528051906020012092505b5080611e5b8161286c565b915050611dc4565b509392505050565b828054828255906000526020600020908101928215611ebe579160200282015b82811115611ebe5781546001600160a01b0319166001600160a01b03843516178255602090920191600190910190611e8b565b50611eca929150612022565b5090565b828054611eda90612748565b90600052602060002090601f016020900481019282611efc5760008555611ebe565b82601f10611f155782800160ff19823516178555611ebe565b82800160010185558215611ebe579182015b82811115611ebe578235825591602001919060010190611f27565b60405180610280016040528060006001600160a01b0316815260200160006001600160a01b0316815260200160006001600160a01b0316815260200160006001600160a01b03168152602001600081526020016000815260200160008152602001600081526020016000815260200160008152602001600081526020016000815260200160008152602001600063ffffffff168152602001600063ffffffff168152602001600063ffffffff16815260200160006004811115612007576120076122d6565b81526060602082015260400160008152602001606081525090565b5b80821115611eca5760008155600101612023565b80356001600160a01b038116811461204e57600080fd5b919050565b60006020828403121561206557600080fd5b61206e82612037565b9392505050565b6000806040838503121561208857600080fd5b8235915060208301356006811061209e57600080fd5b809150509250929050565b6000602082840312156120bb57600080fd5b5035919050565b60008083601f8401126120d457600080fd5b50813567ffffffffffffffff8111156120ec57600080fd5b6020830191508360208260051b850101111561210757600080fd5b9250929050565b80356003811061204e57600080fd5b60008083601f84011261212f57600080fd5b50813567ffffffffffffffff81111561214757600080fd5b60208301915083602082850101111561210757600080fd5b60008060008060008060008060008060c08b8d03121561217e57600080fd5b8a3567ffffffffffffffff8082111561219657600080fd5b6121a28e838f016120c2565b909c509a5060208d01359150808211156121bb57600080fd5b6121c78e838f016120c2565b909a5098508891506121db60408e0161210e565b975060608d01359150808211156121f157600080fd5b6121fd8e838f0161211d565b909750955085915061221160808e01612037565b945060a08d013591508082111561222757600080fd5b506122348d828e016120c2565b915080935050809150509295989b9194979a5092959850565b6000815180845260005b8181101561227357602081850181015186830182015201612257565b81811115612285576000602083870101525b50601f01601f19169290920160200192915050565b60208152600061206e602083018461224d565b600080604083850312156122c057600080fd5b8235915060208301356004811061209e57600080fd5b634e487b7160e01b600052602160045260246000fd5b600581106122fc576122fc6122d6565b9052565b600081518084526020808501945080840160005b838110156123395781516001600160a01b031687529582019590820190600101612314565b509495945050505050565b600381106122fc576122fc6122d6565b6020815261236e6020820183516001600160a01b03169052565b6000602083015161238a60408401826001600160a01b03169052565b5060408301516001600160a01b03811660608401525060608301516001600160a01b038116608084015250608083015160a08381019190915283015160c08084019190915283015160e08084019190915283015161010080840191909152830151610120808401919091528301516101408084019190915283015161016080840191909152830151610180808401919091528301516101a0808401919091528301516101c06124408185018363ffffffff169052565b84015190506101e06124598482018363ffffffff169052565b84015190506102006124728482018363ffffffff169052565b8401519050610220612486848201836122ec565b8085015191505061028061024081818601526124a66102a0860184612300565b908601519092506102606124bc86820183612344565b860151858403601f19018387015290506124d6838261224d565b9695505050505050565b600080600080608085870312156124f657600080fd5b5050823594602084013594506040840135936060013592509050565b6000806040838503121561252557600080fd5b61252e83612037565b946020939093013593505050565b60006020828403121561254e57600080fd5b813563ffffffff8116811461206e57600080fd5b60208082526005908201526404282aaa8960db1b604082015260600190565b634e487b7160e01b600052601160045260246000fd5b600063ffffffff8083168185168083038211156125b6576125b6612581565b01949350505050565b600082198211156125d2576125d2612581565b500190565b60208101600683106125eb576125eb6122d6565b91905290565b6020808252818101527f4f776e61626c653a2063616c6c6572206973206e6f7420746865206f776e6572604082015260600190565b634e487b7160e01b600052603260045260246000fd5b60006001600160fb1b0383111561265257600080fd5b8260051b8083863760009401938452509192915050565b6bffffffffffffffffffffffff198b60601b168152600060038b10612690576126906122d6565b8a60f81b6014830152888a60158401376000828a0160150181815289915b898110156126dc576001600160a01b036126c784612037565b168252602092830192909101906001016126ae565b506126e881888a61263c565b95865250505050602082015260400198975050505050505050565b6000808585111561271357600080fd5b8386111561272057600080fd5b5050600583901b0193919092039150565b60008282101561274357612743612581565b500390565b600181811c9082168061275c57607f821691505b6020821081141561277d57634e487b7160e01b600052602260045260246000fd5b50919050565b61278d8189612344565b6000602060a0818401528760a0840152878960c0850137600060c089850181018290526001600160a01b0389811660408701528881166060870152601f8b01601f191686018681038301608088015291820187905287929160e0015b8783101561281057816127fb85612037565b168152928401926001929092019184016127e9565b9d9c50505050505050505050505050565b6020808252602b908201527f496e697469616c697a61626c653a20636f6e7472616374206973206e6f74206960408201526a6e697469616c697a696e6760a81b606082015260800190565b600060001982141561288057612880612581565b506001019056fea26469706673582212205ae6b51228701cccfdd383e9473ad5f6cc5fd5bb495c639fc151a4a88f5e912864736f6c63430008090033",
  "devdoc": {
    "kind": "dev",
    "methods": {
      "constructor": {
        "custom:oz-upgrades-unsafe-allow": "constructor"
      },
      "owner()": {
        "details": "Returns the address of the current owner."
      },
      "paused()": {
        "details": "Returns true if the contract is paused, and false otherwise."
      },
      "renounceOwnership()": {
        "details": "Leaves the contract without owner. It will not be possible to call `onlyOwner` functions anymore. Can only be called by the current owner. NOTE: Renouncing ownership will leave the contract without an owner, thereby removing any functionality that is only available to the owner."
      },
      "transferOwnership(address)": {
        "details": "Transfers ownership of the contract to a new account (`newOwner`). Can only be called by the current owner."
      }
    },
    "stateVariables": {
      "assetsMerkleRoot": {
        "details": "merkle root of approved assets. "
      },
      "dcaManager": {
        "details": "contract to manage DCA executions. "
      },
      "dcaMap": {
        "details": "map of DCA ID to DCA info. "
      },
      "minAmount": {
        "details": "minimum amount of vault base asset for a DCA. "
      },
      "minPeriod": {
        "details": "minimum period for a DCA. "
      },
      "minSlippage": {
        "details": "minimum slippage allowed for a DCA. "
      }
    },
    "version": 1
  },
  "userdoc": {
    "kind": "user",
    "methods": {
      "isTrustedForwarder(address)": {
        "notice": "return if the forwarder is trusted to forward relayed transactions to us. the forwarder is required to verify the sender's signature, and verify the call is not a replay."
      }
    },
    "version": 1
  },
  "storageLayout": {
    "storage": [
      {
        "astId": 327,
        "contract": "contracts/dca/CaskDCA.sol:CaskDCA",
        "label": "_initialized",
        "offset": 0,
        "slot": "0",
        "type": "t_bool"
      },
      {
        "astId": 330,
        "contract": "contracts/dca/CaskDCA.sol:CaskDCA",
        "label": "_initializing",
        "offset": 1,
        "slot": "0",
        "type": "t_bool"
      },
      {
        "astId": 2551,
        "contract": "contracts/dca/CaskDCA.sol:CaskDCA",
        "label": "__gap",
        "offset": 0,
        "slot": "1",
        "type": "t_array(t_uint256)50_storage"
      },
      {
        "astId": 205,
        "contract": "contracts/dca/CaskDCA.sol:CaskDCA",
        "label": "_owner",
        "offset": 0,
        "slot": "51",
        "type": "t_address"
      },
      {
        "astId": 319,
        "contract": "contracts/dca/CaskDCA.sol:CaskDCA",
        "label": "__gap",
        "offset": 0,
        "slot": "52",
        "type": "t_array(t_uint256)49_storage"
      },
      {
        "astId": 415,
        "contract": "contracts/dca/CaskDCA.sol:CaskDCA",
        "label": "_paused",
        "offset": 0,
        "slot": "101",
        "type": "t_bool"
      },
      {
        "astId": 506,
        "contract": "contracts/dca/CaskDCA.sol:CaskDCA",
        "label": "__gap",
        "offset": 0,
        "slot": "102",
        "type": "t_array(t_uint256)49_storage"
      },
      {
        "astId": 72,
        "contract": "contracts/dca/CaskDCA.sol:CaskDCA",
        "label": "_trustedForwarder",
        "offset": 0,
        "slot": "151",
        "type": "t_address"
      },
      {
        "astId": 10277,
        "contract": "contracts/dca/CaskDCA.sol:CaskDCA",
        "label": "dcaManager",
        "offset": 0,
        "slot": "152",
        "type": "t_contract(ICaskDCAManager)13142"
      },
      {
        "astId": 10283,
        "contract": "contracts/dca/CaskDCA.sol:CaskDCA",
        "label": "dcaMap",
        "offset": 0,
        "slot": "153",
        "type": "t_mapping(t_bytes32,t_struct(DCA)12965_storage)"
      },
      {
        "astId": 10288,
        "contract": "contracts/dca/CaskDCA.sol:CaskDCA",
        "label": "userDCAs",
        "offset": 0,
        "slot": "154",
        "type": "t_mapping(t_address,t_array(t_bytes32)dyn_storage)"
      },
      {
        "astId": 10291,
        "contract": "contracts/dca/CaskDCA.sol:CaskDCA",
        "label": "assetsMerkleRoot",
        "offset": 0,
        "slot": "155",
        "type": "t_bytes32"
      },
      {
        "astId": 10294,
        "contract": "contracts/dca/CaskDCA.sol:CaskDCA",
        "label": "minAmount",
        "offset": 0,
        "slot": "156",
        "type": "t_uint256"
      },
      {
        "astId": 10297,
        "contract": "contracts/dca/CaskDCA.sol:CaskDCA",
        "label": "minPeriod",
        "offset": 0,
        "slot": "157",
        "type": "t_uint32"
      },
      {
        "astId": 10300,
        "contract": "contracts/dca/CaskDCA.sol:CaskDCA",
        "label": "minSlippage",
        "offset": 0,
        "slot": "158",
        "type": "t_uint256"
      }
    ],
    "types": {
      "t_address": {
        "encoding": "inplace",
        "label": "address",
        "numberOfBytes": "20"
      },
      "t_array(t_address)dyn_storage": {
        "base": "t_address",
        "encoding": "dynamic_array",
        "label": "address[]",
        "numberOfBytes": "32"
      },
      "t_array(t_bytes32)dyn_storage": {
        "base": "t_bytes32",
        "encoding": "dynamic_array",
        "label": "bytes32[]",
        "numberOfBytes": "32"
      },
      "t_array(t_uint256)49_storage": {
        "base": "t_uint256",
        "encoding": "inplace",
        "label": "uint256[49]",
        "numberOfBytes": "1568"
      },
      "t_array(t_uint256)50_storage": {
        "base": "t_uint256",
        "encoding": "inplace",
        "label": "uint256[50]",
        "numberOfBytes": "1600"
      },
      "t_bool": {
        "encoding": "inplace",
        "label": "bool",
        "numberOfBytes": "1"
      },
      "t_bytes32": {
        "encoding": "inplace",
        "label": "bytes32",
        "numberOfBytes": "32"
      },
      "t_bytes_storage": {
        "encoding": "bytes",
        "label": "bytes",
        "numberOfBytes": "32"
      },
      "t_contract(ICaskDCAManager)13142": {
        "encoding": "inplace",
        "label": "contract ICaskDCAManager",
        "numberOfBytes": "20"
      },
      "t_enum(DCAStatus)12909": {
        "encoding": "inplace",
        "label": "enum ICaskDCA.DCAStatus",
        "numberOfBytes": "1"
      },
      "t_enum(SwapProtocol)12903": {
        "encoding": "inplace",
        "label": "enum ICaskDCA.SwapProtocol",
        "numberOfBytes": "1"
      },
      "t_mapping(t_address,t_array(t_bytes32)dyn_storage)": {
        "encoding": "mapping",
        "key": "t_address",
        "label": "mapping(address => bytes32[])",
        "numberOfBytes": "32",
        "value": "t_array(t_bytes32)dyn_storage"
      },
      "t_mapping(t_bytes32,t_struct(DCA)12965_storage)": {
        "encoding": "mapping",
        "key": "t_bytes32",
        "label": "mapping(bytes32 => struct ICaskDCA.DCA)",
        "numberOfBytes": "32",
        "value": "t_struct(DCA)12965_storage"
      },
      "t_struct(DCA)12965_storage": {
        "encoding": "inplace",
        "label": "struct ICaskDCA.DCA",
        "members": [
          {
            "astId": 12923,
            "contract": "contracts/dca/CaskDCA.sol:CaskDCA",
            "label": "user",
            "offset": 0,
            "slot": "0",
            "type": "t_address"
          },
          {
            "astId": 12925,
            "contract": "contracts/dca/CaskDCA.sol:CaskDCA",
            "label": "to",
            "offset": 0,
            "slot": "1",
            "type": "t_address"
          },
          {
            "astId": 12927,
            "contract": "contracts/dca/CaskDCA.sol:CaskDCA",
            "label": "router",
            "offset": 0,
            "slot": "2",
            "type": "t_address"
          },
          {
            "astId": 12929,
            "contract": "contracts/dca/CaskDCA.sol:CaskDCA",
            "label": "priceFeed",
            "offset": 0,
            "slot": "3",
            "type": "t_address"
          },
          {
            "astId": 12931,
            "contract": "contracts/dca/CaskDCA.sol:CaskDCA",
            "label": "amount",
            "offset": 0,
            "slot": "4",
            "type": "t_uint256"
          },
          {
            "astId": 12933,
            "contract": "contracts/dca/CaskDCA.sol:CaskDCA",
            "label": "totalAmount",
            "offset": 0,
            "slot": "5",
            "type": "t_uint256"
          },
          {
            "astId": 12935,
            "contract": "contracts/dca/CaskDCA.sol:CaskDCA",
            "label": "currentAmount",
            "offset": 0,
            "slot": "6",
            "type": "t_uint256"
          },
          {
            "astId": 12937,
            "contract": "contracts/dca/CaskDCA.sol:CaskDCA",
            "label": "currentQty",
            "offset": 0,
            "slot": "7",
            "type": "t_uint256"
          },
          {
            "astId": 12939,
            "contract": "contracts/dca/CaskDCA.sol:CaskDCA",
            "label": "numBuys",
            "offset": 0,
            "slot": "8",
            "type": "t_uint256"
          },
          {
            "astId": 12941,
            "contract": "contracts/dca/CaskDCA.sol:CaskDCA",
            "label": "numSkips",
            "offset": 0,
            "slot": "9",
            "type": "t_uint256"
          },
          {
            "astId": 12943,
            "contract": "contracts/dca/CaskDCA.sol:CaskDCA",
            "label": "maxSlippageBps",
            "offset": 0,
            "slot": "10",
            "type": "t_uint256"
          },
          {
            "astId": 12945,
            "contract": "contracts/dca/CaskDCA.sol:CaskDCA",
            "label": "maxPrice",
            "offset": 0,
            "slot": "11",
            "type": "t_uint256"
          },
          {
            "astId": 12947,
            "contract": "contracts/dca/CaskDCA.sol:CaskDCA",
            "label": "minPrice",
            "offset": 0,
            "slot": "12",
            "type": "t_uint256"
          },
          {
            "astId": 12949,
            "contract": "contracts/dca/CaskDCA.sol:CaskDCA",
            "label": "period",
            "offset": 0,
            "slot": "13",
            "type": "t_uint32"
          },
          {
            "astId": 12951,
            "contract": "contracts/dca/CaskDCA.sol:CaskDCA",
            "label": "createdAt",
            "offset": 4,
            "slot": "13",
            "type": "t_uint32"
          },
          {
            "astId": 12953,
            "contract": "contracts/dca/CaskDCA.sol:CaskDCA",
            "label": "processAt",
            "offset": 8,
            "slot": "13",
            "type": "t_uint32"
          },
          {
            "astId": 12956,
            "contract": "contracts/dca/CaskDCA.sol:CaskDCA",
            "label": "status",
            "offset": 12,
            "slot": "13",
            "type": "t_enum(DCAStatus)12909"
          },
          {
            "astId": 12959,
            "contract": "contracts/dca/CaskDCA.sol:CaskDCA",
            "label": "path",
            "offset": 0,
            "slot": "14",
            "type": "t_array(t_address)dyn_storage"
          },
          {
            "astId": 12962,
            "contract": "contracts/dca/CaskDCA.sol:CaskDCA",
            "label": "swapProtocol",
            "offset": 0,
            "slot": "15",
            "type": "t_enum(SwapProtocol)12903"
          },
          {
            "astId": 12964,
            "contract": "contracts/dca/CaskDCA.sol:CaskDCA",
            "label": "swapData",
            "offset": 0,
            "slot": "16",
            "type": "t_bytes_storage"
          }
        ],
        "numberOfBytes": "544"
      },
      "t_uint256": {
        "encoding": "inplace",
        "label": "uint256",
        "numberOfBytes": "32"
      },
      "t_uint32": {
        "encoding": "inplace",
        "label": "uint32",
        "numberOfBytes": "4"
      }
    }
  }
}