{
  "address": "0x20151fF7fDd720b85063D02081aa5B7876aDff7B",
  "abi": [
    {
      "inputs": [],
      "stateMutability": "nonpayable",
      "type": "constructor"
    },
    {
      "anonymous": false,
      "inputs": [
        {
          "indexed": true,
          "internalType": "address",
          "name": "previousOwner",
          "type": "address"
        },
        {
          "indexed": true,
          "internalType": "address",
          "name": "newOwner",
          "type": "address"
        }
      ],
      "name": "OwnershipTransferred",
      "type": "event"
    },
    {
      "anonymous": false,
      "inputs": [
        {
          "indexed": false,
          "internalType": "address",
          "name": "account",
          "type": "address"
        }
      ],
      "name": "Paused",
      "type": "event"
    },
    {
      "anonymous": false,
      "inputs": [
        {
          "indexed": true,
          "internalType": "address",
          "name": "provider",
          "type": "address"
        },
        {
          "indexed": true,
          "internalType": "uint32",
          "name": "planId",
          "type": "uint32"
        }
      ],
      "name": "PlanDisabled",
      "type": "event"
    },
    {
      "anonymous": false,
      "inputs": [
        {
          "indexed": true,
          "internalType": "address",
          "name": "provider",
          "type": "address"
        },
        {
          "indexed": true,
          "internalType": "uint32",
          "name": "planId",
          "type": "uint32"
        }
      ],
      "name": "PlanEnabled",
      "type": "event"
    },
    {
      "anonymous": false,
      "inputs": [
        {
          "indexed": true,
          "internalType": "address",
          "name": "provider",
          "type": "address"
        },
        {
          "indexed": true,
          "internalType": "uint32",
          "name": "planId",
          "type": "uint32"
        },
        {
          "indexed": false,
          "internalType": "uint32",
          "name": "retireAt",
          "type": "uint32"
        }
      ],
      "name": "PlanRetired",
      "type": "event"
    },
    {
      "anonymous": false,
      "inputs": [
        {
          "indexed": true,
          "internalType": "address",
          "name": "provider",
          "type": "address"
        },
        {
          "indexed": true,
          "internalType": "address",
          "name": "paymentAddress",
          "type": "address"
        },
        {
          "indexed": false,
          "internalType": "uint256",
          "name": "nonce",
          "type": "uint256"
        },
        {
          "indexed": false,
          "internalType": "string",
          "name": "cid",
          "type": "string"
        }
      ],
      "name": "ProviderSetProfile",
      "type": "event"
    },
    {
      "anonymous": false,
      "inputs": [
        {
          "indexed": false,
          "internalType": "address",
          "name": "account",
          "type": "address"
        }
      ],
      "name": "Unpaused",
      "type": "event"
    },
    {
      "inputs": [
        {
          "internalType": "uint32",
          "name": "_planId",
          "type": "uint32"
        }
      ],
      "name": "disablePlan",
      "outputs": [],
      "stateMutability": "nonpayable",
      "type": "function"
    },
    {
      "inputs": [
        {
          "internalType": "uint32",
          "name": "_planId",
          "type": "uint32"
        }
      ],
      "name": "enablePlan",
      "outputs": [],
      "stateMutability": "nonpayable",
      "type": "function"
    },
    {
      "inputs": [
        {
          "internalType": "address",
          "name": "_consumer",
          "type": "address"
        },
        {
          "internalType": "bytes32",
          "name": "_discountValidator",
          "type": "bytes32"
        }
      ],
      "name": "erc20DiscountCurrentlyApplies",
      "outputs": [
        {
          "internalType": "bool",
          "name": "",
          "type": "bool"
        }
      ],
      "stateMutability": "view",
      "type": "function"
    },
    {
      "inputs": [
        {
          "internalType": "address",
          "name": "_provider",
          "type": "address"
        },
        {
          "internalType": "uint32",
          "name": "_planId",
          "type": "uint32"
        },
        {
          "internalType": "bytes32",
          "name": "_discountId",
          "type": "bytes32"
        }
      ],
      "name": "getDiscountRedemptions",
      "outputs": [
        {
          "internalType": "uint256",
          "name": "",
          "type": "uint256"
        }
      ],
      "stateMutability": "view",
      "type": "function"
    },
    {
      "inputs": [
        {
          "internalType": "address",
          "name": "_provider",
          "type": "address"
        },
        {
          "internalType": "uint32",
          "name": "_planId",
          "type": "uint32"
        }
      ],
      "name": "getPlanEOL",
      "outputs": [
        {
          "internalType": "uint32",
          "name": "",
          "type": "uint32"
        }
      ],
      "stateMutability": "view",
      "type": "function"
    },
    {
      "inputs": [
        {
          "internalType": "address",
          "name": "_provider",
          "type": "address"
        },
        {
          "internalType": "uint32",
          "name": "_planId",
          "type": "uint32"
        }
      ],
      "name": "getPlanStatus",
      "outputs": [
        {
          "internalType": "enum ICaskSubscriptionPlans.PlanStatus",
          "name": "",
          "type": "uint8"
        }
      ],
      "stateMutability": "view",
      "type": "function"
    },
    {
      "inputs": [
        {
          "internalType": "address",
          "name": "_provider",
          "type": "address"
        }
      ],
      "name": "getProviderProfile",
      "outputs": [
        {
          "components": [
            {
              "internalType": "address",
              "name": "paymentAddress",
              "type": "address"
            },
            {
              "internalType": "uint256",
              "name": "nonce",
              "type": "uint256"
            },
            {
              "internalType": "string",
              "name": "cid",
              "type": "string"
            }
          ],
          "internalType": "struct ICaskSubscriptionPlans.Provider",
          "name": "",
          "type": "tuple"
        }
      ],
      "stateMutability": "view",
      "type": "function"
    },
    {
      "inputs": [],
      "name": "initialize",
      "outputs": [],
      "stateMutability": "nonpayable",
      "type": "function"
    },
    {
      "inputs": [
        {
          "internalType": "address",
          "name": "forwarder",
          "type": "address"
        }
      ],
      "name": "isTrustedForwarder",
      "outputs": [
        {
          "internalType": "bool",
          "name": "",
          "type": "bool"
        }
      ],
      "stateMutability": "view",
      "type": "function"
    },
    {
      "inputs": [],
      "name": "owner",
      "outputs": [
        {
          "internalType": "address",
          "name": "",
          "type": "address"
        }
      ],
      "stateMutability": "view",
      "type": "function"
    },
    {
      "inputs": [],
      "name": "pause",
      "outputs": [],
      "stateMutability": "nonpayable",
      "type": "function"
    },
    {
      "inputs": [],
      "name": "paused",
      "outputs": [
        {
          "internalType": "bool",
          "name": "",
          "type": "bool"
        }
      ],
      "stateMutability": "view",
      "type": "function"
    },
    {
      "inputs": [],
      "name": "renounceOwnership",
      "outputs": [],
      "stateMutability": "nonpayable",
      "type": "function"
    },
    {
      "inputs": [
        {
          "internalType": "uint32",
          "name": "_planId",
          "type": "uint32"
        },
        {
          "internalType": "uint32",
          "name": "_retireAt",
          "type": "uint32"
        }
      ],
      "name": "retirePlan",
      "outputs": [],
      "stateMutability": "nonpayable",
      "type": "function"
    },
    {
      "inputs": [
        {
          "internalType": "address",
          "name": "_subscriptionManager",
          "type": "address"
        }
      ],
      "name": "setManager",
      "outputs": [],
      "stateMutability": "nonpayable",
      "type": "function"
    },
    {
      "inputs": [
        {
          "internalType": "address",
          "name": "_paymentAddress",
          "type": "address"
        },
        {
          "internalType": "string",
          "name": "_cid",
          "type": "string"
        },
        {
          "internalType": "uint256",
          "name": "_nonce",
          "type": "uint256"
        }
      ],
      "name": "setProviderProfile",
      "outputs": [],
      "stateMutability": "nonpayable",
      "type": "function"
    },
    {
      "inputs": [
        {
          "internalType": "address",
          "name": "_subscriptions",
          "type": "address"
        }
      ],
      "name": "setSubscriptions",
      "outputs": [],
      "stateMutability": "nonpayable",
      "type": "function"
    },
    {
      "inputs": [
        {
          "internalType": "address",
          "name": "_forwarder",
          "type": "address"
        }
      ],
      "name": "setTrustedForwarder",
      "outputs": [],
      "stateMutability": "nonpayable",
      "type": "function"
    },
    {
      "inputs": [],
      "name": "subscriptionManager",
      "outputs": [
        {
          "internalType": "address",
          "name": "",
          "type": "address"
        }
      ],
      "stateMutability": "view",
      "type": "function"
    },
    {
      "inputs": [],
      "name": "subscriptions",
      "outputs": [
        {
          "internalType": "address",
          "name": "",
          "type": "address"
        }
      ],
      "stateMutability": "view",
      "type": "function"
    },
    {
      "inputs": [
        {
          "internalType": "address",
          "name": "newOwner",
          "type": "address"
        }
      ],
      "name": "transferOwnership",
      "outputs": [],
      "stateMutability": "nonpayable",
      "type": "function"
    },
    {
      "inputs": [],
      "name": "trustedForwarder",
      "outputs": [
        {
          "internalType": "address",
          "name": "",
          "type": "address"
        }
      ],
      "stateMutability": "view",
      "type": "function"
    },
    {
      "inputs": [],
      "name": "unpause",
      "outputs": [],
      "stateMutability": "nonpayable",
      "type": "function"
    },
    {
      "inputs": [
        {
          "internalType": "address",
          "name": "_consumer",
          "type": "address"
        },
        {
          "internalType": "address",
          "name": "_provider",
          "type": "address"
        },
        {
          "internalType": "uint32",
          "name": "_planId",
          "type": "uint32"
        },
        {
          "internalType": "bytes32[]",
          "name": "_discountProof",
          "type": "bytes32[]"
        }
      ],
      "name": "verifyAndConsumeDiscount",
      "outputs": [
        {
          "internalType": "bytes32",
          "name": "",
          "type": "bytes32"
        }
      ],
      "stateMutability": "nonpayable",
      "type": "function"
    },
    {
      "inputs": [
        {
          "internalType": "address",
          "name": "_consumer",
          "type": "address"
        },
        {
          "internalType": "address",
          "name": "_provider",
          "type": "address"
        },
        {
          "internalType": "uint32",
          "name": "_planId",
          "type": "uint32"
        },
        {
          "internalType": "bytes32[]",
          "name": "_discountProof",
          "type": "bytes32[]"
        }
      ],
      "name": "verifyDiscount",
      "outputs": [
        {
          "internalType": "bytes32",
          "name": "",
          "type": "bytes32"
        }
      ],
      "stateMutability": "view",
      "type": "function"
    },
    {
      "inputs": [
        {
          "internalType": "bytes32",
          "name": "_planData",
          "type": "bytes32"
        },
        {
          "internalType": "bytes32",
          "name": "_merkleRoot",
          "type": "bytes32"
        },
        {
          "internalType": "bytes32[]",
          "name": "_merkleProof",
          "type": "bytes32[]"
        }
      ],
      "name": "verifyPlan",
      "outputs": [
        {
          "internalType": "bool",
          "name": "",
          "type": "bool"
        }
      ],
      "stateMutability": "pure",
      "type": "function"
    },
    {
      "inputs": [],
      "name": "versionRecipient",
      "outputs": [
        {
          "internalType": "string",
          "name": "",
          "type": "string"
        }
      ],
      "stateMutability": "pure",
      "type": "function"
    }
  ],
  "transactionHash": "0xf05d4fc505212612b7043a8fdde7f017bd5ce5ab2241e795ca471987548dd500",
  "args": [],
  "numDeployments": 1,
  "solcInputHash": "fa2c666eed867de608b2cdcffde5f034",
  "bytecode": "0x60806040523480156200001157600080fd5b50600054600160a81b900460ff166200003857600054600160a01b900460ff161562000042565b62000042620000f1565b620000aa5760405162461bcd60e51b815260206004820152602e60248201527f496e697469616c697a61626c653a20636f6e747261637420697320616c72656160448201526d191e481a5b9a5d1a585b1a5e995960921b606482015260840160405180910390fd5b600054600160a81b900460ff16158015620000d5576000805461ffff60a01b191661010160a01b1790555b8015620000ea576000805460ff60a81b191690555b5062000115565b600062000109306200010f60201b620010651760201c565b15905090565b3b151590565b611f3e80620001256000396000f3fe608060405234801561001057600080fd5b50600436106101a95760003560e01c80637da0a877116100f9578063b8e381e511610097578063cd1402e711610071578063cd1402e7146103e4578063d0ebdbe7146103f7578063da7422281461040a578063f2fde38b1461041d57600080fd5b8063b8e381e5146103ab578063bf158fd2146103be578063c5b2cfce146103d157600080fd5b80638da5cb5b116100d35780638da5cb5b146103265780639c4f7d5914610337578063b0d8985c1461034a578063b6ab359f1461035d57600080fd5b80637da0a877146102f15780638129fc1c146103165780638456cb591461031e57600080fd5b8063486ff0cd11610166578063715018a611610140578063715018a6146102b057806371ce3e66146102b8578063762f3e3d146102cb57806379c19bc4146102de57600080fd5b8063486ff0cd1461024c578063572b6c05146102735780635c975abb146102a557600080fd5b8063025b6875146101ae5780631bc569b5146101db5780632218d7d3146101f0578063256c6ba9146102115780633c17dac8146102245780633f4ba83a14610244575b600080fd5b6101c16101bc3660046118fe565b610430565b60405163ffffffff90911681526020015b60405180910390f35b6101ee6101e9366004611931565b610463565b005b6102036101fe366004611998565b610593565b6040519081526020016101d2565b6101ee61021f366004611931565b610653565b610237610232366004611a0e565b61077f565b6040516101d29190611a76565b6101ee61086a565b60408051808201825260058152640322e322e360dc1b602082015290516101d29190611aad565b610295610281366004611a0e565b6000546001600160a01b0391821691161490565b60405190151581526020016101d2565b60655460ff16610295565b6101ee6108bd565b6102956102c6366004611ac0565b610910565b6102036102d9366004611b13565b61097e565b6102036102ec366004611998565b6109b8565b6000546001600160a01b03165b6040516001600160a01b0390911681526020016101d2565b6101ee610a76565b6101ee610b62565b6033546001600160a01b03166102fe565b6101ee610345366004611a0e565b610bb3565b6101ee610358366004611b4f565b610c1e565b61039e61036b3660046118fe565b6001600160a01b038216600090815260996020908152604080832063ffffffff8516845290915290205460ff1692915050565b6040516101d29190611bee565b609c546102fe906001600160a01b031681565b6097546102fe906001600160a01b031681565b6101ee6103df366004611c16565b610d19565b6102956103f2366004611c32565b610e14565b6101ee610405366004611a0e565b610edc565b6101ee610418366004611a0e565b610f47565b6101ee61042b366004611a0e565b610fae565b6001600160a01b0382166000908152609a6020908152604080832063ffffffff8086168552925290912054165b92915050565b60006099600061047161106b565b6001600160a01b031681526020808201929092526040908101600090812063ffffffff8616825290925290205460ff1660028111156104b2576104b2611bd8565b146104f35760405162461bcd60e51b815260206004820152600c60248201526b085393d517d153905093115160a21b60448201526064015b60405180910390fd5b60016099600061050161106b565b6001600160a01b031681526020808201929092526040908101600090812063ffffffff861682529092529020805460ff1916600183600281111561054757610547611bd8565b02179055508063ffffffff1661055b61106b565b6001600160a01b03167f50ec551c598cd517a78f91d12398f4f1d95e0171a4393505d01401f8b6c940a760405160405180910390a350565b609c546000906001600160a01b03166105aa61106b565b6001600160a01b0316146105e85760405162461bcd60e51b815260206004820152600560248201526404282aaa8960db1b60448201526064016104ea565b60006105f787878787876109b8565b90508015610647576001600160a01b0386166000908152609b6020908152604080832063ffffffff8916845282528083208484529091528120805460019290610641908490611c72565b90915550505b90505b95945050505050565b60016099600061066161106b565b6001600160a01b031681526020808201929092526040908101600090812063ffffffff8616825290925290205460ff1660028111156106a2576106a2611bd8565b146106df5760405162461bcd60e51b815260206004820152600d60248201526c085393d517d11254d050931151609a1b60448201526064016104ea565b6000609960006106ed61106b565b6001600160a01b031681526020808201929092526040908101600090812063ffffffff861682529092529020805460ff1916600183600281111561073357610733611bd8565b02179055508063ffffffff1661074761106b565b6001600160a01b03167fb6af1d2951898e17e763c18b77daf0ada2f2753802d37868e67797e87991a29860405160405180910390a350565b6040805160608082018352600080835260208084018290528385018390526001600160a01b038681168352609882529185902085519384018652805490921683526001820154908301526002810180549394929391928401916107e190611c8a565b80601f016020809104026020016040519081016040528092919081815260200182805461080d90611c8a565b801561085a5780601f1061082f5761010080835404028352916020019161085a565b820191906000526020600020905b81548152906001019060200180831161083d57829003601f168201915b5050505050815250509050919050565b61087261106b565b6001600160a01b031661088d6033546001600160a01b031690565b6001600160a01b0316146108b35760405162461bcd60e51b81526004016104ea90611cc5565b6108bb61107a565b565b6108c561106b565b6001600160a01b03166108e06033546001600160a01b031690565b6001600160a01b0316146109065760405162461bcd60e51b81526004016104ea90611cc5565b6108bb6000611113565b60006109738383808060200260200160405190810160405280939291908181526020018383602002808284376000920191909152505060408051602081018b90528993500190505b60405160208183030381529060405280519060200120611165565b90505b949350505050565b6001600160a01b0383166000908152609b6020908152604080832063ffffffff8616845282528083208484529091529020545b9392505050565b600060038210806109e45750828260008181106109d7576109d7611cfa565b905060200201356000801b145b156109f15750600061064a565b6000610a1584846001818110610a0957610a09611cfa565b9050602002013561117b565b90506001816002811115610a2b57610a2b611bd8565b1415610a4557610a3d86868686611192565b91505061064a565b6002816002811115610a5957610a59611bd8565b1415610a6c57610a3d8787878787611260565b506000905061064a565b600054600160a81b900460ff16610a9a57600054600160a01b900460ff1615610a9e565b303b155b610b015760405162461bcd60e51b815260206004820152602e60248201527f496e697469616c697a61626c653a20636f6e747261637420697320616c72656160448201526d191e481a5b9a5d1a585b1a5e995960921b60648201526084016104ea565b600054600160a81b900460ff16158015610b2b576000805461ffff60a01b191661010160a01b1790555b610b3361130c565b610b3b611345565b609c80546001600160a01b03191690558015610b5f576000805460ff60a81b191690555b50565b610b6a61106b565b6001600160a01b0316610b856033546001600160a01b031690565b6001600160a01b031614610bab5760405162461bcd60e51b81526004016104ea90611cc5565b6108bb61137e565b610bbb61106b565b6001600160a01b0316610bd66033546001600160a01b031690565b6001600160a01b031614610bfc5760405162461bcd60e51b81526004016104ea90611cc5565b609c80546001600160a01b0319166001600160a01b0392909216919091179055565b600060986000610c2c61106b565b6001600160a01b031681526020810191909152604001600020600181015490915015610c8e5780600101548211610c8e5760405162461bcd60e51b8152602060048201526006602482015265214e4f4e434560d01b60448201526064016104ea565b80546001600160a01b0319166001600160a01b038616178155610cb5600282018585611835565b50600181018290556001600160a01b038516610ccf61106b565b6001600160a01b03167e0b4932fa91cc5ebcac0f9fb3ab2ae36eb6ba359cdd98d49954b5a700a21109848787604051610d0a93929190611d10565b60405180910390a35050505050565b600260996000610d2761106b565b6001600160a01b031681526020808201929092526040908101600090812063ffffffff871682529092529020805460ff19166001836002811115610d6d57610d6d611bd8565b021790555080609a6000610d7f61106b565b6001600160a01b031681526020808201929092526040908101600090812063ffffffff87811680845291909452919020805463ffffffff191693909216929092179055610dca61106b565b60405163ffffffff841681526001600160a01b0391909116907fb14722ab80cf12b24122b69280630813ed38d597d93a29801fa9087cb8968a5d9060200160405180910390a35050565b6040516370a0823160e01b81526001600160a01b0383166004820152600090606083901c90605884901c60ff1690839083906370a082319060240160206040518083038186803b158015610e6757600080fd5b505afa158015610e7b573d6000803e3d6000fd5b505050506040513d601f19601f82011682018060405250810190610e9f9190611d46565b905060018260ff161115610ec557610eb882600a611e43565b610ec29082611e52565b90505b67ffffffffffffffff851611159250505092915050565b610ee461106b565b6001600160a01b0316610eff6033546001600160a01b031690565b6001600160a01b031614610f255760405162461bcd60e51b81526004016104ea90611cc5565b609780546001600160a01b0319166001600160a01b0392909216919091179055565b610f4f61106b565b6001600160a01b0316610f6a6033546001600160a01b031690565b6001600160a01b031614610f905760405162461bcd60e51b81526004016104ea90611cc5565b600080546001600160a01b0319166001600160a01b03831617905550565b610fb661106b565b6001600160a01b0316610fd16033546001600160a01b031690565b6001600160a01b031614610ff75760405162461bcd60e51b81526004016104ea90611cc5565b6001600160a01b03811661105c5760405162461bcd60e51b815260206004820152602660248201527f4f776e61626c653a206e6577206f776e657220697320746865207a65726f206160448201526564647265737360d01b60648201526084016104ea565b610b5f81611113565b3b151590565b60006110756113fa565b905090565b60655460ff166110c35760405162461bcd60e51b815260206004820152601460248201527314185d5cd8589b194e881b9bdd081c185d5cd95960621b60448201526064016104ea565b6065805460ff191690557f5db9ee0a495bf2e6ff9c91a7834c1ba4fdd244a5e8aa4e537bd38aeae4b073aa6110f661106b565b6040516001600160a01b03909116815260200160405180910390a1565b603380546001600160a01b038381166001600160a01b0319831681179093556040519116919082907f8be0079c531659141344cd1fd0a4f28419497f9722a3daafe3b4186f6b6457e090600090a35050565b600082611172858461142e565b14949350505050565b600060ff8216600281111561045d5761045d611bd8565b600060038210806111be5750828260008181106111b1576111b1611cfa565b905060200201356000801b145b156111cb57506000610976565b6000838360008181106111e0576111e0611cfa565b905060200201356040516020016111f991815260200190565b60405160208183030381529060405280519060200120905061121c8185856114da565b801561124857506112488187878787600181811061123c5761123c611cfa565b905060200201356115bf565b15611254579050610976565b50600095945050505050565b6000600382108061128c57508282600081811061127f5761127f611cfa565b905060200201356000801b145b156112995750600061064a565b6000838360008181106112ae576112ae611cfa565b9050602002013590506112c28185856114da565b80156112d357506112d38782610e14565b80156112f357506112f38187878787600181811061123c5761123c611cfa565b156112ff57905061064a565b5060009695505050505050565b600054600160a81b900460ff166113355760405162461bcd60e51b81526004016104ea90611e74565b61133d6116b6565b6108bb6116df565b600054600160a81b900460ff1661136e5760405162461bcd60e51b81526004016104ea90611e74565b6113766116b6565b6108bb611718565b60655460ff16156113c45760405162461bcd60e51b815260206004820152601060248201526f14185d5cd8589b194e881c185d5cd95960821b60448201526064016104ea565b6065805460ff191660011790557f62e78cea01bee320cd4e420270b5ea74000d11b0c9f74754ebdbfc544b05a2586110f661106b565b60006014361080159061141757506000546001600160a01b031633145b15611429575060131936013560601c90565b503390565b600081815b84518110156114d257600085828151811061145057611450611cfa565b602002602001015190508083116114925760408051602081018590529081018290526060016040516020818303038152906040528051906020012092506114bf565b60408051602081018390529081018490526060016040516020818303038152906040528051906020012092505b50806114ca81611ebf565b915050611433565b509392505050565b600060038210806115065750828260008181106114f9576114f9611cfa565b905060200201356000801b145b15611513575060006109b1565b6040805160008152602081019091526004831061156c576115378360038187611eda565b808060200260200160405190810160405280939291908181526020018383602002808284376000920191909152509293505050505b61064a818585600281811061158357611583611cfa565b90506020020135878787600181811061159e5761159e611cfa565b90506020020135604051602001610958929190918252602082015260400190565b6000806115cb8361174d565b9050806080015163ffffffff16600014806115f557508363ffffffff16816080015163ffffffff16145b80156116515750606081015163ffffffff161580611651575060608101516001600160a01b0386166000908152609b60209081526040808320608086015163ffffffff90811685529083528184208b8552909252909120549116115b801561167f5750602081015163ffffffff16158061167f57504263ffffffff16816020015163ffffffff1610155b80156116ac5750604081015163ffffffff1615806116ac57504263ffffffff16816040015163ffffffff16105b9695505050505050565b600054600160a81b900460ff166108bb5760405162461bcd60e51b81526004016104ea90611e74565b600054600160a81b900460ff166117085760405162461bcd60e51b81526004016104ea90611e74565b6108bb61171361106b565b611113565b600054600160a81b900460ff166117415760405162461bcd60e51b81526004016104ea90611e74565b6065805460ff19169055565b6040805161010081018252600080825260208201819052918101829052606081018290526080810182905260a0810182905260c0810182905260e0810191909152604080516101008101825260a084811c825263ffffffff608086811c8216602080860191909152606088811c8416868801529588901c8316958501959095529386901c169282019290925261ffff601085901c169181019190915260f083901b9060c0810160ff8516600281111561180857611808611bd8565b600281111561181957611819611bd8565b8152600160f81b92831690921460209092019190915292915050565b82805461184190611c8a565b90600052602060002090601f01602090048101928261186357600085556118a9565b82601f1061187c5782800160ff198235161785556118a9565b828001600101855582156118a9579182015b828111156118a957823582559160200191906001019061188e565b506118b59291506118b9565b5090565b5b808211156118b557600081556001016118ba565b80356001600160a01b03811681146118e557600080fd5b919050565b803563ffffffff811681146118e557600080fd5b6000806040838503121561191157600080fd5b61191a836118ce565b9150611928602084016118ea565b90509250929050565b60006020828403121561194357600080fd5b6109b1826118ea565b60008083601f84011261195e57600080fd5b50813567ffffffffffffffff81111561197657600080fd5b6020830191508360208260051b850101111561199157600080fd5b9250929050565b6000806000806000608086880312156119b057600080fd5b6119b9866118ce565b94506119c7602087016118ce565b93506119d5604087016118ea565b9250606086013567ffffffffffffffff8111156119f157600080fd5b6119fd8882890161194c565b969995985093965092949392505050565b600060208284031215611a2057600080fd5b6109b1826118ce565b6000815180845260005b81811015611a4f57602081850181015186830182015201611a33565b81811115611a61576000602083870101525b50601f01601f19169290920160200192915050565b6020815260018060a01b03825116602082015260208201516040820152600060408301516060808401526109766080840182611a29565b6020815260006109b16020830184611a29565b60008060008060608587031215611ad657600080fd5b8435935060208501359250604085013567ffffffffffffffff811115611afb57600080fd5b611b078782880161194c565b95989497509550505050565b600080600060608486031215611b2857600080fd5b611b31846118ce565b9250611b3f602085016118ea565b9150604084013590509250925092565b60008060008060608587031215611b6557600080fd5b611b6e856118ce565b9350602085013567ffffffffffffffff80821115611b8b57600080fd5b818701915087601f830112611b9f57600080fd5b813581811115611bae57600080fd5b886020828501011115611bc057600080fd5b95986020929092019750949560400135945092505050565b634e487b7160e01b600052602160045260246000fd5b6020810160038310611c1057634e487b7160e01b600052602160045260246000fd5b91905290565b60008060408385031215611c2957600080fd5b61191a836118ea565b60008060408385031215611c4557600080fd5b611c4e836118ce565b946020939093013593505050565b634e487b7160e01b600052601160045260246000fd5b60008219821115611c8557611c85611c5c565b500190565b600181811c90821680611c9e57607f821691505b60208210811415611cbf57634e487b7160e01b600052602260045260246000fd5b50919050565b6020808252818101527f4f776e61626c653a2063616c6c6572206973206e6f7420746865206f776e6572604082015260600190565b634e487b7160e01b600052603260045260246000fd5b83815260406020820152816040820152818360608301376000818301606090810191909152601f909201601f1916010192915050565b600060208284031215611d5857600080fd5b5051919050565b600181815b80851115611d9a578160001904821115611d8057611d80611c5c565b80851615611d8d57918102915b93841c9390800290611d64565b509250929050565b600082611db15750600161045d565b81611dbe5750600061045d565b8160018114611dd45760028114611dde57611dfa565b600191505061045d565b60ff841115611def57611def611c5c565b50506001821b61045d565b5060208310610133831016604e8410600b8410161715611e1d575081810a61045d565b611e278383611d5f565b8060001904821115611e3b57611e3b611c5c565b029392505050565b60006109b160ff841683611da2565b600082611e6f57634e487b7160e01b600052601260045260246000fd5b500490565b6020808252602b908201527f496e697469616c697a61626c653a20636f6e7472616374206973206e6f74206960408201526a6e697469616c697a696e6760a81b606082015260800190565b6000600019821415611ed357611ed3611c5c565b5060010190565b60008085851115611eea57600080fd5b83861115611ef757600080fd5b5050600583901b019391909203915056fea264697066735822122037092044eb45e9ca8c199443b23ed30fb6ce56c91febd66ddbc3247633f9432364736f6c63430008090033",
  "devdoc": {
    "kind": "dev",
    "methods": {
      "constructor": {
        "custom:oz-upgrades-unsafe-allow": "constructor"
      },
      "owner()": {
        "details": "Returns the address of the current owner."
      },
      "paused()": {
        "details": "Returns true if the contract is paused, and false otherwise."
      },
      "renounceOwnership()": {
        "details": "Leaves the contract without owner. It will not be possible to call `onlyOwner` functions anymore. Can only be called by the current owner. NOTE: Renouncing ownership will leave the contract without an owner, thereby removing any functionality that is only available to the owner."
      },
      "transferOwnership(address)": {
        "details": "Transfers ownership of the contract to a new account (`newOwner`). Can only be called by the current owner."
      }
    },
    "stateVariables": {
      "discountRedemptions": {
        "details": "Maps for discounts. "
      },
      "planStatus": {
        "details": "Map for current plan status. "
      },
      "providerProfiles": {
        "details": "Map for provider to profile info. "
      },
      "subscriptionManager": {
        "details": "Address of subscription manager. "
      },
      "subscriptions": {
        "details": "Address of subscriptions contract. "
      }
    },
    "version": 1
  },
  "userdoc": {
    "kind": "user",
    "methods": {
      "isTrustedForwarder(address)": {
        "notice": "return if the forwarder is trusted to forward relayed transactions to us. the forwarder is required to verify the sender's signature, and verify the call is not a replay."
      }
    },
    "version": 1
  },
  "storageLayout": {
    "storage": [
      {
        "astId": 72,
        "contract": "contracts/protocol/CaskSubscriptionPlans.sol:CaskSubscriptionPlans",
        "label": "_trustedForwarder",
        "offset": 0,
        "slot": "0",
        "type": "t_address"
      },
      {
        "astId": 327,
        "contract": "contracts/protocol/CaskSubscriptionPlans.sol:CaskSubscriptionPlans",
        "label": "_initialized",
        "offset": 20,
        "slot": "0",
        "type": "t_bool"
      },
      {
        "astId": 330,
        "contract": "contracts/protocol/CaskSubscriptionPlans.sol:CaskSubscriptionPlans",
        "label": "_initializing",
        "offset": 21,
        "slot": "0",
        "type": "t_bool"
      },
      {
        "astId": 2551,
        "contract": "contracts/protocol/CaskSubscriptionPlans.sol:CaskSubscriptionPlans",
        "label": "__gap",
        "offset": 0,
        "slot": "1",
        "type": "t_array(t_uint256)50_storage"
      },
      {
        "astId": 205,
        "contract": "contracts/protocol/CaskSubscriptionPlans.sol:CaskSubscriptionPlans",
        "label": "_owner",
        "offset": 0,
        "slot": "51",
        "type": "t_address"
      },
      {
        "astId": 319,
        "contract": "contracts/protocol/CaskSubscriptionPlans.sol:CaskSubscriptionPlans",
        "label": "__gap",
        "offset": 0,
        "slot": "52",
        "type": "t_array(t_uint256)49_storage"
      },
      {
        "astId": 415,
        "contract": "contracts/protocol/CaskSubscriptionPlans.sol:CaskSubscriptionPlans",
        "label": "_paused",
        "offset": 0,
        "slot": "101",
        "type": "t_bool"
      },
      {
        "astId": 506,
        "contract": "contracts/protocol/CaskSubscriptionPlans.sol:CaskSubscriptionPlans",
        "label": "__gap",
        "offset": 0,
        "slot": "102",
        "type": "t_array(t_uint256)49_storage"
      },
      {
        "astId": 9843,
        "contract": "contracts/protocol/CaskSubscriptionPlans.sol:CaskSubscriptionPlans",
        "label": "subscriptionManager",
        "offset": 0,
        "slot": "151",
        "type": "t_address"
      },
      {
        "astId": 9849,
        "contract": "contracts/protocol/CaskSubscriptionPlans.sol:CaskSubscriptionPlans",
        "label": "providerProfiles",
        "offset": 0,
        "slot": "152",
        "type": "t_mapping(t_address,t_struct(Provider)7289_storage)"
      },
      {
        "astId": 9857,
        "contract": "contracts/protocol/CaskSubscriptionPlans.sol:CaskSubscriptionPlans",
        "label": "planStatus",
        "offset": 0,
        "slot": "153",
        "type": "t_mapping(t_address,t_mapping(t_uint32,t_enum(PlanStatus)7260))"
      },
      {
        "astId": 9863,
        "contract": "contracts/protocol/CaskSubscriptionPlans.sol:CaskSubscriptionPlans",
        "label": "planEol",
        "offset": 0,
        "slot": "154",
        "type": "t_mapping(t_address,t_mapping(t_uint32,t_uint32))"
      },
      {
        "astId": 9872,
        "contract": "contracts/protocol/CaskSubscriptionPlans.sol:CaskSubscriptionPlans",
        "label": "discountRedemptions",
        "offset": 0,
        "slot": "155",
        "type": "t_mapping(t_address,t_mapping(t_uint32,t_mapping(t_bytes32,t_uint256)))"
      },
      {
        "astId": 9875,
        "contract": "contracts/protocol/CaskSubscriptionPlans.sol:CaskSubscriptionPlans",
        "label": "subscriptions",
        "offset": 0,
        "slot": "156",
        "type": "t_address"
      }
    ],
    "types": {
      "t_address": {
        "encoding": "inplace",
        "label": "address",
        "numberOfBytes": "20"
      },
      "t_array(t_uint256)49_storage": {
        "base": "t_uint256",
        "encoding": "inplace",
        "label": "uint256[49]",
        "numberOfBytes": "1568"
      },
      "t_array(t_uint256)50_storage": {
        "base": "t_uint256",
        "encoding": "inplace",
        "label": "uint256[50]",
        "numberOfBytes": "1600"
      },
      "t_bool": {
        "encoding": "inplace",
        "label": "bool",
        "numberOfBytes": "1"
      },
      "t_bytes32": {
        "encoding": "inplace",
        "label": "bytes32",
        "numberOfBytes": "32"
      },
      "t_enum(PlanStatus)7260": {
        "encoding": "inplace",
        "label": "enum ICaskSubscriptionPlans.PlanStatus",
        "numberOfBytes": "1"
      },
      "t_mapping(t_address,t_mapping(t_uint32,t_enum(PlanStatus)7260))": {
        "encoding": "mapping",
        "key": "t_address",
        "label": "mapping(address => mapping(uint32 => enum ICaskSubscriptionPlans.PlanStatus))",
        "numberOfBytes": "32",
        "value": "t_mapping(t_uint32,t_enum(PlanStatus)7260)"
      },
      "t_mapping(t_address,t_mapping(t_uint32,t_mapping(t_bytes32,t_uint256)))": {
        "encoding": "mapping",
        "key": "t_address",
        "label": "mapping(address => mapping(uint32 => mapping(bytes32 => uint256)))",
        "numberOfBytes": "32",
        "value": "t_mapping(t_uint32,t_mapping(t_bytes32,t_uint256))"
      },
      "t_mapping(t_address,t_mapping(t_uint32,t_uint32))": {
        "encoding": "mapping",
        "key": "t_address",
        "label": "mapping(address => mapping(uint32 => uint32))",
        "numberOfBytes": "32",
        "value": "t_mapping(t_uint32,t_uint32)"
      },
      "t_mapping(t_address,t_struct(Provider)7289_storage)": {
        "encoding": "mapping",
        "key": "t_address",
        "label": "mapping(address => struct ICaskSubscriptionPlans.Provider)",
        "numberOfBytes": "32",
        "value": "t_struct(Provider)7289_storage"
      },
      "t_mapping(t_bytes32,t_uint256)": {
        "encoding": "mapping",
        "key": "t_bytes32",
        "label": "mapping(bytes32 => uint256)",
        "numberOfBytes": "32",
        "value": "t_uint256"
      },
      "t_mapping(t_uint32,t_enum(PlanStatus)7260)": {
        "encoding": "mapping",
        "key": "t_uint32",
        "label": "mapping(uint32 => enum ICaskSubscriptionPlans.PlanStatus)",
        "numberOfBytes": "32",
        "value": "t_enum(PlanStatus)7260"
      },
      "t_mapping(t_uint32,t_mapping(t_bytes32,t_uint256))": {
        "encoding": "mapping",
        "key": "t_uint32",
        "label": "mapping(uint32 => mapping(bytes32 => uint256))",
        "numberOfBytes": "32",
        "value": "t_mapping(t_bytes32,t_uint256)"
      },
      "t_mapping(t_uint32,t_uint32)": {
        "encoding": "mapping",
        "key": "t_uint32",
        "label": "mapping(uint32 => uint32)",
        "numberOfBytes": "32",
        "value": "t_uint32"
      },
      "t_string_storage": {
        "encoding": "bytes",
        "label": "string",
        "numberOfBytes": "32"
      },
      "t_struct(Provider)7289_storage": {
        "encoding": "inplace",
        "label": "struct ICaskSubscriptionPlans.Provider",
        "members": [
          {
            "astId": 7284,
            "contract": "contracts/protocol/CaskSubscriptionPlans.sol:CaskSubscriptionPlans",
            "label": "paymentAddress",
            "offset": 0,
            "slot": "0",
            "type": "t_address"
          },
          {
            "astId": 7286,
            "contract": "contracts/protocol/CaskSubscriptionPlans.sol:CaskSubscriptionPlans",
            "label": "nonce",
            "offset": 0,
            "slot": "1",
            "type": "t_uint256"
          },
          {
            "astId": 7288,
            "contract": "contracts/protocol/CaskSubscriptionPlans.sol:CaskSubscriptionPlans",
            "label": "cid",
            "offset": 0,
            "slot": "2",
            "type": "t_string_storage"
          }
        ],
        "numberOfBytes": "96"
      },
      "t_uint256": {
        "encoding": "inplace",
        "label": "uint256",
        "numberOfBytes": "32"
      },
      "t_uint32": {
        "encoding": "inplace",
        "label": "uint32",
        "numberOfBytes": "4"
      }
    }
  }
}