{
  "address": "0x8fF8AD0B1d14ed132308b98FF1669a89F9763244",
  "abi": [
    {
      "inputs": [],
      "stateMutability": "nonpayable",
      "type": "constructor"
    },
    {
      "anonymous": false,
      "inputs": [
        {
          "indexed": true,
          "internalType": "address",
          "name": "previousOwner",
          "type": "address"
        },
        {
          "indexed": true,
          "internalType": "address",
          "name": "newOwner",
          "type": "address"
        }
      ],
      "name": "OwnershipTransferred",
      "type": "event"
    },
    {
      "anonymous": false,
      "inputs": [
        {
          "indexed": false,
          "internalType": "address",
          "name": "account",
          "type": "address"
        }
      ],
      "name": "Paused",
      "type": "event"
    },
    {
      "anonymous": false,
      "inputs": [],
      "name": "SetParameters",
      "type": "event"
    },
    {
      "anonymous": false,
      "inputs": [
        {
          "indexed": false,
          "internalType": "uint256",
          "name": "limit",
          "type": "uint256"
        },
        {
          "indexed": false,
          "internalType": "uint256",
          "name": "renewals",
          "type": "uint256"
        },
        {
          "indexed": false,
          "internalType": "uint256",
          "name": "depth",
          "type": "uint256"
        },
        {
          "indexed": false,
          "internalType": "enum ICaskSubscriptionManager.CheckType",
          "name": "checkType",
          "type": "uint8"
        },
        {
          "indexed": false,
          "internalType": "uint256",
          "name": "queueRemaining",
          "type": "uint256"
        },
        {
          "indexed": false,
          "internalType": "uint32",
          "name": "currentBucket",
          "type": "uint32"
        }
      ],
      "name": "SubscriptionManagerReport",
      "type": "event"
    },
    {
      "anonymous": false,
      "inputs": [
        {
          "indexed": false,
          "internalType": "address",
          "name": "account",
          "type": "address"
        }
      ],
      "name": "Unpaused",
      "type": "event"
    },
    {
      "inputs": [
        {
          "internalType": "bytes",
          "name": "checkData",
          "type": "bytes"
        }
      ],
      "name": "checkUpkeep",
      "outputs": [
        {
          "internalType": "bool",
          "name": "upkeepNeeded",
          "type": "bool"
        },
        {
          "internalType": "bytes",
          "name": "performData",
          "type": "bytes"
        }
      ],
      "stateMutability": "view",
      "type": "function"
    },
    {
      "inputs": [
        {
          "internalType": "address",
          "name": "_vault",
          "type": "address"
        },
        {
          "internalType": "address",
          "name": "_subscriptionPlans",
          "type": "address"
        },
        {
          "internalType": "address",
          "name": "_subscriptions",
          "type": "address"
        }
      ],
      "name": "initialize",
      "outputs": [],
      "stateMutability": "nonpayable",
      "type": "function"
    },
    {
      "inputs": [],
      "name": "owner",
      "outputs": [
        {
          "internalType": "address",
          "name": "",
          "type": "address"
        }
      ],
      "stateMutability": "view",
      "type": "function"
    },
    {
      "inputs": [],
      "name": "pause",
      "outputs": [],
      "stateMutability": "nonpayable",
      "type": "function"
    },
    {
      "inputs": [],
      "name": "paused",
      "outputs": [
        {
          "internalType": "bool",
          "name": "",
          "type": "bool"
        }
      ],
      "stateMutability": "view",
      "type": "function"
    },
    {
      "inputs": [],
      "name": "paymentFeeMin",
      "outputs": [
        {
          "internalType": "uint256",
          "name": "",
          "type": "uint256"
        }
      ],
      "stateMutability": "view",
      "type": "function"
    },
    {
      "inputs": [],
      "name": "paymentFeeRateMax",
      "outputs": [
        {
          "internalType": "uint256",
          "name": "",
          "type": "uint256"
        }
      ],
      "stateMutability": "view",
      "type": "function"
    },
    {
      "inputs": [],
      "name": "paymentFeeRateMin",
      "outputs": [
        {
          "internalType": "uint256",
          "name": "",
          "type": "uint256"
        }
      ],
      "stateMutability": "view",
      "type": "function"
    },
    {
      "inputs": [],
      "name": "paymentMinValue",
      "outputs": [
        {
          "internalType": "uint256",
          "name": "",
          "type": "uint256"
        }
      ],
      "stateMutability": "view",
      "type": "function"
    },
    {
      "inputs": [],
      "name": "paymentRetryDelay",
      "outputs": [
        {
          "internalType": "uint32",
          "name": "",
          "type": "uint32"
        }
      ],
      "stateMutability": "view",
      "type": "function"
    },
    {
      "inputs": [
        {
          "internalType": "bytes",
          "name": "performData",
          "type": "bytes"
        }
      ],
      "name": "performUpkeep",
      "outputs": [],
      "stateMutability": "nonpayable",
      "type": "function"
    },
    {
      "inputs": [],
      "name": "processBucketSize",
      "outputs": [
        {
          "internalType": "uint32",
          "name": "",
          "type": "uint32"
        }
      ],
      "stateMutability": "view",
      "type": "function"
    },
    {
      "inputs": [
        {
          "internalType": "address",
          "name": "_consumer",
          "type": "address"
        },
        {
          "internalType": "address",
          "name": "_provider",
          "type": "address"
        },
        {
          "internalType": "uint256",
          "name": "_subscriptionId",
          "type": "uint256"
        },
        {
          "internalType": "uint256",
          "name": "_value",
          "type": "uint256"
        }
      ],
      "name": "processSinglePayment",
      "outputs": [
        {
          "internalType": "bool",
          "name": "",
          "type": "bool"
        }
      ],
      "stateMutability": "nonpayable",
      "type": "function"
    },
    {
      "inputs": [
        {
          "internalType": "enum ICaskSubscriptionManager.CheckType",
          "name": "_checkType",
          "type": "uint8"
        },
        {
          "internalType": "uint32",
          "name": "_bucket",
          "type": "uint32"
        },
        {
          "internalType": "uint256",
          "name": "_idx",
          "type": "uint256"
        }
      ],
      "name": "queueItem",
      "outputs": [
        {
          "internalType": "uint256",
          "name": "",
          "type": "uint256"
        }
      ],
      "stateMutability": "view",
      "type": "function"
    },
    {
      "inputs": [
        {
          "internalType": "enum ICaskSubscriptionManager.CheckType",
          "name": "_checkType",
          "type": "uint8"
        }
      ],
      "name": "queuePosition",
      "outputs": [
        {
          "internalType": "uint32",
          "name": "",
          "type": "uint32"
        }
      ],
      "stateMutability": "view",
      "type": "function"
    },
    {
      "inputs": [
        {
          "internalType": "enum ICaskSubscriptionManager.CheckType",
          "name": "_checkType",
          "type": "uint8"
        },
        {
          "internalType": "uint32",
          "name": "_bucket",
          "type": "uint32"
        }
      ],
      "name": "queueSize",
      "outputs": [
        {
          "internalType": "uint256",
          "name": "",
          "type": "uint256"
        }
      ],
      "stateMutability": "view",
      "type": "function"
    },
    {
      "inputs": [
        {
          "internalType": "uint256",
          "name": "_subscriptionId",
          "type": "uint256"
        }
      ],
      "name": "renewSubscription",
      "outputs": [],
      "stateMutability": "nonpayable",
      "type": "function"
    },
    {
      "inputs": [],
      "name": "renounceOwnership",
      "outputs": [],
      "stateMutability": "nonpayable",
      "type": "function"
    },
    {
      "inputs": [
        {
          "internalType": "uint256",
          "name": "_paymentMinValue",
          "type": "uint256"
        },
        {
          "internalType": "uint256",
          "name": "_paymentFeeMin",
          "type": "uint256"
        },
        {
          "internalType": "uint256",
          "name": "_paymentFeeRateMin",
          "type": "uint256"
        },
        {
          "internalType": "uint256",
          "name": "_paymentFeeRateMax",
          "type": "uint256"
        },
        {
          "internalType": "uint256",
          "name": "_stakeTargetFactor",
          "type": "uint256"
        },
        {
          "internalType": "uint32",
          "name": "_processBucketSize",
          "type": "uint32"
        },
        {
          "internalType": "uint32",
          "name": "_processBucketMaxAge",
          "type": "uint32"
        },
        {
          "internalType": "uint32",
          "name": "_paymentRetryDelay",
          "type": "uint32"
        }
      ],
      "name": "setParameters",
      "outputs": [],
      "stateMutability": "nonpayable",
      "type": "function"
    },
    {
      "inputs": [
        {
          "internalType": "enum ICaskSubscriptionManager.CheckType",
          "name": "_checkType",
          "type": "uint8"
        },
        {
          "internalType": "uint32",
          "name": "_timestamp",
          "type": "uint32"
        }
      ],
      "name": "setProcessingBucket",
      "outputs": [],
      "stateMutability": "nonpayable",
      "type": "function"
    },
    {
      "inputs": [],
      "name": "stakeTargetFactor",
      "outputs": [
        {
          "internalType": "uint256",
          "name": "",
          "type": "uint256"
        }
      ],
      "stateMutability": "view",
      "type": "function"
    },
    {
      "inputs": [],
      "name": "subscriptionPlans",
      "outputs": [
        {
          "internalType": "contract ICaskSubscriptionPlans",
          "name": "",
          "type": "address"
        }
      ],
      "stateMutability": "view",
      "type": "function"
    },
    {
      "inputs": [],
      "name": "subscriptions",
      "outputs": [
        {
          "internalType": "contract ICaskSubscriptions",
          "name": "",
          "type": "address"
        }
      ],
      "stateMutability": "view",
      "type": "function"
    },
    {
      "inputs": [
        {
          "internalType": "address",
          "name": "newOwner",
          "type": "address"
        }
      ],
      "name": "transferOwnership",
      "outputs": [],
      "stateMutability": "nonpayable",
      "type": "function"
    },
    {
      "inputs": [],
      "name": "unpause",
      "outputs": [],
      "stateMutability": "nonpayable",
      "type": "function"
    },
    {
      "inputs": [],
      "name": "vault",
      "outputs": [
        {
          "internalType": "contract ICaskVault",
          "name": "",
          "type": "address"
        }
      ],
      "stateMutability": "view",
      "type": "function"
    }
  ],
  "transactionHash": "0x37631c4d938e53d6878bce87cab1054cc42f051e2dc2d032f30e9b61f611a34c",
  "args": [],
  "numDeployments": 5,
  "solcInputHash": "23e5945223b9711445ca29f7f02872e9",
  "bytecode": "0x60806040523480156200001157600080fd5b50600054610100900460ff166200002f5760005460ff161562000039565b62000039620000de565b620000a15760405162461bcd60e51b815260206004820152602e60248201527f496e697469616c697a61626c653a20636f6e747261637420697320616c72656160448201526d191e481a5b9a5d1a585b1a5e995960921b606482015260840160405180910390fd5b600054610100900460ff16158015620000c4576000805461ffff19166101011790555b8015620000d7576000805461ff00191690555b5062000102565b6000620000f630620000fc60201b6200124c1760201c565b15905090565b3b151590565b612ff280620001126000396000f3fe608060405234801561001057600080fd5b506004361061018e5760003560e01c806393357f58116100de578063c0c53b8b11610097578063d71bb37b11610071578063d71bb37b1461032d578063eab01b8014610340578063f2fde38b14610358578063fbfa77cf1461036b57600080fd5b8063c0c53b8b146102fe578063c54c58c414610311578063c83cbe891461032457600080fd5b806393357f58146102995780639bf4654e146102a9578063a76d67b8146102bc578063aa878f76146102cf578063b8e381e5146102e2578063badf4b3e146102f557600080fd5b80634585e33b1161014b578063715018a611610125578063715018a6146102515780638456cb59146102595780638da5cb5b146102615780638fe17b161461028657600080fd5b80634585e33b146102065780635c975abb146102195780636e04ff0d1461023057600080fd5b806308e27a991461019357806314fad707146101af5780631c39033c146101c2578063219e24c5146101ea5780633d3ce926146101f35780633f4ba83a146101fc575b600080fd5b61019c609d5481565b6040519081526020015b60405180910390f35b61019c6101bd36600461267b565b61037e565b6101d56101d03660046126bc565b6103f8565b60405163ffffffff90911681526020016101a6565b61019c609b5481565b61019c60a15481565b61020461043e565b005b6102046102143660046126d9565b61047b565b60655460ff165b60405190151581526020016101a6565b61024361023e3660046126d9565b6109c6565b6040516101a6929190612777565b610204610bd0565b610204610c04565b6033546001600160a01b03165b6040516001600160a01b0390911681526020016101a6565b60975461026e906001600160a01b031681565b609e546101d59063ffffffff1681565b6102046102b73660046127b3565b610c36565b6102046102ca36600461282f565b610e5e565b61019c6102dd36600461282f565b610ee8565b60985461026e906001600160a01b031681565b61019c609c5481565b61020461030c36600461287d565b610f3d565b61022061031f3660046128c8565b611120565b61019c609a5481565b61020461033b36600461290e565b611185565b60a2546101d590640100000000900463ffffffff1681565b610204610366366004612927565b6111b4565b60995461026e906001600160a01b031681565b6000609f600085600281111561039657610396612944565b60028111156103a7576103a7612944565b815260200190815260200160002060008463ffffffff1663ffffffff16815260200190815260200160002082815481106103e3576103e361295a565b906000526020600020015490505b9392505050565b600060a0600083600281111561041057610410612944565b600281111561042157610421612944565b815260208101919091526040016000205463ffffffff1692915050565b6033546001600160a01b031633146104715760405162461bcd60e51b815260040161046890612970565b60405180910390fd5b610479611252565b565b60655460ff161561049e5760405162461bcd60e51b8152600401610468906129a5565b600080806104ae848601866129cf565b92509250925060006104be6112e5565b90506000806104ce866005612a13565b905060a060008560028111156104e6576104e6612944565b60028111156104f7576104f7612944565b815260208101919091526040016000205463ffffffff16610567578260a0600086600281111561052957610529612944565b600281111561053a5761053a612944565b815260200190815260200160002060006101000a81548163ffffffff021916908363ffffffff1602179055505b85821080156105765750600081115b80156105c557508263ffffffff1660a0600086600281111561059a5761059a612944565b60028111156105ab576105ab612944565b815260208101919091526040016000205463ffffffff1611155b156108b6576000609f60008660028111156105e2576105e2612944565b60028111156105f3576105f3612944565b8152602001908152602001600020600060a0600088600281111561061957610619612944565b600281111561062a5761062a612944565b8152602080820192909252604090810160009081205463ffffffff168452918301939093529101902054905080156107d5576000609f600087600281111561067457610674612944565b600281111561068557610685612944565b8152602001908152602001600020600060a060008960028111156106ab576106ab612944565b60028111156106bc576106bc612944565b8152602080820192909252604090810160009081205463ffffffff16845291830193909352910190206106f0600184612a32565b815481106107005761070061295a565b90600052602060002001549050609f600087600281111561072357610723612944565b600281111561073457610734612944565b8152602001908152602001600020600060a0600089600281111561075a5761075a612944565b600281111561076b5761076b612944565b8152602080820192909252604090810160009081205463ffffffff16845291830193909352910190208054806107a3576107a3612a49565b600190038181906000526020600020016000905590556107c28161130d565b6107cd600185612a5f565b9350506108b0565b8363ffffffff1660a060008760028111156107f2576107f2612944565b600281111561080357610803612944565b815260208101919091526040016000205463ffffffff1610156108aa57609e5463ffffffff1660a0600087600281111561083f5761083f612944565b600281111561085057610850612944565b815260208101919091526040016000908120805490919061087890849063ffffffff16612a77565b92506101000a81548163ffffffff021916908363ffffffff1602179055506001826108a39190612a32565b91506108b0565b506108b6565b50610567565b7f75a64c7d044cacf7f5733a40d9f770446e4a977483bf14d9e58752255a62785386838787609f60008a60028111156108f1576108f1612944565b600281111561090257610902612944565b8152602001908152602001600020600060a060008c600281111561092857610928612944565b600281111561093957610939612944565b8152602080820192909252604090810160009081205463ffffffff1684529183019390935291018120549060a0908b600281111561097957610979612944565b600281111561098a5761098a612944565b8152602081019190915260409081016000205490516109b496959493929163ffffffff1690612ab3565b60405180910390a15050505050505050565b600060608180806109d9868801886129cf565b92509250925060006109e96112e5565b905060009550600060a06000846002811115610a0757610a07612944565b6002811115610a1857610a18612944565b815260208101919091526040016000205463ffffffff16905080610a395750805b8063ffffffff168263ffffffff1610158015610a6b575060a25463ffffffff16610a638284612af2565b63ffffffff16115b15610a795760019650610b58565b8163ffffffff168163ffffffff1611610b58576000609f6000856002811115610aa457610aa4612944565b6002811115610ab557610ab5612944565b81526020808201929092526040908101600090812063ffffffff86168252909252902054118015610b30575083609f6000856002811115610af857610af8612944565b6002811115610b0957610b09612944565b81526020808201929092526040908101600090812063ffffffff8616825290925290205410155b15610b3e5760019650610b58565b609e54610b519063ffffffff1682612a77565b9050610a79565b84609f6000856002811115610b6f57610b6f612944565b6002811115610b8057610b80612944565b81526020808201929092526040908101600090812063ffffffff861682528352819020549051610bb39392879101612b17565b604051602081830303815290604052955050505050509250929050565b6033546001600160a01b03163314610bfa5760405162461bcd60e51b815260040161046890612970565b6104796000611d25565b6033546001600160a01b03163314610c2e5760405162461bcd60e51b815260040161046890612970565b610479611d77565b6033546001600160a01b03163314610c605760405162461bcd60e51b815260040161046890612970565b6127108610610cb15760405162461bcd60e51b815260206004820152601b60248201527f21494e56414c4944287061796d656e74466565526174654d696e2900000000006044820152606401610468565b6127108510610d025760405162461bcd60e51b815260206004820152601b60248201527f21494e56414c4944287061796d656e74466565526174654d61782900000000006044820152606401610468565b60a1889055609a879055609b869055609c859055609d849055609e805463ffffffff191663ffffffff8581169190911790915560a2805484831667ffffffffffffffff199091161764010000000092841692909202919091179055610d9460a0600060015b6002811115610d7857610d78612944565b815260208101919091526040016000205463ffffffff16611dcf565b6001600090815260a060208190527f5e4aa62fc514c001129aba2f8cfdadfdbf7b1cca3faf4a1fee3af14b1315f0dd805463ffffffff191663ffffffff9490941693909317909255610de891906002610d67565b6002600090815260a06020527e3e94880a29ff53e6a8208a04e96e212c12922b7bda6b10d8c1979e9844e678805463ffffffff191663ffffffff93909316929092179091556040517f3b5fda6f71b960b21be0b432d9b7c87d9c8c996477ea1eba5c19cb77d1e027aa9190a15050505050505050565b6033546001600160a01b03163314610e885760405162461bcd60e51b815260040161046890612970565b610e9181611dcf565b60a06000846002811115610ea757610ea7612944565b6002811115610eb857610eb8612944565b815260200190815260200160002060006101000a81548163ffffffff021916908363ffffffff1602179055505050565b6000609f6000846002811115610f0057610f00612944565b6002811115610f1157610f11612944565b81526020808201929092526040908101600090812063ffffffff86168252909252902054905092915050565b600054610100900460ff16610f585760005460ff1615610f5c565b303b155b610fbf5760405162461bcd60e51b815260206004820152602e60248201527f496e697469616c697a61626c653a20636f6e747261637420697320616c72656160448201526d191e481a5b9a5d1a585b1a5e995960921b6064820152608401610468565b600054610100900460ff16158015610fe1576000805461ffff19166101011790555b610fe9611dff565b610ff1611e36565b609780546001600160a01b038086166001600160a01b031992831617909255609880548584169083161790556099805492871692909116919091179055600060a1819055609a819055609b819055609c819055609d55609e805463ffffffff191661012c17905560a2805465a8c000000e1067ffffffffffffffff1990911617905561107b6112e5565b600160005260a06020527f5e4aa62fc514c001129aba2f8cfdadfdbf7b1cca3faf4a1fee3af14b1315f0dd805463ffffffff191663ffffffff929092169190911790556110c66112e5565b600260005260a06020527e3e94880a29ff53e6a8208a04e96e212c12922b7bda6b10d8c1979e9844e678805463ffffffff191663ffffffff92909216919091179055801561111a576000805461ff00191690555b50505050565b6098546000906001600160a01b0316336001600160a01b03161461116e5760405162461bcd60e51b815260206004820152600560248201526404282aaa8960db1b6044820152606401610468565b61117a85858585611e6d565b90505b949350505050565b60655460ff16156111a85760405162461bcd60e51b8152600401610468906129a5565b6111b18161130d565b50565b6033546001600160a01b031633146111de5760405162461bcd60e51b815260040161046890612970565b6001600160a01b0381166112435760405162461bcd60e51b815260206004820152602660248201527f4f776e61626c653a206e6577206f776e657220697320746865207a65726f206160448201526564647265737360d01b6064820152608401610468565b6111b181611d25565b3b151590565b60655460ff1661129b5760405162461bcd60e51b815260206004820152601460248201527314185d5cd8589b194e881b9bdd081c185d5cd95960621b6044820152606401610468565b6065805460ff191690557f5db9ee0a495bf2e6ff9c91a7834c1ba4fdd244a5e8aa4e537bd38aeae4b073aa335b6040516001600160a01b03909116815260200160405180910390a1565b609e5460009042906112fd9063ffffffff1682612b48565b6113079082612af2565b91505090565b60985460405163dc311dd360e01b81526004810183905260009182916001600160a01b039091169063dc311dd39060240160006040518083038186803b15801561135657600080fd5b505afa15801561136a573d6000803e3d6000fd5b505050506040513d6000823e601f3d908101601f191682016040526113929190810190612c5d565b90925090504260038360c0015160068111156113b0576113b0612944565b14806113d1575060048360c0015160068111156113cf576113cf612944565b145b806113f1575060008360c0015160068111156113ef576113ef612944565b145b156113fc5750505050565b8063ffffffff1683610120015163ffffffff1611156114845760016000908152609f6020526101208401517fd8ebc4b3e3fc84fb7267bc9651f22e5107e8b4ddef6b7d4ac503c1ca7368470b919061145390611dcf565b63ffffffff168152602080820192909252604001600090812080546001810182559082529190200193909355505050565b60068360c00151600681111561149c5761149c612944565b141561150d57609854604051633efbd95560e11b81526001600160a01b0390911690637df7b2aa906114d5908790600690600401612db3565b600060405180830381600087803b1580156114ef57600080fd5b505af1158015611503573d6000803e3d6000fd5b5050505050505050565b600083610160015163ffffffff1611801561153957508063ffffffff1683610160015163ffffffff1611155b8061169e5750600260975460a085015160e086015160405163b6ab359f60e01b81526001600160a01b03928316600482015263ffffffff909116602482015291169063b6ab359f9060440160206040518083038186803b15801561159c57600080fd5b505afa1580156115b0573d6000803e3d6000fd5b505050506040513d601f19601f820116820180604052508101906115d49190612dd7565b60028111156115e5576115e5612944565b14801561169e575060975460a084015160e085015160405163025b687560e01b815263ffffffff8516936001600160a01b03169263025b687592611645926004016001600160a01b0392909216825263ffffffff16602082015260400190565b60206040518083038186803b15801561165d57600080fd5b505afa158015611671573d6000803e3d6000fd5b505050506040513d601f19601f820116820180604052508101906116959190612df4565b63ffffffff1611155b156116d657609854604051633efbd95560e11b81526001600160a01b0390911690637df7b2aa906114d5908790600290600401612db3565b60985460405163321b9a5560e21b8152600481018690526000916001600160a01b03169063c86e69549060240160206040518083038186803b15801561171b57600080fd5b505afa15801561172f573d6000803e3d6000fd5b505050506040513d601f19601f820116820180604052508101906117539190612e11565b111561184257609854604051633efbd95560e11b81526001600160a01b0390911690637df7b2aa9061178c908790600190600401612db3565b600060405180830381600087803b1580156117a657600080fd5b505af11580156117ba573d6000803e3d6000fd5b505060985460405163dc311dd360e01b8152600481018890526001600160a01b03909116925063dc311dd3915060240160006040518083038186803b15801561180257600080fd5b505afa158015611816573d6000803e3d6000fd5b505050506040513d6000823e601f3d908101601f1916820160405261183e9190810190612c5d565b5092505b600061185184600001516120e6565b80519091508061186357505050505050565b60408501511561199857600061187c86606001516121c1565b90508060a0015161ffff16600014806118c757508363ffffffff168160a0015161ffff1684604001516118af9190612e2a565b8761010001516118bf9190612a77565b63ffffffff16115b15611930576118db858760400151836122a9565b1561192b5760008160e0015161190a578151612710906118fb9085612a13565b6119059190612e56565b61190d565b81515b905080831161191d576000611927565b6119278184612a32565b9250505b611996565b609854604051633efbd95560e11b81526001600160a01b0390911690637df7b2aa90611963908a90600590600401612db3565b600060405180830381600087803b15801561197d57600080fd5b505af1158015611991573d6000803e3d6000fd5b505050505b505b60a1548110806119aa5750609a548111155b15611a1957609854604051633efbd95560e11b81526001600160a01b0390911690637df7b2aa906119e2908990600290600401612db3565b600060405180830381600087803b1580156119fc57600080fd5b505af1158015611a10573d6000803e3d6000fd5b50505050611d1d565b611a29848660a001518884611e6d565b15611b68578263ffffffff168260400151866101200151611a4a9190612a77565b63ffffffff161015611abd5760026000908152609f6020527f95684aba87c7afc0cb0825ce802e59a0c43a91e65441705f8ec2d377a306a58790611a8d85611dcf565b63ffffffff1681526020808201929092526040016000908120805460018101825590825291902001869055611b36565b60016000908152609f60205260408301516101208701517fd8ebc4b3e3fc84fb7267bc9651f22e5107e8b4ddef6b7d4ac503c1ca7368470b9291611b0a91611b059190612a77565b611dcf565b63ffffffff16815260208082019290925260400160009081208054600181018255908252919020018690555b609854604051633efbd95560e11b81526001600160a01b0390911690637df7b2aa906119e29089906004908101612db3565b60c0820151611b7d9060ff1662015180612e6a565b611b8c9062ffffff1684612af2565b63ffffffff1685610120015163ffffffff161015611bd757609854604051633efbd95560e11b81526001600160a01b0390911690637df7b2aa906119e2908990600290600401612db3565b60058560c001516006811115611bef57611bef612944565b14611ca35760026000908152609f60205260a2547f95684aba87c7afc0cb0825ce802e59a0c43a91e65441705f8ec2d377a306a5879190611c4290611b0590640100000000900463ffffffff1687612a77565b63ffffffff1681526020808201929092526040908101600090812080546001810182559082529290209091018790556098549051633efbd95560e11b81526001600160a01b0390911690637df7b2aa906119e2908990600390600401612db3565b60026000908152609f60205260a2547f95684aba87c7afc0cb0825ce802e59a0c43a91e65441705f8ec2d377a306a5879190611cf190611b0590640100000000900463ffffffff1687612a77565b63ffffffff16815260208082019290925260400160009081208054600181018255908252919020018690555b505050505050565b603380546001600160a01b038381166001600160a01b0319831681179093556040519116919082907f8be0079c531659141344cd1fd0a4f28419497f9722a3daafe3b4186f6b6457e090600090a35050565b60655460ff1615611d9a5760405162461bcd60e51b8152600401610468906129a5565b6065805460ff191660011790557f62e78cea01bee320cd4e420270b5ea74000d11b0c9f74754ebdbfc544b05a2586112c83390565b609e5460009063ffffffff16611de58184612b48565b611def9084612af2565b611df99190612a77565b92915050565b600054610100900460ff16611e265760405162461bcd60e51b815260040161046890612e8c565b611e2e612386565b6104796123ad565b600054610100900460ff16611e5d5760405162461bcd60e51b815260040161046890612e8c565b611e65612386565b6104796123dd565b60985460405163dc311dd360e01b81526004810184905260009182916001600160a01b039091169063dc311dd39060240160006040518083038186803b158015611eb657600080fd5b505afa158015611eca573d6000803e3d6000fd5b505050506040513d6000823e601f3d908101601f19168201604052611ef29190810190612c5d565b50609c54609d54919250901561203157600080611f1284600001516120e6565b9050811561202e576000620151808260400151611f2f9190612ed7565b611f3b9061016d612ed7565b609d5460985460a08801516040516374c1443960e01b81526001600160a01b0391821660048201526000602482018190526044820181905263ffffffff95909516955085939291909116906374c144399060640160206040518083038186803b158015611fa757600080fd5b505afa158015611fbb573d6000803e3d6000fd5b505050506040513d601f19601f82011682018060405250810190611fdf9190612e11565b611fe99190612a13565b611ff39190612a13565b9050611fff8185612e56565b609c5461200c9190612a13565b609c546120199190612a32565b9450609b5485101561202b57609b5494505b50505b50505b609754604051630782fb5960e31b81526001600160a01b0388811660048301526000921690633c17dac89060240160006040518083038186803b15801561207757600080fd5b505afa15801561208b573d6000803e3d6000fd5b505050506040513d6000823e601f3d908101601f191682016040526120b39190810190612efa565b805190915087906001600160a01b0316156120cc575080515b6120d9848a838987612410565b9998505050505050505050565b6040805161012081018252600080825260208201819052918101829052606081018290526080810182905260a0810182905260c0810182905260e0810182905261010081019190915250604080516101208101825260a083811c8252608084811c63ffffffff908116602080860191909152606087811c8316868801529587901c8216958501959095529385901c90931692820192909252601083901c61ffff1691810191909152600882901c60ff1660c082015260f89190911b600160f81b8181161460e0830152600160f91b9081161461010082015290565b6040805161010081018252600080825260208201819052918101829052606081018290526080810182905260a0810182905260c0810182905260e0810191909152604080516101008101825260a084811c825263ffffffff608086811c8216602080860191909152606088811c8416868801529588901c8316958501959095529386901c169282019290925261ffff601085901c169181019190915260f083901b9060c0810160ff8516600281111561227c5761227c612944565b600281111561228d5761228d612944565b8152600160f81b92831690921460209092019190915292915050565b600060018260c0015160028111156122c3576122c3612944565b14156122d1575060016103f1565b60028260c0015160028111156122e9576122e9612944565b141561237c5760975460405163cd1402e760e01b81526001600160a01b038681166004830152602482018690529091169063cd1402e790604401602060405180830381600087803b15801561233d57600080fd5b505af1158015612351573d6000803e3d6000fd5b505050506040513d601f19601f820116820180604052508101906123759190612f9a565b90506103f1565b5060009392505050565b600054610100900460ff166104795760405162461bcd60e51b815260040161046890612e8c565b600054610100900460ff166123d45760405162461bcd60e51b815260040161046890612e8c565b61047933611d25565b600054610100900460ff166124045760405162461bcd60e51b815260040161046890612e8c565b6065805460ff19169055565b6000806127106124208486612a13565b61242a9190612e56565b9050609a5481101561243b5750609a545b602087015115612591576000612487886020015160408051808201909152600080825260208201525060408051808201909152606082901c815260509190911c61ffff16602082015290565b90506000612710826020015161ffff16876124a29190612a13565b6124ac9190612e56565b90506124b88184612a5f565b86116124f75760405162461bcd60e51b815260206004820152600e60248201526d2156414c55455f544f4f5f4c4f5760901b6044820152606401610468565b60995482516040516379b2125f60e01b81526001600160a01b038b811660048301528a81166024830152604482018a905260648201879052918216608482015260a481018490529116906379b2125f9060c401600060405180830381600087803b15801561256457600080fd5b505af1925050508015612575575060015b6125855760009350505050612653565b60019350505050612653565b8084116125d15760405162461bcd60e51b815260206004820152600e60248201526d2156414c55455f544f4f5f4c4f5760901b6044820152606401610468565b60995460405163fcd6a25b60e01b81526001600160a01b038881166004830152878116602483015260448201879052606482018490529091169063fcd6a25b90608401600060405180830381600087803b15801561262e57600080fd5b505af192505050801561263f575060015b61264d576000915050612653565b60019150505b95945050505050565b600381106111b157600080fd5b63ffffffff811681146111b157600080fd5b60008060006060848603121561269057600080fd5b833561269b8161265c565b925060208401356126ab81612669565b929592945050506040919091013590565b6000602082840312156126ce57600080fd5b81356103f18161265c565b600080602083850312156126ec57600080fd5b823567ffffffffffffffff8082111561270457600080fd5b818501915085601f83011261271857600080fd5b81358181111561272757600080fd5b86602082850101111561273957600080fd5b60209290920196919550909350505050565b60005b8381101561276657818101518382015260200161274e565b8381111561111a5750506000910152565b8215158152604060208201526000825180604084015261279e81606085016020870161274b565b601f01601f1916919091016060019392505050565b600080600080600080600080610100898b0312156127d057600080fd5b883597506020890135965060408901359550606089013594506080890135935060a08901356127fe81612669565b925060c089013561280e81612669565b915060e089013561281e81612669565b809150509295985092959890939650565b6000806040838503121561284257600080fd5b823561284d8161265c565b9150602083013561285d81612669565b809150509250929050565b6001600160a01b03811681146111b157600080fd5b60008060006060848603121561289257600080fd5b833561289d81612868565b925060208401356128ad81612868565b915060408401356128bd81612868565b809150509250925092565b600080600080608085870312156128de57600080fd5b84356128e981612868565b935060208501356128f981612868565b93969395505050506040820135916060013590565b60006020828403121561292057600080fd5b5035919050565b60006020828403121561293957600080fd5b81356103f181612868565b634e487b7160e01b600052602160045260246000fd5b634e487b7160e01b600052603260045260246000fd5b6020808252818101527f4f776e61626c653a2063616c6c6572206973206e6f7420746865206f776e6572604082015260600190565b60208082526010908201526f14185d5cd8589b194e881c185d5cd95960821b604082015260600190565b6000806000606084860312156129e457600080fd5b833592506020840135915060408401356128bd8161265c565b634e487b7160e01b600052601160045260246000fd5b6000816000190483118215151615612a2d57612a2d6129fd565b500290565b600082821015612a4457612a446129fd565b500390565b634e487b7160e01b600052603160045260246000fd5b60008219821115612a7257612a726129fd565b500190565b600063ffffffff808316818516808303821115612a9657612a966129fd565b01949350505050565b60038110612aaf57612aaf612944565b9052565b868152602081018690526040810185905260c08101612ad56060830186612a9f565b83608083015263ffffffff831660a0830152979650505050505050565b600063ffffffff83811690831681811015612b0f57612b0f6129fd565b039392505050565b838152602081018390526060810161117d6040830184612a9f565b634e487b7160e01b600052601260045260246000fd5b600063ffffffff80841680612b5f57612b5f612b32565b92169190910692915050565b634e487b7160e01b600052604160045260246000fd5b6040516101c0810167ffffffffffffffff81118282101715612ba557612ba5612b6b565b60405290565b8051612bb681612868565b919050565b805160078110612bb657600080fd5b8051612bb681612669565b600082601f830112612be657600080fd5b815167ffffffffffffffff80821115612c0157612c01612b6b565b604051601f8301601f19908116603f01168101908282118183101715612c2957612c29612b6b565b81604052838152866020858801011115612c4257600080fd5b612c5384602083016020890161274b565b9695505050505050565b60008060408385031215612c7057600080fd5b825167ffffffffffffffff80821115612c8857600080fd5b908401906101c08287031215612c9d57600080fd5b612ca5612b81565b8251815260208301516020820152604083015160408201526060830151606082015260808301516080820152612cdd60a08401612bab565b60a0820152612cee60c08401612bbb565b60c0820152612cff60e08401612bca565b60e0820152610100612d12818501612bca565b90820152610120612d24848201612bca565b90820152610140612d36848201612bca565b90820152610160612d48848201612bca565b908201526101808381015183811115612d6057600080fd5b612d6c89828701612bd5565b8284015250506101a08084015183811115612d8657600080fd5b612d9289828701612bd5565b828401525050809450505050612daa60208401612bab565b90509250929050565b8281526040810160078310612dca57612dca612944565b8260208301529392505050565b600060208284031215612de957600080fd5b81516103f18161265c565b600060208284031215612e0657600080fd5b81516103f181612669565b600060208284031215612e2357600080fd5b5051919050565b600063ffffffff80831681851681830481118215151615612e4d57612e4d6129fd565b02949350505050565b600082612e6557612e65612b32565b500490565b600062ffffff80831681851681830481118215151615612e4d57612e4d6129fd565b6020808252602b908201527f496e697469616c697a61626c653a20636f6e7472616374206973206e6f74206960408201526a6e697469616c697a696e6760a81b606082015260800190565b600063ffffffff80841680612eee57612eee612b32565b92169190910492915050565b600060208284031215612f0c57600080fd5b815167ffffffffffffffff80821115612f2457600080fd5b9083019060608286031215612f3857600080fd5b604051606081018181108382111715612f5357612f53612b6b565b6040528251612f6181612868565b815260208381015190820152604083015182811115612f7f57600080fd5b612f8b87828601612bd5565b60408301525095945050505050565b600060208284031215612fac57600080fd5b815180151581146103f157600080fdfea2646970667358221220a69f9cfc76fdbd11dd5a41b01fe6a89822a16dfda86fe943694aa07fbd86fae864736f6c63430008090033",
  "devdoc": {
    "kind": "dev",
    "methods": {
      "checkUpkeep(bytes)": {
        "details": "To ensure that it is never called, you may want to add the cannotExecute modifier from KeeperBase to your implementation of this method.",
        "params": {
          "checkData": "specified in the upkeep registration so it is always the same for a registered upkeep. This can easilly be broken down into specific arguments using `abi.decode`, so multiple upkeeps can be registered on the same contract and easily differentiated by the contract."
        },
        "returns": {
          "performData": "bytes that the keeper should call performUpkeep with, if upkeep is needed. If you would like to encode data to decode later, try `abi.encode`.",
          "upkeepNeeded": "boolean to indicate whether the keeper should call performUpkeep or not."
        }
      },
      "constructor": {
        "custom:oz-upgrades-unsafe-allow": "constructor"
      },
      "owner()": {
        "details": "Returns the address of the current owner."
      },
      "paused()": {
        "details": "Returns true if the contract is paused, and false otherwise."
      },
      "performUpkeep(bytes)": {
        "details": "The input to this method should not be trusted, and the caller of the method should not even be restricted to any single registry. Anyone should be able call it, and the input should be validated, there is no guarantee that the data passed in is the performData returned from checkUpkeep. This could happen due to malicious keepers, racing keepers, or simply a state change while the performUpkeep transaction is waiting for confirmation. Always validate the data passed in.",
        "params": {
          "performData": "is the data which was passed back from the checkData simulation. If it is encoded, it can easily be decoded into other types by calling `abi.decode`. This data should not be trusted, and should be validated against the contract's current state."
        }
      },
      "renounceOwnership()": {
        "details": "Leaves the contract without owner. It will not be possible to call `onlyOwner` functions anymore. Can only be called by the current owner. NOTE: Renouncing ownership will leave the contract without an owner, thereby removing any functionality that is only available to the owner."
      },
      "transferOwnership(address)": {
        "details": "Transfers ownership of the contract to a new account (`newOwner`). Can only be called by the current owner."
      }
    },
    "stateVariables": {
      "paymentFeeMin": {
        "details": "minimum total fee to charge, if rate fees do not add up to this amount "
      },
      "paymentFeeRateMin": {
        "details": "min and max percentage to charge on payments, in bps. 50% = 5000. "
      },
      "paymentMinValue": {
        "details": "min value for a payment. "
      },
      "paymentRetryDelay": {
        "details": "number of seconds between failed payment retries. "
      },
      "processBucketMaxAge": {
        "details": "max age a process bucket can grow to before a forced processing occurs. "
      },
      "processBucketSize": {
        "details": "size (in seconds) of buckets to group subscriptions into for processing "
      },
      "processQueue": {
        "details": "map used to track when subscriptions need attention next "
      },
      "stakeTargetFactor": {
        "details": "factor used to reduce payment fee based on qty of staked CASK "
      },
      "subscriptionPlans": {
        "details": "contract to manage subscription plan definitions. "
      },
      "vault": {
        "details": "vault to use for payments. "
      }
    },
    "version": 1
  },
  "userdoc": {
    "kind": "user",
    "methods": {
      "checkUpkeep(bytes)": {
        "notice": "method that is simulated by the keepers to see if any work actually needs to be performed. This method does does not actually need to be executable, and since it is only ever simulated it can consume lots of gas."
      },
      "performUpkeep(bytes)": {
        "notice": "method that is actually executed by the keepers, via the registry. The data returned by the checkUpkeep simulation will be passed into this method to actually be executed."
      }
    },
    "version": 1
  },
  "storageLayout": {
    "storage": [
      {
        "astId": 327,
        "contract": "contracts/subscriptions/CaskSubscriptionManager.sol:CaskSubscriptionManager",
        "label": "_initialized",
        "offset": 0,
        "slot": "0",
        "type": "t_bool"
      },
      {
        "astId": 330,
        "contract": "contracts/subscriptions/CaskSubscriptionManager.sol:CaskSubscriptionManager",
        "label": "_initializing",
        "offset": 1,
        "slot": "0",
        "type": "t_bool"
      },
      {
        "astId": 2551,
        "contract": "contracts/subscriptions/CaskSubscriptionManager.sol:CaskSubscriptionManager",
        "label": "__gap",
        "offset": 0,
        "slot": "1",
        "type": "t_array(t_uint256)50_storage"
      },
      {
        "astId": 205,
        "contract": "contracts/subscriptions/CaskSubscriptionManager.sol:CaskSubscriptionManager",
        "label": "_owner",
        "offset": 0,
        "slot": "51",
        "type": "t_address"
      },
      {
        "astId": 319,
        "contract": "contracts/subscriptions/CaskSubscriptionManager.sol:CaskSubscriptionManager",
        "label": "__gap",
        "offset": 0,
        "slot": "52",
        "type": "t_array(t_uint256)49_storage"
      },
      {
        "astId": 415,
        "contract": "contracts/subscriptions/CaskSubscriptionManager.sol:CaskSubscriptionManager",
        "label": "_paused",
        "offset": 0,
        "slot": "101",
        "type": "t_bool"
      },
      {
        "astId": 506,
        "contract": "contracts/subscriptions/CaskSubscriptionManager.sol:CaskSubscriptionManager",
        "label": "__gap",
        "offset": 0,
        "slot": "102",
        "type": "t_array(t_uint256)49_storage"
      },
      {
        "astId": 15740,
        "contract": "contracts/subscriptions/CaskSubscriptionManager.sol:CaskSubscriptionManager",
        "label": "subscriptionPlans",
        "offset": 0,
        "slot": "151",
        "type": "t_contract(ICaskSubscriptionPlans)12873"
      },
      {
        "astId": 15743,
        "contract": "contracts/subscriptions/CaskSubscriptionManager.sol:CaskSubscriptionManager",
        "label": "subscriptions",
        "offset": 0,
        "slot": "152",
        "type": "t_contract(ICaskSubscriptions)13254"
      },
      {
        "astId": 15747,
        "contract": "contracts/subscriptions/CaskSubscriptionManager.sol:CaskSubscriptionManager",
        "label": "vault",
        "offset": 0,
        "slot": "153",
        "type": "t_contract(ICaskVault)13571"
      },
      {
        "astId": 15750,
        "contract": "contracts/subscriptions/CaskSubscriptionManager.sol:CaskSubscriptionManager",
        "label": "paymentFeeMin",
        "offset": 0,
        "slot": "154",
        "type": "t_uint256"
      },
      {
        "astId": 15753,
        "contract": "contracts/subscriptions/CaskSubscriptionManager.sol:CaskSubscriptionManager",
        "label": "paymentFeeRateMin",
        "offset": 0,
        "slot": "155",
        "type": "t_uint256"
      },
      {
        "astId": 15755,
        "contract": "contracts/subscriptions/CaskSubscriptionManager.sol:CaskSubscriptionManager",
        "label": "paymentFeeRateMax",
        "offset": 0,
        "slot": "156",
        "type": "t_uint256"
      },
      {
        "astId": 15758,
        "contract": "contracts/subscriptions/CaskSubscriptionManager.sol:CaskSubscriptionManager",
        "label": "stakeTargetFactor",
        "offset": 0,
        "slot": "157",
        "type": "t_uint256"
      },
      {
        "astId": 15761,
        "contract": "contracts/subscriptions/CaskSubscriptionManager.sol:CaskSubscriptionManager",
        "label": "processBucketSize",
        "offset": 0,
        "slot": "158",
        "type": "t_uint32"
      },
      {
        "astId": 15770,
        "contract": "contracts/subscriptions/CaskSubscriptionManager.sol:CaskSubscriptionManager",
        "label": "processQueue",
        "offset": 0,
        "slot": "159",
        "type": "t_mapping(t_enum(CheckType)12622,t_mapping(t_uint32,t_array(t_uint256)dyn_storage))"
      },
      {
        "astId": 15775,
        "contract": "contracts/subscriptions/CaskSubscriptionManager.sol:CaskSubscriptionManager",
        "label": "processingBucket",
        "offset": 0,
        "slot": "160",
        "type": "t_mapping(t_enum(CheckType)12622,t_uint32)"
      },
      {
        "astId": 15778,
        "contract": "contracts/subscriptions/CaskSubscriptionManager.sol:CaskSubscriptionManager",
        "label": "paymentMinValue",
        "offset": 0,
        "slot": "161",
        "type": "t_uint256"
      },
      {
        "astId": 15781,
        "contract": "contracts/subscriptions/CaskSubscriptionManager.sol:CaskSubscriptionManager",
        "label": "processBucketMaxAge",
        "offset": 0,
        "slot": "162",
        "type": "t_uint32"
      },
      {
        "astId": 15784,
        "contract": "contracts/subscriptions/CaskSubscriptionManager.sol:CaskSubscriptionManager",
        "label": "paymentRetryDelay",
        "offset": 4,
        "slot": "162",
        "type": "t_uint32"
      }
    ],
    "types": {
      "t_address": {
        "encoding": "inplace",
        "label": "address",
        "numberOfBytes": "20"
      },
      "t_array(t_uint256)49_storage": {
        "base": "t_uint256",
        "encoding": "inplace",
        "label": "uint256[49]",
        "numberOfBytes": "1568"
      },
      "t_array(t_uint256)50_storage": {
        "base": "t_uint256",
        "encoding": "inplace",
        "label": "uint256[50]",
        "numberOfBytes": "1600"
      },
      "t_array(t_uint256)dyn_storage": {
        "base": "t_uint256",
        "encoding": "dynamic_array",
        "label": "uint256[]",
        "numberOfBytes": "32"
      },
      "t_bool": {
        "encoding": "inplace",
        "label": "bool",
        "numberOfBytes": "1"
      },
      "t_contract(ICaskSubscriptionPlans)12873": {
        "encoding": "inplace",
        "label": "contract ICaskSubscriptionPlans",
        "numberOfBytes": "20"
      },
      "t_contract(ICaskSubscriptions)13254": {
        "encoding": "inplace",
        "label": "contract ICaskSubscriptions",
        "numberOfBytes": "20"
      },
      "t_contract(ICaskVault)13571": {
        "encoding": "inplace",
        "label": "contract ICaskVault",
        "numberOfBytes": "20"
      },
      "t_enum(CheckType)12622": {
        "encoding": "inplace",
        "label": "enum ICaskSubscriptionManager.CheckType",
        "numberOfBytes": "1"
      },
      "t_mapping(t_enum(CheckType)12622,t_mapping(t_uint32,t_array(t_uint256)dyn_storage))": {
        "encoding": "mapping",
        "key": "t_enum(CheckType)12622",
        "label": "mapping(enum ICaskSubscriptionManager.CheckType => mapping(uint32 => uint256[]))",
        "numberOfBytes": "32",
        "value": "t_mapping(t_uint32,t_array(t_uint256)dyn_storage)"
      },
      "t_mapping(t_enum(CheckType)12622,t_uint32)": {
        "encoding": "mapping",
        "key": "t_enum(CheckType)12622",
        "label": "mapping(enum ICaskSubscriptionManager.CheckType => uint32)",
        "numberOfBytes": "32",
        "value": "t_uint32"
      },
      "t_mapping(t_uint32,t_array(t_uint256)dyn_storage)": {
        "encoding": "mapping",
        "key": "t_uint32",
        "label": "mapping(uint32 => uint256[])",
        "numberOfBytes": "32",
        "value": "t_array(t_uint256)dyn_storage"
      },
      "t_uint256": {
        "encoding": "inplace",
        "label": "uint256",
        "numberOfBytes": "32"
      },
      "t_uint32": {
        "encoding": "inplace",
        "label": "uint32",
        "numberOfBytes": "4"
      }
    }
  }
}