{
  "address": "0xf3c7efeC4400813BA12078D6F0A9c5100fe914b3",
  "abi": [
    {
      "inputs": [],
      "stateMutability": "nonpayable",
      "type": "constructor"
    },
    {
      "anonymous": false,
      "inputs": [
        {
          "indexed": true,
          "internalType": "bytes32",
          "name": "dcaId",
          "type": "bytes32"
        },
        {
          "indexed": true,
          "internalType": "address",
          "name": "user",
          "type": "address"
        }
      ],
      "name": "DCACanceled",
      "type": "event"
    },
    {
      "anonymous": false,
      "inputs": [
        {
          "indexed": true,
          "internalType": "bytes32",
          "name": "dcaId",
          "type": "bytes32"
        },
        {
          "indexed": true,
          "internalType": "address",
          "name": "user",
          "type": "address"
        }
      ],
      "name": "DCACompleted",
      "type": "event"
    },
    {
      "anonymous": false,
      "inputs": [
        {
          "indexed": true,
          "internalType": "bytes32",
          "name": "dcaId",
          "type": "bytes32"
        },
        {
          "indexed": true,
          "internalType": "address",
          "name": "user",
          "type": "address"
        },
        {
          "indexed": true,
          "internalType": "address",
          "name": "to",
          "type": "address"
        },
        {
          "indexed": false,
          "internalType": "address",
          "name": "inputAsset",
          "type": "address"
        },
        {
          "indexed": false,
          "internalType": "address",
          "name": "outputAsset",
          "type": "address"
        },
        {
          "indexed": false,
          "internalType": "uint256",
          "name": "amount",
          "type": "uint256"
        },
        {
          "indexed": false,
          "internalType": "uint256",
          "name": "totalAmount",
          "type": "uint256"
        },
        {
          "indexed": false,
          "internalType": "uint32",
          "name": "period",
          "type": "uint32"
        }
      ],
      "name": "DCACreated",
      "type": "event"
    },
    {
      "anonymous": false,
      "inputs": [
        {
          "indexed": true,
          "internalType": "bytes32",
          "name": "dcaId",
          "type": "bytes32"
        },
        {
          "indexed": true,
          "internalType": "address",
          "name": "user",
          "type": "address"
        }
      ],
      "name": "DCAPaused",
      "type": "event"
    },
    {
      "anonymous": false,
      "inputs": [
        {
          "indexed": true,
          "internalType": "bytes32",
          "name": "dcaId",
          "type": "bytes32"
        },
        {
          "indexed": true,
          "internalType": "address",
          "name": "user",
          "type": "address"
        },
        {
          "indexed": false,
          "internalType": "uint256",
          "name": "amount",
          "type": "uint256"
        },
        {
          "indexed": false,
          "internalType": "uint256",
          "name": "buyQty",
          "type": "uint256"
        },
        {
          "indexed": false,
          "internalType": "uint256",
          "name": "fee",
          "type": "uint256"
        }
      ],
      "name": "DCAProcessed",
      "type": "event"
    },
    {
      "anonymous": false,
      "inputs": [
        {
          "indexed": true,
          "internalType": "bytes32",
          "name": "dcaId",
          "type": "bytes32"
        },
        {
          "indexed": true,
          "internalType": "address",
          "name": "user",
          "type": "address"
        }
      ],
      "name": "DCAResumed",
      "type": "event"
    },
    {
      "anonymous": false,
      "inputs": [
        {
          "indexed": true,
          "internalType": "bytes32",
          "name": "dcaId",
          "type": "bytes32"
        },
        {
          "indexed": true,
          "internalType": "address",
          "name": "user",
          "type": "address"
        },
        {
          "indexed": false,
          "internalType": "enum ICaskDCA.SkipReason",
          "name": "skipReason",
          "type": "uint8"
        }
      ],
      "name": "DCASkipped",
      "type": "event"
    },
    {
      "anonymous": false,
      "inputs": [
        {
          "indexed": true,
          "internalType": "address",
          "name": "previousOwner",
          "type": "address"
        },
        {
          "indexed": true,
          "internalType": "address",
          "name": "newOwner",
          "type": "address"
        }
      ],
      "name": "OwnershipTransferred",
      "type": "event"
    },
    {
      "anonymous": false,
      "inputs": [
        {
          "indexed": false,
          "internalType": "address",
          "name": "account",
          "type": "address"
        }
      ],
      "name": "Paused",
      "type": "event"
    },
    {
      "anonymous": false,
      "inputs": [
        {
          "indexed": false,
          "internalType": "address",
          "name": "account",
          "type": "address"
        }
      ],
      "name": "Unpaused",
      "type": "event"
    },
    {
      "inputs": [],
      "name": "assetsMerkleRoot",
      "outputs": [
        {
          "internalType": "bytes32",
          "name": "",
          "type": "bytes32"
        }
      ],
      "stateMutability": "view",
      "type": "function"
    },
    {
      "inputs": [
        {
          "internalType": "bytes32",
          "name": "_dcaId",
          "type": "bytes32"
        }
      ],
      "name": "cancelDCA",
      "outputs": [],
      "stateMutability": "nonpayable",
      "type": "function"
    },
    {
      "inputs": [
        {
          "internalType": "address[]",
          "name": "_assetSpec",
          "type": "address[]"
        },
        {
          "internalType": "bytes32[]",
          "name": "_merkleProof",
          "type": "bytes32[]"
        },
        {
          "internalType": "enum ICaskDCA.SwapProtocol",
          "name": "_swapProtocol",
          "type": "uint8"
        },
        {
          "internalType": "bytes",
          "name": "_swapData",
          "type": "bytes"
        },
        {
          "internalType": "address",
          "name": "_to",
          "type": "address"
        },
        {
          "internalType": "uint256[]",
          "name": "_priceSpec",
          "type": "uint256[]"
        }
      ],
      "name": "createDCA",
      "outputs": [
        {
          "internalType": "bytes32",
          "name": "",
          "type": "bytes32"
        }
      ],
      "stateMutability": "nonpayable",
      "type": "function"
    },
    {
      "inputs": [],
      "name": "dcaManager",
      "outputs": [
        {
          "internalType": "contract ICaskDCAManager",
          "name": "",
          "type": "address"
        }
      ],
      "stateMutability": "view",
      "type": "function"
    },
    {
      "inputs": [
        {
          "internalType": "bytes32",
          "name": "_dcaId",
          "type": "bytes32"
        }
      ],
      "name": "getDCA",
      "outputs": [
        {
          "components": [
            {
              "internalType": "address",
              "name": "user",
              "type": "address"
            },
            {
              "internalType": "address",
              "name": "to",
              "type": "address"
            },
            {
              "internalType": "address",
              "name": "router",
              "type": "address"
            },
            {
              "internalType": "address",
              "name": "priceFeed",
              "type": "address"
            },
            {
              "internalType": "uint256",
              "name": "amount",
              "type": "uint256"
            },
            {
              "internalType": "uint256",
              "name": "totalAmount",
              "type": "uint256"
            },
            {
              "internalType": "uint256",
              "name": "currentAmount",
              "type": "uint256"
            },
            {
              "internalType": "uint256",
              "name": "currentQty",
              "type": "uint256"
            },
            {
              "internalType": "uint256",
              "name": "numBuys",
              "type": "uint256"
            },
            {
              "internalType": "uint256",
              "name": "numSkips",
              "type": "uint256"
            },
            {
              "internalType": "uint256",
              "name": "maxSlippageBps",
              "type": "uint256"
            },
            {
              "internalType": "uint256",
              "name": "maxPrice",
              "type": "uint256"
            },
            {
              "internalType": "uint256",
              "name": "minPrice",
              "type": "uint256"
            },
            {
              "internalType": "uint32",
              "name": "period",
              "type": "uint32"
            },
            {
              "internalType": "uint32",
              "name": "createdAt",
              "type": "uint32"
            },
            {
              "internalType": "uint32",
              "name": "processAt",
              "type": "uint32"
            },
            {
              "internalType": "enum ICaskDCA.DCAStatus",
              "name": "status",
              "type": "uint8"
            },
            {
              "internalType": "address[]",
              "name": "path",
              "type": "address[]"
            }
          ],
          "internalType": "struct ICaskDCA.DCA",
          "name": "",
          "type": "tuple"
        }
      ],
      "stateMutability": "view",
      "type": "function"
    },
    {
      "inputs": [
        {
          "internalType": "bytes32",
          "name": "_dcaId",
          "type": "bytes32"
        }
      ],
      "name": "getSwapInfo",
      "outputs": [
        {
          "components": [
            {
              "internalType": "enum ICaskDCA.SwapProtocol",
              "name": "swapProtocol",
              "type": "uint8"
            },
            {
              "internalType": "bytes",
              "name": "swapData",
              "type": "bytes"
            }
          ],
          "internalType": "struct ICaskDCA.SwapInfo",
          "name": "",
          "type": "tuple"
        }
      ],
      "stateMutability": "view",
      "type": "function"
    },
    {
      "inputs": [
        {
          "internalType": "address",
          "name": "_user",
          "type": "address"
        },
        {
          "internalType": "uint256",
          "name": "_idx",
          "type": "uint256"
        }
      ],
      "name": "getUserDCA",
      "outputs": [
        {
          "internalType": "bytes32",
          "name": "",
          "type": "bytes32"
        }
      ],
      "stateMutability": "view",
      "type": "function"
    },
    {
      "inputs": [
        {
          "internalType": "address",
          "name": "_user",
          "type": "address"
        }
      ],
      "name": "getUserDCACount",
      "outputs": [
        {
          "internalType": "uint256",
          "name": "",
          "type": "uint256"
        }
      ],
      "stateMutability": "view",
      "type": "function"
    },
    {
      "inputs": [
        {
          "internalType": "bytes32",
          "name": "_assetsMerkleRoot",
          "type": "bytes32"
        }
      ],
      "name": "initialize",
      "outputs": [],
      "stateMutability": "nonpayable",
      "type": "function"
    },
    {
      "inputs": [
        {
          "internalType": "address",
          "name": "forwarder",
          "type": "address"
        }
      ],
      "name": "isTrustedForwarder",
      "outputs": [
        {
          "internalType": "bool",
          "name": "",
          "type": "bool"
        }
      ],
      "stateMutability": "view",
      "type": "function"
    },
    {
      "inputs": [
        {
          "internalType": "bytes32",
          "name": "_dcaId",
          "type": "bytes32"
        },
        {
          "internalType": "enum ICaskDCA.ManagerCommand",
          "name": "_command",
          "type": "uint8"
        }
      ],
      "name": "managerCommand",
      "outputs": [],
      "stateMutability": "nonpayable",
      "type": "function"
    },
    {
      "inputs": [
        {
          "internalType": "bytes32",
          "name": "_dcaId",
          "type": "bytes32"
        },
        {
          "internalType": "uint256",
          "name": "_amount",
          "type": "uint256"
        },
        {
          "internalType": "uint256",
          "name": "_buyQty",
          "type": "uint256"
        },
        {
          "internalType": "uint256",
          "name": "_fee",
          "type": "uint256"
        }
      ],
      "name": "managerProcessed",
      "outputs": [],
      "stateMutability": "nonpayable",
      "type": "function"
    },
    {
      "inputs": [
        {
          "internalType": "bytes32",
          "name": "_dcaId",
          "type": "bytes32"
        },
        {
          "internalType": "enum ICaskDCA.SkipReason",
          "name": "_skipReason",
          "type": "uint8"
        }
      ],
      "name": "managerSkipped",
      "outputs": [],
      "stateMutability": "nonpayable",
      "type": "function"
    },
    {
      "inputs": [],
      "name": "minAmount",
      "outputs": [
        {
          "internalType": "uint256",
          "name": "",
          "type": "uint256"
        }
      ],
      "stateMutability": "view",
      "type": "function"
    },
    {
      "inputs": [],
      "name": "minPeriod",
      "outputs": [
        {
          "internalType": "uint32",
          "name": "",
          "type": "uint32"
        }
      ],
      "stateMutability": "view",
      "type": "function"
    },
    {
      "inputs": [],
      "name": "minSlippage",
      "outputs": [
        {
          "internalType": "uint256",
          "name": "",
          "type": "uint256"
        }
      ],
      "stateMutability": "view",
      "type": "function"
    },
    {
      "inputs": [],
      "name": "owner",
      "outputs": [
        {
          "internalType": "address",
          "name": "",
          "type": "address"
        }
      ],
      "stateMutability": "view",
      "type": "function"
    },
    {
      "inputs": [],
      "name": "pause",
      "outputs": [],
      "stateMutability": "nonpayable",
      "type": "function"
    },
    {
      "inputs": [
        {
          "internalType": "bytes32",
          "name": "_dcaId",
          "type": "bytes32"
        }
      ],
      "name": "pauseDCA",
      "outputs": [],
      "stateMutability": "nonpayable",
      "type": "function"
    },
    {
      "inputs": [],
      "name": "paused",
      "outputs": [
        {
          "internalType": "bool",
          "name": "",
          "type": "bool"
        }
      ],
      "stateMutability": "view",
      "type": "function"
    },
    {
      "inputs": [],
      "name": "renounceOwnership",
      "outputs": [],
      "stateMutability": "nonpayable",
      "type": "function"
    },
    {
      "inputs": [
        {
          "internalType": "bytes32",
          "name": "_dcaId",
          "type": "bytes32"
        }
      ],
      "name": "resumeDCA",
      "outputs": [],
      "stateMutability": "nonpayable",
      "type": "function"
    },
    {
      "inputs": [
        {
          "internalType": "bytes32",
          "name": "_assetsMerkleRoot",
          "type": "bytes32"
        }
      ],
      "name": "setAssetsMerkleRoot",
      "outputs": [],
      "stateMutability": "nonpayable",
      "type": "function"
    },
    {
      "inputs": [
        {
          "internalType": "address",
          "name": "_dcaManager",
          "type": "address"
        }
      ],
      "name": "setManager",
      "outputs": [],
      "stateMutability": "nonpayable",
      "type": "function"
    },
    {
      "inputs": [
        {
          "internalType": "uint256",
          "name": "_minAmount",
          "type": "uint256"
        }
      ],
      "name": "setMinAmount",
      "outputs": [],
      "stateMutability": "nonpayable",
      "type": "function"
    },
    {
      "inputs": [
        {
          "internalType": "uint32",
          "name": "_minPeriod",
          "type": "uint32"
        }
      ],
      "name": "setMinPeriod",
      "outputs": [],
      "stateMutability": "nonpayable",
      "type": "function"
    },
    {
      "inputs": [
        {
          "internalType": "uint256",
          "name": "_minSlippage",
          "type": "uint256"
        }
      ],
      "name": "setMinSlippage",
      "outputs": [],
      "stateMutability": "nonpayable",
      "type": "function"
    },
    {
      "inputs": [
        {
          "internalType": "address",
          "name": "_forwarder",
          "type": "address"
        }
      ],
      "name": "setTrustedForwarder",
      "outputs": [],
      "stateMutability": "nonpayable",
      "type": "function"
    },
    {
      "inputs": [
        {
          "internalType": "address",
          "name": "newOwner",
          "type": "address"
        }
      ],
      "name": "transferOwnership",
      "outputs": [],
      "stateMutability": "nonpayable",
      "type": "function"
    },
    {
      "inputs": [],
      "name": "trustedForwarder",
      "outputs": [
        {
          "internalType": "address",
          "name": "",
          "type": "address"
        }
      ],
      "stateMutability": "view",
      "type": "function"
    },
    {
      "inputs": [],
      "name": "unpause",
      "outputs": [],
      "stateMutability": "nonpayable",
      "type": "function"
    },
    {
      "inputs": [],
      "name": "versionRecipient",
      "outputs": [
        {
          "internalType": "string",
          "name": "",
          "type": "string"
        }
      ],
      "stateMutability": "pure",
      "type": "function"
    }
  ],
  "transactionHash": "0xa938d5dd7e00553903c63c8e39cad047c59d431cfa87f82b7f1f76311590c15c",
  "args": [],
  "numDeployments": 4,
  "solcInputHash": "e4235bfdaef52ff4b9af1299c07264a7",
  "bytecode": "0x60806040523480156200001157600080fd5b50600054610100900460ff166200002f5760005460ff161562000039565b62000039620000de565b620000a15760405162461bcd60e51b815260206004820152602e60248201527f496e697469616c697a61626c653a20636f6e747261637420697320616c72656160448201526d191e481a5b9a5d1a585b1a5e995960921b606482015260840160405180910390fd5b600054610100900460ff16158015620000c4576000805461ffff19166101011790555b8015620000d7576000805461ff00191690555b5062000102565b6000620000f630620000fc60201b62001a731760201c565b15905090565b3b151590565b61290980620001126000396000f3fe608060405234801561001057600080fd5b50600436106101f05760003560e01c8063897b06371161010f578063bd78b2b3116100a2578063da74222811610071578063da7422281461044e578063e3e01f9f14610461578063f2fde38b14610474578063ffd49c841461048757600080fd5b8063bd78b2b31461040c578063c0677c471461041f578063c453824f14610428578063d0ebdbe71461043b57600080fd5b80639b2cb5d8116100de5780639b2cb5d8146103ca578063abcfd154146103d3578063b4cbc9e4146103e6578063b4e38a8d146103f957600080fd5b8063897b0637146103735780638da5cb5b1461038657806392c65f4b146103975780639498bd71146103b757600080fd5b8063572b6c0511610187578063715018a611610156578063715018a61461033f5780637da0a877146103475780638456cb591461035857806387eb01bf1461036057600080fd5b8063572b6c05146102c45780635ba581cd146102f65780635c975abb146103095780636a82763c1461031457600080fd5b80632d3d0405116101c35780632d3d0405146102795780633f4ba83a1461028c578063486ff0cd146102945780634b51dd22146102bb57600080fd5b806316ef2c41146101f55780632a74cbb5146102315780632ce17578146102465780632d0fc6b414610259575b600080fd5b61021e6102033660046120ab565b6001600160a01b03166000908152609a602052604090205490565b6040519081526020015b60405180910390f35b61024461023f3660046120cd565b6104ac565b005b610244610254366004612101565b6105a5565b61026c610267366004612101565b6105f3565b6040516102289190612191565b61021e610287366004612262565b6106d9565b610244610dcf565b60408051808201825260058152640322e322e360dc1b602082015290516102289190612350565b61021e609b5481565b6102e66102d23660046120ab565b6097546001600160a01b0391821691161490565b6040519015158152602001610228565b610244610304366004612363565b610e22565b60655460ff166102e6565b609854610327906001600160a01b031681565b6040516001600160a01b039091168152602001610228565b610244610f4d565b6097546001600160a01b0316610327565b610244610fa0565b61024461036e366004612101565b610ff1565b610244610381366004612101565b6110ef565b6033546001600160a01b0316610327565b6103aa6103a5366004612101565b61113d565b60405161022891906123e0565b6102446103c5366004612101565b6112c7565b61021e609c5481565b6102446103e1366004612101565b6113b2565b6102446103f436600461252c565b611550565b61021e61040736600461255e565b6116f1565b61024461041a366004612101565b61172e565b61021e609e5481565b610244610436366004612588565b611834565b6102446104493660046120ab565b611899565b61024461045c3660046120ab565b611904565b61024461046f366004612101565b61196e565b6102446104823660046120ab565b6119bc565b609d546104979063ffffffff1681565b60405163ffffffff9091168152602001610228565b6098546001600160a01b03166104c0611a79565b6001600160a01b0316146104ef5760405162461bcd60e51b81526004016104e6906125ae565b60405180910390fd5b6000828152609960205260409020600d81015461051c9063ffffffff80821691600160401b9004166125e3565b81600d0160086101000a81548163ffffffff021916908363ffffffff1602179055506001816009016000828254610553919061260b565b909155505080546040516001600160a01b039091169084907f39e94fc57f494ff14c5e6240aaa121bb05346a3baf4434132df8f9075d58749190610598908690612623565b60405180910390a3505050565b6105ad611a79565b6001600160a01b03166105c86033546001600160a01b031690565b6001600160a01b0316146105ee5760405162461bcd60e51b81526004016104e69061263d565b609b55565b6105fb611ec3565b6000828152609f60205260409081902081518083019092528054829060ff16600281111561062b5761062b61211a565b600281111561063c5761063c61211a565b815260200160018201805461065090612672565b80601f016020809104026020016040519081016040528092919081815260200182805461067c90612672565b80156106c95780601f1061069e576101008083540402835291602001916106c9565b820191906000526020600020905b8154815290600101906020018083116106ac57829003601f168201915b5050505050815250509050919050565b600060048a10156107225760405162461bcd60e51b815260206004820152601360248201527221494e56414c4944286173736574537065632960681b60448201526064016104e6565b600682146107685760405162461bcd60e51b815260206004820152601360248201527221494e56414c4944287072696365537065632960681b60448201526064016104e6565b609d5463ffffffff168383600081610782576107826126ad565b9050602002013510156107ca5760405162461bcd60e51b815260206004820152601060248201526f21494e56414c494428706572696f642960801b60448201526064016104e6565b609c54838360018181106107e0576107e06126ad565b9050602002013510156108285760405162461bcd60e51b815260206004820152601060248201526f21494e56414c494428616d6f756e742960801b60448201526064016104e6565b609e548383600381811061083e5761083e6126ad565b9050602002013510156108935760405162461bcd60e51b815260206004820152601860248201527f21494e56414c4944286d6178536c69707061676542707329000000000000000060448201526064016104e6565b6108a28787878e8e8e8e611a88565b6108e45760405162461bcd60e51b815260206004820152601360248201527221494e56414c4944286173736574537065632960681b60448201526064016104e6565b60006108ee611a79565b8888888f8f898943426040516020016109109a999897969594939291906126f0565b60408051601f19818403018152918152815160209283012060008181526099909352912090915061093f611a79565b81546001600160a01b03199081166001600160a01b039283161783556001830180549091169188169190911790558c8c60008161097e5761097e6126ad565b905060200201602081019061099391906120ab565b6002820180546001600160a01b0319166001600160a01b03929092169190911790558c8c60018181106109c8576109c86126ad565b90506020020160208101906109dd91906120ab565b8160030160006101000a8154816001600160a01b0302191690836001600160a01b031602179055508c8c6002908092610a189392919061278a565b610a2691600e840191611ede565b5084846001818110610a3a57610a3a6126ad565b602002919091013560048301555084846002818110610a5b57610a5b6126ad565b60200291909101356005830155508484600081610a7a57610a7a6126ad565b9050602002013581600d0160006101000a81548163ffffffff021916908363ffffffff16021790555084846004818110610ab657610ab66126ad565b6020029190910135600c8301555084846005818110610ad757610ad76126ad565b6020029190910135600b8301555084846003818110610af857610af86126ad565b6020029190910135600a83015550600d810180546bffffffffffffffff0000000019166401000000004263ffffffff1690810263ffffffff60401b191691909117600160401b91909102178082556001919060ff60601b1916600160601b8302179055506000828152609f6020526040902080548a90829060ff19166001836002811115610b8857610b8861211a565b0217905550610b9b600182018a8a611f41565b50609a6000610ba8611a79565b6001600160a01b0390811682526020808301939093526040918201600090812080546001810182559082529390209092018590556098549051637d0c250f60e11b81526004810186905291169063fa184a1e90602401600060405180830381600087803b158015610c1857600080fd5b505af1158015610c2c573d6000803e3d6000fd5b5060019250610c39915050565b600d830154600160601b900460ff166004811115610c5957610c5961211a565b14610c975760405162461bcd60e51b815260206004820152600e60248201526d21554e50524f4345535341424c4560901b60448201526064016104e6565b8160080154600114610cdc5760405162461bcd60e51b815260206004820152600e60248201526d21554e50524f4345535341424c4560901b60448201526064016104e6565b60018201548254600e840180546001600160a01b03938416939092169186917f9d1e5b985dd0611bc11e93d5075cdea08f64d1d51dd07489e6f288c20cd6669091600090610d2c57610d2c6126ad565b600091825260209091200154600e870180546001600160a01b0390921691610d56906001906127b8565b81548110610d6657610d666126ad565b60009182526020918290200154600489015460058a0154600d8b0154604080516001600160a01b039788168152969094169486019490945291840152606083015263ffffffff16608082015260a00160405180910390a450909c9b505050505050505050505050565b610dd7611a79565b6001600160a01b0316610df26033546001600160a01b031690565b6001600160a01b031614610e185760405162461bcd60e51b81526004016104e69061263d565b610e20611b67565b565b6098546001600160a01b0316610e36611a79565b6001600160a01b031614610e5c5760405162461bcd60e51b81526004016104e6906125ae565b60008281526099602052604090206003826003811115610e7e57610e7e61211a565b1415610ed757600d8101805460ff60601b1916600160611b17905580546040516001600160a01b039091169084907f3d63c73b75a797c741bcfc0ae2644bc392388e97ea718a8731d44f47da2b23a490600090a3505050565b6001826003811115610eeb57610eeb61211a565b1415610f4857600d810180546003919060ff60601b1916600160601b835b021790555080546040516001600160a01b039091169084907f5d3baeac0d91b82fe19cca4c28f0768ed59c65d7f64d48d53f166f9ec0f099c090600090a35b505050565b610f55611a79565b6001600160a01b0316610f706033546001600160a01b031690565b6001600160a01b031614610f965760405162461bcd60e51b81526004016104e69061263d565b610e206000611c00565b610fa8611a79565b6001600160a01b0316610fc36033546001600160a01b031690565b6001600160a01b031614610fe95760405162461bcd60e51b81526004016104e69061263d565b610e20611c52565b60008181526099602052604090205481906001600160a01b0316611013611a79565b6001600160a01b0316146110395760405162461bcd60e51b81526004016104e6906125ae565b60008281526099602052604090206001600d820154600160601b900460ff1660048111156110695761106961211a565b148061109457506002600d820154600160601b900460ff1660048111156110925761109261211a565b145b6110d35760405162461bcd60e51b815260206004820152601060248201526f21494e56414c4944287374617475732960801b60448201526064016104e6565b600d810180546003919060ff60601b1916600160601b83610f09565b6110f7611a79565b6001600160a01b03166111126033546001600160a01b031690565b6001600160a01b0316146111385760405162461bcd60e51b81526004016104e69061263d565b609c55565b611145611fb5565b60008281526099602090815260409182902082516102408101845281546001600160a01b03908116825260018301548116938201939093526002820154831693810193909352600381015490911660608301526004808201546080840152600582015460a0840152600682015460c0840152600782015460e084015260088201546101008401526009820154610120840152600a820154610140840152600b820154610160840152600c820154610180840152600d82015463ffffffff8082166101a0860152640100000000820481166101c0860152600160401b8204166101e0850152610200840191600160601b90910460ff169081111561124a5761124a61211a565b600481111561125b5761125b61211a565b8152602001600e82018054806020026020016040519081016040528092919081815260200182805480156106c957602002820191906000526020600020905b81546001600160a01b0316815260019091019060200180831161129a575050505050815250509050919050565b600054610100900460ff166112e25760005460ff16156112e6565b303b155b6113495760405162461bcd60e51b815260206004820152602e60248201527f496e697469616c697a61626c653a20636f6e747261637420697320616c72656160448201526d191e481a5b9a5d1a585b1a5e995960921b60648201526084016104e6565b600054610100900460ff1615801561136b576000805461ffff19166101011790555b611373611cce565b61137b611d05565b609b8290556001609c55609d805463ffffffff191662015180179055600a609e5580156113ae576000805461ff00191690555b5050565b60008181526099602052604090205481906001600160a01b03166113d4611a79565b6001600160a01b0316146113fa5760405162461bcd60e51b81526004016104e6906125ae565b60008281526099602052604090206002600d820154600160601b900460ff16600481111561142a5761142a61211a565b146114655760405162461bcd60e51b815260206004820152600b60248201526a085393d517d4105554d15160aa1b60448201526064016104e6565b600d8101805460ff60601b1916600160601b179081905563ffffffff428116600160401b9092041610156114b457600d8101805463ffffffff60401b1916600160401b4263ffffffff16021790555b609854604051637d0c250f60e11b8152600481018590526001600160a01b039091169063fa184a1e90602401600060405180830381600087803b1580156114fa57600080fd5b505af115801561150e573d6000803e3d6000fd5b505082546040516001600160a01b0390911692508591507f0d04c91a4cb25e87e66b2337207d34bd31384c15371c944d543b0d90c866e32c90600090a3505050565b6098546001600160a01b0316611564611a79565b6001600160a01b03161461158a5760405162461bcd60e51b81526004016104e6906125ae565b6000848152609960205260409020600d8101546115b79063ffffffff80821691600160401b9004166125e3565b81600d0160086101000a81548163ffffffff021916908363ffffffff160217905550838160060160008282546115ed919061260b565b9250508190555082816007016000828254611608919061260b565b925050819055506001816008016000828254611624919061260b565b9091555050805460408051868152602081018690529081018490526001600160a01b039091169086907f2cd977fbc4930a01c7a1d2d4f59916c67f5e443ee1b3efc3cf295b30b95499289060600160405180910390a36000816005015411801561169657508060050154816006015410155b156116ea57600d8101805460ff60601b1916600160621b17905580546040516001600160a01b039091169086907fe91db046d37f56c01a0949ac11e488007e1e26ea683caaee32d54c4cea5d851b90600090a35b5050505050565b6001600160a01b0382166000908152609a6020526040812080548390811061171b5761171b6126ad565b9060005260206000200154905092915050565b60008181526099602052604090205481906001600160a01b0316611750611a79565b6001600160a01b0316146117765760405162461bcd60e51b81526004016104e6906125ae565b60008281526099602052604090206001600d820154600160601b900460ff1660048111156117a6576117a661211a565b146117e15760405162461bcd60e51b815260206004820152600b60248201526a214e4f545f41435449564560a81b60448201526064016104e6565b600d8101805460ff60601b1916600160611b17905580546040516001600160a01b039091169084907f3d63c73b75a797c741bcfc0ae2644bc392388e97ea718a8731d44f47da2b23a490600090a3505050565b61183c611a79565b6001600160a01b03166118576033546001600160a01b031690565b6001600160a01b03161461187d5760405162461bcd60e51b81526004016104e69061263d565b609d805463ffffffff191663ffffffff92909216919091179055565b6118a1611a79565b6001600160a01b03166118bc6033546001600160a01b031690565b6001600160a01b0316146118e25760405162461bcd60e51b81526004016104e69061263d565b609880546001600160a01b0319166001600160a01b0392909216919091179055565b61190c611a79565b6001600160a01b03166119276033546001600160a01b031690565b6001600160a01b03161461194d5760405162461bcd60e51b81526004016104e69061263d565b609780546001600160a01b0319166001600160a01b03831617905550565b50565b611976611a79565b6001600160a01b03166119916033546001600160a01b031690565b6001600160a01b0316146119b75760405162461bcd60e51b81526004016104e69061263d565b609e55565b6119c4611a79565b6001600160a01b03166119df6033546001600160a01b031690565b6001600160a01b031614611a055760405162461bcd60e51b81526004016104e69061263d565b6001600160a01b038116611a6a5760405162461bcd60e51b815260206004820152602660248201527f4f776e61626c653a206e6577206f776e657220697320746865207a65726f206160448201526564647265737360d01b60648201526084016104e6565b61196b81611c00565b3b151590565b6000611a83611d3c565b905090565b6000611b5b8383808060200260200160405190810160405280939291908181526020018383602002808284376000920182905250609b5493508d92508c91508b908b908b9081611ada57611ada6126ad565b9050602002016020810190611aef91906120ab565b8b8b6001818110611b0257611b026126ad565b9050602002016020810190611b1791906120ab565b8c8c6002908092611b2a9392919061278a565b604051602001611b4097969594939291906127cf565b60405160208183030381529060405280519060200120611d70565b98975050505050505050565b60655460ff16611bb05760405162461bcd60e51b815260206004820152601460248201527314185d5cd8589b194e881b9bdd081c185d5cd95960621b60448201526064016104e6565b6065805460ff191690557f5db9ee0a495bf2e6ff9c91a7834c1ba4fdd244a5e8aa4e537bd38aeae4b073aa611be3611a79565b6040516001600160a01b03909116815260200160405180910390a1565b603380546001600160a01b038381166001600160a01b0319831681179093556040519116919082907f8be0079c531659141344cd1fd0a4f28419497f9722a3daafe3b4186f6b6457e090600090a35050565b60655460ff1615611c985760405162461bcd60e51b815260206004820152601060248201526f14185d5cd8589b194e881c185d5cd95960821b60448201526064016104e6565b6065805460ff191660011790557f62e78cea01bee320cd4e420270b5ea74000d11b0c9f74754ebdbfc544b05a258611be3611a79565b600054610100900460ff16611cf55760405162461bcd60e51b81526004016104e69061286d565b611cfd611d86565b610e20611dad565b600054610100900460ff16611d2c5760405162461bcd60e51b81526004016104e69061286d565b611d34611d86565b610e20611de4565b600060143610801590611d5957506097546001600160a01b031633145b15611d6b575060131936013560601c90565b503390565b600082611d7d8584611e17565b14949350505050565b600054610100900460ff16610e205760405162461bcd60e51b81526004016104e69061286d565b600054610100900460ff16611dd45760405162461bcd60e51b81526004016104e69061286d565b610e20611ddf611a79565b611c00565b600054610100900460ff16611e0b5760405162461bcd60e51b81526004016104e69061286d565b6065805460ff19169055565b600081815b8451811015611ebb576000858281518110611e3957611e396126ad565b60200260200101519050808311611e7b576040805160208101859052908101829052606001604051602081830303815290604052805190602001209250611ea8565b60408051602081018390529081018490526060016040516020818303038152906040528051906020012092505b5080611eb3816128b8565b915050611e1c565b509392505050565b604080518082019091528060005b8152602001606081525090565b828054828255906000526020600020908101928215611f31579160200282015b82811115611f315781546001600160a01b0319166001600160a01b03843516178255602090920191600190910190611efe565b50611f3d92915061207a565b5090565b828054611f4d90612672565b90600052602060002090601f016020900481019282611f6f5760008555611f31565b82601f10611f885782800160ff19823516178555611f31565b82800160010185558215611f31579182015b82811115611f31578235825591602001919060010190611f9a565b60405180610240016040528060006001600160a01b0316815260200160006001600160a01b0316815260200160006001600160a01b0316815260200160006001600160a01b03168152602001600081526020016000815260200160008152602001600081526020016000815260200160008152602001600081526020016000815260200160008152602001600063ffffffff168152602001600063ffffffff168152602001600063ffffffff16815260200160006004811115611ed157611ed161211a565b5b80821115611f3d576000815560010161207b565b80356001600160a01b03811681146120a657600080fd5b919050565b6000602082840312156120bd57600080fd5b6120c68261208f565b9392505050565b600080604083850312156120e057600080fd5b823591506020830135600681106120f657600080fd5b809150509250929050565b60006020828403121561211357600080fd5b5035919050565b634e487b7160e01b600052602160045260246000fd5b600381106121405761214061211a565b9052565b6000815180845260005b8181101561216a5760208185018101518683018201520161214e565b8181111561217c576000602083870101525b50601f01601f19169290920160200192915050565b602081526121a3602082018351612130565b600060208301516040808401526121bd6060840182612144565b949350505050565b60008083601f8401126121d757600080fd5b50813567ffffffffffffffff8111156121ef57600080fd5b6020830191508360208260051b850101111561220a57600080fd5b9250929050565b8035600381106120a657600080fd5b60008083601f84011261223257600080fd5b50813567ffffffffffffffff81111561224a57600080fd5b60208301915083602082850101111561220a57600080fd5b60008060008060008060008060008060c08b8d03121561228157600080fd5b8a3567ffffffffffffffff8082111561229957600080fd5b6122a58e838f016121c5565b909c509a5060208d01359150808211156122be57600080fd5b6122ca8e838f016121c5565b909a5098508891506122de60408e01612211565b975060608d01359150808211156122f457600080fd5b6123008e838f01612220565b909750955085915061231460808e0161208f565b945060a08d013591508082111561232a57600080fd5b506123378d828e016121c5565b915080935050809150509295989b9194979a5092959850565b6020815260006120c66020830184612144565b6000806040838503121561237657600080fd5b823591506020830135600481106120f657600080fd5b600581106121405761214061211a565b600081518084526020808501945080840160005b838110156123d55781516001600160a01b0316875295820195908201906001016123b0565b509495945050505050565b602081526123fa6020820183516001600160a01b03169052565b6000602083015161241660408401826001600160a01b03169052565b5060408301516001600160a01b03811660608401525060608301516001600160a01b038116608084015250608083015160a08381019190915283015160c08084019190915283015160e08084019190915283015161010080840191909152830151610120808401919091528301516101408084019190915283015161016080840191909152830151610180808401919091528301516101a0808401919091528301516101c06124cc8185018363ffffffff169052565b84015190506101e06124e58482018363ffffffff169052565b84015190506102006124fe8482018363ffffffff169052565b84015190506102206125128482018361238c565b8401516102408481015290506121bd61026084018261239c565b6000806000806080858703121561254257600080fd5b5050823594602084013594506040840135936060013592509050565b6000806040838503121561257157600080fd5b61257a8361208f565b946020939093013593505050565b60006020828403121561259a57600080fd5b813563ffffffff811681146120c657600080fd5b60208082526005908201526404282aaa8960db1b604082015260600190565b634e487b7160e01b600052601160045260246000fd5b600063ffffffff808316818516808303821115612602576126026125cd565b01949350505050565b6000821982111561261e5761261e6125cd565b500190565b60208101600683106126375761263761211a565b91905290565b6020808252818101527f4f776e61626c653a2063616c6c6572206973206e6f7420746865206f776e6572604082015260600190565b600181811c9082168061268657607f821691505b602082108114156126a757634e487b7160e01b600052602260045260246000fd5b50919050565b634e487b7160e01b600052603260045260246000fd5b60006001600160fb1b038311156126d957600080fd5b8260051b8083863760009401938452509192915050565b6bffffffffffffffffffffffff198b60601b168152600060038b106127175761271761211a565b8a60f81b6014830152888a60158401376000828a0160150181815289915b89811015612763576001600160a01b0361274e8461208f565b16825260209283019290910190600101612735565b5061276f81888a6126c3565b95865250505050602082015260400198975050505050505050565b6000808585111561279a57600080fd5b838611156127a757600080fd5b5050600583901b0193919092039150565b6000828210156127ca576127ca6125cd565b500390565b6127d98189612130565b6000602060a0818401528760a0840152878960c0850137600060c089850181018290526001600160a01b0389811660408701528881166060870152601f8b01601f191686018681038301608088015291820187905287929160e0015b8783101561285c57816128478561208f565b16815292840192600192909201918401612835565b9d9c50505050505050505050505050565b6020808252602b908201527f496e697469616c697a61626c653a20636f6e7472616374206973206e6f74206960408201526a6e697469616c697a696e6760a81b606082015260800190565b60006000198214156128cc576128cc6125cd565b506001019056fea2646970667358221220a44cadbee6d4a4019e9ecc73b988865b20dc8e11ee9a1211bee9e1c1c01422af64736f6c63430008090033",
  "devdoc": {
    "kind": "dev",
    "methods": {
      "constructor": {
        "custom:oz-upgrades-unsafe-allow": "constructor"
      },
      "owner()": {
        "details": "Returns the address of the current owner."
      },
      "paused()": {
        "details": "Returns true if the contract is paused, and false otherwise."
      },
      "renounceOwnership()": {
        "details": "Leaves the contract without owner. It will not be possible to call `onlyOwner` functions anymore. Can only be called by the current owner. NOTE: Renouncing ownership will leave the contract without an owner, thereby removing any functionality that is only available to the owner."
      },
      "transferOwnership(address)": {
        "details": "Transfers ownership of the contract to a new account (`newOwner`). Can only be called by the current owner."
      }
    },
    "stateVariables": {
      "assetsMerkleRoot": {
        "details": "merkle root of approved assets. "
      },
      "dcaManager": {
        "details": "contract to manage DCA executions. "
      },
      "dcaMap": {
        "details": "map of DCA ID to DCA info. "
      },
      "minAmount": {
        "details": "minimum amount of vault base asset for a DCA. "
      },
      "minPeriod": {
        "details": "minimum period for a DCA. "
      },
      "minSlippage": {
        "details": "minimum slippage allowed for a DCA. "
      },
      "swapInfoMap": {
        "details": "swap type and optional swap data for a DCA. "
      }
    },
    "version": 1
  },
  "userdoc": {
    "kind": "user",
    "methods": {
      "isTrustedForwarder(address)": {
        "notice": "return if the forwarder is trusted to forward relayed transactions to us. the forwarder is required to verify the sender's signature, and verify the call is not a replay."
      }
    },
    "version": 1
  },
  "storageLayout": {
    "storage": [
      {
        "astId": 327,
        "contract": "contracts/dca/CaskDCA.sol:CaskDCA",
        "label": "_initialized",
        "offset": 0,
        "slot": "0",
        "type": "t_bool"
      },
      {
        "astId": 330,
        "contract": "contracts/dca/CaskDCA.sol:CaskDCA",
        "label": "_initializing",
        "offset": 1,
        "slot": "0",
        "type": "t_bool"
      },
      {
        "astId": 2551,
        "contract": "contracts/dca/CaskDCA.sol:CaskDCA",
        "label": "__gap",
        "offset": 0,
        "slot": "1",
        "type": "t_array(t_uint256)50_storage"
      },
      {
        "astId": 205,
        "contract": "contracts/dca/CaskDCA.sol:CaskDCA",
        "label": "_owner",
        "offset": 0,
        "slot": "51",
        "type": "t_address"
      },
      {
        "astId": 319,
        "contract": "contracts/dca/CaskDCA.sol:CaskDCA",
        "label": "__gap",
        "offset": 0,
        "slot": "52",
        "type": "t_array(t_uint256)49_storage"
      },
      {
        "astId": 415,
        "contract": "contracts/dca/CaskDCA.sol:CaskDCA",
        "label": "_paused",
        "offset": 0,
        "slot": "101",
        "type": "t_bool"
      },
      {
        "astId": 506,
        "contract": "contracts/dca/CaskDCA.sol:CaskDCA",
        "label": "__gap",
        "offset": 0,
        "slot": "102",
        "type": "t_array(t_uint256)49_storage"
      },
      {
        "astId": 72,
        "contract": "contracts/dca/CaskDCA.sol:CaskDCA",
        "label": "_trustedForwarder",
        "offset": 0,
        "slot": "151",
        "type": "t_address"
      },
      {
        "astId": 13391,
        "contract": "contracts/dca/CaskDCA.sol:CaskDCA",
        "label": "dcaManager",
        "offset": 0,
        "slot": "152",
        "type": "t_contract(ICaskDCAManager)16457"
      },
      {
        "astId": 13397,
        "contract": "contracts/dca/CaskDCA.sol:CaskDCA",
        "label": "dcaMap",
        "offset": 0,
        "slot": "153",
        "type": "t_mapping(t_bytes32,t_struct(DCA)16266_storage)"
      },
      {
        "astId": 13402,
        "contract": "contracts/dca/CaskDCA.sol:CaskDCA",
        "label": "userDCAs",
        "offset": 0,
        "slot": "154",
        "type": "t_mapping(t_address,t_array(t_bytes32)dyn_storage)"
      },
      {
        "astId": 13405,
        "contract": "contracts/dca/CaskDCA.sol:CaskDCA",
        "label": "assetsMerkleRoot",
        "offset": 0,
        "slot": "155",
        "type": "t_bytes32"
      },
      {
        "astId": 13408,
        "contract": "contracts/dca/CaskDCA.sol:CaskDCA",
        "label": "minAmount",
        "offset": 0,
        "slot": "156",
        "type": "t_uint256"
      },
      {
        "astId": 13411,
        "contract": "contracts/dca/CaskDCA.sol:CaskDCA",
        "label": "minPeriod",
        "offset": 0,
        "slot": "157",
        "type": "t_uint32"
      },
      {
        "astId": 13414,
        "contract": "contracts/dca/CaskDCA.sol:CaskDCA",
        "label": "minSlippage",
        "offset": 0,
        "slot": "158",
        "type": "t_uint256"
      },
      {
        "astId": 13420,
        "contract": "contracts/dca/CaskDCA.sol:CaskDCA",
        "label": "swapInfoMap",
        "offset": 0,
        "slot": "159",
        "type": "t_mapping(t_bytes32,t_struct(SwapInfo)16272_storage)"
      }
    ],
    "types": {
      "t_address": {
        "encoding": "inplace",
        "label": "address",
        "numberOfBytes": "20"
      },
      "t_array(t_address)dyn_storage": {
        "base": "t_address",
        "encoding": "dynamic_array",
        "label": "address[]",
        "numberOfBytes": "32"
      },
      "t_array(t_bytes32)dyn_storage": {
        "base": "t_bytes32",
        "encoding": "dynamic_array",
        "label": "bytes32[]",
        "numberOfBytes": "32"
      },
      "t_array(t_uint256)49_storage": {
        "base": "t_uint256",
        "encoding": "inplace",
        "label": "uint256[49]",
        "numberOfBytes": "1568"
      },
      "t_array(t_uint256)50_storage": {
        "base": "t_uint256",
        "encoding": "inplace",
        "label": "uint256[50]",
        "numberOfBytes": "1600"
      },
      "t_bool": {
        "encoding": "inplace",
        "label": "bool",
        "numberOfBytes": "1"
      },
      "t_bytes32": {
        "encoding": "inplace",
        "label": "bytes32",
        "numberOfBytes": "32"
      },
      "t_bytes_storage": {
        "encoding": "bytes",
        "label": "bytes",
        "numberOfBytes": "32"
      },
      "t_contract(ICaskDCAManager)16457": {
        "encoding": "inplace",
        "label": "contract ICaskDCAManager",
        "numberOfBytes": "20"
      },
      "t_enum(DCAStatus)16215": {
        "encoding": "inplace",
        "label": "enum ICaskDCA.DCAStatus",
        "numberOfBytes": "1"
      },
      "t_enum(SwapProtocol)16209": {
        "encoding": "inplace",
        "label": "enum ICaskDCA.SwapProtocol",
        "numberOfBytes": "1"
      },
      "t_mapping(t_address,t_array(t_bytes32)dyn_storage)": {
        "encoding": "mapping",
        "key": "t_address",
        "label": "mapping(address => bytes32[])",
        "numberOfBytes": "32",
        "value": "t_array(t_bytes32)dyn_storage"
      },
      "t_mapping(t_bytes32,t_struct(DCA)16266_storage)": {
        "encoding": "mapping",
        "key": "t_bytes32",
        "label": "mapping(bytes32 => struct ICaskDCA.DCA)",
        "numberOfBytes": "32",
        "value": "t_struct(DCA)16266_storage"
      },
      "t_mapping(t_bytes32,t_struct(SwapInfo)16272_storage)": {
        "encoding": "mapping",
        "key": "t_bytes32",
        "label": "mapping(bytes32 => struct ICaskDCA.SwapInfo)",
        "numberOfBytes": "32",
        "value": "t_struct(SwapInfo)16272_storage"
      },
      "t_struct(DCA)16266_storage": {
        "encoding": "inplace",
        "label": "struct ICaskDCA.DCA",
        "members": [
          {
            "astId": 16229,
            "contract": "contracts/dca/CaskDCA.sol:CaskDCA",
            "label": "user",
            "offset": 0,
            "slot": "0",
            "type": "t_address"
          },
          {
            "astId": 16231,
            "contract": "contracts/dca/CaskDCA.sol:CaskDCA",
            "label": "to",
            "offset": 0,
            "slot": "1",
            "type": "t_address"
          },
          {
            "astId": 16233,
            "contract": "contracts/dca/CaskDCA.sol:CaskDCA",
            "label": "router",
            "offset": 0,
            "slot": "2",
            "type": "t_address"
          },
          {
            "astId": 16235,
            "contract": "contracts/dca/CaskDCA.sol:CaskDCA",
            "label": "priceFeed",
            "offset": 0,
            "slot": "3",
            "type": "t_address"
          },
          {
            "astId": 16237,
            "contract": "contracts/dca/CaskDCA.sol:CaskDCA",
            "label": "amount",
            "offset": 0,
            "slot": "4",
            "type": "t_uint256"
          },
          {
            "astId": 16239,
            "contract": "contracts/dca/CaskDCA.sol:CaskDCA",
            "label": "totalAmount",
            "offset": 0,
            "slot": "5",
            "type": "t_uint256"
          },
          {
            "astId": 16241,
            "contract": "contracts/dca/CaskDCA.sol:CaskDCA",
            "label": "currentAmount",
            "offset": 0,
            "slot": "6",
            "type": "t_uint256"
          },
          {
            "astId": 16243,
            "contract": "contracts/dca/CaskDCA.sol:CaskDCA",
            "label": "currentQty",
            "offset": 0,
            "slot": "7",
            "type": "t_uint256"
          },
          {
            "astId": 16245,
            "contract": "contracts/dca/CaskDCA.sol:CaskDCA",
            "label": "numBuys",
            "offset": 0,
            "slot": "8",
            "type": "t_uint256"
          },
          {
            "astId": 16247,
            "contract": "contracts/dca/CaskDCA.sol:CaskDCA",
            "label": "numSkips",
            "offset": 0,
            "slot": "9",
            "type": "t_uint256"
          },
          {
            "astId": 16249,
            "contract": "contracts/dca/CaskDCA.sol:CaskDCA",
            "label": "maxSlippageBps",
            "offset": 0,
            "slot": "10",
            "type": "t_uint256"
          },
          {
            "astId": 16251,
            "contract": "contracts/dca/CaskDCA.sol:CaskDCA",
            "label": "maxPrice",
            "offset": 0,
            "slot": "11",
            "type": "t_uint256"
          },
          {
            "astId": 16253,
            "contract": "contracts/dca/CaskDCA.sol:CaskDCA",
            "label": "minPrice",
            "offset": 0,
            "slot": "12",
            "type": "t_uint256"
          },
          {
            "astId": 16255,
            "contract": "contracts/dca/CaskDCA.sol:CaskDCA",
            "label": "period",
            "offset": 0,
            "slot": "13",
            "type": "t_uint32"
          },
          {
            "astId": 16257,
            "contract": "contracts/dca/CaskDCA.sol:CaskDCA",
            "label": "createdAt",
            "offset": 4,
            "slot": "13",
            "type": "t_uint32"
          },
          {
            "astId": 16259,
            "contract": "contracts/dca/CaskDCA.sol:CaskDCA",
            "label": "processAt",
            "offset": 8,
            "slot": "13",
            "type": "t_uint32"
          },
          {
            "astId": 16262,
            "contract": "contracts/dca/CaskDCA.sol:CaskDCA",
            "label": "status",
            "offset": 12,
            "slot": "13",
            "type": "t_enum(DCAStatus)16215"
          },
          {
            "astId": 16265,
            "contract": "contracts/dca/CaskDCA.sol:CaskDCA",
            "label": "path",
            "offset": 0,
            "slot": "14",
            "type": "t_array(t_address)dyn_storage"
          }
        ],
        "numberOfBytes": "480"
      },
      "t_struct(SwapInfo)16272_storage": {
        "encoding": "inplace",
        "label": "struct ICaskDCA.SwapInfo",
        "members": [
          {
            "astId": 16269,
            "contract": "contracts/dca/CaskDCA.sol:CaskDCA",
            "label": "swapProtocol",
            "offset": 0,
            "slot": "0",
            "type": "t_enum(SwapProtocol)16209"
          },
          {
            "astId": 16271,
            "contract": "contracts/dca/CaskDCA.sol:CaskDCA",
            "label": "swapData",
            "offset": 0,
            "slot": "1",
            "type": "t_bytes_storage"
          }
        ],
        "numberOfBytes": "64"
      },
      "t_uint256": {
        "encoding": "inplace",
        "label": "uint256",
        "numberOfBytes": "32"
      },
      "t_uint32": {
        "encoding": "inplace",
        "label": "uint32",
        "numberOfBytes": "4"
      }
    }
  }
}