{
  "address": "0x2A3abde875484797A38B68904d924Dd44Ae2eb97",
  "abi": [
    {
      "inputs": [],
      "stateMutability": "nonpayable",
      "type": "constructor"
    },
    {
      "anonymous": false,
      "inputs": [
        {
          "indexed": true,
          "internalType": "address",
          "name": "previousOwner",
          "type": "address"
        },
        {
          "indexed": true,
          "internalType": "address",
          "name": "newOwner",
          "type": "address"
        }
      ],
      "name": "OwnershipTransferred",
      "type": "event"
    },
    {
      "anonymous": false,
      "inputs": [
        {
          "indexed": false,
          "internalType": "address",
          "name": "account",
          "type": "address"
        }
      ],
      "name": "Paused",
      "type": "event"
    },
    {
      "anonymous": false,
      "inputs": [
        {
          "indexed": false,
          "internalType": "uint256",
          "name": "limit",
          "type": "uint256"
        },
        {
          "indexed": false,
          "internalType": "uint256",
          "name": "jobsProcessed",
          "type": "uint256"
        },
        {
          "indexed": false,
          "internalType": "uint256",
          "name": "depth",
          "type": "uint256"
        },
        {
          "indexed": false,
          "internalType": "uint8",
          "name": "queueId",
          "type": "uint8"
        },
        {
          "indexed": false,
          "internalType": "uint256",
          "name": "queueRemaining",
          "type": "uint256"
        },
        {
          "indexed": false,
          "internalType": "uint32",
          "name": "currentBucket",
          "type": "uint32"
        }
      ],
      "name": "QueueRunReport",
      "type": "event"
    },
    {
      "anonymous": false,
      "inputs": [
        {
          "indexed": false,
          "internalType": "address",
          "name": "registry",
          "type": "address"
        }
      ],
      "name": "RegistryAllowed",
      "type": "event"
    },
    {
      "anonymous": false,
      "inputs": [
        {
          "indexed": false,
          "internalType": "address",
          "name": "registry",
          "type": "address"
        }
      ],
      "name": "RegistryDisallowed",
      "type": "event"
    },
    {
      "anonymous": false,
      "inputs": [],
      "name": "SetChainlinkAddresses",
      "type": "event"
    },
    {
      "anonymous": false,
      "inputs": [
        {
          "indexed": false,
          "internalType": "address",
          "name": "feeDistributor",
          "type": "address"
        }
      ],
      "name": "SetFeeDistributor",
      "type": "event"
    },
    {
      "anonymous": false,
      "inputs": [],
      "name": "SetParameters",
      "type": "event"
    },
    {
      "anonymous": false,
      "inputs": [
        {
          "indexed": false,
          "internalType": "address",
          "name": "account",
          "type": "address"
        }
      ],
      "name": "Unpaused",
      "type": "event"
    },
    {
      "anonymous": false,
      "inputs": [
        {
          "indexed": false,
          "internalType": "uint8",
          "name": "queueId",
          "type": "uint8"
        },
        {
          "indexed": false,
          "internalType": "bytes32",
          "name": "workUnit",
          "type": "bytes32"
        }
      ],
      "name": "WorkUnitProcessed",
      "type": "event"
    },
    {
      "anonymous": false,
      "inputs": [
        {
          "indexed": false,
          "internalType": "uint8",
          "name": "queueId",
          "type": "uint8"
        },
        {
          "indexed": false,
          "internalType": "bytes32",
          "name": "workUnit",
          "type": "bytes32"
        },
        {
          "indexed": false,
          "internalType": "uint32",
          "name": "processAt",
          "type": "uint32"
        }
      ],
      "name": "WorkUnitQueued",
      "type": "event"
    },
    {
      "inputs": [
        {
          "internalType": "address",
          "name": "_registry",
          "type": "address"
        }
      ],
      "name": "allowRegistry",
      "outputs": [],
      "stateMutability": "nonpayable",
      "type": "function"
    },
    {
      "inputs": [
        {
          "internalType": "address",
          "name": "",
          "type": "address"
        }
      ],
      "name": "allowedRegistries",
      "outputs": [
        {
          "internalType": "bool",
          "name": "",
          "type": "bool"
        }
      ],
      "stateMutability": "view",
      "type": "function"
    },
    {
      "inputs": [],
      "name": "caskChainlinkTopup",
      "outputs": [
        {
          "internalType": "contract ICaskChainlinkTopup",
          "name": "",
          "type": "address"
        }
      ],
      "stateMutability": "view",
      "type": "function"
    },
    {
      "inputs": [],
      "name": "caskVault",
      "outputs": [
        {
          "internalType": "contract ICaskVault",
          "name": "",
          "type": "address"
        }
      ],
      "stateMutability": "view",
      "type": "function"
    },
    {
      "inputs": [
        {
          "internalType": "bytes",
          "name": "checkData",
          "type": "bytes"
        }
      ],
      "name": "checkUpkeep",
      "outputs": [
        {
          "internalType": "bool",
          "name": "upkeepNeeded",
          "type": "bool"
        },
        {
          "internalType": "bytes",
          "name": "performData",
          "type": "bytes"
        }
      ],
      "stateMutability": "view",
      "type": "function"
    },
    {
      "inputs": [
        {
          "internalType": "address",
          "name": "_registry",
          "type": "address"
        }
      ],
      "name": "disallowRegistry",
      "outputs": [],
      "stateMutability": "nonpayable",
      "type": "function"
    },
    {
      "inputs": [],
      "name": "feeDistributor",
      "outputs": [
        {
          "internalType": "address",
          "name": "",
          "type": "address"
        }
      ],
      "stateMutability": "view",
      "type": "function"
    },
    {
      "inputs": [],
      "name": "fixme",
      "outputs": [],
      "stateMutability": "nonpayable",
      "type": "function"
    },
    {
      "inputs": [
        {
          "internalType": "address",
          "name": "_caskChainlinkTopup",
          "type": "address"
        },
        {
          "internalType": "address",
          "name": "_caskVault",
          "type": "address"
        },
        {
          "internalType": "address",
          "name": "_feeDistributor",
          "type": "address"
        }
      ],
      "name": "initialize",
      "outputs": [],
      "stateMutability": "nonpayable",
      "type": "function"
    },
    {
      "inputs": [],
      "name": "linkBridgeToken",
      "outputs": [
        {
          "internalType": "contract IERC20Metadata",
          "name": "",
          "type": "address"
        }
      ],
      "stateMutability": "view",
      "type": "function"
    },
    {
      "inputs": [],
      "name": "linkFundingToken",
      "outputs": [
        {
          "internalType": "contract LinkTokenInterface",
          "name": "",
          "type": "address"
        }
      ],
      "stateMutability": "view",
      "type": "function"
    },
    {
      "inputs": [],
      "name": "linkPriceFeed",
      "outputs": [
        {
          "internalType": "contract AggregatorV3Interface",
          "name": "",
          "type": "address"
        }
      ],
      "stateMutability": "view",
      "type": "function"
    },
    {
      "inputs": [],
      "name": "linkSwapData",
      "outputs": [
        {
          "internalType": "bytes",
          "name": "",
          "type": "bytes"
        }
      ],
      "stateMutability": "view",
      "type": "function"
    },
    {
      "inputs": [
        {
          "internalType": "uint256",
          "name": "",
          "type": "uint256"
        }
      ],
      "name": "linkSwapPath",
      "outputs": [
        {
          "internalType": "address",
          "name": "",
          "type": "address"
        }
      ],
      "stateMutability": "view",
      "type": "function"
    },
    {
      "inputs": [],
      "name": "linkSwapProtocol",
      "outputs": [
        {
          "internalType": "enum ICaskChainlinkTopupManager.SwapProtocol",
          "name": "",
          "type": "uint8"
        }
      ],
      "stateMutability": "view",
      "type": "function"
    },
    {
      "inputs": [],
      "name": "linkSwapRouter",
      "outputs": [
        {
          "internalType": "address",
          "name": "",
          "type": "address"
        }
      ],
      "stateMutability": "view",
      "type": "function"
    },
    {
      "inputs": [],
      "name": "maxPriceFeedAge",
      "outputs": [
        {
          "internalType": "uint256",
          "name": "",
          "type": "uint256"
        }
      ],
      "stateMutability": "view",
      "type": "function"
    },
    {
      "inputs": [],
      "name": "maxQueueAge",
      "outputs": [
        {
          "internalType": "uint32",
          "name": "",
          "type": "uint32"
        }
      ],
      "stateMutability": "view",
      "type": "function"
    },
    {
      "inputs": [],
      "name": "maxSkips",
      "outputs": [
        {
          "internalType": "uint256",
          "name": "",
          "type": "uint256"
        }
      ],
      "stateMutability": "view",
      "type": "function"
    },
    {
      "inputs": [],
      "name": "maxSwapSlippageBps",
      "outputs": [
        {
          "internalType": "uint256",
          "name": "",
          "type": "uint256"
        }
      ],
      "stateMutability": "view",
      "type": "function"
    },
    {
      "inputs": [],
      "name": "maxTopupsPerGroupRun",
      "outputs": [
        {
          "internalType": "uint256",
          "name": "",
          "type": "uint256"
        }
      ],
      "stateMutability": "view",
      "type": "function"
    },
    {
      "inputs": [],
      "name": "owner",
      "outputs": [
        {
          "internalType": "address",
          "name": "",
          "type": "address"
        }
      ],
      "stateMutability": "view",
      "type": "function"
    },
    {
      "inputs": [],
      "name": "paused",
      "outputs": [
        {
          "internalType": "bool",
          "name": "",
          "type": "bool"
        }
      ],
      "stateMutability": "view",
      "type": "function"
    },
    {
      "inputs": [],
      "name": "pegswap",
      "outputs": [
        {
          "internalType": "contract IPegSwap",
          "name": "",
          "type": "address"
        }
      ],
      "stateMutability": "view",
      "type": "function"
    },
    {
      "inputs": [
        {
          "internalType": "bytes",
          "name": "performData",
          "type": "bytes"
        }
      ],
      "name": "performUpkeep",
      "outputs": [],
      "stateMutability": "nonpayable",
      "type": "function"
    },
    {
      "inputs": [],
      "name": "queueBucketSize",
      "outputs": [
        {
          "internalType": "uint32",
          "name": "",
          "type": "uint32"
        }
      ],
      "stateMutability": "view",
      "type": "function"
    },
    {
      "inputs": [
        {
          "internalType": "uint8",
          "name": "_queueId",
          "type": "uint8"
        },
        {
          "internalType": "uint32",
          "name": "_bucket",
          "type": "uint32"
        },
        {
          "internalType": "uint256",
          "name": "_idx",
          "type": "uint256"
        }
      ],
      "name": "queueItem",
      "outputs": [
        {
          "internalType": "bytes32",
          "name": "",
          "type": "bytes32"
        }
      ],
      "stateMutability": "view",
      "type": "function"
    },
    {
      "inputs": [
        {
          "internalType": "uint8",
          "name": "_queueId",
          "type": "uint8"
        }
      ],
      "name": "queuePosition",
      "outputs": [
        {
          "internalType": "uint32",
          "name": "",
          "type": "uint32"
        }
      ],
      "stateMutability": "view",
      "type": "function"
    },
    {
      "inputs": [
        {
          "internalType": "uint8",
          "name": "_queueId",
          "type": "uint8"
        },
        {
          "internalType": "uint32",
          "name": "_bucket",
          "type": "uint32"
        }
      ],
      "name": "queueSize",
      "outputs": [
        {
          "internalType": "uint256",
          "name": "",
          "type": "uint256"
        }
      ],
      "stateMutability": "view",
      "type": "function"
    },
    {
      "inputs": [
        {
          "internalType": "address",
          "name": "_asset",
          "type": "address"
        },
        {
          "internalType": "address",
          "name": "_dest",
          "type": "address"
        }
      ],
      "name": "recoverFunds",
      "outputs": [],
      "stateMutability": "nonpayable",
      "type": "function"
    },
    {
      "inputs": [
        {
          "internalType": "bytes32",
          "name": "_chainlinkTopupId",
          "type": "bytes32"
        }
      ],
      "name": "registerChainlinkTopup",
      "outputs": [],
      "stateMutability": "nonpayable",
      "type": "function"
    },
    {
      "inputs": [
        {
          "internalType": "address",
          "name": "_registry",
          "type": "address"
        }
      ],
      "name": "registryAllowed",
      "outputs": [
        {
          "internalType": "bool",
          "name": "",
          "type": "bool"
        }
      ],
      "stateMutability": "view",
      "type": "function"
    },
    {
      "inputs": [],
      "name": "renounceOwnership",
      "outputs": [],
      "stateMutability": "nonpayable",
      "type": "function"
    },
    {
      "inputs": [
        {
          "internalType": "address",
          "name": "_linkBridgeToken",
          "type": "address"
        },
        {
          "internalType": "address",
          "name": "_linkFundingToken",
          "type": "address"
        },
        {
          "internalType": "address",
          "name": "_linkPriceFeed",
          "type": "address"
        },
        {
          "internalType": "address",
          "name": "_linkSwapRouter",
          "type": "address"
        },
        {
          "internalType": "address[]",
          "name": "_linkSwapPath",
          "type": "address[]"
        },
        {
          "internalType": "address",
          "name": "_pegswap",
          "type": "address"
        },
        {
          "internalType": "enum ICaskChainlinkTopupManager.SwapProtocol",
          "name": "_linkSwapProtocol",
          "type": "uint8"
        },
        {
          "internalType": "bytes",
          "name": "_linkSwapData",
          "type": "bytes"
        }
      ],
      "name": "setChainklinkAddresses",
      "outputs": [],
      "stateMutability": "nonpayable",
      "type": "function"
    },
    {
      "inputs": [
        {
          "internalType": "address",
          "name": "_feeDistributor",
          "type": "address"
        }
      ],
      "name": "setFeeDistributor",
      "outputs": [],
      "stateMutability": "nonpayable",
      "type": "function"
    },
    {
      "inputs": [
        {
          "internalType": "uint32",
          "name": "_maxQueueAge",
          "type": "uint32"
        }
      ],
      "name": "setMaxQueueAge",
      "outputs": [],
      "stateMutability": "nonpayable",
      "type": "function"
    },
    {
      "inputs": [
        {
          "internalType": "uint256",
          "name": "_maxSkips",
          "type": "uint256"
        },
        {
          "internalType": "uint256",
          "name": "_topupFeeBps",
          "type": "uint256"
        },
        {
          "internalType": "uint256",
          "name": "_topupFeeMin",
          "type": "uint256"
        },
        {
          "internalType": "uint256",
          "name": "_maxPriceFeedAge",
          "type": "uint256"
        },
        {
          "internalType": "uint256",
          "name": "_maxTopupsPerGroupRun",
          "type": "uint256"
        },
        {
          "internalType": "uint256",
          "name": "_maxSwapSlippageBps",
          "type": "uint256"
        },
        {
          "internalType": "uint32",
          "name": "_queueBucketSize",
          "type": "uint32"
        },
        {
          "internalType": "uint32",
          "name": "_maxQueueAge",
          "type": "uint32"
        }
      ],
      "name": "setParameters",
      "outputs": [],
      "stateMutability": "nonpayable",
      "type": "function"
    },
    {
      "inputs": [
        {
          "internalType": "uint32",
          "name": "_queueBucketSize",
          "type": "uint32"
        }
      ],
      "name": "setQueueBucketSize",
      "outputs": [],
      "stateMutability": "nonpayable",
      "type": "function"
    },
    {
      "inputs": [
        {
          "internalType": "uint8",
          "name": "_queueId",
          "type": "uint8"
        },
        {
          "internalType": "uint32",
          "name": "_timestamp",
          "type": "uint32"
        }
      ],
      "name": "setQueuePosition",
      "outputs": [],
      "stateMutability": "nonpayable",
      "type": "function"
    },
    {
      "inputs": [],
      "name": "topupFeeBps",
      "outputs": [
        {
          "internalType": "uint256",
          "name": "",
          "type": "uint256"
        }
      ],
      "stateMutability": "view",
      "type": "function"
    },
    {
      "inputs": [],
      "name": "topupFeeMin",
      "outputs": [
        {
          "internalType": "uint256",
          "name": "",
          "type": "uint256"
        }
      ],
      "stateMutability": "view",
      "type": "function"
    },
    {
      "inputs": [
        {
          "internalType": "address",
          "name": "newOwner",
          "type": "address"
        }
      ],
      "name": "transferOwnership",
      "outputs": [],
      "stateMutability": "nonpayable",
      "type": "function"
    }
  ],
  "transactionHash": "0xf517c33cc9af143a8c8a3347e25e07eeff42219bf6905d0fc33d274c77ae9d4f",
  "args": [],
  "numDeployments": 1,
  "solcInputHash": "d65b2d90eef8c36a07f1a65c8eee6699",
  "bytecode": "0x60806040523480156200001157600080fd5b50600054610100900460ff166200002f5760005460ff161562000039565b62000039620000de565b620000a15760405162461bcd60e51b815260206004820152602e60248201527f496e697469616c697a61626c653a20636f6e747261637420697320616c72656160448201526d191e481a5b9a5d1a585b1a5e995960921b606482015260840160405180910390fd5b600054610100900460ff16158015620000c4576000805461ffff19166101011790555b8015620000d7576000805461ff00191690555b5062000102565b6000620000f630620000fc60201b620015fc1760201c565b15905090565b3b151590565b614b1080620001126000396000f3fe608060405234801561001057600080fd5b506004361061025d5760003560e01c80638bddd2e411610146578063c6f8806c116100c3578063e6cab67111610087578063e6cab6711461056d578063f009451e14610580578063f2fde38b14610593578063faec9c22146105a6578063fce02400146105b9578063ff7137fd146105cc57600080fd5b8063c6f8806c146104f0578063ccfc2e8d14610508578063cd48a6141461051b578063d5f59fb91461052e578063dfd609bb1461055a57600080fd5b8063b7c3565d1161010a578063b7c3565d146104af578063b95f1624146104b8578063c0c53b8b146104cb578063c29c0e9c146104de578063c5064653146104e757600080fd5b80638bddd2e4146104555780638da5cb5b146104655780638dc9bc0414610476578063a47755d114610489578063aa878f761461049c57600080fd5b80632f77bb66116101df5780635c975abb116101a35780635c975abb146103e65780635d59efb7146103f15780636e04ff0d14610406578063715018a614610427578063729d81071461042f57806384b4609f1461044257600080fd5b80632f77bb661461036e578063301cce60146103775780634585e33b146103985780634afa5fea146103ab5780635bd482fd146103b357600080fd5b80630d43e8ad116102265780630d43e8ad146102e457806314fad707146102f7578063191888f61461030a5780631c39033c1461031d57806324ae6a271461035b57600080fd5b8062912b371461026257806305f2becf1461029257806306cd9e18146102a55780630816c847146102ba5780630caae41d146102d1575b600080fd5b60d154610275906001600160a01b031681565b6040516001600160a01b0390911681526020015b60405180910390f35b60cd54610275906001600160a01b031681565b6102b86102b3366004613b00565b6105d5565b005b6102c360d95481565b604051908152602001610289565b6102b86102df366004613b3e565b610660565b60dc54610275906001600160a01b031681565b6102c3610305366004613b77565b6106c2565b60cf54610275906001600160a01b031681565b61034661032b366004613bb8565b60ff16600090815260cb602052604090205463ffffffff1690565b60405163ffffffff9091168152602001610289565b6102b8610369366004613bd5565b61070c565b6102c360da5481565b60d45461038b90600160a01b900460ff1681565b6040516102899190613c37565b6102b86103a6366004613c92565b61083a565b6102b8610c32565b6103d66103c1366004613b00565b60cc6020526000908152604090205460ff1681565b6040519015158152602001610289565b60655460ff166103d6565b6103f9610c4d565b6040516102899190613d2b565b610419610414366004613c92565b610cdb565b604051610289929190613d3e565b6102b8610e5a565b6102b861043d366004613d59565b610e8e565b6102b8610450366004613b00565b610ee0565b60c9546103469063ffffffff1681565b6033546001600160a01b0316610275565b6102b8610484366004613d85565b610f5e565b60ce54610275906001600160a01b031681565b6102c36104aa366004613b3e565b611068565b6102c360db5481565b6102756104c6366004613e92565b611093565b6102b86104d9366004613eab565b6110bd565b6102c360d75481565b6102c360d65481565b60c95461034690640100000000900463ffffffff1681565b6102b8610516366004613b00565b6111df565b6102b8610529366004613d59565b611257565b6103d661053c366004613b00565b6001600160a01b0316600090815260cc602052604090205460ff1690565b6102b8610568366004613ef6565b61129d565b6102b861057b366004613e92565b61133f565b60d454610275906001600160a01b031681565b6102b86105a1366004613b00565b611561565b60d354610275906001600160a01b031681565b60d054610275906001600160a01b031681565b6102c360d85481565b6033546001600160a01b031633146106085760405162461bcd60e51b81526004016105ff90613f69565b60405180910390fd5b6001600160a01b038116600081815260cc6020908152604091829020805460ff1916905590519182527f41ff3cbb6d9f3c743a5fd7b126595848bf20fe04ced3af1bcfc8313f20f925c391015b60405180910390a150565b6033546001600160a01b0316331461068a5760405162461bcd60e51b81526004016105ff90613f69565b61069381611602565b60ff92909216600090815260cb60205260409020805463ffffffff191663ffffffff9093169290921790915550565b60ff8316600090815260ca6020908152604080832063ffffffff8616845290915281208054839081106106f7576106f7613f9e565b906000526020600020015490505b9392505050565b6033546001600160a01b031633146107365760405162461bcd60e51b81526004016105ff90613f69565b6040516370a0823160e01b81523060048201526001600160a01b0383169063a9059cbb90839083906370a082319060240160206040518083038186803b15801561077f57600080fd5b505afa158015610793573d6000803e3d6000fd5b505050506040513d601f19601f820116820180604052508101906107b79190613fb4565b6040516001600160e01b031960e085901b1681526001600160a01b0390921660048301526024820152604401602060405180830381600087803b1580156107fd57600080fd5b505af1158015610811573d6000803e3d6000fd5b505050506040513d601f19601f820116820180604052508101906108359190613fdd565b505050565b60655460ff16156108805760405162461bcd60e51b815260206004820152601060248201526f14185d5cd8589b194e881c185d5cd95960821b60448201526064016105ff565b600260975414156108d35760405162461bcd60e51b815260206004820152601f60248201527f5265656e7472616e637947756172643a207265656e7472616e742063616c6c0060448201526064016105ff565b6002609755600080806108e884860186613ff8565b92509250925060006108f861162c565b905060008061090886600561403c565b60ff8516600090815260cb602052604090205490915063ffffffff1661094e5760ff8416600090815260cb60205260409020805463ffffffff191663ffffffff85161790555b60ff8416600090815260cb602052604090205463ffffffff808516911611156109a65760405162461bcd60e51b815260206004820152600a60248201526921544f4f5f4541524c5960b01b60448201526064016105ff565b85821080156109b55750600081115b80156109dc575060ff8416600090815260cb602052604090205463ffffffff808516911611155b15610b9b5760ff8416600090815260ca6020908152604080832060cb83528184205463ffffffff1684529091529020548015610b0b5760ff8516600090815260ca6020908152604080832060cb83528184205463ffffffff1684529091528120610a4760018461405b565b81548110610a5757610a57613f9e565b600091825260208083209091015460ff8916835260ca8252604080842060cb84528185205463ffffffff168552909252912080549192509080610a9c57610a9c614072565b60019003818190600052602060002001600090559055610abc8682611654565b6040805160ff88168152602081018390527f58c7ae721fd25aaf84e68db9ce9ac6fed4f08438a370a4299d19f8c1425c499e910160405180910390a1610b03600185614088565b935050610b95565b60ff8516600090815260cb602052604090205463ffffffff80861691161015610b8f5760c95460ff8616600090815260cb60205260408120805463ffffffff93841693919291610b5d918591166140a0565b92506101000a81548163ffffffff021916908363ffffffff160217905550600182610b88919061405b565b9150610b95565b50610b9b565b506109a6565b60ff8416600081815260ca6020908152604080832060cb8084528285205463ffffffff168086529184528285205494869052835281518b81529283018790528282018a90526060830194909452608082019290925260a0810192909252517fd69140f88b9a25350749bb371882f4479133fc8b65602aac60f6c1b3598f08329181900360c00190a150506001609755505050505050565b60d4805460ff60a01b19169055610c4b60d560006139b5565b565b60d58054610c5a906140c8565b80601f0160208091040260200160405190810160405280929190818152602001828054610c86906140c8565b8015610cd35780601f10610ca857610100808354040283529160200191610cd3565b820191906000526020600020905b815481529060010190602001808311610cb657829003601f168201915b505050505081565b60006060818080610cee86880188613ff8565b9250925092506000610cfe61162c565b60ff8316600090815260cb602052604081205490975090915063ffffffff1680610d255750805b8063ffffffff168263ffffffff1610158015610d60575060c954640100000000900463ffffffff16610d578284614103565b63ffffffff1610155b15610d6e5760019650610dfe565b8163ffffffff168163ffffffff1611610dfe5760ff8316600090815260ca6020908152604080832063ffffffff8516845290915290205415801590610dd6575060ff8316600090815260ca6020908152604080832063ffffffff851684529091529020548411155b15610de45760019650610dfe565b60c954610df79063ffffffff16826140a0565b9050610d6e565b60ff8316600081815260ca6020908152604080832063ffffffff86168452825291829020548251918201899052918101919091526060810191909152608001604051602081830303815290604052955050505050509250929050565b6033546001600160a01b03163314610e845760405162461bcd60e51b81526004016105ff90613f69565b610c4b600061177c565b6033546001600160a01b03163314610eb85760405162461bcd60e51b81526004016105ff90613f69565b60c9805463ffffffff9092166401000000000267ffffffff0000000019909216919091179055565b6033546001600160a01b03163314610f0a5760405162461bcd60e51b81526004016105ff90613f69565b6001600160a01b038116600081815260cc6020908152604091829020805460ff1916600117905590519182527faa9fd3a8c3d93ebd697846ec56ec5fa196deef170601239a813cae8d80dfcddb9101610655565b6033546001600160a01b03163314610f885760405162461bcd60e51b81526004016105ff90613f69565b60cf80546001600160a01b03808d166001600160a01b03199283161790925560d080548c841690831617905560d180548b841690831617905560d38054928a1692909116919091179055610fde60d287876139ef565b5060d480546001600160a01b0386166001600160a01b03198216811783558592916001600160a81b03191617600160a01b83600281111561102157611021613c03565b021790555061103260d58383613a52565b506040517f2a77e01e84a8eac1e6bcac9bde4e5227a63842990baacef9e711c666f86ff1c090600090a150505050505050505050565b60ff8216600090815260ca6020908152604080832063ffffffff851684529091529020545b92915050565b60d281815481106110a357600080fd5b6000918252602090912001546001600160a01b0316905081565b600054610100900460ff166110d85760005460ff16156110dc565b303b155b61113f5760405162461bcd60e51b815260206004820152602e60248201527f496e697469616c697a61626c653a20636f6e747261637420697320616c72656160448201526d191e481a5b9a5d1a585b1a5e995960921b60648201526084016105ff565b600054610100900460ff16158015611161576000805461ffff19166101011790555b60cd80546001600160a01b038087166001600160a01b03199283161790925560ce805486841690831617905560dc805492851692909116919091179055600060d681905560d781905560d881905560d955600160da55606460db556111c761a8c06117ce565b80156111d9576000805461ff00191690555b50505050565b6033546001600160a01b031633146112095760405162461bcd60e51b81526004016105ff90613f69565b60dc80546001600160a01b0319166001600160a01b0383169081179091556040519081527f9e9a9a4a82acd1b28aab6bf1d43aad70ae6d290549c0d6183e2e91ebcdf5744190602001610655565b6033546001600160a01b031633146112815760405162461bcd60e51b81526004016105ff90613f69565b60c9805463ffffffff191663ffffffff92909216919091179055565b6033546001600160a01b031633146112c75760405162461bcd60e51b81526004016105ff90613f69565b60d688905560d787905560d886905560d985905560da84905560db83905560c9805463ffffffff8381166401000000000267ffffffffffffffff19909216908516171790556040517f3b5fda6f71b960b21be0b432d9b7c87d9c8c996477ea1eba5c19cb77d1e027aa90600090a15050505050505050565b600260975414156113925760405162461bcd60e51b815260206004820152601f60248201527f5265656e7472616e637947756172643a207265656e7472616e742063616c6c0060448201526064016105ff565b600260975560655460ff16156113dd5760405162461bcd60e51b815260206004820152601060248201526f14185d5cd8589b194e881c185d5cd95960821b60448201526064016105ff565b60cd5460405163c68f5eb360e01b8152600481018390526000916001600160a01b03169063c68f5eb3906024016101c06040518083038186803b15801561142357600080fd5b505afa158015611437573d6000803e3d6000fd5b505050506040513d601f19601f8201168201806040525081019061145b91906141de565b905060008160200151116114a55760405162461bcd60e51b815260206004820152601160248201527021494e56414c49442867726f757049642960781b60448201526064016105ff565b6114ae82611816565b5060cd54602082015160405163552de85160e11b815260048101919091526000916001600160a01b03169063aa5bd0a29060240160006040518083038186803b1580156114fa57600080fd5b505afa15801561150e573d6000803e3d6000fd5b505050506040513d6000823e601f3d908101601f1916820160405261153691908101906142d9565b80515190915060011415611557576115576001836020015160001b42611b18565b5050600160975550565b6033546001600160a01b0316331461158b5760405162461bcd60e51b81526004016105ff90613f69565b6001600160a01b0381166115f05760405162461bcd60e51b815260206004820152602660248201527f4f776e61626c653a206e6577206f776e657220697320746865207a65726f206160448201526564647265737360d01b60648201526084016105ff565b6115f98161177c565b50565b3b151590565b60c95460009063ffffffff1661161881846143b8565b6116229084614103565b61108d91906140a0565b60c95460009042906116449063ffffffff16826143b8565b61164e9082614103565b91505090565b60cd5460405163552de85160e11b8152600481018390526000916001600160a01b03169063aa5bd0a29060240160006040518083038186803b15801561169957600080fd5b505afa1580156116ad573d6000803e3d6000fd5b505050506040513d6000823e601f3d908101601f191682016040526116d591908101906142d9565b8051519091506116e457505050565b6000805b825151811080156116fa575060da5482105b1561174a576117258360000151828151811061171857611718613f9e565b6020026020010151611816565b1561173857611735600183614088565b91505b80611742816143db565b9150506116e8565b508151518110158061175d575060da5481105b156117725761176d848442611b18565b6111d9565b6111d98484611be0565b603380546001600160a01b038381166001600160a01b0319831681179093556040519116919082907f8be0079c531659141344cd1fd0a4f28419497f9722a3daafe3b4186f6b6457e090600090a35050565b600054610100900460ff166117f55760405162461bcd60e51b81526004016105ff906143f6565b6117fd611c67565b611805611c9e565b61180d611cd5565b6115f981611cfc565b60cd5460405163c68f5eb360e01b81526004810183905260009182916001600160a01b039091169063c68f5eb3906024016101c06040518083038186803b15801561186057600080fd5b505afa158015611874573d6000803e3d6000fd5b505050506040513d601f19601f8201168201806040525081019061189891906141de565b9050600181610180015160038111156118b3576118b3613c03565b146118c15750600092915050565b4263ffffffff16816101a0015163ffffffff16106118e25750600092915050565b6118eb83611d69565b158061193757506003816101600151600381111561190b5761190b613c03565b1415801561193757506101408101516001600160a01b0316600090815260cc602052604090205460ff16155b156119aa5760cd54604051635ba581cd60e01b81526001600160a01b0390911690635ba581cd9061196f908690600190600401614441565b600060405180830381600087803b15801561198957600080fd5b505af115801561199d573d6000803e3d6000fd5b5060009695505050505050565b80604001516119b884611fc1565b106119c65750600092915050565b600061271060d75483606001516119dd919061403c565b6119e7919061445e565b905060d8548110156119f8575060d8545b6000611a048583612276565b90508015611a8a5760cd546060840151604051632d32f27960e21b815260048101889052602481019190915260448101839052606481018490526001600160a01b039091169063b4cbc9e490608401600060405180830381600087803b158015611a6d57600080fd5b505af1158015611a81573d6000803e3d6000fd5b50505050611b0d565b600060d654118015611aa2575060d6548360e0015110155b15611b0d5760cd54604051635ba581cd60e01b81526001600160a01b0390911690635ba581cd90611ada908890600290600401614441565b600060405180830381600087803b158015611af457600080fd5b505af1158015611b08573d6000803e3d6000fd5b505050505b506001949350505050565b6000611b2382611602565b60ff8516600090815260cb602052604090205490915063ffffffff9081169082161015611b65575060ff8316600090815260cb602052604090205463ffffffff165b60ff8416600081815260ca6020908152604080832063ffffffff861680855290835281842080546001810182559085529383902090930187905580519384529083018690528201527f67778e52b18dcf574ab071142a886fce91a8ce5e60e176229fdadb8c063caaed9060600160405180910390a150505050565b6000611bea61162c565b60ff8416600081815260ca6020908152604080832063ffffffff861680855290835281842080546001810182559085529383902090930187905580519384529083018690528201529091507f67778e52b18dcf574ab071142a886fce91a8ce5e60e176229fdadb8c063caaed9060600160405180910390a1505050565b600054610100900460ff16611c8e5760405162461bcd60e51b81526004016105ff906143f6565b611c96611cd5565b610c4b612de7565b600054610100900460ff16611cc55760405162461bcd60e51b81526004016105ff906143f6565b611ccd611cd5565b610c4b612e17565b600054610100900460ff16610c4b5760405162461bcd60e51b81526004016105ff906143f6565b600054610100900460ff16611d235760405162461bcd60e51b81526004016105ff906143f6565b60c9805463ffffffff191663ffffffff8316908117909155611d46906014614472565b60c960046101000a81548163ffffffff021916908363ffffffff16021790555050565b60cd5460405163c68f5eb360e01b81526004810183905260009182916001600160a01b039091169063c68f5eb3906024016101c06040518083038186803b158015611db357600080fd5b505afa158015611dc7573d6000803e3d6000fd5b505050506040513d601f19601f82011682018060405250810190611deb91906141de565b905060018161016001516003811115611e0657611e06613c03565b1415611eb6576101408101516101208201516040516363e1d0cd60e11b815260048101919091526001600160a01b0382169063c7c3a19a9060240160006040518083038186803b158015611e5957600080fd5b505afa925050508015611e8e57506040513d6000823e601f3d908101601f19168201604052611e8b91908101906144cc565b60015b611e9c575060009392505050565b6001600160401b03908116149a9950505050505050505050565b60028161016001516003811115611ecf57611ecf613c03565b1415611f835761014081015161012082015160405163523e3b4b60e11b81526001600160401b0390911660048201526001600160a01b0382169063a47c76969060240160006040518083038186803b158015611f2a57600080fd5b505afa925050508015611f5f57506040513d6000823e601f3d908101601f19168201604052611f5c91908101906145ca565b60015b611f6d575060009392505050565b506001600160a01b031615159695505050505050565b60038161016001516003811115611f9c57611f9c613c03565b1415611fb85761014001516001600160a01b0316151592915050565b50600092915050565b60cd5460405163c68f5eb360e01b81526004810183905260009182916001600160a01b039091169063c68f5eb3906024016101c06040518083038186803b15801561200b57600080fd5b505afa15801561201f573d6000803e3d6000fd5b505050506040513d601f19601f8201168201806040525081019061204391906141de565b90506001600160601b036001826101600151600381111561206657612066613c03565b1415612105576101408201516101208301516040516363e1d0cd60e11b815260048101919091526001600160a01b0382169063c7c3a19a9060240160006040518083038186803b1580156120b957600080fd5b505afa1580156120cd573d6000803e3d6000fd5b505050506040513d6000823e601f3d908101601f191682016040526120f591908101906144cc565b5091965061226695505050505050565b6002826101600151600381111561211e5761211e613c03565b14156121c25761014082015161012083015160405163523e3b4b60e11b81526001600160401b0390911660048201526001600160a01b0382169063a47c76969060240160006040518083038186803b15801561217957600080fd5b505afa15801561218d573d6000803e3d6000fd5b505050506040513d6000823e601f3d908101601f191682016040526121b591908101906145ca565b5091935061226692505050565b600382610160015160038111156121db576121db613c03565b14156122665760d0546101408301516040516370a0823160e01b81526001600160a01b0391821660048201529116906370a082319060240160206040518083038186803b15801561222b57600080fd5b505afa15801561223f573d6000803e3d6000fd5b505050506040513d601f19601f820116820180604052508101906122639190613fb4565b90505b6001600160601b03169392505050565b60d3546000906001600160a01b03166122c35760405162461bcd60e51b815260206004820152600f60248201526e085393d517d0d3d3919251d5549151608a1b60448201526064016105ff565b60cd5460405163c68f5eb360e01b8152600481018590526000916001600160a01b03169063c68f5eb3906024016101c06040518083038186803b15801561230957600080fd5b505afa15801561231d573d6000803e3d6000fd5b505050506040513d601f19601f8201168201806040525081019061234191906141de565b9050600060d260008154811061235957612359613f9e565b6000918252602090912001546040516370a0823160e01b81523060048201526001600160a01b03909116906370a082319060240160206040518083038186803b1580156123a557600080fd5b505afa1580156123b9573d6000803e3d6000fd5b505050506040513d601f19601f820116820180604052508101906123dd9190613fb4565b60ce548351606085015160405163fcd6a25b60e01b81526001600160a01b039283166004820152306024820152604481019190915260006064820152929350169063fcd6a25b90608401600060405180830381600087803b15801561244157600080fd5b505af1925050508015612452575060015b61250e573d808015612480576040519150601f19603f3d011682016040523d82523d6000602084013e612485565b606091505b5060cd5460c9546001600160a01b0390911690630d4d98a59088906124b09063ffffffff16426140a0565b60016040518463ffffffff1660e01b81526004016124d093929190614698565b600060405180830381600087803b1580156124ea57600080fd5b505af11580156124fe573d6000803e3d6000fd5b505050506000935050505061108d565b60ce5460608301516000916001600160a01b03169063e1ded2de9061253490889061405b565b6040518263ffffffff1660e01b815260040161255291815260200190565b60206040518083038186803b15801561256a57600080fd5b505afa15801561257e573d6000803e3d6000fd5b505050506040513d601f19601f820116820180604052508101906125a29190613fb4565b60ce546040516370a0823160e01b81523060048201529192506001600160a01b0316906370a082319060240160206040518083038186803b1580156125e657600080fd5b505afa1580156125fa573d6000803e3d6000fd5b505050506040513d601f19601f8201168201806040525081019061261e9190613fb4565b8111156126a35760ce546040516370a0823160e01b81523060048201526001600160a01b03909116906370a082319060240160206040518083038186803b15801561266857600080fd5b505afa15801561267c573d6000803e3d6000fd5b505050506040513d601f19601f820116820180604052508101906126a09190613fb4565b90505b60ce5460d280546001600160a01b039092169163f3fef3a391906000906126cc576126cc613f9e565b60009182526020909120015460405160e083901b6001600160e01b03191681526001600160a01b03909116600482015260248101849052604401600060405180830381600087803b15801561272057600080fd5b505af1158015612734573d6000803e3d6000fd5b5050505060008260d260008154811061274f5761274f613f9e565b6000918252602090912001546040516370a0823160e01b81523060048201526001600160a01b03909116906370a082319060240160206040518083038186803b15801561279b57600080fd5b505afa1580156127af573d6000803e3d6000fd5b505050506040513d601f19601f820116820180604052508101906127d39190613fb4565b6127dd919061405b565b9050600081116128245760405162461bcd60e51b815260206004820152601260248201527121494e56414c494428616d6f756e74496e2960701b60448201526064016105ff565b60d1546000906001600160a01b0316156129515760ce5460d28054612927926001600160a01b0316916330b8b2c69160009061286257612862613f9e565b60009182526020909120015460405160e083901b6001600160e01b03191681526001600160a01b03909116600482015260240160c06040518083038186803b1580156128ad57600080fd5b505afa1580156128c1573d6000803e3d6000fd5b505050506040513d601f19601f820116820180604052508101906128e591906146c2565b60d280546128f59060019061405b565b8154811061290557612905613f9e565b60009182526020909120015460d1546001600160a01b03918216911685612e4a565b905061271060db548261293a919061403c565b612944919061445e565b61294e908261405b565b90505b60d0546040516370a0823160e01b81523060048201526000916001600160a01b0316906370a082319060240160206040518083038186803b15801561299557600080fd5b505afa1580156129a9573d6000803e3d6000fd5b505050506040513d601f19601f820116820180604052508101906129cd9190613fb4565b9050600060d454600160a01b900460ff1660028111156129ef576129ef613c03565b1415612a04576129ff8383613164565b612a64565b600160d454600160a01b900460ff166002811115612a2457612a24613c03565b1415612a34576129ff838361323e565b600260d454600160a01b900460ff166002811115612a5457612a54613c03565b1415612a6457612a6483836133a6565b60ce5460dc546040516370a0823160e01b81523060048201526001600160a01b039283169263a9059cbb92169083906370a082319060240160206040518083038186803b158015612ab457600080fd5b505afa158015612ac8573d6000803e3d6000fd5b505050506040513d601f19601f82011682018060405250810190612aec9190613fb4565b6040516001600160e01b031960e085901b1681526001600160a01b0390921660048301526024820152604401602060405180830381600087803b158015612b3257600080fd5b505af1158015612b46573d6000803e3d6000fd5b505050506040513d601f19601f82011682018060405250810190612b6a9190613fdd565b5060d4546001600160a01b031615612d445760cf546040516370a0823160e01b81523060048201526000916001600160a01b0316906370a082319060240160206040518083038186803b158015612bc057600080fd5b505afa158015612bd4573d6000803e3d6000fd5b505050506040513d601f19601f82011682018060405250810190612bf89190613fb4565b60d45460cf54919250612c18916001600160a01b03908116911683613439565b60d45460cf5460d054604051632b7f092360e01b8152600481018590526001600160a01b0392831660248201529082166044820152911690632b7f092390606401600060405180830381600087803b158015612c7357600080fd5b505af1158015612c87573d6000803e3d6000fd5b505060d0546040516370a0823160e01b81523060048201528493506001600160a01b0390911691506370a082319060240160206040518083038186803b158015612cd057600080fd5b505afa158015612ce4573d6000803e3d6000fd5b505050506040513d601f19601f82011682018060405250810190612d089190613fb4565b1015612d425760405162461bcd60e51b81526020600482015260096024820152680215045475f535741560bc1b60448201526064016105ff565b505b60d0546040516370a0823160e01b815230600482015260009183916001600160a01b03909116906370a082319060240160206040518083038186803b158015612d8c57600080fd5b505afa158015612da0573d6000803e3d6000fd5b505050506040513d601f19601f82011682018060405250810190612dc49190613fb4565b612dce919061405b565b9050612dda8a8261351c565b9998505050505050505050565b600054610100900460ff16612e0e5760405162461bcd60e51b81526004016105ff906143f6565b610c4b3361177c565b600054610100900460ff16612e3e5760405162461bcd60e51b81526004016105ff906143f6565b6065805460ff19169055565b600081612e595750600061315c565b6000806000866001600160a01b031663313ce5676040518163ffffffff1660e01b815260040160206040518083038186803b158015612e9757600080fd5b505afa158015612eab573d6000803e3d6000fd5b505050506040513d601f19601f82011682018060405250810190612ecf919061475a565b90506000866001600160a01b031663313ce5676040518163ffffffff1660e01b815260040160206040518083038186803b158015612f0c57600080fd5b505afa158015612f20573d6000803e3d6000fd5b505050506040513d601f19601f82011682018060405250810190612f44919061475a565b905088600001516001600160a01b031663feaf968c6040518163ffffffff1660e01b815260040160a06040518083038186803b158015612f8357600080fd5b505afa158015612f97573d6000803e3d6000fd5b505050506040513d601f19601f82011682018060405250810190612fbb9190614791565b5060d9549297509550869250501580612fdf575060d954612fdc854261405b565b11155b61301d5760405162461bcd60e51b815260206004820152600f60248201526e0854149250d157d3d5551110551151608a1b60448201526064016105ff565b876001600160a01b031663feaf968c6040518163ffffffff1660e01b815260040160a06040518083038186803b15801561305657600080fd5b505afa15801561306a573d6000803e3d6000fd5b505050506040513d601f19601f8201168201806040525081019061308e9190614791565b5060d95492985096508792505015806130b2575060d9546130af864261405b565b11155b6130f05760405162461bcd60e51b815260206004820152600f60248201526e0854149250d157d3d5551110551151608a1b60448201526064016105ff565b8260ff168b6080015160ff161461314b5761310c818486613767565b61311b838d6080015187613767565b61312a8a8e6060015188613767565b613134919061403c565b61313e919061445e565b965050505050505061315c565b808261312a8a8e6060015188613767565b949350505050565b60d35460d280546131a6926001600160a01b031691859160009061318a5761318a613f9e565b6000918252602090912001546001600160a01b03169190613439565b60d3546001600160a01b03166338ed1739838360d2306131c842610e10614088565b6040518663ffffffff1660e01b81526004016131e895949392919061482a565b600060405180830381600087803b15801561320257600080fd5b505af1158015613216573d6000803e3d6000fd5b505050506040513d6000823e601f3d908101601f191682016040526108359190810190614866565b60d35460d28054613264926001600160a01b031691859160009061318a5761318a613f9e565b60006040518060a0016040528060d5805461327e906140c8565b80601f01602080910402602001604051908101604052809291908181526020018280546132aa906140c8565b80156132f75780601f106132cc576101008083540402835291602001916132f7565b820191906000526020600020905b8154815290600101906020018083116132da57829003601f168201915b505050918352505030602082015260400161331342603c614088565b815260208101859052604090810184905260d354905163c04b8d5960e01b81529192506001600160a01b03169063c04b8d59906133549084906004016148eb565b602060405180830381600087803b15801561336e57600080fd5b505af1158015613382573d6000803e3d6000fd5b505050506040513d601f19601f820116820180604052508101906111d99190613fb4565b60d35460d280546133cc926001600160a01b031691859160009061318a5761318a613f9e565b60d354604051633011f4b360e11b81526001600160a01b0390911690636023e966906134039060d290869086903090600401614943565b600060405180830381600087803b15801561341d57600080fd5b505af1158015613431573d6000803e3d6000fd5b505050505050565b604051636eb1769f60e11b81523060048201526001600160a01b038381166024830152600091839186169063dd62ed3e9060440160206040518083038186803b15801561348557600080fd5b505afa158015613499573d6000803e3d6000fd5b505050506040513d601f19601f820116820180604052508101906134bd9190613fb4565b6134c79190614088565b604080516001600160a01b038616602482015260448082018490528251808303909101815260649091019091526020810180516001600160e01b031663095ea7b360e01b1790529091506111d99085906137d8565b60cd5460405163c68f5eb360e01b8152600481018490526000916001600160a01b03169063c68f5eb3906024016101c06040518083038186803b15801561356257600080fd5b505afa158015613576573d6000803e3d6000fd5b505050506040513d601f19601f8201168201806040525081019061359a91906141de565b9050600181610160015160038111156135b5576135b5613c03565b141561366c5760d0546101408201516101208301516040805160208101929092526001600160a01b0390931692634000aea092918691015b6040516020818303038152906040526040518463ffffffff1660e01b815260040161361a9392919061497b565b602060405180830381600087803b15801561363457600080fd5b505af1158015613648573d6000803e3d6000fd5b505050506040513d601f19601f820116820180604052508101906111d99190613fdd565b6002816101600151600381111561368557613685613c03565b14156136c95760d054610140820151610120830151604080516001600160401b0390921660208301526001600160a01b0390931692634000aea092918691016135ed565b600381610160015160038111156136e2576136e2613c03565b141561083557610120810151156137295760d0546101408201516101208301516040805160208101929092526001600160a01b0390931692634000aea092918691016135ed565b60d05461014082015160405163a9059cbb60e01b81526001600160a01b0391821660048201526024810185905291169063a9059cbb9060440161361a565b60008160ff168360ff1610156137a05761378183836149ab565b61378f9060ff16600a614ab2565b613799908561403c565b9050610705565b8160ff168360ff1611156137d0576137b882846149ab565b6137c69060ff16600a614ab2565b613799908561445e565b509192915050565b600061382d826040518060400160405280602081526020017f5361666545524332303a206c6f772d6c6576656c2063616c6c206661696c6564815250856001600160a01b03166138aa9092919063ffffffff16565b805190915015610835578080602001905181019061384b9190613fdd565b6108355760405162461bcd60e51b815260206004820152602a60248201527f5361666545524332303a204552433230206f7065726174696f6e20646964206e6044820152691bdd081cdd58d8d9595960b21b60648201526084016105ff565b606061315c848460008585843b6139035760405162461bcd60e51b815260206004820152601d60248201527f416464726573733a2063616c6c20746f206e6f6e2d636f6e747261637400000060448201526064016105ff565b600080866001600160a01b0316858760405161391f9190614abe565b60006040518083038185875af1925050503d806000811461395c576040519150601f19603f3d011682016040523d82523d6000602084013e613961565b606091505b509150915061397182828661397c565b979650505050505050565b6060831561398b575081610705565b82511561399b5782518084602001fd5b8160405162461bcd60e51b81526004016105ff9190613d2b565b5080546139c1906140c8565b6000825580601f106139d1575050565b601f0160209004906000526020600020908101906115f99190613ac6565b828054828255906000526020600020908101928215613a42579160200282015b82811115613a425781546001600160a01b0319166001600160a01b03843516178255602090920191600190910190613a0f565b50613a4e929150613ac6565b5090565b828054613a5e906140c8565b90600052602060002090601f016020900481019282613a805760008555613a42565b82601f10613a995782800160ff19823516178555613a42565b82800160010185558215613a42579182015b82811115613a42578235825591602001919060010190613aab565b5b80821115613a4e5760008155600101613ac7565b6001600160a01b03811681146115f957600080fd5b8035613afb81613adb565b919050565b600060208284031215613b1257600080fd5b813561070581613adb565b60ff811681146115f957600080fd5b63ffffffff811681146115f957600080fd5b60008060408385031215613b5157600080fd5b8235613b5c81613b1d565b91506020830135613b6c81613b2c565b809150509250929050565b600080600060608486031215613b8c57600080fd5b8335613b9781613b1d565b92506020840135613ba781613b2c565b929592945050506040919091013590565b600060208284031215613bca57600080fd5b813561070581613b1d565b60008060408385031215613be857600080fd5b8235613bf381613adb565b91506020830135613b6c81613adb565b634e487b7160e01b600052602160045260246000fd5b600381106115f957634e487b7160e01b600052602160045260246000fd5b60208101613c4483613c19565b91905290565b60008083601f840112613c5c57600080fd5b5081356001600160401b03811115613c7357600080fd5b602083019150836020828501011115613c8b57600080fd5b9250929050565b60008060208385031215613ca557600080fd5b82356001600160401b03811115613cbb57600080fd5b613cc785828601613c4a565b90969095509350505050565b60005b83811015613cee578181015183820152602001613cd6565b838111156111d95750506000910152565b60008151808452613d17816020860160208601613cd3565b601f01601f19169290920160200192915050565b6020815260006107056020830184613cff565b821515815260406020820152600061315c6040830184613cff565b600060208284031215613d6b57600080fd5b813561070581613b2c565b803560038110613afb57600080fd5b6000806000806000806000806000806101008b8d031215613da557600080fd5b8a35613db081613adb565b995060208b0135613dc081613adb565b985060408b0135613dd081613adb565b975060608b0135613de081613adb565b965060808b01356001600160401b0380821115613dfc57600080fd5b818d0191508d601f830112613e1057600080fd5b813581811115613e1f57600080fd5b8e60208260051b8501011115613e3457600080fd5b6020830198509650613e4860a08e01613af0565b9550613e5660c08e01613d76565b945060e08d0135915080821115613e6c57600080fd5b50613e798d828e01613c4a565b915080935050809150509295989b9194979a5092959850565b600060208284031215613ea457600080fd5b5035919050565b600080600060608486031215613ec057600080fd5b8335613ecb81613adb565b92506020840135613edb81613adb565b91506040840135613eeb81613adb565b809150509250925092565b600080600080600080600080610100898b031215613f1357600080fd5b883597506020890135965060408901359550606089013594506080890135935060a0890135925060c0890135613f4881613b2c565b915060e0890135613f5881613b2c565b809150509295985092959890939650565b6020808252818101527f4f776e61626c653a2063616c6c6572206973206e6f7420746865206f776e6572604082015260600190565b634e487b7160e01b600052603260045260246000fd5b600060208284031215613fc657600080fd5b5051919050565b80518015158114613afb57600080fd5b600060208284031215613fef57600080fd5b61070582613fcd565b60008060006060848603121561400d57600080fd5b83359250602084013591506040840135613eeb81613b1d565b634e487b7160e01b600052601160045260246000fd5b600081600019048311821515161561405657614056614026565b500290565b60008282101561406d5761406d614026565b500390565b634e487b7160e01b600052603160045260246000fd5b6000821982111561409b5761409b614026565b500190565b600063ffffffff8083168185168083038211156140bf576140bf614026565b01949350505050565b600181811c908216806140dc57607f821691505b602082108114156140fd57634e487b7160e01b600052602260045260246000fd5b50919050565b600063ffffffff8381169083168181101561412057614120614026565b039392505050565b634e487b7160e01b600052604160045260246000fd5b6040516101c081016001600160401b038111828210171561416157614161614128565b60405290565b604051602081016001600160401b038111828210171561416157614161614128565b604051601f8201601f191681016001600160401b03811182821017156141b1576141b1614128565b604052919050565b8051613afb81613adb565b8051613afb81613b2c565b805160048110613afb57600080fd5b60006101c082840312156141f157600080fd5b6141f961413e565b614202836141b9565b81526020830151602082015260408301516040820152606083015160608201526080830151608082015260a083015160a082015260c083015160c082015260e083015160e08201526101006142588185016141c4565b9082015261012083810151908201526101406142758185016141b9565b908201526101606142878482016141cf565b908201526101806142998482016141cf565b908201526101a06142ab8482016141c4565b908201529392505050565b60006001600160401b038211156142cf576142cf614128565b5060051b60200190565b600060208083850312156142ec57600080fd5b82516001600160401b038082111561430357600080fd5b818501915082828703121561431757600080fd5b61431f614167565b82518281111561432e57600080fd5b80840193505086601f84011261434357600080fd5b82519150614358614353836142b6565b614189565b82815260059290921b8301840191848101908884111561437757600080fd5b938501935b838510156143955784518252938501939085019061437c565b8252509695505050505050565b634e487b7160e01b600052601260045260246000fd5b600063ffffffff808416806143cf576143cf6143a2565b92169190910692915050565b60006000198214156143ef576143ef614026565b5060010190565b6020808252602b908201527f496e697469616c697a61626c653a20636f6e7472616374206973206e6f74206960408201526a6e697469616c697a696e6760a81b606082015260800190565b8281526040810161445183613c19565b8260208301529392505050565b60008261446d5761446d6143a2565b500490565b600063ffffffff8083168185168183048111821515161561449557614495614026565b02949350505050565b80516001600160601b0381168114613afb57600080fd5b80516001600160401b0381168114613afb57600080fd5b600080600080600080600060e0888a0312156144e757600080fd5b87516144f281613adb565b602089015190975061450381613b2c565b60408901519096506001600160401b038082111561452057600080fd5b818a0191508a601f83011261453457600080fd5b81518181111561454657614546614128565b614559601f8201601f1916602001614189565b91508082528b602082850101111561457057600080fd5b614581816020840160208601613cd3565b50955061459290506060890161449e565b93506145a0608089016141b9565b92506145ae60a089016141b9565b91506145bc60c089016144b5565b905092959891949750929550565b600080600080608085870312156145e057600080fd5b6145e98561449e565b935060206145f88187016144b5565b9350604086015161460881613adb565b60608701519093506001600160401b0381111561462457600080fd5b8601601f8101881361463557600080fd5b8051614643614353826142b6565b81815260059190911b8201830190838101908a83111561466257600080fd5b928401925b8284101561468957835161467a81613adb565b82529284019290840190614667565b979a9699509497505050505050565b83815263ffffffff83166020820152606081016146b483613c19565b826040830152949350505050565b600060c082840312156146d457600080fd5b60405160c081018181106001600160401b03821117156146f6576146f6614128565b604052825161470481613adb565b808252506020830151602082015260408301516040820152606083015161472a81613b1d565b6060820152608083015161473d81613b1d565b608082015261474e60a08401613fcd565b60a08201529392505050565b60006020828403121561476c57600080fd5b815161070581613b1d565b805169ffffffffffffffffffff81168114613afb57600080fd5b600080600080600060a086880312156147a957600080fd5b6147b286614777565b94506020860151935060408601519250606086015191506147d560808701614777565b90509295509295909350565b6000815480845260208085019450836000528060002060005b8381101561481f5781546001600160a01b0316875295820195600191820191016147fa565b509495945050505050565b85815284602082015260a06040820152600061484960a08301866147e1565b6001600160a01b0394909416606083015250608001529392505050565b6000602080838503121561487957600080fd5b82516001600160401b0381111561488f57600080fd5b8301601f810185136148a057600080fd5b80516148ae614353826142b6565b81815260059190911b820183019083810190878311156148cd57600080fd5b928401925b82841015613971578351825292840192908401906148d2565b602081526000825160a0602084015261490760c0840182613cff565b905060018060a01b0360208501511660408401526040840151606084015260608401516080840152608084015160a08401528091505092915050565b60808152600061495660808301876147e1565b60208301959095525060408101929092526001600160a01b0316606090910152919050565b60018060a01b03841681528260208201526060604082015260006149a26060830184613cff565b95945050505050565b600060ff821660ff8416808210156149c5576149c5614026565b90039392505050565b600181815b80851115614a095781600019048211156149ef576149ef614026565b808516156149fc57918102915b93841c93908002906149d3565b509250929050565b600082614a205750600161108d565b81614a2d5750600061108d565b8160018114614a435760028114614a4d57614a69565b600191505061108d565b60ff841115614a5e57614a5e614026565b50506001821b61108d565b5060208310610133831016604e8410600b8410161715614a8c575081810a61108d565b614a9683836149ce565b8060001904821115614aaa57614aaa614026565b029392505050565b60006107058383614a11565b60008251614ad0818460208701613cd3565b919091019291505056fea2646970667358221220f1f9e5bddc9652e1e9dd01d6a249e523b093b9be4339234276211d09888d543e64736f6c63430008090033",
  "devdoc": {
    "kind": "dev",
    "methods": {
      "checkUpkeep(bytes)": {
        "details": "To ensure that it is never called, you may want to add the cannotExecute modifier from KeeperBase to your implementation of this method.",
        "params": {
          "checkData": "specified in the upkeep registration so it is always the same for a registered upkeep. This can easilly be broken down into specific arguments using `abi.decode`, so multiple upkeeps can be registered on the same contract and easily differentiated by the contract."
        },
        "returns": {
          "performData": "bytes that the keeper should call performUpkeep with, if upkeep is needed. If you would like to encode data to decode later, try `abi.encode`.",
          "upkeepNeeded": "boolean to indicate whether the keeper should call performUpkeep or not."
        }
      },
      "constructor": {
        "custom:oz-upgrades-unsafe-allow": "constructor"
      },
      "owner()": {
        "details": "Returns the address of the current owner."
      },
      "paused()": {
        "details": "Returns true if the contract is paused, and false otherwise."
      },
      "performUpkeep(bytes)": {
        "details": "The input to this method should not be trusted, and the caller of the method should not even be restricted to any single registry. Anyone should be able call it, and the input should be validated, there is no guarantee that the data passed in is the performData returned from checkUpkeep. This could happen due to malicious keepers, racing keepers, or simply a state change while the performUpkeep transaction is waiting for confirmation. Always validate the data passed in.",
        "params": {
          "performData": "is the data which was passed back from the checkData simulation. If it is encoded, it can easily be decoded into other types by calling `abi.decode`. This data should not be trusted, and should be validated against the contract's current state."
        }
      },
      "renounceOwnership()": {
        "details": "Leaves the contract without owner. It will not be possible to call `onlyOwner` functions anymore. Can only be called by the current owner. NOTE: Renouncing ownership will leave the contract without an owner, thereby removing any functionality that is only available to the owner."
      },
      "transferOwnership(address)": {
        "details": "Transfers ownership of the contract to a new account (`newOwner`). Can only be called by the current owner."
      }
    },
    "stateVariables": {
      "allowedRegistries": {
        "details": "map of registries address that are allowed "
      },
      "caskChainlinkTopup": {
        "details": "Pointer to CaskChainlinkTopup contract "
      },
      "caskVault": {
        "details": "vault to use for ChainlinkTopup funding. "
      },
      "feeDistributor": {
        "details": "Address to receive DCA fees. "
      },
      "maxPriceFeedAge": {
        "details": "max allowable age for price feed data. "
      },
      "maxSkips": {
        "details": "max number of failed ChainlinkTopup purchases before ChainlinkTopup is permanently canceled. "
      },
      "maxSwapSlippageBps": {
        "details": "max slippage allowed when buying LINK on the DEX for a topup. "
      },
      "maxTopupsPerGroupRun": {
        "details": "max number of topups to do per each run of a group. "
      },
      "topupFeeBps": {
        "details": "ChainlinkTopup transaction fee bps and min. "
      }
    },
    "version": 1
  },
  "userdoc": {
    "kind": "user",
    "methods": {
      "checkUpkeep(bytes)": {
        "notice": "method that is simulated by the keepers to see if any work actually needs to be performed. This method does does not actually need to be executable, and since it is only ever simulated it can consume lots of gas."
      },
      "performUpkeep(bytes)": {
        "notice": "method that is actually executed by the keepers, via the registry. The data returned by the checkUpkeep simulation will be passed into this method to actually be executed."
      }
    },
    "version": 1
  },
  "storageLayout": {
    "storage": [
      {
        "astId": 327,
        "contract": "contracts/chainlink_topup/CaskChainlinkTopupManager.sol:CaskChainlinkTopupManager",
        "label": "_initialized",
        "offset": 0,
        "slot": "0",
        "type": "t_bool"
      },
      {
        "astId": 330,
        "contract": "contracts/chainlink_topup/CaskChainlinkTopupManager.sol:CaskChainlinkTopupManager",
        "label": "_initializing",
        "offset": 1,
        "slot": "0",
        "type": "t_bool"
      },
      {
        "astId": 2551,
        "contract": "contracts/chainlink_topup/CaskChainlinkTopupManager.sol:CaskChainlinkTopupManager",
        "label": "__gap",
        "offset": 0,
        "slot": "1",
        "type": "t_array(t_uint256)50_storage"
      },
      {
        "astId": 205,
        "contract": "contracts/chainlink_topup/CaskChainlinkTopupManager.sol:CaskChainlinkTopupManager",
        "label": "_owner",
        "offset": 0,
        "slot": "51",
        "type": "t_address"
      },
      {
        "astId": 319,
        "contract": "contracts/chainlink_topup/CaskChainlinkTopupManager.sol:CaskChainlinkTopupManager",
        "label": "__gap",
        "offset": 0,
        "slot": "52",
        "type": "t_array(t_uint256)49_storage"
      },
      {
        "astId": 415,
        "contract": "contracts/chainlink_topup/CaskChainlinkTopupManager.sol:CaskChainlinkTopupManager",
        "label": "_paused",
        "offset": 0,
        "slot": "101",
        "type": "t_bool"
      },
      {
        "astId": 506,
        "contract": "contracts/chainlink_topup/CaskChainlinkTopupManager.sol:CaskChainlinkTopupManager",
        "label": "__gap",
        "offset": 0,
        "slot": "102",
        "type": "t_array(t_uint256)49_storage"
      },
      {
        "astId": 521,
        "contract": "contracts/chainlink_topup/CaskChainlinkTopupManager.sol:CaskChainlinkTopupManager",
        "label": "_status",
        "offset": 0,
        "slot": "151",
        "type": "t_uint256"
      },
      {
        "astId": 564,
        "contract": "contracts/chainlink_topup/CaskChainlinkTopupManager.sol:CaskChainlinkTopupManager",
        "label": "__gap",
        "offset": 0,
        "slot": "152",
        "type": "t_array(t_uint256)49_storage"
      },
      {
        "astId": 17888,
        "contract": "contracts/chainlink_topup/CaskChainlinkTopupManager.sol:CaskChainlinkTopupManager",
        "label": "queueBucketSize",
        "offset": 0,
        "slot": "201",
        "type": "t_uint32"
      },
      {
        "astId": 17891,
        "contract": "contracts/chainlink_topup/CaskChainlinkTopupManager.sol:CaskChainlinkTopupManager",
        "label": "maxQueueAge",
        "offset": 4,
        "slot": "201",
        "type": "t_uint32"
      },
      {
        "astId": 17899,
        "contract": "contracts/chainlink_topup/CaskChainlinkTopupManager.sol:CaskChainlinkTopupManager",
        "label": "queue",
        "offset": 0,
        "slot": "202",
        "type": "t_mapping(t_uint8,t_mapping(t_uint32,t_array(t_bytes32)dyn_storage))"
      },
      {
        "astId": 17903,
        "contract": "contracts/chainlink_topup/CaskChainlinkTopupManager.sol:CaskChainlinkTopupManager",
        "label": "queueBucket",
        "offset": 0,
        "slot": "203",
        "type": "t_mapping(t_uint8,t_uint32)"
      },
      {
        "astId": 9580,
        "contract": "contracts/chainlink_topup/CaskChainlinkTopupManager.sol:CaskChainlinkTopupManager",
        "label": "allowedRegistries",
        "offset": 0,
        "slot": "204",
        "type": "t_mapping(t_address,t_bool)"
      },
      {
        "astId": 9584,
        "contract": "contracts/chainlink_topup/CaskChainlinkTopupManager.sol:CaskChainlinkTopupManager",
        "label": "caskChainlinkTopup",
        "offset": 0,
        "slot": "205",
        "type": "t_contract(ICaskChainlinkTopup)11436"
      },
      {
        "astId": 9588,
        "contract": "contracts/chainlink_topup/CaskChainlinkTopupManager.sol:CaskChainlinkTopupManager",
        "label": "caskVault",
        "offset": 0,
        "slot": "206",
        "type": "t_contract(ICaskVault)17654"
      },
      {
        "astId": 9591,
        "contract": "contracts/chainlink_topup/CaskChainlinkTopupManager.sol:CaskChainlinkTopupManager",
        "label": "linkBridgeToken",
        "offset": 0,
        "slot": "207",
        "type": "t_contract(IERC20Metadata)4344"
      },
      {
        "astId": 9594,
        "contract": "contracts/chainlink_topup/CaskChainlinkTopupManager.sol:CaskChainlinkTopupManager",
        "label": "linkFundingToken",
        "offset": 0,
        "slot": "208",
        "type": "t_contract(LinkTokenInterface)17776"
      },
      {
        "astId": 9597,
        "contract": "contracts/chainlink_topup/CaskChainlinkTopupManager.sol:CaskChainlinkTopupManager",
        "label": "linkPriceFeed",
        "offset": 0,
        "slot": "209",
        "type": "t_contract(AggregatorV3Interface)45"
      },
      {
        "astId": 9600,
        "contract": "contracts/chainlink_topup/CaskChainlinkTopupManager.sol:CaskChainlinkTopupManager",
        "label": "linkSwapPath",
        "offset": 0,
        "slot": "210",
        "type": "t_array(t_address)dyn_storage"
      },
      {
        "astId": 9602,
        "contract": "contracts/chainlink_topup/CaskChainlinkTopupManager.sol:CaskChainlinkTopupManager",
        "label": "linkSwapRouter",
        "offset": 0,
        "slot": "211",
        "type": "t_address"
      },
      {
        "astId": 9605,
        "contract": "contracts/chainlink_topup/CaskChainlinkTopupManager.sol:CaskChainlinkTopupManager",
        "label": "pegswap",
        "offset": 0,
        "slot": "212",
        "type": "t_contract(IPegSwap)17681"
      },
      {
        "astId": 9608,
        "contract": "contracts/chainlink_topup/CaskChainlinkTopupManager.sol:CaskChainlinkTopupManager",
        "label": "linkSwapProtocol",
        "offset": 20,
        "slot": "212",
        "type": "t_enum(SwapProtocol)11442"
      },
      {
        "astId": 9610,
        "contract": "contracts/chainlink_topup/CaskChainlinkTopupManager.sol:CaskChainlinkTopupManager",
        "label": "linkSwapData",
        "offset": 0,
        "slot": "213",
        "type": "t_bytes_storage"
      },
      {
        "astId": 9613,
        "contract": "contracts/chainlink_topup/CaskChainlinkTopupManager.sol:CaskChainlinkTopupManager",
        "label": "maxSkips",
        "offset": 0,
        "slot": "214",
        "type": "t_uint256"
      },
      {
        "astId": 9616,
        "contract": "contracts/chainlink_topup/CaskChainlinkTopupManager.sol:CaskChainlinkTopupManager",
        "label": "topupFeeBps",
        "offset": 0,
        "slot": "215",
        "type": "t_uint256"
      },
      {
        "astId": 9618,
        "contract": "contracts/chainlink_topup/CaskChainlinkTopupManager.sol:CaskChainlinkTopupManager",
        "label": "topupFeeMin",
        "offset": 0,
        "slot": "216",
        "type": "t_uint256"
      },
      {
        "astId": 9621,
        "contract": "contracts/chainlink_topup/CaskChainlinkTopupManager.sol:CaskChainlinkTopupManager",
        "label": "maxPriceFeedAge",
        "offset": 0,
        "slot": "217",
        "type": "t_uint256"
      },
      {
        "astId": 9624,
        "contract": "contracts/chainlink_topup/CaskChainlinkTopupManager.sol:CaskChainlinkTopupManager",
        "label": "maxTopupsPerGroupRun",
        "offset": 0,
        "slot": "218",
        "type": "t_uint256"
      },
      {
        "astId": 9627,
        "contract": "contracts/chainlink_topup/CaskChainlinkTopupManager.sol:CaskChainlinkTopupManager",
        "label": "maxSwapSlippageBps",
        "offset": 0,
        "slot": "219",
        "type": "t_uint256"
      },
      {
        "astId": 9630,
        "contract": "contracts/chainlink_topup/CaskChainlinkTopupManager.sol:CaskChainlinkTopupManager",
        "label": "feeDistributor",
        "offset": 0,
        "slot": "220",
        "type": "t_address"
      }
    ],
    "types": {
      "t_address": {
        "encoding": "inplace",
        "label": "address",
        "numberOfBytes": "20"
      },
      "t_array(t_address)dyn_storage": {
        "base": "t_address",
        "encoding": "dynamic_array",
        "label": "address[]",
        "numberOfBytes": "32"
      },
      "t_array(t_bytes32)dyn_storage": {
        "base": "t_bytes32",
        "encoding": "dynamic_array",
        "label": "bytes32[]",
        "numberOfBytes": "32"
      },
      "t_array(t_uint256)49_storage": {
        "base": "t_uint256",
        "encoding": "inplace",
        "label": "uint256[49]",
        "numberOfBytes": "1568"
      },
      "t_array(t_uint256)50_storage": {
        "base": "t_uint256",
        "encoding": "inplace",
        "label": "uint256[50]",
        "numberOfBytes": "1600"
      },
      "t_bool": {
        "encoding": "inplace",
        "label": "bool",
        "numberOfBytes": "1"
      },
      "t_bytes32": {
        "encoding": "inplace",
        "label": "bytes32",
        "numberOfBytes": "32"
      },
      "t_bytes_storage": {
        "encoding": "bytes",
        "label": "bytes",
        "numberOfBytes": "32"
      },
      "t_contract(AggregatorV3Interface)45": {
        "encoding": "inplace",
        "label": "contract AggregatorV3Interface",
        "numberOfBytes": "20"
      },
      "t_contract(ICaskChainlinkTopup)11436": {
        "encoding": "inplace",
        "label": "contract ICaskChainlinkTopup",
        "numberOfBytes": "20"
      },
      "t_contract(ICaskVault)17654": {
        "encoding": "inplace",
        "label": "contract ICaskVault",
        "numberOfBytes": "20"
      },
      "t_contract(IERC20Metadata)4344": {
        "encoding": "inplace",
        "label": "contract IERC20Metadata",
        "numberOfBytes": "20"
      },
      "t_contract(IPegSwap)17681": {
        "encoding": "inplace",
        "label": "contract IPegSwap",
        "numberOfBytes": "20"
      },
      "t_contract(LinkTokenInterface)17776": {
        "encoding": "inplace",
        "label": "contract LinkTokenInterface",
        "numberOfBytes": "20"
      },
      "t_enum(SwapProtocol)11442": {
        "encoding": "inplace",
        "label": "enum ICaskChainlinkTopupManager.SwapProtocol",
        "numberOfBytes": "1"
      },
      "t_mapping(t_address,t_bool)": {
        "encoding": "mapping",
        "key": "t_address",
        "label": "mapping(address => bool)",
        "numberOfBytes": "32",
        "value": "t_bool"
      },
      "t_mapping(t_uint32,t_array(t_bytes32)dyn_storage)": {
        "encoding": "mapping",
        "key": "t_uint32",
        "label": "mapping(uint32 => bytes32[])",
        "numberOfBytes": "32",
        "value": "t_array(t_bytes32)dyn_storage"
      },
      "t_mapping(t_uint8,t_mapping(t_uint32,t_array(t_bytes32)dyn_storage))": {
        "encoding": "mapping",
        "key": "t_uint8",
        "label": "mapping(uint8 => mapping(uint32 => bytes32[]))",
        "numberOfBytes": "32",
        "value": "t_mapping(t_uint32,t_array(t_bytes32)dyn_storage)"
      },
      "t_mapping(t_uint8,t_uint32)": {
        "encoding": "mapping",
        "key": "t_uint8",
        "label": "mapping(uint8 => uint32)",
        "numberOfBytes": "32",
        "value": "t_uint32"
      },
      "t_uint256": {
        "encoding": "inplace",
        "label": "uint256",
        "numberOfBytes": "32"
      },
      "t_uint32": {
        "encoding": "inplace",
        "label": "uint32",
        "numberOfBytes": "4"
      },
      "t_uint8": {
        "encoding": "inplace",
        "label": "uint8",
        "numberOfBytes": "1"
      }
    }
  }
}