{
  "address": "0x96d59127cCD1c0e3749E733Ee04F0DfbD2f808c8",
  "abi": [
    {
      "anonymous": false,
      "inputs": [
        {
          "indexed": true,
          "internalType": "address",
          "name": "previousOwner",
          "type": "address"
        },
        {
          "indexed": true,
          "internalType": "address",
          "name": "newOwner",
          "type": "address"
        }
      ],
      "name": "OwnershipTransferred",
      "type": "event"
    },
    {
      "anonymous": false,
      "inputs": [
        {
          "indexed": true,
          "internalType": "address",
          "name": "_to",
          "type": "address"
        },
        {
          "indexed": false,
          "internalType": "address",
          "name": "_asset",
          "type": "address"
        },
        {
          "indexed": false,
          "internalType": "uint256",
          "name": "_amount",
          "type": "uint256"
        }
      ],
      "name": "WithdrawTo",
      "type": "event"
    },
    {
      "inputs": [
        {
          "internalType": "address",
          "name": "_contract",
          "type": "address"
        }
      ],
      "name": "claim",
      "outputs": [],
      "stateMutability": "nonpayable",
      "type": "function"
    },
    {
      "inputs": [
        {
          "internalType": "address",
          "name": "_to",
          "type": "address"
        },
        {
          "internalType": "uint256",
          "name": "_value",
          "type": "uint256"
        },
        {
          "internalType": "bytes",
          "name": "_data",
          "type": "bytes"
        }
      ],
      "name": "execute",
      "outputs": [
        {
          "internalType": "bool",
          "name": "",
          "type": "bool"
        },
        {
          "internalType": "bytes",
          "name": "",
          "type": "bytes"
        }
      ],
      "stateMutability": "nonpayable",
      "type": "function"
    },
    {
      "inputs": [],
      "name": "owner",
      "outputs": [
        {
          "internalType": "address",
          "name": "",
          "type": "address"
        }
      ],
      "stateMutability": "view",
      "type": "function"
    },
    {
      "inputs": [],
      "name": "renounceOwnership",
      "outputs": [],
      "stateMutability": "nonpayable",
      "type": "function"
    },
    {
      "inputs": [
        {
          "internalType": "address",
          "name": "newOwner",
          "type": "address"
        }
      ],
      "name": "transferOwnership",
      "outputs": [],
      "stateMutability": "nonpayable",
      "type": "function"
    },
    {
      "inputs": [
        {
          "internalType": "address",
          "name": "_to",
          "type": "address"
        },
        {
          "internalType": "address",
          "name": "_asset",
          "type": "address"
        },
        {
          "internalType": "uint256",
          "name": "_amount",
          "type": "uint256"
        }
      ],
      "name": "withdrawTo",
      "outputs": [],
      "stateMutability": "nonpayable",
      "type": "function"
    }
  ],
  "transactionHash": "0xa73082717cea77e9b1edd22a340013eeab9337e92739a0387b6521936d5001d5",
  "args": [],
  "numDeployments": 1,
  "solcInputHash": "0fe117bee0ef6019dfc2d4e607c75167",
  "bytecode": "0x608060405234801561001057600080fd5b5061001a3361001f565b61006f565b600080546001600160a01b038381166001600160a01b0319831681178455604051919092169283917f8be0079c531659141344cd1fd0a4f28419497f9722a3daafe3b4186f6b6457e09190a35050565b61089c8061007e6000396000f3fe608060405234801561001057600080fd5b50600436106100625760003560e01c80631e83409a14610067578063715018a61461007c5780638da5cb5b14610084578063b61d27f6146100a4578063c3b35a7e146100c5578063f2fde38b146100d8575b600080fd5b61007a61007536600461067b565b6100eb565b005b61007a610174565b6000546040516001600160a01b0390911681526020015b60405180910390f35b6100b76100b2366004610696565b6101aa565b60405161009b929190610779565b61007a6100d3366004610794565b610248565b61007a6100e636600461067b565b6102d1565b6000546001600160a01b0316331461011e5760405162461bcd60e51b8152600401610115906107d0565b60405180910390fd5b806001600160a01b0316634e71d92d6040518163ffffffff1660e01b8152600401600060405180830381600087803b15801561015957600080fd5b505af115801561016d573d6000803e3d6000fd5b5050505050565b6000546001600160a01b0316331461019e5760405162461bcd60e51b8152600401610115906107d0565b6101a8600061036c565b565b600080546060906001600160a01b031633146101d85760405162461bcd60e51b8152600401610115906107d0565b600080876001600160a01b03168787876040516101f6929190610805565b60006040518083038185875af1925050503d8060008114610233576040519150601f19603f3d011682016040523d82523d6000602084013e610238565b606091505b5090999098509650505050505050565b6000546001600160a01b031633146102725760405162461bcd60e51b8152600401610115906107d0565b6102866001600160a01b03831684836103bc565b604080516001600160a01b038481168252602082018490528516917f67b714876402c93362735688659e2283b4a37fb21bab24bc759ca759ae851fd8910160405180910390a2505050565b6000546001600160a01b031633146102fb5760405162461bcd60e51b8152600401610115906107d0565b6001600160a01b0381166103605760405162461bcd60e51b815260206004820152602660248201527f4f776e61626c653a206e6577206f776e657220697320746865207a65726f206160448201526564647265737360d01b6064820152608401610115565b6103698161036c565b50565b600080546001600160a01b038381166001600160a01b0319831681178455604051919092169283917f8be0079c531659141344cd1fd0a4f28419497f9722a3daafe3b4186f6b6457e09190a35050565b604080516001600160a01b038416602482015260448082018490528251808303909101815260649091019091526020810180516001600160e01b031663a9059cbb60e01b17905261040e908490610413565b505050565b6000610468826040518060400160405280602081526020017f5361666545524332303a206c6f772d6c6576656c2063616c6c206661696c6564815250856001600160a01b03166104e59092919063ffffffff16565b80519091501561040e57808060200190518101906104869190610815565b61040e5760405162461bcd60e51b815260206004820152602a60248201527f5361666545524332303a204552433230206f7065726174696f6e20646964206e6044820152691bdd081cdd58d8d9595960b21b6064820152608401610115565b60606104f484846000856104fe565b90505b9392505050565b60608247101561055f5760405162461bcd60e51b815260206004820152602660248201527f416464726573733a20696e73756666696369656e742062616c616e636520666f6044820152651c8818d85b1b60d21b6064820152608401610115565b843b6105ad5760405162461bcd60e51b815260206004820152601d60248201527f416464726573733a2063616c6c20746f206e6f6e2d636f6e74726163740000006044820152606401610115565b600080866001600160a01b031685876040516105c99190610837565b60006040518083038185875af1925050503d8060008114610606576040519150601f19603f3d011682016040523d82523d6000602084013e61060b565b606091505b509150915061061b828286610626565b979650505050505050565b606083156106355750816104f7565b8251156106455782518084602001fd5b8160405162461bcd60e51b81526004016101159190610853565b80356001600160a01b038116811461067657600080fd5b919050565b60006020828403121561068d57600080fd5b6104f78261065f565b600080600080606085870312156106ac57600080fd5b6106b58561065f565b935060208501359250604085013567ffffffffffffffff808211156106d957600080fd5b818701915087601f8301126106ed57600080fd5b8135818111156106fc57600080fd5b88602082850101111561070e57600080fd5b95989497505060200194505050565b60005b83811015610738578181015183820152602001610720565b83811115610747576000848401525b50505050565b6000815180845261076581602086016020860161071d565b601f01601f19169290920160200192915050565b82151581526040602082015260006104f4604083018461074d565b6000806000606084860312156107a957600080fd5b6107b28461065f565b92506107c06020850161065f565b9150604084013590509250925092565b6020808252818101527f4f776e61626c653a2063616c6c6572206973206e6f7420746865206f776e6572604082015260600190565b8183823760009101908152919050565b60006020828403121561082757600080fd5b815180151581146104f757600080fd5b6000825161084981846020870161071d565b9190910192915050565b6020815260006104f7602083018461074d56fea2646970667358221220b34694f3902195f2664a605221050bf71c0e0a19995d905cc223c3c017b9196d64736f6c63430008090033",
  "devdoc": {
    "kind": "dev",
    "methods": {
      "owner()": {
        "details": "Returns the address of the current owner."
      },
      "renounceOwnership()": {
        "details": "Leaves the contract without owner. It will not be possible to call `onlyOwner` functions anymore. Can only be called by the current owner. NOTE: Renouncing ownership will leave the contract without an owner, thereby removing any functionality that is only available to the owner."
      },
      "transferOwnership(address)": {
        "details": "Transfers ownership of the contract to a new account (`newOwner`). Can only be called by the current owner."
      }
    },
    "version": 1
  },
  "userdoc": {
    "kind": "user",
    "methods": {},
    "version": 1
  },
  "storageLayout": {
    "storage": [
      {
        "astId": 3353,
        "contract": "contracts/dao/CaskTreasury.sol:CaskTreasury",
        "label": "_owner",
        "offset": 0,
        "slot": "0",
        "type": "t_address"
      }
    ],
    "types": {
      "t_address": {
        "encoding": "inplace",
        "label": "address",
        "numberOfBytes": "20"
      }
    }
  }
}