{
  "address": "0x3A03974375498c962739Aad692Bf003BCAB1e82a",
  "abi": [
    {
      "inputs": [],
      "stateMutability": "nonpayable",
      "type": "constructor"
    },
    {
      "anonymous": false,
      "inputs": [
        {
          "indexed": true,
          "internalType": "address",
          "name": "strategy",
          "type": "address"
        },
        {
          "indexed": true,
          "internalType": "address",
          "name": "asset",
          "type": "address"
        },
        {
          "indexed": false,
          "internalType": "uint256",
          "name": "assetAmount",
          "type": "uint256"
        }
      ],
      "name": "AllocatedToStrategy",
      "type": "event"
    },
    {
      "anonymous": false,
      "inputs": [
        {
          "indexed": true,
          "internalType": "address",
          "name": "asset",
          "type": "address"
        }
      ],
      "name": "AllowedAsset",
      "type": "event"
    },
    {
      "anonymous": false,
      "inputs": [
        {
          "indexed": true,
          "internalType": "address",
          "name": "owner",
          "type": "address"
        },
        {
          "indexed": true,
          "internalType": "address",
          "name": "spender",
          "type": "address"
        },
        {
          "indexed": false,
          "internalType": "uint256",
          "name": "value",
          "type": "uint256"
        }
      ],
      "name": "Approval",
      "type": "event"
    },
    {
      "anonymous": false,
      "inputs": [
        {
          "indexed": true,
          "internalType": "address",
          "name": "participant",
          "type": "address"
        },
        {
          "indexed": true,
          "internalType": "address",
          "name": "asset",
          "type": "address"
        },
        {
          "indexed": false,
          "internalType": "uint256",
          "name": "assetAmount",
          "type": "uint256"
        },
        {
          "indexed": false,
          "internalType": "uint256",
          "name": "baseAssetAmount",
          "type": "uint256"
        },
        {
          "indexed": false,
          "internalType": "uint256",
          "name": "shares",
          "type": "uint256"
        }
      ],
      "name": "AssetDeposited",
      "type": "event"
    },
    {
      "anonymous": false,
      "inputs": [
        {
          "indexed": true,
          "internalType": "address",
          "name": "participant",
          "type": "address"
        },
        {
          "indexed": true,
          "internalType": "address",
          "name": "asset",
          "type": "address"
        },
        {
          "indexed": false,
          "internalType": "uint256",
          "name": "assetAmount",
          "type": "uint256"
        },
        {
          "indexed": false,
          "internalType": "uint256",
          "name": "baseAssetAmount",
          "type": "uint256"
        },
        {
          "indexed": false,
          "internalType": "uint256",
          "name": "shares",
          "type": "uint256"
        }
      ],
      "name": "AssetWithdrawn",
      "type": "event"
    },
    {
      "anonymous": false,
      "inputs": [
        {
          "indexed": true,
          "internalType": "address",
          "name": "asset",
          "type": "address"
        }
      ],
      "name": "DisallowedAsset",
      "type": "event"
    },
    {
      "anonymous": false,
      "inputs": [
        {
          "indexed": true,
          "internalType": "address",
          "name": "previousOwner",
          "type": "address"
        },
        {
          "indexed": true,
          "internalType": "address",
          "name": "newOwner",
          "type": "address"
        }
      ],
      "name": "OwnershipTransferred",
      "type": "event"
    },
    {
      "anonymous": false,
      "inputs": [
        {
          "indexed": false,
          "internalType": "address",
          "name": "account",
          "type": "address"
        }
      ],
      "name": "Paused",
      "type": "event"
    },
    {
      "anonymous": false,
      "inputs": [
        {
          "indexed": true,
          "internalType": "address",
          "name": "from",
          "type": "address"
        },
        {
          "indexed": true,
          "internalType": "address",
          "name": "to",
          "type": "address"
        },
        {
          "indexed": false,
          "internalType": "uint256",
          "name": "baseAssetAmount",
          "type": "uint256"
        },
        {
          "indexed": false,
          "internalType": "uint256",
          "name": "shares",
          "type": "uint256"
        },
        {
          "indexed": false,
          "internalType": "uint256",
          "name": "protocolFee",
          "type": "uint256"
        },
        {
          "indexed": false,
          "internalType": "uint256",
          "name": "protocolFeeShares",
          "type": "uint256"
        },
        {
          "indexed": true,
          "internalType": "address",
          "name": "network",
          "type": "address"
        },
        {
          "indexed": false,
          "internalType": "uint256",
          "name": "networkFee",
          "type": "uint256"
        },
        {
          "indexed": false,
          "internalType": "uint256",
          "name": "networkFeeShares",
          "type": "uint256"
        }
      ],
      "name": "Payment",
      "type": "event"
    },
    {
      "anonymous": false,
      "inputs": [
        {
          "indexed": true,
          "internalType": "address",
          "name": "from",
          "type": "address"
        },
        {
          "indexed": true,
          "internalType": "address",
          "name": "to",
          "type": "address"
        },
        {
          "indexed": false,
          "internalType": "uint256",
          "name": "value",
          "type": "uint256"
        }
      ],
      "name": "Transfer",
      "type": "event"
    },
    {
      "anonymous": false,
      "inputs": [
        {
          "indexed": true,
          "internalType": "address",
          "name": "from",
          "type": "address"
        },
        {
          "indexed": true,
          "internalType": "address",
          "name": "to",
          "type": "address"
        },
        {
          "indexed": false,
          "internalType": "uint256",
          "name": "baseAssetAmount",
          "type": "uint256"
        },
        {
          "indexed": false,
          "internalType": "uint256",
          "name": "shares",
          "type": "uint256"
        }
      ],
      "name": "TransferValue",
      "type": "event"
    },
    {
      "anonymous": false,
      "inputs": [
        {
          "indexed": false,
          "internalType": "address",
          "name": "account",
          "type": "address"
        }
      ],
      "name": "Unpaused",
      "type": "event"
    },
    {
      "inputs": [
        {
          "internalType": "address",
          "name": "_protocol",
          "type": "address"
        }
      ],
      "name": "addProtocol",
      "outputs": [],
      "stateMutability": "nonpayable",
      "type": "function"
    },
    {
      "inputs": [
        {
          "internalType": "address",
          "name": "_strategy",
          "type": "address"
        },
        {
          "internalType": "address",
          "name": "_asset",
          "type": "address"
        },
        {
          "internalType": "uint256",
          "name": "_assetAmount",
          "type": "uint256"
        }
      ],
      "name": "allocateToStrategy",
      "outputs": [],
      "stateMutability": "nonpayable",
      "type": "function"
    },
    {
      "inputs": [
        {
          "internalType": "address",
          "name": "_asset",
          "type": "address"
        },
        {
          "internalType": "address",
          "name": "_priceFeed",
          "type": "address"
        },
        {
          "internalType": "uint256",
          "name": "_depositLimit",
          "type": "uint256"
        },
        {
          "internalType": "uint256",
          "name": "_slippageBps",
          "type": "uint256"
        }
      ],
      "name": "allowAsset",
      "outputs": [],
      "stateMutability": "nonpayable",
      "type": "function"
    },
    {
      "inputs": [
        {
          "internalType": "address",
          "name": "owner",
          "type": "address"
        },
        {
          "internalType": "address",
          "name": "spender",
          "type": "address"
        }
      ],
      "name": "allowance",
      "outputs": [
        {
          "internalType": "uint256",
          "name": "",
          "type": "uint256"
        }
      ],
      "stateMutability": "view",
      "type": "function"
    },
    {
      "inputs": [
        {
          "internalType": "address",
          "name": "spender",
          "type": "address"
        },
        {
          "internalType": "uint256",
          "name": "amount",
          "type": "uint256"
        }
      ],
      "name": "approve",
      "outputs": [
        {
          "internalType": "bool",
          "name": "",
          "type": "bool"
        }
      ],
      "stateMutability": "nonpayable",
      "type": "function"
    },
    {
      "inputs": [
        {
          "internalType": "address",
          "name": "account",
          "type": "address"
        }
      ],
      "name": "balanceOf",
      "outputs": [
        {
          "internalType": "uint256",
          "name": "",
          "type": "uint256"
        }
      ],
      "stateMutability": "view",
      "type": "function"
    },
    {
      "inputs": [],
      "name": "baseAsset",
      "outputs": [
        {
          "internalType": "address",
          "name": "",
          "type": "address"
        }
      ],
      "stateMutability": "view",
      "type": "function"
    },
    {
      "inputs": [
        {
          "internalType": "address",
          "name": "_fromAsset",
          "type": "address"
        },
        {
          "internalType": "address",
          "name": "_toAsset",
          "type": "address"
        },
        {
          "internalType": "uint256",
          "name": "_fromAmount",
          "type": "uint256"
        }
      ],
      "name": "convertPrice",
      "outputs": [
        {
          "internalType": "uint256",
          "name": "",
          "type": "uint256"
        }
      ],
      "stateMutability": "view",
      "type": "function"
    },
    {
      "inputs": [
        {
          "internalType": "address",
          "name": "_address",
          "type": "address"
        }
      ],
      "name": "currentValueOf",
      "outputs": [
        {
          "internalType": "uint256",
          "name": "",
          "type": "uint256"
        }
      ],
      "stateMutability": "view",
      "type": "function"
    },
    {
      "inputs": [],
      "name": "decimals",
      "outputs": [
        {
          "internalType": "uint8",
          "name": "",
          "type": "uint8"
        }
      ],
      "stateMutability": "view",
      "type": "function"
    },
    {
      "inputs": [
        {
          "internalType": "address",
          "name": "spender",
          "type": "address"
        },
        {
          "internalType": "uint256",
          "name": "subtractedValue",
          "type": "uint256"
        }
      ],
      "name": "decreaseAllowance",
      "outputs": [
        {
          "internalType": "bool",
          "name": "",
          "type": "bool"
        }
      ],
      "stateMutability": "nonpayable",
      "type": "function"
    },
    {
      "inputs": [
        {
          "internalType": "address",
          "name": "_asset",
          "type": "address"
        },
        {
          "internalType": "uint256",
          "name": "_assetAmount",
          "type": "uint256"
        }
      ],
      "name": "deposit",
      "outputs": [],
      "stateMutability": "nonpayable",
      "type": "function"
    },
    {
      "inputs": [
        {
          "internalType": "address",
          "name": "_to",
          "type": "address"
        },
        {
          "internalType": "address",
          "name": "_asset",
          "type": "address"
        },
        {
          "internalType": "uint256",
          "name": "_assetAmount",
          "type": "uint256"
        }
      ],
      "name": "depositTo",
      "outputs": [],
      "stateMutability": "nonpayable",
      "type": "function"
    },
    {
      "inputs": [
        {
          "internalType": "address",
          "name": "_asset",
          "type": "address"
        }
      ],
      "name": "disallowAsset",
      "outputs": [],
      "stateMutability": "nonpayable",
      "type": "function"
    },
    {
      "inputs": [],
      "name": "feeDistributor",
      "outputs": [
        {
          "internalType": "address",
          "name": "",
          "type": "address"
        }
      ],
      "stateMutability": "view",
      "type": "function"
    },
    {
      "inputs": [],
      "name": "getAllAssets",
      "outputs": [
        {
          "internalType": "address[]",
          "name": "",
          "type": "address[]"
        }
      ],
      "stateMutability": "view",
      "type": "function"
    },
    {
      "inputs": [
        {
          "internalType": "address",
          "name": "_asset",
          "type": "address"
        }
      ],
      "name": "getAsset",
      "outputs": [
        {
          "components": [
            {
              "internalType": "address",
              "name": "priceFeed",
              "type": "address"
            },
            {
              "internalType": "uint256",
              "name": "slippageBps",
              "type": "uint256"
            },
            {
              "internalType": "uint256",
              "name": "depositLimit",
              "type": "uint256"
            },
            {
              "internalType": "uint8",
              "name": "assetDecimals",
              "type": "uint8"
            },
            {
              "internalType": "uint8",
              "name": "priceFeedDecimals",
              "type": "uint8"
            },
            {
              "internalType": "bool",
              "name": "allowed",
              "type": "bool"
            }
          ],
          "internalType": "struct ICaskVault.Asset",
          "name": "",
          "type": "tuple"
        }
      ],
      "stateMutability": "view",
      "type": "function"
    },
    {
      "inputs": [],
      "name": "getBaseAsset",
      "outputs": [
        {
          "internalType": "address",
          "name": "",
          "type": "address"
        }
      ],
      "stateMutability": "view",
      "type": "function"
    },
    {
      "inputs": [
        {
          "internalType": "address",
          "name": "spender",
          "type": "address"
        },
        {
          "internalType": "uint256",
          "name": "addedValue",
          "type": "uint256"
        }
      ],
      "name": "increaseAllowance",
      "outputs": [
        {
          "internalType": "bool",
          "name": "",
          "type": "bool"
        }
      ],
      "stateMutability": "nonpayable",
      "type": "function"
    },
    {
      "inputs": [
        {
          "internalType": "address",
          "name": "_vaultManager",
          "type": "address"
        },
        {
          "internalType": "address",
          "name": "_baseAsset",
          "type": "address"
        },
        {
          "internalType": "address",
          "name": "_baseAssetPriceFeed",
          "type": "address"
        },
        {
          "internalType": "address",
          "name": "_feeDistributor",
          "type": "address"
        }
      ],
      "name": "initialize",
      "outputs": [],
      "stateMutability": "nonpayable",
      "type": "function"
    },
    {
      "inputs": [
        {
          "internalType": "address",
          "name": "forwarder",
          "type": "address"
        }
      ],
      "name": "isTrustedForwarder",
      "outputs": [
        {
          "internalType": "bool",
          "name": "",
          "type": "bool"
        }
      ],
      "stateMutability": "view",
      "type": "function"
    },
    {
      "inputs": [],
      "name": "minDeposit",
      "outputs": [
        {
          "internalType": "uint256",
          "name": "",
          "type": "uint256"
        }
      ],
      "stateMutability": "view",
      "type": "function"
    },
    {
      "inputs": [],
      "name": "name",
      "outputs": [
        {
          "internalType": "string",
          "name": "",
          "type": "string"
        }
      ],
      "stateMutability": "view",
      "type": "function"
    },
    {
      "inputs": [],
      "name": "owner",
      "outputs": [
        {
          "internalType": "address",
          "name": "",
          "type": "address"
        }
      ],
      "stateMutability": "view",
      "type": "function"
    },
    {
      "inputs": [],
      "name": "pause",
      "outputs": [],
      "stateMutability": "nonpayable",
      "type": "function"
    },
    {
      "inputs": [],
      "name": "paused",
      "outputs": [
        {
          "internalType": "bool",
          "name": "",
          "type": "bool"
        }
      ],
      "stateMutability": "view",
      "type": "function"
    },
    {
      "inputs": [],
      "name": "pricePerShare",
      "outputs": [
        {
          "internalType": "uint256",
          "name": "",
          "type": "uint256"
        }
      ],
      "stateMutability": "view",
      "type": "function"
    },
    {
      "inputs": [],
      "name": "protocolCount",
      "outputs": [
        {
          "internalType": "uint256",
          "name": "",
          "type": "uint256"
        }
      ],
      "stateMutability": "view",
      "type": "function"
    },
    {
      "inputs": [
        {
          "internalType": "address",
          "name": "_from",
          "type": "address"
        },
        {
          "internalType": "address",
          "name": "_to",
          "type": "address"
        },
        {
          "internalType": "uint256",
          "name": "_value",
          "type": "uint256"
        },
        {
          "internalType": "uint256",
          "name": "_protocolFee",
          "type": "uint256"
        },
        {
          "internalType": "address",
          "name": "_network",
          "type": "address"
        },
        {
          "internalType": "uint256",
          "name": "_networkFee",
          "type": "uint256"
        }
      ],
      "name": "protocolPayment",
      "outputs": [],
      "stateMutability": "nonpayable",
      "type": "function"
    },
    {
      "inputs": [
        {
          "internalType": "address",
          "name": "_from",
          "type": "address"
        },
        {
          "internalType": "address",
          "name": "_to",
          "type": "address"
        },
        {
          "internalType": "uint256",
          "name": "_value",
          "type": "uint256"
        }
      ],
      "name": "protocolPayment",
      "outputs": [],
      "stateMutability": "nonpayable",
      "type": "function"
    },
    {
      "inputs": [
        {
          "internalType": "address",
          "name": "_from",
          "type": "address"
        },
        {
          "internalType": "address",
          "name": "_to",
          "type": "address"
        },
        {
          "internalType": "uint256",
          "name": "_value",
          "type": "uint256"
        },
        {
          "internalType": "uint256",
          "name": "_protocolFee",
          "type": "uint256"
        }
      ],
      "name": "protocolPayment",
      "outputs": [],
      "stateMutability": "nonpayable",
      "type": "function"
    },
    {
      "inputs": [
        {
          "internalType": "uint256",
          "name": "",
          "type": "uint256"
        }
      ],
      "name": "protocols",
      "outputs": [
        {
          "internalType": "address",
          "name": "",
          "type": "address"
        }
      ],
      "stateMutability": "view",
      "type": "function"
    },
    {
      "inputs": [
        {
          "internalType": "address",
          "name": "_protocol",
          "type": "address"
        }
      ],
      "name": "removeProtocol",
      "outputs": [],
      "stateMutability": "nonpayable",
      "type": "function"
    },
    {
      "inputs": [],
      "name": "renounceOwnership",
      "outputs": [],
      "stateMutability": "nonpayable",
      "type": "function"
    },
    {
      "inputs": [
        {
          "internalType": "address",
          "name": "_feeDistributor",
          "type": "address"
        }
      ],
      "name": "setFeeDistributor",
      "outputs": [],
      "stateMutability": "nonpayable",
      "type": "function"
    },
    {
      "inputs": [
        {
          "internalType": "address",
          "name": "_vaultManager",
          "type": "address"
        }
      ],
      "name": "setManager",
      "outputs": [],
      "stateMutability": "nonpayable",
      "type": "function"
    },
    {
      "inputs": [
        {
          "internalType": "uint256",
          "name": "_minDeposit",
          "type": "uint256"
        }
      ],
      "name": "setMinDeposit",
      "outputs": [],
      "stateMutability": "nonpayable",
      "type": "function"
    },
    {
      "inputs": [
        {
          "internalType": "address",
          "name": "_forwarder",
          "type": "address"
        }
      ],
      "name": "setTrustedForwarder",
      "outputs": [],
      "stateMutability": "nonpayable",
      "type": "function"
    },
    {
      "inputs": [
        {
          "internalType": "uint256",
          "name": "_value",
          "type": "uint256"
        }
      ],
      "name": "sharesForValue",
      "outputs": [
        {
          "internalType": "uint256",
          "name": "",
          "type": "uint256"
        }
      ],
      "stateMutability": "view",
      "type": "function"
    },
    {
      "inputs": [
        {
          "internalType": "address",
          "name": "_asset",
          "type": "address"
        }
      ],
      "name": "supportsAsset",
      "outputs": [
        {
          "internalType": "bool",
          "name": "",
          "type": "bool"
        }
      ],
      "stateMutability": "view",
      "type": "function"
    },
    {
      "inputs": [],
      "name": "symbol",
      "outputs": [
        {
          "internalType": "string",
          "name": "",
          "type": "string"
        }
      ],
      "stateMutability": "view",
      "type": "function"
    },
    {
      "inputs": [
        {
          "internalType": "address",
          "name": "_asset",
          "type": "address"
        }
      ],
      "name": "totalAssetBalance",
      "outputs": [
        {
          "internalType": "uint256",
          "name": "",
          "type": "uint256"
        }
      ],
      "stateMutability": "view",
      "type": "function"
    },
    {
      "inputs": [],
      "name": "totalSupply",
      "outputs": [
        {
          "internalType": "uint256",
          "name": "",
          "type": "uint256"
        }
      ],
      "stateMutability": "view",
      "type": "function"
    },
    {
      "inputs": [],
      "name": "totalValue",
      "outputs": [
        {
          "internalType": "uint256",
          "name": "",
          "type": "uint256"
        }
      ],
      "stateMutability": "view",
      "type": "function"
    },
    {
      "inputs": [
        {
          "internalType": "address",
          "name": "recipient",
          "type": "address"
        },
        {
          "internalType": "uint256",
          "name": "amount",
          "type": "uint256"
        }
      ],
      "name": "transfer",
      "outputs": [
        {
          "internalType": "bool",
          "name": "",
          "type": "bool"
        }
      ],
      "stateMutability": "nonpayable",
      "type": "function"
    },
    {
      "inputs": [
        {
          "internalType": "address",
          "name": "sender",
          "type": "address"
        },
        {
          "internalType": "address",
          "name": "recipient",
          "type": "address"
        },
        {
          "internalType": "uint256",
          "name": "amount",
          "type": "uint256"
        }
      ],
      "name": "transferFrom",
      "outputs": [
        {
          "internalType": "bool",
          "name": "",
          "type": "bool"
        }
      ],
      "stateMutability": "nonpayable",
      "type": "function"
    },
    {
      "inputs": [
        {
          "internalType": "address",
          "name": "newOwner",
          "type": "address"
        }
      ],
      "name": "transferOwnership",
      "outputs": [],
      "stateMutability": "nonpayable",
      "type": "function"
    },
    {
      "inputs": [
        {
          "internalType": "address",
          "name": "_recipient",
          "type": "address"
        },
        {
          "internalType": "uint256",
          "name": "_value",
          "type": "uint256"
        }
      ],
      "name": "transferValue",
      "outputs": [
        {
          "internalType": "bool",
          "name": "",
          "type": "bool"
        }
      ],
      "stateMutability": "nonpayable",
      "type": "function"
    },
    {
      "inputs": [
        {
          "internalType": "address",
          "name": "_sender",
          "type": "address"
        },
        {
          "internalType": "address",
          "name": "_recipient",
          "type": "address"
        },
        {
          "internalType": "uint256",
          "name": "_value",
          "type": "uint256"
        }
      ],
      "name": "transferValueFrom",
      "outputs": [
        {
          "internalType": "bool",
          "name": "",
          "type": "bool"
        }
      ],
      "stateMutability": "nonpayable",
      "type": "function"
    },
    {
      "inputs": [],
      "name": "trustedForwarder",
      "outputs": [
        {
          "internalType": "address",
          "name": "",
          "type": "address"
        }
      ],
      "stateMutability": "view",
      "type": "function"
    },
    {
      "inputs": [],
      "name": "unpause",
      "outputs": [],
      "stateMutability": "nonpayable",
      "type": "function"
    },
    {
      "inputs": [],
      "name": "vaultManager",
      "outputs": [
        {
          "internalType": "address",
          "name": "",
          "type": "address"
        }
      ],
      "stateMutability": "view",
      "type": "function"
    },
    {
      "inputs": [],
      "name": "versionRecipient",
      "outputs": [
        {
          "internalType": "string",
          "name": "",
          "type": "string"
        }
      ],
      "stateMutability": "pure",
      "type": "function"
    },
    {
      "inputs": [
        {
          "internalType": "address",
          "name": "_asset",
          "type": "address"
        },
        {
          "internalType": "uint256",
          "name": "_shares",
          "type": "uint256"
        }
      ],
      "name": "withdraw",
      "outputs": [],
      "stateMutability": "nonpayable",
      "type": "function"
    },
    {
      "inputs": [
        {
          "internalType": "address",
          "name": "_recipient",
          "type": "address"
        },
        {
          "internalType": "address",
          "name": "_asset",
          "type": "address"
        },
        {
          "internalType": "uint256",
          "name": "_shares",
          "type": "uint256"
        }
      ],
      "name": "withdrawTo",
      "outputs": [],
      "stateMutability": "nonpayable",
      "type": "function"
    }
  ],
  "transactionHash": "0xed79aea449d2d6d61136364fa18c069aedf399b1a778b7af558b41cb354babc6",
  "args": [],
  "numDeployments": 3,
  "solcInputHash": "415569f1d2e019a77c1796ddf337fadf",
  "bytecode": "0x60806040523480156200001157600080fd5b50600054610100900460ff166200002f5760005460ff161562000039565b62000039620000de565b620000a15760405162461bcd60e51b815260206004820152602e60248201527f496e697469616c697a61626c653a20636f6e747261637420697320616c72656160448201526d191e481a5b9a5d1a585b1a5e995960921b606482015260840160405180910390fd5b600054610100900460ff16158015620000c4576000805461ffff19166101011790555b8015620000d7576000805461ff00191690555b5062000102565b6000620000f630620000fc60201b6200217a1760201c565b15905090565b3b151590565b613f6080620001126000396000f3fe608060405234801561001057600080fd5b506004361061035d5760003560e01c80637da0a877116101d3578063ccfc2e8d11610104578063e2eed04f116100a2578063f2fde38b1161007c578063f2fde38b1461087a578063f3fef3a31461088d578063f8c8765e146108a0578063fcd6a25b146108b357600080fd5b8063e2eed04f1461084b578063e513032214610854578063f213159c1461086757600080fd5b8063d4c3eea0116100de578063d4c3eea0146107e4578063da742228146107ec578063dd62ed3e146107ff578063e1ded2de1461083857600080fd5b8063ccfc2e8d146107ab578063cdf456e1146107be578063d0ebdbe7146107d157600080fd5b80638fcc9cfb11610171578063a457c2d71161014b578063a457c2d71461073c578063a9059cbb1461074f578063aa388af614610762578063c3b35a7e1461079857600080fd5b80638fcc9cfb1461071957806395d89b411461072c57806399530b061461073457600080fd5b80638c396220116101ad5780638c396220146106d15780638d3a4af6146106e45780638da5cb5b146106f55780638e3e580d1461070657600080fd5b80637da0a877146106a55780638456cb59146106b65780638a4adf24146106be57600080fd5b80633f4ba83a116102ad578063597435cb1161024b57806370a082311161022557806370a082311461064e578063715018a614610677578063771d4c281461067f57806379b2125f1461069257600080fd5b8063597435cb1461061d5780635a4161ff146106305780635c975abb1461064357600080fd5b8063486ff0cd11610287578063486ff0cd146105b45780634bb846e1146105d55780635517575d146105e8578063572b6c05146105fb57600080fd5b80633f4ba83a1461058f57806341b3d1851461059757806347e7ef24146105a157600080fd5b80631e377d391161031a5780632acada4d116102f45780632acada4d1461044157806330b8b2c614610456578063313ce56714610562578063395093511461057c57600080fd5b80631e377d39146104085780632298d8491461041b57806323b872dd1461042e57600080fd5b806306fdde031461036257806308751b1814610380578063095ea7b3146103a35780630d43e8ad146103b657806318160ddd146103e157806318ff5768146103f3575b600080fd5b61036a6108c6565b604051610377919061387e565b60405180910390f35b61039361038e3660046138c8565b610958565b6040519015158152602001610377565b6103936103b1366004613904565b610a4f565b60fe546103c9906001600160a01b031681565b6040516001600160a01b039091168152602001610377565b6036545b604051908152602001610377565b61040661040136600461392e565b610a6d565b005b610406610416366004613949565b610bdc565b61040661042936600461392e565b610f9e565b61039361043c3660046138c8565b61109c565b61044961112e565b604051610377919061398b565b61050661046436600461392e565b6040805160c081018252600080825260208201819052918101829052606081018290526080810182905260a0810191909152506001600160a01b03908116600090815260ff6020818152604092839020835160c08101855281549095168552600181015491850191909152600281015492840192909252600390910154808216606084015261010081048216608084015262010000900416151560a082015290565b6040516103779190600060c08201905060018060a01b038351168252602083015160208301526040830151604083015260ff606084015116606083015260ff608084015116608083015260a0830151151560a083015292915050565b61056a611190565b60405160ff9091168152602001610377565b61039361058a366004613904565b611212565b610406611266565b6103e56101025481565b6104066105af366004613904565b6112b9565b6040805180820190915260058152640322e322e360dc1b602082015261036a565b6103e56105e33660046138c8565b6112fc565b6103e56105f636600461392e565b611311565b61039361060936600461392e565b6033546001600160a01b0391821691161490565b6103e561062b36600461392e565b61131c565b61039361063e366004613904565b611343565b60985460ff16610393565b6103e561065c36600461392e565b6001600160a01b031660009081526034602052604090205490565b6104066113f9565b61040661068d36600461392e565b61144c565b6104066106a03660046139d8565b6114e8565b6033546001600160a01b03166103c9565b6104066115b4565b60fc546103c9906001600160a01b031681565b6103c96106df366004613a37565b611605565b60fd546001600160a01b03166103c9565b6066546001600160a01b03166103c9565b6104066107143660046138c8565b611630565b610406610727366004613a37565b6116fb565b61036a61174a565b6103e5611759565b61039361074a366004613904565b611789565b61039361075d366004613904565b611840565b61039361077036600461392e565b6001600160a01b0316600090815260ff60208190526040909120600301546201000090041690565b6104066107a63660046138c8565b611854565b6104066107b936600461392e565b611891565b60fd546103c9906001600160a01b031681565b6104066107df36600461392e565b6118fc565b6103e5611967565b6104066107fa36600461392e565b611971565b6103e561080d366004613a50565b6001600160a01b03918216600090815260356020908152604080832093909416825291909152205490565b6103e5610846366004613a37565b6119db565b610101546103e5565b6104066108623660046138c8565b6119e6565b6104066108753660046138c8565b611b17565b61040661088836600461392e565b611b4a565b61040661089b366004613904565b611c01565b6104066108ae366004613a83565b611c3b565b6104066108c1366004613949565b6120af565b6060603780546108d590613ad7565b80601f016020809104026020016040519081016040528092919081815260200182805461090190613ad7565b801561094e5780601f106109235761010080835404028352916020019161094e565b820191906000526020600020905b81548152906001019060200180831161093157829003601f168201915b5050505050905090565b6000600260ca5414156109865760405162461bcd60e51b815260040161097d90613b0c565b60405180910390fd5b600260ca55600061099683612180565b90506109a38585836121d7565b60006109b18661080d61239e565b9050818110156109d35760405162461bcd60e51b815260040161097d90613b43565b6109e7866109df61239e565b8484036123a8565b846001600160a01b0316866001600160a01b03167fc8cf4e5d87b5b4ffb59d20991b0840a27d2227ee272dae54bacf0f4b4184bf778685604051610a35929190918252602082015260400190565b60405180910390a3600192505050600160ca559392505050565b6000610a63610a5c61239e565b84846123a8565b5060015b92915050565b610a7561239e565b6001600160a01b0316610a906066546001600160a01b031690565b6001600160a01b031614610ab65760405162461bcd60e51b815260040161097d90613b8b565b6101015460005b61010154811015610b1b57826001600160a01b03166101018281548110610ae657610ae6613bc0565b6000918252602090912001546001600160a01b03161415610b0957809150610b1b565b80610b1381613bec565b915050610abd565b5061010154811015610bd8576101018054610b3890600190613c07565b81548110610b4857610b48613bc0565b60009182526020909120015461010180546001600160a01b039092169183908110610b7557610b75613bc0565b9060005260206000200160006101000a8154816001600160a01b0302191690836001600160a01b03160217905550610101805480610bb557610bb5613c1e565b600082815260209020810160001990810180546001600160a01b03191690550190555b5050565b610be461239e565b6001600160a01b0316610bff6066546001600160a01b031690565b6001600160a01b031614610c255760405162461bcd60e51b815260040161097d90613b8b565b6000846001600160a01b031663313ce5676040518163ffffffff1660e01b815260040160206040518083038186803b158015610c6057600080fd5b505afa158015610c74573d6000803e3d6000fd5b505050506040513d601f19601f82011682018060405250810190610c989190613c34565b60ff1611610cda5760405162461bcd60e51b815260206004820152600f60248201526e21494e56414c49442861737365742960881b604482015260640161097d565b6000836001600160a01b031663313ce5676040518163ffffffff1660e01b815260040160206040518083038186803b158015610d1557600080fd5b505afa158015610d29573d6000803e3d6000fd5b505050506040513d601f19601f82011682018060405250810190610d4d9190613c34565b60ff1611610d935760405162461bcd60e51b815260206004820152601360248201527221494e56414c4944287072696365466565642960681b604482015260640161097d565b6001600160a01b038416600090815260ff602081905260409091206003810154909116610e075761010080546001810182556000919091527f45e010b9ae401e2eb71529478da8bd513a9bdc2d095a111e324f5b95c09ed87b0180546001600160a01b0319166001600160a01b0387161790555b60038101805462ff000019166201000017905580546001600160a01b038086166001600160a01b031990921691909117825560028201849055600182018390556040805163313ce56760e01b815290519187169163313ce56791600480820192602092909190829003018186803b158015610e8157600080fd5b505afa158015610e95573d6000803e3d6000fd5b505050506040513d601f19601f82011682018060405250810190610eb99190613c34565b8160030160006101000a81548160ff021916908360ff160217905550836001600160a01b031663313ce5676040518163ffffffff1660e01b815260040160206040518083038186803b158015610f0e57600080fd5b505afa158015610f22573d6000803e3d6000fd5b505050506040513d601f19601f82011682018060405250810190610f469190613c34565b60038201805460ff929092166101000261ff00199092169190911790556040516001600160a01b038616907f06a94869c30cb7089f57f8d4a5ff251ac74a8c2bc361e7f91bda209898de8ead90600090a25050505050565b610fa661239e565b6001600160a01b0316610fc16066546001600160a01b031690565b6001600160a01b031614610fe75760405162461bcd60e51b815260040161097d90613b8b565b6001600160a01b038116600090815260ff60208190526040909120600301546201000090041661104e5760405162461bcd60e51b8152602060048201526012602482015271085054d4d15517d393d517d0531313d5d15160721b604482015260640161097d565b6001600160a01b038116600081815260ff6020526040808220600301805462ff000019169055517f0a8090b3b8835c60a03ebb0cc69833b4359a1924917dbc2e80bb4516428da0a39190a250565b60006110a98484846121d7565b6001600160a01b0384166000908152603560205260408120816110ca61239e565b6001600160a01b03166001600160a01b031681526020019081526020016000205490508281101561110d5760405162461bcd60e51b815260040161097d90613b43565b6111218561111961239e565b8584036123a8565b60019150505b9392505050565b606061010080548060200260200160405190810160405280929190818152602001828054801561094e57602002820191906000526020600020905b81546001600160a01b03168152600190910190602001808311611169575050505050905090565b60fd546040805163313ce56760e01b815290516000926001600160a01b03169163313ce567916004808301926020929190829003018186803b1580156111d557600080fd5b505afa1580156111e9573d6000803e3d6000fd5b505050506040513d601f19601f8201168201806040525081019061120d9190613c34565b905090565b6000610a6361121f61239e565b84846035600061122d61239e565b6001600160a01b03908116825260208083019390935260409182016000908120918b16815292529020546112619190613c57565b6123a8565b61126e61239e565b6001600160a01b03166112896066546001600160a01b031690565b6001600160a01b0316146112af5760405162461bcd60e51b815260040161097d90613b8b565b6112b76124cc565b565b600260ca5414156112dc5760405162461bcd60e51b815260040161097d90613b0c565b600260ca556112f36112ec61239e565b8383612565565b5050600160ca55565b6000611309848484612736565b949350505050565b6000610a6782612b15565b6001600160a01b038116600090815260346020526040812054610a6790612c14565b612c14565b6000600260ca5414156113685760405162461bcd60e51b815260040161097d90613b0c565b600260ca55600061137883612180565b905061138c61138561239e565b85836121d7565b836001600160a01b031661139e61239e565b6001600160a01b03167fc8cf4e5d87b5b4ffb59d20991b0840a27d2227ee272dae54bacf0f4b4184bf7785846040516113e1929190918252602082015260400190565b60405180910390a36001915050600160ca5592915050565b61140161239e565b6001600160a01b031661141c6066546001600160a01b031690565b6001600160a01b0316146114425760405162461bcd60e51b815260040161097d90613b8b565b6112b76000612c47565b61145461239e565b6001600160a01b031661146f6066546001600160a01b031690565b6001600160a01b0316146114955760405162461bcd60e51b815260040161097d90613b8b565b61010180546001810182556000919091527f109ea3cebb188b9c1b9fc5bb3920be60dfdc8699098dff92f3d80daaca7476890180546001600160a01b0319166001600160a01b0392909216919091179055565b600260ca54141561150b5760405162461bcd60e51b815260040161097d90613b0c565b600260ca556000805b6101015481101561157a57610101818154811061153357611533613bc0565b6000918252602090912001546001600160a01b031661155061239e565b6001600160a01b03161415611568576001915061157a565b8061157281613bec565b915050611514565b50806115985760405162461bcd60e51b815260040161097d90613c6f565b6115a6878787878787612c99565b5050600160ca555050505050565b6115bc61239e565b6001600160a01b03166115d76066546001600160a01b031690565b6001600160a01b0316146115fd5760405162461bcd60e51b815260040161097d90613b8b565b6112b7612d92565b610101818154811061161657600080fd5b6000918252602090912001546001600160a01b0316905081565b600260ca5414156116535760405162461bcd60e51b815260040161097d90613b0c565b600260ca556000805b610101548110156116c257610101818154811061167b5761167b613bc0565b6000918252602090912001546001600160a01b031661169861239e565b6001600160a01b031614156116b057600191506116c2565b806116ba81613bec565b91505061165c565b50806116e05760405162461bcd60e51b815260040161097d90613c6f565b6116f08484846000806000612c99565b5050600160ca555050565b61170361239e565b6001600160a01b031661171e6066546001600160a01b031690565b6001600160a01b0316146117445760405162461bcd60e51b815260040161097d90613b8b565b61010255565b6060603880546108d590613ad7565b60fd546001600160a01b0316600090815260ff6020819052604082206003015461120d9161133e9116600a613d72565b6000806035600061179861239e565b6001600160a01b03908116825260208083019390935260409182016000908120918816815292529020549050828110156118225760405162461bcd60e51b815260206004820152602560248201527f45524332303a2064656372656173656420616c6c6f77616e63652062656c6f77604482015264207a65726f60d81b606482015260840161097d565b61183661182d61239e565b858584036123a8565b5060019392505050565b6000610a6361184d61239e565b84846121d7565b600260ca5414156118775760405162461bcd60e51b815260040161097d90613b0c565b600260ca55611887838383612e0e565b5050600160ca5550565b61189961239e565b6001600160a01b03166118b46066546001600160a01b031690565b6001600160a01b0316146118da5760405162461bcd60e51b815260040161097d90613b8b565b60fe80546001600160a01b0319166001600160a01b0392909216919091179055565b61190461239e565b6001600160a01b031661191f6066546001600160a01b031690565b6001600160a01b0316146119455760405162461bcd60e51b815260040161097d90613b8b565b60fc80546001600160a01b0319166001600160a01b0392909216919091179055565b600061120d612f8c565b61197961239e565b6001600160a01b03166119946066546001600160a01b031690565b6001600160a01b0316146119ba5760405162461bcd60e51b815260040161097d90613b8b565b603380546001600160a01b0319166001600160a01b03831617905550565b50565b6000610a6782612180565b6000805b61010154811015611a50576101018181548110611a0957611a09613bc0565b6000918252602090912001546001600160a01b0316611a2661239e565b6001600160a01b03161415611a3e5760019150611a50565b80611a4881613bec565b9150506119ea565b5080611a6e5760405162461bcd60e51b815260040161097d90613c6f565b6001600160a01b038316600090815260ff602081905260409091206003015462010000900416611ab05760405162461bcd60e51b815260040161097d90613d81565b611ac46001600160a01b0384168584613090565b826001600160a01b0316846001600160a01b03167f4d0df46bea966973af88bd9f2ec263268a205e0a196a519fca0aded1b052564884604051611b0991815260200190565b60405180910390a350505050565b600260ca541415611b3a5760405162461bcd60e51b815260040161097d90613b0c565b600260ca55611887838383612565565b611b5261239e565b6001600160a01b0316611b6d6066546001600160a01b031690565b6001600160a01b031614611b935760405162461bcd60e51b815260040161097d90613b8b565b6001600160a01b038116611bf85760405162461bcd60e51b815260206004820152602660248201527f4f776e61626c653a206e6577206f776e657220697320746865207a65726f206160448201526564647265737360d01b606482015260840161097d565b6119d881612c47565b600260ca541415611c245760405162461bcd60e51b815260040161097d90613b0c565b600260ca556112f3611c3461239e565b8383612e0e565b600054610100900460ff16611c565760005460ff1615611c5a565b303b155b611cbd5760405162461bcd60e51b815260206004820152602e60248201527f496e697469616c697a61626c653a20636f6e747261637420697320616c72656160448201526d191e481a5b9a5d1a585b1a5e995960921b606482015260840161097d565b600054610100900460ff16158015611cdf576000805461ffff19166101011790555b611ce76130f8565b611cef61312f565b611cf7613166565b611d46604051806040016040528060118152602001704361736b205661756c7420546f6b656e7360781b8152506040518060400160405280600481526020016309a82a6960e31b815250613195565b6000846001600160a01b031663313ce5676040518163ffffffff1660e01b815260040160206040518083038186803b158015611d8157600080fd5b505afa158015611d95573d6000803e3d6000fd5b505050506040513d601f19601f82011682018060405250810190611db99190613c34565b60ff1611611dff5760405162461bcd60e51b815260206004820152601360248201527221494e56414c4944286261736541737365742960681b604482015260640161097d565b6000836001600160a01b031663313ce5676040518163ffffffff1660e01b815260040160206040518083038186803b158015611e3a57600080fd5b505afa158015611e4e573d6000803e3d6000fd5b505050506040513d601f19601f82011682018060405250810190611e729190613c34565b60ff1611611ec25760405162461bcd60e51b815260206004820152601c60248201527f21494e56414c4944286261736541737365745072696365466565642900000000604482015260640161097d565b6001600160a01b03848116600081815260ff602090815260409182902080546001600160a01b031916948816949094178455815163313ce56760e01b8152915163313ce567926004808201939291829003018186803b158015611f2457600080fd5b505afa158015611f38573d6000803e3d6000fd5b505050506040513d601f19601f82011682018060405250810190611f5c9190613c34565b8160030160006101000a81548160ff021916908360ff160217905550836001600160a01b031663313ce5676040518163ffffffff1660e01b815260040160206040518083038186803b158015611fb157600080fd5b505afa158015611fc5573d6000803e3d6000fd5b505050506040513d601f19601f82011682018060405250810190611fe99190613c34565b600382018054600060019485018190556201000062ffff001990921661010060ff95909516850262ff000019161791909117909155815492830182559081527f45e010b9ae401e2eb71529478da8bd513a9bdc2d095a111e324f5b95c09ed87b90910180546001600160a01b03199081166001600160a01b0388811691821790935560fc805483168a851617905560fd80548316909117905560fe80549091169185169190911790556101025580156120a8576000805461ff00191690555b5050505050565b600260ca5414156120d25760405162461bcd60e51b815260040161097d90613b0c565b600260ca556000805b610101548110156121415761010181815481106120fa576120fa613bc0565b6000918252602090912001546001600160a01b031661211761239e565b6001600160a01b0316141561212f5760019150612141565b8061213981613bec565b9150506120db565b508061215f5760405162461bcd60e51b815260040161097d90613c6f565b61216e85858585600080612c99565b5050600160ca55505050565b3b151590565b60008061218c60365490565b11156121ce5761219a612f8c565b60016121a560365490565b6121af9085613dae565b6121b99190613c07565b6121c39190613dcd565b610a67906001613c57565b5090565b919050565b6001600160a01b03831661223b5760405162461bcd60e51b815260206004820152602560248201527f45524332303a207472616e736665722066726f6d20746865207a65726f206164604482015264647265737360d81b606482015260840161097d565b6001600160a01b03821661229d5760405162461bcd60e51b815260206004820152602360248201527f45524332303a207472616e7366657220746f20746865207a65726f206164647260448201526265737360e81b606482015260840161097d565b6001600160a01b038316600090815260346020526040902054818110156123155760405162461bcd60e51b815260206004820152602660248201527f45524332303a207472616e7366657220616d6f756e7420657863656564732062604482015265616c616e636560d01b606482015260840161097d565b6001600160a01b0380851660009081526034602052604080822085850390559185168152908120805484929061234c908490613c57565b92505081905550826001600160a01b0316846001600160a01b03167fddf252ad1be2c89b69c2b068fc378daa952ba7f163c4a11628f55a4df523b3ef84604051611b0991815260200190565b50505050565b600061120d6131ce565b6001600160a01b03831661240a5760405162461bcd60e51b8152602060048201526024808201527f45524332303a20617070726f76652066726f6d20746865207a65726f206164646044820152637265737360e01b606482015260840161097d565b6001600160a01b03821661246b5760405162461bcd60e51b815260206004820152602260248201527f45524332303a20617070726f766520746f20746865207a65726f206164647265604482015261737360f01b606482015260840161097d565b6001600160a01b0383811660008181526035602090815260408083209487168084529482529182902085905590518481527f8c5be1e5ebec7d5bd14f71427d1e84f3dd0314c0f7b2291e5b200ac8c7c3b925910160405180910390a3505050565b60985460ff166125155760405162461bcd60e51b815260206004820152601460248201527314185d5cd8589b194e881b9bdd081c185d5cd95960621b604482015260640161097d565b6098805460ff191690557f5db9ee0a495bf2e6ff9c91a7834c1ba4fdd244a5e8aa4e537bd38aeae4b073aa61254861239e565b6040516001600160a01b03909116815260200160405180910390a1565b6001600160a01b038216600090815260ff6020819052604090912060030154620100009004166125a75760405162461bcd60e51b815260040161097d90613d81565b600081116125ef5760405162461bcd60e51b815260206004820152601560248201527421494e56414c4944286173736574416d6f756e742960581b604482015260640161097d565b60fd5481906001600160a01b03848116911614612667576001600160a01b038316600090815260ff602052604081206001810154909190612710906126349086613dae565b61263e9190613dcd565b60fd549091506126629086906001600160a01b031661265d8488613c07565b612736565b925050505b610102548110156126a95760405162461bcd60e51b815260206004820152600c60248201526b0853525397d1115413d4d25560a21b604482015260640161097d565b60006126b482612180565b90506126d36126c161239e565b6001600160a01b038616903086613202565b6126dd858261323a565b60408051848152602081018490529081018290526001600160a01b0380861691908716907fbef68d45f01f5e2c114616dc4840e7a543da6ec57afc5700e4be96056a899b4e906060015b60405180910390a35050505050565b6000826001600160a01b0316846001600160a01b031614156127885760405162461bcd60e51b815260206004820152600b60248201526a0854d0535157d054d4d15560aa1b604482015260640161097d565b6001600160a01b03848116600090815260ff6020526040902054166127e55760405162461bcd60e51b815260206004820152601360248201527221494e56414c49442866726f6d41737365742960681b604482015260640161097d565b6001600160a01b03838116600090815260ff6020526040902054166128445760405162461bcd60e51b8152602060048201526015602482015274214e4f545f414c4c4f57454428746f41737365742960581b604482015260640161097d565b8161285157506000611127565b6001600160a01b03808516600090815260ff6020526040808220548151633fabe5a360e21b815291519293169163feaf968c9160048082019260a092909190829003018186803b1580156128a457600080fd5b505afa1580156128b8573d6000803e3d6000fd5b505050506040513d601f19601f820116820180604052508101906128dc9190613e09565b5050506001600160a01b03808716600090815260ff602052604090819020548151633fabe5a360e21b815291519395508594509091169163feaf968c9160048082019260a092909190829003018186803b15801561293957600080fd5b505afa15801561294d573d6000803e3d6000fd5b505050506040513d601f19601f820116820180604052508101906129719190613e09565b5050506001600160a01b03808816600090815260ff60208190526040808320600390810154948d168452922090910154929550859350610100928390048116929091041614612a8a576001600160a01b038616600090815260ff60208190526040909120600301546129ed918391610100810482169116613319565b6001600160a01b03808916600090815260ff60208190526040808320600390810154948c168452922090910154612a2f92869261010090910481169116613319565b6001600160a01b03808a16600090815260ff60208190526040808320600390810154948d168452922090910154612a6c928a929081169116613319565b612a769190613dae565b612a809190613dcd565b9350505050611127565b6001600160a01b03808816600090815260ff60208190526040808320600390810154948b168452922090910154612a809284928692612ad4928b9290811691610100900416613319565b612ade9190613dae565b612ae89190613dcd565b6001600160a01b038816600090815260ff6020819052604090912060030154610100810482169116613319565b60fc5460405163368317c160e21b81526001600160a01b038381166004830152600092169063da0c5f049060240160206040518083038186803b158015612b5b57600080fd5b505afa158015612b6f573d6000803e3d6000fd5b505050506040513d601f19601f82011682018060405250810190612b939190613e59565b6040516370a0823160e01b81523060048201526001600160a01b038416906370a082319060240160206040518083038186803b158015612bd257600080fd5b505afa158015612be6573d6000803e3d6000fd5b505050506040513d601f19601f82011682018060405250810190612c0a9190613e59565b610a679190613c57565b6000612c1f60365490565b612c27575090565b60365482612c33612f8c565b612c3d9190613dae565b610a679190613dcd565b606680546001600160a01b038381166001600160a01b0319831681179093556040519116919082907f8be0079c531659141344cd1fd0a4f28419497f9722a3daafe3b4186f6b6457e090600090a35050565b6000612ca485612180565b905060008415612cba57612cb785612180565b90505b60008084118015612cd357506001600160a01b03851615155b15612ce457612ce184612180565b90505b612cef8989856121d7565b8115612d0d5760fe54612d0d9089906001600160a01b0316846121d7565b8015612d1e57612d1e8886836121d7565b6040805188815260208101859052908101879052606081018390526080810185905260a081018290526001600160a01b03808716918a8216918c16907fe231cd9559a5a16d19e2bf003665b108bb05f45a7318361550754822be725a1d9060c00160405180910390a4505050505050505050565b60985460ff1615612dd85760405162461bcd60e51b815260206004820152601060248201526f14185d5cd8589b194e881c185d5cd95960821b604482015260640161097d565b6098805460ff191660011790557f62e78cea01bee320cd4e420270b5ea74000d11b0c9f74754ebdbfc544b05a25861254861239e565b6001600160a01b038216600090815260ff602081905260409091206003015462010000900416612e505760405162461bcd60e51b815260040161097d90613d81565b60008111612e995760405162461bcd60e51b815260206004820152601660248201527521494e56414c494428736861726573416d6f756e742960501b604482015260640161097d565b6000612ea482612c14565b9050612eb7612eb161239e565b8361338a565b60fd5481906001600160a01b03858116911614612f2a576001600160a01b03808516600090815260ff6020526040902060fd549091612ef891168685612736565b91506000612710826001015484612f0f9190613dae565b612f199190613dcd565b9050612f258184613c07565b925050505b612f3e6001600160a01b0385168683613090565b60408051828152602081018490529081018490526001600160a01b0380861691908716907fc90b5405a6805d53680586ef15168b1d791e67ceebe68fa62eefdb81478763cc90606001612727565b600080805b6101005481101561308a5760fd5461010080546001600160a01b039092169183908110612fc057612fc0613bc0565b6000918252602090912001546001600160a01b031614156130015760fd54612ff0906001600160a01b0316612b15565b612ffa9083613c57565b9150613078565b61306b610100828154811061301857613018613bc0565b60009182526020909120015460fd5461010080546001600160a01b03938416939092169161265d91908690811061305157613051613bc0565b6000918252602090912001546001600160a01b0316612b15565b6130759083613c57565b91505b8061308281613bec565b915050612f91565b50919050565b6040516001600160a01b0383166024820152604481018290526130f390849063a9059cbb60e01b906064015b60408051601f198184030181529190526020810180516001600160e01b03166001600160e01b0319909316929092179091526134d8565b505050565b600054610100900460ff1661311f5760405162461bcd60e51b815260040161097d90613e72565b6131276135aa565b6112b76135d1565b600054610100900460ff166131565760405162461bcd60e51b815260040161097d90613e72565b61315e6135aa565b6112b7613608565b600054610100900460ff1661318d5760405162461bcd60e51b815260040161097d90613e72565b6112b761363b565b600054610100900460ff166131bc5760405162461bcd60e51b815260040161097d90613e72565b6131c46135aa565b610bd88282613669565b6000601436108015906131eb57506033546001600160a01b031633145b156131fd575060131936013560601c90565b503390565b6040516001600160a01b03808516602483015283166044820152606481018290526123989085906323b872dd60e01b906084016130bc565b6001600160a01b0382166132905760405162461bcd60e51b815260206004820152601f60248201527f45524332303a206d696e7420746f20746865207a65726f206164647265737300604482015260640161097d565b80603660008282546132a29190613c57565b90915550506001600160a01b038216600090815260346020526040812080548392906132cf908490613c57565b90915550506040518181526001600160a01b038316906000907fddf252ad1be2c89b69c2b068fc378daa952ba7f163c4a11628f55a4df523b3ef9060200160405180910390a35050565b60008160ff168360ff161015613352576133338383613ebd565b6133419060ff16600a613ee0565b61334b9085613dae565b9050611127565b8160ff168360ff1611156133825761336a8284613ebd565b6133789060ff16600a613ee0565b61334b9085613dcd565b509192915050565b6001600160a01b0382166133ea5760405162461bcd60e51b815260206004820152602160248201527f45524332303a206275726e2066726f6d20746865207a65726f206164647265736044820152607360f81b606482015260840161097d565b6001600160a01b0382166000908152603460205260409020548181101561345e5760405162461bcd60e51b815260206004820152602260248201527f45524332303a206275726e20616d6f756e7420657863656564732062616c616e604482015261636560f01b606482015260840161097d565b6001600160a01b038316600090815260346020526040812083830390556036805484929061348d908490613c07565b90915550506040518281526000906001600160a01b038516907fddf252ad1be2c89b69c2b068fc378daa952ba7f163c4a11628f55a4df523b3ef9060200160405180910390a3505050565b600061352d826040518060400160405280602081526020017f5361666545524332303a206c6f772d6c6576656c2063616c6c206661696c6564815250856001600160a01b03166136b79092919063ffffffff16565b8051909150156130f3578080602001905181019061354b9190613eec565b6130f35760405162461bcd60e51b815260206004820152602a60248201527f5361666545524332303a204552433230206f7065726174696f6e20646964206e6044820152691bdd081cdd58d8d9595960b21b606482015260840161097d565b600054610100900460ff166112b75760405162461bcd60e51b815260040161097d90613e72565b600054610100900460ff166135f85760405162461bcd60e51b815260040161097d90613e72565b6112b761360361239e565b612c47565b600054610100900460ff1661362f5760405162461bcd60e51b815260040161097d90613e72565b6098805460ff19169055565b600054610100900460ff166136625760405162461bcd60e51b815260040161097d90613e72565b600160ca55565b600054610100900460ff166136905760405162461bcd60e51b815260040161097d90613e72565b81516136a39060379060208501906137c2565b5080516130f39060389060208401906137c2565b6060611309848460008585843b6137105760405162461bcd60e51b815260206004820152601d60248201527f416464726573733a2063616c6c20746f206e6f6e2d636f6e7472616374000000604482015260640161097d565b600080866001600160a01b0316858760405161372c9190613f0e565b60006040518083038185875af1925050503d8060008114613769576040519150601f19603f3d011682016040523d82523d6000602084013e61376e565b606091505b509150915061377e828286613789565b979650505050505050565b60608315613798575081611127565b8251156137a85782518084602001fd5b8160405162461bcd60e51b815260040161097d919061387e565b8280546137ce90613ad7565b90600052602060002090601f0160209004810192826137f05760008555613836565b82601f1061380957805160ff1916838001178555613836565b82800160010185558215613836579182015b8281111561383657825182559160200191906001019061381b565b506121ce9291505b808211156121ce576000815560010161383e565b60005b8381101561386d578181015183820152602001613855565b838111156123985750506000910152565b602081526000825180602084015261389d816040850160208701613852565b601f01601f19169190910160400192915050565b80356001600160a01b03811681146121d257600080fd5b6000806000606084860312156138dd57600080fd5b6138e6846138b1565b92506138f4602085016138b1565b9150604084013590509250925092565b6000806040838503121561391757600080fd5b613920836138b1565b946020939093013593505050565b60006020828403121561394057600080fd5b611127826138b1565b6000806000806080858703121561395f57600080fd5b613968856138b1565b9350613976602086016138b1565b93969395505050506040820135916060013590565b6020808252825182820181905260009190848201906040850190845b818110156139cc5783516001600160a01b0316835292840192918401916001016139a7565b50909695505050505050565b60008060008060008060c087890312156139f157600080fd5b6139fa876138b1565b9550613a08602088016138b1565b94506040870135935060608701359250613a24608088016138b1565b915060a087013590509295509295509295565b600060208284031215613a4957600080fd5b5035919050565b60008060408385031215613a6357600080fd5b613a6c836138b1565b9150613a7a602084016138b1565b90509250929050565b60008060008060808587031215613a9957600080fd5b613aa2856138b1565b9350613ab0602086016138b1565b9250613abe604086016138b1565b9150613acc606086016138b1565b905092959194509250565b600181811c90821680613aeb57607f821691505b6020821081141561308a57634e487b7160e01b600052602260045260246000fd5b6020808252601f908201527f5265656e7472616e637947756172643a207265656e7472616e742063616c6c00604082015260600190565b60208082526028908201527f45524332303a207472616e7366657220616d6f756e74206578636565647320616040820152676c6c6f77616e636560c01b606082015260800190565b6020808252818101527f4f776e61626c653a2063616c6c6572206973206e6f7420746865206f776e6572604082015260600190565b634e487b7160e01b600052603260045260246000fd5b634e487b7160e01b600052601160045260246000fd5b6000600019821415613c0057613c00613bd6565b5060010190565b600082821015613c1957613c19613bd6565b500390565b634e487b7160e01b600052603160045260246000fd5b600060208284031215613c4657600080fd5b815160ff8116811461112757600080fd5b60008219821115613c6a57613c6a613bd6565b500190565b60208082526005908201526404282aaa8960db1b604082015260600190565b600181815b80851115613cc9578160001904821115613caf57613caf613bd6565b80851615613cbc57918102915b93841c9390800290613c93565b509250929050565b600082613ce057506001610a67565b81613ced57506000610a67565b8160018114613d035760028114613d0d57613d29565b6001915050610a67565b60ff841115613d1e57613d1e613bd6565b50506001821b610a67565b5060208310610133831016604e8410600b8410161715613d4c575081810a610a67565b613d568383613c8e565b8060001904821115613d6a57613d6a613bd6565b029392505050565b600061112760ff841683613cd1565b602080825260139082015272214e4f545f414c4c4f5745442861737365742960681b604082015260600190565b6000816000190483118215151615613dc857613dc8613bd6565b500290565b600082613dea57634e487b7160e01b600052601260045260246000fd5b500490565b805169ffffffffffffffffffff811681146121d257600080fd5b600080600080600060a08688031215613e2157600080fd5b613e2a86613def565b9450602086015193506040860151925060608601519150613e4d60808701613def565b90509295509295909350565b600060208284031215613e6b57600080fd5b5051919050565b6020808252602b908201527f496e697469616c697a61626c653a20636f6e7472616374206973206e6f74206960408201526a6e697469616c697a696e6760a81b606082015260800190565b600060ff821660ff841680821015613ed757613ed7613bd6565b90039392505050565b60006111278383613cd1565b600060208284031215613efe57600080fd5b8151801515811461112757600080fd5b60008251613f20818460208701613852565b919091019291505056fea26469706673582212205d0e2108f30e6638d758a70d730e89e9e6394a8c9c5d15181ef755439abe0fb464736f6c63430008090033",
  "devdoc": {
    "kind": "dev",
    "methods": {
      "allocateToStrategy(address,address,uint256)": {
        "details": "Send an amount of asset to a strategy",
        "params": {
          "_asset": "Address of asset",
          "_assetAmount": "Amount of asset to send",
          "_strategy": "Address of strategy"
        }
      },
      "allowAsset(address,address,uint256,uint256)": {
        "details": "Add an allowed asset to be deposited into the vault",
        "params": {
          "_asset": "Address of new ERC20 asset",
          "_priceFeed": "Address of a chainlink-compatible price oracle for the asset",
          "_slippageBps": "Slippage basis points to use when depositing/withdrawing this asset"
        }
      },
      "allowance(address,address)": {
        "details": "See {IERC20-allowance}."
      },
      "approve(address,uint256)": {
        "details": "See {IERC20-approve}. Requirements: - `spender` cannot be the zero address."
      },
      "balanceOf(address)": {
        "details": "See {IERC20-balanceOf}."
      },
      "constructor": {
        "custom:oz-upgrades-unsafe-allow": "constructor"
      },
      "currentValueOf(address)": {
        "details": "Get current vault value of `_address` denominated in `baseAsset`",
        "params": {
          "_address": "Address to check"
        }
      },
      "decreaseAllowance(address,uint256)": {
        "details": "Atomically decreases the allowance granted to `spender` by the caller. This is an alternative to {approve} that can be used as a mitigation for problems described in {IERC20-approve}. Emits an {Approval} event indicating the updated allowance. Requirements: - `spender` cannot be the zero address. - `spender` must have allowance for the caller of at least `subtractedValue`."
      },
      "deposit(address,uint256)": {
        "details": "Deposit an amount of `_asset` into the vault and credit the equal value of `baseAsset`",
        "params": {
          "_asset": "Address of incoming asset",
          "_assetAmount": "Amount of asset to deposit"
        }
      },
      "depositTo(address,address,uint256)": {
        "details": "Deposit an amount of `_asset` into the vault and credit the equal value of `baseAsset`",
        "params": {
          "_asset": "Address of incoming asset",
          "_assetAmount": "Amount of asset to deposit",
          "_to": "Recipient of funds"
        }
      },
      "disallowAsset(address)": {
        "details": "Mark an already allowed asset to no longer be allowed for deposits/withdraws",
        "params": {
          "_asset": "Address of new ERC20 asset"
        }
      },
      "getAllAssets()": {
        "details": "Get all the assets supported by the vault."
      },
      "getAsset(address)": {
        "details": "Get asset details",
        "params": {
          "_asset": "Asset address"
        },
        "returns": {
          "_0": "Asset Asset details"
        }
      },
      "getBaseAsset()": {
        "details": "Get base asset of vault."
      },
      "increaseAllowance(address,uint256)": {
        "details": "Atomically increases the allowance granted to `spender` by the caller. This is an alternative to {approve} that can be used as a mitigation for problems described in {IERC20-approve}. Emits an {Approval} event indicating the updated allowance. Requirements: - `spender` cannot be the zero address."
      },
      "name()": {
        "details": "Returns the name of the token."
      },
      "owner()": {
        "details": "Returns the address of the current owner."
      },
      "paused()": {
        "details": "Returns true if the contract is paused, and false otherwise."
      },
      "pricePerShare()": {
        "details": "Get current vault value a vault share"
      },
      "protocolPayment(address,address,uint256)": {
        "details": "Pay `_value` of `baseAsset` from `_from` to `_to` initiated by an authorized protocol",
        "params": {
          "_from": "From address",
          "_to": "To address",
          "_value": "Amount of baseAsset value to transfer"
        }
      },
      "protocolPayment(address,address,uint256,uint256)": {
        "details": "Pay `_value` of `baseAsset` from `_from` to `_to` initiated by an authorized protocol",
        "params": {
          "_from": "From address",
          "_protocolFee": "Protocol fee to deduct from `_value`",
          "_to": "To address",
          "_value": "Amount of baseAsset value to transfer"
        }
      },
      "protocolPayment(address,address,uint256,uint256,address,uint256)": {
        "details": "Pay `_value` of `baseAsset` from `_from` to `_to` initiated by an authorized protocol",
        "params": {
          "_from": "From address",
          "_network": "Address of network fee collector",
          "_networkFee": "Network fee to deduct from `_value`",
          "_protocolFee": "Protocol fee to deduct from `_value`",
          "_to": "To address",
          "_value": "Amount of baseAsset value to transfer"
        }
      },
      "renounceOwnership()": {
        "details": "Leaves the contract without owner. It will not be possible to call `onlyOwner` functions anymore. Can only be called by the current owner. NOTE: Renouncing ownership will leave the contract without an owner, thereby removing any functionality that is only available to the owner."
      },
      "sharesForValue(uint256)": {
        "details": "Get the number of vault shares that represents a given value of the base asset",
        "params": {
          "_value": "Amount of value"
        }
      },
      "supportsAsset(address)": {
        "details": "Check if the vault supports an asset",
        "params": {
          "_asset": "Asset address"
        },
        "returns": {
          "_0": "bool `true` if asset supported, `false` otherwise"
        }
      },
      "symbol()": {
        "details": "Returns the symbol of the token, usually a shorter version of the name."
      },
      "totalAssetBalance(address)": {
        "details": "Get total amount of an asset held in vault and managed by admin",
        "params": {
          "_asset": "Address of asset"
        }
      },
      "totalSupply()": {
        "details": "See {IERC20-totalSupply}."
      },
      "totalValue()": {
        "details": "Get total value in vault and managed by admin - denominated in `baseAsset`"
      },
      "transfer(address,uint256)": {
        "details": "See {IERC20-transfer}. Requirements: - `recipient` cannot be the zero address. - the caller must have a balance of at least `amount`."
      },
      "transferFrom(address,address,uint256)": {
        "details": "See {IERC20-transferFrom}. Emits an {Approval} event indicating the updated allowance. This is not required by the EIP. See the note at the beginning of {ERC20}. Requirements: - `sender` and `recipient` cannot be the zero address. - `sender` must have a balance of at least `amount`. - the caller must have allowance for ``sender``'s tokens of at least `amount`."
      },
      "transferOwnership(address)": {
        "details": "Transfers ownership of the contract to a new account (`newOwner`). Can only be called by the current owner."
      },
      "transferValue(address,uint256)": {
        "details": "Transfer the equivalent vault shares of base asset `value` to `_recipient`",
        "params": {
          "_recipient": "To address",
          "_value": "Amount of baseAsset value to transfer"
        }
      },
      "transferValueFrom(address,address,uint256)": {
        "details": "Transfer the equivalent vault shares of base asset `value` from `_sender` to `_recipient`",
        "params": {
          "_recipient": "To address",
          "_sender": "From address",
          "_value": "Amount of baseAsset value to transfer"
        }
      },
      "withdraw(address,uint256)": {
        "details": "Withdraw an amount of shares from the vault in the form of `_asset`",
        "params": {
          "_asset": "Address of outgoing asset",
          "_shares": "Amount of shares to withdraw"
        }
      },
      "withdrawTo(address,address,uint256)": {
        "details": "Withdraw an amount of shares from the vault in the form of `_asset`",
        "params": {
          "_asset": "Address of outgoing asset",
          "_recipient": "Recipient who will receive the withdrawn assets",
          "_shares": "Amount of shares to withdraw"
        }
      }
    },
    "version": 1
  },
  "userdoc": {
    "kind": "user",
    "methods": {
      "isTrustedForwarder(address)": {
        "notice": "return if the forwarder is trusted to forward relayed transactions to us. the forwarder is required to verify the sender's signature, and verify the call is not a replay."
      }
    },
    "notice": "CaskVault is where: - the approved asset list lives - users deposit/withdraw approved assets which results in a mint/burn of the vault token - a minimum reserve rate is enforced - vault manager can tell the vault to send unallocated assets to strategies - approved protocols can process a payment between parties - one can query the value of all unallocated assets",
    "version": 1
  },
  "storageLayout": {
    "storage": [
      {
        "astId": 327,
        "contract": "contracts/vault/CaskVault.sol:CaskVault",
        "label": "_initialized",
        "offset": 0,
        "slot": "0",
        "type": "t_bool"
      },
      {
        "astId": 330,
        "contract": "contracts/vault/CaskVault.sol:CaskVault",
        "label": "_initializing",
        "offset": 1,
        "slot": "0",
        "type": "t_bool"
      },
      {
        "astId": 2551,
        "contract": "contracts/vault/CaskVault.sol:CaskVault",
        "label": "__gap",
        "offset": 0,
        "slot": "1",
        "type": "t_array(t_uint256)50_storage"
      },
      {
        "astId": 72,
        "contract": "contracts/vault/CaskVault.sol:CaskVault",
        "label": "_trustedForwarder",
        "offset": 0,
        "slot": "51",
        "type": "t_address"
      },
      {
        "astId": 584,
        "contract": "contracts/vault/CaskVault.sol:CaskVault",
        "label": "_balances",
        "offset": 0,
        "slot": "52",
        "type": "t_mapping(t_address,t_uint256)"
      },
      {
        "astId": 590,
        "contract": "contracts/vault/CaskVault.sol:CaskVault",
        "label": "_allowances",
        "offset": 0,
        "slot": "53",
        "type": "t_mapping(t_address,t_mapping(t_address,t_uint256))"
      },
      {
        "astId": 592,
        "contract": "contracts/vault/CaskVault.sol:CaskVault",
        "label": "_totalSupply",
        "offset": 0,
        "slot": "54",
        "type": "t_uint256"
      },
      {
        "astId": 594,
        "contract": "contracts/vault/CaskVault.sol:CaskVault",
        "label": "_name",
        "offset": 0,
        "slot": "55",
        "type": "t_string_storage"
      },
      {
        "astId": 596,
        "contract": "contracts/vault/CaskVault.sol:CaskVault",
        "label": "_symbol",
        "offset": 0,
        "slot": "56",
        "type": "t_string_storage"
      },
      {
        "astId": 1137,
        "contract": "contracts/vault/CaskVault.sol:CaskVault",
        "label": "__gap",
        "offset": 0,
        "slot": "57",
        "type": "t_array(t_uint256)45_storage"
      },
      {
        "astId": 205,
        "contract": "contracts/vault/CaskVault.sol:CaskVault",
        "label": "_owner",
        "offset": 0,
        "slot": "102",
        "type": "t_address"
      },
      {
        "astId": 319,
        "contract": "contracts/vault/CaskVault.sol:CaskVault",
        "label": "__gap",
        "offset": 0,
        "slot": "103",
        "type": "t_array(t_uint256)49_storage"
      },
      {
        "astId": 415,
        "contract": "contracts/vault/CaskVault.sol:CaskVault",
        "label": "_paused",
        "offset": 0,
        "slot": "152",
        "type": "t_bool"
      },
      {
        "astId": 506,
        "contract": "contracts/vault/CaskVault.sol:CaskVault",
        "label": "__gap",
        "offset": 0,
        "slot": "153",
        "type": "t_array(t_uint256)49_storage"
      },
      {
        "astId": 521,
        "contract": "contracts/vault/CaskVault.sol:CaskVault",
        "label": "_status",
        "offset": 0,
        "slot": "202",
        "type": "t_uint256"
      },
      {
        "astId": 564,
        "contract": "contracts/vault/CaskVault.sol:CaskVault",
        "label": "__gap",
        "offset": 0,
        "slot": "203",
        "type": "t_array(t_uint256)49_storage"
      },
      {
        "astId": 13605,
        "contract": "contracts/vault/CaskVault.sol:CaskVault",
        "label": "vaultManager",
        "offset": 0,
        "slot": "252",
        "type": "t_address"
      },
      {
        "astId": 13607,
        "contract": "contracts/vault/CaskVault.sol:CaskVault",
        "label": "baseAsset",
        "offset": 0,
        "slot": "253",
        "type": "t_address"
      },
      {
        "astId": 13609,
        "contract": "contracts/vault/CaskVault.sol:CaskVault",
        "label": "feeDistributor",
        "offset": 0,
        "slot": "254",
        "type": "t_address"
      },
      {
        "astId": 13614,
        "contract": "contracts/vault/CaskVault.sol:CaskVault",
        "label": "assets",
        "offset": 0,
        "slot": "255",
        "type": "t_mapping(t_address,t_struct(Asset)7865_storage)"
      },
      {
        "astId": 13617,
        "contract": "contracts/vault/CaskVault.sol:CaskVault",
        "label": "allAssets",
        "offset": 0,
        "slot": "256",
        "type": "t_array(t_address)dyn_storage"
      },
      {
        "astId": 13620,
        "contract": "contracts/vault/CaskVault.sol:CaskVault",
        "label": "protocols",
        "offset": 0,
        "slot": "257",
        "type": "t_array(t_address)dyn_storage"
      },
      {
        "astId": 13622,
        "contract": "contracts/vault/CaskVault.sol:CaskVault",
        "label": "minDeposit",
        "offset": 0,
        "slot": "258",
        "type": "t_uint256"
      }
    ],
    "types": {
      "t_address": {
        "encoding": "inplace",
        "label": "address",
        "numberOfBytes": "20"
      },
      "t_array(t_address)dyn_storage": {
        "base": "t_address",
        "encoding": "dynamic_array",
        "label": "address[]",
        "numberOfBytes": "32"
      },
      "t_array(t_uint256)45_storage": {
        "base": "t_uint256",
        "encoding": "inplace",
        "label": "uint256[45]",
        "numberOfBytes": "1440"
      },
      "t_array(t_uint256)49_storage": {
        "base": "t_uint256",
        "encoding": "inplace",
        "label": "uint256[49]",
        "numberOfBytes": "1568"
      },
      "t_array(t_uint256)50_storage": {
        "base": "t_uint256",
        "encoding": "inplace",
        "label": "uint256[50]",
        "numberOfBytes": "1600"
      },
      "t_bool": {
        "encoding": "inplace",
        "label": "bool",
        "numberOfBytes": "1"
      },
      "t_mapping(t_address,t_mapping(t_address,t_uint256))": {
        "encoding": "mapping",
        "key": "t_address",
        "label": "mapping(address => mapping(address => uint256))",
        "numberOfBytes": "32",
        "value": "t_mapping(t_address,t_uint256)"
      },
      "t_mapping(t_address,t_struct(Asset)7865_storage)": {
        "encoding": "mapping",
        "key": "t_address",
        "label": "mapping(address => struct ICaskVault.Asset)",
        "numberOfBytes": "32",
        "value": "t_struct(Asset)7865_storage"
      },
      "t_mapping(t_address,t_uint256)": {
        "encoding": "mapping",
        "key": "t_address",
        "label": "mapping(address => uint256)",
        "numberOfBytes": "32",
        "value": "t_uint256"
      },
      "t_string_storage": {
        "encoding": "bytes",
        "label": "string",
        "numberOfBytes": "32"
      },
      "t_struct(Asset)7865_storage": {
        "encoding": "inplace",
        "label": "struct ICaskVault.Asset",
        "members": [
          {
            "astId": 7854,
            "contract": "contracts/vault/CaskVault.sol:CaskVault",
            "label": "priceFeed",
            "offset": 0,
            "slot": "0",
            "type": "t_address"
          },
          {
            "astId": 7856,
            "contract": "contracts/vault/CaskVault.sol:CaskVault",
            "label": "slippageBps",
            "offset": 0,
            "slot": "1",
            "type": "t_uint256"
          },
          {
            "astId": 7858,
            "contract": "contracts/vault/CaskVault.sol:CaskVault",
            "label": "depositLimit",
            "offset": 0,
            "slot": "2",
            "type": "t_uint256"
          },
          {
            "astId": 7860,
            "contract": "contracts/vault/CaskVault.sol:CaskVault",
            "label": "assetDecimals",
            "offset": 0,
            "slot": "3",
            "type": "t_uint8"
          },
          {
            "astId": 7862,
            "contract": "contracts/vault/CaskVault.sol:CaskVault",
            "label": "priceFeedDecimals",
            "offset": 1,
            "slot": "3",
            "type": "t_uint8"
          },
          {
            "astId": 7864,
            "contract": "contracts/vault/CaskVault.sol:CaskVault",
            "label": "allowed",
            "offset": 2,
            "slot": "3",
            "type": "t_bool"
          }
        ],
        "numberOfBytes": "128"
      },
      "t_uint256": {
        "encoding": "inplace",
        "label": "uint256",
        "numberOfBytes": "32"
      },
      "t_uint8": {
        "encoding": "inplace",
        "label": "uint8",
        "numberOfBytes": "1"
      }
    }
  }
}