{
  "address": "0x2a423992958379Fa35C239538bd38A8009aaeF2D",
  "abi": [
    {
      "inputs": [],
      "stateMutability": "nonpayable",
      "type": "constructor"
    },
    {
      "anonymous": false,
      "inputs": [
        {
          "indexed": true,
          "internalType": "address",
          "name": "previousOwner",
          "type": "address"
        },
        {
          "indexed": true,
          "internalType": "address",
          "name": "newOwner",
          "type": "address"
        }
      ],
      "name": "OwnershipTransferred",
      "type": "event"
    },
    {
      "anonymous": false,
      "inputs": [
        {
          "indexed": false,
          "internalType": "address",
          "name": "account",
          "type": "address"
        }
      ],
      "name": "Paused",
      "type": "event"
    },
    {
      "anonymous": false,
      "inputs": [
        {
          "indexed": true,
          "internalType": "address",
          "name": "provider",
          "type": "address"
        },
        {
          "indexed": true,
          "internalType": "uint32",
          "name": "planId",
          "type": "uint32"
        }
      ],
      "name": "PlanDisabled",
      "type": "event"
    },
    {
      "anonymous": false,
      "inputs": [
        {
          "indexed": true,
          "internalType": "address",
          "name": "provider",
          "type": "address"
        },
        {
          "indexed": true,
          "internalType": "uint32",
          "name": "planId",
          "type": "uint32"
        },
        {
          "indexed": false,
          "internalType": "uint32",
          "name": "eolAt",
          "type": "uint32"
        }
      ],
      "name": "PlanEOL",
      "type": "event"
    },
    {
      "anonymous": false,
      "inputs": [
        {
          "indexed": true,
          "internalType": "address",
          "name": "provider",
          "type": "address"
        },
        {
          "indexed": true,
          "internalType": "uint32",
          "name": "planId",
          "type": "uint32"
        }
      ],
      "name": "PlanEnabled",
      "type": "event"
    },
    {
      "anonymous": false,
      "inputs": [
        {
          "indexed": true,
          "internalType": "address",
          "name": "provider",
          "type": "address"
        },
        {
          "indexed": true,
          "internalType": "address",
          "name": "paymentAddress",
          "type": "address"
        },
        {
          "indexed": false,
          "internalType": "uint256",
          "name": "nonce",
          "type": "uint256"
        },
        {
          "indexed": false,
          "internalType": "string",
          "name": "cid",
          "type": "string"
        }
      ],
      "name": "ProviderSetProfile",
      "type": "event"
    },
    {
      "anonymous": false,
      "inputs": [
        {
          "indexed": false,
          "internalType": "address",
          "name": "account",
          "type": "address"
        }
      ],
      "name": "Unpaused",
      "type": "event"
    },
    {
      "inputs": [
        {
          "internalType": "uint32",
          "name": "_planId",
          "type": "uint32"
        }
      ],
      "name": "disablePlan",
      "outputs": [],
      "stateMutability": "nonpayable",
      "type": "function"
    },
    {
      "inputs": [
        {
          "internalType": "uint32",
          "name": "_planId",
          "type": "uint32"
        }
      ],
      "name": "enablePlan",
      "outputs": [],
      "stateMutability": "nonpayable",
      "type": "function"
    },
    {
      "inputs": [
        {
          "internalType": "address",
          "name": "_provider",
          "type": "address"
        },
        {
          "internalType": "uint32",
          "name": "_planId",
          "type": "uint32"
        }
      ],
      "name": "getPlanEOL",
      "outputs": [
        {
          "internalType": "uint32",
          "name": "",
          "type": "uint32"
        }
      ],
      "stateMutability": "view",
      "type": "function"
    },
    {
      "inputs": [
        {
          "internalType": "address",
          "name": "_provider",
          "type": "address"
        },
        {
          "internalType": "uint32",
          "name": "_planId",
          "type": "uint32"
        }
      ],
      "name": "getPlanStatus",
      "outputs": [
        {
          "internalType": "enum ICaskSubscriptionPlans.PlanStatus",
          "name": "",
          "type": "uint8"
        }
      ],
      "stateMutability": "view",
      "type": "function"
    },
    {
      "inputs": [
        {
          "internalType": "address",
          "name": "_provider",
          "type": "address"
        }
      ],
      "name": "getProviderProfile",
      "outputs": [
        {
          "components": [
            {
              "internalType": "address",
              "name": "paymentAddress",
              "type": "address"
            },
            {
              "internalType": "uint256",
              "name": "nonce",
              "type": "uint256"
            },
            {
              "internalType": "string",
              "name": "cid",
              "type": "string"
            }
          ],
          "internalType": "struct ICaskSubscriptionPlans.Provider",
          "name": "",
          "type": "tuple"
        }
      ],
      "stateMutability": "view",
      "type": "function"
    },
    {
      "inputs": [],
      "name": "initialize",
      "outputs": [],
      "stateMutability": "nonpayable",
      "type": "function"
    },
    {
      "inputs": [
        {
          "internalType": "address",
          "name": "forwarder",
          "type": "address"
        }
      ],
      "name": "isTrustedForwarder",
      "outputs": [
        {
          "internalType": "bool",
          "name": "",
          "type": "bool"
        }
      ],
      "stateMutability": "view",
      "type": "function"
    },
    {
      "inputs": [
        {
          "internalType": "uint32",
          "name": "_planId",
          "type": "uint32"
        },
        {
          "internalType": "uint32",
          "name": "_eolAt",
          "type": "uint32"
        }
      ],
      "name": "killPlan",
      "outputs": [],
      "stateMutability": "nonpayable",
      "type": "function"
    },
    {
      "inputs": [],
      "name": "owner",
      "outputs": [
        {
          "internalType": "address",
          "name": "",
          "type": "address"
        }
      ],
      "stateMutability": "view",
      "type": "function"
    },
    {
      "inputs": [],
      "name": "pause",
      "outputs": [],
      "stateMutability": "nonpayable",
      "type": "function"
    },
    {
      "inputs": [],
      "name": "paused",
      "outputs": [
        {
          "internalType": "bool",
          "name": "",
          "type": "bool"
        }
      ],
      "stateMutability": "view",
      "type": "function"
    },
    {
      "inputs": [],
      "name": "privateBeta",
      "outputs": [
        {
          "internalType": "contract ICaskPrivateBeta",
          "name": "",
          "type": "address"
        }
      ],
      "stateMutability": "view",
      "type": "function"
    },
    {
      "inputs": [],
      "name": "privateBetaOnly",
      "outputs": [
        {
          "internalType": "bool",
          "name": "",
          "type": "bool"
        }
      ],
      "stateMutability": "view",
      "type": "function"
    },
    {
      "inputs": [],
      "name": "renounceOwnership",
      "outputs": [],
      "stateMutability": "nonpayable",
      "type": "function"
    },
    {
      "inputs": [
        {
          "internalType": "address",
          "name": "_subscriptionManager",
          "type": "address"
        }
      ],
      "name": "setManager",
      "outputs": [],
      "stateMutability": "nonpayable",
      "type": "function"
    },
    {
      "inputs": [
        {
          "internalType": "bool",
          "name": "enabled",
          "type": "bool"
        },
        {
          "internalType": "address",
          "name": "_privateBeta",
          "type": "address"
        }
      ],
      "name": "setPrivateBeta",
      "outputs": [],
      "stateMutability": "nonpayable",
      "type": "function"
    },
    {
      "inputs": [
        {
          "internalType": "address",
          "name": "_paymentAddress",
          "type": "address"
        },
        {
          "internalType": "string",
          "name": "_cid",
          "type": "string"
        },
        {
          "internalType": "uint256",
          "name": "_nonce",
          "type": "uint256"
        }
      ],
      "name": "setProviderProfile",
      "outputs": [],
      "stateMutability": "nonpayable",
      "type": "function"
    },
    {
      "inputs": [
        {
          "internalType": "address",
          "name": "_forwarder",
          "type": "address"
        }
      ],
      "name": "setTrustedForwarder",
      "outputs": [],
      "stateMutability": "nonpayable",
      "type": "function"
    },
    {
      "inputs": [],
      "name": "subscriptionManager",
      "outputs": [
        {
          "internalType": "address",
          "name": "",
          "type": "address"
        }
      ],
      "stateMutability": "view",
      "type": "function"
    },
    {
      "inputs": [
        {
          "internalType": "address",
          "name": "newOwner",
          "type": "address"
        }
      ],
      "name": "transferOwnership",
      "outputs": [],
      "stateMutability": "nonpayable",
      "type": "function"
    },
    {
      "inputs": [],
      "name": "trustedForwarder",
      "outputs": [
        {
          "internalType": "address",
          "name": "",
          "type": "address"
        }
      ],
      "stateMutability": "view",
      "type": "function"
    },
    {
      "inputs": [],
      "name": "unpause",
      "outputs": [],
      "stateMutability": "nonpayable",
      "type": "function"
    },
    {
      "inputs": [
        {
          "internalType": "address",
          "name": "_provider",
          "type": "address"
        },
        {
          "internalType": "uint32",
          "name": "_planId",
          "type": "uint32"
        },
        {
          "internalType": "bytes32",
          "name": "_discountId",
          "type": "bytes32"
        },
        {
          "internalType": "bytes32",
          "name": "_discountData",
          "type": "bytes32"
        },
        {
          "internalType": "bytes32",
          "name": "_merkleRoot",
          "type": "bytes32"
        },
        {
          "internalType": "bytes32[]",
          "name": "_merkleProof",
          "type": "bytes32[]"
        }
      ],
      "name": "verifyAndConsumeDiscount",
      "outputs": [
        {
          "internalType": "bool",
          "name": "",
          "type": "bool"
        }
      ],
      "stateMutability": "nonpayable",
      "type": "function"
    },
    {
      "inputs": [
        {
          "internalType": "address",
          "name": "_provider",
          "type": "address"
        },
        {
          "internalType": "uint32",
          "name": "_planId",
          "type": "uint32"
        },
        {
          "internalType": "bytes32",
          "name": "_discountId",
          "type": "bytes32"
        },
        {
          "internalType": "bytes32",
          "name": "_discountData",
          "type": "bytes32"
        },
        {
          "internalType": "bytes32",
          "name": "_merkleRoot",
          "type": "bytes32"
        },
        {
          "internalType": "bytes32[]",
          "name": "_merkleProof",
          "type": "bytes32[]"
        }
      ],
      "name": "verifyDiscount",
      "outputs": [
        {
          "internalType": "bool",
          "name": "",
          "type": "bool"
        }
      ],
      "stateMutability": "view",
      "type": "function"
    },
    {
      "inputs": [
        {
          "internalType": "bytes32",
          "name": "_planData",
          "type": "bytes32"
        },
        {
          "internalType": "bytes32",
          "name": "_merkleRoot",
          "type": "bytes32"
        },
        {
          "internalType": "bytes32[]",
          "name": "_merkleProof",
          "type": "bytes32[]"
        }
      ],
      "name": "verifyPlan",
      "outputs": [
        {
          "internalType": "bool",
          "name": "",
          "type": "bool"
        }
      ],
      "stateMutability": "pure",
      "type": "function"
    },
    {
      "inputs": [],
      "name": "versionRecipient",
      "outputs": [
        {
          "internalType": "string",
          "name": "",
          "type": "string"
        }
      ],
      "stateMutability": "pure",
      "type": "function"
    }
  ],
  "transactionHash": "0x4ea984bf8d6f68a222a7a9cb9962c00f9eaef3959739b449cbbe5fafa3b7dcc6",
  "args": [],
  "numDeployments": 1,
  "solcInputHash": "9d9eaf1e993d8c09d4a86290d89d30a0",
  "bytecode": "0x60806040523480156200001157600080fd5b50600054600160a81b900460ff166200003857600054600160a01b900460ff161562000042565b62000042620000f1565b620000aa5760405162461bcd60e51b815260206004820152602e60248201527f496e697469616c697a61626c653a20636f6e747261637420697320616c72656160448201526d191e481a5b9a5d1a585b1a5e995960921b606482015260840160405180910390fd5b600054600160a81b900460ff16158015620000d5576000805461ffff60a01b191661010160a01b1790555b8015620000ea576000805460ff60a81b191690555b5062000115565b600062000109306200010f60201b620011311760201c565b15905090565b3b151590565b611a5880620001256000396000f3fe608060405234801561001057600080fd5b506004361061018e5760003560e01c80637da0a877116100de578063b0d8985c11610097578063d0ebdbe711610071578063d0ebdbe7146103d5578063da742228146103e8578063f2fde38b146103fb578063fb73a0d61461040e57600080fd5b8063b0d8985c14610361578063b6ab359f14610374578063bf158fd2146103c257600080fd5b80637da0a877146102f55780638129fc1c1461031a5780638456cb59146103225780638da5cb5b1461032a5780639c5c3eb41461033b578063a29c07461461034e57600080fd5b8063486ff0cd1161014b5780635c975abb116101255780635c975abb146102bc578063715018a6146102c757806371ce3e66146102cf57806372212e76146102e257600080fd5b8063486ff0cd146102605780634cfa66ff14610287578063572b6c051461029a57600080fd5b8063025b6875146101935780631bc569b5146101ec5780631e0d0c0314610201578063256c6ba9146102255780633c17dac8146102385780633f4ba83a14610258575b600080fd5b6101d26101a1366004611575565b6001600160a01b03919091166000908152609a6020908152604080832063ffffffff94851684529091529020541690565b60405163ffffffff90911681526020015b60405180910390f35b6101ff6101fa3660046115a8565b610421565b005b609c5461021590600160a01b900460ff1681565b60405190151581526020016101e3565b6101ff6102333660046115a8565b610551565b61024b6102463660046115ca565b61067d565b6040516101e39190611632565b6101ff610768565b60408051808201825260058152640322e322e360dc1b602082015290516101e39190611671565b6102156102953660046116d0565b6107bb565b6102156102a83660046115ca565b6000546001600160a01b0391821691161490565b60655460ff16610215565b6101ff610831565b6102156102dd366004611752565b610884565b6102156102f03660046116d0565b6108f0565b6000546001600160a01b03165b6040516001600160a01b0390911681526020016101e3565b6101ff610b0f565b6101ff610bf8565b6033546001600160a01b0316610302565b6101ff6103493660046117a5565b610c49565b6101ff61035c3660046117c1565b610d44565b6101ff61036f3660046117f2565b610dc6565b6103b5610382366004611575565b6001600160a01b038216600090815260996020908152604080832063ffffffff8516845290915290205460ff1692915050565b6040516101e39190611891565b609754610302906001600160a01b031681565b6101ff6103e33660046115ca565b610fa8565b6101ff6103f63660046115ca565b611013565b6101ff6104093660046115ca565b61107a565b609c54610302906001600160a01b031681565b60006099600061042f611137565b6001600160a01b031681526020808201929092526040908101600090812063ffffffff8616825290925290205460ff1660028111156104705761047061187b565b146104b15760405162461bcd60e51b815260206004820152600c60248201526b085393d517d153905093115160a21b60448201526064015b60405180910390fd5b6001609960006104bf611137565b6001600160a01b031681526020808201929092526040908101600090812063ffffffff861682529092529020805460ff191660018360028111156105055761050561187b565b02179055508063ffffffff16610519611137565b6001600160a01b03167f50ec551c598cd517a78f91d12398f4f1d95e0171a4393505d01401f8b6c940a760405160405180910390a350565b60016099600061055f611137565b6001600160a01b031681526020808201929092526040908101600090812063ffffffff8616825290925290205460ff1660028111156105a0576105a061187b565b146105dd5760405162461bcd60e51b815260206004820152600d60248201526c085393d517d11254d050931151609a1b60448201526064016104a8565b6000609960006105eb611137565b6001600160a01b031681526020808201929092526040908101600090812063ffffffff861682529092529020805460ff191660018360028111156106315761063161187b565b02179055508063ffffffff16610645611137565b6001600160a01b03167fb6af1d2951898e17e763c18b77daf0ada2f2753802d37868e67797e87991a29860405160405180910390a350565b6040805160608082018352600080835260208084018290528385018390526001600160a01b038681168352609882529185902085519384018652805490921683526001820154908301526002810180549394929391928401916106df906118b9565b80601f016020809104026020016040519081016040528092919081815260200182805461070b906118b9565b80156107585780601f1061072d57610100808354040283529160200191610758565b820191906000526020600020905b81548152906001019060200180831161073b57829003601f168201915b5050505050815250509050919050565b610770611137565b6001600160a01b031661078b6033546001600160a01b031690565b6001600160a01b0316146107b15760405162461bcd60e51b81526004016104a8906118f4565b6107b9611146565b565b60006107cc888888888888886108f0565b15610822576001600160a01b0388166000908152609b6020908152604080832063ffffffff8b1684528252808320898452909152812080546001929061081390849061193f565b90915550600191506108269050565b5060005b979650505050505050565b610839611137565b6001600160a01b03166108546033546001600160a01b031690565b6001600160a01b03161461087a5760405162461bcd60e51b81526004016104a8906118f4565b6107b960006111df565b60006108e78383808060200260200160405190810160405280939291908181526020018383602002808284376000920191909152505060408051602081018b90528993500190505b60405160208183030381529060405280519060200120611231565b95945050505050565b60006109448383808060200260200160405190810160405280939291908181526020018383602002808284376000920191909152505060408051602081018c90529081018a905288925060600190506108cc565b15610822576040805160e08082018352600080835260208084018290528385018290526060808501839052608080860184905260a080870185905260c096870194909452865194850187528b841c855263ffffffff8c821c8116868501528c831c811686890152968c901c871691850191909152908a901c90941693820184905261ffff60108a901c1690820152600160f01b60f089901b81161491810191909152901580610a0257508763ffffffff16816080015163ffffffff16145b610a415760405162461bcd60e51b815260206004820152601060248201526f21494e56414c494428706c616e49642960801b60448201526064016104a8565b606081015163ffffffff161580610a96575060608101516001600160a01b038a166000908152609b60209081526040808320608086015163ffffffff90811685529083528184208c8552909252909120549116115b8015610ac45750602081015163ffffffff161580610ac457504263ffffffff16816020015163ffffffff1610155b8015610af15750604081015163ffffffff161580610af157504263ffffffff16816040015163ffffffff16105b15610b00576001915050610826565b50506000979650505050505050565b600054600160a81b900460ff16610b3357600054600160a01b900460ff1615610b37565b303b155b610b9a5760405162461bcd60e51b815260206004820152602e60248201527f496e697469616c697a61626c653a20636f6e747261637420697320616c72656160448201526d191e481a5b9a5d1a585b1a5e995960921b60648201526084016104a8565b600054600160a81b900460ff16158015610bc4576000805461ffff60a01b191661010160a01b1790555b610bcc611247565b610bd4611280565b609c805460ff60a01b191690558015610bf5576000805460ff60a81b191690555b50565b610c00611137565b6001600160a01b0316610c1b6033546001600160a01b031690565b6001600160a01b031614610c415760405162461bcd60e51b81526004016104a8906118f4565b6107b96112b9565b600260996000610c57611137565b6001600160a01b031681526020808201929092526040908101600090812063ffffffff871682529092529020805460ff19166001836002811115610c9d57610c9d61187b565b021790555080609a6000610caf611137565b6001600160a01b031681526020808201929092526040908101600090812063ffffffff87811680845291909452919020805463ffffffff191693909216929092179055610cfa611137565b60405163ffffffff841681526001600160a01b0391909116907f4594a2f1d5b5d27b7b29f7c73ec2f5f23b7a97269ec277e84619bcfffe9c13dc9060200160405180910390a35050565b610d4c611137565b6001600160a01b0316610d676033546001600160a01b031690565b6001600160a01b031614610d8d5760405162461bcd60e51b81526004016104a8906118f4565b609c80546001600160a81b031916600160a01b931515939093026001600160a01b031916929092176001600160a01b0391909116179055565b609c54600160a01b900460ff1615610ead57609c546000906001600160a01b031663e1b328b9610df4611137565b6040516001600160e01b031960e084901b1681526001600160a01b03909116600482015260240160206040518083038186803b158015610e3357600080fd5b505afa158015610e47573d6000803e3d6000fd5b505050506040513d601f19601f82011682018060405250810190610e6b9190611957565b11610ead5760405162461bcd60e51b815260206004820152601260248201527121505249564154455f424554415f4f4e4c5960701b60448201526064016104a8565b600060986000610ebb611137565b6001600160a01b031681526020810191909152604001600020600181015490915015610f1d5780600101548211610f1d5760405162461bcd60e51b8152602060048201526006602482015265214e4f4e434560d01b60448201526064016104a8565b80546001600160a01b0319166001600160a01b038616178155610f446002820185856114ac565b50600181018290556001600160a01b038516610f5e611137565b6001600160a01b03167e0b4932fa91cc5ebcac0f9fb3ab2ae36eb6ba359cdd98d49954b5a700a21109848787604051610f9993929190611970565b60405180910390a35050505050565b610fb0611137565b6001600160a01b0316610fcb6033546001600160a01b031690565b6001600160a01b031614610ff15760405162461bcd60e51b81526004016104a8906118f4565b609780546001600160a01b0319166001600160a01b0392909216919091179055565b61101b611137565b6001600160a01b03166110366033546001600160a01b031690565b6001600160a01b03161461105c5760405162461bcd60e51b81526004016104a8906118f4565b600080546001600160a01b0319166001600160a01b03831617905550565b611082611137565b6001600160a01b031661109d6033546001600160a01b031690565b6001600160a01b0316146110c35760405162461bcd60e51b81526004016104a8906118f4565b6001600160a01b0381166111285760405162461bcd60e51b815260206004820152602660248201527f4f776e61626c653a206e6577206f776e657220697320746865207a65726f206160448201526564647265737360d01b60648201526084016104a8565b610bf5816111df565b3b151590565b6000611141611335565b905090565b60655460ff1661118f5760405162461bcd60e51b815260206004820152601460248201527314185d5cd8589b194e881b9bdd081c185d5cd95960621b60448201526064016104a8565b6065805460ff191690557f5db9ee0a495bf2e6ff9c91a7834c1ba4fdd244a5e8aa4e537bd38aeae4b073aa6111c2611137565b6040516001600160a01b03909116815260200160405180910390a1565b603380546001600160a01b038381166001600160a01b0319831681179093556040519116919082907f8be0079c531659141344cd1fd0a4f28419497f9722a3daafe3b4186f6b6457e090600090a35050565b60008261123e8584611369565b14949350505050565b600054600160a81b900460ff166112705760405162461bcd60e51b81526004016104a8906119a6565b611278611415565b6107b961143e565b600054600160a81b900460ff166112a95760405162461bcd60e51b81526004016104a8906119a6565b6112b1611415565b6107b9611477565b60655460ff16156112ff5760405162461bcd60e51b815260206004820152601060248201526f14185d5cd8589b194e881c185d5cd95960821b60448201526064016104a8565b6065805460ff191660011790557f62e78cea01bee320cd4e420270b5ea74000d11b0c9f74754ebdbfc544b05a2586111c2611137565b60006014361080159061135257506000546001600160a01b031633145b15611364575060131936013560601c90565b503390565b600081815b845181101561140d57600085828151811061138b5761138b6119f1565b602002602001015190508083116113cd5760408051602081018590529081018290526060016040516020818303038152906040528051906020012092506113fa565b60408051602081018390529081018490526060016040516020818303038152906040528051906020012092505b508061140581611a07565b91505061136e565b509392505050565b600054600160a81b900460ff166107b95760405162461bcd60e51b81526004016104a8906119a6565b600054600160a81b900460ff166114675760405162461bcd60e51b81526004016104a8906119a6565b6107b9611472611137565b6111df565b600054600160a81b900460ff166114a05760405162461bcd60e51b81526004016104a8906119a6565b6065805460ff19169055565b8280546114b8906118b9565b90600052602060002090601f0160209004810192826114da5760008555611520565b82601f106114f35782800160ff19823516178555611520565b82800160010185558215611520579182015b82811115611520578235825591602001919060010190611505565b5061152c929150611530565b5090565b5b8082111561152c5760008155600101611531565b80356001600160a01b038116811461155c57600080fd5b919050565b803563ffffffff8116811461155c57600080fd5b6000806040838503121561158857600080fd5b61159183611545565b915061159f60208401611561565b90509250929050565b6000602082840312156115ba57600080fd5b6115c382611561565b9392505050565b6000602082840312156115dc57600080fd5b6115c382611545565b6000815180845260005b8181101561160b576020818501810151868301820152016115ef565b8181111561161d576000602083870101525b50601f01601f19169290920160200192915050565b6020815260018060a01b038251166020820152602082015160408201526000604083015160608084015261166960808401826115e5565b949350505050565b6020815260006115c360208301846115e5565b60008083601f84011261169657600080fd5b50813567ffffffffffffffff8111156116ae57600080fd5b6020830191508360208260051b85010111156116c957600080fd5b9250929050565b600080600080600080600060c0888a0312156116eb57600080fd5b6116f488611545565b965061170260208901611561565b955060408801359450606088013593506080880135925060a088013567ffffffffffffffff81111561173357600080fd5b61173f8a828b01611684565b989b979a50959850939692959293505050565b6000806000806060858703121561176857600080fd5b8435935060208501359250604085013567ffffffffffffffff81111561178d57600080fd5b61179987828801611684565b95989497509550505050565b600080604083850312156117b857600080fd5b61159183611561565b600080604083850312156117d457600080fd5b823580151581146117e457600080fd5b915061159f60208401611545565b6000806000806060858703121561180857600080fd5b61181185611545565b9350602085013567ffffffffffffffff8082111561182e57600080fd5b818701915087601f83011261184257600080fd5b81358181111561185157600080fd5b88602082850101111561186357600080fd5b95986020929092019750949560400135945092505050565b634e487b7160e01b600052602160045260246000fd5b60208101600383106118b357634e487b7160e01b600052602160045260246000fd5b91905290565b600181811c908216806118cd57607f821691505b602082108114156118ee57634e487b7160e01b600052602260045260246000fd5b50919050565b6020808252818101527f4f776e61626c653a2063616c6c6572206973206e6f7420746865206f776e6572604082015260600190565b634e487b7160e01b600052601160045260246000fd5b6000821982111561195257611952611929565b500190565b60006020828403121561196957600080fd5b5051919050565b83815260406020820152816040820152818360608301376000818301606090810191909152601f909201601f1916010192915050565b6020808252602b908201527f496e697469616c697a61626c653a20636f6e7472616374206973206e6f74206960408201526a6e697469616c697a696e6760a81b606082015260800190565b634e487b7160e01b600052603260045260246000fd5b6000600019821415611a1b57611a1b611929565b506001019056fea2646970667358221220506a16f641d06f8dce5e6d6b5ee575d0f4f05c672f81ec2add6249df294768e264736f6c63430008090033",
  "devdoc": {
    "kind": "dev",
    "methods": {
      "constructor": {
        "custom:oz-upgrades-unsafe-allow": "constructor"
      },
      "owner()": {
        "details": "Returns the address of the current owner."
      },
      "paused()": {
        "details": "Returns true if the contract is paused, and false otherwise."
      },
      "renounceOwnership()": {
        "details": "Leaves the contract without owner. It will not be possible to call `onlyOwner` functions anymore. Can only be called by the current owner. NOTE: Renouncing ownership will leave the contract without an owner, thereby removing any functionality that is only available to the owner."
      },
      "transferOwnership(address)": {
        "details": "Transfers ownership of the contract to a new account (`newOwner`). Can only be called by the current owner."
      }
    },
    "stateVariables": {
      "discountRedemptions": {
        "details": "Maps for discounts. "
      },
      "planStatus": {
        "details": "Map for current plan status. "
      },
      "providerProfiles": {
        "details": "Map for provider to profile info. "
      },
      "subscriptionManager": {
        "details": "Address of subscription manager. "
      }
    },
    "version": 1
  },
  "userdoc": {
    "kind": "user",
    "methods": {
      "isTrustedForwarder(address)": {
        "notice": "return if the forwarder is trusted to forward relayed transactions to us. the forwarder is required to verify the sender's signature, and verify the call is not a replay."
      }
    },
    "version": 1
  },
  "storageLayout": {
    "storage": [
      {
        "astId": 72,
        "contract": "contracts/protocol/CaskSubscriptionPlans.sol:CaskSubscriptionPlans",
        "label": "_trustedForwarder",
        "offset": 0,
        "slot": "0",
        "type": "t_address"
      },
      {
        "astId": 327,
        "contract": "contracts/protocol/CaskSubscriptionPlans.sol:CaskSubscriptionPlans",
        "label": "_initialized",
        "offset": 20,
        "slot": "0",
        "type": "t_bool"
      },
      {
        "astId": 330,
        "contract": "contracts/protocol/CaskSubscriptionPlans.sol:CaskSubscriptionPlans",
        "label": "_initializing",
        "offset": 21,
        "slot": "0",
        "type": "t_bool"
      },
      {
        "astId": 2551,
        "contract": "contracts/protocol/CaskSubscriptionPlans.sol:CaskSubscriptionPlans",
        "label": "__gap",
        "offset": 0,
        "slot": "1",
        "type": "t_array(t_uint256)50_storage"
      },
      {
        "astId": 205,
        "contract": "contracts/protocol/CaskSubscriptionPlans.sol:CaskSubscriptionPlans",
        "label": "_owner",
        "offset": 0,
        "slot": "51",
        "type": "t_address"
      },
      {
        "astId": 319,
        "contract": "contracts/protocol/CaskSubscriptionPlans.sol:CaskSubscriptionPlans",
        "label": "__gap",
        "offset": 0,
        "slot": "52",
        "type": "t_array(t_uint256)49_storage"
      },
      {
        "astId": 415,
        "contract": "contracts/protocol/CaskSubscriptionPlans.sol:CaskSubscriptionPlans",
        "label": "_paused",
        "offset": 0,
        "slot": "101",
        "type": "t_bool"
      },
      {
        "astId": 506,
        "contract": "contracts/protocol/CaskSubscriptionPlans.sol:CaskSubscriptionPlans",
        "label": "__gap",
        "offset": 0,
        "slot": "102",
        "type": "t_array(t_uint256)49_storage"
      },
      {
        "astId": 10435,
        "contract": "contracts/protocol/CaskSubscriptionPlans.sol:CaskSubscriptionPlans",
        "label": "subscriptionManager",
        "offset": 0,
        "slot": "151",
        "type": "t_address"
      },
      {
        "astId": 10441,
        "contract": "contracts/protocol/CaskSubscriptionPlans.sol:CaskSubscriptionPlans",
        "label": "providerProfiles",
        "offset": 0,
        "slot": "152",
        "type": "t_mapping(t_address,t_struct(Provider)7650_storage)"
      },
      {
        "astId": 10449,
        "contract": "contracts/protocol/CaskSubscriptionPlans.sol:CaskSubscriptionPlans",
        "label": "planStatus",
        "offset": 0,
        "slot": "153",
        "type": "t_mapping(t_address,t_mapping(t_uint32,t_enum(PlanStatus)7628))"
      },
      {
        "astId": 10455,
        "contract": "contracts/protocol/CaskSubscriptionPlans.sol:CaskSubscriptionPlans",
        "label": "planEol",
        "offset": 0,
        "slot": "154",
        "type": "t_mapping(t_address,t_mapping(t_uint32,t_uint32))"
      },
      {
        "astId": 10464,
        "contract": "contracts/protocol/CaskSubscriptionPlans.sol:CaskSubscriptionPlans",
        "label": "discountRedemptions",
        "offset": 0,
        "slot": "155",
        "type": "t_mapping(t_address,t_mapping(t_uint32,t_mapping(t_bytes32,t_uint256)))"
      },
      {
        "astId": 10467,
        "contract": "contracts/protocol/CaskSubscriptionPlans.sol:CaskSubscriptionPlans",
        "label": "privateBeta",
        "offset": 0,
        "slot": "156",
        "type": "t_contract(ICaskPrivateBeta)7507"
      },
      {
        "astId": 10469,
        "contract": "contracts/protocol/CaskSubscriptionPlans.sol:CaskSubscriptionPlans",
        "label": "privateBetaOnly",
        "offset": 20,
        "slot": "156",
        "type": "t_bool"
      }
    ],
    "types": {
      "t_address": {
        "encoding": "inplace",
        "label": "address",
        "numberOfBytes": "20"
      },
      "t_array(t_uint256)49_storage": {
        "base": "t_uint256",
        "encoding": "inplace",
        "label": "uint256[49]",
        "numberOfBytes": "1568"
      },
      "t_array(t_uint256)50_storage": {
        "base": "t_uint256",
        "encoding": "inplace",
        "label": "uint256[50]",
        "numberOfBytes": "1600"
      },
      "t_bool": {
        "encoding": "inplace",
        "label": "bool",
        "numberOfBytes": "1"
      },
      "t_bytes32": {
        "encoding": "inplace",
        "label": "bytes32",
        "numberOfBytes": "32"
      },
      "t_contract(ICaskPrivateBeta)7507": {
        "encoding": "inplace",
        "label": "contract ICaskPrivateBeta",
        "numberOfBytes": "20"
      },
      "t_enum(PlanStatus)7628": {
        "encoding": "inplace",
        "label": "enum ICaskSubscriptionPlans.PlanStatus",
        "numberOfBytes": "1"
      },
      "t_mapping(t_address,t_mapping(t_uint32,t_enum(PlanStatus)7628))": {
        "encoding": "mapping",
        "key": "t_address",
        "label": "mapping(address => mapping(uint32 => enum ICaskSubscriptionPlans.PlanStatus))",
        "numberOfBytes": "32",
        "value": "t_mapping(t_uint32,t_enum(PlanStatus)7628)"
      },
      "t_mapping(t_address,t_mapping(t_uint32,t_mapping(t_bytes32,t_uint256)))": {
        "encoding": "mapping",
        "key": "t_address",
        "label": "mapping(address => mapping(uint32 => mapping(bytes32 => uint256)))",
        "numberOfBytes": "32",
        "value": "t_mapping(t_uint32,t_mapping(t_bytes32,t_uint256))"
      },
      "t_mapping(t_address,t_mapping(t_uint32,t_uint32))": {
        "encoding": "mapping",
        "key": "t_address",
        "label": "mapping(address => mapping(uint32 => uint32))",
        "numberOfBytes": "32",
        "value": "t_mapping(t_uint32,t_uint32)"
      },
      "t_mapping(t_address,t_struct(Provider)7650_storage)": {
        "encoding": "mapping",
        "key": "t_address",
        "label": "mapping(address => struct ICaskSubscriptionPlans.Provider)",
        "numberOfBytes": "32",
        "value": "t_struct(Provider)7650_storage"
      },
      "t_mapping(t_bytes32,t_uint256)": {
        "encoding": "mapping",
        "key": "t_bytes32",
        "label": "mapping(bytes32 => uint256)",
        "numberOfBytes": "32",
        "value": "t_uint256"
      },
      "t_mapping(t_uint32,t_enum(PlanStatus)7628)": {
        "encoding": "mapping",
        "key": "t_uint32",
        "label": "mapping(uint32 => enum ICaskSubscriptionPlans.PlanStatus)",
        "numberOfBytes": "32",
        "value": "t_enum(PlanStatus)7628"
      },
      "t_mapping(t_uint32,t_mapping(t_bytes32,t_uint256))": {
        "encoding": "mapping",
        "key": "t_uint32",
        "label": "mapping(uint32 => mapping(bytes32 => uint256))",
        "numberOfBytes": "32",
        "value": "t_mapping(t_bytes32,t_uint256)"
      },
      "t_mapping(t_uint32,t_uint32)": {
        "encoding": "mapping",
        "key": "t_uint32",
        "label": "mapping(uint32 => uint32)",
        "numberOfBytes": "32",
        "value": "t_uint32"
      },
      "t_string_storage": {
        "encoding": "bytes",
        "label": "string",
        "numberOfBytes": "32"
      },
      "t_struct(Provider)7650_storage": {
        "encoding": "inplace",
        "label": "struct ICaskSubscriptionPlans.Provider",
        "members": [
          {
            "astId": 7645,
            "contract": "contracts/protocol/CaskSubscriptionPlans.sol:CaskSubscriptionPlans",
            "label": "paymentAddress",
            "offset": 0,
            "slot": "0",
            "type": "t_address"
          },
          {
            "astId": 7647,
            "contract": "contracts/protocol/CaskSubscriptionPlans.sol:CaskSubscriptionPlans",
            "label": "nonce",
            "offset": 0,
            "slot": "1",
            "type": "t_uint256"
          },
          {
            "astId": 7649,
            "contract": "contracts/protocol/CaskSubscriptionPlans.sol:CaskSubscriptionPlans",
            "label": "cid",
            "offset": 0,
            "slot": "2",
            "type": "t_string_storage"
          }
        ],
        "numberOfBytes": "96"
      },
      "t_uint256": {
        "encoding": "inplace",
        "label": "uint256",
        "numberOfBytes": "32"
      },
      "t_uint32": {
        "encoding": "inplace",
        "label": "uint32",
        "numberOfBytes": "4"
      }
    }
  }
}