{
  "address": "0x7C3FBEFc4F5b532B0E0b7E4872Ba2094b452F4EA",
  "abi": [
    {
      "inputs": [],
      "stateMutability": "nonpayable",
      "type": "constructor"
    },
    {
      "anonymous": false,
      "inputs": [
        {
          "indexed": true,
          "internalType": "address",
          "name": "owner",
          "type": "address"
        },
        {
          "indexed": true,
          "internalType": "address",
          "name": "approved",
          "type": "address"
        },
        {
          "indexed": true,
          "internalType": "uint256",
          "name": "tokenId",
          "type": "uint256"
        }
      ],
      "name": "Approval",
      "type": "event"
    },
    {
      "anonymous": false,
      "inputs": [
        {
          "indexed": true,
          "internalType": "address",
          "name": "owner",
          "type": "address"
        },
        {
          "indexed": true,
          "internalType": "address",
          "name": "operator",
          "type": "address"
        },
        {
          "indexed": false,
          "internalType": "bool",
          "name": "approved",
          "type": "bool"
        }
      ],
      "name": "ApprovalForAll",
      "type": "event"
    },
    {
      "anonymous": false,
      "inputs": [
        {
          "indexed": true,
          "internalType": "address",
          "name": "previousOwner",
          "type": "address"
        },
        {
          "indexed": true,
          "internalType": "address",
          "name": "newOwner",
          "type": "address"
        }
      ],
      "name": "OwnershipTransferred",
      "type": "event"
    },
    {
      "anonymous": false,
      "inputs": [
        {
          "indexed": false,
          "internalType": "address",
          "name": "account",
          "type": "address"
        }
      ],
      "name": "Paused",
      "type": "event"
    },
    {
      "anonymous": false,
      "inputs": [
        {
          "indexed": true,
          "internalType": "address",
          "name": "consumer",
          "type": "address"
        },
        {
          "indexed": true,
          "internalType": "address",
          "name": "provider",
          "type": "address"
        },
        {
          "indexed": true,
          "internalType": "uint256",
          "name": "subscriptionId",
          "type": "uint256"
        },
        {
          "indexed": false,
          "internalType": "bytes32",
          "name": "ref",
          "type": "bytes32"
        },
        {
          "indexed": false,
          "internalType": "uint32",
          "name": "planId",
          "type": "uint32"
        }
      ],
      "name": "SubscriptionCanceled",
      "type": "event"
    },
    {
      "anonymous": false,
      "inputs": [
        {
          "indexed": true,
          "internalType": "address",
          "name": "consumer",
          "type": "address"
        },
        {
          "indexed": true,
          "internalType": "address",
          "name": "provider",
          "type": "address"
        },
        {
          "indexed": true,
          "internalType": "uint256",
          "name": "subscriptionId",
          "type": "uint256"
        },
        {
          "indexed": false,
          "internalType": "bytes32",
          "name": "ref",
          "type": "bytes32"
        },
        {
          "indexed": false,
          "internalType": "uint32",
          "name": "prevPlanId",
          "type": "uint32"
        },
        {
          "indexed": false,
          "internalType": "uint32",
          "name": "planId",
          "type": "uint32"
        },
        {
          "indexed": false,
          "internalType": "bytes32",
          "name": "discountId",
          "type": "bytes32"
        }
      ],
      "name": "SubscriptionChangedPlan",
      "type": "event"
    },
    {
      "anonymous": false,
      "inputs": [
        {
          "indexed": true,
          "internalType": "address",
          "name": "consumer",
          "type": "address"
        },
        {
          "indexed": true,
          "internalType": "address",
          "name": "provider",
          "type": "address"
        },
        {
          "indexed": true,
          "internalType": "uint256",
          "name": "subscriptionId",
          "type": "uint256"
        },
        {
          "indexed": false,
          "internalType": "bytes32",
          "name": "ref",
          "type": "bytes32"
        },
        {
          "indexed": false,
          "internalType": "uint32",
          "name": "planId",
          "type": "uint32"
        },
        {
          "indexed": false,
          "internalType": "bytes32",
          "name": "discountId",
          "type": "bytes32"
        }
      ],
      "name": "SubscriptionCreated",
      "type": "event"
    },
    {
      "anonymous": false,
      "inputs": [
        {
          "indexed": true,
          "internalType": "address",
          "name": "consumer",
          "type": "address"
        },
        {
          "indexed": true,
          "internalType": "address",
          "name": "provider",
          "type": "address"
        },
        {
          "indexed": true,
          "internalType": "uint256",
          "name": "subscriptionId",
          "type": "uint256"
        },
        {
          "indexed": false,
          "internalType": "bytes32",
          "name": "ref",
          "type": "bytes32"
        },
        {
          "indexed": false,
          "internalType": "uint32",
          "name": "planId",
          "type": "uint32"
        }
      ],
      "name": "SubscriptionPastDue",
      "type": "event"
    },
    {
      "anonymous": false,
      "inputs": [
        {
          "indexed": true,
          "internalType": "address",
          "name": "consumer",
          "type": "address"
        },
        {
          "indexed": true,
          "internalType": "address",
          "name": "provider",
          "type": "address"
        },
        {
          "indexed": true,
          "internalType": "uint256",
          "name": "subscriptionId",
          "type": "uint256"
        },
        {
          "indexed": false,
          "internalType": "bytes32",
          "name": "ref",
          "type": "bytes32"
        },
        {
          "indexed": false,
          "internalType": "uint32",
          "name": "planId",
          "type": "uint32"
        }
      ],
      "name": "SubscriptionPaused",
      "type": "event"
    },
    {
      "anonymous": false,
      "inputs": [
        {
          "indexed": true,
          "internalType": "address",
          "name": "consumer",
          "type": "address"
        },
        {
          "indexed": true,
          "internalType": "address",
          "name": "provider",
          "type": "address"
        },
        {
          "indexed": true,
          "internalType": "uint256",
          "name": "subscriptionId",
          "type": "uint256"
        },
        {
          "indexed": false,
          "internalType": "bytes32",
          "name": "ref",
          "type": "bytes32"
        },
        {
          "indexed": false,
          "internalType": "uint32",
          "name": "planId",
          "type": "uint32"
        },
        {
          "indexed": false,
          "internalType": "uint32",
          "name": "cancelAt",
          "type": "uint32"
        }
      ],
      "name": "SubscriptionPendingCancel",
      "type": "event"
    },
    {
      "anonymous": false,
      "inputs": [
        {
          "indexed": true,
          "internalType": "address",
          "name": "consumer",
          "type": "address"
        },
        {
          "indexed": true,
          "internalType": "address",
          "name": "provider",
          "type": "address"
        },
        {
          "indexed": true,
          "internalType": "uint256",
          "name": "subscriptionId",
          "type": "uint256"
        },
        {
          "indexed": false,
          "internalType": "bytes32",
          "name": "ref",
          "type": "bytes32"
        },
        {
          "indexed": false,
          "internalType": "uint32",
          "name": "prevPlanId",
          "type": "uint32"
        },
        {
          "indexed": false,
          "internalType": "uint32",
          "name": "planId",
          "type": "uint32"
        }
      ],
      "name": "SubscriptionPendingChangePlan",
      "type": "event"
    },
    {
      "anonymous": false,
      "inputs": [
        {
          "indexed": true,
          "internalType": "address",
          "name": "consumer",
          "type": "address"
        },
        {
          "indexed": true,
          "internalType": "address",
          "name": "provider",
          "type": "address"
        },
        {
          "indexed": true,
          "internalType": "uint256",
          "name": "subscriptionId",
          "type": "uint256"
        },
        {
          "indexed": false,
          "internalType": "bytes32",
          "name": "ref",
          "type": "bytes32"
        },
        {
          "indexed": false,
          "internalType": "uint32",
          "name": "planId",
          "type": "uint32"
        }
      ],
      "name": "SubscriptionPendingPause",
      "type": "event"
    },
    {
      "anonymous": false,
      "inputs": [
        {
          "indexed": true,
          "internalType": "address",
          "name": "consumer",
          "type": "address"
        },
        {
          "indexed": true,
          "internalType": "address",
          "name": "provider",
          "type": "address"
        },
        {
          "indexed": true,
          "internalType": "uint256",
          "name": "subscriptionId",
          "type": "uint256"
        },
        {
          "indexed": false,
          "internalType": "bytes32",
          "name": "ref",
          "type": "bytes32"
        },
        {
          "indexed": false,
          "internalType": "uint32",
          "name": "planId",
          "type": "uint32"
        }
      ],
      "name": "SubscriptionRenewed",
      "type": "event"
    },
    {
      "anonymous": false,
      "inputs": [
        {
          "indexed": true,
          "internalType": "address",
          "name": "consumer",
          "type": "address"
        },
        {
          "indexed": true,
          "internalType": "address",
          "name": "provider",
          "type": "address"
        },
        {
          "indexed": true,
          "internalType": "uint256",
          "name": "subscriptionId",
          "type": "uint256"
        },
        {
          "indexed": false,
          "internalType": "bytes32",
          "name": "ref",
          "type": "bytes32"
        },
        {
          "indexed": false,
          "internalType": "uint32",
          "name": "planId",
          "type": "uint32"
        }
      ],
      "name": "SubscriptionResumed",
      "type": "event"
    },
    {
      "anonymous": false,
      "inputs": [
        {
          "indexed": true,
          "internalType": "address",
          "name": "consumer",
          "type": "address"
        },
        {
          "indexed": true,
          "internalType": "address",
          "name": "provider",
          "type": "address"
        },
        {
          "indexed": true,
          "internalType": "uint256",
          "name": "subscriptionId",
          "type": "uint256"
        },
        {
          "indexed": false,
          "internalType": "bytes32",
          "name": "ref",
          "type": "bytes32"
        },
        {
          "indexed": false,
          "internalType": "uint32",
          "name": "planId",
          "type": "uint32"
        }
      ],
      "name": "SubscriptionTrialEnded",
      "type": "event"
    },
    {
      "anonymous": false,
      "inputs": [
        {
          "indexed": true,
          "internalType": "address",
          "name": "from",
          "type": "address"
        },
        {
          "indexed": true,
          "internalType": "address",
          "name": "to",
          "type": "address"
        },
        {
          "indexed": true,
          "internalType": "uint256",
          "name": "tokenId",
          "type": "uint256"
        }
      ],
      "name": "Transfer",
      "type": "event"
    },
    {
      "anonymous": false,
      "inputs": [
        {
          "indexed": false,
          "internalType": "address",
          "name": "account",
          "type": "address"
        }
      ],
      "name": "Unpaused",
      "type": "event"
    },
    {
      "inputs": [
        {
          "internalType": "address",
          "name": "to",
          "type": "address"
        },
        {
          "internalType": "uint256",
          "name": "tokenId",
          "type": "uint256"
        }
      ],
      "name": "approve",
      "outputs": [],
      "stateMutability": "nonpayable",
      "type": "function"
    },
    {
      "inputs": [
        {
          "internalType": "uint256",
          "name": "_subscriptionId",
          "type": "uint256"
        },
        {
          "internalType": "string",
          "name": "_dataCid",
          "type": "string"
        }
      ],
      "name": "attachData",
      "outputs": [],
      "stateMutability": "nonpayable",
      "type": "function"
    },
    {
      "inputs": [
        {
          "internalType": "address",
          "name": "owner",
          "type": "address"
        }
      ],
      "name": "balanceOf",
      "outputs": [
        {
          "internalType": "uint256",
          "name": "",
          "type": "uint256"
        }
      ],
      "stateMutability": "view",
      "type": "function"
    },
    {
      "inputs": [
        {
          "internalType": "uint256",
          "name": "_subscriptionId",
          "type": "uint256"
        },
        {
          "internalType": "uint32",
          "name": "_cancelAt",
          "type": "uint32"
        }
      ],
      "name": "cancelSubscription",
      "outputs": [],
      "stateMutability": "nonpayable",
      "type": "function"
    },
    {
      "inputs": [
        {
          "internalType": "uint256",
          "name": "_subscriptionId",
          "type": "uint256"
        },
        {
          "internalType": "uint256",
          "name": "_nonce",
          "type": "uint256"
        },
        {
          "internalType": "bytes32[]",
          "name": "_planProof",
          "type": "bytes32[]"
        },
        {
          "internalType": "bytes32[]",
          "name": "_discountProof",
          "type": "bytes32[]"
        },
        {
          "internalType": "bytes",
          "name": "_providerSignature",
          "type": "bytes"
        },
        {
          "internalType": "string",
          "name": "_cid",
          "type": "string"
        }
      ],
      "name": "changeSubscriptionPlan",
      "outputs": [],
      "stateMutability": "nonpayable",
      "type": "function"
    },
    {
      "inputs": [
        {
          "internalType": "uint256",
          "name": "_nonce",
          "type": "uint256"
        },
        {
          "internalType": "bytes32[]",
          "name": "_planProof",
          "type": "bytes32[]"
        },
        {
          "internalType": "bytes32[]",
          "name": "_discountProof",
          "type": "bytes32[]"
        },
        {
          "internalType": "bytes32",
          "name": "_networkData",
          "type": "bytes32"
        },
        {
          "internalType": "uint32",
          "name": "_cancelAt",
          "type": "uint32"
        },
        {
          "internalType": "bytes",
          "name": "_providerSignature",
          "type": "bytes"
        },
        {
          "internalType": "bytes",
          "name": "_networkSignature",
          "type": "bytes"
        },
        {
          "internalType": "string",
          "name": "_cid",
          "type": "string"
        }
      ],
      "name": "createNetworkSubscription",
      "outputs": [],
      "stateMutability": "nonpayable",
      "type": "function"
    },
    {
      "inputs": [
        {
          "internalType": "uint256",
          "name": "_nonce",
          "type": "uint256"
        },
        {
          "internalType": "bytes32[]",
          "name": "_planProof",
          "type": "bytes32[]"
        },
        {
          "internalType": "bytes32[]",
          "name": "_discountProof",
          "type": "bytes32[]"
        },
        {
          "internalType": "uint32",
          "name": "_cancelAt",
          "type": "uint32"
        },
        {
          "internalType": "bytes",
          "name": "_providerSignature",
          "type": "bytes"
        },
        {
          "internalType": "string",
          "name": "_cid",
          "type": "string"
        }
      ],
      "name": "createSubscription",
      "outputs": [],
      "stateMutability": "nonpayable",
      "type": "function"
    },
    {
      "inputs": [
        {
          "internalType": "address",
          "name": "_consumer",
          "type": "address"
        },
        {
          "internalType": "address",
          "name": "_provider",
          "type": "address"
        },
        {
          "internalType": "uint32",
          "name": "_planId",
          "type": "uint32"
        }
      ],
      "name": "getActiveSubscriptionCount",
      "outputs": [
        {
          "internalType": "uint256",
          "name": "",
          "type": "uint256"
        }
      ],
      "stateMutability": "view",
      "type": "function"
    },
    {
      "inputs": [
        {
          "internalType": "uint256",
          "name": "tokenId",
          "type": "uint256"
        }
      ],
      "name": "getApproved",
      "outputs": [
        {
          "internalType": "address",
          "name": "",
          "type": "address"
        }
      ],
      "stateMutability": "view",
      "type": "function"
    },
    {
      "inputs": [
        {
          "internalType": "address",
          "name": "_consumer",
          "type": "address"
        },
        {
          "internalType": "uint256",
          "name": "_idx",
          "type": "uint256"
        }
      ],
      "name": "getConsumerSubscription",
      "outputs": [
        {
          "internalType": "uint256",
          "name": "",
          "type": "uint256"
        }
      ],
      "stateMutability": "view",
      "type": "function"
    },
    {
      "inputs": [
        {
          "internalType": "address",
          "name": "_consumer",
          "type": "address"
        }
      ],
      "name": "getConsumerSubscriptionCount",
      "outputs": [
        {
          "internalType": "uint256",
          "name": "",
          "type": "uint256"
        }
      ],
      "stateMutability": "view",
      "type": "function"
    },
    {
      "inputs": [
        {
          "internalType": "uint256",
          "name": "_subscriptionId",
          "type": "uint256"
        }
      ],
      "name": "getPendingPlanChange",
      "outputs": [
        {
          "internalType": "bytes32",
          "name": "",
          "type": "bytes32"
        }
      ],
      "stateMutability": "view",
      "type": "function"
    },
    {
      "inputs": [
        {
          "internalType": "address",
          "name": "_provider",
          "type": "address"
        },
        {
          "internalType": "uint256",
          "name": "_idx",
          "type": "uint256"
        }
      ],
      "name": "getProviderSubscription",
      "outputs": [
        {
          "internalType": "uint256",
          "name": "",
          "type": "uint256"
        }
      ],
      "stateMutability": "view",
      "type": "function"
    },
    {
      "inputs": [
        {
          "internalType": "address",
          "name": "_provider",
          "type": "address"
        },
        {
          "internalType": "bool",
          "name": "_includeCanceled",
          "type": "bool"
        },
        {
          "internalType": "uint32",
          "name": "_planId",
          "type": "uint32"
        }
      ],
      "name": "getProviderSubscriptionCount",
      "outputs": [
        {
          "internalType": "uint256",
          "name": "",
          "type": "uint256"
        }
      ],
      "stateMutability": "view",
      "type": "function"
    },
    {
      "inputs": [
        {
          "internalType": "uint256",
          "name": "_subscriptionId",
          "type": "uint256"
        }
      ],
      "name": "getSubscription",
      "outputs": [
        {
          "components": [
            {
              "internalType": "bytes32",
              "name": "planData",
              "type": "bytes32"
            },
            {
              "internalType": "bytes32",
              "name": "networkData",
              "type": "bytes32"
            },
            {
              "internalType": "bytes32",
              "name": "discountId",
              "type": "bytes32"
            },
            {
              "internalType": "bytes32",
              "name": "discountData",
              "type": "bytes32"
            },
            {
              "internalType": "bytes32",
              "name": "ref",
              "type": "bytes32"
            },
            {
              "internalType": "address",
              "name": "provider",
              "type": "address"
            },
            {
              "internalType": "enum ICaskSubscriptions.SubscriptionStatus",
              "name": "status",
              "type": "uint8"
            },
            {
              "internalType": "uint32",
              "name": "planId",
              "type": "uint32"
            },
            {
              "internalType": "uint32",
              "name": "createdAt",
              "type": "uint32"
            },
            {
              "internalType": "uint32",
              "name": "renewAt",
              "type": "uint32"
            },
            {
              "internalType": "uint32",
              "name": "minTermAt",
              "type": "uint32"
            },
            {
              "internalType": "uint32",
              "name": "cancelAt",
              "type": "uint32"
            },
            {
              "internalType": "string",
              "name": "cid",
              "type": "string"
            },
            {
              "internalType": "string",
              "name": "dataCid",
              "type": "string"
            }
          ],
          "internalType": "struct ICaskSubscriptions.Subscription",
          "name": "subscription",
          "type": "tuple"
        },
        {
          "internalType": "address",
          "name": "currentOwner",
          "type": "address"
        }
      ],
      "stateMutability": "view",
      "type": "function"
    },
    {
      "inputs": [
        {
          "internalType": "address",
          "name": "_subscriptionPlans",
          "type": "address"
        }
      ],
      "name": "initialize",
      "outputs": [],
      "stateMutability": "nonpayable",
      "type": "function"
    },
    {
      "inputs": [
        {
          "internalType": "address",
          "name": "owner",
          "type": "address"
        },
        {
          "internalType": "address",
          "name": "operator",
          "type": "address"
        }
      ],
      "name": "isApprovedForAll",
      "outputs": [
        {
          "internalType": "bool",
          "name": "",
          "type": "bool"
        }
      ],
      "stateMutability": "view",
      "type": "function"
    },
    {
      "inputs": [
        {
          "internalType": "address",
          "name": "forwarder",
          "type": "address"
        }
      ],
      "name": "isTrustedForwarder",
      "outputs": [
        {
          "internalType": "bool",
          "name": "",
          "type": "bool"
        }
      ],
      "stateMutability": "view",
      "type": "function"
    },
    {
      "inputs": [
        {
          "internalType": "uint256",
          "name": "_subscriptionId",
          "type": "uint256"
        },
        {
          "internalType": "enum ICaskSubscriptions.ManagerCommand",
          "name": "_command",
          "type": "uint8"
        }
      ],
      "name": "managerCommand",
      "outputs": [],
      "stateMutability": "nonpayable",
      "type": "function"
    },
    {
      "inputs": [],
      "name": "name",
      "outputs": [
        {
          "internalType": "string",
          "name": "",
          "type": "string"
        }
      ],
      "stateMutability": "view",
      "type": "function"
    },
    {
      "inputs": [],
      "name": "owner",
      "outputs": [
        {
          "internalType": "address",
          "name": "",
          "type": "address"
        }
      ],
      "stateMutability": "view",
      "type": "function"
    },
    {
      "inputs": [
        {
          "internalType": "uint256",
          "name": "tokenId",
          "type": "uint256"
        }
      ],
      "name": "ownerOf",
      "outputs": [
        {
          "internalType": "address",
          "name": "",
          "type": "address"
        }
      ],
      "stateMutability": "view",
      "type": "function"
    },
    {
      "inputs": [],
      "name": "pause",
      "outputs": [],
      "stateMutability": "nonpayable",
      "type": "function"
    },
    {
      "inputs": [
        {
          "internalType": "uint256",
          "name": "_subscriptionId",
          "type": "uint256"
        }
      ],
      "name": "pauseSubscription",
      "outputs": [],
      "stateMutability": "nonpayable",
      "type": "function"
    },
    {
      "inputs": [],
      "name": "paused",
      "outputs": [
        {
          "internalType": "bool",
          "name": "",
          "type": "bool"
        }
      ],
      "stateMutability": "view",
      "type": "function"
    },
    {
      "inputs": [],
      "name": "renounceOwnership",
      "outputs": [],
      "stateMutability": "nonpayable",
      "type": "function"
    },
    {
      "inputs": [
        {
          "internalType": "uint256",
          "name": "_subscriptionId",
          "type": "uint256"
        }
      ],
      "name": "resumeSubscription",
      "outputs": [],
      "stateMutability": "nonpayable",
      "type": "function"
    },
    {
      "inputs": [
        {
          "internalType": "address",
          "name": "from",
          "type": "address"
        },
        {
          "internalType": "address",
          "name": "to",
          "type": "address"
        },
        {
          "internalType": "uint256",
          "name": "tokenId",
          "type": "uint256"
        }
      ],
      "name": "safeTransferFrom",
      "outputs": [],
      "stateMutability": "nonpayable",
      "type": "function"
    },
    {
      "inputs": [
        {
          "internalType": "address",
          "name": "from",
          "type": "address"
        },
        {
          "internalType": "address",
          "name": "to",
          "type": "address"
        },
        {
          "internalType": "uint256",
          "name": "tokenId",
          "type": "uint256"
        },
        {
          "internalType": "bytes",
          "name": "_data",
          "type": "bytes"
        }
      ],
      "name": "safeTransferFrom",
      "outputs": [],
      "stateMutability": "nonpayable",
      "type": "function"
    },
    {
      "inputs": [
        {
          "internalType": "address",
          "name": "operator",
          "type": "address"
        },
        {
          "internalType": "bool",
          "name": "approved",
          "type": "bool"
        }
      ],
      "name": "setApprovalForAll",
      "outputs": [],
      "stateMutability": "nonpayable",
      "type": "function"
    },
    {
      "inputs": [
        {
          "internalType": "address",
          "name": "_subscriptionManager",
          "type": "address"
        }
      ],
      "name": "setManager",
      "outputs": [],
      "stateMutability": "nonpayable",
      "type": "function"
    },
    {
      "inputs": [
        {
          "internalType": "address",
          "name": "_forwarder",
          "type": "address"
        }
      ],
      "name": "setTrustedForwarder",
      "outputs": [],
      "stateMutability": "nonpayable",
      "type": "function"
    },
    {
      "inputs": [],
      "name": "subscriptionManager",
      "outputs": [
        {
          "internalType": "contract ICaskSubscriptionManager",
          "name": "",
          "type": "address"
        }
      ],
      "stateMutability": "view",
      "type": "function"
    },
    {
      "inputs": [],
      "name": "subscriptionPlans",
      "outputs": [
        {
          "internalType": "contract ICaskSubscriptionPlans",
          "name": "",
          "type": "address"
        }
      ],
      "stateMutability": "view",
      "type": "function"
    },
    {
      "inputs": [
        {
          "internalType": "bytes4",
          "name": "interfaceId",
          "type": "bytes4"
        }
      ],
      "name": "supportsInterface",
      "outputs": [
        {
          "internalType": "bool",
          "name": "",
          "type": "bool"
        }
      ],
      "stateMutability": "view",
      "type": "function"
    },
    {
      "inputs": [],
      "name": "symbol",
      "outputs": [
        {
          "internalType": "string",
          "name": "",
          "type": "string"
        }
      ],
      "stateMutability": "view",
      "type": "function"
    },
    {
      "inputs": [
        {
          "internalType": "uint256",
          "name": "_subscriptionId",
          "type": "uint256"
        }
      ],
      "name": "tokenURI",
      "outputs": [
        {
          "internalType": "string",
          "name": "",
          "type": "string"
        }
      ],
      "stateMutability": "view",
      "type": "function"
    },
    {
      "inputs": [
        {
          "internalType": "address",
          "name": "from",
          "type": "address"
        },
        {
          "internalType": "address",
          "name": "to",
          "type": "address"
        },
        {
          "internalType": "uint256",
          "name": "tokenId",
          "type": "uint256"
        }
      ],
      "name": "transferFrom",
      "outputs": [],
      "stateMutability": "nonpayable",
      "type": "function"
    },
    {
      "inputs": [
        {
          "internalType": "address",
          "name": "newOwner",
          "type": "address"
        }
      ],
      "name": "transferOwnership",
      "outputs": [],
      "stateMutability": "nonpayable",
      "type": "function"
    },
    {
      "inputs": [],
      "name": "trustedForwarder",
      "outputs": [
        {
          "internalType": "address",
          "name": "",
          "type": "address"
        }
      ],
      "stateMutability": "view",
      "type": "function"
    },
    {
      "inputs": [],
      "name": "unpause",
      "outputs": [],
      "stateMutability": "nonpayable",
      "type": "function"
    },
    {
      "inputs": [],
      "name": "versionRecipient",
      "outputs": [
        {
          "internalType": "string",
          "name": "",
          "type": "string"
        }
      ],
      "stateMutability": "pure",
      "type": "function"
    }
  ],
  "transactionHash": "0xf96ec2749230cef35f0779eade2395065156ee9d18f4181e956317fa897671c9",
  "args": [],
  "numDeployments": 11,
  "solcInputHash": "c33a201fdf506759e51d5ebef4a2a373",
  "bytecode": "0x60806040523480156200001157600080fd5b50600054610100900460ff166200002f5760005460ff161562000039565b62000039620000de565b620000a15760405162461bcd60e51b815260206004820152602e60248201527f496e697469616c697a61626c653a20636f6e747261637420697320616c72656160448201526d191e481a5b9a5d1a585b1a5e995960921b606482015260840160405180910390fd5b600054610100900460ff16158015620000c4576000805461ffff19166101011790555b8015620000d7576000805461ff00191690555b5062000102565b6000620000f630620000fc60201b620029c41760201c565b15905090565b3b151590565b615ea780620001126000396000f3fe608060405234801561001057600080fd5b506004361061025e5760003560e01c80637df7b2aa11610146578063b88d4fde116100c3578063d0ebdbe711610087578063d0ebdbe714610557578063d67dc0de1461056a578063da742228146105b3578063dc311dd3146105c6578063e985e9c5146105e7578063f2fde38b1461062357600080fd5b8063b88d4fde146104ea578063bf158fd2146104fd578063c4d66de814610510578063c86e695414610523578063c87b56dd1461054457600080fd5b80638fe17b161161010a5780638fe17b1614610496578063925fa591146104a957806395d89b41146104bc578063a22cb465146104c4578063ac58e37b146104d757600080fd5b80637df7b2aa14610444578063825527ff146104575780638456cb591461046a578063876bebbb146104725780638da5cb5b1461048557600080fd5b806342842e0e116101df5780635c975abb116101a35780635c975abb146103e75780636352211e146103f257806370a0823114610405578063715018a61461041857806374c14439146104205780637da0a8771461043357600080fd5b806342842e0e1461036b57806345041a461461037e578063486ff0cd146103915780634d5106ae146103b2578063572b6c05146103c557600080fd5b806323b872dd1161022657806323b872dd146102f3578063291b9a3f1461030657806336fd3a8a1461033d5780633f4ba83a1461035057806341f23f0a1461035857600080fd5b806301ffc9a714610263578063023a584e1461028b57806306fdde03146102a0578063081812fc146102b5578063095ea7b3146102e0575b600080fd5b610276610271366004614ff7565b610636565b60405190151581526020015b60405180910390f35b61029e610299366004615014565b610688565b005b6102a8610ad5565b6040516102829190615085565b6102c86102c3366004615014565b610b67565b6040516001600160a01b039091168152602001610282565b61029e6102ee3660046150ad565b610bfc565b61029e6103013660046150d9565b610d24565b61032f61031436600461511a565b6001600160a01b0316600090815260fe602052604090205490565b604051908152602001610282565b61032f61034b3660046150ad565b610d5c565b61029e610d99565b61029e610366366004615014565b610dec565b61029e6103793660046150d9565b61107b565b61029e61038c366004615179565b611096565b6040805180820190915260058152640322e322e360dc1b60208201526102a8565b61029e6103c0366004615311565b6111ae565b6102766103d336600461511a565b6065546001600160a01b0391821691161490565b60ca5460ff16610276565b6102c8610400366004615014565b6111ee565b61032f61041336600461511a565b611265565b61029e6112ec565b61032f61042e3660046153fd565b61133f565b6065546001600160a01b03166102c8565b61029e610452366004615444565b6113c7565b61029e610465366004615478565b611c21565b61029e611c85565b61032f6104803660046150ad565b611cd6565b6098546001600160a01b03166102c8565b60fd546102c8906001600160a01b031681565b61029e6104b7366004615588565b611d01565b6102a86120b8565b61029e6104d23660046155b4565b6120c7565b61029e6104e53660046155e2565b6120d9565b61029e6104f8366004615670565b61214e565b60fc546102c8906001600160a01b031681565b61029e61051e36600461511a565b612187565b61032f610531366004615014565b6000908152610100602052604090205490565b6102a8610552366004615014565b6122bf565b61029e61056536600461511a565b612579565b61032f6105783660046156dc565b6001600160a01b0392831660009081526101046020908152604080832094909516825292835283812063ffffffff9290921681529152205490565b61029e6105c136600461511a565b6125e4565b6105d96105d4366004615014565b61264e565b604051610282929190615744565b6102766105f5366004615882565b6001600160a01b039182166000908152606b6020908152604080832093909416825291909152205460ff1690565b61029e61063136600461511a565b61290d565b60006001600160e01b031982166380ac58cd60e01b148061066757506001600160e01b03198216635b5e139f60e01b145b8061068257506301ffc9a760e01b6001600160e01b03198316145b92915050565b80610692816111ee565b6001600160a01b03166106a36129ca565b6001600160a01b0316146106d25760405162461bcd60e51b81526004016106c9906158b0565b60405180910390fd5b60ca5460ff16156106f55760405162461bcd60e51b81526004016106c9906158cf565b600082815260ff6020526040902060036005820154600160a01b900460ff1660068111156107255761072561570c565b1480610750575060066005820154600160a01b900460ff16600681111561074e5761074e61570c565b145b61078a5760405162461bcd60e51b815260206004820152600b60248201526a085393d517d4105554d15160aa1b60448201526064016106c9565b60066005820154600160a01b900460ff1660068111156107ac576107ac61570c565b14156107ca57600501805460ff60a01b1916600160a11b1790555050565b60006107d982600001546129d9565b9050806080015163ffffffff166000148061082c5750608081015160058301546001600160a01b03166000908152610103602090815260408083208286015163ffffffff90811685529252909120549116115b6108665760405162461bcd60e51b815260206004820152600b60248201526a214d41585f41435449564560a81b60448201526064016106c9565b600582018054600160a11b60ff60a01b198216179091556001600160a01b03166000908152610102602052604081208054600192906108a690849061590f565b909155505060058201546001600160a01b038116600090815261010360209081526040808320600160a81b90940463ffffffff1683529290529081208054600192906108f390849061590f565b90915550600190506101046000610909876111ee565b6001600160a01b03908116825260208083019390935260409182016000908120600588015492831682528452828120600160a81b90920463ffffffff16815292528120805490919061095c90849061590f565b9091555050600682015463ffffffff4281169116101561098e5760068201805463ffffffff19164263ffffffff161790555b60fc5460405163d71bb37b60e01b8152600481018690526001600160a01b039091169063d71bb37b90602401600060405180830381600087803b1580156109d457600080fd5b505af11580156109e8573d6000803e3d6000fd5b50600292506109f5915050565b6005830154600160a01b900460ff166006811115610a1557610a1561570c565b14610a585760405162461bcd60e51b815260206004820152601360248201527221494e53554646494349454e545f46554e445360681b60448201526064016106c9565b600582015484906001600160a01b0316610a71826111ee565b6004850154600586015460408051928352600160a81b90910463ffffffff1660208301526001600160a01b0392909216917f7ee0fc3eab7021686f891346ebbf5bab192d6f9995fcc66021f4551888dc148191015b60405180910390a450505b5050565b606060668054610ae490615927565b80601f0160208091040260200160405190810160405280929190818152602001828054610b1090615927565b8015610b5d5780601f10610b3257610100808354040283529160200191610b5d565b820191906000526020600020905b815481529060010190602001808311610b4057829003601f168201915b5050505050905090565b6000818152606860205260408120546001600160a01b0316610be05760405162461bcd60e51b815260206004820152602c60248201527f4552433732313a20617070726f76656420717565727920666f72206e6f6e657860448201526b34b9ba32b73a103a37b5b2b760a11b60648201526084016106c9565b506000908152606a60205260409020546001600160a01b031690565b6000610c07826111ee565b9050806001600160a01b0316836001600160a01b03161415610c755760405162461bcd60e51b815260206004820152602160248201527f4552433732313a20617070726f76616c20746f2063757272656e74206f776e656044820152603960f91b60648201526084016106c9565b806001600160a01b0316610c876129ca565b6001600160a01b03161480610ca35750610ca3816105f56129ca565b610d155760405162461bcd60e51b815260206004820152603860248201527f4552433732313a20617070726f76652063616c6c6572206973206e6f74206f7760448201527f6e6572206e6f7220617070726f76656420666f7220616c6c000000000000000060648201526084016106c9565b610d1f8383612ab4565b505050565b610d35610d2f6129ca565b82612b22565b610d515760405162461bcd60e51b81526004016106c990615962565b610d1f838383612c19565b6001600160a01b038216600090815260fe60205260408120805483908110610d8657610d866159b3565b9060005260206000200154905092915050565b610da16129ca565b6001600160a01b0316610dbc6098546001600160a01b031690565b6001600160a01b031614610de25760405162461bcd60e51b81526004016106c9906159c9565b610dea612dc4565b565b80610df6816111ee565b6001600160a01b0316610e076129ca565b6001600160a01b03161480610e455750600081815260ff60205260409020600501546001600160a01b0316610e3a6129ca565b6001600160a01b0316145b610e615760405162461bcd60e51b81526004016106c9906158b0565b60ca5460ff1615610e845760405162461bcd60e51b81526004016106c9906158cf565b600082815260ff6020526040902060036005820154600160a01b900460ff166006811115610eb457610eb461570c565b14158015610ee15750600580820154600160a01b900460ff166006811115610ede57610ede61570c565b14155b8015610f0d575060046005820154600160a01b900460ff166006811115610f0a57610f0a61570c565b14155b8015610f39575060016005820154600160a01b900460ff166006811115610f3657610f3661570c565b14155b610f555760405162461bcd60e51b81526004016106c9906159fe565b6006810154600160201b900463ffffffff161580610f895750600681015463ffffffff600160201b90910481164290911610155b610fa55760405162461bcd60e51b81526004016106c990615a28565b6000610fb482600001546129d9565b90508060e00151610ff75760405162461bcd60e51b815260206004820152600d60248201526c214e4f545f5041555341424c4560981b60448201526064016106c9565b600582018054600360a11b60ff60a01b1982161790915584906001600160a01b0316611022826111ee565b6004850154600586015460408051928352600160a81b90910463ffffffff1660208301526001600160a01b0392909216917f3b1ababbfb41865093a096e886e08d3058f1adbce6c29e7be7ed6fd16b7080289101610ac6565b610d1f8383836040518060200160405280600081525061214e565b826110a0816111ee565b6001600160a01b03166110b16129ca565b6001600160a01b031614806110ef5750600081815260ff60205260409020600501546001600160a01b03166110e46129ca565b6001600160a01b0316145b61110b5760405162461bcd60e51b81526004016106c9906158b0565b60ca5460ff161561112e5760405162461bcd60e51b81526004016106c9906158cf565b600084815260ff6020526040902060046005820154600160a01b900460ff16600681111561115e5761115e61570c565b14156111985760405162461bcd60e51b81526020600482015260096024820152680850d05390d153115160ba1b60448201526064016106c9565b6111a6600882018585614ed4565b505050505050565b60ca5460ff16156111d15760405162461bcd60e51b81526004016106c9906158cf565b6111e2898989898989898989612e5d565b50505050505050505050565b6000818152606860205260408120546001600160a01b0316806106825760405162461bcd60e51b815260206004820152602960248201527f4552433732313a206f776e657220717565727920666f72206e6f6e657869737460448201526832b73a103a37b5b2b760b91b60648201526084016106c9565b60006001600160a01b0382166112d05760405162461bcd60e51b815260206004820152602a60248201527f4552433732313a2062616c616e636520717565727920666f7220746865207a65604482015269726f206164647265737360b01b60648201526084016106c9565b506001600160a01b031660009081526069602052604090205490565b6112f46129ca565b6001600160a01b031661130f6098546001600160a01b031690565b6001600160a01b0316146113355760405162461bcd60e51b81526004016106c9906159c9565b610dea6000613606565b6000821561136757506001600160a01b038316600090815261010160205260409020546113c0565b63ffffffff8216156113a457506001600160a01b03831660009081526101036020908152604080832063ffffffff851684529091529020546113c0565b506001600160a01b038316600090815261010260205260409020545b9392505050565b60fc546001600160a01b03166113db6129ca565b6001600160a01b0316146114015760405162461bcd60e51b81526004016106c9906158b0565b60ca5460ff16156114245760405162461bcd60e51b81526004016106c9906158cf565b600082815260ff602052604090204260018360068111156114475761144761570c565b14156115e05760008481526101006020526040902054806114aa5760405162461bcd60e51b815260206004820152601960248201527f21494e56414c49442870656e64696e67506c616e44617461290000000000000060448201526064016106c9565b60006114b5826129d9565b600585015490915086906001600160a01b03166114d1826111ee565b6004870154600588015460208087015160028b01546040805195865263ffffffff600160a81b90950485169386019390935292169083015260608201526001600160a01b0391909116907fe17e61be0a4aac2f0b6fece72cedc2ab9ca554634d5af864a9282095206a0c2b9060800160405180910390a4602081015160058501805463ffffffff909216600160a81b0263ffffffff60a81b1990921691909117905581845560a081015161ffff16156115c9578060a0015161ffff16816040015161159c9190615a4b565b6115a69084615a77565b8460060160046101000a81548163ffffffff021916908363ffffffff1602179055505b505060008481526101006020526040812055611c1b565b60028360068111156115f4576115f461570c565b14156117d257600582018054600160a21b60ff60a01b198216179091556001600160a01b031660009081526101026020526040812080546001929061163a908490615a9f565b909155505060058201546001600160a01b038116600090815261010360209081526040808320600160a81b90940463ffffffff168352929052908120805460019290611687908490615a9f565b90915550600090506101048161169c876111ee565b6001600160a01b03908116825260208083019390935260409182016000908120600588015492831682528452828120600160a81b90920463ffffffff1681529252902054111561174f57600161010460006116f6876111ee565b6001600160a01b03908116825260208083019390935260409182016000908120600588015492831682528452828120600160a81b90920463ffffffff168152925281208054909190611749908490615a9f565b90915550505b600582015484906001600160a01b0316611768826111ee565b6004850154600586015460408051928352600160a81b90910463ffffffff1660208301526001600160a01b0392909216917f58e4414596fd750dbb9dabfe65b97bf5add2061f5902f34e2b82a9c25bd79f98910160405180910390a46117cd84613658565b611c1b565b60068360068111156117e6576117e661570c565b14156119bc57600582018054600360a01b60ff60a01b198216179091556001600160a01b031660009081526101026020526040812080546001929061182c908490615a9f565b909155505060058201546001600160a01b038116600090815261010360209081526040808320600160a81b90940463ffffffff168352929052908120805460019290611879908490615a9f565b90915550600090506101048161188e876111ee565b6001600160a01b03908116825260208083019390935260409182016000908120600588015492831682528452828120600160a81b90920463ffffffff1681529252902054111561194157600161010460006118e8876111ee565b6001600160a01b03908116825260208083019390935260409182016000908120600588015492831682528452828120600160a81b90920463ffffffff16815292528120805490919061193b908490615a9f565b90915550505b600582015484906001600160a01b031661195a826111ee565b6004850154600586015460408051928352600160a81b90910463ffffffff1660208301526001600160a01b0392909216917f7afd3b59e582bb56b590409b808e910ae787056cb10b682b9bdefa44c8eb940d91015b60405180910390a4611c1b565b60038360068111156119d0576119d061570c565b1415611a5a57600582018054600560a01b60ff60a01b1982161790915584906001600160a01b0316611a01826111ee565b6004850154600586015460408051928352600160a81b90910463ffffffff1660208301526001600160a01b0392909216917f44abb4f4529fdbcacc1ee98eef9318eaf9a12044d6925a2dc2c702959d9352f191016119af565b6004836006811115611a6e57611a6e61570c565b1415611bf2576000611a8383600001546129d9565b905060016005840154600160a01b900460ff166006811115611aa757611aa761570c565b1415611b2357600583015485906001600160a01b0316611ac6826111ee565b6004860154600587015460408051928352600160a81b90910463ffffffff1660208301526001600160a01b0392909216917ff42e506093cb49dad3d3349cf7a2b390140be665daecb2c820e903afd12b1df7910160405180910390a45b60408101516006840154611b3d919063ffffffff16615a77565b60068401805463ffffffff191663ffffffff9283169081179091559083161015611b775760058301805460ff60a01b1916600160a11b1790555b600583015485906001600160a01b0316611b90826111ee565b6004860154600587015460408051928352600160a81b90910463ffffffff1660208301526001600160a01b0392909216917fcdd2eee203a384f2c6e81f39021f7e3ebef3a21ccd0d0f6dd117387ab61b6b54910160405180910390a450611c1b565b6005836006811115611c0657611c0661570c565b1415611c1b5760006002830181905560038301555b50505050565b60ca5460ff1615611c445760405162461bcd60e51b81526004016106c9906158cf565b6000611c578c8c8c8c8c8b8b8a8a612e5d565b9050611c6387856136ff565b50600090815260ff602052604090206001019590955550505050505050505050565b611c8d6129ca565b6001600160a01b0316611ca86098546001600160a01b031690565b6001600160a01b031614611cce5760405162461bcd60e51b81526004016106c9906159c9565b610dea613825565b6001600160a01b038216600090815261010160205260408120805483908110610d8657610d866159b3565b81611d0b816111ee565b6001600160a01b0316611d1c6129ca565b6001600160a01b03161480611d5a5750600081815260ff60205260409020600501546001600160a01b0316611d4f6129ca565b6001600160a01b0316145b611d765760405162461bcd60e51b81526004016106c9906158b0565b60ca5460ff1615611d995760405162461bcd60e51b81526004016106c9906158cf565b600083815260ff6020526040902060046005820154600160a01b900460ff166006811115611dc957611dc961570c565b1415611de75760405162461bcd60e51b81526004016106c9906159fe565b4263ffffffff8416611ed557611dfc856111ee565b6001600160a01b0316611e0d6129ca565b6001600160a01b031614611e335760405162461bcd60e51b81526004016106c9906158b0565b60068201805463ffffffff60401b1916600160401b63ffffffff871602179055600582015485906001600160a01b0316611e6c826111ee565b6004850154600586015460408051928352600160a81b90910463ffffffff9081166020840152891682820152516001600160a01b0392909216917fc54424be96a88104b924830a25713de0140a7b7048d7a26370e735b421b057869181900360600190a46120b1565b8063ffffffff168463ffffffff1611611fc4576006820154600160201b900463ffffffff161580611f1b5750600682015463ffffffff600160201b909104811690821610155b611f375760405162461bcd60e51b81526004016106c990615a28565b600682018054600160401b63ffffffff84169081026bffffffff00000000ffffffff199092161717905560fc5460405163d71bb37b60e01b8152600481018790526001600160a01b039091169063d71bb37b90602401600060405180830381600087803b158015611fa757600080fd5b505af1158015611fbb573d6000803e3d6000fd5b505050506120b1565b6006820154600160201b900463ffffffff161580611ff75750600682015463ffffffff600160201b909104811690851610155b6120135760405162461bcd60e51b81526004016106c990615a28565b60068201805463ffffffff60401b1916600160401b63ffffffff871602179055600582015485906001600160a01b031661204c826111ee565b6004850154600586015460408051928352600160a81b90910463ffffffff9081166020840152891682820152516001600160a01b0392909216917fc54424be96a88104b924830a25713de0140a7b7048d7a26370e735b421b057869181900360600190a45b5050505050565b606060678054610ae490615927565b610ad16120d26129ca565b838361387e565b886120e3816111ee565b6001600160a01b03166120f46129ca565b6001600160a01b03161461211a5760405162461bcd60e51b81526004016106c9906158b0565b60ca5460ff161561213d5760405162461bcd60e51b81526004016106c9906158cf565b6111e28a8a8a8a8a8a8a8a8a61394d565b61215f6121596129ca565b83612b22565b61217b5760405162461bcd60e51b81526004016106c990615962565b611c1b84848484613d15565b600054610100900460ff166121a25760005460ff16156121a6565b303b155b6122095760405162461bcd60e51b815260206004820152602e60248201527f496e697469616c697a61626c653a20636f6e747261637420697320616c72656160448201526d191e481a5b9a5d1a585b1a5e995960921b60648201526084016106c9565b600054610100900460ff1615801561222b576000805461ffff19166101011790555b612233613d48565b61223b613d7f565b61228f604051806040016040528060128152602001714361736b20537562736372697074696f6e7360701b815250604051806040016040528060088152602001674341534b5355425360c01b815250613db6565b60fd80546001600160a01b0319166001600160a01b0384161790558015610ad1576000805461ff00191690555050565b6000818152606860205260409020546060906001600160a01b031661233e5760405162461bcd60e51b815260206004820152602f60248201527f4552433732314d657461646174613a2055524920717565727920666f72206e6f60448201526e3732bc34b9ba32b73a103a37b5b2b760891b60648201526084016106c9565b600082815260ff6020818152604080842081516101c08101835281548152600182015493810193909352600281015491830191909152600381015460608301526004810154608083015260058101546001600160a01b03811660a08401529192909160c0840191600160a01b9091041660068111156123bf576123bf61570c565b60068111156123d0576123d061570c565b8152600582015463ffffffff600160a81b820481166020840152600160c81b9091048116604083015260068301548082166060840152600160201b810482166080840152600160401b90041660a082015260078201805460c09092019161243690615927565b80601f016020809104026020016040519081016040528092919081815260200182805461246290615927565b80156124af5780601f10612484576101008083540402835291602001916124af565b820191906000526020600020905b81548152906001019060200180831161249257829003601f168201915b505050505081526020016008820180546124c890615927565b80601f01602080910402602001604051908101604052809291908181526020018280546124f490615927565b80156125415780601f1061251657610100808354040283529160200191612541565b820191906000526020600020905b81548152906001019060200180831161252457829003601f168201915b50505050508152505090508061018001516040516020016125629190615ab6565b604051602081830303815290604052915050919050565b6125816129ca565b6001600160a01b031661259c6098546001600160a01b031690565b6001600160a01b0316146125c25760405162461bcd60e51b81526004016106c9906159c9565b60fc80546001600160a01b0319166001600160a01b0392909216919091179055565b6125ec6129ca565b6001600160a01b03166126076098546001600160a01b031690565b6001600160a01b03161461262d5760405162461bcd60e51b81526004016106c9906159c9565b606580546001600160a01b0319166001600160a01b03831617905550565b50565b604080516101c08101825260008082526020820181905291810182905260608082018390526080820183905260a0820183905260c0820183905260e0820183905261010082018390526101208201839052610140820183905261016082019290925261018081018290526101a0810191909152600082815260ff6020818152604080842081516101c08101835281548152600182015493810193909352600281015491830191909152600381015460608301526004810154608083015260058101546001600160a01b03811660a08401529192909160c0840191600160a01b9091041660068111156127425761274261570c565b60068111156127535761275361570c565b8152600582015463ffffffff600160a81b820481166020840152600160c81b9091048116604083015260068301548082166060840152600160201b810482166080840152600160401b90041660a082015260078201805460c0909201916127b990615927565b80601f01602080910402602001604051908101604052809291908181526020018280546127e590615927565b80156128325780601f1061280757610100808354040283529160200191612832565b820191906000526020600020905b81548152906001019060200180831161281557829003601f168201915b5050505050815260200160088201805461284b90615927565b80601f016020809104026020016040519081016040528092919081815260200182805461287790615927565b80156128c45780601f10612899576101008083540402835291602001916128c4565b820191906000526020600020905b8154815290600101906020018083116128a757829003601f168201915b50505050508152505091506128f0836000908152606860205260409020546001600160a01b0316151590565b15612905576128fe836111ee565b9050915091565b506000915091565b6129156129ca565b6001600160a01b03166129306098546001600160a01b031690565b6001600160a01b0316146129565760405162461bcd60e51b81526004016106c9906159c9565b6001600160a01b0381166129bb5760405162461bcd60e51b815260206004820152602660248201527f4f776e61626c653a206e6577206f776e657220697320746865207a65726f206160448201526564647265737360d01b60648201526084016106c9565b61264b81613606565b3b151590565b60006129d4613df7565b905090565b6040805161012081018252600080825260208201819052918101829052606081018290526080810182905260a0810182905260c0810182905260e0810182905261010081019190915250604080516101208101825260a083811c8252608084811c63ffffffff908116602080860191909152606087811c8316868801529587901c8216958501959095529385901c90931692820192909252601083901c61ffff1691810191909152600882901c60ff1660c082015260f89190911b600160f81b8181161460e0830152600160f91b9081161461010082015290565b6000818152606a6020526040902080546001600160a01b0319166001600160a01b0384169081179091558190612ae9826111ee565b6001600160a01b03167f8c5be1e5ebec7d5bd14f71427d1e84f3dd0314c0f7b2291e5b200ac8c7c3b92560405160405180910390a45050565b6000818152606860205260408120546001600160a01b0316612b9b5760405162461bcd60e51b815260206004820152602c60248201527f4552433732313a206f70657261746f7220717565727920666f72206e6f6e657860448201526b34b9ba32b73a103a37b5b2b760a11b60648201526084016106c9565b6000612ba6836111ee565b9050806001600160a01b0316846001600160a01b03161480612be15750836001600160a01b0316612bd684610b67565b6001600160a01b0316145b80612c1157506001600160a01b038082166000908152606b602090815260408083209388168352929052205460ff165b949350505050565b826001600160a01b0316612c2c826111ee565b6001600160a01b031614612c945760405162461bcd60e51b815260206004820152602960248201527f4552433732313a207472616e73666572206f6620746f6b656e2074686174206960448201526839903737ba1037bbb760b91b60648201526084016106c9565b6001600160a01b038216612cf65760405162461bcd60e51b8152602060048201526024808201527f4552433732313a207472616e7366657220746f20746865207a65726f206164646044820152637265737360e01b60648201526084016106c9565b612d01838383613e2b565b612d0c600082612ab4565b6001600160a01b0383166000908152606960205260408120805460019290612d35908490615a9f565b90915550506001600160a01b0382166000908152606960205260408120805460019290612d6390849061590f565b909155505060008181526068602052604080822080546001600160a01b0319166001600160a01b0386811691821790925591518493918716917fddf252ad1be2c89b69c2b068fc378daa952ba7f163c4a11628f55a4df523b3ef91a4505050565b60ca5460ff16612e0d5760405162461bcd60e51b815260206004820152601460248201527314185d5cd8589b194e881b9bdd081c185d5cd95960621b60448201526064016106c9565b60ca805460ff191690557f5db9ee0a495bf2e6ff9c91a7834c1ba4fdd244a5e8aa4e537bd38aeae4b073aa612e406129ca565b6040516001600160a01b03909116815260200160405180910390a1565b60006004881015612ea95760405162461bcd60e51b815260206004820152601660248201527521494e56414c494428706c616e50726f6f664c656e2960501b60448201526064016106c9565b600060038710612f1257612f0b8a8a6000818110612ec957612ec96159b3565b905060200201358c8c8c6003818110612ee457612ee46159b3565b905060200201358b8b6002818110612efe57612efe6159b3565b9050602002013589613f55565b9050612f57565b612f548a8a6000818110612f2857612f286159b3565b905060200201358c8c8c6003818110612f4357612f436159b3565b905060200201356000801b89613f55565b90505b612f618a8a6140a3565b612f7d5760405162461bcd60e51b81526004016106c990615ae5565b6000612fa18b8b6002818110612f9557612f956159b3565b905060200201356129d9565b90506000612ffb8c8c6000818110612fbb57612fbb6159b3565b905060200201358d8d6001818110612fd557612fd56159b3565b905060200201358e8e6002818110612fef57612fef6159b3565b9050602002013561416a565b9050816080015163ffffffff166000148061304a575060808201516001600160a01b0384166000908152610103602090815260408083208287015163ffffffff90811685529252909120549116115b6130845760405162461bcd60e51b815260206004820152600b60248201526a214d41585f41435449564560a81b60448201526064016106c9565b600060fd54602084015160405163b6ab359f60e01b81526001600160a01b03878116600483015263ffffffff909216602482015291169063b6ab359f9060440160206040518083038186803b1580156130dc57600080fd5b505afa1580156130f0573d6000803e3d6000fd5b505050506040513d601f19601f820116820180604052508101906131149190615b12565b60028111156131255761312561570c565b146131615760405162461bcd60e51b815260206004820152600c60248201526b085393d517d153905093115160a21b60448201526064016106c9565b61317261316c6129ca565b826141d5565b600081815260ff602090815260409091206005810180549285015163ffffffff16600160a81b02600164ffffffff0160a01b03199093166001600160a01b0387161792909217909155428d8d60018181106131cf576131cf6159b3565b60200291909101356004840155508d8d60028181106131f0576131f06159b3565b602002919091013583555060068201805463ffffffff60401b1916600160401b63ffffffff8d1602179055613229600783018989614ed4565b5060058201805463ffffffff60c81b1916600160c81b63ffffffff84160217905560a084015161ffff161561329d578360a0015161ffff1684604001516132709190615a4b565b61327a9082615a77565b8260060160046101000a81548163ffffffff021916908363ffffffff1602179055505b83516132cc5760058201805460ff60a01b1916600160a11b17905560068201805463ffffffff1916905561334e565b606084015163ffffffff16156133215760058201805460ff60a01b1916600160a01b17905560608401516133009082615a77565b60068301805463ffffffff191663ffffffff9290921691909117905561334e565b60058201805460ff60a01b1916600160a11b17905560068201805463ffffffff191663ffffffff83161790555b60fe600061335a6129ca565b6001600160a01b03908116825260208083019390935260409182016000908120805460018181018355918352858320018890559189168082526101018552838220805480850182559083528583200188905581526101029093529082208054919290916133c890849061590f565b90915550506001600160a01b0385166000908152610103602090815260408083208783015163ffffffff168452909152812080546001929061340b90849061590f565b909155506001905061010460006134206129ca565b6001600160a01b03908116825260208083019390935260409182016000908120918a1681529083528181208884015163ffffffff1682529092528120805490919061346c90849061590f565b9091555061349b905061347e846111ee565b600584015460208701516001600160a01b03909116908f8f6141ef565b6003840155600283015560fc5460405163d71bb37b60e01b8152600481018590526001600160a01b039091169063d71bb37b90602401600060405180830381600087803b1580156134eb57600080fd5b505af11580156134ff573d6000803e3d6000fd5b506002925061350c915050565b6005830154600160a01b900460ff16600681111561352c5761352c61570c565b1480613557575060016005830154600160a01b900460ff1660068111156135555761355561570c565b145b6135735760405162461bcd60e51b81526004016106c990615b33565b600582015483906001600160a01b031661358c826111ee565b60048501546005860154600287015460408051938452600160a81b90920463ffffffff166020840152908201526001600160a01b0391909116907f9fb45eab820cdd481e286e8c699e1c01031bb833c58f7cfba3ca8d1db6d98d819060600160405180910390a450909d9c50505050505050505050505050565b609880546001600160a01b038381166001600160a01b0319831681179093556040519116919082907f8be0079c531659141344cd1fd0a4f28419497f9722a3daafe3b4186f6b6457e090600090a35050565b6000613663826111ee565b905061367181600084613e2b565b61367c600083612ab4565b6001600160a01b03811660009081526069602052604081208054600192906136a5908490615a9f565b909155505060008281526068602052604080822080546001600160a01b0319169055518391906001600160a01b038416907fddf252ad1be2c89b69c2b068fc378daa952ba7f163c4a11628f55a4df523b3ef908390a45050565b6000806137828361377c8660405160200161371c91815260200190565b60408051601f1981840301815282825280516020918201207f19457468657265756d205369676e6564204d6573736167653a0a33320000000084830152603c8085019190915282518085039091018152605c909301909152815191012090565b906142db565b905060006137c28560408051808201909152600080825260208201525060408051808201909152606082901c815260509190911c61ffff16602082015290565b9050816001600160a01b031681600001516001600160a01b03161461381d5760405162461bcd60e51b815260206004820152601160248201527021494e56414c4944286e6574776f726b2960781b60448201526064016106c9565b509392505050565b60ca5460ff16156138485760405162461bcd60e51b81526004016106c9906158cf565b60ca805460ff191660011790557f62e78cea01bee320cd4e420270b5ea74000d11b0c9f74754ebdbfc544b05a258612e406129ca565b816001600160a01b0316836001600160a01b031614156138e05760405162461bcd60e51b815260206004820152601960248201527f4552433732313a20617070726f766520746f2063616c6c65720000000000000060448201526064016106c9565b6001600160a01b038381166000818152606b6020908152604080832094871680845294825291829020805460ff191686151590811790915591519182527f17307eab39ab6107e8899845ad3d59bd9653f200f220920489ca2b5937696c31910160405180910390a3505050565b600486101561396e5760405162461bcd60e51b81526004016106c990615ae5565b600089815260ff60205260409020600681015463ffffffff16158061399f5750600681015463ffffffff4281169116115b6139db5760405162461bcd60e51b815260206004820152600d60248201526c085391515117d491539155d053609a1b60448201526064016106c9565b60026005820154600160a01b900460ff1660068111156139fd576139fd61570c565b1480613a28575060016005820154600160a01b900460ff166006811115613a2657613a2661570c565b145b613a445760405162461bcd60e51b81526004016106c9906159fe565b600060038610613aa057613a9989896000818110613a6457613a646159b3565b905060200201358b8b8b6003818110613a7f57613a7f6159b3565b905060200201358a8a6002818110612efe57612efe6159b3565b9050613ad4565b613ad189896000818110613ab657613ab66159b3565b905060200201358b8b8b6003818110612f4357612f436159b3565b90505b613ade89896140a3565b613afa5760405162461bcd60e51b81526004016106c990615ae5565b6000613b128a8a6002818110612f9557612f956159b3565b60058401549091506001600160a01b03838116911614613b695760405162461bcd60e51b815260206004820152601260248201527121494e56414c49442870726f76696465722960701b60448201526064016106c9565b613b77600784018686614ed4565b506002830154158015613b8b575060038710155b8015613bad5750600088888281613ba457613ba46159b3565b90506020020135115b15613be657613bdb613bbe8d6111ee565b600585015460208401516001600160a01b03909116908b8b6141ef565b600385015560028401555b60208101516005840154600160a81b900463ffffffff908116911614613d0757600060fd54602083015160405163b6ab359f60e01b81526001600160a01b03868116600483015263ffffffff909216602482015291169063b6ab359f9060440160206040518083038186803b158015613c5e57600080fd5b505afa158015613c72573d6000803e3d6000fd5b505050506040513d601f19601f82011682018060405250810190613c969190615b12565b6002811115613ca757613ca761570c565b14613ce35760405162461bcd60e51b815260206004820152600c60248201526b085393d517d153905093115160a21b60448201526064016106c9565b613d078c828c8c6002818110613cfb57613cfb6159b3565b905060200201356142f7565b505050505050505050505050565b613d20848484612c19565b613d2c84848484614440565b611c1b5760405162461bcd60e51b81526004016106c990615b5b565b600054610100900460ff16613d6f5760405162461bcd60e51b81526004016106c990615bad565b613d77614554565b610dea61457b565b600054610100900460ff16613da65760405162461bcd60e51b81526004016106c990615bad565b613dae614554565b610dea6145b2565b600054610100900460ff16613ddd5760405162461bcd60e51b81526004016106c990615bad565b613de5614554565b613ded614554565b610ad182826145e5565b600060143610801590613e1457506065546001600160a01b031633145b15613e26575060131936013560601c90565b503390565b6001600160a01b03831615801590613e4b57506001600160a01b03821615155b15610d1f57600081815260ff602052604081208054909190613e6c906129d9565b9050806101000151613eb55760405162461bcd60e51b8152602060048201526012602482015271214e4f545f5452414e534645525241424c4560701b60448201526064016106c9565b6006820154600160201b900463ffffffff161580613ee95750600682015463ffffffff600160201b90910481164290911610155b613f055760405162461bcd60e51b81526004016106c990615a28565b50600601805463ffffffff60401b19811663ffffffff909116600160401b021790556001600160a01b0391909116600090815260fe60209081526040822080546001810182559083529120015550565b600080613f858361377c88888860405160200161371c939291909283526020830191909152604082015260600190565b90506001600160a01b0387811690821614613fd45760405162461bcd60e51b815260206004820152600f60248201526e21494e56414c49442870726f6f662960881b60448201526064016106c9565b60fd54604051630782fb5960e31b81526001600160a01b03838116600483015290911690633c17dac89060240160006040518083038186803b15801561401957600080fd5b505afa15801561402d573d6000803e3d6000fd5b505050506040513d6000823e601f3d908101601f191682016040526140559190810190615bf8565b6020015186146140995760405162461bcd60e51b815260206004820152600f60248201526e2150524f56494445525f4e4f4e434560881b60448201526064016106c9565b9695505050505050565b60fd546000906001600160a01b03166371ce3e66848460028181106140ca576140ca6159b3565b90506020020135858560038181106140e4576140e46159b3565b602002919091013590506140fb866004818a615cbd565b6040518563ffffffff1660e01b815260040161411a9493929190615d21565b60206040518083038186803b15801561413257600080fd5b505afa158015614146573d6000803e3d6000fd5b505050506040513d601f19601f820116820180604052508101906113c09190615d41565b60006141746129ca565b60405160609190911b6bffffffffffffffffffffffff191660208201526034810185905260548101839052607481018490524360948201524260b482015260d40160408051601f198184030181529190528051602090910120949350505050565b610ad1828260405180602001604052806000815250614633565b6000808084848281614203576142036159b3565b9050602002013511156142ca5760fd54604051632218d7d360e01b81526000916001600160a01b031690632218d7d390614249908b908b908b908b908b90600401615d5e565b602060405180830381600087803b15801561426357600080fd5b505af1158015614277573d6000803e3d6000fd5b505050506040513d601f19601f8201168201806040525081019061429b9190615da2565b905080156142c85780858560018181106142b7576142b76159b3565b9050602002013592509250506142d1565b505b5060009050805b9550959350505050565b60008060006142ea8585614666565b9150915061381d816146d6565b600083815260ff602052604081208054909190614313906129d9565b905060016005830154600160a01b900460ff1660068111156143375761433761570c565b14156143b25760608085015190820151600684015461435c919063ffffffff16615dbb565b6143669190615a77565b60068301805463ffffffff191663ffffffff92831690811790915542909116106143a25760068201805463ffffffff19164263ffffffff161790555b6143ad858585614891565b6120b1565b604081015181516143c99163ffffffff1690615de0565b604085015185516143e09163ffffffff1690615de0565b14156143f1576143ad858585614891565b604081015181516144089163ffffffff1690615de0565b6040850151855161441f9163ffffffff1690615de0565b1115614431576143ad858286866149b9565b6120b185856020015185614bd1565b60006001600160a01b0384163b1561454957836001600160a01b031663150b7a026144696129ca565b8786866040518563ffffffff1660e01b815260040161448b9493929190615e02565b602060405180830381600087803b1580156144a557600080fd5b505af19250505080156144d5575060408051601f3d908101601f191682019092526144d291810190615e35565b60015b61452f573d808015614503576040519150601f19603f3d011682016040523d82523d6000602084013e614508565b606091505b5080516145275760405162461bcd60e51b81526004016106c990615b5b565b805181602001fd5b6001600160e01b031916630a85bd0160e11b149050612c11565b506001949350505050565b600054610100900460ff16610dea5760405162461bcd60e51b81526004016106c990615bad565b600054610100900460ff166145a25760405162461bcd60e51b81526004016106c990615bad565b610dea6145ad6129ca565b613606565b600054610100900460ff166145d95760405162461bcd60e51b81526004016106c990615bad565b60ca805460ff19169055565b600054610100900460ff1661460c5760405162461bcd60e51b81526004016106c990615bad565b815161461f906066906020850190614f58565b508051610d1f906067906020840190614f58565b61463d8383614c6a565b61464a6000848484614440565b610d1f5760405162461bcd60e51b81526004016106c990615b5b565b60008082516041141561469d5760208301516040840151606085015160001a61469187828585614db8565b945094505050506146cf565b8251604014156146c757602083015160408401516146bc868383614ea5565b9350935050506146cf565b506000905060025b9250929050565b60008160048111156146ea576146ea61570c565b14156146f35750565b60018160048111156147075761470761570c565b14156147555760405162461bcd60e51b815260206004820152601860248201527f45434453413a20696e76616c6964207369676e6174757265000000000000000060448201526064016106c9565b60028160048111156147695761476961570c565b14156147b75760405162461bcd60e51b815260206004820152601f60248201527f45434453413a20696e76616c6964207369676e6174757265206c656e6774680060448201526064016106c9565b60038160048111156147cb576147cb61570c565b14156148245760405162461bcd60e51b815260206004820152602260248201527f45434453413a20696e76616c6964207369676e6174757265202773272076616c604482015261756560f01b60648201526084016106c9565b60048160048111156148385761483861570c565b141561264b5760405162461bcd60e51b815260206004820152602260248201527f45434453413a20696e76616c6964207369676e6174757265202776272076616c604482015261756560f01b60648201526084016106c9565b600083815260ff60205260409020600581015484906001600160a01b03166148b8826111ee565b6004840154600585015460208089015160028801546040805195865263ffffffff600160a81b90950485169386019390935292169083015260608201526001600160a01b0391909116907fe17e61be0a4aac2f0b6fece72cedc2ab9ca554634d5af864a9282095206a0c2b9060800160405180910390a460a083015161ffff1615614988578260a0015161ffff1683604001516149559190615a4b565b6149659063ffffffff164261590f565b8160060160046101000a81548163ffffffff021916908363ffffffff1602179055505b60209092015160058301805463ffffffff909216600160a81b0263ffffffff60a81b19909216919091179055905550565b600084815260ff602052604090206149d2858484614891565b83511580156149e15750825115155b15614aa15760068101805463ffffffff19164263ffffffff1617905560fc5460405163d71bb37b60e01b8152600481018790526001600160a01b039091169063d71bb37b90602401600060405180830381600087803b158015614a4357600080fd5b505af1158015614a57573d6000803e3d6000fd5b5060029250614a64915050565b6005820154600160a01b900460ff166006811115614a8457614a8461570c565b146143ad5760405162461bcd60e51b81526004016106c990615b33565b6006810154600090614aba90429063ffffffff16615dbb565b63ffffffff16856040015163ffffffff168660000151614ada9190615de0565b60408601518651614af19163ffffffff1690615de0565b614afb9190615a9f565b614b059190615e52565b60fc549091506001600160a01b031663c54c58c4614b22886111ee565b600585015460405160e084901b6001600160e01b03191681526001600160a01b039283166004820152911660248201526044810189905260648101849052608401602060405180830381600087803b158015614b7d57600080fd5b505af1158015614b91573d6000803e3d6000fd5b505050506040513d601f19601f82011682018060405250810190614bb59190615d41565b6111a65760405162461bcd60e51b81526004016106c990615b33565b600083815260ff60209081526040808320610100909252909120829055600581015484906001600160a01b0316614c07826111ee565b600484015460058501546040805192835263ffffffff600160a81b90920482166020840152908816908201526001600160a01b0391909116907f3d051466fe86e1bd842d67e98121d69a930caccf48fc2ae2c83119b5a7b71af690606001610ac6565b6001600160a01b038216614cc05760405162461bcd60e51b815260206004820181905260248201527f4552433732313a206d696e7420746f20746865207a65726f206164647265737360448201526064016106c9565b6000818152606860205260409020546001600160a01b031615614d255760405162461bcd60e51b815260206004820152601c60248201527f4552433732313a20746f6b656e20616c7265616479206d696e7465640000000060448201526064016106c9565b614d3160008383613e2b565b6001600160a01b0382166000908152606960205260408120805460019290614d5a90849061590f565b909155505060008181526068602052604080822080546001600160a01b0319166001600160a01b03861690811790915590518392907fddf252ad1be2c89b69c2b068fc378daa952ba7f163c4a11628f55a4df523b3ef908290a45050565b6000807f7fffffffffffffffffffffffffffffff5d576e7357a4501ddfe92f46681b20a0831115614def5750600090506003614e9c565b8460ff16601b14158015614e0757508460ff16601c14155b15614e185750600090506004614e9c565b6040805160008082526020820180845289905260ff881692820192909252606081018690526080810185905260019060a0016020604051602081039080840390855afa158015614e6c573d6000803e3d6000fd5b5050604051601f1901519150506001600160a01b038116614e9557600060019250925050614e9c565b9150600090505b94509492505050565b6000806001600160ff1b03831660ff84901c601b01614ec687828885614db8565b935093505050935093915050565b828054614ee090615927565b90600052602060002090601f016020900481019282614f025760008555614f48565b82601f10614f1b5782800160ff19823516178555614f48565b82800160010185558215614f48579182015b82811115614f48578235825591602001919060010190614f2d565b50614f54929150614fcc565b5090565b828054614f6490615927565b90600052602060002090601f016020900481019282614f865760008555614f48565b82601f10614f9f57805160ff1916838001178555614f48565b82800160010185558215614f48579182015b82811115614f48578251825591602001919060010190614fb1565b5b80821115614f545760008155600101614fcd565b6001600160e01b03198116811461264b57600080fd5b60006020828403121561500957600080fd5b81356113c081614fe1565b60006020828403121561502657600080fd5b5035919050565b60005b83811015615048578181015183820152602001615030565b83811115611c1b5750506000910152565b6000815180845261507181602086016020860161502d565b601f01601f19169290920160200192915050565b6020815260006113c06020830184615059565b6001600160a01b038116811461264b57600080fd5b600080604083850312156150c057600080fd5b82356150cb81615098565b946020939093013593505050565b6000806000606084860312156150ee57600080fd5b83356150f981615098565b9250602084013561510981615098565b929592945050506040919091013590565b60006020828403121561512c57600080fd5b81356113c081615098565b60008083601f84011261514957600080fd5b50813567ffffffffffffffff81111561516157600080fd5b6020830191508360208285010111156146cf57600080fd5b60008060006040848603121561518e57600080fd5b83359250602084013567ffffffffffffffff8111156151ac57600080fd5b6151b886828701615137565b9497909650939450505050565b60008083601f8401126151d757600080fd5b50813567ffffffffffffffff8111156151ef57600080fd5b6020830191508360208260051b85010111156146cf57600080fd5b803563ffffffff8116811461521e57600080fd5b919050565b634e487b7160e01b600052604160045260246000fd5b6040516060810167ffffffffffffffff8111828210171561525c5761525c615223565b60405290565b604051601f8201601f1916810167ffffffffffffffff8111828210171561528b5761528b615223565b604052919050565b600067ffffffffffffffff8211156152ad576152ad615223565b50601f01601f191660200190565b600082601f8301126152cc57600080fd5b81356152df6152da82615293565b615262565b8181528460208386010111156152f457600080fd5b816020850160208301376000918101602001919091529392505050565b600080600080600080600080600060c08a8c03121561532f57600080fd5b8935985060208a013567ffffffffffffffff8082111561534e57600080fd5b61535a8d838e016151c5565b909a50985060408c013591508082111561537357600080fd5b61537f8d838e016151c5565b909850965086915061539360608d0161520a565b955060808c01359150808211156153a957600080fd5b6153b58d838e016152bb565b945060a08c01359150808211156153cb57600080fd5b506153d88c828d01615137565b915080935050809150509295985092959850929598565b801515811461264b57600080fd5b60008060006060848603121561541257600080fd5b833561541d81615098565b9250602084013561542d816153ef565b915061543b6040850161520a565b90509250925092565b6000806040838503121561545757600080fd5b8235915060208301356007811061546d57600080fd5b809150509250929050565b60008060008060008060008060008060006101008c8e03121561549a57600080fd5b8b359a5067ffffffffffffffff8060208e013511156154b857600080fd5b6154c88e60208f01358f016151c5565b909b50995060408d01358110156154de57600080fd5b6154ee8e60408f01358f016151c5565b909950975060608d0135965061550660808e0161520a565b95508060a08e0135111561551957600080fd5b6155298e60a08f01358f016152bb565b94508060c08e0135111561553c57600080fd5b61554c8e60c08f01358f016152bb565b93508060e08e0135111561555f57600080fd5b506155708d60e08e01358e01615137565b81935080925050509295989b509295989b9093969950565b6000806040838503121561559b57600080fd5b823591506155ab6020840161520a565b90509250929050565b600080604083850312156155c757600080fd5b82356155d281615098565b9150602083013561546d816153ef565b600080600080600080600080600060c08a8c03121561560057600080fd5b8935985060208a0135975060408a013567ffffffffffffffff8082111561562657600080fd5b6156328d838e016151c5565b909950975060608c013591508082111561564b57600080fd5b6156578d838e016151c5565b909750955060808c01359150808211156153a957600080fd5b6000806000806080858703121561568657600080fd5b843561569181615098565b935060208501356156a181615098565b925060408501359150606085013567ffffffffffffffff8111156156c457600080fd5b6156d0878288016152bb565b91505092959194509250565b6000806000606084860312156156f157600080fd5b83356156fc81615098565b9250602084013561542d81615098565b634e487b7160e01b600052602160045260246000fd5b6007811061574057634e487b7160e01b600052602160045260246000fd5b9052565b60408152825160408201526020830151606082015260408301516080820152606083015160a0820152608083015160c0820152600060a084015161579360e08401826001600160a01b03169052565b5060c08401516101006157a881850183615722565b60e086015191506101206157c38186018463ffffffff169052565b908601519150610140906157de8583018463ffffffff169052565b86015191506101606157f78582018463ffffffff169052565b908601519150610180906158128583018463ffffffff169052565b86015191506101a061582b8582018463ffffffff169052565b8187015192506101c091508182860152615849610200860184615059565b90870151858203603f19016101e087015290925090506158698282615059565b925050506113c060208301846001600160a01b03169052565b6000806040838503121561589557600080fd5b82356158a081615098565b9150602083013561546d81615098565b60208082526005908201526404282aaa8960db1b604082015260600190565b60208082526010908201526f14185d5cd8589b194e881c185d5cd95960821b604082015260600190565b634e487b7160e01b600052601160045260246000fd5b60008219821115615922576159226158f9565b500190565b600181811c9082168061593b57607f821691505b6020821081141561595c57634e487b7160e01b600052602260045260246000fd5b50919050565b60208082526031908201527f4552433732313a207472616e736665722063616c6c6572206973206e6f74206f6040820152701ddb995c881b9bdc88185c1c1c9bdd9959607a1b606082015260800190565b634e487b7160e01b600052603260045260246000fd5b6020808252818101527f4f776e61626c653a2063616c6c6572206973206e6f7420746865206f776e6572604082015260600190565b60208082526010908201526f21494e56414c4944287374617475732960801b604082015260600190565b602080825260099082015268214d494e5f5445524d60b81b604082015260600190565b600063ffffffff80831681851681830481118215151615615a6e57615a6e6158f9565b02949350505050565b600063ffffffff808316818516808303821115615a9657615a966158f9565b01949350505050565b600082821015615ab157615ab16158f9565b500390565b66697066733a2f2f60c81b815260008251615ad881600785016020870161502d565b9190910160070192915050565b60208082526013908201527221494e56414c494428706c616e50726f6f662960681b604082015260600190565b600060208284031215615b2457600080fd5b8151600381106113c057600080fd5b6020808252600e908201526d21554e50524f4345535341424c4560901b604082015260600190565b60208082526032908201527f4552433732313a207472616e7366657220746f206e6f6e20455243373231526560408201527131b2b4bb32b91034b6b83632b6b2b73a32b960711b606082015260800190565b6020808252602b908201527f496e697469616c697a61626c653a20636f6e7472616374206973206e6f74206960408201526a6e697469616c697a696e6760a81b606082015260800190565b60006020808385031215615c0b57600080fd5b825167ffffffffffffffff80821115615c2357600080fd5b9084019060608287031215615c3757600080fd5b615c3f615239565b8251615c4a81615098565b81528284015184820152604083015182811115615c6657600080fd5b80840193505086601f840112615c7b57600080fd5b82519150615c8b6152da83615293565b8281528785848601011115615c9f57600080fd5b615cae8386830187870161502d565b60408201529695505050505050565b60008085851115615ccd57600080fd5b83861115615cda57600080fd5b5050600583901b0193919092039150565b81835260006001600160fb1b03831115615d0457600080fd5b8260051b8083602087013760009401602001938452509192915050565b848152836020820152606060408201526000614099606083018486615ceb565b600060208284031215615d5357600080fd5b81516113c0816153ef565b6001600160a01b0386811682528516602082015263ffffffff84166040820152608060608201819052600090615d979083018486615ceb565b979650505050505050565b600060208284031215615db457600080fd5b5051919050565b600063ffffffff83811690831681811015615dd857615dd86158f9565b039392505050565b600082615dfd57634e487b7160e01b600052601260045260246000fd5b500490565b6001600160a01b038581168252841660208201526040810183905260806060820181905260009061409990830184615059565b600060208284031215615e4757600080fd5b81516113c081614fe1565b6000816000190483118215151615615e6c57615e6c6158f9565b50029056fea2646970667358221220490bc5e3686b6e4d3fc85c4eda9aff10c0c975bf09633c9cad065d9f694093fe64736f6c63430008090033",
  "devdoc": {
    "kind": "dev",
    "methods": {
      "approve(address,uint256)": {
        "details": "See {IERC721-approve}."
      },
      "balanceOf(address)": {
        "details": "See {IERC721-balanceOf}."
      },
      "constructor": {
        "custom:oz-upgrades-unsafe-allow": "constructor"
      },
      "getApproved(uint256)": {
        "details": "See {IERC721-getApproved}."
      },
      "isApprovedForAll(address,address)": {
        "details": "See {IERC721-isApprovedForAll}."
      },
      "name()": {
        "details": "See {IERC721Metadata-name}."
      },
      "owner()": {
        "details": "Returns the address of the current owner."
      },
      "ownerOf(uint256)": {
        "details": "See {IERC721-ownerOf}."
      },
      "paused()": {
        "details": "Returns true if the contract is paused, and false otherwise."
      },
      "renounceOwnership()": {
        "details": "Leaves the contract without owner. It will not be possible to call `onlyOwner` functions anymore. Can only be called by the current owner. NOTE: Renouncing ownership will leave the contract without an owner, thereby removing any functionality that is only available to the owner."
      },
      "safeTransferFrom(address,address,uint256)": {
        "details": "See {IERC721-safeTransferFrom}."
      },
      "safeTransferFrom(address,address,uint256,bytes)": {
        "details": "See {IERC721-safeTransferFrom}."
      },
      "setApprovalForAll(address,bool)": {
        "details": "See {IERC721-setApprovalForAll}."
      },
      "supportsInterface(bytes4)": {
        "details": "See {IERC165-supportsInterface}."
      },
      "symbol()": {
        "details": "See {IERC721Metadata-symbol}."
      },
      "transferFrom(address,address,uint256)": {
        "details": "See {IERC721-transferFrom}."
      },
      "transferOwnership(address)": {
        "details": "Transfers ownership of the contract to a new account (`newOwner`). Can only be called by the current owner."
      }
    },
    "stateVariables": {
      "consumerSubscriptions": {
        "details": "Maps for consumer to list of subscriptions. "
      },
      "providerSubscriptions": {
        "details": "Maps for provider to list of subscriptions and plans. "
      },
      "subscriptionManager": {
        "details": "contract to manage subscription plan definitions. "
      },
      "subscriptionPlans": {
        "details": "contract to manage subscription plan definitions. "
      }
    },
    "version": 1
  },
  "userdoc": {
    "kind": "user",
    "methods": {
      "isTrustedForwarder(address)": {
        "notice": "return if the forwarder is trusted to forward relayed transactions to us. the forwarder is required to verify the sender's signature, and verify the call is not a replay."
      }
    },
    "version": 1
  },
  "storageLayout": {
    "storage": [
      {
        "astId": 327,
        "contract": "contracts/subscriptions/CaskSubscriptions.sol:CaskSubscriptions",
        "label": "_initialized",
        "offset": 0,
        "slot": "0",
        "type": "t_bool"
      },
      {
        "astId": 330,
        "contract": "contracts/subscriptions/CaskSubscriptions.sol:CaskSubscriptions",
        "label": "_initializing",
        "offset": 1,
        "slot": "0",
        "type": "t_bool"
      },
      {
        "astId": 2551,
        "contract": "contracts/subscriptions/CaskSubscriptions.sol:CaskSubscriptions",
        "label": "__gap",
        "offset": 0,
        "slot": "1",
        "type": "t_array(t_uint256)50_storage"
      },
      {
        "astId": 2800,
        "contract": "contracts/subscriptions/CaskSubscriptions.sol:CaskSubscriptions",
        "label": "__gap",
        "offset": 0,
        "slot": "51",
        "type": "t_array(t_uint256)50_storage"
      },
      {
        "astId": 72,
        "contract": "contracts/subscriptions/CaskSubscriptions.sol:CaskSubscriptions",
        "label": "_trustedForwarder",
        "offset": 0,
        "slot": "101",
        "type": "t_address"
      },
      {
        "astId": 1270,
        "contract": "contracts/subscriptions/CaskSubscriptions.sol:CaskSubscriptions",
        "label": "_name",
        "offset": 0,
        "slot": "102",
        "type": "t_string_storage"
      },
      {
        "astId": 1272,
        "contract": "contracts/subscriptions/CaskSubscriptions.sol:CaskSubscriptions",
        "label": "_symbol",
        "offset": 0,
        "slot": "103",
        "type": "t_string_storage"
      },
      {
        "astId": 1276,
        "contract": "contracts/subscriptions/CaskSubscriptions.sol:CaskSubscriptions",
        "label": "_owners",
        "offset": 0,
        "slot": "104",
        "type": "t_mapping(t_uint256,t_address)"
      },
      {
        "astId": 1280,
        "contract": "contracts/subscriptions/CaskSubscriptions.sol:CaskSubscriptions",
        "label": "_balances",
        "offset": 0,
        "slot": "105",
        "type": "t_mapping(t_address,t_uint256)"
      },
      {
        "astId": 1284,
        "contract": "contracts/subscriptions/CaskSubscriptions.sol:CaskSubscriptions",
        "label": "_tokenApprovals",
        "offset": 0,
        "slot": "106",
        "type": "t_mapping(t_uint256,t_address)"
      },
      {
        "astId": 1290,
        "contract": "contracts/subscriptions/CaskSubscriptions.sol:CaskSubscriptions",
        "label": "_operatorApprovals",
        "offset": 0,
        "slot": "107",
        "type": "t_mapping(t_address,t_mapping(t_address,t_bool))"
      },
      {
        "astId": 2101,
        "contract": "contracts/subscriptions/CaskSubscriptions.sol:CaskSubscriptions",
        "label": "__gap",
        "offset": 0,
        "slot": "108",
        "type": "t_array(t_uint256)44_storage"
      },
      {
        "astId": 205,
        "contract": "contracts/subscriptions/CaskSubscriptions.sol:CaskSubscriptions",
        "label": "_owner",
        "offset": 0,
        "slot": "152",
        "type": "t_address"
      },
      {
        "astId": 319,
        "contract": "contracts/subscriptions/CaskSubscriptions.sol:CaskSubscriptions",
        "label": "__gap",
        "offset": 0,
        "slot": "153",
        "type": "t_array(t_uint256)49_storage"
      },
      {
        "astId": 415,
        "contract": "contracts/subscriptions/CaskSubscriptions.sol:CaskSubscriptions",
        "label": "_paused",
        "offset": 0,
        "slot": "202",
        "type": "t_bool"
      },
      {
        "astId": 506,
        "contract": "contracts/subscriptions/CaskSubscriptions.sol:CaskSubscriptions",
        "label": "__gap",
        "offset": 0,
        "slot": "203",
        "type": "t_array(t_uint256)49_storage"
      },
      {
        "astId": 18354,
        "contract": "contracts/subscriptions/CaskSubscriptions.sol:CaskSubscriptions",
        "label": "subscriptionManager",
        "offset": 0,
        "slot": "252",
        "type": "t_contract(ICaskSubscriptionManager)12682"
      },
      {
        "astId": 18358,
        "contract": "contracts/subscriptions/CaskSubscriptions.sol:CaskSubscriptions",
        "label": "subscriptionPlans",
        "offset": 0,
        "slot": "253",
        "type": "t_contract(ICaskSubscriptionPlans)12865"
      },
      {
        "astId": 18364,
        "contract": "contracts/subscriptions/CaskSubscriptions.sol:CaskSubscriptions",
        "label": "consumerSubscriptions",
        "offset": 0,
        "slot": "254",
        "type": "t_mapping(t_address,t_array(t_uint256)dyn_storage)"
      },
      {
        "astId": 18369,
        "contract": "contracts/subscriptions/CaskSubscriptions.sol:CaskSubscriptions",
        "label": "subscriptions",
        "offset": 0,
        "slot": "255",
        "type": "t_mapping(t_uint256,t_struct(Subscription)12917_storage)"
      },
      {
        "astId": 18373,
        "contract": "contracts/subscriptions/CaskSubscriptions.sol:CaskSubscriptions",
        "label": "pendingPlanChanges",
        "offset": 0,
        "slot": "256",
        "type": "t_mapping(t_uint256,t_bytes32)"
      },
      {
        "astId": 18379,
        "contract": "contracts/subscriptions/CaskSubscriptions.sol:CaskSubscriptions",
        "label": "providerSubscriptions",
        "offset": 0,
        "slot": "257",
        "type": "t_mapping(t_address,t_array(t_uint256)dyn_storage)"
      },
      {
        "astId": 18383,
        "contract": "contracts/subscriptions/CaskSubscriptions.sol:CaskSubscriptions",
        "label": "providerActiveSubscriptionCount",
        "offset": 0,
        "slot": "258",
        "type": "t_mapping(t_address,t_uint256)"
      },
      {
        "astId": 18389,
        "contract": "contracts/subscriptions/CaskSubscriptions.sol:CaskSubscriptions",
        "label": "planActiveSubscriptionCount",
        "offset": 0,
        "slot": "259",
        "type": "t_mapping(t_address,t_mapping(t_uint32,t_uint256))"
      },
      {
        "astId": 18397,
        "contract": "contracts/subscriptions/CaskSubscriptions.sol:CaskSubscriptions",
        "label": "consumerProviderPlanActiveCount",
        "offset": 0,
        "slot": "260",
        "type": "t_mapping(t_address,t_mapping(t_address,t_mapping(t_uint32,t_uint256)))"
      }
    ],
    "types": {
      "t_address": {
        "encoding": "inplace",
        "label": "address",
        "numberOfBytes": "20"
      },
      "t_array(t_uint256)44_storage": {
        "base": "t_uint256",
        "encoding": "inplace",
        "label": "uint256[44]",
        "numberOfBytes": "1408"
      },
      "t_array(t_uint256)49_storage": {
        "base": "t_uint256",
        "encoding": "inplace",
        "label": "uint256[49]",
        "numberOfBytes": "1568"
      },
      "t_array(t_uint256)50_storage": {
        "base": "t_uint256",
        "encoding": "inplace",
        "label": "uint256[50]",
        "numberOfBytes": "1600"
      },
      "t_array(t_uint256)dyn_storage": {
        "base": "t_uint256",
        "encoding": "dynamic_array",
        "label": "uint256[]",
        "numberOfBytes": "32"
      },
      "t_bool": {
        "encoding": "inplace",
        "label": "bool",
        "numberOfBytes": "1"
      },
      "t_bytes32": {
        "encoding": "inplace",
        "label": "bytes32",
        "numberOfBytes": "32"
      },
      "t_contract(ICaskSubscriptionManager)12682": {
        "encoding": "inplace",
        "label": "contract ICaskSubscriptionManager",
        "numberOfBytes": "20"
      },
      "t_contract(ICaskSubscriptionPlans)12865": {
        "encoding": "inplace",
        "label": "contract ICaskSubscriptionPlans",
        "numberOfBytes": "20"
      },
      "t_enum(SubscriptionStatus)12879": {
        "encoding": "inplace",
        "label": "enum ICaskSubscriptions.SubscriptionStatus",
        "numberOfBytes": "1"
      },
      "t_mapping(t_address,t_array(t_uint256)dyn_storage)": {
        "encoding": "mapping",
        "key": "t_address",
        "label": "mapping(address => uint256[])",
        "numberOfBytes": "32",
        "value": "t_array(t_uint256)dyn_storage"
      },
      "t_mapping(t_address,t_bool)": {
        "encoding": "mapping",
        "key": "t_address",
        "label": "mapping(address => bool)",
        "numberOfBytes": "32",
        "value": "t_bool"
      },
      "t_mapping(t_address,t_mapping(t_address,t_bool))": {
        "encoding": "mapping",
        "key": "t_address",
        "label": "mapping(address => mapping(address => bool))",
        "numberOfBytes": "32",
        "value": "t_mapping(t_address,t_bool)"
      },
      "t_mapping(t_address,t_mapping(t_address,t_mapping(t_uint32,t_uint256)))": {
        "encoding": "mapping",
        "key": "t_address",
        "label": "mapping(address => mapping(address => mapping(uint32 => uint256)))",
        "numberOfBytes": "32",
        "value": "t_mapping(t_address,t_mapping(t_uint32,t_uint256))"
      },
      "t_mapping(t_address,t_mapping(t_uint32,t_uint256))": {
        "encoding": "mapping",
        "key": "t_address",
        "label": "mapping(address => mapping(uint32 => uint256))",
        "numberOfBytes": "32",
        "value": "t_mapping(t_uint32,t_uint256)"
      },
      "t_mapping(t_address,t_uint256)": {
        "encoding": "mapping",
        "key": "t_address",
        "label": "mapping(address => uint256)",
        "numberOfBytes": "32",
        "value": "t_uint256"
      },
      "t_mapping(t_uint256,t_address)": {
        "encoding": "mapping",
        "key": "t_uint256",
        "label": "mapping(uint256 => address)",
        "numberOfBytes": "32",
        "value": "t_address"
      },
      "t_mapping(t_uint256,t_bytes32)": {
        "encoding": "mapping",
        "key": "t_uint256",
        "label": "mapping(uint256 => bytes32)",
        "numberOfBytes": "32",
        "value": "t_bytes32"
      },
      "t_mapping(t_uint256,t_struct(Subscription)12917_storage)": {
        "encoding": "mapping",
        "key": "t_uint256",
        "label": "mapping(uint256 => struct ICaskSubscriptions.Subscription)",
        "numberOfBytes": "32",
        "value": "t_struct(Subscription)12917_storage"
      },
      "t_mapping(t_uint32,t_uint256)": {
        "encoding": "mapping",
        "key": "t_uint32",
        "label": "mapping(uint32 => uint256)",
        "numberOfBytes": "32",
        "value": "t_uint256"
      },
      "t_string_storage": {
        "encoding": "bytes",
        "label": "string",
        "numberOfBytes": "32"
      },
      "t_struct(Subscription)12917_storage": {
        "encoding": "inplace",
        "label": "struct ICaskSubscriptions.Subscription",
        "members": [
          {
            "astId": 12889,
            "contract": "contracts/subscriptions/CaskSubscriptions.sol:CaskSubscriptions",
            "label": "planData",
            "offset": 0,
            "slot": "0",
            "type": "t_bytes32"
          },
          {
            "astId": 12891,
            "contract": "contracts/subscriptions/CaskSubscriptions.sol:CaskSubscriptions",
            "label": "networkData",
            "offset": 0,
            "slot": "1",
            "type": "t_bytes32"
          },
          {
            "astId": 12893,
            "contract": "contracts/subscriptions/CaskSubscriptions.sol:CaskSubscriptions",
            "label": "discountId",
            "offset": 0,
            "slot": "2",
            "type": "t_bytes32"
          },
          {
            "astId": 12895,
            "contract": "contracts/subscriptions/CaskSubscriptions.sol:CaskSubscriptions",
            "label": "discountData",
            "offset": 0,
            "slot": "3",
            "type": "t_bytes32"
          },
          {
            "astId": 12897,
            "contract": "contracts/subscriptions/CaskSubscriptions.sol:CaskSubscriptions",
            "label": "ref",
            "offset": 0,
            "slot": "4",
            "type": "t_bytes32"
          },
          {
            "astId": 12899,
            "contract": "contracts/subscriptions/CaskSubscriptions.sol:CaskSubscriptions",
            "label": "provider",
            "offset": 0,
            "slot": "5",
            "type": "t_address"
          },
          {
            "astId": 12902,
            "contract": "contracts/subscriptions/CaskSubscriptions.sol:CaskSubscriptions",
            "label": "status",
            "offset": 20,
            "slot": "5",
            "type": "t_enum(SubscriptionStatus)12879"
          },
          {
            "astId": 12904,
            "contract": "contracts/subscriptions/CaskSubscriptions.sol:CaskSubscriptions",
            "label": "planId",
            "offset": 21,
            "slot": "5",
            "type": "t_uint32"
          },
          {
            "astId": 12906,
            "contract": "contracts/subscriptions/CaskSubscriptions.sol:CaskSubscriptions",
            "label": "createdAt",
            "offset": 25,
            "slot": "5",
            "type": "t_uint32"
          },
          {
            "astId": 12908,
            "contract": "contracts/subscriptions/CaskSubscriptions.sol:CaskSubscriptions",
            "label": "renewAt",
            "offset": 0,
            "slot": "6",
            "type": "t_uint32"
          },
          {
            "astId": 12910,
            "contract": "contracts/subscriptions/CaskSubscriptions.sol:CaskSubscriptions",
            "label": "minTermAt",
            "offset": 4,
            "slot": "6",
            "type": "t_uint32"
          },
          {
            "astId": 12912,
            "contract": "contracts/subscriptions/CaskSubscriptions.sol:CaskSubscriptions",
            "label": "cancelAt",
            "offset": 8,
            "slot": "6",
            "type": "t_uint32"
          },
          {
            "astId": 12914,
            "contract": "contracts/subscriptions/CaskSubscriptions.sol:CaskSubscriptions",
            "label": "cid",
            "offset": 0,
            "slot": "7",
            "type": "t_string_storage"
          },
          {
            "astId": 12916,
            "contract": "contracts/subscriptions/CaskSubscriptions.sol:CaskSubscriptions",
            "label": "dataCid",
            "offset": 0,
            "slot": "8",
            "type": "t_string_storage"
          }
        ],
        "numberOfBytes": "288"
      },
      "t_uint256": {
        "encoding": "inplace",
        "label": "uint256",
        "numberOfBytes": "32"
      },
      "t_uint32": {
        "encoding": "inplace",
        "label": "uint32",
        "numberOfBytes": "4"
      }
    }
  }
}