{
  "address": "0x139c389656BF0aAb88B20d561F89fE2Ac114E07A",
  "abi": [
    {
      "inputs": [],
      "stateMutability": "nonpayable",
      "type": "constructor"
    },
    {
      "anonymous": false,
      "inputs": [
        {
          "indexed": true,
          "internalType": "address",
          "name": "owner",
          "type": "address"
        },
        {
          "indexed": true,
          "internalType": "address",
          "name": "approved",
          "type": "address"
        },
        {
          "indexed": true,
          "internalType": "uint256",
          "name": "tokenId",
          "type": "uint256"
        }
      ],
      "name": "Approval",
      "type": "event"
    },
    {
      "anonymous": false,
      "inputs": [
        {
          "indexed": true,
          "internalType": "address",
          "name": "owner",
          "type": "address"
        },
        {
          "indexed": true,
          "internalType": "address",
          "name": "operator",
          "type": "address"
        },
        {
          "indexed": false,
          "internalType": "bool",
          "name": "approved",
          "type": "bool"
        }
      ],
      "name": "ApprovalForAll",
      "type": "event"
    },
    {
      "anonymous": false,
      "inputs": [
        {
          "indexed": true,
          "internalType": "address",
          "name": "previousOwner",
          "type": "address"
        },
        {
          "indexed": true,
          "internalType": "address",
          "name": "newOwner",
          "type": "address"
        }
      ],
      "name": "OwnershipTransferred",
      "type": "event"
    },
    {
      "anonymous": false,
      "inputs": [
        {
          "indexed": false,
          "internalType": "address",
          "name": "account",
          "type": "address"
        }
      ],
      "name": "Paused",
      "type": "event"
    },
    {
      "anonymous": false,
      "inputs": [
        {
          "indexed": true,
          "internalType": "address",
          "name": "consumer",
          "type": "address"
        },
        {
          "indexed": true,
          "internalType": "address",
          "name": "provider",
          "type": "address"
        },
        {
          "indexed": true,
          "internalType": "uint256",
          "name": "subscriptionId",
          "type": "uint256"
        },
        {
          "indexed": false,
          "internalType": "bytes32",
          "name": "ref",
          "type": "bytes32"
        },
        {
          "indexed": false,
          "internalType": "uint32",
          "name": "planId",
          "type": "uint32"
        }
      ],
      "name": "SubscriptionCanceled",
      "type": "event"
    },
    {
      "anonymous": false,
      "inputs": [
        {
          "indexed": true,
          "internalType": "address",
          "name": "consumer",
          "type": "address"
        },
        {
          "indexed": true,
          "internalType": "address",
          "name": "provider",
          "type": "address"
        },
        {
          "indexed": true,
          "internalType": "uint256",
          "name": "subscriptionId",
          "type": "uint256"
        },
        {
          "indexed": false,
          "internalType": "bytes32",
          "name": "ref",
          "type": "bytes32"
        },
        {
          "indexed": false,
          "internalType": "uint32",
          "name": "prevPlanId",
          "type": "uint32"
        },
        {
          "indexed": false,
          "internalType": "uint32",
          "name": "planId",
          "type": "uint32"
        },
        {
          "indexed": false,
          "internalType": "bytes32",
          "name": "discountId",
          "type": "bytes32"
        }
      ],
      "name": "SubscriptionChangedPlan",
      "type": "event"
    },
    {
      "anonymous": false,
      "inputs": [
        {
          "indexed": true,
          "internalType": "address",
          "name": "consumer",
          "type": "address"
        },
        {
          "indexed": true,
          "internalType": "address",
          "name": "provider",
          "type": "address"
        },
        {
          "indexed": true,
          "internalType": "uint256",
          "name": "subscriptionId",
          "type": "uint256"
        },
        {
          "indexed": false,
          "internalType": "bytes32",
          "name": "ref",
          "type": "bytes32"
        },
        {
          "indexed": false,
          "internalType": "uint32",
          "name": "planId",
          "type": "uint32"
        },
        {
          "indexed": false,
          "internalType": "bytes32",
          "name": "discountId",
          "type": "bytes32"
        }
      ],
      "name": "SubscriptionCreated",
      "type": "event"
    },
    {
      "anonymous": false,
      "inputs": [
        {
          "indexed": true,
          "internalType": "address",
          "name": "consumer",
          "type": "address"
        },
        {
          "indexed": true,
          "internalType": "address",
          "name": "provider",
          "type": "address"
        },
        {
          "indexed": true,
          "internalType": "uint256",
          "name": "subscriptionId",
          "type": "uint256"
        },
        {
          "indexed": false,
          "internalType": "bytes32",
          "name": "ref",
          "type": "bytes32"
        },
        {
          "indexed": false,
          "internalType": "uint32",
          "name": "planId",
          "type": "uint32"
        }
      ],
      "name": "SubscriptionPastDue",
      "type": "event"
    },
    {
      "anonymous": false,
      "inputs": [
        {
          "indexed": true,
          "internalType": "address",
          "name": "consumer",
          "type": "address"
        },
        {
          "indexed": true,
          "internalType": "address",
          "name": "provider",
          "type": "address"
        },
        {
          "indexed": true,
          "internalType": "uint256",
          "name": "subscriptionId",
          "type": "uint256"
        },
        {
          "indexed": false,
          "internalType": "bytes32",
          "name": "ref",
          "type": "bytes32"
        },
        {
          "indexed": false,
          "internalType": "uint32",
          "name": "planId",
          "type": "uint32"
        }
      ],
      "name": "SubscriptionPaused",
      "type": "event"
    },
    {
      "anonymous": false,
      "inputs": [
        {
          "indexed": true,
          "internalType": "address",
          "name": "consumer",
          "type": "address"
        },
        {
          "indexed": true,
          "internalType": "address",
          "name": "provider",
          "type": "address"
        },
        {
          "indexed": true,
          "internalType": "uint256",
          "name": "subscriptionId",
          "type": "uint256"
        },
        {
          "indexed": false,
          "internalType": "bytes32",
          "name": "ref",
          "type": "bytes32"
        },
        {
          "indexed": false,
          "internalType": "uint32",
          "name": "planId",
          "type": "uint32"
        },
        {
          "indexed": false,
          "internalType": "uint32",
          "name": "cancelAt",
          "type": "uint32"
        }
      ],
      "name": "SubscriptionPendingCancel",
      "type": "event"
    },
    {
      "anonymous": false,
      "inputs": [
        {
          "indexed": true,
          "internalType": "address",
          "name": "consumer",
          "type": "address"
        },
        {
          "indexed": true,
          "internalType": "address",
          "name": "provider",
          "type": "address"
        },
        {
          "indexed": true,
          "internalType": "uint256",
          "name": "subscriptionId",
          "type": "uint256"
        },
        {
          "indexed": false,
          "internalType": "bytes32",
          "name": "ref",
          "type": "bytes32"
        },
        {
          "indexed": false,
          "internalType": "uint32",
          "name": "prevPlanId",
          "type": "uint32"
        },
        {
          "indexed": false,
          "internalType": "uint32",
          "name": "planId",
          "type": "uint32"
        }
      ],
      "name": "SubscriptionPendingChangePlan",
      "type": "event"
    },
    {
      "anonymous": false,
      "inputs": [
        {
          "indexed": true,
          "internalType": "address",
          "name": "consumer",
          "type": "address"
        },
        {
          "indexed": true,
          "internalType": "address",
          "name": "provider",
          "type": "address"
        },
        {
          "indexed": true,
          "internalType": "uint256",
          "name": "subscriptionId",
          "type": "uint256"
        },
        {
          "indexed": false,
          "internalType": "bytes32",
          "name": "ref",
          "type": "bytes32"
        },
        {
          "indexed": false,
          "internalType": "uint32",
          "name": "planId",
          "type": "uint32"
        }
      ],
      "name": "SubscriptionPendingPause",
      "type": "event"
    },
    {
      "anonymous": false,
      "inputs": [
        {
          "indexed": true,
          "internalType": "address",
          "name": "consumer",
          "type": "address"
        },
        {
          "indexed": true,
          "internalType": "address",
          "name": "provider",
          "type": "address"
        },
        {
          "indexed": true,
          "internalType": "uint256",
          "name": "subscriptionId",
          "type": "uint256"
        },
        {
          "indexed": false,
          "internalType": "bytes32",
          "name": "ref",
          "type": "bytes32"
        },
        {
          "indexed": false,
          "internalType": "uint32",
          "name": "planId",
          "type": "uint32"
        }
      ],
      "name": "SubscriptionRenewed",
      "type": "event"
    },
    {
      "anonymous": false,
      "inputs": [
        {
          "indexed": true,
          "internalType": "address",
          "name": "consumer",
          "type": "address"
        },
        {
          "indexed": true,
          "internalType": "address",
          "name": "provider",
          "type": "address"
        },
        {
          "indexed": true,
          "internalType": "uint256",
          "name": "subscriptionId",
          "type": "uint256"
        },
        {
          "indexed": false,
          "internalType": "bytes32",
          "name": "ref",
          "type": "bytes32"
        },
        {
          "indexed": false,
          "internalType": "uint32",
          "name": "planId",
          "type": "uint32"
        }
      ],
      "name": "SubscriptionResumed",
      "type": "event"
    },
    {
      "anonymous": false,
      "inputs": [
        {
          "indexed": true,
          "internalType": "address",
          "name": "consumer",
          "type": "address"
        },
        {
          "indexed": true,
          "internalType": "address",
          "name": "provider",
          "type": "address"
        },
        {
          "indexed": true,
          "internalType": "uint256",
          "name": "subscriptionId",
          "type": "uint256"
        },
        {
          "indexed": false,
          "internalType": "bytes32",
          "name": "ref",
          "type": "bytes32"
        },
        {
          "indexed": false,
          "internalType": "uint32",
          "name": "planId",
          "type": "uint32"
        }
      ],
      "name": "SubscriptionTrialEnded",
      "type": "event"
    },
    {
      "anonymous": false,
      "inputs": [
        {
          "indexed": true,
          "internalType": "address",
          "name": "from",
          "type": "address"
        },
        {
          "indexed": true,
          "internalType": "address",
          "name": "to",
          "type": "address"
        },
        {
          "indexed": true,
          "internalType": "uint256",
          "name": "tokenId",
          "type": "uint256"
        }
      ],
      "name": "Transfer",
      "type": "event"
    },
    {
      "anonymous": false,
      "inputs": [
        {
          "indexed": false,
          "internalType": "address",
          "name": "account",
          "type": "address"
        }
      ],
      "name": "Unpaused",
      "type": "event"
    },
    {
      "inputs": [
        {
          "internalType": "address",
          "name": "to",
          "type": "address"
        },
        {
          "internalType": "uint256",
          "name": "tokenId",
          "type": "uint256"
        }
      ],
      "name": "approve",
      "outputs": [],
      "stateMutability": "nonpayable",
      "type": "function"
    },
    {
      "inputs": [
        {
          "internalType": "uint256",
          "name": "_subscriptionId",
          "type": "uint256"
        },
        {
          "internalType": "string",
          "name": "_dataCid",
          "type": "string"
        }
      ],
      "name": "attachData",
      "outputs": [],
      "stateMutability": "nonpayable",
      "type": "function"
    },
    {
      "inputs": [
        {
          "internalType": "address",
          "name": "owner",
          "type": "address"
        }
      ],
      "name": "balanceOf",
      "outputs": [
        {
          "internalType": "uint256",
          "name": "",
          "type": "uint256"
        }
      ],
      "stateMutability": "view",
      "type": "function"
    },
    {
      "inputs": [
        {
          "internalType": "uint256",
          "name": "_subscriptionId",
          "type": "uint256"
        },
        {
          "internalType": "uint32",
          "name": "_cancelAt",
          "type": "uint32"
        }
      ],
      "name": "cancelSubscription",
      "outputs": [],
      "stateMutability": "nonpayable",
      "type": "function"
    },
    {
      "inputs": [
        {
          "internalType": "uint256",
          "name": "_subscriptionId",
          "type": "uint256"
        },
        {
          "internalType": "uint256",
          "name": "_nonce",
          "type": "uint256"
        },
        {
          "internalType": "bytes32[]",
          "name": "_planProof",
          "type": "bytes32[]"
        },
        {
          "internalType": "bytes32[]",
          "name": "_discountProof",
          "type": "bytes32[]"
        },
        {
          "internalType": "bytes",
          "name": "_providerSignature",
          "type": "bytes"
        },
        {
          "internalType": "string",
          "name": "_cid",
          "type": "string"
        }
      ],
      "name": "changeSubscriptionPlan",
      "outputs": [],
      "stateMutability": "nonpayable",
      "type": "function"
    },
    {
      "inputs": [
        {
          "internalType": "uint256",
          "name": "_nonce",
          "type": "uint256"
        },
        {
          "internalType": "bytes32[]",
          "name": "_planProof",
          "type": "bytes32[]"
        },
        {
          "internalType": "bytes32[]",
          "name": "_discountProof",
          "type": "bytes32[]"
        },
        {
          "internalType": "bytes32",
          "name": "_networkData",
          "type": "bytes32"
        },
        {
          "internalType": "uint32",
          "name": "_cancelAt",
          "type": "uint32"
        },
        {
          "internalType": "bytes",
          "name": "_providerSignature",
          "type": "bytes"
        },
        {
          "internalType": "bytes",
          "name": "_networkSignature",
          "type": "bytes"
        },
        {
          "internalType": "string",
          "name": "_cid",
          "type": "string"
        }
      ],
      "name": "createNetworkSubscription",
      "outputs": [],
      "stateMutability": "nonpayable",
      "type": "function"
    },
    {
      "inputs": [
        {
          "internalType": "uint256",
          "name": "_nonce",
          "type": "uint256"
        },
        {
          "internalType": "bytes32[]",
          "name": "_planProof",
          "type": "bytes32[]"
        },
        {
          "internalType": "bytes32[]",
          "name": "_discountProof",
          "type": "bytes32[]"
        },
        {
          "internalType": "uint32",
          "name": "_cancelAt",
          "type": "uint32"
        },
        {
          "internalType": "bytes",
          "name": "_providerSignature",
          "type": "bytes"
        },
        {
          "internalType": "string",
          "name": "_cid",
          "type": "string"
        }
      ],
      "name": "createSubscription",
      "outputs": [],
      "stateMutability": "nonpayable",
      "type": "function"
    },
    {
      "inputs": [
        {
          "internalType": "uint256",
          "name": "tokenId",
          "type": "uint256"
        }
      ],
      "name": "getApproved",
      "outputs": [
        {
          "internalType": "address",
          "name": "",
          "type": "address"
        }
      ],
      "stateMutability": "view",
      "type": "function"
    },
    {
      "inputs": [
        {
          "internalType": "address",
          "name": "_consumer",
          "type": "address"
        }
      ],
      "name": "getConsumerSubscriptionCount",
      "outputs": [
        {
          "internalType": "uint256",
          "name": "",
          "type": "uint256"
        }
      ],
      "stateMutability": "view",
      "type": "function"
    },
    {
      "inputs": [
        {
          "internalType": "address",
          "name": "_consumer",
          "type": "address"
        },
        {
          "internalType": "uint256",
          "name": "_limit",
          "type": "uint256"
        },
        {
          "internalType": "uint256",
          "name": "_offset",
          "type": "uint256"
        }
      ],
      "name": "getConsumerSubscriptions",
      "outputs": [
        {
          "internalType": "uint256[]",
          "name": "",
          "type": "uint256[]"
        }
      ],
      "stateMutability": "view",
      "type": "function"
    },
    {
      "inputs": [
        {
          "internalType": "uint256",
          "name": "_subscriptionId",
          "type": "uint256"
        }
      ],
      "name": "getPendingPlanChange",
      "outputs": [
        {
          "internalType": "bytes32",
          "name": "",
          "type": "bytes32"
        }
      ],
      "stateMutability": "view",
      "type": "function"
    },
    {
      "inputs": [
        {
          "internalType": "address",
          "name": "_provider",
          "type": "address"
        },
        {
          "internalType": "bool",
          "name": "_includeCanceled",
          "type": "bool"
        },
        {
          "internalType": "uint32",
          "name": "_planId",
          "type": "uint32"
        }
      ],
      "name": "getProviderSubscriptionCount",
      "outputs": [
        {
          "internalType": "uint256",
          "name": "",
          "type": "uint256"
        }
      ],
      "stateMutability": "view",
      "type": "function"
    },
    {
      "inputs": [
        {
          "internalType": "address",
          "name": "_provider",
          "type": "address"
        },
        {
          "internalType": "uint256",
          "name": "_limit",
          "type": "uint256"
        },
        {
          "internalType": "uint256",
          "name": "_offset",
          "type": "uint256"
        }
      ],
      "name": "getProviderSubscriptions",
      "outputs": [
        {
          "internalType": "uint256[]",
          "name": "",
          "type": "uint256[]"
        }
      ],
      "stateMutability": "view",
      "type": "function"
    },
    {
      "inputs": [
        {
          "internalType": "uint256",
          "name": "_subscriptionId",
          "type": "uint256"
        }
      ],
      "name": "getSubscription",
      "outputs": [
        {
          "components": [
            {
              "internalType": "bytes32",
              "name": "planData",
              "type": "bytes32"
            },
            {
              "internalType": "bytes32",
              "name": "networkData",
              "type": "bytes32"
            },
            {
              "internalType": "bytes32",
              "name": "discountId",
              "type": "bytes32"
            },
            {
              "internalType": "bytes32",
              "name": "discountData",
              "type": "bytes32"
            },
            {
              "internalType": "bytes32",
              "name": "ref",
              "type": "bytes32"
            },
            {
              "internalType": "address",
              "name": "provider",
              "type": "address"
            },
            {
              "internalType": "enum ICaskSubscriptions.SubscriptionStatus",
              "name": "status",
              "type": "uint8"
            },
            {
              "internalType": "uint32",
              "name": "planId",
              "type": "uint32"
            },
            {
              "internalType": "uint32",
              "name": "createdAt",
              "type": "uint32"
            },
            {
              "internalType": "uint32",
              "name": "renewAt",
              "type": "uint32"
            },
            {
              "internalType": "uint32",
              "name": "minTermAt",
              "type": "uint32"
            },
            {
              "internalType": "uint32",
              "name": "cancelAt",
              "type": "uint32"
            },
            {
              "internalType": "string",
              "name": "cid",
              "type": "string"
            },
            {
              "internalType": "string",
              "name": "dataCid",
              "type": "string"
            }
          ],
          "internalType": "struct ICaskSubscriptions.Subscription",
          "name": "subscription",
          "type": "tuple"
        },
        {
          "internalType": "address",
          "name": "currentOwner",
          "type": "address"
        }
      ],
      "stateMutability": "view",
      "type": "function"
    },
    {
      "inputs": [
        {
          "internalType": "address",
          "name": "_subscriptionPlans",
          "type": "address"
        }
      ],
      "name": "initialize",
      "outputs": [],
      "stateMutability": "nonpayable",
      "type": "function"
    },
    {
      "inputs": [
        {
          "internalType": "address",
          "name": "owner",
          "type": "address"
        },
        {
          "internalType": "address",
          "name": "operator",
          "type": "address"
        }
      ],
      "name": "isApprovedForAll",
      "outputs": [
        {
          "internalType": "bool",
          "name": "",
          "type": "bool"
        }
      ],
      "stateMutability": "view",
      "type": "function"
    },
    {
      "inputs": [
        {
          "internalType": "address",
          "name": "forwarder",
          "type": "address"
        }
      ],
      "name": "isTrustedForwarder",
      "outputs": [
        {
          "internalType": "bool",
          "name": "",
          "type": "bool"
        }
      ],
      "stateMutability": "view",
      "type": "function"
    },
    {
      "inputs": [
        {
          "internalType": "uint256",
          "name": "_subscriptionId",
          "type": "uint256"
        },
        {
          "internalType": "enum ICaskSubscriptions.ManagerCommand",
          "name": "_command",
          "type": "uint8"
        }
      ],
      "name": "managerCommand",
      "outputs": [],
      "stateMutability": "nonpayable",
      "type": "function"
    },
    {
      "inputs": [],
      "name": "name",
      "outputs": [
        {
          "internalType": "string",
          "name": "",
          "type": "string"
        }
      ],
      "stateMutability": "view",
      "type": "function"
    },
    {
      "inputs": [],
      "name": "owner",
      "outputs": [
        {
          "internalType": "address",
          "name": "",
          "type": "address"
        }
      ],
      "stateMutability": "view",
      "type": "function"
    },
    {
      "inputs": [
        {
          "internalType": "uint256",
          "name": "tokenId",
          "type": "uint256"
        }
      ],
      "name": "ownerOf",
      "outputs": [
        {
          "internalType": "address",
          "name": "",
          "type": "address"
        }
      ],
      "stateMutability": "view",
      "type": "function"
    },
    {
      "inputs": [],
      "name": "pause",
      "outputs": [],
      "stateMutability": "nonpayable",
      "type": "function"
    },
    {
      "inputs": [
        {
          "internalType": "uint256",
          "name": "_subscriptionId",
          "type": "uint256"
        }
      ],
      "name": "pauseSubscription",
      "outputs": [],
      "stateMutability": "nonpayable",
      "type": "function"
    },
    {
      "inputs": [],
      "name": "paused",
      "outputs": [
        {
          "internalType": "bool",
          "name": "",
          "type": "bool"
        }
      ],
      "stateMutability": "view",
      "type": "function"
    },
    {
      "inputs": [],
      "name": "renounceOwnership",
      "outputs": [],
      "stateMutability": "nonpayable",
      "type": "function"
    },
    {
      "inputs": [
        {
          "internalType": "uint256",
          "name": "_subscriptionId",
          "type": "uint256"
        }
      ],
      "name": "resumeSubscription",
      "outputs": [],
      "stateMutability": "nonpayable",
      "type": "function"
    },
    {
      "inputs": [
        {
          "internalType": "address",
          "name": "from",
          "type": "address"
        },
        {
          "internalType": "address",
          "name": "to",
          "type": "address"
        },
        {
          "internalType": "uint256",
          "name": "tokenId",
          "type": "uint256"
        }
      ],
      "name": "safeTransferFrom",
      "outputs": [],
      "stateMutability": "nonpayable",
      "type": "function"
    },
    {
      "inputs": [
        {
          "internalType": "address",
          "name": "from",
          "type": "address"
        },
        {
          "internalType": "address",
          "name": "to",
          "type": "address"
        },
        {
          "internalType": "uint256",
          "name": "tokenId",
          "type": "uint256"
        },
        {
          "internalType": "bytes",
          "name": "_data",
          "type": "bytes"
        }
      ],
      "name": "safeTransferFrom",
      "outputs": [],
      "stateMutability": "nonpayable",
      "type": "function"
    },
    {
      "inputs": [
        {
          "internalType": "address",
          "name": "operator",
          "type": "address"
        },
        {
          "internalType": "bool",
          "name": "approved",
          "type": "bool"
        }
      ],
      "name": "setApprovalForAll",
      "outputs": [],
      "stateMutability": "nonpayable",
      "type": "function"
    },
    {
      "inputs": [
        {
          "internalType": "address",
          "name": "_subscriptionManager",
          "type": "address"
        }
      ],
      "name": "setManager",
      "outputs": [],
      "stateMutability": "nonpayable",
      "type": "function"
    },
    {
      "inputs": [
        {
          "internalType": "address",
          "name": "_forwarder",
          "type": "address"
        }
      ],
      "name": "setTrustedForwarder",
      "outputs": [],
      "stateMutability": "nonpayable",
      "type": "function"
    },
    {
      "inputs": [],
      "name": "subscriptionManager",
      "outputs": [
        {
          "internalType": "contract ICaskSubscriptionManager",
          "name": "",
          "type": "address"
        }
      ],
      "stateMutability": "view",
      "type": "function"
    },
    {
      "inputs": [],
      "name": "subscriptionPlans",
      "outputs": [
        {
          "internalType": "contract ICaskSubscriptionPlans",
          "name": "",
          "type": "address"
        }
      ],
      "stateMutability": "view",
      "type": "function"
    },
    {
      "inputs": [
        {
          "internalType": "bytes4",
          "name": "interfaceId",
          "type": "bytes4"
        }
      ],
      "name": "supportsInterface",
      "outputs": [
        {
          "internalType": "bool",
          "name": "",
          "type": "bool"
        }
      ],
      "stateMutability": "view",
      "type": "function"
    },
    {
      "inputs": [],
      "name": "symbol",
      "outputs": [
        {
          "internalType": "string",
          "name": "",
          "type": "string"
        }
      ],
      "stateMutability": "view",
      "type": "function"
    },
    {
      "inputs": [
        {
          "internalType": "uint256",
          "name": "_subscriptionId",
          "type": "uint256"
        }
      ],
      "name": "tokenURI",
      "outputs": [
        {
          "internalType": "string",
          "name": "",
          "type": "string"
        }
      ],
      "stateMutability": "view",
      "type": "function"
    },
    {
      "inputs": [
        {
          "internalType": "address",
          "name": "from",
          "type": "address"
        },
        {
          "internalType": "address",
          "name": "to",
          "type": "address"
        },
        {
          "internalType": "uint256",
          "name": "tokenId",
          "type": "uint256"
        }
      ],
      "name": "transferFrom",
      "outputs": [],
      "stateMutability": "nonpayable",
      "type": "function"
    },
    {
      "inputs": [
        {
          "internalType": "address",
          "name": "newOwner",
          "type": "address"
        }
      ],
      "name": "transferOwnership",
      "outputs": [],
      "stateMutability": "nonpayable",
      "type": "function"
    },
    {
      "inputs": [],
      "name": "trustedForwarder",
      "outputs": [
        {
          "internalType": "address",
          "name": "",
          "type": "address"
        }
      ],
      "stateMutability": "view",
      "type": "function"
    },
    {
      "inputs": [],
      "name": "unpause",
      "outputs": [],
      "stateMutability": "nonpayable",
      "type": "function"
    },
    {
      "inputs": [],
      "name": "versionRecipient",
      "outputs": [
        {
          "internalType": "string",
          "name": "",
          "type": "string"
        }
      ],
      "stateMutability": "pure",
      "type": "function"
    }
  ],
  "transactionHash": "0x312de74826277d0d634c6259e75c9fd09ec40bcab8f6ee4541b409fd12459013",
  "args": [],
  "numDeployments": 6,
  "solcInputHash": "16b046265d9fa9f9b5271440aca68be4",
  "bytecode": "0x60806040523480156200001157600080fd5b50600054610100900460ff166200002f5760005460ff161562000039565b62000039620000de565b620000a15760405162461bcd60e51b815260206004820152602e60248201527f496e697469616c697a61626c653a20636f6e747261637420697320616c72656160448201526d191e481a5b9a5d1a585b1a5e995960921b606482015260840160405180910390fd5b600054610100900460ff16158015620000c4576000805461ffff19166101011790555b8015620000d7576000805461ff00191690555b5062000102565b6000620000f630620000fc60201b620029fa1760201c565b15905090565b3b151590565b615d8180620001126000396000f3fe608060405234801561001057600080fd5b50600436106102535760003560e01c80637df7b2aa11610146578063b88d4fde116100c3578063d0ebdbe711610087578063d0ebdbe714610546578063da74222814610559578063dc311dd31461056c578063e985e9c51461058d578063f2fde38b146105c9578063f6189f0e146105dc57600080fd5b8063b88d4fde146104d9578063bf158fd2146104ec578063c4d66de8146104ff578063c86e695414610512578063c87b56dd1461053357600080fd5b8063925fa5911161010a578063925fa5911461047857806395d89b411461048b578063a22cb46514610493578063ab5f8b7c146104a6578063ac58e37b146104c657600080fd5b80637df7b2aa14610426578063825527ff146104395780638456cb591461044c5780638da5cb5b146104545780638fe17b161461046557600080fd5b806345041a46116101d45780636352211e116101985780636352211e146103d457806370a08231146103e7578063715018a6146103fa57806374c14439146104025780637da0a8771461041557600080fd5b806345041a4614610360578063486ff0cd146103735780634d5106ae14610394578063572b6c05146103a75780635c975abb146103c957600080fd5b806323b872dd1161021b57806323b872dd146102e8578063291b9a3f146102fb5780633f4ba83a1461033257806341f23f0a1461033a57806342842e0e1461034d57600080fd5b806301ffc9a714610258578063023a584e1461028057806306fdde0314610295578063081812fc146102aa578063095ea7b3146102d5575b600080fd5b61026b610266366004614ea0565b6105ef565b60405190151581526020015b60405180910390f35b61029361028e366004614ebd565b610641565b005b61029d610a25565b6040516102779190614f2e565b6102bd6102b8366004614ebd565b610ab7565b6040516001600160a01b039091168152602001610277565b6102936102e3366004614f56565b610b4c565b6102936102f6366004614f82565b610c74565b610324610309366004614fc3565b6001600160a01b0316600090815260fe602052604090205490565b604051908152602001610277565b610293610cac565b610293610348366004614ebd565b610cff565b61029361035b366004614f82565b610f8e565b61029361036e366004615021565b610fa9565b6040805180820190915260058152640322e322e360dc1b602082015261029d565b6102936103a23660046151b4565b6110c1565b61026b6103b5366004614fc3565b6065546001600160a01b0391821691161490565b60ca5460ff1661026b565b6102bd6103e2366004614ebd565b611101565b6103246103f5366004614fc3565b611178565b6102936111ff565b61032461041036600461529f565b611252565b6065546001600160a01b03166102bd565b6102936104343660046152e6565b6112da565b61029361044736600461531a565b6119a7565b610293611a0b565b6098546001600160a01b03166102bd565b60fd546102bd906001600160a01b031681565b610293610486366004615429565b611a5c565b61029d611e13565b6102936104a1366004615455565b611e22565b6104b96104b4366004615483565b611e34565b60405161027791906154b8565b6102936104d43660046154fc565b611fbb565b6102936104e7366004615589565b612030565b60fc546102bd906001600160a01b031681565b61029361050d366004614fc3565b612069565b610324610520366004614ebd565b6000908152610100602052604090205490565b61029d610541366004614ebd565b6121a1565b610293610554366004614fc3565b61245b565b610293610567366004614fc3565b6124c6565b61057f61057a366004614ebd565b612530565b60405161027792919061562c565b61026b61059b36600461576a565b6001600160a01b039182166000908152606b6020908152604080832093909416825291909152205460ff1690565b6102936105d7366004614fc3565b6127ef565b6104b96105ea366004615483565b6128a6565b60006001600160e01b031982166380ac58cd60e01b148061062057506001600160e01b03198216635b5e139f60e01b145b8061063b57506301ffc9a760e01b6001600160e01b03198316145b92915050565b8061064b81611101565b6001600160a01b031661065c612a00565b6001600160a01b03161461068b5760405162461bcd60e51b815260040161068290615798565b60405180910390fd5b60ca5460ff16156106ae5760405162461bcd60e51b8152600401610682906157b7565b600082815260ff6020526040902060036005820154600160a01b900460ff1660068111156106de576106de6155f4565b1480610709575060066005820154600160a01b900460ff166006811115610707576107076155f4565b145b6107435760405162461bcd60e51b815260206004820152600b60248201526a085393d517d4105554d15160aa1b6044820152606401610682565b60066005820154600160a01b900460ff166006811115610765576107656155f4565b141561078357600501805460ff60a01b1916600160a11b1790555050565b60006107928260000154612a0f565b9050806080015163ffffffff16600014806107e55750608081015160058301546001600160a01b03166000908152610103602090815260408083208286015163ffffffff90811685529252909120549116115b61081f5760405162461bcd60e51b815260206004820152600b60248201526a214d41585f41435449564560a81b6044820152606401610682565b600582018054600160a11b60ff60a01b198216179091556001600160a01b031660009081526101026020526040812080546001929061085f9084906157f7565b909155505060058201546001600160a01b038116600090815261010360209081526040808320600160a81b90940463ffffffff1683529290529081208054600192906108ac9084906157f7565b9091555050600682015463ffffffff428116911610156108de5760068201805463ffffffff19164263ffffffff161790555b60fc5460405163d71bb37b60e01b8152600481018690526001600160a01b039091169063d71bb37b90602401600060405180830381600087803b15801561092457600080fd5b505af1158015610938573d6000803e3d6000fd5b5060029250610945915050565b6005830154600160a01b900460ff166006811115610965576109656155f4565b146109a85760405162461bcd60e51b815260206004820152601360248201527221494e53554646494349454e545f46554e445360681b6044820152606401610682565b600582015484906001600160a01b03166109c182611101565b6004850154600586015460408051928352600160a81b90910463ffffffff1660208301526001600160a01b0392909216917f7ee0fc3eab7021686f891346ebbf5bab192d6f9995fcc66021f4551888dc148191015b60405180910390a450505b5050565b606060668054610a349061580f565b80601f0160208091040260200160405190810160405280929190818152602001828054610a609061580f565b8015610aad5780601f10610a8257610100808354040283529160200191610aad565b820191906000526020600020905b815481529060010190602001808311610a9057829003601f168201915b5050505050905090565b6000818152606860205260408120546001600160a01b0316610b305760405162461bcd60e51b815260206004820152602c60248201527f4552433732313a20617070726f76656420717565727920666f72206e6f6e657860448201526b34b9ba32b73a103a37b5b2b760a11b6064820152608401610682565b506000908152606a60205260409020546001600160a01b031690565b6000610b5782611101565b9050806001600160a01b0316836001600160a01b03161415610bc55760405162461bcd60e51b815260206004820152602160248201527f4552433732313a20617070726f76616c20746f2063757272656e74206f776e656044820152603960f91b6064820152608401610682565b806001600160a01b0316610bd7612a00565b6001600160a01b03161480610bf35750610bf38161059b612a00565b610c655760405162461bcd60e51b815260206004820152603860248201527f4552433732313a20617070726f76652063616c6c6572206973206e6f74206f7760448201527f6e6572206e6f7220617070726f76656420666f7220616c6c00000000000000006064820152608401610682565b610c6f8383612aea565b505050565b610c85610c7f612a00565b82612b58565b610ca15760405162461bcd60e51b81526004016106829061584a565b610c6f838383612c4f565b610cb4612a00565b6001600160a01b0316610ccf6098546001600160a01b031690565b6001600160a01b031614610cf55760405162461bcd60e51b81526004016106829061589b565b610cfd612dfa565b565b80610d0981611101565b6001600160a01b0316610d1a612a00565b6001600160a01b03161480610d585750600081815260ff60205260409020600501546001600160a01b0316610d4d612a00565b6001600160a01b0316145b610d745760405162461bcd60e51b815260040161068290615798565b60ca5460ff1615610d975760405162461bcd60e51b8152600401610682906157b7565b600082815260ff6020526040902060036005820154600160a01b900460ff166006811115610dc757610dc76155f4565b14158015610df45750600580820154600160a01b900460ff166006811115610df157610df16155f4565b14155b8015610e20575060046005820154600160a01b900460ff166006811115610e1d57610e1d6155f4565b14155b8015610e4c575060016005820154600160a01b900460ff166006811115610e4957610e496155f4565b14155b610e685760405162461bcd60e51b8152600401610682906158d0565b6006810154600160201b900463ffffffff161580610e9c5750600681015463ffffffff600160201b90910481164290911610155b610eb85760405162461bcd60e51b8152600401610682906158fa565b6000610ec78260000154612a0f565b90508060e00151610f0a5760405162461bcd60e51b815260206004820152600d60248201526c214e4f545f5041555341424c4560981b6044820152606401610682565b600582018054600360a11b60ff60a01b1982161790915584906001600160a01b0316610f3582611101565b6004850154600586015460408051928352600160a81b90910463ffffffff1660208301526001600160a01b0392909216917f3b1ababbfb41865093a096e886e08d3058f1adbce6c29e7be7ed6fd16b7080289101610a16565b610c6f83838360405180602001604052806000815250612030565b82610fb381611101565b6001600160a01b0316610fc4612a00565b6001600160a01b031614806110025750600081815260ff60205260409020600501546001600160a01b0316610ff7612a00565b6001600160a01b0316145b61101e5760405162461bcd60e51b815260040161068290615798565b60ca5460ff16156110415760405162461bcd60e51b8152600401610682906157b7565b600084815260ff6020526040902060046005820154600160a01b900460ff166006811115611071576110716155f4565b14156110ab5760405162461bcd60e51b81526020600482015260096024820152680850d05390d153115160ba1b6044820152606401610682565b6110b9600882018585614d7d565b505050505050565b60ca5460ff16156110e45760405162461bcd60e51b8152600401610682906157b7565b6110f5898989898989898989612e93565b50505050505050505050565b6000818152606860205260408120546001600160a01b03168061063b5760405162461bcd60e51b815260206004820152602960248201527f4552433732313a206f776e657220717565727920666f72206e6f6e657869737460448201526832b73a103a37b5b2b760b91b6064820152608401610682565b60006001600160a01b0382166111e35760405162461bcd60e51b815260206004820152602a60248201527f4552433732313a2062616c616e636520717565727920666f7220746865207a65604482015269726f206164647265737360b01b6064820152608401610682565b506001600160a01b031660009081526069602052604090205490565b611207612a00565b6001600160a01b03166112226098546001600160a01b031690565b6001600160a01b0316146112485760405162461bcd60e51b81526004016106829061589b565b610cfd60006135cd565b6000821561127a57506001600160a01b038316600090815261010160205260409020546112d3565b63ffffffff8216156112b757506001600160a01b03831660009081526101036020908152604080832063ffffffff851684529091529020546112d3565b506001600160a01b038316600090815261010260205260409020545b9392505050565b60fc546001600160a01b03166112ee612a00565b6001600160a01b0316146113145760405162461bcd60e51b815260040161068290615798565b60ca5460ff16156113375760405162461bcd60e51b8152600401610682906157b7565b600082815260ff6020526040902042600183600681111561135a5761135a6155f4565b14156114f35760008481526101006020526040902054806113bd5760405162461bcd60e51b815260206004820152601960248201527f21494e56414c49442870656e64696e67506c616e4461746129000000000000006044820152606401610682565b60006113c882612a0f565b600585015490915086906001600160a01b03166113e482611101565b6004870154600588015460208087015160028b01546040805195865263ffffffff600160a81b90950485169386019390935292169083015260608201526001600160a01b0391909116907fe17e61be0a4aac2f0b6fece72cedc2ab9ca554634d5af864a9282095206a0c2b9060800160405180910390a4602081015160058501805463ffffffff909216600160a81b0263ffffffff60a81b1990921691909117905581845560a081015161ffff16156114dc578060a0015161ffff1681604001516114af919061591d565b6114b99084615949565b8460060160046101000a81548163ffffffff021916908363ffffffff1602179055505b5050600084815261010060205260408120556119a1565b6002836006811115611507576115076155f4565b141561162257600582018054600160a21b60ff60a01b198216179091556001600160a01b031660009081526101026020526040812080546001929061154d908490615971565b909155505060058201546001600160a01b038116600090815261010360209081526040808320600160a81b90940463ffffffff16835292905290812080546001929061159a908490615971565b9091555050600582015484906001600160a01b03166115b882611101565b6004850154600586015460408051928352600160a81b90910463ffffffff1660208301526001600160a01b0392909216917f58e4414596fd750dbb9dabfe65b97bf5add2061f5902f34e2b82a9c25bd79f98910160405180910390a461161d8461361f565b6119a1565b6006836006811115611636576116366155f4565b141561174957600582018054600360a01b60ff60a01b198216179091556001600160a01b031660009081526101026020526040812080546001929061167c908490615971565b909155505060058201546001600160a01b038116600090815261010360209081526040808320600160a81b90940463ffffffff1683529290529081208054600192906116c9908490615971565b9091555050600582015484906001600160a01b03166116e782611101565b6004850154600586015460408051928352600160a81b90910463ffffffff1660208301526001600160a01b0392909216917f7afd3b59e582bb56b590409b808e910ae787056cb10b682b9bdefa44c8eb940d91015b60405180910390a46119a1565b600383600681111561175d5761175d6155f4565b14156117e757600582018054600560a01b60ff60a01b1982161790915584906001600160a01b031661178e82611101565b6004850154600586015460408051928352600160a81b90910463ffffffff1660208301526001600160a01b0392909216917f44abb4f4529fdbcacc1ee98eef9318eaf9a12044d6925a2dc2c702959d9352f1910161173c565b60048360068111156117fb576117fb6155f4565b141561197f5760006118108360000154612a0f565b905060016005840154600160a01b900460ff166006811115611834576118346155f4565b14156118b057600583015485906001600160a01b031661185382611101565b6004860154600587015460408051928352600160a81b90910463ffffffff1660208301526001600160a01b0392909216917ff42e506093cb49dad3d3349cf7a2b390140be665daecb2c820e903afd12b1df7910160405180910390a45b604081015160068401546118ca919063ffffffff16615949565b60068401805463ffffffff191663ffffffff92831690811790915590831610156119045760058301805460ff60a01b1916600160a11b1790555b600583015485906001600160a01b031661191d82611101565b6004860154600587015460408051928352600160a81b90910463ffffffff1660208301526001600160a01b0392909216917fcdd2eee203a384f2c6e81f39021f7e3ebef3a21ccd0d0f6dd117387ab61b6b54910160405180910390a4506119a1565b6005836006811115611993576119936155f4565b14156119a157600060038301555b50505050565b60ca5460ff16156119ca5760405162461bcd60e51b8152600401610682906157b7565b60006119dd8c8c8c8c8c8b8b8a8a612e93565b90506119e987856136c6565b50600090815260ff602052604090206001019590955550505050505050505050565b611a13612a00565b6001600160a01b0316611a2e6098546001600160a01b031690565b6001600160a01b031614611a545760405162461bcd60e51b81526004016106829061589b565b610cfd6137ec565b81611a6681611101565b6001600160a01b0316611a77612a00565b6001600160a01b03161480611ab55750600081815260ff60205260409020600501546001600160a01b0316611aaa612a00565b6001600160a01b0316145b611ad15760405162461bcd60e51b815260040161068290615798565b60ca5460ff1615611af45760405162461bcd60e51b8152600401610682906157b7565b600083815260ff6020526040902060046005820154600160a01b900460ff166006811115611b2457611b246155f4565b1415611b425760405162461bcd60e51b8152600401610682906158d0565b4263ffffffff8416611c3057611b5785611101565b6001600160a01b0316611b68612a00565b6001600160a01b031614611b8e5760405162461bcd60e51b815260040161068290615798565b60068201805463ffffffff60401b1916600160401b63ffffffff871602179055600582015485906001600160a01b0316611bc782611101565b6004850154600586015460408051928352600160a81b90910463ffffffff9081166020840152891682820152516001600160a01b0392909216917fc54424be96a88104b924830a25713de0140a7b7048d7a26370e735b421b057869181900360600190a4611e0c565b8063ffffffff168463ffffffff1611611d1f576006820154600160201b900463ffffffff161580611c765750600682015463ffffffff600160201b909104811690821610155b611c925760405162461bcd60e51b8152600401610682906158fa565b600682018054600160401b63ffffffff84169081026bffffffff00000000ffffffff199092161717905560fc5460405163d71bb37b60e01b8152600481018790526001600160a01b039091169063d71bb37b90602401600060405180830381600087803b158015611d0257600080fd5b505af1158015611d16573d6000803e3d6000fd5b50505050611e0c565b6006820154600160201b900463ffffffff161580611d525750600682015463ffffffff600160201b909104811690851610155b611d6e5760405162461bcd60e51b8152600401610682906158fa565b60068201805463ffffffff60401b1916600160401b63ffffffff871602179055600582015485906001600160a01b0316611da782611101565b6004850154600586015460408051928352600160a81b90910463ffffffff9081166020840152891682820152516001600160a01b0392909216917fc54424be96a88104b924830a25713de0140a7b7048d7a26370e735b421b057869181900360600190a45b5050505050565b606060678054610a349061580f565b610a21611e2d612a00565b8383613845565b6001600160a01b038316600090815260fe60205260409020546060908390811115611e7457506001600160a01b038416600090815260fe60205260409020545b6001600160a01b038516600090815260fe60205260409020548310611ec85760005b604051908082528060200260200182016040528015611ebf578160200160208202803683370190505b509150506112d3565b6000816001600160401b03811115611ee257611ee26150c9565b604051908082528060200260200182016040528015611f0b578160200160208202803683370190505b50905060005b8281108015611f4057506001600160a01b038716600090815260fe6020526040902054611f3e86836157f7565b105b15611fb1576001600160a01b038716600090815260fe60205260409020611f6786836157f7565b81548110611f7757611f77615988565b9060005260206000200154828281518110611f9457611f94615988565b602090810291909101015280611fa98161599e565b915050611f11565b5095945050505050565b88611fc581611101565b6001600160a01b0316611fd6612a00565b6001600160a01b031614611ffc5760405162461bcd60e51b815260040161068290615798565b60ca5460ff161561201f5760405162461bcd60e51b8152600401610682906157b7565b6110f58a8a8a8a8a8a8a8a8a613914565b61204161203b612a00565b83612b58565b61205d5760405162461bcd60e51b81526004016106829061584a565b6119a184848484613cc9565b600054610100900460ff166120845760005460ff1615612088565b303b155b6120eb5760405162461bcd60e51b815260206004820152602e60248201527f496e697469616c697a61626c653a20636f6e747261637420697320616c72656160448201526d191e481a5b9a5d1a585b1a5e995960921b6064820152608401610682565b600054610100900460ff1615801561210d576000805461ffff19166101011790555b612115613cfc565b61211d613d33565b612171604051806040016040528060128152602001714361736b20537562736372697074696f6e7360701b815250604051806040016040528060088152602001674341534b5355425360c01b815250613d6a565b60fd80546001600160a01b0319166001600160a01b0384161790558015610a21576000805461ff00191690555050565b6000818152606860205260409020546060906001600160a01b03166122205760405162461bcd60e51b815260206004820152602f60248201527f4552433732314d657461646174613a2055524920717565727920666f72206e6f60448201526e3732bc34b9ba32b73a103a37b5b2b760891b6064820152608401610682565b600082815260ff6020818152604080842081516101c08101835281548152600182015493810193909352600281015491830191909152600381015460608301526004810154608083015260058101546001600160a01b03811660a08401529192909160c0840191600160a01b9091041660068111156122a1576122a16155f4565b60068111156122b2576122b26155f4565b8152600582015463ffffffff600160a81b820481166020840152600160c81b9091048116604083015260068301548082166060840152600160201b810482166080840152600160401b90041660a082015260078201805460c0909201916123189061580f565b80601f01602080910402602001604051908101604052809291908181526020018280546123449061580f565b80156123915780601f1061236657610100808354040283529160200191612391565b820191906000526020600020905b81548152906001019060200180831161237457829003601f168201915b505050505081526020016008820180546123aa9061580f565b80601f01602080910402602001604051908101604052809291908181526020018280546123d69061580f565b80156124235780601f106123f857610100808354040283529160200191612423565b820191906000526020600020905b81548152906001019060200180831161240657829003601f168201915b505050505081525050905080610180015160405160200161244491906159b9565b604051602081830303815290604052915050919050565b612463612a00565b6001600160a01b031661247e6098546001600160a01b031690565b6001600160a01b0316146124a45760405162461bcd60e51b81526004016106829061589b565b60fc80546001600160a01b0319166001600160a01b0392909216919091179055565b6124ce612a00565b6001600160a01b03166124e96098546001600160a01b031690565b6001600160a01b03161461250f5760405162461bcd60e51b81526004016106829061589b565b606580546001600160a01b0319166001600160a01b03831617905550565b50565b604080516101c08101825260008082526020820181905291810182905260608082018390526080820183905260a0820183905260c0820183905260e0820183905261010082018390526101208201839052610140820183905261016082019290925261018081018290526101a0810191909152600082815260ff6020818152604080842081516101c08101835281548152600182015493810193909352600281015491830191909152600381015460608301526004810154608083015260058101546001600160a01b03811660a08401529192909160c0840191600160a01b909104166006811115612624576126246155f4565b6006811115612635576126356155f4565b8152600582015463ffffffff600160a81b820481166020840152600160c81b9091048116604083015260068301548082166060840152600160201b810482166080840152600160401b90041660a082015260078201805460c09092019161269b9061580f565b80601f01602080910402602001604051908101604052809291908181526020018280546126c79061580f565b80156127145780601f106126e957610100808354040283529160200191612714565b820191906000526020600020905b8154815290600101906020018083116126f757829003601f168201915b5050505050815260200160088201805461272d9061580f565b80601f01602080910402602001604051908101604052809291908181526020018280546127599061580f565b80156127a65780601f1061277b576101008083540402835291602001916127a6565b820191906000526020600020905b81548152906001019060200180831161278957829003601f168201915b50505050508152505091506127d2836000908152606860205260409020546001600160a01b0316151590565b156127e7576127e083611101565b9050915091565b506000915091565b6127f7612a00565b6001600160a01b03166128126098546001600160a01b031690565b6001600160a01b0316146128385760405162461bcd60e51b81526004016106829061589b565b6001600160a01b03811661289d5760405162461bcd60e51b815260206004820152602660248201527f4f776e61626c653a206e6577206f776e657220697320746865207a65726f206160448201526564647265737360d01b6064820152608401610682565b61252d816135cd565b6001600160a01b0383166000908152610101602052604090205460609083908111156128e857506001600160a01b038416600090815261010160205260409020545b6001600160a01b03851660009081526101016020526040902054831061290f576000611e96565b6000816001600160401b03811115612929576129296150c9565b604051908082528060200260200182016040528015612952578160200160208202803683370190505b50905060005b828110801561298857506001600160a01b0387166000908152610101602052604090205461298686836157f7565b105b15611fb1576001600160a01b0387166000908152610101602052604090206129b086836157f7565b815481106129c0576129c0615988565b90600052602060002001548282815181106129dd576129dd615988565b6020908102919091010152806129f28161599e565b915050612958565b3b151590565b6000612a0a613dab565b905090565b6040805161012081018252600080825260208201819052918101829052606081018290526080810182905260a0810182905260c0810182905260e0810182905261010081019190915250604080516101208101825260a083811c8252608084811c63ffffffff908116602080860191909152606087811c8316868801529587901c8216958501959095529385901c90931692820192909252601083901c61ffff1691810191909152600882901c60ff1660c082015260f89190911b600160f81b8181161460e0830152600160f91b9081161461010082015290565b6000818152606a6020526040902080546001600160a01b0319166001600160a01b0384169081179091558190612b1f82611101565b6001600160a01b03167f8c5be1e5ebec7d5bd14f71427d1e84f3dd0314c0f7b2291e5b200ac8c7c3b92560405160405180910390a45050565b6000818152606860205260408120546001600160a01b0316612bd15760405162461bcd60e51b815260206004820152602c60248201527f4552433732313a206f70657261746f7220717565727920666f72206e6f6e657860448201526b34b9ba32b73a103a37b5b2b760a11b6064820152608401610682565b6000612bdc83611101565b9050806001600160a01b0316846001600160a01b03161480612c175750836001600160a01b0316612c0c84610ab7565b6001600160a01b0316145b80612c4757506001600160a01b038082166000908152606b602090815260408083209388168352929052205460ff165b949350505050565b826001600160a01b0316612c6282611101565b6001600160a01b031614612cca5760405162461bcd60e51b815260206004820152602960248201527f4552433732313a207472616e73666572206f6620746f6b656e2074686174206960448201526839903737ba1037bbb760b91b6064820152608401610682565b6001600160a01b038216612d2c5760405162461bcd60e51b8152602060048201526024808201527f4552433732313a207472616e7366657220746f20746865207a65726f206164646044820152637265737360e01b6064820152608401610682565b612d37838383613ddf565b612d42600082612aea565b6001600160a01b0383166000908152606960205260408120805460019290612d6b908490615971565b90915550506001600160a01b0382166000908152606960205260408120805460019290612d999084906157f7565b909155505060008181526068602052604080822080546001600160a01b0319166001600160a01b0386811691821790925591518493918716917fddf252ad1be2c89b69c2b068fc378daa952ba7f163c4a11628f55a4df523b3ef91a4505050565b60ca5460ff16612e435760405162461bcd60e51b815260206004820152601460248201527314185d5cd8589b194e881b9bdd081c185d5cd95960621b6044820152606401610682565b60ca805460ff191690557f5db9ee0a495bf2e6ff9c91a7834c1ba4fdd244a5e8aa4e537bd38aeae4b073aa612e76612a00565b6040516001600160a01b03909116815260200160405180910390a1565b60006004881015612edf5760405162461bcd60e51b815260206004820152601660248201527521494e56414c494428706c616e50726f6f664c656e2960501b6044820152606401610682565b600060038710612f4857612f418a8a6000818110612eff57612eff615988565b905060200201358c8c8c6003818110612f1a57612f1a615988565b905060200201358b8b6002818110612f3457612f34615988565b9050602002013589613f09565b9050612f8d565b612f8a8a8a6000818110612f5e57612f5e615988565b905060200201358c8c8c6003818110612f7957612f79615988565b905060200201356000801b89613f09565b90505b612f978a8a614057565b612fb35760405162461bcd60e51b8152600401610682906159e8565b6000612fd78b8b6002818110612fcb57612fcb615988565b90506020020135612a0f565b905060006130318c8c6000818110612ff157612ff1615988565b905060200201358d8d600181811061300b5761300b615988565b905060200201358e8e600281811061302557613025615988565b9050602002013561411e565b9050816080015163ffffffff1660001480613080575060808201516001600160a01b0384166000908152610103602090815260408083208287015163ffffffff90811685529252909120549116115b6130ba5760405162461bcd60e51b815260206004820152600b60248201526a214d41585f41435449564560a81b6044820152606401610682565b600060fd54602084015160405163b6ab359f60e01b81526001600160a01b03878116600483015263ffffffff909216602482015291169063b6ab359f9060440160206040518083038186803b15801561311257600080fd5b505afa158015613126573d6000803e3d6000fd5b505050506040513d601f19601f8201168201806040525081019061314a9190615a15565b600281111561315b5761315b6155f4565b146131975760405162461bcd60e51b815260206004820152600c60248201526b085393d517d153905093115160a21b6044820152606401610682565b6131a86131a2612a00565b82614189565b600081815260ff602090815260409091206005810180549285015163ffffffff16600160a81b02600164ffffffff0160a01b03199093166001600160a01b0387161792909217909155428d8d600181811061320557613205615988565b60200291909101356004840155508d8d600281811061322657613226615988565b602002919091013583555060068201805463ffffffff60401b1916600160401b63ffffffff8d160217905561325f600783018989614d7d565b5060058201805463ffffffff60c81b1916600160c81b63ffffffff84160217905560a084015161ffff16156132d3578360a0015161ffff1684604001516132a6919061591d565b6132b09082615949565b8260060160046101000a81548163ffffffff021916908363ffffffff1602179055505b606084015163ffffffff16156133285760058201805460ff60a01b1916600160a01b17905560608401516133079082615949565b60068301805463ffffffff191663ffffffff92909216919091179055613355565b60058201805460ff60a01b1916600160a11b17905560068201805463ffffffff191663ffffffff83161790555b60fe6000613361612a00565b6001600160a01b03908116825260208083019390935260409182016000908120805460018181018355918352858320018890559189168082526101018552838220805480850182559083528583200188905581526101029093529082208054919290916133cf9084906157f7565b90915550506001600160a01b0385166000908152610103602090815260408083208783015163ffffffff16845290915281208054600192906134129084906157f7565b90915550613441905061342484611101565b600584015460208701516001600160a01b03909116908f8f6141a3565b6003840155600283015560fc5460405163d71bb37b60e01b8152600481018590526001600160a01b039091169063d71bb37b90602401600060405180830381600087803b15801561349157600080fd5b505af11580156134a5573d6000803e3d6000fd5b50600292506134b2915050565b6005830154600160a01b900460ff1660068111156134d2576134d26155f4565b14806134fd575060016005830154600160a01b900460ff1660068111156134fb576134fb6155f4565b145b61353a5760405162461bcd60e51b815260206004820152600e60248201526d21554e50524f4345535341424c4560901b6044820152606401610682565b600582015483906001600160a01b031661355382611101565b60048501546005860154600287015460408051938452600160a81b90920463ffffffff166020840152908201526001600160a01b0391909116907f9fb45eab820cdd481e286e8c699e1c01031bb833c58f7cfba3ca8d1db6d98d819060600160405180910390a450909d9c50505050505050505050505050565b609880546001600160a01b038381166001600160a01b0319831681179093556040519116919082907f8be0079c531659141344cd1fd0a4f28419497f9722a3daafe3b4186f6b6457e090600090a35050565b600061362a82611101565b905061363881600084613ddf565b613643600083612aea565b6001600160a01b038116600090815260696020526040812080546001929061366c908490615971565b909155505060008281526068602052604080822080546001600160a01b0319169055518391906001600160a01b038416907fddf252ad1be2c89b69c2b068fc378daa952ba7f163c4a11628f55a4df523b3ef908390a45050565b60008061374983613743866040516020016136e391815260200190565b60408051601f1981840301815282825280516020918201207f19457468657265756d205369676e6564204d6573736167653a0a33320000000084830152603c8085019190915282518085039091018152605c909301909152815191012090565b9061428f565b905060006137898560408051808201909152600080825260208201525060408051808201909152606082901c815260509190911c61ffff16602082015290565b9050816001600160a01b031681600001516001600160a01b0316146137e45760405162461bcd60e51b815260206004820152601160248201527021494e56414c4944286e6574776f726b2960781b6044820152606401610682565b509392505050565b60ca5460ff161561380f5760405162461bcd60e51b8152600401610682906157b7565b60ca805460ff191660011790557f62e78cea01bee320cd4e420270b5ea74000d11b0c9f74754ebdbfc544b05a258612e76612a00565b816001600160a01b0316836001600160a01b031614156138a75760405162461bcd60e51b815260206004820152601960248201527f4552433732313a20617070726f766520746f2063616c6c6572000000000000006044820152606401610682565b6001600160a01b038381166000818152606b6020908152604080832094871680845294825291829020805460ff191686151590811790915591519182527f17307eab39ab6107e8899845ad3d59bd9653f200f220920489ca2b5937696c31910160405180910390a3505050565b60048610156139355760405162461bcd60e51b8152600401610682906159e8565b600089815260ff60205260409020600681015463ffffffff42811691161161398f5760405162461bcd60e51b815260206004820152600d60248201526c085391515117d491539155d053609a1b6044820152606401610682565b60026005820154600160a01b900460ff1660068111156139b1576139b16155f4565b14806139dc575060016005820154600160a01b900460ff1660068111156139da576139da6155f4565b145b6139f85760405162461bcd60e51b8152600401610682906158d0565b600060038610613a5457613a4d89896000818110613a1857613a18615988565b905060200201358b8b8b6003818110613a3357613a33615988565b905060200201358a8a6002818110612f3457612f34615988565b9050613a88565b613a8589896000818110613a6a57613a6a615988565b905060200201358b8b8b6003818110612f7957612f79615988565b90505b613a928989614057565b613aae5760405162461bcd60e51b8152600401610682906159e8565b6000613ac68a8a6002818110612fcb57612fcb615988565b60058401549091506001600160a01b03838116911614613b1d5760405162461bcd60e51b815260206004820152601260248201527121494e56414c49442870726f76696465722960701b6044820152606401610682565b613b2b600784018686614d7d565b506002830154158015613b3f575060038710155b8015613b615750600088888281613b5857613b58615988565b90506020020135115b15613b9a57613b8f613b728d611101565b600585015460208401516001600160a01b03909116908b8b6141a3565b600385015560028401555b60208101516005840154600160a81b900463ffffffff908116911614613cbb57600060fd54602083015160405163b6ab359f60e01b81526001600160a01b03868116600483015263ffffffff909216602482015291169063b6ab359f9060440160206040518083038186803b158015613c1257600080fd5b505afa158015613c26573d6000803e3d6000fd5b505050506040513d601f19601f82011682018060405250810190613c4a9190615a15565b6002811115613c5b57613c5b6155f4565b14613c975760405162461bcd60e51b815260206004820152600c60248201526b085393d517d153905093115160a21b6044820152606401610682565b613cbb8c828c8c6002818110613caf57613caf615988565b905060200201356142ab565b505050505050505050505050565b613cd4848484612c4f565b613ce0848484846143f4565b6119a15760405162461bcd60e51b815260040161068290615a36565b600054610100900460ff16613d235760405162461bcd60e51b815260040161068290615a88565b613d2b614508565b610cfd61452f565b600054610100900460ff16613d5a5760405162461bcd60e51b815260040161068290615a88565b613d62614508565b610cfd614566565b600054610100900460ff16613d915760405162461bcd60e51b815260040161068290615a88565b613d99614508565b613da1614508565b610a218282614599565b600060143610801590613dc857506065546001600160a01b031633145b15613dda575060131936013560601c90565b503390565b6001600160a01b03831615801590613dff57506001600160a01b03821615155b15610c6f57600081815260ff602052604081208054909190613e2090612a0f565b9050806101000151613e695760405162461bcd60e51b8152602060048201526012602482015271214e4f545f5452414e534645525241424c4560701b6044820152606401610682565b6006820154600160201b900463ffffffff161580613e9d5750600682015463ffffffff600160201b90910481164290911610155b613eb95760405162461bcd60e51b8152600401610682906158fa565b50600601805463ffffffff60401b19811663ffffffff909116600160401b021790556001600160a01b0391909116600090815260fe60209081526040822080546001810182559083529120015550565b600080613f39836137438888886040516020016136e3939291909283526020830191909152604082015260600190565b90506001600160a01b0387811690821614613f885760405162461bcd60e51b815260206004820152600f60248201526e21494e56414c49442870726f6f662960881b6044820152606401610682565b60fd54604051630782fb5960e31b81526001600160a01b03838116600483015290911690633c17dac89060240160006040518083038186803b158015613fcd57600080fd5b505afa158015613fe1573d6000803e3d6000fd5b505050506040513d6000823e601f3d908101601f191682016040526140099190810190615ad3565b60200151861461404d5760405162461bcd60e51b815260206004820152600f60248201526e2150524f56494445525f4e4f4e434560881b6044820152606401610682565b9695505050505050565b60fd546000906001600160a01b03166371ce3e668484600281811061407e5761407e615988565b905060200201358585600381811061409857614098615988565b602002919091013590506140af866004818a615b97565b6040518563ffffffff1660e01b81526004016140ce9493929190615bfb565b60206040518083038186803b1580156140e657600080fd5b505afa1580156140fa573d6000803e3d6000fd5b505050506040513d601f19601f820116820180604052508101906112d39190615c1b565b6000614128612a00565b60405160609190911b6bffffffffffffffffffffffff191660208201526034810185905260548101839052607481018490524360948201524260b482015260d40160408051601f198184030181529190528051602090910120949350505050565b610a218282604051806020016040528060008152506145e7565b60008080848482816141b7576141b7615988565b90506020020135111561427e5760fd54604051632218d7d360e01b81526000916001600160a01b031690632218d7d3906141fd908b908b908b908b908b90600401615c38565b602060405180830381600087803b15801561421757600080fd5b505af115801561422b573d6000803e3d6000fd5b505050506040513d601f19601f8201168201806040525081019061424f9190615c7c565b9050801561427c57808585600181811061426b5761426b615988565b905060200201359250925050614285565b505b5060009050805b9550959350505050565b600080600061429e858561461a565b915091506137e48161468a565b600083815260ff6020526040812080549091906142c790612a0f565b905060016005830154600160a01b900460ff1660068111156142eb576142eb6155f4565b141561436657606080850151908201516006840154614310919063ffffffff16615c95565b61431a9190615949565b60068301805463ffffffff191663ffffffff92831690811790915542909116106143565760068201805463ffffffff19164263ffffffff161790555b614361858585614845565b611e0c565b6040810151815161437d9163ffffffff1690615cba565b604085015185516143949163ffffffff1690615cba565b14156143a557614361858585614845565b604081015181516143bc9163ffffffff1690615cba565b604085015185516143d39163ffffffff1690615cba565b11156143e5576143618582868661496d565b611e0c85856020015185614a7a565b60006001600160a01b0384163b156144fd57836001600160a01b031663150b7a0261441d612a00565b8786866040518563ffffffff1660e01b815260040161443f9493929190615cdc565b602060405180830381600087803b15801561445957600080fd5b505af1925050508015614489575060408051601f3d908101601f1916820190925261448691810190615d0f565b60015b6144e3573d8080156144b7576040519150601f19603f3d011682016040523d82523d6000602084013e6144bc565b606091505b5080516144db5760405162461bcd60e51b815260040161068290615a36565b805181602001fd5b6001600160e01b031916630a85bd0160e11b149050612c47565b506001949350505050565b600054610100900460ff16610cfd5760405162461bcd60e51b815260040161068290615a88565b600054610100900460ff166145565760405162461bcd60e51b815260040161068290615a88565b610cfd614561612a00565b6135cd565b600054610100900460ff1661458d5760405162461bcd60e51b815260040161068290615a88565b60ca805460ff19169055565b600054610100900460ff166145c05760405162461bcd60e51b815260040161068290615a88565b81516145d3906066906020850190614e01565b508051610c6f906067906020840190614e01565b6145f18383614b13565b6145fe60008484846143f4565b610c6f5760405162461bcd60e51b815260040161068290615a36565b6000808251604114156146515760208301516040840151606085015160001a61464587828585614c61565b94509450505050614683565b82516040141561467b5760208301516040840151614670868383614d4e565b935093505050614683565b506000905060025b9250929050565b600081600481111561469e5761469e6155f4565b14156146a75750565b60018160048111156146bb576146bb6155f4565b14156147095760405162461bcd60e51b815260206004820152601860248201527f45434453413a20696e76616c6964207369676e617475726500000000000000006044820152606401610682565b600281600481111561471d5761471d6155f4565b141561476b5760405162461bcd60e51b815260206004820152601f60248201527f45434453413a20696e76616c6964207369676e6174757265206c656e677468006044820152606401610682565b600381600481111561477f5761477f6155f4565b14156147d85760405162461bcd60e51b815260206004820152602260248201527f45434453413a20696e76616c6964207369676e6174757265202773272076616c604482015261756560f01b6064820152608401610682565b60048160048111156147ec576147ec6155f4565b141561252d5760405162461bcd60e51b815260206004820152602260248201527f45434453413a20696e76616c6964207369676e6174757265202776272076616c604482015261756560f01b6064820152608401610682565b600083815260ff60205260409020600581015484906001600160a01b031661486c82611101565b6004840154600585015460208089015160028801546040805195865263ffffffff600160a81b90950485169386019390935292169083015260608201526001600160a01b0391909116907fe17e61be0a4aac2f0b6fece72cedc2ab9ca554634d5af864a9282095206a0c2b9060800160405180910390a460a083015161ffff161561493c578260a0015161ffff168360400151614909919061591d565b6149199063ffffffff16426157f7565b8160060160046101000a81548163ffffffff021916908363ffffffff1602179055505b60209092015160058301805463ffffffff909216600160a81b0263ffffffff60a81b19909216919091179055905550565b600084815260ff60205260408120600681015490919061499490429063ffffffff16615c95565b63ffffffff16856040015163ffffffff1686600001516149b49190615cba565b604086015186516149cb9163ffffffff1690615cba565b6149d59190615971565b6149df9190615d2c565b60fc549091506001600160a01b031663c54c58c46149fc88611101565b600585015460405160e084901b6001600160e01b03191681526001600160a01b039283166004820152911660248201526044810189905260648101849052608401600060405180830381600087803b158015614a5757600080fd5b505af1158015614a6b573d6000803e3d6000fd5b505050506110b9868585614845565b600083815260ff60209081526040808320610100909252909120829055600581015484906001600160a01b0316614ab082611101565b600484015460058501546040805192835263ffffffff600160a81b90920482166020840152908816908201526001600160a01b0391909116907f3d051466fe86e1bd842d67e98121d69a930caccf48fc2ae2c83119b5a7b71af690606001610a16565b6001600160a01b038216614b695760405162461bcd60e51b815260206004820181905260248201527f4552433732313a206d696e7420746f20746865207a65726f20616464726573736044820152606401610682565b6000818152606860205260409020546001600160a01b031615614bce5760405162461bcd60e51b815260206004820152601c60248201527f4552433732313a20746f6b656e20616c7265616479206d696e746564000000006044820152606401610682565b614bda60008383613ddf565b6001600160a01b0382166000908152606960205260408120805460019290614c039084906157f7565b909155505060008181526068602052604080822080546001600160a01b0319166001600160a01b03861690811790915590518392907fddf252ad1be2c89b69c2b068fc378daa952ba7f163c4a11628f55a4df523b3ef908290a45050565b6000807f7fffffffffffffffffffffffffffffff5d576e7357a4501ddfe92f46681b20a0831115614c985750600090506003614d45565b8460ff16601b14158015614cb057508460ff16601c14155b15614cc15750600090506004614d45565b6040805160008082526020820180845289905260ff881692820192909252606081018690526080810185905260019060a0016020604051602081039080840390855afa158015614d15573d6000803e3d6000fd5b5050604051601f1901519150506001600160a01b038116614d3e57600060019250925050614d45565b9150600090505b94509492505050565b6000806001600160ff1b03831660ff84901c601b01614d6f87828885614c61565b935093505050935093915050565b828054614d899061580f565b90600052602060002090601f016020900481019282614dab5760008555614df1565b82601f10614dc45782800160ff19823516178555614df1565b82800160010185558215614df1579182015b82811115614df1578235825591602001919060010190614dd6565b50614dfd929150614e75565b5090565b828054614e0d9061580f565b90600052602060002090601f016020900481019282614e2f5760008555614df1565b82601f10614e4857805160ff1916838001178555614df1565b82800160010185558215614df1579182015b82811115614df1578251825591602001919060010190614e5a565b5b80821115614dfd5760008155600101614e76565b6001600160e01b03198116811461252d57600080fd5b600060208284031215614eb257600080fd5b81356112d381614e8a565b600060208284031215614ecf57600080fd5b5035919050565b60005b83811015614ef1578181015183820152602001614ed9565b838111156119a15750506000910152565b60008151808452614f1a816020860160208601614ed6565b601f01601f19169290920160200192915050565b6020815260006112d36020830184614f02565b6001600160a01b038116811461252d57600080fd5b60008060408385031215614f6957600080fd5b8235614f7481614f41565b946020939093013593505050565b600080600060608486031215614f9757600080fd5b8335614fa281614f41565b92506020840135614fb281614f41565b929592945050506040919091013590565b600060208284031215614fd557600080fd5b81356112d381614f41565b60008083601f840112614ff257600080fd5b5081356001600160401b0381111561500957600080fd5b60208301915083602082850101111561468357600080fd5b60008060006040848603121561503657600080fd5b8335925060208401356001600160401b0381111561505357600080fd5b61505f86828701614fe0565b9497909650939450505050565b60008083601f84011261507e57600080fd5b5081356001600160401b0381111561509557600080fd5b6020830191508360208260051b850101111561468357600080fd5b803563ffffffff811681146150c457600080fd5b919050565b634e487b7160e01b600052604160045260246000fd5b604051606081016001600160401b0381118282101715615101576151016150c9565b60405290565b604051601f8201601f191681016001600160401b038111828210171561512f5761512f6150c9565b604052919050565b60006001600160401b03821115615150576151506150c9565b50601f01601f191660200190565b600082601f83011261516f57600080fd5b813561518261517d82615137565b615107565b81815284602083860101111561519757600080fd5b816020850160208301376000918101602001919091529392505050565b600080600080600080600080600060c08a8c0312156151d257600080fd5b8935985060208a01356001600160401b03808211156151f057600080fd5b6151fc8d838e0161506c565b909a50985060408c013591508082111561521557600080fd5b6152218d838e0161506c565b909850965086915061523560608d016150b0565b955060808c013591508082111561524b57600080fd5b6152578d838e0161515e565b945060a08c013591508082111561526d57600080fd5b5061527a8c828d01614fe0565b915080935050809150509295985092959850929598565b801515811461252d57600080fd5b6000806000606084860312156152b457600080fd5b83356152bf81614f41565b925060208401356152cf81615291565b91506152dd604085016150b0565b90509250925092565b600080604083850312156152f957600080fd5b8235915060208301356007811061530f57600080fd5b809150509250929050565b60008060008060008060008060008060006101008c8e03121561533c57600080fd5b8b359a506001600160401b038060208e0135111561535957600080fd5b6153698e60208f01358f0161506c565b909b50995060408d013581101561537f57600080fd5b61538f8e60408f01358f0161506c565b909950975060608d013596506153a760808e016150b0565b95508060a08e013511156153ba57600080fd5b6153ca8e60a08f01358f0161515e565b94508060c08e013511156153dd57600080fd5b6153ed8e60c08f01358f0161515e565b93508060e08e0135111561540057600080fd5b506154118d60e08e01358e01614fe0565b81935080925050509295989b509295989b9093969950565b6000806040838503121561543c57600080fd5b8235915061544c602084016150b0565b90509250929050565b6000806040838503121561546857600080fd5b823561547381614f41565b9150602083013561530f81615291565b60008060006060848603121561549857600080fd5b83356154a381614f41565b95602085013595506040909401359392505050565b6020808252825182820181905260009190848201906040850190845b818110156154f0578351835292840192918401916001016154d4565b50909695505050505050565b600080600080600080600080600060c08a8c03121561551a57600080fd5b8935985060208a0135975060408a01356001600160401b038082111561553f57600080fd5b61554b8d838e0161506c565b909950975060608c013591508082111561556457600080fd5b6155708d838e0161506c565b909750955060808c013591508082111561524b57600080fd5b6000806000806080858703121561559f57600080fd5b84356155aa81614f41565b935060208501356155ba81614f41565b92506040850135915060608501356001600160401b038111156155dc57600080fd5b6155e88782880161515e565b91505092959194509250565b634e487b7160e01b600052602160045260246000fd5b6007811061562857634e487b7160e01b600052602160045260246000fd5b9052565b60408152825160408201526020830151606082015260408301516080820152606083015160a0820152608083015160c0820152600060a084015161567b60e08401826001600160a01b03169052565b5060c08401516101006156908185018361560a565b60e086015191506101206156ab8186018463ffffffff169052565b908601519150610140906156c68583018463ffffffff169052565b86015191506101606156df8582018463ffffffff169052565b908601519150610180906156fa8583018463ffffffff169052565b86015191506101a06157138582018463ffffffff169052565b8187015192506101c091508182860152615731610200860184614f02565b90870151858203603f19016101e087015290925090506157518282614f02565b925050506112d360208301846001600160a01b03169052565b6000806040838503121561577d57600080fd5b823561578881614f41565b9150602083013561530f81614f41565b60208082526005908201526404282aaa8960db1b604082015260600190565b60208082526010908201526f14185d5cd8589b194e881c185d5cd95960821b604082015260600190565b634e487b7160e01b600052601160045260246000fd5b6000821982111561580a5761580a6157e1565b500190565b600181811c9082168061582357607f821691505b6020821081141561584457634e487b7160e01b600052602260045260246000fd5b50919050565b60208082526031908201527f4552433732313a207472616e736665722063616c6c6572206973206e6f74206f6040820152701ddb995c881b9bdc88185c1c1c9bdd9959607a1b606082015260800190565b6020808252818101527f4f776e61626c653a2063616c6c6572206973206e6f7420746865206f776e6572604082015260600190565b60208082526010908201526f21494e56414c4944287374617475732960801b604082015260600190565b602080825260099082015268214d494e5f5445524d60b81b604082015260600190565b600063ffffffff80831681851681830481118215151615615940576159406157e1565b02949350505050565b600063ffffffff808316818516808303821115615968576159686157e1565b01949350505050565b600082821015615983576159836157e1565b500390565b634e487b7160e01b600052603260045260246000fd5b60006000198214156159b2576159b26157e1565b5060010190565b66697066733a2f2f60c81b8152600082516159db816007850160208701614ed6565b9190910160070192915050565b60208082526013908201527221494e56414c494428706c616e50726f6f662960681b604082015260600190565b600060208284031215615a2757600080fd5b8151600381106112d357600080fd5b60208082526032908201527f4552433732313a207472616e7366657220746f206e6f6e20455243373231526560408201527131b2b4bb32b91034b6b83632b6b2b73a32b960711b606082015260800190565b6020808252602b908201527f496e697469616c697a61626c653a20636f6e7472616374206973206e6f74206960408201526a6e697469616c697a696e6760a81b606082015260800190565b60006020808385031215615ae657600080fd5b82516001600160401b0380821115615afd57600080fd5b9084019060608287031215615b1157600080fd5b615b196150df565b8251615b2481614f41565b81528284015184820152604083015182811115615b4057600080fd5b80840193505086601f840112615b5557600080fd5b82519150615b6561517d83615137565b8281528785848601011115615b7957600080fd5b615b8883868301878701614ed6565b60408201529695505050505050565b60008085851115615ba757600080fd5b83861115615bb457600080fd5b5050600583901b0193919092039150565b81835260006001600160fb1b03831115615bde57600080fd5b8260051b8083602087013760009401602001938452509192915050565b84815283602082015260606040820152600061404d606083018486615bc5565b600060208284031215615c2d57600080fd5b81516112d381615291565b6001600160a01b0386811682528516602082015263ffffffff84166040820152608060608201819052600090615c719083018486615bc5565b979650505050505050565b600060208284031215615c8e57600080fd5b5051919050565b600063ffffffff83811690831681811015615cb257615cb26157e1565b039392505050565b600082615cd757634e487b7160e01b600052601260045260246000fd5b500490565b6001600160a01b038581168252841660208201526040810183905260806060820181905260009061404d90830184614f02565b600060208284031215615d2157600080fd5b81516112d381614e8a565b6000816000190483118215151615615d4657615d466157e1565b50029056fea2646970667358221220ba960b5acc7d8f1c29b0fa669bd47252b93bfafccf5ae57d2bc62239f14064bb64736f6c63430008090033",
  "devdoc": {
    "kind": "dev",
    "methods": {
      "approve(address,uint256)": {
        "details": "See {IERC721-approve}."
      },
      "balanceOf(address)": {
        "details": "See {IERC721-balanceOf}."
      },
      "constructor": {
        "custom:oz-upgrades-unsafe-allow": "constructor"
      },
      "getApproved(uint256)": {
        "details": "See {IERC721-getApproved}."
      },
      "isApprovedForAll(address,address)": {
        "details": "See {IERC721-isApprovedForAll}."
      },
      "name()": {
        "details": "See {IERC721Metadata-name}."
      },
      "owner()": {
        "details": "Returns the address of the current owner."
      },
      "ownerOf(uint256)": {
        "details": "See {IERC721-ownerOf}."
      },
      "paused()": {
        "details": "Returns true if the contract is paused, and false otherwise."
      },
      "renounceOwnership()": {
        "details": "Leaves the contract without owner. It will not be possible to call `onlyOwner` functions anymore. Can only be called by the current owner. NOTE: Renouncing ownership will leave the contract without an owner, thereby removing any functionality that is only available to the owner."
      },
      "safeTransferFrom(address,address,uint256)": {
        "details": "See {IERC721-safeTransferFrom}."
      },
      "safeTransferFrom(address,address,uint256,bytes)": {
        "details": "See {IERC721-safeTransferFrom}."
      },
      "setApprovalForAll(address,bool)": {
        "details": "See {IERC721-setApprovalForAll}."
      },
      "supportsInterface(bytes4)": {
        "details": "See {IERC165-supportsInterface}."
      },
      "symbol()": {
        "details": "See {IERC721Metadata-symbol}."
      },
      "transferFrom(address,address,uint256)": {
        "details": "See {IERC721-transferFrom}."
      },
      "transferOwnership(address)": {
        "details": "Transfers ownership of the contract to a new account (`newOwner`). Can only be called by the current owner."
      }
    },
    "stateVariables": {
      "consumerSubscriptions": {
        "details": "Maps for consumer to list of subscriptions. "
      },
      "providerSubscriptions": {
        "details": "Maps for provider to list of subscriptions and plans. "
      },
      "subscriptionManager": {
        "details": "contract to manage subscription plan definitions. "
      },
      "subscriptionPlans": {
        "details": "contract to manage subscription plan definitions. "
      }
    },
    "version": 1
  },
  "userdoc": {
    "kind": "user",
    "methods": {
      "isTrustedForwarder(address)": {
        "notice": "return if the forwarder is trusted to forward relayed transactions to us. the forwarder is required to verify the sender's signature, and verify the call is not a replay."
      }
    },
    "version": 1
  },
  "storageLayout": {
    "storage": [
      {
        "astId": 327,
        "contract": "contracts/protocol/CaskSubscriptions.sol:CaskSubscriptions",
        "label": "_initialized",
        "offset": 0,
        "slot": "0",
        "type": "t_bool"
      },
      {
        "astId": 330,
        "contract": "contracts/protocol/CaskSubscriptions.sol:CaskSubscriptions",
        "label": "_initializing",
        "offset": 1,
        "slot": "0",
        "type": "t_bool"
      },
      {
        "astId": 2551,
        "contract": "contracts/protocol/CaskSubscriptions.sol:CaskSubscriptions",
        "label": "__gap",
        "offset": 0,
        "slot": "1",
        "type": "t_array(t_uint256)50_storage"
      },
      {
        "astId": 2800,
        "contract": "contracts/protocol/CaskSubscriptions.sol:CaskSubscriptions",
        "label": "__gap",
        "offset": 0,
        "slot": "51",
        "type": "t_array(t_uint256)50_storage"
      },
      {
        "astId": 72,
        "contract": "contracts/protocol/CaskSubscriptions.sol:CaskSubscriptions",
        "label": "_trustedForwarder",
        "offset": 0,
        "slot": "101",
        "type": "t_address"
      },
      {
        "astId": 1270,
        "contract": "contracts/protocol/CaskSubscriptions.sol:CaskSubscriptions",
        "label": "_name",
        "offset": 0,
        "slot": "102",
        "type": "t_string_storage"
      },
      {
        "astId": 1272,
        "contract": "contracts/protocol/CaskSubscriptions.sol:CaskSubscriptions",
        "label": "_symbol",
        "offset": 0,
        "slot": "103",
        "type": "t_string_storage"
      },
      {
        "astId": 1276,
        "contract": "contracts/protocol/CaskSubscriptions.sol:CaskSubscriptions",
        "label": "_owners",
        "offset": 0,
        "slot": "104",
        "type": "t_mapping(t_uint256,t_address)"
      },
      {
        "astId": 1280,
        "contract": "contracts/protocol/CaskSubscriptions.sol:CaskSubscriptions",
        "label": "_balances",
        "offset": 0,
        "slot": "105",
        "type": "t_mapping(t_address,t_uint256)"
      },
      {
        "astId": 1284,
        "contract": "contracts/protocol/CaskSubscriptions.sol:CaskSubscriptions",
        "label": "_tokenApprovals",
        "offset": 0,
        "slot": "106",
        "type": "t_mapping(t_uint256,t_address)"
      },
      {
        "astId": 1290,
        "contract": "contracts/protocol/CaskSubscriptions.sol:CaskSubscriptions",
        "label": "_operatorApprovals",
        "offset": 0,
        "slot": "107",
        "type": "t_mapping(t_address,t_mapping(t_address,t_bool))"
      },
      {
        "astId": 2101,
        "contract": "contracts/protocol/CaskSubscriptions.sol:CaskSubscriptions",
        "label": "__gap",
        "offset": 0,
        "slot": "108",
        "type": "t_array(t_uint256)44_storage"
      },
      {
        "astId": 205,
        "contract": "contracts/protocol/CaskSubscriptions.sol:CaskSubscriptions",
        "label": "_owner",
        "offset": 0,
        "slot": "152",
        "type": "t_address"
      },
      {
        "astId": 319,
        "contract": "contracts/protocol/CaskSubscriptions.sol:CaskSubscriptions",
        "label": "__gap",
        "offset": 0,
        "slot": "153",
        "type": "t_array(t_uint256)49_storage"
      },
      {
        "astId": 415,
        "contract": "contracts/protocol/CaskSubscriptions.sol:CaskSubscriptions",
        "label": "_paused",
        "offset": 0,
        "slot": "202",
        "type": "t_bool"
      },
      {
        "astId": 506,
        "contract": "contracts/protocol/CaskSubscriptions.sol:CaskSubscriptions",
        "label": "__gap",
        "offset": 0,
        "slot": "203",
        "type": "t_array(t_uint256)49_storage"
      },
      {
        "astId": 12674,
        "contract": "contracts/protocol/CaskSubscriptions.sol:CaskSubscriptions",
        "label": "subscriptionManager",
        "offset": 0,
        "slot": "252",
        "type": "t_contract(ICaskSubscriptionManager)8944"
      },
      {
        "astId": 12678,
        "contract": "contracts/protocol/CaskSubscriptions.sol:CaskSubscriptions",
        "label": "subscriptionPlans",
        "offset": 0,
        "slot": "253",
        "type": "t_contract(ICaskSubscriptionPlans)9127"
      },
      {
        "astId": 12684,
        "contract": "contracts/protocol/CaskSubscriptions.sol:CaskSubscriptions",
        "label": "consumerSubscriptions",
        "offset": 0,
        "slot": "254",
        "type": "t_mapping(t_address,t_array(t_uint256)dyn_storage)"
      },
      {
        "astId": 12689,
        "contract": "contracts/protocol/CaskSubscriptions.sol:CaskSubscriptions",
        "label": "subscriptions",
        "offset": 0,
        "slot": "255",
        "type": "t_mapping(t_uint256,t_struct(Subscription)9179_storage)"
      },
      {
        "astId": 12693,
        "contract": "contracts/protocol/CaskSubscriptions.sol:CaskSubscriptions",
        "label": "pendingPlanChanges",
        "offset": 0,
        "slot": "256",
        "type": "t_mapping(t_uint256,t_bytes32)"
      },
      {
        "astId": 12699,
        "contract": "contracts/protocol/CaskSubscriptions.sol:CaskSubscriptions",
        "label": "providerSubscriptions",
        "offset": 0,
        "slot": "257",
        "type": "t_mapping(t_address,t_array(t_uint256)dyn_storage)"
      },
      {
        "astId": 12703,
        "contract": "contracts/protocol/CaskSubscriptions.sol:CaskSubscriptions",
        "label": "providerActiveSubscriptionCount",
        "offset": 0,
        "slot": "258",
        "type": "t_mapping(t_address,t_uint256)"
      },
      {
        "astId": 12709,
        "contract": "contracts/protocol/CaskSubscriptions.sol:CaskSubscriptions",
        "label": "planActiveSubscriptionCount",
        "offset": 0,
        "slot": "259",
        "type": "t_mapping(t_address,t_mapping(t_uint32,t_uint256))"
      }
    ],
    "types": {
      "t_address": {
        "encoding": "inplace",
        "label": "address",
        "numberOfBytes": "20"
      },
      "t_array(t_uint256)44_storage": {
        "base": "t_uint256",
        "encoding": "inplace",
        "label": "uint256[44]",
        "numberOfBytes": "1408"
      },
      "t_array(t_uint256)49_storage": {
        "base": "t_uint256",
        "encoding": "inplace",
        "label": "uint256[49]",
        "numberOfBytes": "1568"
      },
      "t_array(t_uint256)50_storage": {
        "base": "t_uint256",
        "encoding": "inplace",
        "label": "uint256[50]",
        "numberOfBytes": "1600"
      },
      "t_array(t_uint256)dyn_storage": {
        "base": "t_uint256",
        "encoding": "dynamic_array",
        "label": "uint256[]",
        "numberOfBytes": "32"
      },
      "t_bool": {
        "encoding": "inplace",
        "label": "bool",
        "numberOfBytes": "1"
      },
      "t_bytes32": {
        "encoding": "inplace",
        "label": "bytes32",
        "numberOfBytes": "32"
      },
      "t_contract(ICaskSubscriptionManager)8944": {
        "encoding": "inplace",
        "label": "contract ICaskSubscriptionManager",
        "numberOfBytes": "20"
      },
      "t_contract(ICaskSubscriptionPlans)9127": {
        "encoding": "inplace",
        "label": "contract ICaskSubscriptionPlans",
        "numberOfBytes": "20"
      },
      "t_enum(SubscriptionStatus)9141": {
        "encoding": "inplace",
        "label": "enum ICaskSubscriptions.SubscriptionStatus",
        "numberOfBytes": "1"
      },
      "t_mapping(t_address,t_array(t_uint256)dyn_storage)": {
        "encoding": "mapping",
        "key": "t_address",
        "label": "mapping(address => uint256[])",
        "numberOfBytes": "32",
        "value": "t_array(t_uint256)dyn_storage"
      },
      "t_mapping(t_address,t_bool)": {
        "encoding": "mapping",
        "key": "t_address",
        "label": "mapping(address => bool)",
        "numberOfBytes": "32",
        "value": "t_bool"
      },
      "t_mapping(t_address,t_mapping(t_address,t_bool))": {
        "encoding": "mapping",
        "key": "t_address",
        "label": "mapping(address => mapping(address => bool))",
        "numberOfBytes": "32",
        "value": "t_mapping(t_address,t_bool)"
      },
      "t_mapping(t_address,t_mapping(t_uint32,t_uint256))": {
        "encoding": "mapping",
        "key": "t_address",
        "label": "mapping(address => mapping(uint32 => uint256))",
        "numberOfBytes": "32",
        "value": "t_mapping(t_uint32,t_uint256)"
      },
      "t_mapping(t_address,t_uint256)": {
        "encoding": "mapping",
        "key": "t_address",
        "label": "mapping(address => uint256)",
        "numberOfBytes": "32",
        "value": "t_uint256"
      },
      "t_mapping(t_uint256,t_address)": {
        "encoding": "mapping",
        "key": "t_uint256",
        "label": "mapping(uint256 => address)",
        "numberOfBytes": "32",
        "value": "t_address"
      },
      "t_mapping(t_uint256,t_bytes32)": {
        "encoding": "mapping",
        "key": "t_uint256",
        "label": "mapping(uint256 => bytes32)",
        "numberOfBytes": "32",
        "value": "t_bytes32"
      },
      "t_mapping(t_uint256,t_struct(Subscription)9179_storage)": {
        "encoding": "mapping",
        "key": "t_uint256",
        "label": "mapping(uint256 => struct ICaskSubscriptions.Subscription)",
        "numberOfBytes": "32",
        "value": "t_struct(Subscription)9179_storage"
      },
      "t_mapping(t_uint32,t_uint256)": {
        "encoding": "mapping",
        "key": "t_uint32",
        "label": "mapping(uint32 => uint256)",
        "numberOfBytes": "32",
        "value": "t_uint256"
      },
      "t_string_storage": {
        "encoding": "bytes",
        "label": "string",
        "numberOfBytes": "32"
      },
      "t_struct(Subscription)9179_storage": {
        "encoding": "inplace",
        "label": "struct ICaskSubscriptions.Subscription",
        "members": [
          {
            "astId": 9151,
            "contract": "contracts/protocol/CaskSubscriptions.sol:CaskSubscriptions",
            "label": "planData",
            "offset": 0,
            "slot": "0",
            "type": "t_bytes32"
          },
          {
            "astId": 9153,
            "contract": "contracts/protocol/CaskSubscriptions.sol:CaskSubscriptions",
            "label": "networkData",
            "offset": 0,
            "slot": "1",
            "type": "t_bytes32"
          },
          {
            "astId": 9155,
            "contract": "contracts/protocol/CaskSubscriptions.sol:CaskSubscriptions",
            "label": "discountId",
            "offset": 0,
            "slot": "2",
            "type": "t_bytes32"
          },
          {
            "astId": 9157,
            "contract": "contracts/protocol/CaskSubscriptions.sol:CaskSubscriptions",
            "label": "discountData",
            "offset": 0,
            "slot": "3",
            "type": "t_bytes32"
          },
          {
            "astId": 9159,
            "contract": "contracts/protocol/CaskSubscriptions.sol:CaskSubscriptions",
            "label": "ref",
            "offset": 0,
            "slot": "4",
            "type": "t_bytes32"
          },
          {
            "astId": 9161,
            "contract": "contracts/protocol/CaskSubscriptions.sol:CaskSubscriptions",
            "label": "provider",
            "offset": 0,
            "slot": "5",
            "type": "t_address"
          },
          {
            "astId": 9164,
            "contract": "contracts/protocol/CaskSubscriptions.sol:CaskSubscriptions",
            "label": "status",
            "offset": 20,
            "slot": "5",
            "type": "t_enum(SubscriptionStatus)9141"
          },
          {
            "astId": 9166,
            "contract": "contracts/protocol/CaskSubscriptions.sol:CaskSubscriptions",
            "label": "planId",
            "offset": 21,
            "slot": "5",
            "type": "t_uint32"
          },
          {
            "astId": 9168,
            "contract": "contracts/protocol/CaskSubscriptions.sol:CaskSubscriptions",
            "label": "createdAt",
            "offset": 25,
            "slot": "5",
            "type": "t_uint32"
          },
          {
            "astId": 9170,
            "contract": "contracts/protocol/CaskSubscriptions.sol:CaskSubscriptions",
            "label": "renewAt",
            "offset": 0,
            "slot": "6",
            "type": "t_uint32"
          },
          {
            "astId": 9172,
            "contract": "contracts/protocol/CaskSubscriptions.sol:CaskSubscriptions",
            "label": "minTermAt",
            "offset": 4,
            "slot": "6",
            "type": "t_uint32"
          },
          {
            "astId": 9174,
            "contract": "contracts/protocol/CaskSubscriptions.sol:CaskSubscriptions",
            "label": "cancelAt",
            "offset": 8,
            "slot": "6",
            "type": "t_uint32"
          },
          {
            "astId": 9176,
            "contract": "contracts/protocol/CaskSubscriptions.sol:CaskSubscriptions",
            "label": "cid",
            "offset": 0,
            "slot": "7",
            "type": "t_string_storage"
          },
          {
            "astId": 9178,
            "contract": "contracts/protocol/CaskSubscriptions.sol:CaskSubscriptions",
            "label": "dataCid",
            "offset": 0,
            "slot": "8",
            "type": "t_string_storage"
          }
        ],
        "numberOfBytes": "288"
      },
      "t_uint256": {
        "encoding": "inplace",
        "label": "uint256",
        "numberOfBytes": "32"
      },
      "t_uint32": {
        "encoding": "inplace",
        "label": "uint32",
        "numberOfBytes": "4"
      }
    }
  }
}