{
  "address": "0xC982Dbe66A1E1A91C442F01C54356Bc8F5C1E517",
  "abi": [
    {
      "inputs": [
        {
          "internalType": "uint256",
          "name": "amountIn",
          "type": "uint256"
        },
        {
          "internalType": "address[]",
          "name": "path",
          "type": "address[]"
        }
      ],
      "name": "getAmountsOut",
      "outputs": [
        {
          "internalType": "uint256[]",
          "name": "",
          "type": "uint256[]"
        }
      ],
      "stateMutability": "view",
      "type": "function"
    },
    {
      "inputs": [
        {
          "internalType": "address[]",
          "name": "_0tokens",
          "type": "address[]"
        },
        {
          "internalType": "address[]",
          "name": "_1tokens",
          "type": "address[]"
        }
      ],
      "name": "initialize",
      "outputs": [],
      "stateMutability": "nonpayable",
      "type": "function"
    },
    {
      "inputs": [
        {
          "internalType": "address",
          "name": "",
          "type": "address"
        }
      ],
      "name": "pairMaps",
      "outputs": [
        {
          "internalType": "address",
          "name": "",
          "type": "address"
        }
      ],
      "stateMutability": "view",
      "type": "function"
    },
    {
      "inputs": [
        {
          "internalType": "uint256",
          "name": "amountIn",
          "type": "uint256"
        },
        {
          "internalType": "uint256",
          "name": "amountOutMin",
          "type": "uint256"
        },
        {
          "internalType": "address[]",
          "name": "path",
          "type": "address[]"
        },
        {
          "internalType": "address",
          "name": "to",
          "type": "address"
        },
        {
          "internalType": "uint256",
          "name": "deadline",
          "type": "uint256"
        }
      ],
      "name": "swapExactTokensForTokens",
      "outputs": [
        {
          "internalType": "uint256[]",
          "name": "",
          "type": "uint256[]"
        }
      ],
      "stateMutability": "nonpayable",
      "type": "function"
    }
  ],
  "transactionHash": "0x1dd018e620dfb19a0a904e46e79444048fd6e33d4d3054c1a0508e00c3fd641b",
  "args": [],
  "numDeployments": 1,
  "solcInputHash": "79a7f6ff9bd8a3922495b96a9b369300",
  "bytecode": "0x608060405234801561001057600080fd5b50610ad8806100206000396000f3fe608060405234801561001057600080fd5b506004361061004c5760003560e01c806338ed1739146100515780636655524c1461007a57806373cf25f8146100bb578063d06ca61f146100d0575b600080fd5b61006461005f3660046106ac565b6100e3565b604051610071919061071c565b60405180910390f35b6100a3610088366004610760565b6000602081905290815260409020546001600160a01b031681565b6040516001600160a01b039091168152602001610071565b6100ce6100c936600461077b565b6103ea565b005b6100646100de3660046107fd565b6104f5565b60606000858560008181106100fa576100fa6108ce565b905060200201602081019061010f9190610760565b6001600160a01b0380821660009081526020818152604080832054815163313ce56760e01b8152915195965090931693919261021e928d92869263313ce5679260048083019392829003018186803b15801561016a57600080fd5b505afa15801561017e573d6000803e3d6000fd5b505050506040513d601f19601f820116820180604052508101906101a291906108e4565b60ff16856001600160a01b031663313ce5676040518163ffffffff1660e01b815260040160206040518083038186803b1580156101de57600080fd5b505afa1580156101f2573d6000803e3d6000fd5b505050506040513d601f19601f8201168201806040525081019061021691906108e4565b60ff166105e3565b9050888110156102665760405162461bcd60e51b815260206004820152600e60248201526d29b634b83830b3b29032b93937b960911b60448201526064015b60405180910390fd5b42851161027257600080fd5b6040516323b872dd60e01b8152336004820152306024820152604481018b90526001600160a01b038416906323b872dd90606401602060405180830381600087803b1580156102c057600080fd5b505af11580156102d4573d6000803e3d6000fd5b505050506040513d601f19601f820116820180604052508101906102f89190610907565b5060405163a9059cbb60e01b81526001600160a01b0387811660048301526024820183905283169063a9059cbb90604401602060405180830381600087803b15801561034357600080fd5b505af1158015610357573d6000803e3d6000fd5b505050506040513d601f19601f8201168201806040525081019061037b9190610907565b506040805160028082526060820183526000926020830190803683370190505090508a816000815181106103b1576103b16108ce565b60200260200101818152505081816001815181106103d1576103d16108ce565b60209081029190910101529a9950505050505050505050565b82811461044f5760405162461bcd60e51b815260206004820152602d60248201527f4d6f636b20746f6b656e2070616972732073686f756c64206265206f6620746860448201526c0ca40e6c2daca40d8cadccee8d609b1b606482015260840161025d565b60005b838110156104ee5782828281811061046c5761046c6108ce565b90506020020160208101906104819190610760565b600080878785818110610496576104966108ce565b90506020020160208101906104ab9190610760565b6001600160a01b039081168252602082019290925260400160002080546001600160a01b03191692909116919091179055806104e68161093f565b915050610452565b5050505050565b606060008260008151811061050c5761050c6108ce565b6020908102919091018101516001600160a01b038082166000908152808452604080822054815163313ce56760e01b81529151949650909216939092610572928992869263313ce567926004808201939291829003018186803b15801561016a57600080fd5b604080516002808252606082018352929350600092909160208301908036833701905050905086816000815181106105ac576105ac6108ce565b60200260200101818152505081816001815181106105cc576105cc6108ce565b602090810291909101015293505050505b92915050565b600081831115610613576105f7828461095a565b61060290600a610a55565b61060c9085610a61565b905061063d565b8183101561063a57610625838361095a565b61063090600a610a55565b61060c9085610a80565b50825b9392505050565b60008083601f84011261065657600080fd5b50813567ffffffffffffffff81111561066e57600080fd5b6020830191508360208260051b850101111561068957600080fd5b9250929050565b80356001600160a01b03811681146106a757600080fd5b919050565b60008060008060008060a087890312156106c557600080fd5b8635955060208701359450604087013567ffffffffffffffff8111156106ea57600080fd5b6106f689828a01610644565b9095509350610709905060608801610690565b9150608087013590509295509295509295565b6020808252825182820181905260009190848201906040850190845b8181101561075457835183529284019291840191600101610738565b50909695505050505050565b60006020828403121561077257600080fd5b61063d82610690565b6000806000806040858703121561079157600080fd5b843567ffffffffffffffff808211156107a957600080fd5b6107b588838901610644565b909650945060208701359150808211156107ce57600080fd5b506107db87828801610644565b95989497509550505050565b634e487b7160e01b600052604160045260246000fd5b6000806040838503121561081057600080fd5b8235915060208084013567ffffffffffffffff8082111561083057600080fd5b818601915086601f83011261084457600080fd5b813581811115610856576108566107e7565b8060051b604051601f19603f8301168101818110858211171561087b5761087b6107e7565b60405291825284820192508381018501918983111561089957600080fd5b938501935b828510156108be576108af85610690565b8452938501939285019261089e565b8096505050505050509250929050565b634e487b7160e01b600052603260045260246000fd5b6000602082840312156108f657600080fd5b815160ff8116811461063d57600080fd5b60006020828403121561091957600080fd5b8151801515811461063d57600080fd5b634e487b7160e01b600052601160045260246000fd5b600060001982141561095357610953610929565b5060010190565b60008282101561096c5761096c610929565b500390565b600181815b808511156109ac57816000190482111561099257610992610929565b8085161561099f57918102915b93841c9390800290610976565b509250929050565b6000826109c3575060016105dd565b816109d0575060006105dd565b81600181146109e657600281146109f057610a0c565b60019150506105dd565b60ff841115610a0157610a01610929565b50506001821b6105dd565b5060208310610133831016604e8410600b8410161715610a2f575081810a6105dd565b610a398383610971565b8060001904821115610a4d57610a4d610929565b029392505050565b600061063d83836109b4565b6000816000190483118215151615610a7b57610a7b610929565b500290565b600082610a9d57634e487b7160e01b600052601260045260246000fd5b50049056fea264697066735822122080f4c4c81528968cd80f2f0e13c735414f56464f8cba9c5cfde379119073a69764736f6c63430008090033",
  "devdoc": {
    "kind": "dev",
    "methods": {},
    "version": 1
  },
  "userdoc": {
    "kind": "user",
    "methods": {},
    "version": 1
  },
  "storageLayout": {
    "storage": [
      {
        "astId": 14231,
        "contract": "contracts/mocks/MockUniswapRouter.sol:MockUniswapRouter",
        "label": "pairMaps",
        "offset": 0,
        "slot": "0",
        "type": "t_mapping(t_address,t_address)"
      }
    ],
    "types": {
      "t_address": {
        "encoding": "inplace",
        "label": "address",
        "numberOfBytes": "20"
      },
      "t_mapping(t_address,t_address)": {
        "encoding": "mapping",
        "key": "t_address",
        "label": "mapping(address => address)",
        "numberOfBytes": "32",
        "value": "t_address"
      }
    }
  }
}