{
  "address": "0x4A6f232552E0fd76787006Bb688bFBCB931cc3d0",
  "abi": [
    {
      "inputs": [],
      "stateMutability": "nonpayable",
      "type": "constructor"
    },
    {
      "anonymous": false,
      "inputs": [
        {
          "indexed": true,
          "internalType": "address",
          "name": "previousOwner",
          "type": "address"
        },
        {
          "indexed": true,
          "internalType": "address",
          "name": "newOwner",
          "type": "address"
        }
      ],
      "name": "OwnershipTransferred",
      "type": "event"
    },
    {
      "anonymous": false,
      "inputs": [
        {
          "indexed": false,
          "internalType": "address",
          "name": "account",
          "type": "address"
        }
      ],
      "name": "Paused",
      "type": "event"
    },
    {
      "anonymous": false,
      "inputs": [
        {
          "indexed": true,
          "internalType": "address",
          "name": "provider",
          "type": "address"
        },
        {
          "indexed": true,
          "internalType": "uint32",
          "name": "planId",
          "type": "uint32"
        }
      ],
      "name": "PlanDisabled",
      "type": "event"
    },
    {
      "anonymous": false,
      "inputs": [
        {
          "indexed": true,
          "internalType": "address",
          "name": "provider",
          "type": "address"
        },
        {
          "indexed": true,
          "internalType": "uint32",
          "name": "planId",
          "type": "uint32"
        }
      ],
      "name": "PlanEnabled",
      "type": "event"
    },
    {
      "anonymous": false,
      "inputs": [
        {
          "indexed": true,
          "internalType": "address",
          "name": "provider",
          "type": "address"
        },
        {
          "indexed": true,
          "internalType": "uint32",
          "name": "planId",
          "type": "uint32"
        },
        {
          "indexed": false,
          "internalType": "uint32",
          "name": "retireAt",
          "type": "uint32"
        }
      ],
      "name": "PlanRetired",
      "type": "event"
    },
    {
      "anonymous": false,
      "inputs": [
        {
          "indexed": true,
          "internalType": "address",
          "name": "provider",
          "type": "address"
        },
        {
          "indexed": true,
          "internalType": "address",
          "name": "paymentAddress",
          "type": "address"
        },
        {
          "indexed": false,
          "internalType": "uint256",
          "name": "nonce",
          "type": "uint256"
        },
        {
          "indexed": false,
          "internalType": "string",
          "name": "cid",
          "type": "string"
        }
      ],
      "name": "ProviderSetProfile",
      "type": "event"
    },
    {
      "anonymous": false,
      "inputs": [
        {
          "indexed": false,
          "internalType": "address",
          "name": "account",
          "type": "address"
        }
      ],
      "name": "Unpaused",
      "type": "event"
    },
    {
      "inputs": [
        {
          "internalType": "uint32",
          "name": "_planId",
          "type": "uint32"
        }
      ],
      "name": "disablePlan",
      "outputs": [],
      "stateMutability": "nonpayable",
      "type": "function"
    },
    {
      "inputs": [
        {
          "internalType": "uint32",
          "name": "_planId",
          "type": "uint32"
        }
      ],
      "name": "enablePlan",
      "outputs": [],
      "stateMutability": "nonpayable",
      "type": "function"
    },
    {
      "inputs": [
        {
          "internalType": "address",
          "name": "_consumer",
          "type": "address"
        },
        {
          "internalType": "bytes32",
          "name": "_discountValidator",
          "type": "bytes32"
        }
      ],
      "name": "erc20DiscountCurrentlyApplies",
      "outputs": [
        {
          "internalType": "bool",
          "name": "",
          "type": "bool"
        }
      ],
      "stateMutability": "view",
      "type": "function"
    },
    {
      "inputs": [
        {
          "internalType": "address",
          "name": "_provider",
          "type": "address"
        },
        {
          "internalType": "uint32",
          "name": "_planId",
          "type": "uint32"
        },
        {
          "internalType": "bytes32",
          "name": "_discountId",
          "type": "bytes32"
        }
      ],
      "name": "getDiscountRedemptions",
      "outputs": [
        {
          "internalType": "uint256",
          "name": "",
          "type": "uint256"
        }
      ],
      "stateMutability": "view",
      "type": "function"
    },
    {
      "inputs": [
        {
          "internalType": "address",
          "name": "_provider",
          "type": "address"
        },
        {
          "internalType": "uint32",
          "name": "_planId",
          "type": "uint32"
        }
      ],
      "name": "getPlanEOL",
      "outputs": [
        {
          "internalType": "uint32",
          "name": "",
          "type": "uint32"
        }
      ],
      "stateMutability": "view",
      "type": "function"
    },
    {
      "inputs": [
        {
          "internalType": "address",
          "name": "_provider",
          "type": "address"
        },
        {
          "internalType": "uint32",
          "name": "_planId",
          "type": "uint32"
        }
      ],
      "name": "getPlanStatus",
      "outputs": [
        {
          "internalType": "enum ICaskSubscriptionPlans.PlanStatus",
          "name": "",
          "type": "uint8"
        }
      ],
      "stateMutability": "view",
      "type": "function"
    },
    {
      "inputs": [
        {
          "internalType": "address",
          "name": "_provider",
          "type": "address"
        }
      ],
      "name": "getProviderProfile",
      "outputs": [
        {
          "components": [
            {
              "internalType": "address",
              "name": "paymentAddress",
              "type": "address"
            },
            {
              "internalType": "uint256",
              "name": "nonce",
              "type": "uint256"
            },
            {
              "internalType": "string",
              "name": "cid",
              "type": "string"
            }
          ],
          "internalType": "struct ICaskSubscriptionPlans.Provider",
          "name": "",
          "type": "tuple"
        }
      ],
      "stateMutability": "view",
      "type": "function"
    },
    {
      "inputs": [],
      "name": "initialize",
      "outputs": [],
      "stateMutability": "nonpayable",
      "type": "function"
    },
    {
      "inputs": [
        {
          "internalType": "address",
          "name": "forwarder",
          "type": "address"
        }
      ],
      "name": "isTrustedForwarder",
      "outputs": [
        {
          "internalType": "bool",
          "name": "",
          "type": "bool"
        }
      ],
      "stateMutability": "view",
      "type": "function"
    },
    {
      "inputs": [],
      "name": "owner",
      "outputs": [
        {
          "internalType": "address",
          "name": "",
          "type": "address"
        }
      ],
      "stateMutability": "view",
      "type": "function"
    },
    {
      "inputs": [],
      "name": "pause",
      "outputs": [],
      "stateMutability": "nonpayable",
      "type": "function"
    },
    {
      "inputs": [],
      "name": "paused",
      "outputs": [
        {
          "internalType": "bool",
          "name": "",
          "type": "bool"
        }
      ],
      "stateMutability": "view",
      "type": "function"
    },
    {
      "inputs": [],
      "name": "renounceOwnership",
      "outputs": [],
      "stateMutability": "nonpayable",
      "type": "function"
    },
    {
      "inputs": [
        {
          "internalType": "uint32",
          "name": "_planId",
          "type": "uint32"
        },
        {
          "internalType": "uint32",
          "name": "_retireAt",
          "type": "uint32"
        }
      ],
      "name": "retirePlan",
      "outputs": [],
      "stateMutability": "nonpayable",
      "type": "function"
    },
    {
      "inputs": [
        {
          "internalType": "address",
          "name": "_subscriptionManager",
          "type": "address"
        }
      ],
      "name": "setManager",
      "outputs": [],
      "stateMutability": "nonpayable",
      "type": "function"
    },
    {
      "inputs": [
        {
          "internalType": "address",
          "name": "_paymentAddress",
          "type": "address"
        },
        {
          "internalType": "string",
          "name": "_cid",
          "type": "string"
        },
        {
          "internalType": "uint256",
          "name": "_nonce",
          "type": "uint256"
        }
      ],
      "name": "setProviderProfile",
      "outputs": [],
      "stateMutability": "nonpayable",
      "type": "function"
    },
    {
      "inputs": [
        {
          "internalType": "address",
          "name": "_subscriptions",
          "type": "address"
        }
      ],
      "name": "setSubscriptions",
      "outputs": [],
      "stateMutability": "nonpayable",
      "type": "function"
    },
    {
      "inputs": [
        {
          "internalType": "address",
          "name": "_forwarder",
          "type": "address"
        }
      ],
      "name": "setTrustedForwarder",
      "outputs": [],
      "stateMutability": "nonpayable",
      "type": "function"
    },
    {
      "inputs": [],
      "name": "subscriptionManager",
      "outputs": [
        {
          "internalType": "address",
          "name": "",
          "type": "address"
        }
      ],
      "stateMutability": "view",
      "type": "function"
    },
    {
      "inputs": [],
      "name": "subscriptions",
      "outputs": [
        {
          "internalType": "address",
          "name": "",
          "type": "address"
        }
      ],
      "stateMutability": "view",
      "type": "function"
    },
    {
      "inputs": [
        {
          "internalType": "address",
          "name": "newOwner",
          "type": "address"
        }
      ],
      "name": "transferOwnership",
      "outputs": [],
      "stateMutability": "nonpayable",
      "type": "function"
    },
    {
      "inputs": [],
      "name": "trustedForwarder",
      "outputs": [
        {
          "internalType": "address",
          "name": "",
          "type": "address"
        }
      ],
      "stateMutability": "view",
      "type": "function"
    },
    {
      "inputs": [],
      "name": "unpause",
      "outputs": [],
      "stateMutability": "nonpayable",
      "type": "function"
    },
    {
      "inputs": [
        {
          "internalType": "address",
          "name": "_consumer",
          "type": "address"
        },
        {
          "internalType": "address",
          "name": "_provider",
          "type": "address"
        },
        {
          "internalType": "uint32",
          "name": "_planId",
          "type": "uint32"
        },
        {
          "internalType": "bytes32[]",
          "name": "_discountProof",
          "type": "bytes32[]"
        }
      ],
      "name": "verifyAndConsumeDiscount",
      "outputs": [
        {
          "internalType": "bytes32",
          "name": "",
          "type": "bytes32"
        }
      ],
      "stateMutability": "nonpayable",
      "type": "function"
    },
    {
      "inputs": [
        {
          "internalType": "address",
          "name": "_consumer",
          "type": "address"
        },
        {
          "internalType": "address",
          "name": "_provider",
          "type": "address"
        },
        {
          "internalType": "uint32",
          "name": "_planId",
          "type": "uint32"
        },
        {
          "internalType": "bytes32[]",
          "name": "_discountProof",
          "type": "bytes32[]"
        }
      ],
      "name": "verifyDiscount",
      "outputs": [
        {
          "internalType": "bytes32",
          "name": "",
          "type": "bytes32"
        }
      ],
      "stateMutability": "view",
      "type": "function"
    },
    {
      "inputs": [
        {
          "internalType": "bytes32",
          "name": "_planData",
          "type": "bytes32"
        },
        {
          "internalType": "bytes32",
          "name": "_merkleRoot",
          "type": "bytes32"
        },
        {
          "internalType": "bytes32[]",
          "name": "_merkleProof",
          "type": "bytes32[]"
        }
      ],
      "name": "verifyPlan",
      "outputs": [
        {
          "internalType": "bool",
          "name": "",
          "type": "bool"
        }
      ],
      "stateMutability": "pure",
      "type": "function"
    },
    {
      "inputs": [],
      "name": "versionRecipient",
      "outputs": [
        {
          "internalType": "string",
          "name": "",
          "type": "string"
        }
      ],
      "stateMutability": "pure",
      "type": "function"
    }
  ],
  "transactionHash": "0x548081fba2b9988f47cf55317082701ea547cd752d25cff72b0acbd1538eb53d",
  "args": [],
  "numDeployments": 1,
  "solcInputHash": "0fe117bee0ef6019dfc2d4e607c75167",
  "bytecode": "0x60806040523480156200001157600080fd5b50600054600160a81b900460ff166200003857600054600160a01b900460ff161562000042565b62000042620000f1565b620000aa5760405162461bcd60e51b815260206004820152602e60248201527f496e697469616c697a61626c653a20636f6e747261637420697320616c72656160448201526d191e481a5b9a5d1a585b1a5e995960921b606482015260840160405180910390fd5b600054600160a81b900460ff16158015620000d5576000805461ffff60a01b191661010160a01b1790555b8015620000ea576000805460ff60a81b191690555b5062000115565b600062000109306200010f60201b620011661760201c565b15905090565b3b151590565b61206280620001256000396000f3fe608060405234801561001057600080fd5b50600436106101a95760003560e01c80637da0a877116100f9578063b8e381e511610097578063cd1402e711610071578063cd1402e7146103e4578063d0ebdbe7146103f7578063da7422281461040a578063f2fde38b1461041d57600080fd5b8063b8e381e5146103ab578063bf158fd2146103be578063c5b2cfce146103d157600080fd5b80638da5cb5b116100d35780638da5cb5b146103265780639c4f7d5914610337578063b0d8985c1461034a578063b6ab359f1461035d57600080fd5b80637da0a877146102f15780638129fc1c146103165780638456cb591461031e57600080fd5b8063486ff0cd11610166578063715018a611610140578063715018a6146102b057806371ce3e66146102b8578063762f3e3d146102cb57806379c19bc4146102de57600080fd5b8063486ff0cd1461024c578063572b6c05146102735780635c975abb146102a557600080fd5b8063025b6875146101ae5780631bc569b5146101db5780632218d7d3146101f0578063256c6ba9146102115780633c17dac8146102245780633f4ba83a14610244575b600080fd5b6101c16101bc3660046119ff565b610430565b60405163ffffffff90911681526020015b60405180910390f35b6101ee6101e9366004611a32565b610463565b005b6102036101fe366004611a99565b610593565b6040519081526020016101d2565b6101ee61021f366004611a32565b610681565b610237610232366004611b0f565b6107ad565b6040516101d29190611b77565b6101ee610898565b60408051808201825260058152640322e322e360dc1b602082015290516101d29190611bae565b610295610281366004611b0f565b6000546001600160a01b0391821691161490565b60405190151581526020016101d2565b60655460ff16610295565b6101ee6108eb565b6102956102c6366004611bc1565b61093e565b6102036102d9366004611c14565b6109ac565b6102036102ec366004611a99565b6109e6565b6000546001600160a01b03165b6040516001600160a01b0390911681526020016101d2565b6101ee610aa4565b6101ee610b90565b6033546001600160a01b03166102fe565b6101ee610345366004611b0f565b610be1565b6101ee610358366004611c50565b610c4c565b61039e61036b3660046119ff565b6001600160a01b038216600090815260996020908152604080832063ffffffff8516845290915290205460ff1692915050565b6040516101d29190611cef565b609c546102fe906001600160a01b031681565b6097546102fe906001600160a01b031681565b6101ee6103df366004611d17565b610d47565b6102956103f2366004611d33565b610e42565b6101ee610405366004611b0f565b610fdd565b6101ee610418366004611b0f565b611048565b6101ee61042b366004611b0f565b6110af565b6001600160a01b0382166000908152609a6020908152604080832063ffffffff8086168552925290912054165b92915050565b60006099600061047161116c565b6001600160a01b031681526020808201929092526040908101600090812063ffffffff8616825290925290205460ff1660028111156104b2576104b2611cd9565b146104f35760405162461bcd60e51b815260206004820152600c60248201526b085393d517d153905093115160a21b60448201526064015b60405180910390fd5b60016099600061050161116c565b6001600160a01b031681526020808201929092526040908101600090812063ffffffff861682529092529020805460ff1916600183600281111561054757610547611cd9565b02179055508063ffffffff1661055b61116c565b6001600160a01b03167f50ec551c598cd517a78f91d12398f4f1d95e0171a4393505d01401f8b6c940a760405160405180910390a350565b609c546000906001600160a01b03166105aa61116c565b6001600160a01b0316146105e85760405162461bcd60e51b815260206004820152600560248201526404282aaa8960db1b60448201526064016104ea565b60006105f787878787876109e6565b905080156106755760006106238585600181811061061757610617611d5d565b9050602002013561117b565b6001600160a01b0388166000908152609b60209081526040808320608085015163ffffffff16845282528083208684529091528120805492935060019290919061066e908490611d89565b9091555050505b90505b95945050505050565b60016099600061068f61116c565b6001600160a01b031681526020808201929092526040908101600090812063ffffffff8616825290925290205460ff1660028111156106d0576106d0611cd9565b1461070d5760405162461bcd60e51b815260206004820152600d60248201526c085393d517d11254d050931151609a1b60448201526064016104ea565b60006099600061071b61116c565b6001600160a01b031681526020808201929092526040908101600090812063ffffffff861682529092529020805460ff1916600183600281111561076157610761611cd9565b02179055508063ffffffff1661077561116c565b6001600160a01b03167fb6af1d2951898e17e763c18b77daf0ada2f2753802d37868e67797e87991a29860405160405180910390a350565b6040805160608082018352600080835260208084018290528385018390526001600160a01b0386811683526098825291859020855193840186528054909216835260018201549083015260028101805493949293919284019161080f90611da1565b80601f016020809104026020016040519081016040528092919081815260200182805461083b90611da1565b80156108885780601f1061085d57610100808354040283529160200191610888565b820191906000526020600020905b81548152906001019060200180831161086b57829003601f168201915b5050505050815250509050919050565b6108a061116c565b6001600160a01b03166108bb6033546001600160a01b031690565b6001600160a01b0316146108e15760405162461bcd60e51b81526004016104ea90611ddc565b6108e9611263565b565b6108f361116c565b6001600160a01b031661090e6033546001600160a01b031690565b6001600160a01b0316146109345760405162461bcd60e51b81526004016104ea90611ddc565b6108e960006112fc565b60006109a18383808060200260200160405190810160405280939291908181526020018383602002808284376000920191909152505060408051602081018b90528993500190505b6040516020818303038152906040528051906020012061134e565b90505b949350505050565b6001600160a01b0383166000908152609b6020908152604080832063ffffffff8616845282528083208484529091529020545b9392505050565b60006003821080610a12575082826000818110610a0557610a05611d5d565b905060200201356000801b145b15610a1f57506000610678565b6000610a4384846001818110610a3757610a37611d5d565b90506020020135611364565b90506001816002811115610a5957610a59611cd9565b1415610a7357610a6b8686868661137b565b915050610678565b6002816002811115610a8757610a87611cd9565b1415610a9a57610a6b8787878787611449565b5060009050610678565b600054600160a81b900460ff16610ac857600054600160a01b900460ff1615610acc565b303b155b610b2f5760405162461bcd60e51b815260206004820152602e60248201527f496e697469616c697a61626c653a20636f6e747261637420697320616c72656160448201526d191e481a5b9a5d1a585b1a5e995960921b60648201526084016104ea565b600054600160a81b900460ff16158015610b59576000805461ffff60a01b191661010160a01b1790555b610b616114f5565b610b6961152e565b609c80546001600160a01b03191690558015610b8d576000805460ff60a81b191690555b50565b610b9861116c565b6001600160a01b0316610bb36033546001600160a01b031690565b6001600160a01b031614610bd95760405162461bcd60e51b81526004016104ea90611ddc565b6108e9611567565b610be961116c565b6001600160a01b0316610c046033546001600160a01b031690565b6001600160a01b031614610c2a5760405162461bcd60e51b81526004016104ea90611ddc565b609c80546001600160a01b0319166001600160a01b0392909216919091179055565b600060986000610c5a61116c565b6001600160a01b031681526020810191909152604001600020600181015490915015610cbc5780600101548211610cbc5760405162461bcd60e51b8152602060048201526006602482015265214e4f4e434560d01b60448201526064016104ea565b80546001600160a01b0319166001600160a01b038616178155610ce3600282018585611936565b50600181018290556001600160a01b038516610cfd61116c565b6001600160a01b03167e0b4932fa91cc5ebcac0f9fb3ab2ae36eb6ba359cdd98d49954b5a700a21109848787604051610d3893929190611e11565b60405180910390a35050505050565b600260996000610d5561116c565b6001600160a01b031681526020808201929092526040908101600090812063ffffffff871682529092529020805460ff19166001836002811115610d9b57610d9b611cd9565b021790555080609a6000610dad61116c565b6001600160a01b031681526020808201929092526040908101600090812063ffffffff87811680845291909452919020805463ffffffff191693909216929092179055610df861116c565b60405163ffffffff841681526001600160a01b0391909116907fb14722ab80cf12b24122b69280630813ed38d597d93a29801fa9087cb8968a5d9060200160405180910390a35050565b6000606082901c60ff605884901c811690811415610f0657816001600160a01b031663313ce5676040518163ffffffff1660e01b815260040160206040518083038186803b158015610e9357600080fd5b505afa925050508015610ec3575060408051601f3d908101601f19168201909252610ec091810190611e47565b60015b610f03573d808015610ef1576040519150601f19603f3d011682016040523d82523d6000602084013e610ef6565b606091505b506000935050505061045d565b90505b6040516370a0823160e01b81526001600160a01b0386811660048301528316906370a082319060240160206040518083038186803b158015610f4757600080fd5b505afa925050508015610f77575060408051601f3d908101601f19168201909252610f7491810190611e6a565b60015b610fa5573d808015610ef1576040519150601f19603f3d011682016040523d82523d6000602084013e610ef6565b60ff821615610fc657610fb982600a611f67565b610fc39082611f76565b90505b67ffffffffffffffff85161115925061045d915050565b610fe561116c565b6001600160a01b03166110006033546001600160a01b031690565b6001600160a01b0316146110265760405162461bcd60e51b81526004016104ea90611ddc565b609780546001600160a01b0319166001600160a01b0392909216919091179055565b61105061116c565b6001600160a01b031661106b6033546001600160a01b031690565b6001600160a01b0316146110915760405162461bcd60e51b81526004016104ea90611ddc565b600080546001600160a01b0319166001600160a01b03831617905550565b6110b761116c565b6001600160a01b03166110d26033546001600160a01b031690565b6001600160a01b0316146110f85760405162461bcd60e51b81526004016104ea90611ddc565b6001600160a01b03811661115d5760405162461bcd60e51b815260206004820152602660248201527f4f776e61626c653a206e6577206f776e657220697320746865207a65726f206160448201526564647265737360d01b60648201526084016104ea565b610b8d816112fc565b3b151590565b60006111766115e3565b905090565b6040805161010081018252600080825260208201819052918101829052606081018290526080810182905260a0810182905260c0810182905260e0810191909152604080516101008101825260a084811c825263ffffffff608086811c8216602080860191909152606088811c8416868801529588901c8316958501959095529386901c169282019290925261ffff601085901c169181019190915260f083901b9060c0810160ff8516600281111561123657611236611cd9565b600281111561124757611247611cd9565b8152600160f81b92831690921460209092019190915292915050565b60655460ff166112ac5760405162461bcd60e51b815260206004820152601460248201527314185d5cd8589b194e881b9bdd081c185d5cd95960621b60448201526064016104ea565b6065805460ff191690557f5db9ee0a495bf2e6ff9c91a7834c1ba4fdd244a5e8aa4e537bd38aeae4b073aa6112df61116c565b6040516001600160a01b03909116815260200160405180910390a1565b603380546001600160a01b038381166001600160a01b0319831681179093556040519116919082907f8be0079c531659141344cd1fd0a4f28419497f9722a3daafe3b4186f6b6457e090600090a35050565b60008261135b8584611617565b14949350505050565b600060ff8216600281111561045d5761045d611cd9565b600060038210806113a757508282600081811061139a5761139a611d5d565b905060200201356000801b145b156113b4575060006109a4565b6000838360008181106113c9576113c9611d5d565b905060200201356040516020016113e291815260200190565b6040516020818303038152906040528051906020012090506114058185856116c3565b801561143157506114318187878787600181811061142557611425611d5d565b905060200201356117a8565b1561143d5790506109a4565b50600095945050505050565b6000600382108061147557508282600081811061146857611468611d5d565b905060200201356000801b145b1561148257506000610678565b60008383600081811061149757611497611d5d565b9050602002013590506114ab8185856116c3565b80156114bc57506114bc8782610e42565b80156114dc57506114dc8187878787600181811061142557611425611d5d565b156114e8579050610678565b5060009695505050505050565b600054600160a81b900460ff1661151e5760405162461bcd60e51b81526004016104ea90611f98565b61152661189f565b6108e96118c8565b600054600160a81b900460ff166115575760405162461bcd60e51b81526004016104ea90611f98565b61155f61189f565b6108e9611901565b60655460ff16156115ad5760405162461bcd60e51b815260206004820152601060248201526f14185d5cd8589b194e881c185d5cd95960821b60448201526064016104ea565b6065805460ff191660011790557f62e78cea01bee320cd4e420270b5ea74000d11b0c9f74754ebdbfc544b05a2586112df61116c565b60006014361080159061160057506000546001600160a01b031633145b15611612575060131936013560601c90565b503390565b600081815b84518110156116bb57600085828151811061163957611639611d5d565b6020026020010151905080831161167b5760408051602081018590529081018290526060016040516020818303038152906040528051906020012092506116a8565b60408051602081018390529081018490526060016040516020818303038152906040528051906020012092505b50806116b381611fe3565b91505061161c565b509392505050565b600060038210806116ef5750828260008181106116e2576116e2611d5d565b905060200201356000801b145b156116fc575060006109df565b60408051600081526020810190915260048310611755576117208360038187611ffe565b808060200260200160405190810160405280939291908181526020018383602002808284376000920191909152509293505050505b610678818585600281811061176c5761176c611d5d565b90506020020135878787600181811061178757611787611d5d565b90506020020135604051602001610986929190918252602082015260400190565b6000806117b48361117b565b9050806080015163ffffffff16600014806117de57508363ffffffff16816080015163ffffffff16145b801561183a5750606081015163ffffffff16158061183a575060608101516001600160a01b0386166000908152609b60209081526040808320608086015163ffffffff90811685529083528184208b8552909252909120549116115b80156118685750602081015163ffffffff16158061186857504263ffffffff16816020015163ffffffff1611155b80156118955750604081015163ffffffff16158061189557504263ffffffff16816040015163ffffffff16115b9695505050505050565b600054600160a81b900460ff166108e95760405162461bcd60e51b81526004016104ea90611f98565b600054600160a81b900460ff166118f15760405162461bcd60e51b81526004016104ea90611f98565b6108e96118fc61116c565b6112fc565b600054600160a81b900460ff1661192a5760405162461bcd60e51b81526004016104ea90611f98565b6065805460ff19169055565b82805461194290611da1565b90600052602060002090601f01602090048101928261196457600085556119aa565b82601f1061197d5782800160ff198235161785556119aa565b828001600101855582156119aa579182015b828111156119aa57823582559160200191906001019061198f565b506119b69291506119ba565b5090565b5b808211156119b657600081556001016119bb565b80356001600160a01b03811681146119e657600080fd5b919050565b803563ffffffff811681146119e657600080fd5b60008060408385031215611a1257600080fd5b611a1b836119cf565b9150611a29602084016119eb565b90509250929050565b600060208284031215611a4457600080fd5b6109df826119eb565b60008083601f840112611a5f57600080fd5b50813567ffffffffffffffff811115611a7757600080fd5b6020830191508360208260051b8501011115611a9257600080fd5b9250929050565b600080600080600060808688031215611ab157600080fd5b611aba866119cf565b9450611ac8602087016119cf565b9350611ad6604087016119eb565b9250606086013567ffffffffffffffff811115611af257600080fd5b611afe88828901611a4d565b969995985093965092949392505050565b600060208284031215611b2157600080fd5b6109df826119cf565b6000815180845260005b81811015611b5057602081850181015186830182015201611b34565b81811115611b62576000602083870101525b50601f01601f19169290920160200192915050565b6020815260018060a01b03825116602082015260208201516040820152600060408301516060808401526109a46080840182611b2a565b6020815260006109df6020830184611b2a565b60008060008060608587031215611bd757600080fd5b8435935060208501359250604085013567ffffffffffffffff811115611bfc57600080fd5b611c0887828801611a4d565b95989497509550505050565b600080600060608486031215611c2957600080fd5b611c32846119cf565b9250611c40602085016119eb565b9150604084013590509250925092565b60008060008060608587031215611c6657600080fd5b611c6f856119cf565b9350602085013567ffffffffffffffff80821115611c8c57600080fd5b818701915087601f830112611ca057600080fd5b813581811115611caf57600080fd5b886020828501011115611cc157600080fd5b95986020929092019750949560400135945092505050565b634e487b7160e01b600052602160045260246000fd5b6020810160038310611d1157634e487b7160e01b600052602160045260246000fd5b91905290565b60008060408385031215611d2a57600080fd5b611a1b836119eb565b60008060408385031215611d4657600080fd5b611d4f836119cf565b946020939093013593505050565b634e487b7160e01b600052603260045260246000fd5b634e487b7160e01b600052601160045260246000fd5b60008219821115611d9c57611d9c611d73565b500190565b600181811c90821680611db557607f821691505b60208210811415611dd657634e487b7160e01b600052602260045260246000fd5b50919050565b6020808252818101527f4f776e61626c653a2063616c6c6572206973206e6f7420746865206f776e6572604082015260600190565b83815260406020820152816040820152818360608301376000818301606090810191909152601f909201601f1916010192915050565b600060208284031215611e5957600080fd5b815160ff811681146109df57600080fd5b600060208284031215611e7c57600080fd5b5051919050565b600181815b80851115611ebe578160001904821115611ea457611ea4611d73565b80851615611eb157918102915b93841c9390800290611e88565b509250929050565b600082611ed55750600161045d565b81611ee25750600061045d565b8160018114611ef85760028114611f0257611f1e565b600191505061045d565b60ff841115611f1357611f13611d73565b50506001821b61045d565b5060208310610133831016604e8410600b8410161715611f41575081810a61045d565b611f4b8383611e83565b8060001904821115611f5f57611f5f611d73565b029392505050565b60006109df60ff841683611ec6565b600082611f9357634e487b7160e01b600052601260045260246000fd5b500490565b6020808252602b908201527f496e697469616c697a61626c653a20636f6e7472616374206973206e6f74206960408201526a6e697469616c697a696e6760a81b606082015260800190565b6000600019821415611ff757611ff7611d73565b5060010190565b6000808585111561200e57600080fd5b8386111561201b57600080fd5b5050600583901b019391909203915056fea264697066735822122028894e5d57a3229905f357a0d350c66d6e7938f2aeb7848b447ae359c6e9a94764736f6c63430008090033",
  "devdoc": {
    "kind": "dev",
    "methods": {
      "constructor": {
        "custom:oz-upgrades-unsafe-allow": "constructor"
      },
      "owner()": {
        "details": "Returns the address of the current owner."
      },
      "paused()": {
        "details": "Returns true if the contract is paused, and false otherwise."
      },
      "renounceOwnership()": {
        "details": "Leaves the contract without owner. It will not be possible to call `onlyOwner` functions anymore. Can only be called by the current owner. NOTE: Renouncing ownership will leave the contract without an owner, thereby removing any functionality that is only available to the owner."
      },
      "transferOwnership(address)": {
        "details": "Transfers ownership of the contract to a new account (`newOwner`). Can only be called by the current owner."
      }
    },
    "stateVariables": {
      "discountRedemptions": {
        "details": "Maps for discounts. "
      },
      "planStatus": {
        "details": "Map for current plan status. "
      },
      "providerProfiles": {
        "details": "Map for provider to profile info. "
      },
      "subscriptionManager": {
        "details": "Address of subscription manager. "
      },
      "subscriptions": {
        "details": "Address of subscriptions contract. "
      }
    },
    "version": 1
  },
  "userdoc": {
    "kind": "user",
    "methods": {
      "isTrustedForwarder(address)": {
        "notice": "return if the forwarder is trusted to forward relayed transactions to us. the forwarder is required to verify the sender's signature, and verify the call is not a replay."
      }
    },
    "version": 1
  },
  "storageLayout": {
    "storage": [
      {
        "astId": 72,
        "contract": "contracts/subscriptions/CaskSubscriptionPlans.sol:CaskSubscriptionPlans",
        "label": "_trustedForwarder",
        "offset": 0,
        "slot": "0",
        "type": "t_address"
      },
      {
        "astId": 327,
        "contract": "contracts/subscriptions/CaskSubscriptionPlans.sol:CaskSubscriptionPlans",
        "label": "_initialized",
        "offset": 20,
        "slot": "0",
        "type": "t_bool"
      },
      {
        "astId": 330,
        "contract": "contracts/subscriptions/CaskSubscriptionPlans.sol:CaskSubscriptionPlans",
        "label": "_initializing",
        "offset": 21,
        "slot": "0",
        "type": "t_bool"
      },
      {
        "astId": 2551,
        "contract": "contracts/subscriptions/CaskSubscriptionPlans.sol:CaskSubscriptionPlans",
        "label": "__gap",
        "offset": 0,
        "slot": "1",
        "type": "t_array(t_uint256)50_storage"
      },
      {
        "astId": 205,
        "contract": "contracts/subscriptions/CaskSubscriptionPlans.sol:CaskSubscriptionPlans",
        "label": "_owner",
        "offset": 0,
        "slot": "51",
        "type": "t_address"
      },
      {
        "astId": 319,
        "contract": "contracts/subscriptions/CaskSubscriptionPlans.sol:CaskSubscriptionPlans",
        "label": "__gap",
        "offset": 0,
        "slot": "52",
        "type": "t_array(t_uint256)49_storage"
      },
      {
        "astId": 415,
        "contract": "contracts/subscriptions/CaskSubscriptionPlans.sol:CaskSubscriptionPlans",
        "label": "_paused",
        "offset": 0,
        "slot": "101",
        "type": "t_bool"
      },
      {
        "astId": 506,
        "contract": "contracts/subscriptions/CaskSubscriptionPlans.sol:CaskSubscriptionPlans",
        "label": "__gap",
        "offset": 0,
        "slot": "102",
        "type": "t_array(t_uint256)49_storage"
      },
      {
        "astId": 17604,
        "contract": "contracts/subscriptions/CaskSubscriptionPlans.sol:CaskSubscriptionPlans",
        "label": "subscriptionManager",
        "offset": 0,
        "slot": "151",
        "type": "t_address"
      },
      {
        "astId": 17610,
        "contract": "contracts/subscriptions/CaskSubscriptionPlans.sol:CaskSubscriptionPlans",
        "label": "providerProfiles",
        "offset": 0,
        "slot": "152",
        "type": "t_mapping(t_address,t_struct(Provider)12950_storage)"
      },
      {
        "astId": 17618,
        "contract": "contracts/subscriptions/CaskSubscriptionPlans.sol:CaskSubscriptionPlans",
        "label": "planStatus",
        "offset": 0,
        "slot": "153",
        "type": "t_mapping(t_address,t_mapping(t_uint32,t_enum(PlanStatus)12921))"
      },
      {
        "astId": 17624,
        "contract": "contracts/subscriptions/CaskSubscriptionPlans.sol:CaskSubscriptionPlans",
        "label": "planEol",
        "offset": 0,
        "slot": "154",
        "type": "t_mapping(t_address,t_mapping(t_uint32,t_uint32))"
      },
      {
        "astId": 17633,
        "contract": "contracts/subscriptions/CaskSubscriptionPlans.sol:CaskSubscriptionPlans",
        "label": "discountRedemptions",
        "offset": 0,
        "slot": "155",
        "type": "t_mapping(t_address,t_mapping(t_uint32,t_mapping(t_bytes32,t_uint256)))"
      },
      {
        "astId": 17636,
        "contract": "contracts/subscriptions/CaskSubscriptionPlans.sol:CaskSubscriptionPlans",
        "label": "subscriptions",
        "offset": 0,
        "slot": "156",
        "type": "t_address"
      }
    ],
    "types": {
      "t_address": {
        "encoding": "inplace",
        "label": "address",
        "numberOfBytes": "20"
      },
      "t_array(t_uint256)49_storage": {
        "base": "t_uint256",
        "encoding": "inplace",
        "label": "uint256[49]",
        "numberOfBytes": "1568"
      },
      "t_array(t_uint256)50_storage": {
        "base": "t_uint256",
        "encoding": "inplace",
        "label": "uint256[50]",
        "numberOfBytes": "1600"
      },
      "t_bool": {
        "encoding": "inplace",
        "label": "bool",
        "numberOfBytes": "1"
      },
      "t_bytes32": {
        "encoding": "inplace",
        "label": "bytes32",
        "numberOfBytes": "32"
      },
      "t_enum(PlanStatus)12921": {
        "encoding": "inplace",
        "label": "enum ICaskSubscriptionPlans.PlanStatus",
        "numberOfBytes": "1"
      },
      "t_mapping(t_address,t_mapping(t_uint32,t_enum(PlanStatus)12921))": {
        "encoding": "mapping",
        "key": "t_address",
        "label": "mapping(address => mapping(uint32 => enum ICaskSubscriptionPlans.PlanStatus))",
        "numberOfBytes": "32",
        "value": "t_mapping(t_uint32,t_enum(PlanStatus)12921)"
      },
      "t_mapping(t_address,t_mapping(t_uint32,t_mapping(t_bytes32,t_uint256)))": {
        "encoding": "mapping",
        "key": "t_address",
        "label": "mapping(address => mapping(uint32 => mapping(bytes32 => uint256)))",
        "numberOfBytes": "32",
        "value": "t_mapping(t_uint32,t_mapping(t_bytes32,t_uint256))"
      },
      "t_mapping(t_address,t_mapping(t_uint32,t_uint32))": {
        "encoding": "mapping",
        "key": "t_address",
        "label": "mapping(address => mapping(uint32 => uint32))",
        "numberOfBytes": "32",
        "value": "t_mapping(t_uint32,t_uint32)"
      },
      "t_mapping(t_address,t_struct(Provider)12950_storage)": {
        "encoding": "mapping",
        "key": "t_address",
        "label": "mapping(address => struct ICaskSubscriptionPlans.Provider)",
        "numberOfBytes": "32",
        "value": "t_struct(Provider)12950_storage"
      },
      "t_mapping(t_bytes32,t_uint256)": {
        "encoding": "mapping",
        "key": "t_bytes32",
        "label": "mapping(bytes32 => uint256)",
        "numberOfBytes": "32",
        "value": "t_uint256"
      },
      "t_mapping(t_uint32,t_enum(PlanStatus)12921)": {
        "encoding": "mapping",
        "key": "t_uint32",
        "label": "mapping(uint32 => enum ICaskSubscriptionPlans.PlanStatus)",
        "numberOfBytes": "32",
        "value": "t_enum(PlanStatus)12921"
      },
      "t_mapping(t_uint32,t_mapping(t_bytes32,t_uint256))": {
        "encoding": "mapping",
        "key": "t_uint32",
        "label": "mapping(uint32 => mapping(bytes32 => uint256))",
        "numberOfBytes": "32",
        "value": "t_mapping(t_bytes32,t_uint256)"
      },
      "t_mapping(t_uint32,t_uint32)": {
        "encoding": "mapping",
        "key": "t_uint32",
        "label": "mapping(uint32 => uint32)",
        "numberOfBytes": "32",
        "value": "t_uint32"
      },
      "t_string_storage": {
        "encoding": "bytes",
        "label": "string",
        "numberOfBytes": "32"
      },
      "t_struct(Provider)12950_storage": {
        "encoding": "inplace",
        "label": "struct ICaskSubscriptionPlans.Provider",
        "members": [
          {
            "astId": 12945,
            "contract": "contracts/subscriptions/CaskSubscriptionPlans.sol:CaskSubscriptionPlans",
            "label": "paymentAddress",
            "offset": 0,
            "slot": "0",
            "type": "t_address"
          },
          {
            "astId": 12947,
            "contract": "contracts/subscriptions/CaskSubscriptionPlans.sol:CaskSubscriptionPlans",
            "label": "nonce",
            "offset": 0,
            "slot": "1",
            "type": "t_uint256"
          },
          {
            "astId": 12949,
            "contract": "contracts/subscriptions/CaskSubscriptionPlans.sol:CaskSubscriptionPlans",
            "label": "cid",
            "offset": 0,
            "slot": "2",
            "type": "t_string_storage"
          }
        ],
        "numberOfBytes": "96"
      },
      "t_uint256": {
        "encoding": "inplace",
        "label": "uint256",
        "numberOfBytes": "32"
      },
      "t_uint32": {
        "encoding": "inplace",
        "label": "uint32",
        "numberOfBytes": "4"
      }
    }
  }
}