{
  "address": "0x6447e627E760d73c73fA8351beD4021f6ce18662",
  "abi": [
    {
      "inputs": [
        {
          "internalType": "address",
          "name": "rewardToken_",
          "type": "address"
        },
        {
          "internalType": "uint256",
          "name": "startafter_",
          "type": "uint256"
        },
        {
          "internalType": "uint256",
          "name": "duration_",
          "type": "uint256"
        },
        {
          "internalType": "bool",
          "name": "canDisable_",
          "type": "bool"
        },
        {
          "internalType": "address",
          "name": "fundAdmin_",
          "type": "address"
        }
      ],
      "stateMutability": "nonpayable",
      "type": "constructor"
    },
    {
      "anonymous": false,
      "inputs": [
        {
          "indexed": true,
          "internalType": "address",
          "name": "user",
          "type": "address"
        },
        {
          "indexed": false,
          "internalType": "uint256",
          "name": "amount",
          "type": "uint256"
        }
      ],
      "name": "Claim",
      "type": "event"
    },
    {
      "anonymous": false,
      "inputs": [
        {
          "indexed": true,
          "internalType": "address",
          "name": "recipient",
          "type": "address"
        },
        {
          "indexed": false,
          "internalType": "uint256",
          "name": "reward",
          "type": "uint256"
        }
      ],
      "name": "Fund",
      "type": "event"
    },
    {
      "anonymous": false,
      "inputs": [
        {
          "indexed": false,
          "internalType": "address",
          "name": "recipient",
          "type": "address"
        },
        {
          "indexed": false,
          "internalType": "bool",
          "name": "disabled",
          "type": "bool"
        }
      ],
      "name": "ToggleDisable",
      "type": "event"
    },
    {
      "inputs": [
        {
          "internalType": "uint256",
          "name": "_amount",
          "type": "uint256"
        }
      ],
      "name": "addTokens",
      "outputs": [
        {
          "internalType": "bool",
          "name": "",
          "type": "bool"
        }
      ],
      "stateMutability": "nonpayable",
      "type": "function"
    },
    {
      "inputs": [],
      "name": "admin",
      "outputs": [
        {
          "internalType": "address",
          "name": "",
          "type": "address"
        }
      ],
      "stateMutability": "view",
      "type": "function"
    },
    {
      "inputs": [
        {
          "internalType": "address",
          "name": "_recipient",
          "type": "address"
        }
      ],
      "name": "balanceOf",
      "outputs": [
        {
          "internalType": "uint256",
          "name": "",
          "type": "uint256"
        }
      ],
      "stateMutability": "view",
      "type": "function"
    },
    {
      "inputs": [],
      "name": "canDisable",
      "outputs": [
        {
          "internalType": "bool",
          "name": "",
          "type": "bool"
        }
      ],
      "stateMutability": "view",
      "type": "function"
    },
    {
      "inputs": [
        {
          "internalType": "address",
          "name": "_recipient",
          "type": "address"
        }
      ],
      "name": "claim",
      "outputs": [],
      "stateMutability": "nonpayable",
      "type": "function"
    },
    {
      "inputs": [],
      "name": "claim",
      "outputs": [],
      "stateMutability": "nonpayable",
      "type": "function"
    },
    {
      "inputs": [
        {
          "internalType": "address",
          "name": "",
          "type": "address"
        }
      ],
      "name": "cliffAt",
      "outputs": [
        {
          "internalType": "uint256",
          "name": "",
          "type": "uint256"
        }
      ],
      "stateMutability": "view",
      "type": "function"
    },
    {
      "inputs": [],
      "name": "disableCanDisable",
      "outputs": [],
      "stateMutability": "nonpayable",
      "type": "function"
    },
    {
      "inputs": [
        {
          "internalType": "address",
          "name": "",
          "type": "address"
        }
      ],
      "name": "disabledAt",
      "outputs": [
        {
          "internalType": "uint256",
          "name": "",
          "type": "uint256"
        }
      ],
      "stateMutability": "view",
      "type": "function"
    },
    {
      "inputs": [],
      "name": "duration",
      "outputs": [
        {
          "internalType": "uint256",
          "name": "",
          "type": "uint256"
        }
      ],
      "stateMutability": "view",
      "type": "function"
    },
    {
      "inputs": [
        {
          "internalType": "uint256",
          "name": "_startAt",
          "type": "uint256"
        },
        {
          "internalType": "address[]",
          "name": "_recipient",
          "type": "address[]"
        },
        {
          "internalType": "uint256[]",
          "name": "_amount",
          "type": "uint256[]"
        }
      ],
      "name": "fund",
      "outputs": [
        {
          "internalType": "bool",
          "name": "",
          "type": "bool"
        }
      ],
      "stateMutability": "nonpayable",
      "type": "function"
    },
    {
      "inputs": [
        {
          "internalType": "address[]",
          "name": "_recipient",
          "type": "address[]"
        },
        {
          "internalType": "uint256[]",
          "name": "_amount",
          "type": "uint256[]"
        }
      ],
      "name": "fund",
      "outputs": [
        {
          "internalType": "bool",
          "name": "",
          "type": "bool"
        }
      ],
      "stateMutability": "nonpayable",
      "type": "function"
    },
    {
      "inputs": [
        {
          "internalType": "uint256",
          "name": "_startAt",
          "type": "uint256"
        },
        {
          "internalType": "uint256",
          "name": "_cliffDuration",
          "type": "uint256"
        },
        {
          "internalType": "address[]",
          "name": "_recipient",
          "type": "address[]"
        },
        {
          "internalType": "uint256[]",
          "name": "_amount",
          "type": "uint256[]"
        }
      ],
      "name": "fund",
      "outputs": [
        {
          "internalType": "bool",
          "name": "",
          "type": "bool"
        }
      ],
      "stateMutability": "nonpayable",
      "type": "function"
    },
    {
      "inputs": [],
      "name": "fundAdmin",
      "outputs": [
        {
          "internalType": "address",
          "name": "",
          "type": "address"
        }
      ],
      "stateMutability": "view",
      "type": "function"
    },
    {
      "inputs": [
        {
          "internalType": "address",
          "name": "",
          "type": "address"
        }
      ],
      "name": "initialLocked",
      "outputs": [
        {
          "internalType": "uint256",
          "name": "",
          "type": "uint256"
        }
      ],
      "stateMutability": "view",
      "type": "function"
    },
    {
      "inputs": [],
      "name": "initialLockedSupply",
      "outputs": [
        {
          "internalType": "uint256",
          "name": "",
          "type": "uint256"
        }
      ],
      "stateMutability": "view",
      "type": "function"
    },
    {
      "inputs": [
        {
          "internalType": "address",
          "name": "_recipient",
          "type": "address"
        }
      ],
      "name": "lockedOf",
      "outputs": [
        {
          "internalType": "uint256",
          "name": "",
          "type": "uint256"
        }
      ],
      "stateMutability": "view",
      "type": "function"
    },
    {
      "inputs": [],
      "name": "lockedSupply",
      "outputs": [
        {
          "internalType": "uint256",
          "name": "",
          "type": "uint256"
        }
      ],
      "stateMutability": "view",
      "type": "function"
    },
    {
      "inputs": [
        {
          "internalType": "uint256",
          "name": "",
          "type": "uint256"
        }
      ],
      "name": "members",
      "outputs": [
        {
          "internalType": "address",
          "name": "",
          "type": "address"
        }
      ],
      "stateMutability": "view",
      "type": "function"
    },
    {
      "inputs": [],
      "name": "rewardToken",
      "outputs": [
        {
          "internalType": "contract IERC20",
          "name": "",
          "type": "address"
        }
      ],
      "stateMutability": "view",
      "type": "function"
    },
    {
      "inputs": [
        {
          "internalType": "address",
          "name": "_admin",
          "type": "address"
        }
      ],
      "name": "setAdmin",
      "outputs": [],
      "stateMutability": "nonpayable",
      "type": "function"
    },
    {
      "inputs": [
        {
          "internalType": "address",
          "name": "_fundadmin",
          "type": "address"
        }
      ],
      "name": "setFundAdmin",
      "outputs": [],
      "stateMutability": "nonpayable",
      "type": "function"
    },
    {
      "inputs": [],
      "name": "startAfter",
      "outputs": [
        {
          "internalType": "uint256",
          "name": "",
          "type": "uint256"
        }
      ],
      "stateMutability": "view",
      "type": "function"
    },
    {
      "inputs": [
        {
          "internalType": "address",
          "name": "",
          "type": "address"
        }
      ],
      "name": "startedAt",
      "outputs": [
        {
          "internalType": "uint256",
          "name": "",
          "type": "uint256"
        }
      ],
      "stateMutability": "view",
      "type": "function"
    },
    {
      "inputs": [
        {
          "internalType": "address",
          "name": "_recipient",
          "type": "address"
        }
      ],
      "name": "toggle_disable",
      "outputs": [],
      "stateMutability": "nonpayable",
      "type": "function"
    },
    {
      "inputs": [
        {
          "internalType": "address",
          "name": "",
          "type": "address"
        }
      ],
      "name": "totalClaimed",
      "outputs": [
        {
          "internalType": "uint256",
          "name": "",
          "type": "uint256"
        }
      ],
      "stateMutability": "view",
      "type": "function"
    },
    {
      "inputs": [],
      "name": "unallocatedSupply",
      "outputs": [
        {
          "internalType": "uint256",
          "name": "",
          "type": "uint256"
        }
      ],
      "stateMutability": "view",
      "type": "function"
    },
    {
      "inputs": [
        {
          "internalType": "address",
          "name": "_recipient",
          "type": "address"
        }
      ],
      "name": "vestedOf",
      "outputs": [
        {
          "internalType": "uint256",
          "name": "",
          "type": "uint256"
        }
      ],
      "stateMutability": "view",
      "type": "function"
    },
    {
      "inputs": [],
      "name": "vestedSupply",
      "outputs": [
        {
          "internalType": "uint256",
          "name": "",
          "type": "uint256"
        }
      ],
      "stateMutability": "view",
      "type": "function"
    }
  ],
  "transactionHash": "0x963fd839d4d69083a043e34841e9b6726869b9fa245eccaebe394a7faf333cc9",
  "args": [
    "0x35bbc626e88551DB4989bBe4fF25a97a4Fd9182D",
    1641769593,
    157680000,
    false,
    "0x83e50cD4123bAA60f6d6c8A83ca85Ac72e826bD0"
  ],
  "solcInputHash": "0dc3178e7c5edfe1ad1004a8f7a23d28",
  "bytecode": "0x60806040523480156200001157600080fd5b506040516200160238038062001602833981016040819052620000349162000159565b6001600055428410156200008f5760405162461bcd60e51b815260206004820152601460248201527f7374617274206d7573742062652066757475726500000000000000000000000060448201526064015b60405180910390fd5b60008311620000e15760405162461bcd60e51b815260206004820152601860248201527f6475726174696f6e206d75737420626520677265617465720000000000000000604482015260640162000086565b600180546001600160a01b039687166001600160a01b031991821617909155600494909455600592909255600c805491151560ff199092169190911790556002805483163317905560038054919093169116179055620001bd565b80516001600160a01b03811681146200015457600080fd5b919050565b600080600080600060a086880312156200017257600080fd5b6200017d866200013c565b9450602086015193506040860151925060608601518015158114620001a157600080fd5b9150620001b1608087016200013c565b90509295509295909350565b61143580620001cd6000396000f3fe608060405234801561001057600080fd5b50600436106101cf5760003560e01c80639447710411610104578063c6ed8990116100a2578063ef5d9ae811610071578063ef5d9ae8146103c6578063f63d6b15146103e6578063f7c618c1146103f9578063f851a4401461040c57600080fd5b8063c6ed89901461039a578063ca5c7b91146103ad578063d9844dc0146103b5578063e39c4a88146103bd57600080fd5b8063a96d1edc116100de578063a96d1edc1461034b578063aa04ae781461035e578063aab035b714610367578063b1e56f6b1461038757600080fd5b806394477104146103125780639c45658314610325578063a5f1e2821461033857600080fd5b80635c5d070811610171578063704b6c021161014b578063704b6c02146102c357806370a08231146102d65780637664d067146102e95780637d086b291461030957600080fd5b80635c5d0708146102705780635c998cc4146102785780635daf08ca1461029857600080fd5b80631ef92578116101ad5780631ef925781461022557806336fc59c7146102425780634e71d92d146102555780635c1b73741461025d57600080fd5b8063099d695f146101d45780630fb5a6b4146102075780631e83409a14610210575b600080fd5b6101f46101e236600461105e565b600a6020526000908152604090205481565b6040519081526020015b60405180910390f35b6101f460055481565b61022361021e36600461105e565b61041f565b005b600c546102329060ff1681565b60405190151581526020016101fe565b61022361025036600461105e565b610514565b61022361061f565b61023261026b3660046110d3565b61062a565b610223610675565b6101f461028636600461105e565b600d6020526000908152604090205481565b6102ab6102a636600461114d565b6106ab565b6040516001600160a01b0390911681526020016101fe565b6102236102d136600461105e565b6106d5565b6101f46102e436600461105e565b610721565b6101f46102f736600461105e565b60096020526000908152604090205481565b6101f460065481565b6101f461032036600461105e565b610753565b6003546102ab906001600160a01b031681565b6101f461034636600461105e565b61075e565b61022361035936600461105e565b61078c565b6101f460075481565b6101f461037536600461105e565b60086020526000908152604090205481565b610232610395366004611166565b6107d8565b6102326103a836600461114d565b610822565b6101f4610880565b6101f461089c565b6101f460045481565b6101f46103d436600461105e565b600b6020526000908152604090205481565b6102326103f43660046111d2565b6108a6565b6001546102ab906001600160a01b031681565b6002546102ab906001600160a01b031681565b6002600054141561044b5760405162461bcd60e51b815260040161044290611255565b60405180910390fd5b6002600090815561045b826108ee565b6001600160a01b0383166000908152600b60205260408120549192509061048290836112a2565b6001600160a01b0384166000908152600b60205260409020549091506104a99082906112b9565b6001600160a01b038085166000908152600b60205260409020919091556001546104d5911684836109ab565b60405181815233907f47cee97cb7acd717b3c0aa1435d004cd5b3c8c57d70dbceb4e4458bbd60e39d49060200160405180910390a25050600160005550565b6002546001600160a01b0316331461053e5760405162461bcd60e51b8152600401610442906112d1565b600c5460ff1661057e5760405162461bcd60e51b815260206004820152600b60248201526a2163616e44697361626c6560a81b6044820152606401610442565b6001600160a01b0381166000908152600d60205260409020541580156105be576001600160a01b0382166000908152600d602052604090204290556105d8565b6001600160a01b0382166000908152600d60205260408120555b604080516001600160a01b038416815282151560208201527fcc8442d1b68aaf1cdb1da2b3d9ebf3daad586d3404166b75d744a8b5092cefad910160405180910390a15050565b6106283361041f565b565b60006002600054141561064f5760405162461bcd60e51b815260040161044290611255565b600260008190555061066686600087878787610a13565b60016000559695505050505050565b6002546001600160a01b0316331461069f5760405162461bcd60e51b8152600401610442906112d1565b600c805460ff19169055565b600e81815481106106bb57600080fd5b6000918252602090912001546001600160a01b0316905081565b6002546001600160a01b031633146106ff5760405162461bcd60e51b8152600401610442906112d1565b600280546001600160a01b0319166001600160a01b0392909216919091179055565b6001600160a01b0381166000908152600b6020526040812054610743836108ee565b61074d91906112a2565b92915050565b600061074d826108ee565b6000610769826108ee565b6001600160a01b0383166000908152600a602052604090205461074d91906112a2565b6002546001600160a01b031633146107b65760405162461bcd60e51b8152600401610442906112d1565b600380546001600160a01b0319166001600160a01b0392909216919091179055565b6000600260005414156107fd5760405162461bcd60e51b815260040161044290611255565b600260009081556004546108149187878787610a13565b600160005595945050505050565b6002546000906001600160a01b0316331461084f5760405162461bcd60e51b8152600401610442906112d1565b600154610867906001600160a01b0316333085610d5a565b8160075461087591906112b9565b600755506001919050565b600061088a610d98565b60065461089791906112a2565b905090565b6000610897610d98565b6000600260005414156108cb5760405162461bcd60e51b815260040161044290611255565b60026000556108de878787878787610a13565b6001600055979650505050505050565b6001600160a01b038116600090815260086020908152604080832054600d9092528220548061091a5750425b8181101561092c575060009392505050565b6001600160a01b038416600090815260096020526040902054811015610956575060009392505050565b6001600160a01b0384166000908152600a60205260408120549061097a84846112a2565b905060006109a0600554838561099091906112f0565b61099a919061130f565b84610e0c565b979650505050505050565b6040516001600160a01b038316602482015260448101829052610a0e90849063a9059cbb60e01b906064015b60408051601f198184030181529190526020810180516001600160e01b03166001600160e01b031990931692909217909152610e24565b505050565b6003546000906001600160a01b0316331480610a3957506002546001600160a01b031633145b610a555760405162461bcd60e51b8152600401610442906112d1565b6004548790811015610a6657506004545b6000805b86811015610ceb576000868683818110610a8657610a86611331565b905060200201359050600860008a8a85818110610aa557610aa5611331565b9050602002016020810190610aba919061105e565b6001600160a01b03168152602081019190915260400160002054610bc757600e898984818110610aec57610aec611331565b9050602002016020810190610b01919061105e565b81546001810183556000928352602083200180546001600160a01b0319166001600160a01b039290921691909117905584906008908b8b86818110610b4857610b48611331565b9050602002016020810190610b5d919061105e565b6001600160a01b03168152602081019190915260400160002055610b818a856112b9565b600960008b8b86818110610b9757610b97611331565b9050602002016020810190610bac919061105e565b6001600160a01b031681526020810191909152604001600020555b80600a60008b8b86818110610bde57610bde611331565b9050602002016020810190610bf3919061105e565b6001600160a01b03166001600160a01b0316815260200190815260200160002054610c1e91906112b9565b600a60008b8b86818110610c3457610c34611331565b9050602002016020810190610c49919061105e565b6001600160a01b03168152602081019190915260400160002055610c6d81846112b9565b9250888883818110610c8157610c81611331565b9050602002016020810190610c96919061105e565b6001600160a01b03167fda8220a878ff7a89474ccffdaa31ea1ed1ffbb0207d5051afccc4fbaf81f9bcd82604051610cd091815260200190565b60405180910390a25080610ce381611347565b915050610a6a565b50600754811115610d295760405162461bcd60e51b81526020600482015260086024820152672162616c616e636560c01b6044820152606401610442565b80600654610d3791906112b9565b600655600754610d489082906112a2565b60075550600198975050505050505050565b6040516001600160a01b0380851660248301528316604482015260648101829052610d929085906323b872dd60e01b906084016109d7565b50505050565b6000600454421015610daa5750600090565b6000805b600e54811015610e0657610de8600e8281548110610dce57610dce611331565b6000918252602090912001546001600160a01b03166108ee565b610df290836112b9565b915080610dfe81611347565b915050610dae565b50919050565b6000818310610e1b5781610e1d565b825b9392505050565b6000610e79826040518060400160405280602081526020017f5361666545524332303a206c6f772d6c6576656c2063616c6c206661696c6564815250856001600160a01b0316610ef69092919063ffffffff16565b805190915015610a0e5780806020019051810190610e979190611362565b610a0e5760405162461bcd60e51b815260206004820152602a60248201527f5361666545524332303a204552433230206f7065726174696f6e20646964206e6044820152691bdd081cdd58d8d9595960b21b6064820152608401610442565b6060610f058484600085610f0d565b949350505050565b606082471015610f6e5760405162461bcd60e51b815260206004820152602660248201527f416464726573733a20696e73756666696369656e742062616c616e636520666f6044820152651c8818d85b1b60d21b6064820152608401610442565b843b610fbc5760405162461bcd60e51b815260206004820152601d60248201527f416464726573733a2063616c6c20746f206e6f6e2d636f6e74726163740000006044820152606401610442565b600080866001600160a01b03168587604051610fd891906113b0565b60006040518083038185875af1925050503d8060008114611015576040519150601f19603f3d011682016040523d82523d6000602084013e61101a565b606091505b50915091506109a082828660608315611034575081610e1d565b8251156110445782518084602001fd5b8160405162461bcd60e51b815260040161044291906113cc565b60006020828403121561107057600080fd5b81356001600160a01b0381168114610e1d57600080fd5b60008083601f84011261109957600080fd5b50813567ffffffffffffffff8111156110b157600080fd5b6020830191508360208260051b85010111156110cc57600080fd5b9250929050565b6000806000806000606086880312156110eb57600080fd5b85359450602086013567ffffffffffffffff8082111561110a57600080fd5b61111689838a01611087565b9096509450604088013591508082111561112f57600080fd5b5061113c88828901611087565b969995985093965092949392505050565b60006020828403121561115f57600080fd5b5035919050565b6000806000806040858703121561117c57600080fd5b843567ffffffffffffffff8082111561119457600080fd5b6111a088838901611087565b909650945060208701359150808211156111b957600080fd5b506111c687828801611087565b95989497509550505050565b600080600080600080608087890312156111eb57600080fd5b8635955060208701359450604087013567ffffffffffffffff8082111561121157600080fd5b61121d8a838b01611087565b9096509450606089013591508082111561123657600080fd5b5061124389828a01611087565b979a9699509497509295939492505050565b6020808252601f908201527f5265656e7472616e637947756172643a207265656e7472616e742063616c6c00604082015260600190565b634e487b7160e01b600052601160045260246000fd5b6000828210156112b4576112b461128c565b500390565b600082198211156112cc576112cc61128c565b500190565b602080825260059082015264042c2eae8d60db1b604082015260600190565b600081600019048311821515161561130a5761130a61128c565b500290565b60008261132c57634e487b7160e01b600052601260045260246000fd5b500490565b634e487b7160e01b600052603260045260246000fd5b600060001982141561135b5761135b61128c565b5060010190565b60006020828403121561137457600080fd5b81518015158114610e1d57600080fd5b60005b8381101561139f578181015183820152602001611387565b83811115610d925750506000910152565b600082516113c2818460208701611384565b9190910192915050565b60208152600082518060208401526113eb816040850160208701611384565b601f01601f1916919091016040019291505056fea2646970667358221220a9d62dbd045037324ae48794456e315992ac6778a3939fbeb1b475c8569a932364736f6c63430008090033",
  "devdoc": {
    "kind": "dev",
    "methods": {},
    "version": 1
  },
  "userdoc": {
    "kind": "user",
    "methods": {},
    "version": 1
  },
  "storageLayout": {
    "storage": [
      {
        "astId": 2915,
        "contract": "contracts/dao/CaskVestedEscrow.sol:CaskVestedEscrow",
        "label": "_status",
        "offset": 0,
        "slot": "0",
        "type": "t_uint256"
      },
      {
        "astId": 5664,
        "contract": "contracts/dao/CaskVestedEscrow.sol:CaskVestedEscrow",
        "label": "rewardToken",
        "offset": 0,
        "slot": "1",
        "type": "t_contract(IERC20)3568"
      },
      {
        "astId": 5666,
        "contract": "contracts/dao/CaskVestedEscrow.sol:CaskVestedEscrow",
        "label": "admin",
        "offset": 0,
        "slot": "2",
        "type": "t_address"
      },
      {
        "astId": 5668,
        "contract": "contracts/dao/CaskVestedEscrow.sol:CaskVestedEscrow",
        "label": "fundAdmin",
        "offset": 0,
        "slot": "3",
        "type": "t_address"
      },
      {
        "astId": 5670,
        "contract": "contracts/dao/CaskVestedEscrow.sol:CaskVestedEscrow",
        "label": "startAfter",
        "offset": 0,
        "slot": "4",
        "type": "t_uint256"
      },
      {
        "astId": 5672,
        "contract": "contracts/dao/CaskVestedEscrow.sol:CaskVestedEscrow",
        "label": "duration",
        "offset": 0,
        "slot": "5",
        "type": "t_uint256"
      },
      {
        "astId": 5674,
        "contract": "contracts/dao/CaskVestedEscrow.sol:CaskVestedEscrow",
        "label": "initialLockedSupply",
        "offset": 0,
        "slot": "6",
        "type": "t_uint256"
      },
      {
        "astId": 5676,
        "contract": "contracts/dao/CaskVestedEscrow.sol:CaskVestedEscrow",
        "label": "unallocatedSupply",
        "offset": 0,
        "slot": "7",
        "type": "t_uint256"
      },
      {
        "astId": 5680,
        "contract": "contracts/dao/CaskVestedEscrow.sol:CaskVestedEscrow",
        "label": "startedAt",
        "offset": 0,
        "slot": "8",
        "type": "t_mapping(t_address,t_uint256)"
      },
      {
        "astId": 5684,
        "contract": "contracts/dao/CaskVestedEscrow.sol:CaskVestedEscrow",
        "label": "cliffAt",
        "offset": 0,
        "slot": "9",
        "type": "t_mapping(t_address,t_uint256)"
      },
      {
        "astId": 5688,
        "contract": "contracts/dao/CaskVestedEscrow.sol:CaskVestedEscrow",
        "label": "initialLocked",
        "offset": 0,
        "slot": "10",
        "type": "t_mapping(t_address,t_uint256)"
      },
      {
        "astId": 5692,
        "contract": "contracts/dao/CaskVestedEscrow.sol:CaskVestedEscrow",
        "label": "totalClaimed",
        "offset": 0,
        "slot": "11",
        "type": "t_mapping(t_address,t_uint256)"
      },
      {
        "astId": 5694,
        "contract": "contracts/dao/CaskVestedEscrow.sol:CaskVestedEscrow",
        "label": "canDisable",
        "offset": 0,
        "slot": "12",
        "type": "t_bool"
      },
      {
        "astId": 5698,
        "contract": "contracts/dao/CaskVestedEscrow.sol:CaskVestedEscrow",
        "label": "disabledAt",
        "offset": 0,
        "slot": "13",
        "type": "t_mapping(t_address,t_uint256)"
      },
      {
        "astId": 5701,
        "contract": "contracts/dao/CaskVestedEscrow.sol:CaskVestedEscrow",
        "label": "members",
        "offset": 0,
        "slot": "14",
        "type": "t_array(t_address)dyn_storage"
      }
    ],
    "types": {
      "t_address": {
        "encoding": "inplace",
        "label": "address",
        "numberOfBytes": "20"
      },
      "t_array(t_address)dyn_storage": {
        "base": "t_address",
        "encoding": "dynamic_array",
        "label": "address[]",
        "numberOfBytes": "32"
      },
      "t_bool": {
        "encoding": "inplace",
        "label": "bool",
        "numberOfBytes": "1"
      },
      "t_contract(IERC20)3568": {
        "encoding": "inplace",
        "label": "contract IERC20",
        "numberOfBytes": "20"
      },
      "t_mapping(t_address,t_uint256)": {
        "encoding": "mapping",
        "key": "t_address",
        "label": "mapping(address => uint256)",
        "numberOfBytes": "32",
        "value": "t_uint256"
      },
      "t_uint256": {
        "encoding": "inplace",
        "label": "uint256",
        "numberOfBytes": "32"
      }
    }
  }
}